{
  "_format": "hh-sol-artifact-1",
  "contractName": "FLSC",
  "sourceName": "contracts/FLSC.sol",
  "abi": [
    {
      "inputs": [
        {
          "internalType": "uint32",
          "name": "_number_of_entities",
          "type": "uint32"
        },
        {
          "internalType": "uint32",
          "name": "_number_of_features",
          "type": "uint32"
        },
        {
          "internalType": "uint256",
          "name": "_funding",
          "type": "uint256"
        },
        {
          "internalType": "uint256",
          "name": "_deposit",
          "type": "uint256"
        }
      ],
      "stateMutability": "nonpayable",
      "type": "constructor"
    },
    {
      "inputs": [],
      "name": "decryption_rounds",
      "outputs": [
        {
          "internalType": "uint32",
          "name": "",
          "type": "uint32"
        }
      ],
      "stateMutability": "view",
      "type": "function"
    },
    {
      "inputs": [],
      "name": "number_of_entities",
      "outputs": [
        {
          "internalType": "uint32",
          "name": "",
          "type": "uint32"
        }
      ],
      "stateMutability": "view",
      "type": "function"
    },
    {
      "inputs": [],
      "name": "number_of_features",
      "outputs": [
        {
          "internalType": "uint32",
          "name": "",
          "type": "uint32"
        }
      ],
      "stateMutability": "view",
      "type": "function"
    },
    {
      "inputs": [
        {
          "internalType": "uint256",
          "name": "",
          "type": "uint256"
        }
      ],
      "name": "public_key",
      "outputs": [
        {
          "internalType": "uint256",
          "name": "",
          "type": "uint256"
        }
      ],
      "stateMutability": "view",
      "type": "function"
    },
    {
      "inputs": [
        {
          "internalType": "string",
          "name": "class",
          "type": "string"
        }
      ],
      "name": "return_mu_random",
      "outputs": [
        {
          "internalType": "uint256[][]",
          "name": "",
          "type": "uint256[][]"
        }
      ],
      "stateMutability": "view",
      "type": "function"
    },
    {
      "inputs": [
        {
          "internalType": "string",
          "name": "class",
          "type": "string"
        }
      ],
      "name": "return_partial_decrypted_mu",
      "outputs": [
        {
          "internalType": "uint256[][]",
          "name": "",
          "type": "uint256[][]"
        }
      ],
      "stateMutability": "view",
      "type": "function"
    },
    {
      "inputs": [
        {
          "internalType": "string",
          "name": "class",
          "type": "string"
        }
      ],
      "name": "return_submit_count",
      "outputs": [
        {
          "internalType": "uint32",
          "name": "",
          "type": "uint32"
        }
      ],
      "stateMutability": "view",
      "type": "function"
    },
    {
      "inputs": [
        {
          "internalType": "string",
          "name": "class",
          "type": "string"
        }
      ],
      "name": "return_varience_partial_decrypted",
      "outputs": [
        {
          "internalType": "uint256[][]",
          "name": "",
          "type": "uint256[][]"
        }
      ],
      "stateMutability": "view",
      "type": "function"
    },
    {
      "inputs": [
        {
          "internalType": "string",
          "name": "class",
          "type": "string"
        }
      ],
      "name": "return_varience_random",
      "outputs": [
        {
          "internalType": "uint256[][]",
          "name": "",
          "type": "uint256[][]"
        }
      ],
      "stateMutability": "view",
      "type": "function"
    },
    {
      "inputs": [],
      "name": "start_decryption",
      "outputs": [],
      "stateMutability": "nonpayable",
      "type": "function"
    },
    {
      "inputs": [
        {
          "internalType": "uint256[2]",
          "name": "a",
          "type": "uint256[2]"
        },
        {
          "internalType": "uint256[2][2]",
          "name": "b",
          "type": "uint256[2][2]"
        },
        {
          "internalType": "uint256[2]",
          "name": "c",
          "type": "uint256[2]"
        },
        {
          "internalType": "uint256[]",
          "name": "_C_mean_prime_x",
          "type": "uint256[]"
        },
        {
          "internalType": "uint256[]",
          "name": "_C_mean_prime_y",
          "type": "uint256[]"
        },
        {
          "internalType": "uint256[]",
          "name": "_C_var_prime_x",
          "type": "uint256[]"
        },
        {
          "internalType": "uint256[]",
          "name": "_C_var_prime_y",
          "type": "uint256[]"
        },
        {
          "internalType": "uint256[2]",
          "name": "_Pk",
          "type": "uint256[2]"
        },
        {
          "internalType": "string",
          "name": "class",
          "type": "string"
        }
      ],
      "name": "submit_decryption",
      "outputs": [],
      "stateMutability": "nonpayable",
      "type": "function"
    },
    {
      "inputs": [
        {
          "internalType": "address",
          "name": "entity",
          "type": "address"
        }
      ],
      "name": "submit_entity",
      "outputs": [],
      "stateMutability": "nonpayable",
      "type": "function"
    },
    {
      "inputs": [
        {
          "internalType": "uint256",
          "name": "pubkey",
          "type": "uint256"
        }
      ],
      "name": "submit_pubkey",
      "outputs": [],
      "stateMutability": "payable",
      "type": "function"
    },
    {
      "inputs": [
        {
          "internalType": "uint256[2]",
          "name": "a",
          "type": "uint256[2]"
        },
        {
          "internalType": "uint256[2][2]",
          "name": "b",
          "type": "uint256[2][2]"
        },
        {
          "internalType": "uint256[2]",
          "name": "c",
          "type": "uint256[2]"
        },
        {
          "internalType": "uint256",
          "name": "acccuracy",
          "type": "uint256"
        },
        {
          "internalType": "uint256[][]",
          "name": "_mu_R",
          "type": "uint256[][]"
        },
        {
          "internalType": "uint256[][]",
          "name": "_mu_C",
          "type": "uint256[][]"
        },
        {
          "internalType": "uint256[][]",
          "name": "vars_R",
          "type": "uint256[][]"
        },
        {
          "internalType": "uint256[][]",
          "name": "vars_C",
          "type": "uint256[][]"
        },
        {
          "internalType": "string",
          "name": "class",
          "type": "string"
        }
      ],
      "name": "submit_update",
      "outputs": [],
      "stateMutability": "nonpayable",
      "type": "function"
    }
  ],
  "bytecode": "0x608060405260008060086101000a81548163ffffffff021916908363ffffffff160217905550600060025560006003556040516200003d9062000283565b604051809103906000f0801580156200005a573d6000803e3d6000fd5b50600560006101000a81548173ffffffffffffffffffffffffffffffffffffffff021916908373ffffffffffffffffffffffffffffffffffffffff160217905550604051620000a99062000291565b604051809103906000f080158015620000c6573d6000803e3d6000fd5b50600660006101000a81548173ffffffffffffffffffffffffffffffffffffffff021916908373ffffffffffffffffffffffffffffffffffffffff1602179055503480156200011457600080fd5b5060405162008e5c38038062008e5c83398181016040528101906200013a919062000331565b33600760006101000a81548173ffffffffffffffffffffffffffffffffffffffff021916908373ffffffffffffffffffffffffffffffffffffffff1602179055506004600760009054906101000a900473ffffffffffffffffffffffffffffffffffffffff169080600181540180825580915050600190039060005260206000200160009091909190916101000a81548173ffffffffffffffffffffffffffffffffffffffff021916908373ffffffffffffffffffffffffffffffffffffffff160217905550826000806101000a81548163ffffffff021916908363ffffffff16021790555083600060046101000a81548163ffffffff021916908363ffffffff160217905550604051806040016040528060008152602001600181525060089060026200026a9291906200029f565b50816002819055508060038190555050505050620003f6565b611fec8062004a4b83390190565b6124258062006a3783390190565b8260028101928215620002d1579160200282015b82811115620002d0578251825591602001919060010190620002b3565b5b509050620002e09190620002e4565b5090565b5b80821115620002ff576000816000905550600101620002e5565b5090565b6000815190506200031481620003c2565b92915050565b6000815190506200032b81620003dc565b92915050565b600080600080608085870312156200034e576200034d620003bd565b5b60006200035e878288016200031a565b945050602062000371878288016200031a565b9350506040620003848782880162000303565b9250506060620003978782880162000303565b91505092959194509250565b6000819050919050565b600063ffffffff82169050919050565b600080fd5b620003cd81620003a3565b8114620003d957600080fd5b50565b620003e781620003ad565b8114620003f357600080fd5b50565b61464580620004066000396000f3fe6080604052600436106100dd5760003560e01c80638479e0d31161007f578063a261b04a11610059578063a261b04a146102c5578063bdb900fd146102dc578063dbcb1c4414610305578063ef5349d314610342576100dd565b80638479e0d31461024457806385871e491461026f57806389e3b0e51461029a576100dd565b80631f1895d0116100bb5780631f1895d0146101855780633470f117146101a15780633de222ec146101de5780636b437d3c1461021b576100dd565b806305db8c5a146100e25780630b9180c51461010b5780631c0b0b5814610148575b600080fd5b3480156100ee57600080fd5b506101096004803603810190610104919061365c565b61037f565b005b34801561011757600080fd5b50610132600480360381019061012d919061396c565b6104ed565b60405161013f9190613e3e565b60405180910390f35b34801561015457600080fd5b5061016f600480360381019061016a919061396c565b6105aa565b60405161017c9190613e3e565b60405180910390f35b61019f600480360381019061019a91906139b5565b610667565b005b3480156101ad57600080fd5b506101c860048036038101906101c3919061396c565b610743565b6040516101d59190613f31565b60405180910390f35b3480156101ea57600080fd5b50610205600480360381019061020091906139b5565b61077b565b6040516102129190613f16565b60405180910390f35b34801561022757600080fd5b50610242600480360381019061023d9190613689565b610796565b005b34801561025057600080fd5b50610259610ed7565b6040516102669190613f31565b60405180910390f35b34801561027b57600080fd5b50610284610eed565b6040516102919190613f31565b60405180910390f35b3480156102a657600080fd5b506102af610f01565b6040516102bc9190613f31565b60405180910390f35b3480156102d157600080fd5b506102da610f17565b005b3480156102e857600080fd5b5061030360048036038101906102fe91906137e4565b61113c565b005b34801561031157600080fd5b5061032c6004803603810190610327919061396c565b61221e565b6040516103399190613e3e565b60405180910390f35b34801561034e57600080fd5b506103696004803603810190610364919061396c565b6122db565b6040516103769190613e3e565b60405180910390f35b6004819080600181540180825580915050600190039060005260206000200160009091909190916101000a81548173ffffffffffffffffffffffffffffffffffffffff021916908373ffffffffffffffffffffffffffffffffffffffff1602179055506000600a60008373ffffffffffffffffffffffffffffffffffffffff1673ffffffffffffffffffffffffffffffffffffffff16815260200190815260200160002060006101000a81548160ff0219169083151502179055506001601360008373ffffffffffffffffffffffffffffffffffffffff1673ffffffffffffffffffffffffffffffffffffffff16815260200190815260200160002060006101000a81548160ff0219169083151502179055506000601460008373ffffffffffffffffffffffffffffffffffffffff1673ffffffffffffffffffffffffffffffffffffffff16815260200190815260200160002060006101000a81548160ff02191690831515021790555050565b6060600e826040516104ff9190613e10565b9081526020016040518091039020805480602002602001604051908101604052809291908181526020016000905b8282101561059f5783829060005260206000200180548060200260200160405190810160405280929190818152602001828054801561058b57602002820191906000526020600020905b815481526020019060010190808311610577575b50505050508152602001906001019061052d565b505050509050919050565b60606010826040516105bc9190613e10565b9081526020016040518091039020805480602002602001604051908101604052809291908181526020016000905b8282101561065c5783829060005260206000200180548060200260200160405190810160405280929190818152602001828054801561064857602002820191906000526020600020905b815481526020019060010190808311610634575b5050505050815260200190600101906105ea565b505050509050919050565b600354600254610677919061417b565b341461068257600080fd5b600061068d82612398565b90506106d660086002806020026040519081016040528092919082600280156106cb576020028201915b8154815260200190600101908083116106b7575b505050505082612556565b60089060026106e6929190612f19565b506001601460003373ffffffffffffffffffffffffffffffffffffffff1673ffffffffffffffffffffffffffffffffffffffff16815260200190815260200160002060006101000a81548160ff0219169083151502179055505050565b60006012826040516107559190613e10565b908152602001604051809103902060009054906101000a900463ffffffff169050919050565b6008816002811061078b57600080fd5b016000915090505481565b61079e612f59565b604051806060016040528060405180604001604052808d6000600281106107c8576107c76144a1565b5b602002015181526020018d6001600281106107e6576107e56144a1565b5b6020020151815250815260200160405180604001604052808c600060028110610812576108116144a1565b5b602002015181526020018c6001600281106108305761082f6144a1565b5b6020020151815250815260200160405180604001604052808b60006002811061085c5761085b6144a1565b5b602002015181526020018b60016002811061087a576108796144a1565b5b6020020151815250815250905061088f612f8c565b600080600090505b60068163ffffffff161015610c1c5760005b60008054906101000a900463ffffffff1663ffffffff168163ffffffff161015610c0857808260008054906101000a900463ffffffff166108ea919061420b565b6108f491906141d1565b925060008263ffffffff16141561098a57600d866040516109159190613e10565b9081526020016040518091039020600081548110610936576109356144a1565b5b906000526020600020018163ffffffff1681548110610958576109576144a1565b5b9060005260206000200154848463ffffffff166021811061097c5761097b6144a1565b5b602002018181525050610bf5565b60018263ffffffff161415610a1e57600f866040516109a99190613e10565b90815260200160405180910390206000815481106109ca576109c96144a1565b5b906000526020600020018163ffffffff16815481106109ec576109eb6144a1565b5b9060005260206000200154848463ffffffff1660218110610a1057610a0f6144a1565b5b602002018181525050610bf4565b60028263ffffffff161415610a75578a8163ffffffff1681518110610a4657610a456144a1565b5b6020026020010151848463ffffffff1660218110610a6757610a666144a1565b5b602002018181525050610bf3565b60038263ffffffff161415610b0957600e86604051610a949190613e10565b9081526020016040518091039020600081548110610ab557610ab46144a1565b5b906000526020600020018163ffffffff1681548110610ad757610ad66144a1565b5b9060005260206000200154848463ffffffff1660218110610afb57610afa6144a1565b5b602002018181525050610bf2565b60048263ffffffff161415610b9d57601086604051610b289190613e10565b9081526020016040518091039020600081548110610b4957610b486144a1565b5b906000526020600020018163ffffffff1681548110610b6b57610b6a6144a1565b5b9060005260206000200154848463ffffffff1660218110610b8f57610b8e6144a1565b5b602002018181525050610bf1565b60058263ffffffff161415610bf057888163ffffffff1681518110610bc557610bc46144a1565b5b6020026020010151848463ffffffff1660218110610be657610be56144a1565b5b6020020181815250505b5b5b5b5b5b8080610c00906143e7565b9150506108a9565b508080610c14906143e7565b915050610897565b5084600060028110610c3157610c306144a1565b5b602002015182600183610c4491906141d1565b63ffffffff1660218110610c5b57610c5a6144a1565b5b60200201818152505084600160028110610c7857610c776144a1565b5b602002015182600283610c8b91906141d1565b63ffffffff1660218110610ca257610ca16144a1565b5b602002018181525050600182600383610cbb91906141d1565b63ffffffff1660218110610cd257610cd16144a1565b5b602002018181525050600660009054906101000a900473ffffffffffffffffffffffffffffffffffffffff1673ffffffffffffffffffffffffffffffffffffffff1663785b3bbb84846040518363ffffffff1660e01b8152600401610d38929190613eeb565b60206040518083038186803b158015610d5057600080fd5b505afa158015610d64573d6000803e3d6000fd5b505050506040513d601f19601f82011682018060405250810190610d88919061393f565b610dc7576040517f08c379a0000000000000000000000000000000000000000000000000000000008152600401610dbe90613ea0565b60405180910390fd5b601560003373ffffffffffffffffffffffffffffffffffffffff1673ffffffffffffffffffffffffffffffffffffffff168152602001908152602001600020600081819054906101000a900463ffffffff1680929190610e26906143e7565b91906101000a81548163ffffffff021916908363ffffffff1602179055505060405180604001604052808a815260200189815250600f85604051610e6a9190613e10565b9081526020016040518091039020906002610e86929190612faf565b50604051806040016040528088815260200187815250601085604051610eac9190613e10565b9081526020016040518091039020906002610ec8929190612faf565b50505050505050505050505050565b600060089054906101000a900463ffffffff1681565b60008054906101000a900463ffffffff1681565b600060049054906101000a900463ffffffff1681565b600760009054906101000a900473ffffffffffffffffffffffffffffffffffffffff1673ffffffffffffffffffffffffffffffffffffffff163373ffffffffffffffffffffffffffffffffffffffff1614610fa7576040517f08c379a0000000000000000000000000000000000000000000000000000000008152600401610f9e90613e60565b60405180910390fd5b6000600180549050905060005b818163ffffffff1610156110f757600b60018263ffffffff1681548110610fde57610fdd6144a1565b5b90600052602060002001604051610ff59190613e27565b9081526020016040518091039020600f60018363ffffffff168154811061101f5761101e6144a1565b5b906000526020600020016040516110369190613e27565b908152602001604051809103902090805461105292919061300f565b50600c60018263ffffffff168154811061106f5761106e6144a1565b5b906000526020600020016040516110869190613e27565b9081526020016040518091039020601060018363ffffffff16815481106110b0576110af6144a1565b5b906000526020600020016040516110c79190613e27565b90815260200160405180910390209080546110e392919061300f565b5080806110ef906143e7565b915050610fb4565b506000600881819054906101000a900463ffffffff168092919061111a906143e7565b91906101000a81548163ffffffff021916908363ffffffff1602179055505050565b61114461306e565b61114c613091565b6111546130c4565b8883600060188110611169576111686144a1565b5b602002018181525050604051806060016040528060405180604001604052808f60006002811061119c5761119b6144a1565b5b602002015181526020018f6001600281106111ba576111b96144a1565b5b6020020151815250815260200160405180604001604052808e6000600281106111e6576111e56144a1565b5b602002015181526020018e600160028110611204576112036144a1565b5b6020020151815250815260200160405180604001604052808d6000600281106112305761122f6144a1565b5b602002015181526020018d60016002811061124e5761124d6144a1565b5b60200201518152508152509150600080600090505b60048163ffffffff1610156114bc5760005b60008054906101000a900463ffffffff1663ffffffff168163ffffffff1610156114a8576001818360008054906101000a900463ffffffff166112b8919061420b565b6112c291906141d1565b6112cc91906141d1565b925060008263ffffffff161415611340578a6000815181106112f1576112f06144a1565b5b60200260200101518163ffffffff1681518110611311576113106144a1565b5b6020026020010151868463ffffffff1660188110611332576113316144a1565b5b602002018181525050611495565b60018263ffffffff1614156113b25789600081518110611363576113626144a1565b5b60200260200101518163ffffffff1681518110611383576113826144a1565b5b6020026020010151868463ffffffff16601881106113a4576113a36144a1565b5b602002018181525050611494565b60028263ffffffff16141561142457886000815181106113d5576113d46144a1565b5b60200260200101518163ffffffff16815181106113f5576113f46144a1565b5b6020026020010151868463ffffffff1660188110611416576114156144a1565b5b602002018181525050611493565b60038263ffffffff1614156114925787600081518110611447576114466144a1565b5b60200260200101518163ffffffff1681518110611467576114666144a1565b5b6020026020010151868463ffffffff1660188110611488576114876144a1565b5b6020020181815250505b5b5b5b80806114a0906143e7565b915050611275565b5080806114b4906143e7565b915050611263565b5060086000600281106114d2576114d16144a1565b5b0154846001836114e291906141d1565b63ffffffff16601881106114f9576114f86144a1565b5b6020020181815250506008600160028110611517576115166144a1565b5b01548460028361152791906141d1565b63ffffffff166018811061153e5761153d6144a1565b5b60200201818152505060018460038361155791906141d1565b63ffffffff166018811061156e5761156d6144a1565b5b602002018181525050600560009054906101000a900473ffffffffffffffffffffffffffffffffffffffff1673ffffffffffffffffffffffffffffffffffffffff166388e3f31784866040518363ffffffff1660e01b81526004016115d4929190613ec0565b60206040518083038186803b1580156115ec57600080fd5b505afa158015611600573d6000803e3d6000fd5b505050506040513d601f19601f82011682018060405250810190611624919061393f565b611663576040517f08c379a000000000000000000000000000000000000000000000000000000000815260040161165a90613e80565b60405180910390fd5b60016012866040516116759190613e10565b908152602001604051809103902060008282829054906101000a900463ffffffff166116a191906141d1565b92506101000a81548163ffffffff021916908363ffffffff1602179055506011856040516116cf9190613e10565b908152602001604051809103902060009054906101000a900460ff166118335760018590806001815401808255809150506001900390600052602060002001600090919091909150908051906020019061172a9291906130e6565b5087600b8660405161173c9190613e10565b9081526020016040518091039020908051906020019061175d92919061316c565b5085600c8660405161176f9190613e10565b9081526020016040518091039020908051906020019061179092919061316c565b5060016011866040516117a39190613e10565b908152602001604051809103902060006101000a81548160ff02191690831515021790555088600d866040516117d99190613e10565b908152602001604051809103902090805190602001906117fa92919061316c565b5086600e8660405161180c9190613e10565b9081526020016040518091039020908051906020019061182d92919061316c565b5061220f565b60005b60008054906101000a900463ffffffff1663ffffffff168163ffffffff16101561220d576119cc6118f060405180604001604052808c60008151811061187f5761187e6144a1565b5b60200260200101518563ffffffff168151811061189f5761189e6144a1565b5b602002602001015181526020018c6001815181106118c0576118bf6144a1565b5b60200260200101518563ffffffff16815181106118e0576118df6144a1565b5b602002602001015181525061289e565b6119c76040518060400160405280600b8b60405161190e9190613e10565b908152602001604051809103902060008154811061192f5761192e6144a1565b5b906000526020600020018663ffffffff1681548110611951576119506144a1565b5b90600052602060002001548152602001600b8b6040516119719190613e10565b9081526020016040518091039020600181548110611992576119916144a1565b5b906000526020600020018663ffffffff16815481106119b4576119b36144a1565b5b906000526020600020015481525061289e565b6129b5565b9250826000600281106119e2576119e16144a1565b5b6020020151600b876040516119f79190613e10565b9081526020016040518091039020600081548110611a1857611a176144a1565b5b906000526020600020018263ffffffff1681548110611a3a57611a396144a1565b5b906000526020600020018190555082600160028110611a5c57611a5b6144a1565b5b6020020151600b87604051611a719190613e10565b9081526020016040518091039020600181548110611a9257611a916144a1565b5b906000526020600020018263ffffffff1681548110611ab457611ab36144a1565b5b9060005260206000200181905550611c34611b5860405180604001604052808a600081518110611ae757611ae66144a1565b5b60200260200101518563ffffffff1681518110611b0757611b066144a1565b5b602002602001015181526020018a600181518110611b2857611b276144a1565b5b60200260200101518563ffffffff1681518110611b4857611b476144a1565b5b602002602001015181525061289e565b611c2f6040518060400160405280600c8b604051611b769190613e10565b9081526020016040518091039020600081548110611b9757611b966144a1565b5b906000526020600020018663ffffffff1681548110611bb957611bb86144a1565b5b90600052602060002001548152602001600c8b604051611bd99190613e10565b9081526020016040518091039020600181548110611bfa57611bf96144a1565b5b906000526020600020018663ffffffff1681548110611c1c57611c1b6144a1565b5b906000526020600020015481525061289e565b6129b5565b925082600060028110611c4a57611c496144a1565b5b6020020151600c87604051611c5f9190613e10565b9081526020016040518091039020600081548110611c8057611c7f6144a1565b5b906000526020600020018263ffffffff1681548110611ca257611ca16144a1565b5b906000526020600020018190555082600160028110611cc457611cc36144a1565b5b6020020151600c87604051611cd99190613e10565b9081526020016040518091039020600181548110611cfa57611cf96144a1565b5b906000526020600020018263ffffffff1681548110611d1c57611d1b6144a1565b5b9060005260206000200181905550611e9c611dc060405180604001604052808d600081518110611d4f57611d4e6144a1565b5b60200260200101518563ffffffff1681518110611d6f57611d6e6144a1565b5b602002602001015181526020018d600181518110611d9057611d8f6144a1565b5b60200260200101518563ffffffff1681518110611db057611daf6144a1565b5b602002602001015181525061289e565b611e976040518060400160405280600d8b604051611dde9190613e10565b9081526020016040518091039020600081548110611dff57611dfe6144a1565b5b906000526020600020018663ffffffff1681548110611e2157611e206144a1565b5b90600052602060002001548152602001600d8b604051611e419190613e10565b9081526020016040518091039020600181548110611e6257611e616144a1565b5b906000526020600020018663ffffffff1681548110611e8457611e836144a1565b5b906000526020600020015481525061289e565b6129b5565b925082600060028110611eb257611eb16144a1565b5b6020020151600d87604051611ec79190613e10565b9081526020016040518091039020600081548110611ee857611ee76144a1565b5b906000526020600020018263ffffffff1681548110611f0a57611f096144a1565b5b906000526020600020018190555082600160028110611f2c57611f2b6144a1565b5b6020020151600d87604051611f419190613e10565b9081526020016040518091039020600181548110611f6257611f616144a1565b5b906000526020600020018263ffffffff1681548110611f8457611f836144a1565b5b906000526020600020018190555061210461202860405180604001604052808b600081518110611fb757611fb66144a1565b5b60200260200101518563ffffffff1681518110611fd757611fd66144a1565b5b602002602001015181526020018b600181518110611ff857611ff76144a1565b5b60200260200101518563ffffffff1681518110612018576120176144a1565b5b602002602001015181525061289e565b6120ff6040518060400160405280600e8b6040516120469190613e10565b9081526020016040518091039020600081548110612067576120666144a1565b5b906000526020600020018663ffffffff1681548110612089576120886144a1565b5b90600052602060002001548152602001600e8b6040516120a99190613e10565b90815260200160405180910390206001815481106120ca576120c96144a1565b5b906000526020600020018663ffffffff16815481106120ec576120eb6144a1565b5b906000526020600020015481525061289e565b6129b5565b92508260006002811061211a576121196144a1565b5b6020020151600e8760405161212f9190613e10565b90815260200160405180910390206000815481106121505761214f6144a1565b5b906000526020600020018263ffffffff1681548110612172576121716144a1565b5b906000526020600020018190555082600160028110612194576121936144a1565b5b6020020151600e876040516121a99190613e10565b90815260200160405180910390206001815481106121ca576121c96144a1565b5b906000526020600020018263ffffffff16815481106121ec576121eb6144a1565b5b90600052602060002001819055508080612205906143e7565b915050611836565b505b50505050505050505050505050565b6060600f826040516122309190613e10565b9081526020016040518091039020805480602002602001604051908101604052809291908181526020016000905b828210156122d0578382906000526020600020018054806020026020016040519081016040528092919081815260200182805480156122bc57602002820191906000526020600020905b8154815260200190600101908083116122a8575b50505050508152602001906001019061225e565b505050509050919050565b6060600d826040516122ed9190613e10565b9081526020016040518091039020805480602002602001604051908101604052809291908181526020016000905b8282101561238d5783829060005260206000200180548060200260200160405190810160405280929190818152602001828054801561237957602002820191906000526020600020905b815481526020019060010190808311612365575b50505050508152602001906001019061231b565b505050509050919050565b6123a06130c4565b6000807f800000000000000000000000000000000000000000000000000000000000000084161415905060007f7fffffffffffffffffffffffffffffffffffffffffffffffffffffffffffffff8416905060007f30644e72e131a029b85045b68181585d2833e84879b9709143e1f593f00000018061242257612421614443565b5b828309905060007f30644e72e131a029b85045b68181585d2833e84879b9709143e1f593f00000018061245857612457614443565b5b6124a161249c620292fc7f30644e72e131a029b85045b68181585d2833e84879b9709143e1f593f00000018061249157612490614443565b5b86620292f8096129dd565b612a44565b6124ac6001856129dd565b09905060006124ba82612a77565b905060007f183227397098d014dc2822db40c0ac2e9419f4243cdcb848a1f0fac9f8000000821190508580156124ee575080155b806125005750851580156124ff5750805b5b1561253457817f30644e72e131a029b85045b68181585d2833e84879b9709143e1f593f0000001612531919061427d565b91505b6040518060400160405280838152602001868152509650505050505050919050565b61255e6130c4565b60007f30644e72e131a029b85045b68181585d2833e84879b9709143e1f593f00000018061258f5761258e614443565b5b836000600281106125a3576125a26144a1565b5b6020020151856000600281106125bc576125bb6144a1565b5b602002015109905060007f30644e72e131a029b85045b68181585d2833e84879b9709143e1f593f0000001806125f5576125f4614443565b5b84600160028110612609576126086144a1565b5b602002015186600160028110612622576126216144a1565b5b602002015109905060007f30644e72e131a029b85045b68181585d2833e84879b9709143e1f593f00000018061265b5761265a614443565b5b7f30644e72e131a029b85045b68181585d2833e84879b9709143e1f593f00000018061268a57612689614443565b5b838509620292f809905060007f30644e72e131a029b85045b68181585d2833e84879b9709143e1f593f0000001806126c5576126c4614443565b5b7f30644e72e131a029b85045b68181585d2833e84879b9709143e1f593f0000001806126f4576126f3614443565b5b87600060028110612708576127076144a1565b5b602002015189600160028110612721576127206144a1565b5b6020020151097f30644e72e131a029b85045b68181585d2833e84879b9709143e1f593f00000018061275657612755614443565b5b8860016002811061276a576127696144a1565b5b60200201518a600060028110612783576127826144a1565b5b60200201510908905060006127cc847f30644e72e131a029b85045b68181585d2833e84879b9709143e1f593f0000001806127c1576127c0614443565b5b87620292fc096129dd565b905060405180604001604052807f30644e72e131a029b85045b68181585d2833e84879b9709143e1f593f00000018061280857612807614443565b5b6128437f30644e72e131a029b85045b68181585d2833e84879b9709143e1f593f00000018061283a57612839614443565b5b87600108612a44565b850981526020017f30644e72e131a029b85045b68181585d2833e84879b9709143e1f593f00000018061287957612878614443565b5b61288c6128876001886129dd565b612a44565b84098152509550505050505092915050565b6128a66131cc565b816000600281106128ba576128b96144a1565b5b6020020151816000600481106128d3576128d26144a1565b5b602002018181525050816001600281106128f0576128ef6144a1565b5b602002015181600160048110612909576129086144a1565b5b6020020181815250507f30644e72e131a029b85045b68181585d2833e84879b9709143e1f593f00000018061294157612940614443565b5b82600160028110612955576129546144a1565b5b60200201518360006002811061296e5761296d6144a1565b5b60200201510981600260048110612988576129876144a1565b5b6020020181815250506001816003600481106129a7576129a66144a1565b5b602002018181525050919050565b6129bd6130c4565b60006129c98484612c95565b90506129d481612da4565b91505092915050565b60007f30644e72e131a029b85045b68181585d2833e84879b9709143e1f593f000000180612a0e57612a0d614443565b5b827f30644e72e131a029b85045b68181585d2833e84879b9709143e1f593f0000001612a3a919061427d565b8408905092915050565b6000612a70827f30644e72e131a029b85045b68181585d2833e84879b9709143e1f593efffffff612ea5565b9050919050565b6000612aa0827c0183227397098d014dc2822db40c0ac2e9419f4243cdcb848a1f0faca0612ea5565b90506000612acb837c030644e72e131a029b85045b68181585d2833e84879b9709143e1f593f612ea5565b905060007f2a3c09f0a58a7e8500e0a7eb8ef62abc402d111e41112ed49bd61b6e725b19f09050600080601c905060005b600115612c8a57600090508492505b60018314612b5a577f30644e72e131a029b85045b68181585d2833e84879b9709143e1f593f000000180612b4257612b41614443565b5b83840992508080612b52906143bc565b915050612b0b565b60008161ffff161415612b71575050505050612c90565b83925060005b60018284612b859190614249565b612b8f9190614249565b61ffff168161ffff161015612be5577f30644e72e131a029b85045b68181585d2833e84879b9709143e1f593f000000180612bcd57612bcc614443565b5b84850993508080612bdd906143bc565b915050612b77565b507f30644e72e131a029b85045b68181585d2833e84879b9709143e1f593f000000180612c1557612c14614443565b5b83840993507f30644e72e131a029b85045b68181585d2833e84879b9709143e1f593f000000180612c4957612c48614443565b5b86840995507f30644e72e131a029b85045b68181585d2833e84879b9709143e1f593f000000180612c7d57612c7c614443565b5b8486099450809150612afc565b50505050505b919050565b612c9d6131cc565b7f30644e72e131a029b85045b68181585d2833e84879b9709143e1f593f0000001620292fc620292f88285518751098360208701516020890151098460408801518660408b015186090985606089015160608b015109868760208b01518b51088860208d01518d51080960018501811015612d185787810190505b8785820306905060018401811015612d305787810190505b878482030690508160018401811015612d495788810190505b888482030690508884840889878a098660018201811015612d6a578b810190505b8b8282030690508b8486098d528b81840960208e01528b81860960408e01528b83850960608e015250505050505050505050505092915050565b612dac6130c4565b6000612dcf83600360048110612dc557612dc46144a1565b5b6020020151612a44565b90507f30644e72e131a029b85045b68181585d2833e84879b9709143e1f593f000000180612e0057612dff614443565b5b8184600060048110612e1557612e146144a1565b5b60200201510982600060028110612e2f57612e2e6144a1565b5b6020020181815250507f30644e72e131a029b85045b68181585d2833e84879b9709143e1f593f000000180612e6757612e66614443565b5b8184600160048110612e7c57612e7b6144a1565b5b60200201510982600160028110612e9657612e956144a1565b5b60200201818152505050919050565b60007f30644e72e131a029b85045b68181585d2833e84879b9709143e1f593f000000160405160208152602080820152602060408201528460608201528360808201528160a082015260208160c08360055afa8060008114612f0a5782519450612f0f565b600080fd5b5050505092915050565b8260028101928215612f48579160200282015b82811115612f47578251825591602001919060010190612f2c565b5b509050612f5591906131ee565b5090565b6040518060600160405280612f6c61320b565b8152602001612f79613225565b8152602001612f8661320b565b81525090565b604051806104200160405280602190602082028036833780820191505090505090565b828054828255906000526020600020908101928215612ffe579160200282015b82811115612ffd578251829080519060200190612fed92919061324b565b5091602001919060010190612fcf565b5b50905061300b9190613298565b5090565b82805482825590600052602060002090810192821561305d5760005260206000209182015b8281111561305c57828290805461304c9291906132bc565b5091600101919060010190613034565b5b50905061306a9190613298565b5090565b604051806103000160405280601890602082028036833780820191505090505090565b60405180606001604052806130a461320b565b81526020016130b1613225565b81526020016130be61320b565b81525090565b6040518060400160405280600290602082028036833780820191505090505090565b8280546130f290614359565b90600052602060002090601f016020900481019282613114576000855561315b565b82601f1061312d57805160ff191683800117855561315b565b8280016001018555821561315b579182015b8281111561315a57825182559160200191906001019061313f565b5b50905061316891906131ee565b5090565b8280548282559060005260206000209081019282156131bb579160200282015b828111156131ba5782518290805190602001906131aa92919061324b565b509160200191906001019061318c565b5b5090506131c89190613298565b5090565b6040518060800160405280600490602082028036833780820191505090505090565b5b808211156132075760008160009055506001016131ef565b5090565b604051806040016040528060008152602001600081525090565b60405180604001604052806132386130c4565b81526020016132456130c4565b81525090565b828054828255906000526020600020908101928215613287579160200282015b8281111561328657825182559160200191906001019061326b565b5b50905061329491906131ee565b5090565b5b808211156132b857600081816132af919061330e565b50600101613299565b5090565b8280548282559060005260206000209081019282156132fd5760005260206000209182015b828111156132fc5782548255916001019190600101906132e1565b5b50905061330a91906131ee565b5090565b508054600082559060005260206000209081019061332c91906131ee565b50565b600061334261333d84613f71565b613f4c565b9050808285604086028201111561335c5761335b614504565b5b60005b8581101561338c578161337288826135ab565b84526020840193506040830192505060018101905061335f565b5050509392505050565b60006133a96133a484613f97565b613f4c565b905080838252602082019050828560208602820111156133cc576133cb614504565b5b60005b8581101561341a57813567ffffffffffffffff8111156133f2576133f16144ff565b5b8086016133ff89826135d6565b855260208501945060208401935050506001810190506133cf565b5050509392505050565b600061343761343284613fc3565b613f4c565b9050808285602086028201111561345157613450614504565b5b60005b8581101561348157816134678882613647565b845260208401935060208301925050600181019050613454565b5050509392505050565b600061349e61349984613fe9565b613f4c565b905080838252602082019050828560208602820111156134c1576134c0614504565b5b60005b858110156134f157816134d78882613647565b8452602084019350602083019250506001810190506134c4565b5050509392505050565b600061350e61350984614015565b613f4c565b90508281526020810184848401111561352a57613529614509565b5b613535848285614317565b509392505050565b60008135905061354c816145ca565b92915050565b600082601f830112613567576135666144ff565b5b600261357484828561332f565b91505092915050565b600082601f830112613592576135916144ff565b5b81356135a2848260208601613396565b91505092915050565b600082601f8301126135c0576135bf6144ff565b5b60026135cd848285613424565b91505092915050565b600082601f8301126135eb576135ea6144ff565b5b81356135fb84826020860161348b565b91505092915050565b600081519050613613816145e1565b92915050565b600082601f83011261362e5761362d6144ff565b5b813561363e8482602086016134fb565b91505092915050565b600081359050613656816145f8565b92915050565b60006020828403121561367257613671614513565b5b60006136808482850161353d565b91505092915050565b60008060008060008060008060006101e08a8c0312156136ac576136ab614513565b5b60006136ba8c828d016135ab565b99505060406136cb8c828d01613552565b98505060c06136dc8c828d016135ab565b9750506101008a013567ffffffffffffffff8111156136fe576136fd61450e565b5b61370a8c828d016135d6565b9650506101208a013567ffffffffffffffff81111561372c5761372b61450e565b5b6137388c828d016135d6565b9550506101408a013567ffffffffffffffff81111561375a5761375961450e565b5b6137668c828d016135d6565b9450506101608a013567ffffffffffffffff8111156137885761378761450e565b5b6137948c828d016135d6565b9350506101806137a68c828d016135ab565b9250506101c08a013567ffffffffffffffff8111156137c8576137c761450e565b5b6137d48c828d01613619565b9150509295985092959850929598565b60008060008060008060008060006101c08a8c03121561380757613806614513565b5b60006138158c828d016135ab565b99505060406138268c828d01613552565b98505060c06138378c828d016135ab565b9750506101006138498c828d01613647565b9650506101208a013567ffffffffffffffff81111561386b5761386a61450e565b5b6138778c828d0161357d565b9550506101408a013567ffffffffffffffff8111156138995761389861450e565b5b6138a58c828d0161357d565b9450506101608a013567ffffffffffffffff8111156138c7576138c661450e565b5b6138d38c828d0161357d565b9350506101808a013567ffffffffffffffff8111156138f5576138f461450e565b5b6139018c828d0161357d565b9250506101a08a013567ffffffffffffffff8111156139235761392261450e565b5b61392f8c828d01613619565b9150509295985092959850929598565b60006020828403121561395557613954614513565b5b600061396384828501613604565b91505092915050565b60006020828403121561398257613981614513565b5b600082013567ffffffffffffffff8111156139a05761399f61450e565b5b6139ac84828501613619565b91505092915050565b6000602082840312156139cb576139ca614513565b5b60006139d984828501613647565b91505092915050565b60006139ee8383613b88565b905092915050565b6000613a028383613de3565b60208301905092915050565b6000613a1982614099565b613a23818561411c565b935083602082028501613a3585614046565b8060005b85811015613a715784840389528151613a5285826139e2565b9450613a5d836140db565b925060208a01995050600181019050613a39565b50829750879550505050505092915050565b613a8c816140a4565b613a96818461412d565b9250613aa182614056565b8060005b83811015613ad2578151613ab987826139f6565b9650613ac4836140e8565b925050600181019050613aa5565b505050505050565b613ae3816140af565b613aed8184614138565b9250613af882614060565b8060005b83811015613b29578151613b1087826139f6565b9650613b1b836140f5565b925050600181019050613afc565b505050505050565b613b3a816140ba565b613b448184614143565b9250613b4f8261406a565b8060005b83811015613b80578151613b6787826139f6565b9650613b7283614102565b925050600181019050613b53565b505050505050565b6000613b93826140c5565b613b9d818561414e565b9350613ba883614074565b8060005b83811015613bd9578151613bc088826139f6565b9750613bcb8361410f565b925050600181019050613bac565b5085935050505092915050565b6000613bf1826140d0565b613bfb8185614170565b9350613c0b818560208601614326565b80840191505092915050565b60008154613c2481614359565b613c2e8186614170565b94506001821660008114613c495760018114613c5a57613c8d565b60ff19831686528186019350613c8d565b613c6385614084565b60005b83811015613c8557815481890152600182019150602081019050613c66565b838801955050505b50505092915050565b6000613ca3602a8361415f565b9150613cae82614529565b604082019050919050565b6000613cc6601e8361415f565b9150613cd182614578565b602082019050919050565b6000613ce960168361415f565b9150613cf4826145a1565b602082019050919050565b604082016000820151613d156000850182613de3565b506020820151613d286020850182613de3565b50505050565b608082016000820151613d446000850182613ada565b506020820151613d576040850182613ada565b50505050565b61010082016000820151613d746000850182613cff565b506020820151613d876040850182613d2e565b506040820151613d9a60c0850182613cff565b50505050565b61010082016000820151613db76000850182613cff565b506020820151613dca6040850182613d2e565b506040820151613ddd60c0850182613cff565b50505050565b613dec816142fd565b82525050565b613dfb816142fd565b82525050565b613e0a81614307565b82525050565b6000613e1c8284613be6565b915081905092915050565b6000613e338284613c17565b915081905092915050565b60006020820190508181036000830152613e588184613a0e565b905092915050565b60006020820190508181036000830152613e7981613c96565b9050919050565b60006020820190508181036000830152613e9981613cb9565b9050919050565b60006020820190508181036000830152613eb981613cdc565b9050919050565b600061040082019050613ed66000830185613d5d565b613ee4610100830184613a83565b9392505050565b600061052082019050613f016000830185613da0565b613f0f610100830184613b31565b9392505050565b6000602082019050613f2b6000830184613df2565b92915050565b6000602082019050613f466000830184613e01565b92915050565b6000613f56613f67565b9050613f62828261438b565b919050565b6000604051905090565b600067ffffffffffffffff821115613f8c57613f8b6144d0565b5b602082029050919050565b600067ffffffffffffffff821115613fb257613fb16144d0565b5b602082029050602081019050919050565b600067ffffffffffffffff821115613fde57613fdd6144d0565b5b602082029050919050565b600067ffffffffffffffff821115614004576140036144d0565b5b602082029050602081019050919050565b600067ffffffffffffffff8211156140305761402f6144d0565b5b61403982614518565b9050602081019050919050565b6000819050602082019050919050565b6000819050919050565b6000819050919050565b6000819050919050565b6000819050602082019050919050565b60008190508160005260206000209050919050565b600081519050919050565b600060189050919050565b600060029050919050565b600060219050919050565b600081519050919050565b600081519050919050565b6000602082019050919050565b6000602082019050919050565b6000602082019050919050565b6000602082019050919050565b6000602082019050919050565b600082825260208201905092915050565b600081905092915050565b600081905092915050565b600081905092915050565b600082825260208201905092915050565b600082825260208201905092915050565b600081905092915050565b6000614186826142fd565b9150614191836142fd565b9250827fffffffffffffffffffffffffffffffffffffffffffffffffffffffffffffffff038211156141c6576141c5614414565b5b828201905092915050565b60006141dc82614307565b91506141e783614307565b92508263ffffffff03821115614200576141ff614414565b5b828201905092915050565b600061421682614307565b915061422183614307565b92508163ffffffff048311821515161561423e5761423d614414565b5b828202905092915050565b6000614254826142cf565b915061425f836142cf565b92508282101561427257614271614414565b5b828203905092915050565b6000614288826142fd565b9150614293836142fd565b9250828210156142a6576142a5614414565b5b828203905092915050565b60006142bc826142dd565b9050919050565b60008115159050919050565b600061ffff82169050919050565b600073ffffffffffffffffffffffffffffffffffffffff82169050919050565b6000819050919050565b600063ffffffff82169050919050565b82818337600083830152505050565b60005b83811015614344578082015181840152602081019050614329565b83811115614353576000848401525b50505050565b6000600282049050600182168061437157607f821691505b6020821081141561438557614384614472565b5b50919050565b61439482614518565b810181811067ffffffffffffffff821117156143b3576143b26144d0565b5b80604052505050565b60006143c7826142cf565b915061ffff8214156143dc576143db614414565b5b600182019050919050565b60006143f282614307565b915063ffffffff82141561440957614408614414565b5b600182019050919050565b7f4e487b7100000000000000000000000000000000000000000000000000000000600052601160045260246000fd5b7f4e487b7100000000000000000000000000000000000000000000000000000000600052601260045260246000fd5b7f4e487b7100000000000000000000000000000000000000000000000000000000600052602260045260246000fd5b7f4e487b7100000000000000000000000000000000000000000000000000000000600052603260045260246000fd5b7f4e487b7100000000000000000000000000000000000000000000000000000000600052604160045260246000fd5b600080fd5b600080fd5b600080fd5b600080fd5b600080fd5b6000601f19601f8301169050919050565b7f4f6e6c7920746865206d6f64657261746f722063616e2063616c6c207468697360008201527f2066756e6374696f6e2100000000000000000000000000000000000000000000602082015250565b7f4d6f64656c20757064617465206d757374206265207665726966696564210000600082015250565b7f50726f6f66206d75737420626520766572696669656400000000000000000000600082015250565b6145d3816142b1565b81146145de57600080fd5b50565b6145ea816142c3565b81146145f557600080fd5b50565b614601816142fd565b811461460c57600080fd5b5056fea264697066735822122032621f1b9c7f82f741031dbcef2dd70aff1ff39c18f3dc2250d7c9d69765d05d64736f6c63430008060033608060405234801561001057600080fd5b50611fcc806100206000396000f3fe608060405234801561001057600080fd5b506004361061002b5760003560e01c806388e3f31714610030575b600080fd5b61004a60048036038101906100459190611c1c565b610060565b6040516100579190611c6d565b60405180910390f35b600080601867ffffffffffffffff81111561007e5761007d611f2b565b5b6040519080825280602002602001820160405280156100ac5781602001602082028036833780820191505090505b50905060005b6018811015610105578381601881106100ce576100cd611efc565b5b60200201518282815181106100e6576100e5611efc565b5b60200260200101818152505080806100fd90611e24565b9150506100b2565b506000610112828661012e565b1415610122576001915050610128565b60009150505b92915050565b6000807f30644e72e131a029b85045b68181585d2833e84879b9709143e1f593f00000019050600061015e6102c5565b9050806080015151600186516101749190611cf9565b1461017e57600080fd5b60006040518060400160405280600081526020016000815250905060005b865181101561023757838782815181106101b9576101b8611efc565b5b6020026020010151106101cb57600080fd5b6102228261021d85608001516001856101e49190611cf9565b815181106101f5576101f4611efc565b5b60200260200101518a85815181106102105761020f611efc565b5b602002602001015161118e565b611235565b9150808061022f90611e24565b91505061019c565b5061026181836080015160008151811061025457610253611efc565b5b6020026020010151611235565b90506102a78560000151866020015161027984611302565b856040015161028b8a60400151611302565b876060015161029d8960000151611302565b89602001516113a7565b6102b757600193505050506102bf565b600093505050505b92915050565b6102cd6118cf565b60405180604001604052807f087f727b32b966894b317f9249e9d2aaf9fbc8ce65944764d6467c569b0fe56981526020017f29d50f5374264af1428e5ebc3ac5611bea0bb3cd418daa8cbf5fdb43339042568152508160000181905250604051806040016040528060405180604001604052807f22af85ed0a9ebd870c428f34c14aa71532279b2096d767cb466036c50f32bf9081526020017eb2705ab4cd6ee9286b1211413e123d9a16677e4aaacbb9f24d2c730815ddd5815250815260200160405180604001604052807f1917c93f3af3b62558ab8d5cbcbc4543f728a4bb42cefdb830b9510158553ccb81526020017f21702bf96b405249d04d8dc94f411dcd7e1e26b4681c9b1ce69a331a28bd65068152508152508160200181905250604051806040016040528060405180604001604052807eece4c9a2807d845b99b6c6432dab7eb7a7f5d9d3c40fcd71734ddcbb8a257581526020017f04bc36de69493aeb79cc7981d5383bedba065e13d072fc5365d33328bd5f94d8815250815260200160405180604001604052807f2eb8a6954d6e7725f66e77e463df3b813255b444f2b6bb8c99ba39dd682e0f9681526020017f2ae67f4b676aff858c0f35c71bce748f476612728ef89b8e40b2b5561c9f1c698152508152508160400181905250604051806040016040528060405180604001604052807f15ea01300f36e10746d762267ad6004c3ad0ca748b8668875e19a6905d4ff74681526020017f2f7694370589b15c174b5dff35798ab26ed25d822bd6268bc2b2cc1c1188c128815250815260200160405180604001604052807f13026aa66841b738431a1215118418ef995cd0b3a573cc9230e0efde0f64ff3381526020017f0d504fe7486c87ae4cc344f4292dbcbca1fb1eeb854f242305176ddde68d24388152508152508160600181905250601967ffffffffffffffff81111561059257610591611f2b565b5b6040519080825280602002602001820160405280156105cb57816020015b6105b8611916565b8152602001906001900390816105b05790505b50816080018190525060405180604001604052807f225cbbd27caa64b099114e09ed3e531ae96b13fec8d9b3ce7eaa36df0eaf87c681526020017f0c028fcd465c5fda0d7a77bf871cda5799fa7bf3c4418d4ec8bbd21eb09b4a8f815250816080015160008151811061064157610640611efc565b5b602002602001018190525060405180604001604052807f2888d3c58b146ecc9837f421244a07a85b31adc17cc6a32e086f0eb59aef8d7681526020017f27d11c078ada7a70217e510a43d03e5f421cea249dec03b6443c679490ebd73481525081608001516001815181106106b9576106b8611efc565b5b602002602001018190525060405180604001604052807f1370b854066a5e676daf97ed4bd9d4bcdedc68c6fb9681c1cdba69f6e57d115581526020017f243b13ea91019bb57d21c29fd1b506e4cbbf462acbe0eaae6c068d6513e44fb5815250816080015160028151811061073157610730611efc565b5b602002602001018190525060405180604001604052807f0bc3eb4eb8d05413735f150d18913d0e0df8adcd6fc026c27efdb1e086cbb6c981526020017f23ba85508d184777077d864702c8d937645e9f81a0b664dea287adb2d500b63b81525081608001516003815181106107a9576107a8611efc565b5b602002602001018190525060405180604001604052807f2ce303511f43dabda599e6fb292b0d4d0afcad6190899f0e658e227021423ed381526020017f1b58fa5a6c2edde77e89952b6f89f1d9e621ab8a8841493cab38ef36b68171ef815250816080015160048151811061082157610820611efc565b5b602002602001018190525060405180604001604052807f149e78f2a00aa0ef6a355bc12165f343e4ebe5513be5ab68bd21959d435b987d81526020017f20c48c86c4072f0f3b9431f42c2915e7df051857402e4362e1304d0c99972fc4815250816080015160058151811061089957610898611efc565b5b602002602001018190525060405180604001604052807f14074cc71d19ecbec123ebbd351ef8ce404b7ba3009d6aedfa5898a31be32b5f81526020017f2631ed38a1a4ca784e585b235ec10a2051a152e100678a4d6d1f4f58df73d1f7815250816080015160068151811061091157610910611efc565b5b602002602001018190525060405180604001604052807f063c5458984c49bb6fb3830c5f4fe41446786e2bbc675e2de71bbdebba7153e281526020017f1eca060087101545a67aea3cb103ac2c69b48a1ef23f64e41ed4cb4f9d3777ac815250816080015160078151811061098957610988611efc565b5b602002602001018190525060405180604001604052807f15de3704e1fb981818db6cc8d1363298e53c56468cde81b9da3764af63f9cec181526020017f0beab39505e97d99d00c732ff7f512d320901593190604aa600648752809e93a8152508160800151600881518110610a0157610a00611efc565b5b602002602001018190525060405180604001604052807f0ca7a1658d4ab6f0f28d60cab9b408902446942d357717bc40c57601110a4faf81526020017f2dfbbcb183eafac806cf516490e4429b89f15db2201f822681435f729ce7587a8152508160800151600981518110610a7957610a78611efc565b5b602002602001018190525060405180604001604052807f1c274763e808bd604beeb61b5dc7721fb4d64cc5dbc035f567c0aab19a7eac0681526020017f01e3f5f239414e93d6f3abfae132e8b4fc2d6d5009c6126b782992efc14dd40d8152508160800151600a81518110610af157610af0611efc565b5b602002602001018190525060405180604001604052807f05ca851beac5dd59b3bdca084a636d780f90627bde347e119b91d355225a49c181526020017f253818127ae42f37deba3696d3a782d8d7e14a39128c3fcd0cfb3ddad61f3a958152508160800151600b81518110610b6957610b68611efc565b5b602002602001018190525060405180604001604052807f3037f8f95d1f54de535746d72efe30762ba44819370a0c0b4db68e733aeca3ea81526020017f25f4b634e984b307e86d461460dda02406eca685f92402b602969f291f034d918152508160800151600c81518110610be157610be0611efc565b5b602002602001018190525060405180604001604052807f1375c8cc1c9ab3d615977deda6eeced373a4da1f0c2761139ef00950bad7496081526020017f05ea30e9a07dfab102e8ccbe3e8840e1034a526ea339bdd4334d7764da900f0c8152508160800151600d81518110610c5957610c58611efc565b5b602002602001018190525060405180604001604052807f1dc14425d3c9b72849d6779db881c0aa5a91ac62dab99ce7d10e78bc7cf8d68b81526020017f0b27ac9e97d7284623fae4cc2f31b348a2dfb978943cfba824d6e86fd8c084ae8152508160800151600e81518110610cd157610cd0611efc565b5b602002602001018190525060405180604001604052807f22e7ae5b57f580a398605122007e05e223d67bb7b529eb35d135fb7a50eff3fc81526020017f20377004400c4d3c9550cc72a002c87f1ebb709780c0552818892055f69478058152508160800151600f81518110610d4957610d48611efc565b5b602002602001018190525060405180604001604052807f2dd0cff0b3f9c6bf7227adaa9f410a825f3c8435808c9fed7f0ac10c7d7472e481526020017f27d97462a06b64f5de22a3a4e4df6c59f63182555f39075232148ba19edbd0998152508160800151601081518110610dc157610dc0611efc565b5b602002602001018190525060405180604001604052807f2d9d017ef781615411015d7f0d31845ff02491cc3ac02af367bef0818f6b0a9b81526020017f0d61a87c4ee9cfc12b27a6cd4e258b930e89cc3b24bb031b115fc8f5701dfbab8152508160800151601181518110610e3957610e38611efc565b5b602002602001018190525060405180604001604052807f043dc606306d914fef56ad694fde76af838687adbaff824325d9134f7861126381526020017f292634e17d6e1c37290d7788e8c0002d266ff28b0552da209c7953339ac72d708152508160800151601281518110610eb157610eb0611efc565b5b602002602001018190525060405180604001604052807f1b59f37de1bf9a127e25d4dcf0dc21f6d4341194aa83f6b682c3fc1a167a2c2c81526020017f2e5de7fef2d99f05075d96f7d5d23e3c6b69cd9bd1e5ded7fc50af175d0a43318152508160800151601381518110610f2957610f28611efc565b5b602002602001018190525060405180604001604052807f02eb28f56da1901b2baef986607ef97f57e8a722b9891a1801faab5ed54f672c81526020017f05603f5cb9578d7a3dd1d0c019e6ce954bc746db538d118b8e278cf8d57d66ac8152508160800151601481518110610fa157610fa0611efc565b5b602002602001018190525060405180604001604052807f2c019eeea0108e20ed2c98b27eedc06ac78b1425cb973be2691e09ad6a96b9fb81526020017f230b14a064b04e477e6c6b5ae4c9bed5328f4e6e30e368b65ebebf586a4642ba815250816080015160158151811061101957611018611efc565b5b602002602001018190525060405180604001604052807f15cf2d8fc287f557263ffd60ca85765e44230b2144f9fc33b4f7557257e6745781526020017e99ca23d13d4f5cd7da20f82db0c5da5bfef3d36851606bc294554f95ea193d81525081608001516016815181106110905761108f611efc565b5b602002602001018190525060405180604001604052807f0bce8265072502a3fa66018ef3237ee2d10f8b53a8c0bc62e1e50975ddc9c55681526020017f16495a414017bc17dd6db30d84487d84144a438f07df7eb292d89af80eb8c3e9815250816080015160178151811061110857611107611efc565b5b602002602001018190525060405180604001604052807f1ca7f97971e618a27d4724fc2c9f38c07f8ed19934eed8986d1a897b4056427181526020017f1473cb1d6c0da85a58bbe639883b441832043c000c0d934a244fc0fc790dd89881525081608001516018815181106111805761117f611efc565b5b602002602001018190525090565b611196611916565b61119e611930565b8360000151816000600381106111b7576111b6611efc565b5b6020020181815250508360200151816001600381106111d9576111d8611efc565b5b60200201818152505082816002600381106111f7576111f6611efc565b5b602002018181525050600060608360808460076107d05a03fa9050806000811461122057611222565bfe5b508061122d57600080fd5b505092915050565b61123d611916565b611245611952565b83600001518160006004811061125e5761125d611efc565b5b6020020181815250508360200151816001600481106112805761127f611efc565b5b6020020181815250508260000151816002600481106112a2576112a1611efc565b5b6020020181815250508260200151816003600481106112c4576112c3611efc565b5b602002018181525050600060608360c08460066107d05a03fa905080600081146112ed576112ef565bfe5b50806112fa57600080fd5b505092915050565b61130a611916565b60007f30644e72e131a029b85045b68181585d97816a916871ca8d3c208c16d87cfd47905060008360000151148015611347575060008360200151145b1561136b5760405180604001604052806000815260200160008152509150506113a2565b6040518060400160405280846000015181526020018285602001516113909190611e6d565b8361139b9190611da9565b8152509150505b919050565b600080600467ffffffffffffffff8111156113c5576113c4611f2b565b5b6040519080825280602002602001820160405280156113fe57816020015b6113eb611916565b8152602001906001900390816113e35790505b5090506000600467ffffffffffffffff81111561141e5761141d611f2b565b5b60405190808252806020026020018201604052801561145757816020015b611444611974565b81526020019060019003908161143c5790505b5090508a8260008151811061146f5761146e611efc565b5b6020026020010181905250888260018151811061148f5761148e611efc565b5b602002602001018190525086826002815181106114af576114ae611efc565b5b602002602001018190525084826003815181106114cf576114ce611efc565b5b602002602001018190525089816000815181106114ef576114ee611efc565b5b6020026020010181905250878160018151811061150f5761150e611efc565b5b6020026020010181905250858160028151811061152f5761152e611efc565b5b6020026020010181905250838160038151811061154f5761154e611efc565b5b60200260200101819052506115648282611574565b9250505098975050505050505050565b6000815183511461158457600080fd5b60008351905060006006826115999190611d4f565b905060008167ffffffffffffffff8111156115b7576115b6611f2b565b5b6040519080825280602002602001820160405280156115e55781602001602082028036833780820191505090505b50905060005b8381101561186a5786818151811061160657611605611efc565b5b6020026020010151600001518260006006846116229190611d4f565b61162c9190611cf9565b8151811061163d5761163c611efc565b5b60200260200101818152505086818151811061165c5761165b611efc565b5b6020026020010151602001518260016006846116789190611d4f565b6116829190611cf9565b8151811061169357611692611efc565b5b6020026020010181815250508581815181106116b2576116b1611efc565b5b6020026020010151600001516001600281106116d1576116d0611efc565b5b60200201518260026006846116e69190611d4f565b6116f09190611cf9565b8151811061170157611700611efc565b5b6020026020010181815250508581815181106117205761171f611efc565b5b60200260200101516000015160006002811061173f5761173e611efc565b5b60200201518260036006846117549190611d4f565b61175e9190611cf9565b8151811061176f5761176e611efc565b5b60200260200101818152505085818151811061178e5761178d611efc565b5b6020026020010151602001516001600281106117ad576117ac611efc565b5b60200201518260046006846117c29190611d4f565b6117cc9190611cf9565b815181106117dd576117dc611efc565b5b6020026020010181815250508581815181106117fc576117fb611efc565b5b60200260200101516020015160006002811061181b5761181a611efc565b5b60200201518260056006846118309190611d4f565b61183a9190611cf9565b8151811061184b5761184a611efc565b5b602002602001018181525050808061186290611e24565b9150506115eb565b5061187361199a565b6000602082602086026020860160086107d05a03fa905080600081146118985761189a565bfe5b50806118a557600080fd5b6000826000600181106118bb576118ba611efc565b5b602002015114159550505050505092915050565b6040518060a001604052806118e2611916565b81526020016118ef611974565b81526020016118fc611974565b8152602001611909611974565b8152602001606081525090565b604051806040016040528060008152602001600081525090565b6040518060600160405280600390602082028036833780820191505090505090565b6040518060800160405280600490602082028036833780820191505090505090565b60405180604001604052806119876119bc565b81526020016119946119bc565b81525090565b6040518060200160405280600190602082028036833780820191505090505090565b6040518060400160405280600290602082028036833780820191505090505090565b60006119f16119ec84611cad565b611c88565b90508082856020860282011115611a0b57611a0a611f64565b5b60005b85811015611a3b5781611a218882611c07565b845260208401935060208301925050600181019050611a0e565b5050509392505050565b6000611a58611a5384611cd3565b611c88565b90508082856020860282011115611a7257611a71611f64565b5b60005b85811015611aa25781611a888882611c07565b845260208401935060208301925050600181019050611a75565b5050509392505050565b600082601f830112611ac157611ac0611f5a565b5b6018611ace8482856119de565b91505092915050565b600082601f830112611aec57611aeb611f5a565b5b6002611af9848285611a45565b91505092915050565b600060408284031215611b1857611b17611f5f565b5b611b226040611c88565b90506000611b3284828501611c07565b6000830152506020611b4684828501611c07565b60208301525092915050565b600060808284031215611b6857611b67611f5f565b5b611b726040611c88565b90506000611b8284828501611ad7565b6000830152506040611b9684828501611ad7565b60208301525092915050565b60006101008284031215611bb957611bb8611f5f565b5b611bc36060611c88565b90506000611bd384828501611b02565b6000830152506040611be784828501611b52565b60208301525060c0611bfb84828501611b02565b60408301525092915050565b600081359050611c1681611f7f565b92915050565b6000806104008385031215611c3457611c33611f69565b5b6000611c4285828601611ba2565b925050610100611c5485828601611aac565b9150509250929050565b611c6781611ddd565b82525050565b6000602082019050611c826000830184611c5e565b92915050565b6000611c92611ca3565b9050611c9e8282611df3565b919050565b6000604051905090565b600067ffffffffffffffff821115611cc857611cc7611f2b565b5b602082029050919050565b600067ffffffffffffffff821115611cee57611ced611f2b565b5b602082029050919050565b6000611d0482611de9565b9150611d0f83611de9565b9250827fffffffffffffffffffffffffffffffffffffffffffffffffffffffffffffffff03821115611d4457611d43611e9e565b5b828201905092915050565b6000611d5a82611de9565b9150611d6583611de9565b9250817fffffffffffffffffffffffffffffffffffffffffffffffffffffffffffffffff0483118215151615611d9e57611d9d611e9e565b5b828202905092915050565b6000611db482611de9565b9150611dbf83611de9565b925082821015611dd257611dd1611e9e565b5b828203905092915050565b60008115159050919050565b6000819050919050565b611dfc82611f6e565b810181811067ffffffffffffffff82111715611e1b57611e1a611f2b565b5b80604052505050565b6000611e2f82611de9565b91507fffffffffffffffffffffffffffffffffffffffffffffffffffffffffffffffff821415611e6257611e61611e9e565b5b600182019050919050565b6000611e7882611de9565b9150611e8383611de9565b925082611e9357611e92611ecd565b5b828206905092915050565b7f4e487b7100000000000000000000000000000000000000000000000000000000600052601160045260246000fd5b7f4e487b7100000000000000000000000000000000000000000000000000000000600052601260045260246000fd5b7f4e487b7100000000000000000000000000000000000000000000000000000000600052603260045260246000fd5b7f4e487b7100000000000000000000000000000000000000000000000000000000600052604160045260246000fd5b600080fd5b600080fd5b600080fd5b600080fd5b6000601f19601f8301169050919050565b611f8881611de9565b8114611f9357600080fd5b5056fea2646970667358221220ffdbdb9f6b07aebffa128989aa20fc8dd181fe5df6454a1ea52620922dc854f564736f6c63430008060033608060405234801561001057600080fd5b50612405806100206000396000f3fe608060405234801561001057600080fd5b506004361061002b5760003560e01c8063785b3bbb14610030575b600080fd5b61004a60048036038101906100459190612055565b610060565b60405161005791906120a6565b60405180910390f35b600080602167ffffffffffffffff81111561007e5761007d612364565b5b6040519080825280602002602001820160405280156100ac5781602001602082028036833780820191505090505b50905060005b6021811015610105578381602181106100ce576100cd612335565b5b60200201518282815181106100e6576100e5612335565b5b60200260200101818152505080806100fd9061225d565b9150506100b2565b506000610112828661012e565b1415610122576001915050610128565b60009150505b92915050565b6000807f30644e72e131a029b85045b68181585d2833e84879b9709143e1f593f00000019050600061015e6102c5565b9050806080015151600186516101749190612132565b1461017e57600080fd5b60006040518060400160405280600081526020016000815250905060005b865181101561023757838782815181106101b9576101b8612335565b5b6020026020010151106101cb57600080fd5b6102228261021d85608001516001856101e49190612132565b815181106101f5576101f4612335565b5b60200260200101518a85815181106102105761020f612335565b5b60200260200101516115c7565b61166e565b9150808061022f9061225d565b91505061019c565b5061026181836080015160008151811061025457610253612335565b5b602002602001015161166e565b90506102a7856000015186602001516102798461173b565b856040015161028b8a6040015161173b565b876060015161029d896000015161173b565b89602001516117e0565b6102b757600193505050506102bf565b600093505050505b92915050565b6102cd611d08565b60405180604001604052807f2a320c1b21ee1327f935ff704b3ad4ec7e7a2efc0edc8476566bb9e4db09194981526020017f030f4eb51a8b4418390195b061d0f1acd094f656d1b30aa635dfc802b6238d1a8152508160000181905250604051806040016040528060405180604001604052807f05f0d1eacbc286a5d6193bf30e241f03c36eb1923d5d9d2e0f56ca77899dfe1781526020017f1c01c67ce3cba23b14db8b29323e797ef0084a379b46cbf39345f6b69444fe1d815250815260200160405180604001604052807f03128cfcbe842fe6c31816de732a531d89173a1f425f25883a7e6288cbaa45a781526020017f21ee1fbc46c359b714e94018fd529353a2d627f5bfed583480be6740955a844a8152508152508160200181905250604051806040016040528060405180604001604052807f1af323401b6e1e97686cab89f9fef5c92be317e403a94177dd28c6d4fc4ee7f481526020017f1153da15e1e994aa5022a92c303d3e857bca56e8504ac3214806db272ff61a7d815250815260200160405180604001604052807f0d6169b65f082458baa8e5143ae136797e82ae645c299dfc3a17db097d80aa3e81526020017f2b7f7304c6f106b2c8d1b8a13142107cb61baa6025448bc26f8d9b33ff0c444b8152508152508160400181905250604051806040016040528060405180604001604052807f1ee380c0ae4e5fb468dfc4dd27bc94158675ebb62c1d42284bc514ab64aafeb381526020017f229991ed23ff05f92b6e0d10c8af8f9e63cc5b0bb4edf561d07016295387e792815250815260200160405180604001604052807f0eeb45c55d795e36885e5165ee0bb2608a857486990b1bb9de7a5ae7f9e8fcb681526020017f0d678a1cc4c16679f5ff27e9b6573cc50669c583fd755bd2fd7d4150e091df608152508152508160600181905250602267ffffffffffffffff81111561059457610593612364565b5b6040519080825280602002602001820160405280156105cd57816020015b6105ba611d4f565b8152602001906001900390816105b25790505b50816080018190525060405180604001604052807f2eec76870b39b1fdb24eb3159347864502eacd4669c9aadc0ba846478766673e81526020017f2c87f04dfde7e74eadca73caa07ce64feb2dcb0a7da4b9b1a25533a1e27790f2815250816080015160008151811061064357610642612335565b5b602002602001018190525060405180604001604052807f11ae923d5a962c123c32fd79d8cb336bae47ca93dc2c307dded73f703824f61b81526020017f17b2f1d121613c607dc933e6a06bbc35f4319d579b711892413dd687bc11f3ba81525081608001516001815181106106bb576106ba612335565b5b602002602001018190525060405180604001604052807f0f2f64163486d5b8d1a340368a2e19857bee2b003d10de40319cc7b3914f180b81526020017f07fd1a5f72c7586786abe681eb61fcd18dc4985493e8f3bec1a2fd0c54d5c7b3815250816080015160028151811061073357610732612335565b5b602002602001018190525060405180604001604052807f23abf14f99e7864b4145da07a67f6453e1a8a29d0a06ade88b1a0bdbe3eabf4281526020017f29845b85a9496802f9bd406c3f130646b072a23765d615a11e30594be688a88981525081608001516003815181106107ab576107aa612335565b5b602002602001018190525060405180604001604052807f18c377841063bb6775d6671cc1a0515ddfd9f04738d7ac6ef2b7183f1076836d81526020017f2d77d62b4ad328ec1dc79c6b788aebc91a23ba303f3d9bf8d0aafb12876c66b6815250816080015160048151811061082357610822612335565b5b602002602001018190525060405180604001604052807f2278169f36fca801cde82d281fbf9bc7b9afedfa05a6a4af55d3d4fc7328759881526020017f2cec7d74c6e7439a177188552389143963085188d634f1aed144aaba242c4a45815250816080015160058151811061089b5761089a612335565b5b602002602001018190525060405180604001604052807f010abbe182330a98eb186cf0a8f4db00b79d7c5349fdb53905c0641cd9e6421c81526020017f16182992983a50794136d312bcb7532d4ee27357bad1764aa2ac3c41953dbded815250816080015160068151811061091357610912612335565b5b602002602001018190525060405180604001604052807f0873aba03accc62f4f873300fec03df84906056ebf198ad34983495a0be88c8681526020017f105e17ac35f48cfbce54115c6ee6574105239d4e384020b8181167239a231d62815250816080015160078151811061098b5761098a612335565b5b602002602001018190525060405180604001604052807f2631ef351794be4ef66050917ce6a2d79dab9b9a0149a47486593650c574f0f981526020017f0bc09a3ba72d3b23c4b11a8810686fb4a0493092a483df5cbb3d96f1ed5e544b8152508160800151600881518110610a0357610a02612335565b5b602002602001018190525060405180604001604052807f2d9c128fc4bb795fe13b6e6b406f2983645d67d3b34139cf58d51af05d87ea8381526020017f2b82b1aea35defea4ba948048b0e6d30f819edd428661f42b95315c02ce434f08152508160800151600981518110610a7b57610a7a612335565b5b602002602001018190525060405180604001604052807f26c84957efeb57b891d5e42ff7a79333c8283cd09b038de9cb42a97f4c2bb34181526020017f25d226c767fab202fb7210a5bf60006c35bab6ffa59d954f7ca748dd7e0820ac8152508160800151600a81518110610af357610af2612335565b5b602002602001018190525060405180604001604052807f1845cab73d68dbd439081466965066dbc438b20a7b804ac7a202682964f8719581526020017f07b01a650d30bee3808c04adea0d1d588a62c6f86925fea5ebc76287412fb1358152508160800151600b81518110610b6b57610b6a612335565b5b602002602001018190525060405180604001604052807f186214ccef66946bd228f88d3e3cb9400719daa393ccfb70b1d5e9c905308f0181526020017f03c617966a0bd2ab506547183729e15afa13aa858334f9ce77efb2985661371c8152508160800151600c81518110610be357610be2612335565b5b602002602001018190525060405180604001604052807f1ab8fbdac5ce9c0a78565e25e8ae545b3da0f027e7506eca328d7f4dc6e168ee81526020017f1f2df29741ab06e7c390fd28c53dcbb5a996a629b649869cbe3762056ace0c2b8152508160800151600d81518110610c5b57610c5a612335565b5b602002602001018190525060405180604001604052807f0c15affd48c85ae9426c7d5942d49c0e0976376f23600d350a541c3d35c5fac781526020017f192660067544fe29f3ea36bd089d0b39b67ca6cb5c4cadec48b4bd6a03a57efc8152508160800151600e81518110610cd357610cd2612335565b5b602002602001018190525060405180604001604052807f1e623091ff3e85e72d0942533dda02f25415d7ce2794d61686cc02dd897ea7b181526020017f25dd2b9311fafb27b32fecc880587833497a935cda28db8be6bd1abf3697eb028152508160800151600f81518110610d4b57610d4a612335565b5b602002602001018190525060405180604001604052807f2d1b37654cad0fd9388fdc37166f0a2dea18c8a4301a048563c319c8b190243a81526020017f0f6cd74c6b19677cbf9d8bec0a3fd7ee90f8cddacfbf21ab55b0d089064fc7738152508160800151601081518110610dc357610dc2612335565b5b602002602001018190525060405180604001604052807f2f2889dfb5b6df989f5024acfb33d2a8fea10da3951ca6c60dd0d44ab88ecabc81526020017f179e47dcc3aea2288b6dcdcc61b6644440baebb473aff026e634901634aab3978152508160800151601181518110610e3b57610e3a612335565b5b602002602001018190525060405180604001604052807f29b7147d046da4c5403bb39feca1aec3629d7aab4d96b5202aa75dbafff4f94e81526020017f2d439a25eb14429dc120cc4d91421fbe54f0ee64f5f88bcede4df514717675938152508160800151601281518110610eb357610eb2612335565b5b602002602001018190525060405180604001604052807f060cad95ba853e344a67014ce090815f8efc9d98c95085c503e1e1708c2dc1a881526020017f02a44c7fe5a6e06cfa63c009b6d918b89dd1bfae20c5c15c7fb6abc1b74de0ae8152508160800151601381518110610f2b57610f2a612335565b5b602002602001018190525060405180604001604052807f25cab61b0912ba5ef7f7bf227d041de29654f270264f67523a747033012d9abe81526020017e6a318cf7cf1f6a54f4309dcbae0c15474af1e7aae29c9c176c5b73ffa3e43e8152508160800151601481518110610fa257610fa1612335565b5b602002602001018190525060405180604001604052807f0346cd3690243e511c67ce868de784750d109f970fddba9139a0d5661e9a3f4281526020017f0443b6398dcf843e0b6c46ef7ed5600ce9e6bf82b513eff1a66f3a8355f60972815250816080015160158151811061101a57611019612335565b5b602002602001018190525060405180604001604052807f054a71f471ee1f0e718144db6085d8a1008b2942c59de6403db50a186d07b18481526020017f175c0cbb5e1a5eea95dd726616b8d7ac94cd848f8318a97b9bc1f9c0679ff909815250816080015160168151811061109257611091612335565b5b602002602001018190525060405180604001604052807f19fa8b200dffe11b4b44918babe5e0499026481588f1b6a2dee38039a60029b681526020017e57a297bd0babc76c6d120d319b61d2bb2946cc3890a7108fca249761ec409e815250816080015160178151811061110957611108612335565b5b602002602001018190525060405180604001604052807f082dd0ffbbee49ffbb9a5fb2ca853da0897ba521a049ee2142c03a5cb6fe29dc81526020017f079c638dd5b108aefc22e676dfb66ea09f16239a15eb1df4553217cddfe43454815250816080015160188151811061118157611180612335565b5b602002602001018190525060405180604001604052807f0e49da5e39e1aff4467dcb6778e7782388b1bd29e396f851bd334b8f3f94ec5e81526020017f250456930917fd0631fcdffaea74113fa4e90086752ae1a81a3fb13801cd6a5781525081608001516019815181106111f9576111f8612335565b5b602002602001018190525060405180604001604052807f2b5bf155c51c7eebcc11ddf42efabf6025b7ffaefaa99929da6451a4598470e781526020017f25d0122c36b08b1742d0fb9cbd1fae51a2b71224afc8f356946a6204519d38268152508160800151601a8151811061127157611270612335565b5b602002602001018190525060405180604001604052807f1b8175b811fcb4c95754d20e44c1596acb3002c7123c0d00eed537a9b47d0fc781526020017f2e52e8a2b23c6a55a614c1db5f20692743dbe9545b25c28edfbe82b2b75704088152508160800151601b815181106112e9576112e8612335565b5b602002602001018190525060405180604001604052807f19a7b300475253cdfc0561ea5e2aa548e8c0f8067cd003903ed473ef7015d3ad81526020017f284d7368654bc84f3037ab26a584c6a54b24f562ef1d2f0cd83cc3eed1d0bde38152508160800151601c8151811061136157611360612335565b5b602002602001018190525060405180604001604052807f24e40ee4b381cf9336b63616ed8b529f098fb7b4898a835ede7a99c0204072d181526020017f0c0841a21926bfeebe12ac95cd06ab6e039a556f2b73ade7f60c3281d5c6c63e8152508160800151601d815181106113d9576113d8612335565b5b602002602001018190525060405180604001604052807f1333565ffa0c50d46c005c285accb1198c39cbac67939df822cf9b31f6b6a3ec81526020017f104bcb58487fce3ce89cc521bd433dd6011b2d3a36403bc3c2dc9250358db94f8152508160800151601e8151811061145157611450612335565b5b602002602001018190525060405180604001604052807f097aed0dca7c6f99fca527843ad5790d4ea55d35d7073ddeb8532c9c3b31519381526020017f19b857eda3c8020c445f666f7371182986ec3fcd4a026b0dbd6992b28a5a363a8152508160800151601f815181106114c9576114c8612335565b5b602002602001018190525060405180604001604052807f0723fee7a4928f1adc6fe3cdc0e9d0d3b5a7177edc94d79b1966b3230f58c03981526020017f231c3f8eee8d6fa62a666e5779a52c15102b9a8fe931a3c721dfb1a4300c31a3815250816080015160208151811061154157611540612335565b5b602002602001018190525060405180604001604052807f08122f9681fbdc8caee06c6dc28956429649c23ac3b50666bb9dbfa59991b39481526020017f265ef908293d059a2e339c185086e98f920bc41638f9797baf8021cbda03c00481525081608001516021815181106115b9576115b8612335565b5b602002602001018190525090565b6115cf611d4f565b6115d7611d69565b8360000151816000600381106115f0576115ef612335565b5b60200201818152505083602001518160016003811061161257611611612335565b5b60200201818152505082816002600381106116305761162f612335565b5b602002018181525050600060608360808460076107d05a03fa905080600081146116595761165b565bfe5b508061166657600080fd5b505092915050565b611676611d4f565b61167e611d8b565b83600001518160006004811061169757611696612335565b5b6020020181815250508360200151816001600481106116b9576116b8612335565b5b6020020181815250508260000151816002600481106116db576116da612335565b5b6020020181815250508260200151816003600481106116fd576116fc612335565b5b602002018181525050600060608360c08460066107d05a03fa9050806000811461172657611728565bfe5b508061173357600080fd5b505092915050565b611743611d4f565b60007f30644e72e131a029b85045b68181585d97816a916871ca8d3c208c16d87cfd47905060008360000151148015611780575060008360200151145b156117a45760405180604001604052806000815260200160008152509150506117db565b6040518060400160405280846000015181526020018285602001516117c991906122a6565b836117d491906121e2565b8152509150505b919050565b600080600467ffffffffffffffff8111156117fe576117fd612364565b5b60405190808252806020026020018201604052801561183757816020015b611824611d4f565b81526020019060019003908161181c5790505b5090506000600467ffffffffffffffff81111561185757611856612364565b5b60405190808252806020026020018201604052801561189057816020015b61187d611dad565b8152602001906001900390816118755790505b5090508a826000815181106118a8576118a7612335565b5b602002602001018190525088826001815181106118c8576118c7612335565b5b602002602001018190525086826002815181106118e8576118e7612335565b5b6020026020010181905250848260038151811061190857611907612335565b5b6020026020010181905250898160008151811061192857611927612335565b5b6020026020010181905250878160018151811061194857611947612335565b5b6020026020010181905250858160028151811061196857611967612335565b5b6020026020010181905250838160038151811061198857611987612335565b5b602002602001018190525061199d82826119ad565b9250505098975050505050505050565b600081518351146119bd57600080fd5b60008351905060006006826119d29190612188565b905060008167ffffffffffffffff8111156119f0576119ef612364565b5b604051908082528060200260200182016040528015611a1e5781602001602082028036833780820191505090505b50905060005b83811015611ca357868181518110611a3f57611a3e612335565b5b602002602001015160000151826000600684611a5b9190612188565b611a659190612132565b81518110611a7657611a75612335565b5b602002602001018181525050868181518110611a9557611a94612335565b5b602002602001015160200151826001600684611ab19190612188565b611abb9190612132565b81518110611acc57611acb612335565b5b602002602001018181525050858181518110611aeb57611aea612335565b5b602002602001015160000151600160028110611b0a57611b09612335565b5b6020020151826002600684611b1f9190612188565b611b299190612132565b81518110611b3a57611b39612335565b5b602002602001018181525050858181518110611b5957611b58612335565b5b602002602001015160000151600060028110611b7857611b77612335565b5b6020020151826003600684611b8d9190612188565b611b979190612132565b81518110611ba857611ba7612335565b5b602002602001018181525050858181518110611bc757611bc6612335565b5b602002602001015160200151600160028110611be657611be5612335565b5b6020020151826004600684611bfb9190612188565b611c059190612132565b81518110611c1657611c15612335565b5b602002602001018181525050858181518110611c3557611c34612335565b5b602002602001015160200151600060028110611c5457611c53612335565b5b6020020151826005600684611c699190612188565b611c739190612132565b81518110611c8457611c83612335565b5b6020026020010181815250508080611c9b9061225d565b915050611a24565b50611cac611dd3565b6000602082602086026020860160086107d05a03fa90508060008114611cd157611cd3565bfe5b5080611cde57600080fd5b600082600060018110611cf457611cf3612335565b5b602002015114159550505050505092915050565b6040518060a00160405280611d1b611d4f565b8152602001611d28611dad565b8152602001611d35611dad565b8152602001611d42611dad565b8152602001606081525090565b604051806040016040528060008152602001600081525090565b6040518060600160405280600390602082028036833780820191505090505090565b6040518060800160405280600490602082028036833780820191505090505090565b6040518060400160405280611dc0611df5565b8152602001611dcd611df5565b81525090565b6040518060200160405280600190602082028036833780820191505090505090565b6040518060400160405280600290602082028036833780820191505090505090565b6000611e2a611e25846120e6565b6120c1565b90508082856020860282011115611e4457611e4361239d565b5b60005b85811015611e745781611e5a8882612040565b845260208401935060208301925050600181019050611e47565b5050509392505050565b6000611e91611e8c8461210c565b6120c1565b90508082856020860282011115611eab57611eaa61239d565b5b60005b85811015611edb5781611ec18882612040565b845260208401935060208301925050600181019050611eae565b5050509392505050565b600082601f830112611efa57611ef9612393565b5b6002611f07848285611e17565b91505092915050565b600082601f830112611f2557611f24612393565b5b6021611f32848285611e7e565b91505092915050565b600060408284031215611f5157611f50612398565b5b611f5b60406120c1565b90506000611f6b84828501612040565b6000830152506020611f7f84828501612040565b60208301525092915050565b600060808284031215611fa157611fa0612398565b5b611fab60406120c1565b90506000611fbb84828501611ee5565b6000830152506040611fcf84828501611ee5565b60208301525092915050565b60006101008284031215611ff257611ff1612398565b5b611ffc60606120c1565b9050600061200c84828501611f3b565b600083015250604061202084828501611f8b565b60208301525060c061203484828501611f3b565b60408301525092915050565b60008135905061204f816123b8565b92915050565b600080610520838503121561206d5761206c6123a2565b5b600061207b85828601611fdb565b92505061010061208d85828601611f10565b9150509250929050565b6120a081612216565b82525050565b60006020820190506120bb6000830184612097565b92915050565b60006120cb6120dc565b90506120d7828261222c565b919050565b6000604051905090565b600067ffffffffffffffff82111561210157612100612364565b5b602082029050919050565b600067ffffffffffffffff82111561212757612126612364565b5b602082029050919050565b600061213d82612222565b915061214883612222565b9250827fffffffffffffffffffffffffffffffffffffffffffffffffffffffffffffffff0382111561217d5761217c6122d7565b5b828201905092915050565b600061219382612222565b915061219e83612222565b9250817fffffffffffffffffffffffffffffffffffffffffffffffffffffffffffffffff04831182151516156121d7576121d66122d7565b5b828202905092915050565b60006121ed82612222565b91506121f883612222565b92508282101561220b5761220a6122d7565b5b828203905092915050565b60008115159050919050565b6000819050919050565b612235826123a7565b810181811067ffffffffffffffff8211171561225457612253612364565b5b80604052505050565b600061226882612222565b91507fffffffffffffffffffffffffffffffffffffffffffffffffffffffffffffffff82141561229b5761229a6122d7565b5b600182019050919050565b60006122b182612222565b91506122bc83612222565b9250826122cc576122cb612306565b5b828206905092915050565b7f4e487b7100000000000000000000000000000000000000000000000000000000600052601160045260246000fd5b7f4e487b7100000000000000000000000000000000000000000000000000000000600052601260045260246000fd5b7f4e487b7100000000000000000000000000000000000000000000000000000000600052603260045260246000fd5b7f4e487b7100000000000000000000000000000000000000000000000000000000600052604160045260246000fd5b600080fd5b600080fd5b600080fd5b600080fd5b6000601f19601f8301169050919050565b6123c181612222565b81146123cc57600080fd5b5056fea2646970667358221220cda6a7b992c7064a6cb3a3abacdf4c5ad70ca1e7196694f1d2a6c7f9970d659d64736f6c63430008060033",
  "linkReferences": {},
  "deployedLinkReferences": {}
}