{
  "_format": "hh-sol-artifact-1",
  "contractName": "FLSC",
  "sourceName": "contracts/FLSC.sol",
  "abi": [
    {
      "inputs": [
        {
          "internalType": "uint32",
          "name": "_number_of_entities",
          "type": "uint32"
        },
        {
          "internalType": "uint32",
          "name": "_number_of_features",
          "type": "uint32"
        },
        {
          "internalType": "uint256",
          "name": "_funding",
          "type": "uint256"
        },
        {
          "internalType": "uint256",
          "name": "_deposit",
          "type": "uint256"
        }
      ],
      "stateMutability": "nonpayable",
      "type": "constructor"
    },
    {
      "inputs": [],
      "name": "decryption_rounds",
      "outputs": [
        {
          "internalType": "uint32",
          "name": "",
          "type": "uint32"
        }
      ],
      "stateMutability": "view",
      "type": "function"
    },
    {
      "inputs": [],
      "name": "number_of_entities",
      "outputs": [
        {
          "internalType": "uint32",
          "name": "",
          "type": "uint32"
        }
      ],
      "stateMutability": "view",
      "type": "function"
    },
    {
      "inputs": [],
      "name": "number_of_features",
      "outputs": [
        {
          "internalType": "uint32",
          "name": "",
          "type": "uint32"
        }
      ],
      "stateMutability": "view",
      "type": "function"
    },
    {
      "inputs": [
        {
          "internalType": "uint256",
          "name": "",
          "type": "uint256"
        }
      ],
      "name": "public_key",
      "outputs": [
        {
          "internalType": "uint256",
          "name": "",
          "type": "uint256"
        }
      ],
      "stateMutability": "view",
      "type": "function"
    },
    {
      "inputs": [
        {
          "internalType": "string",
          "name": "class",
          "type": "string"
        }
      ],
      "name": "return_mu_random",
      "outputs": [
        {
          "internalType": "uint256[][]",
          "name": "",
          "type": "uint256[][]"
        }
      ],
      "stateMutability": "view",
      "type": "function"
    },
    {
      "inputs": [
        {
          "internalType": "string",
          "name": "class",
          "type": "string"
        }
      ],
      "name": "return_partial_decrypted_mu",
      "outputs": [
        {
          "internalType": "uint256[][]",
          "name": "",
          "type": "uint256[][]"
        }
      ],
      "stateMutability": "view",
      "type": "function"
    },
    {
      "inputs": [
        {
          "internalType": "string",
          "name": "class",
          "type": "string"
        }
      ],
      "name": "return_submit_count",
      "outputs": [
        {
          "internalType": "uint32",
          "name": "",
          "type": "uint32"
        }
      ],
      "stateMutability": "view",
      "type": "function"
    },
    {
      "inputs": [
        {
          "internalType": "string",
          "name": "class",
          "type": "string"
        }
      ],
      "name": "return_varience_partial_decrypted",
      "outputs": [
        {
          "internalType": "uint256[][]",
          "name": "",
          "type": "uint256[][]"
        }
      ],
      "stateMutability": "view",
      "type": "function"
    },
    {
      "inputs": [
        {
          "internalType": "string",
          "name": "class",
          "type": "string"
        }
      ],
      "name": "return_varience_random",
      "outputs": [
        {
          "internalType": "uint256[][]",
          "name": "",
          "type": "uint256[][]"
        }
      ],
      "stateMutability": "view",
      "type": "function"
    },
    {
      "inputs": [],
      "name": "start_decryption",
      "outputs": [],
      "stateMutability": "nonpayable",
      "type": "function"
    },
    {
      "inputs": [
        {
          "internalType": "uint256[2]",
          "name": "a",
          "type": "uint256[2]"
        },
        {
          "internalType": "uint256[2][2]",
          "name": "b",
          "type": "uint256[2][2]"
        },
        {
          "internalType": "uint256[2]",
          "name": "c",
          "type": "uint256[2]"
        },
        {
          "internalType": "uint256[]",
          "name": "_C_mean_prime_x",
          "type": "uint256[]"
        },
        {
          "internalType": "uint256[]",
          "name": "_C_mean_prime_y",
          "type": "uint256[]"
        },
        {
          "internalType": "uint256[]",
          "name": "_C_var_prime_x",
          "type": "uint256[]"
        },
        {
          "internalType": "uint256[]",
          "name": "_C_var_prime_y",
          "type": "uint256[]"
        },
        {
          "internalType": "uint256[2]",
          "name": "_Pk",
          "type": "uint256[2]"
        },
        {
          "internalType": "string",
          "name": "class",
          "type": "string"
        }
      ],
      "name": "submit_decryption",
      "outputs": [],
      "stateMutability": "nonpayable",
      "type": "function"
    },
    {
      "inputs": [
        {
          "internalType": "address",
          "name": "entity",
          "type": "address"
        }
      ],
      "name": "submit_entity",
      "outputs": [],
      "stateMutability": "nonpayable",
      "type": "function"
    },
    {
      "inputs": [
        {
          "internalType": "uint256",
          "name": "pubkey",
          "type": "uint256"
        }
      ],
      "name": "submit_pubkey",
      "outputs": [],
      "stateMutability": "payable",
      "type": "function"
    },
    {
      "inputs": [
        {
          "internalType": "uint256[2]",
          "name": "a",
          "type": "uint256[2]"
        },
        {
          "internalType": "uint256[2][2]",
          "name": "b",
          "type": "uint256[2][2]"
        },
        {
          "internalType": "uint256[2]",
          "name": "c",
          "type": "uint256[2]"
        },
        {
          "internalType": "uint256",
          "name": "acccuracy",
          "type": "uint256"
        },
        {
          "internalType": "uint256[][]",
          "name": "_mu_R",
          "type": "uint256[][]"
        },
        {
          "internalType": "uint256[][]",
          "name": "_mu_C",
          "type": "uint256[][]"
        },
        {
          "internalType": "uint256[][]",
          "name": "vars_R",
          "type": "uint256[][]"
        },
        {
          "internalType": "uint256[][]",
          "name": "vars_C",
          "type": "uint256[][]"
        },
        {
          "internalType": "string",
          "name": "class",
          "type": "string"
        }
      ],
      "name": "submit_update",
      "outputs": [],
      "stateMutability": "nonpayable",
      "type": "function"
    }
  ],
  "bytecode": "0x608060405260008060086101000a81548163ffffffff021916908363ffffffff160217905550600060025560006003556040516200003d9062000283565b604051809103906000f0801580156200005a573d6000803e3d6000fd5b50600560006101000a81548173ffffffffffffffffffffffffffffffffffffffff021916908373ffffffffffffffffffffffffffffffffffffffff160217905550604051620000a99062000291565b604051809103906000f080158015620000c6573d6000803e3d6000fd5b50600660006101000a81548173ffffffffffffffffffffffffffffffffffffffff021916908373ffffffffffffffffffffffffffffffffffffffff1602179055503480156200011457600080fd5b5060405162008e5c38038062008e5c83398181016040528101906200013a919062000331565b33600760006101000a81548173ffffffffffffffffffffffffffffffffffffffff021916908373ffffffffffffffffffffffffffffffffffffffff1602179055506004600760009054906101000a900473ffffffffffffffffffffffffffffffffffffffff169080600181540180825580915050600190039060005260206000200160009091909190916101000a81548173ffffffffffffffffffffffffffffffffffffffff021916908373ffffffffffffffffffffffffffffffffffffffff160217905550826000806101000a81548163ffffffff021916908363ffffffff16021790555083600060046101000a81548163ffffffff021916908363ffffffff160217905550604051806040016040528060008152602001600181525060089060026200026a9291906200029f565b50816002819055508060038190555050505050620003f6565b611feb8062004a4b83390190565b6124268062006a3683390190565b8260028101928215620002d1579160200282015b82811115620002d0578251825591602001919060010190620002b3565b5b509050620002e09190620002e4565b5090565b5b80821115620002ff576000816000905550600101620002e5565b5090565b6000815190506200031481620003c2565b92915050565b6000815190506200032b81620003dc565b92915050565b600080600080608085870312156200034e576200034d620003bd565b5b60006200035e878288016200031a565b945050602062000371878288016200031a565b9350506040620003848782880162000303565b9250506060620003978782880162000303565b91505092959194509250565b6000819050919050565b600063ffffffff82169050919050565b600080fd5b620003cd81620003a3565b8114620003d957600080fd5b50565b620003e781620003ad565b8114620003f357600080fd5b50565b61464580620004066000396000f3fe6080604052600436106100dd5760003560e01c80638479e0d31161007f578063a261b04a11610059578063a261b04a146102c5578063bdb900fd146102dc578063dbcb1c4414610305578063ef5349d314610342576100dd565b80638479e0d31461024457806385871e491461026f57806389e3b0e51461029a576100dd565b80631f1895d0116100bb5780631f1895d0146101855780633470f117146101a15780633de222ec146101de5780636b437d3c1461021b576100dd565b806305db8c5a146100e25780630b9180c51461010b5780631c0b0b5814610148575b600080fd5b3480156100ee57600080fd5b506101096004803603810190610104919061365c565b61037f565b005b34801561011757600080fd5b50610132600480360381019061012d919061396c565b6104ed565b60405161013f9190613e3e565b60405180910390f35b34801561015457600080fd5b5061016f600480360381019061016a919061396c565b6105aa565b60405161017c9190613e3e565b60405180910390f35b61019f600480360381019061019a91906139b5565b610667565b005b3480156101ad57600080fd5b506101c860048036038101906101c3919061396c565b610743565b6040516101d59190613f31565b60405180910390f35b3480156101ea57600080fd5b50610205600480360381019061020091906139b5565b61077b565b6040516102129190613f16565b60405180910390f35b34801561022757600080fd5b50610242600480360381019061023d9190613689565b610796565b005b34801561025057600080fd5b50610259610ed7565b6040516102669190613f31565b60405180910390f35b34801561027b57600080fd5b50610284610eed565b6040516102919190613f31565b60405180910390f35b3480156102a657600080fd5b506102af610f01565b6040516102bc9190613f31565b60405180910390f35b3480156102d157600080fd5b506102da610f17565b005b3480156102e857600080fd5b5061030360048036038101906102fe91906137e4565b61113c565b005b34801561031157600080fd5b5061032c6004803603810190610327919061396c565b61221e565b6040516103399190613e3e565b60405180910390f35b34801561034e57600080fd5b506103696004803603810190610364919061396c565b6122db565b6040516103769190613e3e565b60405180910390f35b6004819080600181540180825580915050600190039060005260206000200160009091909190916101000a81548173ffffffffffffffffffffffffffffffffffffffff021916908373ffffffffffffffffffffffffffffffffffffffff1602179055506000600a60008373ffffffffffffffffffffffffffffffffffffffff1673ffffffffffffffffffffffffffffffffffffffff16815260200190815260200160002060006101000a81548160ff0219169083151502179055506001601360008373ffffffffffffffffffffffffffffffffffffffff1673ffffffffffffffffffffffffffffffffffffffff16815260200190815260200160002060006101000a81548160ff0219169083151502179055506000601460008373ffffffffffffffffffffffffffffffffffffffff1673ffffffffffffffffffffffffffffffffffffffff16815260200190815260200160002060006101000a81548160ff02191690831515021790555050565b6060600e826040516104ff9190613e10565b9081526020016040518091039020805480602002602001604051908101604052809291908181526020016000905b8282101561059f5783829060005260206000200180548060200260200160405190810160405280929190818152602001828054801561058b57602002820191906000526020600020905b815481526020019060010190808311610577575b50505050508152602001906001019061052d565b505050509050919050565b60606010826040516105bc9190613e10565b9081526020016040518091039020805480602002602001604051908101604052809291908181526020016000905b8282101561065c5783829060005260206000200180548060200260200160405190810160405280929190818152602001828054801561064857602002820191906000526020600020905b815481526020019060010190808311610634575b5050505050815260200190600101906105ea565b505050509050919050565b600354600254610677919061417b565b341461068257600080fd5b600061068d82612398565b90506106d660086002806020026040519081016040528092919082600280156106cb576020028201915b8154815260200190600101908083116106b7575b505050505082612556565b60089060026106e6929190612f19565b506001601460003373ffffffffffffffffffffffffffffffffffffffff1673ffffffffffffffffffffffffffffffffffffffff16815260200190815260200160002060006101000a81548160ff0219169083151502179055505050565b60006012826040516107559190613e10565b908152602001604051809103902060009054906101000a900463ffffffff169050919050565b6008816002811061078b57600080fd5b016000915090505481565b61079e612f59565b604051806060016040528060405180604001604052808d6000600281106107c8576107c76144a1565b5b602002015181526020018d6001600281106107e6576107e56144a1565b5b6020020151815250815260200160405180604001604052808c600060028110610812576108116144a1565b5b602002015181526020018c6001600281106108305761082f6144a1565b5b6020020151815250815260200160405180604001604052808b60006002811061085c5761085b6144a1565b5b602002015181526020018b60016002811061087a576108796144a1565b5b6020020151815250815250905061088f612f8c565b600080600090505b60068163ffffffff161015610c1c5760005b60008054906101000a900463ffffffff1663ffffffff168163ffffffff161015610c0857808260008054906101000a900463ffffffff166108ea919061420b565b6108f491906141d1565b925060008263ffffffff16141561098a57600d866040516109159190613e10565b9081526020016040518091039020600081548110610936576109356144a1565b5b906000526020600020018163ffffffff1681548110610958576109576144a1565b5b9060005260206000200154848463ffffffff166021811061097c5761097b6144a1565b5b602002018181525050610bf5565b60018263ffffffff161415610a1e57600f866040516109a99190613e10565b90815260200160405180910390206000815481106109ca576109c96144a1565b5b906000526020600020018163ffffffff16815481106109ec576109eb6144a1565b5b9060005260206000200154848463ffffffff1660218110610a1057610a0f6144a1565b5b602002018181525050610bf4565b60028263ffffffff161415610a75578a8163ffffffff1681518110610a4657610a456144a1565b5b6020026020010151848463ffffffff1660218110610a6757610a666144a1565b5b602002018181525050610bf3565b60038263ffffffff161415610b0957600e86604051610a949190613e10565b9081526020016040518091039020600081548110610ab557610ab46144a1565b5b906000526020600020018163ffffffff1681548110610ad757610ad66144a1565b5b9060005260206000200154848463ffffffff1660218110610afb57610afa6144a1565b5b602002018181525050610bf2565b60048263ffffffff161415610b9d57601086604051610b289190613e10565b9081526020016040518091039020600081548110610b4957610b486144a1565b5b906000526020600020018163ffffffff1681548110610b6b57610b6a6144a1565b5b9060005260206000200154848463ffffffff1660218110610b8f57610b8e6144a1565b5b602002018181525050610bf1565b60058263ffffffff161415610bf057888163ffffffff1681518110610bc557610bc46144a1565b5b6020026020010151848463ffffffff1660218110610be657610be56144a1565b5b6020020181815250505b5b5b5b5b5b8080610c00906143e7565b9150506108a9565b508080610c14906143e7565b915050610897565b5084600060028110610c3157610c306144a1565b5b602002015182600183610c4491906141d1565b63ffffffff1660218110610c5b57610c5a6144a1565b5b60200201818152505084600160028110610c7857610c776144a1565b5b602002015182600283610c8b91906141d1565b63ffffffff1660218110610ca257610ca16144a1565b5b602002018181525050600182600383610cbb91906141d1565b63ffffffff1660218110610cd257610cd16144a1565b5b602002018181525050600660009054906101000a900473ffffffffffffffffffffffffffffffffffffffff1673ffffffffffffffffffffffffffffffffffffffff1663785b3bbb84846040518363ffffffff1660e01b8152600401610d38929190613eeb565b60206040518083038186803b158015610d5057600080fd5b505afa158015610d64573d6000803e3d6000fd5b505050506040513d601f19601f82011682018060405250810190610d88919061393f565b610dc7576040517f08c379a0000000000000000000000000000000000000000000000000000000008152600401610dbe90613ea0565b60405180910390fd5b601560003373ffffffffffffffffffffffffffffffffffffffff1673ffffffffffffffffffffffffffffffffffffffff168152602001908152602001600020600081819054906101000a900463ffffffff1680929190610e26906143e7565b91906101000a81548163ffffffff021916908363ffffffff1602179055505060405180604001604052808a815260200189815250600f85604051610e6a9190613e10565b9081526020016040518091039020906002610e86929190612faf565b50604051806040016040528088815260200187815250601085604051610eac9190613e10565b9081526020016040518091039020906002610ec8929190612faf565b50505050505050505050505050565b600060089054906101000a900463ffffffff1681565b60008054906101000a900463ffffffff1681565b600060049054906101000a900463ffffffff1681565b600760009054906101000a900473ffffffffffffffffffffffffffffffffffffffff1673ffffffffffffffffffffffffffffffffffffffff163373ffffffffffffffffffffffffffffffffffffffff1614610fa7576040517f08c379a0000000000000000000000000000000000000000000000000000000008152600401610f9e90613e60565b60405180910390fd5b6000600180549050905060005b818163ffffffff1610156110f757600b60018263ffffffff1681548110610fde57610fdd6144a1565b5b90600052602060002001604051610ff59190613e27565b9081526020016040518091039020600f60018363ffffffff168154811061101f5761101e6144a1565b5b906000526020600020016040516110369190613e27565b908152602001604051809103902090805461105292919061300f565b50600c60018263ffffffff168154811061106f5761106e6144a1565b5b906000526020600020016040516110869190613e27565b9081526020016040518091039020601060018363ffffffff16815481106110b0576110af6144a1565b5b906000526020600020016040516110c79190613e27565b90815260200160405180910390209080546110e392919061300f565b5080806110ef906143e7565b915050610fb4565b506000600881819054906101000a900463ffffffff168092919061111a906143e7565b91906101000a81548163ffffffff021916908363ffffffff1602179055505050565b61114461306e565b61114c613091565b6111546130c4565b8883600060188110611169576111686144a1565b5b602002018181525050604051806060016040528060405180604001604052808f60006002811061119c5761119b6144a1565b5b602002015181526020018f6001600281106111ba576111b96144a1565b5b6020020151815250815260200160405180604001604052808e6000600281106111e6576111e56144a1565b5b602002015181526020018e600160028110611204576112036144a1565b5b6020020151815250815260200160405180604001604052808d6000600281106112305761122f6144a1565b5b602002015181526020018d60016002811061124e5761124d6144a1565b5b60200201518152508152509150600080600090505b60048163ffffffff1610156114bc5760005b60008054906101000a900463ffffffff1663ffffffff168163ffffffff1610156114a8576001818360008054906101000a900463ffffffff166112b8919061420b565b6112c291906141d1565b6112cc91906141d1565b925060008263ffffffff161415611340578a6000815181106112f1576112f06144a1565b5b60200260200101518163ffffffff1681518110611311576113106144a1565b5b6020026020010151868463ffffffff1660188110611332576113316144a1565b5b602002018181525050611495565b60018263ffffffff1614156113b25789600081518110611363576113626144a1565b5b60200260200101518163ffffffff1681518110611383576113826144a1565b5b6020026020010151868463ffffffff16601881106113a4576113a36144a1565b5b602002018181525050611494565b60028263ffffffff16141561142457886000815181106113d5576113d46144a1565b5b60200260200101518163ffffffff16815181106113f5576113f46144a1565b5b6020026020010151868463ffffffff1660188110611416576114156144a1565b5b602002018181525050611493565b60038263ffffffff1614156114925787600081518110611447576114466144a1565b5b60200260200101518163ffffffff1681518110611467576114666144a1565b5b6020026020010151868463ffffffff1660188110611488576114876144a1565b5b6020020181815250505b5b5b5b80806114a0906143e7565b915050611275565b5080806114b4906143e7565b915050611263565b5060086000600281106114d2576114d16144a1565b5b0154846001836114e291906141d1565b63ffffffff16601881106114f9576114f86144a1565b5b6020020181815250506008600160028110611517576115166144a1565b5b01548460028361152791906141d1565b63ffffffff166018811061153e5761153d6144a1565b5b60200201818152505060018460038361155791906141d1565b63ffffffff166018811061156e5761156d6144a1565b5b602002018181525050600560009054906101000a900473ffffffffffffffffffffffffffffffffffffffff1673ffffffffffffffffffffffffffffffffffffffff166388e3f31784866040518363ffffffff1660e01b81526004016115d4929190613ec0565b60206040518083038186803b1580156115ec57600080fd5b505afa158015611600573d6000803e3d6000fd5b505050506040513d601f19601f82011682018060405250810190611624919061393f565b611663576040517f08c379a000000000000000000000000000000000000000000000000000000000815260040161165a90613e80565b60405180910390fd5b60016012866040516116759190613e10565b908152602001604051809103902060008282829054906101000a900463ffffffff166116a191906141d1565b92506101000a81548163ffffffff021916908363ffffffff1602179055506011856040516116cf9190613e10565b908152602001604051809103902060009054906101000a900460ff166118335760018590806001815401808255809150506001900390600052602060002001600090919091909150908051906020019061172a9291906130e6565b5087600b8660405161173c9190613e10565b9081526020016040518091039020908051906020019061175d92919061316c565b5085600c8660405161176f9190613e10565b9081526020016040518091039020908051906020019061179092919061316c565b5060016011866040516117a39190613e10565b908152602001604051809103902060006101000a81548160ff02191690831515021790555088600d866040516117d99190613e10565b908152602001604051809103902090805190602001906117fa92919061316c565b5086600e8660405161180c9190613e10565b9081526020016040518091039020908051906020019061182d92919061316c565b5061220f565b60005b60008054906101000a900463ffffffff1663ffffffff168163ffffffff16101561220d576119cc6118f060405180604001604052808c60008151811061187f5761187e6144a1565b5b60200260200101518563ffffffff168151811061189f5761189e6144a1565b5b602002602001015181526020018c6001815181106118c0576118bf6144a1565b5b60200260200101518563ffffffff16815181106118e0576118df6144a1565b5b602002602001015181525061289e565b6119c76040518060400160405280600b8b60405161190e9190613e10565b908152602001604051809103902060008154811061192f5761192e6144a1565b5b906000526020600020018663ffffffff1681548110611951576119506144a1565b5b90600052602060002001548152602001600b8b6040516119719190613e10565b9081526020016040518091039020600181548110611992576119916144a1565b5b906000526020600020018663ffffffff16815481106119b4576119b36144a1565b5b906000526020600020015481525061289e565b6129b5565b9250826000600281106119e2576119e16144a1565b5b6020020151600b876040516119f79190613e10565b9081526020016040518091039020600081548110611a1857611a176144a1565b5b906000526020600020018263ffffffff1681548110611a3a57611a396144a1565b5b906000526020600020018190555082600160028110611a5c57611a5b6144a1565b5b6020020151600b87604051611a719190613e10565b9081526020016040518091039020600181548110611a9257611a916144a1565b5b906000526020600020018263ffffffff1681548110611ab457611ab36144a1565b5b9060005260206000200181905550611c34611b5860405180604001604052808a600081518110611ae757611ae66144a1565b5b60200260200101518563ffffffff1681518110611b0757611b066144a1565b5b602002602001015181526020018a600181518110611b2857611b276144a1565b5b60200260200101518563ffffffff1681518110611b4857611b476144a1565b5b602002602001015181525061289e565b611c2f6040518060400160405280600c8b604051611b769190613e10565b9081526020016040518091039020600081548110611b9757611b966144a1565b5b906000526020600020018663ffffffff1681548110611bb957611bb86144a1565b5b90600052602060002001548152602001600c8b604051611bd99190613e10565b9081526020016040518091039020600181548110611bfa57611bf96144a1565b5b906000526020600020018663ffffffff1681548110611c1c57611c1b6144a1565b5b906000526020600020015481525061289e565b6129b5565b925082600060028110611c4a57611c496144a1565b5b6020020151600c87604051611c5f9190613e10565b9081526020016040518091039020600081548110611c8057611c7f6144a1565b5b906000526020600020018263ffffffff1681548110611ca257611ca16144a1565b5b906000526020600020018190555082600160028110611cc457611cc36144a1565b5b6020020151600c87604051611cd99190613e10565b9081526020016040518091039020600181548110611cfa57611cf96144a1565b5b906000526020600020018263ffffffff1681548110611d1c57611d1b6144a1565b5b9060005260206000200181905550611e9c611dc060405180604001604052808d600081518110611d4f57611d4e6144a1565b5b60200260200101518563ffffffff1681518110611d6f57611d6e6144a1565b5b602002602001015181526020018d600181518110611d9057611d8f6144a1565b5b60200260200101518563ffffffff1681518110611db057611daf6144a1565b5b602002602001015181525061289e565b611e976040518060400160405280600d8b604051611dde9190613e10565b9081526020016040518091039020600081548110611dff57611dfe6144a1565b5b906000526020600020018663ffffffff1681548110611e2157611e206144a1565b5b90600052602060002001548152602001600d8b604051611e419190613e10565b9081526020016040518091039020600181548110611e6257611e616144a1565b5b906000526020600020018663ffffffff1681548110611e8457611e836144a1565b5b906000526020600020015481525061289e565b6129b5565b925082600060028110611eb257611eb16144a1565b5b6020020151600d87604051611ec79190613e10565b9081526020016040518091039020600081548110611ee857611ee76144a1565b5b906000526020600020018263ffffffff1681548110611f0a57611f096144a1565b5b906000526020600020018190555082600160028110611f2c57611f2b6144a1565b5b6020020151600d87604051611f419190613e10565b9081526020016040518091039020600181548110611f6257611f616144a1565b5b906000526020600020018263ffffffff1681548110611f8457611f836144a1565b5b906000526020600020018190555061210461202860405180604001604052808b600081518110611fb757611fb66144a1565b5b60200260200101518563ffffffff1681518110611fd757611fd66144a1565b5b602002602001015181526020018b600181518110611ff857611ff76144a1565b5b60200260200101518563ffffffff1681518110612018576120176144a1565b5b602002602001015181525061289e565b6120ff6040518060400160405280600e8b6040516120469190613e10565b9081526020016040518091039020600081548110612067576120666144a1565b5b906000526020600020018663ffffffff1681548110612089576120886144a1565b5b90600052602060002001548152602001600e8b6040516120a99190613e10565b90815260200160405180910390206001815481106120ca576120c96144a1565b5b906000526020600020018663ffffffff16815481106120ec576120eb6144a1565b5b906000526020600020015481525061289e565b6129b5565b92508260006002811061211a576121196144a1565b5b6020020151600e8760405161212f9190613e10565b90815260200160405180910390206000815481106121505761214f6144a1565b5b906000526020600020018263ffffffff1681548110612172576121716144a1565b5b906000526020600020018190555082600160028110612194576121936144a1565b5b6020020151600e876040516121a99190613e10565b90815260200160405180910390206001815481106121ca576121c96144a1565b5b906000526020600020018263ffffffff16815481106121ec576121eb6144a1565b5b90600052602060002001819055508080612205906143e7565b915050611836565b505b50505050505050505050505050565b6060600f826040516122309190613e10565b9081526020016040518091039020805480602002602001604051908101604052809291908181526020016000905b828210156122d0578382906000526020600020018054806020026020016040519081016040528092919081815260200182805480156122bc57602002820191906000526020600020905b8154815260200190600101908083116122a8575b50505050508152602001906001019061225e565b505050509050919050565b6060600d826040516122ed9190613e10565b9081526020016040518091039020805480602002602001604051908101604052809291908181526020016000905b8282101561238d5783829060005260206000200180548060200260200160405190810160405280929190818152602001828054801561237957602002820191906000526020600020905b815481526020019060010190808311612365575b50505050508152602001906001019061231b565b505050509050919050565b6123a06130c4565b6000807f800000000000000000000000000000000000000000000000000000000000000084161415905060007f7fffffffffffffffffffffffffffffffffffffffffffffffffffffffffffffff8416905060007f30644e72e131a029b85045b68181585d2833e84879b9709143e1f593f00000018061242257612421614443565b5b828309905060007f30644e72e131a029b85045b68181585d2833e84879b9709143e1f593f00000018061245857612457614443565b5b6124a161249c620292fc7f30644e72e131a029b85045b68181585d2833e84879b9709143e1f593f00000018061249157612490614443565b5b86620292f8096129dd565b612a44565b6124ac6001856129dd565b09905060006124ba82612a77565b905060007f183227397098d014dc2822db40c0ac2e9419f4243cdcb848a1f0fac9f8000000821190508580156124ee575080155b806125005750851580156124ff5750805b5b1561253457817f30644e72e131a029b85045b68181585d2833e84879b9709143e1f593f0000001612531919061427d565b91505b6040518060400160405280838152602001868152509650505050505050919050565b61255e6130c4565b60007f30644e72e131a029b85045b68181585d2833e84879b9709143e1f593f00000018061258f5761258e614443565b5b836000600281106125a3576125a26144a1565b5b6020020151856000600281106125bc576125bb6144a1565b5b602002015109905060007f30644e72e131a029b85045b68181585d2833e84879b9709143e1f593f0000001806125f5576125f4614443565b5b84600160028110612609576126086144a1565b5b602002015186600160028110612622576126216144a1565b5b602002015109905060007f30644e72e131a029b85045b68181585d2833e84879b9709143e1f593f00000018061265b5761265a614443565b5b7f30644e72e131a029b85045b68181585d2833e84879b9709143e1f593f00000018061268a57612689614443565b5b838509620292f809905060007f30644e72e131a029b85045b68181585d2833e84879b9709143e1f593f0000001806126c5576126c4614443565b5b7f30644e72e131a029b85045b68181585d2833e84879b9709143e1f593f0000001806126f4576126f3614443565b5b87600060028110612708576127076144a1565b5b602002015189600160028110612721576127206144a1565b5b6020020151097f30644e72e131a029b85045b68181585d2833e84879b9709143e1f593f00000018061275657612755614443565b5b8860016002811061276a576127696144a1565b5b60200201518a600060028110612783576127826144a1565b5b60200201510908905060006127cc847f30644e72e131a029b85045b68181585d2833e84879b9709143e1f593f0000001806127c1576127c0614443565b5b87620292fc096129dd565b905060405180604001604052807f30644e72e131a029b85045b68181585d2833e84879b9709143e1f593f00000018061280857612807614443565b5b6128437f30644e72e131a029b85045b68181585d2833e84879b9709143e1f593f00000018061283a57612839614443565b5b87600108612a44565b850981526020017f30644e72e131a029b85045b68181585d2833e84879b9709143e1f593f00000018061287957612878614443565b5b61288c6128876001886129dd565b612a44565b84098152509550505050505092915050565b6128a66131cc565b816000600281106128ba576128b96144a1565b5b6020020151816000600481106128d3576128d26144a1565b5b602002018181525050816001600281106128f0576128ef6144a1565b5b602002015181600160048110612909576129086144a1565b5b6020020181815250507f30644e72e131a029b85045b68181585d2833e84879b9709143e1f593f00000018061294157612940614443565b5b82600160028110612955576129546144a1565b5b60200201518360006002811061296e5761296d6144a1565b5b60200201510981600260048110612988576129876144a1565b5b6020020181815250506001816003600481106129a7576129a66144a1565b5b602002018181525050919050565b6129bd6130c4565b60006129c98484612c95565b90506129d481612da4565b91505092915050565b60007f30644e72e131a029b85045b68181585d2833e84879b9709143e1f593f000000180612a0e57612a0d614443565b5b827f30644e72e131a029b85045b68181585d2833e84879b9709143e1f593f0000001612a3a919061427d565b8408905092915050565b6000612a70827f30644e72e131a029b85045b68181585d2833e84879b9709143e1f593efffffff612ea5565b9050919050565b6000612aa0827c0183227397098d014dc2822db40c0ac2e9419f4243cdcb848a1f0faca0612ea5565b90506000612acb837c030644e72e131a029b85045b68181585d2833e84879b9709143e1f593f612ea5565b905060007f2a3c09f0a58a7e8500e0a7eb8ef62abc402d111e41112ed49bd61b6e725b19f09050600080601c905060005b600115612c8a57600090508492505b60018314612b5a577f30644e72e131a029b85045b68181585d2833e84879b9709143e1f593f000000180612b4257612b41614443565b5b83840992508080612b52906143bc565b915050612b0b565b60008161ffff161415612b71575050505050612c90565b83925060005b60018284612b859190614249565b612b8f9190614249565b61ffff168161ffff161015612be5577f30644e72e131a029b85045b68181585d2833e84879b9709143e1f593f000000180612bcd57612bcc614443565b5b84850993508080612bdd906143bc565b915050612b77565b507f30644e72e131a029b85045b68181585d2833e84879b9709143e1f593f000000180612c1557612c14614443565b5b83840993507f30644e72e131a029b85045b68181585d2833e84879b9709143e1f593f000000180612c4957612c48614443565b5b86840995507f30644e72e131a029b85045b68181585d2833e84879b9709143e1f593f000000180612c7d57612c7c614443565b5b8486099450809150612afc565b50505050505b919050565b612c9d6131cc565b7f30644e72e131a029b85045b68181585d2833e84879b9709143e1f593f0000001620292fc620292f88285518751098360208701516020890151098460408801518660408b015186090985606089015160608b015109868760208b01518b51088860208d01518d51080960018501811015612d185787810190505b8785820306905060018401811015612d305787810190505b878482030690508160018401811015612d495788810190505b888482030690508884840889878a098660018201811015612d6a578b810190505b8b8282030690508b8486098d528b81840960208e01528b81860960408e01528b83850960608e015250505050505050505050505092915050565b612dac6130c4565b6000612dcf83600360048110612dc557612dc46144a1565b5b6020020151612a44565b90507f30644e72e131a029b85045b68181585d2833e84879b9709143e1f593f000000180612e0057612dff614443565b5b8184600060048110612e1557612e146144a1565b5b60200201510982600060028110612e2f57612e2e6144a1565b5b6020020181815250507f30644e72e131a029b85045b68181585d2833e84879b9709143e1f593f000000180612e6757612e66614443565b5b8184600160048110612e7c57612e7b6144a1565b5b60200201510982600160028110612e9657612e956144a1565b5b60200201818152505050919050565b60007f30644e72e131a029b85045b68181585d2833e84879b9709143e1f593f000000160405160208152602080820152602060408201528460608201528360808201528160a082015260208160c08360055afa8060008114612f0a5782519450612f0f565b600080fd5b5050505092915050565b8260028101928215612f48579160200282015b82811115612f47578251825591602001919060010190612f2c565b5b509050612f5591906131ee565b5090565b6040518060600160405280612f6c61320b565b8152602001612f79613225565b8152602001612f8661320b565b81525090565b604051806104200160405280602190602082028036833780820191505090505090565b828054828255906000526020600020908101928215612ffe579160200282015b82811115612ffd578251829080519060200190612fed92919061324b565b5091602001919060010190612fcf565b5b50905061300b9190613298565b5090565b82805482825590600052602060002090810192821561305d5760005260206000209182015b8281111561305c57828290805461304c9291906132bc565b5091600101919060010190613034565b5b50905061306a9190613298565b5090565b604051806103000160405280601890602082028036833780820191505090505090565b60405180606001604052806130a461320b565b81526020016130b1613225565b81526020016130be61320b565b81525090565b6040518060400160405280600290602082028036833780820191505090505090565b8280546130f290614359565b90600052602060002090601f016020900481019282613114576000855561315b565b82601f1061312d57805160ff191683800117855561315b565b8280016001018555821561315b579182015b8281111561315a57825182559160200191906001019061313f565b5b50905061316891906131ee565b5090565b8280548282559060005260206000209081019282156131bb579160200282015b828111156131ba5782518290805190602001906131aa92919061324b565b509160200191906001019061318c565b5b5090506131c89190613298565b5090565b6040518060800160405280600490602082028036833780820191505090505090565b5b808211156132075760008160009055506001016131ef565b5090565b604051806040016040528060008152602001600081525090565b60405180604001604052806132386130c4565b81526020016132456130c4565b81525090565b828054828255906000526020600020908101928215613287579160200282015b8281111561328657825182559160200191906001019061326b565b5b50905061329491906131ee565b5090565b5b808211156132b857600081816132af919061330e565b50600101613299565b5090565b8280548282559060005260206000209081019282156132fd5760005260206000209182015b828111156132fc5782548255916001019190600101906132e1565b5b50905061330a91906131ee565b5090565b508054600082559060005260206000209081019061332c91906131ee565b50565b600061334261333d84613f71565b613f4c565b9050808285604086028201111561335c5761335b614504565b5b60005b8581101561338c578161337288826135ab565b84526020840193506040830192505060018101905061335f565b5050509392505050565b60006133a96133a484613f97565b613f4c565b905080838252602082019050828560208602820111156133cc576133cb614504565b5b60005b8581101561341a57813567ffffffffffffffff8111156133f2576133f16144ff565b5b8086016133ff89826135d6565b855260208501945060208401935050506001810190506133cf565b5050509392505050565b600061343761343284613fc3565b613f4c565b9050808285602086028201111561345157613450614504565b5b60005b8581101561348157816134678882613647565b845260208401935060208301925050600181019050613454565b5050509392505050565b600061349e61349984613fe9565b613f4c565b905080838252602082019050828560208602820111156134c1576134c0614504565b5b60005b858110156134f157816134d78882613647565b8452602084019350602083019250506001810190506134c4565b5050509392505050565b600061350e61350984614015565b613f4c565b90508281526020810184848401111561352a57613529614509565b5b613535848285614317565b509392505050565b60008135905061354c816145ca565b92915050565b600082601f830112613567576135666144ff565b5b600261357484828561332f565b91505092915050565b600082601f830112613592576135916144ff565b5b81356135a2848260208601613396565b91505092915050565b600082601f8301126135c0576135bf6144ff565b5b60026135cd848285613424565b91505092915050565b600082601f8301126135eb576135ea6144ff565b5b81356135fb84826020860161348b565b91505092915050565b600081519050613613816145e1565b92915050565b600082601f83011261362e5761362d6144ff565b5b813561363e8482602086016134fb565b91505092915050565b600081359050613656816145f8565b92915050565b60006020828403121561367257613671614513565b5b60006136808482850161353d565b91505092915050565b60008060008060008060008060006101e08a8c0312156136ac576136ab614513565b5b60006136ba8c828d016135ab565b99505060406136cb8c828d01613552565b98505060c06136dc8c828d016135ab565b9750506101008a013567ffffffffffffffff8111156136fe576136fd61450e565b5b61370a8c828d016135d6565b9650506101208a013567ffffffffffffffff81111561372c5761372b61450e565b5b6137388c828d016135d6565b9550506101408a013567ffffffffffffffff81111561375a5761375961450e565b5b6137668c828d016135d6565b9450506101608a013567ffffffffffffffff8111156137885761378761450e565b5b6137948c828d016135d6565b9350506101806137a68c828d016135ab565b9250506101c08a013567ffffffffffffffff8111156137c8576137c761450e565b5b6137d48c828d01613619565b9150509295985092959850929598565b60008060008060008060008060006101c08a8c03121561380757613806614513565b5b60006138158c828d016135ab565b99505060406138268c828d01613552565b98505060c06138378c828d016135ab565b9750506101006138498c828d01613647565b9650506101208a013567ffffffffffffffff81111561386b5761386a61450e565b5b6138778c828d0161357d565b9550506101408a013567ffffffffffffffff8111156138995761389861450e565b5b6138a58c828d0161357d565b9450506101608a013567ffffffffffffffff8111156138c7576138c661450e565b5b6138d38c828d0161357d565b9350506101808a013567ffffffffffffffff8111156138f5576138f461450e565b5b6139018c828d0161357d565b9250506101a08a013567ffffffffffffffff8111156139235761392261450e565b5b61392f8c828d01613619565b9150509295985092959850929598565b60006020828403121561395557613954614513565b5b600061396384828501613604565b91505092915050565b60006020828403121561398257613981614513565b5b600082013567ffffffffffffffff8111156139a05761399f61450e565b5b6139ac84828501613619565b91505092915050565b6000602082840312156139cb576139ca614513565b5b60006139d984828501613647565b91505092915050565b60006139ee8383613b88565b905092915050565b6000613a028383613de3565b60208301905092915050565b6000613a1982614099565b613a23818561411c565b935083602082028501613a3585614046565b8060005b85811015613a715784840389528151613a5285826139e2565b9450613a5d836140db565b925060208a01995050600181019050613a39565b50829750879550505050505092915050565b613a8c816140a4565b613a96818461412d565b9250613aa182614056565b8060005b83811015613ad2578151613ab987826139f6565b9650613ac4836140e8565b925050600181019050613aa5565b505050505050565b613ae3816140af565b613aed8184614138565b9250613af882614060565b8060005b83811015613b29578151613b1087826139f6565b9650613b1b836140f5565b925050600181019050613afc565b505050505050565b613b3a816140ba565b613b448184614143565b9250613b4f8261406a565b8060005b83811015613b80578151613b6787826139f6565b9650613b7283614102565b925050600181019050613b53565b505050505050565b6000613b93826140c5565b613b9d818561414e565b9350613ba883614074565b8060005b83811015613bd9578151613bc088826139f6565b9750613bcb8361410f565b925050600181019050613bac565b5085935050505092915050565b6000613bf1826140d0565b613bfb8185614170565b9350613c0b818560208601614326565b80840191505092915050565b60008154613c2481614359565b613c2e8186614170565b94506001821660008114613c495760018114613c5a57613c8d565b60ff19831686528186019350613c8d565b613c6385614084565b60005b83811015613c8557815481890152600182019150602081019050613c66565b838801955050505b50505092915050565b6000613ca3602a8361415f565b9150613cae82614529565b604082019050919050565b6000613cc6601e8361415f565b9150613cd182614578565b602082019050919050565b6000613ce960168361415f565b9150613cf4826145a1565b602082019050919050565b604082016000820151613d156000850182613de3565b506020820151613d286020850182613de3565b50505050565b608082016000820151613d446000850182613ada565b506020820151613d576040850182613ada565b50505050565b61010082016000820151613d746000850182613cff565b506020820151613d876040850182613d2e565b506040820151613d9a60c0850182613cff565b50505050565b61010082016000820151613db76000850182613cff565b506020820151613dca6040850182613d2e565b506040820151613ddd60c0850182613cff565b50505050565b613dec816142fd565b82525050565b613dfb816142fd565b82525050565b613e0a81614307565b82525050565b6000613e1c8284613be6565b915081905092915050565b6000613e338284613c17565b915081905092915050565b60006020820190508181036000830152613e588184613a0e565b905092915050565b60006020820190508181036000830152613e7981613c96565b9050919050565b60006020820190508181036000830152613e9981613cb9565b9050919050565b60006020820190508181036000830152613eb981613cdc565b9050919050565b600061040082019050613ed66000830185613d5d565b613ee4610100830184613a83565b9392505050565b600061052082019050613f016000830185613da0565b613f0f610100830184613b31565b9392505050565b6000602082019050613f2b6000830184613df2565b92915050565b6000602082019050613f466000830184613e01565b92915050565b6000613f56613f67565b9050613f62828261438b565b919050565b6000604051905090565b600067ffffffffffffffff821115613f8c57613f8b6144d0565b5b602082029050919050565b600067ffffffffffffffff821115613fb257613fb16144d0565b5b602082029050602081019050919050565b600067ffffffffffffffff821115613fde57613fdd6144d0565b5b602082029050919050565b600067ffffffffffffffff821115614004576140036144d0565b5b602082029050602081019050919050565b600067ffffffffffffffff8211156140305761402f6144d0565b5b61403982614518565b9050602081019050919050565b6000819050602082019050919050565b6000819050919050565b6000819050919050565b6000819050919050565b6000819050602082019050919050565b60008190508160005260206000209050919050565b600081519050919050565b600060189050919050565b600060029050919050565b600060219050919050565b600081519050919050565b600081519050919050565b6000602082019050919050565b6000602082019050919050565b6000602082019050919050565b6000602082019050919050565b6000602082019050919050565b600082825260208201905092915050565b600081905092915050565b600081905092915050565b600081905092915050565b600082825260208201905092915050565b600082825260208201905092915050565b600081905092915050565b6000614186826142fd565b9150614191836142fd565b9250827fffffffffffffffffffffffffffffffffffffffffffffffffffffffffffffffff038211156141c6576141c5614414565b5b828201905092915050565b60006141dc82614307565b91506141e783614307565b92508263ffffffff03821115614200576141ff614414565b5b828201905092915050565b600061421682614307565b915061422183614307565b92508163ffffffff048311821515161561423e5761423d614414565b5b828202905092915050565b6000614254826142cf565b915061425f836142cf565b92508282101561427257614271614414565b5b828203905092915050565b6000614288826142fd565b9150614293836142fd565b9250828210156142a6576142a5614414565b5b828203905092915050565b60006142bc826142dd565b9050919050565b60008115159050919050565b600061ffff82169050919050565b600073ffffffffffffffffffffffffffffffffffffffff82169050919050565b6000819050919050565b600063ffffffff82169050919050565b82818337600083830152505050565b60005b83811015614344578082015181840152602081019050614329565b83811115614353576000848401525b50505050565b6000600282049050600182168061437157607f821691505b6020821081141561438557614384614472565b5b50919050565b61439482614518565b810181811067ffffffffffffffff821117156143b3576143b26144d0565b5b80604052505050565b60006143c7826142cf565b915061ffff8214156143dc576143db614414565b5b600182019050919050565b60006143f282614307565b915063ffffffff82141561440957614408614414565b5b600182019050919050565b7f4e487b7100000000000000000000000000000000000000000000000000000000600052601160045260246000fd5b7f4e487b7100000000000000000000000000000000000000000000000000000000600052601260045260246000fd5b7f4e487b7100000000000000000000000000000000000000000000000000000000600052602260045260246000fd5b7f4e487b7100000000000000000000000000000000000000000000000000000000600052603260045260246000fd5b7f4e487b7100000000000000000000000000000000000000000000000000000000600052604160045260246000fd5b600080fd5b600080fd5b600080fd5b600080fd5b600080fd5b6000601f19601f8301169050919050565b7f4f6e6c7920746865206d6f64657261746f722063616e2063616c6c207468697360008201527f2066756e6374696f6e2100000000000000000000000000000000000000000000602082015250565b7f4d6f64656c20757064617465206d757374206265207665726966696564210000600082015250565b7f50726f6f66206d75737420626520766572696669656400000000000000000000600082015250565b6145d3816142b1565b81146145de57600080fd5b50565b6145ea816142c3565b81146145f557600080fd5b50565b614601816142fd565b811461460c57600080fd5b5056fea264697066735822122024391190960f277ea3303f0c9904c9e4a4a7cf2e0b567b7339f3e28a3b375a1964736f6c63430008060033608060405234801561001057600080fd5b50611fcb806100206000396000f3fe608060405234801561001057600080fd5b506004361061002b5760003560e01c806388e3f31714610030575b600080fd5b61004a60048036038101906100459190611c1b565b610060565b6040516100579190611c6c565b60405180910390f35b600080601867ffffffffffffffff81111561007e5761007d611f2a565b5b6040519080825280602002602001820160405280156100ac5781602001602082028036833780820191505090505b50905060005b6018811015610105578381601881106100ce576100cd611efb565b5b60200201518282815181106100e6576100e5611efb565b5b60200260200101818152505080806100fd90611e23565b9150506100b2565b506000610112828661012e565b1415610122576001915050610128565b60009150505b92915050565b6000807f30644e72e131a029b85045b68181585d2833e84879b9709143e1f593f00000019050600061015e6102c5565b9050806080015151600186516101749190611cf8565b1461017e57600080fd5b60006040518060400160405280600081526020016000815250905060005b865181101561023757838782815181106101b9576101b8611efb565b5b6020026020010151106101cb57600080fd5b6102228261021d85608001516001856101e49190611cf8565b815181106101f5576101f4611efb565b5b60200260200101518a85815181106102105761020f611efb565b5b602002602001015161118d565b611234565b9150808061022f90611e23565b91505061019c565b5061026181836080015160008151811061025457610253611efb565b5b6020026020010151611234565b90506102a78560000151866020015161027984611301565b856040015161028b8a60400151611301565b876060015161029d8960000151611301565b89602001516113a6565b6102b757600193505050506102bf565b600093505050505b92915050565b6102cd6118ce565b60405180604001604052807f1635d15567816b533b8489291dfa7369eea8bfd26b1a5661d43b8fba8534ef9381526020017f2f8d32ec4a8df92a5c58ae9a986b971ecc205fe221c30c1f270290a70a9102c88152508160000181905250604051806040016040528060405180604001604052807f1805caa951180dec37d759597459c1bffb3a7ecdd50510f34d8da841fce78b0e81526020017f03d678fb93c8c15c209dc39869ded6fa699436fb5dc53a18d4ed5cc82ea056db815250815260200160405180604001604052807f18bea2f33b985e0a57141e38f3a822f2aa8014ae1108304ea2832bf8036ac0fa81526020017f05b60fa4fa9ac543642a610b35de6731cdca3dfa3bf02890116e83553bcbd6538152508152508160200181905250604051806040016040528060405180604001604052807f1dd5f5a44a5bad3bc6a081a9b003e0a5d4d4da40f5385c442f12fba3be9c223581526020017f2feb231fd70bab785cdcf0d021f9d9e5aa536d9e34a552fe1eaba06955acb7d2815250815260200160405180604001604052807f199bf111819b97e857003a450206835758256ef87bcad43740926cdacd01d88f81526020017f0ef180b448760065b8171fe9e98fdecf28baaec92ef4a9f4c842d11481387be88152508152508160400181905250604051806040016040528060405180604001604052807f1865833bb8d626ec55310f1f2afa37bdd778efe48c28f2045efda757672f11ba81526020017e0939d7a1d5d9126cd182e681747529bdb15c0a9fc864e13a4e9862fb2fb784815250815260200160405180604001604052807f178a3cb3c4b7177652321283be8c4f2abf6d1bde78a09af571768514bccb795d81526020017f13a75eb6f0dca762a71bf75b915aee9c3edc9f0842e2c4de8a6c7337ab389d6f8152508152508160600181905250601967ffffffffffffffff81111561059357610592611f2a565b5b6040519080825280602002602001820160405280156105cc57816020015b6105b9611915565b8152602001906001900390816105b15790505b50816080018190525060405180604001604052807f095aa9708537e0acdb3acb11e553515ad1f65f0001bf4bab66dac26f2453ea8381526020017f1ab0e84d6b24f34f7efc79de9ddd6d80f9380dd8c0aa28c32e2f9f3854ed97fe815250816080015160008151811061064257610641611efb565b5b602002602001018190525060405180604001604052807f1dd56957f3368111456308041cc4c36d2328e47592bac23bff4b928d8f4840f781526020017f2727117161ea311ad1dfb6cbbddbdb59bfc668da582c3024c53564463f231f1981525081608001516001815181106106ba576106b9611efb565b5b602002602001018190525060405180604001604052807f0bd92c03010973077324fe3f7b336e7e35e904f71001cb137d725f9032fcff7e81526020017f27e3d009cd396bad72572be54e443025e67968e4c4b6534bec71131d44dbf855815250816080015160028151811061073257610731611efb565b5b602002602001018190525060405180604001604052807f21be2f81d87e60ebfc7c3d4e5045be3150c19fac919bc96935dcf5fa71ec317d81526020017f0e2f428f967948026ee72a7c84f5ff2e192fd04f427b8249e4dd9f407ebebfda81525081608001516003815181106107aa576107a9611efb565b5b602002602001018190525060405180604001604052807f295ef3639515d0164396ff3cd09c05562a4f014ba4305fbcfce9994bfe9e035381526020017f266a66fa705525272000825224ea26255b11488bf168a429b8c17a220bc30557815250816080015160048151811061082257610821611efb565b5b602002602001018190525060405180604001604052807e06293ba7a0b33ea3d746c05654be553ba0b4f2cfb66bbcd19b193b9751369d81526020017f14a074dd3543f4ccdd6537ca5c8eebfb217060ca4e5afeb0a7a09d9ecfc912ee815250816080015160058151811061089957610898611efb565b5b602002602001018190525060405180604001604052807f144ad0200273fa50774c9b9887163281953aa2ab259be53288879f063db3eb1881526020017f206308bead896eb31342813e8e9312c5f13dd471c0a5605de66f6f68bc0a4126815250816080015160068151811061091157610910611efb565b5b602002602001018190525060405180604001604052807f0866bcc288edb38d7dcf46657225cecbbbb116d7c348584d74b4bdd46a511cb681526020017f23d60738ef43938ecee267ce09786cf3d18be5c361918704585de32e15ca9e2d815250816080015160078151811061098957610988611efb565b5b602002602001018190525060405180604001604052807f0b2f3bd45b06b0f39cddb0365a8e2962ad9e266e7d718e62be89b4f71cef101281526020017f2271ba3aa61eb2c10d848935abe4de30dfd4290d8266d615921bc860a2a0adce8152508160800151600881518110610a0157610a00611efb565b5b602002602001018190525060405180604001604052807f23fb3311c76f76d0f26729dbca3df5e83ae561d2178e6d65497c816fc502e66b81526020017f01f9762a3514bae45ea18ae195d96d06726e5b13ca98911675d65baa81f133788152508160800151600981518110610a7957610a78611efb565b5b602002602001018190525060405180604001604052807f277c7ac0ceb263bc9a3d014d38a6000aaa1c42315530db9e61fd39af8cbfd92b81526020017f03c17ecbb1f7f2526ab2b29928b9b88e46934df6f584efc5f6abba40250f97448152508160800151600a81518110610af157610af0611efb565b5b602002602001018190525060405180604001604052807f2c98470cb570e485c786af848696da00486aa0cf3420215c1b7d4abd5059286081526020017f1fdec81895854c21729f47cc08a2a6dd6a791a99002da4139aefb53cca209d8f8152508160800151600b81518110610b6957610b68611efb565b5b602002602001018190525060405180604001604052807f25a81739a99c738161a6210eedab854a741cc0495f7ec2c677367ce3d3e868a881526020017f0d930f83e7260ab863230504290cc7d5fc0d8a1f07b7df347112d72bbe9437a88152508160800151600c81518110610be157610be0611efb565b5b602002602001018190525060405180604001604052807f07386e63ab5c69a165a8b0eb0b24988e88a1dad8191b324a458e053ad90452b381526020017f25460f55db0d23ac0c824f23c61dfb42cbd4d9f4a3cbf0f912cc9434afc001238152508160800151600d81518110610c5957610c58611efb565b5b602002602001018190525060405180604001604052807f274482c081cdcfea7f907eeb48a54589ef7a3c2f1f5d6b14b2079fc42019851d81526020017f2d3269eb78a6c30707d86790bc9118c6d73e8665c6426aae55118d4bdf1d51418152508160800151600e81518110610cd157610cd0611efb565b5b602002602001018190525060405180604001604052807f2a902536485f315f958e1f58428595d9547e508a44fe4eae4d88490f7b6f493581526020017f2467c22389a6f730256f13ef9c36fefaffd5f62e59883253ba7e454f203bb1ba8152508160800151600f81518110610d4957610d48611efb565b5b602002602001018190525060405180604001604052807f14629ff0a8b89bd71c2f6a563bf7c970ddae1b321a9c7a166244c04530d6b3aa81526020017f12c6f2e374e57df351930c8af85080f88aaf982fae8462f566ff130fef03fb4b8152508160800151601081518110610dc157610dc0611efb565b5b602002602001018190525060405180604001604052807f26fb68fabedee09dd650447c8ed9a1facd2ca6c64d7ce4739f9ad24e3681a95081526020017f1451295dc567532a2faaef99fea2d36cd0783ee3bab10ef347b04144c56aa1d68152508160800151601181518110610e3957610e38611efb565b5b602002602001018190525060405180604001604052807f170ef8b963ad4003ae5fab8f63a3498019996cb7e95abfc8bd02e146535acc0081526020017ec1aed28ba067b3d985de0738be5d6062ac05e671c096dd545b49509521ec168152508160800151601281518110610eb057610eaf611efb565b5b602002602001018190525060405180604001604052807f195f188845ace50740d4e5d790923101f03de4c87b72f2ef9c13ec43caea1c4281526020017f1be80b0a4b27caa95e1f4e05f1eed590581df670510951c7d53c740a78aea7118152508160800151601381518110610f2857610f27611efb565b5b602002602001018190525060405180604001604052807f1dfaef7d1d60d28f24b48fdcf3e2002e60bd6a912a814cca9a0f50716fd763a481526020017f2710d6b35bc5a842e5e0a66328fb88d23dd81f1d857223b86e57a1d4028ac2248152508160800151601481518110610fa057610f9f611efb565b5b602002602001018190525060405180604001604052807f29cb27efcca93c2ac44427cc8a10b06dc8edf7c9d5d093a81111d303a3077d5a81526020017f20b0649741427f3c0888a7790b93f647fe16cb356d05e7e1b32c7a8191ea7166815250816080015160158151811061101857611017611efb565b5b602002602001018190525060405180604001604052807f031c3edb5bebce3517bd14a98d56a194bbe4e61efd4b25316a2bb768488fecb681526020017e9cf640cc8ec2e09513ee64fe8602a365e040d2adc40be06d3130f63d00dc67815250816080015160168151811061108f5761108e611efb565b5b602002602001018190525060405180604001604052807f0fc00f16735e56e0e1eeee6aa1ac226a8e88f89f7f7139f5291693e13da95cac81526020017f2499b80bd4f366c83f2b4da3e013700a00d1ca70649256b5d65f39ad4c4c5db4815250816080015160178151811061110757611106611efb565b5b602002602001018190525060405180604001604052807f1edf8272bddacdea24c9ed9829c4ece615c87bde3e8a387faaa3f559f036fb8e81526020017f21601e76e5f68d65ead089c6a6ecc2605416263352d2ea5fb9ef15ba239b02be815250816080015160188151811061117f5761117e611efb565b5b602002602001018190525090565b611195611915565b61119d61192f565b8360000151816000600381106111b6576111b5611efb565b5b6020020181815250508360200151816001600381106111d8576111d7611efb565b5b60200201818152505082816002600381106111f6576111f5611efb565b5b602002018181525050600060608360808460076107d05a03fa9050806000811461121f57611221565bfe5b508061122c57600080fd5b505092915050565b61123c611915565b611244611951565b83600001518160006004811061125d5761125c611efb565b5b60200201818152505083602001518160016004811061127f5761127e611efb565b5b6020020181815250508260000151816002600481106112a1576112a0611efb565b5b6020020181815250508260200151816003600481106112c3576112c2611efb565b5b602002018181525050600060608360c08460066107d05a03fa905080600081146112ec576112ee565bfe5b50806112f957600080fd5b505092915050565b611309611915565b60007f30644e72e131a029b85045b68181585d97816a916871ca8d3c208c16d87cfd47905060008360000151148015611346575060008360200151145b1561136a5760405180604001604052806000815260200160008152509150506113a1565b60405180604001604052808460000151815260200182856020015161138f9190611e6c565b8361139a9190611da8565b8152509150505b919050565b600080600467ffffffffffffffff8111156113c4576113c3611f2a565b5b6040519080825280602002602001820160405280156113fd57816020015b6113ea611915565b8152602001906001900390816113e25790505b5090506000600467ffffffffffffffff81111561141d5761141c611f2a565b5b60405190808252806020026020018201604052801561145657816020015b611443611973565b81526020019060019003908161143b5790505b5090508a8260008151811061146e5761146d611efb565b5b6020026020010181905250888260018151811061148e5761148d611efb565b5b602002602001018190525086826002815181106114ae576114ad611efb565b5b602002602001018190525084826003815181106114ce576114cd611efb565b5b602002602001018190525089816000815181106114ee576114ed611efb565b5b6020026020010181905250878160018151811061150e5761150d611efb565b5b6020026020010181905250858160028151811061152e5761152d611efb565b5b6020026020010181905250838160038151811061154e5761154d611efb565b5b60200260200101819052506115638282611573565b9250505098975050505050505050565b6000815183511461158357600080fd5b60008351905060006006826115989190611d4e565b905060008167ffffffffffffffff8111156115b6576115b5611f2a565b5b6040519080825280602002602001820160405280156115e45781602001602082028036833780820191505090505b50905060005b838110156118695786818151811061160557611604611efb565b5b6020026020010151600001518260006006846116219190611d4e565b61162b9190611cf8565b8151811061163c5761163b611efb565b5b60200260200101818152505086818151811061165b5761165a611efb565b5b6020026020010151602001518260016006846116779190611d4e565b6116819190611cf8565b8151811061169257611691611efb565b5b6020026020010181815250508581815181106116b1576116b0611efb565b5b6020026020010151600001516001600281106116d0576116cf611efb565b5b60200201518260026006846116e59190611d4e565b6116ef9190611cf8565b81518110611700576116ff611efb565b5b60200260200101818152505085818151811061171f5761171e611efb565b5b60200260200101516000015160006002811061173e5761173d611efb565b5b60200201518260036006846117539190611d4e565b61175d9190611cf8565b8151811061176e5761176d611efb565b5b60200260200101818152505085818151811061178d5761178c611efb565b5b6020026020010151602001516001600281106117ac576117ab611efb565b5b60200201518260046006846117c19190611d4e565b6117cb9190611cf8565b815181106117dc576117db611efb565b5b6020026020010181815250508581815181106117fb576117fa611efb565b5b60200260200101516020015160006002811061181a57611819611efb565b5b602002015182600560068461182f9190611d4e565b6118399190611cf8565b8151811061184a57611849611efb565b5b602002602001018181525050808061186190611e23565b9150506115ea565b50611872611999565b6000602082602086026020860160086107d05a03fa9050806000811461189757611899565bfe5b50806118a457600080fd5b6000826000600181106118ba576118b9611efb565b5b602002015114159550505050505092915050565b6040518060a001604052806118e1611915565b81526020016118ee611973565b81526020016118fb611973565b8152602001611908611973565b8152602001606081525090565b604051806040016040528060008152602001600081525090565b6040518060600160405280600390602082028036833780820191505090505090565b6040518060800160405280600490602082028036833780820191505090505090565b60405180604001604052806119866119bb565b81526020016119936119bb565b81525090565b6040518060200160405280600190602082028036833780820191505090505090565b6040518060400160405280600290602082028036833780820191505090505090565b60006119f06119eb84611cac565b611c87565b90508082856020860282011115611a0a57611a09611f63565b5b60005b85811015611a3a5781611a208882611c06565b845260208401935060208301925050600181019050611a0d565b5050509392505050565b6000611a57611a5284611cd2565b611c87565b90508082856020860282011115611a7157611a70611f63565b5b60005b85811015611aa15781611a878882611c06565b845260208401935060208301925050600181019050611a74565b5050509392505050565b600082601f830112611ac057611abf611f59565b5b6018611acd8482856119dd565b91505092915050565b600082601f830112611aeb57611aea611f59565b5b6002611af8848285611a44565b91505092915050565b600060408284031215611b1757611b16611f5e565b5b611b216040611c87565b90506000611b3184828501611c06565b6000830152506020611b4584828501611c06565b60208301525092915050565b600060808284031215611b6757611b66611f5e565b5b611b716040611c87565b90506000611b8184828501611ad6565b6000830152506040611b9584828501611ad6565b60208301525092915050565b60006101008284031215611bb857611bb7611f5e565b5b611bc26060611c87565b90506000611bd284828501611b01565b6000830152506040611be684828501611b51565b60208301525060c0611bfa84828501611b01565b60408301525092915050565b600081359050611c1581611f7e565b92915050565b6000806104008385031215611c3357611c32611f68565b5b6000611c4185828601611ba1565b925050610100611c5385828601611aab565b9150509250929050565b611c6681611ddc565b82525050565b6000602082019050611c816000830184611c5d565b92915050565b6000611c91611ca2565b9050611c9d8282611df2565b919050565b6000604051905090565b600067ffffffffffffffff821115611cc757611cc6611f2a565b5b602082029050919050565b600067ffffffffffffffff821115611ced57611cec611f2a565b5b602082029050919050565b6000611d0382611de8565b9150611d0e83611de8565b9250827fffffffffffffffffffffffffffffffffffffffffffffffffffffffffffffffff03821115611d4357611d42611e9d565b5b828201905092915050565b6000611d5982611de8565b9150611d6483611de8565b9250817fffffffffffffffffffffffffffffffffffffffffffffffffffffffffffffffff0483118215151615611d9d57611d9c611e9d565b5b828202905092915050565b6000611db382611de8565b9150611dbe83611de8565b925082821015611dd157611dd0611e9d565b5b828203905092915050565b60008115159050919050565b6000819050919050565b611dfb82611f6d565b810181811067ffffffffffffffff82111715611e1a57611e19611f2a565b5b80604052505050565b6000611e2e82611de8565b91507fffffffffffffffffffffffffffffffffffffffffffffffffffffffffffffffff821415611e6157611e60611e9d565b5b600182019050919050565b6000611e7782611de8565b9150611e8283611de8565b925082611e9257611e91611ecc565b5b828206905092915050565b7f4e487b7100000000000000000000000000000000000000000000000000000000600052601160045260246000fd5b7f4e487b7100000000000000000000000000000000000000000000000000000000600052601260045260246000fd5b7f4e487b7100000000000000000000000000000000000000000000000000000000600052603260045260246000fd5b7f4e487b7100000000000000000000000000000000000000000000000000000000600052604160045260246000fd5b600080fd5b600080fd5b600080fd5b600080fd5b6000601f19601f8301169050919050565b611f8781611de8565b8114611f9257600080fd5b5056fea2646970667358221220dc79421eb697e0ee85b85f4b443d0db209d308724f05e4921b5ee872bbb2b43364736f6c63430008060033608060405234801561001057600080fd5b50612406806100206000396000f3fe608060405234801561001057600080fd5b506004361061002b5760003560e01c8063785b3bbb14610030575b600080fd5b61004a60048036038101906100459190612056565b610060565b60405161005791906120a7565b60405180910390f35b600080602167ffffffffffffffff81111561007e5761007d612365565b5b6040519080825280602002602001820160405280156100ac5781602001602082028036833780820191505090505b50905060005b6021811015610105578381602181106100ce576100cd612336565b5b60200201518282815181106100e6576100e5612336565b5b60200260200101818152505080806100fd9061225e565b9150506100b2565b506000610112828661012e565b1415610122576001915050610128565b60009150505b92915050565b6000807f30644e72e131a029b85045b68181585d2833e84879b9709143e1f593f00000019050600061015e6102c5565b9050806080015151600186516101749190612133565b1461017e57600080fd5b60006040518060400160405280600081526020016000815250905060005b865181101561023757838782815181106101b9576101b8612336565b5b6020026020010151106101cb57600080fd5b6102228261021d85608001516001856101e49190612133565b815181106101f5576101f4612336565b5b60200260200101518a85815181106102105761020f612336565b5b60200260200101516115c8565b61166f565b9150808061022f9061225e565b91505061019c565b5061026181836080015160008151811061025457610253612336565b5b602002602001015161166f565b90506102a7856000015186602001516102798461173c565b856040015161028b8a6040015161173c565b876060015161029d896000015161173c565b89602001516117e1565b6102b757600193505050506102bf565b600093505050505b92915050565b6102cd611d09565b60405180604001604052807f2a63d23b73c06cb185f8d617ed33ad8daf0db004855df5cc82b3692252ad2c6781526020017e73781c2b2844f8085a11f5f39adebdc629ec9abd6f211e3c8951231ae492608152508160000181905250604051806040016040528060405180604001604052807f1dd2eca2478eb684b7f42b5b8cc53eb24b98f40b42a20fa10f0e41045028230e81526020017f1915be54b6575eb81115c81e7b3cf5daa922865167ad1a6ba7d2637bd3e40783815250815260200160405180604001604052807f2135b30dd846e6408fd4ece3ee713fa287eba621dc3bcf421b85c996edc106d681526020017f0ba4e5b6b1a87cd644aee2c9e9d3d2e1c4fb8dd0d45d5ab60732a4bebd4e36908152508152508160200181905250604051806040016040528060405180604001604052807f27b28f604ff94891ea99a5deecdbd53eff7d2601ae7dfa4c95bf5a3565e0bb9981526020017f2b11b8ba434b191238c07cda3e96eb732aa5ccb9258bfd08497f75ac41489041815250815260200160405180604001604052807f02afe96e9def68cc5e167f2aaff8943aed7a1bb4b393ac094792a9215df50b2d81526020017f0a64e5e37ed6f982833722ec4ea8f2da6bfcc0a2ba9d51c566d8b0ad5221727f8152508152508160400181905250604051806040016040528060405180604001604052807f1d67cc90eb20d8ebe3e6c0b9edc307a1176b1f89dc846b84e067cac2e6ae375d81526020017f29b194f7451933b938157f0c3a495e57ba10a0042e6452ca8b09441441543689815250815260200160405180604001604052807f0dad938f2366792f6a4a17310b992076c0bf350c1a5c961721eb58e683ff580781526020017f1b00f1ffbff7a21a69ff52007686fc23f5fed44f6ef857f5fab2146f6d1b56b78152508152508160600181905250602267ffffffffffffffff81111561059357610592612365565b5b6040519080825280602002602001820160405280156105cc57816020015b6105b9611d50565b8152602001906001900390816105b15790505b50816080018190525060405180604001604052807f1050789e17da5095992ce0fa14c3d9606e3250302f435c870f27e80fc4016fe881526020017f2900a5c597acd2efcd676a8092beb851f28d9042eec9d34b467db0c43a83fa1b815250816080015160008151811061064257610641612336565b5b602002602001018190525060405180604001604052807f23b85222953afca2e33feff9d8b608c82c47259761229254f8666a46c9e36ccd81526020017f2915da4eabc247ce5dd5f2746e0d9f120343ca573c90a2a9b4f47cbe29db80d181525081608001516001815181106106ba576106b9612336565b5b602002602001018190525060405180604001604052807f087325d135f7165b54c79ec0200d14becb1f8641a473c9f8e3ecdf079399024181526020017f16eb1ff598f6c3a0576c99479046ec3d1efb9b248c7b78878e5543ca1433609b815250816080015160028151811061073257610731612336565b5b602002602001018190525060405180604001604052807f05cffb5652773375c6c5b324e2a18afce7079813bd53d75108a39962d6f67ecc81526020017f09d545d82f962db8f2752ee96832974a1b533a6f8f494c41f61782d80becefdc81525081608001516003815181106107aa576107a9612336565b5b602002602001018190525060405180604001604052807f2922a00cc8962a4e57b58cfe4e8bd1f1fefa8eb2b554d86e11847da205dd2f3381526020017f18bce3ed9ef21c85c49bae7ed20e5522a1312275c262b68dd854b84cf8a3f508815250816080015160048151811061082257610821612336565b5b602002602001018190525060405180604001604052807f264c152c47a0a94c583cc57bfe59f164ede5673d51b3eb8cf226bdd336ee354e81526020017f0e3511ba0b9aa6565c7faded32e2f2dbee74844c886c8a3bea8e8e87c2626835815250816080015160058151811061089a57610899612336565b5b602002602001018190525060405180604001604052807f153ecefd7044de6637e8485c6580109d54690e26303dbce2cf47eea1e9b531a081526020017f088a78674503f8d575fb5e83a85ea3eed0fa278b210d001116feea2caac274f1815250816080015160068151811061091257610911612336565b5b602002602001018190525060405180604001604052807f0f5d3f192f4af7a753ea3f799b560a5828ed21d10ea3b446186f11ec984c6d4c81526020017f2f053344241a55e0155098f93f518d3456cd6e8920cd04fd1002b3bb80dced9c815250816080015160078151811061098a57610989612336565b5b602002602001018190525060405180604001604052807f248b8ed7ab6976340153a956808103cd5b97cf5cf3b445a38c9e13de773f013381526020017f05f73a367ac56770a0ca8ed9268e8b11acaa2e39c3db6333c597bb21e9ac7d4c8152508160800151600881518110610a0257610a01612336565b5b602002602001018190525060405180604001604052807f100edea5a4595eb09b8cd5f4206354acc297bb203900ed4fe0a32046a73a508c81526020017f024c29ae50bd0c941dfba7fe9bcf2d97e593ec84195852f3beb689fd9873fd628152508160800151600981518110610a7a57610a79612336565b5b602002602001018190525060405180604001604052807f0c142a6ee4666975adf5ea2c787927fc281084ff88698ab17e2a74d34f73d5df81526020017f2283c79c85cac4359e7689a3094fb367f7a9b2ce1ffa1d9047af1159b220a5fb8152508160800151600a81518110610af257610af1612336565b5b602002602001018190525060405180604001604052807f05b8c3057af41a9331497bbc05a03925bf9d653127c53e50e9662fda45a73aa481526020017f0490dfcc2e3c792c2cedfed3245b203a349dc3311780547e87b476250b589a8e8152508160800151600b81518110610b6a57610b69612336565b5b602002602001018190525060405180604001604052807f2ede49217193cf92b82ed61b8abfb6ad1485481c2a21019aece206603d47427881526020017f28336d9709e72acd818153fc1225ec204d2b7a756b1a73760532727f36e25c508152508160800151600c81518110610be257610be1612336565b5b602002602001018190525060405180604001604052807f02dee14024f2c8d9a6cd34d82d74418d582434a75069430745fdaf238139cb4981526020017f0eb3512f56ae89d88fb72e4c7c3492c43f75dbfa56c1f037b8abc546e735c3bc8152508160800151600d81518110610c5a57610c59612336565b5b602002602001018190525060405180604001604052807f06165aa373ab626f5926f07e09587f4a2632ea7b5cf1edafd8a07e91d40fe2b381526020017f2a9baac92791e6e4a676dda2ab0990f6a7234e67c0fa11a0cd0c4e76be724a158152508160800151600e81518110610cd257610cd1612336565b5b602002602001018190525060405180604001604052807f097c1c400d1e82ad8bb62deaba0893f205c7bf815862bc12bdb00223ef5ab3eb81526020017f1f03bd81e810b991c095fcd822d54cd07ae45d01c32fc02b515331f685c3cceb8152508160800151600f81518110610d4a57610d49612336565b5b602002602001018190525060405180604001604052807f290d04fff212f268cc6544d8d60d452233ef7118519ac7e81879d8278a8039c581526020017f133d49b4ff993040bf66e0d7958b2cb4b6dae64065083f7fe606fe338d8814788152508160800151601081518110610dc257610dc1612336565b5b602002602001018190525060405180604001604052807f19d983664c236935647037c94fbdee36f5aeb9adcc5a4ce4fb40fbf212fb857581526020017f180d54c8a3d5ec0fa6e30a6108f14089be48828079fe10f6872b72c8c4c7faf88152508160800151601181518110610e3a57610e39612336565b5b602002602001018190525060405180604001604052807f1d8b2085f333c7dbc6e5d2bbd2bce114e6e5108aaac4059cc536e7ec5bf7ef7481526020017f1356c793e2e6794fa5e9a780893177bf39a38ac53eacc5adf526ed11944a77f38152508160800151601281518110610eb257610eb1612336565b5b602002602001018190525060405180604001604052807f2d403f8bf3d04339662098f3bd249b4d527aadffa48b91017cc2e612a5f9cbde81526020017f21ff7d19716f78004e0dee01def1b4280df7f1687b7ff689e27a1474e53b6e268152508160800151601381518110610f2a57610f29612336565b5b602002602001018190525060405180604001604052807f1a21a1c67fac300309783a5e6e901a23bca77967892099a11ab97c2af82cd15281526020017f06871456744cbc9d0ccee1e0eaf32910b827e7d5ea752fab4035696248fb9f7c8152508160800151601481518110610fa257610fa1612336565b5b602002602001018190525060405180604001604052807f18d6f0a06e2e51a63b1a1f6e3c1322cf6733ee7b71a97b1710902fe11009fa6281526020017f067223512f6a145c9b1b3e9477a86c3b919af782e82062304a25eba2198e5425815250816080015160158151811061101a57611019612336565b5b602002602001018190525060405180604001604052807f281e5a721a7b2089ded6f571bbfd626b43a7a89c13e43c31016a77c255fd9ceb81526020017f12ac41adc09f8b58e070d11427443579b1130dbabe7b917bf4233ca04be1e2cb815250816080015160168151811061109257611091612336565b5b602002602001018190525060405180604001604052807f09927a93362a656a1edf6eb9ab3e2d0aaad1739d963bc6006d29faddf2319c3081526020017f05f711159f8ec77cae2a7024b3a0c87c60a729b6e500e7a9062a4d7f1900ffda815250816080015160178151811061110a57611109612336565b5b602002602001018190525060405180604001604052807f0d3a3aa4939c54d4a2969b82d7fe887292abbbf97c8cacf11ef627af26f5524981526020017f015d52ea4de2aab02c1b368b39ce4a29e22be80ee5303d255336abc943075daf815250816080015160188151811061118257611181612336565b5b602002602001018190525060405180604001604052807f23720766db07869b28a9e56828fe077a44823cfcf38c7f2067c9cbe0bbf8a2e381526020017f1fa3617ceda16f3430c5eac9dc0a0804b76de5ddd13b18eb363f8b79970f248881525081608001516019815181106111fa576111f9612336565b5b602002602001018190525060405180604001604052807f0339fd49153de4b518c81f41c9d3b6e26f7fb5c04376809aa73cf136d0b31d6381526020017f057eda5fe20151b9c2968d88caadb95ae55fa08e4e08cea60af3daf50b2eaba08152508160800151601a8151811061127257611271612336565b5b602002602001018190525060405180604001604052807f2f21fa3bf197c3c5705992014d735584b103d2f1afc16e59909dd219e0dd265881526020017f10ef793ea0cf315ce09413fceb535e456c53226bbd1517ff56f6d156423054868152508160800151601b815181106112ea576112e9612336565b5b602002602001018190525060405180604001604052807f284e354e590341d41ab0dce79c54d0893264de6dfbf0bc55f5a8aa93334b3b7a81526020017f054881b94faf9c2922a2b2e03172ac3aa6be6330611c841cc7d7951a745c3cab8152508160800151601c8151811061136257611361612336565b5b602002602001018190525060405180604001604052807f227333b130805633fcf82b73ce18c252a331a1a276af73821e609a93d2cd6eea81526020017f066e1e65b26b67cd60dc737d00613d91e4d3467d463186c9eac4f92dcaeba9b38152508160800151601d815181106113da576113d9612336565b5b602002602001018190525060405180604001604052807f0f6de914601575b0ce472c583a73af6df2af9e6691f07f511030e97966d1174e81526020017f279a582c4af9ad3e426c5337b2c3d53641199c757528f41102d20235ecbca2f48152508160800151601e8151811061145257611451612336565b5b602002602001018190525060405180604001604052807f03df20cace11d046cc9ce0155659e0c2d7fbfd52f208def0858d26ab257438d981526020017f1b80cea26b93b76a613a181755c9290fd9bd421c3c30ab61500c8cc34b5cf5b98152508160800151601f815181106114ca576114c9612336565b5b602002602001018190525060405180604001604052807f1052f5eaf9664b45b32f7d026b2451d9eec6235d057a128ab61a156a0ec726ed81526020017f2edd3531e416acbf922e8a7f8c5f766aacdc8cd437caff568bf11c65c9360875815250816080015160208151811061154257611541612336565b5b602002602001018190525060405180604001604052807f1d7b1bbe68b78bb941bc429f4e26b99255ba58b20ddb9b5bc3412897d89a074081526020017f0a9cf1ac405aef37867b3d0e4efe733fae8afde0b9bc4be1fca31e5283a2deba81525081608001516021815181106115ba576115b9612336565b5b602002602001018190525090565b6115d0611d50565b6115d8611d6a565b8360000151816000600381106115f1576115f0612336565b5b60200201818152505083602001518160016003811061161357611612612336565b5b602002018181525050828160026003811061163157611630612336565b5b602002018181525050600060608360808460076107d05a03fa9050806000811461165a5761165c565bfe5b508061166757600080fd5b505092915050565b611677611d50565b61167f611d8c565b83600001518160006004811061169857611697612336565b5b6020020181815250508360200151816001600481106116ba576116b9612336565b5b6020020181815250508260000151816002600481106116dc576116db612336565b5b6020020181815250508260200151816003600481106116fe576116fd612336565b5b602002018181525050600060608360c08460066107d05a03fa9050806000811461172757611729565bfe5b508061173457600080fd5b505092915050565b611744611d50565b60007f30644e72e131a029b85045b68181585d97816a916871ca8d3c208c16d87cfd47905060008360000151148015611781575060008360200151145b156117a55760405180604001604052806000815260200160008152509150506117dc565b6040518060400160405280846000015181526020018285602001516117ca91906122a7565b836117d591906121e3565b8152509150505b919050565b600080600467ffffffffffffffff8111156117ff576117fe612365565b5b60405190808252806020026020018201604052801561183857816020015b611825611d50565b81526020019060019003908161181d5790505b5090506000600467ffffffffffffffff81111561185857611857612365565b5b60405190808252806020026020018201604052801561189157816020015b61187e611dae565b8152602001906001900390816118765790505b5090508a826000815181106118a9576118a8612336565b5b602002602001018190525088826001815181106118c9576118c8612336565b5b602002602001018190525086826002815181106118e9576118e8612336565b5b6020026020010181905250848260038151811061190957611908612336565b5b6020026020010181905250898160008151811061192957611928612336565b5b6020026020010181905250878160018151811061194957611948612336565b5b6020026020010181905250858160028151811061196957611968612336565b5b6020026020010181905250838160038151811061198957611988612336565b5b602002602001018190525061199e82826119ae565b9250505098975050505050505050565b600081518351146119be57600080fd5b60008351905060006006826119d39190612189565b905060008167ffffffffffffffff8111156119f1576119f0612365565b5b604051908082528060200260200182016040528015611a1f5781602001602082028036833780820191505090505b50905060005b83811015611ca457868181518110611a4057611a3f612336565b5b602002602001015160000151826000600684611a5c9190612189565b611a669190612133565b81518110611a7757611a76612336565b5b602002602001018181525050868181518110611a9657611a95612336565b5b602002602001015160200151826001600684611ab29190612189565b611abc9190612133565b81518110611acd57611acc612336565b5b602002602001018181525050858181518110611aec57611aeb612336565b5b602002602001015160000151600160028110611b0b57611b0a612336565b5b6020020151826002600684611b209190612189565b611b2a9190612133565b81518110611b3b57611b3a612336565b5b602002602001018181525050858181518110611b5a57611b59612336565b5b602002602001015160000151600060028110611b7957611b78612336565b5b6020020151826003600684611b8e9190612189565b611b989190612133565b81518110611ba957611ba8612336565b5b602002602001018181525050858181518110611bc857611bc7612336565b5b602002602001015160200151600160028110611be757611be6612336565b5b6020020151826004600684611bfc9190612189565b611c069190612133565b81518110611c1757611c16612336565b5b602002602001018181525050858181518110611c3657611c35612336565b5b602002602001015160200151600060028110611c5557611c54612336565b5b6020020151826005600684611c6a9190612189565b611c749190612133565b81518110611c8557611c84612336565b5b6020026020010181815250508080611c9c9061225e565b915050611a25565b50611cad611dd4565b6000602082602086026020860160086107d05a03fa90508060008114611cd257611cd4565bfe5b5080611cdf57600080fd5b600082600060018110611cf557611cf4612336565b5b602002015114159550505050505092915050565b6040518060a00160405280611d1c611d50565b8152602001611d29611dae565b8152602001611d36611dae565b8152602001611d43611dae565b8152602001606081525090565b604051806040016040528060008152602001600081525090565b6040518060600160405280600390602082028036833780820191505090505090565b6040518060800160405280600490602082028036833780820191505090505090565b6040518060400160405280611dc1611df6565b8152602001611dce611df6565b81525090565b6040518060200160405280600190602082028036833780820191505090505090565b6040518060400160405280600290602082028036833780820191505090505090565b6000611e2b611e26846120e7565b6120c2565b90508082856020860282011115611e4557611e4461239e565b5b60005b85811015611e755781611e5b8882612041565b845260208401935060208301925050600181019050611e48565b5050509392505050565b6000611e92611e8d8461210d565b6120c2565b90508082856020860282011115611eac57611eab61239e565b5b60005b85811015611edc5781611ec28882612041565b845260208401935060208301925050600181019050611eaf565b5050509392505050565b600082601f830112611efb57611efa612394565b5b6002611f08848285611e18565b91505092915050565b600082601f830112611f2657611f25612394565b5b6021611f33848285611e7f565b91505092915050565b600060408284031215611f5257611f51612399565b5b611f5c60406120c2565b90506000611f6c84828501612041565b6000830152506020611f8084828501612041565b60208301525092915050565b600060808284031215611fa257611fa1612399565b5b611fac60406120c2565b90506000611fbc84828501611ee6565b6000830152506040611fd084828501611ee6565b60208301525092915050565b60006101008284031215611ff357611ff2612399565b5b611ffd60606120c2565b9050600061200d84828501611f3c565b600083015250604061202184828501611f8c565b60208301525060c061203584828501611f3c565b60408301525092915050565b600081359050612050816123b9565b92915050565b600080610520838503121561206e5761206d6123a3565b5b600061207c85828601611fdc565b92505061010061208e85828601611f11565b9150509250929050565b6120a181612217565b82525050565b60006020820190506120bc6000830184612098565b92915050565b60006120cc6120dd565b90506120d8828261222d565b919050565b6000604051905090565b600067ffffffffffffffff82111561210257612101612365565b5b602082029050919050565b600067ffffffffffffffff82111561212857612127612365565b5b602082029050919050565b600061213e82612223565b915061214983612223565b9250827fffffffffffffffffffffffffffffffffffffffffffffffffffffffffffffffff0382111561217e5761217d6122d8565b5b828201905092915050565b600061219482612223565b915061219f83612223565b9250817fffffffffffffffffffffffffffffffffffffffffffffffffffffffffffffffff04831182151516156121d8576121d76122d8565b5b828202905092915050565b60006121ee82612223565b91506121f983612223565b92508282101561220c5761220b6122d8565b5b828203905092915050565b60008115159050919050565b6000819050919050565b612236826123a8565b810181811067ffffffffffffffff8211171561225557612254612365565b5b80604052505050565b600061226982612223565b91507fffffffffffffffffffffffffffffffffffffffffffffffffffffffffffffffff82141561229c5761229b6122d8565b5b600182019050919050565b60006122b282612223565b91506122bd83612223565b9250826122cd576122cc612307565b5b828206905092915050565b7f4e487b7100000000000000000000000000000000000000000000000000000000600052601160045260246000fd5b7f4e487b7100000000000000000000000000000000000000000000000000000000600052601260045260246000fd5b7f4e487b7100000000000000000000000000000000000000000000000000000000600052603260045260246000fd5b7f4e487b7100000000000000000000000000000000000000000000000000000000600052604160045260246000fd5b600080fd5b600080fd5b600080fd5b600080fd5b6000601f19601f8301169050919050565b6123c281612223565b81146123cd57600080fd5b5056fea2646970667358221220fb67c42228bc73623cf98ab49acdaaffa1ca5be89e0c27ad6fb294d2e0dbbe8d64736f6c63430008060033",
  "linkReferences": {},
  "deployedLinkReferences": {}
}