{
  "_format": "hh-sol-artifact-1",
  "contractName": "FLSC",
  "sourceName": "contracts/FLSC.sol",
  "abi": [
    {
      "inputs": [
        {
          "internalType": "uint32",
          "name": "_number_of_entities",
          "type": "uint32"
        },
        {
          "internalType": "uint32",
          "name": "_number_of_features",
          "type": "uint32"
        },
        {
          "internalType": "uint256",
          "name": "_funding",
          "type": "uint256"
        },
        {
          "internalType": "uint256",
          "name": "_deposit",
          "type": "uint256"
        }
      ],
      "stateMutability": "nonpayable",
      "type": "constructor"
    },
    {
      "inputs": [],
      "name": "decryption_rounds",
      "outputs": [
        {
          "internalType": "uint32",
          "name": "",
          "type": "uint32"
        }
      ],
      "stateMutability": "view",
      "type": "function"
    },
    {
      "inputs": [],
      "name": "number_of_entities",
      "outputs": [
        {
          "internalType": "uint32",
          "name": "",
          "type": "uint32"
        }
      ],
      "stateMutability": "view",
      "type": "function"
    },
    {
      "inputs": [],
      "name": "number_of_features",
      "outputs": [
        {
          "internalType": "uint32",
          "name": "",
          "type": "uint32"
        }
      ],
      "stateMutability": "view",
      "type": "function"
    },
    {
      "inputs": [
        {
          "internalType": "uint256",
          "name": "",
          "type": "uint256"
        }
      ],
      "name": "public_key",
      "outputs": [
        {
          "internalType": "uint256",
          "name": "",
          "type": "uint256"
        }
      ],
      "stateMutability": "view",
      "type": "function"
    },
    {
      "inputs": [
        {
          "internalType": "string",
          "name": "class",
          "type": "string"
        }
      ],
      "name": "return_mu_random",
      "outputs": [
        {
          "internalType": "uint256[][]",
          "name": "",
          "type": "uint256[][]"
        }
      ],
      "stateMutability": "view",
      "type": "function"
    },
    {
      "inputs": [
        {
          "internalType": "string",
          "name": "class",
          "type": "string"
        }
      ],
      "name": "return_partial_decrypted_mu",
      "outputs": [
        {
          "internalType": "uint256[][]",
          "name": "",
          "type": "uint256[][]"
        }
      ],
      "stateMutability": "view",
      "type": "function"
    },
    {
      "inputs": [
        {
          "internalType": "string",
          "name": "class",
          "type": "string"
        }
      ],
      "name": "return_submit_count",
      "outputs": [
        {
          "internalType": "uint32",
          "name": "",
          "type": "uint32"
        }
      ],
      "stateMutability": "view",
      "type": "function"
    },
    {
      "inputs": [
        {
          "internalType": "string",
          "name": "class",
          "type": "string"
        }
      ],
      "name": "return_varience_partial_decrypted",
      "outputs": [
        {
          "internalType": "uint256[][]",
          "name": "",
          "type": "uint256[][]"
        }
      ],
      "stateMutability": "view",
      "type": "function"
    },
    {
      "inputs": [
        {
          "internalType": "string",
          "name": "class",
          "type": "string"
        }
      ],
      "name": "return_varience_random",
      "outputs": [
        {
          "internalType": "uint256[][]",
          "name": "",
          "type": "uint256[][]"
        }
      ],
      "stateMutability": "view",
      "type": "function"
    },
    {
      "inputs": [],
      "name": "start_decryption",
      "outputs": [],
      "stateMutability": "nonpayable",
      "type": "function"
    },
    {
      "inputs": [
        {
          "internalType": "uint256[2]",
          "name": "a",
          "type": "uint256[2]"
        },
        {
          "internalType": "uint256[2][2]",
          "name": "b",
          "type": "uint256[2][2]"
        },
        {
          "internalType": "uint256[2]",
          "name": "c",
          "type": "uint256[2]"
        },
        {
          "internalType": "uint256[]",
          "name": "_C_mean_prime_x",
          "type": "uint256[]"
        },
        {
          "internalType": "uint256[]",
          "name": "_C_mean_prime_y",
          "type": "uint256[]"
        },
        {
          "internalType": "uint256[]",
          "name": "_C_var_prime_x",
          "type": "uint256[]"
        },
        {
          "internalType": "uint256[]",
          "name": "_C_var_prime_y",
          "type": "uint256[]"
        },
        {
          "internalType": "uint256[2]",
          "name": "_Pk",
          "type": "uint256[2]"
        },
        {
          "internalType": "string",
          "name": "class",
          "type": "string"
        }
      ],
      "name": "submit_decryption",
      "outputs": [],
      "stateMutability": "nonpayable",
      "type": "function"
    },
    {
      "inputs": [
        {
          "internalType": "address",
          "name": "entity",
          "type": "address"
        }
      ],
      "name": "submit_entity",
      "outputs": [],
      "stateMutability": "nonpayable",
      "type": "function"
    },
    {
      "inputs": [
        {
          "internalType": "uint256",
          "name": "pubkey",
          "type": "uint256"
        }
      ],
      "name": "submit_pubkey",
      "outputs": [],
      "stateMutability": "payable",
      "type": "function"
    },
    {
      "inputs": [
        {
          "internalType": "uint256[2]",
          "name": "a",
          "type": "uint256[2]"
        },
        {
          "internalType": "uint256[2][2]",
          "name": "b",
          "type": "uint256[2][2]"
        },
        {
          "internalType": "uint256[2]",
          "name": "c",
          "type": "uint256[2]"
        },
        {
          "internalType": "uint256",
          "name": "acccuracy",
          "type": "uint256"
        },
        {
          "internalType": "uint256[][]",
          "name": "_mu_R",
          "type": "uint256[][]"
        },
        {
          "internalType": "uint256[][]",
          "name": "_mu_C",
          "type": "uint256[][]"
        },
        {
          "internalType": "uint256[][]",
          "name": "vars_R",
          "type": "uint256[][]"
        },
        {
          "internalType": "uint256[][]",
          "name": "vars_C",
          "type": "uint256[][]"
        },
        {
          "internalType": "string",
          "name": "class",
          "type": "string"
        }
      ],
      "name": "submit_update",
      "outputs": [],
      "stateMutability": "nonpayable",
      "type": "function"
    }
  ],
  "bytecode": "0x608060405260008060086101000a81548163ffffffff021916908363ffffffff160217905550600060025560006003556040516200003d9062000283565b604051809103906000f0801580156200005a573d6000803e3d6000fd5b50600560006101000a81548173ffffffffffffffffffffffffffffffffffffffff021916908373ffffffffffffffffffffffffffffffffffffffff160217905550604051620000a99062000291565b604051809103906000f080158015620000c6573d6000803e3d6000fd5b50600660006101000a81548173ffffffffffffffffffffffffffffffffffffffff021916908373ffffffffffffffffffffffffffffffffffffffff1602179055503480156200011457600080fd5b506040516200b3da3803806200b3da83398181016040528101906200013a919062000331565b33600760006101000a81548173ffffffffffffffffffffffffffffffffffffffff021916908373ffffffffffffffffffffffffffffffffffffffff1602179055506004600760009054906101000a900473ffffffffffffffffffffffffffffffffffffffff169080600181540180825580915050600190039060005260206000200160009091909190916101000a81548173ffffffffffffffffffffffffffffffffffffffff021916908373ffffffffffffffffffffffffffffffffffffffff160217905550826000806101000a81548163ffffffff021916908363ffffffff16021790555083600060046101000a81548163ffffffff021916908363ffffffff160217905550604051806040016040528060008152602001600181525060089060026200026a9291906200029f565b50816002819055508060038190555050505050620003f6565b612eea8062004a4b83390190565b613aa5806200793583390190565b8260028101928215620002d1579160200282015b82811115620002d0578251825591602001919060010190620002b3565b5b509050620002e09190620002e4565b5090565b5b80821115620002ff576000816000905550600101620002e5565b5090565b6000815190506200031481620003c2565b92915050565b6000815190506200032b81620003dc565b92915050565b600080600080608085870312156200034e576200034d620003bd565b5b60006200035e878288016200031a565b945050602062000371878288016200031a565b9350506040620003848782880162000303565b9250506060620003978782880162000303565b91505092959194509250565b6000819050919050565b600063ffffffff82169050919050565b600080fd5b620003cd81620003a3565b8114620003d957600080fd5b50565b620003e781620003ad565b8114620003f357600080fd5b50565b61464580620004066000396000f3fe6080604052600436106100dd5760003560e01c80638479e0d31161007f578063a261b04a11610059578063a261b04a146102c5578063bdb900fd146102dc578063dbcb1c4414610305578063ef5349d314610342576100dd565b80638479e0d31461024457806385871e491461026f57806389e3b0e51461029a576100dd565b80631f1895d0116100bb5780631f1895d0146101855780633470f117146101a15780633de222ec146101de5780636b437d3c1461021b576100dd565b806305db8c5a146100e25780630b9180c51461010b5780631c0b0b5814610148575b600080fd5b3480156100ee57600080fd5b506101096004803603810190610104919061365c565b61037f565b005b34801561011757600080fd5b50610132600480360381019061012d919061396c565b6104ed565b60405161013f9190613e3e565b60405180910390f35b34801561015457600080fd5b5061016f600480360381019061016a919061396c565b6105aa565b60405161017c9190613e3e565b60405180910390f35b61019f600480360381019061019a91906139b5565b610667565b005b3480156101ad57600080fd5b506101c860048036038101906101c3919061396c565b610743565b6040516101d59190613f31565b60405180910390f35b3480156101ea57600080fd5b50610205600480360381019061020091906139b5565b61077b565b6040516102129190613f16565b60405180910390f35b34801561022757600080fd5b50610242600480360381019061023d9190613689565b610796565b005b34801561025057600080fd5b50610259610ed7565b6040516102669190613f31565b60405180910390f35b34801561027b57600080fd5b50610284610eed565b6040516102919190613f31565b60405180910390f35b3480156102a657600080fd5b506102af610f01565b6040516102bc9190613f31565b60405180910390f35b3480156102d157600080fd5b506102da610f17565b005b3480156102e857600080fd5b5061030360048036038101906102fe91906137e4565b61113c565b005b34801561031157600080fd5b5061032c6004803603810190610327919061396c565b61221e565b6040516103399190613e3e565b60405180910390f35b34801561034e57600080fd5b506103696004803603810190610364919061396c565b6122db565b6040516103769190613e3e565b60405180910390f35b6004819080600181540180825580915050600190039060005260206000200160009091909190916101000a81548173ffffffffffffffffffffffffffffffffffffffff021916908373ffffffffffffffffffffffffffffffffffffffff1602179055506000600a60008373ffffffffffffffffffffffffffffffffffffffff1673ffffffffffffffffffffffffffffffffffffffff16815260200190815260200160002060006101000a81548160ff0219169083151502179055506001601360008373ffffffffffffffffffffffffffffffffffffffff1673ffffffffffffffffffffffffffffffffffffffff16815260200190815260200160002060006101000a81548160ff0219169083151502179055506000601460008373ffffffffffffffffffffffffffffffffffffffff1673ffffffffffffffffffffffffffffffffffffffff16815260200190815260200160002060006101000a81548160ff02191690831515021790555050565b6060600e826040516104ff9190613e10565b9081526020016040518091039020805480602002602001604051908101604052809291908181526020016000905b8282101561059f5783829060005260206000200180548060200260200160405190810160405280929190818152602001828054801561058b57602002820191906000526020600020905b815481526020019060010190808311610577575b50505050508152602001906001019061052d565b505050509050919050565b60606010826040516105bc9190613e10565b9081526020016040518091039020805480602002602001604051908101604052809291908181526020016000905b8282101561065c5783829060005260206000200180548060200260200160405190810160405280929190818152602001828054801561064857602002820191906000526020600020905b815481526020019060010190808311610634575b5050505050815260200190600101906105ea565b505050509050919050565b600354600254610677919061417b565b341461068257600080fd5b600061068d82612398565b90506106d660086002806020026040519081016040528092919082600280156106cb576020028201915b8154815260200190600101908083116106b7575b505050505082612556565b60089060026106e6929190612f19565b506001601460003373ffffffffffffffffffffffffffffffffffffffff1673ffffffffffffffffffffffffffffffffffffffff16815260200190815260200160002060006101000a81548160ff0219169083151502179055505050565b60006012826040516107559190613e10565b908152602001604051809103902060009054906101000a900463ffffffff169050919050565b6008816002811061078b57600080fd5b016000915090505481565b61079e612f59565b604051806060016040528060405180604001604052808d6000600281106107c8576107c76144a1565b5b602002015181526020018d6001600281106107e6576107e56144a1565b5b6020020151815250815260200160405180604001604052808c600060028110610812576108116144a1565b5b602002015181526020018c6001600281106108305761082f6144a1565b5b6020020151815250815260200160405180604001604052808b60006002811061085c5761085b6144a1565b5b602002015181526020018b60016002811061087a576108796144a1565b5b6020020151815250815250905061088f612f8c565b600080600090505b60068163ffffffff161015610c1c5760005b60008054906101000a900463ffffffff1663ffffffff168163ffffffff161015610c0857808260008054906101000a900463ffffffff166108ea919061420b565b6108f491906141d1565b925060008263ffffffff16141561098a57600d866040516109159190613e10565b9081526020016040518091039020600081548110610936576109356144a1565b5b906000526020600020018163ffffffff1681548110610958576109576144a1565b5b9060005260206000200154848463ffffffff166051811061097c5761097b6144a1565b5b602002018181525050610bf5565b60018263ffffffff161415610a1e57600f866040516109a99190613e10565b90815260200160405180910390206000815481106109ca576109c96144a1565b5b906000526020600020018163ffffffff16815481106109ec576109eb6144a1565b5b9060005260206000200154848463ffffffff1660518110610a1057610a0f6144a1565b5b602002018181525050610bf4565b60028263ffffffff161415610a75578a8163ffffffff1681518110610a4657610a456144a1565b5b6020026020010151848463ffffffff1660518110610a6757610a666144a1565b5b602002018181525050610bf3565b60038263ffffffff161415610b0957600e86604051610a949190613e10565b9081526020016040518091039020600081548110610ab557610ab46144a1565b5b906000526020600020018163ffffffff1681548110610ad757610ad66144a1565b5b9060005260206000200154848463ffffffff1660518110610afb57610afa6144a1565b5b602002018181525050610bf2565b60048263ffffffff161415610b9d57601086604051610b289190613e10565b9081526020016040518091039020600081548110610b4957610b486144a1565b5b906000526020600020018163ffffffff1681548110610b6b57610b6a6144a1565b5b9060005260206000200154848463ffffffff1660518110610b8f57610b8e6144a1565b5b602002018181525050610bf1565b60058263ffffffff161415610bf057888163ffffffff1681518110610bc557610bc46144a1565b5b6020026020010151848463ffffffff1660518110610be657610be56144a1565b5b6020020181815250505b5b5b5b5b5b8080610c00906143e7565b9150506108a9565b508080610c14906143e7565b915050610897565b5084600060028110610c3157610c306144a1565b5b602002015182600183610c4491906141d1565b63ffffffff1660518110610c5b57610c5a6144a1565b5b60200201818152505084600160028110610c7857610c776144a1565b5b602002015182600283610c8b91906141d1565b63ffffffff1660518110610ca257610ca16144a1565b5b602002018181525050600182600383610cbb91906141d1565b63ffffffff1660518110610cd257610cd16144a1565b5b602002018181525050600660009054906101000a900473ffffffffffffffffffffffffffffffffffffffff1673ffffffffffffffffffffffffffffffffffffffff1663eefa323d84846040518363ffffffff1660e01b8152600401610d38929190613eeb565b60206040518083038186803b158015610d5057600080fd5b505afa158015610d64573d6000803e3d6000fd5b505050506040513d601f19601f82011682018060405250810190610d88919061393f565b610dc7576040517f08c379a0000000000000000000000000000000000000000000000000000000008152600401610dbe90613ea0565b60405180910390fd5b601560003373ffffffffffffffffffffffffffffffffffffffff1673ffffffffffffffffffffffffffffffffffffffff168152602001908152602001600020600081819054906101000a900463ffffffff1680929190610e26906143e7565b91906101000a81548163ffffffff021916908363ffffffff1602179055505060405180604001604052808a815260200189815250600f85604051610e6a9190613e10565b9081526020016040518091039020906002610e86929190612faf565b50604051806040016040528088815260200187815250601085604051610eac9190613e10565b9081526020016040518091039020906002610ec8929190612faf565b50505050505050505050505050565b600060089054906101000a900463ffffffff1681565b60008054906101000a900463ffffffff1681565b600060049054906101000a900463ffffffff1681565b600760009054906101000a900473ffffffffffffffffffffffffffffffffffffffff1673ffffffffffffffffffffffffffffffffffffffff163373ffffffffffffffffffffffffffffffffffffffff1614610fa7576040517f08c379a0000000000000000000000000000000000000000000000000000000008152600401610f9e90613e60565b60405180910390fd5b6000600180549050905060005b818163ffffffff1610156110f757600b60018263ffffffff1681548110610fde57610fdd6144a1565b5b90600052602060002001604051610ff59190613e27565b9081526020016040518091039020600f60018363ffffffff168154811061101f5761101e6144a1565b5b906000526020600020016040516110369190613e27565b908152602001604051809103902090805461105292919061300f565b50600c60018263ffffffff168154811061106f5761106e6144a1565b5b906000526020600020016040516110869190613e27565b9081526020016040518091039020601060018363ffffffff16815481106110b0576110af6144a1565b5b906000526020600020016040516110c79190613e27565b90815260200160405180910390209080546110e392919061300f565b5080806110ef906143e7565b915050610fb4565b506000600881819054906101000a900463ffffffff168092919061111a906143e7565b91906101000a81548163ffffffff021916908363ffffffff1602179055505050565b61114461306e565b61114c613091565b6111546130c4565b8883600060388110611169576111686144a1565b5b602002018181525050604051806060016040528060405180604001604052808f60006002811061119c5761119b6144a1565b5b602002015181526020018f6001600281106111ba576111b96144a1565b5b6020020151815250815260200160405180604001604052808e6000600281106111e6576111e56144a1565b5b602002015181526020018e600160028110611204576112036144a1565b5b6020020151815250815260200160405180604001604052808d6000600281106112305761122f6144a1565b5b602002015181526020018d60016002811061124e5761124d6144a1565b5b60200201518152508152509150600080600090505b60048163ffffffff1610156114bc5760005b60008054906101000a900463ffffffff1663ffffffff168163ffffffff1610156114a8576001818360008054906101000a900463ffffffff166112b8919061420b565b6112c291906141d1565b6112cc91906141d1565b925060008263ffffffff161415611340578a6000815181106112f1576112f06144a1565b5b60200260200101518163ffffffff1681518110611311576113106144a1565b5b6020026020010151868463ffffffff1660388110611332576113316144a1565b5b602002018181525050611495565b60018263ffffffff1614156113b25789600081518110611363576113626144a1565b5b60200260200101518163ffffffff1681518110611383576113826144a1565b5b6020026020010151868463ffffffff16603881106113a4576113a36144a1565b5b602002018181525050611494565b60028263ffffffff16141561142457886000815181106113d5576113d46144a1565b5b60200260200101518163ffffffff16815181106113f5576113f46144a1565b5b6020026020010151868463ffffffff1660388110611416576114156144a1565b5b602002018181525050611493565b60038263ffffffff1614156114925787600081518110611447576114466144a1565b5b60200260200101518163ffffffff1681518110611467576114666144a1565b5b6020026020010151868463ffffffff1660388110611488576114876144a1565b5b6020020181815250505b5b5b5b80806114a0906143e7565b915050611275565b5080806114b4906143e7565b915050611263565b5060086000600281106114d2576114d16144a1565b5b0154846001836114e291906141d1565b63ffffffff16603881106114f9576114f86144a1565b5b6020020181815250506008600160028110611517576115166144a1565b5b01548460028361152791906141d1565b63ffffffff166038811061153e5761153d6144a1565b5b60200201818152505060018460038361155791906141d1565b63ffffffff166038811061156e5761156d6144a1565b5b602002018181525050600560009054906101000a900473ffffffffffffffffffffffffffffffffffffffff1673ffffffffffffffffffffffffffffffffffffffff1663b581abe684866040518363ffffffff1660e01b81526004016115d4929190613ec0565b60206040518083038186803b1580156115ec57600080fd5b505afa158015611600573d6000803e3d6000fd5b505050506040513d601f19601f82011682018060405250810190611624919061393f565b611663576040517f08c379a000000000000000000000000000000000000000000000000000000000815260040161165a90613e80565b60405180910390fd5b60016012866040516116759190613e10565b908152602001604051809103902060008282829054906101000a900463ffffffff166116a191906141d1565b92506101000a81548163ffffffff021916908363ffffffff1602179055506011856040516116cf9190613e10565b908152602001604051809103902060009054906101000a900460ff166118335760018590806001815401808255809150506001900390600052602060002001600090919091909150908051906020019061172a9291906130e6565b5087600b8660405161173c9190613e10565b9081526020016040518091039020908051906020019061175d92919061316c565b5085600c8660405161176f9190613e10565b9081526020016040518091039020908051906020019061179092919061316c565b5060016011866040516117a39190613e10565b908152602001604051809103902060006101000a81548160ff02191690831515021790555088600d866040516117d99190613e10565b908152602001604051809103902090805190602001906117fa92919061316c565b5086600e8660405161180c9190613e10565b9081526020016040518091039020908051906020019061182d92919061316c565b5061220f565b60005b60008054906101000a900463ffffffff1663ffffffff168163ffffffff16101561220d576119cc6118f060405180604001604052808c60008151811061187f5761187e6144a1565b5b60200260200101518563ffffffff168151811061189f5761189e6144a1565b5b602002602001015181526020018c6001815181106118c0576118bf6144a1565b5b60200260200101518563ffffffff16815181106118e0576118df6144a1565b5b602002602001015181525061289e565b6119c76040518060400160405280600b8b60405161190e9190613e10565b908152602001604051809103902060008154811061192f5761192e6144a1565b5b906000526020600020018663ffffffff1681548110611951576119506144a1565b5b90600052602060002001548152602001600b8b6040516119719190613e10565b9081526020016040518091039020600181548110611992576119916144a1565b5b906000526020600020018663ffffffff16815481106119b4576119b36144a1565b5b906000526020600020015481525061289e565b6129b5565b9250826000600281106119e2576119e16144a1565b5b6020020151600b876040516119f79190613e10565b9081526020016040518091039020600081548110611a1857611a176144a1565b5b906000526020600020018263ffffffff1681548110611a3a57611a396144a1565b5b906000526020600020018190555082600160028110611a5c57611a5b6144a1565b5b6020020151600b87604051611a719190613e10565b9081526020016040518091039020600181548110611a9257611a916144a1565b5b906000526020600020018263ffffffff1681548110611ab457611ab36144a1565b5b9060005260206000200181905550611c34611b5860405180604001604052808a600081518110611ae757611ae66144a1565b5b60200260200101518563ffffffff1681518110611b0757611b066144a1565b5b602002602001015181526020018a600181518110611b2857611b276144a1565b5b60200260200101518563ffffffff1681518110611b4857611b476144a1565b5b602002602001015181525061289e565b611c2f6040518060400160405280600c8b604051611b769190613e10565b9081526020016040518091039020600081548110611b9757611b966144a1565b5b906000526020600020018663ffffffff1681548110611bb957611bb86144a1565b5b90600052602060002001548152602001600c8b604051611bd99190613e10565b9081526020016040518091039020600181548110611bfa57611bf96144a1565b5b906000526020600020018663ffffffff1681548110611c1c57611c1b6144a1565b5b906000526020600020015481525061289e565b6129b5565b925082600060028110611c4a57611c496144a1565b5b6020020151600c87604051611c5f9190613e10565b9081526020016040518091039020600081548110611c8057611c7f6144a1565b5b906000526020600020018263ffffffff1681548110611ca257611ca16144a1565b5b906000526020600020018190555082600160028110611cc457611cc36144a1565b5b6020020151600c87604051611cd99190613e10565b9081526020016040518091039020600181548110611cfa57611cf96144a1565b5b906000526020600020018263ffffffff1681548110611d1c57611d1b6144a1565b5b9060005260206000200181905550611e9c611dc060405180604001604052808d600081518110611d4f57611d4e6144a1565b5b60200260200101518563ffffffff1681518110611d6f57611d6e6144a1565b5b602002602001015181526020018d600181518110611d9057611d8f6144a1565b5b60200260200101518563ffffffff1681518110611db057611daf6144a1565b5b602002602001015181525061289e565b611e976040518060400160405280600d8b604051611dde9190613e10565b9081526020016040518091039020600081548110611dff57611dfe6144a1565b5b906000526020600020018663ffffffff1681548110611e2157611e206144a1565b5b90600052602060002001548152602001600d8b604051611e419190613e10565b9081526020016040518091039020600181548110611e6257611e616144a1565b5b906000526020600020018663ffffffff1681548110611e8457611e836144a1565b5b906000526020600020015481525061289e565b6129b5565b925082600060028110611eb257611eb16144a1565b5b6020020151600d87604051611ec79190613e10565b9081526020016040518091039020600081548110611ee857611ee76144a1565b5b906000526020600020018263ffffffff1681548110611f0a57611f096144a1565b5b906000526020600020018190555082600160028110611f2c57611f2b6144a1565b5b6020020151600d87604051611f419190613e10565b9081526020016040518091039020600181548110611f6257611f616144a1565b5b906000526020600020018263ffffffff1681548110611f8457611f836144a1565b5b906000526020600020018190555061210461202860405180604001604052808b600081518110611fb757611fb66144a1565b5b60200260200101518563ffffffff1681518110611fd757611fd66144a1565b5b602002602001015181526020018b600181518110611ff857611ff76144a1565b5b60200260200101518563ffffffff1681518110612018576120176144a1565b5b602002602001015181525061289e565b6120ff6040518060400160405280600e8b6040516120469190613e10565b9081526020016040518091039020600081548110612067576120666144a1565b5b906000526020600020018663ffffffff1681548110612089576120886144a1565b5b90600052602060002001548152602001600e8b6040516120a99190613e10565b90815260200160405180910390206001815481106120ca576120c96144a1565b5b906000526020600020018663ffffffff16815481106120ec576120eb6144a1565b5b906000526020600020015481525061289e565b6129b5565b92508260006002811061211a576121196144a1565b5b6020020151600e8760405161212f9190613e10565b90815260200160405180910390206000815481106121505761214f6144a1565b5b906000526020600020018263ffffffff1681548110612172576121716144a1565b5b906000526020600020018190555082600160028110612194576121936144a1565b5b6020020151600e876040516121a99190613e10565b90815260200160405180910390206001815481106121ca576121c96144a1565b5b906000526020600020018263ffffffff16815481106121ec576121eb6144a1565b5b90600052602060002001819055508080612205906143e7565b915050611836565b505b50505050505050505050505050565b6060600f826040516122309190613e10565b9081526020016040518091039020805480602002602001604051908101604052809291908181526020016000905b828210156122d0578382906000526020600020018054806020026020016040519081016040528092919081815260200182805480156122bc57602002820191906000526020600020905b8154815260200190600101908083116122a8575b50505050508152602001906001019061225e565b505050509050919050565b6060600d826040516122ed9190613e10565b9081526020016040518091039020805480602002602001604051908101604052809291908181526020016000905b8282101561238d5783829060005260206000200180548060200260200160405190810160405280929190818152602001828054801561237957602002820191906000526020600020905b815481526020019060010190808311612365575b50505050508152602001906001019061231b565b505050509050919050565b6123a06130c4565b6000807f800000000000000000000000000000000000000000000000000000000000000084161415905060007f7fffffffffffffffffffffffffffffffffffffffffffffffffffffffffffffff8416905060007f30644e72e131a029b85045b68181585d2833e84879b9709143e1f593f00000018061242257612421614443565b5b828309905060007f30644e72e131a029b85045b68181585d2833e84879b9709143e1f593f00000018061245857612457614443565b5b6124a161249c620292fc7f30644e72e131a029b85045b68181585d2833e84879b9709143e1f593f00000018061249157612490614443565b5b86620292f8096129dd565b612a44565b6124ac6001856129dd565b09905060006124ba82612a77565b905060007f183227397098d014dc2822db40c0ac2e9419f4243cdcb848a1f0fac9f8000000821190508580156124ee575080155b806125005750851580156124ff5750805b5b1561253457817f30644e72e131a029b85045b68181585d2833e84879b9709143e1f593f0000001612531919061427d565b91505b6040518060400160405280838152602001868152509650505050505050919050565b61255e6130c4565b60007f30644e72e131a029b85045b68181585d2833e84879b9709143e1f593f00000018061258f5761258e614443565b5b836000600281106125a3576125a26144a1565b5b6020020151856000600281106125bc576125bb6144a1565b5b602002015109905060007f30644e72e131a029b85045b68181585d2833e84879b9709143e1f593f0000001806125f5576125f4614443565b5b84600160028110612609576126086144a1565b5b602002015186600160028110612622576126216144a1565b5b602002015109905060007f30644e72e131a029b85045b68181585d2833e84879b9709143e1f593f00000018061265b5761265a614443565b5b7f30644e72e131a029b85045b68181585d2833e84879b9709143e1f593f00000018061268a57612689614443565b5b838509620292f809905060007f30644e72e131a029b85045b68181585d2833e84879b9709143e1f593f0000001806126c5576126c4614443565b5b7f30644e72e131a029b85045b68181585d2833e84879b9709143e1f593f0000001806126f4576126f3614443565b5b87600060028110612708576127076144a1565b5b602002015189600160028110612721576127206144a1565b5b6020020151097f30644e72e131a029b85045b68181585d2833e84879b9709143e1f593f00000018061275657612755614443565b5b8860016002811061276a576127696144a1565b5b60200201518a600060028110612783576127826144a1565b5b60200201510908905060006127cc847f30644e72e131a029b85045b68181585d2833e84879b9709143e1f593f0000001806127c1576127c0614443565b5b87620292fc096129dd565b905060405180604001604052807f30644e72e131a029b85045b68181585d2833e84879b9709143e1f593f00000018061280857612807614443565b5b6128437f30644e72e131a029b85045b68181585d2833e84879b9709143e1f593f00000018061283a57612839614443565b5b87600108612a44565b850981526020017f30644e72e131a029b85045b68181585d2833e84879b9709143e1f593f00000018061287957612878614443565b5b61288c6128876001886129dd565b612a44565b84098152509550505050505092915050565b6128a66131cc565b816000600281106128ba576128b96144a1565b5b6020020151816000600481106128d3576128d26144a1565b5b602002018181525050816001600281106128f0576128ef6144a1565b5b602002015181600160048110612909576129086144a1565b5b6020020181815250507f30644e72e131a029b85045b68181585d2833e84879b9709143e1f593f00000018061294157612940614443565b5b82600160028110612955576129546144a1565b5b60200201518360006002811061296e5761296d6144a1565b5b60200201510981600260048110612988576129876144a1565b5b6020020181815250506001816003600481106129a7576129a66144a1565b5b602002018181525050919050565b6129bd6130c4565b60006129c98484612c95565b90506129d481612da4565b91505092915050565b60007f30644e72e131a029b85045b68181585d2833e84879b9709143e1f593f000000180612a0e57612a0d614443565b5b827f30644e72e131a029b85045b68181585d2833e84879b9709143e1f593f0000001612a3a919061427d565b8408905092915050565b6000612a70827f30644e72e131a029b85045b68181585d2833e84879b9709143e1f593efffffff612ea5565b9050919050565b6000612aa0827c0183227397098d014dc2822db40c0ac2e9419f4243cdcb848a1f0faca0612ea5565b90506000612acb837c030644e72e131a029b85045b68181585d2833e84879b9709143e1f593f612ea5565b905060007f2a3c09f0a58a7e8500e0a7eb8ef62abc402d111e41112ed49bd61b6e725b19f09050600080601c905060005b600115612c8a57600090508492505b60018314612b5a577f30644e72e131a029b85045b68181585d2833e84879b9709143e1f593f000000180612b4257612b41614443565b5b83840992508080612b52906143bc565b915050612b0b565b60008161ffff161415612b71575050505050612c90565b83925060005b60018284612b859190614249565b612b8f9190614249565b61ffff168161ffff161015612be5577f30644e72e131a029b85045b68181585d2833e84879b9709143e1f593f000000180612bcd57612bcc614443565b5b84850993508080612bdd906143bc565b915050612b77565b507f30644e72e131a029b85045b68181585d2833e84879b9709143e1f593f000000180612c1557612c14614443565b5b83840993507f30644e72e131a029b85045b68181585d2833e84879b9709143e1f593f000000180612c4957612c48614443565b5b86840995507f30644e72e131a029b85045b68181585d2833e84879b9709143e1f593f000000180612c7d57612c7c614443565b5b8486099450809150612afc565b50505050505b919050565b612c9d6131cc565b7f30644e72e131a029b85045b68181585d2833e84879b9709143e1f593f0000001620292fc620292f88285518751098360208701516020890151098460408801518660408b015186090985606089015160608b015109868760208b01518b51088860208d01518d51080960018501811015612d185787810190505b8785820306905060018401811015612d305787810190505b878482030690508160018401811015612d495788810190505b888482030690508884840889878a098660018201811015612d6a578b810190505b8b8282030690508b8486098d528b81840960208e01528b81860960408e01528b83850960608e015250505050505050505050505092915050565b612dac6130c4565b6000612dcf83600360048110612dc557612dc46144a1565b5b6020020151612a44565b90507f30644e72e131a029b85045b68181585d2833e84879b9709143e1f593f000000180612e0057612dff614443565b5b8184600060048110612e1557612e146144a1565b5b60200201510982600060028110612e2f57612e2e6144a1565b5b6020020181815250507f30644e72e131a029b85045b68181585d2833e84879b9709143e1f593f000000180612e6757612e66614443565b5b8184600160048110612e7c57612e7b6144a1565b5b60200201510982600160028110612e9657612e956144a1565b5b60200201818152505050919050565b60007f30644e72e131a029b85045b68181585d2833e84879b9709143e1f593f000000160405160208152602080820152602060408201528460608201528360808201528160a082015260208160c08360055afa8060008114612f0a5782519450612f0f565b600080fd5b5050505092915050565b8260028101928215612f48579160200282015b82811115612f47578251825591602001919060010190612f2c565b5b509050612f5591906131ee565b5090565b6040518060600160405280612f6c61320b565b8152602001612f79613225565b8152602001612f8661320b565b81525090565b60405180610a200160405280605190602082028036833780820191505090505090565b828054828255906000526020600020908101928215612ffe579160200282015b82811115612ffd578251829080519060200190612fed92919061324b565b5091602001919060010190612fcf565b5b50905061300b9190613298565b5090565b82805482825590600052602060002090810192821561305d5760005260206000209182015b8281111561305c57828290805461304c9291906132bc565b5091600101919060010190613034565b5b50905061306a9190613298565b5090565b604051806107000160405280603890602082028036833780820191505090505090565b60405180606001604052806130a461320b565b81526020016130b1613225565b81526020016130be61320b565b81525090565b6040518060400160405280600290602082028036833780820191505090505090565b8280546130f290614359565b90600052602060002090601f016020900481019282613114576000855561315b565b82601f1061312d57805160ff191683800117855561315b565b8280016001018555821561315b579182015b8281111561315a57825182559160200191906001019061313f565b5b50905061316891906131ee565b5090565b8280548282559060005260206000209081019282156131bb579160200282015b828111156131ba5782518290805190602001906131aa92919061324b565b509160200191906001019061318c565b5b5090506131c89190613298565b5090565b6040518060800160405280600490602082028036833780820191505090505090565b5b808211156132075760008160009055506001016131ef565b5090565b604051806040016040528060008152602001600081525090565b60405180604001604052806132386130c4565b81526020016132456130c4565b81525090565b828054828255906000526020600020908101928215613287579160200282015b8281111561328657825182559160200191906001019061326b565b5b50905061329491906131ee565b5090565b5b808211156132b857600081816132af919061330e565b50600101613299565b5090565b8280548282559060005260206000209081019282156132fd5760005260206000209182015b828111156132fc5782548255916001019190600101906132e1565b5b50905061330a91906131ee565b5090565b508054600082559060005260206000209081019061332c91906131ee565b50565b600061334261333d84613f71565b613f4c565b9050808285604086028201111561335c5761335b614504565b5b60005b8581101561338c578161337288826135ab565b84526020840193506040830192505060018101905061335f565b5050509392505050565b60006133a96133a484613f97565b613f4c565b905080838252602082019050828560208602820111156133cc576133cb614504565b5b60005b8581101561341a57813567ffffffffffffffff8111156133f2576133f16144ff565b5b8086016133ff89826135d6565b855260208501945060208401935050506001810190506133cf565b5050509392505050565b600061343761343284613fc3565b613f4c565b9050808285602086028201111561345157613450614504565b5b60005b8581101561348157816134678882613647565b845260208401935060208301925050600181019050613454565b5050509392505050565b600061349e61349984613fe9565b613f4c565b905080838252602082019050828560208602820111156134c1576134c0614504565b5b60005b858110156134f157816134d78882613647565b8452602084019350602083019250506001810190506134c4565b5050509392505050565b600061350e61350984614015565b613f4c565b90508281526020810184848401111561352a57613529614509565b5b613535848285614317565b509392505050565b60008135905061354c816145ca565b92915050565b600082601f830112613567576135666144ff565b5b600261357484828561332f565b91505092915050565b600082601f830112613592576135916144ff565b5b81356135a2848260208601613396565b91505092915050565b600082601f8301126135c0576135bf6144ff565b5b60026135cd848285613424565b91505092915050565b600082601f8301126135eb576135ea6144ff565b5b81356135fb84826020860161348b565b91505092915050565b600081519050613613816145e1565b92915050565b600082601f83011261362e5761362d6144ff565b5b813561363e8482602086016134fb565b91505092915050565b600081359050613656816145f8565b92915050565b60006020828403121561367257613671614513565b5b60006136808482850161353d565b91505092915050565b60008060008060008060008060006101e08a8c0312156136ac576136ab614513565b5b60006136ba8c828d016135ab565b99505060406136cb8c828d01613552565b98505060c06136dc8c828d016135ab565b9750506101008a013567ffffffffffffffff8111156136fe576136fd61450e565b5b61370a8c828d016135d6565b9650506101208a013567ffffffffffffffff81111561372c5761372b61450e565b5b6137388c828d016135d6565b9550506101408a013567ffffffffffffffff81111561375a5761375961450e565b5b6137668c828d016135d6565b9450506101608a013567ffffffffffffffff8111156137885761378761450e565b5b6137948c828d016135d6565b9350506101806137a68c828d016135ab565b9250506101c08a013567ffffffffffffffff8111156137c8576137c761450e565b5b6137d48c828d01613619565b9150509295985092959850929598565b60008060008060008060008060006101c08a8c03121561380757613806614513565b5b60006138158c828d016135ab565b99505060406138268c828d01613552565b98505060c06138378c828d016135ab565b9750506101006138498c828d01613647565b9650506101208a013567ffffffffffffffff81111561386b5761386a61450e565b5b6138778c828d0161357d565b9550506101408a013567ffffffffffffffff8111156138995761389861450e565b5b6138a58c828d0161357d565b9450506101608a013567ffffffffffffffff8111156138c7576138c661450e565b5b6138d38c828d0161357d565b9350506101808a013567ffffffffffffffff8111156138f5576138f461450e565b5b6139018c828d0161357d565b9250506101a08a013567ffffffffffffffff8111156139235761392261450e565b5b61392f8c828d01613619565b9150509295985092959850929598565b60006020828403121561395557613954614513565b5b600061396384828501613604565b91505092915050565b60006020828403121561398257613981614513565b5b600082013567ffffffffffffffff8111156139a05761399f61450e565b5b6139ac84828501613619565b91505092915050565b6000602082840312156139cb576139ca614513565b5b60006139d984828501613647565b91505092915050565b60006139ee8383613b88565b905092915050565b6000613a028383613de3565b60208301905092915050565b6000613a1982614099565b613a23818561411c565b935083602082028501613a3585614046565b8060005b85811015613a715784840389528151613a5285826139e2565b9450613a5d836140db565b925060208a01995050600181019050613a39565b50829750879550505050505092915050565b613a8c816140a4565b613a96818461412d565b9250613aa182614056565b8060005b83811015613ad2578151613ab987826139f6565b9650613ac4836140e8565b925050600181019050613aa5565b505050505050565b613ae3816140af565b613aed8184614138565b9250613af882614060565b8060005b83811015613b29578151613b1087826139f6565b9650613b1b836140f5565b925050600181019050613afc565b505050505050565b613b3a816140ba565b613b448184614143565b9250613b4f8261406a565b8060005b83811015613b80578151613b6787826139f6565b9650613b7283614102565b925050600181019050613b53565b505050505050565b6000613b93826140c5565b613b9d818561414e565b9350613ba883614074565b8060005b83811015613bd9578151613bc088826139f6565b9750613bcb8361410f565b925050600181019050613bac565b5085935050505092915050565b6000613bf1826140d0565b613bfb8185614170565b9350613c0b818560208601614326565b80840191505092915050565b60008154613c2481614359565b613c2e8186614170565b94506001821660008114613c495760018114613c5a57613c8d565b60ff19831686528186019350613c8d565b613c6385614084565b60005b83811015613c8557815481890152600182019150602081019050613c66565b838801955050505b50505092915050565b6000613ca3602a8361415f565b9150613cae82614529565b604082019050919050565b6000613cc6601e8361415f565b9150613cd182614578565b602082019050919050565b6000613ce960168361415f565b9150613cf4826145a1565b602082019050919050565b604082016000820151613d156000850182613de3565b506020820151613d286020850182613de3565b50505050565b608082016000820151613d446000850182613a83565b506020820151613d576040850182613a83565b50505050565b61010082016000820151613d746000850182613cff565b506020820151613d876040850182613d2e565b506040820151613d9a60c0850182613cff565b50505050565b61010082016000820151613db76000850182613cff565b506020820151613dca6040850182613d2e565b506040820151613ddd60c0850182613cff565b50505050565b613dec816142fd565b82525050565b613dfb816142fd565b82525050565b613e0a81614307565b82525050565b6000613e1c8284613be6565b915081905092915050565b6000613e338284613c17565b915081905092915050565b60006020820190508181036000830152613e588184613a0e565b905092915050565b60006020820190508181036000830152613e7981613c96565b9050919050565b60006020820190508181036000830152613e9981613cb9565b9050919050565b60006020820190508181036000830152613eb981613cdc565b9050919050565b600061080082019050613ed66000830185613d5d565b613ee4610100830184613ada565b9392505050565b6000610b2082019050613f016000830185613da0565b613f0f610100830184613b31565b9392505050565b6000602082019050613f2b6000830184613df2565b92915050565b6000602082019050613f466000830184613e01565b92915050565b6000613f56613f67565b9050613f62828261438b565b919050565b6000604051905090565b600067ffffffffffffffff821115613f8c57613f8b6144d0565b5b602082029050919050565b600067ffffffffffffffff821115613fb257613fb16144d0565b5b602082029050602081019050919050565b600067ffffffffffffffff821115613fde57613fdd6144d0565b5b602082029050919050565b600067ffffffffffffffff821115614004576140036144d0565b5b602082029050602081019050919050565b600067ffffffffffffffff8211156140305761402f6144d0565b5b61403982614518565b9050602081019050919050565b6000819050602082019050919050565b6000819050919050565b6000819050919050565b6000819050919050565b6000819050602082019050919050565b60008190508160005260206000209050919050565b600081519050919050565b600060029050919050565b600060389050919050565b600060519050919050565b600081519050919050565b600081519050919050565b6000602082019050919050565b6000602082019050919050565b6000602082019050919050565b6000602082019050919050565b6000602082019050919050565b600082825260208201905092915050565b600081905092915050565b600081905092915050565b600081905092915050565b600082825260208201905092915050565b600082825260208201905092915050565b600081905092915050565b6000614186826142fd565b9150614191836142fd565b9250827fffffffffffffffffffffffffffffffffffffffffffffffffffffffffffffffff038211156141c6576141c5614414565b5b828201905092915050565b60006141dc82614307565b91506141e783614307565b92508263ffffffff03821115614200576141ff614414565b5b828201905092915050565b600061421682614307565b915061422183614307565b92508163ffffffff048311821515161561423e5761423d614414565b5b828202905092915050565b6000614254826142cf565b915061425f836142cf565b92508282101561427257614271614414565b5b828203905092915050565b6000614288826142fd565b9150614293836142fd565b9250828210156142a6576142a5614414565b5b828203905092915050565b60006142bc826142dd565b9050919050565b60008115159050919050565b600061ffff82169050919050565b600073ffffffffffffffffffffffffffffffffffffffff82169050919050565b6000819050919050565b600063ffffffff82169050919050565b82818337600083830152505050565b60005b83811015614344578082015181840152602081019050614329565b83811115614353576000848401525b50505050565b6000600282049050600182168061437157607f821691505b6020821081141561438557614384614472565b5b50919050565b61439482614518565b810181811067ffffffffffffffff821117156143b3576143b26144d0565b5b80604052505050565b60006143c7826142cf565b915061ffff8214156143dc576143db614414565b5b600182019050919050565b60006143f282614307565b915063ffffffff82141561440957614408614414565b5b600182019050919050565b7f4e487b7100000000000000000000000000000000000000000000000000000000600052601160045260246000fd5b7f4e487b7100000000000000000000000000000000000000000000000000000000600052601260045260246000fd5b7f4e487b7100000000000000000000000000000000000000000000000000000000600052602260045260246000fd5b7f4e487b7100000000000000000000000000000000000000000000000000000000600052603260045260246000fd5b7f4e487b7100000000000000000000000000000000000000000000000000000000600052604160045260246000fd5b600080fd5b600080fd5b600080fd5b600080fd5b600080fd5b6000601f19601f8301169050919050565b7f4f6e6c7920746865206d6f64657261746f722063616e2063616c6c207468697360008201527f2066756e6374696f6e2100000000000000000000000000000000000000000000602082015250565b7f4d6f64656c20757064617465206d757374206265207665726966696564210000600082015250565b7f50726f6f66206d75737420626520766572696669656400000000000000000000600082015250565b6145d3816142b1565b81146145de57600080fd5b50565b6145ea816142c3565b81146145f557600080fd5b50565b614601816142fd565b811461460c57600080fd5b5056fea2646970667358221220113cff4ae98046ea889cacab5d5baef2dbaf25646306cab3348e6dca8bad9d3864736f6c63430008060033608060405234801561001057600080fd5b50612eca806100206000396000f3fe608060405234801561001057600080fd5b506004361061002b5760003560e01c8063b581abe614610030575b600080fd5b61004a60048036038101906100459190612b1a565b610060565b6040516100579190612b6b565b60405180910390f35b600080603867ffffffffffffffff81111561007e5761007d612e29565b5b6040519080825280602002602001820160405280156100ac5781602001602082028036833780820191505090505b50905060005b6038811015610105578381603881106100ce576100cd612dfa565b5b60200201518282815181106100e6576100e5612dfa565b5b60200260200101818152505080806100fd90612d22565b9150506100b2565b506000610112828661012e565b1415610122576001915050610128565b60009150505b92915050565b6000807f30644e72e131a029b85045b68181585d2833e84879b9709143e1f593f00000019050600061015e6102c5565b9050806080015151600186516101749190612bf7565b1461017e57600080fd5b60006040518060400160405280600081526020016000815250905060005b865181101561023757838782815181106101b9576101b8612dfa565b5b6020026020010151106101cb57600080fd5b6102228261021d85608001516001856101e49190612bf7565b815181106101f5576101f4612dfa565b5b60200260200101518a85815181106102105761020f612dfa565b5b602002602001015161208c565b612133565b9150808061022f90612d22565b91505061019c565b5061026181836080015160008151811061025457610253612dfa565b5b6020026020010151612133565b90506102a78560000151866020015161027984612200565b856040015161028b8a60400151612200565b876060015161029d8960000151612200565b89602001516122a5565b6102b757600193505050506102bf565b600093505050505b92915050565b6102cd6127cd565b60405180604001604052807f113b419965fdcf38b879f8d1074a6c07750dd4717275163f7fc6fec138687bba81526020017f1753126c8ac38a9e150402a363d3fd615bdd4b443454e690ceedfa32ecdd58328152508160000181905250604051806040016040528060405180604001604052807f29b6f531b5368bf48fea514e149363f99629f5b28c311f52222d899b8098fa5681526020017f0f374799d4a7849e83b2ca34ba71e95f9653f62bd1513cfabb500e86b8dac1c1815250815260200160405180604001604052807e0726d5fe93aed68fcf667f4d44df823a2201dad94afad2ee976ff1392305df81526020017f20954669a5df07c294c5c758a39afa7b6779dff77a021b25ce7fc70a89d32ab58152508152508160200181905250604051806040016040528060405180604001604052807f1c42fb963f3b818457bdbf67d33a8272914e7a363500f7021ff5208f4f80345581526020017f213953c4e98416683043e300a794dc30b64b925c291a21ed49f76e14fa2c5e3d815250815260200160405180604001604052807e81877eeb5f3b4591040dcb733a1f7699d353ebe628fe6210ce1add4f0ee54681526020017f20a69e8e94b67d26cd3fa4362807e8fc10f5233f256c79f86f8c24644b1665718152508152508160400181905250604051806040016040528060405180604001604052807f207e8c7f65bfa2b1fb2477a5aa74ae578f034048b746f28bc56b1132a328b3f481526020017f0a61d08dd445b2e9b5421a93f6d8cf00d8e990b1b4c24b63f2e344873e0f6a63815250815260200160405180604001604052807f25943b319c18ed02d2e3d1d1f4e5b09147be2544a77c64f301dea2ac19a6c95b81526020017f2c96f1c46cb5e83297695af6f6259b4fac6784cbc893e872d6b27d5070c0cf9b8152508152508160600181905250603967ffffffffffffffff81111561059257610591612e29565b5b6040519080825280602002602001820160405280156105cb57816020015b6105b8612814565b8152602001906001900390816105b05790505b50816080018190525060405180604001604052807f20345b803c0e7b926bb3e248db729493185580721b09dd7b99647d3523be46e381526020017f162e396068c2352c4c3f6cd59eeaceedfe40dc0babe43acd5d7128c3ddc7bed0815250816080015160008151811061064157610640612dfa565b5b602002602001018190525060405180604001604052807f1b45b4c308c3f67246682a6774aac77d634de4410250a730ca4c8eb72062711d81526020017f03b78393c08ae016f5f8365a91bed74865c40579f64776eef5f1460adb70d9b281525081608001516001815181106106b9576106b8612dfa565b5b602002602001018190525060405180604001604052807f2773d19dad0c5ceda2f9bbf97b1549e1561219ac4fc9e5f55f03e729059b149881526020017f033771ce3635c66010feff95c70b29464951a2698ce412d83d4dc55cb146269e815250816080015160028151811061073157610730612dfa565b5b602002602001018190525060405180604001604052807f1f64d048c435ff39f718469235ec9b9828f126592d819b8388d83c9df5de97da81526020017f0b69bd1bf80709adbe51291a32f798f9b35a66e33947ac530f0e087991bc03d981525081608001516003815181106107a9576107a8612dfa565b5b602002602001018190525060405180604001604052807f1c93dfcff383a9c33f6781fe4e7e6f12d903687099b2bc8281ab3ebf0f96690481526020017f1dc719b4c904fae8581be33f5f453b3f16e62ac062f48225e3c30649789b647a815250816080015160048151811061082157610820612dfa565b5b602002602001018190525060405180604001604052807f279985cf7bff298442137e393c4f7fe4751e2f3ba161c3d8a31928977774bdbf81526020017f15b9e265af3bf854a581f3a44c2bf2e7f0dd3f397a716584511827ceec03ff5e815250816080015160058151811061089957610898612dfa565b5b602002602001018190525060405180604001604052807f220396a2d0bd6e4283d90c41e567b79354bea981b6b30c2c397767724b711fce81526020017f0b5bc8983d6a2207c5efcd08a5c9d919bc31fb0d356d7032203b55c92683c2d9815250816080015160068151811061091157610910612dfa565b5b602002602001018190525060405180604001604052807f053284a6ed7e0a07f9187d0cddcbc064664eba329e9d2d130ac5fcd32ca2776e81526020017f2effe83b3efe0f3e7ebbe98e4cb27ca89ace1f9b54c5ef940c65adf49624e787815250816080015160078151811061098957610988612dfa565b5b602002602001018190525060405180604001604052807f1013858c587ea7ba65f2368cd837404e87f93a10e5753901cfa4cbbaab874d8581526020017f2290da55cd351dd191e62f796a76e3c620000ba47a6433527df40c125e38af298152508160800151600881518110610a0157610a00612dfa565b5b602002602001018190525060405180604001604052807f097ee13e4b1381d9d89ccc33b792df67896dfc139e02ee702304c5693ed863a081526020017f2a436dd87f910fde83016e20e71a53c3027522ed3d5b31f67091aa055df35b288152508160800151600981518110610a7957610a78612dfa565b5b602002602001018190525060405180604001604052807f0acc0787d2d61b79b90d0161e10d7d48494e33a309247345104a105226a5999b81526020017f1d5c7f9eab196e92bfcbe3f585f75284bcd66a6b9f8d0c8fd3e3d3081d94eb2a8152508160800151600a81518110610af157610af0612dfa565b5b602002602001018190525060405180604001604052807f02369480520333426d1fff13d0fc9b2fe8e8e4ad0b9b38d95318ed9aa8e3b80e81526020017f0996e7a7be0a50f7e0aa5d61c4c70f97da399547548913117496a62f63dba42d8152508160800151600b81518110610b6957610b68612dfa565b5b602002602001018190525060405180604001604052807f028ae099810fbce21cdd300ad5656cacf6b742e05116d518ec0d868a9e40291f81526020017f0c91729909d976853e54231da96a4ef55b89363bfebbb2260354ac794ad76fcc8152508160800151600c81518110610be157610be0612dfa565b5b602002602001018190525060405180604001604052807f02433e743cf0dcb7d2aab6aa63519b627c21884d90313fbc54bdb5de6596e37581526020017f23615823097f32ff71470d224eb3848a1b040685cb00beb8c231db33a70cd35d8152508160800151600d81518110610c5957610c58612dfa565b5b602002602001018190525060405180604001604052807f2f47483ce99f866331af9cbc54b0de2991dc555eb6c3ce4e5dea12450c6c464c81526020017f0d4db8338af41262698b4e91cd577c31e27af31a7a59cb831d22c541544132728152508160800151600e81518110610cd157610cd0612dfa565b5b602002602001018190525060405180604001604052807f2b2e57f879aa67f6998f681ae12d1afb9c13c495a9eda6b3965402d61ba1c05881526020017e515588136092a67586391aaca99f0450565f022529f50c19f9dd69765e0c228152508160800151600f81518110610d4857610d47612dfa565b5b602002602001018190525060405180604001604052807f2b501dfd078d8ed021d673a46443b9b9aae06dfaad890bc257f3b8f5f812679581526020017f1c0e071070ce6c7776667a4274d8aeba84a72e9f0414ed027a7516b2c45779be8152508160800151601081518110610dc057610dbf612dfa565b5b602002602001018190525060405180604001604052807f1e5205cc0633ae654bffdb2ea891789a4926e07c90270138080916d43f89c64981526020017f214b26ec85e9af99e9d70b4384dfe740a37ade813dbc8605fb3ac77b56131cd08152508160800151601181518110610e3857610e37612dfa565b5b602002602001018190525060405180604001604052807f197e4bd4b8b3138b747fb00af2002619472fcd15c669ee0c2564211671ea536e81526020017f296cda15813b298c6e49ce383132b2dea145a7f9c0e98e8f41a3054eaba23d608152508160800151601281518110610eb057610eaf612dfa565b5b602002602001018190525060405180604001604052807f2fb2c4a5f2fde555ba6e04ca42399b1882907fa2d96fa2e650f0c7b9f333340781526020017f1765a4bec71b2b017f493407c809d8dfd74b77d8c7d41871ed55705ccaa463a08152508160800151601381518110610f2857610f27612dfa565b5b602002602001018190525060405180604001604052807f1d4ea688779bc2e9532542c67a48372d54b3ecbcd4883db6d0371a4989bae85681526020017f0cbfe939eb2df83bdd79e5cd2b3ce50452eda0f5fb33f9dd8a6d962ae677f4be8152508160800151601481518110610fa057610f9f612dfa565b5b602002602001018190525060405180604001604052807f10591fcbfe21545d3cf5557e2ac5ed998772ac4b47e825d39f3503a51235841c81526020017f2a416219a81d4c8a71bd3d24e5763a3d2feefca1e5068ffba858993525fedc1d815250816080015160158151811061101857611017612dfa565b5b602002602001018190525060405180604001604052807f26e2893c2d9c8baa4a93a4998d38b49082e905f6edf3c871ffdf7b80184926ce81526020017f1f4fb29a01092562cad8a3cff94a643ef9a5adb5f0f306e11d8da38a29dcdc2581525081608001516016815181106110905761108f612dfa565b5b602002602001018190525060405180604001604052807f26279c7a8f6396cebf153f9e929444c126a1a712c51ac0939d524c9ee8cf1f0181526020017e9c0447b25739f4a88a069d1333f9ce3b6def9215fad63f1ff89dc88a51fc03815250816080015160178151811061110757611106612dfa565b5b602002602001018190525060405180604001604052807f07157049cf3b27a1d0669d83ac3e87ec52c5f409d41f3136f82db7a12e184ecd81526020017f14f6b1730e5c55cfc8d068756c91cf6b6fa63fb2c7c89ae67f092602a9095374815250816080015160188151811061117f5761117e612dfa565b5b602002602001018190525060405180604001604052807f2fee092fb5e5b22b9cb4c11f98d23a128d9426cedfb5d832cbeeb06b52ef926a81526020017f0e66fc5f06d09395f35e37fd0754cd21a658c4ff3d7e8eea134a815ec2e1a32381525081608001516019815181106111f7576111f6612dfa565b5b602002602001018190525060405180604001604052807f2e9abe4735ebcaf5c6f1d0acafd38be2a9a543e160637bbdb23771e48064fd9281526020017f223b9c43bb416fd26bf5ee588a2f82e0ddcb75097bc7ad4b8885376a7e53265a8152508160800151601a8151811061126f5761126e612dfa565b5b602002602001018190525060405180604001604052807f1b7aea1fb1c1aba4a55a5223c77f01c86513bbecd4fe30351aecab0b358fb78c81526020017f1008f27c5a1402ac37b8afcf347609d1b724ea79f655f95cca5c49c426fa80948152508160800151601b815181106112e7576112e6612dfa565b5b602002602001018190525060405180604001604052807f207c0a11c8c1a3a1654a26ed1d38d0a8d3783267eb1ba74904ee212cfaa4aacf81526020017f21edf24b087bd764bce2c27995bcc8bc927e903ccbd8dacc10e86d9bd44343038152508160800151601c8151811061135f5761135e612dfa565b5b602002602001018190525060405180604001604052807f09832e2deb5eb4647354ffbc435a0dd538989ac96e2cbbeadff4d8f810a7c51a81526020017f18832981bf97b9a8f85bbb14d00cfd46119b52e53247241b9e35e62fb025efb28152508160800151601d815181106113d7576113d6612dfa565b5b602002602001018190525060405180604001604052807f2878b9dbf5fcc34d7cae84e2e9999266972e98d94e6de7abedd3211abf90e8fc81526020017f0e0f2be7a4cdd154db3d77aaae3494eb672edd8729a9c51826e268d9c69d53198152508160800151601e8151811061144f5761144e612dfa565b5b602002602001018190525060405180604001604052807f0c31b1e570d2d0ba98442df6a601c4e50794b6022667ef722c06b8103621954d81526020017f297015e4b439197d78a685acc66a1e9cb57c3e1f611545f5d9a8ea5a40599dc58152508160800151601f815181106114c7576114c6612dfa565b5b602002602001018190525060405180604001604052807f2164ca81e34bfab378fd55cb6e322850b91250c6ce04b17ed37721e5d5f9e99081526020017f14a261721a51e55a12435fe8e174df3c14a534bb6e548f03b12f3b8211d25760815250816080015160208151811061153f5761153e612dfa565b5b602002602001018190525060405180604001604052807f15795ade1a2a2f3bab773eae9a3603b8b85e48d93e6cd30fd355542241fa95ca81526020017f0284f3ed6febfbbb593d10b9e15ace96a2d68d9fb3ec5c7eff9c6c9a2068525b81525081608001516021815181106115b7576115b6612dfa565b5b602002602001018190525060405180604001604052807f2091e06c95251d5b712fc991744a888a1c0b6a12104779125fb670af19a58fc481526020017f027503f786b4c0ec41cedc5d86c0529bb8f3d4e18085a4436d15afcaa66653ea815250816080015160228151811061162f5761162e612dfa565b5b602002602001018190525060405180604001604052807f15a804a9b08c4c5faec7fe3b2fb6d58a33e5ec8945cce9b97dfe5f67484cef9381526020017f2f26086b1f2dafbb912edd2fae3f7814ec625d821ae37c21c7552ee104411c4f81525081608001516023815181106116a7576116a6612dfa565b5b602002602001018190525060405180604001604052807f0f15a9962051e91040db43d3a6bec763a6a6172b1f89f98bb7767426fdcef39d81526020017f28bf5d6db18192b6ff2169f9560a3f61326ff877919ef82c1b1c515108d0d882815250816080015160248151811061171f5761171e612dfa565b5b602002602001018190525060405180604001604052807f11c8412c8dda15bfa3207cdb2c71efb0f4cca0b02fdba798be27e649ef86d31581526020017f2d5f8a1c7d4e0d63b35f5e2ecf39afe4f27b21bc4940885de4f63233ff1b6b1d815250816080015160258151811061179757611796612dfa565b5b602002602001018190525060405180604001604052807f180cc1601065291d987c417c4895d9830c8fb3e9afeaa5eaf4362cd9c0647ccd81526020017f28e8047ee4e7d824d8583f5fc29e24007e99779c42f3d92ef3e753f51ad86da8815250816080015160268151811061180f5761180e612dfa565b5b602002602001018190525060405180604001604052807f1802ec16440f9de9da6c44f51e916e8ea647ddfa24d72c11db9dac48929c607c81526020017f235991b0c7e1135b05cbe763c4c238ed9d2dfac39320d58dfbc0377581139dd5815250816080015160278151811061188757611886612dfa565b5b602002602001018190525060405180604001604052807f25e205b54c6746553d645b9984fd4c439fce9b2e2ab26c2b498d6b4368e8079a81526020017f1e03f921fba09e542af7c4775a0d9463ad43ab7d11055712303763654635763c81525081608001516028815181106118ff576118fe612dfa565b5b602002602001018190525060405180604001604052807f2fc9a7a4971585b9e15910dad4fe29ee21a314bc4120f9f38a9e04e152c9b84d81526020017f20b6b471534ea04ee7e8c1156f77ca35de82a5b9d0625f44372fbe87062908b4815250816080015160298151811061197757611976612dfa565b5b602002602001018190525060405180604001604052807f0823f0043e80a0719cebdbd94071b59836757d1de56e2f81340c31667688895881526020017f2ef49e8aeb916c75ef4d9919a0a38ea1d6a8575f5354914c5b0920aa19e4912a8152508160800151602a815181106119ef576119ee612dfa565b5b602002602001018190525060405180604001604052807f13ae71d4522a2e324dc81c07997a58289273928768e932689994622b94e355c981526020017ef56f36fadf178fcc270e5a79b2489cb3a371eec360820eeba1ae1f4bb479768152508160800151602b81518110611a6657611a65612dfa565b5b602002602001018190525060405180604001604052807f1d05a5837da0a771ee3654301ef2b7beeb344be9af57d5c30deda67f5218404781526020017f2a93e0dd00fff56d0b2814a432e56a2918d37a238f901b707fd78fd7134c11828152508160800151602c81518110611ade57611add612dfa565b5b602002602001018190525060405180604001604052807f03b55018c306fd3c4409e502d0367e0546f809a4b8316a7563d26cb41b9cc09d81526020017f0487dc38b20c28721916d84c81b255cd8e7f7504ec8fb92dbfd79cb3cd6d7bf88152508160800151602d81518110611b5657611b55612dfa565b5b602002602001018190525060405180604001604052807f0d342995dbdd33b928a014735376a529aaea65d1dd0a53d4e24615b1deff6dcb81526020017f21bf7326bb71a7511042cbc75d82c73e1fffd4a8d66250bf9bee1cf8240d6d5a8152508160800151602e81518110611bce57611bcd612dfa565b5b602002602001018190525060405180604001604052807f0b3f3024676cede871a5032cfbe29653b66068e3e5ae6c4acd7fb7822e1875e481526020017f2b794e5602721de34742dca745df0a1b0fea6365c6995cc9f7616bf80ef779b38152508160800151602f81518110611c4657611c45612dfa565b5b602002602001018190525060405180604001604052807f0d905c01705e9813e75d97c41646a336fc7e53fad2cacff9c3b89c69aebc7d7f81526020017f0ee0cee2476a5aee8f8338f7c2950fd423e577aa4771e4070c74b9e56168af098152508160800151603081518110611cbe57611cbd612dfa565b5b602002602001018190525060405180604001604052807f0ba8c9556357805c7bd5fbc5cf24a2aa4e3d858c1ee86a08adc665f1b4036b0481526020017f0c9f1cdc6c252cb195eca9745dec371c6f225318dab0433c6b1a284b278c586e8152508160800151603181518110611d3657611d35612dfa565b5b602002602001018190525060405180604001604052807f2fb81ff046c6c2e9118e2fcec86ffbfe9391028d94af7da3a3c3fabace70fab381526020017f148ed40cc7bda961d9324e0a4200c503c7db745f8ff3446289c1f94219c6a1798152508160800151603281518110611dae57611dad612dfa565b5b602002602001018190525060405180604001604052807f2459482ed2a859bdefc5c14a322f4eae35a116b31e9e3af64aa81f334edf6b9c81526020017f03487098f1d68c824f7b0307f33a8bbd4d30636dc439d657468a55b5540c47ce8152508160800151603381518110611e2657611e25612dfa565b5b602002602001018190525060405180604001604052807f03aa6df06ec48a1b6f065a838c4c62e1133b86d94e7769a901b420ae9252e8fd81526020017f2b1cc9ee8fa443f217ae5cae1579ff3597a4ceae8c5e67852ad141dffc9a214f8152508160800151603481518110611e9e57611e9d612dfa565b5b602002602001018190525060405180604001604052807f1c34e36b00db3c49f0d7ede436f570d5c4c013b3d24d2fd618e43a215f7191f881526020017f1f00daac177d93a5c34ca4122ed87c0e8e44fe1eb7c4a0a631ab43ca62e779748152508160800151603581518110611f1657611f15612dfa565b5b602002602001018190525060405180604001604052807f070cbfc7f432707fffb6d111e4c4e7c4d36a7b37f023b189f4a655680447560981526020017f1dc1c24c74e2f21961cb33ce3d97cd28d802b41bd08e41334521ea6678e2982c8152508160800151603681518110611f8e57611f8d612dfa565b5b602002602001018190525060405180604001604052807f0aebdf705513f6cb989bb7b1270d9e2c76669bbe2d1705c0d175aafab3818aad81526020017f13aa62f56d11c537533f874bb88b26907010c9f3a9a69fd5896459a4fb7260be815250816080015160378151811061200657612005612dfa565b5b602002602001018190525060405180604001604052807f1ec2f70315abbc67d9f20f1045e2f15fd1cc1f57b72cb6fc7d153b03fc16fddf81526020017f1062709f3552c279818c96867ec91eb6e0e17783427398530a79efaf56d95bd9815250816080015160388151811061207e5761207d612dfa565b5b602002602001018190525090565b612094612814565b61209c61282e565b8360000151816000600381106120b5576120b4612dfa565b5b6020020181815250508360200151816001600381106120d7576120d6612dfa565b5b60200201818152505082816002600381106120f5576120f4612dfa565b5b602002018181525050600060608360808460076107d05a03fa9050806000811461211e57612120565bfe5b508061212b57600080fd5b505092915050565b61213b612814565b612143612850565b83600001518160006004811061215c5761215b612dfa565b5b60200201818152505083602001518160016004811061217e5761217d612dfa565b5b6020020181815250508260000151816002600481106121a05761219f612dfa565b5b6020020181815250508260200151816003600481106121c2576121c1612dfa565b5b602002018181525050600060608360c08460066107d05a03fa905080600081146121eb576121ed565bfe5b50806121f857600080fd5b505092915050565b612208612814565b60007f30644e72e131a029b85045b68181585d97816a916871ca8d3c208c16d87cfd47905060008360000151148015612245575060008360200151145b156122695760405180604001604052806000815260200160008152509150506122a0565b60405180604001604052808460000151815260200182856020015161228e9190612d6b565b836122999190612ca7565b8152509150505b919050565b600080600467ffffffffffffffff8111156122c3576122c2612e29565b5b6040519080825280602002602001820160405280156122fc57816020015b6122e9612814565b8152602001906001900390816122e15790505b5090506000600467ffffffffffffffff81111561231c5761231b612e29565b5b60405190808252806020026020018201604052801561235557816020015b612342612872565b81526020019060019003908161233a5790505b5090508a8260008151811061236d5761236c612dfa565b5b6020026020010181905250888260018151811061238d5761238c612dfa565b5b602002602001018190525086826002815181106123ad576123ac612dfa565b5b602002602001018190525084826003815181106123cd576123cc612dfa565b5b602002602001018190525089816000815181106123ed576123ec612dfa565b5b6020026020010181905250878160018151811061240d5761240c612dfa565b5b6020026020010181905250858160028151811061242d5761242c612dfa565b5b6020026020010181905250838160038151811061244d5761244c612dfa565b5b60200260200101819052506124628282612472565b9250505098975050505050505050565b6000815183511461248257600080fd5b60008351905060006006826124979190612c4d565b905060008167ffffffffffffffff8111156124b5576124b4612e29565b5b6040519080825280602002602001820160405280156124e35781602001602082028036833780820191505090505b50905060005b838110156127685786818151811061250457612503612dfa565b5b6020026020010151600001518260006006846125209190612c4d565b61252a9190612bf7565b8151811061253b5761253a612dfa565b5b60200260200101818152505086818151811061255a57612559612dfa565b5b6020026020010151602001518260016006846125769190612c4d565b6125809190612bf7565b8151811061259157612590612dfa565b5b6020026020010181815250508581815181106125b0576125af612dfa565b5b6020026020010151600001516001600281106125cf576125ce612dfa565b5b60200201518260026006846125e49190612c4d565b6125ee9190612bf7565b815181106125ff576125fe612dfa565b5b60200260200101818152505085818151811061261e5761261d612dfa565b5b60200260200101516000015160006002811061263d5761263c612dfa565b5b60200201518260036006846126529190612c4d565b61265c9190612bf7565b8151811061266d5761266c612dfa565b5b60200260200101818152505085818151811061268c5761268b612dfa565b5b6020026020010151602001516001600281106126ab576126aa612dfa565b5b60200201518260046006846126c09190612c4d565b6126ca9190612bf7565b815181106126db576126da612dfa565b5b6020026020010181815250508581815181106126fa576126f9612dfa565b5b60200260200101516020015160006002811061271957612718612dfa565b5b602002015182600560068461272e9190612c4d565b6127389190612bf7565b8151811061274957612748612dfa565b5b602002602001018181525050808061276090612d22565b9150506124e9565b50612771612898565b6000602082602086026020860160086107d05a03fa9050806000811461279657612798565bfe5b50806127a357600080fd5b6000826000600181106127b9576127b8612dfa565b5b602002015114159550505050505092915050565b6040518060a001604052806127e0612814565b81526020016127ed612872565b81526020016127fa612872565b8152602001612807612872565b8152602001606081525090565b604051806040016040528060008152602001600081525090565b6040518060600160405280600390602082028036833780820191505090505090565b6040518060800160405280600490602082028036833780820191505090505090565b60405180604001604052806128856128ba565b81526020016128926128ba565b81525090565b6040518060200160405280600190602082028036833780820191505090505090565b6040518060400160405280600290602082028036833780820191505090505090565b60006128ef6128ea84612bab565b612b86565b9050808285602086028201111561290957612908612e62565b5b60005b85811015612939578161291f8882612b05565b84526020840193506020830192505060018101905061290c565b5050509392505050565b600061295661295184612bd1565b612b86565b905080828560208602820111156129705761296f612e62565b5b60005b858110156129a057816129868882612b05565b845260208401935060208301925050600181019050612973565b5050509392505050565b600082601f8301126129bf576129be612e58565b5b60026129cc8482856128dc565b91505092915050565b600082601f8301126129ea576129e9612e58565b5b60386129f7848285612943565b91505092915050565b600060408284031215612a1657612a15612e5d565b5b612a206040612b86565b90506000612a3084828501612b05565b6000830152506020612a4484828501612b05565b60208301525092915050565b600060808284031215612a6657612a65612e5d565b5b612a706040612b86565b90506000612a80848285016129aa565b6000830152506040612a94848285016129aa565b60208301525092915050565b60006101008284031215612ab757612ab6612e5d565b5b612ac16060612b86565b90506000612ad184828501612a00565b6000830152506040612ae584828501612a50565b60208301525060c0612af984828501612a00565b60408301525092915050565b600081359050612b1481612e7d565b92915050565b6000806108008385031215612b3257612b31612e67565b5b6000612b4085828601612aa0565b925050610100612b52858286016129d5565b9150509250929050565b612b6581612cdb565b82525050565b6000602082019050612b806000830184612b5c565b92915050565b6000612b90612ba1565b9050612b9c8282612cf1565b919050565b6000604051905090565b600067ffffffffffffffff821115612bc657612bc5612e29565b5b602082029050919050565b600067ffffffffffffffff821115612bec57612beb612e29565b5b602082029050919050565b6000612c0282612ce7565b9150612c0d83612ce7565b9250827fffffffffffffffffffffffffffffffffffffffffffffffffffffffffffffffff03821115612c4257612c41612d9c565b5b828201905092915050565b6000612c5882612ce7565b9150612c6383612ce7565b9250817fffffffffffffffffffffffffffffffffffffffffffffffffffffffffffffffff0483118215151615612c9c57612c9b612d9c565b5b828202905092915050565b6000612cb282612ce7565b9150612cbd83612ce7565b925082821015612cd057612ccf612d9c565b5b828203905092915050565b60008115159050919050565b6000819050919050565b612cfa82612e6c565b810181811067ffffffffffffffff82111715612d1957612d18612e29565b5b80604052505050565b6000612d2d82612ce7565b91507fffffffffffffffffffffffffffffffffffffffffffffffffffffffffffffffff821415612d6057612d5f612d9c565b5b600182019050919050565b6000612d7682612ce7565b9150612d8183612ce7565b925082612d9157612d90612dcb565b5b828206905092915050565b7f4e487b7100000000000000000000000000000000000000000000000000000000600052601160045260246000fd5b7f4e487b7100000000000000000000000000000000000000000000000000000000600052601260045260246000fd5b7f4e487b7100000000000000000000000000000000000000000000000000000000600052603260045260246000fd5b7f4e487b7100000000000000000000000000000000000000000000000000000000600052604160045260246000fd5b600080fd5b600080fd5b600080fd5b600080fd5b6000601f19601f8301169050919050565b612e8681612ce7565b8114612e9157600080fd5b5056fea2646970667358221220b02c6ee4ce396ae0283bcc563d55f3169ca982481c0d9552e28318f76bf0a9f064736f6c63430008060033608060405234801561001057600080fd5b50613a85806100206000396000f3fe608060405234801561001057600080fd5b506004361061002b5760003560e01c8063eefa323d14610030575b600080fd5b61004a600480360381019061004591906136d5565b610060565b6040516100579190613726565b60405180910390f35b600080605167ffffffffffffffff81111561007e5761007d6139e4565b5b6040519080825280602002602001820160405280156100ac5781602001602082028036833780820191505090505b50905060005b6051811015610105578381605181106100ce576100cd6139b5565b5b60200201518282815181106100e6576100e56139b5565b5b60200260200101818152505080806100fd906138dd565b9150506100b2565b506000610112828661012e565b1415610122576001915050610128565b60009150505b92915050565b6000807f30644e72e131a029b85045b68181585d2833e84879b9709143e1f593f00000019050600061015e6102c5565b90508060800151516001865161017491906137b2565b1461017e57600080fd5b60006040518060400160405280600081526020016000815250905060005b865181101561023757838782815181106101b9576101b86139b5565b5b6020026020010151106101cb57600080fd5b6102228261021d85608001516001856101e491906137b2565b815181106101f5576101f46139b5565b5b60200260200101518a85815181106102105761020f6139b5565b5b6020026020010151612c47565b612cee565b9150808061022f906138dd565b91505061019c565b50610261818360800151600081518110610254576102536139b5565b5b6020026020010151612cee565b90506102a78560000151866020015161027984612dbb565b856040015161028b8a60400151612dbb565b876060015161029d8960000151612dbb565b8960200151612e60565b6102b757600193505050506102bf565b600093505050505b92915050565b6102cd613388565b60405180604001604052807f2b8f808f0c59ee9e10bed4a05f4e860587a72a60892744ea279b82941709f18181526020017f07bc556c891897c7cb95129d12366e11b64bc0bc1a7952912ac93cdcf5afc7638152508160000181905250604051806040016040528060405180604001604052807f305d831804b456605e37e9844d7a613cc8bcfffe9e8a23dc684ac3f82bc4ee5d81526020017f1b34a55531d4edda714d12fe0f3c35184c9d59b6e48839066517f986e2995dfa815250815260200160405180604001604052807f0da7f0515480703066d431bb4a6bd8f8241864eae0ec4a5183486db75a312b8f81526020017e460c53ea9f5a8bb9bf37e6716eed7f74199a54b3ebfd043d3954bb1a8413c08152508152508160200181905250604051806040016040528060405180604001604052807f1950004673ec441581f945c4604e8f6347449f56f399f5424219cc63599af4fe81526020017f268a2b6a75aa656f8e4c8cc4744e467999ed3b2e3f5af2858a7a9c09b3ac0ac3815250815260200160405180604001604052807f1facf4de23189655098e0907bdadff12f0a6f752bb088688a68593fed9317e2a81526020017f2abf066cf0513f57f8e51823389d61405a7c3eade00bd62b29eca6892ea292b38152508152508160400181905250604051806040016040528060405180604001604052807f28f6e07e88c6e6bdfe9e5f7f18b8936591913e2d937511b22731e3e100b0441481526020017f0c9f32d68de80ae7b1d78be828dd72a1ea0171273b924c4fd797d0af5dae8afa815250815260200160405180604001604052807f0e5521dbe05d26ce36a27c3a35fc748fd8ecd3f805e1f0f3c63a931cf48bedae81526020017f02c0622565578621ddc7f7969f42e0861a50a5ccc4a512224b6795336ba3261d8152508152508160600181905250605267ffffffffffffffff811115610593576105926139e4565b5b6040519080825280602002602001820160405280156105cc57816020015b6105b96133cf565b8152602001906001900390816105b15790505b50816080018190525060405180604001604052807f1d76732270c37e5cc7a7dfb6acc64751c737dc9b6cbe865b9af4f19f1fb8767281526020017f201e3d4f7959cec5600499b924dac2d507809954c55ac9067124e866108acb658152508160800151600081518110610642576106416139b5565b5b602002602001018190525060405180604001604052807f28308b88c19b06bfc35d0bdea051a618f56d12e52ad99e1565812aad5be6a05981526020017f0c017100b5ffce58353e7bb0caf8a5e7c15bd17a60b043908e96b7cab2fabe3b81525081608001516001815181106106ba576106b96139b5565b5b602002602001018190525060405180604001604052807f0651d224ca61db513cfae371e465454d4adac72cd7f61d2d8a9845137b5e170b81526020017f186797c2b751b47e435fe529029e25dc60efee15c207da37eb9382f986930c8b8152508160800151600281518110610732576107316139b5565b5b602002602001018190525060405180604001604052807f1bbed9ac9c10feecb4fa8e44f5617a7edc3d6db5087f88983fdfe4ae2af61e4281526020017f263951a2a6b7d10340df990b1eb58a46439bac9480df35a9a6ec44ee180c94b381525081608001516003815181106107aa576107a96139b5565b5b602002602001018190525060405180604001604052807f06638ae27bca2ac943a580a97e48ef939909f975aed6ed7adbd3dddece22e80b81526020017f024f50b514916c08d177fda5a876af3d2839ec4617ddae958a91c76a8b04aece8152508160800151600481518110610822576108216139b5565b5b602002602001018190525060405180604001604052807f01ca5738dc18cc0af7b08fc71aa1868c35aef50f07574b31b8d42f9198019f9b81526020017f2d7ee3443ab1b2ce564eb8dc92d949c37040de18606c14dd93ea1fe83ebd1d0a815250816080015160058151811061089a576108996139b5565b5b602002602001018190525060405180604001604052807f04ddf1582c4f7a3f0d60ee6fdb67172f4f725e2e2f242fd79e0e787c1d9853f581526020017f05180499139f73d43683ec41066a8cdce10c8c5ffdf931a6a42f1445718078538152508160800151600681518110610912576109116139b5565b5b602002602001018190525060405180604001604052807e370ded6b5afc6c766c6b1c31b586a988e5d2d98b44c98b511763890aa6679981526020017f1190063e48db1aa62959846c77ae6698171155f6e8874b5443615e9ab3915f248152508160800151600781518110610989576109886139b5565b5b602002602001018190525060405180604001604052807f1e486adbe00c33a19759921894b6a6597be16128f02261c417cf09cd7d2eecc981526020017f161932edeb7a2344e317bf3606534769bdcfa34e0145ce1ae587845d4af9762a8152508160800151600881518110610a0157610a006139b5565b5b602002602001018190525060405180604001604052807f14fe2b6947e472592748997f854e325098f2aa5ade99d05a704afcddbf0fc8aa81526020017f0fdff3a959a4820c006a68ac1bde9e67e021dc4dd7b4ebf359c8fd827275b4288152508160800151600981518110610a7957610a786139b5565b5b602002602001018190525060405180604001604052807f0b2820941c86160bc9ec41a837f1ec878ee576021127e7079de44992c726147581526020017f0439a36edece22d1782aaea533850d3c8125931fb1c58a74dfd610ae93e828ae8152508160800151600a81518110610af157610af06139b5565b5b602002602001018190525060405180604001604052807f21beac1ee6b407fe70285b9c80cee5a7445c0dedb17ed50827949f17faa5029c81526020017f27c75fb95f41acb1386df7a3d6558b63a0a254fc6219533a65efa360b0fa478f8152508160800151600b81518110610b6957610b686139b5565b5b602002602001018190525060405180604001604052807f12ed5939f8b4ab4fe9cf1945c56feda13ff44b30ee91d9d974a69799efaf41ad81526020017f1d1d40df32eac3c51382cf6bac0832f59cff77e378c7477ca59650eb57ff636a8152508160800151600c81518110610be157610be06139b5565b5b602002602001018190525060405180604001604052807f1bc46d057485c106d03f3b340b4ffcc7f590efa46368b40cdb8d073401f77ef981526020017f08d2237cb340f626ef41dfb195c65fb763ccc4fd5f8ddec89caf506bd5ece9c38152508160800151600d81518110610c5957610c586139b5565b5b602002602001018190525060405180604001604052807f2e02cf420c63657dee4169c9ab72e648015262dd73f44e6ba5afa8416a1d333b81526020017f1497c9e77fb9958b16871b12b91b468d2bb0ac43bd8c4b7639a70f0892d510cd8152508160800151600e81518110610cd157610cd06139b5565b5b602002602001018190525060405180604001604052807f180b9304376f99433d19e1cb1ca92d0a677d33db1be944f543255aa19b5641f781526020017f1e25b8219732a24fe018b05179cfbadfd7d21019ba25dba201c29563531231458152508160800151600f81518110610d4957610d486139b5565b5b602002602001018190525060405180604001604052807f1fe9f70820764e50188c346b034642ddc01ad82f3c09a1f98888c29982e9b7a581526020017f0dc8cb9ad2f2bc2d00e81d9283c15cd9d25a005b0b43a9694d24b4f27ccf5a598152508160800151601081518110610dc157610dc06139b5565b5b602002602001018190525060405180604001604052807f1cf298b87b0581894bd4e16555765873ca7a0e1e6886f32bf51542ec466596e081526020017f14fe1b25c66b9f4ebde4ecea93e666d18a1bdb347212d4509c3e2f9cf469a0888152508160800151601181518110610e3957610e386139b5565b5b602002602001018190525060405180604001604052807f24cd0d668e93100f41a4082cde60b23485a10a30fe996f826dad5461e5e7afac81526020017f0ffc522000e19dc8ce7123e342bf50ea2cb9dc1220177cf0435354b1f499a2bd8152508160800151601281518110610eb157610eb06139b5565b5b602002602001018190525060405180604001604052807f2f3131dad86e468fa56dcace00127883e33c1d37fa0194f17ccaaf2f5d7ca36681526020017f224c8a9a450b06896205c49658b3a4a3ac18374cd3fe24910832274dc3d111698152508160800151601381518110610f2957610f286139b5565b5b602002602001018190525060405180604001604052807f065998167e81f9f5c83fa57347d83098a0daca467d4768ae2eae85b3ec78b3a281526020017f29f580fb0c9dac3693ade9afcde73035b558d3b1c8345f64766b166d3c400b638152508160800151601481518110610fa157610fa06139b5565b5b602002602001018190525060405180604001604052807f2012020be15e814b944a26d3109479ee28b0e85f3d14704ac5d141c8a76a547f81526020017f1e13044b759307c725028910f7f8d749b6e2e2bfe6640354e946ea9b58af63f08152508160800151601581518110611019576110186139b5565b5b602002602001018190525060405180604001604052807f1da24732e012dcf09d855cd8c1fae841a94c0920c6ddb7f9a7b8dcf27cab217281526020017f046cc1a06162148f2c0ebe318a9187ba53b73e47ec773f77b09ce2558e892d5e8152508160800151601681518110611091576110906139b5565b5b602002602001018190525060405180604001604052807f2f2d93f8d2ad9323ad2c4c0cda9659bbc71c8050318a90ec9ab7e81ae8be6d0181526020017f2cc13cd666348c7a66fae9483381331f0edaaa3eec8b8552c10dc0ecf22b46b98152508160800151601781518110611109576111086139b5565b5b602002602001018190525060405180604001604052807f2b442d530049352e5d8e38b0b7ee03ea8c7dbbfe0bbdc1913fb2bf87027f3bf981526020017f2bf600f16a4c3dbd643ac6f240b91a63c5b62f8b68ce723ae86610d0b1a5c2028152508160800151601881518110611181576111806139b5565b5b602002602001018190525060405180604001604052807f27e4ab12fff93a24685bf555bef392b6787a01e18080bc75ba676c525b9afb4b81526020017f179660777bd4eeb680a0e87b5dd4d0bde5fb80c87edcd034aac752b14aa8c38381525081608001516019815181106111f9576111f86139b5565b5b602002602001018190525060405180604001604052807f18bfe30a1c8eb9baf2c52852dc84d3b18f39c9bb3e853a27948c3d4d45987ac081526020017f2055be10368ab0579175012d4a5296410c53d09fd6c1ab31f8c30141a1d6b78b8152508160800151601a81518110611271576112706139b5565b5b602002602001018190525060405180604001604052807f23745abf9cf3730877a814e0b85e5eb2b5607a4c9e2fe369b0c543a7f6b50c1581526020017f1d81336ca41d38b9d4dc2c22d04e4faaec6e7553cadec4cd287c5df2ba4838f98152508160800151601b815181106112e9576112e86139b5565b5b602002602001018190525060405180604001604052807f22afd2466fc028d58013c8c8aaa2bc79bc24515637974e4b22f289df05216a8481526020017f0e3f24c9c6e05669cd409b6ec17f130ecbdc1c4cd30517ade86d5979712a18c58152508160800151601c81518110611361576113606139b5565b5b602002602001018190525060405180604001604052807f0c593cdadd3a81b4dbd39ccb2426fdee09651e20eba5df8f1ac07f95ebf4bbea81526020017f206da793a2e36d0cd2844643ee3f1c842584aafabe759cee968dfe90da5cf24a8152508160800151601d815181106113d9576113d86139b5565b5b602002602001018190525060405180604001604052807f0b85adf426d0969f617275f353267a8467702eb9e59ed21c41c54573eb35417181526020017f058835246dce9b8b22b63225c3448623516921708518481715680deb56e94f6f8152508160800151601e81518110611451576114506139b5565b5b602002602001018190525060405180604001604052807f065a96a1fdbf31d7c9454329b46579e68d776abf53d0d9bceafc0c2c07ac7f2981526020017f1244b1ebd4a566accaafb0266c755e2050a317f7c41022a15872d23b2766d68a8152508160800151601f815181106114c9576114c86139b5565b5b602002602001018190525060405180604001604052807f10fa161f039ee5edadcb5d0f4239b6081b84497a61b9c35a52731ba5eb0326b581526020017f22ad07eba118e35cfd6b85cb3091e2b3dccf77d448b045bea9de2ec1cdc87ea58152508160800151602081518110611541576115406139b5565b5b602002602001018190525060405180604001604052807f0e45145caf15f6095797e471642fd025ccb206896ebd053df144251f9647a23081526020017f03cf5db66d08705e033d3c83933ea4b7ee1b82aa40307f4a1dec9b49ee05270e81525081608001516021815181106115b9576115b86139b5565b5b602002602001018190525060405180604001604052807f2d4eaedefd1fb7bdba4e0025449775656393fd261a7e8802a1cc85a0db248da881526020017f261c6fa7f0cd622e19d7704cbaa5dfb2fc9f9192a1529b80ec244bb7b530fab98152508160800151602281518110611631576116306139b5565b5b602002602001018190525060405180604001604052807f0c9fc9581e737ce7dcd32d31369d0eb3918ae4ada30af25a4b42e87d1bda30d981526020017f14203ac8e540474dac9498737c17a4e632a6cca94003bcf37216d670a5b6a28b81525081608001516023815181106116a9576116a86139b5565b5b602002602001018190525060405180604001604052807f06597eeeff3138452891433d24881fdf5316954618c2f996b21b4600246a94fd81526020017f1164ed7d4504190464ad846a0dc582aa0f91c3b56274501fbcac1447f437d34b8152508160800151602481518110611721576117206139b5565b5b602002602001018190525060405180604001604052807f25055d5c8721c57795f1998879874a403d5ccb6a57293eb96f4b31743cffbe7781526020017f2a83d717c34ee91d386b8faa4dc633cd9ed3433a63005c55f3f6319fce7e49cc8152508160800151602581518110611799576117986139b5565b5b602002602001018190525060405180604001604052807f0deb2242ee918a981b71bfa9af23d81c4471f5320517945f5d54d5dbc3ebc3e681526020017f04773c22094671de0c77cd056b228926aeeba8ad9127df5fe1d5e8ed93c1fb5e8152508160800151602681518110611811576118106139b5565b5b602002602001018190525060405180604001604052807f289f3d488acce2727438516c22a23a9de5540ce926456fd0a4aaaae8445b849981526020017f1b95df75164291fe0980670144ac88c44ae53901c3864e7c78b17f1cc43381fa8152508160800151602781518110611889576118886139b5565b5b602002602001018190525060405180604001604052807f0fa7bdef79b07f8af2a962974cbc8bebc49f3e1705aefca70096065e0469db2e81526020017f247477255d906614c551c359dce06a5663e4c36f90f35e3800d5e57443d1cdea8152508160800151602881518110611901576119006139b5565b5b602002602001018190525060405180604001604052807f036d9eb20c2c02d680c29f44624e5c01040a163409559c28f41d5634decd92a781526020017f244f2e76644ecd74ce8c6cf9458a7a0152734697abe6fc6eb023315f86aaf5f28152508160800151602981518110611979576119786139b5565b5b602002602001018190525060405180604001604052807f28dd925a1012487e3330b129284b8985df802c9950895dc53d3b0f550cfb301581526020017f1cfa08b7d09291f571ec72b5ddf4726c32bc9b05b7f20e8241144a3f5da51a048152508160800151602a815181106119f1576119f06139b5565b5b602002602001018190525060405180604001604052807f16912dd99715463b89c023d947eaee1f178b711e4874d80627dd233c561c4e4481526020017f201fa0727f0b9b906bb1c676745fe4c8b3ba755e45fd8fa25c86274a4f14b8438152508160800151602b81518110611a6957611a686139b5565b5b602002602001018190525060405180604001604052807f0700ec1beb95c56909fe2a11ab64b3f7c2347ea02ca115fe0304087e6a7f582a81526020017f13db93c7dcf9d175530fd059cb4072f82ac56779b5ab38fb94aca8af24e5153b8152508160800151602c81518110611ae157611ae06139b5565b5b602002602001018190525060405180604001604052807f05bbd089ab2592f29e6a207a4af1fd4d980a1433bba652cb61906166c78a821c81526020017f2e5b1c0916b355dd09282cddcd67f9776daa7d2acdb8919c4e8ae153812386cf8152508160800151602d81518110611b5957611b586139b5565b5b602002602001018190525060405180604001604052807f24a8362c215e16882da2c5d18d4e425a893a5464b8f27d08bd7896dfc4bfc28181526020017f1286a2b8e4d3eeb5587b462f620ffb4f1f556d37837397fe2eea4f50a1c0bbf98152508160800151602e81518110611bd157611bd06139b5565b5b602002602001018190525060405180604001604052807f2360ebaf387626d2087319d619aa8a3bc5f54b8f56e78e779c334be241a46b3381526020017f168e4c0315a6312be73f23a71867824a60c94605b49fcbd9eafc09713a06d8768152508160800151602f81518110611c4957611c486139b5565b5b602002602001018190525060405180604001604052807f2898ce2b1dbe77190102eaceb4719f8f0f2c9540ecb3772adcec447e36d7d63081526020017f079d9560cc79b9194651f267a5af8c0d43bf85d60992ea29db32dbe8b9ddd4dc8152508160800151603081518110611cc157611cc06139b5565b5b602002602001018190525060405180604001604052807f0b136e26436d50a70730dac1896a50e731887117c360e8f8c751d00d59d5fe2781526020017f24af85c3e9d573ed8c07ef56d9d68e95bb2241c433ff99f4fdc8ccec4b5c191e8152508160800151603181518110611d3957611d386139b5565b5b602002602001018190525060405180604001604052807f2efb37334e7207970586f439c6a412592a15e8f82bf0b722f7c5fe848c8dbf0281526020017f20fabe9ae584298ade6cbe1d0e39c96f2eff39932ebc5e60de25c900a6a1b0c68152508160800151603281518110611db157611db06139b5565b5b602002602001018190525060405180604001604052807f2e73b137f14af0d7611c9d19e6681e952e64c919f74c346a6660128ce9ef41b581526020017f0fbf8f47877e341b3464dfae7a62c989761d0ec67b07233d72de3577a04130808152508160800151603381518110611e2957611e286139b5565b5b602002602001018190525060405180604001604052807f03add1009b0598190ef334e909e03473691f7485163865f8042dba3d6a879ac681526020017f2f67d851c2107217ddc1a155c940d6573a8f8e40e9bb2ba39694675bd0589ad78152508160800151603481518110611ea157611ea06139b5565b5b602002602001018190525060405180604001604052807f0908cd99348a0b6e6846b4b796b28dbc3d165871feb52c9a61d7826f724ff7e281526020017f1ff0dee38287aef7cff30eed3e437dd81f085d0df92bb05dc36125d5f7295ee28152508160800151603581518110611f1957611f186139b5565b5b602002602001018190525060405180604001604052807f1f2360267115bae607b07c4950e0b35bbb69f4a651da77345bcb08b64d7a6c1a81526020017f2b4375c467623e21ff1afc1f56f7076cb6bd9461985fc054ed8c7146482a79c18152508160800151603681518110611f9157611f906139b5565b5b602002602001018190525060405180604001604052807f11d94d98c73431f58d402298165f83db2c85ff9446ec69b75cc08b498ffdb43b81526020017f229e493e7722e4d510e2f7fd05109e2f4ffb1678ee3ee95bccad5f964a5b614c8152508160800151603781518110612009576120086139b5565b5b602002602001018190525060405180604001604052807f171c671646eb833b6140f74b5e546de3a2f4b11a9b713c8ca22b6f27b22b351c81526020017f0c0c2f87135b90a2d9340d3ffe17e0ebdf7a1bb994d342b4ed367752c1f015f18152508160800151603881518110612081576120806139b5565b5b602002602001018190525060405180604001604052807f159b3c1b44e21977905e6f6976f447b6cca3da2b9af8d5f6d772fc9dd800d8ad81526020017f3062db182d46ba4ce01d3f0bf5fa1b36f1915e1bc9d84860d33c2bb73d81453681525081608001516039815181106120f9576120f86139b5565b5b602002602001018190525060405180604001604052807f11dd99eb9a154704ea5e77c01c7688d99b1168aac81071d51aa7dc6a3910ba0281526020017f05ab954bd8f0387fb1c80731bd2fcb24b35d880aa0e80e1e0cf6476700f016f28152508160800151603a81518110612171576121706139b5565b5b602002602001018190525060405180604001604052807f22c7e326359b26f7dac14787b5816b29fd0268454863d0ccd64c3fea794d322381526020017f1cf70fe29210d197744fba44ea28622f5812c048dbb6727820189575ac6c79d28152508160800151603b815181106121e9576121e86139b5565b5b602002602001018190525060405180604001604052807f18128d4a2b0d46cde262f7aeb3706b364090544308558881d94c7438f0b093e381526020017f093a67088c267ccb6d481fa3a7a8bd2f2a55fb2c2d679db56ac585bbe36e92578152508160800151603c81518110612261576122606139b5565b5b602002602001018190525060405180604001604052807f17b6fa6da550e000e7f2327a176e18abf79932a06af0bdc2a484620b77185ad281526020017f11d93af1ca4b36487a5fc9398fcaa2e8a46f891340c7a00442c0246c0118060c8152508160800151603d815181106122d9576122d86139b5565b5b602002602001018190525060405180604001604052807f25c8c7a895adbb8f8347bb47d6e43a390329a5d40cb7c1fb3215556bb9c43a9481526020017f261412caf090dc08f348dabac35e3c55886882cd85cf815c517c46f1ac890ca98152508160800151603e81518110612351576123506139b5565b5b602002602001018190525060405180604001604052807f0bd4c889e2db14fe42f92c3983c4ce98382f567999e90ebd72af1e78380622f481526020017f1153df892b935130b92b18a50f47cd97aea4d449690b08537b7f2e8632747cdf8152508160800151603f815181106123c9576123c86139b5565b5b602002602001018190525060405180604001604052807f10233de21868a0c36696d040d2903cddf3ac5e0a02a82621381f50cd8b368f6681526020017f23e3828e7c978898cfcecb3a76af0a885ddf7c6f9e7cb73c550e6cee06a0e7d08152508160800151604081518110612441576124406139b5565b5b602002602001018190525060405180604001604052807f08ba2225cff2ad5c8b628e2db673e9b554983622fb3cb5167585b91c20f533d881526020017f1b85fb84703a86cdf9d53b0ec28d2899ce6dabded3105418ffddc3c9f8cd011c81525081608001516041815181106124b9576124b86139b5565b5b602002602001018190525060405180604001604052807f2db77ecd864cb7d103d3ba4ee1b1c6d264e79b6b9a7867b37555efdcc0a1d60581526020017f069f490fa6416349bc9d6d47e713b411567dc65c7f295a34da0e4ebbc3d77ba18152508160800151604281518110612531576125306139b5565b5b602002602001018190525060405180604001604052807f03a225dc590d5e3eafae5e7f568cd82f8cb9bbb1969beafadb56561e1dd2391381526020017f274be07467bc8c47b71d3782b67f47f6685bcbe4757c4fbd235c89956857fb9781525081608001516043815181106125a9576125a86139b5565b5b602002602001018190525060405180604001604052807f16303866c8f2068c4e7746ff513d322f410caee28b9a1a5bd2512698c875447481526020017f041c1a58c079dd3d65f481a1a5a8ea01d340d94567babc20ff0f83909f0b76378152508160800151604481518110612621576126206139b5565b5b602002602001018190525060405180604001604052807f2c23adee4fe479b2a48155285b8726af1e51e84a10d66d26af3abb8e0ba304ef81526020017f29505e352a6af4da55866570f6310d26d77ba863647c73108c1d125923789b4a8152508160800151604581518110612699576126986139b5565b5b602002602001018190525060405180604001604052807f0e36f03817dd036e7135f7a872b067084b338a5e7b4948a41ec68e710dcd304c81526020017f23b41cd480dab0cc53117a804006a82959a210442ee186de156e18b5a78adc4c8152508160800151604681518110612711576127106139b5565b5b602002602001018190525060405180604001604052807f1900e5ea8a1c7ffe465bd817ec2a17b1bc2812693cbe4e1ba17c36af7f28e0ff81526020017f07a27e20c229119bc5f772f888fd5166fe45809b8b0c6f47d0c83b25b78926748152508160800151604781518110612789576127886139b5565b5b602002602001018190525060405180604001604052807f11bb10c71cd700a579fbacefebefbec5c7097c31103dc57b59f71db2448c1c5981526020017f04aa85d38e5b788809f41ae3b7fbc55692329aa46bb7c994e4bbc3d43212fe778152508160800151604881518110612801576128006139b5565b5b602002602001018190525060405180604001604052807f11cae0887e98c8c0d7489057fab1aa996b7b48466abcee7d2194bad20abbcd0781526020017f03d4bd2c18b60624728b7df6d6b3df03ae194bf613cbee5a7757aed2ba8c86278152508160800151604981518110612879576128786139b5565b5b602002602001018190525060405180604001604052807f2b80ba4ca6993ba1dca8ef569c6795681365475a834d815614228dc3823efd5181526020017f152a8d832a02d0ae6a0fd3b70c2b4944515c42794dd480a269d5c6befb4267eb8152508160800151604a815181106128f1576128f06139b5565b5b602002602001018190525060405180604001604052807f1ee46acec9ef941deeb3d8fe335f93a2ee331c553301afb8475aa1601034709481526020017f28541391a196b5a902b2515685c607086bed508ea7f499a45ef94c4ee8799c718152508160800151604b81518110612969576129686139b5565b5b602002602001018190525060405180604001604052807f0ba1ade875471718100b34411ac48cfa073a5061576990a714e300dc5293d6b581526020017f1ffcc0c40f91cd25d7ff95f2b1e1c9250a4a3b30f8e693e830896d3c11d804b78152508160800151604c815181106129e1576129e06139b5565b5b602002602001018190525060405180604001604052807f0db89d812bcd8faa16752413e7598077093c0edf5d237d54941830bf60162b0481526020017f02f71084266339307c9225de8209d07fe29df456fbb528dbccfc7f49682b31a58152508160800151604d81518110612a5957612a586139b5565b5b602002602001018190525060405180604001604052807f0cff924b4da3a033392ee7c56ae9e96eda31baf22772bab86fa2b5af546308e581526020017f29f2f0b2b71a378fe64d7e88b84585cd8406a3bb1a878da876f868a62834347f8152508160800151604e81518110612ad157612ad06139b5565b5b602002602001018190525060405180604001604052807f1a7bc097f4863e13c58b1acd05f878806779f39dc6157c31ac5aca4b42dc0a6681526020017f03e3e3f1b34606c31b6490ee340ae8021fb6d7bb8e77bea99ef795caadd543e98152508160800151604f81518110612b4957612b486139b5565b5b602002602001018190525060405180604001604052807f21eff94e793e9fe7035d8953e2d88b74190d76d270ae14acf098ca6d35e0b9d481526020017f1832d36da7ed48fe56af662d24f6b1e2e14b4bece892bce6f597663e785c66878152508160800151605081518110612bc157612bc06139b5565b5b602002602001018190525060405180604001604052807f0bb90ad22ca7971293a0788a31054168cd44c6fee5ec53eaca88a72661a61b4f81526020017f0be9e6a787182470ea349c52ccaa5bf4ea17156f35a7c134fa15851451720e1a8152508160800151605181518110612c3957612c386139b5565b5b602002602001018190525090565b612c4f6133cf565b612c576133e9565b836000015181600060038110612c7057612c6f6139b5565b5b602002018181525050836020015181600160038110612c9257612c916139b5565b5b6020020181815250508281600260038110612cb057612caf6139b5565b5b602002018181525050600060608360808460076107d05a03fa90508060008114612cd957612cdb565bfe5b5080612ce657600080fd5b505092915050565b612cf66133cf565b612cfe61340b565b836000015181600060048110612d1757612d166139b5565b5b602002018181525050836020015181600160048110612d3957612d386139b5565b5b602002018181525050826000015181600260048110612d5b57612d5a6139b5565b5b602002018181525050826020015181600360048110612d7d57612d7c6139b5565b5b602002018181525050600060608360c08460066107d05a03fa90508060008114612da657612da8565bfe5b5080612db357600080fd5b505092915050565b612dc36133cf565b60007f30644e72e131a029b85045b68181585d97816a916871ca8d3c208c16d87cfd47905060008360000151148015612e00575060008360200151145b15612e24576040518060400160405280600081526020016000815250915050612e5b565b604051806040016040528084600001518152602001828560200151612e499190613926565b83612e549190613862565b8152509150505b919050565b600080600467ffffffffffffffff811115612e7e57612e7d6139e4565b5b604051908082528060200260200182016040528015612eb757816020015b612ea46133cf565b815260200190600190039081612e9c5790505b5090506000600467ffffffffffffffff811115612ed757612ed66139e4565b5b604051908082528060200260200182016040528015612f1057816020015b612efd61342d565b815260200190600190039081612ef55790505b5090508a82600081518110612f2857612f276139b5565b5b60200260200101819052508882600181518110612f4857612f476139b5565b5b60200260200101819052508682600281518110612f6857612f676139b5565b5b60200260200101819052508482600381518110612f8857612f876139b5565b5b60200260200101819052508981600081518110612fa857612fa76139b5565b5b60200260200101819052508781600181518110612fc857612fc76139b5565b5b60200260200101819052508581600281518110612fe857612fe76139b5565b5b60200260200101819052508381600381518110613008576130076139b5565b5b602002602001018190525061301d828261302d565b9250505098975050505050505050565b6000815183511461303d57600080fd5b60008351905060006006826130529190613808565b905060008167ffffffffffffffff8111156130705761306f6139e4565b5b60405190808252806020026020018201604052801561309e5781602001602082028036833780820191505090505b50905060005b83811015613323578681815181106130bf576130be6139b5565b5b6020026020010151600001518260006006846130db9190613808565b6130e591906137b2565b815181106130f6576130f56139b5565b5b602002602001018181525050868181518110613115576131146139b5565b5b6020026020010151602001518260016006846131319190613808565b61313b91906137b2565b8151811061314c5761314b6139b5565b5b60200260200101818152505085818151811061316b5761316a6139b5565b5b60200260200101516000015160016002811061318a576131896139b5565b5b602002015182600260068461319f9190613808565b6131a991906137b2565b815181106131ba576131b96139b5565b5b6020026020010181815250508581815181106131d9576131d86139b5565b5b6020026020010151600001516000600281106131f8576131f76139b5565b5b602002015182600360068461320d9190613808565b61321791906137b2565b81518110613228576132276139b5565b5b602002602001018181525050858181518110613247576132466139b5565b5b602002602001015160200151600160028110613266576132656139b5565b5b602002015182600460068461327b9190613808565b61328591906137b2565b81518110613296576132956139b5565b5b6020026020010181815250508581815181106132b5576132b46139b5565b5b6020026020010151602001516000600281106132d4576132d36139b5565b5b60200201518260056006846132e99190613808565b6132f391906137b2565b81518110613304576133036139b5565b5b602002602001018181525050808061331b906138dd565b9150506130a4565b5061332c613453565b6000602082602086026020860160086107d05a03fa9050806000811461335157613353565bfe5b508061335e57600080fd5b600082600060018110613374576133736139b5565b5b602002015114159550505050505092915050565b6040518060a0016040528061339b6133cf565b81526020016133a861342d565b81526020016133b561342d565b81526020016133c261342d565b8152602001606081525090565b604051806040016040528060008152602001600081525090565b6040518060600160405280600390602082028036833780820191505090505090565b6040518060800160405280600490602082028036833780820191505090505090565b6040518060400160405280613440613475565b815260200161344d613475565b81525090565b6040518060200160405280600190602082028036833780820191505090505090565b6040518060400160405280600290602082028036833780820191505090505090565b60006134aa6134a584613766565b613741565b905080828560208602820111156134c4576134c3613a1d565b5b60005b858110156134f457816134da88826136c0565b8452602084019350602083019250506001810190506134c7565b5050509392505050565b600061351161350c8461378c565b613741565b9050808285602086028201111561352b5761352a613a1d565b5b60005b8581101561355b578161354188826136c0565b84526020840193506020830192505060018101905061352e565b5050509392505050565b600082601f83011261357a57613579613a13565b5b6002613587848285613497565b91505092915050565b600082601f8301126135a5576135a4613a13565b5b60516135b28482856134fe565b91505092915050565b6000604082840312156135d1576135d0613a18565b5b6135db6040613741565b905060006135eb848285016136c0565b60008301525060206135ff848285016136c0565b60208301525092915050565b60006080828403121561362157613620613a18565b5b61362b6040613741565b9050600061363b84828501613565565b600083015250604061364f84828501613565565b60208301525092915050565b6000610100828403121561367257613671613a18565b5b61367c6060613741565b9050600061368c848285016135bb565b60008301525060406136a08482850161360b565b60208301525060c06136b4848285016135bb565b60408301525092915050565b6000813590506136cf81613a38565b92915050565b600080610b2083850312156136ed576136ec613a22565b5b60006136fb8582860161365b565b92505061010061370d85828601613590565b9150509250929050565b61372081613896565b82525050565b600060208201905061373b6000830184613717565b92915050565b600061374b61375c565b905061375782826138ac565b919050565b6000604051905090565b600067ffffffffffffffff821115613781576137806139e4565b5b602082029050919050565b600067ffffffffffffffff8211156137a7576137a66139e4565b5b602082029050919050565b60006137bd826138a2565b91506137c8836138a2565b9250827fffffffffffffffffffffffffffffffffffffffffffffffffffffffffffffffff038211156137fd576137fc613957565b5b828201905092915050565b6000613813826138a2565b915061381e836138a2565b9250817fffffffffffffffffffffffffffffffffffffffffffffffffffffffffffffffff048311821515161561385757613856613957565b5b828202905092915050565b600061386d826138a2565b9150613878836138a2565b92508282101561388b5761388a613957565b5b828203905092915050565b60008115159050919050565b6000819050919050565b6138b582613a27565b810181811067ffffffffffffffff821117156138d4576138d36139e4565b5b80604052505050565b60006138e8826138a2565b91507fffffffffffffffffffffffffffffffffffffffffffffffffffffffffffffffff82141561391b5761391a613957565b5b600182019050919050565b6000613931826138a2565b915061393c836138a2565b92508261394c5761394b613986565b5b828206905092915050565b7f4e487b7100000000000000000000000000000000000000000000000000000000600052601160045260246000fd5b7f4e487b7100000000000000000000000000000000000000000000000000000000600052601260045260246000fd5b7f4e487b7100000000000000000000000000000000000000000000000000000000600052603260045260246000fd5b7f4e487b7100000000000000000000000000000000000000000000000000000000600052604160045260246000fd5b600080fd5b600080fd5b600080fd5b600080fd5b6000601f19601f8301169050919050565b613a41816138a2565b8114613a4c57600080fd5b5056fea2646970667358221220ae195c1e5c6f2aa71bdbf9f27be1842dd0b439c63da88598714eb957a9f2ae6a64736f6c63430008060033",
  "linkReferences": {},
  "deployedLinkReferences": {}
}