{
  "_format": "hh-sol-artifact-1",
  "contractName": "FLSC",
  "sourceName": "contracts/FLSC.sol",
  "abi": [
    {
      "inputs": [
        {
          "internalType": "uint32",
          "name": "_number_of_entities",
          "type": "uint32"
        },
        {
          "internalType": "uint32",
          "name": "_number_of_features",
          "type": "uint32"
        },
        {
          "internalType": "uint256",
          "name": "_funding",
          "type": "uint256"
        },
        {
          "internalType": "uint256",
          "name": "_deposit",
          "type": "uint256"
        }
      ],
      "stateMutability": "nonpayable",
      "type": "constructor"
    },
    {
      "inputs": [],
      "name": "decryption_rounds",
      "outputs": [
        {
          "internalType": "uint32",
          "name": "",
          "type": "uint32"
        }
      ],
      "stateMutability": "view",
      "type": "function"
    },
    {
      "inputs": [],
      "name": "number_of_entities",
      "outputs": [
        {
          "internalType": "uint32",
          "name": "",
          "type": "uint32"
        }
      ],
      "stateMutability": "view",
      "type": "function"
    },
    {
      "inputs": [],
      "name": "number_of_features",
      "outputs": [
        {
          "internalType": "uint32",
          "name": "",
          "type": "uint32"
        }
      ],
      "stateMutability": "view",
      "type": "function"
    },
    {
      "inputs": [
        {
          "internalType": "uint256",
          "name": "",
          "type": "uint256"
        }
      ],
      "name": "public_key",
      "outputs": [
        {
          "internalType": "uint256",
          "name": "",
          "type": "uint256"
        }
      ],
      "stateMutability": "view",
      "type": "function"
    },
    {
      "inputs": [
        {
          "internalType": "string",
          "name": "class",
          "type": "string"
        }
      ],
      "name": "return_mu_random",
      "outputs": [
        {
          "internalType": "uint256[][]",
          "name": "",
          "type": "uint256[][]"
        }
      ],
      "stateMutability": "view",
      "type": "function"
    },
    {
      "inputs": [
        {
          "internalType": "string",
          "name": "class",
          "type": "string"
        }
      ],
      "name": "return_partial_decrypted_mu",
      "outputs": [
        {
          "internalType": "uint256[][]",
          "name": "",
          "type": "uint256[][]"
        }
      ],
      "stateMutability": "view",
      "type": "function"
    },
    {
      "inputs": [
        {
          "internalType": "string",
          "name": "class",
          "type": "string"
        }
      ],
      "name": "return_varience_partial_decrypted",
      "outputs": [
        {
          "internalType": "uint256[][]",
          "name": "",
          "type": "uint256[][]"
        }
      ],
      "stateMutability": "view",
      "type": "function"
    },
    {
      "inputs": [
        {
          "internalType": "string",
          "name": "class",
          "type": "string"
        }
      ],
      "name": "return_varience_random",
      "outputs": [
        {
          "internalType": "uint256[][]",
          "name": "",
          "type": "uint256[][]"
        }
      ],
      "stateMutability": "view",
      "type": "function"
    },
    {
      "inputs": [],
      "name": "start_decryption",
      "outputs": [],
      "stateMutability": "nonpayable",
      "type": "function"
    },
    {
      "inputs": [
        {
          "internalType": "uint256[2]",
          "name": "a",
          "type": "uint256[2]"
        },
        {
          "internalType": "uint256[2][2]",
          "name": "b",
          "type": "uint256[2][2]"
        },
        {
          "internalType": "uint256[2]",
          "name": "c",
          "type": "uint256[2]"
        },
        {
          "internalType": "uint256[]",
          "name": "_C_mean_prime_x",
          "type": "uint256[]"
        },
        {
          "internalType": "uint256[]",
          "name": "_C_mean_prime_y",
          "type": "uint256[]"
        },
        {
          "internalType": "uint256[]",
          "name": "_C_var_prime_x",
          "type": "uint256[]"
        },
        {
          "internalType": "uint256[]",
          "name": "_C_var_prime_y",
          "type": "uint256[]"
        },
        {
          "internalType": "uint256[2]",
          "name": "_Pk",
          "type": "uint256[2]"
        },
        {
          "internalType": "string",
          "name": "class",
          "type": "string"
        }
      ],
      "name": "submit_decryption",
      "outputs": [],
      "stateMutability": "nonpayable",
      "type": "function"
    },
    {
      "inputs": [
        {
          "internalType": "address",
          "name": "entity",
          "type": "address"
        }
      ],
      "name": "submit_entity",
      "outputs": [],
      "stateMutability": "nonpayable",
      "type": "function"
    },
    {
      "inputs": [
        {
          "internalType": "uint256",
          "name": "pubkey",
          "type": "uint256"
        }
      ],
      "name": "submit_pubkey",
      "outputs": [],
      "stateMutability": "payable",
      "type": "function"
    },
    {
      "inputs": [
        {
          "internalType": "uint256[2]",
          "name": "a",
          "type": "uint256[2]"
        },
        {
          "internalType": "uint256[2][2]",
          "name": "b",
          "type": "uint256[2][2]"
        },
        {
          "internalType": "uint256[2]",
          "name": "c",
          "type": "uint256[2]"
        },
        {
          "internalType": "uint256",
          "name": "acccuracy",
          "type": "uint256"
        },
        {
          "internalType": "uint256[][]",
          "name": "_mu_R",
          "type": "uint256[][]"
        },
        {
          "internalType": "uint256[][]",
          "name": "_mu_C",
          "type": "uint256[][]"
        },
        {
          "internalType": "uint256[][]",
          "name": "vars_R",
          "type": "uint256[][]"
        },
        {
          "internalType": "uint256[][]",
          "name": "vars_C",
          "type": "uint256[][]"
        },
        {
          "internalType": "string",
          "name": "class",
          "type": "string"
        }
      ],
      "name": "submit_update",
      "outputs": [],
      "stateMutability": "nonpayable",
      "type": "function"
    }
  ],
  "bytecode": "0x608060405260008060086101000a81548163ffffffff021916908363ffffffff160217905550600060025560006003556040516200003d9062000283565b604051809103906000f0801580156200005a573d6000803e3d6000fd5b50600560006101000a81548173ffffffffffffffffffffffffffffffffffffffff021916908373ffffffffffffffffffffffffffffffffffffffff160217905550604051620000a99062000291565b604051809103906000f080158015620000c6573d6000803e3d6000fd5b50600660006101000a81548173ffffffffffffffffffffffffffffffffffffffff021916908373ffffffffffffffffffffffffffffffffffffffff1602179055503480156200011457600080fd5b5060405162008d7338038062008d7383398181016040528101906200013a919062000331565b33600760006101000a81548173ffffffffffffffffffffffffffffffffffffffff021916908373ffffffffffffffffffffffffffffffffffffffff1602179055506004600760009054906101000a900473ffffffffffffffffffffffffffffffffffffffff169080600181540180825580915050600190039060005260206000200160009091909190916101000a81548173ffffffffffffffffffffffffffffffffffffffff021916908373ffffffffffffffffffffffffffffffffffffffff160217905550826000806101000a81548163ffffffff021916908363ffffffff16021790555083600060046101000a81548163ffffffff021916908363ffffffff160217905550604051806040016040528060008152602001600181525060089060026200026a9291906200029f565b50816002819055508060038190555050505050620003f6565b611fee806200495f83390190565b612426806200694d83390190565b8260028101928215620002d1579160200282015b82811115620002d0578251825591602001919060010190620002b3565b5b509050620002e09190620002e4565b5090565b5b80821115620002ff576000816000905550600101620002e5565b5090565b6000815190506200031481620003c2565b92915050565b6000815190506200032b81620003dc565b92915050565b600080600080608085870312156200034e576200034d620003bd565b5b60006200035e878288016200031a565b945050602062000371878288016200031a565b9350506040620003848782880162000303565b9250506060620003978782880162000303565b91505092959194509250565b6000819050919050565b600063ffffffff82169050919050565b600080fd5b620003cd81620003a3565b8114620003d957600080fd5b50565b620003e781620003ad565b8114620003f357600080fd5b50565b61455980620004066000396000f3fe6080604052600436106100c25760003560e01c80638479e0d31161007f578063a261b04a11610059578063a261b04a1461026d578063bdb900fd14610284578063dbcb1c44146102ad578063ef5349d3146102ea576100c2565b80638479e0d3146101ec57806385871e491461021757806389e3b0e514610242576100c2565b806305db8c5a146100c75780630b9180c5146100f05780631c0b0b581461012d5780631f1895d01461016a5780633de222ec146101865780636b437d3c146101c3575b600080fd5b3480156100d357600080fd5b506100ee60048036038101906100e99190613570565b610327565b005b3480156100fc57600080fd5b5061011760048036038101906101129190613880565b610495565b6040516101249190613d52565b60405180910390f35b34801561013957600080fd5b50610154600480360381019061014f9190613880565b610552565b6040516101619190613d52565b60405180910390f35b610184600480360381019061017f91906138c9565b61060f565b005b34801561019257600080fd5b506101ad60048036038101906101a891906138c9565b6106eb565b6040516101ba9190613e2a565b60405180910390f35b3480156101cf57600080fd5b506101ea60048036038101906101e5919061359d565b610706565b005b3480156101f857600080fd5b50610201610e47565b60405161020e9190613e45565b60405180910390f35b34801561022357600080fd5b5061022c610e5d565b6040516102399190613e45565b60405180910390f35b34801561024e57600080fd5b50610257610e71565b6040516102649190613e45565b60405180910390f35b34801561027957600080fd5b50610282610e87565b005b34801561029057600080fd5b506102ab60048036038101906102a691906136f8565b6110ac565b005b3480156102b957600080fd5b506102d460048036038101906102cf9190613880565b612132565b6040516102e19190613d52565b60405180910390f35b3480156102f657600080fd5b50610311600480360381019061030c9190613880565b6121ef565b60405161031e9190613d52565b60405180910390f35b6004819080600181540180825580915050600190039060005260206000200160009091909190916101000a81548173ffffffffffffffffffffffffffffffffffffffff021916908373ffffffffffffffffffffffffffffffffffffffff1602179055506000600a60008373ffffffffffffffffffffffffffffffffffffffff1673ffffffffffffffffffffffffffffffffffffffff16815260200190815260200160002060006101000a81548160ff0219169083151502179055506001601360008373ffffffffffffffffffffffffffffffffffffffff1673ffffffffffffffffffffffffffffffffffffffff16815260200190815260200160002060006101000a81548160ff0219169083151502179055506000601460008373ffffffffffffffffffffffffffffffffffffffff1673ffffffffffffffffffffffffffffffffffffffff16815260200190815260200160002060006101000a81548160ff02191690831515021790555050565b6060600e826040516104a79190613d24565b9081526020016040518091039020805480602002602001604051908101604052809291908181526020016000905b828210156105475783829060005260206000200180548060200260200160405190810160405280929190818152602001828054801561053357602002820191906000526020600020905b81548152602001906001019080831161051f575b5050505050815260200190600101906104d5565b505050509050919050565b60606010826040516105649190613d24565b9081526020016040518091039020805480602002602001604051908101604052809291908181526020016000905b82821015610604578382906000526020600020018054806020026020016040519081016040528092919081815260200182805480156105f057602002820191906000526020600020905b8154815260200190600101908083116105dc575b505050505081526020019060010190610592565b505050509050919050565b60035460025461061f919061408f565b341461062a57600080fd5b6000610635826122ac565b905061067e6008600280602002604051908101604052809291908260028015610673576020028201915b81548152602001906001019080831161065f575b50505050508261246a565b600890600261068e929190612e2d565b506001601460003373ffffffffffffffffffffffffffffffffffffffff1673ffffffffffffffffffffffffffffffffffffffff16815260200190815260200160002060006101000a81548160ff0219169083151502179055505050565b600881600281106106fb57600080fd5b016000915090505481565b61070e612e6d565b604051806060016040528060405180604001604052808d600060028110610738576107376143b5565b5b602002015181526020018d600160028110610756576107556143b5565b5b6020020151815250815260200160405180604001604052808c600060028110610782576107816143b5565b5b602002015181526020018c6001600281106107a05761079f6143b5565b5b6020020151815250815260200160405180604001604052808b6000600281106107cc576107cb6143b5565b5b602002015181526020018b6001600281106107ea576107e96143b5565b5b602002015181525081525090506107ff612ea0565b600080600090505b60068163ffffffff161015610b8c5760005b60008054906101000a900463ffffffff1663ffffffff168163ffffffff161015610b7857808260008054906101000a900463ffffffff1661085a919061411f565b61086491906140e5565b925060008263ffffffff1614156108fa57600d866040516108859190613d24565b90815260200160405180910390206000815481106108a6576108a56143b5565b5b906000526020600020018163ffffffff16815481106108c8576108c76143b5565b5b9060005260206000200154848463ffffffff16602181106108ec576108eb6143b5565b5b602002018181525050610b65565b60018263ffffffff16141561098e57600f866040516109199190613d24565b908152602001604051809103902060008154811061093a576109396143b5565b5b906000526020600020018163ffffffff168154811061095c5761095b6143b5565b5b9060005260206000200154848463ffffffff16602181106109805761097f6143b5565b5b602002018181525050610b64565b60028263ffffffff1614156109e5578a8163ffffffff16815181106109b6576109b56143b5565b5b6020026020010151848463ffffffff16602181106109d7576109d66143b5565b5b602002018181525050610b63565b60038263ffffffff161415610a7957600e86604051610a049190613d24565b9081526020016040518091039020600081548110610a2557610a246143b5565b5b906000526020600020018163ffffffff1681548110610a4757610a466143b5565b5b9060005260206000200154848463ffffffff1660218110610a6b57610a6a6143b5565b5b602002018181525050610b62565b60048263ffffffff161415610b0d57601086604051610a989190613d24565b9081526020016040518091039020600081548110610ab957610ab86143b5565b5b906000526020600020018163ffffffff1681548110610adb57610ada6143b5565b5b9060005260206000200154848463ffffffff1660218110610aff57610afe6143b5565b5b602002018181525050610b61565b60058263ffffffff161415610b6057888163ffffffff1681518110610b3557610b346143b5565b5b6020026020010151848463ffffffff1660218110610b5657610b556143b5565b5b6020020181815250505b5b5b5b5b5b8080610b70906142fb565b915050610819565b508080610b84906142fb565b915050610807565b5084600060028110610ba157610ba06143b5565b5b602002015182600183610bb491906140e5565b63ffffffff1660218110610bcb57610bca6143b5565b5b60200201818152505084600160028110610be857610be76143b5565b5b602002015182600283610bfb91906140e5565b63ffffffff1660218110610c1257610c116143b5565b5b602002018181525050600182600383610c2b91906140e5565b63ffffffff1660218110610c4257610c416143b5565b5b602002018181525050600660009054906101000a900473ffffffffffffffffffffffffffffffffffffffff1673ffffffffffffffffffffffffffffffffffffffff1663785b3bbb84846040518363ffffffff1660e01b8152600401610ca8929190613dff565b60206040518083038186803b158015610cc057600080fd5b505afa158015610cd4573d6000803e3d6000fd5b505050506040513d601f19601f82011682018060405250810190610cf89190613853565b610d37576040517f08c379a0000000000000000000000000000000000000000000000000000000008152600401610d2e90613db4565b60405180910390fd5b601560003373ffffffffffffffffffffffffffffffffffffffff1673ffffffffffffffffffffffffffffffffffffffff168152602001908152602001600020600081819054906101000a900463ffffffff1680929190610d96906142fb565b91906101000a81548163ffffffff021916908363ffffffff1602179055505060405180604001604052808a815260200189815250600f85604051610dda9190613d24565b9081526020016040518091039020906002610df6929190612ec3565b50604051806040016040528088815260200187815250601085604051610e1c9190613d24565b9081526020016040518091039020906002610e38929190612ec3565b50505050505050505050505050565b600060089054906101000a900463ffffffff1681565b60008054906101000a900463ffffffff1681565b600060049054906101000a900463ffffffff1681565b600760009054906101000a900473ffffffffffffffffffffffffffffffffffffffff1673ffffffffffffffffffffffffffffffffffffffff163373ffffffffffffffffffffffffffffffffffffffff1614610f17576040517f08c379a0000000000000000000000000000000000000000000000000000000008152600401610f0e90613d74565b60405180910390fd5b6000600180549050905060005b818163ffffffff16101561106757600b60018263ffffffff1681548110610f4e57610f4d6143b5565b5b90600052602060002001604051610f659190613d3b565b9081526020016040518091039020600f60018363ffffffff1681548110610f8f57610f8e6143b5565b5b90600052602060002001604051610fa69190613d3b565b9081526020016040518091039020908054610fc2929190612f23565b50600c60018263ffffffff1681548110610fdf57610fde6143b5565b5b90600052602060002001604051610ff69190613d3b565b9081526020016040518091039020601060018363ffffffff16815481106110205761101f6143b5565b5b906000526020600020016040516110379190613d3b565b9081526020016040518091039020908054611053929190612f23565b50808061105f906142fb565b915050610f24565b506000600881819054906101000a900463ffffffff168092919061108a906142fb565b91906101000a81548163ffffffff021916908363ffffffff1602179055505050565b6110b4612f82565b6110bc612fa5565b6110c4612fd8565b88836000601881106110d9576110d86143b5565b5b602002018181525050604051806060016040528060405180604001604052808f60006002811061110c5761110b6143b5565b5b602002015181526020018f60016002811061112a576111296143b5565b5b6020020151815250815260200160405180604001604052808e600060028110611156576111556143b5565b5b602002015181526020018e600160028110611174576111736143b5565b5b6020020151815250815260200160405180604001604052808d6000600281106111a05761119f6143b5565b5b602002015181526020018d6001600281106111be576111bd6143b5565b5b60200201518152508152509150600080600090505b60048163ffffffff16101561142c5760005b60008054906101000a900463ffffffff1663ffffffff168163ffffffff161015611418576001818360008054906101000a900463ffffffff16611228919061411f565b61123291906140e5565b61123c91906140e5565b925060008263ffffffff1614156112b0578a600081518110611261576112606143b5565b5b60200260200101518163ffffffff1681518110611281576112806143b5565b5b6020026020010151868463ffffffff16601881106112a2576112a16143b5565b5b602002018181525050611405565b60018263ffffffff16141561132257896000815181106112d3576112d26143b5565b5b60200260200101518163ffffffff16815181106112f3576112f26143b5565b5b6020026020010151868463ffffffff1660188110611314576113136143b5565b5b602002018181525050611404565b60028263ffffffff1614156113945788600081518110611345576113446143b5565b5b60200260200101518163ffffffff1681518110611365576113646143b5565b5b6020026020010151868463ffffffff1660188110611386576113856143b5565b5b602002018181525050611403565b60038263ffffffff16141561140257876000815181106113b7576113b66143b5565b5b60200260200101518163ffffffff16815181106113d7576113d66143b5565b5b6020026020010151868463ffffffff16601881106113f8576113f76143b5565b5b6020020181815250505b5b5b5b8080611410906142fb565b9150506111e5565b508080611424906142fb565b9150506111d3565b506008600060028110611442576114416143b5565b5b01548460018361145291906140e5565b63ffffffff1660188110611469576114686143b5565b5b6020020181815250506008600160028110611487576114866143b5565b5b01548460028361149791906140e5565b63ffffffff16601881106114ae576114ad6143b5565b5b6020020181815250506001846003836114c791906140e5565b63ffffffff16601881106114de576114dd6143b5565b5b602002018181525050600560009054906101000a900473ffffffffffffffffffffffffffffffffffffffff1673ffffffffffffffffffffffffffffffffffffffff166388e3f31784866040518363ffffffff1660e01b8152600401611544929190613dd4565b60206040518083038186803b15801561155c57600080fd5b505afa158015611570573d6000803e3d6000fd5b505050506040513d601f19601f820116820180604052508101906115949190613853565b6115d3576040517f08c379a00000000000000000000000000000000000000000000000000000000081526004016115ca90613d94565b60405180910390fd5b6011856040516115e39190613d24565b908152602001604051809103902060009054906101000a900460ff166117475760018590806001815401808255809150506001900390600052602060002001600090919091909150908051906020019061163e929190612ffa565b5087600b866040516116509190613d24565b90815260200160405180910390209080519060200190611671929190613080565b5085600c866040516116839190613d24565b908152602001604051809103902090805190602001906116a4929190613080565b5060016011866040516116b79190613d24565b908152602001604051809103902060006101000a81548160ff02191690831515021790555088600d866040516116ed9190613d24565b9081526020016040518091039020908051906020019061170e929190613080565b5086600e866040516117209190613d24565b90815260200160405180910390209080519060200190611741929190613080565b50612123565b60005b60008054906101000a900463ffffffff1663ffffffff168163ffffffff161015612121576118e061180460405180604001604052808c600081518110611793576117926143b5565b5b60200260200101518563ffffffff16815181106117b3576117b26143b5565b5b602002602001015181526020018c6001815181106117d4576117d36143b5565b5b60200260200101518563ffffffff16815181106117f4576117f36143b5565b5b60200260200101518152506127b2565b6118db6040518060400160405280600b8b6040516118229190613d24565b9081526020016040518091039020600081548110611843576118426143b5565b5b906000526020600020018663ffffffff1681548110611865576118646143b5565b5b90600052602060002001548152602001600b8b6040516118859190613d24565b90815260200160405180910390206001815481106118a6576118a56143b5565b5b906000526020600020018663ffffffff16815481106118c8576118c76143b5565b5b90600052602060002001548152506127b2565b6128c9565b9250826000600281106118f6576118f56143b5565b5b6020020151600b8760405161190b9190613d24565b908152602001604051809103902060008154811061192c5761192b6143b5565b5b906000526020600020018263ffffffff168154811061194e5761194d6143b5565b5b9060005260206000200181905550826001600281106119705761196f6143b5565b5b6020020151600b876040516119859190613d24565b90815260200160405180910390206001815481106119a6576119a56143b5565b5b906000526020600020018263ffffffff16815481106119c8576119c76143b5565b5b9060005260206000200181905550611b48611a6c60405180604001604052808a6000815181106119fb576119fa6143b5565b5b60200260200101518563ffffffff1681518110611a1b57611a1a6143b5565b5b602002602001015181526020018a600181518110611a3c57611a3b6143b5565b5b60200260200101518563ffffffff1681518110611a5c57611a5b6143b5565b5b60200260200101518152506127b2565b611b436040518060400160405280600c8b604051611a8a9190613d24565b9081526020016040518091039020600081548110611aab57611aaa6143b5565b5b906000526020600020018663ffffffff1681548110611acd57611acc6143b5565b5b90600052602060002001548152602001600c8b604051611aed9190613d24565b9081526020016040518091039020600181548110611b0e57611b0d6143b5565b5b906000526020600020018663ffffffff1681548110611b3057611b2f6143b5565b5b90600052602060002001548152506127b2565b6128c9565b925082600060028110611b5e57611b5d6143b5565b5b6020020151600c87604051611b739190613d24565b9081526020016040518091039020600081548110611b9457611b936143b5565b5b906000526020600020018263ffffffff1681548110611bb657611bb56143b5565b5b906000526020600020018190555082600160028110611bd857611bd76143b5565b5b6020020151600c87604051611bed9190613d24565b9081526020016040518091039020600181548110611c0e57611c0d6143b5565b5b906000526020600020018263ffffffff1681548110611c3057611c2f6143b5565b5b9060005260206000200181905550611db0611cd460405180604001604052808d600081518110611c6357611c626143b5565b5b60200260200101518563ffffffff1681518110611c8357611c826143b5565b5b602002602001015181526020018d600181518110611ca457611ca36143b5565b5b60200260200101518563ffffffff1681518110611cc457611cc36143b5565b5b60200260200101518152506127b2565b611dab6040518060400160405280600d8b604051611cf29190613d24565b9081526020016040518091039020600081548110611d1357611d126143b5565b5b906000526020600020018663ffffffff1681548110611d3557611d346143b5565b5b90600052602060002001548152602001600d8b604051611d559190613d24565b9081526020016040518091039020600181548110611d7657611d756143b5565b5b906000526020600020018663ffffffff1681548110611d9857611d976143b5565b5b90600052602060002001548152506127b2565b6128c9565b925082600060028110611dc657611dc56143b5565b5b6020020151600d87604051611ddb9190613d24565b9081526020016040518091039020600081548110611dfc57611dfb6143b5565b5b906000526020600020018263ffffffff1681548110611e1e57611e1d6143b5565b5b906000526020600020018190555082600160028110611e4057611e3f6143b5565b5b6020020151600d87604051611e559190613d24565b9081526020016040518091039020600181548110611e7657611e756143b5565b5b906000526020600020018263ffffffff1681548110611e9857611e976143b5565b5b9060005260206000200181905550612018611f3c60405180604001604052808b600081518110611ecb57611eca6143b5565b5b60200260200101518563ffffffff1681518110611eeb57611eea6143b5565b5b602002602001015181526020018b600181518110611f0c57611f0b6143b5565b5b60200260200101518563ffffffff1681518110611f2c57611f2b6143b5565b5b60200260200101518152506127b2565b6120136040518060400160405280600e8b604051611f5a9190613d24565b9081526020016040518091039020600081548110611f7b57611f7a6143b5565b5b906000526020600020018663ffffffff1681548110611f9d57611f9c6143b5565b5b90600052602060002001548152602001600e8b604051611fbd9190613d24565b9081526020016040518091039020600181548110611fde57611fdd6143b5565b5b906000526020600020018663ffffffff168154811061200057611fff6143b5565b5b90600052602060002001548152506127b2565b6128c9565b92508260006002811061202e5761202d6143b5565b5b6020020151600e876040516120439190613d24565b9081526020016040518091039020600081548110612064576120636143b5565b5b906000526020600020018263ffffffff1681548110612086576120856143b5565b5b9060005260206000200181905550826001600281106120a8576120a76143b5565b5b6020020151600e876040516120bd9190613d24565b90815260200160405180910390206001815481106120de576120dd6143b5565b5b906000526020600020018263ffffffff1681548110612100576120ff6143b5565b5b90600052602060002001819055508080612119906142fb565b91505061174a565b505b50505050505050505050505050565b6060600f826040516121449190613d24565b9081526020016040518091039020805480602002602001604051908101604052809291908181526020016000905b828210156121e4578382906000526020600020018054806020026020016040519081016040528092919081815260200182805480156121d057602002820191906000526020600020905b8154815260200190600101908083116121bc575b505050505081526020019060010190612172565b505050509050919050565b6060600d826040516122019190613d24565b9081526020016040518091039020805480602002602001604051908101604052809291908181526020016000905b828210156122a15783829060005260206000200180548060200260200160405190810160405280929190818152602001828054801561228d57602002820191906000526020600020905b815481526020019060010190808311612279575b50505050508152602001906001019061222f565b505050509050919050565b6122b4612fd8565b6000807f800000000000000000000000000000000000000000000000000000000000000084161415905060007f7fffffffffffffffffffffffffffffffffffffffffffffffffffffffffffffff8416905060007f30644e72e131a029b85045b68181585d2833e84879b9709143e1f593f00000018061233657612335614357565b5b828309905060007f30644e72e131a029b85045b68181585d2833e84879b9709143e1f593f00000018061236c5761236b614357565b5b6123b56123b0620292fc7f30644e72e131a029b85045b68181585d2833e84879b9709143e1f593f0000001806123a5576123a4614357565b5b86620292f8096128f1565b612958565b6123c06001856128f1565b09905060006123ce8261298b565b905060007f183227397098d014dc2822db40c0ac2e9419f4243cdcb848a1f0fac9f800000082119050858015612402575080155b806124145750851580156124135750805b5b1561244857817f30644e72e131a029b85045b68181585d2833e84879b9709143e1f593f00000016124459190614191565b91505b6040518060400160405280838152602001868152509650505050505050919050565b612472612fd8565b60007f30644e72e131a029b85045b68181585d2833e84879b9709143e1f593f0000001806124a3576124a2614357565b5b836000600281106124b7576124b66143b5565b5b6020020151856000600281106124d0576124cf6143b5565b5b602002015109905060007f30644e72e131a029b85045b68181585d2833e84879b9709143e1f593f00000018061250957612508614357565b5b8460016002811061251d5761251c6143b5565b5b602002015186600160028110612536576125356143b5565b5b602002015109905060007f30644e72e131a029b85045b68181585d2833e84879b9709143e1f593f00000018061256f5761256e614357565b5b7f30644e72e131a029b85045b68181585d2833e84879b9709143e1f593f00000018061259e5761259d614357565b5b838509620292f809905060007f30644e72e131a029b85045b68181585d2833e84879b9709143e1f593f0000001806125d9576125d8614357565b5b7f30644e72e131a029b85045b68181585d2833e84879b9709143e1f593f00000018061260857612607614357565b5b8760006002811061261c5761261b6143b5565b5b602002015189600160028110612635576126346143b5565b5b6020020151097f30644e72e131a029b85045b68181585d2833e84879b9709143e1f593f00000018061266a57612669614357565b5b8860016002811061267e5761267d6143b5565b5b60200201518a600060028110612697576126966143b5565b5b60200201510908905060006126e0847f30644e72e131a029b85045b68181585d2833e84879b9709143e1f593f0000001806126d5576126d4614357565b5b87620292fc096128f1565b905060405180604001604052807f30644e72e131a029b85045b68181585d2833e84879b9709143e1f593f00000018061271c5761271b614357565b5b6127577f30644e72e131a029b85045b68181585d2833e84879b9709143e1f593f00000018061274e5761274d614357565b5b87600108612958565b850981526020017f30644e72e131a029b85045b68181585d2833e84879b9709143e1f593f00000018061278d5761278c614357565b5b6127a061279b6001886128f1565b612958565b84098152509550505050505092915050565b6127ba6130e0565b816000600281106127ce576127cd6143b5565b5b6020020151816000600481106127e7576127e66143b5565b5b60200201818152505081600160028110612804576128036143b5565b5b60200201518160016004811061281d5761281c6143b5565b5b6020020181815250507f30644e72e131a029b85045b68181585d2833e84879b9709143e1f593f00000018061285557612854614357565b5b82600160028110612869576128686143b5565b5b602002015183600060028110612882576128816143b5565b5b6020020151098160026004811061289c5761289b6143b5565b5b6020020181815250506001816003600481106128bb576128ba6143b5565b5b602002018181525050919050565b6128d1612fd8565b60006128dd8484612ba9565b90506128e881612cb8565b91505092915050565b60007f30644e72e131a029b85045b68181585d2833e84879b9709143e1f593f00000018061292257612921614357565b5b827f30644e72e131a029b85045b68181585d2833e84879b9709143e1f593f000000161294e9190614191565b8408905092915050565b6000612984827f30644e72e131a029b85045b68181585d2833e84879b9709143e1f593efffffff612db9565b9050919050565b60006129b4827c0183227397098d014dc2822db40c0ac2e9419f4243cdcb848a1f0faca0612db9565b905060006129df837c030644e72e131a029b85045b68181585d2833e84879b9709143e1f593f612db9565b905060007f2a3c09f0a58a7e8500e0a7eb8ef62abc402d111e41112ed49bd61b6e725b19f09050600080601c905060005b600115612b9e57600090508492505b60018314612a6e577f30644e72e131a029b85045b68181585d2833e84879b9709143e1f593f000000180612a5657612a55614357565b5b83840992508080612a66906142d0565b915050612a1f565b60008161ffff161415612a85575050505050612ba4565b83925060005b60018284612a99919061415d565b612aa3919061415d565b61ffff168161ffff161015612af9577f30644e72e131a029b85045b68181585d2833e84879b9709143e1f593f000000180612ae157612ae0614357565b5b84850993508080612af1906142d0565b915050612a8b565b507f30644e72e131a029b85045b68181585d2833e84879b9709143e1f593f000000180612b2957612b28614357565b5b83840993507f30644e72e131a029b85045b68181585d2833e84879b9709143e1f593f000000180612b5d57612b5c614357565b5b86840995507f30644e72e131a029b85045b68181585d2833e84879b9709143e1f593f000000180612b9157612b90614357565b5b8486099450809150612a10565b50505050505b919050565b612bb16130e0565b7f30644e72e131a029b85045b68181585d2833e84879b9709143e1f593f0000001620292fc620292f88285518751098360208701516020890151098460408801518660408b015186090985606089015160608b015109868760208b01518b51088860208d01518d51080960018501811015612c2c5787810190505b8785820306905060018401811015612c445787810190505b878482030690508160018401811015612c5d5788810190505b888482030690508884840889878a098660018201811015612c7e578b810190505b8b8282030690508b8486098d528b81840960208e01528b81860960408e01528b83850960608e015250505050505050505050505092915050565b612cc0612fd8565b6000612ce383600360048110612cd957612cd86143b5565b5b6020020151612958565b90507f30644e72e131a029b85045b68181585d2833e84879b9709143e1f593f000000180612d1457612d13614357565b5b8184600060048110612d2957612d286143b5565b5b60200201510982600060028110612d4357612d426143b5565b5b6020020181815250507f30644e72e131a029b85045b68181585d2833e84879b9709143e1f593f000000180612d7b57612d7a614357565b5b8184600160048110612d9057612d8f6143b5565b5b60200201510982600160028110612daa57612da96143b5565b5b60200201818152505050919050565b60007f30644e72e131a029b85045b68181585d2833e84879b9709143e1f593f000000160405160208152602080820152602060408201528460608201528360808201528160a082015260208160c08360055afa8060008114612e1e5782519450612e23565b600080fd5b5050505092915050565b8260028101928215612e5c579160200282015b82811115612e5b578251825591602001919060010190612e40565b5b509050612e699190613102565b5090565b6040518060600160405280612e8061311f565b8152602001612e8d613139565b8152602001612e9a61311f565b81525090565b604051806104200160405280602190602082028036833780820191505090505090565b828054828255906000526020600020908101928215612f12579160200282015b82811115612f11578251829080519060200190612f0192919061315f565b5091602001919060010190612ee3565b5b509050612f1f91906131ac565b5090565b828054828255906000526020600020908101928215612f715760005260206000209182015b82811115612f70578282908054612f609291906131d0565b5091600101919060010190612f48565b5b509050612f7e91906131ac565b5090565b604051806103000160405280601890602082028036833780820191505090505090565b6040518060600160405280612fb861311f565b8152602001612fc5613139565b8152602001612fd261311f565b81525090565b6040518060400160405280600290602082028036833780820191505090505090565b8280546130069061426d565b90600052602060002090601f016020900481019282613028576000855561306f565b82601f1061304157805160ff191683800117855561306f565b8280016001018555821561306f579182015b8281111561306e578251825591602001919060010190613053565b5b50905061307c9190613102565b5090565b8280548282559060005260206000209081019282156130cf579160200282015b828111156130ce5782518290805190602001906130be92919061315f565b50916020019190600101906130a0565b5b5090506130dc91906131ac565b5090565b6040518060800160405280600490602082028036833780820191505090505090565b5b8082111561311b576000816000905550600101613103565b5090565b604051806040016040528060008152602001600081525090565b604051806040016040528061314c612fd8565b8152602001613159612fd8565b81525090565b82805482825590600052602060002090810192821561319b579160200282015b8281111561319a57825182559160200191906001019061317f565b5b5090506131a89190613102565b5090565b5b808211156131cc57600081816131c39190613222565b506001016131ad565b5090565b8280548282559060005260206000209081019282156132115760005260206000209182015b828111156132105782548255916001019190600101906131f5565b5b50905061321e9190613102565b5090565b50805460008255906000526020600020908101906132409190613102565b50565b600061325661325184613e85565b613e60565b905080828560408602820111156132705761326f614418565b5b60005b858110156132a0578161328688826134bf565b845260208401935060408301925050600181019050613273565b5050509392505050565b60006132bd6132b884613eab565b613e60565b905080838252602082019050828560208602820111156132e0576132df614418565b5b60005b8581101561332e57813567ffffffffffffffff81111561330657613305614413565b5b80860161331389826134ea565b855260208501945060208401935050506001810190506132e3565b5050509392505050565b600061334b61334684613ed7565b613e60565b9050808285602086028201111561336557613364614418565b5b60005b85811015613395578161337b888261355b565b845260208401935060208301925050600181019050613368565b5050509392505050565b60006133b26133ad84613efd565b613e60565b905080838252602082019050828560208602820111156133d5576133d4614418565b5b60005b8581101561340557816133eb888261355b565b8452602084019350602083019250506001810190506133d8565b5050509392505050565b600061342261341d84613f29565b613e60565b90508281526020810184848401111561343e5761343d61441d565b5b61344984828561422b565b509392505050565b600081359050613460816144de565b92915050565b600082601f83011261347b5761347a614413565b5b6002613488848285613243565b91505092915050565b600082601f8301126134a6576134a5614413565b5b81356134b68482602086016132aa565b91505092915050565b600082601f8301126134d4576134d3614413565b5b60026134e1848285613338565b91505092915050565b600082601f8301126134ff576134fe614413565b5b813561350f84826020860161339f565b91505092915050565b600081519050613527816144f5565b92915050565b600082601f83011261354257613541614413565b5b813561355284826020860161340f565b91505092915050565b60008135905061356a8161450c565b92915050565b60006020828403121561358657613585614427565b5b600061359484828501613451565b91505092915050565b60008060008060008060008060006101e08a8c0312156135c0576135bf614427565b5b60006135ce8c828d016134bf565b99505060406135df8c828d01613466565b98505060c06135f08c828d016134bf565b9750506101008a013567ffffffffffffffff81111561361257613611614422565b5b61361e8c828d016134ea565b9650506101208a013567ffffffffffffffff8111156136405761363f614422565b5b61364c8c828d016134ea565b9550506101408a013567ffffffffffffffff81111561366e5761366d614422565b5b61367a8c828d016134ea565b9450506101608a013567ffffffffffffffff81111561369c5761369b614422565b5b6136a88c828d016134ea565b9350506101806136ba8c828d016134bf565b9250506101c08a013567ffffffffffffffff8111156136dc576136db614422565b5b6136e88c828d0161352d565b9150509295985092959850929598565b60008060008060008060008060006101c08a8c03121561371b5761371a614427565b5b60006137298c828d016134bf565b995050604061373a8c828d01613466565b98505060c061374b8c828d016134bf565b97505061010061375d8c828d0161355b565b9650506101208a013567ffffffffffffffff81111561377f5761377e614422565b5b61378b8c828d01613491565b9550506101408a013567ffffffffffffffff8111156137ad576137ac614422565b5b6137b98c828d01613491565b9450506101608a013567ffffffffffffffff8111156137db576137da614422565b5b6137e78c828d01613491565b9350506101808a013567ffffffffffffffff81111561380957613808614422565b5b6138158c828d01613491565b9250506101a08a013567ffffffffffffffff81111561383757613836614422565b5b6138438c828d0161352d565b9150509295985092959850929598565b60006020828403121561386957613868614427565b5b600061387784828501613518565b91505092915050565b60006020828403121561389657613895614427565b5b600082013567ffffffffffffffff8111156138b4576138b3614422565b5b6138c08482850161352d565b91505092915050565b6000602082840312156138df576138de614427565b5b60006138ed8482850161355b565b91505092915050565b60006139028383613a9c565b905092915050565b60006139168383613cf7565b60208301905092915050565b600061392d82613fad565b6139378185614030565b93508360208202850161394985613f5a565b8060005b85811015613985578484038952815161396685826138f6565b945061397183613fef565b925060208a0199505060018101905061394d565b50829750879550505050505092915050565b6139a081613fb8565b6139aa8184614041565b92506139b582613f6a565b8060005b838110156139e65781516139cd878261390a565b96506139d883613ffc565b9250506001810190506139b9565b505050505050565b6139f781613fc3565b613a01818461404c565b9250613a0c82613f74565b8060005b83811015613a3d578151613a24878261390a565b9650613a2f83614009565b925050600181019050613a10565b505050505050565b613a4e81613fce565b613a588184614057565b9250613a6382613f7e565b8060005b83811015613a94578151613a7b878261390a565b9650613a8683614016565b925050600181019050613a67565b505050505050565b6000613aa782613fd9565b613ab18185614062565b9350613abc83613f88565b8060005b83811015613aed578151613ad4888261390a565b9750613adf83614023565b925050600181019050613ac0565b5085935050505092915050565b6000613b0582613fe4565b613b0f8185614084565b9350613b1f81856020860161423a565b80840191505092915050565b60008154613b388161426d565b613b428186614084565b94506001821660008114613b5d5760018114613b6e57613ba1565b60ff19831686528186019350613ba1565b613b7785613f98565b60005b83811015613b9957815481890152600182019150602081019050613b7a565b838801955050505b50505092915050565b6000613bb7602a83614073565b9150613bc28261443d565b604082019050919050565b6000613bda601e83614073565b9150613be58261448c565b602082019050919050565b6000613bfd601683614073565b9150613c08826144b5565b602082019050919050565b604082016000820151613c296000850182613cf7565b506020820151613c3c6020850182613cf7565b50505050565b608082016000820151613c5860008501826139ee565b506020820151613c6b60408501826139ee565b50505050565b61010082016000820151613c886000850182613c13565b506020820151613c9b6040850182613c42565b506040820151613cae60c0850182613c13565b50505050565b61010082016000820151613ccb6000850182613c13565b506020820151613cde6040850182613c42565b506040820151613cf160c0850182613c13565b50505050565b613d0081614211565b82525050565b613d0f81614211565b82525050565b613d1e8161421b565b82525050565b6000613d308284613afa565b915081905092915050565b6000613d478284613b2b565b915081905092915050565b60006020820190508181036000830152613d6c8184613922565b905092915050565b60006020820190508181036000830152613d8d81613baa565b9050919050565b60006020820190508181036000830152613dad81613bcd565b9050919050565b60006020820190508181036000830152613dcd81613bf0565b9050919050565b600061040082019050613dea6000830185613c71565b613df8610100830184613997565b9392505050565b600061052082019050613e156000830185613cb4565b613e23610100830184613a45565b9392505050565b6000602082019050613e3f6000830184613d06565b92915050565b6000602082019050613e5a6000830184613d15565b92915050565b6000613e6a613e7b565b9050613e76828261429f565b919050565b6000604051905090565b600067ffffffffffffffff821115613ea057613e9f6143e4565b5b602082029050919050565b600067ffffffffffffffff821115613ec657613ec56143e4565b5b602082029050602081019050919050565b600067ffffffffffffffff821115613ef257613ef16143e4565b5b602082029050919050565b600067ffffffffffffffff821115613f1857613f176143e4565b5b602082029050602081019050919050565b600067ffffffffffffffff821115613f4457613f436143e4565b5b613f4d8261442c565b9050602081019050919050565b6000819050602082019050919050565b6000819050919050565b6000819050919050565b6000819050919050565b6000819050602082019050919050565b60008190508160005260206000209050919050565b600081519050919050565b600060189050919050565b600060029050919050565b600060219050919050565b600081519050919050565b600081519050919050565b6000602082019050919050565b6000602082019050919050565b6000602082019050919050565b6000602082019050919050565b6000602082019050919050565b600082825260208201905092915050565b600081905092915050565b600081905092915050565b600081905092915050565b600082825260208201905092915050565b600082825260208201905092915050565b600081905092915050565b600061409a82614211565b91506140a583614211565b9250827fffffffffffffffffffffffffffffffffffffffffffffffffffffffffffffffff038211156140da576140d9614328565b5b828201905092915050565b60006140f08261421b565b91506140fb8361421b565b92508263ffffffff0382111561411457614113614328565b5b828201905092915050565b600061412a8261421b565b91506141358361421b565b92508163ffffffff048311821515161561415257614151614328565b5b828202905092915050565b6000614168826141e3565b9150614173836141e3565b92508282101561418657614185614328565b5b828203905092915050565b600061419c82614211565b91506141a783614211565b9250828210156141ba576141b9614328565b5b828203905092915050565b60006141d0826141f1565b9050919050565b60008115159050919050565b600061ffff82169050919050565b600073ffffffffffffffffffffffffffffffffffffffff82169050919050565b6000819050919050565b600063ffffffff82169050919050565b82818337600083830152505050565b60005b8381101561425857808201518184015260208101905061423d565b83811115614267576000848401525b50505050565b6000600282049050600182168061428557607f821691505b6020821081141561429957614298614386565b5b50919050565b6142a88261442c565b810181811067ffffffffffffffff821117156142c7576142c66143e4565b5b80604052505050565b60006142db826141e3565b915061ffff8214156142f0576142ef614328565b5b600182019050919050565b60006143068261421b565b915063ffffffff82141561431d5761431c614328565b5b600182019050919050565b7f4e487b7100000000000000000000000000000000000000000000000000000000600052601160045260246000fd5b7f4e487b7100000000000000000000000000000000000000000000000000000000600052601260045260246000fd5b7f4e487b7100000000000000000000000000000000000000000000000000000000600052602260045260246000fd5b7f4e487b7100000000000000000000000000000000000000000000000000000000600052603260045260246000fd5b7f4e487b7100000000000000000000000000000000000000000000000000000000600052604160045260246000fd5b600080fd5b600080fd5b600080fd5b600080fd5b600080fd5b6000601f19601f8301169050919050565b7f4f6e6c7920746865206d6f64657261746f722063616e2063616c6c207468697360008201527f2066756e6374696f6e2100000000000000000000000000000000000000000000602082015250565b7f4d6f64656c20757064617465206d757374206265207665726966696564210000600082015250565b7f50726f6f66206d75737420626520766572696669656400000000000000000000600082015250565b6144e7816141c5565b81146144f257600080fd5b50565b6144fe816141d7565b811461450957600080fd5b50565b61451581614211565b811461452057600080fd5b5056fea2646970667358221220eb6b0470eef5f09cd71ca55b4863418e672a2de074652c884789e18de18c2c0664736f6c63430008060033608060405234801561001057600080fd5b50611fce806100206000396000f3fe608060405234801561001057600080fd5b506004361061002b5760003560e01c806388e3f31714610030575b600080fd5b61004a60048036038101906100459190611c1e565b610060565b6040516100579190611c6f565b60405180910390f35b600080601867ffffffffffffffff81111561007e5761007d611f2d565b5b6040519080825280602002602001820160405280156100ac5781602001602082028036833780820191505090505b50905060005b6018811015610105578381601881106100ce576100cd611efe565b5b60200201518282815181106100e6576100e5611efe565b5b60200260200101818152505080806100fd90611e26565b9150506100b2565b506000610112828661012e565b1415610122576001915050610128565b60009150505b92915050565b6000807f30644e72e131a029b85045b68181585d2833e84879b9709143e1f593f00000019050600061015e6102c5565b9050806080015151600186516101749190611cfb565b1461017e57600080fd5b60006040518060400160405280600081526020016000815250905060005b865181101561023757838782815181106101b9576101b8611efe565b5b6020026020010151106101cb57600080fd5b6102228261021d85608001516001856101e49190611cfb565b815181106101f5576101f4611efe565b5b60200260200101518a85815181106102105761020f611efe565b5b6020026020010151611190565b611237565b9150808061022f90611e26565b91505061019c565b5061026181836080015160008151811061025457610253611efe565b5b6020026020010151611237565b90506102a78560000151866020015161027984611304565b856040015161028b8a60400151611304565b876060015161029d8960000151611304565b89602001516113a9565b6102b757600193505050506102bf565b600093505050505b92915050565b6102cd6118d1565b60405180604001604052807f295158e94a5e0737ed6792aed538a1023d8d9bde8fc8951c619020177c31c18781526020017f22eaca57bd642abfab2bcbfd7b9efc08e504c7b99aa394450343250515eeb42e8152508160000181905250604051806040016040528060405180604001604052807f19e80f30b9ac8318aabbe8216f42ed7ceb16227de00f9c05e79fb77c4bbc621881526020017f0c9347db17996f20b34d6a03680759c5eede18ac301443e9fdf15bf8047b1297815250815260200160405180604001604052807f22bc2741bb8c5603e8138b4952c7b268937716ec5bd8b66dd482406d193d336781526020017eb3ba3ed3087864d5ca9b52f8e7a4369a899b332414bf07261a408c976271878152508152508160200181905250604051806040016040528060405180604001604052807f0b8e357307c9ec7a350b2504c00878ce1692052d724dcdbb8767c9c7941be18281526020017f0d35a147546c73ac55d31dc2f857158d019630b4dda952d368e5cb2dbcce1dfe815250815260200160405180604001604052807f0b1021bf41dd8d3dd3f3e4a2bf98a6fc7c87a1ac119b66cc68ac5d0703029be781526020017f2b71120aff3714917d85e1d2e4474aaf2803fd98de542228f5bdb89b3eadce6f8152508152508160400181905250604051806040016040528060405180604001604052807f2481cc8097fbf35bb48c3fe0d7729818b62c48fca4525ff72fe4e0ad075840c381526020017f0ba2ae74c8d5cbed796e955d8c2c2661f00f38c2ace41ff8445d1954dd80db92815250815260200160405180604001604052807f18147a25c82a71e3958e914718166ee21e05b86a33a7e76f814e0547e945469b81526020017f204b15ffbe16bc2f543d5ef4df32bfd703ecd7857070c20fa1a5e3b2734f703a8152508152508160600181905250601967ffffffffffffffff81111561059357610592611f2d565b5b6040519080825280602002602001820160405280156105cc57816020015b6105b9611918565b8152602001906001900390816105b15790505b50816080018190525060405180604001604052807f1453f0650c9f61e611b1af33800d0dc4ccdb0fc489178562c9f52eed9bb138d881526020017f0b5485256fba5fe17aa9a857817e2a40b9ef94619d225da7d2239ce7ecae9848815250816080015160008151811061064257610641611efe565b5b602002602001018190525060405180604001604052807f19b5bde16a87fb96f27ac49478a1f7de07ee60e457d27273c85bee2c1fe61d7681526020017f0bd6b6c534c25ba9c615106d6b63be347090898e93001a36cae8ee1e331938c781525081608001516001815181106106ba576106b9611efe565b5b602002602001018190525060405180604001604052807f1676a880c9726e92cc6aac91d2c1bb3c206e80d62fa48956f9ca47a4b102dfe381526020017f0af5764fe9da531fdbd83060b398db509f155ec2f9b9b3a6bf31ef53bec85879815250816080015160028151811061073257610731611efe565b5b602002602001018190525060405180604001604052807f181af7c6777b2818489f0f1a14287f698424ee79c47575c927496c11ceadff0181526020017f245042e2a3a4af7551bfb359ed0c1d5e90d7055c05ddeaf319e90332df6da01f81525081608001516003815181106107aa576107a9611efe565b5b602002602001018190525060405180604001604052807f27c44ab233c90a2febb4345035905701bf80e8fbdb7af5aaf862a5c3ba17a34f81526020017f0144323cea3c963c834254b649266a45cebf2e63eb694ab95073df2f5921da51815250816080015160048151811061082257610821611efe565b5b602002602001018190525060405180604001604052807f1c401d6781589f73b921773b00573a6685c978723e041f5900c4a7fa39a6877381526020017f16d4a364c3860b5278ee988bc0bf05d54ca6229ed29cfef14336db364a833937815250816080015160058151811061089a57610899611efe565b5b602002602001018190525060405180604001604052807f246b0799a283982e285ef573ec4f16c6afb1410e0ced7fe0d3484196edd52afe81526020017f20ad9b228bf53e2fd9bc57856261b00ab0d26bddbb4287bf5b6dd7b2cc227122815250816080015160068151811061091257610911611efe565b5b602002602001018190525060405180604001604052807f08b6430c2d857c685936755f503f4545da5e7a644b7b65bdf3ef31ce2906daba81526020017f2f136ff7c89c8195f78758f792828be3235f797fcff83c6d15a11fda388361f6815250816080015160078151811061098a57610989611efe565b5b602002602001018190525060405180604001604052807f0bd9e36893879169ce1f6581dc4938fadbfe8fbf09bd58580f4e19da739bffe581526020017f10f6928d6ec2bceff3970c65a5f29b44396f7aaef953e53cde3b53c9f99804268152508160800151600881518110610a0257610a01611efe565b5b602002602001018190525060405180604001604052807f1ca2289dc446c4c25c07ec2aac10a8e4c9df04eabaed92b87fb7a0742f7a53b281526020017f223ff644c4819dafd5c8af17329c909d07b56e39abd2d8972eefd609dff7fd368152508160800151600981518110610a7a57610a79611efe565b5b602002602001018190525060405180604001604052807f0ed5716c3d520a5eb9eb8e3a8b7bc31242b16b1fb29624ae75202459a6b4a5c781526020017f211e36cf76520a128cbe8f9d565809fbffdedcc50160dc2a0d13d7168d6dbd178152508160800151600a81518110610af257610af1611efe565b5b602002602001018190525060405180604001604052807f1e21a9842de5bb18e735d1bcf4c9eae087ebfee4afff340215418996935e3fef81526020017f28005099b67ae878354fef1f1e087353691716b6fd2bd64a27dac474ce8167ce8152508160800151600b81518110610b6a57610b69611efe565b5b602002602001018190525060405180604001604052807f1ef37d096d63b30161e409a1ae0592fc650be7809bd5f9af87caad7e58e3f06281526020017f247bf310d90b38e0d0286058ba016837478fc7e0a53c3fd9548f4380557789e68152508160800151600c81518110610be257610be1611efe565b5b602002602001018190525060405180604001604052807f15fa73d893558f6e68c9be3bff25f6364f5cad9a74e574af5ef1a45fd64fc4dd81526020017f2b400bbc1377bd5d0233bb9b03c61606414311992464760a36ee427357e685528152508160800151600d81518110610c5a57610c59611efe565b5b602002602001018190525060405180604001604052807f1f6de256307794b9b78621f949e266e646035c2a74f768de7d9eaebaf73aa48881526020017f15095f97862b3de7cdefc9060b728000498b6f32145a6394a7ef256ccd0ce8318152508160800151600e81518110610cd257610cd1611efe565b5b602002602001018190525060405180604001604052807f286228979ac8a77b8a56c7ac7e2238bec7c90dda7e420333849f1d6d7e3c045081526020017f13d0c73708b020cdf3ad6fa7664af1187a3b10af59c1cd55621aaef6cd0f0c8e8152508160800151600f81518110610d4a57610d49611efe565b5b602002602001018190525060405180604001604052807f21caeeb55f22589525616d8fe7519ee8e0064846a0d06f2821fee6039f3331de81526020017f0f172ce92badd55371851bbdffc27a21f2e218d75137dc52a8c83d52d4b4b6648152508160800151601081518110610dc257610dc1611efe565b5b602002602001018190525060405180604001604052807f2cc3ddc2e331a2d0ce2738ba945db20fd93dccf4b69552b7a306254abdfe48a781526020017f0148899b29019aa2c9cb797ad30e084c4ebf8f182c0796a651b88078201d079b8152508160800151601181518110610e3a57610e39611efe565b5b602002602001018190525060405180604001604052807f2a326f7d21c2fb462f56032de8cded0732b519cd46f145c71ad306627af8b0b781526020017f16216de1ce9b35b53d706963412baae5b9151a0d33132ac67adb0b76c4bddea78152508160800151601281518110610eb257610eb1611efe565b5b602002602001018190525060405180604001604052807f17059027cadc7f356edffda70ee56f5e265d290f4caae47fb0f2afcdb09b344781526020017f0732612376a05ac150f82ec288d10237183e8a1624b9546f0e000dcaa7b1b9d08152508160800151601381518110610f2a57610f29611efe565b5b602002602001018190525060405180604001604052807f1342bcc90c710d13d9b2e93a4b705c3d4e448b2a35f31161f2535368042578ea81526020017f1261cd2ad7e437f43c539c97d9f6b95e1cb46cddee3f8201a61088a82e3eb9328152508160800151601481518110610fa257610fa1611efe565b5b602002602001018190525060405180604001604052807f2d0b27c1dbcb280ac77cbd22d9bdf5628ebfb0a5660cd19f7fcdcefd204ac7b881526020017f14c1924195f12c93370cb7766050256b5abd69a40abe70c6772edb83700c21c4815250816080015160158151811061101a57611019611efe565b5b602002602001018190525060405180604001604052807f0f1f28bc0876aa01abc5c51370d4f85660aebec6d319807acca96c7f8fe167d181526020017f06aec3a6543645a7a554e70cb057a751cbd8ca19782b1399059cde928fbd6810815250816080015160168151811061109257611091611efe565b5b602002602001018190525060405180604001604052807f15c6cc8084f467102f590f5629f0beedd8907bb2d4eab67287320f634eb70c5181526020017f142fe49d6c0f54abf839323f4aa8a18c124016a816d3baf3f1857fd12fd107e1815250816080015160178151811061110a57611109611efe565b5b602002602001018190525060405180604001604052807f25aa3183f0f7e3709a62cf3a898c6907d9c6ab81b4a9a6df48d8fa3aad17495d81526020017f2f9fe819e18962d8de1aa2605e95253653d629ed8d0107905c454a69c191b884815250816080015160188151811061118257611181611efe565b5b602002602001018190525090565b611198611918565b6111a0611932565b8360000151816000600381106111b9576111b8611efe565b5b6020020181815250508360200151816001600381106111db576111da611efe565b5b60200201818152505082816002600381106111f9576111f8611efe565b5b602002018181525050600060608360808460076107d05a03fa9050806000811461122257611224565bfe5b508061122f57600080fd5b505092915050565b61123f611918565b611247611954565b8360000151816000600481106112605761125f611efe565b5b60200201818152505083602001518160016004811061128257611281611efe565b5b6020020181815250508260000151816002600481106112a4576112a3611efe565b5b6020020181815250508260200151816003600481106112c6576112c5611efe565b5b602002018181525050600060608360c08460066107d05a03fa905080600081146112ef576112f1565bfe5b50806112fc57600080fd5b505092915050565b61130c611918565b60007f30644e72e131a029b85045b68181585d97816a916871ca8d3c208c16d87cfd47905060008360000151148015611349575060008360200151145b1561136d5760405180604001604052806000815260200160008152509150506113a4565b6040518060400160405280846000015181526020018285602001516113929190611e6f565b8361139d9190611dab565b8152509150505b919050565b600080600467ffffffffffffffff8111156113c7576113c6611f2d565b5b60405190808252806020026020018201604052801561140057816020015b6113ed611918565b8152602001906001900390816113e55790505b5090506000600467ffffffffffffffff8111156114205761141f611f2d565b5b60405190808252806020026020018201604052801561145957816020015b611446611976565b81526020019060019003908161143e5790505b5090508a8260008151811061147157611470611efe565b5b6020026020010181905250888260018151811061149157611490611efe565b5b602002602001018190525086826002815181106114b1576114b0611efe565b5b602002602001018190525084826003815181106114d1576114d0611efe565b5b602002602001018190525089816000815181106114f1576114f0611efe565b5b6020026020010181905250878160018151811061151157611510611efe565b5b6020026020010181905250858160028151811061153157611530611efe565b5b6020026020010181905250838160038151811061155157611550611efe565b5b60200260200101819052506115668282611576565b9250505098975050505050505050565b6000815183511461158657600080fd5b600083519050600060068261159b9190611d51565b905060008167ffffffffffffffff8111156115b9576115b8611f2d565b5b6040519080825280602002602001820160405280156115e75781602001602082028036833780820191505090505b50905060005b8381101561186c5786818151811061160857611607611efe565b5b6020026020010151600001518260006006846116249190611d51565b61162e9190611cfb565b8151811061163f5761163e611efe565b5b60200260200101818152505086818151811061165e5761165d611efe565b5b60200260200101516020015182600160068461167a9190611d51565b6116849190611cfb565b8151811061169557611694611efe565b5b6020026020010181815250508581815181106116b4576116b3611efe565b5b6020026020010151600001516001600281106116d3576116d2611efe565b5b60200201518260026006846116e89190611d51565b6116f29190611cfb565b8151811061170357611702611efe565b5b60200260200101818152505085818151811061172257611721611efe565b5b60200260200101516000015160006002811061174157611740611efe565b5b60200201518260036006846117569190611d51565b6117609190611cfb565b8151811061177157611770611efe565b5b6020026020010181815250508581815181106117905761178f611efe565b5b6020026020010151602001516001600281106117af576117ae611efe565b5b60200201518260046006846117c49190611d51565b6117ce9190611cfb565b815181106117df576117de611efe565b5b6020026020010181815250508581815181106117fe576117fd611efe565b5b60200260200101516020015160006002811061181d5761181c611efe565b5b60200201518260056006846118329190611d51565b61183c9190611cfb565b8151811061184d5761184c611efe565b5b602002602001018181525050808061186490611e26565b9150506115ed565b5061187561199c565b6000602082602086026020860160086107d05a03fa9050806000811461189a5761189c565bfe5b50806118a757600080fd5b6000826000600181106118bd576118bc611efe565b5b602002015114159550505050505092915050565b6040518060a001604052806118e4611918565b81526020016118f1611976565b81526020016118fe611976565b815260200161190b611976565b8152602001606081525090565b604051806040016040528060008152602001600081525090565b6040518060600160405280600390602082028036833780820191505090505090565b6040518060800160405280600490602082028036833780820191505090505090565b60405180604001604052806119896119be565b81526020016119966119be565b81525090565b6040518060200160405280600190602082028036833780820191505090505090565b6040518060400160405280600290602082028036833780820191505090505090565b60006119f36119ee84611caf565b611c8a565b90508082856020860282011115611a0d57611a0c611f66565b5b60005b85811015611a3d5781611a238882611c09565b845260208401935060208301925050600181019050611a10565b5050509392505050565b6000611a5a611a5584611cd5565b611c8a565b90508082856020860282011115611a7457611a73611f66565b5b60005b85811015611aa45781611a8a8882611c09565b845260208401935060208301925050600181019050611a77565b5050509392505050565b600082601f830112611ac357611ac2611f5c565b5b6018611ad08482856119e0565b91505092915050565b600082601f830112611aee57611aed611f5c565b5b6002611afb848285611a47565b91505092915050565b600060408284031215611b1a57611b19611f61565b5b611b246040611c8a565b90506000611b3484828501611c09565b6000830152506020611b4884828501611c09565b60208301525092915050565b600060808284031215611b6a57611b69611f61565b5b611b746040611c8a565b90506000611b8484828501611ad9565b6000830152506040611b9884828501611ad9565b60208301525092915050565b60006101008284031215611bbb57611bba611f61565b5b611bc56060611c8a565b90506000611bd584828501611b04565b6000830152506040611be984828501611b54565b60208301525060c0611bfd84828501611b04565b60408301525092915050565b600081359050611c1881611f81565b92915050565b6000806104008385031215611c3657611c35611f6b565b5b6000611c4485828601611ba4565b925050610100611c5685828601611aae565b9150509250929050565b611c6981611ddf565b82525050565b6000602082019050611c846000830184611c60565b92915050565b6000611c94611ca5565b9050611ca08282611df5565b919050565b6000604051905090565b600067ffffffffffffffff821115611cca57611cc9611f2d565b5b602082029050919050565b600067ffffffffffffffff821115611cf057611cef611f2d565b5b602082029050919050565b6000611d0682611deb565b9150611d1183611deb565b9250827fffffffffffffffffffffffffffffffffffffffffffffffffffffffffffffffff03821115611d4657611d45611ea0565b5b828201905092915050565b6000611d5c82611deb565b9150611d6783611deb565b9250817fffffffffffffffffffffffffffffffffffffffffffffffffffffffffffffffff0483118215151615611da057611d9f611ea0565b5b828202905092915050565b6000611db682611deb565b9150611dc183611deb565b925082821015611dd457611dd3611ea0565b5b828203905092915050565b60008115159050919050565b6000819050919050565b611dfe82611f70565b810181811067ffffffffffffffff82111715611e1d57611e1c611f2d565b5b80604052505050565b6000611e3182611deb565b91507fffffffffffffffffffffffffffffffffffffffffffffffffffffffffffffffff821415611e6457611e63611ea0565b5b600182019050919050565b6000611e7a82611deb565b9150611e8583611deb565b925082611e9557611e94611ecf565b5b828206905092915050565b7f4e487b7100000000000000000000000000000000000000000000000000000000600052601160045260246000fd5b7f4e487b7100000000000000000000000000000000000000000000000000000000600052601260045260246000fd5b7f4e487b7100000000000000000000000000000000000000000000000000000000600052603260045260246000fd5b7f4e487b7100000000000000000000000000000000000000000000000000000000600052604160045260246000fd5b600080fd5b600080fd5b600080fd5b600080fd5b6000601f19601f8301169050919050565b611f8a81611deb565b8114611f9557600080fd5b5056fea2646970667358221220238499b87bc1d1e75ca38cf524172adf88a12399bfbfe1c019d01b481b41de9a64736f6c63430008060033608060405234801561001057600080fd5b50612406806100206000396000f3fe608060405234801561001057600080fd5b506004361061002b5760003560e01c8063785b3bbb14610030575b600080fd5b61004a60048036038101906100459190612056565b610060565b60405161005791906120a7565b60405180910390f35b600080602167ffffffffffffffff81111561007e5761007d612365565b5b6040519080825280602002602001820160405280156100ac5781602001602082028036833780820191505090505b50905060005b6021811015610105578381602181106100ce576100cd612336565b5b60200201518282815181106100e6576100e5612336565b5b60200260200101818152505080806100fd9061225e565b9150506100b2565b506000610112828661012e565b1415610122576001915050610128565b60009150505b92915050565b6000807f30644e72e131a029b85045b68181585d2833e84879b9709143e1f593f00000019050600061015e6102c5565b9050806080015151600186516101749190612133565b1461017e57600080fd5b60006040518060400160405280600081526020016000815250905060005b865181101561023757838782815181106101b9576101b8612336565b5b6020026020010151106101cb57600080fd5b6102228261021d85608001516001856101e49190612133565b815181106101f5576101f4612336565b5b60200260200101518a85815181106102105761020f612336565b5b60200260200101516115c8565b61166f565b9150808061022f9061225e565b91505061019c565b5061026181836080015160008151811061025457610253612336565b5b602002602001015161166f565b90506102a7856000015186602001516102798461173c565b856040015161028b8a6040015161173c565b876060015161029d896000015161173c565b89602001516117e1565b6102b757600193505050506102bf565b600093505050505b92915050565b6102cd611d09565b60405180604001604052807f2bb67f29167a914b03c69b8aad5970df78023cfd91a5577ad677271de06b4d0b81526020017f13c9c50fab2755366e2b8de201af295f64996cd30d1a1c7baeb745b1c62c68118152508160000181905250604051806040016040528060405180604001604052807f2542b7e7f6c84f432711b0e3397a1500989c3d8ee0ab7bd106e44078ce149f1c81526020017f12d3769c3a2d0eeb558ef2e88b94de6df9ecddec93fd449afe773948acc9ad37815250815260200160405180604001604052807f2298cb7778d78716c4dd07fd9368160b0f9af1fd0e072ff94875730e7b511b9a81526020017f2333c49f0048e17c4c1670f747eaef01db154ad51a525bcab69691a59ede5c9b8152508152508160200181905250604051806040016040528060405180604001604052807f07eec83164bad42a1547cc93699dfa19af2a9c38fd907167faaf7bf8bcb9846181526020017f0d7b38fbc41a101547de4bf7a3491b62dd3ce11638be11c766176bad67b11417815250815260200160405180604001604052807f0fdb76e698e6b9a8de83da93e7887148166edf819905d9a30658f4da380ae1f681526020017f02f03656fb857dcc2b70fe0a289debc09538fb94d07db35403affe6bf32048a98152508152508160400181905250604051806040016040528060405180604001604052807f209ce50bdbfe9497bfe1ecbd15fe30afc29606cba096d37be50cda09feb7447281526020017f20cd59fea61661090d3d2c6478da96a718187bf9369db268acbabf19e36a63af815250815260200160405180604001604052807f1d42fdbbab562bbc8362fe410b81d4e0de7515ccabe842dc7a8c4f035836f8ae81526020017f1c0bd86b30c369e5d505803c7af10e7e916c683bdd2f4beff49dcf895b9efc898152508152508160600181905250602267ffffffffffffffff81111561059457610593612365565b5b6040519080825280602002602001820160405280156105cd57816020015b6105ba611d50565b8152602001906001900390816105b25790505b50816080018190525060405180604001604052807f1517cb769a25823fdec0d666445e331c7b3fe73962f9da8160cf816ab5a3aefb81526020017f2d4c49a6b36365e6d6170b24a48d7313398c538e0d045b6aaa9ece4812d7c2c5815250816080015160008151811061064357610642612336565b5b602002602001018190525060405180604001604052807f049371186dfbab02f1e5a667d56dea886209b86cf7efae28d02faa01a8b26e1581526020017f1a8255f3bbd8f2002738efb2357ca8c715a536a16d0df7a73a77c413259047c581525081608001516001815181106106bb576106ba612336565b5b602002602001018190525060405180604001604052807f306026b09656fef0b6090149c56c6f7a7e575f0a3e22780d325c487d8c255e3a81526020017f1e3757bc89f9131e27fabb88971b04c7898d3de25231d8baae90aad2b430b2da815250816080015160028151811061073357610732612336565b5b602002602001018190525060405180604001604052807f2cfe79f5af6530940a3772db5365b445792e007d7d9ed5861f72244d9f36521781526020017f14c2a94cf6a8ad9be11edd9b2f71a4ea25a4c30619491e5b4d4bd92997ae289381525081608001516003815181106107ab576107aa612336565b5b602002602001018190525060405180604001604052807f227ed005a9975575d504b709ceb7b828ef9f7be3fdf27b1e4f98378cbd0be28281526020017f1cb6ef8899baa1180a30865a730a1c92506a32c0f550ee2375f407074242e918815250816080015160048151811061082357610822612336565b5b602002602001018190525060405180604001604052807f1f969ebc05bb91644dbbd85c22d704f0b7630727ca24ceeb452023f2621e503b81526020017f21777bb9b843210215edaf796e2b6e6fcd2e017a773c5fd75ebeee4d7f3423f5815250816080015160058151811061089b5761089a612336565b5b602002602001018190525060405180604001604052807f0f50308469cf9973cd1bfd7779c5f744840e5461098cd731ea3ee8a89ba2afab81526020017f06986a61d3d5efce945d6a1302e2205b2d00918ea5eb57999528d50af3dfb3f6815250816080015160068151811061091357610912612336565b5b602002602001018190525060405180604001604052807f0483c37ee85561ca20db8eab507df36e7e4f82cb3092116798e66aa6b42bdd7181526020017f27aac1c4dd3a87dd597e75b1c47c70587c6cc4ecd8034618992267c5d29d270f815250816080015160078151811061098b5761098a612336565b5b602002602001018190525060405180604001604052807f2eca6a2ef3b1078f673856c11c752a9d5ae8f000170648ac79cdf0ab2cab88fc81526020017f2ce4991870989bbe447a4eeb124dd4bdbba496bed42608e69299c404234f93108152508160800151600881518110610a0357610a02612336565b5b602002602001018190525060405180604001604052807f1f6ad4bd48d5e5ead6d5bb1588b88e649a0a26792b589cc19dc29fdb50ee54dd81526020017f1b9b61dd974769eb23563e2017fe61771ac0178b46e0c7c8c9fb05befdf0f7e88152508160800151600981518110610a7b57610a7a612336565b5b602002602001018190525060405180604001604052807f03bbb644d43b04cbd0ed3dc2788edca0faa9e4c10d5a0e61f9152c915c5b577781526020017f151188f1c06bec797b0354bc6ca1096d77a5b9159fb01efb0dd5413bea47c07d8152508160800151600a81518110610af357610af2612336565b5b602002602001018190525060405180604001604052807f051562be9164e211d60f4d0ee6686a7235d147c33945fcc998450d92e534ba8a81526020017f2d07f3228b18f9d6824e826eb2c7728f773de58231559a59a922a14a62596ba38152508160800151600b81518110610b6b57610b6a612336565b5b602002602001018190525060405180604001604052807ea8cf0675c863d293712e69447476920a986bd7032845646d81eb10cbf90e9281526020017f2a93896d37bb134e594e3777478f4e04eb3ab7e72e78cd5e0ea32dcc2cd929e48152508160800151600c81518110610be257610be1612336565b5b602002602001018190525060405180604001604052807f2a42456b8f9a8f1c682965e8002e613ffd7427aba5be5c448bbeddea67894e6381526020017f16aee652badfea6cd01c07acb6851986ae6bbf5b4f62314494aa161b694698778152508160800151600d81518110610c5a57610c59612336565b5b602002602001018190525060405180604001604052807f1d8b4596fe77e19d2dbb6c7e2e5ba5ba22bbedc2a056d05dd71374fe7e77a47181526020017f28b753a8e0a0bc1a2240308a407c2c7a9bc239c3ad93018da97d1b1fb883fc388152508160800151600e81518110610cd257610cd1612336565b5b602002602001018190525060405180604001604052807f12ca959a9673fb0c605b630925e6cc000baca56051c4d390dd59837d1be84c3081526020017f191054d3defa686058f960320c6e42821019a3c8ed00f825f71b89972e3a008b8152508160800151600f81518110610d4a57610d49612336565b5b602002602001018190525060405180604001604052807f112782c9cb74c9262c3044552a1ad0c3454475af0086df050f0bfeff4a2a3c8881526020017f0f689d7e9f3c7d400a3d99f8b2294295f128f9bfd1120f431d3eb37454f2fea28152508160800151601081518110610dc257610dc1612336565b5b602002602001018190525060405180604001604052807f0d88f8c2ee3a606e1531dde6c5dcf657e364bbc4be399f1ab0ee5bebd6956c8481526020017f173dd500761fb23ac92bece019c493f979e235f8c3655b0ac8b0633fe475243a8152508160800151601181518110610e3a57610e39612336565b5b602002602001018190525060405180604001604052807f2a37ff8c8e3e387bdb7bc3cd1b5699d8ea6adef8775e1a88382f29c80d32a91181526020017f0dde7083da3fa1867d565468845ab2fb4ef34ce8a7e2e5e5a3e3b3ed3d36b2928152508160800151601281518110610eb257610eb1612336565b5b602002602001018190525060405180604001604052807f0c2e0700e603d2d6e5181ea4e2712e2d7942af6e57aade458634acbf5a02226281526020017f0ed66cfa115522601b4986e575086e9a400b91e786a944d49a5a1c3d20dc47e38152508160800151601381518110610f2a57610f29612336565b5b602002602001018190525060405180604001604052807f061a3ef2933ebffb0d1c92bacc7a6f942d3496b5d2f9d420179d76e0b10d1cc281526020017f288075d750e3a16a08ade4dd0d40462d8472b511dae55d092f02cedaccd63a198152508160800151601481518110610fa257610fa1612336565b5b602002602001018190525060405180604001604052807f1524c55b15ffff304130597d442ef82d94d405794182c1f8789432308a19ef3a81526020017f0328990caafae119eecd82e9e5e3024b134bc2a98cb6288b06726f9e21cbae56815250816080015160158151811061101a57611019612336565b5b602002602001018190525060405180604001604052807f234703ead7399c7b9e4c54a8157000d84e4ca8eb84a418bdb86df061775b0e2c81526020017f018991d4dec51143dcf14df9bbaf467fedab28dd7579102c3b23dfdc703361a4815250816080015160168151811061109257611091612336565b5b602002602001018190525060405180604001604052807f03355d14aa7a28e6ad3ce21101b6e28dd959f69f7a5b706a74b1bbe06459e98e81526020017f20b38104acdd98539590a6cc3368ba57f0af640afd682dfd7e3a7233b8fd0019815250816080015160178151811061110a57611109612336565b5b602002602001018190525060405180604001604052807f1c6f7f3c67f61997d9f704c5841bd848b7febe35bb78ceda5fb281bccb53fdb681526020017f1596fd346975b7770be554a628028e337bce1191194f1cf6e0f935b8486693bf815250816080015160188151811061118257611181612336565b5b602002602001018190525060405180604001604052807f076777f19833706d75f5c5d454d7caca6c1d1ba835993187a944a919fa4beb7281526020017f0900b771b22d70055e26d2feccf852ab4e63e03b65410477f427f7dbd4f5918381525081608001516019815181106111fa576111f9612336565b5b602002602001018190525060405180604001604052807f2aa2cadc31147b9fcfb1c9c48cbeb0f298c5c83dfe9aa61bc882439585f7af0281526020017f27d43212075055218a9afe7ca704d18e15590007dadf609c7ba23a83ecfe578a8152508160800151601a8151811061127257611271612336565b5b602002602001018190525060405180604001604052807f0500c18e33846cc0fd51dc76660d664fa992e5da5634cb76d414a463ae0f961a81526020017f14c7a169ae4bae697823895a69b2d51de80e2dc2d7cfc4c1e203818fab66b7998152508160800151601b815181106112ea576112e9612336565b5b602002602001018190525060405180604001604052807f1705ebadc9433087e8dafde511e87e63c1a5e8f4e2ab0157a1c4a2c68ea49d1f81526020017f253e7583c7339bbcb83359904fcf814ad7b582cfdeea5a9663b0fb516c6b2b058152508160800151601c8151811061136257611361612336565b5b602002602001018190525060405180604001604052807f271883e4f9eaa9b1d7e75c60523fadb8254eb78ed2898243fa66cb53a3cd0c0e81526020017f063dac9b4fc0beaf120679c4c59e622e2b18efb179061740b3d03b1a8e5b15498152508160800151601d815181106113da576113d9612336565b5b602002602001018190525060405180604001604052807f1fefd64b5a4f136aa759cb4c15769c66aa6c7e9a8a16560439a4bea66741ec6981526020017f1a12a7551ba425d4151549c26f8b62c3026f6bc6c97034b18998fcfa40b998b48152508160800151601e8151811061145257611451612336565b5b602002602001018190525060405180604001604052807f299568b599f1eb133991a4308da461574f359ac06c7bfe68900899ab8f9b8be181526020017f2127d4c5efde5bfa4f64d402787ea6929e04a6b39ea8c91df4e2bac4d584843b8152508160800151601f815181106114ca576114c9612336565b5b602002602001018190525060405180604001604052807f04f4edd3b0bcfb93401f44ada2225278c80ce998997efda125be17e387b94e7981526020017f141d2a5fa9dd49d8b925dd5fd9c16cf08f52e0dd0b803b706fd0dae21e775635815250816080015160208151811061154257611541612336565b5b602002602001018190525060405180604001604052807f17ffa3baa6f2c1a5ff83f5bf187db94b2990d64eff9ecb1f35ddcce9e0a729ae81526020017f26bdb5af039aa3beb44a12bdd1ab993e1a7643ee269d9284a8e6f56f5fa28fdb81525081608001516021815181106115ba576115b9612336565b5b602002602001018190525090565b6115d0611d50565b6115d8611d6a565b8360000151816000600381106115f1576115f0612336565b5b60200201818152505083602001518160016003811061161357611612612336565b5b602002018181525050828160026003811061163157611630612336565b5b602002018181525050600060608360808460076107d05a03fa9050806000811461165a5761165c565bfe5b508061166757600080fd5b505092915050565b611677611d50565b61167f611d8c565b83600001518160006004811061169857611697612336565b5b6020020181815250508360200151816001600481106116ba576116b9612336565b5b6020020181815250508260000151816002600481106116dc576116db612336565b5b6020020181815250508260200151816003600481106116fe576116fd612336565b5b602002018181525050600060608360c08460066107d05a03fa9050806000811461172757611729565bfe5b508061173457600080fd5b505092915050565b611744611d50565b60007f30644e72e131a029b85045b68181585d97816a916871ca8d3c208c16d87cfd47905060008360000151148015611781575060008360200151145b156117a55760405180604001604052806000815260200160008152509150506117dc565b6040518060400160405280846000015181526020018285602001516117ca91906122a7565b836117d591906121e3565b8152509150505b919050565b600080600467ffffffffffffffff8111156117ff576117fe612365565b5b60405190808252806020026020018201604052801561183857816020015b611825611d50565b81526020019060019003908161181d5790505b5090506000600467ffffffffffffffff81111561185857611857612365565b5b60405190808252806020026020018201604052801561189157816020015b61187e611dae565b8152602001906001900390816118765790505b5090508a826000815181106118a9576118a8612336565b5b602002602001018190525088826001815181106118c9576118c8612336565b5b602002602001018190525086826002815181106118e9576118e8612336565b5b6020026020010181905250848260038151811061190957611908612336565b5b6020026020010181905250898160008151811061192957611928612336565b5b6020026020010181905250878160018151811061194957611948612336565b5b6020026020010181905250858160028151811061196957611968612336565b5b6020026020010181905250838160038151811061198957611988612336565b5b602002602001018190525061199e82826119ae565b9250505098975050505050505050565b600081518351146119be57600080fd5b60008351905060006006826119d39190612189565b905060008167ffffffffffffffff8111156119f1576119f0612365565b5b604051908082528060200260200182016040528015611a1f5781602001602082028036833780820191505090505b50905060005b83811015611ca457868181518110611a4057611a3f612336565b5b602002602001015160000151826000600684611a5c9190612189565b611a669190612133565b81518110611a7757611a76612336565b5b602002602001018181525050868181518110611a9657611a95612336565b5b602002602001015160200151826001600684611ab29190612189565b611abc9190612133565b81518110611acd57611acc612336565b5b602002602001018181525050858181518110611aec57611aeb612336565b5b602002602001015160000151600160028110611b0b57611b0a612336565b5b6020020151826002600684611b209190612189565b611b2a9190612133565b81518110611b3b57611b3a612336565b5b602002602001018181525050858181518110611b5a57611b59612336565b5b602002602001015160000151600060028110611b7957611b78612336565b5b6020020151826003600684611b8e9190612189565b611b989190612133565b81518110611ba957611ba8612336565b5b602002602001018181525050858181518110611bc857611bc7612336565b5b602002602001015160200151600160028110611be757611be6612336565b5b6020020151826004600684611bfc9190612189565b611c069190612133565b81518110611c1757611c16612336565b5b602002602001018181525050858181518110611c3657611c35612336565b5b602002602001015160200151600060028110611c5557611c54612336565b5b6020020151826005600684611c6a9190612189565b611c749190612133565b81518110611c8557611c84612336565b5b6020026020010181815250508080611c9c9061225e565b915050611a25565b50611cad611dd4565b6000602082602086026020860160086107d05a03fa90508060008114611cd257611cd4565bfe5b5080611cdf57600080fd5b600082600060018110611cf557611cf4612336565b5b602002015114159550505050505092915050565b6040518060a00160405280611d1c611d50565b8152602001611d29611dae565b8152602001611d36611dae565b8152602001611d43611dae565b8152602001606081525090565b604051806040016040528060008152602001600081525090565b6040518060600160405280600390602082028036833780820191505090505090565b6040518060800160405280600490602082028036833780820191505090505090565b6040518060400160405280611dc1611df6565b8152602001611dce611df6565b81525090565b6040518060200160405280600190602082028036833780820191505090505090565b6040518060400160405280600290602082028036833780820191505090505090565b6000611e2b611e26846120e7565b6120c2565b90508082856020860282011115611e4557611e4461239e565b5b60005b85811015611e755781611e5b8882612041565b845260208401935060208301925050600181019050611e48565b5050509392505050565b6000611e92611e8d8461210d565b6120c2565b90508082856020860282011115611eac57611eab61239e565b5b60005b85811015611edc5781611ec28882612041565b845260208401935060208301925050600181019050611eaf565b5050509392505050565b600082601f830112611efb57611efa612394565b5b6002611f08848285611e18565b91505092915050565b600082601f830112611f2657611f25612394565b5b6021611f33848285611e7f565b91505092915050565b600060408284031215611f5257611f51612399565b5b611f5c60406120c2565b90506000611f6c84828501612041565b6000830152506020611f8084828501612041565b60208301525092915050565b600060808284031215611fa257611fa1612399565b5b611fac60406120c2565b90506000611fbc84828501611ee6565b6000830152506040611fd084828501611ee6565b60208301525092915050565b60006101008284031215611ff357611ff2612399565b5b611ffd60606120c2565b9050600061200d84828501611f3c565b600083015250604061202184828501611f8c565b60208301525060c061203584828501611f3c565b60408301525092915050565b600081359050612050816123b9565b92915050565b600080610520838503121561206e5761206d6123a3565b5b600061207c85828601611fdc565b92505061010061208e85828601611f11565b9150509250929050565b6120a181612217565b82525050565b60006020820190506120bc6000830184612098565b92915050565b60006120cc6120dd565b90506120d8828261222d565b919050565b6000604051905090565b600067ffffffffffffffff82111561210257612101612365565b5b602082029050919050565b600067ffffffffffffffff82111561212857612127612365565b5b602082029050919050565b600061213e82612223565b915061214983612223565b9250827fffffffffffffffffffffffffffffffffffffffffffffffffffffffffffffffff0382111561217e5761217d6122d8565b5b828201905092915050565b600061219482612223565b915061219f83612223565b9250817fffffffffffffffffffffffffffffffffffffffffffffffffffffffffffffffff04831182151516156121d8576121d76122d8565b5b828202905092915050565b60006121ee82612223565b91506121f983612223565b92508282101561220c5761220b6122d8565b5b828203905092915050565b60008115159050919050565b6000819050919050565b612236826123a8565b810181811067ffffffffffffffff8211171561225557612254612365565b5b80604052505050565b600061226982612223565b91507fffffffffffffffffffffffffffffffffffffffffffffffffffffffffffffffff82141561229c5761229b6122d8565b5b600182019050919050565b60006122b282612223565b91506122bd83612223565b9250826122cd576122cc612307565b5b828206905092915050565b7f4e487b7100000000000000000000000000000000000000000000000000000000600052601160045260246000fd5b7f4e487b7100000000000000000000000000000000000000000000000000000000600052601260045260246000fd5b7f4e487b7100000000000000000000000000000000000000000000000000000000600052603260045260246000fd5b7f4e487b7100000000000000000000000000000000000000000000000000000000600052604160045260246000fd5b600080fd5b600080fd5b600080fd5b600080fd5b6000601f19601f8301169050919050565b6123c281612223565b81146123cd57600080fd5b5056fea26469706673582212201d3e6074f212f86c633c604c3432a9feb8a8260f2647ab6dfa7a57f75bbda89564736f6c63430008060033",
  "linkReferences": {},
  "deployedLinkReferences": {}
}