{
  "_format": "hh-sol-artifact-1",
  "contractName": "Verifier",
  "sourceName": "contracts/MVSC.sol",
  "abi": [
    {
      "inputs": [
        {
          "components": [
            {
              "components": [
                {
                  "internalType": "uint256",
                  "name": "X",
                  "type": "uint256"
                },
                {
                  "internalType": "uint256",
                  "name": "Y",
                  "type": "uint256"
                }
              ],
              "internalType": "struct Pairing.G1Point",
              "name": "a",
              "type": "tuple"
            },
            {
              "components": [
                {
                  "internalType": "uint256[2]",
                  "name": "X",
                  "type": "uint256[2]"
                },
                {
                  "internalType": "uint256[2]",
                  "name": "Y",
                  "type": "uint256[2]"
                }
              ],
              "internalType": "struct Pairing.G2Point",
              "name": "b",
              "type": "tuple"
            },
            {
              "components": [
                {
                  "internalType": "uint256",
                  "name": "X",
                  "type": "uint256"
                },
                {
                  "internalType": "uint256",
                  "name": "Y",
                  "type": "uint256"
                }
              ],
              "internalType": "struct Pairing.G1Point",
              "name": "c",
              "type": "tuple"
            }
          ],
          "internalType": "struct Verifier.Proof",
          "name": "proof",
          "type": "tuple"
        },
        {
          "internalType": "uint256[24]",
          "name": "input",
          "type": "uint256[24]"
        }
      ],
      "name": "verifyTx",
      "outputs": [
        {
          "internalType": "bool",
          "name": "r",
          "type": "bool"
        }
      ],
      "stateMutability": "view",
      "type": "function"
    }
  ],
  "bytecode": "0x608060405234801561001057600080fd5b50611fce806100206000396000f3fe608060405234801561001057600080fd5b506004361061002b5760003560e01c806388e3f31714610030575b600080fd5b61004a60048036038101906100459190611c1e565b610060565b6040516100579190611c6f565b60405180910390f35b600080601867ffffffffffffffff81111561007e5761007d611f2d565b5b6040519080825280602002602001820160405280156100ac5781602001602082028036833780820191505090505b50905060005b6018811015610105578381601881106100ce576100cd611efe565b5b60200201518282815181106100e6576100e5611efe565b5b60200260200101818152505080806100fd90611e26565b9150506100b2565b506000610112828661012e565b1415610122576001915050610128565b60009150505b92915050565b6000807f30644e72e131a029b85045b68181585d2833e84879b9709143e1f593f00000019050600061015e6102c5565b9050806080015151600186516101749190611cfb565b1461017e57600080fd5b60006040518060400160405280600081526020016000815250905060005b865181101561023757838782815181106101b9576101b8611efe565b5b6020026020010151106101cb57600080fd5b6102228261021d85608001516001856101e49190611cfb565b815181106101f5576101f4611efe565b5b60200260200101518a85815181106102105761020f611efe565b5b6020026020010151611190565b611237565b9150808061022f90611e26565b91505061019c565b5061026181836080015160008151811061025457610253611efe565b5b6020026020010151611237565b90506102a78560000151866020015161027984611304565b856040015161028b8a60400151611304565b876060015161029d8960000151611304565b89602001516113a9565b6102b757600193505050506102bf565b600093505050505b92915050565b6102cd6118d1565b60405180604001604052807f295158e94a5e0737ed6792aed538a1023d8d9bde8fc8951c619020177c31c18781526020017f22eaca57bd642abfab2bcbfd7b9efc08e504c7b99aa394450343250515eeb42e8152508160000181905250604051806040016040528060405180604001604052807f19e80f30b9ac8318aabbe8216f42ed7ceb16227de00f9c05e79fb77c4bbc621881526020017f0c9347db17996f20b34d6a03680759c5eede18ac301443e9fdf15bf8047b1297815250815260200160405180604001604052807f22bc2741bb8c5603e8138b4952c7b268937716ec5bd8b66dd482406d193d336781526020017eb3ba3ed3087864d5ca9b52f8e7a4369a899b332414bf07261a408c976271878152508152508160200181905250604051806040016040528060405180604001604052807f0b8e357307c9ec7a350b2504c00878ce1692052d724dcdbb8767c9c7941be18281526020017f0d35a147546c73ac55d31dc2f857158d019630b4dda952d368e5cb2dbcce1dfe815250815260200160405180604001604052807f0b1021bf41dd8d3dd3f3e4a2bf98a6fc7c87a1ac119b66cc68ac5d0703029be781526020017f2b71120aff3714917d85e1d2e4474aaf2803fd98de542228f5bdb89b3eadce6f8152508152508160400181905250604051806040016040528060405180604001604052807f2481cc8097fbf35bb48c3fe0d7729818b62c48fca4525ff72fe4e0ad075840c381526020017f0ba2ae74c8d5cbed796e955d8c2c2661f00f38c2ace41ff8445d1954dd80db92815250815260200160405180604001604052807f18147a25c82a71e3958e914718166ee21e05b86a33a7e76f814e0547e945469b81526020017f204b15ffbe16bc2f543d5ef4df32bfd703ecd7857070c20fa1a5e3b2734f703a8152508152508160600181905250601967ffffffffffffffff81111561059357610592611f2d565b5b6040519080825280602002602001820160405280156105cc57816020015b6105b9611918565b8152602001906001900390816105b15790505b50816080018190525060405180604001604052807f1453f0650c9f61e611b1af33800d0dc4ccdb0fc489178562c9f52eed9bb138d881526020017f0b5485256fba5fe17aa9a857817e2a40b9ef94619d225da7d2239ce7ecae9848815250816080015160008151811061064257610641611efe565b5b602002602001018190525060405180604001604052807f19b5bde16a87fb96f27ac49478a1f7de07ee60e457d27273c85bee2c1fe61d7681526020017f0bd6b6c534c25ba9c615106d6b63be347090898e93001a36cae8ee1e331938c781525081608001516001815181106106ba576106b9611efe565b5b602002602001018190525060405180604001604052807f1676a880c9726e92cc6aac91d2c1bb3c206e80d62fa48956f9ca47a4b102dfe381526020017f0af5764fe9da531fdbd83060b398db509f155ec2f9b9b3a6bf31ef53bec85879815250816080015160028151811061073257610731611efe565b5b602002602001018190525060405180604001604052807f181af7c6777b2818489f0f1a14287f698424ee79c47575c927496c11ceadff0181526020017f245042e2a3a4af7551bfb359ed0c1d5e90d7055c05ddeaf319e90332df6da01f81525081608001516003815181106107aa576107a9611efe565b5b602002602001018190525060405180604001604052807f27c44ab233c90a2febb4345035905701bf80e8fbdb7af5aaf862a5c3ba17a34f81526020017f0144323cea3c963c834254b649266a45cebf2e63eb694ab95073df2f5921da51815250816080015160048151811061082257610821611efe565b5b602002602001018190525060405180604001604052807f1c401d6781589f73b921773b00573a6685c978723e041f5900c4a7fa39a6877381526020017f16d4a364c3860b5278ee988bc0bf05d54ca6229ed29cfef14336db364a833937815250816080015160058151811061089a57610899611efe565b5b602002602001018190525060405180604001604052807f246b0799a283982e285ef573ec4f16c6afb1410e0ced7fe0d3484196edd52afe81526020017f20ad9b228bf53e2fd9bc57856261b00ab0d26bddbb4287bf5b6dd7b2cc227122815250816080015160068151811061091257610911611efe565b5b602002602001018190525060405180604001604052807f08b6430c2d857c685936755f503f4545da5e7a644b7b65bdf3ef31ce2906daba81526020017f2f136ff7c89c8195f78758f792828be3235f797fcff83c6d15a11fda388361f6815250816080015160078151811061098a57610989611efe565b5b602002602001018190525060405180604001604052807f0bd9e36893879169ce1f6581dc4938fadbfe8fbf09bd58580f4e19da739bffe581526020017f10f6928d6ec2bceff3970c65a5f29b44396f7aaef953e53cde3b53c9f99804268152508160800151600881518110610a0257610a01611efe565b5b602002602001018190525060405180604001604052807f1ca2289dc446c4c25c07ec2aac10a8e4c9df04eabaed92b87fb7a0742f7a53b281526020017f223ff644c4819dafd5c8af17329c909d07b56e39abd2d8972eefd609dff7fd368152508160800151600981518110610a7a57610a79611efe565b5b602002602001018190525060405180604001604052807f0ed5716c3d520a5eb9eb8e3a8b7bc31242b16b1fb29624ae75202459a6b4a5c781526020017f211e36cf76520a128cbe8f9d565809fbffdedcc50160dc2a0d13d7168d6dbd178152508160800151600a81518110610af257610af1611efe565b5b602002602001018190525060405180604001604052807f1e21a9842de5bb18e735d1bcf4c9eae087ebfee4afff340215418996935e3fef81526020017f28005099b67ae878354fef1f1e087353691716b6fd2bd64a27dac474ce8167ce8152508160800151600b81518110610b6a57610b69611efe565b5b602002602001018190525060405180604001604052807f1ef37d096d63b30161e409a1ae0592fc650be7809bd5f9af87caad7e58e3f06281526020017f247bf310d90b38e0d0286058ba016837478fc7e0a53c3fd9548f4380557789e68152508160800151600c81518110610be257610be1611efe565b5b602002602001018190525060405180604001604052807f15fa73d893558f6e68c9be3bff25f6364f5cad9a74e574af5ef1a45fd64fc4dd81526020017f2b400bbc1377bd5d0233bb9b03c61606414311992464760a36ee427357e685528152508160800151600d81518110610c5a57610c59611efe565b5b602002602001018190525060405180604001604052807f1f6de256307794b9b78621f949e266e646035c2a74f768de7d9eaebaf73aa48881526020017f15095f97862b3de7cdefc9060b728000498b6f32145a6394a7ef256ccd0ce8318152508160800151600e81518110610cd257610cd1611efe565b5b602002602001018190525060405180604001604052807f286228979ac8a77b8a56c7ac7e2238bec7c90dda7e420333849f1d6d7e3c045081526020017f13d0c73708b020cdf3ad6fa7664af1187a3b10af59c1cd55621aaef6cd0f0c8e8152508160800151600f81518110610d4a57610d49611efe565b5b602002602001018190525060405180604001604052807f21caeeb55f22589525616d8fe7519ee8e0064846a0d06f2821fee6039f3331de81526020017f0f172ce92badd55371851bbdffc27a21f2e218d75137dc52a8c83d52d4b4b6648152508160800151601081518110610dc257610dc1611efe565b5b602002602001018190525060405180604001604052807f2cc3ddc2e331a2d0ce2738ba945db20fd93dccf4b69552b7a306254abdfe48a781526020017f0148899b29019aa2c9cb797ad30e084c4ebf8f182c0796a651b88078201d079b8152508160800151601181518110610e3a57610e39611efe565b5b602002602001018190525060405180604001604052807f2a326f7d21c2fb462f56032de8cded0732b519cd46f145c71ad306627af8b0b781526020017f16216de1ce9b35b53d706963412baae5b9151a0d33132ac67adb0b76c4bddea78152508160800151601281518110610eb257610eb1611efe565b5b602002602001018190525060405180604001604052807f17059027cadc7f356edffda70ee56f5e265d290f4caae47fb0f2afcdb09b344781526020017f0732612376a05ac150f82ec288d10237183e8a1624b9546f0e000dcaa7b1b9d08152508160800151601381518110610f2a57610f29611efe565b5b602002602001018190525060405180604001604052807f1342bcc90c710d13d9b2e93a4b705c3d4e448b2a35f31161f2535368042578ea81526020017f1261cd2ad7e437f43c539c97d9f6b95e1cb46cddee3f8201a61088a82e3eb9328152508160800151601481518110610fa257610fa1611efe565b5b602002602001018190525060405180604001604052807f2d0b27c1dbcb280ac77cbd22d9bdf5628ebfb0a5660cd19f7fcdcefd204ac7b881526020017f14c1924195f12c93370cb7766050256b5abd69a40abe70c6772edb83700c21c4815250816080015160158151811061101a57611019611efe565b5b602002602001018190525060405180604001604052807f0f1f28bc0876aa01abc5c51370d4f85660aebec6d319807acca96c7f8fe167d181526020017f06aec3a6543645a7a554e70cb057a751cbd8ca19782b1399059cde928fbd6810815250816080015160168151811061109257611091611efe565b5b602002602001018190525060405180604001604052807f15c6cc8084f467102f590f5629f0beedd8907bb2d4eab67287320f634eb70c5181526020017f142fe49d6c0f54abf839323f4aa8a18c124016a816d3baf3f1857fd12fd107e1815250816080015160178151811061110a57611109611efe565b5b602002602001018190525060405180604001604052807f25aa3183f0f7e3709a62cf3a898c6907d9c6ab81b4a9a6df48d8fa3aad17495d81526020017f2f9fe819e18962d8de1aa2605e95253653d629ed8d0107905c454a69c191b884815250816080015160188151811061118257611181611efe565b5b602002602001018190525090565b611198611918565b6111a0611932565b8360000151816000600381106111b9576111b8611efe565b5b6020020181815250508360200151816001600381106111db576111da611efe565b5b60200201818152505082816002600381106111f9576111f8611efe565b5b602002018181525050600060608360808460076107d05a03fa9050806000811461122257611224565bfe5b508061122f57600080fd5b505092915050565b61123f611918565b611247611954565b8360000151816000600481106112605761125f611efe565b5b60200201818152505083602001518160016004811061128257611281611efe565b5b6020020181815250508260000151816002600481106112a4576112a3611efe565b5b6020020181815250508260200151816003600481106112c6576112c5611efe565b5b602002018181525050600060608360c08460066107d05a03fa905080600081146112ef576112f1565bfe5b50806112fc57600080fd5b505092915050565b61130c611918565b60007f30644e72e131a029b85045b68181585d97816a916871ca8d3c208c16d87cfd47905060008360000151148015611349575060008360200151145b1561136d5760405180604001604052806000815260200160008152509150506113a4565b6040518060400160405280846000015181526020018285602001516113929190611e6f565b8361139d9190611dab565b8152509150505b919050565b600080600467ffffffffffffffff8111156113c7576113c6611f2d565b5b60405190808252806020026020018201604052801561140057816020015b6113ed611918565b8152602001906001900390816113e55790505b5090506000600467ffffffffffffffff8111156114205761141f611f2d565b5b60405190808252806020026020018201604052801561145957816020015b611446611976565b81526020019060019003908161143e5790505b5090508a8260008151811061147157611470611efe565b5b6020026020010181905250888260018151811061149157611490611efe565b5b602002602001018190525086826002815181106114b1576114b0611efe565b5b602002602001018190525084826003815181106114d1576114d0611efe565b5b602002602001018190525089816000815181106114f1576114f0611efe565b5b6020026020010181905250878160018151811061151157611510611efe565b5b6020026020010181905250858160028151811061153157611530611efe565b5b6020026020010181905250838160038151811061155157611550611efe565b5b60200260200101819052506115668282611576565b9250505098975050505050505050565b6000815183511461158657600080fd5b600083519050600060068261159b9190611d51565b905060008167ffffffffffffffff8111156115b9576115b8611f2d565b5b6040519080825280602002602001820160405280156115e75781602001602082028036833780820191505090505b50905060005b8381101561186c5786818151811061160857611607611efe565b5b6020026020010151600001518260006006846116249190611d51565b61162e9190611cfb565b8151811061163f5761163e611efe565b5b60200260200101818152505086818151811061165e5761165d611efe565b5b60200260200101516020015182600160068461167a9190611d51565b6116849190611cfb565b8151811061169557611694611efe565b5b6020026020010181815250508581815181106116b4576116b3611efe565b5b6020026020010151600001516001600281106116d3576116d2611efe565b5b60200201518260026006846116e89190611d51565b6116f29190611cfb565b8151811061170357611702611efe565b5b60200260200101818152505085818151811061172257611721611efe565b5b60200260200101516000015160006002811061174157611740611efe565b5b60200201518260036006846117569190611d51565b6117609190611cfb565b8151811061177157611770611efe565b5b6020026020010181815250508581815181106117905761178f611efe565b5b6020026020010151602001516001600281106117af576117ae611efe565b5b60200201518260046006846117c49190611d51565b6117ce9190611cfb565b815181106117df576117de611efe565b5b6020026020010181815250508581815181106117fe576117fd611efe565b5b60200260200101516020015160006002811061181d5761181c611efe565b5b60200201518260056006846118329190611d51565b61183c9190611cfb565b8151811061184d5761184c611efe565b5b602002602001018181525050808061186490611e26565b9150506115ed565b5061187561199c565b6000602082602086026020860160086107d05a03fa9050806000811461189a5761189c565bfe5b50806118a757600080fd5b6000826000600181106118bd576118bc611efe565b5b602002015114159550505050505092915050565b6040518060a001604052806118e4611918565b81526020016118f1611976565b81526020016118fe611976565b815260200161190b611976565b8152602001606081525090565b604051806040016040528060008152602001600081525090565b6040518060600160405280600390602082028036833780820191505090505090565b6040518060800160405280600490602082028036833780820191505090505090565b60405180604001604052806119896119be565b81526020016119966119be565b81525090565b6040518060200160405280600190602082028036833780820191505090505090565b6040518060400160405280600290602082028036833780820191505090505090565b60006119f36119ee84611caf565b611c8a565b90508082856020860282011115611a0d57611a0c611f66565b5b60005b85811015611a3d5781611a238882611c09565b845260208401935060208301925050600181019050611a10565b5050509392505050565b6000611a5a611a5584611cd5565b611c8a565b90508082856020860282011115611a7457611a73611f66565b5b60005b85811015611aa45781611a8a8882611c09565b845260208401935060208301925050600181019050611a77565b5050509392505050565b600082601f830112611ac357611ac2611f5c565b5b6018611ad08482856119e0565b91505092915050565b600082601f830112611aee57611aed611f5c565b5b6002611afb848285611a47565b91505092915050565b600060408284031215611b1a57611b19611f61565b5b611b246040611c8a565b90506000611b3484828501611c09565b6000830152506020611b4884828501611c09565b60208301525092915050565b600060808284031215611b6a57611b69611f61565b5b611b746040611c8a565b90506000611b8484828501611ad9565b6000830152506040611b9884828501611ad9565b60208301525092915050565b60006101008284031215611bbb57611bba611f61565b5b611bc56060611c8a565b90506000611bd584828501611b04565b6000830152506040611be984828501611b54565b60208301525060c0611bfd84828501611b04565b60408301525092915050565b600081359050611c1881611f81565b92915050565b6000806104008385031215611c3657611c35611f6b565b5b6000611c4485828601611ba4565b925050610100611c5685828601611aae565b9150509250929050565b611c6981611ddf565b82525050565b6000602082019050611c846000830184611c60565b92915050565b6000611c94611ca5565b9050611ca08282611df5565b919050565b6000604051905090565b600067ffffffffffffffff821115611cca57611cc9611f2d565b5b602082029050919050565b600067ffffffffffffffff821115611cf057611cef611f2d565b5b602082029050919050565b6000611d0682611deb565b9150611d1183611deb565b9250827fffffffffffffffffffffffffffffffffffffffffffffffffffffffffffffffff03821115611d4657611d45611ea0565b5b828201905092915050565b6000611d5c82611deb565b9150611d6783611deb565b9250817fffffffffffffffffffffffffffffffffffffffffffffffffffffffffffffffff0483118215151615611da057611d9f611ea0565b5b828202905092915050565b6000611db682611deb565b9150611dc183611deb565b925082821015611dd457611dd3611ea0565b5b828203905092915050565b60008115159050919050565b6000819050919050565b611dfe82611f70565b810181811067ffffffffffffffff82111715611e1d57611e1c611f2d565b5b80604052505050565b6000611e3182611deb565b91507fffffffffffffffffffffffffffffffffffffffffffffffffffffffffffffffff821415611e6457611e63611ea0565b5b600182019050919050565b6000611e7a82611deb565b9150611e8583611deb565b925082611e9557611e94611ecf565b5b828206905092915050565b7f4e487b7100000000000000000000000000000000000000000000000000000000600052601160045260246000fd5b7f4e487b7100000000000000000000000000000000000000000000000000000000600052601260045260246000fd5b7f4e487b7100000000000000000000000000000000000000000000000000000000600052603260045260246000fd5b7f4e487b7100000000000000000000000000000000000000000000000000000000600052604160045260246000fd5b600080fd5b600080fd5b600080fd5b600080fd5b6000601f19601f8301169050919050565b611f8a81611deb565b8114611f9557600080fd5b5056fea264697066735822122011b57eddfd2e5c7d80195bdbf96f382aa8b5c39cc5a2e06048d36d18b951f10564736f6c63430008060033",
  "linkReferences": {},
  "deployedLinkReferences": {}
}