{"contracts/DVSC.sol":{"Verifier":{"abi":[{"inputs":[{"components":[{"components":[{"internalType":"uint256","name":"X","type":"uint256"},{"internalType":"uint256","name":"Y","type":"uint256"}],"internalType":"struct Pairing.G1Point","name":"a","type":"tuple"},{"components":[{"internalType":"uint256[2]","name":"X","type":"uint256[2]"},{"internalType":"uint256[2]","name":"Y","type":"uint256[2]"}],"internalType":"struct Pairing.G2Point","name":"b","type":"tuple"},{"components":[{"internalType":"uint256","name":"X","type":"uint256"},{"internalType":"uint256","name":"Y","type":"uint256"}],"internalType":"struct Pairing.G1Point","name":"c","type":"tuple"}],"internalType":"struct Verifier.Proof","name":"proof","type":"tuple"},{"internalType":"uint256[33]","name":"input","type":"uint256[33]"}],"name":"verifyTx","outputs":[{"internalType":"bool","name":"r","type":"bool"}],"stateMutability":"view","type":"function"}],"evm":{"bytecode":{"linkReferences":{},"object":"608060405234801561001057600080fd5b50612406806100206000396000f3fe608060405234801561001057600080fd5b506004361061002b5760003560e01c8063785b3bbb14610030575b600080fd5b61004a60048036038101906100459190612056565b610060565b60405161005791906120a7565b60405180910390f35b600080602167ffffffffffffffff81111561007e5761007d612365565b5b6040519080825280602002602001820160405280156100ac5781602001602082028036833780820191505090505b50905060005b6021811015610105578381602181106100ce576100cd612336565b5b60200201518282815181106100e6576100e5612336565b5b60200260200101818152505080806100fd9061225e565b9150506100b2565b506000610112828661012e565b1415610122576001915050610128565b60009150505b92915050565b6000807f30644e72e131a029b85045b68181585d2833e84879b9709143e1f593f00000019050600061015e6102c5565b9050806080015151600186516101749190612133565b1461017e57600080fd5b60006040518060400160405280600081526020016000815250905060005b865181101561023757838782815181106101b9576101b8612336565b5b6020026020010151106101cb57600080fd5b6102228261021d85608001516001856101e49190612133565b815181106101f5576101f4612336565b5b60200260200101518a85815181106102105761020f612336565b5b60200260200101516115c8565b61166f565b9150808061022f9061225e565b91505061019c565b5061026181836080015160008151811061025457610253612336565b5b602002602001015161166f565b90506102a7856000015186602001516102798461173c565b856040015161028b8a6040015161173c565b876060015161029d896000015161173c565b89602001516117e1565b6102b757600193505050506102bf565b600093505050505b92915050565b6102cd611d09565b60405180604001604052807f2bb67f29167a914b03c69b8aad5970df78023cfd91a5577ad677271de06b4d0b81526020017f13c9c50fab2755366e2b8de201af295f64996cd30d1a1c7baeb745b1c62c68118152508160000181905250604051806040016040528060405180604001604052807f2542b7e7f6c84f432711b0e3397a1500989c3d8ee0ab7bd106e44078ce149f1c81526020017f12d3769c3a2d0eeb558ef2e88b94de6df9ecddec93fd449afe773948acc9ad37815250815260200160405180604001604052807f2298cb7778d78716c4dd07fd9368160b0f9af1fd0e072ff94875730e7b511b9a81526020017f2333c49f0048e17c4c1670f747eaef01db154ad51a525bcab69691a59ede5c9b8152508152508160200181905250604051806040016040528060405180604001604052807f07eec83164bad42a1547cc93699dfa19af2a9c38fd907167faaf7bf8bcb9846181526020017f0d7b38fbc41a101547de4bf7a3491b62dd3ce11638be11c766176bad67b11417815250815260200160405180604001604052807f0fdb76e698e6b9a8de83da93e7887148166edf819905d9a30658f4da380ae1f681526020017f02f03656fb857dcc2b70fe0a289debc09538fb94d07db35403affe6bf32048a98152508152508160400181905250604051806040016040528060405180604001604052807f209ce50bdbfe9497bfe1ecbd15fe30afc29606cba096d37be50cda09feb7447281526020017f20cd59fea61661090d3d2c6478da96a718187bf9369db268acbabf19e36a63af815250815260200160405180604001604052807f1d42fdbbab562bbc8362fe410b81d4e0de7515ccabe842dc7a8c4f035836f8ae81526020017f1c0bd86b30c369e5d505803c7af10e7e916c683bdd2f4beff49dcf895b9efc898152508152508160600181905250602267ffffffffffffffff81111561059457610593612365565b5b6040519080825280602002602001820160405280156105cd57816020015b6105ba611d50565b8152602001906001900390816105b25790505b50816080018190525060405180604001604052807f1517cb769a25823fdec0d666445e331c7b3fe73962f9da8160cf816ab5a3aefb81526020017f2d4c49a6b36365e6d6170b24a48d7313398c538e0d045b6aaa9ece4812d7c2c5815250816080015160008151811061064357610642612336565b5b602002602001018190525060405180604001604052807f049371186dfbab02f1e5a667d56dea886209b86cf7efae28d02faa01a8b26e1581526020017f1a8255f3bbd8f2002738efb2357ca8c715a536a16d0df7a73a77c413259047c581525081608001516001815181106106bb576106ba612336565b5b602002602001018190525060405180604001604052807f306026b09656fef0b6090149c56c6f7a7e575f0a3e22780d325c487d8c255e3a81526020017f1e3757bc89f9131e27fabb88971b04c7898d3de25231d8baae90aad2b430b2da815250816080015160028151811061073357610732612336565b5b602002602001018190525060405180604001604052807f2cfe79f5af6530940a3772db5365b445792e007d7d9ed5861f72244d9f36521781526020017f14c2a94cf6a8ad9be11edd9b2f71a4ea25a4c30619491e5b4d4bd92997ae289381525081608001516003815181106107ab576107aa612336565b5b602002602001018190525060405180604001604052807f227ed005a9975575d504b709ceb7b828ef9f7be3fdf27b1e4f98378cbd0be28281526020017f1cb6ef8899baa1180a30865a730a1c92506a32c0f550ee2375f407074242e918815250816080015160048151811061082357610822612336565b5b602002602001018190525060405180604001604052807f1f969ebc05bb91644dbbd85c22d704f0b7630727ca24ceeb452023f2621e503b81526020017f21777bb9b843210215edaf796e2b6e6fcd2e017a773c5fd75ebeee4d7f3423f5815250816080015160058151811061089b5761089a612336565b5b602002602001018190525060405180604001604052807f0f50308469cf9973cd1bfd7779c5f744840e5461098cd731ea3ee8a89ba2afab81526020017f06986a61d3d5efce945d6a1302e2205b2d00918ea5eb57999528d50af3dfb3f6815250816080015160068151811061091357610912612336565b5b602002602001018190525060405180604001604052807f0483c37ee85561ca20db8eab507df36e7e4f82cb3092116798e66aa6b42bdd7181526020017f27aac1c4dd3a87dd597e75b1c47c70587c6cc4ecd8034618992267c5d29d270f815250816080015160078151811061098b5761098a612336565b5b602002602001018190525060405180604001604052807f2eca6a2ef3b1078f673856c11c752a9d5ae8f000170648ac79cdf0ab2cab88fc81526020017f2ce4991870989bbe447a4eeb124dd4bdbba496bed42608e69299c404234f93108152508160800151600881518110610a0357610a02612336565b5b602002602001018190525060405180604001604052807f1f6ad4bd48d5e5ead6d5bb1588b88e649a0a26792b589cc19dc29fdb50ee54dd81526020017f1b9b61dd974769eb23563e2017fe61771ac0178b46e0c7c8c9fb05befdf0f7e88152508160800151600981518110610a7b57610a7a612336565b5b602002602001018190525060405180604001604052807f03bbb644d43b04cbd0ed3dc2788edca0faa9e4c10d5a0e61f9152c915c5b577781526020017f151188f1c06bec797b0354bc6ca1096d77a5b9159fb01efb0dd5413bea47c07d8152508160800151600a81518110610af357610af2612336565b5b602002602001018190525060405180604001604052807f051562be9164e211d60f4d0ee6686a7235d147c33945fcc998450d92e534ba8a81526020017f2d07f3228b18f9d6824e826eb2c7728f773de58231559a59a922a14a62596ba38152508160800151600b81518110610b6b57610b6a612336565b5b602002602001018190525060405180604001604052807ea8cf0675c863d293712e69447476920a986bd7032845646d81eb10cbf90e9281526020017f2a93896d37bb134e594e3777478f4e04eb3ab7e72e78cd5e0ea32dcc2cd929e48152508160800151600c81518110610be257610be1612336565b5b602002602001018190525060405180604001604052807f2a42456b8f9a8f1c682965e8002e613ffd7427aba5be5c448bbeddea67894e6381526020017f16aee652badfea6cd01c07acb6851986ae6bbf5b4f62314494aa161b694698778152508160800151600d81518110610c5a57610c59612336565b5b602002602001018190525060405180604001604052807f1d8b4596fe77e19d2dbb6c7e2e5ba5ba22bbedc2a056d05dd71374fe7e77a47181526020017f28b753a8e0a0bc1a2240308a407c2c7a9bc239c3ad93018da97d1b1fb883fc388152508160800151600e81518110610cd257610cd1612336565b5b602002602001018190525060405180604001604052807f12ca959a9673fb0c605b630925e6cc000baca56051c4d390dd59837d1be84c3081526020017f191054d3defa686058f960320c6e42821019a3c8ed00f825f71b89972e3a008b8152508160800151600f81518110610d4a57610d49612336565b5b602002602001018190525060405180604001604052807f112782c9cb74c9262c3044552a1ad0c3454475af0086df050f0bfeff4a2a3c8881526020017f0f689d7e9f3c7d400a3d99f8b2294295f128f9bfd1120f431d3eb37454f2fea28152508160800151601081518110610dc257610dc1612336565b5b602002602001018190525060405180604001604052807f0d88f8c2ee3a606e1531dde6c5dcf657e364bbc4be399f1ab0ee5bebd6956c8481526020017f173dd500761fb23ac92bece019c493f979e235f8c3655b0ac8b0633fe475243a8152508160800151601181518110610e3a57610e39612336565b5b602002602001018190525060405180604001604052807f2a37ff8c8e3e387bdb7bc3cd1b5699d8ea6adef8775e1a88382f29c80d32a91181526020017f0dde7083da3fa1867d565468845ab2fb4ef34ce8a7e2e5e5a3e3b3ed3d36b2928152508160800151601281518110610eb257610eb1612336565b5b602002602001018190525060405180604001604052807f0c2e0700e603d2d6e5181ea4e2712e2d7942af6e57aade458634acbf5a02226281526020017f0ed66cfa115522601b4986e575086e9a400b91e786a944d49a5a1c3d20dc47e38152508160800151601381518110610f2a57610f29612336565b5b602002602001018190525060405180604001604052807f061a3ef2933ebffb0d1c92bacc7a6f942d3496b5d2f9d420179d76e0b10d1cc281526020017f288075d750e3a16a08ade4dd0d40462d8472b511dae55d092f02cedaccd63a198152508160800151601481518110610fa257610fa1612336565b5b602002602001018190525060405180604001604052807f1524c55b15ffff304130597d442ef82d94d405794182c1f8789432308a19ef3a81526020017f0328990caafae119eecd82e9e5e3024b134bc2a98cb6288b06726f9e21cbae56815250816080015160158151811061101a57611019612336565b5b602002602001018190525060405180604001604052807f234703ead7399c7b9e4c54a8157000d84e4ca8eb84a418bdb86df061775b0e2c81526020017f018991d4dec51143dcf14df9bbaf467fedab28dd7579102c3b23dfdc703361a4815250816080015160168151811061109257611091612336565b5b602002602001018190525060405180604001604052807f03355d14aa7a28e6ad3ce21101b6e28dd959f69f7a5b706a74b1bbe06459e98e81526020017f20b38104acdd98539590a6cc3368ba57f0af640afd682dfd7e3a7233b8fd0019815250816080015160178151811061110a57611109612336565b5b602002602001018190525060405180604001604052807f1c6f7f3c67f61997d9f704c5841bd848b7febe35bb78ceda5fb281bccb53fdb681526020017f1596fd346975b7770be554a628028e337bce1191194f1cf6e0f935b8486693bf815250816080015160188151811061118257611181612336565b5b602002602001018190525060405180604001604052807f076777f19833706d75f5c5d454d7caca6c1d1ba835993187a944a919fa4beb7281526020017f0900b771b22d70055e26d2feccf852ab4e63e03b65410477f427f7dbd4f5918381525081608001516019815181106111fa576111f9612336565b5b602002602001018190525060405180604001604052807f2aa2cadc31147b9fcfb1c9c48cbeb0f298c5c83dfe9aa61bc882439585f7af0281526020017f27d43212075055218a9afe7ca704d18e15590007dadf609c7ba23a83ecfe578a8152508160800151601a8151811061127257611271612336565b5b602002602001018190525060405180604001604052807f0500c18e33846cc0fd51dc76660d664fa992e5da5634cb76d414a463ae0f961a81526020017f14c7a169ae4bae697823895a69b2d51de80e2dc2d7cfc4c1e203818fab66b7998152508160800151601b815181106112ea576112e9612336565b5b602002602001018190525060405180604001604052807f1705ebadc9433087e8dafde511e87e63c1a5e8f4e2ab0157a1c4a2c68ea49d1f81526020017f253e7583c7339bbcb83359904fcf814ad7b582cfdeea5a9663b0fb516c6b2b058152508160800151601c8151811061136257611361612336565b5b602002602001018190525060405180604001604052807f271883e4f9eaa9b1d7e75c60523fadb8254eb78ed2898243fa66cb53a3cd0c0e81526020017f063dac9b4fc0beaf120679c4c59e622e2b18efb179061740b3d03b1a8e5b15498152508160800151601d815181106113da576113d9612336565b5b602002602001018190525060405180604001604052807f1fefd64b5a4f136aa759cb4c15769c66aa6c7e9a8a16560439a4bea66741ec6981526020017f1a12a7551ba425d4151549c26f8b62c3026f6bc6c97034b18998fcfa40b998b48152508160800151601e8151811061145257611451612336565b5b602002602001018190525060405180604001604052807f299568b599f1eb133991a4308da461574f359ac06c7bfe68900899ab8f9b8be181526020017f2127d4c5efde5bfa4f64d402787ea6929e04a6b39ea8c91df4e2bac4d584843b8152508160800151601f815181106114ca576114c9612336565b5b602002602001018190525060405180604001604052807f04f4edd3b0bcfb93401f44ada2225278c80ce998997efda125be17e387b94e7981526020017f141d2a5fa9dd49d8b925dd5fd9c16cf08f52e0dd0b803b706fd0dae21e775635815250816080015160208151811061154257611541612336565b5b602002602001018190525060405180604001604052807f17ffa3baa6f2c1a5ff83f5bf187db94b2990d64eff9ecb1f35ddcce9e0a729ae81526020017f26bdb5af039aa3beb44a12bdd1ab993e1a7643ee269d9284a8e6f56f5fa28fdb81525081608001516021815181106115ba576115b9612336565b5b602002602001018190525090565b6115d0611d50565b6115d8611d6a565b8360000151816000600381106115f1576115f0612336565b5b60200201818152505083602001518160016003811061161357611612612336565b5b602002018181525050828160026003811061163157611630612336565b5b602002018181525050600060608360808460076107d05a03fa9050806000811461165a5761165c565bfe5b508061166757600080fd5b505092915050565b611677611d50565b61167f611d8c565b83600001518160006004811061169857611697612336565b5b6020020181815250508360200151816001600481106116ba576116b9612336565b5b6020020181815250508260000151816002600481106116dc576116db612336565b5b6020020181815250508260200151816003600481106116fe576116fd612336565b5b602002018181525050600060608360c08460066107d05a03fa9050806000811461172757611729565bfe5b508061173457600080fd5b505092915050565b611744611d50565b60007f30644e72e131a029b85045b68181585d97816a916871ca8d3c208c16d87cfd47905060008360000151148015611781575060008360200151145b156117a55760405180604001604052806000815260200160008152509150506117dc565b6040518060400160405280846000015181526020018285602001516117ca91906122a7565b836117d591906121e3565b8152509150505b919050565b600080600467ffffffffffffffff8111156117ff576117fe612365565b5b60405190808252806020026020018201604052801561183857816020015b611825611d50565b81526020019060019003908161181d5790505b5090506000600467ffffffffffffffff81111561185857611857612365565b5b60405190808252806020026020018201604052801561189157816020015b61187e611dae565b8152602001906001900390816118765790505b5090508a826000815181106118a9576118a8612336565b5b602002602001018190525088826001815181106118c9576118c8612336565b5b602002602001018190525086826002815181106118e9576118e8612336565b5b6020026020010181905250848260038151811061190957611908612336565b5b6020026020010181905250898160008151811061192957611928612336565b5b6020026020010181905250878160018151811061194957611948612336565b5b6020026020010181905250858160028151811061196957611968612336565b5b6020026020010181905250838160038151811061198957611988612336565b5b602002602001018190525061199e82826119ae565b9250505098975050505050505050565b600081518351146119be57600080fd5b60008351905060006006826119d39190612189565b905060008167ffffffffffffffff8111156119f1576119f0612365565b5b604051908082528060200260200182016040528015611a1f5781602001602082028036833780820191505090505b50905060005b83811015611ca457868181518110611a4057611a3f612336565b5b602002602001015160000151826000600684611a5c9190612189565b611a669190612133565b81518110611a7757611a76612336565b5b602002602001018181525050868181518110611a9657611a95612336565b5b602002602001015160200151826001600684611ab29190612189565b611abc9190612133565b81518110611acd57611acc612336565b5b602002602001018181525050858181518110611aec57611aeb612336565b5b602002602001015160000151600160028110611b0b57611b0a612336565b5b6020020151826002600684611b209190612189565b611b2a9190612133565b81518110611b3b57611b3a612336565b5b602002602001018181525050858181518110611b5a57611b59612336565b5b602002602001015160000151600060028110611b7957611b78612336565b5b6020020151826003600684611b8e9190612189565b611b989190612133565b81518110611ba957611ba8612336565b5b602002602001018181525050858181518110611bc857611bc7612336565b5b602002602001015160200151600160028110611be757611be6612336565b5b6020020151826004600684611bfc9190612189565b611c069190612133565b81518110611c1757611c16612336565b5b602002602001018181525050858181518110611c3657611c35612336565b5b602002602001015160200151600060028110611c5557611c54612336565b5b6020020151826005600684611c6a9190612189565b611c749190612133565b81518110611c8557611c84612336565b5b6020026020010181815250508080611c9c9061225e565b915050611a25565b50611cad611dd4565b6000602082602086026020860160086107d05a03fa90508060008114611cd257611cd4565bfe5b5080611cdf57600080fd5b600082600060018110611cf557611cf4612336565b5b602002015114159550505050505092915050565b6040518060a00160405280611d1c611d50565b8152602001611d29611dae565b8152602001611d36611dae565b8152602001611d43611dae565b8152602001606081525090565b604051806040016040528060008152602001600081525090565b6040518060600160405280600390602082028036833780820191505090505090565b6040518060800160405280600490602082028036833780820191505090505090565b6040518060400160405280611dc1611df6565b8152602001611dce611df6565b81525090565b6040518060200160405280600190602082028036833780820191505090505090565b6040518060400160405280600290602082028036833780820191505090505090565b6000611e2b611e26846120e7565b6120c2565b90508082856020860282011115611e4557611e4461239e565b5b60005b85811015611e755781611e5b8882612041565b845260208401935060208301925050600181019050611e48565b5050509392505050565b6000611e92611e8d8461210d565b6120c2565b90508082856020860282011115611eac57611eab61239e565b5b60005b85811015611edc5781611ec28882612041565b845260208401935060208301925050600181019050611eaf565b5050509392505050565b600082601f830112611efb57611efa612394565b5b6002611f08848285611e18565b91505092915050565b600082601f830112611f2657611f25612394565b5b6021611f33848285611e7f565b91505092915050565b600060408284031215611f5257611f51612399565b5b611f5c60406120c2565b90506000611f6c84828501612041565b6000830152506020611f8084828501612041565b60208301525092915050565b600060808284031215611fa257611fa1612399565b5b611fac60406120c2565b90506000611fbc84828501611ee6565b6000830152506040611fd084828501611ee6565b60208301525092915050565b60006101008284031215611ff357611ff2612399565b5b611ffd60606120c2565b9050600061200d84828501611f3c565b600083015250604061202184828501611f8c565b60208301525060c061203584828501611f3c565b60408301525092915050565b600081359050612050816123b9565b92915050565b600080610520838503121561206e5761206d6123a3565b5b600061207c85828601611fdc565b92505061010061208e85828601611f11565b9150509250929050565b6120a181612217565b82525050565b60006020820190506120bc6000830184612098565b92915050565b60006120cc6120dd565b90506120d8828261222d565b919050565b6000604051905090565b600067ffffffffffffffff82111561210257612101612365565b5b602082029050919050565b600067ffffffffffffffff82111561212857612127612365565b5b602082029050919050565b600061213e82612223565b915061214983612223565b9250827fffffffffffffffffffffffffffffffffffffffffffffffffffffffffffffffff0382111561217e5761217d6122d8565b5b828201905092915050565b600061219482612223565b915061219f83612223565b9250817fffffffffffffffffffffffffffffffffffffffffffffffffffffffffffffffff04831182151516156121d8576121d76122d8565b5b828202905092915050565b60006121ee82612223565b91506121f983612223565b92508282101561220c5761220b6122d8565b5b828203905092915050565b60008115159050919050565b6000819050919050565b612236826123a8565b810181811067ffffffffffffffff8211171561225557612254612365565b5b80604052505050565b600061226982612223565b91507fffffffffffffffffffffffffffffffffffffffffffffffffffffffffffffffff82141561229c5761229b6122d8565b5b600182019050919050565b60006122b282612223565b91506122bd83612223565b9250826122cd576122cc612307565b5b828206905092915050565b7f4e487b7100000000000000000000000000000000000000000000000000000000600052601160045260246000fd5b7f4e487b7100000000000000000000000000000000000000000000000000000000600052601260045260246000fd5b7f4e487b7100000000000000000000000000000000000000000000000000000000600052603260045260246000fd5b7f4e487b7100000000000000000000000000000000000000000000000000000000600052604160045260246000fd5b600080fd5b600080fd5b600080fd5b600080fd5b6000601f19601f8301169050919050565b6123c281612223565b81146123cd57600080fd5b5056fea2646970667358221220836986224607e71195c975f0ebcbbd6f5729b381a93aba4ff4d0f857fb424e0564736f6c63430008060033","opcodes":"PUSH1 0x80 PUSH1 0x40 MSTORE CALLVALUE DUP1 ISZERO PUSH2 0x10 JUMPI PUSH1 0x0 DUP1 REVERT JUMPDEST POP PUSH2 0x2406 DUP1 PUSH2 0x20 PUSH1 0x0 CODECOPY PUSH1 0x0 RETURN INVALID PUSH1 0x80 PUSH1 0x40 MSTORE CALLVALUE DUP1 ISZERO PUSH2 0x10 JUMPI PUSH1 0x0 DUP1 REVERT JUMPDEST POP PUSH1 0x4 CALLDATASIZE LT PUSH2 0x2B JUMPI PUSH1 0x0 CALLDATALOAD PUSH1 0xE0 SHR DUP1 PUSH4 0x785B3BBB EQ PUSH2 0x30 JUMPI JUMPDEST PUSH1 0x0 DUP1 REVERT JUMPDEST PUSH2 0x4A PUSH1 0x4 DUP1 CALLDATASIZE SUB DUP2 ADD SWAP1 PUSH2 0x45 SWAP2 SWAP1 PUSH2 0x2056 JUMP JUMPDEST PUSH2 0x60 JUMP JUMPDEST PUSH1 0x40 MLOAD PUSH2 0x57 SWAP2 SWAP1 PUSH2 0x20A7 JUMP JUMPDEST PUSH1 0x40 MLOAD DUP1 SWAP2 SUB SWAP1 RETURN JUMPDEST PUSH1 0x0 DUP1 PUSH1 0x21 PUSH8 0xFFFFFFFFFFFFFFFF DUP2 GT ISZERO PUSH2 0x7E JUMPI PUSH2 0x7D PUSH2 0x2365 JUMP JUMPDEST JUMPDEST PUSH1 0x40 MLOAD SWAP1 DUP1 DUP3 MSTORE DUP1 PUSH1 0x20 MUL PUSH1 0x20 ADD DUP3 ADD PUSH1 0x40 MSTORE DUP1 ISZERO PUSH2 0xAC JUMPI DUP2 PUSH1 0x20 ADD PUSH1 0x20 DUP3 MUL DUP1 CALLDATASIZE DUP4 CALLDATACOPY DUP1 DUP3 ADD SWAP2 POP POP SWAP1 POP JUMPDEST POP SWAP1 POP PUSH1 0x0 JUMPDEST PUSH1 0x21 DUP2 LT ISZERO PUSH2 0x105 JUMPI DUP4 DUP2 PUSH1 0x21 DUP2 LT PUSH2 0xCE JUMPI PUSH2 0xCD PUSH2 0x2336 JUMP JUMPDEST JUMPDEST PUSH1 0x20 MUL ADD MLOAD DUP3 DUP3 DUP2 MLOAD DUP2 LT PUSH2 0xE6 JUMPI PUSH2 0xE5 PUSH2 0x2336 JUMP JUMPDEST JUMPDEST PUSH1 0x20 MUL PUSH1 0x20 ADD ADD DUP2 DUP2 MSTORE POP POP DUP1 DUP1 PUSH2 0xFD SWAP1 PUSH2 0x225E JUMP JUMPDEST SWAP2 POP POP PUSH2 0xB2 JUMP JUMPDEST POP PUSH1 0x0 PUSH2 0x112 DUP3 DUP7 PUSH2 0x12E JUMP JUMPDEST EQ ISZERO PUSH2 0x122 JUMPI PUSH1 0x1 SWAP2 POP POP PUSH2 0x128 JUMP JUMPDEST PUSH1 0x0 SWAP2 POP POP JUMPDEST SWAP3 SWAP2 POP POP JUMP JUMPDEST PUSH1 0x0 DUP1 PUSH32 0x30644E72E131A029B85045B68181585D2833E84879B9709143E1F593F0000001 SWAP1 POP PUSH1 0x0 PUSH2 0x15E PUSH2 0x2C5 JUMP JUMPDEST SWAP1 POP DUP1 PUSH1 0x80 ADD MLOAD MLOAD PUSH1 0x1 DUP7 MLOAD PUSH2 0x174 SWAP2 SWAP1 PUSH2 0x2133 JUMP JUMPDEST EQ PUSH2 0x17E JUMPI PUSH1 0x0 DUP1 REVERT JUMPDEST PUSH1 0x0 PUSH1 0x40 MLOAD DUP1 PUSH1 0x40 ADD PUSH1 0x40 MSTORE DUP1 PUSH1 0x0 DUP2 MSTORE PUSH1 0x20 ADD PUSH1 0x0 DUP2 MSTORE POP SWAP1 POP PUSH1 0x0 JUMPDEST DUP7 MLOAD DUP2 LT ISZERO PUSH2 0x237 JUMPI DUP4 DUP8 DUP3 DUP2 MLOAD DUP2 LT PUSH2 0x1B9 JUMPI PUSH2 0x1B8 PUSH2 0x2336 JUMP JUMPDEST JUMPDEST PUSH1 0x20 MUL PUSH1 0x20 ADD ADD MLOAD LT PUSH2 0x1CB JUMPI PUSH1 0x0 DUP1 REVERT JUMPDEST PUSH2 0x222 DUP3 PUSH2 0x21D DUP6 PUSH1 0x80 ADD MLOAD PUSH1 0x1 DUP6 PUSH2 0x1E4 SWAP2 SWAP1 PUSH2 0x2133 JUMP JUMPDEST DUP2 MLOAD DUP2 LT PUSH2 0x1F5 JUMPI PUSH2 0x1F4 PUSH2 0x2336 JUMP JUMPDEST JUMPDEST PUSH1 0x20 MUL PUSH1 0x20 ADD ADD MLOAD DUP11 DUP6 DUP2 MLOAD DUP2 LT PUSH2 0x210 JUMPI PUSH2 0x20F PUSH2 0x2336 JUMP JUMPDEST JUMPDEST PUSH1 0x20 MUL PUSH1 0x20 ADD ADD MLOAD PUSH2 0x15C8 JUMP JUMPDEST PUSH2 0x166F JUMP JUMPDEST SWAP2 POP DUP1 DUP1 PUSH2 0x22F SWAP1 PUSH2 0x225E JUMP JUMPDEST SWAP2 POP POP PUSH2 0x19C JUMP JUMPDEST POP PUSH2 0x261 DUP2 DUP4 PUSH1 0x80 ADD MLOAD PUSH1 0x0 DUP2 MLOAD DUP2 LT PUSH2 0x254 JUMPI PUSH2 0x253 PUSH2 0x2336 JUMP JUMPDEST JUMPDEST PUSH1 0x20 MUL PUSH1 0x20 ADD ADD MLOAD PUSH2 0x166F JUMP JUMPDEST SWAP1 POP PUSH2 0x2A7 DUP6 PUSH1 0x0 ADD MLOAD DUP7 PUSH1 0x20 ADD MLOAD PUSH2 0x279 DUP5 PUSH2 0x173C JUMP JUMPDEST DUP6 PUSH1 0x40 ADD MLOAD PUSH2 0x28B DUP11 PUSH1 0x40 ADD MLOAD PUSH2 0x173C JUMP JUMPDEST DUP8 PUSH1 0x60 ADD MLOAD PUSH2 0x29D DUP10 PUSH1 0x0 ADD MLOAD PUSH2 0x173C JUMP JUMPDEST DUP10 PUSH1 0x20 ADD MLOAD PUSH2 0x17E1 JUMP JUMPDEST PUSH2 0x2B7 JUMPI PUSH1 0x1 SWAP4 POP POP POP POP PUSH2 0x2BF JUMP JUMPDEST PUSH1 0x0 SWAP4 POP POP POP POP JUMPDEST SWAP3 SWAP2 POP POP JUMP JUMPDEST PUSH2 0x2CD PUSH2 0x1D09 JUMP JUMPDEST PUSH1 0x40 MLOAD DUP1 PUSH1 0x40 ADD PUSH1 0x40 MSTORE DUP1 PUSH32 0x2BB67F29167A914B03C69B8AAD5970DF78023CFD91A5577AD677271DE06B4D0B DUP2 MSTORE PUSH1 0x20 ADD PUSH32 0x13C9C50FAB2755366E2B8DE201AF295F64996CD30D1A1C7BAEB745B1C62C6811 DUP2 MSTORE POP DUP2 PUSH1 0x0 ADD DUP2 SWAP1 MSTORE POP PUSH1 0x40 MLOAD DUP1 PUSH1 0x40 ADD PUSH1 0x40 MSTORE DUP1 PUSH1 0x40 MLOAD DUP1 PUSH1 0x40 ADD PUSH1 0x40 MSTORE DUP1 PUSH32 0x2542B7E7F6C84F432711B0E3397A1500989C3D8EE0AB7BD106E44078CE149F1C DUP2 MSTORE PUSH1 0x20 ADD PUSH32 0x12D3769C3A2D0EEB558EF2E88B94DE6DF9ECDDEC93FD449AFE773948ACC9AD37 DUP2 MSTORE POP DUP2 MSTORE PUSH1 0x20 ADD PUSH1 0x40 MLOAD DUP1 PUSH1 0x40 ADD PUSH1 0x40 MSTORE DUP1 PUSH32 0x2298CB7778D78716C4DD07FD9368160B0F9AF1FD0E072FF94875730E7B511B9A DUP2 MSTORE PUSH1 0x20 ADD PUSH32 0x2333C49F0048E17C4C1670F747EAEF01DB154AD51A525BCAB69691A59EDE5C9B DUP2 MSTORE POP DUP2 MSTORE POP DUP2 PUSH1 0x20 ADD DUP2 SWAP1 MSTORE POP PUSH1 0x40 MLOAD DUP1 PUSH1 0x40 ADD PUSH1 0x40 MSTORE DUP1 PUSH1 0x40 MLOAD DUP1 PUSH1 0x40 ADD PUSH1 0x40 MSTORE DUP1 PUSH32 0x7EEC83164BAD42A1547CC93699DFA19AF2A9C38FD907167FAAF7BF8BCB98461 DUP2 MSTORE PUSH1 0x20 ADD PUSH32 0xD7B38FBC41A101547DE4BF7A3491B62DD3CE11638BE11C766176BAD67B11417 DUP2 MSTORE POP DUP2 MSTORE PUSH1 0x20 ADD PUSH1 0x40 MLOAD DUP1 PUSH1 0x40 ADD PUSH1 0x40 MSTORE DUP1 PUSH32 0xFDB76E698E6B9A8DE83DA93E7887148166EDF819905D9A30658F4DA380AE1F6 DUP2 MSTORE PUSH1 0x20 ADD PUSH32 0x2F03656FB857DCC2B70FE0A289DEBC09538FB94D07DB35403AFFE6BF32048A9 DUP2 MSTORE POP DUP2 MSTORE POP DUP2 PUSH1 0x40 ADD DUP2 SWAP1 MSTORE POP PUSH1 0x40 MLOAD DUP1 PUSH1 0x40 ADD PUSH1 0x40 MSTORE DUP1 PUSH1 0x40 MLOAD DUP1 PUSH1 0x40 ADD PUSH1 0x40 MSTORE DUP1 PUSH32 0x209CE50BDBFE9497BFE1ECBD15FE30AFC29606CBA096D37BE50CDA09FEB74472 DUP2 MSTORE PUSH1 0x20 ADD PUSH32 0x20CD59FEA61661090D3D2C6478DA96A718187BF9369DB268ACBABF19E36A63AF DUP2 MSTORE POP DUP2 MSTORE PUSH1 0x20 ADD PUSH1 0x40 MLOAD DUP1 PUSH1 0x40 ADD PUSH1 0x40 MSTORE DUP1 PUSH32 0x1D42FDBBAB562BBC8362FE410B81D4E0DE7515CCABE842DC7A8C4F035836F8AE DUP2 MSTORE PUSH1 0x20 ADD PUSH32 0x1C0BD86B30C369E5D505803C7AF10E7E916C683BDD2F4BEFF49DCF895B9EFC89 DUP2 MSTORE POP DUP2 MSTORE POP DUP2 PUSH1 0x60 ADD DUP2 SWAP1 MSTORE POP PUSH1 0x22 PUSH8 0xFFFFFFFFFFFFFFFF DUP2 GT ISZERO PUSH2 0x594 JUMPI PUSH2 0x593 PUSH2 0x2365 JUMP JUMPDEST JUMPDEST PUSH1 0x40 MLOAD SWAP1 DUP1 DUP3 MSTORE DUP1 PUSH1 0x20 MUL PUSH1 0x20 ADD DUP3 ADD PUSH1 0x40 MSTORE DUP1 ISZERO PUSH2 0x5CD JUMPI DUP2 PUSH1 0x20 ADD JUMPDEST PUSH2 0x5BA PUSH2 0x1D50 JUMP JUMPDEST DUP2 MSTORE PUSH1 0x20 ADD SWAP1 PUSH1 0x1 SWAP1 SUB SWAP1 DUP2 PUSH2 0x5B2 JUMPI SWAP1 POP JUMPDEST POP DUP2 PUSH1 0x80 ADD DUP2 SWAP1 MSTORE POP PUSH1 0x40 MLOAD DUP1 PUSH1 0x40 ADD PUSH1 0x40 MSTORE DUP1 PUSH32 0x1517CB769A25823FDEC0D666445E331C7B3FE73962F9DA8160CF816AB5A3AEFB DUP2 MSTORE PUSH1 0x20 ADD PUSH32 0x2D4C49A6B36365E6D6170B24A48D7313398C538E0D045B6AAA9ECE4812D7C2C5 DUP2 MSTORE POP DUP2 PUSH1 0x80 ADD MLOAD PUSH1 0x0 DUP2 MLOAD DUP2 LT PUSH2 0x643 JUMPI PUSH2 0x642 PUSH2 0x2336 JUMP JUMPDEST JUMPDEST PUSH1 0x20 MUL PUSH1 0x20 ADD ADD DUP2 SWAP1 MSTORE POP PUSH1 0x40 MLOAD DUP1 PUSH1 0x40 ADD PUSH1 0x40 MSTORE DUP1 PUSH32 0x49371186DFBAB02F1E5A667D56DEA886209B86CF7EFAE28D02FAA01A8B26E15 DUP2 MSTORE PUSH1 0x20 ADD PUSH32 0x1A8255F3BBD8F2002738EFB2357CA8C715A536A16D0DF7A73A77C413259047C5 DUP2 MSTORE POP DUP2 PUSH1 0x80 ADD MLOAD PUSH1 0x1 DUP2 MLOAD DUP2 LT PUSH2 0x6BB JUMPI PUSH2 0x6BA PUSH2 0x2336 JUMP JUMPDEST JUMPDEST PUSH1 0x20 MUL PUSH1 0x20 ADD ADD DUP2 SWAP1 MSTORE POP PUSH1 0x40 MLOAD DUP1 PUSH1 0x40 ADD PUSH1 0x40 MSTORE DUP1 PUSH32 0x306026B09656FEF0B6090149C56C6F7A7E575F0A3E22780D325C487D8C255E3A DUP2 MSTORE PUSH1 0x20 ADD PUSH32 0x1E3757BC89F9131E27FABB88971B04C7898D3DE25231D8BAAE90AAD2B430B2DA DUP2 MSTORE POP DUP2 PUSH1 0x80 ADD MLOAD PUSH1 0x2 DUP2 MLOAD DUP2 LT PUSH2 0x733 JUMPI PUSH2 0x732 PUSH2 0x2336 JUMP JUMPDEST JUMPDEST PUSH1 0x20 MUL PUSH1 0x20 ADD ADD DUP2 SWAP1 MSTORE POP PUSH1 0x40 MLOAD DUP1 PUSH1 0x40 ADD PUSH1 0x40 MSTORE DUP1 PUSH32 0x2CFE79F5AF6530940A3772DB5365B445792E007D7D9ED5861F72244D9F365217 DUP2 MSTORE PUSH1 0x20 ADD PUSH32 0x14C2A94CF6A8AD9BE11EDD9B2F71A4EA25A4C30619491E5B4D4BD92997AE2893 DUP2 MSTORE POP DUP2 PUSH1 0x80 ADD MLOAD PUSH1 0x3 DUP2 MLOAD DUP2 LT PUSH2 0x7AB JUMPI PUSH2 0x7AA PUSH2 0x2336 JUMP JUMPDEST JUMPDEST PUSH1 0x20 MUL PUSH1 0x20 ADD ADD DUP2 SWAP1 MSTORE POP PUSH1 0x40 MLOAD DUP1 PUSH1 0x40 ADD PUSH1 0x40 MSTORE DUP1 PUSH32 0x227ED005A9975575D504B709CEB7B828EF9F7BE3FDF27B1E4F98378CBD0BE282 DUP2 MSTORE PUSH1 0x20 ADD PUSH32 0x1CB6EF8899BAA1180A30865A730A1C92506A32C0F550EE2375F407074242E918 DUP2 MSTORE POP DUP2 PUSH1 0x80 ADD MLOAD PUSH1 0x4 DUP2 MLOAD DUP2 LT PUSH2 0x823 JUMPI PUSH2 0x822 PUSH2 0x2336 JUMP JUMPDEST JUMPDEST PUSH1 0x20 MUL PUSH1 0x20 ADD ADD DUP2 SWAP1 MSTORE POP PUSH1 0x40 MLOAD DUP1 PUSH1 0x40 ADD PUSH1 0x40 MSTORE DUP1 PUSH32 0x1F969EBC05BB91644DBBD85C22D704F0B7630727CA24CEEB452023F2621E503B DUP2 MSTORE PUSH1 0x20 ADD PUSH32 0x21777BB9B843210215EDAF796E2B6E6FCD2E017A773C5FD75EBEEE4D7F3423F5 DUP2 MSTORE POP DUP2 PUSH1 0x80 ADD MLOAD PUSH1 0x5 DUP2 MLOAD DUP2 LT PUSH2 0x89B JUMPI PUSH2 0x89A PUSH2 0x2336 JUMP JUMPDEST JUMPDEST PUSH1 0x20 MUL PUSH1 0x20 ADD ADD DUP2 SWAP1 MSTORE POP PUSH1 0x40 MLOAD DUP1 PUSH1 0x40 ADD PUSH1 0x40 MSTORE DUP1 PUSH32 0xF50308469CF9973CD1BFD7779C5F744840E5461098CD731EA3EE8A89BA2AFAB DUP2 MSTORE PUSH1 0x20 ADD PUSH32 0x6986A61D3D5EFCE945D6A1302E2205B2D00918EA5EB57999528D50AF3DFB3F6 DUP2 MSTORE POP DUP2 PUSH1 0x80 ADD MLOAD PUSH1 0x6 DUP2 MLOAD DUP2 LT PUSH2 0x913 JUMPI PUSH2 0x912 PUSH2 0x2336 JUMP JUMPDEST JUMPDEST PUSH1 0x20 MUL PUSH1 0x20 ADD ADD DUP2 SWAP1 MSTORE POP PUSH1 0x40 MLOAD DUP1 PUSH1 0x40 ADD PUSH1 0x40 MSTORE DUP1 PUSH32 0x483C37EE85561CA20DB8EAB507DF36E7E4F82CB3092116798E66AA6B42BDD71 DUP2 MSTORE PUSH1 0x20 ADD PUSH32 0x27AAC1C4DD3A87DD597E75B1C47C70587C6CC4ECD8034618992267C5D29D270F DUP2 MSTORE POP DUP2 PUSH1 0x80 ADD MLOAD PUSH1 0x7 DUP2 MLOAD DUP2 LT PUSH2 0x98B JUMPI PUSH2 0x98A PUSH2 0x2336 JUMP JUMPDEST JUMPDEST PUSH1 0x20 MUL PUSH1 0x20 ADD ADD DUP2 SWAP1 MSTORE POP PUSH1 0x40 MLOAD DUP1 PUSH1 0x40 ADD PUSH1 0x40 MSTORE DUP1 PUSH32 0x2ECA6A2EF3B1078F673856C11C752A9D5AE8F000170648AC79CDF0AB2CAB88FC DUP2 MSTORE PUSH1 0x20 ADD PUSH32 0x2CE4991870989BBE447A4EEB124DD4BDBBA496BED42608E69299C404234F9310 DUP2 MSTORE POP DUP2 PUSH1 0x80 ADD MLOAD PUSH1 0x8 DUP2 MLOAD DUP2 LT PUSH2 0xA03 JUMPI PUSH2 0xA02 PUSH2 0x2336 JUMP JUMPDEST JUMPDEST PUSH1 0x20 MUL PUSH1 0x20 ADD ADD DUP2 SWAP1 MSTORE POP PUSH1 0x40 MLOAD DUP1 PUSH1 0x40 ADD PUSH1 0x40 MSTORE DUP1 PUSH32 0x1F6AD4BD48D5E5EAD6D5BB1588B88E649A0A26792B589CC19DC29FDB50EE54DD DUP2 MSTORE PUSH1 0x20 ADD PUSH32 0x1B9B61DD974769EB23563E2017FE61771AC0178B46E0C7C8C9FB05BEFDF0F7E8 DUP2 MSTORE POP DUP2 PUSH1 0x80 ADD MLOAD PUSH1 0x9 DUP2 MLOAD DUP2 LT PUSH2 0xA7B JUMPI PUSH2 0xA7A PUSH2 0x2336 JUMP JUMPDEST JUMPDEST PUSH1 0x20 MUL PUSH1 0x20 ADD ADD DUP2 SWAP1 MSTORE POP PUSH1 0x40 MLOAD DUP1 PUSH1 0x40 ADD PUSH1 0x40 MSTORE DUP1 PUSH32 0x3BBB644D43B04CBD0ED3DC2788EDCA0FAA9E4C10D5A0E61F9152C915C5B5777 DUP2 MSTORE PUSH1 0x20 ADD PUSH32 0x151188F1C06BEC797B0354BC6CA1096D77A5B9159FB01EFB0DD5413BEA47C07D DUP2 MSTORE POP DUP2 PUSH1 0x80 ADD MLOAD PUSH1 0xA DUP2 MLOAD DUP2 LT PUSH2 0xAF3 JUMPI PUSH2 0xAF2 PUSH2 0x2336 JUMP JUMPDEST JUMPDEST PUSH1 0x20 MUL PUSH1 0x20 ADD ADD DUP2 SWAP1 MSTORE POP PUSH1 0x40 MLOAD DUP1 PUSH1 0x40 ADD PUSH1 0x40 MSTORE DUP1 PUSH32 0x51562BE9164E211D60F4D0EE6686A7235D147C33945FCC998450D92E534BA8A DUP2 MSTORE PUSH1 0x20 ADD PUSH32 0x2D07F3228B18F9D6824E826EB2C7728F773DE58231559A59A922A14A62596BA3 DUP2 MSTORE POP DUP2 PUSH1 0x80 ADD MLOAD PUSH1 0xB DUP2 MLOAD DUP2 LT PUSH2 0xB6B JUMPI PUSH2 0xB6A PUSH2 0x2336 JUMP JUMPDEST JUMPDEST PUSH1 0x20 MUL PUSH1 0x20 ADD ADD DUP2 SWAP1 MSTORE POP PUSH1 0x40 MLOAD DUP1 PUSH1 0x40 ADD PUSH1 0x40 MSTORE DUP1 PUSH31 0xA8CF0675C863D293712E69447476920A986BD7032845646D81EB10CBF90E92 DUP2 MSTORE PUSH1 0x20 ADD PUSH32 0x2A93896D37BB134E594E3777478F4E04EB3AB7E72E78CD5E0EA32DCC2CD929E4 DUP2 MSTORE POP DUP2 PUSH1 0x80 ADD MLOAD PUSH1 0xC DUP2 MLOAD DUP2 LT PUSH2 0xBE2 JUMPI PUSH2 0xBE1 PUSH2 0x2336 JUMP JUMPDEST JUMPDEST PUSH1 0x20 MUL PUSH1 0x20 ADD ADD DUP2 SWAP1 MSTORE POP PUSH1 0x40 MLOAD DUP1 PUSH1 0x40 ADD PUSH1 0x40 MSTORE DUP1 PUSH32 0x2A42456B8F9A8F1C682965E8002E613FFD7427ABA5BE5C448BBEDDEA67894E63 DUP2 MSTORE PUSH1 0x20 ADD PUSH32 0x16AEE652BADFEA6CD01C07ACB6851986AE6BBF5B4F62314494AA161B69469877 DUP2 MSTORE POP DUP2 PUSH1 0x80 ADD MLOAD PUSH1 0xD DUP2 MLOAD DUP2 LT PUSH2 0xC5A JUMPI PUSH2 0xC59 PUSH2 0x2336 JUMP JUMPDEST JUMPDEST PUSH1 0x20 MUL PUSH1 0x20 ADD ADD DUP2 SWAP1 MSTORE POP PUSH1 0x40 MLOAD DUP1 PUSH1 0x40 ADD PUSH1 0x40 MSTORE DUP1 PUSH32 0x1D8B4596FE77E19D2DBB6C7E2E5BA5BA22BBEDC2A056D05DD71374FE7E77A471 DUP2 MSTORE PUSH1 0x20 ADD PUSH32 0x28B753A8E0A0BC1A2240308A407C2C7A9BC239C3AD93018DA97D1B1FB883FC38 DUP2 MSTORE POP DUP2 PUSH1 0x80 ADD MLOAD PUSH1 0xE DUP2 MLOAD DUP2 LT PUSH2 0xCD2 JUMPI PUSH2 0xCD1 PUSH2 0x2336 JUMP JUMPDEST JUMPDEST PUSH1 0x20 MUL PUSH1 0x20 ADD ADD DUP2 SWAP1 MSTORE POP PUSH1 0x40 MLOAD DUP1 PUSH1 0x40 ADD PUSH1 0x40 MSTORE DUP1 PUSH32 0x12CA959A9673FB0C605B630925E6CC000BACA56051C4D390DD59837D1BE84C30 DUP2 MSTORE PUSH1 0x20 ADD PUSH32 0x191054D3DEFA686058F960320C6E42821019A3C8ED00F825F71B89972E3A008B DUP2 MSTORE POP DUP2 PUSH1 0x80 ADD MLOAD PUSH1 0xF DUP2 MLOAD DUP2 LT PUSH2 0xD4A JUMPI PUSH2 0xD49 PUSH2 0x2336 JUMP JUMPDEST JUMPDEST PUSH1 0x20 MUL PUSH1 0x20 ADD ADD DUP2 SWAP1 MSTORE POP PUSH1 0x40 MLOAD DUP1 PUSH1 0x40 ADD PUSH1 0x40 MSTORE DUP1 PUSH32 0x112782C9CB74C9262C3044552A1AD0C3454475AF0086DF050F0BFEFF4A2A3C88 DUP2 MSTORE PUSH1 0x20 ADD PUSH32 0xF689D7E9F3C7D400A3D99F8B2294295F128F9BFD1120F431D3EB37454F2FEA2 DUP2 MSTORE POP DUP2 PUSH1 0x80 ADD MLOAD PUSH1 0x10 DUP2 MLOAD DUP2 LT PUSH2 0xDC2 JUMPI PUSH2 0xDC1 PUSH2 0x2336 JUMP JUMPDEST JUMPDEST PUSH1 0x20 MUL PUSH1 0x20 ADD ADD DUP2 SWAP1 MSTORE POP PUSH1 0x40 MLOAD DUP1 PUSH1 0x40 ADD PUSH1 0x40 MSTORE DUP1 PUSH32 0xD88F8C2EE3A606E1531DDE6C5DCF657E364BBC4BE399F1AB0EE5BEBD6956C84 DUP2 MSTORE PUSH1 0x20 ADD PUSH32 0x173DD500761FB23AC92BECE019C493F979E235F8C3655B0AC8B0633FE475243A DUP2 MSTORE POP DUP2 PUSH1 0x80 ADD MLOAD PUSH1 0x11 DUP2 MLOAD DUP2 LT PUSH2 0xE3A JUMPI PUSH2 0xE39 PUSH2 0x2336 JUMP JUMPDEST JUMPDEST PUSH1 0x20 MUL PUSH1 0x20 ADD ADD DUP2 SWAP1 MSTORE POP PUSH1 0x40 MLOAD DUP1 PUSH1 0x40 ADD PUSH1 0x40 MSTORE DUP1 PUSH32 0x2A37FF8C8E3E387BDB7BC3CD1B5699D8EA6ADEF8775E1A88382F29C80D32A911 DUP2 MSTORE PUSH1 0x20 ADD PUSH32 0xDDE7083DA3FA1867D565468845AB2FB4EF34CE8A7E2E5E5A3E3B3ED3D36B292 DUP2 MSTORE POP DUP2 PUSH1 0x80 ADD MLOAD PUSH1 0x12 DUP2 MLOAD DUP2 LT PUSH2 0xEB2 JUMPI PUSH2 0xEB1 PUSH2 0x2336 JUMP JUMPDEST JUMPDEST PUSH1 0x20 MUL PUSH1 0x20 ADD ADD DUP2 SWAP1 MSTORE POP PUSH1 0x40 MLOAD DUP1 PUSH1 0x40 ADD PUSH1 0x40 MSTORE DUP1 PUSH32 0xC2E0700E603D2D6E5181EA4E2712E2D7942AF6E57AADE458634ACBF5A022262 DUP2 MSTORE PUSH1 0x20 ADD PUSH32 0xED66CFA115522601B4986E575086E9A400B91E786A944D49A5A1C3D20DC47E3 DUP2 MSTORE POP DUP2 PUSH1 0x80 ADD MLOAD PUSH1 0x13 DUP2 MLOAD DUP2 LT PUSH2 0xF2A JUMPI PUSH2 0xF29 PUSH2 0x2336 JUMP JUMPDEST JUMPDEST PUSH1 0x20 MUL PUSH1 0x20 ADD ADD DUP2 SWAP1 MSTORE POP PUSH1 0x40 MLOAD DUP1 PUSH1 0x40 ADD PUSH1 0x40 MSTORE DUP1 PUSH32 0x61A3EF2933EBFFB0D1C92BACC7A6F942D3496B5D2F9D420179D76E0B10D1CC2 DUP2 MSTORE PUSH1 0x20 ADD PUSH32 0x288075D750E3A16A08ADE4DD0D40462D8472B511DAE55D092F02CEDACCD63A19 DUP2 MSTORE POP DUP2 PUSH1 0x80 ADD MLOAD PUSH1 0x14 DUP2 MLOAD DUP2 LT PUSH2 0xFA2 JUMPI PUSH2 0xFA1 PUSH2 0x2336 JUMP JUMPDEST JUMPDEST PUSH1 0x20 MUL PUSH1 0x20 ADD ADD DUP2 SWAP1 MSTORE POP PUSH1 0x40 MLOAD DUP1 PUSH1 0x40 ADD PUSH1 0x40 MSTORE DUP1 PUSH32 0x1524C55B15FFFF304130597D442EF82D94D405794182C1F8789432308A19EF3A DUP2 MSTORE PUSH1 0x20 ADD PUSH32 0x328990CAAFAE119EECD82E9E5E3024B134BC2A98CB6288B06726F9E21CBAE56 DUP2 MSTORE POP DUP2 PUSH1 0x80 ADD MLOAD PUSH1 0x15 DUP2 MLOAD DUP2 LT PUSH2 0x101A JUMPI PUSH2 0x1019 PUSH2 0x2336 JUMP JUMPDEST JUMPDEST PUSH1 0x20 MUL PUSH1 0x20 ADD ADD DUP2 SWAP1 MSTORE POP PUSH1 0x40 MLOAD DUP1 PUSH1 0x40 ADD PUSH1 0x40 MSTORE DUP1 PUSH32 0x234703EAD7399C7B9E4C54A8157000D84E4CA8EB84A418BDB86DF061775B0E2C DUP2 MSTORE PUSH1 0x20 ADD PUSH32 0x18991D4DEC51143DCF14DF9BBAF467FEDAB28DD7579102C3B23DFDC703361A4 DUP2 MSTORE POP DUP2 PUSH1 0x80 ADD MLOAD PUSH1 0x16 DUP2 MLOAD DUP2 LT PUSH2 0x1092 JUMPI PUSH2 0x1091 PUSH2 0x2336 JUMP JUMPDEST JUMPDEST PUSH1 0x20 MUL PUSH1 0x20 ADD ADD DUP2 SWAP1 MSTORE POP PUSH1 0x40 MLOAD DUP1 PUSH1 0x40 ADD PUSH1 0x40 MSTORE DUP1 PUSH32 0x3355D14AA7A28E6AD3CE21101B6E28DD959F69F7A5B706A74B1BBE06459E98E DUP2 MSTORE PUSH1 0x20 ADD PUSH32 0x20B38104ACDD98539590A6CC3368BA57F0AF640AFD682DFD7E3A7233B8FD0019 DUP2 MSTORE POP DUP2 PUSH1 0x80 ADD MLOAD PUSH1 0x17 DUP2 MLOAD DUP2 LT PUSH2 0x110A JUMPI PUSH2 0x1109 PUSH2 0x2336 JUMP JUMPDEST JUMPDEST PUSH1 0x20 MUL PUSH1 0x20 ADD ADD DUP2 SWAP1 MSTORE POP PUSH1 0x40 MLOAD DUP1 PUSH1 0x40 ADD PUSH1 0x40 MSTORE DUP1 PUSH32 0x1C6F7F3C67F61997D9F704C5841BD848B7FEBE35BB78CEDA5FB281BCCB53FDB6 DUP2 MSTORE PUSH1 0x20 ADD PUSH32 0x1596FD346975B7770BE554A628028E337BCE1191194F1CF6E0F935B8486693BF DUP2 MSTORE POP DUP2 PUSH1 0x80 ADD MLOAD PUSH1 0x18 DUP2 MLOAD DUP2 LT PUSH2 0x1182 JUMPI PUSH2 0x1181 PUSH2 0x2336 JUMP JUMPDEST JUMPDEST PUSH1 0x20 MUL PUSH1 0x20 ADD ADD DUP2 SWAP1 MSTORE POP PUSH1 0x40 MLOAD DUP1 PUSH1 0x40 ADD PUSH1 0x40 MSTORE DUP1 PUSH32 0x76777F19833706D75F5C5D454D7CACA6C1D1BA835993187A944A919FA4BEB72 DUP2 MSTORE PUSH1 0x20 ADD PUSH32 0x900B771B22D70055E26D2FECCF852AB4E63E03B65410477F427F7DBD4F59183 DUP2 MSTORE POP DUP2 PUSH1 0x80 ADD MLOAD PUSH1 0x19 DUP2 MLOAD DUP2 LT PUSH2 0x11FA JUMPI PUSH2 0x11F9 PUSH2 0x2336 JUMP JUMPDEST JUMPDEST PUSH1 0x20 MUL PUSH1 0x20 ADD ADD DUP2 SWAP1 MSTORE POP PUSH1 0x40 MLOAD DUP1 PUSH1 0x40 ADD PUSH1 0x40 MSTORE DUP1 PUSH32 0x2AA2CADC31147B9FCFB1C9C48CBEB0F298C5C83DFE9AA61BC882439585F7AF02 DUP2 MSTORE PUSH1 0x20 ADD PUSH32 0x27D43212075055218A9AFE7CA704D18E15590007DADF609C7BA23A83ECFE578A DUP2 MSTORE POP DUP2 PUSH1 0x80 ADD MLOAD PUSH1 0x1A DUP2 MLOAD DUP2 LT PUSH2 0x1272 JUMPI PUSH2 0x1271 PUSH2 0x2336 JUMP JUMPDEST JUMPDEST PUSH1 0x20 MUL PUSH1 0x20 ADD ADD DUP2 SWAP1 MSTORE POP PUSH1 0x40 MLOAD DUP1 PUSH1 0x40 ADD PUSH1 0x40 MSTORE DUP1 PUSH32 0x500C18E33846CC0FD51DC76660D664FA992E5DA5634CB76D414A463AE0F961A DUP2 MSTORE PUSH1 0x20 ADD PUSH32 0x14C7A169AE4BAE697823895A69B2D51DE80E2DC2D7CFC4C1E203818FAB66B799 DUP2 MSTORE POP DUP2 PUSH1 0x80 ADD MLOAD PUSH1 0x1B DUP2 MLOAD DUP2 LT PUSH2 0x12EA JUMPI PUSH2 0x12E9 PUSH2 0x2336 JUMP JUMPDEST JUMPDEST PUSH1 0x20 MUL PUSH1 0x20 ADD ADD DUP2 SWAP1 MSTORE POP PUSH1 0x40 MLOAD DUP1 PUSH1 0x40 ADD PUSH1 0x40 MSTORE DUP1 PUSH32 0x1705EBADC9433087E8DAFDE511E87E63C1A5E8F4E2AB0157A1C4A2C68EA49D1F DUP2 MSTORE PUSH1 0x20 ADD PUSH32 0x253E7583C7339BBCB83359904FCF814AD7B582CFDEEA5A9663B0FB516C6B2B05 DUP2 MSTORE POP DUP2 PUSH1 0x80 ADD MLOAD PUSH1 0x1C DUP2 MLOAD DUP2 LT PUSH2 0x1362 JUMPI PUSH2 0x1361 PUSH2 0x2336 JUMP JUMPDEST JUMPDEST PUSH1 0x20 MUL PUSH1 0x20 ADD ADD DUP2 SWAP1 MSTORE POP PUSH1 0x40 MLOAD DUP1 PUSH1 0x40 ADD PUSH1 0x40 MSTORE DUP1 PUSH32 0x271883E4F9EAA9B1D7E75C60523FADB8254EB78ED2898243FA66CB53A3CD0C0E DUP2 MSTORE PUSH1 0x20 ADD PUSH32 0x63DAC9B4FC0BEAF120679C4C59E622E2B18EFB179061740B3D03B1A8E5B1549 DUP2 MSTORE POP DUP2 PUSH1 0x80 ADD MLOAD PUSH1 0x1D DUP2 MLOAD DUP2 LT PUSH2 0x13DA JUMPI PUSH2 0x13D9 PUSH2 0x2336 JUMP JUMPDEST JUMPDEST PUSH1 0x20 MUL PUSH1 0x20 ADD ADD DUP2 SWAP1 MSTORE POP PUSH1 0x40 MLOAD DUP1 PUSH1 0x40 ADD PUSH1 0x40 MSTORE DUP1 PUSH32 0x1FEFD64B5A4F136AA759CB4C15769C66AA6C7E9A8A16560439A4BEA66741EC69 DUP2 MSTORE PUSH1 0x20 ADD PUSH32 0x1A12A7551BA425D4151549C26F8B62C3026F6BC6C97034B18998FCFA40B998B4 DUP2 MSTORE POP DUP2 PUSH1 0x80 ADD MLOAD PUSH1 0x1E DUP2 MLOAD DUP2 LT PUSH2 0x1452 JUMPI PUSH2 0x1451 PUSH2 0x2336 JUMP JUMPDEST JUMPDEST PUSH1 0x20 MUL PUSH1 0x20 ADD ADD DUP2 SWAP1 MSTORE POP PUSH1 0x40 MLOAD DUP1 PUSH1 0x40 ADD PUSH1 0x40 MSTORE DUP1 PUSH32 0x299568B599F1EB133991A4308DA461574F359AC06C7BFE68900899AB8F9B8BE1 DUP2 MSTORE PUSH1 0x20 ADD PUSH32 0x2127D4C5EFDE5BFA4F64D402787EA6929E04A6B39EA8C91DF4E2BAC4D584843B DUP2 MSTORE POP DUP2 PUSH1 0x80 ADD MLOAD PUSH1 0x1F DUP2 MLOAD DUP2 LT PUSH2 0x14CA JUMPI PUSH2 0x14C9 PUSH2 0x2336 JUMP JUMPDEST JUMPDEST PUSH1 0x20 MUL PUSH1 0x20 ADD ADD DUP2 SWAP1 MSTORE POP PUSH1 0x40 MLOAD DUP1 PUSH1 0x40 ADD PUSH1 0x40 MSTORE DUP1 PUSH32 0x4F4EDD3B0BCFB93401F44ADA2225278C80CE998997EFDA125BE17E387B94E79 DUP2 MSTORE PUSH1 0x20 ADD PUSH32 0x141D2A5FA9DD49D8B925DD5FD9C16CF08F52E0DD0B803B706FD0DAE21E775635 DUP2 MSTORE POP DUP2 PUSH1 0x80 ADD MLOAD PUSH1 0x20 DUP2 MLOAD DUP2 LT PUSH2 0x1542 JUMPI PUSH2 0x1541 PUSH2 0x2336 JUMP JUMPDEST JUMPDEST PUSH1 0x20 MUL PUSH1 0x20 ADD ADD DUP2 SWAP1 MSTORE POP PUSH1 0x40 MLOAD DUP1 PUSH1 0x40 ADD PUSH1 0x40 MSTORE DUP1 PUSH32 0x17FFA3BAA6F2C1A5FF83F5BF187DB94B2990D64EFF9ECB1F35DDCCE9E0A729AE DUP2 MSTORE PUSH1 0x20 ADD PUSH32 0x26BDB5AF039AA3BEB44A12BDD1AB993E1A7643EE269D9284A8E6F56F5FA28FDB DUP2 MSTORE POP DUP2 PUSH1 0x80 ADD MLOAD PUSH1 0x21 DUP2 MLOAD DUP2 LT PUSH2 0x15BA JUMPI PUSH2 0x15B9 PUSH2 0x2336 JUMP JUMPDEST JUMPDEST PUSH1 0x20 MUL PUSH1 0x20 ADD ADD DUP2 SWAP1 MSTORE POP SWAP1 JUMP JUMPDEST PUSH2 0x15D0 PUSH2 0x1D50 JUMP JUMPDEST PUSH2 0x15D8 PUSH2 0x1D6A JUMP JUMPDEST DUP4 PUSH1 0x0 ADD MLOAD DUP2 PUSH1 0x0 PUSH1 0x3 DUP2 LT PUSH2 0x15F1 JUMPI PUSH2 0x15F0 PUSH2 0x2336 JUMP JUMPDEST JUMPDEST PUSH1 0x20 MUL ADD DUP2 DUP2 MSTORE POP POP DUP4 PUSH1 0x20 ADD MLOAD DUP2 PUSH1 0x1 PUSH1 0x3 DUP2 LT PUSH2 0x1613 JUMPI PUSH2 0x1612 PUSH2 0x2336 JUMP JUMPDEST JUMPDEST PUSH1 0x20 MUL ADD DUP2 DUP2 MSTORE POP POP DUP3 DUP2 PUSH1 0x2 PUSH1 0x3 DUP2 LT PUSH2 0x1631 JUMPI PUSH2 0x1630 PUSH2 0x2336 JUMP JUMPDEST JUMPDEST PUSH1 0x20 MUL ADD DUP2 DUP2 MSTORE POP POP PUSH1 0x0 PUSH1 0x60 DUP4 PUSH1 0x80 DUP5 PUSH1 0x7 PUSH2 0x7D0 GAS SUB STATICCALL SWAP1 POP DUP1 PUSH1 0x0 DUP2 EQ PUSH2 0x165A JUMPI PUSH2 0x165C JUMP JUMPDEST INVALID JUMPDEST POP DUP1 PUSH2 0x1667 JUMPI PUSH1 0x0 DUP1 REVERT JUMPDEST POP POP SWAP3 SWAP2 POP POP JUMP JUMPDEST PUSH2 0x1677 PUSH2 0x1D50 JUMP JUMPDEST PUSH2 0x167F PUSH2 0x1D8C JUMP JUMPDEST DUP4 PUSH1 0x0 ADD MLOAD DUP2 PUSH1 0x0 PUSH1 0x4 DUP2 LT PUSH2 0x1698 JUMPI PUSH2 0x1697 PUSH2 0x2336 JUMP JUMPDEST JUMPDEST PUSH1 0x20 MUL ADD DUP2 DUP2 MSTORE POP POP DUP4 PUSH1 0x20 ADD MLOAD DUP2 PUSH1 0x1 PUSH1 0x4 DUP2 LT PUSH2 0x16BA JUMPI PUSH2 0x16B9 PUSH2 0x2336 JUMP JUMPDEST JUMPDEST PUSH1 0x20 MUL ADD DUP2 DUP2 MSTORE POP POP DUP3 PUSH1 0x0 ADD MLOAD DUP2 PUSH1 0x2 PUSH1 0x4 DUP2 LT PUSH2 0x16DC JUMPI PUSH2 0x16DB PUSH2 0x2336 JUMP JUMPDEST JUMPDEST PUSH1 0x20 MUL ADD DUP2 DUP2 MSTORE POP POP DUP3 PUSH1 0x20 ADD MLOAD DUP2 PUSH1 0x3 PUSH1 0x4 DUP2 LT PUSH2 0x16FE JUMPI PUSH2 0x16FD PUSH2 0x2336 JUMP JUMPDEST JUMPDEST PUSH1 0x20 MUL ADD DUP2 DUP2 MSTORE POP POP PUSH1 0x0 PUSH1 0x60 DUP4 PUSH1 0xC0 DUP5 PUSH1 0x6 PUSH2 0x7D0 GAS SUB STATICCALL SWAP1 POP DUP1 PUSH1 0x0 DUP2 EQ PUSH2 0x1727 JUMPI PUSH2 0x1729 JUMP JUMPDEST INVALID JUMPDEST POP DUP1 PUSH2 0x1734 JUMPI PUSH1 0x0 DUP1 REVERT JUMPDEST POP POP SWAP3 SWAP2 POP POP JUMP JUMPDEST PUSH2 0x1744 PUSH2 0x1D50 JUMP JUMPDEST PUSH1 0x0 PUSH32 0x30644E72E131A029B85045B68181585D97816A916871CA8D3C208C16D87CFD47 SWAP1 POP PUSH1 0x0 DUP4 PUSH1 0x0 ADD MLOAD EQ DUP1 ISZERO PUSH2 0x1781 JUMPI POP PUSH1 0x0 DUP4 PUSH1 0x20 ADD MLOAD EQ JUMPDEST ISZERO PUSH2 0x17A5 JUMPI PUSH1 0x40 MLOAD DUP1 PUSH1 0x40 ADD PUSH1 0x40 MSTORE DUP1 PUSH1 0x0 DUP2 MSTORE PUSH1 0x20 ADD PUSH1 0x0 DUP2 MSTORE POP SWAP2 POP POP PUSH2 0x17DC JUMP JUMPDEST PUSH1 0x40 MLOAD DUP1 PUSH1 0x40 ADD PUSH1 0x40 MSTORE DUP1 DUP5 PUSH1 0x0 ADD MLOAD DUP2 MSTORE PUSH1 0x20 ADD DUP3 DUP6 PUSH1 0x20 ADD MLOAD PUSH2 0x17CA SWAP2 SWAP1 PUSH2 0x22A7 JUMP JUMPDEST DUP4 PUSH2 0x17D5 SWAP2 SWAP1 PUSH2 0x21E3 JUMP JUMPDEST DUP2 MSTORE POP SWAP2 POP POP JUMPDEST SWAP2 SWAP1 POP JUMP JUMPDEST PUSH1 0x0 DUP1 PUSH1 0x4 PUSH8 0xFFFFFFFFFFFFFFFF DUP2 GT ISZERO PUSH2 0x17FF JUMPI PUSH2 0x17FE PUSH2 0x2365 JUMP JUMPDEST JUMPDEST PUSH1 0x40 MLOAD SWAP1 DUP1 DUP3 MSTORE DUP1 PUSH1 0x20 MUL PUSH1 0x20 ADD DUP3 ADD PUSH1 0x40 MSTORE DUP1 ISZERO PUSH2 0x1838 JUMPI DUP2 PUSH1 0x20 ADD JUMPDEST PUSH2 0x1825 PUSH2 0x1D50 JUMP JUMPDEST DUP2 MSTORE PUSH1 0x20 ADD SWAP1 PUSH1 0x1 SWAP1 SUB SWAP1 DUP2 PUSH2 0x181D JUMPI SWAP1 POP JUMPDEST POP SWAP1 POP PUSH1 0x0 PUSH1 0x4 PUSH8 0xFFFFFFFFFFFFFFFF DUP2 GT ISZERO PUSH2 0x1858 JUMPI PUSH2 0x1857 PUSH2 0x2365 JUMP JUMPDEST JUMPDEST PUSH1 0x40 MLOAD SWAP1 DUP1 DUP3 MSTORE DUP1 PUSH1 0x20 MUL PUSH1 0x20 ADD DUP3 ADD PUSH1 0x40 MSTORE DUP1 ISZERO PUSH2 0x1891 JUMPI DUP2 PUSH1 0x20 ADD JUMPDEST PUSH2 0x187E PUSH2 0x1DAE JUMP JUMPDEST DUP2 MSTORE PUSH1 0x20 ADD SWAP1 PUSH1 0x1 SWAP1 SUB SWAP1 DUP2 PUSH2 0x1876 JUMPI SWAP1 POP JUMPDEST POP SWAP1 POP DUP11 DUP3 PUSH1 0x0 DUP2 MLOAD DUP2 LT PUSH2 0x18A9 JUMPI PUSH2 0x18A8 PUSH2 0x2336 JUMP JUMPDEST JUMPDEST PUSH1 0x20 MUL PUSH1 0x20 ADD ADD DUP2 SWAP1 MSTORE POP DUP9 DUP3 PUSH1 0x1 DUP2 MLOAD DUP2 LT PUSH2 0x18C9 JUMPI PUSH2 0x18C8 PUSH2 0x2336 JUMP JUMPDEST JUMPDEST PUSH1 0x20 MUL PUSH1 0x20 ADD ADD DUP2 SWAP1 MSTORE POP DUP7 DUP3 PUSH1 0x2 DUP2 MLOAD DUP2 LT PUSH2 0x18E9 JUMPI PUSH2 0x18E8 PUSH2 0x2336 JUMP JUMPDEST JUMPDEST PUSH1 0x20 MUL PUSH1 0x20 ADD ADD DUP2 SWAP1 MSTORE POP DUP5 DUP3 PUSH1 0x3 DUP2 MLOAD DUP2 LT PUSH2 0x1909 JUMPI PUSH2 0x1908 PUSH2 0x2336 JUMP JUMPDEST JUMPDEST PUSH1 0x20 MUL PUSH1 0x20 ADD ADD DUP2 SWAP1 MSTORE POP DUP10 DUP2 PUSH1 0x0 DUP2 MLOAD DUP2 LT PUSH2 0x1929 JUMPI PUSH2 0x1928 PUSH2 0x2336 JUMP JUMPDEST JUMPDEST PUSH1 0x20 MUL PUSH1 0x20 ADD ADD DUP2 SWAP1 MSTORE POP DUP8 DUP2 PUSH1 0x1 DUP2 MLOAD DUP2 LT PUSH2 0x1949 JUMPI PUSH2 0x1948 PUSH2 0x2336 JUMP JUMPDEST JUMPDEST PUSH1 0x20 MUL PUSH1 0x20 ADD ADD DUP2 SWAP1 MSTORE POP DUP6 DUP2 PUSH1 0x2 DUP2 MLOAD DUP2 LT PUSH2 0x1969 JUMPI PUSH2 0x1968 PUSH2 0x2336 JUMP JUMPDEST JUMPDEST PUSH1 0x20 MUL PUSH1 0x20 ADD ADD DUP2 SWAP1 MSTORE POP DUP4 DUP2 PUSH1 0x3 DUP2 MLOAD DUP2 LT PUSH2 0x1989 JUMPI PUSH2 0x1988 PUSH2 0x2336 JUMP JUMPDEST JUMPDEST PUSH1 0x20 MUL PUSH1 0x20 ADD ADD DUP2 SWAP1 MSTORE POP PUSH2 0x199E DUP3 DUP3 PUSH2 0x19AE JUMP JUMPDEST SWAP3 POP POP POP SWAP9 SWAP8 POP POP POP POP POP POP POP POP JUMP JUMPDEST PUSH1 0x0 DUP2 MLOAD DUP4 MLOAD EQ PUSH2 0x19BE JUMPI PUSH1 0x0 DUP1 REVERT JUMPDEST PUSH1 0x0 DUP4 MLOAD SWAP1 POP PUSH1 0x0 PUSH1 0x6 DUP3 PUSH2 0x19D3 SWAP2 SWAP1 PUSH2 0x2189 JUMP JUMPDEST SWAP1 POP PUSH1 0x0 DUP2 PUSH8 0xFFFFFFFFFFFFFFFF DUP2 GT ISZERO PUSH2 0x19F1 JUMPI PUSH2 0x19F0 PUSH2 0x2365 JUMP JUMPDEST JUMPDEST PUSH1 0x40 MLOAD SWAP1 DUP1 DUP3 MSTORE DUP1 PUSH1 0x20 MUL PUSH1 0x20 ADD DUP3 ADD PUSH1 0x40 MSTORE DUP1 ISZERO PUSH2 0x1A1F JUMPI DUP2 PUSH1 0x20 ADD PUSH1 0x20 DUP3 MUL DUP1 CALLDATASIZE DUP4 CALLDATACOPY DUP1 DUP3 ADD SWAP2 POP POP SWAP1 POP JUMPDEST POP SWAP1 POP PUSH1 0x0 JUMPDEST DUP4 DUP2 LT ISZERO PUSH2 0x1CA4 JUMPI DUP7 DUP2 DUP2 MLOAD DUP2 LT PUSH2 0x1A40 JUMPI PUSH2 0x1A3F PUSH2 0x2336 JUMP JUMPDEST JUMPDEST PUSH1 0x20 MUL PUSH1 0x20 ADD ADD MLOAD PUSH1 0x0 ADD MLOAD DUP3 PUSH1 0x0 PUSH1 0x6 DUP5 PUSH2 0x1A5C SWAP2 SWAP1 PUSH2 0x2189 JUMP JUMPDEST PUSH2 0x1A66 SWAP2 SWAP1 PUSH2 0x2133 JUMP JUMPDEST DUP2 MLOAD DUP2 LT PUSH2 0x1A77 JUMPI PUSH2 0x1A76 PUSH2 0x2336 JUMP JUMPDEST JUMPDEST PUSH1 0x20 MUL PUSH1 0x20 ADD ADD DUP2 DUP2 MSTORE POP POP DUP7 DUP2 DUP2 MLOAD DUP2 LT PUSH2 0x1A96 JUMPI PUSH2 0x1A95 PUSH2 0x2336 JUMP JUMPDEST JUMPDEST PUSH1 0x20 MUL PUSH1 0x20 ADD ADD MLOAD PUSH1 0x20 ADD MLOAD DUP3 PUSH1 0x1 PUSH1 0x6 DUP5 PUSH2 0x1AB2 SWAP2 SWAP1 PUSH2 0x2189 JUMP JUMPDEST PUSH2 0x1ABC SWAP2 SWAP1 PUSH2 0x2133 JUMP JUMPDEST DUP2 MLOAD DUP2 LT PUSH2 0x1ACD JUMPI PUSH2 0x1ACC PUSH2 0x2336 JUMP JUMPDEST JUMPDEST PUSH1 0x20 MUL PUSH1 0x20 ADD ADD DUP2 DUP2 MSTORE POP POP DUP6 DUP2 DUP2 MLOAD DUP2 LT PUSH2 0x1AEC JUMPI PUSH2 0x1AEB PUSH2 0x2336 JUMP JUMPDEST JUMPDEST PUSH1 0x20 MUL PUSH1 0x20 ADD ADD MLOAD PUSH1 0x0 ADD MLOAD PUSH1 0x1 PUSH1 0x2 DUP2 LT PUSH2 0x1B0B JUMPI PUSH2 0x1B0A PUSH2 0x2336 JUMP JUMPDEST JUMPDEST PUSH1 0x20 MUL ADD MLOAD DUP3 PUSH1 0x2 PUSH1 0x6 DUP5 PUSH2 0x1B20 SWAP2 SWAP1 PUSH2 0x2189 JUMP JUMPDEST PUSH2 0x1B2A SWAP2 SWAP1 PUSH2 0x2133 JUMP JUMPDEST DUP2 MLOAD DUP2 LT PUSH2 0x1B3B JUMPI PUSH2 0x1B3A PUSH2 0x2336 JUMP JUMPDEST JUMPDEST PUSH1 0x20 MUL PUSH1 0x20 ADD ADD DUP2 DUP2 MSTORE POP POP DUP6 DUP2 DUP2 MLOAD DUP2 LT PUSH2 0x1B5A JUMPI PUSH2 0x1B59 PUSH2 0x2336 JUMP JUMPDEST JUMPDEST PUSH1 0x20 MUL PUSH1 0x20 ADD ADD MLOAD PUSH1 0x0 ADD MLOAD PUSH1 0x0 PUSH1 0x2 DUP2 LT PUSH2 0x1B79 JUMPI PUSH2 0x1B78 PUSH2 0x2336 JUMP JUMPDEST JUMPDEST PUSH1 0x20 MUL ADD MLOAD DUP3 PUSH1 0x3 PUSH1 0x6 DUP5 PUSH2 0x1B8E SWAP2 SWAP1 PUSH2 0x2189 JUMP JUMPDEST PUSH2 0x1B98 SWAP2 SWAP1 PUSH2 0x2133 JUMP JUMPDEST DUP2 MLOAD DUP2 LT PUSH2 0x1BA9 JUMPI PUSH2 0x1BA8 PUSH2 0x2336 JUMP JUMPDEST JUMPDEST PUSH1 0x20 MUL PUSH1 0x20 ADD ADD DUP2 DUP2 MSTORE POP POP DUP6 DUP2 DUP2 MLOAD DUP2 LT PUSH2 0x1BC8 JUMPI PUSH2 0x1BC7 PUSH2 0x2336 JUMP JUMPDEST JUMPDEST PUSH1 0x20 MUL PUSH1 0x20 ADD ADD MLOAD PUSH1 0x20 ADD MLOAD PUSH1 0x1 PUSH1 0x2 DUP2 LT PUSH2 0x1BE7 JUMPI PUSH2 0x1BE6 PUSH2 0x2336 JUMP JUMPDEST JUMPDEST PUSH1 0x20 MUL ADD MLOAD DUP3 PUSH1 0x4 PUSH1 0x6 DUP5 PUSH2 0x1BFC SWAP2 SWAP1 PUSH2 0x2189 JUMP JUMPDEST PUSH2 0x1C06 SWAP2 SWAP1 PUSH2 0x2133 JUMP JUMPDEST DUP2 MLOAD DUP2 LT PUSH2 0x1C17 JUMPI PUSH2 0x1C16 PUSH2 0x2336 JUMP JUMPDEST JUMPDEST PUSH1 0x20 MUL PUSH1 0x20 ADD ADD DUP2 DUP2 MSTORE POP POP DUP6 DUP2 DUP2 MLOAD DUP2 LT PUSH2 0x1C36 JUMPI PUSH2 0x1C35 PUSH2 0x2336 JUMP JUMPDEST JUMPDEST PUSH1 0x20 MUL PUSH1 0x20 ADD ADD MLOAD PUSH1 0x20 ADD MLOAD PUSH1 0x0 PUSH1 0x2 DUP2 LT PUSH2 0x1C55 JUMPI PUSH2 0x1C54 PUSH2 0x2336 JUMP JUMPDEST JUMPDEST PUSH1 0x20 MUL ADD MLOAD DUP3 PUSH1 0x5 PUSH1 0x6 DUP5 PUSH2 0x1C6A SWAP2 SWAP1 PUSH2 0x2189 JUMP JUMPDEST PUSH2 0x1C74 SWAP2 SWAP1 PUSH2 0x2133 JUMP JUMPDEST DUP2 MLOAD DUP2 LT PUSH2 0x1C85 JUMPI PUSH2 0x1C84 PUSH2 0x2336 JUMP JUMPDEST JUMPDEST PUSH1 0x20 MUL PUSH1 0x20 ADD ADD DUP2 DUP2 MSTORE POP POP DUP1 DUP1 PUSH2 0x1C9C SWAP1 PUSH2 0x225E JUMP JUMPDEST SWAP2 POP POP PUSH2 0x1A25 JUMP JUMPDEST POP PUSH2 0x1CAD PUSH2 0x1DD4 JUMP JUMPDEST PUSH1 0x0 PUSH1 0x20 DUP3 PUSH1 0x20 DUP7 MUL PUSH1 0x20 DUP7 ADD PUSH1 0x8 PUSH2 0x7D0 GAS SUB STATICCALL SWAP1 POP DUP1 PUSH1 0x0 DUP2 EQ PUSH2 0x1CD2 JUMPI PUSH2 0x1CD4 JUMP JUMPDEST INVALID JUMPDEST POP DUP1 PUSH2 0x1CDF JUMPI PUSH1 0x0 DUP1 REVERT JUMPDEST PUSH1 0x0 DUP3 PUSH1 0x0 PUSH1 0x1 DUP2 LT PUSH2 0x1CF5 JUMPI PUSH2 0x1CF4 PUSH2 0x2336 JUMP JUMPDEST JUMPDEST PUSH1 0x20 MUL ADD MLOAD EQ ISZERO SWAP6 POP POP POP POP POP POP SWAP3 SWAP2 POP POP JUMP JUMPDEST PUSH1 0x40 MLOAD DUP1 PUSH1 0xA0 ADD PUSH1 0x40 MSTORE DUP1 PUSH2 0x1D1C PUSH2 0x1D50 JUMP JUMPDEST DUP2 MSTORE PUSH1 0x20 ADD PUSH2 0x1D29 PUSH2 0x1DAE JUMP JUMPDEST DUP2 MSTORE PUSH1 0x20 ADD PUSH2 0x1D36 PUSH2 0x1DAE JUMP JUMPDEST DUP2 MSTORE PUSH1 0x20 ADD PUSH2 0x1D43 PUSH2 0x1DAE JUMP JUMPDEST DUP2 MSTORE PUSH1 0x20 ADD PUSH1 0x60 DUP2 MSTORE POP SWAP1 JUMP JUMPDEST PUSH1 0x40 MLOAD DUP1 PUSH1 0x40 ADD PUSH1 0x40 MSTORE DUP1 PUSH1 0x0 DUP2 MSTORE PUSH1 0x20 ADD PUSH1 0x0 DUP2 MSTORE POP SWAP1 JUMP JUMPDEST PUSH1 0x40 MLOAD DUP1 PUSH1 0x60 ADD PUSH1 0x40 MSTORE DUP1 PUSH1 0x3 SWAP1 PUSH1 0x20 DUP3 MUL DUP1 CALLDATASIZE DUP4 CALLDATACOPY DUP1 DUP3 ADD SWAP2 POP POP SWAP1 POP POP SWAP1 JUMP JUMPDEST PUSH1 0x40 MLOAD DUP1 PUSH1 0x80 ADD PUSH1 0x40 MSTORE DUP1 PUSH1 0x4 SWAP1 PUSH1 0x20 DUP3 MUL DUP1 CALLDATASIZE DUP4 CALLDATACOPY DUP1 DUP3 ADD SWAP2 POP POP SWAP1 POP POP SWAP1 JUMP JUMPDEST PUSH1 0x40 MLOAD DUP1 PUSH1 0x40 ADD PUSH1 0x40 MSTORE DUP1 PUSH2 0x1DC1 PUSH2 0x1DF6 JUMP JUMPDEST DUP2 MSTORE PUSH1 0x20 ADD PUSH2 0x1DCE PUSH2 0x1DF6 JUMP JUMPDEST DUP2 MSTORE POP SWAP1 JUMP JUMPDEST PUSH1 0x40 MLOAD DUP1 PUSH1 0x20 ADD PUSH1 0x40 MSTORE DUP1 PUSH1 0x1 SWAP1 PUSH1 0x20 DUP3 MUL DUP1 CALLDATASIZE DUP4 CALLDATACOPY DUP1 DUP3 ADD SWAP2 POP POP SWAP1 POP POP SWAP1 JUMP JUMPDEST PUSH1 0x40 MLOAD DUP1 PUSH1 0x40 ADD PUSH1 0x40 MSTORE DUP1 PUSH1 0x2 SWAP1 PUSH1 0x20 DUP3 MUL DUP1 CALLDATASIZE DUP4 CALLDATACOPY DUP1 DUP3 ADD SWAP2 POP POP SWAP1 POP POP SWAP1 JUMP JUMPDEST PUSH1 0x0 PUSH2 0x1E2B PUSH2 0x1E26 DUP5 PUSH2 0x20E7 JUMP JUMPDEST PUSH2 0x20C2 JUMP JUMPDEST SWAP1 POP DUP1 DUP3 DUP6 PUSH1 0x20 DUP7 MUL DUP3 ADD GT ISZERO PUSH2 0x1E45 JUMPI PUSH2 0x1E44 PUSH2 0x239E JUMP JUMPDEST JUMPDEST PUSH1 0x0 JUMPDEST DUP6 DUP2 LT ISZERO PUSH2 0x1E75 JUMPI DUP2 PUSH2 0x1E5B DUP9 DUP3 PUSH2 0x2041 JUMP JUMPDEST DUP5 MSTORE PUSH1 0x20 DUP5 ADD SWAP4 POP PUSH1 0x20 DUP4 ADD SWAP3 POP POP PUSH1 0x1 DUP2 ADD SWAP1 POP PUSH2 0x1E48 JUMP JUMPDEST POP POP POP SWAP4 SWAP3 POP POP POP JUMP JUMPDEST PUSH1 0x0 PUSH2 0x1E92 PUSH2 0x1E8D DUP5 PUSH2 0x210D JUMP JUMPDEST PUSH2 0x20C2 JUMP JUMPDEST SWAP1 POP DUP1 DUP3 DUP6 PUSH1 0x20 DUP7 MUL DUP3 ADD GT ISZERO PUSH2 0x1EAC JUMPI PUSH2 0x1EAB PUSH2 0x239E JUMP JUMPDEST JUMPDEST PUSH1 0x0 JUMPDEST DUP6 DUP2 LT ISZERO PUSH2 0x1EDC JUMPI DUP2 PUSH2 0x1EC2 DUP9 DUP3 PUSH2 0x2041 JUMP JUMPDEST DUP5 MSTORE PUSH1 0x20 DUP5 ADD SWAP4 POP PUSH1 0x20 DUP4 ADD SWAP3 POP POP PUSH1 0x1 DUP2 ADD SWAP1 POP PUSH2 0x1EAF JUMP JUMPDEST POP POP POP SWAP4 SWAP3 POP POP POP JUMP JUMPDEST PUSH1 0x0 DUP3 PUSH1 0x1F DUP4 ADD SLT PUSH2 0x1EFB JUMPI PUSH2 0x1EFA PUSH2 0x2394 JUMP JUMPDEST JUMPDEST PUSH1 0x2 PUSH2 0x1F08 DUP5 DUP3 DUP6 PUSH2 0x1E18 JUMP JUMPDEST SWAP2 POP POP SWAP3 SWAP2 POP POP JUMP JUMPDEST PUSH1 0x0 DUP3 PUSH1 0x1F DUP4 ADD SLT PUSH2 0x1F26 JUMPI PUSH2 0x1F25 PUSH2 0x2394 JUMP JUMPDEST JUMPDEST PUSH1 0x21 PUSH2 0x1F33 DUP5 DUP3 DUP6 PUSH2 0x1E7F JUMP JUMPDEST SWAP2 POP POP SWAP3 SWAP2 POP POP JUMP JUMPDEST PUSH1 0x0 PUSH1 0x40 DUP3 DUP5 SUB SLT ISZERO PUSH2 0x1F52 JUMPI PUSH2 0x1F51 PUSH2 0x2399 JUMP JUMPDEST JUMPDEST PUSH2 0x1F5C PUSH1 0x40 PUSH2 0x20C2 JUMP JUMPDEST SWAP1 POP PUSH1 0x0 PUSH2 0x1F6C DUP5 DUP3 DUP6 ADD PUSH2 0x2041 JUMP JUMPDEST PUSH1 0x0 DUP4 ADD MSTORE POP PUSH1 0x20 PUSH2 0x1F80 DUP5 DUP3 DUP6 ADD PUSH2 0x2041 JUMP JUMPDEST PUSH1 0x20 DUP4 ADD MSTORE POP SWAP3 SWAP2 POP POP JUMP JUMPDEST PUSH1 0x0 PUSH1 0x80 DUP3 DUP5 SUB SLT ISZERO PUSH2 0x1FA2 JUMPI PUSH2 0x1FA1 PUSH2 0x2399 JUMP JUMPDEST JUMPDEST PUSH2 0x1FAC PUSH1 0x40 PUSH2 0x20C2 JUMP JUMPDEST SWAP1 POP PUSH1 0x0 PUSH2 0x1FBC DUP5 DUP3 DUP6 ADD PUSH2 0x1EE6 JUMP JUMPDEST PUSH1 0x0 DUP4 ADD MSTORE POP PUSH1 0x40 PUSH2 0x1FD0 DUP5 DUP3 DUP6 ADD PUSH2 0x1EE6 JUMP JUMPDEST PUSH1 0x20 DUP4 ADD MSTORE POP SWAP3 SWAP2 POP POP JUMP JUMPDEST PUSH1 0x0 PUSH2 0x100 DUP3 DUP5 SUB SLT ISZERO PUSH2 0x1FF3 JUMPI PUSH2 0x1FF2 PUSH2 0x2399 JUMP JUMPDEST JUMPDEST PUSH2 0x1FFD PUSH1 0x60 PUSH2 0x20C2 JUMP JUMPDEST SWAP1 POP PUSH1 0x0 PUSH2 0x200D DUP5 DUP3 DUP6 ADD PUSH2 0x1F3C JUMP JUMPDEST PUSH1 0x0 DUP4 ADD MSTORE POP PUSH1 0x40 PUSH2 0x2021 DUP5 DUP3 DUP6 ADD PUSH2 0x1F8C JUMP JUMPDEST PUSH1 0x20 DUP4 ADD MSTORE POP PUSH1 0xC0 PUSH2 0x2035 DUP5 DUP3 DUP6 ADD PUSH2 0x1F3C JUMP JUMPDEST PUSH1 0x40 DUP4 ADD MSTORE POP SWAP3 SWAP2 POP POP JUMP JUMPDEST PUSH1 0x0 DUP2 CALLDATALOAD SWAP1 POP PUSH2 0x2050 DUP2 PUSH2 0x23B9 JUMP JUMPDEST SWAP3 SWAP2 POP POP JUMP JUMPDEST PUSH1 0x0 DUP1 PUSH2 0x520 DUP4 DUP6 SUB SLT ISZERO PUSH2 0x206E JUMPI PUSH2 0x206D PUSH2 0x23A3 JUMP JUMPDEST JUMPDEST PUSH1 0x0 PUSH2 0x207C DUP6 DUP3 DUP7 ADD PUSH2 0x1FDC JUMP JUMPDEST SWAP3 POP POP PUSH2 0x100 PUSH2 0x208E DUP6 DUP3 DUP7 ADD PUSH2 0x1F11 JUMP JUMPDEST SWAP2 POP POP SWAP3 POP SWAP3 SWAP1 POP JUMP JUMPDEST PUSH2 0x20A1 DUP2 PUSH2 0x2217 JUMP JUMPDEST DUP3 MSTORE POP POP JUMP JUMPDEST PUSH1 0x0 PUSH1 0x20 DUP3 ADD SWAP1 POP PUSH2 0x20BC PUSH1 0x0 DUP4 ADD DUP5 PUSH2 0x2098 JUMP JUMPDEST SWAP3 SWAP2 POP POP JUMP JUMPDEST PUSH1 0x0 PUSH2 0x20CC PUSH2 0x20DD JUMP JUMPDEST SWAP1 POP PUSH2 0x20D8 DUP3 DUP3 PUSH2 0x222D JUMP JUMPDEST SWAP2 SWAP1 POP JUMP JUMPDEST PUSH1 0x0 PUSH1 0x40 MLOAD SWAP1 POP SWAP1 JUMP JUMPDEST PUSH1 0x0 PUSH8 0xFFFFFFFFFFFFFFFF DUP3 GT ISZERO PUSH2 0x2102 JUMPI PUSH2 0x2101 PUSH2 0x2365 JUMP JUMPDEST JUMPDEST PUSH1 0x20 DUP3 MUL SWAP1 POP SWAP2 SWAP1 POP JUMP JUMPDEST PUSH1 0x0 PUSH8 0xFFFFFFFFFFFFFFFF DUP3 GT ISZERO PUSH2 0x2128 JUMPI PUSH2 0x2127 PUSH2 0x2365 JUMP JUMPDEST JUMPDEST PUSH1 0x20 DUP3 MUL SWAP1 POP SWAP2 SWAP1 POP JUMP JUMPDEST PUSH1 0x0 PUSH2 0x213E DUP3 PUSH2 0x2223 JUMP JUMPDEST SWAP2 POP PUSH2 0x2149 DUP4 PUSH2 0x2223 JUMP JUMPDEST SWAP3 POP DUP3 PUSH32 0xFFFFFFFFFFFFFFFFFFFFFFFFFFFFFFFFFFFFFFFFFFFFFFFFFFFFFFFFFFFFFFFF SUB DUP3 GT ISZERO PUSH2 0x217E JUMPI PUSH2 0x217D PUSH2 0x22D8 JUMP JUMPDEST JUMPDEST DUP3 DUP3 ADD SWAP1 POP SWAP3 SWAP2 POP POP JUMP JUMPDEST PUSH1 0x0 PUSH2 0x2194 DUP3 PUSH2 0x2223 JUMP JUMPDEST SWAP2 POP PUSH2 0x219F DUP4 PUSH2 0x2223 JUMP JUMPDEST SWAP3 POP DUP2 PUSH32 0xFFFFFFFFFFFFFFFFFFFFFFFFFFFFFFFFFFFFFFFFFFFFFFFFFFFFFFFFFFFFFFFF DIV DUP4 GT DUP3 ISZERO ISZERO AND ISZERO PUSH2 0x21D8 JUMPI PUSH2 0x21D7 PUSH2 0x22D8 JUMP JUMPDEST JUMPDEST DUP3 DUP3 MUL SWAP1 POP SWAP3 SWAP2 POP POP JUMP JUMPDEST PUSH1 0x0 PUSH2 0x21EE DUP3 PUSH2 0x2223 JUMP JUMPDEST SWAP2 POP PUSH2 0x21F9 DUP4 PUSH2 0x2223 JUMP JUMPDEST SWAP3 POP DUP3 DUP3 LT ISZERO PUSH2 0x220C JUMPI PUSH2 0x220B PUSH2 0x22D8 JUMP JUMPDEST JUMPDEST DUP3 DUP3 SUB SWAP1 POP SWAP3 SWAP2 POP POP JUMP JUMPDEST PUSH1 0x0 DUP2 ISZERO ISZERO SWAP1 POP SWAP2 SWAP1 POP JUMP JUMPDEST PUSH1 0x0 DUP2 SWAP1 POP SWAP2 SWAP1 POP JUMP JUMPDEST PUSH2 0x2236 DUP3 PUSH2 0x23A8 JUMP JUMPDEST DUP2 ADD DUP2 DUP2 LT PUSH8 0xFFFFFFFFFFFFFFFF DUP3 GT OR ISZERO PUSH2 0x2255 JUMPI PUSH2 0x2254 PUSH2 0x2365 JUMP JUMPDEST JUMPDEST DUP1 PUSH1 0x40 MSTORE POP POP POP JUMP JUMPDEST PUSH1 0x0 PUSH2 0x2269 DUP3 PUSH2 0x2223 JUMP JUMPDEST SWAP2 POP PUSH32 0xFFFFFFFFFFFFFFFFFFFFFFFFFFFFFFFFFFFFFFFFFFFFFFFFFFFFFFFFFFFFFFFF DUP3 EQ ISZERO PUSH2 0x229C JUMPI PUSH2 0x229B PUSH2 0x22D8 JUMP JUMPDEST JUMPDEST PUSH1 0x1 DUP3 ADD SWAP1 POP SWAP2 SWAP1 POP JUMP JUMPDEST PUSH1 0x0 PUSH2 0x22B2 DUP3 PUSH2 0x2223 JUMP JUMPDEST SWAP2 POP PUSH2 0x22BD DUP4 PUSH2 0x2223 JUMP JUMPDEST SWAP3 POP DUP3 PUSH2 0x22CD JUMPI PUSH2 0x22CC PUSH2 0x2307 JUMP JUMPDEST JUMPDEST DUP3 DUP3 MOD SWAP1 POP SWAP3 SWAP2 POP POP JUMP JUMPDEST PUSH32 0x4E487B7100000000000000000000000000000000000000000000000000000000 PUSH1 0x0 MSTORE PUSH1 0x11 PUSH1 0x4 MSTORE PUSH1 0x24 PUSH1 0x0 REVERT JUMPDEST PUSH32 0x4E487B7100000000000000000000000000000000000000000000000000000000 PUSH1 0x0 MSTORE PUSH1 0x12 PUSH1 0x4 MSTORE PUSH1 0x24 PUSH1 0x0 REVERT JUMPDEST PUSH32 0x4E487B7100000000000000000000000000000000000000000000000000000000 PUSH1 0x0 MSTORE PUSH1 0x32 PUSH1 0x4 MSTORE PUSH1 0x24 PUSH1 0x0 REVERT JUMPDEST PUSH32 0x4E487B7100000000000000000000000000000000000000000000000000000000 PUSH1 0x0 MSTORE PUSH1 0x41 PUSH1 0x4 MSTORE PUSH1 0x24 PUSH1 0x0 REVERT JUMPDEST PUSH1 0x0 DUP1 REVERT JUMPDEST PUSH1 0x0 DUP1 REVERT JUMPDEST PUSH1 0x0 DUP1 REVERT JUMPDEST PUSH1 0x0 DUP1 REVERT JUMPDEST PUSH1 0x0 PUSH1 0x1F NOT PUSH1 0x1F DUP4 ADD AND SWAP1 POP SWAP2 SWAP1 POP JUMP JUMPDEST PUSH2 0x23C2 DUP2 PUSH2 0x2223 JUMP JUMPDEST DUP2 EQ PUSH2 0x23CD JUMPI PUSH1 0x0 DUP1 REVERT JUMPDEST POP JUMP INVALID LOG2 PUSH5 0x6970667358 0x22 SLT KECCAK256 DUP4 PUSH10 0x86224607E71195C975F0 0xEB 0xCB 0xBD PUSH16 0x5729B381A93ABA4FF4D0F857FB424E05 PUSH5 0x736F6C6343 STOP ADDMOD MOD STOP CALLER "},"methodIdentifiers":{"verifyTx(((uint256,uint256),(uint256[2],uint256[2]),(uint256,uint256)),uint256[33])":"785b3bbb"}}}}}