{"contracts/verifier.sol":{"MVSC":{"abi":[{"inputs":[{"components":[{"components":[{"internalType":"uint256","name":"X","type":"uint256"},{"internalType":"uint256","name":"Y","type":"uint256"}],"internalType":"struct Pairing.G1Point","name":"a","type":"tuple"},{"components":[{"internalType":"uint256[2]","name":"X","type":"uint256[2]"},{"internalType":"uint256[2]","name":"Y","type":"uint256[2]"}],"internalType":"struct Pairing.G2Point","name":"b","type":"tuple"},{"components":[{"internalType":"uint256","name":"X","type":"uint256"},{"internalType":"uint256","name":"Y","type":"uint256"}],"internalType":"struct Pairing.G1Point","name":"c","type":"tuple"}],"internalType":"struct MVSC.Proof","name":"proof","type":"tuple"},{"internalType":"uint256[24]","name":"input","type":"uint256[24]"}],"name":"verifyTx","outputs":[{"internalType":"bool","name":"r","type":"bool"}],"stateMutability":"view","type":"function"}],"evm":{"bytecode":{"linkReferences":{},"object":"608060405234801561001057600080fd5b50611fce806100206000396000f3fe608060405234801561001057600080fd5b506004361061002b5760003560e01c806388e3f31714610030575b600080fd5b61004a60048036038101906100459190611c1e565b610060565b6040516100579190611c6f565b60405180910390f35b600080601867ffffffffffffffff81111561007e5761007d611f2d565b5b6040519080825280602002602001820160405280156100ac5781602001602082028036833780820191505090505b50905060005b6018811015610105578381601881106100ce576100cd611efe565b5b60200201518282815181106100e6576100e5611efe565b5b60200260200101818152505080806100fd90611e26565b9150506100b2565b506000610112828661012e565b1415610122576001915050610128565b60009150505b92915050565b6000807f30644e72e131a029b85045b68181585d2833e84879b9709143e1f593f00000019050600061015e6102c5565b9050806080015151600186516101749190611cfb565b1461017e57600080fd5b60006040518060400160405280600081526020016000815250905060005b865181101561023757838782815181106101b9576101b8611efe565b5b6020026020010151106101cb57600080fd5b6102228261021d85608001516001856101e49190611cfb565b815181106101f5576101f4611efe565b5b60200260200101518a85815181106102105761020f611efe565b5b6020026020010151611190565b611237565b9150808061022f90611e26565b91505061019c565b5061026181836080015160008151811061025457610253611efe565b5b6020026020010151611237565b90506102a78560000151866020015161027984611304565b856040015161028b8a60400151611304565b876060015161029d8960000151611304565b89602001516113a9565b6102b757600193505050506102bf565b600093505050505b92915050565b6102cd6118d1565b60405180604001604052807f295158e94a5e0737ed6792aed538a1023d8d9bde8fc8951c619020177c31c18781526020017f22eaca57bd642abfab2bcbfd7b9efc08e504c7b99aa394450343250515eeb42e8152508160000181905250604051806040016040528060405180604001604052807f19e80f30b9ac8318aabbe8216f42ed7ceb16227de00f9c05e79fb77c4bbc621881526020017f0c9347db17996f20b34d6a03680759c5eede18ac301443e9fdf15bf8047b1297815250815260200160405180604001604052807f22bc2741bb8c5603e8138b4952c7b268937716ec5bd8b66dd482406d193d336781526020017eb3ba3ed3087864d5ca9b52f8e7a4369a899b332414bf07261a408c976271878152508152508160200181905250604051806040016040528060405180604001604052807f0b8e357307c9ec7a350b2504c00878ce1692052d724dcdbb8767c9c7941be18281526020017f0d35a147546c73ac55d31dc2f857158d019630b4dda952d368e5cb2dbcce1dfe815250815260200160405180604001604052807f0b1021bf41dd8d3dd3f3e4a2bf98a6fc7c87a1ac119b66cc68ac5d0703029be781526020017f2b71120aff3714917d85e1d2e4474aaf2803fd98de542228f5bdb89b3eadce6f8152508152508160400181905250604051806040016040528060405180604001604052807f2481cc8097fbf35bb48c3fe0d7729818b62c48fca4525ff72fe4e0ad075840c381526020017f0ba2ae74c8d5cbed796e955d8c2c2661f00f38c2ace41ff8445d1954dd80db92815250815260200160405180604001604052807f18147a25c82a71e3958e914718166ee21e05b86a33a7e76f814e0547e945469b81526020017f204b15ffbe16bc2f543d5ef4df32bfd703ecd7857070c20fa1a5e3b2734f703a8152508152508160600181905250601967ffffffffffffffff81111561059357610592611f2d565b5b6040519080825280602002602001820160405280156105cc57816020015b6105b9611918565b8152602001906001900390816105b15790505b50816080018190525060405180604001604052807f1453f0650c9f61e611b1af33800d0dc4ccdb0fc489178562c9f52eed9bb138d881526020017f0b5485256fba5fe17aa9a857817e2a40b9ef94619d225da7d2239ce7ecae9848815250816080015160008151811061064257610641611efe565b5b602002602001018190525060405180604001604052807f19b5bde16a87fb96f27ac49478a1f7de07ee60e457d27273c85bee2c1fe61d7681526020017f0bd6b6c534c25ba9c615106d6b63be347090898e93001a36cae8ee1e331938c781525081608001516001815181106106ba576106b9611efe565b5b602002602001018190525060405180604001604052807f1676a880c9726e92cc6aac91d2c1bb3c206e80d62fa48956f9ca47a4b102dfe381526020017f0af5764fe9da531fdbd83060b398db509f155ec2f9b9b3a6bf31ef53bec85879815250816080015160028151811061073257610731611efe565b5b602002602001018190525060405180604001604052807f181af7c6777b2818489f0f1a14287f698424ee79c47575c927496c11ceadff0181526020017f245042e2a3a4af7551bfb359ed0c1d5e90d7055c05ddeaf319e90332df6da01f81525081608001516003815181106107aa576107a9611efe565b5b602002602001018190525060405180604001604052807f27c44ab233c90a2febb4345035905701bf80e8fbdb7af5aaf862a5c3ba17a34f81526020017f0144323cea3c963c834254b649266a45cebf2e63eb694ab95073df2f5921da51815250816080015160048151811061082257610821611efe565b5b602002602001018190525060405180604001604052807f1c401d6781589f73b921773b00573a6685c978723e041f5900c4a7fa39a6877381526020017f16d4a364c3860b5278ee988bc0bf05d54ca6229ed29cfef14336db364a833937815250816080015160058151811061089a57610899611efe565b5b602002602001018190525060405180604001604052807f246b0799a283982e285ef573ec4f16c6afb1410e0ced7fe0d3484196edd52afe81526020017f20ad9b228bf53e2fd9bc57856261b00ab0d26bddbb4287bf5b6dd7b2cc227122815250816080015160068151811061091257610911611efe565b5b602002602001018190525060405180604001604052807f08b6430c2d857c685936755f503f4545da5e7a644b7b65bdf3ef31ce2906daba81526020017f2f136ff7c89c8195f78758f792828be3235f797fcff83c6d15a11fda388361f6815250816080015160078151811061098a57610989611efe565b5b602002602001018190525060405180604001604052807f0bd9e36893879169ce1f6581dc4938fadbfe8fbf09bd58580f4e19da739bffe581526020017f10f6928d6ec2bceff3970c65a5f29b44396f7aaef953e53cde3b53c9f99804268152508160800151600881518110610a0257610a01611efe565b5b602002602001018190525060405180604001604052807f1ca2289dc446c4c25c07ec2aac10a8e4c9df04eabaed92b87fb7a0742f7a53b281526020017f223ff644c4819dafd5c8af17329c909d07b56e39abd2d8972eefd609dff7fd368152508160800151600981518110610a7a57610a79611efe565b5b602002602001018190525060405180604001604052807f0ed5716c3d520a5eb9eb8e3a8b7bc31242b16b1fb29624ae75202459a6b4a5c781526020017f211e36cf76520a128cbe8f9d565809fbffdedcc50160dc2a0d13d7168d6dbd178152508160800151600a81518110610af257610af1611efe565b5b602002602001018190525060405180604001604052807f1e21a9842de5bb18e735d1bcf4c9eae087ebfee4afff340215418996935e3fef81526020017f28005099b67ae878354fef1f1e087353691716b6fd2bd64a27dac474ce8167ce8152508160800151600b81518110610b6a57610b69611efe565b5b602002602001018190525060405180604001604052807f1ef37d096d63b30161e409a1ae0592fc650be7809bd5f9af87caad7e58e3f06281526020017f247bf310d90b38e0d0286058ba016837478fc7e0a53c3fd9548f4380557789e68152508160800151600c81518110610be257610be1611efe565b5b602002602001018190525060405180604001604052807f15fa73d893558f6e68c9be3bff25f6364f5cad9a74e574af5ef1a45fd64fc4dd81526020017f2b400bbc1377bd5d0233bb9b03c61606414311992464760a36ee427357e685528152508160800151600d81518110610c5a57610c59611efe565b5b602002602001018190525060405180604001604052807f1f6de256307794b9b78621f949e266e646035c2a74f768de7d9eaebaf73aa48881526020017f15095f97862b3de7cdefc9060b728000498b6f32145a6394a7ef256ccd0ce8318152508160800151600e81518110610cd257610cd1611efe565b5b602002602001018190525060405180604001604052807f286228979ac8a77b8a56c7ac7e2238bec7c90dda7e420333849f1d6d7e3c045081526020017f13d0c73708b020cdf3ad6fa7664af1187a3b10af59c1cd55621aaef6cd0f0c8e8152508160800151600f81518110610d4a57610d49611efe565b5b602002602001018190525060405180604001604052807f21caeeb55f22589525616d8fe7519ee8e0064846a0d06f2821fee6039f3331de81526020017f0f172ce92badd55371851bbdffc27a21f2e218d75137dc52a8c83d52d4b4b6648152508160800151601081518110610dc257610dc1611efe565b5b602002602001018190525060405180604001604052807f2cc3ddc2e331a2d0ce2738ba945db20fd93dccf4b69552b7a306254abdfe48a781526020017f0148899b29019aa2c9cb797ad30e084c4ebf8f182c0796a651b88078201d079b8152508160800151601181518110610e3a57610e39611efe565b5b602002602001018190525060405180604001604052807f2a326f7d21c2fb462f56032de8cded0732b519cd46f145c71ad306627af8b0b781526020017f16216de1ce9b35b53d706963412baae5b9151a0d33132ac67adb0b76c4bddea78152508160800151601281518110610eb257610eb1611efe565b5b602002602001018190525060405180604001604052807f17059027cadc7f356edffda70ee56f5e265d290f4caae47fb0f2afcdb09b344781526020017f0732612376a05ac150f82ec288d10237183e8a1624b9546f0e000dcaa7b1b9d08152508160800151601381518110610f2a57610f29611efe565b5b602002602001018190525060405180604001604052807f1342bcc90c710d13d9b2e93a4b705c3d4e448b2a35f31161f2535368042578ea81526020017f1261cd2ad7e437f43c539c97d9f6b95e1cb46cddee3f8201a61088a82e3eb9328152508160800151601481518110610fa257610fa1611efe565b5b602002602001018190525060405180604001604052807f2d0b27c1dbcb280ac77cbd22d9bdf5628ebfb0a5660cd19f7fcdcefd204ac7b881526020017f14c1924195f12c93370cb7766050256b5abd69a40abe70c6772edb83700c21c4815250816080015160158151811061101a57611019611efe565b5b602002602001018190525060405180604001604052807f0f1f28bc0876aa01abc5c51370d4f85660aebec6d319807acca96c7f8fe167d181526020017f06aec3a6543645a7a554e70cb057a751cbd8ca19782b1399059cde928fbd6810815250816080015160168151811061109257611091611efe565b5b602002602001018190525060405180604001604052807f15c6cc8084f467102f590f5629f0beedd8907bb2d4eab67287320f634eb70c5181526020017f142fe49d6c0f54abf839323f4aa8a18c124016a816d3baf3f1857fd12fd107e1815250816080015160178151811061110a57611109611efe565b5b602002602001018190525060405180604001604052807f25aa3183f0f7e3709a62cf3a898c6907d9c6ab81b4a9a6df48d8fa3aad17495d81526020017f2f9fe819e18962d8de1aa2605e95253653d629ed8d0107905c454a69c191b884815250816080015160188151811061118257611181611efe565b5b602002602001018190525090565b611198611918565b6111a0611932565b8360000151816000600381106111b9576111b8611efe565b5b6020020181815250508360200151816001600381106111db576111da611efe565b5b60200201818152505082816002600381106111f9576111f8611efe565b5b602002018181525050600060608360808460076107d05a03fa9050806000811461122257611224565bfe5b508061122f57600080fd5b505092915050565b61123f611918565b611247611954565b8360000151816000600481106112605761125f611efe565b5b60200201818152505083602001518160016004811061128257611281611efe565b5b6020020181815250508260000151816002600481106112a4576112a3611efe565b5b6020020181815250508260200151816003600481106112c6576112c5611efe565b5b602002018181525050600060608360c08460066107d05a03fa905080600081146112ef576112f1565bfe5b50806112fc57600080fd5b505092915050565b61130c611918565b60007f30644e72e131a029b85045b68181585d97816a916871ca8d3c208c16d87cfd47905060008360000151148015611349575060008360200151145b1561136d5760405180604001604052806000815260200160008152509150506113a4565b6040518060400160405280846000015181526020018285602001516113929190611e6f565b8361139d9190611dab565b8152509150505b919050565b600080600467ffffffffffffffff8111156113c7576113c6611f2d565b5b60405190808252806020026020018201604052801561140057816020015b6113ed611918565b8152602001906001900390816113e55790505b5090506000600467ffffffffffffffff8111156114205761141f611f2d565b5b60405190808252806020026020018201604052801561145957816020015b611446611976565b81526020019060019003908161143e5790505b5090508a8260008151811061147157611470611efe565b5b6020026020010181905250888260018151811061149157611490611efe565b5b602002602001018190525086826002815181106114b1576114b0611efe565b5b602002602001018190525084826003815181106114d1576114d0611efe565b5b602002602001018190525089816000815181106114f1576114f0611efe565b5b6020026020010181905250878160018151811061151157611510611efe565b5b6020026020010181905250858160028151811061153157611530611efe565b5b6020026020010181905250838160038151811061155157611550611efe565b5b60200260200101819052506115668282611576565b9250505098975050505050505050565b6000815183511461158657600080fd5b600083519050600060068261159b9190611d51565b905060008167ffffffffffffffff8111156115b9576115b8611f2d565b5b6040519080825280602002602001820160405280156115e75781602001602082028036833780820191505090505b50905060005b8381101561186c5786818151811061160857611607611efe565b5b6020026020010151600001518260006006846116249190611d51565b61162e9190611cfb565b8151811061163f5761163e611efe565b5b60200260200101818152505086818151811061165e5761165d611efe565b5b60200260200101516020015182600160068461167a9190611d51565b6116849190611cfb565b8151811061169557611694611efe565b5b6020026020010181815250508581815181106116b4576116b3611efe565b5b6020026020010151600001516001600281106116d3576116d2611efe565b5b60200201518260026006846116e89190611d51565b6116f29190611cfb565b8151811061170357611702611efe565b5b60200260200101818152505085818151811061172257611721611efe565b5b60200260200101516000015160006002811061174157611740611efe565b5b60200201518260036006846117569190611d51565b6117609190611cfb565b8151811061177157611770611efe565b5b6020026020010181815250508581815181106117905761178f611efe565b5b6020026020010151602001516001600281106117af576117ae611efe565b5b60200201518260046006846117c49190611d51565b6117ce9190611cfb565b815181106117df576117de611efe565b5b6020026020010181815250508581815181106117fe576117fd611efe565b5b60200260200101516020015160006002811061181d5761181c611efe565b5b60200201518260056006846118329190611d51565b61183c9190611cfb565b8151811061184d5761184c611efe565b5b602002602001018181525050808061186490611e26565b9150506115ed565b5061187561199c565b6000602082602086026020860160086107d05a03fa9050806000811461189a5761189c565bfe5b50806118a757600080fd5b6000826000600181106118bd576118bc611efe565b5b602002015114159550505050505092915050565b6040518060a001604052806118e4611918565b81526020016118f1611976565b81526020016118fe611976565b815260200161190b611976565b8152602001606081525090565b604051806040016040528060008152602001600081525090565b6040518060600160405280600390602082028036833780820191505090505090565b6040518060800160405280600490602082028036833780820191505090505090565b60405180604001604052806119896119be565b81526020016119966119be565b81525090565b6040518060200160405280600190602082028036833780820191505090505090565b6040518060400160405280600290602082028036833780820191505090505090565b60006119f36119ee84611caf565b611c8a565b90508082856020860282011115611a0d57611a0c611f66565b5b60005b85811015611a3d5781611a238882611c09565b845260208401935060208301925050600181019050611a10565b5050509392505050565b6000611a5a611a5584611cd5565b611c8a565b90508082856020860282011115611a7457611a73611f66565b5b60005b85811015611aa45781611a8a8882611c09565b845260208401935060208301925050600181019050611a77565b5050509392505050565b600082601f830112611ac357611ac2611f5c565b5b6018611ad08482856119e0565b91505092915050565b600082601f830112611aee57611aed611f5c565b5b6002611afb848285611a47565b91505092915050565b600060408284031215611b1a57611b19611f61565b5b611b246040611c8a565b90506000611b3484828501611c09565b6000830152506020611b4884828501611c09565b60208301525092915050565b600060808284031215611b6a57611b69611f61565b5b611b746040611c8a565b90506000611b8484828501611ad9565b6000830152506040611b9884828501611ad9565b60208301525092915050565b60006101008284031215611bbb57611bba611f61565b5b611bc56060611c8a565b90506000611bd584828501611b04565b6000830152506040611be984828501611b54565b60208301525060c0611bfd84828501611b04565b60408301525092915050565b600081359050611c1881611f81565b92915050565b6000806104008385031215611c3657611c35611f6b565b5b6000611c4485828601611ba4565b925050610100611c5685828601611aae565b9150509250929050565b611c6981611ddf565b82525050565b6000602082019050611c846000830184611c60565b92915050565b6000611c94611ca5565b9050611ca08282611df5565b919050565b6000604051905090565b600067ffffffffffffffff821115611cca57611cc9611f2d565b5b602082029050919050565b600067ffffffffffffffff821115611cf057611cef611f2d565b5b602082029050919050565b6000611d0682611deb565b9150611d1183611deb565b9250827fffffffffffffffffffffffffffffffffffffffffffffffffffffffffffffffff03821115611d4657611d45611ea0565b5b828201905092915050565b6000611d5c82611deb565b9150611d6783611deb565b9250817fffffffffffffffffffffffffffffffffffffffffffffffffffffffffffffffff0483118215151615611da057611d9f611ea0565b5b828202905092915050565b6000611db682611deb565b9150611dc183611deb565b925082821015611dd457611dd3611ea0565b5b828203905092915050565b60008115159050919050565b6000819050919050565b611dfe82611f70565b810181811067ffffffffffffffff82111715611e1d57611e1c611f2d565b5b80604052505050565b6000611e3182611deb565b91507fffffffffffffffffffffffffffffffffffffffffffffffffffffffffffffffff821415611e6457611e63611ea0565b5b600182019050919050565b6000611e7a82611deb565b9150611e8583611deb565b925082611e9557611e94611ecf565b5b828206905092915050565b7f4e487b7100000000000000000000000000000000000000000000000000000000600052601160045260246000fd5b7f4e487b7100000000000000000000000000000000000000000000000000000000600052601260045260246000fd5b7f4e487b7100000000000000000000000000000000000000000000000000000000600052603260045260246000fd5b7f4e487b7100000000000000000000000000000000000000000000000000000000600052604160045260246000fd5b600080fd5b600080fd5b600080fd5b600080fd5b6000601f19601f8301169050919050565b611f8a81611deb565b8114611f9557600080fd5b5056fea2646970667358221220238499b87bc1d1e75ca38cf524172adf88a12399bfbfe1c019d01b481b41de9a64736f6c63430008060033","opcodes":"PUSH1 0x80 PUSH1 0x40 MSTORE CALLVALUE DUP1 ISZERO PUSH2 0x10 JUMPI PUSH1 0x0 DUP1 REVERT JUMPDEST POP PUSH2 0x1FCE DUP1 PUSH2 0x20 PUSH1 0x0 CODECOPY PUSH1 0x0 RETURN INVALID PUSH1 0x80 PUSH1 0x40 MSTORE CALLVALUE DUP1 ISZERO PUSH2 0x10 JUMPI PUSH1 0x0 DUP1 REVERT JUMPDEST POP PUSH1 0x4 CALLDATASIZE LT PUSH2 0x2B JUMPI PUSH1 0x0 CALLDATALOAD PUSH1 0xE0 SHR DUP1 PUSH4 0x88E3F317 EQ PUSH2 0x30 JUMPI JUMPDEST PUSH1 0x0 DUP1 REVERT JUMPDEST PUSH2 0x4A PUSH1 0x4 DUP1 CALLDATASIZE SUB DUP2 ADD SWAP1 PUSH2 0x45 SWAP2 SWAP1 PUSH2 0x1C1E JUMP JUMPDEST PUSH2 0x60 JUMP JUMPDEST PUSH1 0x40 MLOAD PUSH2 0x57 SWAP2 SWAP1 PUSH2 0x1C6F JUMP JUMPDEST PUSH1 0x40 MLOAD DUP1 SWAP2 SUB SWAP1 RETURN JUMPDEST PUSH1 0x0 DUP1 PUSH1 0x18 PUSH8 0xFFFFFFFFFFFFFFFF DUP2 GT ISZERO PUSH2 0x7E JUMPI PUSH2 0x7D PUSH2 0x1F2D JUMP JUMPDEST JUMPDEST PUSH1 0x40 MLOAD SWAP1 DUP1 DUP3 MSTORE DUP1 PUSH1 0x20 MUL PUSH1 0x20 ADD DUP3 ADD PUSH1 0x40 MSTORE DUP1 ISZERO PUSH2 0xAC JUMPI DUP2 PUSH1 0x20 ADD PUSH1 0x20 DUP3 MUL DUP1 CALLDATASIZE DUP4 CALLDATACOPY DUP1 DUP3 ADD SWAP2 POP POP SWAP1 POP JUMPDEST POP SWAP1 POP PUSH1 0x0 JUMPDEST PUSH1 0x18 DUP2 LT ISZERO PUSH2 0x105 JUMPI DUP4 DUP2 PUSH1 0x18 DUP2 LT PUSH2 0xCE JUMPI PUSH2 0xCD PUSH2 0x1EFE JUMP JUMPDEST JUMPDEST PUSH1 0x20 MUL ADD MLOAD DUP3 DUP3 DUP2 MLOAD DUP2 LT PUSH2 0xE6 JUMPI PUSH2 0xE5 PUSH2 0x1EFE JUMP JUMPDEST JUMPDEST PUSH1 0x20 MUL PUSH1 0x20 ADD ADD DUP2 DUP2 MSTORE POP POP DUP1 DUP1 PUSH2 0xFD SWAP1 PUSH2 0x1E26 JUMP JUMPDEST SWAP2 POP POP PUSH2 0xB2 JUMP JUMPDEST POP PUSH1 0x0 PUSH2 0x112 DUP3 DUP7 PUSH2 0x12E JUMP JUMPDEST EQ ISZERO PUSH2 0x122 JUMPI PUSH1 0x1 SWAP2 POP POP PUSH2 0x128 JUMP JUMPDEST PUSH1 0x0 SWAP2 POP POP JUMPDEST SWAP3 SWAP2 POP POP JUMP JUMPDEST PUSH1 0x0 DUP1 PUSH32 0x30644E72E131A029B85045B68181585D2833E84879B9709143E1F593F0000001 SWAP1 POP PUSH1 0x0 PUSH2 0x15E PUSH2 0x2C5 JUMP JUMPDEST SWAP1 POP DUP1 PUSH1 0x80 ADD MLOAD MLOAD PUSH1 0x1 DUP7 MLOAD PUSH2 0x174 SWAP2 SWAP1 PUSH2 0x1CFB JUMP JUMPDEST EQ PUSH2 0x17E JUMPI PUSH1 0x0 DUP1 REVERT JUMPDEST PUSH1 0x0 PUSH1 0x40 MLOAD DUP1 PUSH1 0x40 ADD PUSH1 0x40 MSTORE DUP1 PUSH1 0x0 DUP2 MSTORE PUSH1 0x20 ADD PUSH1 0x0 DUP2 MSTORE POP SWAP1 POP PUSH1 0x0 JUMPDEST DUP7 MLOAD DUP2 LT ISZERO PUSH2 0x237 JUMPI DUP4 DUP8 DUP3 DUP2 MLOAD DUP2 LT PUSH2 0x1B9 JUMPI PUSH2 0x1B8 PUSH2 0x1EFE JUMP JUMPDEST JUMPDEST PUSH1 0x20 MUL PUSH1 0x20 ADD ADD MLOAD LT PUSH2 0x1CB JUMPI PUSH1 0x0 DUP1 REVERT JUMPDEST PUSH2 0x222 DUP3 PUSH2 0x21D DUP6 PUSH1 0x80 ADD MLOAD PUSH1 0x1 DUP6 PUSH2 0x1E4 SWAP2 SWAP1 PUSH2 0x1CFB JUMP JUMPDEST DUP2 MLOAD DUP2 LT PUSH2 0x1F5 JUMPI PUSH2 0x1F4 PUSH2 0x1EFE JUMP JUMPDEST JUMPDEST PUSH1 0x20 MUL PUSH1 0x20 ADD ADD MLOAD DUP11 DUP6 DUP2 MLOAD DUP2 LT PUSH2 0x210 JUMPI PUSH2 0x20F PUSH2 0x1EFE JUMP JUMPDEST JUMPDEST PUSH1 0x20 MUL PUSH1 0x20 ADD ADD MLOAD PUSH2 0x1190 JUMP JUMPDEST PUSH2 0x1237 JUMP JUMPDEST SWAP2 POP DUP1 DUP1 PUSH2 0x22F SWAP1 PUSH2 0x1E26 JUMP JUMPDEST SWAP2 POP POP PUSH2 0x19C JUMP JUMPDEST POP PUSH2 0x261 DUP2 DUP4 PUSH1 0x80 ADD MLOAD PUSH1 0x0 DUP2 MLOAD DUP2 LT PUSH2 0x254 JUMPI PUSH2 0x253 PUSH2 0x1EFE JUMP JUMPDEST JUMPDEST PUSH1 0x20 MUL PUSH1 0x20 ADD ADD MLOAD PUSH2 0x1237 JUMP JUMPDEST SWAP1 POP PUSH2 0x2A7 DUP6 PUSH1 0x0 ADD MLOAD DUP7 PUSH1 0x20 ADD MLOAD PUSH2 0x279 DUP5 PUSH2 0x1304 JUMP JUMPDEST DUP6 PUSH1 0x40 ADD MLOAD PUSH2 0x28B DUP11 PUSH1 0x40 ADD MLOAD PUSH2 0x1304 JUMP JUMPDEST DUP8 PUSH1 0x60 ADD MLOAD PUSH2 0x29D DUP10 PUSH1 0x0 ADD MLOAD PUSH2 0x1304 JUMP JUMPDEST DUP10 PUSH1 0x20 ADD MLOAD PUSH2 0x13A9 JUMP JUMPDEST PUSH2 0x2B7 JUMPI PUSH1 0x1 SWAP4 POP POP POP POP PUSH2 0x2BF JUMP JUMPDEST PUSH1 0x0 SWAP4 POP POP POP POP JUMPDEST SWAP3 SWAP2 POP POP JUMP JUMPDEST PUSH2 0x2CD PUSH2 0x18D1 JUMP JUMPDEST PUSH1 0x40 MLOAD DUP1 PUSH1 0x40 ADD PUSH1 0x40 MSTORE DUP1 PUSH32 0x295158E94A5E0737ED6792AED538A1023D8D9BDE8FC8951C619020177C31C187 DUP2 MSTORE PUSH1 0x20 ADD PUSH32 0x22EACA57BD642ABFAB2BCBFD7B9EFC08E504C7B99AA394450343250515EEB42E DUP2 MSTORE POP DUP2 PUSH1 0x0 ADD DUP2 SWAP1 MSTORE POP PUSH1 0x40 MLOAD DUP1 PUSH1 0x40 ADD PUSH1 0x40 MSTORE DUP1 PUSH1 0x40 MLOAD DUP1 PUSH1 0x40 ADD PUSH1 0x40 MSTORE DUP1 PUSH32 0x19E80F30B9AC8318AABBE8216F42ED7CEB16227DE00F9C05E79FB77C4BBC6218 DUP2 MSTORE PUSH1 0x20 ADD PUSH32 0xC9347DB17996F20B34D6A03680759C5EEDE18AC301443E9FDF15BF8047B1297 DUP2 MSTORE POP DUP2 MSTORE PUSH1 0x20 ADD PUSH1 0x40 MLOAD DUP1 PUSH1 0x40 ADD PUSH1 0x40 MSTORE DUP1 PUSH32 0x22BC2741BB8C5603E8138B4952C7B268937716EC5BD8B66DD482406D193D3367 DUP2 MSTORE PUSH1 0x20 ADD PUSH31 0xB3BA3ED3087864D5CA9B52F8E7A4369A899B332414BF07261A408C97627187 DUP2 MSTORE POP DUP2 MSTORE POP DUP2 PUSH1 0x20 ADD DUP2 SWAP1 MSTORE POP PUSH1 0x40 MLOAD DUP1 PUSH1 0x40 ADD PUSH1 0x40 MSTORE DUP1 PUSH1 0x40 MLOAD DUP1 PUSH1 0x40 ADD PUSH1 0x40 MSTORE DUP1 PUSH32 0xB8E357307C9EC7A350B2504C00878CE1692052D724DCDBB8767C9C7941BE182 DUP2 MSTORE PUSH1 0x20 ADD PUSH32 0xD35A147546C73AC55D31DC2F857158D019630B4DDA952D368E5CB2DBCCE1DFE DUP2 MSTORE POP DUP2 MSTORE PUSH1 0x20 ADD PUSH1 0x40 MLOAD DUP1 PUSH1 0x40 ADD PUSH1 0x40 MSTORE DUP1 PUSH32 0xB1021BF41DD8D3DD3F3E4A2BF98A6FC7C87A1AC119B66CC68AC5D0703029BE7 DUP2 MSTORE PUSH1 0x20 ADD PUSH32 0x2B71120AFF3714917D85E1D2E4474AAF2803FD98DE542228F5BDB89B3EADCE6F DUP2 MSTORE POP DUP2 MSTORE POP DUP2 PUSH1 0x40 ADD DUP2 SWAP1 MSTORE POP PUSH1 0x40 MLOAD DUP1 PUSH1 0x40 ADD PUSH1 0x40 MSTORE DUP1 PUSH1 0x40 MLOAD DUP1 PUSH1 0x40 ADD PUSH1 0x40 MSTORE DUP1 PUSH32 0x2481CC8097FBF35BB48C3FE0D7729818B62C48FCA4525FF72FE4E0AD075840C3 DUP2 MSTORE PUSH1 0x20 ADD PUSH32 0xBA2AE74C8D5CBED796E955D8C2C2661F00F38C2ACE41FF8445D1954DD80DB92 DUP2 MSTORE POP DUP2 MSTORE PUSH1 0x20 ADD PUSH1 0x40 MLOAD DUP1 PUSH1 0x40 ADD PUSH1 0x40 MSTORE DUP1 PUSH32 0x18147A25C82A71E3958E914718166EE21E05B86A33A7E76F814E0547E945469B DUP2 MSTORE PUSH1 0x20 ADD PUSH32 0x204B15FFBE16BC2F543D5EF4DF32BFD703ECD7857070C20FA1A5E3B2734F703A DUP2 MSTORE POP DUP2 MSTORE POP DUP2 PUSH1 0x60 ADD DUP2 SWAP1 MSTORE POP PUSH1 0x19 PUSH8 0xFFFFFFFFFFFFFFFF DUP2 GT ISZERO PUSH2 0x593 JUMPI PUSH2 0x592 PUSH2 0x1F2D JUMP JUMPDEST JUMPDEST PUSH1 0x40 MLOAD SWAP1 DUP1 DUP3 MSTORE DUP1 PUSH1 0x20 MUL PUSH1 0x20 ADD DUP3 ADD PUSH1 0x40 MSTORE DUP1 ISZERO PUSH2 0x5CC JUMPI DUP2 PUSH1 0x20 ADD JUMPDEST PUSH2 0x5B9 PUSH2 0x1918 JUMP JUMPDEST DUP2 MSTORE PUSH1 0x20 ADD SWAP1 PUSH1 0x1 SWAP1 SUB SWAP1 DUP2 PUSH2 0x5B1 JUMPI SWAP1 POP JUMPDEST POP DUP2 PUSH1 0x80 ADD DUP2 SWAP1 MSTORE POP PUSH1 0x40 MLOAD DUP1 PUSH1 0x40 ADD PUSH1 0x40 MSTORE DUP1 PUSH32 0x1453F0650C9F61E611B1AF33800D0DC4CCDB0FC489178562C9F52EED9BB138D8 DUP2 MSTORE PUSH1 0x20 ADD PUSH32 0xB5485256FBA5FE17AA9A857817E2A40B9EF94619D225DA7D2239CE7ECAE9848 DUP2 MSTORE POP DUP2 PUSH1 0x80 ADD MLOAD PUSH1 0x0 DUP2 MLOAD DUP2 LT PUSH2 0x642 JUMPI PUSH2 0x641 PUSH2 0x1EFE JUMP JUMPDEST JUMPDEST PUSH1 0x20 MUL PUSH1 0x20 ADD ADD DUP2 SWAP1 MSTORE POP PUSH1 0x40 MLOAD DUP1 PUSH1 0x40 ADD PUSH1 0x40 MSTORE DUP1 PUSH32 0x19B5BDE16A87FB96F27AC49478A1F7DE07EE60E457D27273C85BEE2C1FE61D76 DUP2 MSTORE PUSH1 0x20 ADD PUSH32 0xBD6B6C534C25BA9C615106D6B63BE347090898E93001A36CAE8EE1E331938C7 DUP2 MSTORE POP DUP2 PUSH1 0x80 ADD MLOAD PUSH1 0x1 DUP2 MLOAD DUP2 LT PUSH2 0x6BA JUMPI PUSH2 0x6B9 PUSH2 0x1EFE JUMP JUMPDEST JUMPDEST PUSH1 0x20 MUL PUSH1 0x20 ADD ADD DUP2 SWAP1 MSTORE POP PUSH1 0x40 MLOAD DUP1 PUSH1 0x40 ADD PUSH1 0x40 MSTORE DUP1 PUSH32 0x1676A880C9726E92CC6AAC91D2C1BB3C206E80D62FA48956F9CA47A4B102DFE3 DUP2 MSTORE PUSH1 0x20 ADD PUSH32 0xAF5764FE9DA531FDBD83060B398DB509F155EC2F9B9B3A6BF31EF53BEC85879 DUP2 MSTORE POP DUP2 PUSH1 0x80 ADD MLOAD PUSH1 0x2 DUP2 MLOAD DUP2 LT PUSH2 0x732 JUMPI PUSH2 0x731 PUSH2 0x1EFE JUMP JUMPDEST JUMPDEST PUSH1 0x20 MUL PUSH1 0x20 ADD ADD DUP2 SWAP1 MSTORE POP PUSH1 0x40 MLOAD DUP1 PUSH1 0x40 ADD PUSH1 0x40 MSTORE DUP1 PUSH32 0x181AF7C6777B2818489F0F1A14287F698424EE79C47575C927496C11CEADFF01 DUP2 MSTORE PUSH1 0x20 ADD PUSH32 0x245042E2A3A4AF7551BFB359ED0C1D5E90D7055C05DDEAF319E90332DF6DA01F DUP2 MSTORE POP DUP2 PUSH1 0x80 ADD MLOAD PUSH1 0x3 DUP2 MLOAD DUP2 LT PUSH2 0x7AA JUMPI PUSH2 0x7A9 PUSH2 0x1EFE JUMP JUMPDEST JUMPDEST PUSH1 0x20 MUL PUSH1 0x20 ADD ADD DUP2 SWAP1 MSTORE POP PUSH1 0x40 MLOAD DUP1 PUSH1 0x40 ADD PUSH1 0x40 MSTORE DUP1 PUSH32 0x27C44AB233C90A2FEBB4345035905701BF80E8FBDB7AF5AAF862A5C3BA17A34F DUP2 MSTORE PUSH1 0x20 ADD PUSH32 0x144323CEA3C963C834254B649266A45CEBF2E63EB694AB95073DF2F5921DA51 DUP2 MSTORE POP DUP2 PUSH1 0x80 ADD MLOAD PUSH1 0x4 DUP2 MLOAD DUP2 LT PUSH2 0x822 JUMPI PUSH2 0x821 PUSH2 0x1EFE JUMP JUMPDEST JUMPDEST PUSH1 0x20 MUL PUSH1 0x20 ADD ADD DUP2 SWAP1 MSTORE POP PUSH1 0x40 MLOAD DUP1 PUSH1 0x40 ADD PUSH1 0x40 MSTORE DUP1 PUSH32 0x1C401D6781589F73B921773B00573A6685C978723E041F5900C4A7FA39A68773 DUP2 MSTORE PUSH1 0x20 ADD PUSH32 0x16D4A364C3860B5278EE988BC0BF05D54CA6229ED29CFEF14336DB364A833937 DUP2 MSTORE POP DUP2 PUSH1 0x80 ADD MLOAD PUSH1 0x5 DUP2 MLOAD DUP2 LT PUSH2 0x89A JUMPI PUSH2 0x899 PUSH2 0x1EFE JUMP JUMPDEST JUMPDEST PUSH1 0x20 MUL PUSH1 0x20 ADD ADD DUP2 SWAP1 MSTORE POP PUSH1 0x40 MLOAD DUP1 PUSH1 0x40 ADD PUSH1 0x40 MSTORE DUP1 PUSH32 0x246B0799A283982E285EF573EC4F16C6AFB1410E0CED7FE0D3484196EDD52AFE DUP2 MSTORE PUSH1 0x20 ADD PUSH32 0x20AD9B228BF53E2FD9BC57856261B00AB0D26BDDBB4287BF5B6DD7B2CC227122 DUP2 MSTORE POP DUP2 PUSH1 0x80 ADD MLOAD PUSH1 0x6 DUP2 MLOAD DUP2 LT PUSH2 0x912 JUMPI PUSH2 0x911 PUSH2 0x1EFE JUMP JUMPDEST JUMPDEST PUSH1 0x20 MUL PUSH1 0x20 ADD ADD DUP2 SWAP1 MSTORE POP PUSH1 0x40 MLOAD DUP1 PUSH1 0x40 ADD PUSH1 0x40 MSTORE DUP1 PUSH32 0x8B6430C2D857C685936755F503F4545DA5E7A644B7B65BDF3EF31CE2906DABA DUP2 MSTORE PUSH1 0x20 ADD PUSH32 0x2F136FF7C89C8195F78758F792828BE3235F797FCFF83C6D15A11FDA388361F6 DUP2 MSTORE POP DUP2 PUSH1 0x80 ADD MLOAD PUSH1 0x7 DUP2 MLOAD DUP2 LT PUSH2 0x98A JUMPI PUSH2 0x989 PUSH2 0x1EFE JUMP JUMPDEST JUMPDEST PUSH1 0x20 MUL PUSH1 0x20 ADD ADD DUP2 SWAP1 MSTORE POP PUSH1 0x40 MLOAD DUP1 PUSH1 0x40 ADD PUSH1 0x40 MSTORE DUP1 PUSH32 0xBD9E36893879169CE1F6581DC4938FADBFE8FBF09BD58580F4E19DA739BFFE5 DUP2 MSTORE PUSH1 0x20 ADD PUSH32 0x10F6928D6EC2BCEFF3970C65A5F29B44396F7AAEF953E53CDE3B53C9F9980426 DUP2 MSTORE POP DUP2 PUSH1 0x80 ADD MLOAD PUSH1 0x8 DUP2 MLOAD DUP2 LT PUSH2 0xA02 JUMPI PUSH2 0xA01 PUSH2 0x1EFE JUMP JUMPDEST JUMPDEST PUSH1 0x20 MUL PUSH1 0x20 ADD ADD DUP2 SWAP1 MSTORE POP PUSH1 0x40 MLOAD DUP1 PUSH1 0x40 ADD PUSH1 0x40 MSTORE DUP1 PUSH32 0x1CA2289DC446C4C25C07EC2AAC10A8E4C9DF04EABAED92B87FB7A0742F7A53B2 DUP2 MSTORE PUSH1 0x20 ADD PUSH32 0x223FF644C4819DAFD5C8AF17329C909D07B56E39ABD2D8972EEFD609DFF7FD36 DUP2 MSTORE POP DUP2 PUSH1 0x80 ADD MLOAD PUSH1 0x9 DUP2 MLOAD DUP2 LT PUSH2 0xA7A JUMPI PUSH2 0xA79 PUSH2 0x1EFE JUMP JUMPDEST JUMPDEST PUSH1 0x20 MUL PUSH1 0x20 ADD ADD DUP2 SWAP1 MSTORE POP PUSH1 0x40 MLOAD DUP1 PUSH1 0x40 ADD PUSH1 0x40 MSTORE DUP1 PUSH32 0xED5716C3D520A5EB9EB8E3A8B7BC31242B16B1FB29624AE75202459A6B4A5C7 DUP2 MSTORE PUSH1 0x20 ADD PUSH32 0x211E36CF76520A128CBE8F9D565809FBFFDEDCC50160DC2A0D13D7168D6DBD17 DUP2 MSTORE POP DUP2 PUSH1 0x80 ADD MLOAD PUSH1 0xA DUP2 MLOAD DUP2 LT PUSH2 0xAF2 JUMPI PUSH2 0xAF1 PUSH2 0x1EFE JUMP JUMPDEST JUMPDEST PUSH1 0x20 MUL PUSH1 0x20 ADD ADD DUP2 SWAP1 MSTORE POP PUSH1 0x40 MLOAD DUP1 PUSH1 0x40 ADD PUSH1 0x40 MSTORE DUP1 PUSH32 0x1E21A9842DE5BB18E735D1BCF4C9EAE087EBFEE4AFFF340215418996935E3FEF DUP2 MSTORE PUSH1 0x20 ADD PUSH32 0x28005099B67AE878354FEF1F1E087353691716B6FD2BD64A27DAC474CE8167CE DUP2 MSTORE POP DUP2 PUSH1 0x80 ADD MLOAD PUSH1 0xB DUP2 MLOAD DUP2 LT PUSH2 0xB6A JUMPI PUSH2 0xB69 PUSH2 0x1EFE JUMP JUMPDEST JUMPDEST PUSH1 0x20 MUL PUSH1 0x20 ADD ADD DUP2 SWAP1 MSTORE POP PUSH1 0x40 MLOAD DUP1 PUSH1 0x40 ADD PUSH1 0x40 MSTORE DUP1 PUSH32 0x1EF37D096D63B30161E409A1AE0592FC650BE7809BD5F9AF87CAAD7E58E3F062 DUP2 MSTORE PUSH1 0x20 ADD PUSH32 0x247BF310D90B38E0D0286058BA016837478FC7E0A53C3FD9548F4380557789E6 DUP2 MSTORE POP DUP2 PUSH1 0x80 ADD MLOAD PUSH1 0xC DUP2 MLOAD DUP2 LT PUSH2 0xBE2 JUMPI PUSH2 0xBE1 PUSH2 0x1EFE JUMP JUMPDEST JUMPDEST PUSH1 0x20 MUL PUSH1 0x20 ADD ADD DUP2 SWAP1 MSTORE POP PUSH1 0x40 MLOAD DUP1 PUSH1 0x40 ADD PUSH1 0x40 MSTORE DUP1 PUSH32 0x15FA73D893558F6E68C9BE3BFF25F6364F5CAD9A74E574AF5EF1A45FD64FC4DD DUP2 MSTORE PUSH1 0x20 ADD PUSH32 0x2B400BBC1377BD5D0233BB9B03C61606414311992464760A36EE427357E68552 DUP2 MSTORE POP DUP2 PUSH1 0x80 ADD MLOAD PUSH1 0xD DUP2 MLOAD DUP2 LT PUSH2 0xC5A JUMPI PUSH2 0xC59 PUSH2 0x1EFE JUMP JUMPDEST JUMPDEST PUSH1 0x20 MUL PUSH1 0x20 ADD ADD DUP2 SWAP1 MSTORE POP PUSH1 0x40 MLOAD DUP1 PUSH1 0x40 ADD PUSH1 0x40 MSTORE DUP1 PUSH32 0x1F6DE256307794B9B78621F949E266E646035C2A74F768DE7D9EAEBAF73AA488 DUP2 MSTORE PUSH1 0x20 ADD PUSH32 0x15095F97862B3DE7CDEFC9060B728000498B6F32145A6394A7EF256CCD0CE831 DUP2 MSTORE POP DUP2 PUSH1 0x80 ADD MLOAD PUSH1 0xE DUP2 MLOAD DUP2 LT PUSH2 0xCD2 JUMPI PUSH2 0xCD1 PUSH2 0x1EFE JUMP JUMPDEST JUMPDEST PUSH1 0x20 MUL PUSH1 0x20 ADD ADD DUP2 SWAP1 MSTORE POP PUSH1 0x40 MLOAD DUP1 PUSH1 0x40 ADD PUSH1 0x40 MSTORE DUP1 PUSH32 0x286228979AC8A77B8A56C7AC7E2238BEC7C90DDA7E420333849F1D6D7E3C0450 DUP2 MSTORE PUSH1 0x20 ADD PUSH32 0x13D0C73708B020CDF3AD6FA7664AF1187A3B10AF59C1CD55621AAEF6CD0F0C8E DUP2 MSTORE POP DUP2 PUSH1 0x80 ADD MLOAD PUSH1 0xF DUP2 MLOAD DUP2 LT PUSH2 0xD4A JUMPI PUSH2 0xD49 PUSH2 0x1EFE JUMP JUMPDEST JUMPDEST PUSH1 0x20 MUL PUSH1 0x20 ADD ADD DUP2 SWAP1 MSTORE POP PUSH1 0x40 MLOAD DUP1 PUSH1 0x40 ADD PUSH1 0x40 MSTORE DUP1 PUSH32 0x21CAEEB55F22589525616D8FE7519EE8E0064846A0D06F2821FEE6039F3331DE DUP2 MSTORE PUSH1 0x20 ADD PUSH32 0xF172CE92BADD55371851BBDFFC27A21F2E218D75137DC52A8C83D52D4B4B664 DUP2 MSTORE POP DUP2 PUSH1 0x80 ADD MLOAD PUSH1 0x10 DUP2 MLOAD DUP2 LT PUSH2 0xDC2 JUMPI PUSH2 0xDC1 PUSH2 0x1EFE JUMP JUMPDEST JUMPDEST PUSH1 0x20 MUL PUSH1 0x20 ADD ADD DUP2 SWAP1 MSTORE POP PUSH1 0x40 MLOAD DUP1 PUSH1 0x40 ADD PUSH1 0x40 MSTORE DUP1 PUSH32 0x2CC3DDC2E331A2D0CE2738BA945DB20FD93DCCF4B69552B7A306254ABDFE48A7 DUP2 MSTORE PUSH1 0x20 ADD PUSH32 0x148899B29019AA2C9CB797AD30E084C4EBF8F182C0796A651B88078201D079B DUP2 MSTORE POP DUP2 PUSH1 0x80 ADD MLOAD PUSH1 0x11 DUP2 MLOAD DUP2 LT PUSH2 0xE3A JUMPI PUSH2 0xE39 PUSH2 0x1EFE JUMP JUMPDEST JUMPDEST PUSH1 0x20 MUL PUSH1 0x20 ADD ADD DUP2 SWAP1 MSTORE POP PUSH1 0x40 MLOAD DUP1 PUSH1 0x40 ADD PUSH1 0x40 MSTORE DUP1 PUSH32 0x2A326F7D21C2FB462F56032DE8CDED0732B519CD46F145C71AD306627AF8B0B7 DUP2 MSTORE PUSH1 0x20 ADD PUSH32 0x16216DE1CE9B35B53D706963412BAAE5B9151A0D33132AC67ADB0B76C4BDDEA7 DUP2 MSTORE POP DUP2 PUSH1 0x80 ADD MLOAD PUSH1 0x12 DUP2 MLOAD DUP2 LT PUSH2 0xEB2 JUMPI PUSH2 0xEB1 PUSH2 0x1EFE JUMP JUMPDEST JUMPDEST PUSH1 0x20 MUL PUSH1 0x20 ADD ADD DUP2 SWAP1 MSTORE POP PUSH1 0x40 MLOAD DUP1 PUSH1 0x40 ADD PUSH1 0x40 MSTORE DUP1 PUSH32 0x17059027CADC7F356EDFFDA70EE56F5E265D290F4CAAE47FB0F2AFCDB09B3447 DUP2 MSTORE PUSH1 0x20 ADD PUSH32 0x732612376A05AC150F82EC288D10237183E8A1624B9546F0E000DCAA7B1B9D0 DUP2 MSTORE POP DUP2 PUSH1 0x80 ADD MLOAD PUSH1 0x13 DUP2 MLOAD DUP2 LT PUSH2 0xF2A JUMPI PUSH2 0xF29 PUSH2 0x1EFE JUMP JUMPDEST JUMPDEST PUSH1 0x20 MUL PUSH1 0x20 ADD ADD DUP2 SWAP1 MSTORE POP PUSH1 0x40 MLOAD DUP1 PUSH1 0x40 ADD PUSH1 0x40 MSTORE DUP1 PUSH32 0x1342BCC90C710D13D9B2E93A4B705C3D4E448B2A35F31161F2535368042578EA DUP2 MSTORE PUSH1 0x20 ADD PUSH32 0x1261CD2AD7E437F43C539C97D9F6B95E1CB46CDDEE3F8201A61088A82E3EB932 DUP2 MSTORE POP DUP2 PUSH1 0x80 ADD MLOAD PUSH1 0x14 DUP2 MLOAD DUP2 LT PUSH2 0xFA2 JUMPI PUSH2 0xFA1 PUSH2 0x1EFE JUMP JUMPDEST JUMPDEST PUSH1 0x20 MUL PUSH1 0x20 ADD ADD DUP2 SWAP1 MSTORE POP PUSH1 0x40 MLOAD DUP1 PUSH1 0x40 ADD PUSH1 0x40 MSTORE DUP1 PUSH32 0x2D0B27C1DBCB280AC77CBD22D9BDF5628EBFB0A5660CD19F7FCDCEFD204AC7B8 DUP2 MSTORE PUSH1 0x20 ADD PUSH32 0x14C1924195F12C93370CB7766050256B5ABD69A40ABE70C6772EDB83700C21C4 DUP2 MSTORE POP DUP2 PUSH1 0x80 ADD MLOAD PUSH1 0x15 DUP2 MLOAD DUP2 LT PUSH2 0x101A JUMPI PUSH2 0x1019 PUSH2 0x1EFE JUMP JUMPDEST JUMPDEST PUSH1 0x20 MUL PUSH1 0x20 ADD ADD DUP2 SWAP1 MSTORE POP PUSH1 0x40 MLOAD DUP1 PUSH1 0x40 ADD PUSH1 0x40 MSTORE DUP1 PUSH32 0xF1F28BC0876AA01ABC5C51370D4F85660AEBEC6D319807ACCA96C7F8FE167D1 DUP2 MSTORE PUSH1 0x20 ADD PUSH32 0x6AEC3A6543645A7A554E70CB057A751CBD8CA19782B1399059CDE928FBD6810 DUP2 MSTORE POP DUP2 PUSH1 0x80 ADD MLOAD PUSH1 0x16 DUP2 MLOAD DUP2 LT PUSH2 0x1092 JUMPI PUSH2 0x1091 PUSH2 0x1EFE JUMP JUMPDEST JUMPDEST PUSH1 0x20 MUL PUSH1 0x20 ADD ADD DUP2 SWAP1 MSTORE POP PUSH1 0x40 MLOAD DUP1 PUSH1 0x40 ADD PUSH1 0x40 MSTORE DUP1 PUSH32 0x15C6CC8084F467102F590F5629F0BEEDD8907BB2D4EAB67287320F634EB70C51 DUP2 MSTORE PUSH1 0x20 ADD PUSH32 0x142FE49D6C0F54ABF839323F4AA8A18C124016A816D3BAF3F1857FD12FD107E1 DUP2 MSTORE POP DUP2 PUSH1 0x80 ADD MLOAD PUSH1 0x17 DUP2 MLOAD DUP2 LT PUSH2 0x110A JUMPI PUSH2 0x1109 PUSH2 0x1EFE JUMP JUMPDEST JUMPDEST PUSH1 0x20 MUL PUSH1 0x20 ADD ADD DUP2 SWAP1 MSTORE POP PUSH1 0x40 MLOAD DUP1 PUSH1 0x40 ADD PUSH1 0x40 MSTORE DUP1 PUSH32 0x25AA3183F0F7E3709A62CF3A898C6907D9C6AB81B4A9A6DF48D8FA3AAD17495D DUP2 MSTORE PUSH1 0x20 ADD PUSH32 0x2F9FE819E18962D8DE1AA2605E95253653D629ED8D0107905C454A69C191B884 DUP2 MSTORE POP DUP2 PUSH1 0x80 ADD MLOAD PUSH1 0x18 DUP2 MLOAD DUP2 LT PUSH2 0x1182 JUMPI PUSH2 0x1181 PUSH2 0x1EFE JUMP JUMPDEST JUMPDEST PUSH1 0x20 MUL PUSH1 0x20 ADD ADD DUP2 SWAP1 MSTORE POP SWAP1 JUMP JUMPDEST PUSH2 0x1198 PUSH2 0x1918 JUMP JUMPDEST PUSH2 0x11A0 PUSH2 0x1932 JUMP JUMPDEST DUP4 PUSH1 0x0 ADD MLOAD DUP2 PUSH1 0x0 PUSH1 0x3 DUP2 LT PUSH2 0x11B9 JUMPI PUSH2 0x11B8 PUSH2 0x1EFE JUMP JUMPDEST JUMPDEST PUSH1 0x20 MUL ADD DUP2 DUP2 MSTORE POP POP DUP4 PUSH1 0x20 ADD MLOAD DUP2 PUSH1 0x1 PUSH1 0x3 DUP2 LT PUSH2 0x11DB JUMPI PUSH2 0x11DA PUSH2 0x1EFE JUMP JUMPDEST JUMPDEST PUSH1 0x20 MUL ADD DUP2 DUP2 MSTORE POP POP DUP3 DUP2 PUSH1 0x2 PUSH1 0x3 DUP2 LT PUSH2 0x11F9 JUMPI PUSH2 0x11F8 PUSH2 0x1EFE JUMP JUMPDEST JUMPDEST PUSH1 0x20 MUL ADD DUP2 DUP2 MSTORE POP POP PUSH1 0x0 PUSH1 0x60 DUP4 PUSH1 0x80 DUP5 PUSH1 0x7 PUSH2 0x7D0 GAS SUB STATICCALL SWAP1 POP DUP1 PUSH1 0x0 DUP2 EQ PUSH2 0x1222 JUMPI PUSH2 0x1224 JUMP JUMPDEST INVALID JUMPDEST POP DUP1 PUSH2 0x122F JUMPI PUSH1 0x0 DUP1 REVERT JUMPDEST POP POP SWAP3 SWAP2 POP POP JUMP JUMPDEST PUSH2 0x123F PUSH2 0x1918 JUMP JUMPDEST PUSH2 0x1247 PUSH2 0x1954 JUMP JUMPDEST DUP4 PUSH1 0x0 ADD MLOAD DUP2 PUSH1 0x0 PUSH1 0x4 DUP2 LT PUSH2 0x1260 JUMPI PUSH2 0x125F PUSH2 0x1EFE JUMP JUMPDEST JUMPDEST PUSH1 0x20 MUL ADD DUP2 DUP2 MSTORE POP POP DUP4 PUSH1 0x20 ADD MLOAD DUP2 PUSH1 0x1 PUSH1 0x4 DUP2 LT PUSH2 0x1282 JUMPI PUSH2 0x1281 PUSH2 0x1EFE JUMP JUMPDEST JUMPDEST PUSH1 0x20 MUL ADD DUP2 DUP2 MSTORE POP POP DUP3 PUSH1 0x0 ADD MLOAD DUP2 PUSH1 0x2 PUSH1 0x4 DUP2 LT PUSH2 0x12A4 JUMPI PUSH2 0x12A3 PUSH2 0x1EFE JUMP JUMPDEST JUMPDEST PUSH1 0x20 MUL ADD DUP2 DUP2 MSTORE POP POP DUP3 PUSH1 0x20 ADD MLOAD DUP2 PUSH1 0x3 PUSH1 0x4 DUP2 LT PUSH2 0x12C6 JUMPI PUSH2 0x12C5 PUSH2 0x1EFE JUMP JUMPDEST JUMPDEST PUSH1 0x20 MUL ADD DUP2 DUP2 MSTORE POP POP PUSH1 0x0 PUSH1 0x60 DUP4 PUSH1 0xC0 DUP5 PUSH1 0x6 PUSH2 0x7D0 GAS SUB STATICCALL SWAP1 POP DUP1 PUSH1 0x0 DUP2 EQ PUSH2 0x12EF JUMPI PUSH2 0x12F1 JUMP JUMPDEST INVALID JUMPDEST POP DUP1 PUSH2 0x12FC JUMPI PUSH1 0x0 DUP1 REVERT JUMPDEST POP POP SWAP3 SWAP2 POP POP JUMP JUMPDEST PUSH2 0x130C PUSH2 0x1918 JUMP JUMPDEST PUSH1 0x0 PUSH32 0x30644E72E131A029B85045B68181585D97816A916871CA8D3C208C16D87CFD47 SWAP1 POP PUSH1 0x0 DUP4 PUSH1 0x0 ADD MLOAD EQ DUP1 ISZERO PUSH2 0x1349 JUMPI POP PUSH1 0x0 DUP4 PUSH1 0x20 ADD MLOAD EQ JUMPDEST ISZERO PUSH2 0x136D JUMPI PUSH1 0x40 MLOAD DUP1 PUSH1 0x40 ADD PUSH1 0x40 MSTORE DUP1 PUSH1 0x0 DUP2 MSTORE PUSH1 0x20 ADD PUSH1 0x0 DUP2 MSTORE POP SWAP2 POP POP PUSH2 0x13A4 JUMP JUMPDEST PUSH1 0x40 MLOAD DUP1 PUSH1 0x40 ADD PUSH1 0x40 MSTORE DUP1 DUP5 PUSH1 0x0 ADD MLOAD DUP2 MSTORE PUSH1 0x20 ADD DUP3 DUP6 PUSH1 0x20 ADD MLOAD PUSH2 0x1392 SWAP2 SWAP1 PUSH2 0x1E6F JUMP JUMPDEST DUP4 PUSH2 0x139D SWAP2 SWAP1 PUSH2 0x1DAB JUMP JUMPDEST DUP2 MSTORE POP SWAP2 POP POP JUMPDEST SWAP2 SWAP1 POP JUMP JUMPDEST PUSH1 0x0 DUP1 PUSH1 0x4 PUSH8 0xFFFFFFFFFFFFFFFF DUP2 GT ISZERO PUSH2 0x13C7 JUMPI PUSH2 0x13C6 PUSH2 0x1F2D JUMP JUMPDEST JUMPDEST PUSH1 0x40 MLOAD SWAP1 DUP1 DUP3 MSTORE DUP1 PUSH1 0x20 MUL PUSH1 0x20 ADD DUP3 ADD PUSH1 0x40 MSTORE DUP1 ISZERO PUSH2 0x1400 JUMPI DUP2 PUSH1 0x20 ADD JUMPDEST PUSH2 0x13ED PUSH2 0x1918 JUMP JUMPDEST DUP2 MSTORE PUSH1 0x20 ADD SWAP1 PUSH1 0x1 SWAP1 SUB SWAP1 DUP2 PUSH2 0x13E5 JUMPI SWAP1 POP JUMPDEST POP SWAP1 POP PUSH1 0x0 PUSH1 0x4 PUSH8 0xFFFFFFFFFFFFFFFF DUP2 GT ISZERO PUSH2 0x1420 JUMPI PUSH2 0x141F PUSH2 0x1F2D JUMP JUMPDEST JUMPDEST PUSH1 0x40 MLOAD SWAP1 DUP1 DUP3 MSTORE DUP1 PUSH1 0x20 MUL PUSH1 0x20 ADD DUP3 ADD PUSH1 0x40 MSTORE DUP1 ISZERO PUSH2 0x1459 JUMPI DUP2 PUSH1 0x20 ADD JUMPDEST PUSH2 0x1446 PUSH2 0x1976 JUMP JUMPDEST DUP2 MSTORE PUSH1 0x20 ADD SWAP1 PUSH1 0x1 SWAP1 SUB SWAP1 DUP2 PUSH2 0x143E JUMPI SWAP1 POP JUMPDEST POP SWAP1 POP DUP11 DUP3 PUSH1 0x0 DUP2 MLOAD DUP2 LT PUSH2 0x1471 JUMPI PUSH2 0x1470 PUSH2 0x1EFE JUMP JUMPDEST JUMPDEST PUSH1 0x20 MUL PUSH1 0x20 ADD ADD DUP2 SWAP1 MSTORE POP DUP9 DUP3 PUSH1 0x1 DUP2 MLOAD DUP2 LT PUSH2 0x1491 JUMPI PUSH2 0x1490 PUSH2 0x1EFE JUMP JUMPDEST JUMPDEST PUSH1 0x20 MUL PUSH1 0x20 ADD ADD DUP2 SWAP1 MSTORE POP DUP7 DUP3 PUSH1 0x2 DUP2 MLOAD DUP2 LT PUSH2 0x14B1 JUMPI PUSH2 0x14B0 PUSH2 0x1EFE JUMP JUMPDEST JUMPDEST PUSH1 0x20 MUL PUSH1 0x20 ADD ADD DUP2 SWAP1 MSTORE POP DUP5 DUP3 PUSH1 0x3 DUP2 MLOAD DUP2 LT PUSH2 0x14D1 JUMPI PUSH2 0x14D0 PUSH2 0x1EFE JUMP JUMPDEST JUMPDEST PUSH1 0x20 MUL PUSH1 0x20 ADD ADD DUP2 SWAP1 MSTORE POP DUP10 DUP2 PUSH1 0x0 DUP2 MLOAD DUP2 LT PUSH2 0x14F1 JUMPI PUSH2 0x14F0 PUSH2 0x1EFE JUMP JUMPDEST JUMPDEST PUSH1 0x20 MUL PUSH1 0x20 ADD ADD DUP2 SWAP1 MSTORE POP DUP8 DUP2 PUSH1 0x1 DUP2 MLOAD DUP2 LT PUSH2 0x1511 JUMPI PUSH2 0x1510 PUSH2 0x1EFE JUMP JUMPDEST JUMPDEST PUSH1 0x20 MUL PUSH1 0x20 ADD ADD DUP2 SWAP1 MSTORE POP DUP6 DUP2 PUSH1 0x2 DUP2 MLOAD DUP2 LT PUSH2 0x1531 JUMPI PUSH2 0x1530 PUSH2 0x1EFE JUMP JUMPDEST JUMPDEST PUSH1 0x20 MUL PUSH1 0x20 ADD ADD DUP2 SWAP1 MSTORE POP DUP4 DUP2 PUSH1 0x3 DUP2 MLOAD DUP2 LT PUSH2 0x1551 JUMPI PUSH2 0x1550 PUSH2 0x1EFE JUMP JUMPDEST JUMPDEST PUSH1 0x20 MUL PUSH1 0x20 ADD ADD DUP2 SWAP1 MSTORE POP PUSH2 0x1566 DUP3 DUP3 PUSH2 0x1576 JUMP JUMPDEST SWAP3 POP POP POP SWAP9 SWAP8 POP POP POP POP POP POP POP POP JUMP JUMPDEST PUSH1 0x0 DUP2 MLOAD DUP4 MLOAD EQ PUSH2 0x1586 JUMPI PUSH1 0x0 DUP1 REVERT JUMPDEST PUSH1 0x0 DUP4 MLOAD SWAP1 POP PUSH1 0x0 PUSH1 0x6 DUP3 PUSH2 0x159B SWAP2 SWAP1 PUSH2 0x1D51 JUMP JUMPDEST SWAP1 POP PUSH1 0x0 DUP2 PUSH8 0xFFFFFFFFFFFFFFFF DUP2 GT ISZERO PUSH2 0x15B9 JUMPI PUSH2 0x15B8 PUSH2 0x1F2D JUMP JUMPDEST JUMPDEST PUSH1 0x40 MLOAD SWAP1 DUP1 DUP3 MSTORE DUP1 PUSH1 0x20 MUL PUSH1 0x20 ADD DUP3 ADD PUSH1 0x40 MSTORE DUP1 ISZERO PUSH2 0x15E7 JUMPI DUP2 PUSH1 0x20 ADD PUSH1 0x20 DUP3 MUL DUP1 CALLDATASIZE DUP4 CALLDATACOPY DUP1 DUP3 ADD SWAP2 POP POP SWAP1 POP JUMPDEST POP SWAP1 POP PUSH1 0x0 JUMPDEST DUP4 DUP2 LT ISZERO PUSH2 0x186C JUMPI DUP7 DUP2 DUP2 MLOAD DUP2 LT PUSH2 0x1608 JUMPI PUSH2 0x1607 PUSH2 0x1EFE JUMP JUMPDEST JUMPDEST PUSH1 0x20 MUL PUSH1 0x20 ADD ADD MLOAD PUSH1 0x0 ADD MLOAD DUP3 PUSH1 0x0 PUSH1 0x6 DUP5 PUSH2 0x1624 SWAP2 SWAP1 PUSH2 0x1D51 JUMP JUMPDEST PUSH2 0x162E SWAP2 SWAP1 PUSH2 0x1CFB JUMP JUMPDEST DUP2 MLOAD DUP2 LT PUSH2 0x163F JUMPI PUSH2 0x163E PUSH2 0x1EFE JUMP JUMPDEST JUMPDEST PUSH1 0x20 MUL PUSH1 0x20 ADD ADD DUP2 DUP2 MSTORE POP POP DUP7 DUP2 DUP2 MLOAD DUP2 LT PUSH2 0x165E JUMPI PUSH2 0x165D PUSH2 0x1EFE JUMP JUMPDEST JUMPDEST PUSH1 0x20 MUL PUSH1 0x20 ADD ADD MLOAD PUSH1 0x20 ADD MLOAD DUP3 PUSH1 0x1 PUSH1 0x6 DUP5 PUSH2 0x167A SWAP2 SWAP1 PUSH2 0x1D51 JUMP JUMPDEST PUSH2 0x1684 SWAP2 SWAP1 PUSH2 0x1CFB JUMP JUMPDEST DUP2 MLOAD DUP2 LT PUSH2 0x1695 JUMPI PUSH2 0x1694 PUSH2 0x1EFE JUMP JUMPDEST JUMPDEST PUSH1 0x20 MUL PUSH1 0x20 ADD ADD DUP2 DUP2 MSTORE POP POP DUP6 DUP2 DUP2 MLOAD DUP2 LT PUSH2 0x16B4 JUMPI PUSH2 0x16B3 PUSH2 0x1EFE JUMP JUMPDEST JUMPDEST PUSH1 0x20 MUL PUSH1 0x20 ADD ADD MLOAD PUSH1 0x0 ADD MLOAD PUSH1 0x1 PUSH1 0x2 DUP2 LT PUSH2 0x16D3 JUMPI PUSH2 0x16D2 PUSH2 0x1EFE JUMP JUMPDEST JUMPDEST PUSH1 0x20 MUL ADD MLOAD DUP3 PUSH1 0x2 PUSH1 0x6 DUP5 PUSH2 0x16E8 SWAP2 SWAP1 PUSH2 0x1D51 JUMP JUMPDEST PUSH2 0x16F2 SWAP2 SWAP1 PUSH2 0x1CFB JUMP JUMPDEST DUP2 MLOAD DUP2 LT PUSH2 0x1703 JUMPI PUSH2 0x1702 PUSH2 0x1EFE JUMP JUMPDEST JUMPDEST PUSH1 0x20 MUL PUSH1 0x20 ADD ADD DUP2 DUP2 MSTORE POP POP DUP6 DUP2 DUP2 MLOAD DUP2 LT PUSH2 0x1722 JUMPI PUSH2 0x1721 PUSH2 0x1EFE JUMP JUMPDEST JUMPDEST PUSH1 0x20 MUL PUSH1 0x20 ADD ADD MLOAD PUSH1 0x0 ADD MLOAD PUSH1 0x0 PUSH1 0x2 DUP2 LT PUSH2 0x1741 JUMPI PUSH2 0x1740 PUSH2 0x1EFE JUMP JUMPDEST JUMPDEST PUSH1 0x20 MUL ADD MLOAD DUP3 PUSH1 0x3 PUSH1 0x6 DUP5 PUSH2 0x1756 SWAP2 SWAP1 PUSH2 0x1D51 JUMP JUMPDEST PUSH2 0x1760 SWAP2 SWAP1 PUSH2 0x1CFB JUMP JUMPDEST DUP2 MLOAD DUP2 LT PUSH2 0x1771 JUMPI PUSH2 0x1770 PUSH2 0x1EFE JUMP JUMPDEST JUMPDEST PUSH1 0x20 MUL PUSH1 0x20 ADD ADD DUP2 DUP2 MSTORE POP POP DUP6 DUP2 DUP2 MLOAD DUP2 LT PUSH2 0x1790 JUMPI PUSH2 0x178F PUSH2 0x1EFE JUMP JUMPDEST JUMPDEST PUSH1 0x20 MUL PUSH1 0x20 ADD ADD MLOAD PUSH1 0x20 ADD MLOAD PUSH1 0x1 PUSH1 0x2 DUP2 LT PUSH2 0x17AF JUMPI PUSH2 0x17AE PUSH2 0x1EFE JUMP JUMPDEST JUMPDEST PUSH1 0x20 MUL ADD MLOAD DUP3 PUSH1 0x4 PUSH1 0x6 DUP5 PUSH2 0x17C4 SWAP2 SWAP1 PUSH2 0x1D51 JUMP JUMPDEST PUSH2 0x17CE SWAP2 SWAP1 PUSH2 0x1CFB JUMP JUMPDEST DUP2 MLOAD DUP2 LT PUSH2 0x17DF JUMPI PUSH2 0x17DE PUSH2 0x1EFE JUMP JUMPDEST JUMPDEST PUSH1 0x20 MUL PUSH1 0x20 ADD ADD DUP2 DUP2 MSTORE POP POP DUP6 DUP2 DUP2 MLOAD DUP2 LT PUSH2 0x17FE JUMPI PUSH2 0x17FD PUSH2 0x1EFE JUMP JUMPDEST JUMPDEST PUSH1 0x20 MUL PUSH1 0x20 ADD ADD MLOAD PUSH1 0x20 ADD MLOAD PUSH1 0x0 PUSH1 0x2 DUP2 LT PUSH2 0x181D JUMPI PUSH2 0x181C PUSH2 0x1EFE JUMP JUMPDEST JUMPDEST PUSH1 0x20 MUL ADD MLOAD DUP3 PUSH1 0x5 PUSH1 0x6 DUP5 PUSH2 0x1832 SWAP2 SWAP1 PUSH2 0x1D51 JUMP JUMPDEST PUSH2 0x183C SWAP2 SWAP1 PUSH2 0x1CFB JUMP JUMPDEST DUP2 MLOAD DUP2 LT PUSH2 0x184D JUMPI PUSH2 0x184C PUSH2 0x1EFE JUMP JUMPDEST JUMPDEST PUSH1 0x20 MUL PUSH1 0x20 ADD ADD DUP2 DUP2 MSTORE POP POP DUP1 DUP1 PUSH2 0x1864 SWAP1 PUSH2 0x1E26 JUMP JUMPDEST SWAP2 POP POP PUSH2 0x15ED JUMP JUMPDEST POP PUSH2 0x1875 PUSH2 0x199C JUMP JUMPDEST PUSH1 0x0 PUSH1 0x20 DUP3 PUSH1 0x20 DUP7 MUL PUSH1 0x20 DUP7 ADD PUSH1 0x8 PUSH2 0x7D0 GAS SUB STATICCALL SWAP1 POP DUP1 PUSH1 0x0 DUP2 EQ PUSH2 0x189A JUMPI PUSH2 0x189C JUMP JUMPDEST INVALID JUMPDEST POP DUP1 PUSH2 0x18A7 JUMPI PUSH1 0x0 DUP1 REVERT JUMPDEST PUSH1 0x0 DUP3 PUSH1 0x0 PUSH1 0x1 DUP2 LT PUSH2 0x18BD JUMPI PUSH2 0x18BC PUSH2 0x1EFE JUMP JUMPDEST JUMPDEST PUSH1 0x20 MUL ADD MLOAD EQ ISZERO SWAP6 POP POP POP POP POP POP SWAP3 SWAP2 POP POP JUMP JUMPDEST PUSH1 0x40 MLOAD DUP1 PUSH1 0xA0 ADD PUSH1 0x40 MSTORE DUP1 PUSH2 0x18E4 PUSH2 0x1918 JUMP JUMPDEST DUP2 MSTORE PUSH1 0x20 ADD PUSH2 0x18F1 PUSH2 0x1976 JUMP JUMPDEST DUP2 MSTORE PUSH1 0x20 ADD PUSH2 0x18FE PUSH2 0x1976 JUMP JUMPDEST DUP2 MSTORE PUSH1 0x20 ADD PUSH2 0x190B PUSH2 0x1976 JUMP JUMPDEST DUP2 MSTORE PUSH1 0x20 ADD PUSH1 0x60 DUP2 MSTORE POP SWAP1 JUMP JUMPDEST PUSH1 0x40 MLOAD DUP1 PUSH1 0x40 ADD PUSH1 0x40 MSTORE DUP1 PUSH1 0x0 DUP2 MSTORE PUSH1 0x20 ADD PUSH1 0x0 DUP2 MSTORE POP SWAP1 JUMP JUMPDEST PUSH1 0x40 MLOAD DUP1 PUSH1 0x60 ADD PUSH1 0x40 MSTORE DUP1 PUSH1 0x3 SWAP1 PUSH1 0x20 DUP3 MUL DUP1 CALLDATASIZE DUP4 CALLDATACOPY DUP1 DUP3 ADD SWAP2 POP POP SWAP1 POP POP SWAP1 JUMP JUMPDEST PUSH1 0x40 MLOAD DUP1 PUSH1 0x80 ADD PUSH1 0x40 MSTORE DUP1 PUSH1 0x4 SWAP1 PUSH1 0x20 DUP3 MUL DUP1 CALLDATASIZE DUP4 CALLDATACOPY DUP1 DUP3 ADD SWAP2 POP POP SWAP1 POP POP SWAP1 JUMP JUMPDEST PUSH1 0x40 MLOAD DUP1 PUSH1 0x40 ADD PUSH1 0x40 MSTORE DUP1 PUSH2 0x1989 PUSH2 0x19BE JUMP JUMPDEST DUP2 MSTORE PUSH1 0x20 ADD PUSH2 0x1996 PUSH2 0x19BE JUMP JUMPDEST DUP2 MSTORE POP SWAP1 JUMP JUMPDEST PUSH1 0x40 MLOAD DUP1 PUSH1 0x20 ADD PUSH1 0x40 MSTORE DUP1 PUSH1 0x1 SWAP1 PUSH1 0x20 DUP3 MUL DUP1 CALLDATASIZE DUP4 CALLDATACOPY DUP1 DUP3 ADD SWAP2 POP POP SWAP1 POP POP SWAP1 JUMP JUMPDEST PUSH1 0x40 MLOAD DUP1 PUSH1 0x40 ADD PUSH1 0x40 MSTORE DUP1 PUSH1 0x2 SWAP1 PUSH1 0x20 DUP3 MUL DUP1 CALLDATASIZE DUP4 CALLDATACOPY DUP1 DUP3 ADD SWAP2 POP POP SWAP1 POP POP SWAP1 JUMP JUMPDEST PUSH1 0x0 PUSH2 0x19F3 PUSH2 0x19EE DUP5 PUSH2 0x1CAF JUMP JUMPDEST PUSH2 0x1C8A JUMP JUMPDEST SWAP1 POP DUP1 DUP3 DUP6 PUSH1 0x20 DUP7 MUL DUP3 ADD GT ISZERO PUSH2 0x1A0D JUMPI PUSH2 0x1A0C PUSH2 0x1F66 JUMP JUMPDEST JUMPDEST PUSH1 0x0 JUMPDEST DUP6 DUP2 LT ISZERO PUSH2 0x1A3D JUMPI DUP2 PUSH2 0x1A23 DUP9 DUP3 PUSH2 0x1C09 JUMP JUMPDEST DUP5 MSTORE PUSH1 0x20 DUP5 ADD SWAP4 POP PUSH1 0x20 DUP4 ADD SWAP3 POP POP PUSH1 0x1 DUP2 ADD SWAP1 POP PUSH2 0x1A10 JUMP JUMPDEST POP POP POP SWAP4 SWAP3 POP POP POP JUMP JUMPDEST PUSH1 0x0 PUSH2 0x1A5A PUSH2 0x1A55 DUP5 PUSH2 0x1CD5 JUMP JUMPDEST PUSH2 0x1C8A JUMP JUMPDEST SWAP1 POP DUP1 DUP3 DUP6 PUSH1 0x20 DUP7 MUL DUP3 ADD GT ISZERO PUSH2 0x1A74 JUMPI PUSH2 0x1A73 PUSH2 0x1F66 JUMP JUMPDEST JUMPDEST PUSH1 0x0 JUMPDEST DUP6 DUP2 LT ISZERO PUSH2 0x1AA4 JUMPI DUP2 PUSH2 0x1A8A DUP9 DUP3 PUSH2 0x1C09 JUMP JUMPDEST DUP5 MSTORE PUSH1 0x20 DUP5 ADD SWAP4 POP PUSH1 0x20 DUP4 ADD SWAP3 POP POP PUSH1 0x1 DUP2 ADD SWAP1 POP PUSH2 0x1A77 JUMP JUMPDEST POP POP POP SWAP4 SWAP3 POP POP POP JUMP JUMPDEST PUSH1 0x0 DUP3 PUSH1 0x1F DUP4 ADD SLT PUSH2 0x1AC3 JUMPI PUSH2 0x1AC2 PUSH2 0x1F5C JUMP JUMPDEST JUMPDEST PUSH1 0x18 PUSH2 0x1AD0 DUP5 DUP3 DUP6 PUSH2 0x19E0 JUMP JUMPDEST SWAP2 POP POP SWAP3 SWAP2 POP POP JUMP JUMPDEST PUSH1 0x0 DUP3 PUSH1 0x1F DUP4 ADD SLT PUSH2 0x1AEE JUMPI PUSH2 0x1AED PUSH2 0x1F5C JUMP JUMPDEST JUMPDEST PUSH1 0x2 PUSH2 0x1AFB DUP5 DUP3 DUP6 PUSH2 0x1A47 JUMP JUMPDEST SWAP2 POP POP SWAP3 SWAP2 POP POP JUMP JUMPDEST PUSH1 0x0 PUSH1 0x40 DUP3 DUP5 SUB SLT ISZERO PUSH2 0x1B1A JUMPI PUSH2 0x1B19 PUSH2 0x1F61 JUMP JUMPDEST JUMPDEST PUSH2 0x1B24 PUSH1 0x40 PUSH2 0x1C8A JUMP JUMPDEST SWAP1 POP PUSH1 0x0 PUSH2 0x1B34 DUP5 DUP3 DUP6 ADD PUSH2 0x1C09 JUMP JUMPDEST PUSH1 0x0 DUP4 ADD MSTORE POP PUSH1 0x20 PUSH2 0x1B48 DUP5 DUP3 DUP6 ADD PUSH2 0x1C09 JUMP JUMPDEST PUSH1 0x20 DUP4 ADD MSTORE POP SWAP3 SWAP2 POP POP JUMP JUMPDEST PUSH1 0x0 PUSH1 0x80 DUP3 DUP5 SUB SLT ISZERO PUSH2 0x1B6A JUMPI PUSH2 0x1B69 PUSH2 0x1F61 JUMP JUMPDEST JUMPDEST PUSH2 0x1B74 PUSH1 0x40 PUSH2 0x1C8A JUMP JUMPDEST SWAP1 POP PUSH1 0x0 PUSH2 0x1B84 DUP5 DUP3 DUP6 ADD PUSH2 0x1AD9 JUMP JUMPDEST PUSH1 0x0 DUP4 ADD MSTORE POP PUSH1 0x40 PUSH2 0x1B98 DUP5 DUP3 DUP6 ADD PUSH2 0x1AD9 JUMP JUMPDEST PUSH1 0x20 DUP4 ADD MSTORE POP SWAP3 SWAP2 POP POP JUMP JUMPDEST PUSH1 0x0 PUSH2 0x100 DUP3 DUP5 SUB SLT ISZERO PUSH2 0x1BBB JUMPI PUSH2 0x1BBA PUSH2 0x1F61 JUMP JUMPDEST JUMPDEST PUSH2 0x1BC5 PUSH1 0x60 PUSH2 0x1C8A JUMP JUMPDEST SWAP1 POP PUSH1 0x0 PUSH2 0x1BD5 DUP5 DUP3 DUP6 ADD PUSH2 0x1B04 JUMP JUMPDEST PUSH1 0x0 DUP4 ADD MSTORE POP PUSH1 0x40 PUSH2 0x1BE9 DUP5 DUP3 DUP6 ADD PUSH2 0x1B54 JUMP JUMPDEST PUSH1 0x20 DUP4 ADD MSTORE POP PUSH1 0xC0 PUSH2 0x1BFD DUP5 DUP3 DUP6 ADD PUSH2 0x1B04 JUMP JUMPDEST PUSH1 0x40 DUP4 ADD MSTORE POP SWAP3 SWAP2 POP POP JUMP JUMPDEST PUSH1 0x0 DUP2 CALLDATALOAD SWAP1 POP PUSH2 0x1C18 DUP2 PUSH2 0x1F81 JUMP JUMPDEST SWAP3 SWAP2 POP POP JUMP JUMPDEST PUSH1 0x0 DUP1 PUSH2 0x400 DUP4 DUP6 SUB SLT ISZERO PUSH2 0x1C36 JUMPI PUSH2 0x1C35 PUSH2 0x1F6B JUMP JUMPDEST JUMPDEST PUSH1 0x0 PUSH2 0x1C44 DUP6 DUP3 DUP7 ADD PUSH2 0x1BA4 JUMP JUMPDEST SWAP3 POP POP PUSH2 0x100 PUSH2 0x1C56 DUP6 DUP3 DUP7 ADD PUSH2 0x1AAE JUMP JUMPDEST SWAP2 POP POP SWAP3 POP SWAP3 SWAP1 POP JUMP JUMPDEST PUSH2 0x1C69 DUP2 PUSH2 0x1DDF JUMP JUMPDEST DUP3 MSTORE POP POP JUMP JUMPDEST PUSH1 0x0 PUSH1 0x20 DUP3 ADD SWAP1 POP PUSH2 0x1C84 PUSH1 0x0 DUP4 ADD DUP5 PUSH2 0x1C60 JUMP JUMPDEST SWAP3 SWAP2 POP POP JUMP JUMPDEST PUSH1 0x0 PUSH2 0x1C94 PUSH2 0x1CA5 JUMP JUMPDEST SWAP1 POP PUSH2 0x1CA0 DUP3 DUP3 PUSH2 0x1DF5 JUMP JUMPDEST SWAP2 SWAP1 POP JUMP JUMPDEST PUSH1 0x0 PUSH1 0x40 MLOAD SWAP1 POP SWAP1 JUMP JUMPDEST PUSH1 0x0 PUSH8 0xFFFFFFFFFFFFFFFF DUP3 GT ISZERO PUSH2 0x1CCA JUMPI PUSH2 0x1CC9 PUSH2 0x1F2D JUMP JUMPDEST JUMPDEST PUSH1 0x20 DUP3 MUL SWAP1 POP SWAP2 SWAP1 POP JUMP JUMPDEST PUSH1 0x0 PUSH8 0xFFFFFFFFFFFFFFFF DUP3 GT ISZERO PUSH2 0x1CF0 JUMPI PUSH2 0x1CEF PUSH2 0x1F2D JUMP JUMPDEST JUMPDEST PUSH1 0x20 DUP3 MUL SWAP1 POP SWAP2 SWAP1 POP JUMP JUMPDEST PUSH1 0x0 PUSH2 0x1D06 DUP3 PUSH2 0x1DEB JUMP JUMPDEST SWAP2 POP PUSH2 0x1D11 DUP4 PUSH2 0x1DEB JUMP JUMPDEST SWAP3 POP DUP3 PUSH32 0xFFFFFFFFFFFFFFFFFFFFFFFFFFFFFFFFFFFFFFFFFFFFFFFFFFFFFFFFFFFFFFFF SUB DUP3 GT ISZERO PUSH2 0x1D46 JUMPI PUSH2 0x1D45 PUSH2 0x1EA0 JUMP JUMPDEST JUMPDEST DUP3 DUP3 ADD SWAP1 POP SWAP3 SWAP2 POP POP JUMP JUMPDEST PUSH1 0x0 PUSH2 0x1D5C DUP3 PUSH2 0x1DEB JUMP JUMPDEST SWAP2 POP PUSH2 0x1D67 DUP4 PUSH2 0x1DEB JUMP JUMPDEST SWAP3 POP DUP2 PUSH32 0xFFFFFFFFFFFFFFFFFFFFFFFFFFFFFFFFFFFFFFFFFFFFFFFFFFFFFFFFFFFFFFFF DIV DUP4 GT DUP3 ISZERO ISZERO AND ISZERO PUSH2 0x1DA0 JUMPI PUSH2 0x1D9F PUSH2 0x1EA0 JUMP JUMPDEST JUMPDEST DUP3 DUP3 MUL SWAP1 POP SWAP3 SWAP2 POP POP JUMP JUMPDEST PUSH1 0x0 PUSH2 0x1DB6 DUP3 PUSH2 0x1DEB JUMP JUMPDEST SWAP2 POP PUSH2 0x1DC1 DUP4 PUSH2 0x1DEB JUMP JUMPDEST SWAP3 POP DUP3 DUP3 LT ISZERO PUSH2 0x1DD4 JUMPI PUSH2 0x1DD3 PUSH2 0x1EA0 JUMP JUMPDEST JUMPDEST DUP3 DUP3 SUB SWAP1 POP SWAP3 SWAP2 POP POP JUMP JUMPDEST PUSH1 0x0 DUP2 ISZERO ISZERO SWAP1 POP SWAP2 SWAP1 POP JUMP JUMPDEST PUSH1 0x0 DUP2 SWAP1 POP SWAP2 SWAP1 POP JUMP JUMPDEST PUSH2 0x1DFE DUP3 PUSH2 0x1F70 JUMP JUMPDEST DUP2 ADD DUP2 DUP2 LT PUSH8 0xFFFFFFFFFFFFFFFF DUP3 GT OR ISZERO PUSH2 0x1E1D JUMPI PUSH2 0x1E1C PUSH2 0x1F2D JUMP JUMPDEST JUMPDEST DUP1 PUSH1 0x40 MSTORE POP POP POP JUMP JUMPDEST PUSH1 0x0 PUSH2 0x1E31 DUP3 PUSH2 0x1DEB JUMP JUMPDEST SWAP2 POP PUSH32 0xFFFFFFFFFFFFFFFFFFFFFFFFFFFFFFFFFFFFFFFFFFFFFFFFFFFFFFFFFFFFFFFF DUP3 EQ ISZERO PUSH2 0x1E64 JUMPI PUSH2 0x1E63 PUSH2 0x1EA0 JUMP JUMPDEST JUMPDEST PUSH1 0x1 DUP3 ADD SWAP1 POP SWAP2 SWAP1 POP JUMP JUMPDEST PUSH1 0x0 PUSH2 0x1E7A DUP3 PUSH2 0x1DEB JUMP JUMPDEST SWAP2 POP PUSH2 0x1E85 DUP4 PUSH2 0x1DEB JUMP JUMPDEST SWAP3 POP DUP3 PUSH2 0x1E95 JUMPI PUSH2 0x1E94 PUSH2 0x1ECF JUMP JUMPDEST JUMPDEST DUP3 DUP3 MOD SWAP1 POP SWAP3 SWAP2 POP POP JUMP JUMPDEST PUSH32 0x4E487B7100000000000000000000000000000000000000000000000000000000 PUSH1 0x0 MSTORE PUSH1 0x11 PUSH1 0x4 MSTORE PUSH1 0x24 PUSH1 0x0 REVERT JUMPDEST PUSH32 0x4E487B7100000000000000000000000000000000000000000000000000000000 PUSH1 0x0 MSTORE PUSH1 0x12 PUSH1 0x4 MSTORE PUSH1 0x24 PUSH1 0x0 REVERT JUMPDEST PUSH32 0x4E487B7100000000000000000000000000000000000000000000000000000000 PUSH1 0x0 MSTORE PUSH1 0x32 PUSH1 0x4 MSTORE PUSH1 0x24 PUSH1 0x0 REVERT JUMPDEST PUSH32 0x4E487B7100000000000000000000000000000000000000000000000000000000 PUSH1 0x0 MSTORE PUSH1 0x41 PUSH1 0x4 MSTORE PUSH1 0x24 PUSH1 0x0 REVERT JUMPDEST PUSH1 0x0 DUP1 REVERT JUMPDEST PUSH1 0x0 DUP1 REVERT JUMPDEST PUSH1 0x0 DUP1 REVERT JUMPDEST PUSH1 0x0 DUP1 REVERT JUMPDEST PUSH1 0x0 PUSH1 0x1F NOT PUSH1 0x1F DUP4 ADD AND SWAP1 POP SWAP2 SWAP1 POP JUMP JUMPDEST PUSH2 0x1F8A DUP2 PUSH2 0x1DEB JUMP JUMPDEST DUP2 EQ PUSH2 0x1F95 JUMPI PUSH1 0x0 DUP1 REVERT JUMPDEST POP JUMP INVALID LOG2 PUSH5 0x6970667358 0x22 SLT KECCAK256 0x23 DUP5 SWAP10 0xB8 PUSH28 0xC1D1E75CA38CF524172ADF88A12399BFBFE1C019D01B481B41DE9A64 PUSH20 0x6F6C634300080600330000000000000000000000 "},"methodIdentifiers":{"verifyTx(((uint256,uint256),(uint256[2],uint256[2]),(uint256,uint256)),uint256[24])":"88e3f317"}}}}}