{"contracts/verifier.sol":{"MVSC":{"abi":[{"inputs":[{"components":[{"components":[{"internalType":"uint256","name":"X","type":"uint256"},{"internalType":"uint256","name":"Y","type":"uint256"}],"internalType":"struct Pairing.G1Point","name":"a","type":"tuple"},{"components":[{"internalType":"uint256[2]","name":"X","type":"uint256[2]"},{"internalType":"uint256[2]","name":"Y","type":"uint256[2]"}],"internalType":"struct Pairing.G2Point","name":"b","type":"tuple"},{"components":[{"internalType":"uint256","name":"X","type":"uint256"},{"internalType":"uint256","name":"Y","type":"uint256"}],"internalType":"struct Pairing.G1Point","name":"c","type":"tuple"}],"internalType":"struct MVSC.Proof","name":"proof","type":"tuple"},{"internalType":"uint256[56]","name":"input","type":"uint256[56]"}],"name":"verifyTx","outputs":[{"internalType":"bool","name":"r","type":"bool"}],"stateMutability":"view","type":"function"}],"evm":{"bytecode":{"linkReferences":{},"object":"608060405234801561001057600080fd5b50612eca806100206000396000f3fe608060405234801561001057600080fd5b506004361061002b5760003560e01c8063b581abe614610030575b600080fd5b61004a60048036038101906100459190612b1a565b610060565b6040516100579190612b6b565b60405180910390f35b600080603867ffffffffffffffff81111561007e5761007d612e29565b5b6040519080825280602002602001820160405280156100ac5781602001602082028036833780820191505090505b50905060005b6038811015610105578381603881106100ce576100cd612dfa565b5b60200201518282815181106100e6576100e5612dfa565b5b60200260200101818152505080806100fd90612d22565b9150506100b2565b506000610112828661012e565b1415610122576001915050610128565b60009150505b92915050565b6000807f30644e72e131a029b85045b68181585d2833e84879b9709143e1f593f00000019050600061015e6102c5565b9050806080015151600186516101749190612bf7565b1461017e57600080fd5b60006040518060400160405280600081526020016000815250905060005b865181101561023757838782815181106101b9576101b8612dfa565b5b6020026020010151106101cb57600080fd5b6102228261021d85608001516001856101e49190612bf7565b815181106101f5576101f4612dfa565b5b60200260200101518a85815181106102105761020f612dfa565b5b602002602001015161208c565b612133565b9150808061022f90612d22565b91505061019c565b5061026181836080015160008151811061025457610253612dfa565b5b6020026020010151612133565b90506102a78560000151866020015161027984612200565b856040015161028b8a60400151612200565b876060015161029d8960000151612200565b89602001516122a5565b6102b757600193505050506102bf565b600093505050505b92915050565b6102cd6127cd565b60405180604001604052807f113b419965fdcf38b879f8d1074a6c07750dd4717275163f7fc6fec138687bba81526020017f1753126c8ac38a9e150402a363d3fd615bdd4b443454e690ceedfa32ecdd58328152508160000181905250604051806040016040528060405180604001604052807f29b6f531b5368bf48fea514e149363f99629f5b28c311f52222d899b8098fa5681526020017f0f374799d4a7849e83b2ca34ba71e95f9653f62bd1513cfabb500e86b8dac1c1815250815260200160405180604001604052807e0726d5fe93aed68fcf667f4d44df823a2201dad94afad2ee976ff1392305df81526020017f20954669a5df07c294c5c758a39afa7b6779dff77a021b25ce7fc70a89d32ab58152508152508160200181905250604051806040016040528060405180604001604052807f1c42fb963f3b818457bdbf67d33a8272914e7a363500f7021ff5208f4f80345581526020017f213953c4e98416683043e300a794dc30b64b925c291a21ed49f76e14fa2c5e3d815250815260200160405180604001604052807e81877eeb5f3b4591040dcb733a1f7699d353ebe628fe6210ce1add4f0ee54681526020017f20a69e8e94b67d26cd3fa4362807e8fc10f5233f256c79f86f8c24644b1665718152508152508160400181905250604051806040016040528060405180604001604052807f207e8c7f65bfa2b1fb2477a5aa74ae578f034048b746f28bc56b1132a328b3f481526020017f0a61d08dd445b2e9b5421a93f6d8cf00d8e990b1b4c24b63f2e344873e0f6a63815250815260200160405180604001604052807f25943b319c18ed02d2e3d1d1f4e5b09147be2544a77c64f301dea2ac19a6c95b81526020017f2c96f1c46cb5e83297695af6f6259b4fac6784cbc893e872d6b27d5070c0cf9b8152508152508160600181905250603967ffffffffffffffff81111561059257610591612e29565b5b6040519080825280602002602001820160405280156105cb57816020015b6105b8612814565b8152602001906001900390816105b05790505b50816080018190525060405180604001604052807f20345b803c0e7b926bb3e248db729493185580721b09dd7b99647d3523be46e381526020017f162e396068c2352c4c3f6cd59eeaceedfe40dc0babe43acd5d7128c3ddc7bed0815250816080015160008151811061064157610640612dfa565b5b602002602001018190525060405180604001604052807f1b45b4c308c3f67246682a6774aac77d634de4410250a730ca4c8eb72062711d81526020017f03b78393c08ae016f5f8365a91bed74865c40579f64776eef5f1460adb70d9b281525081608001516001815181106106b9576106b8612dfa565b5b602002602001018190525060405180604001604052807f2773d19dad0c5ceda2f9bbf97b1549e1561219ac4fc9e5f55f03e729059b149881526020017f033771ce3635c66010feff95c70b29464951a2698ce412d83d4dc55cb146269e815250816080015160028151811061073157610730612dfa565b5b602002602001018190525060405180604001604052807f1f64d048c435ff39f718469235ec9b9828f126592d819b8388d83c9df5de97da81526020017f0b69bd1bf80709adbe51291a32f798f9b35a66e33947ac530f0e087991bc03d981525081608001516003815181106107a9576107a8612dfa565b5b602002602001018190525060405180604001604052807f1c93dfcff383a9c33f6781fe4e7e6f12d903687099b2bc8281ab3ebf0f96690481526020017f1dc719b4c904fae8581be33f5f453b3f16e62ac062f48225e3c30649789b647a815250816080015160048151811061082157610820612dfa565b5b602002602001018190525060405180604001604052807f279985cf7bff298442137e393c4f7fe4751e2f3ba161c3d8a31928977774bdbf81526020017f15b9e265af3bf854a581f3a44c2bf2e7f0dd3f397a716584511827ceec03ff5e815250816080015160058151811061089957610898612dfa565b5b602002602001018190525060405180604001604052807f220396a2d0bd6e4283d90c41e567b79354bea981b6b30c2c397767724b711fce81526020017f0b5bc8983d6a2207c5efcd08a5c9d919bc31fb0d356d7032203b55c92683c2d9815250816080015160068151811061091157610910612dfa565b5b602002602001018190525060405180604001604052807f053284a6ed7e0a07f9187d0cddcbc064664eba329e9d2d130ac5fcd32ca2776e81526020017f2effe83b3efe0f3e7ebbe98e4cb27ca89ace1f9b54c5ef940c65adf49624e787815250816080015160078151811061098957610988612dfa565b5b602002602001018190525060405180604001604052807f1013858c587ea7ba65f2368cd837404e87f93a10e5753901cfa4cbbaab874d8581526020017f2290da55cd351dd191e62f796a76e3c620000ba47a6433527df40c125e38af298152508160800151600881518110610a0157610a00612dfa565b5b602002602001018190525060405180604001604052807f097ee13e4b1381d9d89ccc33b792df67896dfc139e02ee702304c5693ed863a081526020017f2a436dd87f910fde83016e20e71a53c3027522ed3d5b31f67091aa055df35b288152508160800151600981518110610a7957610a78612dfa565b5b602002602001018190525060405180604001604052807f0acc0787d2d61b79b90d0161e10d7d48494e33a309247345104a105226a5999b81526020017f1d5c7f9eab196e92bfcbe3f585f75284bcd66a6b9f8d0c8fd3e3d3081d94eb2a8152508160800151600a81518110610af157610af0612dfa565b5b602002602001018190525060405180604001604052807f02369480520333426d1fff13d0fc9b2fe8e8e4ad0b9b38d95318ed9aa8e3b80e81526020017f0996e7a7be0a50f7e0aa5d61c4c70f97da399547548913117496a62f63dba42d8152508160800151600b81518110610b6957610b68612dfa565b5b602002602001018190525060405180604001604052807f028ae099810fbce21cdd300ad5656cacf6b742e05116d518ec0d868a9e40291f81526020017f0c91729909d976853e54231da96a4ef55b89363bfebbb2260354ac794ad76fcc8152508160800151600c81518110610be157610be0612dfa565b5b602002602001018190525060405180604001604052807f02433e743cf0dcb7d2aab6aa63519b627c21884d90313fbc54bdb5de6596e37581526020017f23615823097f32ff71470d224eb3848a1b040685cb00beb8c231db33a70cd35d8152508160800151600d81518110610c5957610c58612dfa565b5b602002602001018190525060405180604001604052807f2f47483ce99f866331af9cbc54b0de2991dc555eb6c3ce4e5dea12450c6c464c81526020017f0d4db8338af41262698b4e91cd577c31e27af31a7a59cb831d22c541544132728152508160800151600e81518110610cd157610cd0612dfa565b5b602002602001018190525060405180604001604052807f2b2e57f879aa67f6998f681ae12d1afb9c13c495a9eda6b3965402d61ba1c05881526020017e515588136092a67586391aaca99f0450565f022529f50c19f9dd69765e0c228152508160800151600f81518110610d4857610d47612dfa565b5b602002602001018190525060405180604001604052807f2b501dfd078d8ed021d673a46443b9b9aae06dfaad890bc257f3b8f5f812679581526020017f1c0e071070ce6c7776667a4274d8aeba84a72e9f0414ed027a7516b2c45779be8152508160800151601081518110610dc057610dbf612dfa565b5b602002602001018190525060405180604001604052807f1e5205cc0633ae654bffdb2ea891789a4926e07c90270138080916d43f89c64981526020017f214b26ec85e9af99e9d70b4384dfe740a37ade813dbc8605fb3ac77b56131cd08152508160800151601181518110610e3857610e37612dfa565b5b602002602001018190525060405180604001604052807f197e4bd4b8b3138b747fb00af2002619472fcd15c669ee0c2564211671ea536e81526020017f296cda15813b298c6e49ce383132b2dea145a7f9c0e98e8f41a3054eaba23d608152508160800151601281518110610eb057610eaf612dfa565b5b602002602001018190525060405180604001604052807f2fb2c4a5f2fde555ba6e04ca42399b1882907fa2d96fa2e650f0c7b9f333340781526020017f1765a4bec71b2b017f493407c809d8dfd74b77d8c7d41871ed55705ccaa463a08152508160800151601381518110610f2857610f27612dfa565b5b602002602001018190525060405180604001604052807f1d4ea688779bc2e9532542c67a48372d54b3ecbcd4883db6d0371a4989bae85681526020017f0cbfe939eb2df83bdd79e5cd2b3ce50452eda0f5fb33f9dd8a6d962ae677f4be8152508160800151601481518110610fa057610f9f612dfa565b5b602002602001018190525060405180604001604052807f10591fcbfe21545d3cf5557e2ac5ed998772ac4b47e825d39f3503a51235841c81526020017f2a416219a81d4c8a71bd3d24e5763a3d2feefca1e5068ffba858993525fedc1d815250816080015160158151811061101857611017612dfa565b5b602002602001018190525060405180604001604052807f26e2893c2d9c8baa4a93a4998d38b49082e905f6edf3c871ffdf7b80184926ce81526020017f1f4fb29a01092562cad8a3cff94a643ef9a5adb5f0f306e11d8da38a29dcdc2581525081608001516016815181106110905761108f612dfa565b5b602002602001018190525060405180604001604052807f26279c7a8f6396cebf153f9e929444c126a1a712c51ac0939d524c9ee8cf1f0181526020017e9c0447b25739f4a88a069d1333f9ce3b6def9215fad63f1ff89dc88a51fc03815250816080015160178151811061110757611106612dfa565b5b602002602001018190525060405180604001604052807f07157049cf3b27a1d0669d83ac3e87ec52c5f409d41f3136f82db7a12e184ecd81526020017f14f6b1730e5c55cfc8d068756c91cf6b6fa63fb2c7c89ae67f092602a9095374815250816080015160188151811061117f5761117e612dfa565b5b602002602001018190525060405180604001604052807f2fee092fb5e5b22b9cb4c11f98d23a128d9426cedfb5d832cbeeb06b52ef926a81526020017f0e66fc5f06d09395f35e37fd0754cd21a658c4ff3d7e8eea134a815ec2e1a32381525081608001516019815181106111f7576111f6612dfa565b5b602002602001018190525060405180604001604052807f2e9abe4735ebcaf5c6f1d0acafd38be2a9a543e160637bbdb23771e48064fd9281526020017f223b9c43bb416fd26bf5ee588a2f82e0ddcb75097bc7ad4b8885376a7e53265a8152508160800151601a8151811061126f5761126e612dfa565b5b602002602001018190525060405180604001604052807f1b7aea1fb1c1aba4a55a5223c77f01c86513bbecd4fe30351aecab0b358fb78c81526020017f1008f27c5a1402ac37b8afcf347609d1b724ea79f655f95cca5c49c426fa80948152508160800151601b815181106112e7576112e6612dfa565b5b602002602001018190525060405180604001604052807f207c0a11c8c1a3a1654a26ed1d38d0a8d3783267eb1ba74904ee212cfaa4aacf81526020017f21edf24b087bd764bce2c27995bcc8bc927e903ccbd8dacc10e86d9bd44343038152508160800151601c8151811061135f5761135e612dfa565b5b602002602001018190525060405180604001604052807f09832e2deb5eb4647354ffbc435a0dd538989ac96e2cbbeadff4d8f810a7c51a81526020017f18832981bf97b9a8f85bbb14d00cfd46119b52e53247241b9e35e62fb025efb28152508160800151601d815181106113d7576113d6612dfa565b5b602002602001018190525060405180604001604052807f2878b9dbf5fcc34d7cae84e2e9999266972e98d94e6de7abedd3211abf90e8fc81526020017f0e0f2be7a4cdd154db3d77aaae3494eb672edd8729a9c51826e268d9c69d53198152508160800151601e8151811061144f5761144e612dfa565b5b602002602001018190525060405180604001604052807f0c31b1e570d2d0ba98442df6a601c4e50794b6022667ef722c06b8103621954d81526020017f297015e4b439197d78a685acc66a1e9cb57c3e1f611545f5d9a8ea5a40599dc58152508160800151601f815181106114c7576114c6612dfa565b5b602002602001018190525060405180604001604052807f2164ca81e34bfab378fd55cb6e322850b91250c6ce04b17ed37721e5d5f9e99081526020017f14a261721a51e55a12435fe8e174df3c14a534bb6e548f03b12f3b8211d25760815250816080015160208151811061153f5761153e612dfa565b5b602002602001018190525060405180604001604052807f15795ade1a2a2f3bab773eae9a3603b8b85e48d93e6cd30fd355542241fa95ca81526020017f0284f3ed6febfbbb593d10b9e15ace96a2d68d9fb3ec5c7eff9c6c9a2068525b81525081608001516021815181106115b7576115b6612dfa565b5b602002602001018190525060405180604001604052807f2091e06c95251d5b712fc991744a888a1c0b6a12104779125fb670af19a58fc481526020017f027503f786b4c0ec41cedc5d86c0529bb8f3d4e18085a4436d15afcaa66653ea815250816080015160228151811061162f5761162e612dfa565b5b602002602001018190525060405180604001604052807f15a804a9b08c4c5faec7fe3b2fb6d58a33e5ec8945cce9b97dfe5f67484cef9381526020017f2f26086b1f2dafbb912edd2fae3f7814ec625d821ae37c21c7552ee104411c4f81525081608001516023815181106116a7576116a6612dfa565b5b602002602001018190525060405180604001604052807f0f15a9962051e91040db43d3a6bec763a6a6172b1f89f98bb7767426fdcef39d81526020017f28bf5d6db18192b6ff2169f9560a3f61326ff877919ef82c1b1c515108d0d882815250816080015160248151811061171f5761171e612dfa565b5b602002602001018190525060405180604001604052807f11c8412c8dda15bfa3207cdb2c71efb0f4cca0b02fdba798be27e649ef86d31581526020017f2d5f8a1c7d4e0d63b35f5e2ecf39afe4f27b21bc4940885de4f63233ff1b6b1d815250816080015160258151811061179757611796612dfa565b5b602002602001018190525060405180604001604052807f180cc1601065291d987c417c4895d9830c8fb3e9afeaa5eaf4362cd9c0647ccd81526020017f28e8047ee4e7d824d8583f5fc29e24007e99779c42f3d92ef3e753f51ad86da8815250816080015160268151811061180f5761180e612dfa565b5b602002602001018190525060405180604001604052807f1802ec16440f9de9da6c44f51e916e8ea647ddfa24d72c11db9dac48929c607c81526020017f235991b0c7e1135b05cbe763c4c238ed9d2dfac39320d58dfbc0377581139dd5815250816080015160278151811061188757611886612dfa565b5b602002602001018190525060405180604001604052807f25e205b54c6746553d645b9984fd4c439fce9b2e2ab26c2b498d6b4368e8079a81526020017f1e03f921fba09e542af7c4775a0d9463ad43ab7d11055712303763654635763c81525081608001516028815181106118ff576118fe612dfa565b5b602002602001018190525060405180604001604052807f2fc9a7a4971585b9e15910dad4fe29ee21a314bc4120f9f38a9e04e152c9b84d81526020017f20b6b471534ea04ee7e8c1156f77ca35de82a5b9d0625f44372fbe87062908b4815250816080015160298151811061197757611976612dfa565b5b602002602001018190525060405180604001604052807f0823f0043e80a0719cebdbd94071b59836757d1de56e2f81340c31667688895881526020017f2ef49e8aeb916c75ef4d9919a0a38ea1d6a8575f5354914c5b0920aa19e4912a8152508160800151602a815181106119ef576119ee612dfa565b5b602002602001018190525060405180604001604052807f13ae71d4522a2e324dc81c07997a58289273928768e932689994622b94e355c981526020017ef56f36fadf178fcc270e5a79b2489cb3a371eec360820eeba1ae1f4bb479768152508160800151602b81518110611a6657611a65612dfa565b5b602002602001018190525060405180604001604052807f1d05a5837da0a771ee3654301ef2b7beeb344be9af57d5c30deda67f5218404781526020017f2a93e0dd00fff56d0b2814a432e56a2918d37a238f901b707fd78fd7134c11828152508160800151602c81518110611ade57611add612dfa565b5b602002602001018190525060405180604001604052807f03b55018c306fd3c4409e502d0367e0546f809a4b8316a7563d26cb41b9cc09d81526020017f0487dc38b20c28721916d84c81b255cd8e7f7504ec8fb92dbfd79cb3cd6d7bf88152508160800151602d81518110611b5657611b55612dfa565b5b602002602001018190525060405180604001604052807f0d342995dbdd33b928a014735376a529aaea65d1dd0a53d4e24615b1deff6dcb81526020017f21bf7326bb71a7511042cbc75d82c73e1fffd4a8d66250bf9bee1cf8240d6d5a8152508160800151602e81518110611bce57611bcd612dfa565b5b602002602001018190525060405180604001604052807f0b3f3024676cede871a5032cfbe29653b66068e3e5ae6c4acd7fb7822e1875e481526020017f2b794e5602721de34742dca745df0a1b0fea6365c6995cc9f7616bf80ef779b38152508160800151602f81518110611c4657611c45612dfa565b5b602002602001018190525060405180604001604052807f0d905c01705e9813e75d97c41646a336fc7e53fad2cacff9c3b89c69aebc7d7f81526020017f0ee0cee2476a5aee8f8338f7c2950fd423e577aa4771e4070c74b9e56168af098152508160800151603081518110611cbe57611cbd612dfa565b5b602002602001018190525060405180604001604052807f0ba8c9556357805c7bd5fbc5cf24a2aa4e3d858c1ee86a08adc665f1b4036b0481526020017f0c9f1cdc6c252cb195eca9745dec371c6f225318dab0433c6b1a284b278c586e8152508160800151603181518110611d3657611d35612dfa565b5b602002602001018190525060405180604001604052807f2fb81ff046c6c2e9118e2fcec86ffbfe9391028d94af7da3a3c3fabace70fab381526020017f148ed40cc7bda961d9324e0a4200c503c7db745f8ff3446289c1f94219c6a1798152508160800151603281518110611dae57611dad612dfa565b5b602002602001018190525060405180604001604052807f2459482ed2a859bdefc5c14a322f4eae35a116b31e9e3af64aa81f334edf6b9c81526020017f03487098f1d68c824f7b0307f33a8bbd4d30636dc439d657468a55b5540c47ce8152508160800151603381518110611e2657611e25612dfa565b5b602002602001018190525060405180604001604052807f03aa6df06ec48a1b6f065a838c4c62e1133b86d94e7769a901b420ae9252e8fd81526020017f2b1cc9ee8fa443f217ae5cae1579ff3597a4ceae8c5e67852ad141dffc9a214f8152508160800151603481518110611e9e57611e9d612dfa565b5b602002602001018190525060405180604001604052807f1c34e36b00db3c49f0d7ede436f570d5c4c013b3d24d2fd618e43a215f7191f881526020017f1f00daac177d93a5c34ca4122ed87c0e8e44fe1eb7c4a0a631ab43ca62e779748152508160800151603581518110611f1657611f15612dfa565b5b602002602001018190525060405180604001604052807f070cbfc7f432707fffb6d111e4c4e7c4d36a7b37f023b189f4a655680447560981526020017f1dc1c24c74e2f21961cb33ce3d97cd28d802b41bd08e41334521ea6678e2982c8152508160800151603681518110611f8e57611f8d612dfa565b5b602002602001018190525060405180604001604052807f0aebdf705513f6cb989bb7b1270d9e2c76669bbe2d1705c0d175aafab3818aad81526020017f13aa62f56d11c537533f874bb88b26907010c9f3a9a69fd5896459a4fb7260be815250816080015160378151811061200657612005612dfa565b5b602002602001018190525060405180604001604052807f1ec2f70315abbc67d9f20f1045e2f15fd1cc1f57b72cb6fc7d153b03fc16fddf81526020017f1062709f3552c279818c96867ec91eb6e0e17783427398530a79efaf56d95bd9815250816080015160388151811061207e5761207d612dfa565b5b602002602001018190525090565b612094612814565b61209c61282e565b8360000151816000600381106120b5576120b4612dfa565b5b6020020181815250508360200151816001600381106120d7576120d6612dfa565b5b60200201818152505082816002600381106120f5576120f4612dfa565b5b602002018181525050600060608360808460076107d05a03fa9050806000811461211e57612120565bfe5b508061212b57600080fd5b505092915050565b61213b612814565b612143612850565b83600001518160006004811061215c5761215b612dfa565b5b60200201818152505083602001518160016004811061217e5761217d612dfa565b5b6020020181815250508260000151816002600481106121a05761219f612dfa565b5b6020020181815250508260200151816003600481106121c2576121c1612dfa565b5b602002018181525050600060608360c08460066107d05a03fa905080600081146121eb576121ed565bfe5b50806121f857600080fd5b505092915050565b612208612814565b60007f30644e72e131a029b85045b68181585d97816a916871ca8d3c208c16d87cfd47905060008360000151148015612245575060008360200151145b156122695760405180604001604052806000815260200160008152509150506122a0565b60405180604001604052808460000151815260200182856020015161228e9190612d6b565b836122999190612ca7565b8152509150505b919050565b600080600467ffffffffffffffff8111156122c3576122c2612e29565b5b6040519080825280602002602001820160405280156122fc57816020015b6122e9612814565b8152602001906001900390816122e15790505b5090506000600467ffffffffffffffff81111561231c5761231b612e29565b5b60405190808252806020026020018201604052801561235557816020015b612342612872565b81526020019060019003908161233a5790505b5090508a8260008151811061236d5761236c612dfa565b5b6020026020010181905250888260018151811061238d5761238c612dfa565b5b602002602001018190525086826002815181106123ad576123ac612dfa565b5b602002602001018190525084826003815181106123cd576123cc612dfa565b5b602002602001018190525089816000815181106123ed576123ec612dfa565b5b6020026020010181905250878160018151811061240d5761240c612dfa565b5b6020026020010181905250858160028151811061242d5761242c612dfa565b5b6020026020010181905250838160038151811061244d5761244c612dfa565b5b60200260200101819052506124628282612472565b9250505098975050505050505050565b6000815183511461248257600080fd5b60008351905060006006826124979190612c4d565b905060008167ffffffffffffffff8111156124b5576124b4612e29565b5b6040519080825280602002602001820160405280156124e35781602001602082028036833780820191505090505b50905060005b838110156127685786818151811061250457612503612dfa565b5b6020026020010151600001518260006006846125209190612c4d565b61252a9190612bf7565b8151811061253b5761253a612dfa565b5b60200260200101818152505086818151811061255a57612559612dfa565b5b6020026020010151602001518260016006846125769190612c4d565b6125809190612bf7565b8151811061259157612590612dfa565b5b6020026020010181815250508581815181106125b0576125af612dfa565b5b6020026020010151600001516001600281106125cf576125ce612dfa565b5b60200201518260026006846125e49190612c4d565b6125ee9190612bf7565b815181106125ff576125fe612dfa565b5b60200260200101818152505085818151811061261e5761261d612dfa565b5b60200260200101516000015160006002811061263d5761263c612dfa565b5b60200201518260036006846126529190612c4d565b61265c9190612bf7565b8151811061266d5761266c612dfa565b5b60200260200101818152505085818151811061268c5761268b612dfa565b5b6020026020010151602001516001600281106126ab576126aa612dfa565b5b60200201518260046006846126c09190612c4d565b6126ca9190612bf7565b815181106126db576126da612dfa565b5b6020026020010181815250508581815181106126fa576126f9612dfa565b5b60200260200101516020015160006002811061271957612718612dfa565b5b602002015182600560068461272e9190612c4d565b6127389190612bf7565b8151811061274957612748612dfa565b5b602002602001018181525050808061276090612d22565b9150506124e9565b50612771612898565b6000602082602086026020860160086107d05a03fa9050806000811461279657612798565bfe5b50806127a357600080fd5b6000826000600181106127b9576127b8612dfa565b5b602002015114159550505050505092915050565b6040518060a001604052806127e0612814565b81526020016127ed612872565b81526020016127fa612872565b8152602001612807612872565b8152602001606081525090565b604051806040016040528060008152602001600081525090565b6040518060600160405280600390602082028036833780820191505090505090565b6040518060800160405280600490602082028036833780820191505090505090565b60405180604001604052806128856128ba565b81526020016128926128ba565b81525090565b6040518060200160405280600190602082028036833780820191505090505090565b6040518060400160405280600290602082028036833780820191505090505090565b60006128ef6128ea84612bab565b612b86565b9050808285602086028201111561290957612908612e62565b5b60005b85811015612939578161291f8882612b05565b84526020840193506020830192505060018101905061290c565b5050509392505050565b600061295661295184612bd1565b612b86565b905080828560208602820111156129705761296f612e62565b5b60005b858110156129a057816129868882612b05565b845260208401935060208301925050600181019050612973565b5050509392505050565b600082601f8301126129bf576129be612e58565b5b60026129cc8482856128dc565b91505092915050565b600082601f8301126129ea576129e9612e58565b5b60386129f7848285612943565b91505092915050565b600060408284031215612a1657612a15612e5d565b5b612a206040612b86565b90506000612a3084828501612b05565b6000830152506020612a4484828501612b05565b60208301525092915050565b600060808284031215612a6657612a65612e5d565b5b612a706040612b86565b90506000612a80848285016129aa565b6000830152506040612a94848285016129aa565b60208301525092915050565b60006101008284031215612ab757612ab6612e5d565b5b612ac16060612b86565b90506000612ad184828501612a00565b6000830152506040612ae584828501612a50565b60208301525060c0612af984828501612a00565b60408301525092915050565b600081359050612b1481612e7d565b92915050565b6000806108008385031215612b3257612b31612e67565b5b6000612b4085828601612aa0565b925050610100612b52858286016129d5565b9150509250929050565b612b6581612cdb565b82525050565b6000602082019050612b806000830184612b5c565b92915050565b6000612b90612ba1565b9050612b9c8282612cf1565b919050565b6000604051905090565b600067ffffffffffffffff821115612bc657612bc5612e29565b5b602082029050919050565b600067ffffffffffffffff821115612bec57612beb612e29565b5b602082029050919050565b6000612c0282612ce7565b9150612c0d83612ce7565b9250827fffffffffffffffffffffffffffffffffffffffffffffffffffffffffffffffff03821115612c4257612c41612d9c565b5b828201905092915050565b6000612c5882612ce7565b9150612c6383612ce7565b9250817fffffffffffffffffffffffffffffffffffffffffffffffffffffffffffffffff0483118215151615612c9c57612c9b612d9c565b5b828202905092915050565b6000612cb282612ce7565b9150612cbd83612ce7565b925082821015612cd057612ccf612d9c565b5b828203905092915050565b60008115159050919050565b6000819050919050565b612cfa82612e6c565b810181811067ffffffffffffffff82111715612d1957612d18612e29565b5b80604052505050565b6000612d2d82612ce7565b91507fffffffffffffffffffffffffffffffffffffffffffffffffffffffffffffffff821415612d6057612d5f612d9c565b5b600182019050919050565b6000612d7682612ce7565b9150612d8183612ce7565b925082612d9157612d90612dcb565b5b828206905092915050565b7f4e487b7100000000000000000000000000000000000000000000000000000000600052601160045260246000fd5b7f4e487b7100000000000000000000000000000000000000000000000000000000600052601260045260246000fd5b7f4e487b7100000000000000000000000000000000000000000000000000000000600052603260045260246000fd5b7f4e487b7100000000000000000000000000000000000000000000000000000000600052604160045260246000fd5b600080fd5b600080fd5b600080fd5b600080fd5b6000601f19601f8301169050919050565b612e8681612ce7565b8114612e9157600080fd5b5056fea2646970667358221220b02c6ee4ce396ae0283bcc563d55f3169ca982481c0d9552e28318f76bf0a9f064736f6c63430008060033","opcodes":"PUSH1 0x80 PUSH1 0x40 MSTORE CALLVALUE DUP1 ISZERO PUSH2 0x10 JUMPI PUSH1 0x0 DUP1 REVERT JUMPDEST POP PUSH2 0x2ECA DUP1 PUSH2 0x20 PUSH1 0x0 CODECOPY PUSH1 0x0 RETURN INVALID PUSH1 0x80 PUSH1 0x40 MSTORE CALLVALUE DUP1 ISZERO PUSH2 0x10 JUMPI PUSH1 0x0 DUP1 REVERT JUMPDEST POP PUSH1 0x4 CALLDATASIZE LT PUSH2 0x2B JUMPI PUSH1 0x0 CALLDATALOAD PUSH1 0xE0 SHR DUP1 PUSH4 0xB581ABE6 EQ PUSH2 0x30 JUMPI JUMPDEST PUSH1 0x0 DUP1 REVERT JUMPDEST PUSH2 0x4A PUSH1 0x4 DUP1 CALLDATASIZE SUB DUP2 ADD SWAP1 PUSH2 0x45 SWAP2 SWAP1 PUSH2 0x2B1A JUMP JUMPDEST PUSH2 0x60 JUMP JUMPDEST PUSH1 0x40 MLOAD PUSH2 0x57 SWAP2 SWAP1 PUSH2 0x2B6B JUMP JUMPDEST PUSH1 0x40 MLOAD DUP1 SWAP2 SUB SWAP1 RETURN JUMPDEST PUSH1 0x0 DUP1 PUSH1 0x38 PUSH8 0xFFFFFFFFFFFFFFFF DUP2 GT ISZERO PUSH2 0x7E JUMPI PUSH2 0x7D PUSH2 0x2E29 JUMP JUMPDEST JUMPDEST PUSH1 0x40 MLOAD SWAP1 DUP1 DUP3 MSTORE DUP1 PUSH1 0x20 MUL PUSH1 0x20 ADD DUP3 ADD PUSH1 0x40 MSTORE DUP1 ISZERO PUSH2 0xAC JUMPI DUP2 PUSH1 0x20 ADD PUSH1 0x20 DUP3 MUL DUP1 CALLDATASIZE DUP4 CALLDATACOPY DUP1 DUP3 ADD SWAP2 POP POP SWAP1 POP JUMPDEST POP SWAP1 POP PUSH1 0x0 JUMPDEST PUSH1 0x38 DUP2 LT ISZERO PUSH2 0x105 JUMPI DUP4 DUP2 PUSH1 0x38 DUP2 LT PUSH2 0xCE JUMPI PUSH2 0xCD PUSH2 0x2DFA JUMP JUMPDEST JUMPDEST PUSH1 0x20 MUL ADD MLOAD DUP3 DUP3 DUP2 MLOAD DUP2 LT PUSH2 0xE6 JUMPI PUSH2 0xE5 PUSH2 0x2DFA JUMP JUMPDEST JUMPDEST PUSH1 0x20 MUL PUSH1 0x20 ADD ADD DUP2 DUP2 MSTORE POP POP DUP1 DUP1 PUSH2 0xFD SWAP1 PUSH2 0x2D22 JUMP JUMPDEST SWAP2 POP POP PUSH2 0xB2 JUMP JUMPDEST POP PUSH1 0x0 PUSH2 0x112 DUP3 DUP7 PUSH2 0x12E JUMP JUMPDEST EQ ISZERO PUSH2 0x122 JUMPI PUSH1 0x1 SWAP2 POP POP PUSH2 0x128 JUMP JUMPDEST PUSH1 0x0 SWAP2 POP POP JUMPDEST SWAP3 SWAP2 POP POP JUMP JUMPDEST PUSH1 0x0 DUP1 PUSH32 0x30644E72E131A029B85045B68181585D2833E84879B9709143E1F593F0000001 SWAP1 POP PUSH1 0x0 PUSH2 0x15E PUSH2 0x2C5 JUMP JUMPDEST SWAP1 POP DUP1 PUSH1 0x80 ADD MLOAD MLOAD PUSH1 0x1 DUP7 MLOAD PUSH2 0x174 SWAP2 SWAP1 PUSH2 0x2BF7 JUMP JUMPDEST EQ PUSH2 0x17E JUMPI PUSH1 0x0 DUP1 REVERT JUMPDEST PUSH1 0x0 PUSH1 0x40 MLOAD DUP1 PUSH1 0x40 ADD PUSH1 0x40 MSTORE DUP1 PUSH1 0x0 DUP2 MSTORE PUSH1 0x20 ADD PUSH1 0x0 DUP2 MSTORE POP SWAP1 POP PUSH1 0x0 JUMPDEST DUP7 MLOAD DUP2 LT ISZERO PUSH2 0x237 JUMPI DUP4 DUP8 DUP3 DUP2 MLOAD DUP2 LT PUSH2 0x1B9 JUMPI PUSH2 0x1B8 PUSH2 0x2DFA JUMP JUMPDEST JUMPDEST PUSH1 0x20 MUL PUSH1 0x20 ADD ADD MLOAD LT PUSH2 0x1CB JUMPI PUSH1 0x0 DUP1 REVERT JUMPDEST PUSH2 0x222 DUP3 PUSH2 0x21D DUP6 PUSH1 0x80 ADD MLOAD PUSH1 0x1 DUP6 PUSH2 0x1E4 SWAP2 SWAP1 PUSH2 0x2BF7 JUMP JUMPDEST DUP2 MLOAD DUP2 LT PUSH2 0x1F5 JUMPI PUSH2 0x1F4 PUSH2 0x2DFA JUMP JUMPDEST JUMPDEST PUSH1 0x20 MUL PUSH1 0x20 ADD ADD MLOAD DUP11 DUP6 DUP2 MLOAD DUP2 LT PUSH2 0x210 JUMPI PUSH2 0x20F PUSH2 0x2DFA JUMP JUMPDEST JUMPDEST PUSH1 0x20 MUL PUSH1 0x20 ADD ADD MLOAD PUSH2 0x208C JUMP JUMPDEST PUSH2 0x2133 JUMP JUMPDEST SWAP2 POP DUP1 DUP1 PUSH2 0x22F SWAP1 PUSH2 0x2D22 JUMP JUMPDEST SWAP2 POP POP PUSH2 0x19C JUMP JUMPDEST POP PUSH2 0x261 DUP2 DUP4 PUSH1 0x80 ADD MLOAD PUSH1 0x0 DUP2 MLOAD DUP2 LT PUSH2 0x254 JUMPI PUSH2 0x253 PUSH2 0x2DFA JUMP JUMPDEST JUMPDEST PUSH1 0x20 MUL PUSH1 0x20 ADD ADD MLOAD PUSH2 0x2133 JUMP JUMPDEST SWAP1 POP PUSH2 0x2A7 DUP6 PUSH1 0x0 ADD MLOAD DUP7 PUSH1 0x20 ADD MLOAD PUSH2 0x279 DUP5 PUSH2 0x2200 JUMP JUMPDEST DUP6 PUSH1 0x40 ADD MLOAD PUSH2 0x28B DUP11 PUSH1 0x40 ADD MLOAD PUSH2 0x2200 JUMP JUMPDEST DUP8 PUSH1 0x60 ADD MLOAD PUSH2 0x29D DUP10 PUSH1 0x0 ADD MLOAD PUSH2 0x2200 JUMP JUMPDEST DUP10 PUSH1 0x20 ADD MLOAD PUSH2 0x22A5 JUMP JUMPDEST PUSH2 0x2B7 JUMPI PUSH1 0x1 SWAP4 POP POP POP POP PUSH2 0x2BF JUMP JUMPDEST PUSH1 0x0 SWAP4 POP POP POP POP JUMPDEST SWAP3 SWAP2 POP POP JUMP JUMPDEST PUSH2 0x2CD PUSH2 0x27CD JUMP JUMPDEST PUSH1 0x40 MLOAD DUP1 PUSH1 0x40 ADD PUSH1 0x40 MSTORE DUP1 PUSH32 0x113B419965FDCF38B879F8D1074A6C07750DD4717275163F7FC6FEC138687BBA DUP2 MSTORE PUSH1 0x20 ADD PUSH32 0x1753126C8AC38A9E150402A363D3FD615BDD4B443454E690CEEDFA32ECDD5832 DUP2 MSTORE POP DUP2 PUSH1 0x0 ADD DUP2 SWAP1 MSTORE POP PUSH1 0x40 MLOAD DUP1 PUSH1 0x40 ADD PUSH1 0x40 MSTORE DUP1 PUSH1 0x40 MLOAD DUP1 PUSH1 0x40 ADD PUSH1 0x40 MSTORE DUP1 PUSH32 0x29B6F531B5368BF48FEA514E149363F99629F5B28C311F52222D899B8098FA56 DUP2 MSTORE PUSH1 0x20 ADD PUSH32 0xF374799D4A7849E83B2CA34BA71E95F9653F62BD1513CFABB500E86B8DAC1C1 DUP2 MSTORE POP DUP2 MSTORE PUSH1 0x20 ADD PUSH1 0x40 MLOAD DUP1 PUSH1 0x40 ADD PUSH1 0x40 MSTORE DUP1 PUSH31 0x726D5FE93AED68FCF667F4D44DF823A2201DAD94AFAD2EE976FF1392305DF DUP2 MSTORE PUSH1 0x20 ADD PUSH32 0x20954669A5DF07C294C5C758A39AFA7B6779DFF77A021B25CE7FC70A89D32AB5 DUP2 MSTORE POP DUP2 MSTORE POP DUP2 PUSH1 0x20 ADD DUP2 SWAP1 MSTORE POP PUSH1 0x40 MLOAD DUP1 PUSH1 0x40 ADD PUSH1 0x40 MSTORE DUP1 PUSH1 0x40 MLOAD DUP1 PUSH1 0x40 ADD PUSH1 0x40 MSTORE DUP1 PUSH32 0x1C42FB963F3B818457BDBF67D33A8272914E7A363500F7021FF5208F4F803455 DUP2 MSTORE PUSH1 0x20 ADD PUSH32 0x213953C4E98416683043E300A794DC30B64B925C291A21ED49F76E14FA2C5E3D DUP2 MSTORE POP DUP2 MSTORE PUSH1 0x20 ADD PUSH1 0x40 MLOAD DUP1 PUSH1 0x40 ADD PUSH1 0x40 MSTORE DUP1 PUSH31 0x81877EEB5F3B4591040DCB733A1F7699D353EBE628FE6210CE1ADD4F0EE546 DUP2 MSTORE PUSH1 0x20 ADD PUSH32 0x20A69E8E94B67D26CD3FA4362807E8FC10F5233F256C79F86F8C24644B166571 DUP2 MSTORE POP DUP2 MSTORE POP DUP2 PUSH1 0x40 ADD DUP2 SWAP1 MSTORE POP PUSH1 0x40 MLOAD DUP1 PUSH1 0x40 ADD PUSH1 0x40 MSTORE DUP1 PUSH1 0x40 MLOAD DUP1 PUSH1 0x40 ADD PUSH1 0x40 MSTORE DUP1 PUSH32 0x207E8C7F65BFA2B1FB2477A5AA74AE578F034048B746F28BC56B1132A328B3F4 DUP2 MSTORE PUSH1 0x20 ADD PUSH32 0xA61D08DD445B2E9B5421A93F6D8CF00D8E990B1B4C24B63F2E344873E0F6A63 DUP2 MSTORE POP DUP2 MSTORE PUSH1 0x20 ADD PUSH1 0x40 MLOAD DUP1 PUSH1 0x40 ADD PUSH1 0x40 MSTORE DUP1 PUSH32 0x25943B319C18ED02D2E3D1D1F4E5B09147BE2544A77C64F301DEA2AC19A6C95B DUP2 MSTORE PUSH1 0x20 ADD PUSH32 0x2C96F1C46CB5E83297695AF6F6259B4FAC6784CBC893E872D6B27D5070C0CF9B DUP2 MSTORE POP DUP2 MSTORE POP DUP2 PUSH1 0x60 ADD DUP2 SWAP1 MSTORE POP PUSH1 0x39 PUSH8 0xFFFFFFFFFFFFFFFF DUP2 GT ISZERO PUSH2 0x592 JUMPI PUSH2 0x591 PUSH2 0x2E29 JUMP JUMPDEST JUMPDEST PUSH1 0x40 MLOAD SWAP1 DUP1 DUP3 MSTORE DUP1 PUSH1 0x20 MUL PUSH1 0x20 ADD DUP3 ADD PUSH1 0x40 MSTORE DUP1 ISZERO PUSH2 0x5CB JUMPI DUP2 PUSH1 0x20 ADD JUMPDEST PUSH2 0x5B8 PUSH2 0x2814 JUMP JUMPDEST DUP2 MSTORE PUSH1 0x20 ADD SWAP1 PUSH1 0x1 SWAP1 SUB SWAP1 DUP2 PUSH2 0x5B0 JUMPI SWAP1 POP JUMPDEST POP DUP2 PUSH1 0x80 ADD DUP2 SWAP1 MSTORE POP PUSH1 0x40 MLOAD DUP1 PUSH1 0x40 ADD PUSH1 0x40 MSTORE DUP1 PUSH32 0x20345B803C0E7B926BB3E248DB729493185580721B09DD7B99647D3523BE46E3 DUP2 MSTORE PUSH1 0x20 ADD PUSH32 0x162E396068C2352C4C3F6CD59EEACEEDFE40DC0BABE43ACD5D7128C3DDC7BED0 DUP2 MSTORE POP DUP2 PUSH1 0x80 ADD MLOAD PUSH1 0x0 DUP2 MLOAD DUP2 LT PUSH2 0x641 JUMPI PUSH2 0x640 PUSH2 0x2DFA JUMP JUMPDEST JUMPDEST PUSH1 0x20 MUL PUSH1 0x20 ADD ADD DUP2 SWAP1 MSTORE POP PUSH1 0x40 MLOAD DUP1 PUSH1 0x40 ADD PUSH1 0x40 MSTORE DUP1 PUSH32 0x1B45B4C308C3F67246682A6774AAC77D634DE4410250A730CA4C8EB72062711D DUP2 MSTORE PUSH1 0x20 ADD PUSH32 0x3B78393C08AE016F5F8365A91BED74865C40579F64776EEF5F1460ADB70D9B2 DUP2 MSTORE POP DUP2 PUSH1 0x80 ADD MLOAD PUSH1 0x1 DUP2 MLOAD DUP2 LT PUSH2 0x6B9 JUMPI PUSH2 0x6B8 PUSH2 0x2DFA JUMP JUMPDEST JUMPDEST PUSH1 0x20 MUL PUSH1 0x20 ADD ADD DUP2 SWAP1 MSTORE POP PUSH1 0x40 MLOAD DUP1 PUSH1 0x40 ADD PUSH1 0x40 MSTORE DUP1 PUSH32 0x2773D19DAD0C5CEDA2F9BBF97B1549E1561219AC4FC9E5F55F03E729059B1498 DUP2 MSTORE PUSH1 0x20 ADD PUSH32 0x33771CE3635C66010FEFF95C70B29464951A2698CE412D83D4DC55CB146269E DUP2 MSTORE POP DUP2 PUSH1 0x80 ADD MLOAD PUSH1 0x2 DUP2 MLOAD DUP2 LT PUSH2 0x731 JUMPI PUSH2 0x730 PUSH2 0x2DFA JUMP JUMPDEST JUMPDEST PUSH1 0x20 MUL PUSH1 0x20 ADD ADD DUP2 SWAP1 MSTORE POP PUSH1 0x40 MLOAD DUP1 PUSH1 0x40 ADD PUSH1 0x40 MSTORE DUP1 PUSH32 0x1F64D048C435FF39F718469235EC9B9828F126592D819B8388D83C9DF5DE97DA DUP2 MSTORE PUSH1 0x20 ADD PUSH32 0xB69BD1BF80709ADBE51291A32F798F9B35A66E33947AC530F0E087991BC03D9 DUP2 MSTORE POP DUP2 PUSH1 0x80 ADD MLOAD PUSH1 0x3 DUP2 MLOAD DUP2 LT PUSH2 0x7A9 JUMPI PUSH2 0x7A8 PUSH2 0x2DFA JUMP JUMPDEST JUMPDEST PUSH1 0x20 MUL PUSH1 0x20 ADD ADD DUP2 SWAP1 MSTORE POP PUSH1 0x40 MLOAD DUP1 PUSH1 0x40 ADD PUSH1 0x40 MSTORE DUP1 PUSH32 0x1C93DFCFF383A9C33F6781FE4E7E6F12D903687099B2BC8281AB3EBF0F966904 DUP2 MSTORE PUSH1 0x20 ADD PUSH32 0x1DC719B4C904FAE8581BE33F5F453B3F16E62AC062F48225E3C30649789B647A DUP2 MSTORE POP DUP2 PUSH1 0x80 ADD MLOAD PUSH1 0x4 DUP2 MLOAD DUP2 LT PUSH2 0x821 JUMPI PUSH2 0x820 PUSH2 0x2DFA JUMP JUMPDEST JUMPDEST PUSH1 0x20 MUL PUSH1 0x20 ADD ADD DUP2 SWAP1 MSTORE POP PUSH1 0x40 MLOAD DUP1 PUSH1 0x40 ADD PUSH1 0x40 MSTORE DUP1 PUSH32 0x279985CF7BFF298442137E393C4F7FE4751E2F3BA161C3D8A31928977774BDBF DUP2 MSTORE PUSH1 0x20 ADD PUSH32 0x15B9E265AF3BF854A581F3A44C2BF2E7F0DD3F397A716584511827CEEC03FF5E DUP2 MSTORE POP DUP2 PUSH1 0x80 ADD MLOAD PUSH1 0x5 DUP2 MLOAD DUP2 LT PUSH2 0x899 JUMPI PUSH2 0x898 PUSH2 0x2DFA JUMP JUMPDEST JUMPDEST PUSH1 0x20 MUL PUSH1 0x20 ADD ADD DUP2 SWAP1 MSTORE POP PUSH1 0x40 MLOAD DUP1 PUSH1 0x40 ADD PUSH1 0x40 MSTORE DUP1 PUSH32 0x220396A2D0BD6E4283D90C41E567B79354BEA981B6B30C2C397767724B711FCE DUP2 MSTORE PUSH1 0x20 ADD PUSH32 0xB5BC8983D6A2207C5EFCD08A5C9D919BC31FB0D356D7032203B55C92683C2D9 DUP2 MSTORE POP DUP2 PUSH1 0x80 ADD MLOAD PUSH1 0x6 DUP2 MLOAD DUP2 LT PUSH2 0x911 JUMPI PUSH2 0x910 PUSH2 0x2DFA JUMP JUMPDEST JUMPDEST PUSH1 0x20 MUL PUSH1 0x20 ADD ADD DUP2 SWAP1 MSTORE POP PUSH1 0x40 MLOAD DUP1 PUSH1 0x40 ADD PUSH1 0x40 MSTORE DUP1 PUSH32 0x53284A6ED7E0A07F9187D0CDDCBC064664EBA329E9D2D130AC5FCD32CA2776E DUP2 MSTORE PUSH1 0x20 ADD PUSH32 0x2EFFE83B3EFE0F3E7EBBE98E4CB27CA89ACE1F9B54C5EF940C65ADF49624E787 DUP2 MSTORE POP DUP2 PUSH1 0x80 ADD MLOAD PUSH1 0x7 DUP2 MLOAD DUP2 LT PUSH2 0x989 JUMPI PUSH2 0x988 PUSH2 0x2DFA JUMP JUMPDEST JUMPDEST PUSH1 0x20 MUL PUSH1 0x20 ADD ADD DUP2 SWAP1 MSTORE POP PUSH1 0x40 MLOAD DUP1 PUSH1 0x40 ADD PUSH1 0x40 MSTORE DUP1 PUSH32 0x1013858C587EA7BA65F2368CD837404E87F93A10E5753901CFA4CBBAAB874D85 DUP2 MSTORE PUSH1 0x20 ADD PUSH32 0x2290DA55CD351DD191E62F796A76E3C620000BA47A6433527DF40C125E38AF29 DUP2 MSTORE POP DUP2 PUSH1 0x80 ADD MLOAD PUSH1 0x8 DUP2 MLOAD DUP2 LT PUSH2 0xA01 JUMPI PUSH2 0xA00 PUSH2 0x2DFA JUMP JUMPDEST JUMPDEST PUSH1 0x20 MUL PUSH1 0x20 ADD ADD DUP2 SWAP1 MSTORE POP PUSH1 0x40 MLOAD DUP1 PUSH1 0x40 ADD PUSH1 0x40 MSTORE DUP1 PUSH32 0x97EE13E4B1381D9D89CCC33B792DF67896DFC139E02EE702304C5693ED863A0 DUP2 MSTORE PUSH1 0x20 ADD PUSH32 0x2A436DD87F910FDE83016E20E71A53C3027522ED3D5B31F67091AA055DF35B28 DUP2 MSTORE POP DUP2 PUSH1 0x80 ADD MLOAD PUSH1 0x9 DUP2 MLOAD DUP2 LT PUSH2 0xA79 JUMPI PUSH2 0xA78 PUSH2 0x2DFA JUMP JUMPDEST JUMPDEST PUSH1 0x20 MUL PUSH1 0x20 ADD ADD DUP2 SWAP1 MSTORE POP PUSH1 0x40 MLOAD DUP1 PUSH1 0x40 ADD PUSH1 0x40 MSTORE DUP1 PUSH32 0xACC0787D2D61B79B90D0161E10D7D48494E33A309247345104A105226A5999B DUP2 MSTORE PUSH1 0x20 ADD PUSH32 0x1D5C7F9EAB196E92BFCBE3F585F75284BCD66A6B9F8D0C8FD3E3D3081D94EB2A DUP2 MSTORE POP DUP2 PUSH1 0x80 ADD MLOAD PUSH1 0xA DUP2 MLOAD DUP2 LT PUSH2 0xAF1 JUMPI PUSH2 0xAF0 PUSH2 0x2DFA JUMP JUMPDEST JUMPDEST PUSH1 0x20 MUL PUSH1 0x20 ADD ADD DUP2 SWAP1 MSTORE POP PUSH1 0x40 MLOAD DUP1 PUSH1 0x40 ADD PUSH1 0x40 MSTORE DUP1 PUSH32 0x2369480520333426D1FFF13D0FC9B2FE8E8E4AD0B9B38D95318ED9AA8E3B80E DUP2 MSTORE PUSH1 0x20 ADD PUSH32 0x996E7A7BE0A50F7E0AA5D61C4C70F97DA399547548913117496A62F63DBA42D DUP2 MSTORE POP DUP2 PUSH1 0x80 ADD MLOAD PUSH1 0xB DUP2 MLOAD DUP2 LT PUSH2 0xB69 JUMPI PUSH2 0xB68 PUSH2 0x2DFA JUMP JUMPDEST JUMPDEST PUSH1 0x20 MUL PUSH1 0x20 ADD ADD DUP2 SWAP1 MSTORE POP PUSH1 0x40 MLOAD DUP1 PUSH1 0x40 ADD PUSH1 0x40 MSTORE DUP1 PUSH32 0x28AE099810FBCE21CDD300AD5656CACF6B742E05116D518EC0D868A9E40291F DUP2 MSTORE PUSH1 0x20 ADD PUSH32 0xC91729909D976853E54231DA96A4EF55B89363BFEBBB2260354AC794AD76FCC DUP2 MSTORE POP DUP2 PUSH1 0x80 ADD MLOAD PUSH1 0xC DUP2 MLOAD DUP2 LT PUSH2 0xBE1 JUMPI PUSH2 0xBE0 PUSH2 0x2DFA JUMP JUMPDEST JUMPDEST PUSH1 0x20 MUL PUSH1 0x20 ADD ADD DUP2 SWAP1 MSTORE POP PUSH1 0x40 MLOAD DUP1 PUSH1 0x40 ADD PUSH1 0x40 MSTORE DUP1 PUSH32 0x2433E743CF0DCB7D2AAB6AA63519B627C21884D90313FBC54BDB5DE6596E375 DUP2 MSTORE PUSH1 0x20 ADD PUSH32 0x23615823097F32FF71470D224EB3848A1B040685CB00BEB8C231DB33A70CD35D DUP2 MSTORE POP DUP2 PUSH1 0x80 ADD MLOAD PUSH1 0xD DUP2 MLOAD DUP2 LT PUSH2 0xC59 JUMPI PUSH2 0xC58 PUSH2 0x2DFA JUMP JUMPDEST JUMPDEST PUSH1 0x20 MUL PUSH1 0x20 ADD ADD DUP2 SWAP1 MSTORE POP PUSH1 0x40 MLOAD DUP1 PUSH1 0x40 ADD PUSH1 0x40 MSTORE DUP1 PUSH32 0x2F47483CE99F866331AF9CBC54B0DE2991DC555EB6C3CE4E5DEA12450C6C464C DUP2 MSTORE PUSH1 0x20 ADD PUSH32 0xD4DB8338AF41262698B4E91CD577C31E27AF31A7A59CB831D22C54154413272 DUP2 MSTORE POP DUP2 PUSH1 0x80 ADD MLOAD PUSH1 0xE DUP2 MLOAD DUP2 LT PUSH2 0xCD1 JUMPI PUSH2 0xCD0 PUSH2 0x2DFA JUMP JUMPDEST JUMPDEST PUSH1 0x20 MUL PUSH1 0x20 ADD ADD DUP2 SWAP1 MSTORE POP PUSH1 0x40 MLOAD DUP1 PUSH1 0x40 ADD PUSH1 0x40 MSTORE DUP1 PUSH32 0x2B2E57F879AA67F6998F681AE12D1AFB9C13C495A9EDA6B3965402D61BA1C058 DUP2 MSTORE PUSH1 0x20 ADD PUSH31 0x515588136092A67586391AACA99F0450565F022529F50C19F9DD69765E0C22 DUP2 MSTORE POP DUP2 PUSH1 0x80 ADD MLOAD PUSH1 0xF DUP2 MLOAD DUP2 LT PUSH2 0xD48 JUMPI PUSH2 0xD47 PUSH2 0x2DFA JUMP JUMPDEST JUMPDEST PUSH1 0x20 MUL PUSH1 0x20 ADD ADD DUP2 SWAP1 MSTORE POP PUSH1 0x40 MLOAD DUP1 PUSH1 0x40 ADD PUSH1 0x40 MSTORE DUP1 PUSH32 0x2B501DFD078D8ED021D673A46443B9B9AAE06DFAAD890BC257F3B8F5F8126795 DUP2 MSTORE PUSH1 0x20 ADD PUSH32 0x1C0E071070CE6C7776667A4274D8AEBA84A72E9F0414ED027A7516B2C45779BE DUP2 MSTORE POP DUP2 PUSH1 0x80 ADD MLOAD PUSH1 0x10 DUP2 MLOAD DUP2 LT PUSH2 0xDC0 JUMPI PUSH2 0xDBF PUSH2 0x2DFA JUMP JUMPDEST JUMPDEST PUSH1 0x20 MUL PUSH1 0x20 ADD ADD DUP2 SWAP1 MSTORE POP PUSH1 0x40 MLOAD DUP1 PUSH1 0x40 ADD PUSH1 0x40 MSTORE DUP1 PUSH32 0x1E5205CC0633AE654BFFDB2EA891789A4926E07C90270138080916D43F89C649 DUP2 MSTORE PUSH1 0x20 ADD PUSH32 0x214B26EC85E9AF99E9D70B4384DFE740A37ADE813DBC8605FB3AC77B56131CD0 DUP2 MSTORE POP DUP2 PUSH1 0x80 ADD MLOAD PUSH1 0x11 DUP2 MLOAD DUP2 LT PUSH2 0xE38 JUMPI PUSH2 0xE37 PUSH2 0x2DFA JUMP JUMPDEST JUMPDEST PUSH1 0x20 MUL PUSH1 0x20 ADD ADD DUP2 SWAP1 MSTORE POP PUSH1 0x40 MLOAD DUP1 PUSH1 0x40 ADD PUSH1 0x40 MSTORE DUP1 PUSH32 0x197E4BD4B8B3138B747FB00AF2002619472FCD15C669EE0C2564211671EA536E DUP2 MSTORE PUSH1 0x20 ADD PUSH32 0x296CDA15813B298C6E49CE383132B2DEA145A7F9C0E98E8F41A3054EABA23D60 DUP2 MSTORE POP DUP2 PUSH1 0x80 ADD MLOAD PUSH1 0x12 DUP2 MLOAD DUP2 LT PUSH2 0xEB0 JUMPI PUSH2 0xEAF PUSH2 0x2DFA JUMP JUMPDEST JUMPDEST PUSH1 0x20 MUL PUSH1 0x20 ADD ADD DUP2 SWAP1 MSTORE POP PUSH1 0x40 MLOAD DUP1 PUSH1 0x40 ADD PUSH1 0x40 MSTORE DUP1 PUSH32 0x2FB2C4A5F2FDE555BA6E04CA42399B1882907FA2D96FA2E650F0C7B9F3333407 DUP2 MSTORE PUSH1 0x20 ADD PUSH32 0x1765A4BEC71B2B017F493407C809D8DFD74B77D8C7D41871ED55705CCAA463A0 DUP2 MSTORE POP DUP2 PUSH1 0x80 ADD MLOAD PUSH1 0x13 DUP2 MLOAD DUP2 LT PUSH2 0xF28 JUMPI PUSH2 0xF27 PUSH2 0x2DFA JUMP JUMPDEST JUMPDEST PUSH1 0x20 MUL PUSH1 0x20 ADD ADD DUP2 SWAP1 MSTORE POP PUSH1 0x40 MLOAD DUP1 PUSH1 0x40 ADD PUSH1 0x40 MSTORE DUP1 PUSH32 0x1D4EA688779BC2E9532542C67A48372D54B3ECBCD4883DB6D0371A4989BAE856 DUP2 MSTORE PUSH1 0x20 ADD PUSH32 0xCBFE939EB2DF83BDD79E5CD2B3CE50452EDA0F5FB33F9DD8A6D962AE677F4BE DUP2 MSTORE POP DUP2 PUSH1 0x80 ADD MLOAD PUSH1 0x14 DUP2 MLOAD DUP2 LT PUSH2 0xFA0 JUMPI PUSH2 0xF9F PUSH2 0x2DFA JUMP JUMPDEST JUMPDEST PUSH1 0x20 MUL PUSH1 0x20 ADD ADD DUP2 SWAP1 MSTORE POP PUSH1 0x40 MLOAD DUP1 PUSH1 0x40 ADD PUSH1 0x40 MSTORE DUP1 PUSH32 0x10591FCBFE21545D3CF5557E2AC5ED998772AC4B47E825D39F3503A51235841C DUP2 MSTORE PUSH1 0x20 ADD PUSH32 0x2A416219A81D4C8A71BD3D24E5763A3D2FEEFCA1E5068FFBA858993525FEDC1D DUP2 MSTORE POP DUP2 PUSH1 0x80 ADD MLOAD PUSH1 0x15 DUP2 MLOAD DUP2 LT PUSH2 0x1018 JUMPI PUSH2 0x1017 PUSH2 0x2DFA JUMP JUMPDEST JUMPDEST PUSH1 0x20 MUL PUSH1 0x20 ADD ADD DUP2 SWAP1 MSTORE POP PUSH1 0x40 MLOAD DUP1 PUSH1 0x40 ADD PUSH1 0x40 MSTORE DUP1 PUSH32 0x26E2893C2D9C8BAA4A93A4998D38B49082E905F6EDF3C871FFDF7B80184926CE DUP2 MSTORE PUSH1 0x20 ADD PUSH32 0x1F4FB29A01092562CAD8A3CFF94A643EF9A5ADB5F0F306E11D8DA38A29DCDC25 DUP2 MSTORE POP DUP2 PUSH1 0x80 ADD MLOAD PUSH1 0x16 DUP2 MLOAD DUP2 LT PUSH2 0x1090 JUMPI PUSH2 0x108F PUSH2 0x2DFA JUMP JUMPDEST JUMPDEST PUSH1 0x20 MUL PUSH1 0x20 ADD ADD DUP2 SWAP1 MSTORE POP PUSH1 0x40 MLOAD DUP1 PUSH1 0x40 ADD PUSH1 0x40 MSTORE DUP1 PUSH32 0x26279C7A8F6396CEBF153F9E929444C126A1A712C51AC0939D524C9EE8CF1F01 DUP2 MSTORE PUSH1 0x20 ADD PUSH31 0x9C0447B25739F4A88A069D1333F9CE3B6DEF9215FAD63F1FF89DC88A51FC03 DUP2 MSTORE POP DUP2 PUSH1 0x80 ADD MLOAD PUSH1 0x17 DUP2 MLOAD DUP2 LT PUSH2 0x1107 JUMPI PUSH2 0x1106 PUSH2 0x2DFA JUMP JUMPDEST JUMPDEST PUSH1 0x20 MUL PUSH1 0x20 ADD ADD DUP2 SWAP1 MSTORE POP PUSH1 0x40 MLOAD DUP1 PUSH1 0x40 ADD PUSH1 0x40 MSTORE DUP1 PUSH32 0x7157049CF3B27A1D0669D83AC3E87EC52C5F409D41F3136F82DB7A12E184ECD DUP2 MSTORE PUSH1 0x20 ADD PUSH32 0x14F6B1730E5C55CFC8D068756C91CF6B6FA63FB2C7C89AE67F092602A9095374 DUP2 MSTORE POP DUP2 PUSH1 0x80 ADD MLOAD PUSH1 0x18 DUP2 MLOAD DUP2 LT PUSH2 0x117F JUMPI PUSH2 0x117E PUSH2 0x2DFA JUMP JUMPDEST JUMPDEST PUSH1 0x20 MUL PUSH1 0x20 ADD ADD DUP2 SWAP1 MSTORE POP PUSH1 0x40 MLOAD DUP1 PUSH1 0x40 ADD PUSH1 0x40 MSTORE DUP1 PUSH32 0x2FEE092FB5E5B22B9CB4C11F98D23A128D9426CEDFB5D832CBEEB06B52EF926A DUP2 MSTORE PUSH1 0x20 ADD PUSH32 0xE66FC5F06D09395F35E37FD0754CD21A658C4FF3D7E8EEA134A815EC2E1A323 DUP2 MSTORE POP DUP2 PUSH1 0x80 ADD MLOAD PUSH1 0x19 DUP2 MLOAD DUP2 LT PUSH2 0x11F7 JUMPI PUSH2 0x11F6 PUSH2 0x2DFA JUMP JUMPDEST JUMPDEST PUSH1 0x20 MUL PUSH1 0x20 ADD ADD DUP2 SWAP1 MSTORE POP PUSH1 0x40 MLOAD DUP1 PUSH1 0x40 ADD PUSH1 0x40 MSTORE DUP1 PUSH32 0x2E9ABE4735EBCAF5C6F1D0ACAFD38BE2A9A543E160637BBDB23771E48064FD92 DUP2 MSTORE PUSH1 0x20 ADD PUSH32 0x223B9C43BB416FD26BF5EE588A2F82E0DDCB75097BC7AD4B8885376A7E53265A DUP2 MSTORE POP DUP2 PUSH1 0x80 ADD MLOAD PUSH1 0x1A DUP2 MLOAD DUP2 LT PUSH2 0x126F JUMPI PUSH2 0x126E PUSH2 0x2DFA JUMP JUMPDEST JUMPDEST PUSH1 0x20 MUL PUSH1 0x20 ADD ADD DUP2 SWAP1 MSTORE POP PUSH1 0x40 MLOAD DUP1 PUSH1 0x40 ADD PUSH1 0x40 MSTORE DUP1 PUSH32 0x1B7AEA1FB1C1ABA4A55A5223C77F01C86513BBECD4FE30351AECAB0B358FB78C DUP2 MSTORE PUSH1 0x20 ADD PUSH32 0x1008F27C5A1402AC37B8AFCF347609D1B724EA79F655F95CCA5C49C426FA8094 DUP2 MSTORE POP DUP2 PUSH1 0x80 ADD MLOAD PUSH1 0x1B DUP2 MLOAD DUP2 LT PUSH2 0x12E7 JUMPI PUSH2 0x12E6 PUSH2 0x2DFA JUMP JUMPDEST JUMPDEST PUSH1 0x20 MUL PUSH1 0x20 ADD ADD DUP2 SWAP1 MSTORE POP PUSH1 0x40 MLOAD DUP1 PUSH1 0x40 ADD PUSH1 0x40 MSTORE DUP1 PUSH32 0x207C0A11C8C1A3A1654A26ED1D38D0A8D3783267EB1BA74904EE212CFAA4AACF DUP2 MSTORE PUSH1 0x20 ADD PUSH32 0x21EDF24B087BD764BCE2C27995BCC8BC927E903CCBD8DACC10E86D9BD4434303 DUP2 MSTORE POP DUP2 PUSH1 0x80 ADD MLOAD PUSH1 0x1C DUP2 MLOAD DUP2 LT PUSH2 0x135F JUMPI PUSH2 0x135E PUSH2 0x2DFA JUMP JUMPDEST JUMPDEST PUSH1 0x20 MUL PUSH1 0x20 ADD ADD DUP2 SWAP1 MSTORE POP PUSH1 0x40 MLOAD DUP1 PUSH1 0x40 ADD PUSH1 0x40 MSTORE DUP1 PUSH32 0x9832E2DEB5EB4647354FFBC435A0DD538989AC96E2CBBEADFF4D8F810A7C51A DUP2 MSTORE PUSH1 0x20 ADD PUSH32 0x18832981BF97B9A8F85BBB14D00CFD46119B52E53247241B9E35E62FB025EFB2 DUP2 MSTORE POP DUP2 PUSH1 0x80 ADD MLOAD PUSH1 0x1D DUP2 MLOAD DUP2 LT PUSH2 0x13D7 JUMPI PUSH2 0x13D6 PUSH2 0x2DFA JUMP JUMPDEST JUMPDEST PUSH1 0x20 MUL PUSH1 0x20 ADD ADD DUP2 SWAP1 MSTORE POP PUSH1 0x40 MLOAD DUP1 PUSH1 0x40 ADD PUSH1 0x40 MSTORE DUP1 PUSH32 0x2878B9DBF5FCC34D7CAE84E2E9999266972E98D94E6DE7ABEDD3211ABF90E8FC DUP2 MSTORE PUSH1 0x20 ADD PUSH32 0xE0F2BE7A4CDD154DB3D77AAAE3494EB672EDD8729A9C51826E268D9C69D5319 DUP2 MSTORE POP DUP2 PUSH1 0x80 ADD MLOAD PUSH1 0x1E DUP2 MLOAD DUP2 LT PUSH2 0x144F JUMPI PUSH2 0x144E PUSH2 0x2DFA JUMP JUMPDEST JUMPDEST PUSH1 0x20 MUL PUSH1 0x20 ADD ADD DUP2 SWAP1 MSTORE POP PUSH1 0x40 MLOAD DUP1 PUSH1 0x40 ADD PUSH1 0x40 MSTORE DUP1 PUSH32 0xC31B1E570D2D0BA98442DF6A601C4E50794B6022667EF722C06B8103621954D DUP2 MSTORE PUSH1 0x20 ADD PUSH32 0x297015E4B439197D78A685ACC66A1E9CB57C3E1F611545F5D9A8EA5A40599DC5 DUP2 MSTORE POP DUP2 PUSH1 0x80 ADD MLOAD PUSH1 0x1F DUP2 MLOAD DUP2 LT PUSH2 0x14C7 JUMPI PUSH2 0x14C6 PUSH2 0x2DFA JUMP JUMPDEST JUMPDEST PUSH1 0x20 MUL PUSH1 0x20 ADD ADD DUP2 SWAP1 MSTORE POP PUSH1 0x40 MLOAD DUP1 PUSH1 0x40 ADD PUSH1 0x40 MSTORE DUP1 PUSH32 0x2164CA81E34BFAB378FD55CB6E322850B91250C6CE04B17ED37721E5D5F9E990 DUP2 MSTORE PUSH1 0x20 ADD PUSH32 0x14A261721A51E55A12435FE8E174DF3C14A534BB6E548F03B12F3B8211D25760 DUP2 MSTORE POP DUP2 PUSH1 0x80 ADD MLOAD PUSH1 0x20 DUP2 MLOAD DUP2 LT PUSH2 0x153F JUMPI PUSH2 0x153E PUSH2 0x2DFA JUMP JUMPDEST JUMPDEST PUSH1 0x20 MUL PUSH1 0x20 ADD ADD DUP2 SWAP1 MSTORE POP PUSH1 0x40 MLOAD DUP1 PUSH1 0x40 ADD PUSH1 0x40 MSTORE DUP1 PUSH32 0x15795ADE1A2A2F3BAB773EAE9A3603B8B85E48D93E6CD30FD355542241FA95CA DUP2 MSTORE PUSH1 0x20 ADD PUSH32 0x284F3ED6FEBFBBB593D10B9E15ACE96A2D68D9FB3EC5C7EFF9C6C9A2068525B DUP2 MSTORE POP DUP2 PUSH1 0x80 ADD MLOAD PUSH1 0x21 DUP2 MLOAD DUP2 LT PUSH2 0x15B7 JUMPI PUSH2 0x15B6 PUSH2 0x2DFA JUMP JUMPDEST JUMPDEST PUSH1 0x20 MUL PUSH1 0x20 ADD ADD DUP2 SWAP1 MSTORE POP PUSH1 0x40 MLOAD DUP1 PUSH1 0x40 ADD PUSH1 0x40 MSTORE DUP1 PUSH32 0x2091E06C95251D5B712FC991744A888A1C0B6A12104779125FB670AF19A58FC4 DUP2 MSTORE PUSH1 0x20 ADD PUSH32 0x27503F786B4C0EC41CEDC5D86C0529BB8F3D4E18085A4436D15AFCAA66653EA DUP2 MSTORE POP DUP2 PUSH1 0x80 ADD MLOAD PUSH1 0x22 DUP2 MLOAD DUP2 LT PUSH2 0x162F JUMPI PUSH2 0x162E PUSH2 0x2DFA JUMP JUMPDEST JUMPDEST PUSH1 0x20 MUL PUSH1 0x20 ADD ADD DUP2 SWAP1 MSTORE POP PUSH1 0x40 MLOAD DUP1 PUSH1 0x40 ADD PUSH1 0x40 MSTORE DUP1 PUSH32 0x15A804A9B08C4C5FAEC7FE3B2FB6D58A33E5EC8945CCE9B97DFE5F67484CEF93 DUP2 MSTORE PUSH1 0x20 ADD PUSH32 0x2F26086B1F2DAFBB912EDD2FAE3F7814EC625D821AE37C21C7552EE104411C4F DUP2 MSTORE POP DUP2 PUSH1 0x80 ADD MLOAD PUSH1 0x23 DUP2 MLOAD DUP2 LT PUSH2 0x16A7 JUMPI PUSH2 0x16A6 PUSH2 0x2DFA JUMP JUMPDEST JUMPDEST PUSH1 0x20 MUL PUSH1 0x20 ADD ADD DUP2 SWAP1 MSTORE POP PUSH1 0x40 MLOAD DUP1 PUSH1 0x40 ADD PUSH1 0x40 MSTORE DUP1 PUSH32 0xF15A9962051E91040DB43D3A6BEC763A6A6172B1F89F98BB7767426FDCEF39D DUP2 MSTORE PUSH1 0x20 ADD PUSH32 0x28BF5D6DB18192B6FF2169F9560A3F61326FF877919EF82C1B1C515108D0D882 DUP2 MSTORE POP DUP2 PUSH1 0x80 ADD MLOAD PUSH1 0x24 DUP2 MLOAD DUP2 LT PUSH2 0x171F JUMPI PUSH2 0x171E PUSH2 0x2DFA JUMP JUMPDEST JUMPDEST PUSH1 0x20 MUL PUSH1 0x20 ADD ADD DUP2 SWAP1 MSTORE POP PUSH1 0x40 MLOAD DUP1 PUSH1 0x40 ADD PUSH1 0x40 MSTORE DUP1 PUSH32 0x11C8412C8DDA15BFA3207CDB2C71EFB0F4CCA0B02FDBA798BE27E649EF86D315 DUP2 MSTORE PUSH1 0x20 ADD PUSH32 0x2D5F8A1C7D4E0D63B35F5E2ECF39AFE4F27B21BC4940885DE4F63233FF1B6B1D DUP2 MSTORE POP DUP2 PUSH1 0x80 ADD MLOAD PUSH1 0x25 DUP2 MLOAD DUP2 LT PUSH2 0x1797 JUMPI PUSH2 0x1796 PUSH2 0x2DFA JUMP JUMPDEST JUMPDEST PUSH1 0x20 MUL PUSH1 0x20 ADD ADD DUP2 SWAP1 MSTORE POP PUSH1 0x40 MLOAD DUP1 PUSH1 0x40 ADD PUSH1 0x40 MSTORE DUP1 PUSH32 0x180CC1601065291D987C417C4895D9830C8FB3E9AFEAA5EAF4362CD9C0647CCD DUP2 MSTORE PUSH1 0x20 ADD PUSH32 0x28E8047EE4E7D824D8583F5FC29E24007E99779C42F3D92EF3E753F51AD86DA8 DUP2 MSTORE POP DUP2 PUSH1 0x80 ADD MLOAD PUSH1 0x26 DUP2 MLOAD DUP2 LT PUSH2 0x180F JUMPI PUSH2 0x180E PUSH2 0x2DFA JUMP JUMPDEST JUMPDEST PUSH1 0x20 MUL PUSH1 0x20 ADD ADD DUP2 SWAP1 MSTORE POP PUSH1 0x40 MLOAD DUP1 PUSH1 0x40 ADD PUSH1 0x40 MSTORE DUP1 PUSH32 0x1802EC16440F9DE9DA6C44F51E916E8EA647DDFA24D72C11DB9DAC48929C607C DUP2 MSTORE PUSH1 0x20 ADD PUSH32 0x235991B0C7E1135B05CBE763C4C238ED9D2DFAC39320D58DFBC0377581139DD5 DUP2 MSTORE POP DUP2 PUSH1 0x80 ADD MLOAD PUSH1 0x27 DUP2 MLOAD DUP2 LT PUSH2 0x1887 JUMPI PUSH2 0x1886 PUSH2 0x2DFA JUMP JUMPDEST JUMPDEST PUSH1 0x20 MUL PUSH1 0x20 ADD ADD DUP2 SWAP1 MSTORE POP PUSH1 0x40 MLOAD DUP1 PUSH1 0x40 ADD PUSH1 0x40 MSTORE DUP1 PUSH32 0x25E205B54C6746553D645B9984FD4C439FCE9B2E2AB26C2B498D6B4368E8079A DUP2 MSTORE PUSH1 0x20 ADD PUSH32 0x1E03F921FBA09E542AF7C4775A0D9463AD43AB7D11055712303763654635763C DUP2 MSTORE POP DUP2 PUSH1 0x80 ADD MLOAD PUSH1 0x28 DUP2 MLOAD DUP2 LT PUSH2 0x18FF JUMPI PUSH2 0x18FE PUSH2 0x2DFA JUMP JUMPDEST JUMPDEST PUSH1 0x20 MUL PUSH1 0x20 ADD ADD DUP2 SWAP1 MSTORE POP PUSH1 0x40 MLOAD DUP1 PUSH1 0x40 ADD PUSH1 0x40 MSTORE DUP1 PUSH32 0x2FC9A7A4971585B9E15910DAD4FE29EE21A314BC4120F9F38A9E04E152C9B84D DUP2 MSTORE PUSH1 0x20 ADD PUSH32 0x20B6B471534EA04EE7E8C1156F77CA35DE82A5B9D0625F44372FBE87062908B4 DUP2 MSTORE POP DUP2 PUSH1 0x80 ADD MLOAD PUSH1 0x29 DUP2 MLOAD DUP2 LT PUSH2 0x1977 JUMPI PUSH2 0x1976 PUSH2 0x2DFA JUMP JUMPDEST JUMPDEST PUSH1 0x20 MUL PUSH1 0x20 ADD ADD DUP2 SWAP1 MSTORE POP PUSH1 0x40 MLOAD DUP1 PUSH1 0x40 ADD PUSH1 0x40 MSTORE DUP1 PUSH32 0x823F0043E80A0719CEBDBD94071B59836757D1DE56E2F81340C316676888958 DUP2 MSTORE PUSH1 0x20 ADD PUSH32 0x2EF49E8AEB916C75EF4D9919A0A38EA1D6A8575F5354914C5B0920AA19E4912A DUP2 MSTORE POP DUP2 PUSH1 0x80 ADD MLOAD PUSH1 0x2A DUP2 MLOAD DUP2 LT PUSH2 0x19EF JUMPI PUSH2 0x19EE PUSH2 0x2DFA JUMP JUMPDEST JUMPDEST PUSH1 0x20 MUL PUSH1 0x20 ADD ADD DUP2 SWAP1 MSTORE POP PUSH1 0x40 MLOAD DUP1 PUSH1 0x40 ADD PUSH1 0x40 MSTORE DUP1 PUSH32 0x13AE71D4522A2E324DC81C07997A58289273928768E932689994622B94E355C9 DUP2 MSTORE PUSH1 0x20 ADD PUSH31 0xF56F36FADF178FCC270E5A79B2489CB3A371EEC360820EEBA1AE1F4BB47976 DUP2 MSTORE POP DUP2 PUSH1 0x80 ADD MLOAD PUSH1 0x2B DUP2 MLOAD DUP2 LT PUSH2 0x1A66 JUMPI PUSH2 0x1A65 PUSH2 0x2DFA JUMP JUMPDEST JUMPDEST PUSH1 0x20 MUL PUSH1 0x20 ADD ADD DUP2 SWAP1 MSTORE POP PUSH1 0x40 MLOAD DUP1 PUSH1 0x40 ADD PUSH1 0x40 MSTORE DUP1 PUSH32 0x1D05A5837DA0A771EE3654301EF2B7BEEB344BE9AF57D5C30DEDA67F52184047 DUP2 MSTORE PUSH1 0x20 ADD PUSH32 0x2A93E0DD00FFF56D0B2814A432E56A2918D37A238F901B707FD78FD7134C1182 DUP2 MSTORE POP DUP2 PUSH1 0x80 ADD MLOAD PUSH1 0x2C DUP2 MLOAD DUP2 LT PUSH2 0x1ADE JUMPI PUSH2 0x1ADD PUSH2 0x2DFA JUMP JUMPDEST JUMPDEST PUSH1 0x20 MUL PUSH1 0x20 ADD ADD DUP2 SWAP1 MSTORE POP PUSH1 0x40 MLOAD DUP1 PUSH1 0x40 ADD PUSH1 0x40 MSTORE DUP1 PUSH32 0x3B55018C306FD3C4409E502D0367E0546F809A4B8316A7563D26CB41B9CC09D DUP2 MSTORE PUSH1 0x20 ADD PUSH32 0x487DC38B20C28721916D84C81B255CD8E7F7504EC8FB92DBFD79CB3CD6D7BF8 DUP2 MSTORE POP DUP2 PUSH1 0x80 ADD MLOAD PUSH1 0x2D DUP2 MLOAD DUP2 LT PUSH2 0x1B56 JUMPI PUSH2 0x1B55 PUSH2 0x2DFA JUMP JUMPDEST JUMPDEST PUSH1 0x20 MUL PUSH1 0x20 ADD ADD DUP2 SWAP1 MSTORE POP PUSH1 0x40 MLOAD DUP1 PUSH1 0x40 ADD PUSH1 0x40 MSTORE DUP1 PUSH32 0xD342995DBDD33B928A014735376A529AAEA65D1DD0A53D4E24615B1DEFF6DCB DUP2 MSTORE PUSH1 0x20 ADD PUSH32 0x21BF7326BB71A7511042CBC75D82C73E1FFFD4A8D66250BF9BEE1CF8240D6D5A DUP2 MSTORE POP DUP2 PUSH1 0x80 ADD MLOAD PUSH1 0x2E DUP2 MLOAD DUP2 LT PUSH2 0x1BCE JUMPI PUSH2 0x1BCD PUSH2 0x2DFA JUMP JUMPDEST JUMPDEST PUSH1 0x20 MUL PUSH1 0x20 ADD ADD DUP2 SWAP1 MSTORE POP PUSH1 0x40 MLOAD DUP1 PUSH1 0x40 ADD PUSH1 0x40 MSTORE DUP1 PUSH32 0xB3F3024676CEDE871A5032CFBE29653B66068E3E5AE6C4ACD7FB7822E1875E4 DUP2 MSTORE PUSH1 0x20 ADD PUSH32 0x2B794E5602721DE34742DCA745DF0A1B0FEA6365C6995CC9F7616BF80EF779B3 DUP2 MSTORE POP DUP2 PUSH1 0x80 ADD MLOAD PUSH1 0x2F DUP2 MLOAD DUP2 LT PUSH2 0x1C46 JUMPI PUSH2 0x1C45 PUSH2 0x2DFA JUMP JUMPDEST JUMPDEST PUSH1 0x20 MUL PUSH1 0x20 ADD ADD DUP2 SWAP1 MSTORE POP PUSH1 0x40 MLOAD DUP1 PUSH1 0x40 ADD PUSH1 0x40 MSTORE DUP1 PUSH32 0xD905C01705E9813E75D97C41646A336FC7E53FAD2CACFF9C3B89C69AEBC7D7F DUP2 MSTORE PUSH1 0x20 ADD PUSH32 0xEE0CEE2476A5AEE8F8338F7C2950FD423E577AA4771E4070C74B9E56168AF09 DUP2 MSTORE POP DUP2 PUSH1 0x80 ADD MLOAD PUSH1 0x30 DUP2 MLOAD DUP2 LT PUSH2 0x1CBE JUMPI PUSH2 0x1CBD PUSH2 0x2DFA JUMP JUMPDEST JUMPDEST PUSH1 0x20 MUL PUSH1 0x20 ADD ADD DUP2 SWAP1 MSTORE POP PUSH1 0x40 MLOAD DUP1 PUSH1 0x40 ADD PUSH1 0x40 MSTORE DUP1 PUSH32 0xBA8C9556357805C7BD5FBC5CF24A2AA4E3D858C1EE86A08ADC665F1B4036B04 DUP2 MSTORE PUSH1 0x20 ADD PUSH32 0xC9F1CDC6C252CB195ECA9745DEC371C6F225318DAB0433C6B1A284B278C586E DUP2 MSTORE POP DUP2 PUSH1 0x80 ADD MLOAD PUSH1 0x31 DUP2 MLOAD DUP2 LT PUSH2 0x1D36 JUMPI PUSH2 0x1D35 PUSH2 0x2DFA JUMP JUMPDEST JUMPDEST PUSH1 0x20 MUL PUSH1 0x20 ADD ADD DUP2 SWAP1 MSTORE POP PUSH1 0x40 MLOAD DUP1 PUSH1 0x40 ADD PUSH1 0x40 MSTORE DUP1 PUSH32 0x2FB81FF046C6C2E9118E2FCEC86FFBFE9391028D94AF7DA3A3C3FABACE70FAB3 DUP2 MSTORE PUSH1 0x20 ADD PUSH32 0x148ED40CC7BDA961D9324E0A4200C503C7DB745F8FF3446289C1F94219C6A179 DUP2 MSTORE POP DUP2 PUSH1 0x80 ADD MLOAD PUSH1 0x32 DUP2 MLOAD DUP2 LT PUSH2 0x1DAE JUMPI PUSH2 0x1DAD PUSH2 0x2DFA JUMP JUMPDEST JUMPDEST PUSH1 0x20 MUL PUSH1 0x20 ADD ADD DUP2 SWAP1 MSTORE POP PUSH1 0x40 MLOAD DUP1 PUSH1 0x40 ADD PUSH1 0x40 MSTORE DUP1 PUSH32 0x2459482ED2A859BDEFC5C14A322F4EAE35A116B31E9E3AF64AA81F334EDF6B9C DUP2 MSTORE PUSH1 0x20 ADD PUSH32 0x3487098F1D68C824F7B0307F33A8BBD4D30636DC439D657468A55B5540C47CE DUP2 MSTORE POP DUP2 PUSH1 0x80 ADD MLOAD PUSH1 0x33 DUP2 MLOAD DUP2 LT PUSH2 0x1E26 JUMPI PUSH2 0x1E25 PUSH2 0x2DFA JUMP JUMPDEST JUMPDEST PUSH1 0x20 MUL PUSH1 0x20 ADD ADD DUP2 SWAP1 MSTORE POP PUSH1 0x40 MLOAD DUP1 PUSH1 0x40 ADD PUSH1 0x40 MSTORE DUP1 PUSH32 0x3AA6DF06EC48A1B6F065A838C4C62E1133B86D94E7769A901B420AE9252E8FD DUP2 MSTORE PUSH1 0x20 ADD PUSH32 0x2B1CC9EE8FA443F217AE5CAE1579FF3597A4CEAE8C5E67852AD141DFFC9A214F DUP2 MSTORE POP DUP2 PUSH1 0x80 ADD MLOAD PUSH1 0x34 DUP2 MLOAD DUP2 LT PUSH2 0x1E9E JUMPI PUSH2 0x1E9D PUSH2 0x2DFA JUMP JUMPDEST JUMPDEST PUSH1 0x20 MUL PUSH1 0x20 ADD ADD DUP2 SWAP1 MSTORE POP PUSH1 0x40 MLOAD DUP1 PUSH1 0x40 ADD PUSH1 0x40 MSTORE DUP1 PUSH32 0x1C34E36B00DB3C49F0D7EDE436F570D5C4C013B3D24D2FD618E43A215F7191F8 DUP2 MSTORE PUSH1 0x20 ADD PUSH32 0x1F00DAAC177D93A5C34CA4122ED87C0E8E44FE1EB7C4A0A631AB43CA62E77974 DUP2 MSTORE POP DUP2 PUSH1 0x80 ADD MLOAD PUSH1 0x35 DUP2 MLOAD DUP2 LT PUSH2 0x1F16 JUMPI PUSH2 0x1F15 PUSH2 0x2DFA JUMP JUMPDEST JUMPDEST PUSH1 0x20 MUL PUSH1 0x20 ADD ADD DUP2 SWAP1 MSTORE POP PUSH1 0x40 MLOAD DUP1 PUSH1 0x40 ADD PUSH1 0x40 MSTORE DUP1 PUSH32 0x70CBFC7F432707FFFB6D111E4C4E7C4D36A7B37F023B189F4A6556804475609 DUP2 MSTORE PUSH1 0x20 ADD PUSH32 0x1DC1C24C74E2F21961CB33CE3D97CD28D802B41BD08E41334521EA6678E2982C DUP2 MSTORE POP DUP2 PUSH1 0x80 ADD MLOAD PUSH1 0x36 DUP2 MLOAD DUP2 LT PUSH2 0x1F8E JUMPI PUSH2 0x1F8D PUSH2 0x2DFA JUMP JUMPDEST JUMPDEST PUSH1 0x20 MUL PUSH1 0x20 ADD ADD DUP2 SWAP1 MSTORE POP PUSH1 0x40 MLOAD DUP1 PUSH1 0x40 ADD PUSH1 0x40 MSTORE DUP1 PUSH32 0xAEBDF705513F6CB989BB7B1270D9E2C76669BBE2D1705C0D175AAFAB3818AAD DUP2 MSTORE PUSH1 0x20 ADD PUSH32 0x13AA62F56D11C537533F874BB88B26907010C9F3A9A69FD5896459A4FB7260BE DUP2 MSTORE POP DUP2 PUSH1 0x80 ADD MLOAD PUSH1 0x37 DUP2 MLOAD DUP2 LT PUSH2 0x2006 JUMPI PUSH2 0x2005 PUSH2 0x2DFA JUMP JUMPDEST JUMPDEST PUSH1 0x20 MUL PUSH1 0x20 ADD ADD DUP2 SWAP1 MSTORE POP PUSH1 0x40 MLOAD DUP1 PUSH1 0x40 ADD PUSH1 0x40 MSTORE DUP1 PUSH32 0x1EC2F70315ABBC67D9F20F1045E2F15FD1CC1F57B72CB6FC7D153B03FC16FDDF DUP2 MSTORE PUSH1 0x20 ADD PUSH32 0x1062709F3552C279818C96867EC91EB6E0E17783427398530A79EFAF56D95BD9 DUP2 MSTORE POP DUP2 PUSH1 0x80 ADD MLOAD PUSH1 0x38 DUP2 MLOAD DUP2 LT PUSH2 0x207E JUMPI PUSH2 0x207D PUSH2 0x2DFA JUMP JUMPDEST JUMPDEST PUSH1 0x20 MUL PUSH1 0x20 ADD ADD DUP2 SWAP1 MSTORE POP SWAP1 JUMP JUMPDEST PUSH2 0x2094 PUSH2 0x2814 JUMP JUMPDEST PUSH2 0x209C PUSH2 0x282E JUMP JUMPDEST DUP4 PUSH1 0x0 ADD MLOAD DUP2 PUSH1 0x0 PUSH1 0x3 DUP2 LT PUSH2 0x20B5 JUMPI PUSH2 0x20B4 PUSH2 0x2DFA JUMP JUMPDEST JUMPDEST PUSH1 0x20 MUL ADD DUP2 DUP2 MSTORE POP POP DUP4 PUSH1 0x20 ADD MLOAD DUP2 PUSH1 0x1 PUSH1 0x3 DUP2 LT PUSH2 0x20D7 JUMPI PUSH2 0x20D6 PUSH2 0x2DFA JUMP JUMPDEST JUMPDEST PUSH1 0x20 MUL ADD DUP2 DUP2 MSTORE POP POP DUP3 DUP2 PUSH1 0x2 PUSH1 0x3 DUP2 LT PUSH2 0x20F5 JUMPI PUSH2 0x20F4 PUSH2 0x2DFA JUMP JUMPDEST JUMPDEST PUSH1 0x20 MUL ADD DUP2 DUP2 MSTORE POP POP PUSH1 0x0 PUSH1 0x60 DUP4 PUSH1 0x80 DUP5 PUSH1 0x7 PUSH2 0x7D0 GAS SUB STATICCALL SWAP1 POP DUP1 PUSH1 0x0 DUP2 EQ PUSH2 0x211E JUMPI PUSH2 0x2120 JUMP JUMPDEST INVALID JUMPDEST POP DUP1 PUSH2 0x212B JUMPI PUSH1 0x0 DUP1 REVERT JUMPDEST POP POP SWAP3 SWAP2 POP POP JUMP JUMPDEST PUSH2 0x213B PUSH2 0x2814 JUMP JUMPDEST PUSH2 0x2143 PUSH2 0x2850 JUMP JUMPDEST DUP4 PUSH1 0x0 ADD MLOAD DUP2 PUSH1 0x0 PUSH1 0x4 DUP2 LT PUSH2 0x215C JUMPI PUSH2 0x215B PUSH2 0x2DFA JUMP JUMPDEST JUMPDEST PUSH1 0x20 MUL ADD DUP2 DUP2 MSTORE POP POP DUP4 PUSH1 0x20 ADD MLOAD DUP2 PUSH1 0x1 PUSH1 0x4 DUP2 LT PUSH2 0x217E JUMPI PUSH2 0x217D PUSH2 0x2DFA JUMP JUMPDEST JUMPDEST PUSH1 0x20 MUL ADD DUP2 DUP2 MSTORE POP POP DUP3 PUSH1 0x0 ADD MLOAD DUP2 PUSH1 0x2 PUSH1 0x4 DUP2 LT PUSH2 0x21A0 JUMPI PUSH2 0x219F PUSH2 0x2DFA JUMP JUMPDEST JUMPDEST PUSH1 0x20 MUL ADD DUP2 DUP2 MSTORE POP POP DUP3 PUSH1 0x20 ADD MLOAD DUP2 PUSH1 0x3 PUSH1 0x4 DUP2 LT PUSH2 0x21C2 JUMPI PUSH2 0x21C1 PUSH2 0x2DFA JUMP JUMPDEST JUMPDEST PUSH1 0x20 MUL ADD DUP2 DUP2 MSTORE POP POP PUSH1 0x0 PUSH1 0x60 DUP4 PUSH1 0xC0 DUP5 PUSH1 0x6 PUSH2 0x7D0 GAS SUB STATICCALL SWAP1 POP DUP1 PUSH1 0x0 DUP2 EQ PUSH2 0x21EB JUMPI PUSH2 0x21ED JUMP JUMPDEST INVALID JUMPDEST POP DUP1 PUSH2 0x21F8 JUMPI PUSH1 0x0 DUP1 REVERT JUMPDEST POP POP SWAP3 SWAP2 POP POP JUMP JUMPDEST PUSH2 0x2208 PUSH2 0x2814 JUMP JUMPDEST PUSH1 0x0 PUSH32 0x30644E72E131A029B85045B68181585D97816A916871CA8D3C208C16D87CFD47 SWAP1 POP PUSH1 0x0 DUP4 PUSH1 0x0 ADD MLOAD EQ DUP1 ISZERO PUSH2 0x2245 JUMPI POP PUSH1 0x0 DUP4 PUSH1 0x20 ADD MLOAD EQ JUMPDEST ISZERO PUSH2 0x2269 JUMPI PUSH1 0x40 MLOAD DUP1 PUSH1 0x40 ADD PUSH1 0x40 MSTORE DUP1 PUSH1 0x0 DUP2 MSTORE PUSH1 0x20 ADD PUSH1 0x0 DUP2 MSTORE POP SWAP2 POP POP PUSH2 0x22A0 JUMP JUMPDEST PUSH1 0x40 MLOAD DUP1 PUSH1 0x40 ADD PUSH1 0x40 MSTORE DUP1 DUP5 PUSH1 0x0 ADD MLOAD DUP2 MSTORE PUSH1 0x20 ADD DUP3 DUP6 PUSH1 0x20 ADD MLOAD PUSH2 0x228E SWAP2 SWAP1 PUSH2 0x2D6B JUMP JUMPDEST DUP4 PUSH2 0x2299 SWAP2 SWAP1 PUSH2 0x2CA7 JUMP JUMPDEST DUP2 MSTORE POP SWAP2 POP POP JUMPDEST SWAP2 SWAP1 POP JUMP JUMPDEST PUSH1 0x0 DUP1 PUSH1 0x4 PUSH8 0xFFFFFFFFFFFFFFFF DUP2 GT ISZERO PUSH2 0x22C3 JUMPI PUSH2 0x22C2 PUSH2 0x2E29 JUMP JUMPDEST JUMPDEST PUSH1 0x40 MLOAD SWAP1 DUP1 DUP3 MSTORE DUP1 PUSH1 0x20 MUL PUSH1 0x20 ADD DUP3 ADD PUSH1 0x40 MSTORE DUP1 ISZERO PUSH2 0x22FC JUMPI DUP2 PUSH1 0x20 ADD JUMPDEST PUSH2 0x22E9 PUSH2 0x2814 JUMP JUMPDEST DUP2 MSTORE PUSH1 0x20 ADD SWAP1 PUSH1 0x1 SWAP1 SUB SWAP1 DUP2 PUSH2 0x22E1 JUMPI SWAP1 POP JUMPDEST POP SWAP1 POP PUSH1 0x0 PUSH1 0x4 PUSH8 0xFFFFFFFFFFFFFFFF DUP2 GT ISZERO PUSH2 0x231C JUMPI PUSH2 0x231B PUSH2 0x2E29 JUMP JUMPDEST JUMPDEST PUSH1 0x40 MLOAD SWAP1 DUP1 DUP3 MSTORE DUP1 PUSH1 0x20 MUL PUSH1 0x20 ADD DUP3 ADD PUSH1 0x40 MSTORE DUP1 ISZERO PUSH2 0x2355 JUMPI DUP2 PUSH1 0x20 ADD JUMPDEST PUSH2 0x2342 PUSH2 0x2872 JUMP JUMPDEST DUP2 MSTORE PUSH1 0x20 ADD SWAP1 PUSH1 0x1 SWAP1 SUB SWAP1 DUP2 PUSH2 0x233A JUMPI SWAP1 POP JUMPDEST POP SWAP1 POP DUP11 DUP3 PUSH1 0x0 DUP2 MLOAD DUP2 LT PUSH2 0x236D JUMPI PUSH2 0x236C PUSH2 0x2DFA JUMP JUMPDEST JUMPDEST PUSH1 0x20 MUL PUSH1 0x20 ADD ADD DUP2 SWAP1 MSTORE POP DUP9 DUP3 PUSH1 0x1 DUP2 MLOAD DUP2 LT PUSH2 0x238D JUMPI PUSH2 0x238C PUSH2 0x2DFA JUMP JUMPDEST JUMPDEST PUSH1 0x20 MUL PUSH1 0x20 ADD ADD DUP2 SWAP1 MSTORE POP DUP7 DUP3 PUSH1 0x2 DUP2 MLOAD DUP2 LT PUSH2 0x23AD JUMPI PUSH2 0x23AC PUSH2 0x2DFA JUMP JUMPDEST JUMPDEST PUSH1 0x20 MUL PUSH1 0x20 ADD ADD DUP2 SWAP1 MSTORE POP DUP5 DUP3 PUSH1 0x3 DUP2 MLOAD DUP2 LT PUSH2 0x23CD JUMPI PUSH2 0x23CC PUSH2 0x2DFA JUMP JUMPDEST JUMPDEST PUSH1 0x20 MUL PUSH1 0x20 ADD ADD DUP2 SWAP1 MSTORE POP DUP10 DUP2 PUSH1 0x0 DUP2 MLOAD DUP2 LT PUSH2 0x23ED JUMPI PUSH2 0x23EC PUSH2 0x2DFA JUMP JUMPDEST JUMPDEST PUSH1 0x20 MUL PUSH1 0x20 ADD ADD DUP2 SWAP1 MSTORE POP DUP8 DUP2 PUSH1 0x1 DUP2 MLOAD DUP2 LT PUSH2 0x240D JUMPI PUSH2 0x240C PUSH2 0x2DFA JUMP JUMPDEST JUMPDEST PUSH1 0x20 MUL PUSH1 0x20 ADD ADD DUP2 SWAP1 MSTORE POP DUP6 DUP2 PUSH1 0x2 DUP2 MLOAD DUP2 LT PUSH2 0x242D JUMPI PUSH2 0x242C PUSH2 0x2DFA JUMP JUMPDEST JUMPDEST PUSH1 0x20 MUL PUSH1 0x20 ADD ADD DUP2 SWAP1 MSTORE POP DUP4 DUP2 PUSH1 0x3 DUP2 MLOAD DUP2 LT PUSH2 0x244D JUMPI PUSH2 0x244C PUSH2 0x2DFA JUMP JUMPDEST JUMPDEST PUSH1 0x20 MUL PUSH1 0x20 ADD ADD DUP2 SWAP1 MSTORE POP PUSH2 0x2462 DUP3 DUP3 PUSH2 0x2472 JUMP JUMPDEST SWAP3 POP POP POP SWAP9 SWAP8 POP POP POP POP POP POP POP POP JUMP JUMPDEST PUSH1 0x0 DUP2 MLOAD DUP4 MLOAD EQ PUSH2 0x2482 JUMPI PUSH1 0x0 DUP1 REVERT JUMPDEST PUSH1 0x0 DUP4 MLOAD SWAP1 POP PUSH1 0x0 PUSH1 0x6 DUP3 PUSH2 0x2497 SWAP2 SWAP1 PUSH2 0x2C4D JUMP JUMPDEST SWAP1 POP PUSH1 0x0 DUP2 PUSH8 0xFFFFFFFFFFFFFFFF DUP2 GT ISZERO PUSH2 0x24B5 JUMPI PUSH2 0x24B4 PUSH2 0x2E29 JUMP JUMPDEST JUMPDEST PUSH1 0x40 MLOAD SWAP1 DUP1 DUP3 MSTORE DUP1 PUSH1 0x20 MUL PUSH1 0x20 ADD DUP3 ADD PUSH1 0x40 MSTORE DUP1 ISZERO PUSH2 0x24E3 JUMPI DUP2 PUSH1 0x20 ADD PUSH1 0x20 DUP3 MUL DUP1 CALLDATASIZE DUP4 CALLDATACOPY DUP1 DUP3 ADD SWAP2 POP POP SWAP1 POP JUMPDEST POP SWAP1 POP PUSH1 0x0 JUMPDEST DUP4 DUP2 LT ISZERO PUSH2 0x2768 JUMPI DUP7 DUP2 DUP2 MLOAD DUP2 LT PUSH2 0x2504 JUMPI PUSH2 0x2503 PUSH2 0x2DFA JUMP JUMPDEST JUMPDEST PUSH1 0x20 MUL PUSH1 0x20 ADD ADD MLOAD PUSH1 0x0 ADD MLOAD DUP3 PUSH1 0x0 PUSH1 0x6 DUP5 PUSH2 0x2520 SWAP2 SWAP1 PUSH2 0x2C4D JUMP JUMPDEST PUSH2 0x252A SWAP2 SWAP1 PUSH2 0x2BF7 JUMP JUMPDEST DUP2 MLOAD DUP2 LT PUSH2 0x253B JUMPI PUSH2 0x253A PUSH2 0x2DFA JUMP JUMPDEST JUMPDEST PUSH1 0x20 MUL PUSH1 0x20 ADD ADD DUP2 DUP2 MSTORE POP POP DUP7 DUP2 DUP2 MLOAD DUP2 LT PUSH2 0x255A JUMPI PUSH2 0x2559 PUSH2 0x2DFA JUMP JUMPDEST JUMPDEST PUSH1 0x20 MUL PUSH1 0x20 ADD ADD MLOAD PUSH1 0x20 ADD MLOAD DUP3 PUSH1 0x1 PUSH1 0x6 DUP5 PUSH2 0x2576 SWAP2 SWAP1 PUSH2 0x2C4D JUMP JUMPDEST PUSH2 0x2580 SWAP2 SWAP1 PUSH2 0x2BF7 JUMP JUMPDEST DUP2 MLOAD DUP2 LT PUSH2 0x2591 JUMPI PUSH2 0x2590 PUSH2 0x2DFA JUMP JUMPDEST JUMPDEST PUSH1 0x20 MUL PUSH1 0x20 ADD ADD DUP2 DUP2 MSTORE POP POP DUP6 DUP2 DUP2 MLOAD DUP2 LT PUSH2 0x25B0 JUMPI PUSH2 0x25AF PUSH2 0x2DFA JUMP JUMPDEST JUMPDEST PUSH1 0x20 MUL PUSH1 0x20 ADD ADD MLOAD PUSH1 0x0 ADD MLOAD PUSH1 0x1 PUSH1 0x2 DUP2 LT PUSH2 0x25CF JUMPI PUSH2 0x25CE PUSH2 0x2DFA JUMP JUMPDEST JUMPDEST PUSH1 0x20 MUL ADD MLOAD DUP3 PUSH1 0x2 PUSH1 0x6 DUP5 PUSH2 0x25E4 SWAP2 SWAP1 PUSH2 0x2C4D JUMP JUMPDEST PUSH2 0x25EE SWAP2 SWAP1 PUSH2 0x2BF7 JUMP JUMPDEST DUP2 MLOAD DUP2 LT PUSH2 0x25FF JUMPI PUSH2 0x25FE PUSH2 0x2DFA JUMP JUMPDEST JUMPDEST PUSH1 0x20 MUL PUSH1 0x20 ADD ADD DUP2 DUP2 MSTORE POP POP DUP6 DUP2 DUP2 MLOAD DUP2 LT PUSH2 0x261E JUMPI PUSH2 0x261D PUSH2 0x2DFA JUMP JUMPDEST JUMPDEST PUSH1 0x20 MUL PUSH1 0x20 ADD ADD MLOAD PUSH1 0x0 ADD MLOAD PUSH1 0x0 PUSH1 0x2 DUP2 LT PUSH2 0x263D JUMPI PUSH2 0x263C PUSH2 0x2DFA JUMP JUMPDEST JUMPDEST PUSH1 0x20 MUL ADD MLOAD DUP3 PUSH1 0x3 PUSH1 0x6 DUP5 PUSH2 0x2652 SWAP2 SWAP1 PUSH2 0x2C4D JUMP JUMPDEST PUSH2 0x265C SWAP2 SWAP1 PUSH2 0x2BF7 JUMP JUMPDEST DUP2 MLOAD DUP2 LT PUSH2 0x266D JUMPI PUSH2 0x266C PUSH2 0x2DFA JUMP JUMPDEST JUMPDEST PUSH1 0x20 MUL PUSH1 0x20 ADD ADD DUP2 DUP2 MSTORE POP POP DUP6 DUP2 DUP2 MLOAD DUP2 LT PUSH2 0x268C JUMPI PUSH2 0x268B PUSH2 0x2DFA JUMP JUMPDEST JUMPDEST PUSH1 0x20 MUL PUSH1 0x20 ADD ADD MLOAD PUSH1 0x20 ADD MLOAD PUSH1 0x1 PUSH1 0x2 DUP2 LT PUSH2 0x26AB JUMPI PUSH2 0x26AA PUSH2 0x2DFA JUMP JUMPDEST JUMPDEST PUSH1 0x20 MUL ADD MLOAD DUP3 PUSH1 0x4 PUSH1 0x6 DUP5 PUSH2 0x26C0 SWAP2 SWAP1 PUSH2 0x2C4D JUMP JUMPDEST PUSH2 0x26CA SWAP2 SWAP1 PUSH2 0x2BF7 JUMP JUMPDEST DUP2 MLOAD DUP2 LT PUSH2 0x26DB JUMPI PUSH2 0x26DA PUSH2 0x2DFA JUMP JUMPDEST JUMPDEST PUSH1 0x20 MUL PUSH1 0x20 ADD ADD DUP2 DUP2 MSTORE POP POP DUP6 DUP2 DUP2 MLOAD DUP2 LT PUSH2 0x26FA JUMPI PUSH2 0x26F9 PUSH2 0x2DFA JUMP JUMPDEST JUMPDEST PUSH1 0x20 MUL PUSH1 0x20 ADD ADD MLOAD PUSH1 0x20 ADD MLOAD PUSH1 0x0 PUSH1 0x2 DUP2 LT PUSH2 0x2719 JUMPI PUSH2 0x2718 PUSH2 0x2DFA JUMP JUMPDEST JUMPDEST PUSH1 0x20 MUL ADD MLOAD DUP3 PUSH1 0x5 PUSH1 0x6 DUP5 PUSH2 0x272E SWAP2 SWAP1 PUSH2 0x2C4D JUMP JUMPDEST PUSH2 0x2738 SWAP2 SWAP1 PUSH2 0x2BF7 JUMP JUMPDEST DUP2 MLOAD DUP2 LT PUSH2 0x2749 JUMPI PUSH2 0x2748 PUSH2 0x2DFA JUMP JUMPDEST JUMPDEST PUSH1 0x20 MUL PUSH1 0x20 ADD ADD DUP2 DUP2 MSTORE POP POP DUP1 DUP1 PUSH2 0x2760 SWAP1 PUSH2 0x2D22 JUMP JUMPDEST SWAP2 POP POP PUSH2 0x24E9 JUMP JUMPDEST POP PUSH2 0x2771 PUSH2 0x2898 JUMP JUMPDEST PUSH1 0x0 PUSH1 0x20 DUP3 PUSH1 0x20 DUP7 MUL PUSH1 0x20 DUP7 ADD PUSH1 0x8 PUSH2 0x7D0 GAS SUB STATICCALL SWAP1 POP DUP1 PUSH1 0x0 DUP2 EQ PUSH2 0x2796 JUMPI PUSH2 0x2798 JUMP JUMPDEST INVALID JUMPDEST POP DUP1 PUSH2 0x27A3 JUMPI PUSH1 0x0 DUP1 REVERT JUMPDEST PUSH1 0x0 DUP3 PUSH1 0x0 PUSH1 0x1 DUP2 LT PUSH2 0x27B9 JUMPI PUSH2 0x27B8 PUSH2 0x2DFA JUMP JUMPDEST JUMPDEST PUSH1 0x20 MUL ADD MLOAD EQ ISZERO SWAP6 POP POP POP POP POP POP SWAP3 SWAP2 POP POP JUMP JUMPDEST PUSH1 0x40 MLOAD DUP1 PUSH1 0xA0 ADD PUSH1 0x40 MSTORE DUP1 PUSH2 0x27E0 PUSH2 0x2814 JUMP JUMPDEST DUP2 MSTORE PUSH1 0x20 ADD PUSH2 0x27ED PUSH2 0x2872 JUMP JUMPDEST DUP2 MSTORE PUSH1 0x20 ADD PUSH2 0x27FA PUSH2 0x2872 JUMP JUMPDEST DUP2 MSTORE PUSH1 0x20 ADD PUSH2 0x2807 PUSH2 0x2872 JUMP JUMPDEST DUP2 MSTORE PUSH1 0x20 ADD PUSH1 0x60 DUP2 MSTORE POP SWAP1 JUMP JUMPDEST PUSH1 0x40 MLOAD DUP1 PUSH1 0x40 ADD PUSH1 0x40 MSTORE DUP1 PUSH1 0x0 DUP2 MSTORE PUSH1 0x20 ADD PUSH1 0x0 DUP2 MSTORE POP SWAP1 JUMP JUMPDEST PUSH1 0x40 MLOAD DUP1 PUSH1 0x60 ADD PUSH1 0x40 MSTORE DUP1 PUSH1 0x3 SWAP1 PUSH1 0x20 DUP3 MUL DUP1 CALLDATASIZE DUP4 CALLDATACOPY DUP1 DUP3 ADD SWAP2 POP POP SWAP1 POP POP SWAP1 JUMP JUMPDEST PUSH1 0x40 MLOAD DUP1 PUSH1 0x80 ADD PUSH1 0x40 MSTORE DUP1 PUSH1 0x4 SWAP1 PUSH1 0x20 DUP3 MUL DUP1 CALLDATASIZE DUP4 CALLDATACOPY DUP1 DUP3 ADD SWAP2 POP POP SWAP1 POP POP SWAP1 JUMP JUMPDEST PUSH1 0x40 MLOAD DUP1 PUSH1 0x40 ADD PUSH1 0x40 MSTORE DUP1 PUSH2 0x2885 PUSH2 0x28BA JUMP JUMPDEST DUP2 MSTORE PUSH1 0x20 ADD PUSH2 0x2892 PUSH2 0x28BA JUMP JUMPDEST DUP2 MSTORE POP SWAP1 JUMP JUMPDEST PUSH1 0x40 MLOAD DUP1 PUSH1 0x20 ADD PUSH1 0x40 MSTORE DUP1 PUSH1 0x1 SWAP1 PUSH1 0x20 DUP3 MUL DUP1 CALLDATASIZE DUP4 CALLDATACOPY DUP1 DUP3 ADD SWAP2 POP POP SWAP1 POP POP SWAP1 JUMP JUMPDEST PUSH1 0x40 MLOAD DUP1 PUSH1 0x40 ADD PUSH1 0x40 MSTORE DUP1 PUSH1 0x2 SWAP1 PUSH1 0x20 DUP3 MUL DUP1 CALLDATASIZE DUP4 CALLDATACOPY DUP1 DUP3 ADD SWAP2 POP POP SWAP1 POP POP SWAP1 JUMP JUMPDEST PUSH1 0x0 PUSH2 0x28EF PUSH2 0x28EA DUP5 PUSH2 0x2BAB JUMP JUMPDEST PUSH2 0x2B86 JUMP JUMPDEST SWAP1 POP DUP1 DUP3 DUP6 PUSH1 0x20 DUP7 MUL DUP3 ADD GT ISZERO PUSH2 0x2909 JUMPI PUSH2 0x2908 PUSH2 0x2E62 JUMP JUMPDEST JUMPDEST PUSH1 0x0 JUMPDEST DUP6 DUP2 LT ISZERO PUSH2 0x2939 JUMPI DUP2 PUSH2 0x291F DUP9 DUP3 PUSH2 0x2B05 JUMP JUMPDEST DUP5 MSTORE PUSH1 0x20 DUP5 ADD SWAP4 POP PUSH1 0x20 DUP4 ADD SWAP3 POP POP PUSH1 0x1 DUP2 ADD SWAP1 POP PUSH2 0x290C JUMP JUMPDEST POP POP POP SWAP4 SWAP3 POP POP POP JUMP JUMPDEST PUSH1 0x0 PUSH2 0x2956 PUSH2 0x2951 DUP5 PUSH2 0x2BD1 JUMP JUMPDEST PUSH2 0x2B86 JUMP JUMPDEST SWAP1 POP DUP1 DUP3 DUP6 PUSH1 0x20 DUP7 MUL DUP3 ADD GT ISZERO PUSH2 0x2970 JUMPI PUSH2 0x296F PUSH2 0x2E62 JUMP JUMPDEST JUMPDEST PUSH1 0x0 JUMPDEST DUP6 DUP2 LT ISZERO PUSH2 0x29A0 JUMPI DUP2 PUSH2 0x2986 DUP9 DUP3 PUSH2 0x2B05 JUMP JUMPDEST DUP5 MSTORE PUSH1 0x20 DUP5 ADD SWAP4 POP PUSH1 0x20 DUP4 ADD SWAP3 POP POP PUSH1 0x1 DUP2 ADD SWAP1 POP PUSH2 0x2973 JUMP JUMPDEST POP POP POP SWAP4 SWAP3 POP POP POP JUMP JUMPDEST PUSH1 0x0 DUP3 PUSH1 0x1F DUP4 ADD SLT PUSH2 0x29BF JUMPI PUSH2 0x29BE PUSH2 0x2E58 JUMP JUMPDEST JUMPDEST PUSH1 0x2 PUSH2 0x29CC DUP5 DUP3 DUP6 PUSH2 0x28DC JUMP JUMPDEST SWAP2 POP POP SWAP3 SWAP2 POP POP JUMP JUMPDEST PUSH1 0x0 DUP3 PUSH1 0x1F DUP4 ADD SLT PUSH2 0x29EA JUMPI PUSH2 0x29E9 PUSH2 0x2E58 JUMP JUMPDEST JUMPDEST PUSH1 0x38 PUSH2 0x29F7 DUP5 DUP3 DUP6 PUSH2 0x2943 JUMP JUMPDEST SWAP2 POP POP SWAP3 SWAP2 POP POP JUMP JUMPDEST PUSH1 0x0 PUSH1 0x40 DUP3 DUP5 SUB SLT ISZERO PUSH2 0x2A16 JUMPI PUSH2 0x2A15 PUSH2 0x2E5D JUMP JUMPDEST JUMPDEST PUSH2 0x2A20 PUSH1 0x40 PUSH2 0x2B86 JUMP JUMPDEST SWAP1 POP PUSH1 0x0 PUSH2 0x2A30 DUP5 DUP3 DUP6 ADD PUSH2 0x2B05 JUMP JUMPDEST PUSH1 0x0 DUP4 ADD MSTORE POP PUSH1 0x20 PUSH2 0x2A44 DUP5 DUP3 DUP6 ADD PUSH2 0x2B05 JUMP JUMPDEST PUSH1 0x20 DUP4 ADD MSTORE POP SWAP3 SWAP2 POP POP JUMP JUMPDEST PUSH1 0x0 PUSH1 0x80 DUP3 DUP5 SUB SLT ISZERO PUSH2 0x2A66 JUMPI PUSH2 0x2A65 PUSH2 0x2E5D JUMP JUMPDEST JUMPDEST PUSH2 0x2A70 PUSH1 0x40 PUSH2 0x2B86 JUMP JUMPDEST SWAP1 POP PUSH1 0x0 PUSH2 0x2A80 DUP5 DUP3 DUP6 ADD PUSH2 0x29AA JUMP JUMPDEST PUSH1 0x0 DUP4 ADD MSTORE POP PUSH1 0x40 PUSH2 0x2A94 DUP5 DUP3 DUP6 ADD PUSH2 0x29AA JUMP JUMPDEST PUSH1 0x20 DUP4 ADD MSTORE POP SWAP3 SWAP2 POP POP JUMP JUMPDEST PUSH1 0x0 PUSH2 0x100 DUP3 DUP5 SUB SLT ISZERO PUSH2 0x2AB7 JUMPI PUSH2 0x2AB6 PUSH2 0x2E5D JUMP JUMPDEST JUMPDEST PUSH2 0x2AC1 PUSH1 0x60 PUSH2 0x2B86 JUMP JUMPDEST SWAP1 POP PUSH1 0x0 PUSH2 0x2AD1 DUP5 DUP3 DUP6 ADD PUSH2 0x2A00 JUMP JUMPDEST PUSH1 0x0 DUP4 ADD MSTORE POP PUSH1 0x40 PUSH2 0x2AE5 DUP5 DUP3 DUP6 ADD PUSH2 0x2A50 JUMP JUMPDEST PUSH1 0x20 DUP4 ADD MSTORE POP PUSH1 0xC0 PUSH2 0x2AF9 DUP5 DUP3 DUP6 ADD PUSH2 0x2A00 JUMP JUMPDEST PUSH1 0x40 DUP4 ADD MSTORE POP SWAP3 SWAP2 POP POP JUMP JUMPDEST PUSH1 0x0 DUP2 CALLDATALOAD SWAP1 POP PUSH2 0x2B14 DUP2 PUSH2 0x2E7D JUMP JUMPDEST SWAP3 SWAP2 POP POP JUMP JUMPDEST PUSH1 0x0 DUP1 PUSH2 0x800 DUP4 DUP6 SUB SLT ISZERO PUSH2 0x2B32 JUMPI PUSH2 0x2B31 PUSH2 0x2E67 JUMP JUMPDEST JUMPDEST PUSH1 0x0 PUSH2 0x2B40 DUP6 DUP3 DUP7 ADD PUSH2 0x2AA0 JUMP JUMPDEST SWAP3 POP POP PUSH2 0x100 PUSH2 0x2B52 DUP6 DUP3 DUP7 ADD PUSH2 0x29D5 JUMP JUMPDEST SWAP2 POP POP SWAP3 POP SWAP3 SWAP1 POP JUMP JUMPDEST PUSH2 0x2B65 DUP2 PUSH2 0x2CDB JUMP JUMPDEST DUP3 MSTORE POP POP JUMP JUMPDEST PUSH1 0x0 PUSH1 0x20 DUP3 ADD SWAP1 POP PUSH2 0x2B80 PUSH1 0x0 DUP4 ADD DUP5 PUSH2 0x2B5C JUMP JUMPDEST SWAP3 SWAP2 POP POP JUMP JUMPDEST PUSH1 0x0 PUSH2 0x2B90 PUSH2 0x2BA1 JUMP JUMPDEST SWAP1 POP PUSH2 0x2B9C DUP3 DUP3 PUSH2 0x2CF1 JUMP JUMPDEST SWAP2 SWAP1 POP JUMP JUMPDEST PUSH1 0x0 PUSH1 0x40 MLOAD SWAP1 POP SWAP1 JUMP JUMPDEST PUSH1 0x0 PUSH8 0xFFFFFFFFFFFFFFFF DUP3 GT ISZERO PUSH2 0x2BC6 JUMPI PUSH2 0x2BC5 PUSH2 0x2E29 JUMP JUMPDEST JUMPDEST PUSH1 0x20 DUP3 MUL SWAP1 POP SWAP2 SWAP1 POP JUMP JUMPDEST PUSH1 0x0 PUSH8 0xFFFFFFFFFFFFFFFF DUP3 GT ISZERO PUSH2 0x2BEC JUMPI PUSH2 0x2BEB PUSH2 0x2E29 JUMP JUMPDEST JUMPDEST PUSH1 0x20 DUP3 MUL SWAP1 POP SWAP2 SWAP1 POP JUMP JUMPDEST PUSH1 0x0 PUSH2 0x2C02 DUP3 PUSH2 0x2CE7 JUMP JUMPDEST SWAP2 POP PUSH2 0x2C0D DUP4 PUSH2 0x2CE7 JUMP JUMPDEST SWAP3 POP DUP3 PUSH32 0xFFFFFFFFFFFFFFFFFFFFFFFFFFFFFFFFFFFFFFFFFFFFFFFFFFFFFFFFFFFFFFFF SUB DUP3 GT ISZERO PUSH2 0x2C42 JUMPI PUSH2 0x2C41 PUSH2 0x2D9C JUMP JUMPDEST JUMPDEST DUP3 DUP3 ADD SWAP1 POP SWAP3 SWAP2 POP POP JUMP JUMPDEST PUSH1 0x0 PUSH2 0x2C58 DUP3 PUSH2 0x2CE7 JUMP JUMPDEST SWAP2 POP PUSH2 0x2C63 DUP4 PUSH2 0x2CE7 JUMP JUMPDEST SWAP3 POP DUP2 PUSH32 0xFFFFFFFFFFFFFFFFFFFFFFFFFFFFFFFFFFFFFFFFFFFFFFFFFFFFFFFFFFFFFFFF DIV DUP4 GT DUP3 ISZERO ISZERO AND ISZERO PUSH2 0x2C9C JUMPI PUSH2 0x2C9B PUSH2 0x2D9C JUMP JUMPDEST JUMPDEST DUP3 DUP3 MUL SWAP1 POP SWAP3 SWAP2 POP POP JUMP JUMPDEST PUSH1 0x0 PUSH2 0x2CB2 DUP3 PUSH2 0x2CE7 JUMP JUMPDEST SWAP2 POP PUSH2 0x2CBD DUP4 PUSH2 0x2CE7 JUMP JUMPDEST SWAP3 POP DUP3 DUP3 LT ISZERO PUSH2 0x2CD0 JUMPI PUSH2 0x2CCF PUSH2 0x2D9C JUMP JUMPDEST JUMPDEST DUP3 DUP3 SUB SWAP1 POP SWAP3 SWAP2 POP POP JUMP JUMPDEST PUSH1 0x0 DUP2 ISZERO ISZERO SWAP1 POP SWAP2 SWAP1 POP JUMP JUMPDEST PUSH1 0x0 DUP2 SWAP1 POP SWAP2 SWAP1 POP JUMP JUMPDEST PUSH2 0x2CFA DUP3 PUSH2 0x2E6C JUMP JUMPDEST DUP2 ADD DUP2 DUP2 LT PUSH8 0xFFFFFFFFFFFFFFFF DUP3 GT OR ISZERO PUSH2 0x2D19 JUMPI PUSH2 0x2D18 PUSH2 0x2E29 JUMP JUMPDEST JUMPDEST DUP1 PUSH1 0x40 MSTORE POP POP POP JUMP JUMPDEST PUSH1 0x0 PUSH2 0x2D2D DUP3 PUSH2 0x2CE7 JUMP JUMPDEST SWAP2 POP PUSH32 0xFFFFFFFFFFFFFFFFFFFFFFFFFFFFFFFFFFFFFFFFFFFFFFFFFFFFFFFFFFFFFFFF DUP3 EQ ISZERO PUSH2 0x2D60 JUMPI PUSH2 0x2D5F PUSH2 0x2D9C JUMP JUMPDEST JUMPDEST PUSH1 0x1 DUP3 ADD SWAP1 POP SWAP2 SWAP1 POP JUMP JUMPDEST PUSH1 0x0 PUSH2 0x2D76 DUP3 PUSH2 0x2CE7 JUMP JUMPDEST SWAP2 POP PUSH2 0x2D81 DUP4 PUSH2 0x2CE7 JUMP JUMPDEST SWAP3 POP DUP3 PUSH2 0x2D91 JUMPI PUSH2 0x2D90 PUSH2 0x2DCB JUMP JUMPDEST JUMPDEST DUP3 DUP3 MOD SWAP1 POP SWAP3 SWAP2 POP POP JUMP JUMPDEST PUSH32 0x4E487B7100000000000000000000000000000000000000000000000000000000 PUSH1 0x0 MSTORE PUSH1 0x11 PUSH1 0x4 MSTORE PUSH1 0x24 PUSH1 0x0 REVERT JUMPDEST PUSH32 0x4E487B7100000000000000000000000000000000000000000000000000000000 PUSH1 0x0 MSTORE PUSH1 0x12 PUSH1 0x4 MSTORE PUSH1 0x24 PUSH1 0x0 REVERT JUMPDEST PUSH32 0x4E487B7100000000000000000000000000000000000000000000000000000000 PUSH1 0x0 MSTORE PUSH1 0x32 PUSH1 0x4 MSTORE PUSH1 0x24 PUSH1 0x0 REVERT JUMPDEST PUSH32 0x4E487B7100000000000000000000000000000000000000000000000000000000 PUSH1 0x0 MSTORE PUSH1 0x41 PUSH1 0x4 MSTORE PUSH1 0x24 PUSH1 0x0 REVERT JUMPDEST PUSH1 0x0 DUP1 REVERT JUMPDEST PUSH1 0x0 DUP1 REVERT JUMPDEST PUSH1 0x0 DUP1 REVERT JUMPDEST PUSH1 0x0 DUP1 REVERT JUMPDEST PUSH1 0x0 PUSH1 0x1F NOT PUSH1 0x1F DUP4 ADD AND SWAP1 POP SWAP2 SWAP1 POP JUMP JUMPDEST PUSH2 0x2E86 DUP2 PUSH2 0x2CE7 JUMP JUMPDEST DUP2 EQ PUSH2 0x2E91 JUMPI PUSH1 0x0 DUP1 REVERT JUMPDEST POP JUMP INVALID LOG2 PUSH5 0x6970667358 0x22 SLT KECCAK256 0xB0 0x2C PUSH15 0xE4CE396AE0283BCC563D55F3169CA9 DUP3 0x48 SHR 0xD SWAP6 MSTORE 0xE2 DUP4 XOR 0xF7 PUSH12 0xF0A9F064736F6C6343000806 STOP CALLER "},"methodIdentifiers":{"verifyTx(((uint256,uint256),(uint256[2],uint256[2]),(uint256,uint256)),uint256[56])":"b581abe6"}}}}}