{"contracts/FLSC.sol":{"FLSC":{"abi":[{"inputs":[{"internalType":"uint32","name":"_number_of_entities","type":"uint32"},{"internalType":"uint32","name":"_number_of_features","type":"uint32"},{"internalType":"uint256","name":"_funding","type":"uint256"},{"internalType":"uint256","name":"_deposit","type":"uint256"}],"stateMutability":"nonpayable","type":"constructor"},{"inputs":[],"name":"decryption_rounds","outputs":[{"internalType":"uint32","name":"","type":"uint32"}],"stateMutability":"view","type":"function"},{"inputs":[],"name":"number_of_entities","outputs":[{"internalType":"uint32","name":"","type":"uint32"}],"stateMutability":"view","type":"function"},{"inputs":[],"name":"number_of_features","outputs":[{"internalType":"uint32","name":"","type":"uint32"}],"stateMutability":"view","type":"function"},{"inputs":[{"internalType":"uint256","name":"","type":"uint256"}],"name":"public_key","outputs":[{"internalType":"uint256","name":"","type":"uint256"}],"stateMutability":"view","type":"function"},{"inputs":[{"internalType":"string","name":"class","type":"string"}],"name":"return_mu_random","outputs":[{"internalType":"uint256[][]","name":"","type":"uint256[][]"}],"stateMutability":"view","type":"function"},{"inputs":[{"internalType":"string","name":"class","type":"string"}],"name":"return_partial_decrypted_mu","outputs":[{"internalType":"uint256[][]","name":"","type":"uint256[][]"}],"stateMutability":"view","type":"function"},{"inputs":[{"internalType":"string","name":"class","type":"string"}],"name":"return_submit_count","outputs":[{"internalType":"uint32","name":"","type":"uint32"}],"stateMutability":"view","type":"function"},{"inputs":[{"internalType":"string","name":"class","type":"string"}],"name":"return_varience_partial_decrypted","outputs":[{"internalType":"uint256[][]","name":"","type":"uint256[][]"}],"stateMutability":"view","type":"function"},{"inputs":[{"internalType":"string","name":"class","type":"string"}],"name":"return_varience_random","outputs":[{"internalType":"uint256[][]","name":"","type":"uint256[][]"}],"stateMutability":"view","type":"function"},{"inputs":[],"name":"start_decryption","outputs":[],"stateMutability":"nonpayable","type":"function"},{"inputs":[{"internalType":"uint256[2]","name":"a","type":"uint256[2]"},{"internalType":"uint256[2][2]","name":"b","type":"uint256[2][2]"},{"internalType":"uint256[2]","name":"c","type":"uint256[2]"},{"internalType":"uint256[]","name":"_C_mean_prime_x","type":"uint256[]"},{"internalType":"uint256[]","name":"_C_mean_prime_y","type":"uint256[]"},{"internalType":"uint256[]","name":"_C_var_prime_x","type":"uint256[]"},{"internalType":"uint256[]","name":"_C_var_prime_y","type":"uint256[]"},{"internalType":"uint256[2]","name":"_Pk","type":"uint256[2]"},{"internalType":"string","name":"class","type":"string"}],"name":"submit_decryption","outputs":[],"stateMutability":"nonpayable","type":"function"},{"inputs":[{"internalType":"address","name":"entity","type":"address"}],"name":"submit_entity","outputs":[],"stateMutability":"nonpayable","type":"function"},{"inputs":[{"internalType":"uint256","name":"pubkey","type":"uint256"}],"name":"submit_pubkey","outputs":[],"stateMutability":"payable","type":"function"},{"inputs":[{"internalType":"uint256[2]","name":"a","type":"uint256[2]"},{"internalType":"uint256[2][2]","name":"b","type":"uint256[2][2]"},{"internalType":"uint256[2]","name":"c","type":"uint256[2]"},{"internalType":"uint256","name":"acccuracy","type":"uint256"},{"internalType":"uint256[][]","name":"_mu_R","type":"uint256[][]"},{"internalType":"uint256[][]","name":"_mu_C","type":"uint256[][]"},{"internalType":"uint256[][]","name":"vars_R","type":"uint256[][]"},{"internalType":"uint256[][]","name":"vars_C","type":"uint256[][]"},{"internalType":"string","name":"class","type":"string"}],"name":"submit_update","outputs":[],"stateMutability":"nonpayable","type":"function"}],"evm":{"bytecode":{"linkReferences":{},"object":"608060405260008060086101000a81548163ffffffff021916908363ffffffff160217905550600060025560006003556040516200003d9062000283565b604051809103906000f0801580156200005a573d6000803e3d6000fd5b50600560006101000a81548173ffffffffffffffffffffffffffffffffffffffff021916908373ffffffffffffffffffffffffffffffffffffffff160217905550604051620000a99062000291565b604051809103906000f080158015620000c6573d6000803e3d6000fd5b50600660006101000a81548173ffffffffffffffffffffffffffffffffffffffff021916908373ffffffffffffffffffffffffffffffffffffffff1602179055503480156200011457600080fd5b506040516200b3da3803806200b3da83398181016040528101906200013a919062000331565b33600760006101000a81548173ffffffffffffffffffffffffffffffffffffffff021916908373ffffffffffffffffffffffffffffffffffffffff1602179055506004600760009054906101000a900473ffffffffffffffffffffffffffffffffffffffff169080600181540180825580915050600190039060005260206000200160009091909190916101000a81548173ffffffffffffffffffffffffffffffffffffffff021916908373ffffffffffffffffffffffffffffffffffffffff160217905550826000806101000a81548163ffffffff021916908363ffffffff16021790555083600060046101000a81548163ffffffff021916908363ffffffff160217905550604051806040016040528060008152602001600181525060089060026200026a9291906200029f565b50816002819055508060038190555050505050620003f6565b612eea8062004a4b83390190565b613aa5806200793583390190565b8260028101928215620002d1579160200282015b82811115620002d0578251825591602001919060010190620002b3565b5b509050620002e09190620002e4565b5090565b5b80821115620002ff576000816000905550600101620002e5565b5090565b6000815190506200031481620003c2565b92915050565b6000815190506200032b81620003dc565b92915050565b600080600080608085870312156200034e576200034d620003bd565b5b60006200035e878288016200031a565b945050602062000371878288016200031a565b9350506040620003848782880162000303565b9250506060620003978782880162000303565b91505092959194509250565b6000819050919050565b600063ffffffff82169050919050565b600080fd5b620003cd81620003a3565b8114620003d957600080fd5b50565b620003e781620003ad565b8114620003f357600080fd5b50565b61464580620004066000396000f3fe6080604052600436106100dd5760003560e01c80638479e0d31161007f578063a261b04a11610059578063a261b04a146102c5578063bdb900fd146102dc578063dbcb1c4414610305578063ef5349d314610342576100dd565b80638479e0d31461024457806385871e491461026f57806389e3b0e51461029a576100dd565b80631f1895d0116100bb5780631f1895d0146101855780633470f117146101a15780633de222ec146101de5780636b437d3c1461021b576100dd565b806305db8c5a146100e25780630b9180c51461010b5780631c0b0b5814610148575b600080fd5b3480156100ee57600080fd5b506101096004803603810190610104919061365c565b61037f565b005b34801561011757600080fd5b50610132600480360381019061012d919061396c565b6104ed565b60405161013f9190613e3e565b60405180910390f35b34801561015457600080fd5b5061016f600480360381019061016a919061396c565b6105aa565b60405161017c9190613e3e565b60405180910390f35b61019f600480360381019061019a91906139b5565b610667565b005b3480156101ad57600080fd5b506101c860048036038101906101c3919061396c565b610743565b6040516101d59190613f31565b60405180910390f35b3480156101ea57600080fd5b50610205600480360381019061020091906139b5565b61077b565b6040516102129190613f16565b60405180910390f35b34801561022757600080fd5b50610242600480360381019061023d9190613689565b610796565b005b34801561025057600080fd5b50610259610ed7565b6040516102669190613f31565b60405180910390f35b34801561027b57600080fd5b50610284610eed565b6040516102919190613f31565b60405180910390f35b3480156102a657600080fd5b506102af610f01565b6040516102bc9190613f31565b60405180910390f35b3480156102d157600080fd5b506102da610f17565b005b3480156102e857600080fd5b5061030360048036038101906102fe91906137e4565b61113c565b005b34801561031157600080fd5b5061032c6004803603810190610327919061396c565b61221e565b6040516103399190613e3e565b60405180910390f35b34801561034e57600080fd5b506103696004803603810190610364919061396c565b6122db565b6040516103769190613e3e565b60405180910390f35b6004819080600181540180825580915050600190039060005260206000200160009091909190916101000a81548173ffffffffffffffffffffffffffffffffffffffff021916908373ffffffffffffffffffffffffffffffffffffffff1602179055506000600a60008373ffffffffffffffffffffffffffffffffffffffff1673ffffffffffffffffffffffffffffffffffffffff16815260200190815260200160002060006101000a81548160ff0219169083151502179055506001601360008373ffffffffffffffffffffffffffffffffffffffff1673ffffffffffffffffffffffffffffffffffffffff16815260200190815260200160002060006101000a81548160ff0219169083151502179055506000601460008373ffffffffffffffffffffffffffffffffffffffff1673ffffffffffffffffffffffffffffffffffffffff16815260200190815260200160002060006101000a81548160ff02191690831515021790555050565b6060600e826040516104ff9190613e10565b9081526020016040518091039020805480602002602001604051908101604052809291908181526020016000905b8282101561059f5783829060005260206000200180548060200260200160405190810160405280929190818152602001828054801561058b57602002820191906000526020600020905b815481526020019060010190808311610577575b50505050508152602001906001019061052d565b505050509050919050565b60606010826040516105bc9190613e10565b9081526020016040518091039020805480602002602001604051908101604052809291908181526020016000905b8282101561065c5783829060005260206000200180548060200260200160405190810160405280929190818152602001828054801561064857602002820191906000526020600020905b815481526020019060010190808311610634575b5050505050815260200190600101906105ea565b505050509050919050565b600354600254610677919061417b565b341461068257600080fd5b600061068d82612398565b90506106d660086002806020026040519081016040528092919082600280156106cb576020028201915b8154815260200190600101908083116106b7575b505050505082612556565b60089060026106e6929190612f19565b506001601460003373ffffffffffffffffffffffffffffffffffffffff1673ffffffffffffffffffffffffffffffffffffffff16815260200190815260200160002060006101000a81548160ff0219169083151502179055505050565b60006012826040516107559190613e10565b908152602001604051809103902060009054906101000a900463ffffffff169050919050565b6008816002811061078b57600080fd5b016000915090505481565b61079e612f59565b604051806060016040528060405180604001604052808d6000600281106107c8576107c76144a1565b5b602002015181526020018d6001600281106107e6576107e56144a1565b5b6020020151815250815260200160405180604001604052808c600060028110610812576108116144a1565b5b602002015181526020018c6001600281106108305761082f6144a1565b5b6020020151815250815260200160405180604001604052808b60006002811061085c5761085b6144a1565b5b602002015181526020018b60016002811061087a576108796144a1565b5b6020020151815250815250905061088f612f8c565b600080600090505b60068163ffffffff161015610c1c5760005b60008054906101000a900463ffffffff1663ffffffff168163ffffffff161015610c0857808260008054906101000a900463ffffffff166108ea919061420b565b6108f491906141d1565b925060008263ffffffff16141561098a57600d866040516109159190613e10565b9081526020016040518091039020600081548110610936576109356144a1565b5b906000526020600020018163ffffffff1681548110610958576109576144a1565b5b9060005260206000200154848463ffffffff166051811061097c5761097b6144a1565b5b602002018181525050610bf5565b60018263ffffffff161415610a1e57600f866040516109a99190613e10565b90815260200160405180910390206000815481106109ca576109c96144a1565b5b906000526020600020018163ffffffff16815481106109ec576109eb6144a1565b5b9060005260206000200154848463ffffffff1660518110610a1057610a0f6144a1565b5b602002018181525050610bf4565b60028263ffffffff161415610a75578a8163ffffffff1681518110610a4657610a456144a1565b5b6020026020010151848463ffffffff1660518110610a6757610a666144a1565b5b602002018181525050610bf3565b60038263ffffffff161415610b0957600e86604051610a949190613e10565b9081526020016040518091039020600081548110610ab557610ab46144a1565b5b906000526020600020018163ffffffff1681548110610ad757610ad66144a1565b5b9060005260206000200154848463ffffffff1660518110610afb57610afa6144a1565b5b602002018181525050610bf2565b60048263ffffffff161415610b9d57601086604051610b289190613e10565b9081526020016040518091039020600081548110610b4957610b486144a1565b5b906000526020600020018163ffffffff1681548110610b6b57610b6a6144a1565b5b9060005260206000200154848463ffffffff1660518110610b8f57610b8e6144a1565b5b602002018181525050610bf1565b60058263ffffffff161415610bf057888163ffffffff1681518110610bc557610bc46144a1565b5b6020026020010151848463ffffffff1660518110610be657610be56144a1565b5b6020020181815250505b5b5b5b5b5b8080610c00906143e7565b9150506108a9565b508080610c14906143e7565b915050610897565b5084600060028110610c3157610c306144a1565b5b602002015182600183610c4491906141d1565b63ffffffff1660518110610c5b57610c5a6144a1565b5b60200201818152505084600160028110610c7857610c776144a1565b5b602002015182600283610c8b91906141d1565b63ffffffff1660518110610ca257610ca16144a1565b5b602002018181525050600182600383610cbb91906141d1565b63ffffffff1660518110610cd257610cd16144a1565b5b602002018181525050600660009054906101000a900473ffffffffffffffffffffffffffffffffffffffff1673ffffffffffffffffffffffffffffffffffffffff1663eefa323d84846040518363ffffffff1660e01b8152600401610d38929190613eeb565b60206040518083038186803b158015610d5057600080fd5b505afa158015610d64573d6000803e3d6000fd5b505050506040513d601f19601f82011682018060405250810190610d88919061393f565b610dc7576040517f08c379a0000000000000000000000000000000000000000000000000000000008152600401610dbe90613ea0565b60405180910390fd5b601560003373ffffffffffffffffffffffffffffffffffffffff1673ffffffffffffffffffffffffffffffffffffffff168152602001908152602001600020600081819054906101000a900463ffffffff1680929190610e26906143e7565b91906101000a81548163ffffffff021916908363ffffffff1602179055505060405180604001604052808a815260200189815250600f85604051610e6a9190613e10565b9081526020016040518091039020906002610e86929190612faf565b50604051806040016040528088815260200187815250601085604051610eac9190613e10565b9081526020016040518091039020906002610ec8929190612faf565b50505050505050505050505050565b600060089054906101000a900463ffffffff1681565b60008054906101000a900463ffffffff1681565b600060049054906101000a900463ffffffff1681565b600760009054906101000a900473ffffffffffffffffffffffffffffffffffffffff1673ffffffffffffffffffffffffffffffffffffffff163373ffffffffffffffffffffffffffffffffffffffff1614610fa7576040517f08c379a0000000000000000000000000000000000000000000000000000000008152600401610f9e90613e60565b60405180910390fd5b6000600180549050905060005b818163ffffffff1610156110f757600b60018263ffffffff1681548110610fde57610fdd6144a1565b5b90600052602060002001604051610ff59190613e27565b9081526020016040518091039020600f60018363ffffffff168154811061101f5761101e6144a1565b5b906000526020600020016040516110369190613e27565b908152602001604051809103902090805461105292919061300f565b50600c60018263ffffffff168154811061106f5761106e6144a1565b5b906000526020600020016040516110869190613e27565b9081526020016040518091039020601060018363ffffffff16815481106110b0576110af6144a1565b5b906000526020600020016040516110c79190613e27565b90815260200160405180910390209080546110e392919061300f565b5080806110ef906143e7565b915050610fb4565b506000600881819054906101000a900463ffffffff168092919061111a906143e7565b91906101000a81548163ffffffff021916908363ffffffff1602179055505050565b61114461306e565b61114c613091565b6111546130c4565b8883600060388110611169576111686144a1565b5b602002018181525050604051806060016040528060405180604001604052808f60006002811061119c5761119b6144a1565b5b602002015181526020018f6001600281106111ba576111b96144a1565b5b6020020151815250815260200160405180604001604052808e6000600281106111e6576111e56144a1565b5b602002015181526020018e600160028110611204576112036144a1565b5b6020020151815250815260200160405180604001604052808d6000600281106112305761122f6144a1565b5b602002015181526020018d60016002811061124e5761124d6144a1565b5b60200201518152508152509150600080600090505b60048163ffffffff1610156114bc5760005b60008054906101000a900463ffffffff1663ffffffff168163ffffffff1610156114a8576001818360008054906101000a900463ffffffff166112b8919061420b565b6112c291906141d1565b6112cc91906141d1565b925060008263ffffffff161415611340578a6000815181106112f1576112f06144a1565b5b60200260200101518163ffffffff1681518110611311576113106144a1565b5b6020026020010151868463ffffffff1660388110611332576113316144a1565b5b602002018181525050611495565b60018263ffffffff1614156113b25789600081518110611363576113626144a1565b5b60200260200101518163ffffffff1681518110611383576113826144a1565b5b6020026020010151868463ffffffff16603881106113a4576113a36144a1565b5b602002018181525050611494565b60028263ffffffff16141561142457886000815181106113d5576113d46144a1565b5b60200260200101518163ffffffff16815181106113f5576113f46144a1565b5b6020026020010151868463ffffffff1660388110611416576114156144a1565b5b602002018181525050611493565b60038263ffffffff1614156114925787600081518110611447576114466144a1565b5b60200260200101518163ffffffff1681518110611467576114666144a1565b5b6020026020010151868463ffffffff1660388110611488576114876144a1565b5b6020020181815250505b5b5b5b80806114a0906143e7565b915050611275565b5080806114b4906143e7565b915050611263565b5060086000600281106114d2576114d16144a1565b5b0154846001836114e291906141d1565b63ffffffff16603881106114f9576114f86144a1565b5b6020020181815250506008600160028110611517576115166144a1565b5b01548460028361152791906141d1565b63ffffffff166038811061153e5761153d6144a1565b5b60200201818152505060018460038361155791906141d1565b63ffffffff166038811061156e5761156d6144a1565b5b602002018181525050600560009054906101000a900473ffffffffffffffffffffffffffffffffffffffff1673ffffffffffffffffffffffffffffffffffffffff1663b581abe684866040518363ffffffff1660e01b81526004016115d4929190613ec0565b60206040518083038186803b1580156115ec57600080fd5b505afa158015611600573d6000803e3d6000fd5b505050506040513d601f19601f82011682018060405250810190611624919061393f565b611663576040517f08c379a000000000000000000000000000000000000000000000000000000000815260040161165a90613e80565b60405180910390fd5b60016012866040516116759190613e10565b908152602001604051809103902060008282829054906101000a900463ffffffff166116a191906141d1565b92506101000a81548163ffffffff021916908363ffffffff1602179055506011856040516116cf9190613e10565b908152602001604051809103902060009054906101000a900460ff166118335760018590806001815401808255809150506001900390600052602060002001600090919091909150908051906020019061172a9291906130e6565b5087600b8660405161173c9190613e10565b9081526020016040518091039020908051906020019061175d92919061316c565b5085600c8660405161176f9190613e10565b9081526020016040518091039020908051906020019061179092919061316c565b5060016011866040516117a39190613e10565b908152602001604051809103902060006101000a81548160ff02191690831515021790555088600d866040516117d99190613e10565b908152602001604051809103902090805190602001906117fa92919061316c565b5086600e8660405161180c9190613e10565b9081526020016040518091039020908051906020019061182d92919061316c565b5061220f565b60005b60008054906101000a900463ffffffff1663ffffffff168163ffffffff16101561220d576119cc6118f060405180604001604052808c60008151811061187f5761187e6144a1565b5b60200260200101518563ffffffff168151811061189f5761189e6144a1565b5b602002602001015181526020018c6001815181106118c0576118bf6144a1565b5b60200260200101518563ffffffff16815181106118e0576118df6144a1565b5b602002602001015181525061289e565b6119c76040518060400160405280600b8b60405161190e9190613e10565b908152602001604051809103902060008154811061192f5761192e6144a1565b5b906000526020600020018663ffffffff1681548110611951576119506144a1565b5b90600052602060002001548152602001600b8b6040516119719190613e10565b9081526020016040518091039020600181548110611992576119916144a1565b5b906000526020600020018663ffffffff16815481106119b4576119b36144a1565b5b906000526020600020015481525061289e565b6129b5565b9250826000600281106119e2576119e16144a1565b5b6020020151600b876040516119f79190613e10565b9081526020016040518091039020600081548110611a1857611a176144a1565b5b906000526020600020018263ffffffff1681548110611a3a57611a396144a1565b5b906000526020600020018190555082600160028110611a5c57611a5b6144a1565b5b6020020151600b87604051611a719190613e10565b9081526020016040518091039020600181548110611a9257611a916144a1565b5b906000526020600020018263ffffffff1681548110611ab457611ab36144a1565b5b9060005260206000200181905550611c34611b5860405180604001604052808a600081518110611ae757611ae66144a1565b5b60200260200101518563ffffffff1681518110611b0757611b066144a1565b5b602002602001015181526020018a600181518110611b2857611b276144a1565b5b60200260200101518563ffffffff1681518110611b4857611b476144a1565b5b602002602001015181525061289e565b611c2f6040518060400160405280600c8b604051611b769190613e10565b9081526020016040518091039020600081548110611b9757611b966144a1565b5b906000526020600020018663ffffffff1681548110611bb957611bb86144a1565b5b90600052602060002001548152602001600c8b604051611bd99190613e10565b9081526020016040518091039020600181548110611bfa57611bf96144a1565b5b906000526020600020018663ffffffff1681548110611c1c57611c1b6144a1565b5b906000526020600020015481525061289e565b6129b5565b925082600060028110611c4a57611c496144a1565b5b6020020151600c87604051611c5f9190613e10565b9081526020016040518091039020600081548110611c8057611c7f6144a1565b5b906000526020600020018263ffffffff1681548110611ca257611ca16144a1565b5b906000526020600020018190555082600160028110611cc457611cc36144a1565b5b6020020151600c87604051611cd99190613e10565b9081526020016040518091039020600181548110611cfa57611cf96144a1565b5b906000526020600020018263ffffffff1681548110611d1c57611d1b6144a1565b5b9060005260206000200181905550611e9c611dc060405180604001604052808d600081518110611d4f57611d4e6144a1565b5b60200260200101518563ffffffff1681518110611d6f57611d6e6144a1565b5b602002602001015181526020018d600181518110611d9057611d8f6144a1565b5b60200260200101518563ffffffff1681518110611db057611daf6144a1565b5b602002602001015181525061289e565b611e976040518060400160405280600d8b604051611dde9190613e10565b9081526020016040518091039020600081548110611dff57611dfe6144a1565b5b906000526020600020018663ffffffff1681548110611e2157611e206144a1565b5b90600052602060002001548152602001600d8b604051611e419190613e10565b9081526020016040518091039020600181548110611e6257611e616144a1565b5b906000526020600020018663ffffffff1681548110611e8457611e836144a1565b5b906000526020600020015481525061289e565b6129b5565b925082600060028110611eb257611eb16144a1565b5b6020020151600d87604051611ec79190613e10565b9081526020016040518091039020600081548110611ee857611ee76144a1565b5b906000526020600020018263ffffffff1681548110611f0a57611f096144a1565b5b906000526020600020018190555082600160028110611f2c57611f2b6144a1565b5b6020020151600d87604051611f419190613e10565b9081526020016040518091039020600181548110611f6257611f616144a1565b5b906000526020600020018263ffffffff1681548110611f8457611f836144a1565b5b906000526020600020018190555061210461202860405180604001604052808b600081518110611fb757611fb66144a1565b5b60200260200101518563ffffffff1681518110611fd757611fd66144a1565b5b602002602001015181526020018b600181518110611ff857611ff76144a1565b5b60200260200101518563ffffffff1681518110612018576120176144a1565b5b602002602001015181525061289e565b6120ff6040518060400160405280600e8b6040516120469190613e10565b9081526020016040518091039020600081548110612067576120666144a1565b5b906000526020600020018663ffffffff1681548110612089576120886144a1565b5b90600052602060002001548152602001600e8b6040516120a99190613e10565b90815260200160405180910390206001815481106120ca576120c96144a1565b5b906000526020600020018663ffffffff16815481106120ec576120eb6144a1565b5b906000526020600020015481525061289e565b6129b5565b92508260006002811061211a576121196144a1565b5b6020020151600e8760405161212f9190613e10565b90815260200160405180910390206000815481106121505761214f6144a1565b5b906000526020600020018263ffffffff1681548110612172576121716144a1565b5b906000526020600020018190555082600160028110612194576121936144a1565b5b6020020151600e876040516121a99190613e10565b90815260200160405180910390206001815481106121ca576121c96144a1565b5b906000526020600020018263ffffffff16815481106121ec576121eb6144a1565b5b90600052602060002001819055508080612205906143e7565b915050611836565b505b50505050505050505050505050565b6060600f826040516122309190613e10565b9081526020016040518091039020805480602002602001604051908101604052809291908181526020016000905b828210156122d0578382906000526020600020018054806020026020016040519081016040528092919081815260200182805480156122bc57602002820191906000526020600020905b8154815260200190600101908083116122a8575b50505050508152602001906001019061225e565b505050509050919050565b6060600d826040516122ed9190613e10565b9081526020016040518091039020805480602002602001604051908101604052809291908181526020016000905b8282101561238d5783829060005260206000200180548060200260200160405190810160405280929190818152602001828054801561237957602002820191906000526020600020905b815481526020019060010190808311612365575b50505050508152602001906001019061231b565b505050509050919050565b6123a06130c4565b6000807f800000000000000000000000000000000000000000000000000000000000000084161415905060007f7fffffffffffffffffffffffffffffffffffffffffffffffffffffffffffffff8416905060007f30644e72e131a029b85045b68181585d2833e84879b9709143e1f593f00000018061242257612421614443565b5b828309905060007f30644e72e131a029b85045b68181585d2833e84879b9709143e1f593f00000018061245857612457614443565b5b6124a161249c620292fc7f30644e72e131a029b85045b68181585d2833e84879b9709143e1f593f00000018061249157612490614443565b5b86620292f8096129dd565b612a44565b6124ac6001856129dd565b09905060006124ba82612a77565b905060007f183227397098d014dc2822db40c0ac2e9419f4243cdcb848a1f0fac9f8000000821190508580156124ee575080155b806125005750851580156124ff5750805b5b1561253457817f30644e72e131a029b85045b68181585d2833e84879b9709143e1f593f0000001612531919061427d565b91505b6040518060400160405280838152602001868152509650505050505050919050565b61255e6130c4565b60007f30644e72e131a029b85045b68181585d2833e84879b9709143e1f593f00000018061258f5761258e614443565b5b836000600281106125a3576125a26144a1565b5b6020020151856000600281106125bc576125bb6144a1565b5b602002015109905060007f30644e72e131a029b85045b68181585d2833e84879b9709143e1f593f0000001806125f5576125f4614443565b5b84600160028110612609576126086144a1565b5b602002015186600160028110612622576126216144a1565b5b602002015109905060007f30644e72e131a029b85045b68181585d2833e84879b9709143e1f593f00000018061265b5761265a614443565b5b7f30644e72e131a029b85045b68181585d2833e84879b9709143e1f593f00000018061268a57612689614443565b5b838509620292f809905060007f30644e72e131a029b85045b68181585d2833e84879b9709143e1f593f0000001806126c5576126c4614443565b5b7f30644e72e131a029b85045b68181585d2833e84879b9709143e1f593f0000001806126f4576126f3614443565b5b87600060028110612708576127076144a1565b5b602002015189600160028110612721576127206144a1565b5b6020020151097f30644e72e131a029b85045b68181585d2833e84879b9709143e1f593f00000018061275657612755614443565b5b8860016002811061276a576127696144a1565b5b60200201518a600060028110612783576127826144a1565b5b60200201510908905060006127cc847f30644e72e131a029b85045b68181585d2833e84879b9709143e1f593f0000001806127c1576127c0614443565b5b87620292fc096129dd565b905060405180604001604052807f30644e72e131a029b85045b68181585d2833e84879b9709143e1f593f00000018061280857612807614443565b5b6128437f30644e72e131a029b85045b68181585d2833e84879b9709143e1f593f00000018061283a57612839614443565b5b87600108612a44565b850981526020017f30644e72e131a029b85045b68181585d2833e84879b9709143e1f593f00000018061287957612878614443565b5b61288c6128876001886129dd565b612a44565b84098152509550505050505092915050565b6128a66131cc565b816000600281106128ba576128b96144a1565b5b6020020151816000600481106128d3576128d26144a1565b5b602002018181525050816001600281106128f0576128ef6144a1565b5b602002015181600160048110612909576129086144a1565b5b6020020181815250507f30644e72e131a029b85045b68181585d2833e84879b9709143e1f593f00000018061294157612940614443565b5b82600160028110612955576129546144a1565b5b60200201518360006002811061296e5761296d6144a1565b5b60200201510981600260048110612988576129876144a1565b5b6020020181815250506001816003600481106129a7576129a66144a1565b5b602002018181525050919050565b6129bd6130c4565b60006129c98484612c95565b90506129d481612da4565b91505092915050565b60007f30644e72e131a029b85045b68181585d2833e84879b9709143e1f593f000000180612a0e57612a0d614443565b5b827f30644e72e131a029b85045b68181585d2833e84879b9709143e1f593f0000001612a3a919061427d565b8408905092915050565b6000612a70827f30644e72e131a029b85045b68181585d2833e84879b9709143e1f593efffffff612ea5565b9050919050565b6000612aa0827c0183227397098d014dc2822db40c0ac2e9419f4243cdcb848a1f0faca0612ea5565b90506000612acb837c030644e72e131a029b85045b68181585d2833e84879b9709143e1f593f612ea5565b905060007f2a3c09f0a58a7e8500e0a7eb8ef62abc402d111e41112ed49bd61b6e725b19f09050600080601c905060005b600115612c8a57600090508492505b60018314612b5a577f30644e72e131a029b85045b68181585d2833e84879b9709143e1f593f000000180612b4257612b41614443565b5b83840992508080612b52906143bc565b915050612b0b565b60008161ffff161415612b71575050505050612c90565b83925060005b60018284612b859190614249565b612b8f9190614249565b61ffff168161ffff161015612be5577f30644e72e131a029b85045b68181585d2833e84879b9709143e1f593f000000180612bcd57612bcc614443565b5b84850993508080612bdd906143bc565b915050612b77565b507f30644e72e131a029b85045b68181585d2833e84879b9709143e1f593f000000180612c1557612c14614443565b5b83840993507f30644e72e131a029b85045b68181585d2833e84879b9709143e1f593f000000180612c4957612c48614443565b5b86840995507f30644e72e131a029b85045b68181585d2833e84879b9709143e1f593f000000180612c7d57612c7c614443565b5b8486099450809150612afc565b50505050505b919050565b612c9d6131cc565b7f30644e72e131a029b85045b68181585d2833e84879b9709143e1f593f0000001620292fc620292f88285518751098360208701516020890151098460408801518660408b015186090985606089015160608b015109868760208b01518b51088860208d01518d51080960018501811015612d185787810190505b8785820306905060018401811015612d305787810190505b878482030690508160018401811015612d495788810190505b888482030690508884840889878a098660018201811015612d6a578b810190505b8b8282030690508b8486098d528b81840960208e01528b81860960408e01528b83850960608e015250505050505050505050505092915050565b612dac6130c4565b6000612dcf83600360048110612dc557612dc46144a1565b5b6020020151612a44565b90507f30644e72e131a029b85045b68181585d2833e84879b9709143e1f593f000000180612e0057612dff614443565b5b8184600060048110612e1557612e146144a1565b5b60200201510982600060028110612e2f57612e2e6144a1565b5b6020020181815250507f30644e72e131a029b85045b68181585d2833e84879b9709143e1f593f000000180612e6757612e66614443565b5b8184600160048110612e7c57612e7b6144a1565b5b60200201510982600160028110612e9657612e956144a1565b5b60200201818152505050919050565b60007f30644e72e131a029b85045b68181585d2833e84879b9709143e1f593f000000160405160208152602080820152602060408201528460608201528360808201528160a082015260208160c08360055afa8060008114612f0a5782519450612f0f565b600080fd5b5050505092915050565b8260028101928215612f48579160200282015b82811115612f47578251825591602001919060010190612f2c565b5b509050612f5591906131ee565b5090565b6040518060600160405280612f6c61320b565b8152602001612f79613225565b8152602001612f8661320b565b81525090565b60405180610a200160405280605190602082028036833780820191505090505090565b828054828255906000526020600020908101928215612ffe579160200282015b82811115612ffd578251829080519060200190612fed92919061324b565b5091602001919060010190612fcf565b5b50905061300b9190613298565b5090565b82805482825590600052602060002090810192821561305d5760005260206000209182015b8281111561305c57828290805461304c9291906132bc565b5091600101919060010190613034565b5b50905061306a9190613298565b5090565b604051806107000160405280603890602082028036833780820191505090505090565b60405180606001604052806130a461320b565b81526020016130b1613225565b81526020016130be61320b565b81525090565b6040518060400160405280600290602082028036833780820191505090505090565b8280546130f290614359565b90600052602060002090601f016020900481019282613114576000855561315b565b82601f1061312d57805160ff191683800117855561315b565b8280016001018555821561315b579182015b8281111561315a57825182559160200191906001019061313f565b5b50905061316891906131ee565b5090565b8280548282559060005260206000209081019282156131bb579160200282015b828111156131ba5782518290805190602001906131aa92919061324b565b509160200191906001019061318c565b5b5090506131c89190613298565b5090565b6040518060800160405280600490602082028036833780820191505090505090565b5b808211156132075760008160009055506001016131ef565b5090565b604051806040016040528060008152602001600081525090565b60405180604001604052806132386130c4565b81526020016132456130c4565b81525090565b828054828255906000526020600020908101928215613287579160200282015b8281111561328657825182559160200191906001019061326b565b5b50905061329491906131ee565b5090565b5b808211156132b857600081816132af919061330e565b50600101613299565b5090565b8280548282559060005260206000209081019282156132fd5760005260206000209182015b828111156132fc5782548255916001019190600101906132e1565b5b50905061330a91906131ee565b5090565b508054600082559060005260206000209081019061332c91906131ee565b50565b600061334261333d84613f71565b613f4c565b9050808285604086028201111561335c5761335b614504565b5b60005b8581101561338c578161337288826135ab565b84526020840193506040830192505060018101905061335f565b5050509392505050565b60006133a96133a484613f97565b613f4c565b905080838252602082019050828560208602820111156133cc576133cb614504565b5b60005b8581101561341a57813567ffffffffffffffff8111156133f2576133f16144ff565b5b8086016133ff89826135d6565b855260208501945060208401935050506001810190506133cf565b5050509392505050565b600061343761343284613fc3565b613f4c565b9050808285602086028201111561345157613450614504565b5b60005b8581101561348157816134678882613647565b845260208401935060208301925050600181019050613454565b5050509392505050565b600061349e61349984613fe9565b613f4c565b905080838252602082019050828560208602820111156134c1576134c0614504565b5b60005b858110156134f157816134d78882613647565b8452602084019350602083019250506001810190506134c4565b5050509392505050565b600061350e61350984614015565b613f4c565b90508281526020810184848401111561352a57613529614509565b5b613535848285614317565b509392505050565b60008135905061354c816145ca565b92915050565b600082601f830112613567576135666144ff565b5b600261357484828561332f565b91505092915050565b600082601f830112613592576135916144ff565b5b81356135a2848260208601613396565b91505092915050565b600082601f8301126135c0576135bf6144ff565b5b60026135cd848285613424565b91505092915050565b600082601f8301126135eb576135ea6144ff565b5b81356135fb84826020860161348b565b91505092915050565b600081519050613613816145e1565b92915050565b600082601f83011261362e5761362d6144ff565b5b813561363e8482602086016134fb565b91505092915050565b600081359050613656816145f8565b92915050565b60006020828403121561367257613671614513565b5b60006136808482850161353d565b91505092915050565b60008060008060008060008060006101e08a8c0312156136ac576136ab614513565b5b60006136ba8c828d016135ab565b99505060406136cb8c828d01613552565b98505060c06136dc8c828d016135ab565b9750506101008a013567ffffffffffffffff8111156136fe576136fd61450e565b5b61370a8c828d016135d6565b9650506101208a013567ffffffffffffffff81111561372c5761372b61450e565b5b6137388c828d016135d6565b9550506101408a013567ffffffffffffffff81111561375a5761375961450e565b5b6137668c828d016135d6565b9450506101608a013567ffffffffffffffff8111156137885761378761450e565b5b6137948c828d016135d6565b9350506101806137a68c828d016135ab565b9250506101c08a013567ffffffffffffffff8111156137c8576137c761450e565b5b6137d48c828d01613619565b9150509295985092959850929598565b60008060008060008060008060006101c08a8c03121561380757613806614513565b5b60006138158c828d016135ab565b99505060406138268c828d01613552565b98505060c06138378c828d016135ab565b9750506101006138498c828d01613647565b9650506101208a013567ffffffffffffffff81111561386b5761386a61450e565b5b6138778c828d0161357d565b9550506101408a013567ffffffffffffffff8111156138995761389861450e565b5b6138a58c828d0161357d565b9450506101608a013567ffffffffffffffff8111156138c7576138c661450e565b5b6138d38c828d0161357d565b9350506101808a013567ffffffffffffffff8111156138f5576138f461450e565b5b6139018c828d0161357d565b9250506101a08a013567ffffffffffffffff8111156139235761392261450e565b5b61392f8c828d01613619565b9150509295985092959850929598565b60006020828403121561395557613954614513565b5b600061396384828501613604565b91505092915050565b60006020828403121561398257613981614513565b5b600082013567ffffffffffffffff8111156139a05761399f61450e565b5b6139ac84828501613619565b91505092915050565b6000602082840312156139cb576139ca614513565b5b60006139d984828501613647565b91505092915050565b60006139ee8383613b88565b905092915050565b6000613a028383613de3565b60208301905092915050565b6000613a1982614099565b613a23818561411c565b935083602082028501613a3585614046565b8060005b85811015613a715784840389528151613a5285826139e2565b9450613a5d836140db565b925060208a01995050600181019050613a39565b50829750879550505050505092915050565b613a8c816140a4565b613a96818461412d565b9250613aa182614056565b8060005b83811015613ad2578151613ab987826139f6565b9650613ac4836140e8565b925050600181019050613aa5565b505050505050565b613ae3816140af565b613aed8184614138565b9250613af882614060565b8060005b83811015613b29578151613b1087826139f6565b9650613b1b836140f5565b925050600181019050613afc565b505050505050565b613b3a816140ba565b613b448184614143565b9250613b4f8261406a565b8060005b83811015613b80578151613b6787826139f6565b9650613b7283614102565b925050600181019050613b53565b505050505050565b6000613b93826140c5565b613b9d818561414e565b9350613ba883614074565b8060005b83811015613bd9578151613bc088826139f6565b9750613bcb8361410f565b925050600181019050613bac565b5085935050505092915050565b6000613bf1826140d0565b613bfb8185614170565b9350613c0b818560208601614326565b80840191505092915050565b60008154613c2481614359565b613c2e8186614170565b94506001821660008114613c495760018114613c5a57613c8d565b60ff19831686528186019350613c8d565b613c6385614084565b60005b83811015613c8557815481890152600182019150602081019050613c66565b838801955050505b50505092915050565b6000613ca3602a8361415f565b9150613cae82614529565b604082019050919050565b6000613cc6601e8361415f565b9150613cd182614578565b602082019050919050565b6000613ce960168361415f565b9150613cf4826145a1565b602082019050919050565b604082016000820151613d156000850182613de3565b506020820151613d286020850182613de3565b50505050565b608082016000820151613d446000850182613a83565b506020820151613d576040850182613a83565b50505050565b61010082016000820151613d746000850182613cff565b506020820151613d876040850182613d2e565b506040820151613d9a60c0850182613cff565b50505050565b61010082016000820151613db76000850182613cff565b506020820151613dca6040850182613d2e565b506040820151613ddd60c0850182613cff565b50505050565b613dec816142fd565b82525050565b613dfb816142fd565b82525050565b613e0a81614307565b82525050565b6000613e1c8284613be6565b915081905092915050565b6000613e338284613c17565b915081905092915050565b60006020820190508181036000830152613e588184613a0e565b905092915050565b60006020820190508181036000830152613e7981613c96565b9050919050565b60006020820190508181036000830152613e9981613cb9565b9050919050565b60006020820190508181036000830152613eb981613cdc565b9050919050565b600061080082019050613ed66000830185613d5d565b613ee4610100830184613ada565b9392505050565b6000610b2082019050613f016000830185613da0565b613f0f610100830184613b31565b9392505050565b6000602082019050613f2b6000830184613df2565b92915050565b6000602082019050613f466000830184613e01565b92915050565b6000613f56613f67565b9050613f62828261438b565b919050565b6000604051905090565b600067ffffffffffffffff821115613f8c57613f8b6144d0565b5b602082029050919050565b600067ffffffffffffffff821115613fb257613fb16144d0565b5b602082029050602081019050919050565b600067ffffffffffffffff821115613fde57613fdd6144d0565b5b602082029050919050565b600067ffffffffffffffff821115614004576140036144d0565b5b602082029050602081019050919050565b600067ffffffffffffffff8211156140305761402f6144d0565b5b61403982614518565b9050602081019050919050565b6000819050602082019050919050565b6000819050919050565b6000819050919050565b6000819050919050565b6000819050602082019050919050565b60008190508160005260206000209050919050565b600081519050919050565b600060029050919050565b600060389050919050565b600060519050919050565b600081519050919050565b600081519050919050565b6000602082019050919050565b6000602082019050919050565b6000602082019050919050565b6000602082019050919050565b6000602082019050919050565b600082825260208201905092915050565b600081905092915050565b600081905092915050565b600081905092915050565b600082825260208201905092915050565b600082825260208201905092915050565b600081905092915050565b6000614186826142fd565b9150614191836142fd565b9250827fffffffffffffffffffffffffffffffffffffffffffffffffffffffffffffffff038211156141c6576141c5614414565b5b828201905092915050565b60006141dc82614307565b91506141e783614307565b92508263ffffffff03821115614200576141ff614414565b5b828201905092915050565b600061421682614307565b915061422183614307565b92508163ffffffff048311821515161561423e5761423d614414565b5b828202905092915050565b6000614254826142cf565b915061425f836142cf565b92508282101561427257614271614414565b5b828203905092915050565b6000614288826142fd565b9150614293836142fd565b9250828210156142a6576142a5614414565b5b828203905092915050565b60006142bc826142dd565b9050919050565b60008115159050919050565b600061ffff82169050919050565b600073ffffffffffffffffffffffffffffffffffffffff82169050919050565b6000819050919050565b600063ffffffff82169050919050565b82818337600083830152505050565b60005b83811015614344578082015181840152602081019050614329565b83811115614353576000848401525b50505050565b6000600282049050600182168061437157607f821691505b6020821081141561438557614384614472565b5b50919050565b61439482614518565b810181811067ffffffffffffffff821117156143b3576143b26144d0565b5b80604052505050565b60006143c7826142cf565b915061ffff8214156143dc576143db614414565b5b600182019050919050565b60006143f282614307565b915063ffffffff82141561440957614408614414565b5b600182019050919050565b7f4e487b7100000000000000000000000000000000000000000000000000000000600052601160045260246000fd5b7f4e487b7100000000000000000000000000000000000000000000000000000000600052601260045260246000fd5b7f4e487b7100000000000000000000000000000000000000000000000000000000600052602260045260246000fd5b7f4e487b7100000000000000000000000000000000000000000000000000000000600052603260045260246000fd5b7f4e487b7100000000000000000000000000000000000000000000000000000000600052604160045260246000fd5b600080fd5b600080fd5b600080fd5b600080fd5b600080fd5b6000601f19601f8301169050919050565b7f4f6e6c7920746865206d6f64657261746f722063616e2063616c6c207468697360008201527f2066756e6374696f6e2100000000000000000000000000000000000000000000602082015250565b7f4d6f64656c20757064617465206d757374206265207665726966696564210000600082015250565b7f50726f6f66206d75737420626520766572696669656400000000000000000000600082015250565b6145d3816142b1565b81146145de57600080fd5b50565b6145ea816142c3565b81146145f557600080fd5b50565b614601816142fd565b811461460c57600080fd5b5056fea2646970667358221220113cff4ae98046ea889cacab5d5baef2dbaf25646306cab3348e6dca8bad9d3864736f6c63430008060033608060405234801561001057600080fd5b50612eca806100206000396000f3fe608060405234801561001057600080fd5b506004361061002b5760003560e01c8063b581abe614610030575b600080fd5b61004a60048036038101906100459190612b1a565b610060565b6040516100579190612b6b565b60405180910390f35b600080603867ffffffffffffffff81111561007e5761007d612e29565b5b6040519080825280602002602001820160405280156100ac5781602001602082028036833780820191505090505b50905060005b6038811015610105578381603881106100ce576100cd612dfa565b5b60200201518282815181106100e6576100e5612dfa565b5b60200260200101818152505080806100fd90612d22565b9150506100b2565b506000610112828661012e565b1415610122576001915050610128565b60009150505b92915050565b6000807f30644e72e131a029b85045b68181585d2833e84879b9709143e1f593f00000019050600061015e6102c5565b9050806080015151600186516101749190612bf7565b1461017e57600080fd5b60006040518060400160405280600081526020016000815250905060005b865181101561023757838782815181106101b9576101b8612dfa565b5b6020026020010151106101cb57600080fd5b6102228261021d85608001516001856101e49190612bf7565b815181106101f5576101f4612dfa565b5b60200260200101518a85815181106102105761020f612dfa565b5b602002602001015161208c565b612133565b9150808061022f90612d22565b91505061019c565b5061026181836080015160008151811061025457610253612dfa565b5b6020026020010151612133565b90506102a78560000151866020015161027984612200565b856040015161028b8a60400151612200565b876060015161029d8960000151612200565b89602001516122a5565b6102b757600193505050506102bf565b600093505050505b92915050565b6102cd6127cd565b60405180604001604052807f113b419965fdcf38b879f8d1074a6c07750dd4717275163f7fc6fec138687bba81526020017f1753126c8ac38a9e150402a363d3fd615bdd4b443454e690ceedfa32ecdd58328152508160000181905250604051806040016040528060405180604001604052807f29b6f531b5368bf48fea514e149363f99629f5b28c311f52222d899b8098fa5681526020017f0f374799d4a7849e83b2ca34ba71e95f9653f62bd1513cfabb500e86b8dac1c1815250815260200160405180604001604052807e0726d5fe93aed68fcf667f4d44df823a2201dad94afad2ee976ff1392305df81526020017f20954669a5df07c294c5c758a39afa7b6779dff77a021b25ce7fc70a89d32ab58152508152508160200181905250604051806040016040528060405180604001604052807f1c42fb963f3b818457bdbf67d33a8272914e7a363500f7021ff5208f4f80345581526020017f213953c4e98416683043e300a794dc30b64b925c291a21ed49f76e14fa2c5e3d815250815260200160405180604001604052807e81877eeb5f3b4591040dcb733a1f7699d353ebe628fe6210ce1add4f0ee54681526020017f20a69e8e94b67d26cd3fa4362807e8fc10f5233f256c79f86f8c24644b1665718152508152508160400181905250604051806040016040528060405180604001604052807f207e8c7f65bfa2b1fb2477a5aa74ae578f034048b746f28bc56b1132a328b3f481526020017f0a61d08dd445b2e9b5421a93f6d8cf00d8e990b1b4c24b63f2e344873e0f6a63815250815260200160405180604001604052807f25943b319c18ed02d2e3d1d1f4e5b09147be2544a77c64f301dea2ac19a6c95b81526020017f2c96f1c46cb5e83297695af6f6259b4fac6784cbc893e872d6b27d5070c0cf9b8152508152508160600181905250603967ffffffffffffffff81111561059257610591612e29565b5b6040519080825280602002602001820160405280156105cb57816020015b6105b8612814565b8152602001906001900390816105b05790505b50816080018190525060405180604001604052807f20345b803c0e7b926bb3e248db729493185580721b09dd7b99647d3523be46e381526020017f162e396068c2352c4c3f6cd59eeaceedfe40dc0babe43acd5d7128c3ddc7bed0815250816080015160008151811061064157610640612dfa565b5b602002602001018190525060405180604001604052807f1b45b4c308c3f67246682a6774aac77d634de4410250a730ca4c8eb72062711d81526020017f03b78393c08ae016f5f8365a91bed74865c40579f64776eef5f1460adb70d9b281525081608001516001815181106106b9576106b8612dfa565b5b602002602001018190525060405180604001604052807f2773d19dad0c5ceda2f9bbf97b1549e1561219ac4fc9e5f55f03e729059b149881526020017f033771ce3635c66010feff95c70b29464951a2698ce412d83d4dc55cb146269e815250816080015160028151811061073157610730612dfa565b5b602002602001018190525060405180604001604052807f1f64d048c435ff39f718469235ec9b9828f126592d819b8388d83c9df5de97da81526020017f0b69bd1bf80709adbe51291a32f798f9b35a66e33947ac530f0e087991bc03d981525081608001516003815181106107a9576107a8612dfa565b5b602002602001018190525060405180604001604052807f1c93dfcff383a9c33f6781fe4e7e6f12d903687099b2bc8281ab3ebf0f96690481526020017f1dc719b4c904fae8581be33f5f453b3f16e62ac062f48225e3c30649789b647a815250816080015160048151811061082157610820612dfa565b5b602002602001018190525060405180604001604052807f279985cf7bff298442137e393c4f7fe4751e2f3ba161c3d8a31928977774bdbf81526020017f15b9e265af3bf854a581f3a44c2bf2e7f0dd3f397a716584511827ceec03ff5e815250816080015160058151811061089957610898612dfa565b5b602002602001018190525060405180604001604052807f220396a2d0bd6e4283d90c41e567b79354bea981b6b30c2c397767724b711fce81526020017f0b5bc8983d6a2207c5efcd08a5c9d919bc31fb0d356d7032203b55c92683c2d9815250816080015160068151811061091157610910612dfa565b5b602002602001018190525060405180604001604052807f053284a6ed7e0a07f9187d0cddcbc064664eba329e9d2d130ac5fcd32ca2776e81526020017f2effe83b3efe0f3e7ebbe98e4cb27ca89ace1f9b54c5ef940c65adf49624e787815250816080015160078151811061098957610988612dfa565b5b602002602001018190525060405180604001604052807f1013858c587ea7ba65f2368cd837404e87f93a10e5753901cfa4cbbaab874d8581526020017f2290da55cd351dd191e62f796a76e3c620000ba47a6433527df40c125e38af298152508160800151600881518110610a0157610a00612dfa565b5b602002602001018190525060405180604001604052807f097ee13e4b1381d9d89ccc33b792df67896dfc139e02ee702304c5693ed863a081526020017f2a436dd87f910fde83016e20e71a53c3027522ed3d5b31f67091aa055df35b288152508160800151600981518110610a7957610a78612dfa565b5b602002602001018190525060405180604001604052807f0acc0787d2d61b79b90d0161e10d7d48494e33a309247345104a105226a5999b81526020017f1d5c7f9eab196e92bfcbe3f585f75284bcd66a6b9f8d0c8fd3e3d3081d94eb2a8152508160800151600a81518110610af157610af0612dfa565b5b602002602001018190525060405180604001604052807f02369480520333426d1fff13d0fc9b2fe8e8e4ad0b9b38d95318ed9aa8e3b80e81526020017f0996e7a7be0a50f7e0aa5d61c4c70f97da399547548913117496a62f63dba42d8152508160800151600b81518110610b6957610b68612dfa565b5b602002602001018190525060405180604001604052807f028ae099810fbce21cdd300ad5656cacf6b742e05116d518ec0d868a9e40291f81526020017f0c91729909d976853e54231da96a4ef55b89363bfebbb2260354ac794ad76fcc8152508160800151600c81518110610be157610be0612dfa565b5b602002602001018190525060405180604001604052807f02433e743cf0dcb7d2aab6aa63519b627c21884d90313fbc54bdb5de6596e37581526020017f23615823097f32ff71470d224eb3848a1b040685cb00beb8c231db33a70cd35d8152508160800151600d81518110610c5957610c58612dfa565b5b602002602001018190525060405180604001604052807f2f47483ce99f866331af9cbc54b0de2991dc555eb6c3ce4e5dea12450c6c464c81526020017f0d4db8338af41262698b4e91cd577c31e27af31a7a59cb831d22c541544132728152508160800151600e81518110610cd157610cd0612dfa565b5b602002602001018190525060405180604001604052807f2b2e57f879aa67f6998f681ae12d1afb9c13c495a9eda6b3965402d61ba1c05881526020017e515588136092a67586391aaca99f0450565f022529f50c19f9dd69765e0c228152508160800151600f81518110610d4857610d47612dfa565b5b602002602001018190525060405180604001604052807f2b501dfd078d8ed021d673a46443b9b9aae06dfaad890bc257f3b8f5f812679581526020017f1c0e071070ce6c7776667a4274d8aeba84a72e9f0414ed027a7516b2c45779be8152508160800151601081518110610dc057610dbf612dfa565b5b602002602001018190525060405180604001604052807f1e5205cc0633ae654bffdb2ea891789a4926e07c90270138080916d43f89c64981526020017f214b26ec85e9af99e9d70b4384dfe740a37ade813dbc8605fb3ac77b56131cd08152508160800151601181518110610e3857610e37612dfa565b5b602002602001018190525060405180604001604052807f197e4bd4b8b3138b747fb00af2002619472fcd15c669ee0c2564211671ea536e81526020017f296cda15813b298c6e49ce383132b2dea145a7f9c0e98e8f41a3054eaba23d608152508160800151601281518110610eb057610eaf612dfa565b5b602002602001018190525060405180604001604052807f2fb2c4a5f2fde555ba6e04ca42399b1882907fa2d96fa2e650f0c7b9f333340781526020017f1765a4bec71b2b017f493407c809d8dfd74b77d8c7d41871ed55705ccaa463a08152508160800151601381518110610f2857610f27612dfa565b5b602002602001018190525060405180604001604052807f1d4ea688779bc2e9532542c67a48372d54b3ecbcd4883db6d0371a4989bae85681526020017f0cbfe939eb2df83bdd79e5cd2b3ce50452eda0f5fb33f9dd8a6d962ae677f4be8152508160800151601481518110610fa057610f9f612dfa565b5b602002602001018190525060405180604001604052807f10591fcbfe21545d3cf5557e2ac5ed998772ac4b47e825d39f3503a51235841c81526020017f2a416219a81d4c8a71bd3d24e5763a3d2feefca1e5068ffba858993525fedc1d815250816080015160158151811061101857611017612dfa565b5b602002602001018190525060405180604001604052807f26e2893c2d9c8baa4a93a4998d38b49082e905f6edf3c871ffdf7b80184926ce81526020017f1f4fb29a01092562cad8a3cff94a643ef9a5adb5f0f306e11d8da38a29dcdc2581525081608001516016815181106110905761108f612dfa565b5b602002602001018190525060405180604001604052807f26279c7a8f6396cebf153f9e929444c126a1a712c51ac0939d524c9ee8cf1f0181526020017e9c0447b25739f4a88a069d1333f9ce3b6def9215fad63f1ff89dc88a51fc03815250816080015160178151811061110757611106612dfa565b5b602002602001018190525060405180604001604052807f07157049cf3b27a1d0669d83ac3e87ec52c5f409d41f3136f82db7a12e184ecd81526020017f14f6b1730e5c55cfc8d068756c91cf6b6fa63fb2c7c89ae67f092602a9095374815250816080015160188151811061117f5761117e612dfa565b5b602002602001018190525060405180604001604052807f2fee092fb5e5b22b9cb4c11f98d23a128d9426cedfb5d832cbeeb06b52ef926a81526020017f0e66fc5f06d09395f35e37fd0754cd21a658c4ff3d7e8eea134a815ec2e1a32381525081608001516019815181106111f7576111f6612dfa565b5b602002602001018190525060405180604001604052807f2e9abe4735ebcaf5c6f1d0acafd38be2a9a543e160637bbdb23771e48064fd9281526020017f223b9c43bb416fd26bf5ee588a2f82e0ddcb75097bc7ad4b8885376a7e53265a8152508160800151601a8151811061126f5761126e612dfa565b5b602002602001018190525060405180604001604052807f1b7aea1fb1c1aba4a55a5223c77f01c86513bbecd4fe30351aecab0b358fb78c81526020017f1008f27c5a1402ac37b8afcf347609d1b724ea79f655f95cca5c49c426fa80948152508160800151601b815181106112e7576112e6612dfa565b5b602002602001018190525060405180604001604052807f207c0a11c8c1a3a1654a26ed1d38d0a8d3783267eb1ba74904ee212cfaa4aacf81526020017f21edf24b087bd764bce2c27995bcc8bc927e903ccbd8dacc10e86d9bd44343038152508160800151601c8151811061135f5761135e612dfa565b5b602002602001018190525060405180604001604052807f09832e2deb5eb4647354ffbc435a0dd538989ac96e2cbbeadff4d8f810a7c51a81526020017f18832981bf97b9a8f85bbb14d00cfd46119b52e53247241b9e35e62fb025efb28152508160800151601d815181106113d7576113d6612dfa565b5b602002602001018190525060405180604001604052807f2878b9dbf5fcc34d7cae84e2e9999266972e98d94e6de7abedd3211abf90e8fc81526020017f0e0f2be7a4cdd154db3d77aaae3494eb672edd8729a9c51826e268d9c69d53198152508160800151601e8151811061144f5761144e612dfa565b5b602002602001018190525060405180604001604052807f0c31b1e570d2d0ba98442df6a601c4e50794b6022667ef722c06b8103621954d81526020017f297015e4b439197d78a685acc66a1e9cb57c3e1f611545f5d9a8ea5a40599dc58152508160800151601f815181106114c7576114c6612dfa565b5b602002602001018190525060405180604001604052807f2164ca81e34bfab378fd55cb6e322850b91250c6ce04b17ed37721e5d5f9e99081526020017f14a261721a51e55a12435fe8e174df3c14a534bb6e548f03b12f3b8211d25760815250816080015160208151811061153f5761153e612dfa565b5b602002602001018190525060405180604001604052807f15795ade1a2a2f3bab773eae9a3603b8b85e48d93e6cd30fd355542241fa95ca81526020017f0284f3ed6febfbbb593d10b9e15ace96a2d68d9fb3ec5c7eff9c6c9a2068525b81525081608001516021815181106115b7576115b6612dfa565b5b602002602001018190525060405180604001604052807f2091e06c95251d5b712fc991744a888a1c0b6a12104779125fb670af19a58fc481526020017f027503f786b4c0ec41cedc5d86c0529bb8f3d4e18085a4436d15afcaa66653ea815250816080015160228151811061162f5761162e612dfa565b5b602002602001018190525060405180604001604052807f15a804a9b08c4c5faec7fe3b2fb6d58a33e5ec8945cce9b97dfe5f67484cef9381526020017f2f26086b1f2dafbb912edd2fae3f7814ec625d821ae37c21c7552ee104411c4f81525081608001516023815181106116a7576116a6612dfa565b5b602002602001018190525060405180604001604052807f0f15a9962051e91040db43d3a6bec763a6a6172b1f89f98bb7767426fdcef39d81526020017f28bf5d6db18192b6ff2169f9560a3f61326ff877919ef82c1b1c515108d0d882815250816080015160248151811061171f5761171e612dfa565b5b602002602001018190525060405180604001604052807f11c8412c8dda15bfa3207cdb2c71efb0f4cca0b02fdba798be27e649ef86d31581526020017f2d5f8a1c7d4e0d63b35f5e2ecf39afe4f27b21bc4940885de4f63233ff1b6b1d815250816080015160258151811061179757611796612dfa565b5b602002602001018190525060405180604001604052807f180cc1601065291d987c417c4895d9830c8fb3e9afeaa5eaf4362cd9c0647ccd81526020017f28e8047ee4e7d824d8583f5fc29e24007e99779c42f3d92ef3e753f51ad86da8815250816080015160268151811061180f5761180e612dfa565b5b602002602001018190525060405180604001604052807f1802ec16440f9de9da6c44f51e916e8ea647ddfa24d72c11db9dac48929c607c81526020017f235991b0c7e1135b05cbe763c4c238ed9d2dfac39320d58dfbc0377581139dd5815250816080015160278151811061188757611886612dfa565b5b602002602001018190525060405180604001604052807f25e205b54c6746553d645b9984fd4c439fce9b2e2ab26c2b498d6b4368e8079a81526020017f1e03f921fba09e542af7c4775a0d9463ad43ab7d11055712303763654635763c81525081608001516028815181106118ff576118fe612dfa565b5b602002602001018190525060405180604001604052807f2fc9a7a4971585b9e15910dad4fe29ee21a314bc4120f9f38a9e04e152c9b84d81526020017f20b6b471534ea04ee7e8c1156f77ca35de82a5b9d0625f44372fbe87062908b4815250816080015160298151811061197757611976612dfa565b5b602002602001018190525060405180604001604052807f0823f0043e80a0719cebdbd94071b59836757d1de56e2f81340c31667688895881526020017f2ef49e8aeb916c75ef4d9919a0a38ea1d6a8575f5354914c5b0920aa19e4912a8152508160800151602a815181106119ef576119ee612dfa565b5b602002602001018190525060405180604001604052807f13ae71d4522a2e324dc81c07997a58289273928768e932689994622b94e355c981526020017ef56f36fadf178fcc270e5a79b2489cb3a371eec360820eeba1ae1f4bb479768152508160800151602b81518110611a6657611a65612dfa565b5b602002602001018190525060405180604001604052807f1d05a5837da0a771ee3654301ef2b7beeb344be9af57d5c30deda67f5218404781526020017f2a93e0dd00fff56d0b2814a432e56a2918d37a238f901b707fd78fd7134c11828152508160800151602c81518110611ade57611add612dfa565b5b602002602001018190525060405180604001604052807f03b55018c306fd3c4409e502d0367e0546f809a4b8316a7563d26cb41b9cc09d81526020017f0487dc38b20c28721916d84c81b255cd8e7f7504ec8fb92dbfd79cb3cd6d7bf88152508160800151602d81518110611b5657611b55612dfa565b5b602002602001018190525060405180604001604052807f0d342995dbdd33b928a014735376a529aaea65d1dd0a53d4e24615b1deff6dcb81526020017f21bf7326bb71a7511042cbc75d82c73e1fffd4a8d66250bf9bee1cf8240d6d5a8152508160800151602e81518110611bce57611bcd612dfa565b5b602002602001018190525060405180604001604052807f0b3f3024676cede871a5032cfbe29653b66068e3e5ae6c4acd7fb7822e1875e481526020017f2b794e5602721de34742dca745df0a1b0fea6365c6995cc9f7616bf80ef779b38152508160800151602f81518110611c4657611c45612dfa565b5b602002602001018190525060405180604001604052807f0d905c01705e9813e75d97c41646a336fc7e53fad2cacff9c3b89c69aebc7d7f81526020017f0ee0cee2476a5aee8f8338f7c2950fd423e577aa4771e4070c74b9e56168af098152508160800151603081518110611cbe57611cbd612dfa565b5b602002602001018190525060405180604001604052807f0ba8c9556357805c7bd5fbc5cf24a2aa4e3d858c1ee86a08adc665f1b4036b0481526020017f0c9f1cdc6c252cb195eca9745dec371c6f225318dab0433c6b1a284b278c586e8152508160800151603181518110611d3657611d35612dfa565b5b602002602001018190525060405180604001604052807f2fb81ff046c6c2e9118e2fcec86ffbfe9391028d94af7da3a3c3fabace70fab381526020017f148ed40cc7bda961d9324e0a4200c503c7db745f8ff3446289c1f94219c6a1798152508160800151603281518110611dae57611dad612dfa565b5b602002602001018190525060405180604001604052807f2459482ed2a859bdefc5c14a322f4eae35a116b31e9e3af64aa81f334edf6b9c81526020017f03487098f1d68c824f7b0307f33a8bbd4d30636dc439d657468a55b5540c47ce8152508160800151603381518110611e2657611e25612dfa565b5b602002602001018190525060405180604001604052807f03aa6df06ec48a1b6f065a838c4c62e1133b86d94e7769a901b420ae9252e8fd81526020017f2b1cc9ee8fa443f217ae5cae1579ff3597a4ceae8c5e67852ad141dffc9a214f8152508160800151603481518110611e9e57611e9d612dfa565b5b602002602001018190525060405180604001604052807f1c34e36b00db3c49f0d7ede436f570d5c4c013b3d24d2fd618e43a215f7191f881526020017f1f00daac177d93a5c34ca4122ed87c0e8e44fe1eb7c4a0a631ab43ca62e779748152508160800151603581518110611f1657611f15612dfa565b5b602002602001018190525060405180604001604052807f070cbfc7f432707fffb6d111e4c4e7c4d36a7b37f023b189f4a655680447560981526020017f1dc1c24c74e2f21961cb33ce3d97cd28d802b41bd08e41334521ea6678e2982c8152508160800151603681518110611f8e57611f8d612dfa565b5b602002602001018190525060405180604001604052807f0aebdf705513f6cb989bb7b1270d9e2c76669bbe2d1705c0d175aafab3818aad81526020017f13aa62f56d11c537533f874bb88b26907010c9f3a9a69fd5896459a4fb7260be815250816080015160378151811061200657612005612dfa565b5b602002602001018190525060405180604001604052807f1ec2f70315abbc67d9f20f1045e2f15fd1cc1f57b72cb6fc7d153b03fc16fddf81526020017f1062709f3552c279818c96867ec91eb6e0e17783427398530a79efaf56d95bd9815250816080015160388151811061207e5761207d612dfa565b5b602002602001018190525090565b612094612814565b61209c61282e565b8360000151816000600381106120b5576120b4612dfa565b5b6020020181815250508360200151816001600381106120d7576120d6612dfa565b5b60200201818152505082816002600381106120f5576120f4612dfa565b5b602002018181525050600060608360808460076107d05a03fa9050806000811461211e57612120565bfe5b508061212b57600080fd5b505092915050565b61213b612814565b612143612850565b83600001518160006004811061215c5761215b612dfa565b5b60200201818152505083602001518160016004811061217e5761217d612dfa565b5b6020020181815250508260000151816002600481106121a05761219f612dfa565b5b6020020181815250508260200151816003600481106121c2576121c1612dfa565b5b602002018181525050600060608360c08460066107d05a03fa905080600081146121eb576121ed565bfe5b50806121f857600080fd5b505092915050565b612208612814565b60007f30644e72e131a029b85045b68181585d97816a916871ca8d3c208c16d87cfd47905060008360000151148015612245575060008360200151145b156122695760405180604001604052806000815260200160008152509150506122a0565b60405180604001604052808460000151815260200182856020015161228e9190612d6b565b836122999190612ca7565b8152509150505b919050565b600080600467ffffffffffffffff8111156122c3576122c2612e29565b5b6040519080825280602002602001820160405280156122fc57816020015b6122e9612814565b8152602001906001900390816122e15790505b5090506000600467ffffffffffffffff81111561231c5761231b612e29565b5b60405190808252806020026020018201604052801561235557816020015b612342612872565b81526020019060019003908161233a5790505b5090508a8260008151811061236d5761236c612dfa565b5b6020026020010181905250888260018151811061238d5761238c612dfa565b5b602002602001018190525086826002815181106123ad576123ac612dfa565b5b602002602001018190525084826003815181106123cd576123cc612dfa565b5b602002602001018190525089816000815181106123ed576123ec612dfa565b5b6020026020010181905250878160018151811061240d5761240c612dfa565b5b6020026020010181905250858160028151811061242d5761242c612dfa565b5b6020026020010181905250838160038151811061244d5761244c612dfa565b5b60200260200101819052506124628282612472565b9250505098975050505050505050565b6000815183511461248257600080fd5b60008351905060006006826124979190612c4d565b905060008167ffffffffffffffff8111156124b5576124b4612e29565b5b6040519080825280602002602001820160405280156124e35781602001602082028036833780820191505090505b50905060005b838110156127685786818151811061250457612503612dfa565b5b6020026020010151600001518260006006846125209190612c4d565b61252a9190612bf7565b8151811061253b5761253a612dfa565b5b60200260200101818152505086818151811061255a57612559612dfa565b5b6020026020010151602001518260016006846125769190612c4d565b6125809190612bf7565b8151811061259157612590612dfa565b5b6020026020010181815250508581815181106125b0576125af612dfa565b5b6020026020010151600001516001600281106125cf576125ce612dfa565b5b60200201518260026006846125e49190612c4d565b6125ee9190612bf7565b815181106125ff576125fe612dfa565b5b60200260200101818152505085818151811061261e5761261d612dfa565b5b60200260200101516000015160006002811061263d5761263c612dfa565b5b60200201518260036006846126529190612c4d565b61265c9190612bf7565b8151811061266d5761266c612dfa565b5b60200260200101818152505085818151811061268c5761268b612dfa565b5b6020026020010151602001516001600281106126ab576126aa612dfa565b5b60200201518260046006846126c09190612c4d565b6126ca9190612bf7565b815181106126db576126da612dfa565b5b6020026020010181815250508581815181106126fa576126f9612dfa565b5b60200260200101516020015160006002811061271957612718612dfa565b5b602002015182600560068461272e9190612c4d565b6127389190612bf7565b8151811061274957612748612dfa565b5b602002602001018181525050808061276090612d22565b9150506124e9565b50612771612898565b6000602082602086026020860160086107d05a03fa9050806000811461279657612798565bfe5b50806127a357600080fd5b6000826000600181106127b9576127b8612dfa565b5b602002015114159550505050505092915050565b6040518060a001604052806127e0612814565b81526020016127ed612872565b81526020016127fa612872565b8152602001612807612872565b8152602001606081525090565b604051806040016040528060008152602001600081525090565b6040518060600160405280600390602082028036833780820191505090505090565b6040518060800160405280600490602082028036833780820191505090505090565b60405180604001604052806128856128ba565b81526020016128926128ba565b81525090565b6040518060200160405280600190602082028036833780820191505090505090565b6040518060400160405280600290602082028036833780820191505090505090565b60006128ef6128ea84612bab565b612b86565b9050808285602086028201111561290957612908612e62565b5b60005b85811015612939578161291f8882612b05565b84526020840193506020830192505060018101905061290c565b5050509392505050565b600061295661295184612bd1565b612b86565b905080828560208602820111156129705761296f612e62565b5b60005b858110156129a057816129868882612b05565b845260208401935060208301925050600181019050612973565b5050509392505050565b600082601f8301126129bf576129be612e58565b5b60026129cc8482856128dc565b91505092915050565b600082601f8301126129ea576129e9612e58565b5b60386129f7848285612943565b91505092915050565b600060408284031215612a1657612a15612e5d565b5b612a206040612b86565b90506000612a3084828501612b05565b6000830152506020612a4484828501612b05565b60208301525092915050565b600060808284031215612a6657612a65612e5d565b5b612a706040612b86565b90506000612a80848285016129aa565b6000830152506040612a94848285016129aa565b60208301525092915050565b60006101008284031215612ab757612ab6612e5d565b5b612ac16060612b86565b90506000612ad184828501612a00565b6000830152506040612ae584828501612a50565b60208301525060c0612af984828501612a00565b60408301525092915050565b600081359050612b1481612e7d565b92915050565b6000806108008385031215612b3257612b31612e67565b5b6000612b4085828601612aa0565b925050610100612b52858286016129d5565b9150509250929050565b612b6581612cdb565b82525050565b6000602082019050612b806000830184612b5c565b92915050565b6000612b90612ba1565b9050612b9c8282612cf1565b919050565b6000604051905090565b600067ffffffffffffffff821115612bc657612bc5612e29565b5b602082029050919050565b600067ffffffffffffffff821115612bec57612beb612e29565b5b602082029050919050565b6000612c0282612ce7565b9150612c0d83612ce7565b9250827fffffffffffffffffffffffffffffffffffffffffffffffffffffffffffffffff03821115612c4257612c41612d9c565b5b828201905092915050565b6000612c5882612ce7565b9150612c6383612ce7565b9250817fffffffffffffffffffffffffffffffffffffffffffffffffffffffffffffffff0483118215151615612c9c57612c9b612d9c565b5b828202905092915050565b6000612cb282612ce7565b9150612cbd83612ce7565b925082821015612cd057612ccf612d9c565b5b828203905092915050565b60008115159050919050565b6000819050919050565b612cfa82612e6c565b810181811067ffffffffffffffff82111715612d1957612d18612e29565b5b80604052505050565b6000612d2d82612ce7565b91507fffffffffffffffffffffffffffffffffffffffffffffffffffffffffffffffff821415612d6057612d5f612d9c565b5b600182019050919050565b6000612d7682612ce7565b9150612d8183612ce7565b925082612d9157612d90612dcb565b5b828206905092915050565b7f4e487b7100000000000000000000000000000000000000000000000000000000600052601160045260246000fd5b7f4e487b7100000000000000000000000000000000000000000000000000000000600052601260045260246000fd5b7f4e487b7100000000000000000000000000000000000000000000000000000000600052603260045260246000fd5b7f4e487b7100000000000000000000000000000000000000000000000000000000600052604160045260246000fd5b600080fd5b600080fd5b600080fd5b600080fd5b6000601f19601f8301169050919050565b612e8681612ce7565b8114612e9157600080fd5b5056fea2646970667358221220b02c6ee4ce396ae0283bcc563d55f3169ca982481c0d9552e28318f76bf0a9f064736f6c63430008060033608060405234801561001057600080fd5b50613a85806100206000396000f3fe608060405234801561001057600080fd5b506004361061002b5760003560e01c8063eefa323d14610030575b600080fd5b61004a600480360381019061004591906136d5565b610060565b6040516100579190613726565b60405180910390f35b600080605167ffffffffffffffff81111561007e5761007d6139e4565b5b6040519080825280602002602001820160405280156100ac5781602001602082028036833780820191505090505b50905060005b6051811015610105578381605181106100ce576100cd6139b5565b5b60200201518282815181106100e6576100e56139b5565b5b60200260200101818152505080806100fd906138dd565b9150506100b2565b506000610112828661012e565b1415610122576001915050610128565b60009150505b92915050565b6000807f30644e72e131a029b85045b68181585d2833e84879b9709143e1f593f00000019050600061015e6102c5565b90508060800151516001865161017491906137b2565b1461017e57600080fd5b60006040518060400160405280600081526020016000815250905060005b865181101561023757838782815181106101b9576101b86139b5565b5b6020026020010151106101cb57600080fd5b6102228261021d85608001516001856101e491906137b2565b815181106101f5576101f46139b5565b5b60200260200101518a85815181106102105761020f6139b5565b5b6020026020010151612c47565b612cee565b9150808061022f906138dd565b91505061019c565b50610261818360800151600081518110610254576102536139b5565b5b6020026020010151612cee565b90506102a78560000151866020015161027984612dbb565b856040015161028b8a60400151612dbb565b876060015161029d8960000151612dbb565b8960200151612e60565b6102b757600193505050506102bf565b600093505050505b92915050565b6102cd613388565b60405180604001604052807f2b8f808f0c59ee9e10bed4a05f4e860587a72a60892744ea279b82941709f18181526020017f07bc556c891897c7cb95129d12366e11b64bc0bc1a7952912ac93cdcf5afc7638152508160000181905250604051806040016040528060405180604001604052807f305d831804b456605e37e9844d7a613cc8bcfffe9e8a23dc684ac3f82bc4ee5d81526020017f1b34a55531d4edda714d12fe0f3c35184c9d59b6e48839066517f986e2995dfa815250815260200160405180604001604052807f0da7f0515480703066d431bb4a6bd8f8241864eae0ec4a5183486db75a312b8f81526020017e460c53ea9f5a8bb9bf37e6716eed7f74199a54b3ebfd043d3954bb1a8413c08152508152508160200181905250604051806040016040528060405180604001604052807f1950004673ec441581f945c4604e8f6347449f56f399f5424219cc63599af4fe81526020017f268a2b6a75aa656f8e4c8cc4744e467999ed3b2e3f5af2858a7a9c09b3ac0ac3815250815260200160405180604001604052807f1facf4de23189655098e0907bdadff12f0a6f752bb088688a68593fed9317e2a81526020017f2abf066cf0513f57f8e51823389d61405a7c3eade00bd62b29eca6892ea292b38152508152508160400181905250604051806040016040528060405180604001604052807f28f6e07e88c6e6bdfe9e5f7f18b8936591913e2d937511b22731e3e100b0441481526020017f0c9f32d68de80ae7b1d78be828dd72a1ea0171273b924c4fd797d0af5dae8afa815250815260200160405180604001604052807f0e5521dbe05d26ce36a27c3a35fc748fd8ecd3f805e1f0f3c63a931cf48bedae81526020017f02c0622565578621ddc7f7969f42e0861a50a5ccc4a512224b6795336ba3261d8152508152508160600181905250605267ffffffffffffffff811115610593576105926139e4565b5b6040519080825280602002602001820160405280156105cc57816020015b6105b96133cf565b8152602001906001900390816105b15790505b50816080018190525060405180604001604052807f1d76732270c37e5cc7a7dfb6acc64751c737dc9b6cbe865b9af4f19f1fb8767281526020017f201e3d4f7959cec5600499b924dac2d507809954c55ac9067124e866108acb658152508160800151600081518110610642576106416139b5565b5b602002602001018190525060405180604001604052807f28308b88c19b06bfc35d0bdea051a618f56d12e52ad99e1565812aad5be6a05981526020017f0c017100b5ffce58353e7bb0caf8a5e7c15bd17a60b043908e96b7cab2fabe3b81525081608001516001815181106106ba576106b96139b5565b5b602002602001018190525060405180604001604052807f0651d224ca61db513cfae371e465454d4adac72cd7f61d2d8a9845137b5e170b81526020017f186797c2b751b47e435fe529029e25dc60efee15c207da37eb9382f986930c8b8152508160800151600281518110610732576107316139b5565b5b602002602001018190525060405180604001604052807f1bbed9ac9c10feecb4fa8e44f5617a7edc3d6db5087f88983fdfe4ae2af61e4281526020017f263951a2a6b7d10340df990b1eb58a46439bac9480df35a9a6ec44ee180c94b381525081608001516003815181106107aa576107a96139b5565b5b602002602001018190525060405180604001604052807f06638ae27bca2ac943a580a97e48ef939909f975aed6ed7adbd3dddece22e80b81526020017f024f50b514916c08d177fda5a876af3d2839ec4617ddae958a91c76a8b04aece8152508160800151600481518110610822576108216139b5565b5b602002602001018190525060405180604001604052807f01ca5738dc18cc0af7b08fc71aa1868c35aef50f07574b31b8d42f9198019f9b81526020017f2d7ee3443ab1b2ce564eb8dc92d949c37040de18606c14dd93ea1fe83ebd1d0a815250816080015160058151811061089a576108996139b5565b5b602002602001018190525060405180604001604052807f04ddf1582c4f7a3f0d60ee6fdb67172f4f725e2e2f242fd79e0e787c1d9853f581526020017f05180499139f73d43683ec41066a8cdce10c8c5ffdf931a6a42f1445718078538152508160800151600681518110610912576109116139b5565b5b602002602001018190525060405180604001604052807e370ded6b5afc6c766c6b1c31b586a988e5d2d98b44c98b511763890aa6679981526020017f1190063e48db1aa62959846c77ae6698171155f6e8874b5443615e9ab3915f248152508160800151600781518110610989576109886139b5565b5b602002602001018190525060405180604001604052807f1e486adbe00c33a19759921894b6a6597be16128f02261c417cf09cd7d2eecc981526020017f161932edeb7a2344e317bf3606534769bdcfa34e0145ce1ae587845d4af9762a8152508160800151600881518110610a0157610a006139b5565b5b602002602001018190525060405180604001604052807f14fe2b6947e472592748997f854e325098f2aa5ade99d05a704afcddbf0fc8aa81526020017f0fdff3a959a4820c006a68ac1bde9e67e021dc4dd7b4ebf359c8fd827275b4288152508160800151600981518110610a7957610a786139b5565b5b602002602001018190525060405180604001604052807f0b2820941c86160bc9ec41a837f1ec878ee576021127e7079de44992c726147581526020017f0439a36edece22d1782aaea533850d3c8125931fb1c58a74dfd610ae93e828ae8152508160800151600a81518110610af157610af06139b5565b5b602002602001018190525060405180604001604052807f21beac1ee6b407fe70285b9c80cee5a7445c0dedb17ed50827949f17faa5029c81526020017f27c75fb95f41acb1386df7a3d6558b63a0a254fc6219533a65efa360b0fa478f8152508160800151600b81518110610b6957610b686139b5565b5b602002602001018190525060405180604001604052807f12ed5939f8b4ab4fe9cf1945c56feda13ff44b30ee91d9d974a69799efaf41ad81526020017f1d1d40df32eac3c51382cf6bac0832f59cff77e378c7477ca59650eb57ff636a8152508160800151600c81518110610be157610be06139b5565b5b602002602001018190525060405180604001604052807f1bc46d057485c106d03f3b340b4ffcc7f590efa46368b40cdb8d073401f77ef981526020017f08d2237cb340f626ef41dfb195c65fb763ccc4fd5f8ddec89caf506bd5ece9c38152508160800151600d81518110610c5957610c586139b5565b5b602002602001018190525060405180604001604052807f2e02cf420c63657dee4169c9ab72e648015262dd73f44e6ba5afa8416a1d333b81526020017f1497c9e77fb9958b16871b12b91b468d2bb0ac43bd8c4b7639a70f0892d510cd8152508160800151600e81518110610cd157610cd06139b5565b5b602002602001018190525060405180604001604052807f180b9304376f99433d19e1cb1ca92d0a677d33db1be944f543255aa19b5641f781526020017f1e25b8219732a24fe018b05179cfbadfd7d21019ba25dba201c29563531231458152508160800151600f81518110610d4957610d486139b5565b5b602002602001018190525060405180604001604052807f1fe9f70820764e50188c346b034642ddc01ad82f3c09a1f98888c29982e9b7a581526020017f0dc8cb9ad2f2bc2d00e81d9283c15cd9d25a005b0b43a9694d24b4f27ccf5a598152508160800151601081518110610dc157610dc06139b5565b5b602002602001018190525060405180604001604052807f1cf298b87b0581894bd4e16555765873ca7a0e1e6886f32bf51542ec466596e081526020017f14fe1b25c66b9f4ebde4ecea93e666d18a1bdb347212d4509c3e2f9cf469a0888152508160800151601181518110610e3957610e386139b5565b5b602002602001018190525060405180604001604052807f24cd0d668e93100f41a4082cde60b23485a10a30fe996f826dad5461e5e7afac81526020017f0ffc522000e19dc8ce7123e342bf50ea2cb9dc1220177cf0435354b1f499a2bd8152508160800151601281518110610eb157610eb06139b5565b5b602002602001018190525060405180604001604052807f2f3131dad86e468fa56dcace00127883e33c1d37fa0194f17ccaaf2f5d7ca36681526020017f224c8a9a450b06896205c49658b3a4a3ac18374cd3fe24910832274dc3d111698152508160800151601381518110610f2957610f286139b5565b5b602002602001018190525060405180604001604052807f065998167e81f9f5c83fa57347d83098a0daca467d4768ae2eae85b3ec78b3a281526020017f29f580fb0c9dac3693ade9afcde73035b558d3b1c8345f64766b166d3c400b638152508160800151601481518110610fa157610fa06139b5565b5b602002602001018190525060405180604001604052807f2012020be15e814b944a26d3109479ee28b0e85f3d14704ac5d141c8a76a547f81526020017f1e13044b759307c725028910f7f8d749b6e2e2bfe6640354e946ea9b58af63f08152508160800151601581518110611019576110186139b5565b5b602002602001018190525060405180604001604052807f1da24732e012dcf09d855cd8c1fae841a94c0920c6ddb7f9a7b8dcf27cab217281526020017f046cc1a06162148f2c0ebe318a9187ba53b73e47ec773f77b09ce2558e892d5e8152508160800151601681518110611091576110906139b5565b5b602002602001018190525060405180604001604052807f2f2d93f8d2ad9323ad2c4c0cda9659bbc71c8050318a90ec9ab7e81ae8be6d0181526020017f2cc13cd666348c7a66fae9483381331f0edaaa3eec8b8552c10dc0ecf22b46b98152508160800151601781518110611109576111086139b5565b5b602002602001018190525060405180604001604052807f2b442d530049352e5d8e38b0b7ee03ea8c7dbbfe0bbdc1913fb2bf87027f3bf981526020017f2bf600f16a4c3dbd643ac6f240b91a63c5b62f8b68ce723ae86610d0b1a5c2028152508160800151601881518110611181576111806139b5565b5b602002602001018190525060405180604001604052807f27e4ab12fff93a24685bf555bef392b6787a01e18080bc75ba676c525b9afb4b81526020017f179660777bd4eeb680a0e87b5dd4d0bde5fb80c87edcd034aac752b14aa8c38381525081608001516019815181106111f9576111f86139b5565b5b602002602001018190525060405180604001604052807f18bfe30a1c8eb9baf2c52852dc84d3b18f39c9bb3e853a27948c3d4d45987ac081526020017f2055be10368ab0579175012d4a5296410c53d09fd6c1ab31f8c30141a1d6b78b8152508160800151601a81518110611271576112706139b5565b5b602002602001018190525060405180604001604052807f23745abf9cf3730877a814e0b85e5eb2b5607a4c9e2fe369b0c543a7f6b50c1581526020017f1d81336ca41d38b9d4dc2c22d04e4faaec6e7553cadec4cd287c5df2ba4838f98152508160800151601b815181106112e9576112e86139b5565b5b602002602001018190525060405180604001604052807f22afd2466fc028d58013c8c8aaa2bc79bc24515637974e4b22f289df05216a8481526020017f0e3f24c9c6e05669cd409b6ec17f130ecbdc1c4cd30517ade86d5979712a18c58152508160800151601c81518110611361576113606139b5565b5b602002602001018190525060405180604001604052807f0c593cdadd3a81b4dbd39ccb2426fdee09651e20eba5df8f1ac07f95ebf4bbea81526020017f206da793a2e36d0cd2844643ee3f1c842584aafabe759cee968dfe90da5cf24a8152508160800151601d815181106113d9576113d86139b5565b5b602002602001018190525060405180604001604052807f0b85adf426d0969f617275f353267a8467702eb9e59ed21c41c54573eb35417181526020017f058835246dce9b8b22b63225c3448623516921708518481715680deb56e94f6f8152508160800151601e81518110611451576114506139b5565b5b602002602001018190525060405180604001604052807f065a96a1fdbf31d7c9454329b46579e68d776abf53d0d9bceafc0c2c07ac7f2981526020017f1244b1ebd4a566accaafb0266c755e2050a317f7c41022a15872d23b2766d68a8152508160800151601f815181106114c9576114c86139b5565b5b602002602001018190525060405180604001604052807f10fa161f039ee5edadcb5d0f4239b6081b84497a61b9c35a52731ba5eb0326b581526020017f22ad07eba118e35cfd6b85cb3091e2b3dccf77d448b045bea9de2ec1cdc87ea58152508160800151602081518110611541576115406139b5565b5b602002602001018190525060405180604001604052807f0e45145caf15f6095797e471642fd025ccb206896ebd053df144251f9647a23081526020017f03cf5db66d08705e033d3c83933ea4b7ee1b82aa40307f4a1dec9b49ee05270e81525081608001516021815181106115b9576115b86139b5565b5b602002602001018190525060405180604001604052807f2d4eaedefd1fb7bdba4e0025449775656393fd261a7e8802a1cc85a0db248da881526020017f261c6fa7f0cd622e19d7704cbaa5dfb2fc9f9192a1529b80ec244bb7b530fab98152508160800151602281518110611631576116306139b5565b5b602002602001018190525060405180604001604052807f0c9fc9581e737ce7dcd32d31369d0eb3918ae4ada30af25a4b42e87d1bda30d981526020017f14203ac8e540474dac9498737c17a4e632a6cca94003bcf37216d670a5b6a28b81525081608001516023815181106116a9576116a86139b5565b5b602002602001018190525060405180604001604052807f06597eeeff3138452891433d24881fdf5316954618c2f996b21b4600246a94fd81526020017f1164ed7d4504190464ad846a0dc582aa0f91c3b56274501fbcac1447f437d34b8152508160800151602481518110611721576117206139b5565b5b602002602001018190525060405180604001604052807f25055d5c8721c57795f1998879874a403d5ccb6a57293eb96f4b31743cffbe7781526020017f2a83d717c34ee91d386b8faa4dc633cd9ed3433a63005c55f3f6319fce7e49cc8152508160800151602581518110611799576117986139b5565b5b602002602001018190525060405180604001604052807f0deb2242ee918a981b71bfa9af23d81c4471f5320517945f5d54d5dbc3ebc3e681526020017f04773c22094671de0c77cd056b228926aeeba8ad9127df5fe1d5e8ed93c1fb5e8152508160800151602681518110611811576118106139b5565b5b602002602001018190525060405180604001604052807f289f3d488acce2727438516c22a23a9de5540ce926456fd0a4aaaae8445b849981526020017f1b95df75164291fe0980670144ac88c44ae53901c3864e7c78b17f1cc43381fa8152508160800151602781518110611889576118886139b5565b5b602002602001018190525060405180604001604052807f0fa7bdef79b07f8af2a962974cbc8bebc49f3e1705aefca70096065e0469db2e81526020017f247477255d906614c551c359dce06a5663e4c36f90f35e3800d5e57443d1cdea8152508160800151602881518110611901576119006139b5565b5b602002602001018190525060405180604001604052807f036d9eb20c2c02d680c29f44624e5c01040a163409559c28f41d5634decd92a781526020017f244f2e76644ecd74ce8c6cf9458a7a0152734697abe6fc6eb023315f86aaf5f28152508160800151602981518110611979576119786139b5565b5b602002602001018190525060405180604001604052807f28dd925a1012487e3330b129284b8985df802c9950895dc53d3b0f550cfb301581526020017f1cfa08b7d09291f571ec72b5ddf4726c32bc9b05b7f20e8241144a3f5da51a048152508160800151602a815181106119f1576119f06139b5565b5b602002602001018190525060405180604001604052807f16912dd99715463b89c023d947eaee1f178b711e4874d80627dd233c561c4e4481526020017f201fa0727f0b9b906bb1c676745fe4c8b3ba755e45fd8fa25c86274a4f14b8438152508160800151602b81518110611a6957611a686139b5565b5b602002602001018190525060405180604001604052807f0700ec1beb95c56909fe2a11ab64b3f7c2347ea02ca115fe0304087e6a7f582a81526020017f13db93c7dcf9d175530fd059cb4072f82ac56779b5ab38fb94aca8af24e5153b8152508160800151602c81518110611ae157611ae06139b5565b5b602002602001018190525060405180604001604052807f05bbd089ab2592f29e6a207a4af1fd4d980a1433bba652cb61906166c78a821c81526020017f2e5b1c0916b355dd09282cddcd67f9776daa7d2acdb8919c4e8ae153812386cf8152508160800151602d81518110611b5957611b586139b5565b5b602002602001018190525060405180604001604052807f24a8362c215e16882da2c5d18d4e425a893a5464b8f27d08bd7896dfc4bfc28181526020017f1286a2b8e4d3eeb5587b462f620ffb4f1f556d37837397fe2eea4f50a1c0bbf98152508160800151602e81518110611bd157611bd06139b5565b5b602002602001018190525060405180604001604052807f2360ebaf387626d2087319d619aa8a3bc5f54b8f56e78e779c334be241a46b3381526020017f168e4c0315a6312be73f23a71867824a60c94605b49fcbd9eafc09713a06d8768152508160800151602f81518110611c4957611c486139b5565b5b602002602001018190525060405180604001604052807f2898ce2b1dbe77190102eaceb4719f8f0f2c9540ecb3772adcec447e36d7d63081526020017f079d9560cc79b9194651f267a5af8c0d43bf85d60992ea29db32dbe8b9ddd4dc8152508160800151603081518110611cc157611cc06139b5565b5b602002602001018190525060405180604001604052807f0b136e26436d50a70730dac1896a50e731887117c360e8f8c751d00d59d5fe2781526020017f24af85c3e9d573ed8c07ef56d9d68e95bb2241c433ff99f4fdc8ccec4b5c191e8152508160800151603181518110611d3957611d386139b5565b5b602002602001018190525060405180604001604052807f2efb37334e7207970586f439c6a412592a15e8f82bf0b722f7c5fe848c8dbf0281526020017f20fabe9ae584298ade6cbe1d0e39c96f2eff39932ebc5e60de25c900a6a1b0c68152508160800151603281518110611db157611db06139b5565b5b602002602001018190525060405180604001604052807f2e73b137f14af0d7611c9d19e6681e952e64c919f74c346a6660128ce9ef41b581526020017f0fbf8f47877e341b3464dfae7a62c989761d0ec67b07233d72de3577a04130808152508160800151603381518110611e2957611e286139b5565b5b602002602001018190525060405180604001604052807f03add1009b0598190ef334e909e03473691f7485163865f8042dba3d6a879ac681526020017f2f67d851c2107217ddc1a155c940d6573a8f8e40e9bb2ba39694675bd0589ad78152508160800151603481518110611ea157611ea06139b5565b5b602002602001018190525060405180604001604052807f0908cd99348a0b6e6846b4b796b28dbc3d165871feb52c9a61d7826f724ff7e281526020017f1ff0dee38287aef7cff30eed3e437dd81f085d0df92bb05dc36125d5f7295ee28152508160800151603581518110611f1957611f186139b5565b5b602002602001018190525060405180604001604052807f1f2360267115bae607b07c4950e0b35bbb69f4a651da77345bcb08b64d7a6c1a81526020017f2b4375c467623e21ff1afc1f56f7076cb6bd9461985fc054ed8c7146482a79c18152508160800151603681518110611f9157611f906139b5565b5b602002602001018190525060405180604001604052807f11d94d98c73431f58d402298165f83db2c85ff9446ec69b75cc08b498ffdb43b81526020017f229e493e7722e4d510e2f7fd05109e2f4ffb1678ee3ee95bccad5f964a5b614c8152508160800151603781518110612009576120086139b5565b5b602002602001018190525060405180604001604052807f171c671646eb833b6140f74b5e546de3a2f4b11a9b713c8ca22b6f27b22b351c81526020017f0c0c2f87135b90a2d9340d3ffe17e0ebdf7a1bb994d342b4ed367752c1f015f18152508160800151603881518110612081576120806139b5565b5b602002602001018190525060405180604001604052807f159b3c1b44e21977905e6f6976f447b6cca3da2b9af8d5f6d772fc9dd800d8ad81526020017f3062db182d46ba4ce01d3f0bf5fa1b36f1915e1bc9d84860d33c2bb73d81453681525081608001516039815181106120f9576120f86139b5565b5b602002602001018190525060405180604001604052807f11dd99eb9a154704ea5e77c01c7688d99b1168aac81071d51aa7dc6a3910ba0281526020017f05ab954bd8f0387fb1c80731bd2fcb24b35d880aa0e80e1e0cf6476700f016f28152508160800151603a81518110612171576121706139b5565b5b602002602001018190525060405180604001604052807f22c7e326359b26f7dac14787b5816b29fd0268454863d0ccd64c3fea794d322381526020017f1cf70fe29210d197744fba44ea28622f5812c048dbb6727820189575ac6c79d28152508160800151603b815181106121e9576121e86139b5565b5b602002602001018190525060405180604001604052807f18128d4a2b0d46cde262f7aeb3706b364090544308558881d94c7438f0b093e381526020017f093a67088c267ccb6d481fa3a7a8bd2f2a55fb2c2d679db56ac585bbe36e92578152508160800151603c81518110612261576122606139b5565b5b602002602001018190525060405180604001604052807f17b6fa6da550e000e7f2327a176e18abf79932a06af0bdc2a484620b77185ad281526020017f11d93af1ca4b36487a5fc9398fcaa2e8a46f891340c7a00442c0246c0118060c8152508160800151603d815181106122d9576122d86139b5565b5b602002602001018190525060405180604001604052807f25c8c7a895adbb8f8347bb47d6e43a390329a5d40cb7c1fb3215556bb9c43a9481526020017f261412caf090dc08f348dabac35e3c55886882cd85cf815c517c46f1ac890ca98152508160800151603e81518110612351576123506139b5565b5b602002602001018190525060405180604001604052807f0bd4c889e2db14fe42f92c3983c4ce98382f567999e90ebd72af1e78380622f481526020017f1153df892b935130b92b18a50f47cd97aea4d449690b08537b7f2e8632747cdf8152508160800151603f815181106123c9576123c86139b5565b5b602002602001018190525060405180604001604052807f10233de21868a0c36696d040d2903cddf3ac5e0a02a82621381f50cd8b368f6681526020017f23e3828e7c978898cfcecb3a76af0a885ddf7c6f9e7cb73c550e6cee06a0e7d08152508160800151604081518110612441576124406139b5565b5b602002602001018190525060405180604001604052807f08ba2225cff2ad5c8b628e2db673e9b554983622fb3cb5167585b91c20f533d881526020017f1b85fb84703a86cdf9d53b0ec28d2899ce6dabded3105418ffddc3c9f8cd011c81525081608001516041815181106124b9576124b86139b5565b5b602002602001018190525060405180604001604052807f2db77ecd864cb7d103d3ba4ee1b1c6d264e79b6b9a7867b37555efdcc0a1d60581526020017f069f490fa6416349bc9d6d47e713b411567dc65c7f295a34da0e4ebbc3d77ba18152508160800151604281518110612531576125306139b5565b5b602002602001018190525060405180604001604052807f03a225dc590d5e3eafae5e7f568cd82f8cb9bbb1969beafadb56561e1dd2391381526020017f274be07467bc8c47b71d3782b67f47f6685bcbe4757c4fbd235c89956857fb9781525081608001516043815181106125a9576125a86139b5565b5b602002602001018190525060405180604001604052807f16303866c8f2068c4e7746ff513d322f410caee28b9a1a5bd2512698c875447481526020017f041c1a58c079dd3d65f481a1a5a8ea01d340d94567babc20ff0f83909f0b76378152508160800151604481518110612621576126206139b5565b5b602002602001018190525060405180604001604052807f2c23adee4fe479b2a48155285b8726af1e51e84a10d66d26af3abb8e0ba304ef81526020017f29505e352a6af4da55866570f6310d26d77ba863647c73108c1d125923789b4a8152508160800151604581518110612699576126986139b5565b5b602002602001018190525060405180604001604052807f0e36f03817dd036e7135f7a872b067084b338a5e7b4948a41ec68e710dcd304c81526020017f23b41cd480dab0cc53117a804006a82959a210442ee186de156e18b5a78adc4c8152508160800151604681518110612711576127106139b5565b5b602002602001018190525060405180604001604052807f1900e5ea8a1c7ffe465bd817ec2a17b1bc2812693cbe4e1ba17c36af7f28e0ff81526020017f07a27e20c229119bc5f772f888fd5166fe45809b8b0c6f47d0c83b25b78926748152508160800151604781518110612789576127886139b5565b5b602002602001018190525060405180604001604052807f11bb10c71cd700a579fbacefebefbec5c7097c31103dc57b59f71db2448c1c5981526020017f04aa85d38e5b788809f41ae3b7fbc55692329aa46bb7c994e4bbc3d43212fe778152508160800151604881518110612801576128006139b5565b5b602002602001018190525060405180604001604052807f11cae0887e98c8c0d7489057fab1aa996b7b48466abcee7d2194bad20abbcd0781526020017f03d4bd2c18b60624728b7df6d6b3df03ae194bf613cbee5a7757aed2ba8c86278152508160800151604981518110612879576128786139b5565b5b602002602001018190525060405180604001604052807f2b80ba4ca6993ba1dca8ef569c6795681365475a834d815614228dc3823efd5181526020017f152a8d832a02d0ae6a0fd3b70c2b4944515c42794dd480a269d5c6befb4267eb8152508160800151604a815181106128f1576128f06139b5565b5b602002602001018190525060405180604001604052807f1ee46acec9ef941deeb3d8fe335f93a2ee331c553301afb8475aa1601034709481526020017f28541391a196b5a902b2515685c607086bed508ea7f499a45ef94c4ee8799c718152508160800151604b81518110612969576129686139b5565b5b602002602001018190525060405180604001604052807f0ba1ade875471718100b34411ac48cfa073a5061576990a714e300dc5293d6b581526020017f1ffcc0c40f91cd25d7ff95f2b1e1c9250a4a3b30f8e693e830896d3c11d804b78152508160800151604c815181106129e1576129e06139b5565b5b602002602001018190525060405180604001604052807f0db89d812bcd8faa16752413e7598077093c0edf5d237d54941830bf60162b0481526020017f02f71084266339307c9225de8209d07fe29df456fbb528dbccfc7f49682b31a58152508160800151604d81518110612a5957612a586139b5565b5b602002602001018190525060405180604001604052807f0cff924b4da3a033392ee7c56ae9e96eda31baf22772bab86fa2b5af546308e581526020017f29f2f0b2b71a378fe64d7e88b84585cd8406a3bb1a878da876f868a62834347f8152508160800151604e81518110612ad157612ad06139b5565b5b602002602001018190525060405180604001604052807f1a7bc097f4863e13c58b1acd05f878806779f39dc6157c31ac5aca4b42dc0a6681526020017f03e3e3f1b34606c31b6490ee340ae8021fb6d7bb8e77bea99ef795caadd543e98152508160800151604f81518110612b4957612b486139b5565b5b602002602001018190525060405180604001604052807f21eff94e793e9fe7035d8953e2d88b74190d76d270ae14acf098ca6d35e0b9d481526020017f1832d36da7ed48fe56af662d24f6b1e2e14b4bece892bce6f597663e785c66878152508160800151605081518110612bc157612bc06139b5565b5b602002602001018190525060405180604001604052807f0bb90ad22ca7971293a0788a31054168cd44c6fee5ec53eaca88a72661a61b4f81526020017f0be9e6a787182470ea349c52ccaa5bf4ea17156f35a7c134fa15851451720e1a8152508160800151605181518110612c3957612c386139b5565b5b602002602001018190525090565b612c4f6133cf565b612c576133e9565b836000015181600060038110612c7057612c6f6139b5565b5b602002018181525050836020015181600160038110612c9257612c916139b5565b5b6020020181815250508281600260038110612cb057612caf6139b5565b5b602002018181525050600060608360808460076107d05a03fa90508060008114612cd957612cdb565bfe5b5080612ce657600080fd5b505092915050565b612cf66133cf565b612cfe61340b565b836000015181600060048110612d1757612d166139b5565b5b602002018181525050836020015181600160048110612d3957612d386139b5565b5b602002018181525050826000015181600260048110612d5b57612d5a6139b5565b5b602002018181525050826020015181600360048110612d7d57612d7c6139b5565b5b602002018181525050600060608360c08460066107d05a03fa90508060008114612da657612da8565bfe5b5080612db357600080fd5b505092915050565b612dc36133cf565b60007f30644e72e131a029b85045b68181585d97816a916871ca8d3c208c16d87cfd47905060008360000151148015612e00575060008360200151145b15612e24576040518060400160405280600081526020016000815250915050612e5b565b604051806040016040528084600001518152602001828560200151612e499190613926565b83612e549190613862565b8152509150505b919050565b600080600467ffffffffffffffff811115612e7e57612e7d6139e4565b5b604051908082528060200260200182016040528015612eb757816020015b612ea46133cf565b815260200190600190039081612e9c5790505b5090506000600467ffffffffffffffff811115612ed757612ed66139e4565b5b604051908082528060200260200182016040528015612f1057816020015b612efd61342d565b815260200190600190039081612ef55790505b5090508a82600081518110612f2857612f276139b5565b5b60200260200101819052508882600181518110612f4857612f476139b5565b5b60200260200101819052508682600281518110612f6857612f676139b5565b5b60200260200101819052508482600381518110612f8857612f876139b5565b5b60200260200101819052508981600081518110612fa857612fa76139b5565b5b60200260200101819052508781600181518110612fc857612fc76139b5565b5b60200260200101819052508581600281518110612fe857612fe76139b5565b5b60200260200101819052508381600381518110613008576130076139b5565b5b602002602001018190525061301d828261302d565b9250505098975050505050505050565b6000815183511461303d57600080fd5b60008351905060006006826130529190613808565b905060008167ffffffffffffffff8111156130705761306f6139e4565b5b60405190808252806020026020018201604052801561309e5781602001602082028036833780820191505090505b50905060005b83811015613323578681815181106130bf576130be6139b5565b5b6020026020010151600001518260006006846130db9190613808565b6130e591906137b2565b815181106130f6576130f56139b5565b5b602002602001018181525050868181518110613115576131146139b5565b5b6020026020010151602001518260016006846131319190613808565b61313b91906137b2565b8151811061314c5761314b6139b5565b5b60200260200101818152505085818151811061316b5761316a6139b5565b5b60200260200101516000015160016002811061318a576131896139b5565b5b602002015182600260068461319f9190613808565b6131a991906137b2565b815181106131ba576131b96139b5565b5b6020026020010181815250508581815181106131d9576131d86139b5565b5b6020026020010151600001516000600281106131f8576131f76139b5565b5b602002015182600360068461320d9190613808565b61321791906137b2565b81518110613228576132276139b5565b5b602002602001018181525050858181518110613247576132466139b5565b5b602002602001015160200151600160028110613266576132656139b5565b5b602002015182600460068461327b9190613808565b61328591906137b2565b81518110613296576132956139b5565b5b6020026020010181815250508581815181106132b5576132b46139b5565b5b6020026020010151602001516000600281106132d4576132d36139b5565b5b60200201518260056006846132e99190613808565b6132f391906137b2565b81518110613304576133036139b5565b5b602002602001018181525050808061331b906138dd565b9150506130a4565b5061332c613453565b6000602082602086026020860160086107d05a03fa9050806000811461335157613353565bfe5b508061335e57600080fd5b600082600060018110613374576133736139b5565b5b602002015114159550505050505092915050565b6040518060a0016040528061339b6133cf565b81526020016133a861342d565b81526020016133b561342d565b81526020016133c261342d565b8152602001606081525090565b604051806040016040528060008152602001600081525090565b6040518060600160405280600390602082028036833780820191505090505090565b6040518060800160405280600490602082028036833780820191505090505090565b6040518060400160405280613440613475565b815260200161344d613475565b81525090565b6040518060200160405280600190602082028036833780820191505090505090565b6040518060400160405280600290602082028036833780820191505090505090565b60006134aa6134a584613766565b613741565b905080828560208602820111156134c4576134c3613a1d565b5b60005b858110156134f457816134da88826136c0565b8452602084019350602083019250506001810190506134c7565b5050509392505050565b600061351161350c8461378c565b613741565b9050808285602086028201111561352b5761352a613a1d565b5b60005b8581101561355b578161354188826136c0565b84526020840193506020830192505060018101905061352e565b5050509392505050565b600082601f83011261357a57613579613a13565b5b6002613587848285613497565b91505092915050565b600082601f8301126135a5576135a4613a13565b5b60516135b28482856134fe565b91505092915050565b6000604082840312156135d1576135d0613a18565b5b6135db6040613741565b905060006135eb848285016136c0565b60008301525060206135ff848285016136c0565b60208301525092915050565b60006080828403121561362157613620613a18565b5b61362b6040613741565b9050600061363b84828501613565565b600083015250604061364f84828501613565565b60208301525092915050565b6000610100828403121561367257613671613a18565b5b61367c6060613741565b9050600061368c848285016135bb565b60008301525060406136a08482850161360b565b60208301525060c06136b4848285016135bb565b60408301525092915050565b6000813590506136cf81613a38565b92915050565b600080610b2083850312156136ed576136ec613a22565b5b60006136fb8582860161365b565b92505061010061370d85828601613590565b9150509250929050565b61372081613896565b82525050565b600060208201905061373b6000830184613717565b92915050565b600061374b61375c565b905061375782826138ac565b919050565b6000604051905090565b600067ffffffffffffffff821115613781576137806139e4565b5b602082029050919050565b600067ffffffffffffffff8211156137a7576137a66139e4565b5b602082029050919050565b60006137bd826138a2565b91506137c8836138a2565b9250827fffffffffffffffffffffffffffffffffffffffffffffffffffffffffffffffff038211156137fd576137fc613957565b5b828201905092915050565b6000613813826138a2565b915061381e836138a2565b9250817fffffffffffffffffffffffffffffffffffffffffffffffffffffffffffffffff048311821515161561385757613856613957565b5b828202905092915050565b600061386d826138a2565b9150613878836138a2565b92508282101561388b5761388a613957565b5b828203905092915050565b60008115159050919050565b6000819050919050565b6138b582613a27565b810181811067ffffffffffffffff821117156138d4576138d36139e4565b5b80604052505050565b60006138e8826138a2565b91507fffffffffffffffffffffffffffffffffffffffffffffffffffffffffffffffff82141561391b5761391a613957565b5b600182019050919050565b6000613931826138a2565b915061393c836138a2565b92508261394c5761394b613986565b5b828206905092915050565b7f4e487b7100000000000000000000000000000000000000000000000000000000600052601160045260246000fd5b7f4e487b7100000000000000000000000000000000000000000000000000000000600052601260045260246000fd5b7f4e487b7100000000000000000000000000000000000000000000000000000000600052603260045260246000fd5b7f4e487b7100000000000000000000000000000000000000000000000000000000600052604160045260246000fd5b600080fd5b600080fd5b600080fd5b600080fd5b6000601f19601f8301169050919050565b613a41816138a2565b8114613a4c57600080fd5b5056fea2646970667358221220ae195c1e5c6f2aa71bdbf9f27be1842dd0b439c63da88598714eb957a9f2ae6a64736f6c63430008060033","opcodes":"PUSH1 0x80 PUSH1 0x40 MSTORE PUSH1 0x0 DUP1 PUSH1 0x8 PUSH2 0x100 EXP DUP2 SLOAD DUP2 PUSH4 0xFFFFFFFF MUL NOT AND SWAP1 DUP4 PUSH4 0xFFFFFFFF AND MUL OR SWAP1 SSTORE POP PUSH1 0x0 PUSH1 0x2 SSTORE PUSH1 0x0 PUSH1 0x3 SSTORE PUSH1 0x40 MLOAD PUSH3 0x3D SWAP1 PUSH3 0x283 JUMP JUMPDEST PUSH1 0x40 MLOAD DUP1 SWAP2 SUB SWAP1 PUSH1 0x0 CREATE DUP1 ISZERO DUP1 ISZERO PUSH3 0x5A JUMPI RETURNDATASIZE PUSH1 0x0 DUP1 RETURNDATACOPY RETURNDATASIZE PUSH1 0x0 REVERT JUMPDEST POP PUSH1 0x5 PUSH1 0x0 PUSH2 0x100 EXP DUP2 SLOAD DUP2 PUSH20 0xFFFFFFFFFFFFFFFFFFFFFFFFFFFFFFFFFFFFFFFF MUL NOT AND SWAP1 DUP4 PUSH20 0xFFFFFFFFFFFFFFFFFFFFFFFFFFFFFFFFFFFFFFFF AND MUL OR SWAP1 SSTORE POP PUSH1 0x40 MLOAD PUSH3 0xA9 SWAP1 PUSH3 0x291 JUMP JUMPDEST PUSH1 0x40 MLOAD DUP1 SWAP2 SUB SWAP1 PUSH1 0x0 CREATE DUP1 ISZERO DUP1 ISZERO PUSH3 0xC6 JUMPI RETURNDATASIZE PUSH1 0x0 DUP1 RETURNDATACOPY RETURNDATASIZE PUSH1 0x0 REVERT JUMPDEST POP PUSH1 0x6 PUSH1 0x0 PUSH2 0x100 EXP DUP2 SLOAD DUP2 PUSH20 0xFFFFFFFFFFFFFFFFFFFFFFFFFFFFFFFFFFFFFFFF MUL NOT AND SWAP1 DUP4 PUSH20 0xFFFFFFFFFFFFFFFFFFFFFFFFFFFFFFFFFFFFFFFF AND MUL OR SWAP1 SSTORE POP CALLVALUE DUP1 ISZERO PUSH3 0x114 JUMPI PUSH1 0x0 DUP1 REVERT JUMPDEST POP PUSH1 0x40 MLOAD PUSH3 0xB3DA CODESIZE SUB DUP1 PUSH3 0xB3DA DUP4 CODECOPY DUP2 DUP2 ADD PUSH1 0x40 MSTORE DUP2 ADD SWAP1 PUSH3 0x13A SWAP2 SWAP1 PUSH3 0x331 JUMP JUMPDEST CALLER PUSH1 0x7 PUSH1 0x0 PUSH2 0x100 EXP DUP2 SLOAD DUP2 PUSH20 0xFFFFFFFFFFFFFFFFFFFFFFFFFFFFFFFFFFFFFFFF MUL NOT AND SWAP1 DUP4 PUSH20 0xFFFFFFFFFFFFFFFFFFFFFFFFFFFFFFFFFFFFFFFF AND MUL OR SWAP1 SSTORE POP PUSH1 0x4 PUSH1 0x7 PUSH1 0x0 SWAP1 SLOAD SWAP1 PUSH2 0x100 EXP SWAP1 DIV PUSH20 0xFFFFFFFFFFFFFFFFFFFFFFFFFFFFFFFFFFFFFFFF AND SWAP1 DUP1 PUSH1 0x1 DUP2 SLOAD ADD DUP1 DUP3 SSTORE DUP1 SWAP2 POP POP PUSH1 0x1 SWAP1 SUB SWAP1 PUSH1 0x0 MSTORE PUSH1 0x20 PUSH1 0x0 KECCAK256 ADD PUSH1 0x0 SWAP1 SWAP2 SWAP1 SWAP2 SWAP1 SWAP2 PUSH2 0x100 EXP DUP2 SLOAD DUP2 PUSH20 0xFFFFFFFFFFFFFFFFFFFFFFFFFFFFFFFFFFFFFFFF MUL NOT AND SWAP1 DUP4 PUSH20 0xFFFFFFFFFFFFFFFFFFFFFFFFFFFFFFFFFFFFFFFF AND MUL OR SWAP1 SSTORE POP DUP3 PUSH1 0x0 DUP1 PUSH2 0x100 EXP DUP2 SLOAD DUP2 PUSH4 0xFFFFFFFF MUL NOT AND SWAP1 DUP4 PUSH4 0xFFFFFFFF AND MUL OR SWAP1 SSTORE POP DUP4 PUSH1 0x0 PUSH1 0x4 PUSH2 0x100 EXP DUP2 SLOAD DUP2 PUSH4 0xFFFFFFFF MUL NOT AND SWAP1 DUP4 PUSH4 0xFFFFFFFF AND MUL OR SWAP1 SSTORE POP PUSH1 0x40 MLOAD DUP1 PUSH1 0x40 ADD PUSH1 0x40 MSTORE DUP1 PUSH1 0x0 DUP2 MSTORE PUSH1 0x20 ADD PUSH1 0x1 DUP2 MSTORE POP PUSH1 0x8 SWAP1 PUSH1 0x2 PUSH3 0x26A SWAP3 SWAP2 SWAP1 PUSH3 0x29F JUMP JUMPDEST POP DUP2 PUSH1 0x2 DUP2 SWAP1 SSTORE POP DUP1 PUSH1 0x3 DUP2 SWAP1 SSTORE POP POP POP POP POP PUSH3 0x3F6 JUMP JUMPDEST PUSH2 0x2EEA DUP1 PUSH3 0x4A4B DUP4 CODECOPY ADD SWAP1 JUMP JUMPDEST PUSH2 0x3AA5 DUP1 PUSH3 0x7935 DUP4 CODECOPY ADD SWAP1 JUMP JUMPDEST DUP3 PUSH1 0x2 DUP2 ADD SWAP3 DUP3 ISZERO PUSH3 0x2D1 JUMPI SWAP2 PUSH1 0x20 MUL DUP3 ADD JUMPDEST DUP3 DUP2 GT ISZERO PUSH3 0x2D0 JUMPI DUP3 MLOAD DUP3 SSTORE SWAP2 PUSH1 0x20 ADD SWAP2 SWAP1 PUSH1 0x1 ADD SWAP1 PUSH3 0x2B3 JUMP JUMPDEST JUMPDEST POP SWAP1 POP PUSH3 0x2E0 SWAP2 SWAP1 PUSH3 0x2E4 JUMP JUMPDEST POP SWAP1 JUMP JUMPDEST JUMPDEST DUP1 DUP3 GT ISZERO PUSH3 0x2FF JUMPI PUSH1 0x0 DUP2 PUSH1 0x0 SWAP1 SSTORE POP PUSH1 0x1 ADD PUSH3 0x2E5 JUMP JUMPDEST POP SWAP1 JUMP JUMPDEST PUSH1 0x0 DUP2 MLOAD SWAP1 POP PUSH3 0x314 DUP2 PUSH3 0x3C2 JUMP JUMPDEST SWAP3 SWAP2 POP POP JUMP JUMPDEST PUSH1 0x0 DUP2 MLOAD SWAP1 POP PUSH3 0x32B DUP2 PUSH3 0x3DC JUMP JUMPDEST SWAP3 SWAP2 POP POP JUMP JUMPDEST PUSH1 0x0 DUP1 PUSH1 0x0 DUP1 PUSH1 0x80 DUP6 DUP8 SUB SLT ISZERO PUSH3 0x34E JUMPI PUSH3 0x34D PUSH3 0x3BD JUMP JUMPDEST JUMPDEST PUSH1 0x0 PUSH3 0x35E DUP8 DUP3 DUP9 ADD PUSH3 0x31A JUMP JUMPDEST SWAP5 POP POP PUSH1 0x20 PUSH3 0x371 DUP8 DUP3 DUP9 ADD PUSH3 0x31A JUMP JUMPDEST SWAP4 POP POP PUSH1 0x40 PUSH3 0x384 DUP8 DUP3 DUP9 ADD PUSH3 0x303 JUMP JUMPDEST SWAP3 POP POP PUSH1 0x60 PUSH3 0x397 DUP8 DUP3 DUP9 ADD PUSH3 0x303 JUMP JUMPDEST SWAP2 POP POP SWAP3 SWAP6 SWAP2 SWAP5 POP SWAP3 POP JUMP JUMPDEST PUSH1 0x0 DUP2 SWAP1 POP SWAP2 SWAP1 POP JUMP JUMPDEST PUSH1 0x0 PUSH4 0xFFFFFFFF DUP3 AND SWAP1 POP SWAP2 SWAP1 POP JUMP JUMPDEST PUSH1 0x0 DUP1 REVERT JUMPDEST PUSH3 0x3CD DUP2 PUSH3 0x3A3 JUMP JUMPDEST DUP2 EQ PUSH3 0x3D9 JUMPI PUSH1 0x0 DUP1 REVERT JUMPDEST POP JUMP JUMPDEST PUSH3 0x3E7 DUP2 PUSH3 0x3AD JUMP JUMPDEST DUP2 EQ PUSH3 0x3F3 JUMPI PUSH1 0x0 DUP1 REVERT JUMPDEST POP JUMP JUMPDEST PUSH2 0x4645 DUP1 PUSH3 0x406 PUSH1 0x0 CODECOPY PUSH1 0x0 RETURN INVALID PUSH1 0x80 PUSH1 0x40 MSTORE PUSH1 0x4 CALLDATASIZE LT PUSH2 0xDD JUMPI PUSH1 0x0 CALLDATALOAD PUSH1 0xE0 SHR DUP1 PUSH4 0x8479E0D3 GT PUSH2 0x7F JUMPI DUP1 PUSH4 0xA261B04A GT PUSH2 0x59 JUMPI DUP1 PUSH4 0xA261B04A EQ PUSH2 0x2C5 JUMPI DUP1 PUSH4 0xBDB900FD EQ PUSH2 0x2DC JUMPI DUP1 PUSH4 0xDBCB1C44 EQ PUSH2 0x305 JUMPI DUP1 PUSH4 0xEF5349D3 EQ PUSH2 0x342 JUMPI PUSH2 0xDD JUMP JUMPDEST DUP1 PUSH4 0x8479E0D3 EQ PUSH2 0x244 JUMPI DUP1 PUSH4 0x85871E49 EQ PUSH2 0x26F JUMPI DUP1 PUSH4 0x89E3B0E5 EQ PUSH2 0x29A JUMPI PUSH2 0xDD JUMP JUMPDEST DUP1 PUSH4 0x1F1895D0 GT PUSH2 0xBB JUMPI DUP1 PUSH4 0x1F1895D0 EQ PUSH2 0x185 JUMPI DUP1 PUSH4 0x3470F117 EQ PUSH2 0x1A1 JUMPI DUP1 PUSH4 0x3DE222EC EQ PUSH2 0x1DE JUMPI DUP1 PUSH4 0x6B437D3C EQ PUSH2 0x21B JUMPI PUSH2 0xDD JUMP JUMPDEST DUP1 PUSH4 0x5DB8C5A EQ PUSH2 0xE2 JUMPI DUP1 PUSH4 0xB9180C5 EQ PUSH2 0x10B JUMPI DUP1 PUSH4 0x1C0B0B58 EQ PUSH2 0x148 JUMPI JUMPDEST PUSH1 0x0 DUP1 REVERT JUMPDEST CALLVALUE DUP1 ISZERO PUSH2 0xEE JUMPI PUSH1 0x0 DUP1 REVERT JUMPDEST POP PUSH2 0x109 PUSH1 0x4 DUP1 CALLDATASIZE SUB DUP2 ADD SWAP1 PUSH2 0x104 SWAP2 SWAP1 PUSH2 0x365C JUMP JUMPDEST PUSH2 0x37F JUMP JUMPDEST STOP JUMPDEST CALLVALUE DUP1 ISZERO PUSH2 0x117 JUMPI PUSH1 0x0 DUP1 REVERT JUMPDEST POP PUSH2 0x132 PUSH1 0x4 DUP1 CALLDATASIZE SUB DUP2 ADD SWAP1 PUSH2 0x12D SWAP2 SWAP1 PUSH2 0x396C JUMP JUMPDEST PUSH2 0x4ED JUMP JUMPDEST PUSH1 0x40 MLOAD PUSH2 0x13F SWAP2 SWAP1 PUSH2 0x3E3E JUMP JUMPDEST PUSH1 0x40 MLOAD DUP1 SWAP2 SUB SWAP1 RETURN JUMPDEST CALLVALUE DUP1 ISZERO PUSH2 0x154 JUMPI PUSH1 0x0 DUP1 REVERT JUMPDEST POP PUSH2 0x16F PUSH1 0x4 DUP1 CALLDATASIZE SUB DUP2 ADD SWAP1 PUSH2 0x16A SWAP2 SWAP1 PUSH2 0x396C JUMP JUMPDEST PUSH2 0x5AA JUMP JUMPDEST PUSH1 0x40 MLOAD PUSH2 0x17C SWAP2 SWAP1 PUSH2 0x3E3E JUMP JUMPDEST PUSH1 0x40 MLOAD DUP1 SWAP2 SUB SWAP1 RETURN JUMPDEST PUSH2 0x19F PUSH1 0x4 DUP1 CALLDATASIZE SUB DUP2 ADD SWAP1 PUSH2 0x19A SWAP2 SWAP1 PUSH2 0x39B5 JUMP JUMPDEST PUSH2 0x667 JUMP JUMPDEST STOP JUMPDEST CALLVALUE DUP1 ISZERO PUSH2 0x1AD JUMPI PUSH1 0x0 DUP1 REVERT JUMPDEST POP PUSH2 0x1C8 PUSH1 0x4 DUP1 CALLDATASIZE SUB DUP2 ADD SWAP1 PUSH2 0x1C3 SWAP2 SWAP1 PUSH2 0x396C JUMP JUMPDEST PUSH2 0x743 JUMP JUMPDEST PUSH1 0x40 MLOAD PUSH2 0x1D5 SWAP2 SWAP1 PUSH2 0x3F31 JUMP JUMPDEST PUSH1 0x40 MLOAD DUP1 SWAP2 SUB SWAP1 RETURN JUMPDEST CALLVALUE DUP1 ISZERO PUSH2 0x1EA JUMPI PUSH1 0x0 DUP1 REVERT JUMPDEST POP PUSH2 0x205 PUSH1 0x4 DUP1 CALLDATASIZE SUB DUP2 ADD SWAP1 PUSH2 0x200 SWAP2 SWAP1 PUSH2 0x39B5 JUMP JUMPDEST PUSH2 0x77B JUMP JUMPDEST PUSH1 0x40 MLOAD PUSH2 0x212 SWAP2 SWAP1 PUSH2 0x3F16 JUMP JUMPDEST PUSH1 0x40 MLOAD DUP1 SWAP2 SUB SWAP1 RETURN JUMPDEST CALLVALUE DUP1 ISZERO PUSH2 0x227 JUMPI PUSH1 0x0 DUP1 REVERT JUMPDEST POP PUSH2 0x242 PUSH1 0x4 DUP1 CALLDATASIZE SUB DUP2 ADD SWAP1 PUSH2 0x23D SWAP2 SWAP1 PUSH2 0x3689 JUMP JUMPDEST PUSH2 0x796 JUMP JUMPDEST STOP JUMPDEST CALLVALUE DUP1 ISZERO PUSH2 0x250 JUMPI PUSH1 0x0 DUP1 REVERT JUMPDEST POP PUSH2 0x259 PUSH2 0xED7 JUMP JUMPDEST PUSH1 0x40 MLOAD PUSH2 0x266 SWAP2 SWAP1 PUSH2 0x3F31 JUMP JUMPDEST PUSH1 0x40 MLOAD DUP1 SWAP2 SUB SWAP1 RETURN JUMPDEST CALLVALUE DUP1 ISZERO PUSH2 0x27B JUMPI PUSH1 0x0 DUP1 REVERT JUMPDEST POP PUSH2 0x284 PUSH2 0xEED JUMP JUMPDEST PUSH1 0x40 MLOAD PUSH2 0x291 SWAP2 SWAP1 PUSH2 0x3F31 JUMP JUMPDEST PUSH1 0x40 MLOAD DUP1 SWAP2 SUB SWAP1 RETURN JUMPDEST CALLVALUE DUP1 ISZERO PUSH2 0x2A6 JUMPI PUSH1 0x0 DUP1 REVERT JUMPDEST POP PUSH2 0x2AF PUSH2 0xF01 JUMP JUMPDEST PUSH1 0x40 MLOAD PUSH2 0x2BC SWAP2 SWAP1 PUSH2 0x3F31 JUMP JUMPDEST PUSH1 0x40 MLOAD DUP1 SWAP2 SUB SWAP1 RETURN JUMPDEST CALLVALUE DUP1 ISZERO PUSH2 0x2D1 JUMPI PUSH1 0x0 DUP1 REVERT JUMPDEST POP PUSH2 0x2DA PUSH2 0xF17 JUMP JUMPDEST STOP JUMPDEST CALLVALUE DUP1 ISZERO PUSH2 0x2E8 JUMPI PUSH1 0x0 DUP1 REVERT JUMPDEST POP PUSH2 0x303 PUSH1 0x4 DUP1 CALLDATASIZE SUB DUP2 ADD SWAP1 PUSH2 0x2FE SWAP2 SWAP1 PUSH2 0x37E4 JUMP JUMPDEST PUSH2 0x113C JUMP JUMPDEST STOP JUMPDEST CALLVALUE DUP1 ISZERO PUSH2 0x311 JUMPI PUSH1 0x0 DUP1 REVERT JUMPDEST POP PUSH2 0x32C PUSH1 0x4 DUP1 CALLDATASIZE SUB DUP2 ADD SWAP1 PUSH2 0x327 SWAP2 SWAP1 PUSH2 0x396C JUMP JUMPDEST PUSH2 0x221E JUMP JUMPDEST PUSH1 0x40 MLOAD PUSH2 0x339 SWAP2 SWAP1 PUSH2 0x3E3E JUMP JUMPDEST PUSH1 0x40 MLOAD DUP1 SWAP2 SUB SWAP1 RETURN JUMPDEST CALLVALUE DUP1 ISZERO PUSH2 0x34E JUMPI PUSH1 0x0 DUP1 REVERT JUMPDEST POP PUSH2 0x369 PUSH1 0x4 DUP1 CALLDATASIZE SUB DUP2 ADD SWAP1 PUSH2 0x364 SWAP2 SWAP1 PUSH2 0x396C JUMP JUMPDEST PUSH2 0x22DB JUMP JUMPDEST PUSH1 0x40 MLOAD PUSH2 0x376 SWAP2 SWAP1 PUSH2 0x3E3E JUMP JUMPDEST PUSH1 0x40 MLOAD DUP1 SWAP2 SUB SWAP1 RETURN JUMPDEST PUSH1 0x4 DUP2 SWAP1 DUP1 PUSH1 0x1 DUP2 SLOAD ADD DUP1 DUP3 SSTORE DUP1 SWAP2 POP POP PUSH1 0x1 SWAP1 SUB SWAP1 PUSH1 0x0 MSTORE PUSH1 0x20 PUSH1 0x0 KECCAK256 ADD PUSH1 0x0 SWAP1 SWAP2 SWAP1 SWAP2 SWAP1 SWAP2 PUSH2 0x100 EXP DUP2 SLOAD DUP2 PUSH20 0xFFFFFFFFFFFFFFFFFFFFFFFFFFFFFFFFFFFFFFFF MUL NOT AND SWAP1 DUP4 PUSH20 0xFFFFFFFFFFFFFFFFFFFFFFFFFFFFFFFFFFFFFFFF AND MUL OR SWAP1 SSTORE POP PUSH1 0x0 PUSH1 0xA PUSH1 0x0 DUP4 PUSH20 0xFFFFFFFFFFFFFFFFFFFFFFFFFFFFFFFFFFFFFFFF AND PUSH20 0xFFFFFFFFFFFFFFFFFFFFFFFFFFFFFFFFFFFFFFFF AND DUP2 MSTORE PUSH1 0x20 ADD SWAP1 DUP2 MSTORE PUSH1 0x20 ADD PUSH1 0x0 KECCAK256 PUSH1 0x0 PUSH2 0x100 EXP DUP2 SLOAD DUP2 PUSH1 0xFF MUL NOT AND SWAP1 DUP4 ISZERO ISZERO MUL OR SWAP1 SSTORE POP PUSH1 0x1 PUSH1 0x13 PUSH1 0x0 DUP4 PUSH20 0xFFFFFFFFFFFFFFFFFFFFFFFFFFFFFFFFFFFFFFFF AND PUSH20 0xFFFFFFFFFFFFFFFFFFFFFFFFFFFFFFFFFFFFFFFF AND DUP2 MSTORE PUSH1 0x20 ADD SWAP1 DUP2 MSTORE PUSH1 0x20 ADD PUSH1 0x0 KECCAK256 PUSH1 0x0 PUSH2 0x100 EXP DUP2 SLOAD DUP2 PUSH1 0xFF MUL NOT AND SWAP1 DUP4 ISZERO ISZERO MUL OR SWAP1 SSTORE POP PUSH1 0x0 PUSH1 0x14 PUSH1 0x0 DUP4 PUSH20 0xFFFFFFFFFFFFFFFFFFFFFFFFFFFFFFFFFFFFFFFF AND PUSH20 0xFFFFFFFFFFFFFFFFFFFFFFFFFFFFFFFFFFFFFFFF AND DUP2 MSTORE PUSH1 0x20 ADD SWAP1 DUP2 MSTORE PUSH1 0x20 ADD PUSH1 0x0 KECCAK256 PUSH1 0x0 PUSH2 0x100 EXP DUP2 SLOAD DUP2 PUSH1 0xFF MUL NOT AND SWAP1 DUP4 ISZERO ISZERO MUL OR SWAP1 SSTORE POP POP JUMP JUMPDEST PUSH1 0x60 PUSH1 0xE DUP3 PUSH1 0x40 MLOAD PUSH2 0x4FF SWAP2 SWAP1 PUSH2 0x3E10 JUMP JUMPDEST SWAP1 DUP2 MSTORE PUSH1 0x20 ADD PUSH1 0x40 MLOAD DUP1 SWAP2 SUB SWAP1 KECCAK256 DUP1 SLOAD DUP1 PUSH1 0x20 MUL PUSH1 0x20 ADD PUSH1 0x40 MLOAD SWAP1 DUP2 ADD PUSH1 0x40 MSTORE DUP1 SWAP3 SWAP2 SWAP1 DUP2 DUP2 MSTORE PUSH1 0x20 ADD PUSH1 0x0 SWAP1 JUMPDEST DUP3 DUP3 LT ISZERO PUSH2 0x59F JUMPI DUP4 DUP3 SWAP1 PUSH1 0x0 MSTORE PUSH1 0x20 PUSH1 0x0 KECCAK256 ADD DUP1 SLOAD DUP1 PUSH1 0x20 MUL PUSH1 0x20 ADD PUSH1 0x40 MLOAD SWAP1 DUP2 ADD PUSH1 0x40 MSTORE DUP1 SWAP3 SWAP2 SWAP1 DUP2 DUP2 MSTORE PUSH1 0x20 ADD DUP3 DUP1 SLOAD DUP1 ISZERO PUSH2 0x58B JUMPI PUSH1 0x20 MUL DUP3 ADD SWAP2 SWAP1 PUSH1 0x0 MSTORE PUSH1 0x20 PUSH1 0x0 KECCAK256 SWAP1 JUMPDEST DUP2 SLOAD DUP2 MSTORE PUSH1 0x20 ADD SWAP1 PUSH1 0x1 ADD SWAP1 DUP1 DUP4 GT PUSH2 0x577 JUMPI JUMPDEST POP POP POP POP POP DUP2 MSTORE PUSH1 0x20 ADD SWAP1 PUSH1 0x1 ADD SWAP1 PUSH2 0x52D JUMP JUMPDEST POP POP POP POP SWAP1 POP SWAP2 SWAP1 POP JUMP JUMPDEST PUSH1 0x60 PUSH1 0x10 DUP3 PUSH1 0x40 MLOAD PUSH2 0x5BC SWAP2 SWAP1 PUSH2 0x3E10 JUMP JUMPDEST SWAP1 DUP2 MSTORE PUSH1 0x20 ADD PUSH1 0x40 MLOAD DUP1 SWAP2 SUB SWAP1 KECCAK256 DUP1 SLOAD DUP1 PUSH1 0x20 MUL PUSH1 0x20 ADD PUSH1 0x40 MLOAD SWAP1 DUP2 ADD PUSH1 0x40 MSTORE DUP1 SWAP3 SWAP2 SWAP1 DUP2 DUP2 MSTORE PUSH1 0x20 ADD PUSH1 0x0 SWAP1 JUMPDEST DUP3 DUP3 LT ISZERO PUSH2 0x65C JUMPI DUP4 DUP3 SWAP1 PUSH1 0x0 MSTORE PUSH1 0x20 PUSH1 0x0 KECCAK256 ADD DUP1 SLOAD DUP1 PUSH1 0x20 MUL PUSH1 0x20 ADD PUSH1 0x40 MLOAD SWAP1 DUP2 ADD PUSH1 0x40 MSTORE DUP1 SWAP3 SWAP2 SWAP1 DUP2 DUP2 MSTORE PUSH1 0x20 ADD DUP3 DUP1 SLOAD DUP1 ISZERO PUSH2 0x648 JUMPI PUSH1 0x20 MUL DUP3 ADD SWAP2 SWAP1 PUSH1 0x0 MSTORE PUSH1 0x20 PUSH1 0x0 KECCAK256 SWAP1 JUMPDEST DUP2 SLOAD DUP2 MSTORE PUSH1 0x20 ADD SWAP1 PUSH1 0x1 ADD SWAP1 DUP1 DUP4 GT PUSH2 0x634 JUMPI JUMPDEST POP POP POP POP POP DUP2 MSTORE PUSH1 0x20 ADD SWAP1 PUSH1 0x1 ADD SWAP1 PUSH2 0x5EA JUMP JUMPDEST POP POP POP POP SWAP1 POP SWAP2 SWAP1 POP JUMP JUMPDEST PUSH1 0x3 SLOAD PUSH1 0x2 SLOAD PUSH2 0x677 SWAP2 SWAP1 PUSH2 0x417B JUMP JUMPDEST CALLVALUE EQ PUSH2 0x682 JUMPI PUSH1 0x0 DUP1 REVERT JUMPDEST PUSH1 0x0 PUSH2 0x68D DUP3 PUSH2 0x2398 JUMP JUMPDEST SWAP1 POP PUSH2 0x6D6 PUSH1 0x8 PUSH1 0x2 DUP1 PUSH1 0x20 MUL PUSH1 0x40 MLOAD SWAP1 DUP2 ADD PUSH1 0x40 MSTORE DUP1 SWAP3 SWAP2 SWAP1 DUP3 PUSH1 0x2 DUP1 ISZERO PUSH2 0x6CB JUMPI PUSH1 0x20 MUL DUP3 ADD SWAP2 JUMPDEST DUP2 SLOAD DUP2 MSTORE PUSH1 0x20 ADD SWAP1 PUSH1 0x1 ADD SWAP1 DUP1 DUP4 GT PUSH2 0x6B7 JUMPI JUMPDEST POP POP POP POP POP DUP3 PUSH2 0x2556 JUMP JUMPDEST PUSH1 0x8 SWAP1 PUSH1 0x2 PUSH2 0x6E6 SWAP3 SWAP2 SWAP1 PUSH2 0x2F19 JUMP JUMPDEST POP PUSH1 0x1 PUSH1 0x14 PUSH1 0x0 CALLER PUSH20 0xFFFFFFFFFFFFFFFFFFFFFFFFFFFFFFFFFFFFFFFF AND PUSH20 0xFFFFFFFFFFFFFFFFFFFFFFFFFFFFFFFFFFFFFFFF AND DUP2 MSTORE PUSH1 0x20 ADD SWAP1 DUP2 MSTORE PUSH1 0x20 ADD PUSH1 0x0 KECCAK256 PUSH1 0x0 PUSH2 0x100 EXP DUP2 SLOAD DUP2 PUSH1 0xFF MUL NOT AND SWAP1 DUP4 ISZERO ISZERO MUL OR SWAP1 SSTORE POP POP POP JUMP JUMPDEST PUSH1 0x0 PUSH1 0x12 DUP3 PUSH1 0x40 MLOAD PUSH2 0x755 SWAP2 SWAP1 PUSH2 0x3E10 JUMP JUMPDEST SWAP1 DUP2 MSTORE PUSH1 0x20 ADD PUSH1 0x40 MLOAD DUP1 SWAP2 SUB SWAP1 KECCAK256 PUSH1 0x0 SWAP1 SLOAD SWAP1 PUSH2 0x100 EXP SWAP1 DIV PUSH4 0xFFFFFFFF AND SWAP1 POP SWAP2 SWAP1 POP JUMP JUMPDEST PUSH1 0x8 DUP2 PUSH1 0x2 DUP2 LT PUSH2 0x78B JUMPI PUSH1 0x0 DUP1 REVERT JUMPDEST ADD PUSH1 0x0 SWAP2 POP SWAP1 POP SLOAD DUP2 JUMP JUMPDEST PUSH2 0x79E PUSH2 0x2F59 JUMP JUMPDEST PUSH1 0x40 MLOAD DUP1 PUSH1 0x60 ADD PUSH1 0x40 MSTORE DUP1 PUSH1 0x40 MLOAD DUP1 PUSH1 0x40 ADD PUSH1 0x40 MSTORE DUP1 DUP14 PUSH1 0x0 PUSH1 0x2 DUP2 LT PUSH2 0x7C8 JUMPI PUSH2 0x7C7 PUSH2 0x44A1 JUMP JUMPDEST JUMPDEST PUSH1 0x20 MUL ADD MLOAD DUP2 MSTORE PUSH1 0x20 ADD DUP14 PUSH1 0x1 PUSH1 0x2 DUP2 LT PUSH2 0x7E6 JUMPI PUSH2 0x7E5 PUSH2 0x44A1 JUMP JUMPDEST JUMPDEST PUSH1 0x20 MUL ADD MLOAD DUP2 MSTORE POP DUP2 MSTORE PUSH1 0x20 ADD PUSH1 0x40 MLOAD DUP1 PUSH1 0x40 ADD PUSH1 0x40 MSTORE DUP1 DUP13 PUSH1 0x0 PUSH1 0x2 DUP2 LT PUSH2 0x812 JUMPI PUSH2 0x811 PUSH2 0x44A1 JUMP JUMPDEST JUMPDEST PUSH1 0x20 MUL ADD MLOAD DUP2 MSTORE PUSH1 0x20 ADD DUP13 PUSH1 0x1 PUSH1 0x2 DUP2 LT PUSH2 0x830 JUMPI PUSH2 0x82F PUSH2 0x44A1 JUMP JUMPDEST JUMPDEST PUSH1 0x20 MUL ADD MLOAD DUP2 MSTORE POP DUP2 MSTORE PUSH1 0x20 ADD PUSH1 0x40 MLOAD DUP1 PUSH1 0x40 ADD PUSH1 0x40 MSTORE DUP1 DUP12 PUSH1 0x0 PUSH1 0x2 DUP2 LT PUSH2 0x85C JUMPI PUSH2 0x85B PUSH2 0x44A1 JUMP JUMPDEST JUMPDEST PUSH1 0x20 MUL ADD MLOAD DUP2 MSTORE PUSH1 0x20 ADD DUP12 PUSH1 0x1 PUSH1 0x2 DUP2 LT PUSH2 0x87A JUMPI PUSH2 0x879 PUSH2 0x44A1 JUMP JUMPDEST JUMPDEST PUSH1 0x20 MUL ADD MLOAD DUP2 MSTORE POP DUP2 MSTORE POP SWAP1 POP PUSH2 0x88F PUSH2 0x2F8C JUMP JUMPDEST PUSH1 0x0 DUP1 PUSH1 0x0 SWAP1 POP JUMPDEST PUSH1 0x6 DUP2 PUSH4 0xFFFFFFFF AND LT ISZERO PUSH2 0xC1C JUMPI PUSH1 0x0 JUMPDEST PUSH1 0x0 DUP1 SLOAD SWAP1 PUSH2 0x100 EXP SWAP1 DIV PUSH4 0xFFFFFFFF AND PUSH4 0xFFFFFFFF AND DUP2 PUSH4 0xFFFFFFFF AND LT ISZERO PUSH2 0xC08 JUMPI DUP1 DUP3 PUSH1 0x0 DUP1 SLOAD SWAP1 PUSH2 0x100 EXP SWAP1 DIV PUSH4 0xFFFFFFFF AND PUSH2 0x8EA SWAP2 SWAP1 PUSH2 0x420B JUMP JUMPDEST PUSH2 0x8F4 SWAP2 SWAP1 PUSH2 0x41D1 JUMP JUMPDEST SWAP3 POP PUSH1 0x0 DUP3 PUSH4 0xFFFFFFFF AND EQ ISZERO PUSH2 0x98A JUMPI PUSH1 0xD DUP7 PUSH1 0x40 MLOAD PUSH2 0x915 SWAP2 SWAP1 PUSH2 0x3E10 JUMP JUMPDEST SWAP1 DUP2 MSTORE PUSH1 0x20 ADD PUSH1 0x40 MLOAD DUP1 SWAP2 SUB SWAP1 KECCAK256 PUSH1 0x0 DUP2 SLOAD DUP2 LT PUSH2 0x936 JUMPI PUSH2 0x935 PUSH2 0x44A1 JUMP JUMPDEST JUMPDEST SWAP1 PUSH1 0x0 MSTORE PUSH1 0x20 PUSH1 0x0 KECCAK256 ADD DUP2 PUSH4 0xFFFFFFFF AND DUP2 SLOAD DUP2 LT PUSH2 0x958 JUMPI PUSH2 0x957 PUSH2 0x44A1 JUMP JUMPDEST JUMPDEST SWAP1 PUSH1 0x0 MSTORE PUSH1 0x20 PUSH1 0x0 KECCAK256 ADD SLOAD DUP5 DUP5 PUSH4 0xFFFFFFFF AND PUSH1 0x51 DUP2 LT PUSH2 0x97C JUMPI PUSH2 0x97B PUSH2 0x44A1 JUMP JUMPDEST JUMPDEST PUSH1 0x20 MUL ADD DUP2 DUP2 MSTORE POP POP PUSH2 0xBF5 JUMP JUMPDEST PUSH1 0x1 DUP3 PUSH4 0xFFFFFFFF AND EQ ISZERO PUSH2 0xA1E JUMPI PUSH1 0xF DUP7 PUSH1 0x40 MLOAD PUSH2 0x9A9 SWAP2 SWAP1 PUSH2 0x3E10 JUMP JUMPDEST SWAP1 DUP2 MSTORE PUSH1 0x20 ADD PUSH1 0x40 MLOAD DUP1 SWAP2 SUB SWAP1 KECCAK256 PUSH1 0x0 DUP2 SLOAD DUP2 LT PUSH2 0x9CA JUMPI PUSH2 0x9C9 PUSH2 0x44A1 JUMP JUMPDEST JUMPDEST SWAP1 PUSH1 0x0 MSTORE PUSH1 0x20 PUSH1 0x0 KECCAK256 ADD DUP2 PUSH4 0xFFFFFFFF AND DUP2 SLOAD DUP2 LT PUSH2 0x9EC JUMPI PUSH2 0x9EB PUSH2 0x44A1 JUMP JUMPDEST JUMPDEST SWAP1 PUSH1 0x0 MSTORE PUSH1 0x20 PUSH1 0x0 KECCAK256 ADD SLOAD DUP5 DUP5 PUSH4 0xFFFFFFFF AND PUSH1 0x51 DUP2 LT PUSH2 0xA10 JUMPI PUSH2 0xA0F PUSH2 0x44A1 JUMP JUMPDEST JUMPDEST PUSH1 0x20 MUL ADD DUP2 DUP2 MSTORE POP POP PUSH2 0xBF4 JUMP JUMPDEST PUSH1 0x2 DUP3 PUSH4 0xFFFFFFFF AND EQ ISZERO PUSH2 0xA75 JUMPI DUP11 DUP2 PUSH4 0xFFFFFFFF AND DUP2 MLOAD DUP2 LT PUSH2 0xA46 JUMPI PUSH2 0xA45 PUSH2 0x44A1 JUMP JUMPDEST JUMPDEST PUSH1 0x20 MUL PUSH1 0x20 ADD ADD MLOAD DUP5 DUP5 PUSH4 0xFFFFFFFF AND PUSH1 0x51 DUP2 LT PUSH2 0xA67 JUMPI PUSH2 0xA66 PUSH2 0x44A1 JUMP JUMPDEST JUMPDEST PUSH1 0x20 MUL ADD DUP2 DUP2 MSTORE POP POP PUSH2 0xBF3 JUMP JUMPDEST PUSH1 0x3 DUP3 PUSH4 0xFFFFFFFF AND EQ ISZERO PUSH2 0xB09 JUMPI PUSH1 0xE DUP7 PUSH1 0x40 MLOAD PUSH2 0xA94 SWAP2 SWAP1 PUSH2 0x3E10 JUMP JUMPDEST SWAP1 DUP2 MSTORE PUSH1 0x20 ADD PUSH1 0x40 MLOAD DUP1 SWAP2 SUB SWAP1 KECCAK256 PUSH1 0x0 DUP2 SLOAD DUP2 LT PUSH2 0xAB5 JUMPI PUSH2 0xAB4 PUSH2 0x44A1 JUMP JUMPDEST JUMPDEST SWAP1 PUSH1 0x0 MSTORE PUSH1 0x20 PUSH1 0x0 KECCAK256 ADD DUP2 PUSH4 0xFFFFFFFF AND DUP2 SLOAD DUP2 LT PUSH2 0xAD7 JUMPI PUSH2 0xAD6 PUSH2 0x44A1 JUMP JUMPDEST JUMPDEST SWAP1 PUSH1 0x0 MSTORE PUSH1 0x20 PUSH1 0x0 KECCAK256 ADD SLOAD DUP5 DUP5 PUSH4 0xFFFFFFFF AND PUSH1 0x51 DUP2 LT PUSH2 0xAFB JUMPI PUSH2 0xAFA PUSH2 0x44A1 JUMP JUMPDEST JUMPDEST PUSH1 0x20 MUL ADD DUP2 DUP2 MSTORE POP POP PUSH2 0xBF2 JUMP JUMPDEST PUSH1 0x4 DUP3 PUSH4 0xFFFFFFFF AND EQ ISZERO PUSH2 0xB9D JUMPI PUSH1 0x10 DUP7 PUSH1 0x40 MLOAD PUSH2 0xB28 SWAP2 SWAP1 PUSH2 0x3E10 JUMP JUMPDEST SWAP1 DUP2 MSTORE PUSH1 0x20 ADD PUSH1 0x40 MLOAD DUP1 SWAP2 SUB SWAP1 KECCAK256 PUSH1 0x0 DUP2 SLOAD DUP2 LT PUSH2 0xB49 JUMPI PUSH2 0xB48 PUSH2 0x44A1 JUMP JUMPDEST JUMPDEST SWAP1 PUSH1 0x0 MSTORE PUSH1 0x20 PUSH1 0x0 KECCAK256 ADD DUP2 PUSH4 0xFFFFFFFF AND DUP2 SLOAD DUP2 LT PUSH2 0xB6B JUMPI PUSH2 0xB6A PUSH2 0x44A1 JUMP JUMPDEST JUMPDEST SWAP1 PUSH1 0x0 MSTORE PUSH1 0x20 PUSH1 0x0 KECCAK256 ADD SLOAD DUP5 DUP5 PUSH4 0xFFFFFFFF AND PUSH1 0x51 DUP2 LT PUSH2 0xB8F JUMPI PUSH2 0xB8E PUSH2 0x44A1 JUMP JUMPDEST JUMPDEST PUSH1 0x20 MUL ADD DUP2 DUP2 MSTORE POP POP PUSH2 0xBF1 JUMP JUMPDEST PUSH1 0x5 DUP3 PUSH4 0xFFFFFFFF AND EQ ISZERO PUSH2 0xBF0 JUMPI DUP9 DUP2 PUSH4 0xFFFFFFFF AND DUP2 MLOAD DUP2 LT PUSH2 0xBC5 JUMPI PUSH2 0xBC4 PUSH2 0x44A1 JUMP JUMPDEST JUMPDEST PUSH1 0x20 MUL PUSH1 0x20 ADD ADD MLOAD DUP5 DUP5 PUSH4 0xFFFFFFFF AND PUSH1 0x51 DUP2 LT PUSH2 0xBE6 JUMPI PUSH2 0xBE5 PUSH2 0x44A1 JUMP JUMPDEST JUMPDEST PUSH1 0x20 MUL ADD DUP2 DUP2 MSTORE POP POP JUMPDEST JUMPDEST JUMPDEST JUMPDEST JUMPDEST JUMPDEST DUP1 DUP1 PUSH2 0xC00 SWAP1 PUSH2 0x43E7 JUMP JUMPDEST SWAP2 POP POP PUSH2 0x8A9 JUMP JUMPDEST POP DUP1 DUP1 PUSH2 0xC14 SWAP1 PUSH2 0x43E7 JUMP JUMPDEST SWAP2 POP POP PUSH2 0x897 JUMP JUMPDEST POP DUP5 PUSH1 0x0 PUSH1 0x2 DUP2 LT PUSH2 0xC31 JUMPI PUSH2 0xC30 PUSH2 0x44A1 JUMP JUMPDEST JUMPDEST PUSH1 0x20 MUL ADD MLOAD DUP3 PUSH1 0x1 DUP4 PUSH2 0xC44 SWAP2 SWAP1 PUSH2 0x41D1 JUMP JUMPDEST PUSH4 0xFFFFFFFF AND PUSH1 0x51 DUP2 LT PUSH2 0xC5B JUMPI PUSH2 0xC5A PUSH2 0x44A1 JUMP JUMPDEST JUMPDEST PUSH1 0x20 MUL ADD DUP2 DUP2 MSTORE POP POP DUP5 PUSH1 0x1 PUSH1 0x2 DUP2 LT PUSH2 0xC78 JUMPI PUSH2 0xC77 PUSH2 0x44A1 JUMP JUMPDEST JUMPDEST PUSH1 0x20 MUL ADD MLOAD DUP3 PUSH1 0x2 DUP4 PUSH2 0xC8B SWAP2 SWAP1 PUSH2 0x41D1 JUMP JUMPDEST PUSH4 0xFFFFFFFF AND PUSH1 0x51 DUP2 LT PUSH2 0xCA2 JUMPI PUSH2 0xCA1 PUSH2 0x44A1 JUMP JUMPDEST JUMPDEST PUSH1 0x20 MUL ADD DUP2 DUP2 MSTORE POP POP PUSH1 0x1 DUP3 PUSH1 0x3 DUP4 PUSH2 0xCBB SWAP2 SWAP1 PUSH2 0x41D1 JUMP JUMPDEST PUSH4 0xFFFFFFFF AND PUSH1 0x51 DUP2 LT PUSH2 0xCD2 JUMPI PUSH2 0xCD1 PUSH2 0x44A1 JUMP JUMPDEST JUMPDEST PUSH1 0x20 MUL ADD DUP2 DUP2 MSTORE POP POP PUSH1 0x6 PUSH1 0x0 SWAP1 SLOAD SWAP1 PUSH2 0x100 EXP SWAP1 DIV PUSH20 0xFFFFFFFFFFFFFFFFFFFFFFFFFFFFFFFFFFFFFFFF AND PUSH20 0xFFFFFFFFFFFFFFFFFFFFFFFFFFFFFFFFFFFFFFFF AND PUSH4 0xEEFA323D DUP5 DUP5 PUSH1 0x40 MLOAD DUP4 PUSH4 0xFFFFFFFF AND PUSH1 0xE0 SHL DUP2 MSTORE PUSH1 0x4 ADD PUSH2 0xD38 SWAP3 SWAP2 SWAP1 PUSH2 0x3EEB JUMP JUMPDEST PUSH1 0x20 PUSH1 0x40 MLOAD DUP1 DUP4 SUB DUP2 DUP7 DUP1 EXTCODESIZE ISZERO DUP1 ISZERO PUSH2 0xD50 JUMPI PUSH1 0x0 DUP1 REVERT JUMPDEST POP GAS STATICCALL ISZERO DUP1 ISZERO PUSH2 0xD64 JUMPI RETURNDATASIZE PUSH1 0x0 DUP1 RETURNDATACOPY RETURNDATASIZE PUSH1 0x0 REVERT JUMPDEST POP POP POP POP PUSH1 0x40 MLOAD RETURNDATASIZE PUSH1 0x1F NOT PUSH1 0x1F DUP3 ADD AND DUP3 ADD DUP1 PUSH1 0x40 MSTORE POP DUP2 ADD SWAP1 PUSH2 0xD88 SWAP2 SWAP1 PUSH2 0x393F JUMP JUMPDEST PUSH2 0xDC7 JUMPI PUSH1 0x40 MLOAD PUSH32 0x8C379A000000000000000000000000000000000000000000000000000000000 DUP2 MSTORE PUSH1 0x4 ADD PUSH2 0xDBE SWAP1 PUSH2 0x3EA0 JUMP JUMPDEST PUSH1 0x40 MLOAD DUP1 SWAP2 SUB SWAP1 REVERT JUMPDEST PUSH1 0x15 PUSH1 0x0 CALLER PUSH20 0xFFFFFFFFFFFFFFFFFFFFFFFFFFFFFFFFFFFFFFFF AND PUSH20 0xFFFFFFFFFFFFFFFFFFFFFFFFFFFFFFFFFFFFFFFF AND DUP2 MSTORE PUSH1 0x20 ADD SWAP1 DUP2 MSTORE PUSH1 0x20 ADD PUSH1 0x0 KECCAK256 PUSH1 0x0 DUP2 DUP2 SWAP1 SLOAD SWAP1 PUSH2 0x100 EXP SWAP1 DIV PUSH4 0xFFFFFFFF AND DUP1 SWAP3 SWAP2 SWAP1 PUSH2 0xE26 SWAP1 PUSH2 0x43E7 JUMP JUMPDEST SWAP2 SWAP1 PUSH2 0x100 EXP DUP2 SLOAD DUP2 PUSH4 0xFFFFFFFF MUL NOT AND SWAP1 DUP4 PUSH4 0xFFFFFFFF AND MUL OR SWAP1 SSTORE POP POP PUSH1 0x40 MLOAD DUP1 PUSH1 0x40 ADD PUSH1 0x40 MSTORE DUP1 DUP11 DUP2 MSTORE PUSH1 0x20 ADD DUP10 DUP2 MSTORE POP PUSH1 0xF DUP6 PUSH1 0x40 MLOAD PUSH2 0xE6A SWAP2 SWAP1 PUSH2 0x3E10 JUMP JUMPDEST SWAP1 DUP2 MSTORE PUSH1 0x20 ADD PUSH1 0x40 MLOAD DUP1 SWAP2 SUB SWAP1 KECCAK256 SWAP1 PUSH1 0x2 PUSH2 0xE86 SWAP3 SWAP2 SWAP1 PUSH2 0x2FAF JUMP JUMPDEST POP PUSH1 0x40 MLOAD DUP1 PUSH1 0x40 ADD PUSH1 0x40 MSTORE DUP1 DUP9 DUP2 MSTORE PUSH1 0x20 ADD DUP8 DUP2 MSTORE POP PUSH1 0x10 DUP6 PUSH1 0x40 MLOAD PUSH2 0xEAC SWAP2 SWAP1 PUSH2 0x3E10 JUMP JUMPDEST SWAP1 DUP2 MSTORE PUSH1 0x20 ADD PUSH1 0x40 MLOAD DUP1 SWAP2 SUB SWAP1 KECCAK256 SWAP1 PUSH1 0x2 PUSH2 0xEC8 SWAP3 SWAP2 SWAP1 PUSH2 0x2FAF JUMP JUMPDEST POP POP POP POP POP POP POP POP POP POP POP POP POP JUMP JUMPDEST PUSH1 0x0 PUSH1 0x8 SWAP1 SLOAD SWAP1 PUSH2 0x100 EXP SWAP1 DIV PUSH4 0xFFFFFFFF AND DUP2 JUMP JUMPDEST PUSH1 0x0 DUP1 SLOAD SWAP1 PUSH2 0x100 EXP SWAP1 DIV PUSH4 0xFFFFFFFF AND DUP2 JUMP JUMPDEST PUSH1 0x0 PUSH1 0x4 SWAP1 SLOAD SWAP1 PUSH2 0x100 EXP SWAP1 DIV PUSH4 0xFFFFFFFF AND DUP2 JUMP JUMPDEST PUSH1 0x7 PUSH1 0x0 SWAP1 SLOAD SWAP1 PUSH2 0x100 EXP SWAP1 DIV PUSH20 0xFFFFFFFFFFFFFFFFFFFFFFFFFFFFFFFFFFFFFFFF AND PUSH20 0xFFFFFFFFFFFFFFFFFFFFFFFFFFFFFFFFFFFFFFFF AND CALLER PUSH20 0xFFFFFFFFFFFFFFFFFFFFFFFFFFFFFFFFFFFFFFFF AND EQ PUSH2 0xFA7 JUMPI PUSH1 0x40 MLOAD PUSH32 0x8C379A000000000000000000000000000000000000000000000000000000000 DUP2 MSTORE PUSH1 0x4 ADD PUSH2 0xF9E SWAP1 PUSH2 0x3E60 JUMP JUMPDEST PUSH1 0x40 MLOAD DUP1 SWAP2 SUB SWAP1 REVERT JUMPDEST PUSH1 0x0 PUSH1 0x1 DUP1 SLOAD SWAP1 POP SWAP1 POP PUSH1 0x0 JUMPDEST DUP2 DUP2 PUSH4 0xFFFFFFFF AND LT ISZERO PUSH2 0x10F7 JUMPI PUSH1 0xB PUSH1 0x1 DUP3 PUSH4 0xFFFFFFFF AND DUP2 SLOAD DUP2 LT PUSH2 0xFDE JUMPI PUSH2 0xFDD PUSH2 0x44A1 JUMP JUMPDEST JUMPDEST SWAP1 PUSH1 0x0 MSTORE PUSH1 0x20 PUSH1 0x0 KECCAK256 ADD PUSH1 0x40 MLOAD PUSH2 0xFF5 SWAP2 SWAP1 PUSH2 0x3E27 JUMP JUMPDEST SWAP1 DUP2 MSTORE PUSH1 0x20 ADD PUSH1 0x40 MLOAD DUP1 SWAP2 SUB SWAP1 KECCAK256 PUSH1 0xF PUSH1 0x1 DUP4 PUSH4 0xFFFFFFFF AND DUP2 SLOAD DUP2 LT PUSH2 0x101F JUMPI PUSH2 0x101E PUSH2 0x44A1 JUMP JUMPDEST JUMPDEST SWAP1 PUSH1 0x0 MSTORE PUSH1 0x20 PUSH1 0x0 KECCAK256 ADD PUSH1 0x40 MLOAD PUSH2 0x1036 SWAP2 SWAP1 PUSH2 0x3E27 JUMP JUMPDEST SWAP1 DUP2 MSTORE PUSH1 0x20 ADD PUSH1 0x40 MLOAD DUP1 SWAP2 SUB SWAP1 KECCAK256 SWAP1 DUP1 SLOAD PUSH2 0x1052 SWAP3 SWAP2 SWAP1 PUSH2 0x300F JUMP JUMPDEST POP PUSH1 0xC PUSH1 0x1 DUP3 PUSH4 0xFFFFFFFF AND DUP2 SLOAD DUP2 LT PUSH2 0x106F JUMPI PUSH2 0x106E PUSH2 0x44A1 JUMP JUMPDEST JUMPDEST SWAP1 PUSH1 0x0 MSTORE PUSH1 0x20 PUSH1 0x0 KECCAK256 ADD PUSH1 0x40 MLOAD PUSH2 0x1086 SWAP2 SWAP1 PUSH2 0x3E27 JUMP JUMPDEST SWAP1 DUP2 MSTORE PUSH1 0x20 ADD PUSH1 0x40 MLOAD DUP1 SWAP2 SUB SWAP1 KECCAK256 PUSH1 0x10 PUSH1 0x1 DUP4 PUSH4 0xFFFFFFFF AND DUP2 SLOAD DUP2 LT PUSH2 0x10B0 JUMPI PUSH2 0x10AF PUSH2 0x44A1 JUMP JUMPDEST JUMPDEST SWAP1 PUSH1 0x0 MSTORE PUSH1 0x20 PUSH1 0x0 KECCAK256 ADD PUSH1 0x40 MLOAD PUSH2 0x10C7 SWAP2 SWAP1 PUSH2 0x3E27 JUMP JUMPDEST SWAP1 DUP2 MSTORE PUSH1 0x20 ADD PUSH1 0x40 MLOAD DUP1 SWAP2 SUB SWAP1 KECCAK256 SWAP1 DUP1 SLOAD PUSH2 0x10E3 SWAP3 SWAP2 SWAP1 PUSH2 0x300F JUMP JUMPDEST POP DUP1 DUP1 PUSH2 0x10EF SWAP1 PUSH2 0x43E7 JUMP JUMPDEST SWAP2 POP POP PUSH2 0xFB4 JUMP JUMPDEST POP PUSH1 0x0 PUSH1 0x8 DUP2 DUP2 SWAP1 SLOAD SWAP1 PUSH2 0x100 EXP SWAP1 DIV PUSH4 0xFFFFFFFF AND DUP1 SWAP3 SWAP2 SWAP1 PUSH2 0x111A SWAP1 PUSH2 0x43E7 JUMP JUMPDEST SWAP2 SWAP1 PUSH2 0x100 EXP DUP2 SLOAD DUP2 PUSH4 0xFFFFFFFF MUL NOT AND SWAP1 DUP4 PUSH4 0xFFFFFFFF AND MUL OR SWAP1 SSTORE POP POP POP JUMP JUMPDEST PUSH2 0x1144 PUSH2 0x306E JUMP JUMPDEST PUSH2 0x114C PUSH2 0x3091 JUMP JUMPDEST PUSH2 0x1154 PUSH2 0x30C4 JUMP JUMPDEST DUP9 DUP4 PUSH1 0x0 PUSH1 0x38 DUP2 LT PUSH2 0x1169 JUMPI PUSH2 0x1168 PUSH2 0x44A1 JUMP JUMPDEST JUMPDEST PUSH1 0x20 MUL ADD DUP2 DUP2 MSTORE POP POP PUSH1 0x40 MLOAD DUP1 PUSH1 0x60 ADD PUSH1 0x40 MSTORE DUP1 PUSH1 0x40 MLOAD DUP1 PUSH1 0x40 ADD PUSH1 0x40 MSTORE DUP1 DUP16 PUSH1 0x0 PUSH1 0x2 DUP2 LT PUSH2 0x119C JUMPI PUSH2 0x119B PUSH2 0x44A1 JUMP JUMPDEST JUMPDEST PUSH1 0x20 MUL ADD MLOAD DUP2 MSTORE PUSH1 0x20 ADD DUP16 PUSH1 0x1 PUSH1 0x2 DUP2 LT PUSH2 0x11BA JUMPI PUSH2 0x11B9 PUSH2 0x44A1 JUMP JUMPDEST JUMPDEST PUSH1 0x20 MUL ADD MLOAD DUP2 MSTORE POP DUP2 MSTORE PUSH1 0x20 ADD PUSH1 0x40 MLOAD DUP1 PUSH1 0x40 ADD PUSH1 0x40 MSTORE DUP1 DUP15 PUSH1 0x0 PUSH1 0x2 DUP2 LT PUSH2 0x11E6 JUMPI PUSH2 0x11E5 PUSH2 0x44A1 JUMP JUMPDEST JUMPDEST PUSH1 0x20 MUL ADD MLOAD DUP2 MSTORE PUSH1 0x20 ADD DUP15 PUSH1 0x1 PUSH1 0x2 DUP2 LT PUSH2 0x1204 JUMPI PUSH2 0x1203 PUSH2 0x44A1 JUMP JUMPDEST JUMPDEST PUSH1 0x20 MUL ADD MLOAD DUP2 MSTORE POP DUP2 MSTORE PUSH1 0x20 ADD PUSH1 0x40 MLOAD DUP1 PUSH1 0x40 ADD PUSH1 0x40 MSTORE DUP1 DUP14 PUSH1 0x0 PUSH1 0x2 DUP2 LT PUSH2 0x1230 JUMPI PUSH2 0x122F PUSH2 0x44A1 JUMP JUMPDEST JUMPDEST PUSH1 0x20 MUL ADD MLOAD DUP2 MSTORE PUSH1 0x20 ADD DUP14 PUSH1 0x1 PUSH1 0x2 DUP2 LT PUSH2 0x124E JUMPI PUSH2 0x124D PUSH2 0x44A1 JUMP JUMPDEST JUMPDEST PUSH1 0x20 MUL ADD MLOAD DUP2 MSTORE POP DUP2 MSTORE POP SWAP2 POP PUSH1 0x0 DUP1 PUSH1 0x0 SWAP1 POP JUMPDEST PUSH1 0x4 DUP2 PUSH4 0xFFFFFFFF AND LT ISZERO PUSH2 0x14BC JUMPI PUSH1 0x0 JUMPDEST PUSH1 0x0 DUP1 SLOAD SWAP1 PUSH2 0x100 EXP SWAP1 DIV PUSH4 0xFFFFFFFF AND PUSH4 0xFFFFFFFF AND DUP2 PUSH4 0xFFFFFFFF AND LT ISZERO PUSH2 0x14A8 JUMPI PUSH1 0x1 DUP2 DUP4 PUSH1 0x0 DUP1 SLOAD SWAP1 PUSH2 0x100 EXP SWAP1 DIV PUSH4 0xFFFFFFFF AND PUSH2 0x12B8 SWAP2 SWAP1 PUSH2 0x420B JUMP JUMPDEST PUSH2 0x12C2 SWAP2 SWAP1 PUSH2 0x41D1 JUMP JUMPDEST PUSH2 0x12CC SWAP2 SWAP1 PUSH2 0x41D1 JUMP JUMPDEST SWAP3 POP PUSH1 0x0 DUP3 PUSH4 0xFFFFFFFF AND EQ ISZERO PUSH2 0x1340 JUMPI DUP11 PUSH1 0x0 DUP2 MLOAD DUP2 LT PUSH2 0x12F1 JUMPI PUSH2 0x12F0 PUSH2 0x44A1 JUMP JUMPDEST JUMPDEST PUSH1 0x20 MUL PUSH1 0x20 ADD ADD MLOAD DUP2 PUSH4 0xFFFFFFFF AND DUP2 MLOAD DUP2 LT PUSH2 0x1311 JUMPI PUSH2 0x1310 PUSH2 0x44A1 JUMP JUMPDEST JUMPDEST PUSH1 0x20 MUL PUSH1 0x20 ADD ADD MLOAD DUP7 DUP5 PUSH4 0xFFFFFFFF AND PUSH1 0x38 DUP2 LT PUSH2 0x1332 JUMPI PUSH2 0x1331 PUSH2 0x44A1 JUMP JUMPDEST JUMPDEST PUSH1 0x20 MUL ADD DUP2 DUP2 MSTORE POP POP PUSH2 0x1495 JUMP JUMPDEST PUSH1 0x1 DUP3 PUSH4 0xFFFFFFFF AND EQ ISZERO PUSH2 0x13B2 JUMPI DUP10 PUSH1 0x0 DUP2 MLOAD DUP2 LT PUSH2 0x1363 JUMPI PUSH2 0x1362 PUSH2 0x44A1 JUMP JUMPDEST JUMPDEST PUSH1 0x20 MUL PUSH1 0x20 ADD ADD MLOAD DUP2 PUSH4 0xFFFFFFFF AND DUP2 MLOAD DUP2 LT PUSH2 0x1383 JUMPI PUSH2 0x1382 PUSH2 0x44A1 JUMP JUMPDEST JUMPDEST PUSH1 0x20 MUL PUSH1 0x20 ADD ADD MLOAD DUP7 DUP5 PUSH4 0xFFFFFFFF AND PUSH1 0x38 DUP2 LT PUSH2 0x13A4 JUMPI PUSH2 0x13A3 PUSH2 0x44A1 JUMP JUMPDEST JUMPDEST PUSH1 0x20 MUL ADD DUP2 DUP2 MSTORE POP POP PUSH2 0x1494 JUMP JUMPDEST PUSH1 0x2 DUP3 PUSH4 0xFFFFFFFF AND EQ ISZERO PUSH2 0x1424 JUMPI DUP9 PUSH1 0x0 DUP2 MLOAD DUP2 LT PUSH2 0x13D5 JUMPI PUSH2 0x13D4 PUSH2 0x44A1 JUMP JUMPDEST JUMPDEST PUSH1 0x20 MUL PUSH1 0x20 ADD ADD MLOAD DUP2 PUSH4 0xFFFFFFFF AND DUP2 MLOAD DUP2 LT PUSH2 0x13F5 JUMPI PUSH2 0x13F4 PUSH2 0x44A1 JUMP JUMPDEST JUMPDEST PUSH1 0x20 MUL PUSH1 0x20 ADD ADD MLOAD DUP7 DUP5 PUSH4 0xFFFFFFFF AND PUSH1 0x38 DUP2 LT PUSH2 0x1416 JUMPI PUSH2 0x1415 PUSH2 0x44A1 JUMP JUMPDEST JUMPDEST PUSH1 0x20 MUL ADD DUP2 DUP2 MSTORE POP POP PUSH2 0x1493 JUMP JUMPDEST PUSH1 0x3 DUP3 PUSH4 0xFFFFFFFF AND EQ ISZERO PUSH2 0x1492 JUMPI DUP8 PUSH1 0x0 DUP2 MLOAD DUP2 LT PUSH2 0x1447 JUMPI PUSH2 0x1446 PUSH2 0x44A1 JUMP JUMPDEST JUMPDEST PUSH1 0x20 MUL PUSH1 0x20 ADD ADD MLOAD DUP2 PUSH4 0xFFFFFFFF AND DUP2 MLOAD DUP2 LT PUSH2 0x1467 JUMPI PUSH2 0x1466 PUSH2 0x44A1 JUMP JUMPDEST JUMPDEST PUSH1 0x20 MUL PUSH1 0x20 ADD ADD MLOAD DUP7 DUP5 PUSH4 0xFFFFFFFF AND PUSH1 0x38 DUP2 LT PUSH2 0x1488 JUMPI PUSH2 0x1487 PUSH2 0x44A1 JUMP JUMPDEST JUMPDEST PUSH1 0x20 MUL ADD DUP2 DUP2 MSTORE POP POP JUMPDEST JUMPDEST JUMPDEST JUMPDEST DUP1 DUP1 PUSH2 0x14A0 SWAP1 PUSH2 0x43E7 JUMP JUMPDEST SWAP2 POP POP PUSH2 0x1275 JUMP JUMPDEST POP DUP1 DUP1 PUSH2 0x14B4 SWAP1 PUSH2 0x43E7 JUMP JUMPDEST SWAP2 POP POP PUSH2 0x1263 JUMP JUMPDEST POP PUSH1 0x8 PUSH1 0x0 PUSH1 0x2 DUP2 LT PUSH2 0x14D2 JUMPI PUSH2 0x14D1 PUSH2 0x44A1 JUMP JUMPDEST JUMPDEST ADD SLOAD DUP5 PUSH1 0x1 DUP4 PUSH2 0x14E2 SWAP2 SWAP1 PUSH2 0x41D1 JUMP JUMPDEST PUSH4 0xFFFFFFFF AND PUSH1 0x38 DUP2 LT PUSH2 0x14F9 JUMPI PUSH2 0x14F8 PUSH2 0x44A1 JUMP JUMPDEST JUMPDEST PUSH1 0x20 MUL ADD DUP2 DUP2 MSTORE POP POP PUSH1 0x8 PUSH1 0x1 PUSH1 0x2 DUP2 LT PUSH2 0x1517 JUMPI PUSH2 0x1516 PUSH2 0x44A1 JUMP JUMPDEST JUMPDEST ADD SLOAD DUP5 PUSH1 0x2 DUP4 PUSH2 0x1527 SWAP2 SWAP1 PUSH2 0x41D1 JUMP JUMPDEST PUSH4 0xFFFFFFFF AND PUSH1 0x38 DUP2 LT PUSH2 0x153E JUMPI PUSH2 0x153D PUSH2 0x44A1 JUMP JUMPDEST JUMPDEST PUSH1 0x20 MUL ADD DUP2 DUP2 MSTORE POP POP PUSH1 0x1 DUP5 PUSH1 0x3 DUP4 PUSH2 0x1557 SWAP2 SWAP1 PUSH2 0x41D1 JUMP JUMPDEST PUSH4 0xFFFFFFFF AND PUSH1 0x38 DUP2 LT PUSH2 0x156E JUMPI PUSH2 0x156D PUSH2 0x44A1 JUMP JUMPDEST JUMPDEST PUSH1 0x20 MUL ADD DUP2 DUP2 MSTORE POP POP PUSH1 0x5 PUSH1 0x0 SWAP1 SLOAD SWAP1 PUSH2 0x100 EXP SWAP1 DIV PUSH20 0xFFFFFFFFFFFFFFFFFFFFFFFFFFFFFFFFFFFFFFFF AND PUSH20 0xFFFFFFFFFFFFFFFFFFFFFFFFFFFFFFFFFFFFFFFF AND PUSH4 0xB581ABE6 DUP5 DUP7 PUSH1 0x40 MLOAD DUP4 PUSH4 0xFFFFFFFF AND PUSH1 0xE0 SHL DUP2 MSTORE PUSH1 0x4 ADD PUSH2 0x15D4 SWAP3 SWAP2 SWAP1 PUSH2 0x3EC0 JUMP JUMPDEST PUSH1 0x20 PUSH1 0x40 MLOAD DUP1 DUP4 SUB DUP2 DUP7 DUP1 EXTCODESIZE ISZERO DUP1 ISZERO PUSH2 0x15EC JUMPI PUSH1 0x0 DUP1 REVERT JUMPDEST POP GAS STATICCALL ISZERO DUP1 ISZERO PUSH2 0x1600 JUMPI RETURNDATASIZE PUSH1 0x0 DUP1 RETURNDATACOPY RETURNDATASIZE PUSH1 0x0 REVERT JUMPDEST POP POP POP POP PUSH1 0x40 MLOAD RETURNDATASIZE PUSH1 0x1F NOT PUSH1 0x1F DUP3 ADD AND DUP3 ADD DUP1 PUSH1 0x40 MSTORE POP DUP2 ADD SWAP1 PUSH2 0x1624 SWAP2 SWAP1 PUSH2 0x393F JUMP JUMPDEST PUSH2 0x1663 JUMPI PUSH1 0x40 MLOAD PUSH32 0x8C379A000000000000000000000000000000000000000000000000000000000 DUP2 MSTORE PUSH1 0x4 ADD PUSH2 0x165A SWAP1 PUSH2 0x3E80 JUMP JUMPDEST PUSH1 0x40 MLOAD DUP1 SWAP2 SUB SWAP1 REVERT JUMPDEST PUSH1 0x1 PUSH1 0x12 DUP7 PUSH1 0x40 MLOAD PUSH2 0x1675 SWAP2 SWAP1 PUSH2 0x3E10 JUMP JUMPDEST SWAP1 DUP2 MSTORE PUSH1 0x20 ADD PUSH1 0x40 MLOAD DUP1 SWAP2 SUB SWAP1 KECCAK256 PUSH1 0x0 DUP3 DUP3 DUP3 SWAP1 SLOAD SWAP1 PUSH2 0x100 EXP SWAP1 DIV PUSH4 0xFFFFFFFF AND PUSH2 0x16A1 SWAP2 SWAP1 PUSH2 0x41D1 JUMP JUMPDEST SWAP3 POP PUSH2 0x100 EXP DUP2 SLOAD DUP2 PUSH4 0xFFFFFFFF MUL NOT AND SWAP1 DUP4 PUSH4 0xFFFFFFFF AND MUL OR SWAP1 SSTORE POP PUSH1 0x11 DUP6 PUSH1 0x40 MLOAD PUSH2 0x16CF SWAP2 SWAP1 PUSH2 0x3E10 JUMP JUMPDEST SWAP1 DUP2 MSTORE PUSH1 0x20 ADD PUSH1 0x40 MLOAD DUP1 SWAP2 SUB SWAP1 KECCAK256 PUSH1 0x0 SWAP1 SLOAD SWAP1 PUSH2 0x100 EXP SWAP1 DIV PUSH1 0xFF AND PUSH2 0x1833 JUMPI PUSH1 0x1 DUP6 SWAP1 DUP1 PUSH1 0x1 DUP2 SLOAD ADD DUP1 DUP3 SSTORE DUP1 SWAP2 POP POP PUSH1 0x1 SWAP1 SUB SWAP1 PUSH1 0x0 MSTORE PUSH1 0x20 PUSH1 0x0 KECCAK256 ADD PUSH1 0x0 SWAP1 SWAP2 SWAP1 SWAP2 SWAP1 SWAP2 POP SWAP1 DUP1 MLOAD SWAP1 PUSH1 0x20 ADD SWAP1 PUSH2 0x172A SWAP3 SWAP2 SWAP1 PUSH2 0x30E6 JUMP JUMPDEST POP DUP8 PUSH1 0xB DUP7 PUSH1 0x40 MLOAD PUSH2 0x173C SWAP2 SWAP1 PUSH2 0x3E10 JUMP JUMPDEST SWAP1 DUP2 MSTORE PUSH1 0x20 ADD PUSH1 0x40 MLOAD DUP1 SWAP2 SUB SWAP1 KECCAK256 SWAP1 DUP1 MLOAD SWAP1 PUSH1 0x20 ADD SWAP1 PUSH2 0x175D SWAP3 SWAP2 SWAP1 PUSH2 0x316C JUMP JUMPDEST POP DUP6 PUSH1 0xC DUP7 PUSH1 0x40 MLOAD PUSH2 0x176F SWAP2 SWAP1 PUSH2 0x3E10 JUMP JUMPDEST SWAP1 DUP2 MSTORE PUSH1 0x20 ADD PUSH1 0x40 MLOAD DUP1 SWAP2 SUB SWAP1 KECCAK256 SWAP1 DUP1 MLOAD SWAP1 PUSH1 0x20 ADD SWAP1 PUSH2 0x1790 SWAP3 SWAP2 SWAP1 PUSH2 0x316C JUMP JUMPDEST POP PUSH1 0x1 PUSH1 0x11 DUP7 PUSH1 0x40 MLOAD PUSH2 0x17A3 SWAP2 SWAP1 PUSH2 0x3E10 JUMP JUMPDEST SWAP1 DUP2 MSTORE PUSH1 0x20 ADD PUSH1 0x40 MLOAD DUP1 SWAP2 SUB SWAP1 KECCAK256 PUSH1 0x0 PUSH2 0x100 EXP DUP2 SLOAD DUP2 PUSH1 0xFF MUL NOT AND SWAP1 DUP4 ISZERO ISZERO MUL OR SWAP1 SSTORE POP DUP9 PUSH1 0xD DUP7 PUSH1 0x40 MLOAD PUSH2 0x17D9 SWAP2 SWAP1 PUSH2 0x3E10 JUMP JUMPDEST SWAP1 DUP2 MSTORE PUSH1 0x20 ADD PUSH1 0x40 MLOAD DUP1 SWAP2 SUB SWAP1 KECCAK256 SWAP1 DUP1 MLOAD SWAP1 PUSH1 0x20 ADD SWAP1 PUSH2 0x17FA SWAP3 SWAP2 SWAP1 PUSH2 0x316C JUMP JUMPDEST POP DUP7 PUSH1 0xE DUP7 PUSH1 0x40 MLOAD PUSH2 0x180C SWAP2 SWAP1 PUSH2 0x3E10 JUMP JUMPDEST SWAP1 DUP2 MSTORE PUSH1 0x20 ADD PUSH1 0x40 MLOAD DUP1 SWAP2 SUB SWAP1 KECCAK256 SWAP1 DUP1 MLOAD SWAP1 PUSH1 0x20 ADD SWAP1 PUSH2 0x182D SWAP3 SWAP2 SWAP1 PUSH2 0x316C JUMP JUMPDEST POP PUSH2 0x220F JUMP JUMPDEST PUSH1 0x0 JUMPDEST PUSH1 0x0 DUP1 SLOAD SWAP1 PUSH2 0x100 EXP SWAP1 DIV PUSH4 0xFFFFFFFF AND PUSH4 0xFFFFFFFF AND DUP2 PUSH4 0xFFFFFFFF AND LT ISZERO PUSH2 0x220D JUMPI PUSH2 0x19CC PUSH2 0x18F0 PUSH1 0x40 MLOAD DUP1 PUSH1 0x40 ADD PUSH1 0x40 MSTORE DUP1 DUP13 PUSH1 0x0 DUP2 MLOAD DUP2 LT PUSH2 0x187F JUMPI PUSH2 0x187E PUSH2 0x44A1 JUMP JUMPDEST JUMPDEST PUSH1 0x20 MUL PUSH1 0x20 ADD ADD MLOAD DUP6 PUSH4 0xFFFFFFFF AND DUP2 MLOAD DUP2 LT PUSH2 0x189F JUMPI PUSH2 0x189E PUSH2 0x44A1 JUMP JUMPDEST JUMPDEST PUSH1 0x20 MUL PUSH1 0x20 ADD ADD MLOAD DUP2 MSTORE PUSH1 0x20 ADD DUP13 PUSH1 0x1 DUP2 MLOAD DUP2 LT PUSH2 0x18C0 JUMPI PUSH2 0x18BF PUSH2 0x44A1 JUMP JUMPDEST JUMPDEST PUSH1 0x20 MUL PUSH1 0x20 ADD ADD MLOAD DUP6 PUSH4 0xFFFFFFFF AND DUP2 MLOAD DUP2 LT PUSH2 0x18E0 JUMPI PUSH2 0x18DF PUSH2 0x44A1 JUMP JUMPDEST JUMPDEST PUSH1 0x20 MUL PUSH1 0x20 ADD ADD MLOAD DUP2 MSTORE POP PUSH2 0x289E JUMP JUMPDEST PUSH2 0x19C7 PUSH1 0x40 MLOAD DUP1 PUSH1 0x40 ADD PUSH1 0x40 MSTORE DUP1 PUSH1 0xB DUP12 PUSH1 0x40 MLOAD PUSH2 0x190E SWAP2 SWAP1 PUSH2 0x3E10 JUMP JUMPDEST SWAP1 DUP2 MSTORE PUSH1 0x20 ADD PUSH1 0x40 MLOAD DUP1 SWAP2 SUB SWAP1 KECCAK256 PUSH1 0x0 DUP2 SLOAD DUP2 LT PUSH2 0x192F JUMPI PUSH2 0x192E PUSH2 0x44A1 JUMP JUMPDEST JUMPDEST SWAP1 PUSH1 0x0 MSTORE PUSH1 0x20 PUSH1 0x0 KECCAK256 ADD DUP7 PUSH4 0xFFFFFFFF AND DUP2 SLOAD DUP2 LT PUSH2 0x1951 JUMPI PUSH2 0x1950 PUSH2 0x44A1 JUMP JUMPDEST JUMPDEST SWAP1 PUSH1 0x0 MSTORE PUSH1 0x20 PUSH1 0x0 KECCAK256 ADD SLOAD DUP2 MSTORE PUSH1 0x20 ADD PUSH1 0xB DUP12 PUSH1 0x40 MLOAD PUSH2 0x1971 SWAP2 SWAP1 PUSH2 0x3E10 JUMP JUMPDEST SWAP1 DUP2 MSTORE PUSH1 0x20 ADD PUSH1 0x40 MLOAD DUP1 SWAP2 SUB SWAP1 KECCAK256 PUSH1 0x1 DUP2 SLOAD DUP2 LT PUSH2 0x1992 JUMPI PUSH2 0x1991 PUSH2 0x44A1 JUMP JUMPDEST JUMPDEST SWAP1 PUSH1 0x0 MSTORE PUSH1 0x20 PUSH1 0x0 KECCAK256 ADD DUP7 PUSH4 0xFFFFFFFF AND DUP2 SLOAD DUP2 LT PUSH2 0x19B4 JUMPI PUSH2 0x19B3 PUSH2 0x44A1 JUMP JUMPDEST JUMPDEST SWAP1 PUSH1 0x0 MSTORE PUSH1 0x20 PUSH1 0x0 KECCAK256 ADD SLOAD DUP2 MSTORE POP PUSH2 0x289E JUMP JUMPDEST PUSH2 0x29B5 JUMP JUMPDEST SWAP3 POP DUP3 PUSH1 0x0 PUSH1 0x2 DUP2 LT PUSH2 0x19E2 JUMPI PUSH2 0x19E1 PUSH2 0x44A1 JUMP JUMPDEST JUMPDEST PUSH1 0x20 MUL ADD MLOAD PUSH1 0xB DUP8 PUSH1 0x40 MLOAD PUSH2 0x19F7 SWAP2 SWAP1 PUSH2 0x3E10 JUMP JUMPDEST SWAP1 DUP2 MSTORE PUSH1 0x20 ADD PUSH1 0x40 MLOAD DUP1 SWAP2 SUB SWAP1 KECCAK256 PUSH1 0x0 DUP2 SLOAD DUP2 LT PUSH2 0x1A18 JUMPI PUSH2 0x1A17 PUSH2 0x44A1 JUMP JUMPDEST JUMPDEST SWAP1 PUSH1 0x0 MSTORE PUSH1 0x20 PUSH1 0x0 KECCAK256 ADD DUP3 PUSH4 0xFFFFFFFF AND DUP2 SLOAD DUP2 LT PUSH2 0x1A3A JUMPI PUSH2 0x1A39 PUSH2 0x44A1 JUMP JUMPDEST JUMPDEST SWAP1 PUSH1 0x0 MSTORE PUSH1 0x20 PUSH1 0x0 KECCAK256 ADD DUP2 SWAP1 SSTORE POP DUP3 PUSH1 0x1 PUSH1 0x2 DUP2 LT PUSH2 0x1A5C JUMPI PUSH2 0x1A5B PUSH2 0x44A1 JUMP JUMPDEST JUMPDEST PUSH1 0x20 MUL ADD MLOAD PUSH1 0xB DUP8 PUSH1 0x40 MLOAD PUSH2 0x1A71 SWAP2 SWAP1 PUSH2 0x3E10 JUMP JUMPDEST SWAP1 DUP2 MSTORE PUSH1 0x20 ADD PUSH1 0x40 MLOAD DUP1 SWAP2 SUB SWAP1 KECCAK256 PUSH1 0x1 DUP2 SLOAD DUP2 LT PUSH2 0x1A92 JUMPI PUSH2 0x1A91 PUSH2 0x44A1 JUMP JUMPDEST JUMPDEST SWAP1 PUSH1 0x0 MSTORE PUSH1 0x20 PUSH1 0x0 KECCAK256 ADD DUP3 PUSH4 0xFFFFFFFF AND DUP2 SLOAD DUP2 LT PUSH2 0x1AB4 JUMPI PUSH2 0x1AB3 PUSH2 0x44A1 JUMP JUMPDEST JUMPDEST SWAP1 PUSH1 0x0 MSTORE PUSH1 0x20 PUSH1 0x0 KECCAK256 ADD DUP2 SWAP1 SSTORE POP PUSH2 0x1C34 PUSH2 0x1B58 PUSH1 0x40 MLOAD DUP1 PUSH1 0x40 ADD PUSH1 0x40 MSTORE DUP1 DUP11 PUSH1 0x0 DUP2 MLOAD DUP2 LT PUSH2 0x1AE7 JUMPI PUSH2 0x1AE6 PUSH2 0x44A1 JUMP JUMPDEST JUMPDEST PUSH1 0x20 MUL PUSH1 0x20 ADD ADD MLOAD DUP6 PUSH4 0xFFFFFFFF AND DUP2 MLOAD DUP2 LT PUSH2 0x1B07 JUMPI PUSH2 0x1B06 PUSH2 0x44A1 JUMP JUMPDEST JUMPDEST PUSH1 0x20 MUL PUSH1 0x20 ADD ADD MLOAD DUP2 MSTORE PUSH1 0x20 ADD DUP11 PUSH1 0x1 DUP2 MLOAD DUP2 LT PUSH2 0x1B28 JUMPI PUSH2 0x1B27 PUSH2 0x44A1 JUMP JUMPDEST JUMPDEST PUSH1 0x20 MUL PUSH1 0x20 ADD ADD MLOAD DUP6 PUSH4 0xFFFFFFFF AND DUP2 MLOAD DUP2 LT PUSH2 0x1B48 JUMPI PUSH2 0x1B47 PUSH2 0x44A1 JUMP JUMPDEST JUMPDEST PUSH1 0x20 MUL PUSH1 0x20 ADD ADD MLOAD DUP2 MSTORE POP PUSH2 0x289E JUMP JUMPDEST PUSH2 0x1C2F PUSH1 0x40 MLOAD DUP1 PUSH1 0x40 ADD PUSH1 0x40 MSTORE DUP1 PUSH1 0xC DUP12 PUSH1 0x40 MLOAD PUSH2 0x1B76 SWAP2 SWAP1 PUSH2 0x3E10 JUMP JUMPDEST SWAP1 DUP2 MSTORE PUSH1 0x20 ADD PUSH1 0x40 MLOAD DUP1 SWAP2 SUB SWAP1 KECCAK256 PUSH1 0x0 DUP2 SLOAD DUP2 LT PUSH2 0x1B97 JUMPI PUSH2 0x1B96 PUSH2 0x44A1 JUMP JUMPDEST JUMPDEST SWAP1 PUSH1 0x0 MSTORE PUSH1 0x20 PUSH1 0x0 KECCAK256 ADD DUP7 PUSH4 0xFFFFFFFF AND DUP2 SLOAD DUP2 LT PUSH2 0x1BB9 JUMPI PUSH2 0x1BB8 PUSH2 0x44A1 JUMP JUMPDEST JUMPDEST SWAP1 PUSH1 0x0 MSTORE PUSH1 0x20 PUSH1 0x0 KECCAK256 ADD SLOAD DUP2 MSTORE PUSH1 0x20 ADD PUSH1 0xC DUP12 PUSH1 0x40 MLOAD PUSH2 0x1BD9 SWAP2 SWAP1 PUSH2 0x3E10 JUMP JUMPDEST SWAP1 DUP2 MSTORE PUSH1 0x20 ADD PUSH1 0x40 MLOAD DUP1 SWAP2 SUB SWAP1 KECCAK256 PUSH1 0x1 DUP2 SLOAD DUP2 LT PUSH2 0x1BFA JUMPI PUSH2 0x1BF9 PUSH2 0x44A1 JUMP JUMPDEST JUMPDEST SWAP1 PUSH1 0x0 MSTORE PUSH1 0x20 PUSH1 0x0 KECCAK256 ADD DUP7 PUSH4 0xFFFFFFFF AND DUP2 SLOAD DUP2 LT PUSH2 0x1C1C JUMPI PUSH2 0x1C1B PUSH2 0x44A1 JUMP JUMPDEST JUMPDEST SWAP1 PUSH1 0x0 MSTORE PUSH1 0x20 PUSH1 0x0 KECCAK256 ADD SLOAD DUP2 MSTORE POP PUSH2 0x289E JUMP JUMPDEST PUSH2 0x29B5 JUMP JUMPDEST SWAP3 POP DUP3 PUSH1 0x0 PUSH1 0x2 DUP2 LT PUSH2 0x1C4A JUMPI PUSH2 0x1C49 PUSH2 0x44A1 JUMP JUMPDEST JUMPDEST PUSH1 0x20 MUL ADD MLOAD PUSH1 0xC DUP8 PUSH1 0x40 MLOAD PUSH2 0x1C5F SWAP2 SWAP1 PUSH2 0x3E10 JUMP JUMPDEST SWAP1 DUP2 MSTORE PUSH1 0x20 ADD PUSH1 0x40 MLOAD DUP1 SWAP2 SUB SWAP1 KECCAK256 PUSH1 0x0 DUP2 SLOAD DUP2 LT PUSH2 0x1C80 JUMPI PUSH2 0x1C7F PUSH2 0x44A1 JUMP JUMPDEST JUMPDEST SWAP1 PUSH1 0x0 MSTORE PUSH1 0x20 PUSH1 0x0 KECCAK256 ADD DUP3 PUSH4 0xFFFFFFFF AND DUP2 SLOAD DUP2 LT PUSH2 0x1CA2 JUMPI PUSH2 0x1CA1 PUSH2 0x44A1 JUMP JUMPDEST JUMPDEST SWAP1 PUSH1 0x0 MSTORE PUSH1 0x20 PUSH1 0x0 KECCAK256 ADD DUP2 SWAP1 SSTORE POP DUP3 PUSH1 0x1 PUSH1 0x2 DUP2 LT PUSH2 0x1CC4 JUMPI PUSH2 0x1CC3 PUSH2 0x44A1 JUMP JUMPDEST JUMPDEST PUSH1 0x20 MUL ADD MLOAD PUSH1 0xC DUP8 PUSH1 0x40 MLOAD PUSH2 0x1CD9 SWAP2 SWAP1 PUSH2 0x3E10 JUMP JUMPDEST SWAP1 DUP2 MSTORE PUSH1 0x20 ADD PUSH1 0x40 MLOAD DUP1 SWAP2 SUB SWAP1 KECCAK256 PUSH1 0x1 DUP2 SLOAD DUP2 LT PUSH2 0x1CFA JUMPI PUSH2 0x1CF9 PUSH2 0x44A1 JUMP JUMPDEST JUMPDEST SWAP1 PUSH1 0x0 MSTORE PUSH1 0x20 PUSH1 0x0 KECCAK256 ADD DUP3 PUSH4 0xFFFFFFFF AND DUP2 SLOAD DUP2 LT PUSH2 0x1D1C JUMPI PUSH2 0x1D1B PUSH2 0x44A1 JUMP JUMPDEST JUMPDEST SWAP1 PUSH1 0x0 MSTORE PUSH1 0x20 PUSH1 0x0 KECCAK256 ADD DUP2 SWAP1 SSTORE POP PUSH2 0x1E9C PUSH2 0x1DC0 PUSH1 0x40 MLOAD DUP1 PUSH1 0x40 ADD PUSH1 0x40 MSTORE DUP1 DUP14 PUSH1 0x0 DUP2 MLOAD DUP2 LT PUSH2 0x1D4F JUMPI PUSH2 0x1D4E PUSH2 0x44A1 JUMP JUMPDEST JUMPDEST PUSH1 0x20 MUL PUSH1 0x20 ADD ADD MLOAD DUP6 PUSH4 0xFFFFFFFF AND DUP2 MLOAD DUP2 LT PUSH2 0x1D6F JUMPI PUSH2 0x1D6E PUSH2 0x44A1 JUMP JUMPDEST JUMPDEST PUSH1 0x20 MUL PUSH1 0x20 ADD ADD MLOAD DUP2 MSTORE PUSH1 0x20 ADD DUP14 PUSH1 0x1 DUP2 MLOAD DUP2 LT PUSH2 0x1D90 JUMPI PUSH2 0x1D8F PUSH2 0x44A1 JUMP JUMPDEST JUMPDEST PUSH1 0x20 MUL PUSH1 0x20 ADD ADD MLOAD DUP6 PUSH4 0xFFFFFFFF AND DUP2 MLOAD DUP2 LT PUSH2 0x1DB0 JUMPI PUSH2 0x1DAF PUSH2 0x44A1 JUMP JUMPDEST JUMPDEST PUSH1 0x20 MUL PUSH1 0x20 ADD ADD MLOAD DUP2 MSTORE POP PUSH2 0x289E JUMP JUMPDEST PUSH2 0x1E97 PUSH1 0x40 MLOAD DUP1 PUSH1 0x40 ADD PUSH1 0x40 MSTORE DUP1 PUSH1 0xD DUP12 PUSH1 0x40 MLOAD PUSH2 0x1DDE SWAP2 SWAP1 PUSH2 0x3E10 JUMP JUMPDEST SWAP1 DUP2 MSTORE PUSH1 0x20 ADD PUSH1 0x40 MLOAD DUP1 SWAP2 SUB SWAP1 KECCAK256 PUSH1 0x0 DUP2 SLOAD DUP2 LT PUSH2 0x1DFF JUMPI PUSH2 0x1DFE PUSH2 0x44A1 JUMP JUMPDEST JUMPDEST SWAP1 PUSH1 0x0 MSTORE PUSH1 0x20 PUSH1 0x0 KECCAK256 ADD DUP7 PUSH4 0xFFFFFFFF AND DUP2 SLOAD DUP2 LT PUSH2 0x1E21 JUMPI PUSH2 0x1E20 PUSH2 0x44A1 JUMP JUMPDEST JUMPDEST SWAP1 PUSH1 0x0 MSTORE PUSH1 0x20 PUSH1 0x0 KECCAK256 ADD SLOAD DUP2 MSTORE PUSH1 0x20 ADD PUSH1 0xD DUP12 PUSH1 0x40 MLOAD PUSH2 0x1E41 SWAP2 SWAP1 PUSH2 0x3E10 JUMP JUMPDEST SWAP1 DUP2 MSTORE PUSH1 0x20 ADD PUSH1 0x40 MLOAD DUP1 SWAP2 SUB SWAP1 KECCAK256 PUSH1 0x1 DUP2 SLOAD DUP2 LT PUSH2 0x1E62 JUMPI PUSH2 0x1E61 PUSH2 0x44A1 JUMP JUMPDEST JUMPDEST SWAP1 PUSH1 0x0 MSTORE PUSH1 0x20 PUSH1 0x0 KECCAK256 ADD DUP7 PUSH4 0xFFFFFFFF AND DUP2 SLOAD DUP2 LT PUSH2 0x1E84 JUMPI PUSH2 0x1E83 PUSH2 0x44A1 JUMP JUMPDEST JUMPDEST SWAP1 PUSH1 0x0 MSTORE PUSH1 0x20 PUSH1 0x0 KECCAK256 ADD SLOAD DUP2 MSTORE POP PUSH2 0x289E JUMP JUMPDEST PUSH2 0x29B5 JUMP JUMPDEST SWAP3 POP DUP3 PUSH1 0x0 PUSH1 0x2 DUP2 LT PUSH2 0x1EB2 JUMPI PUSH2 0x1EB1 PUSH2 0x44A1 JUMP JUMPDEST JUMPDEST PUSH1 0x20 MUL ADD MLOAD PUSH1 0xD DUP8 PUSH1 0x40 MLOAD PUSH2 0x1EC7 SWAP2 SWAP1 PUSH2 0x3E10 JUMP JUMPDEST SWAP1 DUP2 MSTORE PUSH1 0x20 ADD PUSH1 0x40 MLOAD DUP1 SWAP2 SUB SWAP1 KECCAK256 PUSH1 0x0 DUP2 SLOAD DUP2 LT PUSH2 0x1EE8 JUMPI PUSH2 0x1EE7 PUSH2 0x44A1 JUMP JUMPDEST JUMPDEST SWAP1 PUSH1 0x0 MSTORE PUSH1 0x20 PUSH1 0x0 KECCAK256 ADD DUP3 PUSH4 0xFFFFFFFF AND DUP2 SLOAD DUP2 LT PUSH2 0x1F0A JUMPI PUSH2 0x1F09 PUSH2 0x44A1 JUMP JUMPDEST JUMPDEST SWAP1 PUSH1 0x0 MSTORE PUSH1 0x20 PUSH1 0x0 KECCAK256 ADD DUP2 SWAP1 SSTORE POP DUP3 PUSH1 0x1 PUSH1 0x2 DUP2 LT PUSH2 0x1F2C JUMPI PUSH2 0x1F2B PUSH2 0x44A1 JUMP JUMPDEST JUMPDEST PUSH1 0x20 MUL ADD MLOAD PUSH1 0xD DUP8 PUSH1 0x40 MLOAD PUSH2 0x1F41 SWAP2 SWAP1 PUSH2 0x3E10 JUMP JUMPDEST SWAP1 DUP2 MSTORE PUSH1 0x20 ADD PUSH1 0x40 MLOAD DUP1 SWAP2 SUB SWAP1 KECCAK256 PUSH1 0x1 DUP2 SLOAD DUP2 LT PUSH2 0x1F62 JUMPI PUSH2 0x1F61 PUSH2 0x44A1 JUMP JUMPDEST JUMPDEST SWAP1 PUSH1 0x0 MSTORE PUSH1 0x20 PUSH1 0x0 KECCAK256 ADD DUP3 PUSH4 0xFFFFFFFF AND DUP2 SLOAD DUP2 LT PUSH2 0x1F84 JUMPI PUSH2 0x1F83 PUSH2 0x44A1 JUMP JUMPDEST JUMPDEST SWAP1 PUSH1 0x0 MSTORE PUSH1 0x20 PUSH1 0x0 KECCAK256 ADD DUP2 SWAP1 SSTORE POP PUSH2 0x2104 PUSH2 0x2028 PUSH1 0x40 MLOAD DUP1 PUSH1 0x40 ADD PUSH1 0x40 MSTORE DUP1 DUP12 PUSH1 0x0 DUP2 MLOAD DUP2 LT PUSH2 0x1FB7 JUMPI PUSH2 0x1FB6 PUSH2 0x44A1 JUMP JUMPDEST JUMPDEST PUSH1 0x20 MUL PUSH1 0x20 ADD ADD MLOAD DUP6 PUSH4 0xFFFFFFFF AND DUP2 MLOAD DUP2 LT PUSH2 0x1FD7 JUMPI PUSH2 0x1FD6 PUSH2 0x44A1 JUMP JUMPDEST JUMPDEST PUSH1 0x20 MUL PUSH1 0x20 ADD ADD MLOAD DUP2 MSTORE PUSH1 0x20 ADD DUP12 PUSH1 0x1 DUP2 MLOAD DUP2 LT PUSH2 0x1FF8 JUMPI PUSH2 0x1FF7 PUSH2 0x44A1 JUMP JUMPDEST JUMPDEST PUSH1 0x20 MUL PUSH1 0x20 ADD ADD MLOAD DUP6 PUSH4 0xFFFFFFFF AND DUP2 MLOAD DUP2 LT PUSH2 0x2018 JUMPI PUSH2 0x2017 PUSH2 0x44A1 JUMP JUMPDEST JUMPDEST PUSH1 0x20 MUL PUSH1 0x20 ADD ADD MLOAD DUP2 MSTORE POP PUSH2 0x289E JUMP JUMPDEST PUSH2 0x20FF PUSH1 0x40 MLOAD DUP1 PUSH1 0x40 ADD PUSH1 0x40 MSTORE DUP1 PUSH1 0xE DUP12 PUSH1 0x40 MLOAD PUSH2 0x2046 SWAP2 SWAP1 PUSH2 0x3E10 JUMP JUMPDEST SWAP1 DUP2 MSTORE PUSH1 0x20 ADD PUSH1 0x40 MLOAD DUP1 SWAP2 SUB SWAP1 KECCAK256 PUSH1 0x0 DUP2 SLOAD DUP2 LT PUSH2 0x2067 JUMPI PUSH2 0x2066 PUSH2 0x44A1 JUMP JUMPDEST JUMPDEST SWAP1 PUSH1 0x0 MSTORE PUSH1 0x20 PUSH1 0x0 KECCAK256 ADD DUP7 PUSH4 0xFFFFFFFF AND DUP2 SLOAD DUP2 LT PUSH2 0x2089 JUMPI PUSH2 0x2088 PUSH2 0x44A1 JUMP JUMPDEST JUMPDEST SWAP1 PUSH1 0x0 MSTORE PUSH1 0x20 PUSH1 0x0 KECCAK256 ADD SLOAD DUP2 MSTORE PUSH1 0x20 ADD PUSH1 0xE DUP12 PUSH1 0x40 MLOAD PUSH2 0x20A9 SWAP2 SWAP1 PUSH2 0x3E10 JUMP JUMPDEST SWAP1 DUP2 MSTORE PUSH1 0x20 ADD PUSH1 0x40 MLOAD DUP1 SWAP2 SUB SWAP1 KECCAK256 PUSH1 0x1 DUP2 SLOAD DUP2 LT PUSH2 0x20CA JUMPI PUSH2 0x20C9 PUSH2 0x44A1 JUMP JUMPDEST JUMPDEST SWAP1 PUSH1 0x0 MSTORE PUSH1 0x20 PUSH1 0x0 KECCAK256 ADD DUP7 PUSH4 0xFFFFFFFF AND DUP2 SLOAD DUP2 LT PUSH2 0x20EC JUMPI PUSH2 0x20EB PUSH2 0x44A1 JUMP JUMPDEST JUMPDEST SWAP1 PUSH1 0x0 MSTORE PUSH1 0x20 PUSH1 0x0 KECCAK256 ADD SLOAD DUP2 MSTORE POP PUSH2 0x289E JUMP JUMPDEST PUSH2 0x29B5 JUMP JUMPDEST SWAP3 POP DUP3 PUSH1 0x0 PUSH1 0x2 DUP2 LT PUSH2 0x211A JUMPI PUSH2 0x2119 PUSH2 0x44A1 JUMP JUMPDEST JUMPDEST PUSH1 0x20 MUL ADD MLOAD PUSH1 0xE DUP8 PUSH1 0x40 MLOAD PUSH2 0x212F SWAP2 SWAP1 PUSH2 0x3E10 JUMP JUMPDEST SWAP1 DUP2 MSTORE PUSH1 0x20 ADD PUSH1 0x40 MLOAD DUP1 SWAP2 SUB SWAP1 KECCAK256 PUSH1 0x0 DUP2 SLOAD DUP2 LT PUSH2 0x2150 JUMPI PUSH2 0x214F PUSH2 0x44A1 JUMP JUMPDEST JUMPDEST SWAP1 PUSH1 0x0 MSTORE PUSH1 0x20 PUSH1 0x0 KECCAK256 ADD DUP3 PUSH4 0xFFFFFFFF AND DUP2 SLOAD DUP2 LT PUSH2 0x2172 JUMPI PUSH2 0x2171 PUSH2 0x44A1 JUMP JUMPDEST JUMPDEST SWAP1 PUSH1 0x0 MSTORE PUSH1 0x20 PUSH1 0x0 KECCAK256 ADD DUP2 SWAP1 SSTORE POP DUP3 PUSH1 0x1 PUSH1 0x2 DUP2 LT PUSH2 0x2194 JUMPI PUSH2 0x2193 PUSH2 0x44A1 JUMP JUMPDEST JUMPDEST PUSH1 0x20 MUL ADD MLOAD PUSH1 0xE DUP8 PUSH1 0x40 MLOAD PUSH2 0x21A9 SWAP2 SWAP1 PUSH2 0x3E10 JUMP JUMPDEST SWAP1 DUP2 MSTORE PUSH1 0x20 ADD PUSH1 0x40 MLOAD DUP1 SWAP2 SUB SWAP1 KECCAK256 PUSH1 0x1 DUP2 SLOAD DUP2 LT PUSH2 0x21CA JUMPI PUSH2 0x21C9 PUSH2 0x44A1 JUMP JUMPDEST JUMPDEST SWAP1 PUSH1 0x0 MSTORE PUSH1 0x20 PUSH1 0x0 KECCAK256 ADD DUP3 PUSH4 0xFFFFFFFF AND DUP2 SLOAD DUP2 LT PUSH2 0x21EC JUMPI PUSH2 0x21EB PUSH2 0x44A1 JUMP JUMPDEST JUMPDEST SWAP1 PUSH1 0x0 MSTORE PUSH1 0x20 PUSH1 0x0 KECCAK256 ADD DUP2 SWAP1 SSTORE POP DUP1 DUP1 PUSH2 0x2205 SWAP1 PUSH2 0x43E7 JUMP JUMPDEST SWAP2 POP POP PUSH2 0x1836 JUMP JUMPDEST POP JUMPDEST POP POP POP POP POP POP POP POP POP POP POP POP POP JUMP JUMPDEST PUSH1 0x60 PUSH1 0xF DUP3 PUSH1 0x40 MLOAD PUSH2 0x2230 SWAP2 SWAP1 PUSH2 0x3E10 JUMP JUMPDEST SWAP1 DUP2 MSTORE PUSH1 0x20 ADD PUSH1 0x40 MLOAD DUP1 SWAP2 SUB SWAP1 KECCAK256 DUP1 SLOAD DUP1 PUSH1 0x20 MUL PUSH1 0x20 ADD PUSH1 0x40 MLOAD SWAP1 DUP2 ADD PUSH1 0x40 MSTORE DUP1 SWAP3 SWAP2 SWAP1 DUP2 DUP2 MSTORE PUSH1 0x20 ADD PUSH1 0x0 SWAP1 JUMPDEST DUP3 DUP3 LT ISZERO PUSH2 0x22D0 JUMPI DUP4 DUP3 SWAP1 PUSH1 0x0 MSTORE PUSH1 0x20 PUSH1 0x0 KECCAK256 ADD DUP1 SLOAD DUP1 PUSH1 0x20 MUL PUSH1 0x20 ADD PUSH1 0x40 MLOAD SWAP1 DUP2 ADD PUSH1 0x40 MSTORE DUP1 SWAP3 SWAP2 SWAP1 DUP2 DUP2 MSTORE PUSH1 0x20 ADD DUP3 DUP1 SLOAD DUP1 ISZERO PUSH2 0x22BC JUMPI PUSH1 0x20 MUL DUP3 ADD SWAP2 SWAP1 PUSH1 0x0 MSTORE PUSH1 0x20 PUSH1 0x0 KECCAK256 SWAP1 JUMPDEST DUP2 SLOAD DUP2 MSTORE PUSH1 0x20 ADD SWAP1 PUSH1 0x1 ADD SWAP1 DUP1 DUP4 GT PUSH2 0x22A8 JUMPI JUMPDEST POP POP POP POP POP DUP2 MSTORE PUSH1 0x20 ADD SWAP1 PUSH1 0x1 ADD SWAP1 PUSH2 0x225E JUMP JUMPDEST POP POP POP POP SWAP1 POP SWAP2 SWAP1 POP JUMP JUMPDEST PUSH1 0x60 PUSH1 0xD DUP3 PUSH1 0x40 MLOAD PUSH2 0x22ED SWAP2 SWAP1 PUSH2 0x3E10 JUMP JUMPDEST SWAP1 DUP2 MSTORE PUSH1 0x20 ADD PUSH1 0x40 MLOAD DUP1 SWAP2 SUB SWAP1 KECCAK256 DUP1 SLOAD DUP1 PUSH1 0x20 MUL PUSH1 0x20 ADD PUSH1 0x40 MLOAD SWAP1 DUP2 ADD PUSH1 0x40 MSTORE DUP1 SWAP3 SWAP2 SWAP1 DUP2 DUP2 MSTORE PUSH1 0x20 ADD PUSH1 0x0 SWAP1 JUMPDEST DUP3 DUP3 LT ISZERO PUSH2 0x238D JUMPI DUP4 DUP3 SWAP1 PUSH1 0x0 MSTORE PUSH1 0x20 PUSH1 0x0 KECCAK256 ADD DUP1 SLOAD DUP1 PUSH1 0x20 MUL PUSH1 0x20 ADD PUSH1 0x40 MLOAD SWAP1 DUP2 ADD PUSH1 0x40 MSTORE DUP1 SWAP3 SWAP2 SWAP1 DUP2 DUP2 MSTORE PUSH1 0x20 ADD DUP3 DUP1 SLOAD DUP1 ISZERO PUSH2 0x2379 JUMPI PUSH1 0x20 MUL DUP3 ADD SWAP2 SWAP1 PUSH1 0x0 MSTORE PUSH1 0x20 PUSH1 0x0 KECCAK256 SWAP1 JUMPDEST DUP2 SLOAD DUP2 MSTORE PUSH1 0x20 ADD SWAP1 PUSH1 0x1 ADD SWAP1 DUP1 DUP4 GT PUSH2 0x2365 JUMPI JUMPDEST POP POP POP POP POP DUP2 MSTORE PUSH1 0x20 ADD SWAP1 PUSH1 0x1 ADD SWAP1 PUSH2 0x231B JUMP JUMPDEST POP POP POP POP SWAP1 POP SWAP2 SWAP1 POP JUMP JUMPDEST PUSH2 0x23A0 PUSH2 0x30C4 JUMP JUMPDEST PUSH1 0x0 DUP1 PUSH32 0x8000000000000000000000000000000000000000000000000000000000000000 DUP5 AND EQ ISZERO SWAP1 POP PUSH1 0x0 PUSH32 0x7FFFFFFFFFFFFFFFFFFFFFFFFFFFFFFFFFFFFFFFFFFFFFFFFFFFFFFFFFFFFFFF DUP5 AND SWAP1 POP PUSH1 0x0 PUSH32 0x30644E72E131A029B85045B68181585D2833E84879B9709143E1F593F0000001 DUP1 PUSH2 0x2422 JUMPI PUSH2 0x2421 PUSH2 0x4443 JUMP JUMPDEST JUMPDEST DUP3 DUP4 MULMOD SWAP1 POP PUSH1 0x0 PUSH32 0x30644E72E131A029B85045B68181585D2833E84879B9709143E1F593F0000001 DUP1 PUSH2 0x2458 JUMPI PUSH2 0x2457 PUSH2 0x4443 JUMP JUMPDEST JUMPDEST PUSH2 0x24A1 PUSH2 0x249C PUSH3 0x292FC PUSH32 0x30644E72E131A029B85045B68181585D2833E84879B9709143E1F593F0000001 DUP1 PUSH2 0x2491 JUMPI PUSH2 0x2490 PUSH2 0x4443 JUMP JUMPDEST JUMPDEST DUP7 PUSH3 0x292F8 MULMOD PUSH2 0x29DD JUMP JUMPDEST PUSH2 0x2A44 JUMP JUMPDEST PUSH2 0x24AC PUSH1 0x1 DUP6 PUSH2 0x29DD JUMP JUMPDEST MULMOD SWAP1 POP PUSH1 0x0 PUSH2 0x24BA DUP3 PUSH2 0x2A77 JUMP JUMPDEST SWAP1 POP PUSH1 0x0 PUSH32 0x183227397098D014DC2822DB40C0AC2E9419F4243CDCB848A1F0FAC9F8000000 DUP3 GT SWAP1 POP DUP6 DUP1 ISZERO PUSH2 0x24EE JUMPI POP DUP1 ISZERO JUMPDEST DUP1 PUSH2 0x2500 JUMPI POP DUP6 ISZERO DUP1 ISZERO PUSH2 0x24FF JUMPI POP DUP1 JUMPDEST JUMPDEST ISZERO PUSH2 0x2534 JUMPI DUP2 PUSH32 0x30644E72E131A029B85045B68181585D2833E84879B9709143E1F593F0000001 PUSH2 0x2531 SWAP2 SWAP1 PUSH2 0x427D JUMP JUMPDEST SWAP2 POP JUMPDEST PUSH1 0x40 MLOAD DUP1 PUSH1 0x40 ADD PUSH1 0x40 MSTORE DUP1 DUP4 DUP2 MSTORE PUSH1 0x20 ADD DUP7 DUP2 MSTORE POP SWAP7 POP POP POP POP POP POP POP SWAP2 SWAP1 POP JUMP JUMPDEST PUSH2 0x255E PUSH2 0x30C4 JUMP JUMPDEST PUSH1 0x0 PUSH32 0x30644E72E131A029B85045B68181585D2833E84879B9709143E1F593F0000001 DUP1 PUSH2 0x258F JUMPI PUSH2 0x258E PUSH2 0x4443 JUMP JUMPDEST JUMPDEST DUP4 PUSH1 0x0 PUSH1 0x2 DUP2 LT PUSH2 0x25A3 JUMPI PUSH2 0x25A2 PUSH2 0x44A1 JUMP JUMPDEST JUMPDEST PUSH1 0x20 MUL ADD MLOAD DUP6 PUSH1 0x0 PUSH1 0x2 DUP2 LT PUSH2 0x25BC JUMPI PUSH2 0x25BB PUSH2 0x44A1 JUMP JUMPDEST JUMPDEST PUSH1 0x20 MUL ADD MLOAD MULMOD SWAP1 POP PUSH1 0x0 PUSH32 0x30644E72E131A029B85045B68181585D2833E84879B9709143E1F593F0000001 DUP1 PUSH2 0x25F5 JUMPI PUSH2 0x25F4 PUSH2 0x4443 JUMP JUMPDEST JUMPDEST DUP5 PUSH1 0x1 PUSH1 0x2 DUP2 LT PUSH2 0x2609 JUMPI PUSH2 0x2608 PUSH2 0x44A1 JUMP JUMPDEST JUMPDEST PUSH1 0x20 MUL ADD MLOAD DUP7 PUSH1 0x1 PUSH1 0x2 DUP2 LT PUSH2 0x2622 JUMPI PUSH2 0x2621 PUSH2 0x44A1 JUMP JUMPDEST JUMPDEST PUSH1 0x20 MUL ADD MLOAD MULMOD SWAP1 POP PUSH1 0x0 PUSH32 0x30644E72E131A029B85045B68181585D2833E84879B9709143E1F593F0000001 DUP1 PUSH2 0x265B JUMPI PUSH2 0x265A PUSH2 0x4443 JUMP JUMPDEST JUMPDEST PUSH32 0x30644E72E131A029B85045B68181585D2833E84879B9709143E1F593F0000001 DUP1 PUSH2 0x268A JUMPI PUSH2 0x2689 PUSH2 0x4443 JUMP JUMPDEST JUMPDEST DUP4 DUP6 MULMOD PUSH3 0x292F8 MULMOD SWAP1 POP PUSH1 0x0 PUSH32 0x30644E72E131A029B85045B68181585D2833E84879B9709143E1F593F0000001 DUP1 PUSH2 0x26C5 JUMPI PUSH2 0x26C4 PUSH2 0x4443 JUMP JUMPDEST JUMPDEST PUSH32 0x30644E72E131A029B85045B68181585D2833E84879B9709143E1F593F0000001 DUP1 PUSH2 0x26F4 JUMPI PUSH2 0x26F3 PUSH2 0x4443 JUMP JUMPDEST JUMPDEST DUP8 PUSH1 0x0 PUSH1 0x2 DUP2 LT PUSH2 0x2708 JUMPI PUSH2 0x2707 PUSH2 0x44A1 JUMP JUMPDEST JUMPDEST PUSH1 0x20 MUL ADD MLOAD DUP10 PUSH1 0x1 PUSH1 0x2 DUP2 LT PUSH2 0x2721 JUMPI PUSH2 0x2720 PUSH2 0x44A1 JUMP JUMPDEST JUMPDEST PUSH1 0x20 MUL ADD MLOAD MULMOD PUSH32 0x30644E72E131A029B85045B68181585D2833E84879B9709143E1F593F0000001 DUP1 PUSH2 0x2756 JUMPI PUSH2 0x2755 PUSH2 0x4443 JUMP JUMPDEST JUMPDEST DUP9 PUSH1 0x1 PUSH1 0x2 DUP2 LT PUSH2 0x276A JUMPI PUSH2 0x2769 PUSH2 0x44A1 JUMP JUMPDEST JUMPDEST PUSH1 0x20 MUL ADD MLOAD DUP11 PUSH1 0x0 PUSH1 0x2 DUP2 LT PUSH2 0x2783 JUMPI PUSH2 0x2782 PUSH2 0x44A1 JUMP JUMPDEST JUMPDEST PUSH1 0x20 MUL ADD MLOAD MULMOD ADDMOD SWAP1 POP PUSH1 0x0 PUSH2 0x27CC DUP5 PUSH32 0x30644E72E131A029B85045B68181585D2833E84879B9709143E1F593F0000001 DUP1 PUSH2 0x27C1 JUMPI PUSH2 0x27C0 PUSH2 0x4443 JUMP JUMPDEST JUMPDEST DUP8 PUSH3 0x292FC MULMOD PUSH2 0x29DD JUMP JUMPDEST SWAP1 POP PUSH1 0x40 MLOAD DUP1 PUSH1 0x40 ADD PUSH1 0x40 MSTORE DUP1 PUSH32 0x30644E72E131A029B85045B68181585D2833E84879B9709143E1F593F0000001 DUP1 PUSH2 0x2808 JUMPI PUSH2 0x2807 PUSH2 0x4443 JUMP JUMPDEST JUMPDEST PUSH2 0x2843 PUSH32 0x30644E72E131A029B85045B68181585D2833E84879B9709143E1F593F0000001 DUP1 PUSH2 0x283A JUMPI PUSH2 0x2839 PUSH2 0x4443 JUMP JUMPDEST JUMPDEST DUP8 PUSH1 0x1 ADDMOD PUSH2 0x2A44 JUMP JUMPDEST DUP6 MULMOD DUP2 MSTORE PUSH1 0x20 ADD PUSH32 0x30644E72E131A029B85045B68181585D2833E84879B9709143E1F593F0000001 DUP1 PUSH2 0x2879 JUMPI PUSH2 0x2878 PUSH2 0x4443 JUMP JUMPDEST JUMPDEST PUSH2 0x288C PUSH2 0x2887 PUSH1 0x1 DUP9 PUSH2 0x29DD JUMP JUMPDEST PUSH2 0x2A44 JUMP JUMPDEST DUP5 MULMOD DUP2 MSTORE POP SWAP6 POP POP POP POP POP POP SWAP3 SWAP2 POP POP JUMP JUMPDEST PUSH2 0x28A6 PUSH2 0x31CC JUMP JUMPDEST DUP2 PUSH1 0x0 PUSH1 0x2 DUP2 LT PUSH2 0x28BA JUMPI PUSH2 0x28B9 PUSH2 0x44A1 JUMP JUMPDEST JUMPDEST PUSH1 0x20 MUL ADD MLOAD DUP2 PUSH1 0x0 PUSH1 0x4 DUP2 LT PUSH2 0x28D3 JUMPI PUSH2 0x28D2 PUSH2 0x44A1 JUMP JUMPDEST JUMPDEST PUSH1 0x20 MUL ADD DUP2 DUP2 MSTORE POP POP DUP2 PUSH1 0x1 PUSH1 0x2 DUP2 LT PUSH2 0x28F0 JUMPI PUSH2 0x28EF PUSH2 0x44A1 JUMP JUMPDEST JUMPDEST PUSH1 0x20 MUL ADD MLOAD DUP2 PUSH1 0x1 PUSH1 0x4 DUP2 LT PUSH2 0x2909 JUMPI PUSH2 0x2908 PUSH2 0x44A1 JUMP JUMPDEST JUMPDEST PUSH1 0x20 MUL ADD DUP2 DUP2 MSTORE POP POP PUSH32 0x30644E72E131A029B85045B68181585D2833E84879B9709143E1F593F0000001 DUP1 PUSH2 0x2941 JUMPI PUSH2 0x2940 PUSH2 0x4443 JUMP JUMPDEST JUMPDEST DUP3 PUSH1 0x1 PUSH1 0x2 DUP2 LT PUSH2 0x2955 JUMPI PUSH2 0x2954 PUSH2 0x44A1 JUMP JUMPDEST JUMPDEST PUSH1 0x20 MUL ADD MLOAD DUP4 PUSH1 0x0 PUSH1 0x2 DUP2 LT PUSH2 0x296E JUMPI PUSH2 0x296D PUSH2 0x44A1 JUMP JUMPDEST JUMPDEST PUSH1 0x20 MUL ADD MLOAD MULMOD DUP2 PUSH1 0x2 PUSH1 0x4 DUP2 LT PUSH2 0x2988 JUMPI PUSH2 0x2987 PUSH2 0x44A1 JUMP JUMPDEST JUMPDEST PUSH1 0x20 MUL ADD DUP2 DUP2 MSTORE POP POP PUSH1 0x1 DUP2 PUSH1 0x3 PUSH1 0x4 DUP2 LT PUSH2 0x29A7 JUMPI PUSH2 0x29A6 PUSH2 0x44A1 JUMP JUMPDEST JUMPDEST PUSH1 0x20 MUL ADD DUP2 DUP2 MSTORE POP POP SWAP2 SWAP1 POP JUMP JUMPDEST PUSH2 0x29BD PUSH2 0x30C4 JUMP JUMPDEST PUSH1 0x0 PUSH2 0x29C9 DUP5 DUP5 PUSH2 0x2C95 JUMP JUMPDEST SWAP1 POP PUSH2 0x29D4 DUP2 PUSH2 0x2DA4 JUMP JUMPDEST SWAP2 POP POP SWAP3 SWAP2 POP POP JUMP JUMPDEST PUSH1 0x0 PUSH32 0x30644E72E131A029B85045B68181585D2833E84879B9709143E1F593F0000001 DUP1 PUSH2 0x2A0E JUMPI PUSH2 0x2A0D PUSH2 0x4443 JUMP JUMPDEST JUMPDEST DUP3 PUSH32 0x30644E72E131A029B85045B68181585D2833E84879B9709143E1F593F0000001 PUSH2 0x2A3A SWAP2 SWAP1 PUSH2 0x427D JUMP JUMPDEST DUP5 ADDMOD SWAP1 POP SWAP3 SWAP2 POP POP JUMP JUMPDEST PUSH1 0x0 PUSH2 0x2A70 DUP3 PUSH32 0x30644E72E131A029B85045B68181585D2833E84879B9709143E1F593EFFFFFFF PUSH2 0x2EA5 JUMP JUMPDEST SWAP1 POP SWAP2 SWAP1 POP JUMP JUMPDEST PUSH1 0x0 PUSH2 0x2AA0 DUP3 PUSH29 0x183227397098D014DC2822DB40C0AC2E9419F4243CDCB848A1F0FACA0 PUSH2 0x2EA5 JUMP JUMPDEST SWAP1 POP PUSH1 0x0 PUSH2 0x2ACB DUP4 PUSH29 0x30644E72E131A029B85045B68181585D2833E84879B9709143E1F593F PUSH2 0x2EA5 JUMP JUMPDEST SWAP1 POP PUSH1 0x0 PUSH32 0x2A3C09F0A58A7E8500E0A7EB8EF62ABC402D111E41112ED49BD61B6E725B19F0 SWAP1 POP PUSH1 0x0 DUP1 PUSH1 0x1C SWAP1 POP PUSH1 0x0 JUMPDEST PUSH1 0x1 ISZERO PUSH2 0x2C8A JUMPI PUSH1 0x0 SWAP1 POP DUP5 SWAP3 POP JUMPDEST PUSH1 0x1 DUP4 EQ PUSH2 0x2B5A JUMPI PUSH32 0x30644E72E131A029B85045B68181585D2833E84879B9709143E1F593F0000001 DUP1 PUSH2 0x2B42 JUMPI PUSH2 0x2B41 PUSH2 0x4443 JUMP JUMPDEST JUMPDEST DUP4 DUP5 MULMOD SWAP3 POP DUP1 DUP1 PUSH2 0x2B52 SWAP1 PUSH2 0x43BC JUMP JUMPDEST SWAP2 POP POP PUSH2 0x2B0B JUMP JUMPDEST PUSH1 0x0 DUP2 PUSH2 0xFFFF AND EQ ISZERO PUSH2 0x2B71 JUMPI POP POP POP POP POP PUSH2 0x2C90 JUMP JUMPDEST DUP4 SWAP3 POP PUSH1 0x0 JUMPDEST PUSH1 0x1 DUP3 DUP5 PUSH2 0x2B85 SWAP2 SWAP1 PUSH2 0x4249 JUMP JUMPDEST PUSH2 0x2B8F SWAP2 SWAP1 PUSH2 0x4249 JUMP JUMPDEST PUSH2 0xFFFF AND DUP2 PUSH2 0xFFFF AND LT ISZERO PUSH2 0x2BE5 JUMPI PUSH32 0x30644E72E131A029B85045B68181585D2833E84879B9709143E1F593F0000001 DUP1 PUSH2 0x2BCD JUMPI PUSH2 0x2BCC PUSH2 0x4443 JUMP JUMPDEST JUMPDEST DUP5 DUP6 MULMOD SWAP4 POP DUP1 DUP1 PUSH2 0x2BDD SWAP1 PUSH2 0x43BC JUMP JUMPDEST SWAP2 POP POP PUSH2 0x2B77 JUMP JUMPDEST POP PUSH32 0x30644E72E131A029B85045B68181585D2833E84879B9709143E1F593F0000001 DUP1 PUSH2 0x2C15 JUMPI PUSH2 0x2C14 PUSH2 0x4443 JUMP JUMPDEST JUMPDEST DUP4 DUP5 MULMOD SWAP4 POP PUSH32 0x30644E72E131A029B85045B68181585D2833E84879B9709143E1F593F0000001 DUP1 PUSH2 0x2C49 JUMPI PUSH2 0x2C48 PUSH2 0x4443 JUMP JUMPDEST JUMPDEST DUP7 DUP5 MULMOD SWAP6 POP PUSH32 0x30644E72E131A029B85045B68181585D2833E84879B9709143E1F593F0000001 DUP1 PUSH2 0x2C7D JUMPI PUSH2 0x2C7C PUSH2 0x4443 JUMP JUMPDEST JUMPDEST DUP5 DUP7 MULMOD SWAP5 POP DUP1 SWAP2 POP PUSH2 0x2AFC JUMP JUMPDEST POP POP POP POP POP JUMPDEST SWAP2 SWAP1 POP JUMP JUMPDEST PUSH2 0x2C9D PUSH2 0x31CC JUMP JUMPDEST PUSH32 0x30644E72E131A029B85045B68181585D2833E84879B9709143E1F593F0000001 PUSH3 0x292FC PUSH3 0x292F8 DUP3 DUP6 MLOAD DUP8 MLOAD MULMOD DUP4 PUSH1 0x20 DUP8 ADD MLOAD PUSH1 0x20 DUP10 ADD MLOAD MULMOD DUP5 PUSH1 0x40 DUP9 ADD MLOAD DUP7 PUSH1 0x40 DUP12 ADD MLOAD DUP7 MULMOD MULMOD DUP6 PUSH1 0x60 DUP10 ADD MLOAD PUSH1 0x60 DUP12 ADD MLOAD MULMOD DUP7 DUP8 PUSH1 0x20 DUP12 ADD MLOAD DUP12 MLOAD ADDMOD DUP9 PUSH1 0x20 DUP14 ADD MLOAD DUP14 MLOAD ADDMOD MULMOD PUSH1 0x1 DUP6 ADD DUP2 LT ISZERO PUSH2 0x2D18 JUMPI DUP8 DUP2 ADD SWAP1 POP JUMPDEST DUP8 DUP6 DUP3 SUB MOD SWAP1 POP PUSH1 0x1 DUP5 ADD DUP2 LT ISZERO PUSH2 0x2D30 JUMPI DUP8 DUP2 ADD SWAP1 POP JUMPDEST DUP8 DUP5 DUP3 SUB MOD SWAP1 POP DUP2 PUSH1 0x1 DUP5 ADD DUP2 LT ISZERO PUSH2 0x2D49 JUMPI DUP9 DUP2 ADD SWAP1 POP JUMPDEST DUP9 DUP5 DUP3 SUB MOD SWAP1 POP DUP9 DUP5 DUP5 ADDMOD DUP10 DUP8 DUP11 MULMOD DUP7 PUSH1 0x1 DUP3 ADD DUP2 LT ISZERO PUSH2 0x2D6A JUMPI DUP12 DUP2 ADD SWAP1 POP JUMPDEST DUP12 DUP3 DUP3 SUB MOD SWAP1 POP DUP12 DUP5 DUP7 MULMOD DUP14 MSTORE DUP12 DUP2 DUP5 MULMOD PUSH1 0x20 DUP15 ADD MSTORE DUP12 DUP2 DUP7 MULMOD PUSH1 0x40 DUP15 ADD MSTORE DUP12 DUP4 DUP6 MULMOD PUSH1 0x60 DUP15 ADD MSTORE POP POP POP POP POP POP POP POP POP POP POP POP SWAP3 SWAP2 POP POP JUMP JUMPDEST PUSH2 0x2DAC PUSH2 0x30C4 JUMP JUMPDEST PUSH1 0x0 PUSH2 0x2DCF DUP4 PUSH1 0x3 PUSH1 0x4 DUP2 LT PUSH2 0x2DC5 JUMPI PUSH2 0x2DC4 PUSH2 0x44A1 JUMP JUMPDEST JUMPDEST PUSH1 0x20 MUL ADD MLOAD PUSH2 0x2A44 JUMP JUMPDEST SWAP1 POP PUSH32 0x30644E72E131A029B85045B68181585D2833E84879B9709143E1F593F0000001 DUP1 PUSH2 0x2E00 JUMPI PUSH2 0x2DFF PUSH2 0x4443 JUMP JUMPDEST JUMPDEST DUP2 DUP5 PUSH1 0x0 PUSH1 0x4 DUP2 LT PUSH2 0x2E15 JUMPI PUSH2 0x2E14 PUSH2 0x44A1 JUMP JUMPDEST JUMPDEST PUSH1 0x20 MUL ADD MLOAD MULMOD DUP3 PUSH1 0x0 PUSH1 0x2 DUP2 LT PUSH2 0x2E2F JUMPI PUSH2 0x2E2E PUSH2 0x44A1 JUMP JUMPDEST JUMPDEST PUSH1 0x20 MUL ADD DUP2 DUP2 MSTORE POP POP PUSH32 0x30644E72E131A029B85045B68181585D2833E84879B9709143E1F593F0000001 DUP1 PUSH2 0x2E67 JUMPI PUSH2 0x2E66 PUSH2 0x4443 JUMP JUMPDEST JUMPDEST DUP2 DUP5 PUSH1 0x1 PUSH1 0x4 DUP2 LT PUSH2 0x2E7C JUMPI PUSH2 0x2E7B PUSH2 0x44A1 JUMP JUMPDEST JUMPDEST PUSH1 0x20 MUL ADD MLOAD MULMOD DUP3 PUSH1 0x1 PUSH1 0x2 DUP2 LT PUSH2 0x2E96 JUMPI PUSH2 0x2E95 PUSH2 0x44A1 JUMP JUMPDEST JUMPDEST PUSH1 0x20 MUL ADD DUP2 DUP2 MSTORE POP POP POP SWAP2 SWAP1 POP JUMP JUMPDEST PUSH1 0x0 PUSH32 0x30644E72E131A029B85045B68181585D2833E84879B9709143E1F593F0000001 PUSH1 0x40 MLOAD PUSH1 0x20 DUP2 MSTORE PUSH1 0x20 DUP1 DUP3 ADD MSTORE PUSH1 0x20 PUSH1 0x40 DUP3 ADD MSTORE DUP5 PUSH1 0x60 DUP3 ADD MSTORE DUP4 PUSH1 0x80 DUP3 ADD MSTORE DUP2 PUSH1 0xA0 DUP3 ADD MSTORE PUSH1 0x20 DUP2 PUSH1 0xC0 DUP4 PUSH1 0x5 GAS STATICCALL DUP1 PUSH1 0x0 DUP2 EQ PUSH2 0x2F0A JUMPI DUP3 MLOAD SWAP5 POP PUSH2 0x2F0F JUMP JUMPDEST PUSH1 0x0 DUP1 REVERT JUMPDEST POP POP POP POP SWAP3 SWAP2 POP POP JUMP JUMPDEST DUP3 PUSH1 0x2 DUP2 ADD SWAP3 DUP3 ISZERO PUSH2 0x2F48 JUMPI SWAP2 PUSH1 0x20 MUL DUP3 ADD JUMPDEST DUP3 DUP2 GT ISZERO PUSH2 0x2F47 JUMPI DUP3 MLOAD DUP3 SSTORE SWAP2 PUSH1 0x20 ADD SWAP2 SWAP1 PUSH1 0x1 ADD SWAP1 PUSH2 0x2F2C JUMP JUMPDEST JUMPDEST POP SWAP1 POP PUSH2 0x2F55 SWAP2 SWAP1 PUSH2 0x31EE JUMP JUMPDEST POP SWAP1 JUMP JUMPDEST PUSH1 0x40 MLOAD DUP1 PUSH1 0x60 ADD PUSH1 0x40 MSTORE DUP1 PUSH2 0x2F6C PUSH2 0x320B JUMP JUMPDEST DUP2 MSTORE PUSH1 0x20 ADD PUSH2 0x2F79 PUSH2 0x3225 JUMP JUMPDEST DUP2 MSTORE PUSH1 0x20 ADD PUSH2 0x2F86 PUSH2 0x320B JUMP JUMPDEST DUP2 MSTORE POP SWAP1 JUMP JUMPDEST PUSH1 0x40 MLOAD DUP1 PUSH2 0xA20 ADD PUSH1 0x40 MSTORE DUP1 PUSH1 0x51 SWAP1 PUSH1 0x20 DUP3 MUL DUP1 CALLDATASIZE DUP4 CALLDATACOPY DUP1 DUP3 ADD SWAP2 POP POP SWAP1 POP POP SWAP1 JUMP JUMPDEST DUP3 DUP1 SLOAD DUP3 DUP3 SSTORE SWAP1 PUSH1 0x0 MSTORE PUSH1 0x20 PUSH1 0x0 KECCAK256 SWAP1 DUP2 ADD SWAP3 DUP3 ISZERO PUSH2 0x2FFE JUMPI SWAP2 PUSH1 0x20 MUL DUP3 ADD JUMPDEST DUP3 DUP2 GT ISZERO PUSH2 0x2FFD JUMPI DUP3 MLOAD DUP3 SWAP1 DUP1 MLOAD SWAP1 PUSH1 0x20 ADD SWAP1 PUSH2 0x2FED SWAP3 SWAP2 SWAP1 PUSH2 0x324B JUMP JUMPDEST POP SWAP2 PUSH1 0x20 ADD SWAP2 SWAP1 PUSH1 0x1 ADD SWAP1 PUSH2 0x2FCF JUMP JUMPDEST JUMPDEST POP SWAP1 POP PUSH2 0x300B SWAP2 SWAP1 PUSH2 0x3298 JUMP JUMPDEST POP SWAP1 JUMP JUMPDEST DUP3 DUP1 SLOAD DUP3 DUP3 SSTORE SWAP1 PUSH1 0x0 MSTORE PUSH1 0x20 PUSH1 0x0 KECCAK256 SWAP1 DUP2 ADD SWAP3 DUP3 ISZERO PUSH2 0x305D JUMPI PUSH1 0x0 MSTORE PUSH1 0x20 PUSH1 0x0 KECCAK256 SWAP2 DUP3 ADD JUMPDEST DUP3 DUP2 GT ISZERO PUSH2 0x305C JUMPI DUP3 DUP3 SWAP1 DUP1 SLOAD PUSH2 0x304C SWAP3 SWAP2 SWAP1 PUSH2 0x32BC JUMP JUMPDEST POP SWAP2 PUSH1 0x1 ADD SWAP2 SWAP1 PUSH1 0x1 ADD SWAP1 PUSH2 0x3034 JUMP JUMPDEST JUMPDEST POP SWAP1 POP PUSH2 0x306A SWAP2 SWAP1 PUSH2 0x3298 JUMP JUMPDEST POP SWAP1 JUMP JUMPDEST PUSH1 0x40 MLOAD DUP1 PUSH2 0x700 ADD PUSH1 0x40 MSTORE DUP1 PUSH1 0x38 SWAP1 PUSH1 0x20 DUP3 MUL DUP1 CALLDATASIZE DUP4 CALLDATACOPY DUP1 DUP3 ADD SWAP2 POP POP SWAP1 POP POP SWAP1 JUMP JUMPDEST PUSH1 0x40 MLOAD DUP1 PUSH1 0x60 ADD PUSH1 0x40 MSTORE DUP1 PUSH2 0x30A4 PUSH2 0x320B JUMP JUMPDEST DUP2 MSTORE PUSH1 0x20 ADD PUSH2 0x30B1 PUSH2 0x3225 JUMP JUMPDEST DUP2 MSTORE PUSH1 0x20 ADD PUSH2 0x30BE PUSH2 0x320B JUMP JUMPDEST DUP2 MSTORE POP SWAP1 JUMP JUMPDEST PUSH1 0x40 MLOAD DUP1 PUSH1 0x40 ADD PUSH1 0x40 MSTORE DUP1 PUSH1 0x2 SWAP1 PUSH1 0x20 DUP3 MUL DUP1 CALLDATASIZE DUP4 CALLDATACOPY DUP1 DUP3 ADD SWAP2 POP POP SWAP1 POP POP SWAP1 JUMP JUMPDEST DUP3 DUP1 SLOAD PUSH2 0x30F2 SWAP1 PUSH2 0x4359 JUMP JUMPDEST SWAP1 PUSH1 0x0 MSTORE PUSH1 0x20 PUSH1 0x0 KECCAK256 SWAP1 PUSH1 0x1F ADD PUSH1 0x20 SWAP1 DIV DUP2 ADD SWAP3 DUP3 PUSH2 0x3114 JUMPI PUSH1 0x0 DUP6 SSTORE PUSH2 0x315B JUMP JUMPDEST DUP3 PUSH1 0x1F LT PUSH2 0x312D JUMPI DUP1 MLOAD PUSH1 0xFF NOT AND DUP4 DUP1 ADD OR DUP6 SSTORE PUSH2 0x315B JUMP JUMPDEST DUP3 DUP1 ADD PUSH1 0x1 ADD DUP6 SSTORE DUP3 ISZERO PUSH2 0x315B JUMPI SWAP2 DUP3 ADD JUMPDEST DUP3 DUP2 GT ISZERO PUSH2 0x315A JUMPI DUP3 MLOAD DUP3 SSTORE SWAP2 PUSH1 0x20 ADD SWAP2 SWAP1 PUSH1 0x1 ADD SWAP1 PUSH2 0x313F JUMP JUMPDEST JUMPDEST POP SWAP1 POP PUSH2 0x3168 SWAP2 SWAP1 PUSH2 0x31EE JUMP JUMPDEST POP SWAP1 JUMP JUMPDEST DUP3 DUP1 SLOAD DUP3 DUP3 SSTORE SWAP1 PUSH1 0x0 MSTORE PUSH1 0x20 PUSH1 0x0 KECCAK256 SWAP1 DUP2 ADD SWAP3 DUP3 ISZERO PUSH2 0x31BB JUMPI SWAP2 PUSH1 0x20 MUL DUP3 ADD JUMPDEST DUP3 DUP2 GT ISZERO PUSH2 0x31BA JUMPI DUP3 MLOAD DUP3 SWAP1 DUP1 MLOAD SWAP1 PUSH1 0x20 ADD SWAP1 PUSH2 0x31AA SWAP3 SWAP2 SWAP1 PUSH2 0x324B JUMP JUMPDEST POP SWAP2 PUSH1 0x20 ADD SWAP2 SWAP1 PUSH1 0x1 ADD SWAP1 PUSH2 0x318C JUMP JUMPDEST JUMPDEST POP SWAP1 POP PUSH2 0x31C8 SWAP2 SWAP1 PUSH2 0x3298 JUMP JUMPDEST POP SWAP1 JUMP JUMPDEST PUSH1 0x40 MLOAD DUP1 PUSH1 0x80 ADD PUSH1 0x40 MSTORE DUP1 PUSH1 0x4 SWAP1 PUSH1 0x20 DUP3 MUL DUP1 CALLDATASIZE DUP4 CALLDATACOPY DUP1 DUP3 ADD SWAP2 POP POP SWAP1 POP POP SWAP1 JUMP JUMPDEST JUMPDEST DUP1 DUP3 GT ISZERO PUSH2 0x3207 JUMPI PUSH1 0x0 DUP2 PUSH1 0x0 SWAP1 SSTORE POP PUSH1 0x1 ADD PUSH2 0x31EF JUMP JUMPDEST POP SWAP1 JUMP JUMPDEST PUSH1 0x40 MLOAD DUP1 PUSH1 0x40 ADD PUSH1 0x40 MSTORE DUP1 PUSH1 0x0 DUP2 MSTORE PUSH1 0x20 ADD PUSH1 0x0 DUP2 MSTORE POP SWAP1 JUMP JUMPDEST PUSH1 0x40 MLOAD DUP1 PUSH1 0x40 ADD PUSH1 0x40 MSTORE DUP1 PUSH2 0x3238 PUSH2 0x30C4 JUMP JUMPDEST DUP2 MSTORE PUSH1 0x20 ADD PUSH2 0x3245 PUSH2 0x30C4 JUMP JUMPDEST DUP2 MSTORE POP SWAP1 JUMP JUMPDEST DUP3 DUP1 SLOAD DUP3 DUP3 SSTORE SWAP1 PUSH1 0x0 MSTORE PUSH1 0x20 PUSH1 0x0 KECCAK256 SWAP1 DUP2 ADD SWAP3 DUP3 ISZERO PUSH2 0x3287 JUMPI SWAP2 PUSH1 0x20 MUL DUP3 ADD JUMPDEST DUP3 DUP2 GT ISZERO PUSH2 0x3286 JUMPI DUP3 MLOAD DUP3 SSTORE SWAP2 PUSH1 0x20 ADD SWAP2 SWAP1 PUSH1 0x1 ADD SWAP1 PUSH2 0x326B JUMP JUMPDEST JUMPDEST POP SWAP1 POP PUSH2 0x3294 SWAP2 SWAP1 PUSH2 0x31EE JUMP JUMPDEST POP SWAP1 JUMP JUMPDEST JUMPDEST DUP1 DUP3 GT ISZERO PUSH2 0x32B8 JUMPI PUSH1 0x0 DUP2 DUP2 PUSH2 0x32AF SWAP2 SWAP1 PUSH2 0x330E JUMP JUMPDEST POP PUSH1 0x1 ADD PUSH2 0x3299 JUMP JUMPDEST POP SWAP1 JUMP JUMPDEST DUP3 DUP1 SLOAD DUP3 DUP3 SSTORE SWAP1 PUSH1 0x0 MSTORE PUSH1 0x20 PUSH1 0x0 KECCAK256 SWAP1 DUP2 ADD SWAP3 DUP3 ISZERO PUSH2 0x32FD JUMPI PUSH1 0x0 MSTORE PUSH1 0x20 PUSH1 0x0 KECCAK256 SWAP2 DUP3 ADD JUMPDEST DUP3 DUP2 GT ISZERO PUSH2 0x32FC JUMPI DUP3 SLOAD DUP3 SSTORE SWAP2 PUSH1 0x1 ADD SWAP2 SWAP1 PUSH1 0x1 ADD SWAP1 PUSH2 0x32E1 JUMP JUMPDEST JUMPDEST POP SWAP1 POP PUSH2 0x330A SWAP2 SWAP1 PUSH2 0x31EE JUMP JUMPDEST POP SWAP1 JUMP JUMPDEST POP DUP1 SLOAD PUSH1 0x0 DUP3 SSTORE SWAP1 PUSH1 0x0 MSTORE PUSH1 0x20 PUSH1 0x0 KECCAK256 SWAP1 DUP2 ADD SWAP1 PUSH2 0x332C SWAP2 SWAP1 PUSH2 0x31EE JUMP JUMPDEST POP JUMP JUMPDEST PUSH1 0x0 PUSH2 0x3342 PUSH2 0x333D DUP5 PUSH2 0x3F71 JUMP JUMPDEST PUSH2 0x3F4C JUMP JUMPDEST SWAP1 POP DUP1 DUP3 DUP6 PUSH1 0x40 DUP7 MUL DUP3 ADD GT ISZERO PUSH2 0x335C JUMPI PUSH2 0x335B PUSH2 0x4504 JUMP JUMPDEST JUMPDEST PUSH1 0x0 JUMPDEST DUP6 DUP2 LT ISZERO PUSH2 0x338C JUMPI DUP2 PUSH2 0x3372 DUP9 DUP3 PUSH2 0x35AB JUMP JUMPDEST DUP5 MSTORE PUSH1 0x20 DUP5 ADD SWAP4 POP PUSH1 0x40 DUP4 ADD SWAP3 POP POP PUSH1 0x1 DUP2 ADD SWAP1 POP PUSH2 0x335F JUMP JUMPDEST POP POP POP SWAP4 SWAP3 POP POP POP JUMP JUMPDEST PUSH1 0x0 PUSH2 0x33A9 PUSH2 0x33A4 DUP5 PUSH2 0x3F97 JUMP JUMPDEST PUSH2 0x3F4C JUMP JUMPDEST SWAP1 POP DUP1 DUP4 DUP3 MSTORE PUSH1 0x20 DUP3 ADD SWAP1 POP DUP3 DUP6 PUSH1 0x20 DUP7 MUL DUP3 ADD GT ISZERO PUSH2 0x33CC JUMPI PUSH2 0x33CB PUSH2 0x4504 JUMP JUMPDEST JUMPDEST PUSH1 0x0 JUMPDEST DUP6 DUP2 LT ISZERO PUSH2 0x341A JUMPI DUP2 CALLDATALOAD PUSH8 0xFFFFFFFFFFFFFFFF DUP2 GT ISZERO PUSH2 0x33F2 JUMPI PUSH2 0x33F1 PUSH2 0x44FF JUMP JUMPDEST JUMPDEST DUP1 DUP7 ADD PUSH2 0x33FF DUP10 DUP3 PUSH2 0x35D6 JUMP JUMPDEST DUP6 MSTORE PUSH1 0x20 DUP6 ADD SWAP5 POP PUSH1 0x20 DUP5 ADD SWAP4 POP POP POP PUSH1 0x1 DUP2 ADD SWAP1 POP PUSH2 0x33CF JUMP JUMPDEST POP POP POP SWAP4 SWAP3 POP POP POP JUMP JUMPDEST PUSH1 0x0 PUSH2 0x3437 PUSH2 0x3432 DUP5 PUSH2 0x3FC3 JUMP JUMPDEST PUSH2 0x3F4C JUMP JUMPDEST SWAP1 POP DUP1 DUP3 DUP6 PUSH1 0x20 DUP7 MUL DUP3 ADD GT ISZERO PUSH2 0x3451 JUMPI PUSH2 0x3450 PUSH2 0x4504 JUMP JUMPDEST JUMPDEST PUSH1 0x0 JUMPDEST DUP6 DUP2 LT ISZERO PUSH2 0x3481 JUMPI DUP2 PUSH2 0x3467 DUP9 DUP3 PUSH2 0x3647 JUMP JUMPDEST DUP5 MSTORE PUSH1 0x20 DUP5 ADD SWAP4 POP PUSH1 0x20 DUP4 ADD SWAP3 POP POP PUSH1 0x1 DUP2 ADD SWAP1 POP PUSH2 0x3454 JUMP JUMPDEST POP POP POP SWAP4 SWAP3 POP POP POP JUMP JUMPDEST PUSH1 0x0 PUSH2 0x349E PUSH2 0x3499 DUP5 PUSH2 0x3FE9 JUMP JUMPDEST PUSH2 0x3F4C JUMP JUMPDEST SWAP1 POP DUP1 DUP4 DUP3 MSTORE PUSH1 0x20 DUP3 ADD SWAP1 POP DUP3 DUP6 PUSH1 0x20 DUP7 MUL DUP3 ADD GT ISZERO PUSH2 0x34C1 JUMPI PUSH2 0x34C0 PUSH2 0x4504 JUMP JUMPDEST JUMPDEST PUSH1 0x0 JUMPDEST DUP6 DUP2 LT ISZERO PUSH2 0x34F1 JUMPI DUP2 PUSH2 0x34D7 DUP9 DUP3 PUSH2 0x3647 JUMP JUMPDEST DUP5 MSTORE PUSH1 0x20 DUP5 ADD SWAP4 POP PUSH1 0x20 DUP4 ADD SWAP3 POP POP PUSH1 0x1 DUP2 ADD SWAP1 POP PUSH2 0x34C4 JUMP JUMPDEST POP POP POP SWAP4 SWAP3 POP POP POP JUMP JUMPDEST PUSH1 0x0 PUSH2 0x350E PUSH2 0x3509 DUP5 PUSH2 0x4015 JUMP JUMPDEST PUSH2 0x3F4C JUMP JUMPDEST SWAP1 POP DUP3 DUP2 MSTORE PUSH1 0x20 DUP2 ADD DUP5 DUP5 DUP5 ADD GT ISZERO PUSH2 0x352A JUMPI PUSH2 0x3529 PUSH2 0x4509 JUMP JUMPDEST JUMPDEST PUSH2 0x3535 DUP5 DUP3 DUP6 PUSH2 0x4317 JUMP JUMPDEST POP SWAP4 SWAP3 POP POP POP JUMP JUMPDEST PUSH1 0x0 DUP2 CALLDATALOAD SWAP1 POP PUSH2 0x354C DUP2 PUSH2 0x45CA JUMP JUMPDEST SWAP3 SWAP2 POP POP JUMP JUMPDEST PUSH1 0x0 DUP3 PUSH1 0x1F DUP4 ADD SLT PUSH2 0x3567 JUMPI PUSH2 0x3566 PUSH2 0x44FF JUMP JUMPDEST JUMPDEST PUSH1 0x2 PUSH2 0x3574 DUP5 DUP3 DUP6 PUSH2 0x332F JUMP JUMPDEST SWAP2 POP POP SWAP3 SWAP2 POP POP JUMP JUMPDEST PUSH1 0x0 DUP3 PUSH1 0x1F DUP4 ADD SLT PUSH2 0x3592 JUMPI PUSH2 0x3591 PUSH2 0x44FF JUMP JUMPDEST JUMPDEST DUP2 CALLDATALOAD PUSH2 0x35A2 DUP5 DUP3 PUSH1 0x20 DUP7 ADD PUSH2 0x3396 JUMP JUMPDEST SWAP2 POP POP SWAP3 SWAP2 POP POP JUMP JUMPDEST PUSH1 0x0 DUP3 PUSH1 0x1F DUP4 ADD SLT PUSH2 0x35C0 JUMPI PUSH2 0x35BF PUSH2 0x44FF JUMP JUMPDEST JUMPDEST PUSH1 0x2 PUSH2 0x35CD DUP5 DUP3 DUP6 PUSH2 0x3424 JUMP JUMPDEST SWAP2 POP POP SWAP3 SWAP2 POP POP JUMP JUMPDEST PUSH1 0x0 DUP3 PUSH1 0x1F DUP4 ADD SLT PUSH2 0x35EB JUMPI PUSH2 0x35EA PUSH2 0x44FF JUMP JUMPDEST JUMPDEST DUP2 CALLDATALOAD PUSH2 0x35FB DUP5 DUP3 PUSH1 0x20 DUP7 ADD PUSH2 0x348B JUMP JUMPDEST SWAP2 POP POP SWAP3 SWAP2 POP POP JUMP JUMPDEST PUSH1 0x0 DUP2 MLOAD SWAP1 POP PUSH2 0x3613 DUP2 PUSH2 0x45E1 JUMP JUMPDEST SWAP3 SWAP2 POP POP JUMP JUMPDEST PUSH1 0x0 DUP3 PUSH1 0x1F DUP4 ADD SLT PUSH2 0x362E JUMPI PUSH2 0x362D PUSH2 0x44FF JUMP JUMPDEST JUMPDEST DUP2 CALLDATALOAD PUSH2 0x363E DUP5 DUP3 PUSH1 0x20 DUP7 ADD PUSH2 0x34FB JUMP JUMPDEST SWAP2 POP POP SWAP3 SWAP2 POP POP JUMP JUMPDEST PUSH1 0x0 DUP2 CALLDATALOAD SWAP1 POP PUSH2 0x3656 DUP2 PUSH2 0x45F8 JUMP JUMPDEST SWAP3 SWAP2 POP POP JUMP JUMPDEST PUSH1 0x0 PUSH1 0x20 DUP3 DUP5 SUB SLT ISZERO PUSH2 0x3672 JUMPI PUSH2 0x3671 PUSH2 0x4513 JUMP JUMPDEST JUMPDEST PUSH1 0x0 PUSH2 0x3680 DUP5 DUP3 DUP6 ADD PUSH2 0x353D JUMP JUMPDEST SWAP2 POP POP SWAP3 SWAP2 POP POP JUMP JUMPDEST PUSH1 0x0 DUP1 PUSH1 0x0 DUP1 PUSH1 0x0 DUP1 PUSH1 0x0 DUP1 PUSH1 0x0 PUSH2 0x1E0 DUP11 DUP13 SUB SLT ISZERO PUSH2 0x36AC JUMPI PUSH2 0x36AB PUSH2 0x4513 JUMP JUMPDEST JUMPDEST PUSH1 0x0 PUSH2 0x36BA DUP13 DUP3 DUP14 ADD PUSH2 0x35AB JUMP JUMPDEST SWAP10 POP POP PUSH1 0x40 PUSH2 0x36CB DUP13 DUP3 DUP14 ADD PUSH2 0x3552 JUMP JUMPDEST SWAP9 POP POP PUSH1 0xC0 PUSH2 0x36DC DUP13 DUP3 DUP14 ADD PUSH2 0x35AB JUMP JUMPDEST SWAP8 POP POP PUSH2 0x100 DUP11 ADD CALLDATALOAD PUSH8 0xFFFFFFFFFFFFFFFF DUP2 GT ISZERO PUSH2 0x36FE JUMPI PUSH2 0x36FD PUSH2 0x450E JUMP JUMPDEST JUMPDEST PUSH2 0x370A DUP13 DUP3 DUP14 ADD PUSH2 0x35D6 JUMP JUMPDEST SWAP7 POP POP PUSH2 0x120 DUP11 ADD CALLDATALOAD PUSH8 0xFFFFFFFFFFFFFFFF DUP2 GT ISZERO PUSH2 0x372C JUMPI PUSH2 0x372B PUSH2 0x450E JUMP JUMPDEST JUMPDEST PUSH2 0x3738 DUP13 DUP3 DUP14 ADD PUSH2 0x35D6 JUMP JUMPDEST SWAP6 POP POP PUSH2 0x140 DUP11 ADD CALLDATALOAD PUSH8 0xFFFFFFFFFFFFFFFF DUP2 GT ISZERO PUSH2 0x375A JUMPI PUSH2 0x3759 PUSH2 0x450E JUMP JUMPDEST JUMPDEST PUSH2 0x3766 DUP13 DUP3 DUP14 ADD PUSH2 0x35D6 JUMP JUMPDEST SWAP5 POP POP PUSH2 0x160 DUP11 ADD CALLDATALOAD PUSH8 0xFFFFFFFFFFFFFFFF DUP2 GT ISZERO PUSH2 0x3788 JUMPI PUSH2 0x3787 PUSH2 0x450E JUMP JUMPDEST JUMPDEST PUSH2 0x3794 DUP13 DUP3 DUP14 ADD PUSH2 0x35D6 JUMP JUMPDEST SWAP4 POP POP PUSH2 0x180 PUSH2 0x37A6 DUP13 DUP3 DUP14 ADD PUSH2 0x35AB JUMP JUMPDEST SWAP3 POP POP PUSH2 0x1C0 DUP11 ADD CALLDATALOAD PUSH8 0xFFFFFFFFFFFFFFFF DUP2 GT ISZERO PUSH2 0x37C8 JUMPI PUSH2 0x37C7 PUSH2 0x450E JUMP JUMPDEST JUMPDEST PUSH2 0x37D4 DUP13 DUP3 DUP14 ADD PUSH2 0x3619 JUMP JUMPDEST SWAP2 POP POP SWAP3 SWAP6 SWAP9 POP SWAP3 SWAP6 SWAP9 POP SWAP3 SWAP6 SWAP9 JUMP JUMPDEST PUSH1 0x0 DUP1 PUSH1 0x0 DUP1 PUSH1 0x0 DUP1 PUSH1 0x0 DUP1 PUSH1 0x0 PUSH2 0x1C0 DUP11 DUP13 SUB SLT ISZERO PUSH2 0x3807 JUMPI PUSH2 0x3806 PUSH2 0x4513 JUMP JUMPDEST JUMPDEST PUSH1 0x0 PUSH2 0x3815 DUP13 DUP3 DUP14 ADD PUSH2 0x35AB JUMP JUMPDEST SWAP10 POP POP PUSH1 0x40 PUSH2 0x3826 DUP13 DUP3 DUP14 ADD PUSH2 0x3552 JUMP JUMPDEST SWAP9 POP POP PUSH1 0xC0 PUSH2 0x3837 DUP13 DUP3 DUP14 ADD PUSH2 0x35AB JUMP JUMPDEST SWAP8 POP POP PUSH2 0x100 PUSH2 0x3849 DUP13 DUP3 DUP14 ADD PUSH2 0x3647 JUMP JUMPDEST SWAP7 POP POP PUSH2 0x120 DUP11 ADD CALLDATALOAD PUSH8 0xFFFFFFFFFFFFFFFF DUP2 GT ISZERO PUSH2 0x386B JUMPI PUSH2 0x386A PUSH2 0x450E JUMP JUMPDEST JUMPDEST PUSH2 0x3877 DUP13 DUP3 DUP14 ADD PUSH2 0x357D JUMP JUMPDEST SWAP6 POP POP PUSH2 0x140 DUP11 ADD CALLDATALOAD PUSH8 0xFFFFFFFFFFFFFFFF DUP2 GT ISZERO PUSH2 0x3899 JUMPI PUSH2 0x3898 PUSH2 0x450E JUMP JUMPDEST JUMPDEST PUSH2 0x38A5 DUP13 DUP3 DUP14 ADD PUSH2 0x357D JUMP JUMPDEST SWAP5 POP POP PUSH2 0x160 DUP11 ADD CALLDATALOAD PUSH8 0xFFFFFFFFFFFFFFFF DUP2 GT ISZERO PUSH2 0x38C7 JUMPI PUSH2 0x38C6 PUSH2 0x450E JUMP JUMPDEST JUMPDEST PUSH2 0x38D3 DUP13 DUP3 DUP14 ADD PUSH2 0x357D JUMP JUMPDEST SWAP4 POP POP PUSH2 0x180 DUP11 ADD CALLDATALOAD PUSH8 0xFFFFFFFFFFFFFFFF DUP2 GT ISZERO PUSH2 0x38F5 JUMPI PUSH2 0x38F4 PUSH2 0x450E JUMP JUMPDEST JUMPDEST PUSH2 0x3901 DUP13 DUP3 DUP14 ADD PUSH2 0x357D JUMP JUMPDEST SWAP3 POP POP PUSH2 0x1A0 DUP11 ADD CALLDATALOAD PUSH8 0xFFFFFFFFFFFFFFFF DUP2 GT ISZERO PUSH2 0x3923 JUMPI PUSH2 0x3922 PUSH2 0x450E JUMP JUMPDEST JUMPDEST PUSH2 0x392F DUP13 DUP3 DUP14 ADD PUSH2 0x3619 JUMP JUMPDEST SWAP2 POP POP SWAP3 SWAP6 SWAP9 POP SWAP3 SWAP6 SWAP9 POP SWAP3 SWAP6 SWAP9 JUMP JUMPDEST PUSH1 0x0 PUSH1 0x20 DUP3 DUP5 SUB SLT ISZERO PUSH2 0x3955 JUMPI PUSH2 0x3954 PUSH2 0x4513 JUMP JUMPDEST JUMPDEST PUSH1 0x0 PUSH2 0x3963 DUP5 DUP3 DUP6 ADD PUSH2 0x3604 JUMP JUMPDEST SWAP2 POP POP SWAP3 SWAP2 POP POP JUMP JUMPDEST PUSH1 0x0 PUSH1 0x20 DUP3 DUP5 SUB SLT ISZERO PUSH2 0x3982 JUMPI PUSH2 0x3981 PUSH2 0x4513 JUMP JUMPDEST JUMPDEST PUSH1 0x0 DUP3 ADD CALLDATALOAD PUSH8 0xFFFFFFFFFFFFFFFF DUP2 GT ISZERO PUSH2 0x39A0 JUMPI PUSH2 0x399F PUSH2 0x450E JUMP JUMPDEST JUMPDEST PUSH2 0x39AC DUP5 DUP3 DUP6 ADD PUSH2 0x3619 JUMP JUMPDEST SWAP2 POP POP SWAP3 SWAP2 POP POP JUMP JUMPDEST PUSH1 0x0 PUSH1 0x20 DUP3 DUP5 SUB SLT ISZERO PUSH2 0x39CB JUMPI PUSH2 0x39CA PUSH2 0x4513 JUMP JUMPDEST JUMPDEST PUSH1 0x0 PUSH2 0x39D9 DUP5 DUP3 DUP6 ADD PUSH2 0x3647 JUMP JUMPDEST SWAP2 POP POP SWAP3 SWAP2 POP POP JUMP JUMPDEST PUSH1 0x0 PUSH2 0x39EE DUP4 DUP4 PUSH2 0x3B88 JUMP JUMPDEST SWAP1 POP SWAP3 SWAP2 POP POP JUMP JUMPDEST PUSH1 0x0 PUSH2 0x3A02 DUP4 DUP4 PUSH2 0x3DE3 JUMP JUMPDEST PUSH1 0x20 DUP4 ADD SWAP1 POP SWAP3 SWAP2 POP POP JUMP JUMPDEST PUSH1 0x0 PUSH2 0x3A19 DUP3 PUSH2 0x4099 JUMP JUMPDEST PUSH2 0x3A23 DUP2 DUP6 PUSH2 0x411C JUMP JUMPDEST SWAP4 POP DUP4 PUSH1 0x20 DUP3 MUL DUP6 ADD PUSH2 0x3A35 DUP6 PUSH2 0x4046 JUMP JUMPDEST DUP1 PUSH1 0x0 JUMPDEST DUP6 DUP2 LT ISZERO PUSH2 0x3A71 JUMPI DUP5 DUP5 SUB DUP10 MSTORE DUP2 MLOAD PUSH2 0x3A52 DUP6 DUP3 PUSH2 0x39E2 JUMP JUMPDEST SWAP5 POP PUSH2 0x3A5D DUP4 PUSH2 0x40DB JUMP JUMPDEST SWAP3 POP PUSH1 0x20 DUP11 ADD SWAP10 POP POP PUSH1 0x1 DUP2 ADD SWAP1 POP PUSH2 0x3A39 JUMP JUMPDEST POP DUP3 SWAP8 POP DUP8 SWAP6 POP POP POP POP POP POP SWAP3 SWAP2 POP POP JUMP JUMPDEST PUSH2 0x3A8C DUP2 PUSH2 0x40A4 JUMP JUMPDEST PUSH2 0x3A96 DUP2 DUP5 PUSH2 0x412D JUMP JUMPDEST SWAP3 POP PUSH2 0x3AA1 DUP3 PUSH2 0x4056 JUMP JUMPDEST DUP1 PUSH1 0x0 JUMPDEST DUP4 DUP2 LT ISZERO PUSH2 0x3AD2 JUMPI DUP2 MLOAD PUSH2 0x3AB9 DUP8 DUP3 PUSH2 0x39F6 JUMP JUMPDEST SWAP7 POP PUSH2 0x3AC4 DUP4 PUSH2 0x40E8 JUMP JUMPDEST SWAP3 POP POP PUSH1 0x1 DUP2 ADD SWAP1 POP PUSH2 0x3AA5 JUMP JUMPDEST POP POP POP POP POP POP JUMP JUMPDEST PUSH2 0x3AE3 DUP2 PUSH2 0x40AF JUMP JUMPDEST PUSH2 0x3AED DUP2 DUP5 PUSH2 0x4138 JUMP JUMPDEST SWAP3 POP PUSH2 0x3AF8 DUP3 PUSH2 0x4060 JUMP JUMPDEST DUP1 PUSH1 0x0 JUMPDEST DUP4 DUP2 LT ISZERO PUSH2 0x3B29 JUMPI DUP2 MLOAD PUSH2 0x3B10 DUP8 DUP3 PUSH2 0x39F6 JUMP JUMPDEST SWAP7 POP PUSH2 0x3B1B DUP4 PUSH2 0x40F5 JUMP JUMPDEST SWAP3 POP POP PUSH1 0x1 DUP2 ADD SWAP1 POP PUSH2 0x3AFC JUMP JUMPDEST POP POP POP POP POP POP JUMP JUMPDEST PUSH2 0x3B3A DUP2 PUSH2 0x40BA JUMP JUMPDEST PUSH2 0x3B44 DUP2 DUP5 PUSH2 0x4143 JUMP JUMPDEST SWAP3 POP PUSH2 0x3B4F DUP3 PUSH2 0x406A JUMP JUMPDEST DUP1 PUSH1 0x0 JUMPDEST DUP4 DUP2 LT ISZERO PUSH2 0x3B80 JUMPI DUP2 MLOAD PUSH2 0x3B67 DUP8 DUP3 PUSH2 0x39F6 JUMP JUMPDEST SWAP7 POP PUSH2 0x3B72 DUP4 PUSH2 0x4102 JUMP JUMPDEST SWAP3 POP POP PUSH1 0x1 DUP2 ADD SWAP1 POP PUSH2 0x3B53 JUMP JUMPDEST POP POP POP POP POP POP JUMP JUMPDEST PUSH1 0x0 PUSH2 0x3B93 DUP3 PUSH2 0x40C5 JUMP JUMPDEST PUSH2 0x3B9D DUP2 DUP6 PUSH2 0x414E JUMP JUMPDEST SWAP4 POP PUSH2 0x3BA8 DUP4 PUSH2 0x4074 JUMP JUMPDEST DUP1 PUSH1 0x0 JUMPDEST DUP4 DUP2 LT ISZERO PUSH2 0x3BD9 JUMPI DUP2 MLOAD PUSH2 0x3BC0 DUP9 DUP3 PUSH2 0x39F6 JUMP JUMPDEST SWAP8 POP PUSH2 0x3BCB DUP4 PUSH2 0x410F JUMP JUMPDEST SWAP3 POP POP PUSH1 0x1 DUP2 ADD SWAP1 POP PUSH2 0x3BAC JUMP JUMPDEST POP DUP6 SWAP4 POP POP POP POP SWAP3 SWAP2 POP POP JUMP JUMPDEST PUSH1 0x0 PUSH2 0x3BF1 DUP3 PUSH2 0x40D0 JUMP JUMPDEST PUSH2 0x3BFB DUP2 DUP6 PUSH2 0x4170 JUMP JUMPDEST SWAP4 POP PUSH2 0x3C0B DUP2 DUP6 PUSH1 0x20 DUP7 ADD PUSH2 0x4326 JUMP JUMPDEST DUP1 DUP5 ADD SWAP2 POP POP SWAP3 SWAP2 POP POP JUMP JUMPDEST PUSH1 0x0 DUP2 SLOAD PUSH2 0x3C24 DUP2 PUSH2 0x4359 JUMP JUMPDEST PUSH2 0x3C2E DUP2 DUP7 PUSH2 0x4170 JUMP JUMPDEST SWAP5 POP PUSH1 0x1 DUP3 AND PUSH1 0x0 DUP2 EQ PUSH2 0x3C49 JUMPI PUSH1 0x1 DUP2 EQ PUSH2 0x3C5A JUMPI PUSH2 0x3C8D JUMP JUMPDEST PUSH1 0xFF NOT DUP4 AND DUP7 MSTORE DUP2 DUP7 ADD SWAP4 POP PUSH2 0x3C8D JUMP JUMPDEST PUSH2 0x3C63 DUP6 PUSH2 0x4084 JUMP JUMPDEST PUSH1 0x0 JUMPDEST DUP4 DUP2 LT ISZERO PUSH2 0x3C85 JUMPI DUP2 SLOAD DUP2 DUP10 ADD MSTORE PUSH1 0x1 DUP3 ADD SWAP2 POP PUSH1 0x20 DUP2 ADD SWAP1 POP PUSH2 0x3C66 JUMP JUMPDEST DUP4 DUP9 ADD SWAP6 POP POP POP JUMPDEST POP POP POP SWAP3 SWAP2 POP POP JUMP JUMPDEST PUSH1 0x0 PUSH2 0x3CA3 PUSH1 0x2A DUP4 PUSH2 0x415F JUMP JUMPDEST SWAP2 POP PUSH2 0x3CAE DUP3 PUSH2 0x4529 JUMP JUMPDEST PUSH1 0x40 DUP3 ADD SWAP1 POP SWAP2 SWAP1 POP JUMP JUMPDEST PUSH1 0x0 PUSH2 0x3CC6 PUSH1 0x1E DUP4 PUSH2 0x415F JUMP JUMPDEST SWAP2 POP PUSH2 0x3CD1 DUP3 PUSH2 0x4578 JUMP JUMPDEST PUSH1 0x20 DUP3 ADD SWAP1 POP SWAP2 SWAP1 POP JUMP JUMPDEST PUSH1 0x0 PUSH2 0x3CE9 PUSH1 0x16 DUP4 PUSH2 0x415F JUMP JUMPDEST SWAP2 POP PUSH2 0x3CF4 DUP3 PUSH2 0x45A1 JUMP JUMPDEST PUSH1 0x20 DUP3 ADD SWAP1 POP SWAP2 SWAP1 POP JUMP JUMPDEST PUSH1 0x40 DUP3 ADD PUSH1 0x0 DUP3 ADD MLOAD PUSH2 0x3D15 PUSH1 0x0 DUP6 ADD DUP3 PUSH2 0x3DE3 JUMP JUMPDEST POP PUSH1 0x20 DUP3 ADD MLOAD PUSH2 0x3D28 PUSH1 0x20 DUP6 ADD DUP3 PUSH2 0x3DE3 JUMP JUMPDEST POP POP POP POP JUMP JUMPDEST PUSH1 0x80 DUP3 ADD PUSH1 0x0 DUP3 ADD MLOAD PUSH2 0x3D44 PUSH1 0x0 DUP6 ADD DUP3 PUSH2 0x3A83 JUMP JUMPDEST POP PUSH1 0x20 DUP3 ADD MLOAD PUSH2 0x3D57 PUSH1 0x40 DUP6 ADD DUP3 PUSH2 0x3A83 JUMP JUMPDEST POP POP POP POP JUMP JUMPDEST PUSH2 0x100 DUP3 ADD PUSH1 0x0 DUP3 ADD MLOAD PUSH2 0x3D74 PUSH1 0x0 DUP6 ADD DUP3 PUSH2 0x3CFF JUMP JUMPDEST POP PUSH1 0x20 DUP3 ADD MLOAD PUSH2 0x3D87 PUSH1 0x40 DUP6 ADD DUP3 PUSH2 0x3D2E JUMP JUMPDEST POP PUSH1 0x40 DUP3 ADD MLOAD PUSH2 0x3D9A PUSH1 0xC0 DUP6 ADD DUP3 PUSH2 0x3CFF JUMP JUMPDEST POP POP POP POP JUMP JUMPDEST PUSH2 0x100 DUP3 ADD PUSH1 0x0 DUP3 ADD MLOAD PUSH2 0x3DB7 PUSH1 0x0 DUP6 ADD DUP3 PUSH2 0x3CFF JUMP JUMPDEST POP PUSH1 0x20 DUP3 ADD MLOAD PUSH2 0x3DCA PUSH1 0x40 DUP6 ADD DUP3 PUSH2 0x3D2E JUMP JUMPDEST POP PUSH1 0x40 DUP3 ADD MLOAD PUSH2 0x3DDD PUSH1 0xC0 DUP6 ADD DUP3 PUSH2 0x3CFF JUMP JUMPDEST POP POP POP POP JUMP JUMPDEST PUSH2 0x3DEC DUP2 PUSH2 0x42FD JUMP JUMPDEST DUP3 MSTORE POP POP JUMP JUMPDEST PUSH2 0x3DFB DUP2 PUSH2 0x42FD JUMP JUMPDEST DUP3 MSTORE POP POP JUMP JUMPDEST PUSH2 0x3E0A DUP2 PUSH2 0x4307 JUMP JUMPDEST DUP3 MSTORE POP POP JUMP JUMPDEST PUSH1 0x0 PUSH2 0x3E1C DUP3 DUP5 PUSH2 0x3BE6 JUMP JUMPDEST SWAP2 POP DUP2 SWAP1 POP SWAP3 SWAP2 POP POP JUMP JUMPDEST PUSH1 0x0 PUSH2 0x3E33 DUP3 DUP5 PUSH2 0x3C17 JUMP JUMPDEST SWAP2 POP DUP2 SWAP1 POP SWAP3 SWAP2 POP POP JUMP JUMPDEST PUSH1 0x0 PUSH1 0x20 DUP3 ADD SWAP1 POP DUP2 DUP2 SUB PUSH1 0x0 DUP4 ADD MSTORE PUSH2 0x3E58 DUP2 DUP5 PUSH2 0x3A0E JUMP JUMPDEST SWAP1 POP SWAP3 SWAP2 POP POP JUMP JUMPDEST PUSH1 0x0 PUSH1 0x20 DUP3 ADD SWAP1 POP DUP2 DUP2 SUB PUSH1 0x0 DUP4 ADD MSTORE PUSH2 0x3E79 DUP2 PUSH2 0x3C96 JUMP JUMPDEST SWAP1 POP SWAP2 SWAP1 POP JUMP JUMPDEST PUSH1 0x0 PUSH1 0x20 DUP3 ADD SWAP1 POP DUP2 DUP2 SUB PUSH1 0x0 DUP4 ADD MSTORE PUSH2 0x3E99 DUP2 PUSH2 0x3CB9 JUMP JUMPDEST SWAP1 POP SWAP2 SWAP1 POP JUMP JUMPDEST PUSH1 0x0 PUSH1 0x20 DUP3 ADD SWAP1 POP DUP2 DUP2 SUB PUSH1 0x0 DUP4 ADD MSTORE PUSH2 0x3EB9 DUP2 PUSH2 0x3CDC JUMP JUMPDEST SWAP1 POP SWAP2 SWAP1 POP JUMP JUMPDEST PUSH1 0x0 PUSH2 0x800 DUP3 ADD SWAP1 POP PUSH2 0x3ED6 PUSH1 0x0 DUP4 ADD DUP6 PUSH2 0x3D5D JUMP JUMPDEST PUSH2 0x3EE4 PUSH2 0x100 DUP4 ADD DUP5 PUSH2 0x3ADA JUMP JUMPDEST SWAP4 SWAP3 POP POP POP JUMP JUMPDEST PUSH1 0x0 PUSH2 0xB20 DUP3 ADD SWAP1 POP PUSH2 0x3F01 PUSH1 0x0 DUP4 ADD DUP6 PUSH2 0x3DA0 JUMP JUMPDEST PUSH2 0x3F0F PUSH2 0x100 DUP4 ADD DUP5 PUSH2 0x3B31 JUMP JUMPDEST SWAP4 SWAP3 POP POP POP JUMP JUMPDEST PUSH1 0x0 PUSH1 0x20 DUP3 ADD SWAP1 POP PUSH2 0x3F2B PUSH1 0x0 DUP4 ADD DUP5 PUSH2 0x3DF2 JUMP JUMPDEST SWAP3 SWAP2 POP POP JUMP JUMPDEST PUSH1 0x0 PUSH1 0x20 DUP3 ADD SWAP1 POP PUSH2 0x3F46 PUSH1 0x0 DUP4 ADD DUP5 PUSH2 0x3E01 JUMP JUMPDEST SWAP3 SWAP2 POP POP JUMP JUMPDEST PUSH1 0x0 PUSH2 0x3F56 PUSH2 0x3F67 JUMP JUMPDEST SWAP1 POP PUSH2 0x3F62 DUP3 DUP3 PUSH2 0x438B JUMP JUMPDEST SWAP2 SWAP1 POP JUMP JUMPDEST PUSH1 0x0 PUSH1 0x40 MLOAD SWAP1 POP SWAP1 JUMP JUMPDEST PUSH1 0x0 PUSH8 0xFFFFFFFFFFFFFFFF DUP3 GT ISZERO PUSH2 0x3F8C JUMPI PUSH2 0x3F8B PUSH2 0x44D0 JUMP JUMPDEST JUMPDEST PUSH1 0x20 DUP3 MUL SWAP1 POP SWAP2 SWAP1 POP JUMP JUMPDEST PUSH1 0x0 PUSH8 0xFFFFFFFFFFFFFFFF DUP3 GT ISZERO PUSH2 0x3FB2 JUMPI PUSH2 0x3FB1 PUSH2 0x44D0 JUMP JUMPDEST JUMPDEST PUSH1 0x20 DUP3 MUL SWAP1 POP PUSH1 0x20 DUP2 ADD SWAP1 POP SWAP2 SWAP1 POP JUMP JUMPDEST PUSH1 0x0 PUSH8 0xFFFFFFFFFFFFFFFF DUP3 GT ISZERO PUSH2 0x3FDE JUMPI PUSH2 0x3FDD PUSH2 0x44D0 JUMP JUMPDEST JUMPDEST PUSH1 0x20 DUP3 MUL SWAP1 POP SWAP2 SWAP1 POP JUMP JUMPDEST PUSH1 0x0 PUSH8 0xFFFFFFFFFFFFFFFF DUP3 GT ISZERO PUSH2 0x4004 JUMPI PUSH2 0x4003 PUSH2 0x44D0 JUMP JUMPDEST JUMPDEST PUSH1 0x20 DUP3 MUL SWAP1 POP PUSH1 0x20 DUP2 ADD SWAP1 POP SWAP2 SWAP1 POP JUMP JUMPDEST PUSH1 0x0 PUSH8 0xFFFFFFFFFFFFFFFF DUP3 GT ISZERO PUSH2 0x4030 JUMPI PUSH2 0x402F PUSH2 0x44D0 JUMP JUMPDEST JUMPDEST PUSH2 0x4039 DUP3 PUSH2 0x4518 JUMP JUMPDEST SWAP1 POP PUSH1 0x20 DUP2 ADD SWAP1 POP SWAP2 SWAP1 POP JUMP JUMPDEST PUSH1 0x0 DUP2 SWAP1 POP PUSH1 0x20 DUP3 ADD SWAP1 POP SWAP2 SWAP1 POP JUMP JUMPDEST PUSH1 0x0 DUP2 SWAP1 POP SWAP2 SWAP1 POP JUMP JUMPDEST PUSH1 0x0 DUP2 SWAP1 POP SWAP2 SWAP1 POP JUMP JUMPDEST PUSH1 0x0 DUP2 SWAP1 POP SWAP2 SWAP1 POP JUMP JUMPDEST PUSH1 0x0 DUP2 SWAP1 POP PUSH1 0x20 DUP3 ADD SWAP1 POP SWAP2 SWAP1 POP JUMP JUMPDEST PUSH1 0x0 DUP2 SWAP1 POP DUP2 PUSH1 0x0 MSTORE PUSH1 0x20 PUSH1 0x0 KECCAK256 SWAP1 POP SWAP2 SWAP1 POP JUMP JUMPDEST PUSH1 0x0 DUP2 MLOAD SWAP1 POP SWAP2 SWAP1 POP JUMP JUMPDEST PUSH1 0x0 PUSH1 0x2 SWAP1 POP SWAP2 SWAP1 POP JUMP JUMPDEST PUSH1 0x0 PUSH1 0x38 SWAP1 POP SWAP2 SWAP1 POP JUMP JUMPDEST PUSH1 0x0 PUSH1 0x51 SWAP1 POP SWAP2 SWAP1 POP JUMP JUMPDEST PUSH1 0x0 DUP2 MLOAD SWAP1 POP SWAP2 SWAP1 POP JUMP JUMPDEST PUSH1 0x0 DUP2 MLOAD SWAP1 POP SWAP2 SWAP1 POP JUMP JUMPDEST PUSH1 0x0 PUSH1 0x20 DUP3 ADD SWAP1 POP SWAP2 SWAP1 POP JUMP JUMPDEST PUSH1 0x0 PUSH1 0x20 DUP3 ADD SWAP1 POP SWAP2 SWAP1 POP JUMP JUMPDEST PUSH1 0x0 PUSH1 0x20 DUP3 ADD SWAP1 POP SWAP2 SWAP1 POP JUMP JUMPDEST PUSH1 0x0 PUSH1 0x20 DUP3 ADD SWAP1 POP SWAP2 SWAP1 POP JUMP JUMPDEST PUSH1 0x0 PUSH1 0x20 DUP3 ADD SWAP1 POP SWAP2 SWAP1 POP JUMP JUMPDEST PUSH1 0x0 DUP3 DUP3 MSTORE PUSH1 0x20 DUP3 ADD SWAP1 POP SWAP3 SWAP2 POP POP JUMP JUMPDEST PUSH1 0x0 DUP2 SWAP1 POP SWAP3 SWAP2 POP POP JUMP JUMPDEST PUSH1 0x0 DUP2 SWAP1 POP SWAP3 SWAP2 POP POP JUMP JUMPDEST PUSH1 0x0 DUP2 SWAP1 POP SWAP3 SWAP2 POP POP JUMP JUMPDEST PUSH1 0x0 DUP3 DUP3 MSTORE PUSH1 0x20 DUP3 ADD SWAP1 POP SWAP3 SWAP2 POP POP JUMP JUMPDEST PUSH1 0x0 DUP3 DUP3 MSTORE PUSH1 0x20 DUP3 ADD SWAP1 POP SWAP3 SWAP2 POP POP JUMP JUMPDEST PUSH1 0x0 DUP2 SWAP1 POP SWAP3 SWAP2 POP POP JUMP JUMPDEST PUSH1 0x0 PUSH2 0x4186 DUP3 PUSH2 0x42FD JUMP JUMPDEST SWAP2 POP PUSH2 0x4191 DUP4 PUSH2 0x42FD JUMP JUMPDEST SWAP3 POP DUP3 PUSH32 0xFFFFFFFFFFFFFFFFFFFFFFFFFFFFFFFFFFFFFFFFFFFFFFFFFFFFFFFFFFFFFFFF SUB DUP3 GT ISZERO PUSH2 0x41C6 JUMPI PUSH2 0x41C5 PUSH2 0x4414 JUMP JUMPDEST JUMPDEST DUP3 DUP3 ADD SWAP1 POP SWAP3 SWAP2 POP POP JUMP JUMPDEST PUSH1 0x0 PUSH2 0x41DC DUP3 PUSH2 0x4307 JUMP JUMPDEST SWAP2 POP PUSH2 0x41E7 DUP4 PUSH2 0x4307 JUMP JUMPDEST SWAP3 POP DUP3 PUSH4 0xFFFFFFFF SUB DUP3 GT ISZERO PUSH2 0x4200 JUMPI PUSH2 0x41FF PUSH2 0x4414 JUMP JUMPDEST JUMPDEST DUP3 DUP3 ADD SWAP1 POP SWAP3 SWAP2 POP POP JUMP JUMPDEST PUSH1 0x0 PUSH2 0x4216 DUP3 PUSH2 0x4307 JUMP JUMPDEST SWAP2 POP PUSH2 0x4221 DUP4 PUSH2 0x4307 JUMP JUMPDEST SWAP3 POP DUP2 PUSH4 0xFFFFFFFF DIV DUP4 GT DUP3 ISZERO ISZERO AND ISZERO PUSH2 0x423E JUMPI PUSH2 0x423D PUSH2 0x4414 JUMP JUMPDEST JUMPDEST DUP3 DUP3 MUL SWAP1 POP SWAP3 SWAP2 POP POP JUMP JUMPDEST PUSH1 0x0 PUSH2 0x4254 DUP3 PUSH2 0x42CF JUMP JUMPDEST SWAP2 POP PUSH2 0x425F DUP4 PUSH2 0x42CF JUMP JUMPDEST SWAP3 POP DUP3 DUP3 LT ISZERO PUSH2 0x4272 JUMPI PUSH2 0x4271 PUSH2 0x4414 JUMP JUMPDEST JUMPDEST DUP3 DUP3 SUB SWAP1 POP SWAP3 SWAP2 POP POP JUMP JUMPDEST PUSH1 0x0 PUSH2 0x4288 DUP3 PUSH2 0x42FD JUMP JUMPDEST SWAP2 POP PUSH2 0x4293 DUP4 PUSH2 0x42FD JUMP JUMPDEST SWAP3 POP DUP3 DUP3 LT ISZERO PUSH2 0x42A6 JUMPI PUSH2 0x42A5 PUSH2 0x4414 JUMP JUMPDEST JUMPDEST DUP3 DUP3 SUB SWAP1 POP SWAP3 SWAP2 POP POP JUMP JUMPDEST PUSH1 0x0 PUSH2 0x42BC DUP3 PUSH2 0x42DD JUMP JUMPDEST SWAP1 POP SWAP2 SWAP1 POP JUMP JUMPDEST PUSH1 0x0 DUP2 ISZERO ISZERO SWAP1 POP SWAP2 SWAP1 POP JUMP JUMPDEST PUSH1 0x0 PUSH2 0xFFFF DUP3 AND SWAP1 POP SWAP2 SWAP1 POP JUMP JUMPDEST PUSH1 0x0 PUSH20 0xFFFFFFFFFFFFFFFFFFFFFFFFFFFFFFFFFFFFFFFF DUP3 AND SWAP1 POP SWAP2 SWAP1 POP JUMP JUMPDEST PUSH1 0x0 DUP2 SWAP1 POP SWAP2 SWAP1 POP JUMP JUMPDEST PUSH1 0x0 PUSH4 0xFFFFFFFF DUP3 AND SWAP1 POP SWAP2 SWAP1 POP JUMP JUMPDEST DUP3 DUP2 DUP4 CALLDATACOPY PUSH1 0x0 DUP4 DUP4 ADD MSTORE POP POP POP JUMP JUMPDEST PUSH1 0x0 JUMPDEST DUP4 DUP2 LT ISZERO PUSH2 0x4344 JUMPI DUP1 DUP3 ADD MLOAD DUP2 DUP5 ADD MSTORE PUSH1 0x20 DUP2 ADD SWAP1 POP PUSH2 0x4329 JUMP JUMPDEST DUP4 DUP2 GT ISZERO PUSH2 0x4353 JUMPI PUSH1 0x0 DUP5 DUP5 ADD MSTORE JUMPDEST POP POP POP POP JUMP JUMPDEST PUSH1 0x0 PUSH1 0x2 DUP3 DIV SWAP1 POP PUSH1 0x1 DUP3 AND DUP1 PUSH2 0x4371 JUMPI PUSH1 0x7F DUP3 AND SWAP2 POP JUMPDEST PUSH1 0x20 DUP3 LT DUP2 EQ ISZERO PUSH2 0x4385 JUMPI PUSH2 0x4384 PUSH2 0x4472 JUMP JUMPDEST JUMPDEST POP SWAP2 SWAP1 POP JUMP JUMPDEST PUSH2 0x4394 DUP3 PUSH2 0x4518 JUMP JUMPDEST DUP2 ADD DUP2 DUP2 LT PUSH8 0xFFFFFFFFFFFFFFFF DUP3 GT OR ISZERO PUSH2 0x43B3 JUMPI PUSH2 0x43B2 PUSH2 0x44D0 JUMP JUMPDEST JUMPDEST DUP1 PUSH1 0x40 MSTORE POP POP POP JUMP JUMPDEST PUSH1 0x0 PUSH2 0x43C7 DUP3 PUSH2 0x42CF JUMP JUMPDEST SWAP2 POP PUSH2 0xFFFF DUP3 EQ ISZERO PUSH2 0x43DC JUMPI PUSH2 0x43DB PUSH2 0x4414 JUMP JUMPDEST JUMPDEST PUSH1 0x1 DUP3 ADD SWAP1 POP SWAP2 SWAP1 POP JUMP JUMPDEST PUSH1 0x0 PUSH2 0x43F2 DUP3 PUSH2 0x4307 JUMP JUMPDEST SWAP2 POP PUSH4 0xFFFFFFFF DUP3 EQ ISZERO PUSH2 0x4409 JUMPI PUSH2 0x4408 PUSH2 0x4414 JUMP JUMPDEST JUMPDEST PUSH1 0x1 DUP3 ADD SWAP1 POP SWAP2 SWAP1 POP JUMP JUMPDEST PUSH32 0x4E487B7100000000000000000000000000000000000000000000000000000000 PUSH1 0x0 MSTORE PUSH1 0x11 PUSH1 0x4 MSTORE PUSH1 0x24 PUSH1 0x0 REVERT JUMPDEST PUSH32 0x4E487B7100000000000000000000000000000000000000000000000000000000 PUSH1 0x0 MSTORE PUSH1 0x12 PUSH1 0x4 MSTORE PUSH1 0x24 PUSH1 0x0 REVERT JUMPDEST PUSH32 0x4E487B7100000000000000000000000000000000000000000000000000000000 PUSH1 0x0 MSTORE PUSH1 0x22 PUSH1 0x4 MSTORE PUSH1 0x24 PUSH1 0x0 REVERT JUMPDEST PUSH32 0x4E487B7100000000000000000000000000000000000000000000000000000000 PUSH1 0x0 MSTORE PUSH1 0x32 PUSH1 0x4 MSTORE PUSH1 0x24 PUSH1 0x0 REVERT JUMPDEST PUSH32 0x4E487B7100000000000000000000000000000000000000000000000000000000 PUSH1 0x0 MSTORE PUSH1 0x41 PUSH1 0x4 MSTORE PUSH1 0x24 PUSH1 0x0 REVERT JUMPDEST PUSH1 0x0 DUP1 REVERT JUMPDEST PUSH1 0x0 DUP1 REVERT JUMPDEST PUSH1 0x0 DUP1 REVERT JUMPDEST PUSH1 0x0 DUP1 REVERT JUMPDEST PUSH1 0x0 DUP1 REVERT JUMPDEST PUSH1 0x0 PUSH1 0x1F NOT PUSH1 0x1F DUP4 ADD AND SWAP1 POP SWAP2 SWAP1 POP JUMP JUMPDEST PUSH32 0x4F6E6C7920746865206D6F64657261746F722063616E2063616C6C2074686973 PUSH1 0x0 DUP3 ADD MSTORE PUSH32 0x2066756E6374696F6E2100000000000000000000000000000000000000000000 PUSH1 0x20 DUP3 ADD MSTORE POP JUMP JUMPDEST PUSH32 0x4D6F64656C20757064617465206D757374206265207665726966696564210000 PUSH1 0x0 DUP3 ADD MSTORE POP JUMP JUMPDEST PUSH32 0x50726F6F66206D75737420626520766572696669656400000000000000000000 PUSH1 0x0 DUP3 ADD MSTORE POP JUMP JUMPDEST PUSH2 0x45D3 DUP2 PUSH2 0x42B1 JUMP JUMPDEST DUP2 EQ PUSH2 0x45DE JUMPI PUSH1 0x0 DUP1 REVERT JUMPDEST POP JUMP JUMPDEST PUSH2 0x45EA DUP2 PUSH2 0x42C3 JUMP JUMPDEST DUP2 EQ PUSH2 0x45F5 JUMPI PUSH1 0x0 DUP1 REVERT JUMPDEST POP JUMP JUMPDEST PUSH2 0x4601 DUP2 PUSH2 0x42FD JUMP JUMPDEST DUP2 EQ PUSH2 0x460C JUMPI PUSH1 0x0 DUP1 REVERT JUMPDEST POP JUMP INVALID LOG2 PUSH5 0x6970667358 0x22 SLT KECCAK256 GT EXTCODECOPY SELFDESTRUCT 0x4A 0xE9 DUP1 CHAINID 0xEA DUP9 SWAP13 0xAC 0xAB 0x5D JUMPDEST 0xAE CALLCODE 0xDB 0xAF 0x25 PUSH5 0x6306CAB334 DUP15 PUSH14 0xCA8BAD9D3864736F6C6343000806 STOP CALLER PUSH1 0x80 PUSH1 0x40 MSTORE CALLVALUE DUP1 ISZERO PUSH2 0x10 JUMPI PUSH1 0x0 DUP1 REVERT JUMPDEST POP PUSH2 0x2ECA DUP1 PUSH2 0x20 PUSH1 0x0 CODECOPY PUSH1 0x0 RETURN INVALID PUSH1 0x80 PUSH1 0x40 MSTORE CALLVALUE DUP1 ISZERO PUSH2 0x10 JUMPI PUSH1 0x0 DUP1 REVERT JUMPDEST POP PUSH1 0x4 CALLDATASIZE LT PUSH2 0x2B JUMPI PUSH1 0x0 CALLDATALOAD PUSH1 0xE0 SHR DUP1 PUSH4 0xB581ABE6 EQ PUSH2 0x30 JUMPI JUMPDEST PUSH1 0x0 DUP1 REVERT JUMPDEST PUSH2 0x4A PUSH1 0x4 DUP1 CALLDATASIZE SUB DUP2 ADD SWAP1 PUSH2 0x45 SWAP2 SWAP1 PUSH2 0x2B1A JUMP JUMPDEST PUSH2 0x60 JUMP JUMPDEST PUSH1 0x40 MLOAD PUSH2 0x57 SWAP2 SWAP1 PUSH2 0x2B6B JUMP JUMPDEST PUSH1 0x40 MLOAD DUP1 SWAP2 SUB SWAP1 RETURN JUMPDEST PUSH1 0x0 DUP1 PUSH1 0x38 PUSH8 0xFFFFFFFFFFFFFFFF DUP2 GT ISZERO PUSH2 0x7E JUMPI PUSH2 0x7D PUSH2 0x2E29 JUMP JUMPDEST JUMPDEST PUSH1 0x40 MLOAD SWAP1 DUP1 DUP3 MSTORE DUP1 PUSH1 0x20 MUL PUSH1 0x20 ADD DUP3 ADD PUSH1 0x40 MSTORE DUP1 ISZERO PUSH2 0xAC JUMPI DUP2 PUSH1 0x20 ADD PUSH1 0x20 DUP3 MUL DUP1 CALLDATASIZE DUP4 CALLDATACOPY DUP1 DUP3 ADD SWAP2 POP POP SWAP1 POP JUMPDEST POP SWAP1 POP PUSH1 0x0 JUMPDEST PUSH1 0x38 DUP2 LT ISZERO PUSH2 0x105 JUMPI DUP4 DUP2 PUSH1 0x38 DUP2 LT PUSH2 0xCE JUMPI PUSH2 0xCD PUSH2 0x2DFA JUMP JUMPDEST JUMPDEST PUSH1 0x20 MUL ADD MLOAD DUP3 DUP3 DUP2 MLOAD DUP2 LT PUSH2 0xE6 JUMPI PUSH2 0xE5 PUSH2 0x2DFA JUMP JUMPDEST JUMPDEST PUSH1 0x20 MUL PUSH1 0x20 ADD ADD DUP2 DUP2 MSTORE POP POP DUP1 DUP1 PUSH2 0xFD SWAP1 PUSH2 0x2D22 JUMP JUMPDEST SWAP2 POP POP PUSH2 0xB2 JUMP JUMPDEST POP PUSH1 0x0 PUSH2 0x112 DUP3 DUP7 PUSH2 0x12E JUMP JUMPDEST EQ ISZERO PUSH2 0x122 JUMPI PUSH1 0x1 SWAP2 POP POP PUSH2 0x128 JUMP JUMPDEST PUSH1 0x0 SWAP2 POP POP JUMPDEST SWAP3 SWAP2 POP POP JUMP JUMPDEST PUSH1 0x0 DUP1 PUSH32 0x30644E72E131A029B85045B68181585D2833E84879B9709143E1F593F0000001 SWAP1 POP PUSH1 0x0 PUSH2 0x15E PUSH2 0x2C5 JUMP JUMPDEST SWAP1 POP DUP1 PUSH1 0x80 ADD MLOAD MLOAD PUSH1 0x1 DUP7 MLOAD PUSH2 0x174 SWAP2 SWAP1 PUSH2 0x2BF7 JUMP JUMPDEST EQ PUSH2 0x17E JUMPI PUSH1 0x0 DUP1 REVERT JUMPDEST PUSH1 0x0 PUSH1 0x40 MLOAD DUP1 PUSH1 0x40 ADD PUSH1 0x40 MSTORE DUP1 PUSH1 0x0 DUP2 MSTORE PUSH1 0x20 ADD PUSH1 0x0 DUP2 MSTORE POP SWAP1 POP PUSH1 0x0 JUMPDEST DUP7 MLOAD DUP2 LT ISZERO PUSH2 0x237 JUMPI DUP4 DUP8 DUP3 DUP2 MLOAD DUP2 LT PUSH2 0x1B9 JUMPI PUSH2 0x1B8 PUSH2 0x2DFA JUMP JUMPDEST JUMPDEST PUSH1 0x20 MUL PUSH1 0x20 ADD ADD MLOAD LT PUSH2 0x1CB JUMPI PUSH1 0x0 DUP1 REVERT JUMPDEST PUSH2 0x222 DUP3 PUSH2 0x21D DUP6 PUSH1 0x80 ADD MLOAD PUSH1 0x1 DUP6 PUSH2 0x1E4 SWAP2 SWAP1 PUSH2 0x2BF7 JUMP JUMPDEST DUP2 MLOAD DUP2 LT PUSH2 0x1F5 JUMPI PUSH2 0x1F4 PUSH2 0x2DFA JUMP JUMPDEST JUMPDEST PUSH1 0x20 MUL PUSH1 0x20 ADD ADD MLOAD DUP11 DUP6 DUP2 MLOAD DUP2 LT PUSH2 0x210 JUMPI PUSH2 0x20F PUSH2 0x2DFA JUMP JUMPDEST JUMPDEST PUSH1 0x20 MUL PUSH1 0x20 ADD ADD MLOAD PUSH2 0x208C JUMP JUMPDEST PUSH2 0x2133 JUMP JUMPDEST SWAP2 POP DUP1 DUP1 PUSH2 0x22F SWAP1 PUSH2 0x2D22 JUMP JUMPDEST SWAP2 POP POP PUSH2 0x19C JUMP JUMPDEST POP PUSH2 0x261 DUP2 DUP4 PUSH1 0x80 ADD MLOAD PUSH1 0x0 DUP2 MLOAD DUP2 LT PUSH2 0x254 JUMPI PUSH2 0x253 PUSH2 0x2DFA JUMP JUMPDEST JUMPDEST PUSH1 0x20 MUL PUSH1 0x20 ADD ADD MLOAD PUSH2 0x2133 JUMP JUMPDEST SWAP1 POP PUSH2 0x2A7 DUP6 PUSH1 0x0 ADD MLOAD DUP7 PUSH1 0x20 ADD MLOAD PUSH2 0x279 DUP5 PUSH2 0x2200 JUMP JUMPDEST DUP6 PUSH1 0x40 ADD MLOAD PUSH2 0x28B DUP11 PUSH1 0x40 ADD MLOAD PUSH2 0x2200 JUMP JUMPDEST DUP8 PUSH1 0x60 ADD MLOAD PUSH2 0x29D DUP10 PUSH1 0x0 ADD MLOAD PUSH2 0x2200 JUMP JUMPDEST DUP10 PUSH1 0x20 ADD MLOAD PUSH2 0x22A5 JUMP JUMPDEST PUSH2 0x2B7 JUMPI PUSH1 0x1 SWAP4 POP POP POP POP PUSH2 0x2BF JUMP JUMPDEST PUSH1 0x0 SWAP4 POP POP POP POP JUMPDEST SWAP3 SWAP2 POP POP JUMP JUMPDEST PUSH2 0x2CD PUSH2 0x27CD JUMP JUMPDEST PUSH1 0x40 MLOAD DUP1 PUSH1 0x40 ADD PUSH1 0x40 MSTORE DUP1 PUSH32 0x113B419965FDCF38B879F8D1074A6C07750DD4717275163F7FC6FEC138687BBA DUP2 MSTORE PUSH1 0x20 ADD PUSH32 0x1753126C8AC38A9E150402A363D3FD615BDD4B443454E690CEEDFA32ECDD5832 DUP2 MSTORE POP DUP2 PUSH1 0x0 ADD DUP2 SWAP1 MSTORE POP PUSH1 0x40 MLOAD DUP1 PUSH1 0x40 ADD PUSH1 0x40 MSTORE DUP1 PUSH1 0x40 MLOAD DUP1 PUSH1 0x40 ADD PUSH1 0x40 MSTORE DUP1 PUSH32 0x29B6F531B5368BF48FEA514E149363F99629F5B28C311F52222D899B8098FA56 DUP2 MSTORE PUSH1 0x20 ADD PUSH32 0xF374799D4A7849E83B2CA34BA71E95F9653F62BD1513CFABB500E86B8DAC1C1 DUP2 MSTORE POP DUP2 MSTORE PUSH1 0x20 ADD PUSH1 0x40 MLOAD DUP1 PUSH1 0x40 ADD PUSH1 0x40 MSTORE DUP1 PUSH31 0x726D5FE93AED68FCF667F4D44DF823A2201DAD94AFAD2EE976FF1392305DF DUP2 MSTORE PUSH1 0x20 ADD PUSH32 0x20954669A5DF07C294C5C758A39AFA7B6779DFF77A021B25CE7FC70A89D32AB5 DUP2 MSTORE POP DUP2 MSTORE POP DUP2 PUSH1 0x20 ADD DUP2 SWAP1 MSTORE POP PUSH1 0x40 MLOAD DUP1 PUSH1 0x40 ADD PUSH1 0x40 MSTORE DUP1 PUSH1 0x40 MLOAD DUP1 PUSH1 0x40 ADD PUSH1 0x40 MSTORE DUP1 PUSH32 0x1C42FB963F3B818457BDBF67D33A8272914E7A363500F7021FF5208F4F803455 DUP2 MSTORE PUSH1 0x20 ADD PUSH32 0x213953C4E98416683043E300A794DC30B64B925C291A21ED49F76E14FA2C5E3D DUP2 MSTORE POP DUP2 MSTORE PUSH1 0x20 ADD PUSH1 0x40 MLOAD DUP1 PUSH1 0x40 ADD PUSH1 0x40 MSTORE DUP1 PUSH31 0x81877EEB5F3B4591040DCB733A1F7699D353EBE628FE6210CE1ADD4F0EE546 DUP2 MSTORE PUSH1 0x20 ADD PUSH32 0x20A69E8E94B67D26CD3FA4362807E8FC10F5233F256C79F86F8C24644B166571 DUP2 MSTORE POP DUP2 MSTORE POP DUP2 PUSH1 0x40 ADD DUP2 SWAP1 MSTORE POP PUSH1 0x40 MLOAD DUP1 PUSH1 0x40 ADD PUSH1 0x40 MSTORE DUP1 PUSH1 0x40 MLOAD DUP1 PUSH1 0x40 ADD PUSH1 0x40 MSTORE DUP1 PUSH32 0x207E8C7F65BFA2B1FB2477A5AA74AE578F034048B746F28BC56B1132A328B3F4 DUP2 MSTORE PUSH1 0x20 ADD PUSH32 0xA61D08DD445B2E9B5421A93F6D8CF00D8E990B1B4C24B63F2E344873E0F6A63 DUP2 MSTORE POP DUP2 MSTORE PUSH1 0x20 ADD PUSH1 0x40 MLOAD DUP1 PUSH1 0x40 ADD PUSH1 0x40 MSTORE DUP1 PUSH32 0x25943B319C18ED02D2E3D1D1F4E5B09147BE2544A77C64F301DEA2AC19A6C95B DUP2 MSTORE PUSH1 0x20 ADD PUSH32 0x2C96F1C46CB5E83297695AF6F6259B4FAC6784CBC893E872D6B27D5070C0CF9B DUP2 MSTORE POP DUP2 MSTORE POP DUP2 PUSH1 0x60 ADD DUP2 SWAP1 MSTORE POP PUSH1 0x39 PUSH8 0xFFFFFFFFFFFFFFFF DUP2 GT ISZERO PUSH2 0x592 JUMPI PUSH2 0x591 PUSH2 0x2E29 JUMP JUMPDEST JUMPDEST PUSH1 0x40 MLOAD SWAP1 DUP1 DUP3 MSTORE DUP1 PUSH1 0x20 MUL PUSH1 0x20 ADD DUP3 ADD PUSH1 0x40 MSTORE DUP1 ISZERO PUSH2 0x5CB JUMPI DUP2 PUSH1 0x20 ADD JUMPDEST PUSH2 0x5B8 PUSH2 0x2814 JUMP JUMPDEST DUP2 MSTORE PUSH1 0x20 ADD SWAP1 PUSH1 0x1 SWAP1 SUB SWAP1 DUP2 PUSH2 0x5B0 JUMPI SWAP1 POP JUMPDEST POP DUP2 PUSH1 0x80 ADD DUP2 SWAP1 MSTORE POP PUSH1 0x40 MLOAD DUP1 PUSH1 0x40 ADD PUSH1 0x40 MSTORE DUP1 PUSH32 0x20345B803C0E7B926BB3E248DB729493185580721B09DD7B99647D3523BE46E3 DUP2 MSTORE PUSH1 0x20 ADD PUSH32 0x162E396068C2352C4C3F6CD59EEACEEDFE40DC0BABE43ACD5D7128C3DDC7BED0 DUP2 MSTORE POP DUP2 PUSH1 0x80 ADD MLOAD PUSH1 0x0 DUP2 MLOAD DUP2 LT PUSH2 0x641 JUMPI PUSH2 0x640 PUSH2 0x2DFA JUMP JUMPDEST JUMPDEST PUSH1 0x20 MUL PUSH1 0x20 ADD ADD DUP2 SWAP1 MSTORE POP PUSH1 0x40 MLOAD DUP1 PUSH1 0x40 ADD PUSH1 0x40 MSTORE DUP1 PUSH32 0x1B45B4C308C3F67246682A6774AAC77D634DE4410250A730CA4C8EB72062711D DUP2 MSTORE PUSH1 0x20 ADD PUSH32 0x3B78393C08AE016F5F8365A91BED74865C40579F64776EEF5F1460ADB70D9B2 DUP2 MSTORE POP DUP2 PUSH1 0x80 ADD MLOAD PUSH1 0x1 DUP2 MLOAD DUP2 LT PUSH2 0x6B9 JUMPI PUSH2 0x6B8 PUSH2 0x2DFA JUMP JUMPDEST JUMPDEST PUSH1 0x20 MUL PUSH1 0x20 ADD ADD DUP2 SWAP1 MSTORE POP PUSH1 0x40 MLOAD DUP1 PUSH1 0x40 ADD PUSH1 0x40 MSTORE DUP1 PUSH32 0x2773D19DAD0C5CEDA2F9BBF97B1549E1561219AC4FC9E5F55F03E729059B1498 DUP2 MSTORE PUSH1 0x20 ADD PUSH32 0x33771CE3635C66010FEFF95C70B29464951A2698CE412D83D4DC55CB146269E DUP2 MSTORE POP DUP2 PUSH1 0x80 ADD MLOAD PUSH1 0x2 DUP2 MLOAD DUP2 LT PUSH2 0x731 JUMPI PUSH2 0x730 PUSH2 0x2DFA JUMP JUMPDEST JUMPDEST PUSH1 0x20 MUL PUSH1 0x20 ADD ADD DUP2 SWAP1 MSTORE POP PUSH1 0x40 MLOAD DUP1 PUSH1 0x40 ADD PUSH1 0x40 MSTORE DUP1 PUSH32 0x1F64D048C435FF39F718469235EC9B9828F126592D819B8388D83C9DF5DE97DA DUP2 MSTORE PUSH1 0x20 ADD PUSH32 0xB69BD1BF80709ADBE51291A32F798F9B35A66E33947AC530F0E087991BC03D9 DUP2 MSTORE POP DUP2 PUSH1 0x80 ADD MLOAD PUSH1 0x3 DUP2 MLOAD DUP2 LT PUSH2 0x7A9 JUMPI PUSH2 0x7A8 PUSH2 0x2DFA JUMP JUMPDEST JUMPDEST PUSH1 0x20 MUL PUSH1 0x20 ADD ADD DUP2 SWAP1 MSTORE POP PUSH1 0x40 MLOAD DUP1 PUSH1 0x40 ADD PUSH1 0x40 MSTORE DUP1 PUSH32 0x1C93DFCFF383A9C33F6781FE4E7E6F12D903687099B2BC8281AB3EBF0F966904 DUP2 MSTORE PUSH1 0x20 ADD PUSH32 0x1DC719B4C904FAE8581BE33F5F453B3F16E62AC062F48225E3C30649789B647A DUP2 MSTORE POP DUP2 PUSH1 0x80 ADD MLOAD PUSH1 0x4 DUP2 MLOAD DUP2 LT PUSH2 0x821 JUMPI PUSH2 0x820 PUSH2 0x2DFA JUMP JUMPDEST JUMPDEST PUSH1 0x20 MUL PUSH1 0x20 ADD ADD DUP2 SWAP1 MSTORE POP PUSH1 0x40 MLOAD DUP1 PUSH1 0x40 ADD PUSH1 0x40 MSTORE DUP1 PUSH32 0x279985CF7BFF298442137E393C4F7FE4751E2F3BA161C3D8A31928977774BDBF DUP2 MSTORE PUSH1 0x20 ADD PUSH32 0x15B9E265AF3BF854A581F3A44C2BF2E7F0DD3F397A716584511827CEEC03FF5E DUP2 MSTORE POP DUP2 PUSH1 0x80 ADD MLOAD PUSH1 0x5 DUP2 MLOAD DUP2 LT PUSH2 0x899 JUMPI PUSH2 0x898 PUSH2 0x2DFA JUMP JUMPDEST JUMPDEST PUSH1 0x20 MUL PUSH1 0x20 ADD ADD DUP2 SWAP1 MSTORE POP PUSH1 0x40 MLOAD DUP1 PUSH1 0x40 ADD PUSH1 0x40 MSTORE DUP1 PUSH32 0x220396A2D0BD6E4283D90C41E567B79354BEA981B6B30C2C397767724B711FCE DUP2 MSTORE PUSH1 0x20 ADD PUSH32 0xB5BC8983D6A2207C5EFCD08A5C9D919BC31FB0D356D7032203B55C92683C2D9 DUP2 MSTORE POP DUP2 PUSH1 0x80 ADD MLOAD PUSH1 0x6 DUP2 MLOAD DUP2 LT PUSH2 0x911 JUMPI PUSH2 0x910 PUSH2 0x2DFA JUMP JUMPDEST JUMPDEST PUSH1 0x20 MUL PUSH1 0x20 ADD ADD DUP2 SWAP1 MSTORE POP PUSH1 0x40 MLOAD DUP1 PUSH1 0x40 ADD PUSH1 0x40 MSTORE DUP1 PUSH32 0x53284A6ED7E0A07F9187D0CDDCBC064664EBA329E9D2D130AC5FCD32CA2776E DUP2 MSTORE PUSH1 0x20 ADD PUSH32 0x2EFFE83B3EFE0F3E7EBBE98E4CB27CA89ACE1F9B54C5EF940C65ADF49624E787 DUP2 MSTORE POP DUP2 PUSH1 0x80 ADD MLOAD PUSH1 0x7 DUP2 MLOAD DUP2 LT PUSH2 0x989 JUMPI PUSH2 0x988 PUSH2 0x2DFA JUMP JUMPDEST JUMPDEST PUSH1 0x20 MUL PUSH1 0x20 ADD ADD DUP2 SWAP1 MSTORE POP PUSH1 0x40 MLOAD DUP1 PUSH1 0x40 ADD PUSH1 0x40 MSTORE DUP1 PUSH32 0x1013858C587EA7BA65F2368CD837404E87F93A10E5753901CFA4CBBAAB874D85 DUP2 MSTORE PUSH1 0x20 ADD PUSH32 0x2290DA55CD351DD191E62F796A76E3C620000BA47A6433527DF40C125E38AF29 DUP2 MSTORE POP DUP2 PUSH1 0x80 ADD MLOAD PUSH1 0x8 DUP2 MLOAD DUP2 LT PUSH2 0xA01 JUMPI PUSH2 0xA00 PUSH2 0x2DFA JUMP JUMPDEST JUMPDEST PUSH1 0x20 MUL PUSH1 0x20 ADD ADD DUP2 SWAP1 MSTORE POP PUSH1 0x40 MLOAD DUP1 PUSH1 0x40 ADD PUSH1 0x40 MSTORE DUP1 PUSH32 0x97EE13E4B1381D9D89CCC33B792DF67896DFC139E02EE702304C5693ED863A0 DUP2 MSTORE PUSH1 0x20 ADD PUSH32 0x2A436DD87F910FDE83016E20E71A53C3027522ED3D5B31F67091AA055DF35B28 DUP2 MSTORE POP DUP2 PUSH1 0x80 ADD MLOAD PUSH1 0x9 DUP2 MLOAD DUP2 LT PUSH2 0xA79 JUMPI PUSH2 0xA78 PUSH2 0x2DFA JUMP JUMPDEST JUMPDEST PUSH1 0x20 MUL PUSH1 0x20 ADD ADD DUP2 SWAP1 MSTORE POP PUSH1 0x40 MLOAD DUP1 PUSH1 0x40 ADD PUSH1 0x40 MSTORE DUP1 PUSH32 0xACC0787D2D61B79B90D0161E10D7D48494E33A309247345104A105226A5999B DUP2 MSTORE PUSH1 0x20 ADD PUSH32 0x1D5C7F9EAB196E92BFCBE3F585F75284BCD66A6B9F8D0C8FD3E3D3081D94EB2A DUP2 MSTORE POP DUP2 PUSH1 0x80 ADD MLOAD PUSH1 0xA DUP2 MLOAD DUP2 LT PUSH2 0xAF1 JUMPI PUSH2 0xAF0 PUSH2 0x2DFA JUMP JUMPDEST JUMPDEST PUSH1 0x20 MUL PUSH1 0x20 ADD ADD DUP2 SWAP1 MSTORE POP PUSH1 0x40 MLOAD DUP1 PUSH1 0x40 ADD PUSH1 0x40 MSTORE DUP1 PUSH32 0x2369480520333426D1FFF13D0FC9B2FE8E8E4AD0B9B38D95318ED9AA8E3B80E DUP2 MSTORE PUSH1 0x20 ADD PUSH32 0x996E7A7BE0A50F7E0AA5D61C4C70F97DA399547548913117496A62F63DBA42D DUP2 MSTORE POP DUP2 PUSH1 0x80 ADD MLOAD PUSH1 0xB DUP2 MLOAD DUP2 LT PUSH2 0xB69 JUMPI PUSH2 0xB68 PUSH2 0x2DFA JUMP JUMPDEST JUMPDEST PUSH1 0x20 MUL PUSH1 0x20 ADD ADD DUP2 SWAP1 MSTORE POP PUSH1 0x40 MLOAD DUP1 PUSH1 0x40 ADD PUSH1 0x40 MSTORE DUP1 PUSH32 0x28AE099810FBCE21CDD300AD5656CACF6B742E05116D518EC0D868A9E40291F DUP2 MSTORE PUSH1 0x20 ADD PUSH32 0xC91729909D976853E54231DA96A4EF55B89363BFEBBB2260354AC794AD76FCC DUP2 MSTORE POP DUP2 PUSH1 0x80 ADD MLOAD PUSH1 0xC DUP2 MLOAD DUP2 LT PUSH2 0xBE1 JUMPI PUSH2 0xBE0 PUSH2 0x2DFA JUMP JUMPDEST JUMPDEST PUSH1 0x20 MUL PUSH1 0x20 ADD ADD DUP2 SWAP1 MSTORE POP PUSH1 0x40 MLOAD DUP1 PUSH1 0x40 ADD PUSH1 0x40 MSTORE DUP1 PUSH32 0x2433E743CF0DCB7D2AAB6AA63519B627C21884D90313FBC54BDB5DE6596E375 DUP2 MSTORE PUSH1 0x20 ADD PUSH32 0x23615823097F32FF71470D224EB3848A1B040685CB00BEB8C231DB33A70CD35D DUP2 MSTORE POP DUP2 PUSH1 0x80 ADD MLOAD PUSH1 0xD DUP2 MLOAD DUP2 LT PUSH2 0xC59 JUMPI PUSH2 0xC58 PUSH2 0x2DFA JUMP JUMPDEST JUMPDEST PUSH1 0x20 MUL PUSH1 0x20 ADD ADD DUP2 SWAP1 MSTORE POP PUSH1 0x40 MLOAD DUP1 PUSH1 0x40 ADD PUSH1 0x40 MSTORE DUP1 PUSH32 0x2F47483CE99F866331AF9CBC54B0DE2991DC555EB6C3CE4E5DEA12450C6C464C DUP2 MSTORE PUSH1 0x20 ADD PUSH32 0xD4DB8338AF41262698B4E91CD577C31E27AF31A7A59CB831D22C54154413272 DUP2 MSTORE POP DUP2 PUSH1 0x80 ADD MLOAD PUSH1 0xE DUP2 MLOAD DUP2 LT PUSH2 0xCD1 JUMPI PUSH2 0xCD0 PUSH2 0x2DFA JUMP JUMPDEST JUMPDEST PUSH1 0x20 MUL PUSH1 0x20 ADD ADD DUP2 SWAP1 MSTORE POP PUSH1 0x40 MLOAD DUP1 PUSH1 0x40 ADD PUSH1 0x40 MSTORE DUP1 PUSH32 0x2B2E57F879AA67F6998F681AE12D1AFB9C13C495A9EDA6B3965402D61BA1C058 DUP2 MSTORE PUSH1 0x20 ADD PUSH31 0x515588136092A67586391AACA99F0450565F022529F50C19F9DD69765E0C22 DUP2 MSTORE POP DUP2 PUSH1 0x80 ADD MLOAD PUSH1 0xF DUP2 MLOAD DUP2 LT PUSH2 0xD48 JUMPI PUSH2 0xD47 PUSH2 0x2DFA JUMP JUMPDEST JUMPDEST PUSH1 0x20 MUL PUSH1 0x20 ADD ADD DUP2 SWAP1 MSTORE POP PUSH1 0x40 MLOAD DUP1 PUSH1 0x40 ADD PUSH1 0x40 MSTORE DUP1 PUSH32 0x2B501DFD078D8ED021D673A46443B9B9AAE06DFAAD890BC257F3B8F5F8126795 DUP2 MSTORE PUSH1 0x20 ADD PUSH32 0x1C0E071070CE6C7776667A4274D8AEBA84A72E9F0414ED027A7516B2C45779BE DUP2 MSTORE POP DUP2 PUSH1 0x80 ADD MLOAD PUSH1 0x10 DUP2 MLOAD DUP2 LT PUSH2 0xDC0 JUMPI PUSH2 0xDBF PUSH2 0x2DFA JUMP JUMPDEST JUMPDEST PUSH1 0x20 MUL PUSH1 0x20 ADD ADD DUP2 SWAP1 MSTORE POP PUSH1 0x40 MLOAD DUP1 PUSH1 0x40 ADD PUSH1 0x40 MSTORE DUP1 PUSH32 0x1E5205CC0633AE654BFFDB2EA891789A4926E07C90270138080916D43F89C649 DUP2 MSTORE PUSH1 0x20 ADD PUSH32 0x214B26EC85E9AF99E9D70B4384DFE740A37ADE813DBC8605FB3AC77B56131CD0 DUP2 MSTORE POP DUP2 PUSH1 0x80 ADD MLOAD PUSH1 0x11 DUP2 MLOAD DUP2 LT PUSH2 0xE38 JUMPI PUSH2 0xE37 PUSH2 0x2DFA JUMP JUMPDEST JUMPDEST PUSH1 0x20 MUL PUSH1 0x20 ADD ADD DUP2 SWAP1 MSTORE POP PUSH1 0x40 MLOAD DUP1 PUSH1 0x40 ADD PUSH1 0x40 MSTORE DUP1 PUSH32 0x197E4BD4B8B3138B747FB00AF2002619472FCD15C669EE0C2564211671EA536E DUP2 MSTORE PUSH1 0x20 ADD PUSH32 0x296CDA15813B298C6E49CE383132B2DEA145A7F9C0E98E8F41A3054EABA23D60 DUP2 MSTORE POP DUP2 PUSH1 0x80 ADD MLOAD PUSH1 0x12 DUP2 MLOAD DUP2 LT PUSH2 0xEB0 JUMPI PUSH2 0xEAF PUSH2 0x2DFA JUMP JUMPDEST JUMPDEST PUSH1 0x20 MUL PUSH1 0x20 ADD ADD DUP2 SWAP1 MSTORE POP PUSH1 0x40 MLOAD DUP1 PUSH1 0x40 ADD PUSH1 0x40 MSTORE DUP1 PUSH32 0x2FB2C4A5F2FDE555BA6E04CA42399B1882907FA2D96FA2E650F0C7B9F3333407 DUP2 MSTORE PUSH1 0x20 ADD PUSH32 0x1765A4BEC71B2B017F493407C809D8DFD74B77D8C7D41871ED55705CCAA463A0 DUP2 MSTORE POP DUP2 PUSH1 0x80 ADD MLOAD PUSH1 0x13 DUP2 MLOAD DUP2 LT PUSH2 0xF28 JUMPI PUSH2 0xF27 PUSH2 0x2DFA JUMP JUMPDEST JUMPDEST PUSH1 0x20 MUL PUSH1 0x20 ADD ADD DUP2 SWAP1 MSTORE POP PUSH1 0x40 MLOAD DUP1 PUSH1 0x40 ADD PUSH1 0x40 MSTORE DUP1 PUSH32 0x1D4EA688779BC2E9532542C67A48372D54B3ECBCD4883DB6D0371A4989BAE856 DUP2 MSTORE PUSH1 0x20 ADD PUSH32 0xCBFE939EB2DF83BDD79E5CD2B3CE50452EDA0F5FB33F9DD8A6D962AE677F4BE DUP2 MSTORE POP DUP2 PUSH1 0x80 ADD MLOAD PUSH1 0x14 DUP2 MLOAD DUP2 LT PUSH2 0xFA0 JUMPI PUSH2 0xF9F PUSH2 0x2DFA JUMP JUMPDEST JUMPDEST PUSH1 0x20 MUL PUSH1 0x20 ADD ADD DUP2 SWAP1 MSTORE POP PUSH1 0x40 MLOAD DUP1 PUSH1 0x40 ADD PUSH1 0x40 MSTORE DUP1 PUSH32 0x10591FCBFE21545D3CF5557E2AC5ED998772AC4B47E825D39F3503A51235841C DUP2 MSTORE PUSH1 0x20 ADD PUSH32 0x2A416219A81D4C8A71BD3D24E5763A3D2FEEFCA1E5068FFBA858993525FEDC1D DUP2 MSTORE POP DUP2 PUSH1 0x80 ADD MLOAD PUSH1 0x15 DUP2 MLOAD DUP2 LT PUSH2 0x1018 JUMPI PUSH2 0x1017 PUSH2 0x2DFA JUMP JUMPDEST JUMPDEST PUSH1 0x20 MUL PUSH1 0x20 ADD ADD DUP2 SWAP1 MSTORE POP PUSH1 0x40 MLOAD DUP1 PUSH1 0x40 ADD PUSH1 0x40 MSTORE DUP1 PUSH32 0x26E2893C2D9C8BAA4A93A4998D38B49082E905F6EDF3C871FFDF7B80184926CE DUP2 MSTORE PUSH1 0x20 ADD PUSH32 0x1F4FB29A01092562CAD8A3CFF94A643EF9A5ADB5F0F306E11D8DA38A29DCDC25 DUP2 MSTORE POP DUP2 PUSH1 0x80 ADD MLOAD PUSH1 0x16 DUP2 MLOAD DUP2 LT PUSH2 0x1090 JUMPI PUSH2 0x108F PUSH2 0x2DFA JUMP JUMPDEST JUMPDEST PUSH1 0x20 MUL PUSH1 0x20 ADD ADD DUP2 SWAP1 MSTORE POP PUSH1 0x40 MLOAD DUP1 PUSH1 0x40 ADD PUSH1 0x40 MSTORE DUP1 PUSH32 0x26279C7A8F6396CEBF153F9E929444C126A1A712C51AC0939D524C9EE8CF1F01 DUP2 MSTORE PUSH1 0x20 ADD PUSH31 0x9C0447B25739F4A88A069D1333F9CE3B6DEF9215FAD63F1FF89DC88A51FC03 DUP2 MSTORE POP DUP2 PUSH1 0x80 ADD MLOAD PUSH1 0x17 DUP2 MLOAD DUP2 LT PUSH2 0x1107 JUMPI PUSH2 0x1106 PUSH2 0x2DFA JUMP JUMPDEST JUMPDEST PUSH1 0x20 MUL PUSH1 0x20 ADD ADD DUP2 SWAP1 MSTORE POP PUSH1 0x40 MLOAD DUP1 PUSH1 0x40 ADD PUSH1 0x40 MSTORE DUP1 PUSH32 0x7157049CF3B27A1D0669D83AC3E87EC52C5F409D41F3136F82DB7A12E184ECD DUP2 MSTORE PUSH1 0x20 ADD PUSH32 0x14F6B1730E5C55CFC8D068756C91CF6B6FA63FB2C7C89AE67F092602A9095374 DUP2 MSTORE POP DUP2 PUSH1 0x80 ADD MLOAD PUSH1 0x18 DUP2 MLOAD DUP2 LT PUSH2 0x117F JUMPI PUSH2 0x117E PUSH2 0x2DFA JUMP JUMPDEST JUMPDEST PUSH1 0x20 MUL PUSH1 0x20 ADD ADD DUP2 SWAP1 MSTORE POP PUSH1 0x40 MLOAD DUP1 PUSH1 0x40 ADD PUSH1 0x40 MSTORE DUP1 PUSH32 0x2FEE092FB5E5B22B9CB4C11F98D23A128D9426CEDFB5D832CBEEB06B52EF926A DUP2 MSTORE PUSH1 0x20 ADD PUSH32 0xE66FC5F06D09395F35E37FD0754CD21A658C4FF3D7E8EEA134A815EC2E1A323 DUP2 MSTORE POP DUP2 PUSH1 0x80 ADD MLOAD PUSH1 0x19 DUP2 MLOAD DUP2 LT PUSH2 0x11F7 JUMPI PUSH2 0x11F6 PUSH2 0x2DFA JUMP JUMPDEST JUMPDEST PUSH1 0x20 MUL PUSH1 0x20 ADD ADD DUP2 SWAP1 MSTORE POP PUSH1 0x40 MLOAD DUP1 PUSH1 0x40 ADD PUSH1 0x40 MSTORE DUP1 PUSH32 0x2E9ABE4735EBCAF5C6F1D0ACAFD38BE2A9A543E160637BBDB23771E48064FD92 DUP2 MSTORE PUSH1 0x20 ADD PUSH32 0x223B9C43BB416FD26BF5EE588A2F82E0DDCB75097BC7AD4B8885376A7E53265A DUP2 MSTORE POP DUP2 PUSH1 0x80 ADD MLOAD PUSH1 0x1A DUP2 MLOAD DUP2 LT PUSH2 0x126F JUMPI PUSH2 0x126E PUSH2 0x2DFA JUMP JUMPDEST JUMPDEST PUSH1 0x20 MUL PUSH1 0x20 ADD ADD DUP2 SWAP1 MSTORE POP PUSH1 0x40 MLOAD DUP1 PUSH1 0x40 ADD PUSH1 0x40 MSTORE DUP1 PUSH32 0x1B7AEA1FB1C1ABA4A55A5223C77F01C86513BBECD4FE30351AECAB0B358FB78C DUP2 MSTORE PUSH1 0x20 ADD PUSH32 0x1008F27C5A1402AC37B8AFCF347609D1B724EA79F655F95CCA5C49C426FA8094 DUP2 MSTORE POP DUP2 PUSH1 0x80 ADD MLOAD PUSH1 0x1B DUP2 MLOAD DUP2 LT PUSH2 0x12E7 JUMPI PUSH2 0x12E6 PUSH2 0x2DFA JUMP JUMPDEST JUMPDEST PUSH1 0x20 MUL PUSH1 0x20 ADD ADD DUP2 SWAP1 MSTORE POP PUSH1 0x40 MLOAD DUP1 PUSH1 0x40 ADD PUSH1 0x40 MSTORE DUP1 PUSH32 0x207C0A11C8C1A3A1654A26ED1D38D0A8D3783267EB1BA74904EE212CFAA4AACF DUP2 MSTORE PUSH1 0x20 ADD PUSH32 0x21EDF24B087BD764BCE2C27995BCC8BC927E903CCBD8DACC10E86D9BD4434303 DUP2 MSTORE POP DUP2 PUSH1 0x80 ADD MLOAD PUSH1 0x1C DUP2 MLOAD DUP2 LT PUSH2 0x135F JUMPI PUSH2 0x135E PUSH2 0x2DFA JUMP JUMPDEST JUMPDEST PUSH1 0x20 MUL PUSH1 0x20 ADD ADD DUP2 SWAP1 MSTORE POP PUSH1 0x40 MLOAD DUP1 PUSH1 0x40 ADD PUSH1 0x40 MSTORE DUP1 PUSH32 0x9832E2DEB5EB4647354FFBC435A0DD538989AC96E2CBBEADFF4D8F810A7C51A DUP2 MSTORE PUSH1 0x20 ADD PUSH32 0x18832981BF97B9A8F85BBB14D00CFD46119B52E53247241B9E35E62FB025EFB2 DUP2 MSTORE POP DUP2 PUSH1 0x80 ADD MLOAD PUSH1 0x1D DUP2 MLOAD DUP2 LT PUSH2 0x13D7 JUMPI PUSH2 0x13D6 PUSH2 0x2DFA JUMP JUMPDEST JUMPDEST PUSH1 0x20 MUL PUSH1 0x20 ADD ADD DUP2 SWAP1 MSTORE POP PUSH1 0x40 MLOAD DUP1 PUSH1 0x40 ADD PUSH1 0x40 MSTORE DUP1 PUSH32 0x2878B9DBF5FCC34D7CAE84E2E9999266972E98D94E6DE7ABEDD3211ABF90E8FC DUP2 MSTORE PUSH1 0x20 ADD PUSH32 0xE0F2BE7A4CDD154DB3D77AAAE3494EB672EDD8729A9C51826E268D9C69D5319 DUP2 MSTORE POP DUP2 PUSH1 0x80 ADD MLOAD PUSH1 0x1E DUP2 MLOAD DUP2 LT PUSH2 0x144F JUMPI PUSH2 0x144E PUSH2 0x2DFA JUMP JUMPDEST JUMPDEST PUSH1 0x20 MUL PUSH1 0x20 ADD ADD DUP2 SWAP1 MSTORE POP PUSH1 0x40 MLOAD DUP1 PUSH1 0x40 ADD PUSH1 0x40 MSTORE DUP1 PUSH32 0xC31B1E570D2D0BA98442DF6A601C4E50794B6022667EF722C06B8103621954D DUP2 MSTORE PUSH1 0x20 ADD PUSH32 0x297015E4B439197D78A685ACC66A1E9CB57C3E1F611545F5D9A8EA5A40599DC5 DUP2 MSTORE POP DUP2 PUSH1 0x80 ADD MLOAD PUSH1 0x1F DUP2 MLOAD DUP2 LT PUSH2 0x14C7 JUMPI PUSH2 0x14C6 PUSH2 0x2DFA JUMP JUMPDEST JUMPDEST PUSH1 0x20 MUL PUSH1 0x20 ADD ADD DUP2 SWAP1 MSTORE POP PUSH1 0x40 MLOAD DUP1 PUSH1 0x40 ADD PUSH1 0x40 MSTORE DUP1 PUSH32 0x2164CA81E34BFAB378FD55CB6E322850B91250C6CE04B17ED37721E5D5F9E990 DUP2 MSTORE PUSH1 0x20 ADD PUSH32 0x14A261721A51E55A12435FE8E174DF3C14A534BB6E548F03B12F3B8211D25760 DUP2 MSTORE POP DUP2 PUSH1 0x80 ADD MLOAD PUSH1 0x20 DUP2 MLOAD DUP2 LT PUSH2 0x153F JUMPI PUSH2 0x153E PUSH2 0x2DFA JUMP JUMPDEST JUMPDEST PUSH1 0x20 MUL PUSH1 0x20 ADD ADD DUP2 SWAP1 MSTORE POP PUSH1 0x40 MLOAD DUP1 PUSH1 0x40 ADD PUSH1 0x40 MSTORE DUP1 PUSH32 0x15795ADE1A2A2F3BAB773EAE9A3603B8B85E48D93E6CD30FD355542241FA95CA DUP2 MSTORE PUSH1 0x20 ADD PUSH32 0x284F3ED6FEBFBBB593D10B9E15ACE96A2D68D9FB3EC5C7EFF9C6C9A2068525B DUP2 MSTORE POP DUP2 PUSH1 0x80 ADD MLOAD PUSH1 0x21 DUP2 MLOAD DUP2 LT PUSH2 0x15B7 JUMPI PUSH2 0x15B6 PUSH2 0x2DFA JUMP JUMPDEST JUMPDEST PUSH1 0x20 MUL PUSH1 0x20 ADD ADD DUP2 SWAP1 MSTORE POP PUSH1 0x40 MLOAD DUP1 PUSH1 0x40 ADD PUSH1 0x40 MSTORE DUP1 PUSH32 0x2091E06C95251D5B712FC991744A888A1C0B6A12104779125FB670AF19A58FC4 DUP2 MSTORE PUSH1 0x20 ADD PUSH32 0x27503F786B4C0EC41CEDC5D86C0529BB8F3D4E18085A4436D15AFCAA66653EA DUP2 MSTORE POP DUP2 PUSH1 0x80 ADD MLOAD PUSH1 0x22 DUP2 MLOAD DUP2 LT PUSH2 0x162F JUMPI PUSH2 0x162E PUSH2 0x2DFA JUMP JUMPDEST JUMPDEST PUSH1 0x20 MUL PUSH1 0x20 ADD ADD DUP2 SWAP1 MSTORE POP PUSH1 0x40 MLOAD DUP1 PUSH1 0x40 ADD PUSH1 0x40 MSTORE DUP1 PUSH32 0x15A804A9B08C4C5FAEC7FE3B2FB6D58A33E5EC8945CCE9B97DFE5F67484CEF93 DUP2 MSTORE PUSH1 0x20 ADD PUSH32 0x2F26086B1F2DAFBB912EDD2FAE3F7814EC625D821AE37C21C7552EE104411C4F DUP2 MSTORE POP DUP2 PUSH1 0x80 ADD MLOAD PUSH1 0x23 DUP2 MLOAD DUP2 LT PUSH2 0x16A7 JUMPI PUSH2 0x16A6 PUSH2 0x2DFA JUMP JUMPDEST JUMPDEST PUSH1 0x20 MUL PUSH1 0x20 ADD ADD DUP2 SWAP1 MSTORE POP PUSH1 0x40 MLOAD DUP1 PUSH1 0x40 ADD PUSH1 0x40 MSTORE DUP1 PUSH32 0xF15A9962051E91040DB43D3A6BEC763A6A6172B1F89F98BB7767426FDCEF39D DUP2 MSTORE PUSH1 0x20 ADD PUSH32 0x28BF5D6DB18192B6FF2169F9560A3F61326FF877919EF82C1B1C515108D0D882 DUP2 MSTORE POP DUP2 PUSH1 0x80 ADD MLOAD PUSH1 0x24 DUP2 MLOAD DUP2 LT PUSH2 0x171F JUMPI PUSH2 0x171E PUSH2 0x2DFA JUMP JUMPDEST JUMPDEST PUSH1 0x20 MUL PUSH1 0x20 ADD ADD DUP2 SWAP1 MSTORE POP PUSH1 0x40 MLOAD DUP1 PUSH1 0x40 ADD PUSH1 0x40 MSTORE DUP1 PUSH32 0x11C8412C8DDA15BFA3207CDB2C71EFB0F4CCA0B02FDBA798BE27E649EF86D315 DUP2 MSTORE PUSH1 0x20 ADD PUSH32 0x2D5F8A1C7D4E0D63B35F5E2ECF39AFE4F27B21BC4940885DE4F63233FF1B6B1D DUP2 MSTORE POP DUP2 PUSH1 0x80 ADD MLOAD PUSH1 0x25 DUP2 MLOAD DUP2 LT PUSH2 0x1797 JUMPI PUSH2 0x1796 PUSH2 0x2DFA JUMP JUMPDEST JUMPDEST PUSH1 0x20 MUL PUSH1 0x20 ADD ADD DUP2 SWAP1 MSTORE POP PUSH1 0x40 MLOAD DUP1 PUSH1 0x40 ADD PUSH1 0x40 MSTORE DUP1 PUSH32 0x180CC1601065291D987C417C4895D9830C8FB3E9AFEAA5EAF4362CD9C0647CCD DUP2 MSTORE PUSH1 0x20 ADD PUSH32 0x28E8047EE4E7D824D8583F5FC29E24007E99779C42F3D92EF3E753F51AD86DA8 DUP2 MSTORE POP DUP2 PUSH1 0x80 ADD MLOAD PUSH1 0x26 DUP2 MLOAD DUP2 LT PUSH2 0x180F JUMPI PUSH2 0x180E PUSH2 0x2DFA JUMP JUMPDEST JUMPDEST PUSH1 0x20 MUL PUSH1 0x20 ADD ADD DUP2 SWAP1 MSTORE POP PUSH1 0x40 MLOAD DUP1 PUSH1 0x40 ADD PUSH1 0x40 MSTORE DUP1 PUSH32 0x1802EC16440F9DE9DA6C44F51E916E8EA647DDFA24D72C11DB9DAC48929C607C DUP2 MSTORE PUSH1 0x20 ADD PUSH32 0x235991B0C7E1135B05CBE763C4C238ED9D2DFAC39320D58DFBC0377581139DD5 DUP2 MSTORE POP DUP2 PUSH1 0x80 ADD MLOAD PUSH1 0x27 DUP2 MLOAD DUP2 LT PUSH2 0x1887 JUMPI PUSH2 0x1886 PUSH2 0x2DFA JUMP JUMPDEST JUMPDEST PUSH1 0x20 MUL PUSH1 0x20 ADD ADD DUP2 SWAP1 MSTORE POP PUSH1 0x40 MLOAD DUP1 PUSH1 0x40 ADD PUSH1 0x40 MSTORE DUP1 PUSH32 0x25E205B54C6746553D645B9984FD4C439FCE9B2E2AB26C2B498D6B4368E8079A DUP2 MSTORE PUSH1 0x20 ADD PUSH32 0x1E03F921FBA09E542AF7C4775A0D9463AD43AB7D11055712303763654635763C DUP2 MSTORE POP DUP2 PUSH1 0x80 ADD MLOAD PUSH1 0x28 DUP2 MLOAD DUP2 LT PUSH2 0x18FF JUMPI PUSH2 0x18FE PUSH2 0x2DFA JUMP JUMPDEST JUMPDEST PUSH1 0x20 MUL PUSH1 0x20 ADD ADD DUP2 SWAP1 MSTORE POP PUSH1 0x40 MLOAD DUP1 PUSH1 0x40 ADD PUSH1 0x40 MSTORE DUP1 PUSH32 0x2FC9A7A4971585B9E15910DAD4FE29EE21A314BC4120F9F38A9E04E152C9B84D DUP2 MSTORE PUSH1 0x20 ADD PUSH32 0x20B6B471534EA04EE7E8C1156F77CA35DE82A5B9D0625F44372FBE87062908B4 DUP2 MSTORE POP DUP2 PUSH1 0x80 ADD MLOAD PUSH1 0x29 DUP2 MLOAD DUP2 LT PUSH2 0x1977 JUMPI PUSH2 0x1976 PUSH2 0x2DFA JUMP JUMPDEST JUMPDEST PUSH1 0x20 MUL PUSH1 0x20 ADD ADD DUP2 SWAP1 MSTORE POP PUSH1 0x40 MLOAD DUP1 PUSH1 0x40 ADD PUSH1 0x40 MSTORE DUP1 PUSH32 0x823F0043E80A0719CEBDBD94071B59836757D1DE56E2F81340C316676888958 DUP2 MSTORE PUSH1 0x20 ADD PUSH32 0x2EF49E8AEB916C75EF4D9919A0A38EA1D6A8575F5354914C5B0920AA19E4912A DUP2 MSTORE POP DUP2 PUSH1 0x80 ADD MLOAD PUSH1 0x2A DUP2 MLOAD DUP2 LT PUSH2 0x19EF JUMPI PUSH2 0x19EE PUSH2 0x2DFA JUMP JUMPDEST JUMPDEST PUSH1 0x20 MUL PUSH1 0x20 ADD ADD DUP2 SWAP1 MSTORE POP PUSH1 0x40 MLOAD DUP1 PUSH1 0x40 ADD PUSH1 0x40 MSTORE DUP1 PUSH32 0x13AE71D4522A2E324DC81C07997A58289273928768E932689994622B94E355C9 DUP2 MSTORE PUSH1 0x20 ADD PUSH31 0xF56F36FADF178FCC270E5A79B2489CB3A371EEC360820EEBA1AE1F4BB47976 DUP2 MSTORE POP DUP2 PUSH1 0x80 ADD MLOAD PUSH1 0x2B DUP2 MLOAD DUP2 LT PUSH2 0x1A66 JUMPI PUSH2 0x1A65 PUSH2 0x2DFA JUMP JUMPDEST JUMPDEST PUSH1 0x20 MUL PUSH1 0x20 ADD ADD DUP2 SWAP1 MSTORE POP PUSH1 0x40 MLOAD DUP1 PUSH1 0x40 ADD PUSH1 0x40 MSTORE DUP1 PUSH32 0x1D05A5837DA0A771EE3654301EF2B7BEEB344BE9AF57D5C30DEDA67F52184047 DUP2 MSTORE PUSH1 0x20 ADD PUSH32 0x2A93E0DD00FFF56D0B2814A432E56A2918D37A238F901B707FD78FD7134C1182 DUP2 MSTORE POP DUP2 PUSH1 0x80 ADD MLOAD PUSH1 0x2C DUP2 MLOAD DUP2 LT PUSH2 0x1ADE JUMPI PUSH2 0x1ADD PUSH2 0x2DFA JUMP JUMPDEST JUMPDEST PUSH1 0x20 MUL PUSH1 0x20 ADD ADD DUP2 SWAP1 MSTORE POP PUSH1 0x40 MLOAD DUP1 PUSH1 0x40 ADD PUSH1 0x40 MSTORE DUP1 PUSH32 0x3B55018C306FD3C4409E502D0367E0546F809A4B8316A7563D26CB41B9CC09D DUP2 MSTORE PUSH1 0x20 ADD PUSH32 0x487DC38B20C28721916D84C81B255CD8E7F7504EC8FB92DBFD79CB3CD6D7BF8 DUP2 MSTORE POP DUP2 PUSH1 0x80 ADD MLOAD PUSH1 0x2D DUP2 MLOAD DUP2 LT PUSH2 0x1B56 JUMPI PUSH2 0x1B55 PUSH2 0x2DFA JUMP JUMPDEST JUMPDEST PUSH1 0x20 MUL PUSH1 0x20 ADD ADD DUP2 SWAP1 MSTORE POP PUSH1 0x40 MLOAD DUP1 PUSH1 0x40 ADD PUSH1 0x40 MSTORE DUP1 PUSH32 0xD342995DBDD33B928A014735376A529AAEA65D1DD0A53D4E24615B1DEFF6DCB DUP2 MSTORE PUSH1 0x20 ADD PUSH32 0x21BF7326BB71A7511042CBC75D82C73E1FFFD4A8D66250BF9BEE1CF8240D6D5A DUP2 MSTORE POP DUP2 PUSH1 0x80 ADD MLOAD PUSH1 0x2E DUP2 MLOAD DUP2 LT PUSH2 0x1BCE JUMPI PUSH2 0x1BCD PUSH2 0x2DFA JUMP JUMPDEST JUMPDEST PUSH1 0x20 MUL PUSH1 0x20 ADD ADD DUP2 SWAP1 MSTORE POP PUSH1 0x40 MLOAD DUP1 PUSH1 0x40 ADD PUSH1 0x40 MSTORE DUP1 PUSH32 0xB3F3024676CEDE871A5032CFBE29653B66068E3E5AE6C4ACD7FB7822E1875E4 DUP2 MSTORE PUSH1 0x20 ADD PUSH32 0x2B794E5602721DE34742DCA745DF0A1B0FEA6365C6995CC9F7616BF80EF779B3 DUP2 MSTORE POP DUP2 PUSH1 0x80 ADD MLOAD PUSH1 0x2F DUP2 MLOAD DUP2 LT PUSH2 0x1C46 JUMPI PUSH2 0x1C45 PUSH2 0x2DFA JUMP JUMPDEST JUMPDEST PUSH1 0x20 MUL PUSH1 0x20 ADD ADD DUP2 SWAP1 MSTORE POP PUSH1 0x40 MLOAD DUP1 PUSH1 0x40 ADD PUSH1 0x40 MSTORE DUP1 PUSH32 0xD905C01705E9813E75D97C41646A336FC7E53FAD2CACFF9C3B89C69AEBC7D7F DUP2 MSTORE PUSH1 0x20 ADD PUSH32 0xEE0CEE2476A5AEE8F8338F7C2950FD423E577AA4771E4070C74B9E56168AF09 DUP2 MSTORE POP DUP2 PUSH1 0x80 ADD MLOAD PUSH1 0x30 DUP2 MLOAD DUP2 LT PUSH2 0x1CBE JUMPI PUSH2 0x1CBD PUSH2 0x2DFA JUMP JUMPDEST JUMPDEST PUSH1 0x20 MUL PUSH1 0x20 ADD ADD DUP2 SWAP1 MSTORE POP PUSH1 0x40 MLOAD DUP1 PUSH1 0x40 ADD PUSH1 0x40 MSTORE DUP1 PUSH32 0xBA8C9556357805C7BD5FBC5CF24A2AA4E3D858C1EE86A08ADC665F1B4036B04 DUP2 MSTORE PUSH1 0x20 ADD PUSH32 0xC9F1CDC6C252CB195ECA9745DEC371C6F225318DAB0433C6B1A284B278C586E DUP2 MSTORE POP DUP2 PUSH1 0x80 ADD MLOAD PUSH1 0x31 DUP2 MLOAD DUP2 LT PUSH2 0x1D36 JUMPI PUSH2 0x1D35 PUSH2 0x2DFA JUMP JUMPDEST JUMPDEST PUSH1 0x20 MUL PUSH1 0x20 ADD ADD DUP2 SWAP1 MSTORE POP PUSH1 0x40 MLOAD DUP1 PUSH1 0x40 ADD PUSH1 0x40 MSTORE DUP1 PUSH32 0x2FB81FF046C6C2E9118E2FCEC86FFBFE9391028D94AF7DA3A3C3FABACE70FAB3 DUP2 MSTORE PUSH1 0x20 ADD PUSH32 0x148ED40CC7BDA961D9324E0A4200C503C7DB745F8FF3446289C1F94219C6A179 DUP2 MSTORE POP DUP2 PUSH1 0x80 ADD MLOAD PUSH1 0x32 DUP2 MLOAD DUP2 LT PUSH2 0x1DAE JUMPI PUSH2 0x1DAD PUSH2 0x2DFA JUMP JUMPDEST JUMPDEST PUSH1 0x20 MUL PUSH1 0x20 ADD ADD DUP2 SWAP1 MSTORE POP PUSH1 0x40 MLOAD DUP1 PUSH1 0x40 ADD PUSH1 0x40 MSTORE DUP1 PUSH32 0x2459482ED2A859BDEFC5C14A322F4EAE35A116B31E9E3AF64AA81F334EDF6B9C DUP2 MSTORE PUSH1 0x20 ADD PUSH32 0x3487098F1D68C824F7B0307F33A8BBD4D30636DC439D657468A55B5540C47CE DUP2 MSTORE POP DUP2 PUSH1 0x80 ADD MLOAD PUSH1 0x33 DUP2 MLOAD DUP2 LT PUSH2 0x1E26 JUMPI PUSH2 0x1E25 PUSH2 0x2DFA JUMP JUMPDEST JUMPDEST PUSH1 0x20 MUL PUSH1 0x20 ADD ADD DUP2 SWAP1 MSTORE POP PUSH1 0x40 MLOAD DUP1 PUSH1 0x40 ADD PUSH1 0x40 MSTORE DUP1 PUSH32 0x3AA6DF06EC48A1B6F065A838C4C62E1133B86D94E7769A901B420AE9252E8FD DUP2 MSTORE PUSH1 0x20 ADD PUSH32 0x2B1CC9EE8FA443F217AE5CAE1579FF3597A4CEAE8C5E67852AD141DFFC9A214F DUP2 MSTORE POP DUP2 PUSH1 0x80 ADD MLOAD PUSH1 0x34 DUP2 MLOAD DUP2 LT PUSH2 0x1E9E JUMPI PUSH2 0x1E9D PUSH2 0x2DFA JUMP JUMPDEST JUMPDEST PUSH1 0x20 MUL PUSH1 0x20 ADD ADD DUP2 SWAP1 MSTORE POP PUSH1 0x40 MLOAD DUP1 PUSH1 0x40 ADD PUSH1 0x40 MSTORE DUP1 PUSH32 0x1C34E36B00DB3C49F0D7EDE436F570D5C4C013B3D24D2FD618E43A215F7191F8 DUP2 MSTORE PUSH1 0x20 ADD PUSH32 0x1F00DAAC177D93A5C34CA4122ED87C0E8E44FE1EB7C4A0A631AB43CA62E77974 DUP2 MSTORE POP DUP2 PUSH1 0x80 ADD MLOAD PUSH1 0x35 DUP2 MLOAD DUP2 LT PUSH2 0x1F16 JUMPI PUSH2 0x1F15 PUSH2 0x2DFA JUMP JUMPDEST JUMPDEST PUSH1 0x20 MUL PUSH1 0x20 ADD ADD DUP2 SWAP1 MSTORE POP PUSH1 0x40 MLOAD DUP1 PUSH1 0x40 ADD PUSH1 0x40 MSTORE DUP1 PUSH32 0x70CBFC7F432707FFFB6D111E4C4E7C4D36A7B37F023B189F4A6556804475609 DUP2 MSTORE PUSH1 0x20 ADD PUSH32 0x1DC1C24C74E2F21961CB33CE3D97CD28D802B41BD08E41334521EA6678E2982C DUP2 MSTORE POP DUP2 PUSH1 0x80 ADD MLOAD PUSH1 0x36 DUP2 MLOAD DUP2 LT PUSH2 0x1F8E JUMPI PUSH2 0x1F8D PUSH2 0x2DFA JUMP JUMPDEST JUMPDEST PUSH1 0x20 MUL PUSH1 0x20 ADD ADD DUP2 SWAP1 MSTORE POP PUSH1 0x40 MLOAD DUP1 PUSH1 0x40 ADD PUSH1 0x40 MSTORE DUP1 PUSH32 0xAEBDF705513F6CB989BB7B1270D9E2C76669BBE2D1705C0D175AAFAB3818AAD DUP2 MSTORE PUSH1 0x20 ADD PUSH32 0x13AA62F56D11C537533F874BB88B26907010C9F3A9A69FD5896459A4FB7260BE DUP2 MSTORE POP DUP2 PUSH1 0x80 ADD MLOAD PUSH1 0x37 DUP2 MLOAD DUP2 LT PUSH2 0x2006 JUMPI PUSH2 0x2005 PUSH2 0x2DFA JUMP JUMPDEST JUMPDEST PUSH1 0x20 MUL PUSH1 0x20 ADD ADD DUP2 SWAP1 MSTORE POP PUSH1 0x40 MLOAD DUP1 PUSH1 0x40 ADD PUSH1 0x40 MSTORE DUP1 PUSH32 0x1EC2F70315ABBC67D9F20F1045E2F15FD1CC1F57B72CB6FC7D153B03FC16FDDF DUP2 MSTORE PUSH1 0x20 ADD PUSH32 0x1062709F3552C279818C96867EC91EB6E0E17783427398530A79EFAF56D95BD9 DUP2 MSTORE POP DUP2 PUSH1 0x80 ADD MLOAD PUSH1 0x38 DUP2 MLOAD DUP2 LT PUSH2 0x207E JUMPI PUSH2 0x207D PUSH2 0x2DFA JUMP JUMPDEST JUMPDEST PUSH1 0x20 MUL PUSH1 0x20 ADD ADD DUP2 SWAP1 MSTORE POP SWAP1 JUMP JUMPDEST PUSH2 0x2094 PUSH2 0x2814 JUMP JUMPDEST PUSH2 0x209C PUSH2 0x282E JUMP JUMPDEST DUP4 PUSH1 0x0 ADD MLOAD DUP2 PUSH1 0x0 PUSH1 0x3 DUP2 LT PUSH2 0x20B5 JUMPI PUSH2 0x20B4 PUSH2 0x2DFA JUMP JUMPDEST JUMPDEST PUSH1 0x20 MUL ADD DUP2 DUP2 MSTORE POP POP DUP4 PUSH1 0x20 ADD MLOAD DUP2 PUSH1 0x1 PUSH1 0x3 DUP2 LT PUSH2 0x20D7 JUMPI PUSH2 0x20D6 PUSH2 0x2DFA JUMP JUMPDEST JUMPDEST PUSH1 0x20 MUL ADD DUP2 DUP2 MSTORE POP POP DUP3 DUP2 PUSH1 0x2 PUSH1 0x3 DUP2 LT PUSH2 0x20F5 JUMPI PUSH2 0x20F4 PUSH2 0x2DFA JUMP JUMPDEST JUMPDEST PUSH1 0x20 MUL ADD DUP2 DUP2 MSTORE POP POP PUSH1 0x0 PUSH1 0x60 DUP4 PUSH1 0x80 DUP5 PUSH1 0x7 PUSH2 0x7D0 GAS SUB STATICCALL SWAP1 POP DUP1 PUSH1 0x0 DUP2 EQ PUSH2 0x211E JUMPI PUSH2 0x2120 JUMP JUMPDEST INVALID JUMPDEST POP DUP1 PUSH2 0x212B JUMPI PUSH1 0x0 DUP1 REVERT JUMPDEST POP POP SWAP3 SWAP2 POP POP JUMP JUMPDEST PUSH2 0x213B PUSH2 0x2814 JUMP JUMPDEST PUSH2 0x2143 PUSH2 0x2850 JUMP JUMPDEST DUP4 PUSH1 0x0 ADD MLOAD DUP2 PUSH1 0x0 PUSH1 0x4 DUP2 LT PUSH2 0x215C JUMPI PUSH2 0x215B PUSH2 0x2DFA JUMP JUMPDEST JUMPDEST PUSH1 0x20 MUL ADD DUP2 DUP2 MSTORE POP POP DUP4 PUSH1 0x20 ADD MLOAD DUP2 PUSH1 0x1 PUSH1 0x4 DUP2 LT PUSH2 0x217E JUMPI PUSH2 0x217D PUSH2 0x2DFA JUMP JUMPDEST JUMPDEST PUSH1 0x20 MUL ADD DUP2 DUP2 MSTORE POP POP DUP3 PUSH1 0x0 ADD MLOAD DUP2 PUSH1 0x2 PUSH1 0x4 DUP2 LT PUSH2 0x21A0 JUMPI PUSH2 0x219F PUSH2 0x2DFA JUMP JUMPDEST JUMPDEST PUSH1 0x20 MUL ADD DUP2 DUP2 MSTORE POP POP DUP3 PUSH1 0x20 ADD MLOAD DUP2 PUSH1 0x3 PUSH1 0x4 DUP2 LT PUSH2 0x21C2 JUMPI PUSH2 0x21C1 PUSH2 0x2DFA JUMP JUMPDEST JUMPDEST PUSH1 0x20 MUL ADD DUP2 DUP2 MSTORE POP POP PUSH1 0x0 PUSH1 0x60 DUP4 PUSH1 0xC0 DUP5 PUSH1 0x6 PUSH2 0x7D0 GAS SUB STATICCALL SWAP1 POP DUP1 PUSH1 0x0 DUP2 EQ PUSH2 0x21EB JUMPI PUSH2 0x21ED JUMP JUMPDEST INVALID JUMPDEST POP DUP1 PUSH2 0x21F8 JUMPI PUSH1 0x0 DUP1 REVERT JUMPDEST POP POP SWAP3 SWAP2 POP POP JUMP JUMPDEST PUSH2 0x2208 PUSH2 0x2814 JUMP JUMPDEST PUSH1 0x0 PUSH32 0x30644E72E131A029B85045B68181585D97816A916871CA8D3C208C16D87CFD47 SWAP1 POP PUSH1 0x0 DUP4 PUSH1 0x0 ADD MLOAD EQ DUP1 ISZERO PUSH2 0x2245 JUMPI POP PUSH1 0x0 DUP4 PUSH1 0x20 ADD MLOAD EQ JUMPDEST ISZERO PUSH2 0x2269 JUMPI PUSH1 0x40 MLOAD DUP1 PUSH1 0x40 ADD PUSH1 0x40 MSTORE DUP1 PUSH1 0x0 DUP2 MSTORE PUSH1 0x20 ADD PUSH1 0x0 DUP2 MSTORE POP SWAP2 POP POP PUSH2 0x22A0 JUMP JUMPDEST PUSH1 0x40 MLOAD DUP1 PUSH1 0x40 ADD PUSH1 0x40 MSTORE DUP1 DUP5 PUSH1 0x0 ADD MLOAD DUP2 MSTORE PUSH1 0x20 ADD DUP3 DUP6 PUSH1 0x20 ADD MLOAD PUSH2 0x228E SWAP2 SWAP1 PUSH2 0x2D6B JUMP JUMPDEST DUP4 PUSH2 0x2299 SWAP2 SWAP1 PUSH2 0x2CA7 JUMP JUMPDEST DUP2 MSTORE POP SWAP2 POP POP JUMPDEST SWAP2 SWAP1 POP JUMP JUMPDEST PUSH1 0x0 DUP1 PUSH1 0x4 PUSH8 0xFFFFFFFFFFFFFFFF DUP2 GT ISZERO PUSH2 0x22C3 JUMPI PUSH2 0x22C2 PUSH2 0x2E29 JUMP JUMPDEST JUMPDEST PUSH1 0x40 MLOAD SWAP1 DUP1 DUP3 MSTORE DUP1 PUSH1 0x20 MUL PUSH1 0x20 ADD DUP3 ADD PUSH1 0x40 MSTORE DUP1 ISZERO PUSH2 0x22FC JUMPI DUP2 PUSH1 0x20 ADD JUMPDEST PUSH2 0x22E9 PUSH2 0x2814 JUMP JUMPDEST DUP2 MSTORE PUSH1 0x20 ADD SWAP1 PUSH1 0x1 SWAP1 SUB SWAP1 DUP2 PUSH2 0x22E1 JUMPI SWAP1 POP JUMPDEST POP SWAP1 POP PUSH1 0x0 PUSH1 0x4 PUSH8 0xFFFFFFFFFFFFFFFF DUP2 GT ISZERO PUSH2 0x231C JUMPI PUSH2 0x231B PUSH2 0x2E29 JUMP JUMPDEST JUMPDEST PUSH1 0x40 MLOAD SWAP1 DUP1 DUP3 MSTORE DUP1 PUSH1 0x20 MUL PUSH1 0x20 ADD DUP3 ADD PUSH1 0x40 MSTORE DUP1 ISZERO PUSH2 0x2355 JUMPI DUP2 PUSH1 0x20 ADD JUMPDEST PUSH2 0x2342 PUSH2 0x2872 JUMP JUMPDEST DUP2 MSTORE PUSH1 0x20 ADD SWAP1 PUSH1 0x1 SWAP1 SUB SWAP1 DUP2 PUSH2 0x233A JUMPI SWAP1 POP JUMPDEST POP SWAP1 POP DUP11 DUP3 PUSH1 0x0 DUP2 MLOAD DUP2 LT PUSH2 0x236D JUMPI PUSH2 0x236C PUSH2 0x2DFA JUMP JUMPDEST JUMPDEST PUSH1 0x20 MUL PUSH1 0x20 ADD ADD DUP2 SWAP1 MSTORE POP DUP9 DUP3 PUSH1 0x1 DUP2 MLOAD DUP2 LT PUSH2 0x238D JUMPI PUSH2 0x238C PUSH2 0x2DFA JUMP JUMPDEST JUMPDEST PUSH1 0x20 MUL PUSH1 0x20 ADD ADD DUP2 SWAP1 MSTORE POP DUP7 DUP3 PUSH1 0x2 DUP2 MLOAD DUP2 LT PUSH2 0x23AD JUMPI PUSH2 0x23AC PUSH2 0x2DFA JUMP JUMPDEST JUMPDEST PUSH1 0x20 MUL PUSH1 0x20 ADD ADD DUP2 SWAP1 MSTORE POP DUP5 DUP3 PUSH1 0x3 DUP2 MLOAD DUP2 LT PUSH2 0x23CD JUMPI PUSH2 0x23CC PUSH2 0x2DFA JUMP JUMPDEST JUMPDEST PUSH1 0x20 MUL PUSH1 0x20 ADD ADD DUP2 SWAP1 MSTORE POP DUP10 DUP2 PUSH1 0x0 DUP2 MLOAD DUP2 LT PUSH2 0x23ED JUMPI PUSH2 0x23EC PUSH2 0x2DFA JUMP JUMPDEST JUMPDEST PUSH1 0x20 MUL PUSH1 0x20 ADD ADD DUP2 SWAP1 MSTORE POP DUP8 DUP2 PUSH1 0x1 DUP2 MLOAD DUP2 LT PUSH2 0x240D JUMPI PUSH2 0x240C PUSH2 0x2DFA JUMP JUMPDEST JUMPDEST PUSH1 0x20 MUL PUSH1 0x20 ADD ADD DUP2 SWAP1 MSTORE POP DUP6 DUP2 PUSH1 0x2 DUP2 MLOAD DUP2 LT PUSH2 0x242D JUMPI PUSH2 0x242C PUSH2 0x2DFA JUMP JUMPDEST JUMPDEST PUSH1 0x20 MUL PUSH1 0x20 ADD ADD DUP2 SWAP1 MSTORE POP DUP4 DUP2 PUSH1 0x3 DUP2 MLOAD DUP2 LT PUSH2 0x244D JUMPI PUSH2 0x244C PUSH2 0x2DFA JUMP JUMPDEST JUMPDEST PUSH1 0x20 MUL PUSH1 0x20 ADD ADD DUP2 SWAP1 MSTORE POP PUSH2 0x2462 DUP3 DUP3 PUSH2 0x2472 JUMP JUMPDEST SWAP3 POP POP POP SWAP9 SWAP8 POP POP POP POP POP POP POP POP JUMP JUMPDEST PUSH1 0x0 DUP2 MLOAD DUP4 MLOAD EQ PUSH2 0x2482 JUMPI PUSH1 0x0 DUP1 REVERT JUMPDEST PUSH1 0x0 DUP4 MLOAD SWAP1 POP PUSH1 0x0 PUSH1 0x6 DUP3 PUSH2 0x2497 SWAP2 SWAP1 PUSH2 0x2C4D JUMP JUMPDEST SWAP1 POP PUSH1 0x0 DUP2 PUSH8 0xFFFFFFFFFFFFFFFF DUP2 GT ISZERO PUSH2 0x24B5 JUMPI PUSH2 0x24B4 PUSH2 0x2E29 JUMP JUMPDEST JUMPDEST PUSH1 0x40 MLOAD SWAP1 DUP1 DUP3 MSTORE DUP1 PUSH1 0x20 MUL PUSH1 0x20 ADD DUP3 ADD PUSH1 0x40 MSTORE DUP1 ISZERO PUSH2 0x24E3 JUMPI DUP2 PUSH1 0x20 ADD PUSH1 0x20 DUP3 MUL DUP1 CALLDATASIZE DUP4 CALLDATACOPY DUP1 DUP3 ADD SWAP2 POP POP SWAP1 POP JUMPDEST POP SWAP1 POP PUSH1 0x0 JUMPDEST DUP4 DUP2 LT ISZERO PUSH2 0x2768 JUMPI DUP7 DUP2 DUP2 MLOAD DUP2 LT PUSH2 0x2504 JUMPI PUSH2 0x2503 PUSH2 0x2DFA JUMP JUMPDEST JUMPDEST PUSH1 0x20 MUL PUSH1 0x20 ADD ADD MLOAD PUSH1 0x0 ADD MLOAD DUP3 PUSH1 0x0 PUSH1 0x6 DUP5 PUSH2 0x2520 SWAP2 SWAP1 PUSH2 0x2C4D JUMP JUMPDEST PUSH2 0x252A SWAP2 SWAP1 PUSH2 0x2BF7 JUMP JUMPDEST DUP2 MLOAD DUP2 LT PUSH2 0x253B JUMPI PUSH2 0x253A PUSH2 0x2DFA JUMP JUMPDEST JUMPDEST PUSH1 0x20 MUL PUSH1 0x20 ADD ADD DUP2 DUP2 MSTORE POP POP DUP7 DUP2 DUP2 MLOAD DUP2 LT PUSH2 0x255A JUMPI PUSH2 0x2559 PUSH2 0x2DFA JUMP JUMPDEST JUMPDEST PUSH1 0x20 MUL PUSH1 0x20 ADD ADD MLOAD PUSH1 0x20 ADD MLOAD DUP3 PUSH1 0x1 PUSH1 0x6 DUP5 PUSH2 0x2576 SWAP2 SWAP1 PUSH2 0x2C4D JUMP JUMPDEST PUSH2 0x2580 SWAP2 SWAP1 PUSH2 0x2BF7 JUMP JUMPDEST DUP2 MLOAD DUP2 LT PUSH2 0x2591 JUMPI PUSH2 0x2590 PUSH2 0x2DFA JUMP JUMPDEST JUMPDEST PUSH1 0x20 MUL PUSH1 0x20 ADD ADD DUP2 DUP2 MSTORE POP POP DUP6 DUP2 DUP2 MLOAD DUP2 LT PUSH2 0x25B0 JUMPI PUSH2 0x25AF PUSH2 0x2DFA JUMP JUMPDEST JUMPDEST PUSH1 0x20 MUL PUSH1 0x20 ADD ADD MLOAD PUSH1 0x0 ADD MLOAD PUSH1 0x1 PUSH1 0x2 DUP2 LT PUSH2 0x25CF JUMPI PUSH2 0x25CE PUSH2 0x2DFA JUMP JUMPDEST JUMPDEST PUSH1 0x20 MUL ADD MLOAD DUP3 PUSH1 0x2 PUSH1 0x6 DUP5 PUSH2 0x25E4 SWAP2 SWAP1 PUSH2 0x2C4D JUMP JUMPDEST PUSH2 0x25EE SWAP2 SWAP1 PUSH2 0x2BF7 JUMP JUMPDEST DUP2 MLOAD DUP2 LT PUSH2 0x25FF JUMPI PUSH2 0x25FE PUSH2 0x2DFA JUMP JUMPDEST JUMPDEST PUSH1 0x20 MUL PUSH1 0x20 ADD ADD DUP2 DUP2 MSTORE POP POP DUP6 DUP2 DUP2 MLOAD DUP2 LT PUSH2 0x261E JUMPI PUSH2 0x261D PUSH2 0x2DFA JUMP JUMPDEST JUMPDEST PUSH1 0x20 MUL PUSH1 0x20 ADD ADD MLOAD PUSH1 0x0 ADD MLOAD PUSH1 0x0 PUSH1 0x2 DUP2 LT PUSH2 0x263D JUMPI PUSH2 0x263C PUSH2 0x2DFA JUMP JUMPDEST JUMPDEST PUSH1 0x20 MUL ADD MLOAD DUP3 PUSH1 0x3 PUSH1 0x6 DUP5 PUSH2 0x2652 SWAP2 SWAP1 PUSH2 0x2C4D JUMP JUMPDEST PUSH2 0x265C SWAP2 SWAP1 PUSH2 0x2BF7 JUMP JUMPDEST DUP2 MLOAD DUP2 LT PUSH2 0x266D JUMPI PUSH2 0x266C PUSH2 0x2DFA JUMP JUMPDEST JUMPDEST PUSH1 0x20 MUL PUSH1 0x20 ADD ADD DUP2 DUP2 MSTORE POP POP DUP6 DUP2 DUP2 MLOAD DUP2 LT PUSH2 0x268C JUMPI PUSH2 0x268B PUSH2 0x2DFA JUMP JUMPDEST JUMPDEST PUSH1 0x20 MUL PUSH1 0x20 ADD ADD MLOAD PUSH1 0x20 ADD MLOAD PUSH1 0x1 PUSH1 0x2 DUP2 LT PUSH2 0x26AB JUMPI PUSH2 0x26AA PUSH2 0x2DFA JUMP JUMPDEST JUMPDEST PUSH1 0x20 MUL ADD MLOAD DUP3 PUSH1 0x4 PUSH1 0x6 DUP5 PUSH2 0x26C0 SWAP2 SWAP1 PUSH2 0x2C4D JUMP JUMPDEST PUSH2 0x26CA SWAP2 SWAP1 PUSH2 0x2BF7 JUMP JUMPDEST DUP2 MLOAD DUP2 LT PUSH2 0x26DB JUMPI PUSH2 0x26DA PUSH2 0x2DFA JUMP JUMPDEST JUMPDEST PUSH1 0x20 MUL PUSH1 0x20 ADD ADD DUP2 DUP2 MSTORE POP POP DUP6 DUP2 DUP2 MLOAD DUP2 LT PUSH2 0x26FA JUMPI PUSH2 0x26F9 PUSH2 0x2DFA JUMP JUMPDEST JUMPDEST PUSH1 0x20 MUL PUSH1 0x20 ADD ADD MLOAD PUSH1 0x20 ADD MLOAD PUSH1 0x0 PUSH1 0x2 DUP2 LT PUSH2 0x2719 JUMPI PUSH2 0x2718 PUSH2 0x2DFA JUMP JUMPDEST JUMPDEST PUSH1 0x20 MUL ADD MLOAD DUP3 PUSH1 0x5 PUSH1 0x6 DUP5 PUSH2 0x272E SWAP2 SWAP1 PUSH2 0x2C4D JUMP JUMPDEST PUSH2 0x2738 SWAP2 SWAP1 PUSH2 0x2BF7 JUMP JUMPDEST DUP2 MLOAD DUP2 LT PUSH2 0x2749 JUMPI PUSH2 0x2748 PUSH2 0x2DFA JUMP JUMPDEST JUMPDEST PUSH1 0x20 MUL PUSH1 0x20 ADD ADD DUP2 DUP2 MSTORE POP POP DUP1 DUP1 PUSH2 0x2760 SWAP1 PUSH2 0x2D22 JUMP JUMPDEST SWAP2 POP POP PUSH2 0x24E9 JUMP JUMPDEST POP PUSH2 0x2771 PUSH2 0x2898 JUMP JUMPDEST PUSH1 0x0 PUSH1 0x20 DUP3 PUSH1 0x20 DUP7 MUL PUSH1 0x20 DUP7 ADD PUSH1 0x8 PUSH2 0x7D0 GAS SUB STATICCALL SWAP1 POP DUP1 PUSH1 0x0 DUP2 EQ PUSH2 0x2796 JUMPI PUSH2 0x2798 JUMP JUMPDEST INVALID JUMPDEST POP DUP1 PUSH2 0x27A3 JUMPI PUSH1 0x0 DUP1 REVERT JUMPDEST PUSH1 0x0 DUP3 PUSH1 0x0 PUSH1 0x1 DUP2 LT PUSH2 0x27B9 JUMPI PUSH2 0x27B8 PUSH2 0x2DFA JUMP JUMPDEST JUMPDEST PUSH1 0x20 MUL ADD MLOAD EQ ISZERO SWAP6 POP POP POP POP POP POP SWAP3 SWAP2 POP POP JUMP JUMPDEST PUSH1 0x40 MLOAD DUP1 PUSH1 0xA0 ADD PUSH1 0x40 MSTORE DUP1 PUSH2 0x27E0 PUSH2 0x2814 JUMP JUMPDEST DUP2 MSTORE PUSH1 0x20 ADD PUSH2 0x27ED PUSH2 0x2872 JUMP JUMPDEST DUP2 MSTORE PUSH1 0x20 ADD PUSH2 0x27FA PUSH2 0x2872 JUMP JUMPDEST DUP2 MSTORE PUSH1 0x20 ADD PUSH2 0x2807 PUSH2 0x2872 JUMP JUMPDEST DUP2 MSTORE PUSH1 0x20 ADD PUSH1 0x60 DUP2 MSTORE POP SWAP1 JUMP JUMPDEST PUSH1 0x40 MLOAD DUP1 PUSH1 0x40 ADD PUSH1 0x40 MSTORE DUP1 PUSH1 0x0 DUP2 MSTORE PUSH1 0x20 ADD PUSH1 0x0 DUP2 MSTORE POP SWAP1 JUMP JUMPDEST PUSH1 0x40 MLOAD DUP1 PUSH1 0x60 ADD PUSH1 0x40 MSTORE DUP1 PUSH1 0x3 SWAP1 PUSH1 0x20 DUP3 MUL DUP1 CALLDATASIZE DUP4 CALLDATACOPY DUP1 DUP3 ADD SWAP2 POP POP SWAP1 POP POP SWAP1 JUMP JUMPDEST PUSH1 0x40 MLOAD DUP1 PUSH1 0x80 ADD PUSH1 0x40 MSTORE DUP1 PUSH1 0x4 SWAP1 PUSH1 0x20 DUP3 MUL DUP1 CALLDATASIZE DUP4 CALLDATACOPY DUP1 DUP3 ADD SWAP2 POP POP SWAP1 POP POP SWAP1 JUMP JUMPDEST PUSH1 0x40 MLOAD DUP1 PUSH1 0x40 ADD PUSH1 0x40 MSTORE DUP1 PUSH2 0x2885 PUSH2 0x28BA JUMP JUMPDEST DUP2 MSTORE PUSH1 0x20 ADD PUSH2 0x2892 PUSH2 0x28BA JUMP JUMPDEST DUP2 MSTORE POP SWAP1 JUMP JUMPDEST PUSH1 0x40 MLOAD DUP1 PUSH1 0x20 ADD PUSH1 0x40 MSTORE DUP1 PUSH1 0x1 SWAP1 PUSH1 0x20 DUP3 MUL DUP1 CALLDATASIZE DUP4 CALLDATACOPY DUP1 DUP3 ADD SWAP2 POP POP SWAP1 POP POP SWAP1 JUMP JUMPDEST PUSH1 0x40 MLOAD DUP1 PUSH1 0x40 ADD PUSH1 0x40 MSTORE DUP1 PUSH1 0x2 SWAP1 PUSH1 0x20 DUP3 MUL DUP1 CALLDATASIZE DUP4 CALLDATACOPY DUP1 DUP3 ADD SWAP2 POP POP SWAP1 POP POP SWAP1 JUMP JUMPDEST PUSH1 0x0 PUSH2 0x28EF PUSH2 0x28EA DUP5 PUSH2 0x2BAB JUMP JUMPDEST PUSH2 0x2B86 JUMP JUMPDEST SWAP1 POP DUP1 DUP3 DUP6 PUSH1 0x20 DUP7 MUL DUP3 ADD GT ISZERO PUSH2 0x2909 JUMPI PUSH2 0x2908 PUSH2 0x2E62 JUMP JUMPDEST JUMPDEST PUSH1 0x0 JUMPDEST DUP6 DUP2 LT ISZERO PUSH2 0x2939 JUMPI DUP2 PUSH2 0x291F DUP9 DUP3 PUSH2 0x2B05 JUMP JUMPDEST DUP5 MSTORE PUSH1 0x20 DUP5 ADD SWAP4 POP PUSH1 0x20 DUP4 ADD SWAP3 POP POP PUSH1 0x1 DUP2 ADD SWAP1 POP PUSH2 0x290C JUMP JUMPDEST POP POP POP SWAP4 SWAP3 POP POP POP JUMP JUMPDEST PUSH1 0x0 PUSH2 0x2956 PUSH2 0x2951 DUP5 PUSH2 0x2BD1 JUMP JUMPDEST PUSH2 0x2B86 JUMP JUMPDEST SWAP1 POP DUP1 DUP3 DUP6 PUSH1 0x20 DUP7 MUL DUP3 ADD GT ISZERO PUSH2 0x2970 JUMPI PUSH2 0x296F PUSH2 0x2E62 JUMP JUMPDEST JUMPDEST PUSH1 0x0 JUMPDEST DUP6 DUP2 LT ISZERO PUSH2 0x29A0 JUMPI DUP2 PUSH2 0x2986 DUP9 DUP3 PUSH2 0x2B05 JUMP JUMPDEST DUP5 MSTORE PUSH1 0x20 DUP5 ADD SWAP4 POP PUSH1 0x20 DUP4 ADD SWAP3 POP POP PUSH1 0x1 DUP2 ADD SWAP1 POP PUSH2 0x2973 JUMP JUMPDEST POP POP POP SWAP4 SWAP3 POP POP POP JUMP JUMPDEST PUSH1 0x0 DUP3 PUSH1 0x1F DUP4 ADD SLT PUSH2 0x29BF JUMPI PUSH2 0x29BE PUSH2 0x2E58 JUMP JUMPDEST JUMPDEST PUSH1 0x2 PUSH2 0x29CC DUP5 DUP3 DUP6 PUSH2 0x28DC JUMP JUMPDEST SWAP2 POP POP SWAP3 SWAP2 POP POP JUMP JUMPDEST PUSH1 0x0 DUP3 PUSH1 0x1F DUP4 ADD SLT PUSH2 0x29EA JUMPI PUSH2 0x29E9 PUSH2 0x2E58 JUMP JUMPDEST JUMPDEST PUSH1 0x38 PUSH2 0x29F7 DUP5 DUP3 DUP6 PUSH2 0x2943 JUMP JUMPDEST SWAP2 POP POP SWAP3 SWAP2 POP POP JUMP JUMPDEST PUSH1 0x0 PUSH1 0x40 DUP3 DUP5 SUB SLT ISZERO PUSH2 0x2A16 JUMPI PUSH2 0x2A15 PUSH2 0x2E5D JUMP JUMPDEST JUMPDEST PUSH2 0x2A20 PUSH1 0x40 PUSH2 0x2B86 JUMP JUMPDEST SWAP1 POP PUSH1 0x0 PUSH2 0x2A30 DUP5 DUP3 DUP6 ADD PUSH2 0x2B05 JUMP JUMPDEST PUSH1 0x0 DUP4 ADD MSTORE POP PUSH1 0x20 PUSH2 0x2A44 DUP5 DUP3 DUP6 ADD PUSH2 0x2B05 JUMP JUMPDEST PUSH1 0x20 DUP4 ADD MSTORE POP SWAP3 SWAP2 POP POP JUMP JUMPDEST PUSH1 0x0 PUSH1 0x80 DUP3 DUP5 SUB SLT ISZERO PUSH2 0x2A66 JUMPI PUSH2 0x2A65 PUSH2 0x2E5D JUMP JUMPDEST JUMPDEST PUSH2 0x2A70 PUSH1 0x40 PUSH2 0x2B86 JUMP JUMPDEST SWAP1 POP PUSH1 0x0 PUSH2 0x2A80 DUP5 DUP3 DUP6 ADD PUSH2 0x29AA JUMP JUMPDEST PUSH1 0x0 DUP4 ADD MSTORE POP PUSH1 0x40 PUSH2 0x2A94 DUP5 DUP3 DUP6 ADD PUSH2 0x29AA JUMP JUMPDEST PUSH1 0x20 DUP4 ADD MSTORE POP SWAP3 SWAP2 POP POP JUMP JUMPDEST PUSH1 0x0 PUSH2 0x100 DUP3 DUP5 SUB SLT ISZERO PUSH2 0x2AB7 JUMPI PUSH2 0x2AB6 PUSH2 0x2E5D JUMP JUMPDEST JUMPDEST PUSH2 0x2AC1 PUSH1 0x60 PUSH2 0x2B86 JUMP JUMPDEST SWAP1 POP PUSH1 0x0 PUSH2 0x2AD1 DUP5 DUP3 DUP6 ADD PUSH2 0x2A00 JUMP JUMPDEST PUSH1 0x0 DUP4 ADD MSTORE POP PUSH1 0x40 PUSH2 0x2AE5 DUP5 DUP3 DUP6 ADD PUSH2 0x2A50 JUMP JUMPDEST PUSH1 0x20 DUP4 ADD MSTORE POP PUSH1 0xC0 PUSH2 0x2AF9 DUP5 DUP3 DUP6 ADD PUSH2 0x2A00 JUMP JUMPDEST PUSH1 0x40 DUP4 ADD MSTORE POP SWAP3 SWAP2 POP POP JUMP JUMPDEST PUSH1 0x0 DUP2 CALLDATALOAD SWAP1 POP PUSH2 0x2B14 DUP2 PUSH2 0x2E7D JUMP JUMPDEST SWAP3 SWAP2 POP POP JUMP JUMPDEST PUSH1 0x0 DUP1 PUSH2 0x800 DUP4 DUP6 SUB SLT ISZERO PUSH2 0x2B32 JUMPI PUSH2 0x2B31 PUSH2 0x2E67 JUMP JUMPDEST JUMPDEST PUSH1 0x0 PUSH2 0x2B40 DUP6 DUP3 DUP7 ADD PUSH2 0x2AA0 JUMP JUMPDEST SWAP3 POP POP PUSH2 0x100 PUSH2 0x2B52 DUP6 DUP3 DUP7 ADD PUSH2 0x29D5 JUMP JUMPDEST SWAP2 POP POP SWAP3 POP SWAP3 SWAP1 POP JUMP JUMPDEST PUSH2 0x2B65 DUP2 PUSH2 0x2CDB JUMP JUMPDEST DUP3 MSTORE POP POP JUMP JUMPDEST PUSH1 0x0 PUSH1 0x20 DUP3 ADD SWAP1 POP PUSH2 0x2B80 PUSH1 0x0 DUP4 ADD DUP5 PUSH2 0x2B5C JUMP JUMPDEST SWAP3 SWAP2 POP POP JUMP JUMPDEST PUSH1 0x0 PUSH2 0x2B90 PUSH2 0x2BA1 JUMP JUMPDEST SWAP1 POP PUSH2 0x2B9C DUP3 DUP3 PUSH2 0x2CF1 JUMP JUMPDEST SWAP2 SWAP1 POP JUMP JUMPDEST PUSH1 0x0 PUSH1 0x40 MLOAD SWAP1 POP SWAP1 JUMP JUMPDEST PUSH1 0x0 PUSH8 0xFFFFFFFFFFFFFFFF DUP3 GT ISZERO PUSH2 0x2BC6 JUMPI PUSH2 0x2BC5 PUSH2 0x2E29 JUMP JUMPDEST JUMPDEST PUSH1 0x20 DUP3 MUL SWAP1 POP SWAP2 SWAP1 POP JUMP JUMPDEST PUSH1 0x0 PUSH8 0xFFFFFFFFFFFFFFFF DUP3 GT ISZERO PUSH2 0x2BEC JUMPI PUSH2 0x2BEB PUSH2 0x2E29 JUMP JUMPDEST JUMPDEST PUSH1 0x20 DUP3 MUL SWAP1 POP SWAP2 SWAP1 POP JUMP JUMPDEST PUSH1 0x0 PUSH2 0x2C02 DUP3 PUSH2 0x2CE7 JUMP JUMPDEST SWAP2 POP PUSH2 0x2C0D DUP4 PUSH2 0x2CE7 JUMP JUMPDEST SWAP3 POP DUP3 PUSH32 0xFFFFFFFFFFFFFFFFFFFFFFFFFFFFFFFFFFFFFFFFFFFFFFFFFFFFFFFFFFFFFFFF SUB DUP3 GT ISZERO PUSH2 0x2C42 JUMPI PUSH2 0x2C41 PUSH2 0x2D9C JUMP JUMPDEST JUMPDEST DUP3 DUP3 ADD SWAP1 POP SWAP3 SWAP2 POP POP JUMP JUMPDEST PUSH1 0x0 PUSH2 0x2C58 DUP3 PUSH2 0x2CE7 JUMP JUMPDEST SWAP2 POP PUSH2 0x2C63 DUP4 PUSH2 0x2CE7 JUMP JUMPDEST SWAP3 POP DUP2 PUSH32 0xFFFFFFFFFFFFFFFFFFFFFFFFFFFFFFFFFFFFFFFFFFFFFFFFFFFFFFFFFFFFFFFF DIV DUP4 GT DUP3 ISZERO ISZERO AND ISZERO PUSH2 0x2C9C JUMPI PUSH2 0x2C9B PUSH2 0x2D9C JUMP JUMPDEST JUMPDEST DUP3 DUP3 MUL SWAP1 POP SWAP3 SWAP2 POP POP JUMP JUMPDEST PUSH1 0x0 PUSH2 0x2CB2 DUP3 PUSH2 0x2CE7 JUMP JUMPDEST SWAP2 POP PUSH2 0x2CBD DUP4 PUSH2 0x2CE7 JUMP JUMPDEST SWAP3 POP DUP3 DUP3 LT ISZERO PUSH2 0x2CD0 JUMPI PUSH2 0x2CCF PUSH2 0x2D9C JUMP JUMPDEST JUMPDEST DUP3 DUP3 SUB SWAP1 POP SWAP3 SWAP2 POP POP JUMP JUMPDEST PUSH1 0x0 DUP2 ISZERO ISZERO SWAP1 POP SWAP2 SWAP1 POP JUMP JUMPDEST PUSH1 0x0 DUP2 SWAP1 POP SWAP2 SWAP1 POP JUMP JUMPDEST PUSH2 0x2CFA DUP3 PUSH2 0x2E6C JUMP JUMPDEST DUP2 ADD DUP2 DUP2 LT PUSH8 0xFFFFFFFFFFFFFFFF DUP3 GT OR ISZERO PUSH2 0x2D19 JUMPI PUSH2 0x2D18 PUSH2 0x2E29 JUMP JUMPDEST JUMPDEST DUP1 PUSH1 0x40 MSTORE POP POP POP JUMP JUMPDEST PUSH1 0x0 PUSH2 0x2D2D DUP3 PUSH2 0x2CE7 JUMP JUMPDEST SWAP2 POP PUSH32 0xFFFFFFFFFFFFFFFFFFFFFFFFFFFFFFFFFFFFFFFFFFFFFFFFFFFFFFFFFFFFFFFF DUP3 EQ ISZERO PUSH2 0x2D60 JUMPI PUSH2 0x2D5F PUSH2 0x2D9C JUMP JUMPDEST JUMPDEST PUSH1 0x1 DUP3 ADD SWAP1 POP SWAP2 SWAP1 POP JUMP JUMPDEST PUSH1 0x0 PUSH2 0x2D76 DUP3 PUSH2 0x2CE7 JUMP JUMPDEST SWAP2 POP PUSH2 0x2D81 DUP4 PUSH2 0x2CE7 JUMP JUMPDEST SWAP3 POP DUP3 PUSH2 0x2D91 JUMPI PUSH2 0x2D90 PUSH2 0x2DCB JUMP JUMPDEST JUMPDEST DUP3 DUP3 MOD SWAP1 POP SWAP3 SWAP2 POP POP JUMP JUMPDEST PUSH32 0x4E487B7100000000000000000000000000000000000000000000000000000000 PUSH1 0x0 MSTORE PUSH1 0x11 PUSH1 0x4 MSTORE PUSH1 0x24 PUSH1 0x0 REVERT JUMPDEST PUSH32 0x4E487B7100000000000000000000000000000000000000000000000000000000 PUSH1 0x0 MSTORE PUSH1 0x12 PUSH1 0x4 MSTORE PUSH1 0x24 PUSH1 0x0 REVERT JUMPDEST PUSH32 0x4E487B7100000000000000000000000000000000000000000000000000000000 PUSH1 0x0 MSTORE PUSH1 0x32 PUSH1 0x4 MSTORE PUSH1 0x24 PUSH1 0x0 REVERT JUMPDEST PUSH32 0x4E487B7100000000000000000000000000000000000000000000000000000000 PUSH1 0x0 MSTORE PUSH1 0x41 PUSH1 0x4 MSTORE PUSH1 0x24 PUSH1 0x0 REVERT JUMPDEST PUSH1 0x0 DUP1 REVERT JUMPDEST PUSH1 0x0 DUP1 REVERT JUMPDEST PUSH1 0x0 DUP1 REVERT JUMPDEST PUSH1 0x0 DUP1 REVERT JUMPDEST PUSH1 0x0 PUSH1 0x1F NOT PUSH1 0x1F DUP4 ADD AND SWAP1 POP SWAP2 SWAP1 POP JUMP JUMPDEST PUSH2 0x2E86 DUP2 PUSH2 0x2CE7 JUMP JUMPDEST DUP2 EQ PUSH2 0x2E91 JUMPI PUSH1 0x0 DUP1 REVERT JUMPDEST POP JUMP INVALID LOG2 PUSH5 0x6970667358 0x22 SLT KECCAK256 0xB0 0x2C PUSH15 0xE4CE396AE0283BCC563D55F3169CA9 DUP3 0x48 SHR 0xD SWAP6 MSTORE 0xE2 DUP4 XOR 0xF7 PUSH12 0xF0A9F064736F6C6343000806 STOP CALLER PUSH1 0x80 PUSH1 0x40 MSTORE CALLVALUE DUP1 ISZERO PUSH2 0x10 JUMPI PUSH1 0x0 DUP1 REVERT JUMPDEST POP PUSH2 0x3A85 DUP1 PUSH2 0x20 PUSH1 0x0 CODECOPY PUSH1 0x0 RETURN INVALID PUSH1 0x80 PUSH1 0x40 MSTORE CALLVALUE DUP1 ISZERO PUSH2 0x10 JUMPI PUSH1 0x0 DUP1 REVERT JUMPDEST POP PUSH1 0x4 CALLDATASIZE LT PUSH2 0x2B JUMPI PUSH1 0x0 CALLDATALOAD PUSH1 0xE0 SHR DUP1 PUSH4 0xEEFA323D EQ PUSH2 0x30 JUMPI JUMPDEST PUSH1 0x0 DUP1 REVERT JUMPDEST PUSH2 0x4A PUSH1 0x4 DUP1 CALLDATASIZE SUB DUP2 ADD SWAP1 PUSH2 0x45 SWAP2 SWAP1 PUSH2 0x36D5 JUMP JUMPDEST PUSH2 0x60 JUMP JUMPDEST PUSH1 0x40 MLOAD PUSH2 0x57 SWAP2 SWAP1 PUSH2 0x3726 JUMP JUMPDEST PUSH1 0x40 MLOAD DUP1 SWAP2 SUB SWAP1 RETURN JUMPDEST PUSH1 0x0 DUP1 PUSH1 0x51 PUSH8 0xFFFFFFFFFFFFFFFF DUP2 GT ISZERO PUSH2 0x7E JUMPI PUSH2 0x7D PUSH2 0x39E4 JUMP JUMPDEST JUMPDEST PUSH1 0x40 MLOAD SWAP1 DUP1 DUP3 MSTORE DUP1 PUSH1 0x20 MUL PUSH1 0x20 ADD DUP3 ADD PUSH1 0x40 MSTORE DUP1 ISZERO PUSH2 0xAC JUMPI DUP2 PUSH1 0x20 ADD PUSH1 0x20 DUP3 MUL DUP1 CALLDATASIZE DUP4 CALLDATACOPY DUP1 DUP3 ADD SWAP2 POP POP SWAP1 POP JUMPDEST POP SWAP1 POP PUSH1 0x0 JUMPDEST PUSH1 0x51 DUP2 LT ISZERO PUSH2 0x105 JUMPI DUP4 DUP2 PUSH1 0x51 DUP2 LT PUSH2 0xCE JUMPI PUSH2 0xCD PUSH2 0x39B5 JUMP JUMPDEST JUMPDEST PUSH1 0x20 MUL ADD MLOAD DUP3 DUP3 DUP2 MLOAD DUP2 LT PUSH2 0xE6 JUMPI PUSH2 0xE5 PUSH2 0x39B5 JUMP JUMPDEST JUMPDEST PUSH1 0x20 MUL PUSH1 0x20 ADD ADD DUP2 DUP2 MSTORE POP POP DUP1 DUP1 PUSH2 0xFD SWAP1 PUSH2 0x38DD JUMP JUMPDEST SWAP2 POP POP PUSH2 0xB2 JUMP JUMPDEST POP PUSH1 0x0 PUSH2 0x112 DUP3 DUP7 PUSH2 0x12E JUMP JUMPDEST EQ ISZERO PUSH2 0x122 JUMPI PUSH1 0x1 SWAP2 POP POP PUSH2 0x128 JUMP JUMPDEST PUSH1 0x0 SWAP2 POP POP JUMPDEST SWAP3 SWAP2 POP POP JUMP JUMPDEST PUSH1 0x0 DUP1 PUSH32 0x30644E72E131A029B85045B68181585D2833E84879B9709143E1F593F0000001 SWAP1 POP PUSH1 0x0 PUSH2 0x15E PUSH2 0x2C5 JUMP JUMPDEST SWAP1 POP DUP1 PUSH1 0x80 ADD MLOAD MLOAD PUSH1 0x1 DUP7 MLOAD PUSH2 0x174 SWAP2 SWAP1 PUSH2 0x37B2 JUMP JUMPDEST EQ PUSH2 0x17E JUMPI PUSH1 0x0 DUP1 REVERT JUMPDEST PUSH1 0x0 PUSH1 0x40 MLOAD DUP1 PUSH1 0x40 ADD PUSH1 0x40 MSTORE DUP1 PUSH1 0x0 DUP2 MSTORE PUSH1 0x20 ADD PUSH1 0x0 DUP2 MSTORE POP SWAP1 POP PUSH1 0x0 JUMPDEST DUP7 MLOAD DUP2 LT ISZERO PUSH2 0x237 JUMPI DUP4 DUP8 DUP3 DUP2 MLOAD DUP2 LT PUSH2 0x1B9 JUMPI PUSH2 0x1B8 PUSH2 0x39B5 JUMP JUMPDEST JUMPDEST PUSH1 0x20 MUL PUSH1 0x20 ADD ADD MLOAD LT PUSH2 0x1CB JUMPI PUSH1 0x0 DUP1 REVERT JUMPDEST PUSH2 0x222 DUP3 PUSH2 0x21D DUP6 PUSH1 0x80 ADD MLOAD PUSH1 0x1 DUP6 PUSH2 0x1E4 SWAP2 SWAP1 PUSH2 0x37B2 JUMP JUMPDEST DUP2 MLOAD DUP2 LT PUSH2 0x1F5 JUMPI PUSH2 0x1F4 PUSH2 0x39B5 JUMP JUMPDEST JUMPDEST PUSH1 0x20 MUL PUSH1 0x20 ADD ADD MLOAD DUP11 DUP6 DUP2 MLOAD DUP2 LT PUSH2 0x210 JUMPI PUSH2 0x20F PUSH2 0x39B5 JUMP JUMPDEST JUMPDEST PUSH1 0x20 MUL PUSH1 0x20 ADD ADD MLOAD PUSH2 0x2C47 JUMP JUMPDEST PUSH2 0x2CEE JUMP JUMPDEST SWAP2 POP DUP1 DUP1 PUSH2 0x22F SWAP1 PUSH2 0x38DD JUMP JUMPDEST SWAP2 POP POP PUSH2 0x19C JUMP JUMPDEST POP PUSH2 0x261 DUP2 DUP4 PUSH1 0x80 ADD MLOAD PUSH1 0x0 DUP2 MLOAD DUP2 LT PUSH2 0x254 JUMPI PUSH2 0x253 PUSH2 0x39B5 JUMP JUMPDEST JUMPDEST PUSH1 0x20 MUL PUSH1 0x20 ADD ADD MLOAD PUSH2 0x2CEE JUMP JUMPDEST SWAP1 POP PUSH2 0x2A7 DUP6 PUSH1 0x0 ADD MLOAD DUP7 PUSH1 0x20 ADD MLOAD PUSH2 0x279 DUP5 PUSH2 0x2DBB JUMP JUMPDEST DUP6 PUSH1 0x40 ADD MLOAD PUSH2 0x28B DUP11 PUSH1 0x40 ADD MLOAD PUSH2 0x2DBB JUMP JUMPDEST DUP8 PUSH1 0x60 ADD MLOAD PUSH2 0x29D DUP10 PUSH1 0x0 ADD MLOAD PUSH2 0x2DBB JUMP JUMPDEST DUP10 PUSH1 0x20 ADD MLOAD PUSH2 0x2E60 JUMP JUMPDEST PUSH2 0x2B7 JUMPI PUSH1 0x1 SWAP4 POP POP POP POP PUSH2 0x2BF JUMP JUMPDEST PUSH1 0x0 SWAP4 POP POP POP POP JUMPDEST SWAP3 SWAP2 POP POP JUMP JUMPDEST PUSH2 0x2CD PUSH2 0x3388 JUMP JUMPDEST PUSH1 0x40 MLOAD DUP1 PUSH1 0x40 ADD PUSH1 0x40 MSTORE DUP1 PUSH32 0x2B8F808F0C59EE9E10BED4A05F4E860587A72A60892744EA279B82941709F181 DUP2 MSTORE PUSH1 0x20 ADD PUSH32 0x7BC556C891897C7CB95129D12366E11B64BC0BC1A7952912AC93CDCF5AFC763 DUP2 MSTORE POP DUP2 PUSH1 0x0 ADD DUP2 SWAP1 MSTORE POP PUSH1 0x40 MLOAD DUP1 PUSH1 0x40 ADD PUSH1 0x40 MSTORE DUP1 PUSH1 0x40 MLOAD DUP1 PUSH1 0x40 ADD PUSH1 0x40 MSTORE DUP1 PUSH32 0x305D831804B456605E37E9844D7A613CC8BCFFFE9E8A23DC684AC3F82BC4EE5D DUP2 MSTORE PUSH1 0x20 ADD PUSH32 0x1B34A55531D4EDDA714D12FE0F3C35184C9D59B6E48839066517F986E2995DFA DUP2 MSTORE POP DUP2 MSTORE PUSH1 0x20 ADD PUSH1 0x40 MLOAD DUP1 PUSH1 0x40 ADD PUSH1 0x40 MSTORE DUP1 PUSH32 0xDA7F0515480703066D431BB4A6BD8F8241864EAE0EC4A5183486DB75A312B8F DUP2 MSTORE PUSH1 0x20 ADD PUSH31 0x460C53EA9F5A8BB9BF37E6716EED7F74199A54B3EBFD043D3954BB1A8413C0 DUP2 MSTORE POP DUP2 MSTORE POP DUP2 PUSH1 0x20 ADD DUP2 SWAP1 MSTORE POP PUSH1 0x40 MLOAD DUP1 PUSH1 0x40 ADD PUSH1 0x40 MSTORE DUP1 PUSH1 0x40 MLOAD DUP1 PUSH1 0x40 ADD PUSH1 0x40 MSTORE DUP1 PUSH32 0x1950004673EC441581F945C4604E8F6347449F56F399F5424219CC63599AF4FE DUP2 MSTORE PUSH1 0x20 ADD PUSH32 0x268A2B6A75AA656F8E4C8CC4744E467999ED3B2E3F5AF2858A7A9C09B3AC0AC3 DUP2 MSTORE POP DUP2 MSTORE PUSH1 0x20 ADD PUSH1 0x40 MLOAD DUP1 PUSH1 0x40 ADD PUSH1 0x40 MSTORE DUP1 PUSH32 0x1FACF4DE23189655098E0907BDADFF12F0A6F752BB088688A68593FED9317E2A DUP2 MSTORE PUSH1 0x20 ADD PUSH32 0x2ABF066CF0513F57F8E51823389D61405A7C3EADE00BD62B29ECA6892EA292B3 DUP2 MSTORE POP DUP2 MSTORE POP DUP2 PUSH1 0x40 ADD DUP2 SWAP1 MSTORE POP PUSH1 0x40 MLOAD DUP1 PUSH1 0x40 ADD PUSH1 0x40 MSTORE DUP1 PUSH1 0x40 MLOAD DUP1 PUSH1 0x40 ADD PUSH1 0x40 MSTORE DUP1 PUSH32 0x28F6E07E88C6E6BDFE9E5F7F18B8936591913E2D937511B22731E3E100B04414 DUP2 MSTORE PUSH1 0x20 ADD PUSH32 0xC9F32D68DE80AE7B1D78BE828DD72A1EA0171273B924C4FD797D0AF5DAE8AFA DUP2 MSTORE POP DUP2 MSTORE PUSH1 0x20 ADD PUSH1 0x40 MLOAD DUP1 PUSH1 0x40 ADD PUSH1 0x40 MSTORE DUP1 PUSH32 0xE5521DBE05D26CE36A27C3A35FC748FD8ECD3F805E1F0F3C63A931CF48BEDAE DUP2 MSTORE PUSH1 0x20 ADD PUSH32 0x2C0622565578621DDC7F7969F42E0861A50A5CCC4A512224B6795336BA3261D DUP2 MSTORE POP DUP2 MSTORE POP DUP2 PUSH1 0x60 ADD DUP2 SWAP1 MSTORE POP PUSH1 0x52 PUSH8 0xFFFFFFFFFFFFFFFF DUP2 GT ISZERO PUSH2 0x593 JUMPI PUSH2 0x592 PUSH2 0x39E4 JUMP JUMPDEST JUMPDEST PUSH1 0x40 MLOAD SWAP1 DUP1 DUP3 MSTORE DUP1 PUSH1 0x20 MUL PUSH1 0x20 ADD DUP3 ADD PUSH1 0x40 MSTORE DUP1 ISZERO PUSH2 0x5CC JUMPI DUP2 PUSH1 0x20 ADD JUMPDEST PUSH2 0x5B9 PUSH2 0x33CF JUMP JUMPDEST DUP2 MSTORE PUSH1 0x20 ADD SWAP1 PUSH1 0x1 SWAP1 SUB SWAP1 DUP2 PUSH2 0x5B1 JUMPI SWAP1 POP JUMPDEST POP DUP2 PUSH1 0x80 ADD DUP2 SWAP1 MSTORE POP PUSH1 0x40 MLOAD DUP1 PUSH1 0x40 ADD PUSH1 0x40 MSTORE DUP1 PUSH32 0x1D76732270C37E5CC7A7DFB6ACC64751C737DC9B6CBE865B9AF4F19F1FB87672 DUP2 MSTORE PUSH1 0x20 ADD PUSH32 0x201E3D4F7959CEC5600499B924DAC2D507809954C55AC9067124E866108ACB65 DUP2 MSTORE POP DUP2 PUSH1 0x80 ADD MLOAD PUSH1 0x0 DUP2 MLOAD DUP2 LT PUSH2 0x642 JUMPI PUSH2 0x641 PUSH2 0x39B5 JUMP JUMPDEST JUMPDEST PUSH1 0x20 MUL PUSH1 0x20 ADD ADD DUP2 SWAP1 MSTORE POP PUSH1 0x40 MLOAD DUP1 PUSH1 0x40 ADD PUSH1 0x40 MSTORE DUP1 PUSH32 0x28308B88C19B06BFC35D0BDEA051A618F56D12E52AD99E1565812AAD5BE6A059 DUP2 MSTORE PUSH1 0x20 ADD PUSH32 0xC017100B5FFCE58353E7BB0CAF8A5E7C15BD17A60B043908E96B7CAB2FABE3B DUP2 MSTORE POP DUP2 PUSH1 0x80 ADD MLOAD PUSH1 0x1 DUP2 MLOAD DUP2 LT PUSH2 0x6BA JUMPI PUSH2 0x6B9 PUSH2 0x39B5 JUMP JUMPDEST JUMPDEST PUSH1 0x20 MUL PUSH1 0x20 ADD ADD DUP2 SWAP1 MSTORE POP PUSH1 0x40 MLOAD DUP1 PUSH1 0x40 ADD PUSH1 0x40 MSTORE DUP1 PUSH32 0x651D224CA61DB513CFAE371E465454D4ADAC72CD7F61D2D8A9845137B5E170B DUP2 MSTORE PUSH1 0x20 ADD PUSH32 0x186797C2B751B47E435FE529029E25DC60EFEE15C207DA37EB9382F986930C8B DUP2 MSTORE POP DUP2 PUSH1 0x80 ADD MLOAD PUSH1 0x2 DUP2 MLOAD DUP2 LT PUSH2 0x732 JUMPI PUSH2 0x731 PUSH2 0x39B5 JUMP JUMPDEST JUMPDEST PUSH1 0x20 MUL PUSH1 0x20 ADD ADD DUP2 SWAP1 MSTORE POP PUSH1 0x40 MLOAD DUP1 PUSH1 0x40 ADD PUSH1 0x40 MSTORE DUP1 PUSH32 0x1BBED9AC9C10FEECB4FA8E44F5617A7EDC3D6DB5087F88983FDFE4AE2AF61E42 DUP2 MSTORE PUSH1 0x20 ADD PUSH32 0x263951A2A6B7D10340DF990B1EB58A46439BAC9480DF35A9A6EC44EE180C94B3 DUP2 MSTORE POP DUP2 PUSH1 0x80 ADD MLOAD PUSH1 0x3 DUP2 MLOAD DUP2 LT PUSH2 0x7AA JUMPI PUSH2 0x7A9 PUSH2 0x39B5 JUMP JUMPDEST JUMPDEST PUSH1 0x20 MUL PUSH1 0x20 ADD ADD DUP2 SWAP1 MSTORE POP PUSH1 0x40 MLOAD DUP1 PUSH1 0x40 ADD PUSH1 0x40 MSTORE DUP1 PUSH32 0x6638AE27BCA2AC943A580A97E48EF939909F975AED6ED7ADBD3DDDECE22E80B DUP2 MSTORE PUSH1 0x20 ADD PUSH32 0x24F50B514916C08D177FDA5A876AF3D2839EC4617DDAE958A91C76A8B04AECE DUP2 MSTORE POP DUP2 PUSH1 0x80 ADD MLOAD PUSH1 0x4 DUP2 MLOAD DUP2 LT PUSH2 0x822 JUMPI PUSH2 0x821 PUSH2 0x39B5 JUMP JUMPDEST JUMPDEST PUSH1 0x20 MUL PUSH1 0x20 ADD ADD DUP2 SWAP1 MSTORE POP PUSH1 0x40 MLOAD DUP1 PUSH1 0x40 ADD PUSH1 0x40 MSTORE DUP1 PUSH32 0x1CA5738DC18CC0AF7B08FC71AA1868C35AEF50F07574B31B8D42F9198019F9B DUP2 MSTORE PUSH1 0x20 ADD PUSH32 0x2D7EE3443AB1B2CE564EB8DC92D949C37040DE18606C14DD93EA1FE83EBD1D0A DUP2 MSTORE POP DUP2 PUSH1 0x80 ADD MLOAD PUSH1 0x5 DUP2 MLOAD DUP2 LT PUSH2 0x89A JUMPI PUSH2 0x899 PUSH2 0x39B5 JUMP JUMPDEST JUMPDEST PUSH1 0x20 MUL PUSH1 0x20 ADD ADD DUP2 SWAP1 MSTORE POP PUSH1 0x40 MLOAD DUP1 PUSH1 0x40 ADD PUSH1 0x40 MSTORE DUP1 PUSH32 0x4DDF1582C4F7A3F0D60EE6FDB67172F4F725E2E2F242FD79E0E787C1D9853F5 DUP2 MSTORE PUSH1 0x20 ADD PUSH32 0x5180499139F73D43683EC41066A8CDCE10C8C5FFDF931A6A42F144571807853 DUP2 MSTORE POP DUP2 PUSH1 0x80 ADD MLOAD PUSH1 0x6 DUP2 MLOAD DUP2 LT PUSH2 0x912 JUMPI PUSH2 0x911 PUSH2 0x39B5 JUMP JUMPDEST JUMPDEST PUSH1 0x20 MUL PUSH1 0x20 ADD ADD DUP2 SWAP1 MSTORE POP PUSH1 0x40 MLOAD DUP1 PUSH1 0x40 ADD PUSH1 0x40 MSTORE DUP1 PUSH31 0x370DED6B5AFC6C766C6B1C31B586A988E5D2D98B44C98B511763890AA66799 DUP2 MSTORE PUSH1 0x20 ADD PUSH32 0x1190063E48DB1AA62959846C77AE6698171155F6E8874B5443615E9AB3915F24 DUP2 MSTORE POP DUP2 PUSH1 0x80 ADD MLOAD PUSH1 0x7 DUP2 MLOAD DUP2 LT PUSH2 0x989 JUMPI PUSH2 0x988 PUSH2 0x39B5 JUMP JUMPDEST JUMPDEST PUSH1 0x20 MUL PUSH1 0x20 ADD ADD DUP2 SWAP1 MSTORE POP PUSH1 0x40 MLOAD DUP1 PUSH1 0x40 ADD PUSH1 0x40 MSTORE DUP1 PUSH32 0x1E486ADBE00C33A19759921894B6A6597BE16128F02261C417CF09CD7D2EECC9 DUP2 MSTORE PUSH1 0x20 ADD PUSH32 0x161932EDEB7A2344E317BF3606534769BDCFA34E0145CE1AE587845D4AF9762A DUP2 MSTORE POP DUP2 PUSH1 0x80 ADD MLOAD PUSH1 0x8 DUP2 MLOAD DUP2 LT PUSH2 0xA01 JUMPI PUSH2 0xA00 PUSH2 0x39B5 JUMP JUMPDEST JUMPDEST PUSH1 0x20 MUL PUSH1 0x20 ADD ADD DUP2 SWAP1 MSTORE POP PUSH1 0x40 MLOAD DUP1 PUSH1 0x40 ADD PUSH1 0x40 MSTORE DUP1 PUSH32 0x14FE2B6947E472592748997F854E325098F2AA5ADE99D05A704AFCDDBF0FC8AA DUP2 MSTORE PUSH1 0x20 ADD PUSH32 0xFDFF3A959A4820C006A68AC1BDE9E67E021DC4DD7B4EBF359C8FD827275B428 DUP2 MSTORE POP DUP2 PUSH1 0x80 ADD MLOAD PUSH1 0x9 DUP2 MLOAD DUP2 LT PUSH2 0xA79 JUMPI PUSH2 0xA78 PUSH2 0x39B5 JUMP JUMPDEST JUMPDEST PUSH1 0x20 MUL PUSH1 0x20 ADD ADD DUP2 SWAP1 MSTORE POP PUSH1 0x40 MLOAD DUP1 PUSH1 0x40 ADD PUSH1 0x40 MSTORE DUP1 PUSH32 0xB2820941C86160BC9EC41A837F1EC878EE576021127E7079DE44992C7261475 DUP2 MSTORE PUSH1 0x20 ADD PUSH32 0x439A36EDECE22D1782AAEA533850D3C8125931FB1C58A74DFD610AE93E828AE DUP2 MSTORE POP DUP2 PUSH1 0x80 ADD MLOAD PUSH1 0xA DUP2 MLOAD DUP2 LT PUSH2 0xAF1 JUMPI PUSH2 0xAF0 PUSH2 0x39B5 JUMP JUMPDEST JUMPDEST PUSH1 0x20 MUL PUSH1 0x20 ADD ADD DUP2 SWAP1 MSTORE POP PUSH1 0x40 MLOAD DUP1 PUSH1 0x40 ADD PUSH1 0x40 MSTORE DUP1 PUSH32 0x21BEAC1EE6B407FE70285B9C80CEE5A7445C0DEDB17ED50827949F17FAA5029C DUP2 MSTORE PUSH1 0x20 ADD PUSH32 0x27C75FB95F41ACB1386DF7A3D6558B63A0A254FC6219533A65EFA360B0FA478F DUP2 MSTORE POP DUP2 PUSH1 0x80 ADD MLOAD PUSH1 0xB DUP2 MLOAD DUP2 LT PUSH2 0xB69 JUMPI PUSH2 0xB68 PUSH2 0x39B5 JUMP JUMPDEST JUMPDEST PUSH1 0x20 MUL PUSH1 0x20 ADD ADD DUP2 SWAP1 MSTORE POP PUSH1 0x40 MLOAD DUP1 PUSH1 0x40 ADD PUSH1 0x40 MSTORE DUP1 PUSH32 0x12ED5939F8B4AB4FE9CF1945C56FEDA13FF44B30EE91D9D974A69799EFAF41AD DUP2 MSTORE PUSH1 0x20 ADD PUSH32 0x1D1D40DF32EAC3C51382CF6BAC0832F59CFF77E378C7477CA59650EB57FF636A DUP2 MSTORE POP DUP2 PUSH1 0x80 ADD MLOAD PUSH1 0xC DUP2 MLOAD DUP2 LT PUSH2 0xBE1 JUMPI PUSH2 0xBE0 PUSH2 0x39B5 JUMP JUMPDEST JUMPDEST PUSH1 0x20 MUL PUSH1 0x20 ADD ADD DUP2 SWAP1 MSTORE POP PUSH1 0x40 MLOAD DUP1 PUSH1 0x40 ADD PUSH1 0x40 MSTORE DUP1 PUSH32 0x1BC46D057485C106D03F3B340B4FFCC7F590EFA46368B40CDB8D073401F77EF9 DUP2 MSTORE PUSH1 0x20 ADD PUSH32 0x8D2237CB340F626EF41DFB195C65FB763CCC4FD5F8DDEC89CAF506BD5ECE9C3 DUP2 MSTORE POP DUP2 PUSH1 0x80 ADD MLOAD PUSH1 0xD DUP2 MLOAD DUP2 LT PUSH2 0xC59 JUMPI PUSH2 0xC58 PUSH2 0x39B5 JUMP JUMPDEST JUMPDEST PUSH1 0x20 MUL PUSH1 0x20 ADD ADD DUP2 SWAP1 MSTORE POP PUSH1 0x40 MLOAD DUP1 PUSH1 0x40 ADD PUSH1 0x40 MSTORE DUP1 PUSH32 0x2E02CF420C63657DEE4169C9AB72E648015262DD73F44E6BA5AFA8416A1D333B DUP2 MSTORE PUSH1 0x20 ADD PUSH32 0x1497C9E77FB9958B16871B12B91B468D2BB0AC43BD8C4B7639A70F0892D510CD DUP2 MSTORE POP DUP2 PUSH1 0x80 ADD MLOAD PUSH1 0xE DUP2 MLOAD DUP2 LT PUSH2 0xCD1 JUMPI PUSH2 0xCD0 PUSH2 0x39B5 JUMP JUMPDEST JUMPDEST PUSH1 0x20 MUL PUSH1 0x20 ADD ADD DUP2 SWAP1 MSTORE POP PUSH1 0x40 MLOAD DUP1 PUSH1 0x40 ADD PUSH1 0x40 MSTORE DUP1 PUSH32 0x180B9304376F99433D19E1CB1CA92D0A677D33DB1BE944F543255AA19B5641F7 DUP2 MSTORE PUSH1 0x20 ADD PUSH32 0x1E25B8219732A24FE018B05179CFBADFD7D21019BA25DBA201C2956353123145 DUP2 MSTORE POP DUP2 PUSH1 0x80 ADD MLOAD PUSH1 0xF DUP2 MLOAD DUP2 LT PUSH2 0xD49 JUMPI PUSH2 0xD48 PUSH2 0x39B5 JUMP JUMPDEST JUMPDEST PUSH1 0x20 MUL PUSH1 0x20 ADD ADD DUP2 SWAP1 MSTORE POP PUSH1 0x40 MLOAD DUP1 PUSH1 0x40 ADD PUSH1 0x40 MSTORE DUP1 PUSH32 0x1FE9F70820764E50188C346B034642DDC01AD82F3C09A1F98888C29982E9B7A5 DUP2 MSTORE PUSH1 0x20 ADD PUSH32 0xDC8CB9AD2F2BC2D00E81D9283C15CD9D25A005B0B43A9694D24B4F27CCF5A59 DUP2 MSTORE POP DUP2 PUSH1 0x80 ADD MLOAD PUSH1 0x10 DUP2 MLOAD DUP2 LT PUSH2 0xDC1 JUMPI PUSH2 0xDC0 PUSH2 0x39B5 JUMP JUMPDEST JUMPDEST PUSH1 0x20 MUL PUSH1 0x20 ADD ADD DUP2 SWAP1 MSTORE POP PUSH1 0x40 MLOAD DUP1 PUSH1 0x40 ADD PUSH1 0x40 MSTORE DUP1 PUSH32 0x1CF298B87B0581894BD4E16555765873CA7A0E1E6886F32BF51542EC466596E0 DUP2 MSTORE PUSH1 0x20 ADD PUSH32 0x14FE1B25C66B9F4EBDE4ECEA93E666D18A1BDB347212D4509C3E2F9CF469A088 DUP2 MSTORE POP DUP2 PUSH1 0x80 ADD MLOAD PUSH1 0x11 DUP2 MLOAD DUP2 LT PUSH2 0xE39 JUMPI PUSH2 0xE38 PUSH2 0x39B5 JUMP JUMPDEST JUMPDEST PUSH1 0x20 MUL PUSH1 0x20 ADD ADD DUP2 SWAP1 MSTORE POP PUSH1 0x40 MLOAD DUP1 PUSH1 0x40 ADD PUSH1 0x40 MSTORE DUP1 PUSH32 0x24CD0D668E93100F41A4082CDE60B23485A10A30FE996F826DAD5461E5E7AFAC DUP2 MSTORE PUSH1 0x20 ADD PUSH32 0xFFC522000E19DC8CE7123E342BF50EA2CB9DC1220177CF0435354B1F499A2BD DUP2 MSTORE POP DUP2 PUSH1 0x80 ADD MLOAD PUSH1 0x12 DUP2 MLOAD DUP2 LT PUSH2 0xEB1 JUMPI PUSH2 0xEB0 PUSH2 0x39B5 JUMP JUMPDEST JUMPDEST PUSH1 0x20 MUL PUSH1 0x20 ADD ADD DUP2 SWAP1 MSTORE POP PUSH1 0x40 MLOAD DUP1 PUSH1 0x40 ADD PUSH1 0x40 MSTORE DUP1 PUSH32 0x2F3131DAD86E468FA56DCACE00127883E33C1D37FA0194F17CCAAF2F5D7CA366 DUP2 MSTORE PUSH1 0x20 ADD PUSH32 0x224C8A9A450B06896205C49658B3A4A3AC18374CD3FE24910832274DC3D11169 DUP2 MSTORE POP DUP2 PUSH1 0x80 ADD MLOAD PUSH1 0x13 DUP2 MLOAD DUP2 LT PUSH2 0xF29 JUMPI PUSH2 0xF28 PUSH2 0x39B5 JUMP JUMPDEST JUMPDEST PUSH1 0x20 MUL PUSH1 0x20 ADD ADD DUP2 SWAP1 MSTORE POP PUSH1 0x40 MLOAD DUP1 PUSH1 0x40 ADD PUSH1 0x40 MSTORE DUP1 PUSH32 0x65998167E81F9F5C83FA57347D83098A0DACA467D4768AE2EAE85B3EC78B3A2 DUP2 MSTORE PUSH1 0x20 ADD PUSH32 0x29F580FB0C9DAC3693ADE9AFCDE73035B558D3B1C8345F64766B166D3C400B63 DUP2 MSTORE POP DUP2 PUSH1 0x80 ADD MLOAD PUSH1 0x14 DUP2 MLOAD DUP2 LT PUSH2 0xFA1 JUMPI PUSH2 0xFA0 PUSH2 0x39B5 JUMP JUMPDEST JUMPDEST PUSH1 0x20 MUL PUSH1 0x20 ADD ADD DUP2 SWAP1 MSTORE POP PUSH1 0x40 MLOAD DUP1 PUSH1 0x40 ADD PUSH1 0x40 MSTORE DUP1 PUSH32 0x2012020BE15E814B944A26D3109479EE28B0E85F3D14704AC5D141C8A76A547F DUP2 MSTORE PUSH1 0x20 ADD PUSH32 0x1E13044B759307C725028910F7F8D749B6E2E2BFE6640354E946EA9B58AF63F0 DUP2 MSTORE POP DUP2 PUSH1 0x80 ADD MLOAD PUSH1 0x15 DUP2 MLOAD DUP2 LT PUSH2 0x1019 JUMPI PUSH2 0x1018 PUSH2 0x39B5 JUMP JUMPDEST JUMPDEST PUSH1 0x20 MUL PUSH1 0x20 ADD ADD DUP2 SWAP1 MSTORE POP PUSH1 0x40 MLOAD DUP1 PUSH1 0x40 ADD PUSH1 0x40 MSTORE DUP1 PUSH32 0x1DA24732E012DCF09D855CD8C1FAE841A94C0920C6DDB7F9A7B8DCF27CAB2172 DUP2 MSTORE PUSH1 0x20 ADD PUSH32 0x46CC1A06162148F2C0EBE318A9187BA53B73E47EC773F77B09CE2558E892D5E DUP2 MSTORE POP DUP2 PUSH1 0x80 ADD MLOAD PUSH1 0x16 DUP2 MLOAD DUP2 LT PUSH2 0x1091 JUMPI PUSH2 0x1090 PUSH2 0x39B5 JUMP JUMPDEST JUMPDEST PUSH1 0x20 MUL PUSH1 0x20 ADD ADD DUP2 SWAP1 MSTORE POP PUSH1 0x40 MLOAD DUP1 PUSH1 0x40 ADD PUSH1 0x40 MSTORE DUP1 PUSH32 0x2F2D93F8D2AD9323AD2C4C0CDA9659BBC71C8050318A90EC9AB7E81AE8BE6D01 DUP2 MSTORE PUSH1 0x20 ADD PUSH32 0x2CC13CD666348C7A66FAE9483381331F0EDAAA3EEC8B8552C10DC0ECF22B46B9 DUP2 MSTORE POP DUP2 PUSH1 0x80 ADD MLOAD PUSH1 0x17 DUP2 MLOAD DUP2 LT PUSH2 0x1109 JUMPI PUSH2 0x1108 PUSH2 0x39B5 JUMP JUMPDEST JUMPDEST PUSH1 0x20 MUL PUSH1 0x20 ADD ADD DUP2 SWAP1 MSTORE POP PUSH1 0x40 MLOAD DUP1 PUSH1 0x40 ADD PUSH1 0x40 MSTORE DUP1 PUSH32 0x2B442D530049352E5D8E38B0B7EE03EA8C7DBBFE0BBDC1913FB2BF87027F3BF9 DUP2 MSTORE PUSH1 0x20 ADD PUSH32 0x2BF600F16A4C3DBD643AC6F240B91A63C5B62F8B68CE723AE86610D0B1A5C202 DUP2 MSTORE POP DUP2 PUSH1 0x80 ADD MLOAD PUSH1 0x18 DUP2 MLOAD DUP2 LT PUSH2 0x1181 JUMPI PUSH2 0x1180 PUSH2 0x39B5 JUMP JUMPDEST JUMPDEST PUSH1 0x20 MUL PUSH1 0x20 ADD ADD DUP2 SWAP1 MSTORE POP PUSH1 0x40 MLOAD DUP1 PUSH1 0x40 ADD PUSH1 0x40 MSTORE DUP1 PUSH32 0x27E4AB12FFF93A24685BF555BEF392B6787A01E18080BC75BA676C525B9AFB4B DUP2 MSTORE PUSH1 0x20 ADD PUSH32 0x179660777BD4EEB680A0E87B5DD4D0BDE5FB80C87EDCD034AAC752B14AA8C383 DUP2 MSTORE POP DUP2 PUSH1 0x80 ADD MLOAD PUSH1 0x19 DUP2 MLOAD DUP2 LT PUSH2 0x11F9 JUMPI PUSH2 0x11F8 PUSH2 0x39B5 JUMP JUMPDEST JUMPDEST PUSH1 0x20 MUL PUSH1 0x20 ADD ADD DUP2 SWAP1 MSTORE POP PUSH1 0x40 MLOAD DUP1 PUSH1 0x40 ADD PUSH1 0x40 MSTORE DUP1 PUSH32 0x18BFE30A1C8EB9BAF2C52852DC84D3B18F39C9BB3E853A27948C3D4D45987AC0 DUP2 MSTORE PUSH1 0x20 ADD PUSH32 0x2055BE10368AB0579175012D4A5296410C53D09FD6C1AB31F8C30141A1D6B78B DUP2 MSTORE POP DUP2 PUSH1 0x80 ADD MLOAD PUSH1 0x1A DUP2 MLOAD DUP2 LT PUSH2 0x1271 JUMPI PUSH2 0x1270 PUSH2 0x39B5 JUMP JUMPDEST JUMPDEST PUSH1 0x20 MUL PUSH1 0x20 ADD ADD DUP2 SWAP1 MSTORE POP PUSH1 0x40 MLOAD DUP1 PUSH1 0x40 ADD PUSH1 0x40 MSTORE DUP1 PUSH32 0x23745ABF9CF3730877A814E0B85E5EB2B5607A4C9E2FE369B0C543A7F6B50C15 DUP2 MSTORE PUSH1 0x20 ADD PUSH32 0x1D81336CA41D38B9D4DC2C22D04E4FAAEC6E7553CADEC4CD287C5DF2BA4838F9 DUP2 MSTORE POP DUP2 PUSH1 0x80 ADD MLOAD PUSH1 0x1B DUP2 MLOAD DUP2 LT PUSH2 0x12E9 JUMPI PUSH2 0x12E8 PUSH2 0x39B5 JUMP JUMPDEST JUMPDEST PUSH1 0x20 MUL PUSH1 0x20 ADD ADD DUP2 SWAP1 MSTORE POP PUSH1 0x40 MLOAD DUP1 PUSH1 0x40 ADD PUSH1 0x40 MSTORE DUP1 PUSH32 0x22AFD2466FC028D58013C8C8AAA2BC79BC24515637974E4B22F289DF05216A84 DUP2 MSTORE PUSH1 0x20 ADD PUSH32 0xE3F24C9C6E05669CD409B6EC17F130ECBDC1C4CD30517ADE86D5979712A18C5 DUP2 MSTORE POP DUP2 PUSH1 0x80 ADD MLOAD PUSH1 0x1C DUP2 MLOAD DUP2 LT PUSH2 0x1361 JUMPI PUSH2 0x1360 PUSH2 0x39B5 JUMP JUMPDEST JUMPDEST PUSH1 0x20 MUL PUSH1 0x20 ADD ADD DUP2 SWAP1 MSTORE POP PUSH1 0x40 MLOAD DUP1 PUSH1 0x40 ADD PUSH1 0x40 MSTORE DUP1 PUSH32 0xC593CDADD3A81B4DBD39CCB2426FDEE09651E20EBA5DF8F1AC07F95EBF4BBEA DUP2 MSTORE PUSH1 0x20 ADD PUSH32 0x206DA793A2E36D0CD2844643EE3F1C842584AAFABE759CEE968DFE90DA5CF24A DUP2 MSTORE POP DUP2 PUSH1 0x80 ADD MLOAD PUSH1 0x1D DUP2 MLOAD DUP2 LT PUSH2 0x13D9 JUMPI PUSH2 0x13D8 PUSH2 0x39B5 JUMP JUMPDEST JUMPDEST PUSH1 0x20 MUL PUSH1 0x20 ADD ADD DUP2 SWAP1 MSTORE POP PUSH1 0x40 MLOAD DUP1 PUSH1 0x40 ADD PUSH1 0x40 MSTORE DUP1 PUSH32 0xB85ADF426D0969F617275F353267A8467702EB9E59ED21C41C54573EB354171 DUP2 MSTORE PUSH1 0x20 ADD PUSH32 0x58835246DCE9B8B22B63225C3448623516921708518481715680DEB56E94F6F DUP2 MSTORE POP DUP2 PUSH1 0x80 ADD MLOAD PUSH1 0x1E DUP2 MLOAD DUP2 LT PUSH2 0x1451 JUMPI PUSH2 0x1450 PUSH2 0x39B5 JUMP JUMPDEST JUMPDEST PUSH1 0x20 MUL PUSH1 0x20 ADD ADD DUP2 SWAP1 MSTORE POP PUSH1 0x40 MLOAD DUP1 PUSH1 0x40 ADD PUSH1 0x40 MSTORE DUP1 PUSH32 0x65A96A1FDBF31D7C9454329B46579E68D776ABF53D0D9BCEAFC0C2C07AC7F29 DUP2 MSTORE PUSH1 0x20 ADD PUSH32 0x1244B1EBD4A566ACCAAFB0266C755E2050A317F7C41022A15872D23B2766D68A DUP2 MSTORE POP DUP2 PUSH1 0x80 ADD MLOAD PUSH1 0x1F DUP2 MLOAD DUP2 LT PUSH2 0x14C9 JUMPI PUSH2 0x14C8 PUSH2 0x39B5 JUMP JUMPDEST JUMPDEST PUSH1 0x20 MUL PUSH1 0x20 ADD ADD DUP2 SWAP1 MSTORE POP PUSH1 0x40 MLOAD DUP1 PUSH1 0x40 ADD PUSH1 0x40 MSTORE DUP1 PUSH32 0x10FA161F039EE5EDADCB5D0F4239B6081B84497A61B9C35A52731BA5EB0326B5 DUP2 MSTORE PUSH1 0x20 ADD PUSH32 0x22AD07EBA118E35CFD6B85CB3091E2B3DCCF77D448B045BEA9DE2EC1CDC87EA5 DUP2 MSTORE POP DUP2 PUSH1 0x80 ADD MLOAD PUSH1 0x20 DUP2 MLOAD DUP2 LT PUSH2 0x1541 JUMPI PUSH2 0x1540 PUSH2 0x39B5 JUMP JUMPDEST JUMPDEST PUSH1 0x20 MUL PUSH1 0x20 ADD ADD DUP2 SWAP1 MSTORE POP PUSH1 0x40 MLOAD DUP1 PUSH1 0x40 ADD PUSH1 0x40 MSTORE DUP1 PUSH32 0xE45145CAF15F6095797E471642FD025CCB206896EBD053DF144251F9647A230 DUP2 MSTORE PUSH1 0x20 ADD PUSH32 0x3CF5DB66D08705E033D3C83933EA4B7EE1B82AA40307F4A1DEC9B49EE05270E DUP2 MSTORE POP DUP2 PUSH1 0x80 ADD MLOAD PUSH1 0x21 DUP2 MLOAD DUP2 LT PUSH2 0x15B9 JUMPI PUSH2 0x15B8 PUSH2 0x39B5 JUMP JUMPDEST JUMPDEST PUSH1 0x20 MUL PUSH1 0x20 ADD ADD DUP2 SWAP1 MSTORE POP PUSH1 0x40 MLOAD DUP1 PUSH1 0x40 ADD PUSH1 0x40 MSTORE DUP1 PUSH32 0x2D4EAEDEFD1FB7BDBA4E0025449775656393FD261A7E8802A1CC85A0DB248DA8 DUP2 MSTORE PUSH1 0x20 ADD PUSH32 0x261C6FA7F0CD622E19D7704CBAA5DFB2FC9F9192A1529B80EC244BB7B530FAB9 DUP2 MSTORE POP DUP2 PUSH1 0x80 ADD MLOAD PUSH1 0x22 DUP2 MLOAD DUP2 LT PUSH2 0x1631 JUMPI PUSH2 0x1630 PUSH2 0x39B5 JUMP JUMPDEST JUMPDEST PUSH1 0x20 MUL PUSH1 0x20 ADD ADD DUP2 SWAP1 MSTORE POP PUSH1 0x40 MLOAD DUP1 PUSH1 0x40 ADD PUSH1 0x40 MSTORE DUP1 PUSH32 0xC9FC9581E737CE7DCD32D31369D0EB3918AE4ADA30AF25A4B42E87D1BDA30D9 DUP2 MSTORE PUSH1 0x20 ADD PUSH32 0x14203AC8E540474DAC9498737C17A4E632A6CCA94003BCF37216D670A5B6A28B DUP2 MSTORE POP DUP2 PUSH1 0x80 ADD MLOAD PUSH1 0x23 DUP2 MLOAD DUP2 LT PUSH2 0x16A9 JUMPI PUSH2 0x16A8 PUSH2 0x39B5 JUMP JUMPDEST JUMPDEST PUSH1 0x20 MUL PUSH1 0x20 ADD ADD DUP2 SWAP1 MSTORE POP PUSH1 0x40 MLOAD DUP1 PUSH1 0x40 ADD PUSH1 0x40 MSTORE DUP1 PUSH32 0x6597EEEFF3138452891433D24881FDF5316954618C2F996B21B4600246A94FD DUP2 MSTORE PUSH1 0x20 ADD PUSH32 0x1164ED7D4504190464AD846A0DC582AA0F91C3B56274501FBCAC1447F437D34B DUP2 MSTORE POP DUP2 PUSH1 0x80 ADD MLOAD PUSH1 0x24 DUP2 MLOAD DUP2 LT PUSH2 0x1721 JUMPI PUSH2 0x1720 PUSH2 0x39B5 JUMP JUMPDEST JUMPDEST PUSH1 0x20 MUL PUSH1 0x20 ADD ADD DUP2 SWAP1 MSTORE POP PUSH1 0x40 MLOAD DUP1 PUSH1 0x40 ADD PUSH1 0x40 MSTORE DUP1 PUSH32 0x25055D5C8721C57795F1998879874A403D5CCB6A57293EB96F4B31743CFFBE77 DUP2 MSTORE PUSH1 0x20 ADD PUSH32 0x2A83D717C34EE91D386B8FAA4DC633CD9ED3433A63005C55F3F6319FCE7E49CC DUP2 MSTORE POP DUP2 PUSH1 0x80 ADD MLOAD PUSH1 0x25 DUP2 MLOAD DUP2 LT PUSH2 0x1799 JUMPI PUSH2 0x1798 PUSH2 0x39B5 JUMP JUMPDEST JUMPDEST PUSH1 0x20 MUL PUSH1 0x20 ADD ADD DUP2 SWAP1 MSTORE POP PUSH1 0x40 MLOAD DUP1 PUSH1 0x40 ADD PUSH1 0x40 MSTORE DUP1 PUSH32 0xDEB2242EE918A981B71BFA9AF23D81C4471F5320517945F5D54D5DBC3EBC3E6 DUP2 MSTORE PUSH1 0x20 ADD PUSH32 0x4773C22094671DE0C77CD056B228926AEEBA8AD9127DF5FE1D5E8ED93C1FB5E DUP2 MSTORE POP DUP2 PUSH1 0x80 ADD MLOAD PUSH1 0x26 DUP2 MLOAD DUP2 LT PUSH2 0x1811 JUMPI PUSH2 0x1810 PUSH2 0x39B5 JUMP JUMPDEST JUMPDEST PUSH1 0x20 MUL PUSH1 0x20 ADD ADD DUP2 SWAP1 MSTORE POP PUSH1 0x40 MLOAD DUP1 PUSH1 0x40 ADD PUSH1 0x40 MSTORE DUP1 PUSH32 0x289F3D488ACCE2727438516C22A23A9DE5540CE926456FD0A4AAAAE8445B8499 DUP2 MSTORE PUSH1 0x20 ADD PUSH32 0x1B95DF75164291FE0980670144AC88C44AE53901C3864E7C78B17F1CC43381FA DUP2 MSTORE POP DUP2 PUSH1 0x80 ADD MLOAD PUSH1 0x27 DUP2 MLOAD DUP2 LT PUSH2 0x1889 JUMPI PUSH2 0x1888 PUSH2 0x39B5 JUMP JUMPDEST JUMPDEST PUSH1 0x20 MUL PUSH1 0x20 ADD ADD DUP2 SWAP1 MSTORE POP PUSH1 0x40 MLOAD DUP1 PUSH1 0x40 ADD PUSH1 0x40 MSTORE DUP1 PUSH32 0xFA7BDEF79B07F8AF2A962974CBC8BEBC49F3E1705AEFCA70096065E0469DB2E DUP2 MSTORE PUSH1 0x20 ADD PUSH32 0x247477255D906614C551C359DCE06A5663E4C36F90F35E3800D5E57443D1CDEA DUP2 MSTORE POP DUP2 PUSH1 0x80 ADD MLOAD PUSH1 0x28 DUP2 MLOAD DUP2 LT PUSH2 0x1901 JUMPI PUSH2 0x1900 PUSH2 0x39B5 JUMP JUMPDEST JUMPDEST PUSH1 0x20 MUL PUSH1 0x20 ADD ADD DUP2 SWAP1 MSTORE POP PUSH1 0x40 MLOAD DUP1 PUSH1 0x40 ADD PUSH1 0x40 MSTORE DUP1 PUSH32 0x36D9EB20C2C02D680C29F44624E5C01040A163409559C28F41D5634DECD92A7 DUP2 MSTORE PUSH1 0x20 ADD PUSH32 0x244F2E76644ECD74CE8C6CF9458A7A0152734697ABE6FC6EB023315F86AAF5F2 DUP2 MSTORE POP DUP2 PUSH1 0x80 ADD MLOAD PUSH1 0x29 DUP2 MLOAD DUP2 LT PUSH2 0x1979 JUMPI PUSH2 0x1978 PUSH2 0x39B5 JUMP JUMPDEST JUMPDEST PUSH1 0x20 MUL PUSH1 0x20 ADD ADD DUP2 SWAP1 MSTORE POP PUSH1 0x40 MLOAD DUP1 PUSH1 0x40 ADD PUSH1 0x40 MSTORE DUP1 PUSH32 0x28DD925A1012487E3330B129284B8985DF802C9950895DC53D3B0F550CFB3015 DUP2 MSTORE PUSH1 0x20 ADD PUSH32 0x1CFA08B7D09291F571EC72B5DDF4726C32BC9B05B7F20E8241144A3F5DA51A04 DUP2 MSTORE POP DUP2 PUSH1 0x80 ADD MLOAD PUSH1 0x2A DUP2 MLOAD DUP2 LT PUSH2 0x19F1 JUMPI PUSH2 0x19F0 PUSH2 0x39B5 JUMP JUMPDEST JUMPDEST PUSH1 0x20 MUL PUSH1 0x20 ADD ADD DUP2 SWAP1 MSTORE POP PUSH1 0x40 MLOAD DUP1 PUSH1 0x40 ADD PUSH1 0x40 MSTORE DUP1 PUSH32 0x16912DD99715463B89C023D947EAEE1F178B711E4874D80627DD233C561C4E44 DUP2 MSTORE PUSH1 0x20 ADD PUSH32 0x201FA0727F0B9B906BB1C676745FE4C8B3BA755E45FD8FA25C86274A4F14B843 DUP2 MSTORE POP DUP2 PUSH1 0x80 ADD MLOAD PUSH1 0x2B DUP2 MLOAD DUP2 LT PUSH2 0x1A69 JUMPI PUSH2 0x1A68 PUSH2 0x39B5 JUMP JUMPDEST JUMPDEST PUSH1 0x20 MUL PUSH1 0x20 ADD ADD DUP2 SWAP1 MSTORE POP PUSH1 0x40 MLOAD DUP1 PUSH1 0x40 ADD PUSH1 0x40 MSTORE DUP1 PUSH32 0x700EC1BEB95C56909FE2A11AB64B3F7C2347EA02CA115FE0304087E6A7F582A DUP2 MSTORE PUSH1 0x20 ADD PUSH32 0x13DB93C7DCF9D175530FD059CB4072F82AC56779B5AB38FB94ACA8AF24E5153B DUP2 MSTORE POP DUP2 PUSH1 0x80 ADD MLOAD PUSH1 0x2C DUP2 MLOAD DUP2 LT PUSH2 0x1AE1 JUMPI PUSH2 0x1AE0 PUSH2 0x39B5 JUMP JUMPDEST JUMPDEST PUSH1 0x20 MUL PUSH1 0x20 ADD ADD DUP2 SWAP1 MSTORE POP PUSH1 0x40 MLOAD DUP1 PUSH1 0x40 ADD PUSH1 0x40 MSTORE DUP1 PUSH32 0x5BBD089AB2592F29E6A207A4AF1FD4D980A1433BBA652CB61906166C78A821C DUP2 MSTORE PUSH1 0x20 ADD PUSH32 0x2E5B1C0916B355DD09282CDDCD67F9776DAA7D2ACDB8919C4E8AE153812386CF DUP2 MSTORE POP DUP2 PUSH1 0x80 ADD MLOAD PUSH1 0x2D DUP2 MLOAD DUP2 LT PUSH2 0x1B59 JUMPI PUSH2 0x1B58 PUSH2 0x39B5 JUMP JUMPDEST JUMPDEST PUSH1 0x20 MUL PUSH1 0x20 ADD ADD DUP2 SWAP1 MSTORE POP PUSH1 0x40 MLOAD DUP1 PUSH1 0x40 ADD PUSH1 0x40 MSTORE DUP1 PUSH32 0x24A8362C215E16882DA2C5D18D4E425A893A5464B8F27D08BD7896DFC4BFC281 DUP2 MSTORE PUSH1 0x20 ADD PUSH32 0x1286A2B8E4D3EEB5587B462F620FFB4F1F556D37837397FE2EEA4F50A1C0BBF9 DUP2 MSTORE POP DUP2 PUSH1 0x80 ADD MLOAD PUSH1 0x2E DUP2 MLOAD DUP2 LT PUSH2 0x1BD1 JUMPI PUSH2 0x1BD0 PUSH2 0x39B5 JUMP JUMPDEST JUMPDEST PUSH1 0x20 MUL PUSH1 0x20 ADD ADD DUP2 SWAP1 MSTORE POP PUSH1 0x40 MLOAD DUP1 PUSH1 0x40 ADD PUSH1 0x40 MSTORE DUP1 PUSH32 0x2360EBAF387626D2087319D619AA8A3BC5F54B8F56E78E779C334BE241A46B33 DUP2 MSTORE PUSH1 0x20 ADD PUSH32 0x168E4C0315A6312BE73F23A71867824A60C94605B49FCBD9EAFC09713A06D876 DUP2 MSTORE POP DUP2 PUSH1 0x80 ADD MLOAD PUSH1 0x2F DUP2 MLOAD DUP2 LT PUSH2 0x1C49 JUMPI PUSH2 0x1C48 PUSH2 0x39B5 JUMP JUMPDEST JUMPDEST PUSH1 0x20 MUL PUSH1 0x20 ADD ADD DUP2 SWAP1 MSTORE POP PUSH1 0x40 MLOAD DUP1 PUSH1 0x40 ADD PUSH1 0x40 MSTORE DUP1 PUSH32 0x2898CE2B1DBE77190102EACEB4719F8F0F2C9540ECB3772ADCEC447E36D7D630 DUP2 MSTORE PUSH1 0x20 ADD PUSH32 0x79D9560CC79B9194651F267A5AF8C0D43BF85D60992EA29DB32DBE8B9DDD4DC DUP2 MSTORE POP DUP2 PUSH1 0x80 ADD MLOAD PUSH1 0x30 DUP2 MLOAD DUP2 LT PUSH2 0x1CC1 JUMPI PUSH2 0x1CC0 PUSH2 0x39B5 JUMP JUMPDEST JUMPDEST PUSH1 0x20 MUL PUSH1 0x20 ADD ADD DUP2 SWAP1 MSTORE POP PUSH1 0x40 MLOAD DUP1 PUSH1 0x40 ADD PUSH1 0x40 MSTORE DUP1 PUSH32 0xB136E26436D50A70730DAC1896A50E731887117C360E8F8C751D00D59D5FE27 DUP2 MSTORE PUSH1 0x20 ADD PUSH32 0x24AF85C3E9D573ED8C07EF56D9D68E95BB2241C433FF99F4FDC8CCEC4B5C191E DUP2 MSTORE POP DUP2 PUSH1 0x80 ADD MLOAD PUSH1 0x31 DUP2 MLOAD DUP2 LT PUSH2 0x1D39 JUMPI PUSH2 0x1D38 PUSH2 0x39B5 JUMP JUMPDEST JUMPDEST PUSH1 0x20 MUL PUSH1 0x20 ADD ADD DUP2 SWAP1 MSTORE POP PUSH1 0x40 MLOAD DUP1 PUSH1 0x40 ADD PUSH1 0x40 MSTORE DUP1 PUSH32 0x2EFB37334E7207970586F439C6A412592A15E8F82BF0B722F7C5FE848C8DBF02 DUP2 MSTORE PUSH1 0x20 ADD PUSH32 0x20FABE9AE584298ADE6CBE1D0E39C96F2EFF39932EBC5E60DE25C900A6A1B0C6 DUP2 MSTORE POP DUP2 PUSH1 0x80 ADD MLOAD PUSH1 0x32 DUP2 MLOAD DUP2 LT PUSH2 0x1DB1 JUMPI PUSH2 0x1DB0 PUSH2 0x39B5 JUMP JUMPDEST JUMPDEST PUSH1 0x20 MUL PUSH1 0x20 ADD ADD DUP2 SWAP1 MSTORE POP PUSH1 0x40 MLOAD DUP1 PUSH1 0x40 ADD PUSH1 0x40 MSTORE DUP1 PUSH32 0x2E73B137F14AF0D7611C9D19E6681E952E64C919F74C346A6660128CE9EF41B5 DUP2 MSTORE PUSH1 0x20 ADD PUSH32 0xFBF8F47877E341B3464DFAE7A62C989761D0EC67B07233D72DE3577A0413080 DUP2 MSTORE POP DUP2 PUSH1 0x80 ADD MLOAD PUSH1 0x33 DUP2 MLOAD DUP2 LT PUSH2 0x1E29 JUMPI PUSH2 0x1E28 PUSH2 0x39B5 JUMP JUMPDEST JUMPDEST PUSH1 0x20 MUL PUSH1 0x20 ADD ADD DUP2 SWAP1 MSTORE POP PUSH1 0x40 MLOAD DUP1 PUSH1 0x40 ADD PUSH1 0x40 MSTORE DUP1 PUSH32 0x3ADD1009B0598190EF334E909E03473691F7485163865F8042DBA3D6A879AC6 DUP2 MSTORE PUSH1 0x20 ADD PUSH32 0x2F67D851C2107217DDC1A155C940D6573A8F8E40E9BB2BA39694675BD0589AD7 DUP2 MSTORE POP DUP2 PUSH1 0x80 ADD MLOAD PUSH1 0x34 DUP2 MLOAD DUP2 LT PUSH2 0x1EA1 JUMPI PUSH2 0x1EA0 PUSH2 0x39B5 JUMP JUMPDEST JUMPDEST PUSH1 0x20 MUL PUSH1 0x20 ADD ADD DUP2 SWAP1 MSTORE POP PUSH1 0x40 MLOAD DUP1 PUSH1 0x40 ADD PUSH1 0x40 MSTORE DUP1 PUSH32 0x908CD99348A0B6E6846B4B796B28DBC3D165871FEB52C9A61D7826F724FF7E2 DUP2 MSTORE PUSH1 0x20 ADD PUSH32 0x1FF0DEE38287AEF7CFF30EED3E437DD81F085D0DF92BB05DC36125D5F7295EE2 DUP2 MSTORE POP DUP2 PUSH1 0x80 ADD MLOAD PUSH1 0x35 DUP2 MLOAD DUP2 LT PUSH2 0x1F19 JUMPI PUSH2 0x1F18 PUSH2 0x39B5 JUMP JUMPDEST JUMPDEST PUSH1 0x20 MUL PUSH1 0x20 ADD ADD DUP2 SWAP1 MSTORE POP PUSH1 0x40 MLOAD DUP1 PUSH1 0x40 ADD PUSH1 0x40 MSTORE DUP1 PUSH32 0x1F2360267115BAE607B07C4950E0B35BBB69F4A651DA77345BCB08B64D7A6C1A DUP2 MSTORE PUSH1 0x20 ADD PUSH32 0x2B4375C467623E21FF1AFC1F56F7076CB6BD9461985FC054ED8C7146482A79C1 DUP2 MSTORE POP DUP2 PUSH1 0x80 ADD MLOAD PUSH1 0x36 DUP2 MLOAD DUP2 LT PUSH2 0x1F91 JUMPI PUSH2 0x1F90 PUSH2 0x39B5 JUMP JUMPDEST JUMPDEST PUSH1 0x20 MUL PUSH1 0x20 ADD ADD DUP2 SWAP1 MSTORE POP PUSH1 0x40 MLOAD DUP1 PUSH1 0x40 ADD PUSH1 0x40 MSTORE DUP1 PUSH32 0x11D94D98C73431F58D402298165F83DB2C85FF9446EC69B75CC08B498FFDB43B DUP2 MSTORE PUSH1 0x20 ADD PUSH32 0x229E493E7722E4D510E2F7FD05109E2F4FFB1678EE3EE95BCCAD5F964A5B614C DUP2 MSTORE POP DUP2 PUSH1 0x80 ADD MLOAD PUSH1 0x37 DUP2 MLOAD DUP2 LT PUSH2 0x2009 JUMPI PUSH2 0x2008 PUSH2 0x39B5 JUMP JUMPDEST JUMPDEST PUSH1 0x20 MUL PUSH1 0x20 ADD ADD DUP2 SWAP1 MSTORE POP PUSH1 0x40 MLOAD DUP1 PUSH1 0x40 ADD PUSH1 0x40 MSTORE DUP1 PUSH32 0x171C671646EB833B6140F74B5E546DE3A2F4B11A9B713C8CA22B6F27B22B351C DUP2 MSTORE PUSH1 0x20 ADD PUSH32 0xC0C2F87135B90A2D9340D3FFE17E0EBDF7A1BB994D342B4ED367752C1F015F1 DUP2 MSTORE POP DUP2 PUSH1 0x80 ADD MLOAD PUSH1 0x38 DUP2 MLOAD DUP2 LT PUSH2 0x2081 JUMPI PUSH2 0x2080 PUSH2 0x39B5 JUMP JUMPDEST JUMPDEST PUSH1 0x20 MUL PUSH1 0x20 ADD ADD DUP2 SWAP1 MSTORE POP PUSH1 0x40 MLOAD DUP1 PUSH1 0x40 ADD PUSH1 0x40 MSTORE DUP1 PUSH32 0x159B3C1B44E21977905E6F6976F447B6CCA3DA2B9AF8D5F6D772FC9DD800D8AD DUP2 MSTORE PUSH1 0x20 ADD PUSH32 0x3062DB182D46BA4CE01D3F0BF5FA1B36F1915E1BC9D84860D33C2BB73D814536 DUP2 MSTORE POP DUP2 PUSH1 0x80 ADD MLOAD PUSH1 0x39 DUP2 MLOAD DUP2 LT PUSH2 0x20F9 JUMPI PUSH2 0x20F8 PUSH2 0x39B5 JUMP JUMPDEST JUMPDEST PUSH1 0x20 MUL PUSH1 0x20 ADD ADD DUP2 SWAP1 MSTORE POP PUSH1 0x40 MLOAD DUP1 PUSH1 0x40 ADD PUSH1 0x40 MSTORE DUP1 PUSH32 0x11DD99EB9A154704EA5E77C01C7688D99B1168AAC81071D51AA7DC6A3910BA02 DUP2 MSTORE PUSH1 0x20 ADD PUSH32 0x5AB954BD8F0387FB1C80731BD2FCB24B35D880AA0E80E1E0CF6476700F016F2 DUP2 MSTORE POP DUP2 PUSH1 0x80 ADD MLOAD PUSH1 0x3A DUP2 MLOAD DUP2 LT PUSH2 0x2171 JUMPI PUSH2 0x2170 PUSH2 0x39B5 JUMP JUMPDEST JUMPDEST PUSH1 0x20 MUL PUSH1 0x20 ADD ADD DUP2 SWAP1 MSTORE POP PUSH1 0x40 MLOAD DUP1 PUSH1 0x40 ADD PUSH1 0x40 MSTORE DUP1 PUSH32 0x22C7E326359B26F7DAC14787B5816B29FD0268454863D0CCD64C3FEA794D3223 DUP2 MSTORE PUSH1 0x20 ADD PUSH32 0x1CF70FE29210D197744FBA44EA28622F5812C048DBB6727820189575AC6C79D2 DUP2 MSTORE POP DUP2 PUSH1 0x80 ADD MLOAD PUSH1 0x3B DUP2 MLOAD DUP2 LT PUSH2 0x21E9 JUMPI PUSH2 0x21E8 PUSH2 0x39B5 JUMP JUMPDEST JUMPDEST PUSH1 0x20 MUL PUSH1 0x20 ADD ADD DUP2 SWAP1 MSTORE POP PUSH1 0x40 MLOAD DUP1 PUSH1 0x40 ADD PUSH1 0x40 MSTORE DUP1 PUSH32 0x18128D4A2B0D46CDE262F7AEB3706B364090544308558881D94C7438F0B093E3 DUP2 MSTORE PUSH1 0x20 ADD PUSH32 0x93A67088C267CCB6D481FA3A7A8BD2F2A55FB2C2D679DB56AC585BBE36E9257 DUP2 MSTORE POP DUP2 PUSH1 0x80 ADD MLOAD PUSH1 0x3C DUP2 MLOAD DUP2 LT PUSH2 0x2261 JUMPI PUSH2 0x2260 PUSH2 0x39B5 JUMP JUMPDEST JUMPDEST PUSH1 0x20 MUL PUSH1 0x20 ADD ADD DUP2 SWAP1 MSTORE POP PUSH1 0x40 MLOAD DUP1 PUSH1 0x40 ADD PUSH1 0x40 MSTORE DUP1 PUSH32 0x17B6FA6DA550E000E7F2327A176E18ABF79932A06AF0BDC2A484620B77185AD2 DUP2 MSTORE PUSH1 0x20 ADD PUSH32 0x11D93AF1CA4B36487A5FC9398FCAA2E8A46F891340C7A00442C0246C0118060C DUP2 MSTORE POP DUP2 PUSH1 0x80 ADD MLOAD PUSH1 0x3D DUP2 MLOAD DUP2 LT PUSH2 0x22D9 JUMPI PUSH2 0x22D8 PUSH2 0x39B5 JUMP JUMPDEST JUMPDEST PUSH1 0x20 MUL PUSH1 0x20 ADD ADD DUP2 SWAP1 MSTORE POP PUSH1 0x40 MLOAD DUP1 PUSH1 0x40 ADD PUSH1 0x40 MSTORE DUP1 PUSH32 0x25C8C7A895ADBB8F8347BB47D6E43A390329A5D40CB7C1FB3215556BB9C43A94 DUP2 MSTORE PUSH1 0x20 ADD PUSH32 0x261412CAF090DC08F348DABAC35E3C55886882CD85CF815C517C46F1AC890CA9 DUP2 MSTORE POP DUP2 PUSH1 0x80 ADD MLOAD PUSH1 0x3E DUP2 MLOAD DUP2 LT PUSH2 0x2351 JUMPI PUSH2 0x2350 PUSH2 0x39B5 JUMP JUMPDEST JUMPDEST PUSH1 0x20 MUL PUSH1 0x20 ADD ADD DUP2 SWAP1 MSTORE POP PUSH1 0x40 MLOAD DUP1 PUSH1 0x40 ADD PUSH1 0x40 MSTORE DUP1 PUSH32 0xBD4C889E2DB14FE42F92C3983C4CE98382F567999E90EBD72AF1E78380622F4 DUP2 MSTORE PUSH1 0x20 ADD PUSH32 0x1153DF892B935130B92B18A50F47CD97AEA4D449690B08537B7F2E8632747CDF DUP2 MSTORE POP DUP2 PUSH1 0x80 ADD MLOAD PUSH1 0x3F DUP2 MLOAD DUP2 LT PUSH2 0x23C9 JUMPI PUSH2 0x23C8 PUSH2 0x39B5 JUMP JUMPDEST JUMPDEST PUSH1 0x20 MUL PUSH1 0x20 ADD ADD DUP2 SWAP1 MSTORE POP PUSH1 0x40 MLOAD DUP1 PUSH1 0x40 ADD PUSH1 0x40 MSTORE DUP1 PUSH32 0x10233DE21868A0C36696D040D2903CDDF3AC5E0A02A82621381F50CD8B368F66 DUP2 MSTORE PUSH1 0x20 ADD PUSH32 0x23E3828E7C978898CFCECB3A76AF0A885DDF7C6F9E7CB73C550E6CEE06A0E7D0 DUP2 MSTORE POP DUP2 PUSH1 0x80 ADD MLOAD PUSH1 0x40 DUP2 MLOAD DUP2 LT PUSH2 0x2441 JUMPI PUSH2 0x2440 PUSH2 0x39B5 JUMP JUMPDEST JUMPDEST PUSH1 0x20 MUL PUSH1 0x20 ADD ADD DUP2 SWAP1 MSTORE POP PUSH1 0x40 MLOAD DUP1 PUSH1 0x40 ADD PUSH1 0x40 MSTORE DUP1 PUSH32 0x8BA2225CFF2AD5C8B628E2DB673E9B554983622FB3CB5167585B91C20F533D8 DUP2 MSTORE PUSH1 0x20 ADD PUSH32 0x1B85FB84703A86CDF9D53B0EC28D2899CE6DABDED3105418FFDDC3C9F8CD011C DUP2 MSTORE POP DUP2 PUSH1 0x80 ADD MLOAD PUSH1 0x41 DUP2 MLOAD DUP2 LT PUSH2 0x24B9 JUMPI PUSH2 0x24B8 PUSH2 0x39B5 JUMP JUMPDEST JUMPDEST PUSH1 0x20 MUL PUSH1 0x20 ADD ADD DUP2 SWAP1 MSTORE POP PUSH1 0x40 MLOAD DUP1 PUSH1 0x40 ADD PUSH1 0x40 MSTORE DUP1 PUSH32 0x2DB77ECD864CB7D103D3BA4EE1B1C6D264E79B6B9A7867B37555EFDCC0A1D605 DUP2 MSTORE PUSH1 0x20 ADD PUSH32 0x69F490FA6416349BC9D6D47E713B411567DC65C7F295A34DA0E4EBBC3D77BA1 DUP2 MSTORE POP DUP2 PUSH1 0x80 ADD MLOAD PUSH1 0x42 DUP2 MLOAD DUP2 LT PUSH2 0x2531 JUMPI PUSH2 0x2530 PUSH2 0x39B5 JUMP JUMPDEST JUMPDEST PUSH1 0x20 MUL PUSH1 0x20 ADD ADD DUP2 SWAP1 MSTORE POP PUSH1 0x40 MLOAD DUP1 PUSH1 0x40 ADD PUSH1 0x40 MSTORE DUP1 PUSH32 0x3A225DC590D5E3EAFAE5E7F568CD82F8CB9BBB1969BEAFADB56561E1DD23913 DUP2 MSTORE PUSH1 0x20 ADD PUSH32 0x274BE07467BC8C47B71D3782B67F47F6685BCBE4757C4FBD235C89956857FB97 DUP2 MSTORE POP DUP2 PUSH1 0x80 ADD MLOAD PUSH1 0x43 DUP2 MLOAD DUP2 LT PUSH2 0x25A9 JUMPI PUSH2 0x25A8 PUSH2 0x39B5 JUMP JUMPDEST JUMPDEST PUSH1 0x20 MUL PUSH1 0x20 ADD ADD DUP2 SWAP1 MSTORE POP PUSH1 0x40 MLOAD DUP1 PUSH1 0x40 ADD PUSH1 0x40 MSTORE DUP1 PUSH32 0x16303866C8F2068C4E7746FF513D322F410CAEE28B9A1A5BD2512698C8754474 DUP2 MSTORE PUSH1 0x20 ADD PUSH32 0x41C1A58C079DD3D65F481A1A5A8EA01D340D94567BABC20FF0F83909F0B7637 DUP2 MSTORE POP DUP2 PUSH1 0x80 ADD MLOAD PUSH1 0x44 DUP2 MLOAD DUP2 LT PUSH2 0x2621 JUMPI PUSH2 0x2620 PUSH2 0x39B5 JUMP JUMPDEST JUMPDEST PUSH1 0x20 MUL PUSH1 0x20 ADD ADD DUP2 SWAP1 MSTORE POP PUSH1 0x40 MLOAD DUP1 PUSH1 0x40 ADD PUSH1 0x40 MSTORE DUP1 PUSH32 0x2C23ADEE4FE479B2A48155285B8726AF1E51E84A10D66D26AF3ABB8E0BA304EF DUP2 MSTORE PUSH1 0x20 ADD PUSH32 0x29505E352A6AF4DA55866570F6310D26D77BA863647C73108C1D125923789B4A DUP2 MSTORE POP DUP2 PUSH1 0x80 ADD MLOAD PUSH1 0x45 DUP2 MLOAD DUP2 LT PUSH2 0x2699 JUMPI PUSH2 0x2698 PUSH2 0x39B5 JUMP JUMPDEST JUMPDEST PUSH1 0x20 MUL PUSH1 0x20 ADD ADD DUP2 SWAP1 MSTORE POP PUSH1 0x40 MLOAD DUP1 PUSH1 0x40 ADD PUSH1 0x40 MSTORE DUP1 PUSH32 0xE36F03817DD036E7135F7A872B067084B338A5E7B4948A41EC68E710DCD304C DUP2 MSTORE PUSH1 0x20 ADD PUSH32 0x23B41CD480DAB0CC53117A804006A82959A210442EE186DE156E18B5A78ADC4C DUP2 MSTORE POP DUP2 PUSH1 0x80 ADD MLOAD PUSH1 0x46 DUP2 MLOAD DUP2 LT PUSH2 0x2711 JUMPI PUSH2 0x2710 PUSH2 0x39B5 JUMP JUMPDEST JUMPDEST PUSH1 0x20 MUL PUSH1 0x20 ADD ADD DUP2 SWAP1 MSTORE POP PUSH1 0x40 MLOAD DUP1 PUSH1 0x40 ADD PUSH1 0x40 MSTORE DUP1 PUSH32 0x1900E5EA8A1C7FFE465BD817EC2A17B1BC2812693CBE4E1BA17C36AF7F28E0FF DUP2 MSTORE PUSH1 0x20 ADD PUSH32 0x7A27E20C229119BC5F772F888FD5166FE45809B8B0C6F47D0C83B25B7892674 DUP2 MSTORE POP DUP2 PUSH1 0x80 ADD MLOAD PUSH1 0x47 DUP2 MLOAD DUP2 LT PUSH2 0x2789 JUMPI PUSH2 0x2788 PUSH2 0x39B5 JUMP JUMPDEST JUMPDEST PUSH1 0x20 MUL PUSH1 0x20 ADD ADD DUP2 SWAP1 MSTORE POP PUSH1 0x40 MLOAD DUP1 PUSH1 0x40 ADD PUSH1 0x40 MSTORE DUP1 PUSH32 0x11BB10C71CD700A579FBACEFEBEFBEC5C7097C31103DC57B59F71DB2448C1C59 DUP2 MSTORE PUSH1 0x20 ADD PUSH32 0x4AA85D38E5B788809F41AE3B7FBC55692329AA46BB7C994E4BBC3D43212FE77 DUP2 MSTORE POP DUP2 PUSH1 0x80 ADD MLOAD PUSH1 0x48 DUP2 MLOAD DUP2 LT PUSH2 0x2801 JUMPI PUSH2 0x2800 PUSH2 0x39B5 JUMP JUMPDEST JUMPDEST PUSH1 0x20 MUL PUSH1 0x20 ADD ADD DUP2 SWAP1 MSTORE POP PUSH1 0x40 MLOAD DUP1 PUSH1 0x40 ADD PUSH1 0x40 MSTORE DUP1 PUSH32 0x11CAE0887E98C8C0D7489057FAB1AA996B7B48466ABCEE7D2194BAD20ABBCD07 DUP2 MSTORE PUSH1 0x20 ADD PUSH32 0x3D4BD2C18B60624728B7DF6D6B3DF03AE194BF613CBEE5A7757AED2BA8C8627 DUP2 MSTORE POP DUP2 PUSH1 0x80 ADD MLOAD PUSH1 0x49 DUP2 MLOAD DUP2 LT PUSH2 0x2879 JUMPI PUSH2 0x2878 PUSH2 0x39B5 JUMP JUMPDEST JUMPDEST PUSH1 0x20 MUL PUSH1 0x20 ADD ADD DUP2 SWAP1 MSTORE POP PUSH1 0x40 MLOAD DUP1 PUSH1 0x40 ADD PUSH1 0x40 MSTORE DUP1 PUSH32 0x2B80BA4CA6993BA1DCA8EF569C6795681365475A834D815614228DC3823EFD51 DUP2 MSTORE PUSH1 0x20 ADD PUSH32 0x152A8D832A02D0AE6A0FD3B70C2B4944515C42794DD480A269D5C6BEFB4267EB DUP2 MSTORE POP DUP2 PUSH1 0x80 ADD MLOAD PUSH1 0x4A DUP2 MLOAD DUP2 LT PUSH2 0x28F1 JUMPI PUSH2 0x28F0 PUSH2 0x39B5 JUMP JUMPDEST JUMPDEST PUSH1 0x20 MUL PUSH1 0x20 ADD ADD DUP2 SWAP1 MSTORE POP PUSH1 0x40 MLOAD DUP1 PUSH1 0x40 ADD PUSH1 0x40 MSTORE DUP1 PUSH32 0x1EE46ACEC9EF941DEEB3D8FE335F93A2EE331C553301AFB8475AA16010347094 DUP2 MSTORE PUSH1 0x20 ADD PUSH32 0x28541391A196B5A902B2515685C607086BED508EA7F499A45EF94C4EE8799C71 DUP2 MSTORE POP DUP2 PUSH1 0x80 ADD MLOAD PUSH1 0x4B DUP2 MLOAD DUP2 LT PUSH2 0x2969 JUMPI PUSH2 0x2968 PUSH2 0x39B5 JUMP JUMPDEST JUMPDEST PUSH1 0x20 MUL PUSH1 0x20 ADD ADD DUP2 SWAP1 MSTORE POP PUSH1 0x40 MLOAD DUP1 PUSH1 0x40 ADD PUSH1 0x40 MSTORE DUP1 PUSH32 0xBA1ADE875471718100B34411AC48CFA073A5061576990A714E300DC5293D6B5 DUP2 MSTORE PUSH1 0x20 ADD PUSH32 0x1FFCC0C40F91CD25D7FF95F2B1E1C9250A4A3B30F8E693E830896D3C11D804B7 DUP2 MSTORE POP DUP2 PUSH1 0x80 ADD MLOAD PUSH1 0x4C DUP2 MLOAD DUP2 LT PUSH2 0x29E1 JUMPI PUSH2 0x29E0 PUSH2 0x39B5 JUMP JUMPDEST JUMPDEST PUSH1 0x20 MUL PUSH1 0x20 ADD ADD DUP2 SWAP1 MSTORE POP PUSH1 0x40 MLOAD DUP1 PUSH1 0x40 ADD PUSH1 0x40 MSTORE DUP1 PUSH32 0xDB89D812BCD8FAA16752413E7598077093C0EDF5D237D54941830BF60162B04 DUP2 MSTORE PUSH1 0x20 ADD PUSH32 0x2F71084266339307C9225DE8209D07FE29DF456FBB528DBCCFC7F49682B31A5 DUP2 MSTORE POP DUP2 PUSH1 0x80 ADD MLOAD PUSH1 0x4D DUP2 MLOAD DUP2 LT PUSH2 0x2A59 JUMPI PUSH2 0x2A58 PUSH2 0x39B5 JUMP JUMPDEST JUMPDEST PUSH1 0x20 MUL PUSH1 0x20 ADD ADD DUP2 SWAP1 MSTORE POP PUSH1 0x40 MLOAD DUP1 PUSH1 0x40 ADD PUSH1 0x40 MSTORE DUP1 PUSH32 0xCFF924B4DA3A033392EE7C56AE9E96EDA31BAF22772BAB86FA2B5AF546308E5 DUP2 MSTORE PUSH1 0x20 ADD PUSH32 0x29F2F0B2B71A378FE64D7E88B84585CD8406A3BB1A878DA876F868A62834347F DUP2 MSTORE POP DUP2 PUSH1 0x80 ADD MLOAD PUSH1 0x4E DUP2 MLOAD DUP2 LT PUSH2 0x2AD1 JUMPI PUSH2 0x2AD0 PUSH2 0x39B5 JUMP JUMPDEST JUMPDEST PUSH1 0x20 MUL PUSH1 0x20 ADD ADD DUP2 SWAP1 MSTORE POP PUSH1 0x40 MLOAD DUP1 PUSH1 0x40 ADD PUSH1 0x40 MSTORE DUP1 PUSH32 0x1A7BC097F4863E13C58B1ACD05F878806779F39DC6157C31AC5ACA4B42DC0A66 DUP2 MSTORE PUSH1 0x20 ADD PUSH32 0x3E3E3F1B34606C31B6490EE340AE8021FB6D7BB8E77BEA99EF795CAADD543E9 DUP2 MSTORE POP DUP2 PUSH1 0x80 ADD MLOAD PUSH1 0x4F DUP2 MLOAD DUP2 LT PUSH2 0x2B49 JUMPI PUSH2 0x2B48 PUSH2 0x39B5 JUMP JUMPDEST JUMPDEST PUSH1 0x20 MUL PUSH1 0x20 ADD ADD DUP2 SWAP1 MSTORE POP PUSH1 0x40 MLOAD DUP1 PUSH1 0x40 ADD PUSH1 0x40 MSTORE DUP1 PUSH32 0x21EFF94E793E9FE7035D8953E2D88B74190D76D270AE14ACF098CA6D35E0B9D4 DUP2 MSTORE PUSH1 0x20 ADD PUSH32 0x1832D36DA7ED48FE56AF662D24F6B1E2E14B4BECE892BCE6F597663E785C6687 DUP2 MSTORE POP DUP2 PUSH1 0x80 ADD MLOAD PUSH1 0x50 DUP2 MLOAD DUP2 LT PUSH2 0x2BC1 JUMPI PUSH2 0x2BC0 PUSH2 0x39B5 JUMP JUMPDEST JUMPDEST PUSH1 0x20 MUL PUSH1 0x20 ADD ADD DUP2 SWAP1 MSTORE POP PUSH1 0x40 MLOAD DUP1 PUSH1 0x40 ADD PUSH1 0x40 MSTORE DUP1 PUSH32 0xBB90AD22CA7971293A0788A31054168CD44C6FEE5EC53EACA88A72661A61B4F DUP2 MSTORE PUSH1 0x20 ADD PUSH32 0xBE9E6A787182470EA349C52CCAA5BF4EA17156F35A7C134FA15851451720E1A DUP2 MSTORE POP DUP2 PUSH1 0x80 ADD MLOAD PUSH1 0x51 DUP2 MLOAD DUP2 LT PUSH2 0x2C39 JUMPI PUSH2 0x2C38 PUSH2 0x39B5 JUMP JUMPDEST JUMPDEST PUSH1 0x20 MUL PUSH1 0x20 ADD ADD DUP2 SWAP1 MSTORE POP SWAP1 JUMP JUMPDEST PUSH2 0x2C4F PUSH2 0x33CF JUMP JUMPDEST PUSH2 0x2C57 PUSH2 0x33E9 JUMP JUMPDEST DUP4 PUSH1 0x0 ADD MLOAD DUP2 PUSH1 0x0 PUSH1 0x3 DUP2 LT PUSH2 0x2C70 JUMPI PUSH2 0x2C6F PUSH2 0x39B5 JUMP JUMPDEST JUMPDEST PUSH1 0x20 MUL ADD DUP2 DUP2 MSTORE POP POP DUP4 PUSH1 0x20 ADD MLOAD DUP2 PUSH1 0x1 PUSH1 0x3 DUP2 LT PUSH2 0x2C92 JUMPI PUSH2 0x2C91 PUSH2 0x39B5 JUMP JUMPDEST JUMPDEST PUSH1 0x20 MUL ADD DUP2 DUP2 MSTORE POP POP DUP3 DUP2 PUSH1 0x2 PUSH1 0x3 DUP2 LT PUSH2 0x2CB0 JUMPI PUSH2 0x2CAF PUSH2 0x39B5 JUMP JUMPDEST JUMPDEST PUSH1 0x20 MUL ADD DUP2 DUP2 MSTORE POP POP PUSH1 0x0 PUSH1 0x60 DUP4 PUSH1 0x80 DUP5 PUSH1 0x7 PUSH2 0x7D0 GAS SUB STATICCALL SWAP1 POP DUP1 PUSH1 0x0 DUP2 EQ PUSH2 0x2CD9 JUMPI PUSH2 0x2CDB JUMP JUMPDEST INVALID JUMPDEST POP DUP1 PUSH2 0x2CE6 JUMPI PUSH1 0x0 DUP1 REVERT JUMPDEST POP POP SWAP3 SWAP2 POP POP JUMP JUMPDEST PUSH2 0x2CF6 PUSH2 0x33CF JUMP JUMPDEST PUSH2 0x2CFE PUSH2 0x340B JUMP JUMPDEST DUP4 PUSH1 0x0 ADD MLOAD DUP2 PUSH1 0x0 PUSH1 0x4 DUP2 LT PUSH2 0x2D17 JUMPI PUSH2 0x2D16 PUSH2 0x39B5 JUMP JUMPDEST JUMPDEST PUSH1 0x20 MUL ADD DUP2 DUP2 MSTORE POP POP DUP4 PUSH1 0x20 ADD MLOAD DUP2 PUSH1 0x1 PUSH1 0x4 DUP2 LT PUSH2 0x2D39 JUMPI PUSH2 0x2D38 PUSH2 0x39B5 JUMP JUMPDEST JUMPDEST PUSH1 0x20 MUL ADD DUP2 DUP2 MSTORE POP POP DUP3 PUSH1 0x0 ADD MLOAD DUP2 PUSH1 0x2 PUSH1 0x4 DUP2 LT PUSH2 0x2D5B JUMPI PUSH2 0x2D5A PUSH2 0x39B5 JUMP JUMPDEST JUMPDEST PUSH1 0x20 MUL ADD DUP2 DUP2 MSTORE POP POP DUP3 PUSH1 0x20 ADD MLOAD DUP2 PUSH1 0x3 PUSH1 0x4 DUP2 LT PUSH2 0x2D7D JUMPI PUSH2 0x2D7C PUSH2 0x39B5 JUMP JUMPDEST JUMPDEST PUSH1 0x20 MUL ADD DUP2 DUP2 MSTORE POP POP PUSH1 0x0 PUSH1 0x60 DUP4 PUSH1 0xC0 DUP5 PUSH1 0x6 PUSH2 0x7D0 GAS SUB STATICCALL SWAP1 POP DUP1 PUSH1 0x0 DUP2 EQ PUSH2 0x2DA6 JUMPI PUSH2 0x2DA8 JUMP JUMPDEST INVALID JUMPDEST POP DUP1 PUSH2 0x2DB3 JUMPI PUSH1 0x0 DUP1 REVERT JUMPDEST POP POP SWAP3 SWAP2 POP POP JUMP JUMPDEST PUSH2 0x2DC3 PUSH2 0x33CF JUMP JUMPDEST PUSH1 0x0 PUSH32 0x30644E72E131A029B85045B68181585D97816A916871CA8D3C208C16D87CFD47 SWAP1 POP PUSH1 0x0 DUP4 PUSH1 0x0 ADD MLOAD EQ DUP1 ISZERO PUSH2 0x2E00 JUMPI POP PUSH1 0x0 DUP4 PUSH1 0x20 ADD MLOAD EQ JUMPDEST ISZERO PUSH2 0x2E24 JUMPI PUSH1 0x40 MLOAD DUP1 PUSH1 0x40 ADD PUSH1 0x40 MSTORE DUP1 PUSH1 0x0 DUP2 MSTORE PUSH1 0x20 ADD PUSH1 0x0 DUP2 MSTORE POP SWAP2 POP POP PUSH2 0x2E5B JUMP JUMPDEST PUSH1 0x40 MLOAD DUP1 PUSH1 0x40 ADD PUSH1 0x40 MSTORE DUP1 DUP5 PUSH1 0x0 ADD MLOAD DUP2 MSTORE PUSH1 0x20 ADD DUP3 DUP6 PUSH1 0x20 ADD MLOAD PUSH2 0x2E49 SWAP2 SWAP1 PUSH2 0x3926 JUMP JUMPDEST DUP4 PUSH2 0x2E54 SWAP2 SWAP1 PUSH2 0x3862 JUMP JUMPDEST DUP2 MSTORE POP SWAP2 POP POP JUMPDEST SWAP2 SWAP1 POP JUMP JUMPDEST PUSH1 0x0 DUP1 PUSH1 0x4 PUSH8 0xFFFFFFFFFFFFFFFF DUP2 GT ISZERO PUSH2 0x2E7E JUMPI PUSH2 0x2E7D PUSH2 0x39E4 JUMP JUMPDEST JUMPDEST PUSH1 0x40 MLOAD SWAP1 DUP1 DUP3 MSTORE DUP1 PUSH1 0x20 MUL PUSH1 0x20 ADD DUP3 ADD PUSH1 0x40 MSTORE DUP1 ISZERO PUSH2 0x2EB7 JUMPI DUP2 PUSH1 0x20 ADD JUMPDEST PUSH2 0x2EA4 PUSH2 0x33CF JUMP JUMPDEST DUP2 MSTORE PUSH1 0x20 ADD SWAP1 PUSH1 0x1 SWAP1 SUB SWAP1 DUP2 PUSH2 0x2E9C JUMPI SWAP1 POP JUMPDEST POP SWAP1 POP PUSH1 0x0 PUSH1 0x4 PUSH8 0xFFFFFFFFFFFFFFFF DUP2 GT ISZERO PUSH2 0x2ED7 JUMPI PUSH2 0x2ED6 PUSH2 0x39E4 JUMP JUMPDEST JUMPDEST PUSH1 0x40 MLOAD SWAP1 DUP1 DUP3 MSTORE DUP1 PUSH1 0x20 MUL PUSH1 0x20 ADD DUP3 ADD PUSH1 0x40 MSTORE DUP1 ISZERO PUSH2 0x2F10 JUMPI DUP2 PUSH1 0x20 ADD JUMPDEST PUSH2 0x2EFD PUSH2 0x342D JUMP JUMPDEST DUP2 MSTORE PUSH1 0x20 ADD SWAP1 PUSH1 0x1 SWAP1 SUB SWAP1 DUP2 PUSH2 0x2EF5 JUMPI SWAP1 POP JUMPDEST POP SWAP1 POP DUP11 DUP3 PUSH1 0x0 DUP2 MLOAD DUP2 LT PUSH2 0x2F28 JUMPI PUSH2 0x2F27 PUSH2 0x39B5 JUMP JUMPDEST JUMPDEST PUSH1 0x20 MUL PUSH1 0x20 ADD ADD DUP2 SWAP1 MSTORE POP DUP9 DUP3 PUSH1 0x1 DUP2 MLOAD DUP2 LT PUSH2 0x2F48 JUMPI PUSH2 0x2F47 PUSH2 0x39B5 JUMP JUMPDEST JUMPDEST PUSH1 0x20 MUL PUSH1 0x20 ADD ADD DUP2 SWAP1 MSTORE POP DUP7 DUP3 PUSH1 0x2 DUP2 MLOAD DUP2 LT PUSH2 0x2F68 JUMPI PUSH2 0x2F67 PUSH2 0x39B5 JUMP JUMPDEST JUMPDEST PUSH1 0x20 MUL PUSH1 0x20 ADD ADD DUP2 SWAP1 MSTORE POP DUP5 DUP3 PUSH1 0x3 DUP2 MLOAD DUP2 LT PUSH2 0x2F88 JUMPI PUSH2 0x2F87 PUSH2 0x39B5 JUMP JUMPDEST JUMPDEST PUSH1 0x20 MUL PUSH1 0x20 ADD ADD DUP2 SWAP1 MSTORE POP DUP10 DUP2 PUSH1 0x0 DUP2 MLOAD DUP2 LT PUSH2 0x2FA8 JUMPI PUSH2 0x2FA7 PUSH2 0x39B5 JUMP JUMPDEST JUMPDEST PUSH1 0x20 MUL PUSH1 0x20 ADD ADD DUP2 SWAP1 MSTORE POP DUP8 DUP2 PUSH1 0x1 DUP2 MLOAD DUP2 LT PUSH2 0x2FC8 JUMPI PUSH2 0x2FC7 PUSH2 0x39B5 JUMP JUMPDEST JUMPDEST PUSH1 0x20 MUL PUSH1 0x20 ADD ADD DUP2 SWAP1 MSTORE POP DUP6 DUP2 PUSH1 0x2 DUP2 MLOAD DUP2 LT PUSH2 0x2FE8 JUMPI PUSH2 0x2FE7 PUSH2 0x39B5 JUMP JUMPDEST JUMPDEST PUSH1 0x20 MUL PUSH1 0x20 ADD ADD DUP2 SWAP1 MSTORE POP DUP4 DUP2 PUSH1 0x3 DUP2 MLOAD DUP2 LT PUSH2 0x3008 JUMPI PUSH2 0x3007 PUSH2 0x39B5 JUMP JUMPDEST JUMPDEST PUSH1 0x20 MUL PUSH1 0x20 ADD ADD DUP2 SWAP1 MSTORE POP PUSH2 0x301D DUP3 DUP3 PUSH2 0x302D JUMP JUMPDEST SWAP3 POP POP POP SWAP9 SWAP8 POP POP POP POP POP POP POP POP JUMP JUMPDEST PUSH1 0x0 DUP2 MLOAD DUP4 MLOAD EQ PUSH2 0x303D JUMPI PUSH1 0x0 DUP1 REVERT JUMPDEST PUSH1 0x0 DUP4 MLOAD SWAP1 POP PUSH1 0x0 PUSH1 0x6 DUP3 PUSH2 0x3052 SWAP2 SWAP1 PUSH2 0x3808 JUMP JUMPDEST SWAP1 POP PUSH1 0x0 DUP2 PUSH8 0xFFFFFFFFFFFFFFFF DUP2 GT ISZERO PUSH2 0x3070 JUMPI PUSH2 0x306F PUSH2 0x39E4 JUMP JUMPDEST JUMPDEST PUSH1 0x40 MLOAD SWAP1 DUP1 DUP3 MSTORE DUP1 PUSH1 0x20 MUL PUSH1 0x20 ADD DUP3 ADD PUSH1 0x40 MSTORE DUP1 ISZERO PUSH2 0x309E JUMPI DUP2 PUSH1 0x20 ADD PUSH1 0x20 DUP3 MUL DUP1 CALLDATASIZE DUP4 CALLDATACOPY DUP1 DUP3 ADD SWAP2 POP POP SWAP1 POP JUMPDEST POP SWAP1 POP PUSH1 0x0 JUMPDEST DUP4 DUP2 LT ISZERO PUSH2 0x3323 JUMPI DUP7 DUP2 DUP2 MLOAD DUP2 LT PUSH2 0x30BF JUMPI PUSH2 0x30BE PUSH2 0x39B5 JUMP JUMPDEST JUMPDEST PUSH1 0x20 MUL PUSH1 0x20 ADD ADD MLOAD PUSH1 0x0 ADD MLOAD DUP3 PUSH1 0x0 PUSH1 0x6 DUP5 PUSH2 0x30DB SWAP2 SWAP1 PUSH2 0x3808 JUMP JUMPDEST PUSH2 0x30E5 SWAP2 SWAP1 PUSH2 0x37B2 JUMP JUMPDEST DUP2 MLOAD DUP2 LT PUSH2 0x30F6 JUMPI PUSH2 0x30F5 PUSH2 0x39B5 JUMP JUMPDEST JUMPDEST PUSH1 0x20 MUL PUSH1 0x20 ADD ADD DUP2 DUP2 MSTORE POP POP DUP7 DUP2 DUP2 MLOAD DUP2 LT PUSH2 0x3115 JUMPI PUSH2 0x3114 PUSH2 0x39B5 JUMP JUMPDEST JUMPDEST PUSH1 0x20 MUL PUSH1 0x20 ADD ADD MLOAD PUSH1 0x20 ADD MLOAD DUP3 PUSH1 0x1 PUSH1 0x6 DUP5 PUSH2 0x3131 SWAP2 SWAP1 PUSH2 0x3808 JUMP JUMPDEST PUSH2 0x313B SWAP2 SWAP1 PUSH2 0x37B2 JUMP JUMPDEST DUP2 MLOAD DUP2 LT PUSH2 0x314C JUMPI PUSH2 0x314B PUSH2 0x39B5 JUMP JUMPDEST JUMPDEST PUSH1 0x20 MUL PUSH1 0x20 ADD ADD DUP2 DUP2 MSTORE POP POP DUP6 DUP2 DUP2 MLOAD DUP2 LT PUSH2 0x316B JUMPI PUSH2 0x316A PUSH2 0x39B5 JUMP JUMPDEST JUMPDEST PUSH1 0x20 MUL PUSH1 0x20 ADD ADD MLOAD PUSH1 0x0 ADD MLOAD PUSH1 0x1 PUSH1 0x2 DUP2 LT PUSH2 0x318A JUMPI PUSH2 0x3189 PUSH2 0x39B5 JUMP JUMPDEST JUMPDEST PUSH1 0x20 MUL ADD MLOAD DUP3 PUSH1 0x2 PUSH1 0x6 DUP5 PUSH2 0x319F SWAP2 SWAP1 PUSH2 0x3808 JUMP JUMPDEST PUSH2 0x31A9 SWAP2 SWAP1 PUSH2 0x37B2 JUMP JUMPDEST DUP2 MLOAD DUP2 LT PUSH2 0x31BA JUMPI PUSH2 0x31B9 PUSH2 0x39B5 JUMP JUMPDEST JUMPDEST PUSH1 0x20 MUL PUSH1 0x20 ADD ADD DUP2 DUP2 MSTORE POP POP DUP6 DUP2 DUP2 MLOAD DUP2 LT PUSH2 0x31D9 JUMPI PUSH2 0x31D8 PUSH2 0x39B5 JUMP JUMPDEST JUMPDEST PUSH1 0x20 MUL PUSH1 0x20 ADD ADD MLOAD PUSH1 0x0 ADD MLOAD PUSH1 0x0 PUSH1 0x2 DUP2 LT PUSH2 0x31F8 JUMPI PUSH2 0x31F7 PUSH2 0x39B5 JUMP JUMPDEST JUMPDEST PUSH1 0x20 MUL ADD MLOAD DUP3 PUSH1 0x3 PUSH1 0x6 DUP5 PUSH2 0x320D SWAP2 SWAP1 PUSH2 0x3808 JUMP JUMPDEST PUSH2 0x3217 SWAP2 SWAP1 PUSH2 0x37B2 JUMP JUMPDEST DUP2 MLOAD DUP2 LT PUSH2 0x3228 JUMPI PUSH2 0x3227 PUSH2 0x39B5 JUMP JUMPDEST JUMPDEST PUSH1 0x20 MUL PUSH1 0x20 ADD ADD DUP2 DUP2 MSTORE POP POP DUP6 DUP2 DUP2 MLOAD DUP2 LT PUSH2 0x3247 JUMPI PUSH2 0x3246 PUSH2 0x39B5 JUMP JUMPDEST JUMPDEST PUSH1 0x20 MUL PUSH1 0x20 ADD ADD MLOAD PUSH1 0x20 ADD MLOAD PUSH1 0x1 PUSH1 0x2 DUP2 LT PUSH2 0x3266 JUMPI PUSH2 0x3265 PUSH2 0x39B5 JUMP JUMPDEST JUMPDEST PUSH1 0x20 MUL ADD MLOAD DUP3 PUSH1 0x4 PUSH1 0x6 DUP5 PUSH2 0x327B SWAP2 SWAP1 PUSH2 0x3808 JUMP JUMPDEST PUSH2 0x3285 SWAP2 SWAP1 PUSH2 0x37B2 JUMP JUMPDEST DUP2 MLOAD DUP2 LT PUSH2 0x3296 JUMPI PUSH2 0x3295 PUSH2 0x39B5 JUMP JUMPDEST JUMPDEST PUSH1 0x20 MUL PUSH1 0x20 ADD ADD DUP2 DUP2 MSTORE POP POP DUP6 DUP2 DUP2 MLOAD DUP2 LT PUSH2 0x32B5 JUMPI PUSH2 0x32B4 PUSH2 0x39B5 JUMP JUMPDEST JUMPDEST PUSH1 0x20 MUL PUSH1 0x20 ADD ADD MLOAD PUSH1 0x20 ADD MLOAD PUSH1 0x0 PUSH1 0x2 DUP2 LT PUSH2 0x32D4 JUMPI PUSH2 0x32D3 PUSH2 0x39B5 JUMP JUMPDEST JUMPDEST PUSH1 0x20 MUL ADD MLOAD DUP3 PUSH1 0x5 PUSH1 0x6 DUP5 PUSH2 0x32E9 SWAP2 SWAP1 PUSH2 0x3808 JUMP JUMPDEST PUSH2 0x32F3 SWAP2 SWAP1 PUSH2 0x37B2 JUMP JUMPDEST DUP2 MLOAD DUP2 LT PUSH2 0x3304 JUMPI PUSH2 0x3303 PUSH2 0x39B5 JUMP JUMPDEST JUMPDEST PUSH1 0x20 MUL PUSH1 0x20 ADD ADD DUP2 DUP2 MSTORE POP POP DUP1 DUP1 PUSH2 0x331B SWAP1 PUSH2 0x38DD JUMP JUMPDEST SWAP2 POP POP PUSH2 0x30A4 JUMP JUMPDEST POP PUSH2 0x332C PUSH2 0x3453 JUMP JUMPDEST PUSH1 0x0 PUSH1 0x20 DUP3 PUSH1 0x20 DUP7 MUL PUSH1 0x20 DUP7 ADD PUSH1 0x8 PUSH2 0x7D0 GAS SUB STATICCALL SWAP1 POP DUP1 PUSH1 0x0 DUP2 EQ PUSH2 0x3351 JUMPI PUSH2 0x3353 JUMP JUMPDEST INVALID JUMPDEST POP DUP1 PUSH2 0x335E JUMPI PUSH1 0x0 DUP1 REVERT JUMPDEST PUSH1 0x0 DUP3 PUSH1 0x0 PUSH1 0x1 DUP2 LT PUSH2 0x3374 JUMPI PUSH2 0x3373 PUSH2 0x39B5 JUMP JUMPDEST JUMPDEST PUSH1 0x20 MUL ADD MLOAD EQ ISZERO SWAP6 POP POP POP POP POP POP SWAP3 SWAP2 POP POP JUMP JUMPDEST PUSH1 0x40 MLOAD DUP1 PUSH1 0xA0 ADD PUSH1 0x40 MSTORE DUP1 PUSH2 0x339B PUSH2 0x33CF JUMP JUMPDEST DUP2 MSTORE PUSH1 0x20 ADD PUSH2 0x33A8 PUSH2 0x342D JUMP JUMPDEST DUP2 MSTORE PUSH1 0x20 ADD PUSH2 0x33B5 PUSH2 0x342D JUMP JUMPDEST DUP2 MSTORE PUSH1 0x20 ADD PUSH2 0x33C2 PUSH2 0x342D JUMP JUMPDEST DUP2 MSTORE PUSH1 0x20 ADD PUSH1 0x60 DUP2 MSTORE POP SWAP1 JUMP JUMPDEST PUSH1 0x40 MLOAD DUP1 PUSH1 0x40 ADD PUSH1 0x40 MSTORE DUP1 PUSH1 0x0 DUP2 MSTORE PUSH1 0x20 ADD PUSH1 0x0 DUP2 MSTORE POP SWAP1 JUMP JUMPDEST PUSH1 0x40 MLOAD DUP1 PUSH1 0x60 ADD PUSH1 0x40 MSTORE DUP1 PUSH1 0x3 SWAP1 PUSH1 0x20 DUP3 MUL DUP1 CALLDATASIZE DUP4 CALLDATACOPY DUP1 DUP3 ADD SWAP2 POP POP SWAP1 POP POP SWAP1 JUMP JUMPDEST PUSH1 0x40 MLOAD DUP1 PUSH1 0x80 ADD PUSH1 0x40 MSTORE DUP1 PUSH1 0x4 SWAP1 PUSH1 0x20 DUP3 MUL DUP1 CALLDATASIZE DUP4 CALLDATACOPY DUP1 DUP3 ADD SWAP2 POP POP SWAP1 POP POP SWAP1 JUMP JUMPDEST PUSH1 0x40 MLOAD DUP1 PUSH1 0x40 ADD PUSH1 0x40 MSTORE DUP1 PUSH2 0x3440 PUSH2 0x3475 JUMP JUMPDEST DUP2 MSTORE PUSH1 0x20 ADD PUSH2 0x344D PUSH2 0x3475 JUMP JUMPDEST DUP2 MSTORE POP SWAP1 JUMP JUMPDEST PUSH1 0x40 MLOAD DUP1 PUSH1 0x20 ADD PUSH1 0x40 MSTORE DUP1 PUSH1 0x1 SWAP1 PUSH1 0x20 DUP3 MUL DUP1 CALLDATASIZE DUP4 CALLDATACOPY DUP1 DUP3 ADD SWAP2 POP POP SWAP1 POP POP SWAP1 JUMP JUMPDEST PUSH1 0x40 MLOAD DUP1 PUSH1 0x40 ADD PUSH1 0x40 MSTORE DUP1 PUSH1 0x2 SWAP1 PUSH1 0x20 DUP3 MUL DUP1 CALLDATASIZE DUP4 CALLDATACOPY DUP1 DUP3 ADD SWAP2 POP POP SWAP1 POP POP SWAP1 JUMP JUMPDEST PUSH1 0x0 PUSH2 0x34AA PUSH2 0x34A5 DUP5 PUSH2 0x3766 JUMP JUMPDEST PUSH2 0x3741 JUMP JUMPDEST SWAP1 POP DUP1 DUP3 DUP6 PUSH1 0x20 DUP7 MUL DUP3 ADD GT ISZERO PUSH2 0x34C4 JUMPI PUSH2 0x34C3 PUSH2 0x3A1D JUMP JUMPDEST JUMPDEST PUSH1 0x0 JUMPDEST DUP6 DUP2 LT ISZERO PUSH2 0x34F4 JUMPI DUP2 PUSH2 0x34DA DUP9 DUP3 PUSH2 0x36C0 JUMP JUMPDEST DUP5 MSTORE PUSH1 0x20 DUP5 ADD SWAP4 POP PUSH1 0x20 DUP4 ADD SWAP3 POP POP PUSH1 0x1 DUP2 ADD SWAP1 POP PUSH2 0x34C7 JUMP JUMPDEST POP POP POP SWAP4 SWAP3 POP POP POP JUMP JUMPDEST PUSH1 0x0 PUSH2 0x3511 PUSH2 0x350C DUP5 PUSH2 0x378C JUMP JUMPDEST PUSH2 0x3741 JUMP JUMPDEST SWAP1 POP DUP1 DUP3 DUP6 PUSH1 0x20 DUP7 MUL DUP3 ADD GT ISZERO PUSH2 0x352B JUMPI PUSH2 0x352A PUSH2 0x3A1D JUMP JUMPDEST JUMPDEST PUSH1 0x0 JUMPDEST DUP6 DUP2 LT ISZERO PUSH2 0x355B JUMPI DUP2 PUSH2 0x3541 DUP9 DUP3 PUSH2 0x36C0 JUMP JUMPDEST DUP5 MSTORE PUSH1 0x20 DUP5 ADD SWAP4 POP PUSH1 0x20 DUP4 ADD SWAP3 POP POP PUSH1 0x1 DUP2 ADD SWAP1 POP PUSH2 0x352E JUMP JUMPDEST POP POP POP SWAP4 SWAP3 POP POP POP JUMP JUMPDEST PUSH1 0x0 DUP3 PUSH1 0x1F DUP4 ADD SLT PUSH2 0x357A JUMPI PUSH2 0x3579 PUSH2 0x3A13 JUMP JUMPDEST JUMPDEST PUSH1 0x2 PUSH2 0x3587 DUP5 DUP3 DUP6 PUSH2 0x3497 JUMP JUMPDEST SWAP2 POP POP SWAP3 SWAP2 POP POP JUMP JUMPDEST PUSH1 0x0 DUP3 PUSH1 0x1F DUP4 ADD SLT PUSH2 0x35A5 JUMPI PUSH2 0x35A4 PUSH2 0x3A13 JUMP JUMPDEST JUMPDEST PUSH1 0x51 PUSH2 0x35B2 DUP5 DUP3 DUP6 PUSH2 0x34FE JUMP JUMPDEST SWAP2 POP POP SWAP3 SWAP2 POP POP JUMP JUMPDEST PUSH1 0x0 PUSH1 0x40 DUP3 DUP5 SUB SLT ISZERO PUSH2 0x35D1 JUMPI PUSH2 0x35D0 PUSH2 0x3A18 JUMP JUMPDEST JUMPDEST PUSH2 0x35DB PUSH1 0x40 PUSH2 0x3741 JUMP JUMPDEST SWAP1 POP PUSH1 0x0 PUSH2 0x35EB DUP5 DUP3 DUP6 ADD PUSH2 0x36C0 JUMP JUMPDEST PUSH1 0x0 DUP4 ADD MSTORE POP PUSH1 0x20 PUSH2 0x35FF DUP5 DUP3 DUP6 ADD PUSH2 0x36C0 JUMP JUMPDEST PUSH1 0x20 DUP4 ADD MSTORE POP SWAP3 SWAP2 POP POP JUMP JUMPDEST PUSH1 0x0 PUSH1 0x80 DUP3 DUP5 SUB SLT ISZERO PUSH2 0x3621 JUMPI PUSH2 0x3620 PUSH2 0x3A18 JUMP JUMPDEST JUMPDEST PUSH2 0x362B PUSH1 0x40 PUSH2 0x3741 JUMP JUMPDEST SWAP1 POP PUSH1 0x0 PUSH2 0x363B DUP5 DUP3 DUP6 ADD PUSH2 0x3565 JUMP JUMPDEST PUSH1 0x0 DUP4 ADD MSTORE POP PUSH1 0x40 PUSH2 0x364F DUP5 DUP3 DUP6 ADD PUSH2 0x3565 JUMP JUMPDEST PUSH1 0x20 DUP4 ADD MSTORE POP SWAP3 SWAP2 POP POP JUMP JUMPDEST PUSH1 0x0 PUSH2 0x100 DUP3 DUP5 SUB SLT ISZERO PUSH2 0x3672 JUMPI PUSH2 0x3671 PUSH2 0x3A18 JUMP JUMPDEST JUMPDEST PUSH2 0x367C PUSH1 0x60 PUSH2 0x3741 JUMP JUMPDEST SWAP1 POP PUSH1 0x0 PUSH2 0x368C DUP5 DUP3 DUP6 ADD PUSH2 0x35BB JUMP JUMPDEST PUSH1 0x0 DUP4 ADD MSTORE POP PUSH1 0x40 PUSH2 0x36A0 DUP5 DUP3 DUP6 ADD PUSH2 0x360B JUMP JUMPDEST PUSH1 0x20 DUP4 ADD MSTORE POP PUSH1 0xC0 PUSH2 0x36B4 DUP5 DUP3 DUP6 ADD PUSH2 0x35BB JUMP JUMPDEST PUSH1 0x40 DUP4 ADD MSTORE POP SWAP3 SWAP2 POP POP JUMP JUMPDEST PUSH1 0x0 DUP2 CALLDATALOAD SWAP1 POP PUSH2 0x36CF DUP2 PUSH2 0x3A38 JUMP JUMPDEST SWAP3 SWAP2 POP POP JUMP JUMPDEST PUSH1 0x0 DUP1 PUSH2 0xB20 DUP4 DUP6 SUB SLT ISZERO PUSH2 0x36ED JUMPI PUSH2 0x36EC PUSH2 0x3A22 JUMP JUMPDEST JUMPDEST PUSH1 0x0 PUSH2 0x36FB DUP6 DUP3 DUP7 ADD PUSH2 0x365B JUMP JUMPDEST SWAP3 POP POP PUSH2 0x100 PUSH2 0x370D DUP6 DUP3 DUP7 ADD PUSH2 0x3590 JUMP JUMPDEST SWAP2 POP POP SWAP3 POP SWAP3 SWAP1 POP JUMP JUMPDEST PUSH2 0x3720 DUP2 PUSH2 0x3896 JUMP JUMPDEST DUP3 MSTORE POP POP JUMP JUMPDEST PUSH1 0x0 PUSH1 0x20 DUP3 ADD SWAP1 POP PUSH2 0x373B PUSH1 0x0 DUP4 ADD DUP5 PUSH2 0x3717 JUMP JUMPDEST SWAP3 SWAP2 POP POP JUMP JUMPDEST PUSH1 0x0 PUSH2 0x374B PUSH2 0x375C JUMP JUMPDEST SWAP1 POP PUSH2 0x3757 DUP3 DUP3 PUSH2 0x38AC JUMP JUMPDEST SWAP2 SWAP1 POP JUMP JUMPDEST PUSH1 0x0 PUSH1 0x40 MLOAD SWAP1 POP SWAP1 JUMP JUMPDEST PUSH1 0x0 PUSH8 0xFFFFFFFFFFFFFFFF DUP3 GT ISZERO PUSH2 0x3781 JUMPI PUSH2 0x3780 PUSH2 0x39E4 JUMP JUMPDEST JUMPDEST PUSH1 0x20 DUP3 MUL SWAP1 POP SWAP2 SWAP1 POP JUMP JUMPDEST PUSH1 0x0 PUSH8 0xFFFFFFFFFFFFFFFF DUP3 GT ISZERO PUSH2 0x37A7 JUMPI PUSH2 0x37A6 PUSH2 0x39E4 JUMP JUMPDEST JUMPDEST PUSH1 0x20 DUP3 MUL SWAP1 POP SWAP2 SWAP1 POP JUMP JUMPDEST PUSH1 0x0 PUSH2 0x37BD DUP3 PUSH2 0x38A2 JUMP JUMPDEST SWAP2 POP PUSH2 0x37C8 DUP4 PUSH2 0x38A2 JUMP JUMPDEST SWAP3 POP DUP3 PUSH32 0xFFFFFFFFFFFFFFFFFFFFFFFFFFFFFFFFFFFFFFFFFFFFFFFFFFFFFFFFFFFFFFFF SUB DUP3 GT ISZERO PUSH2 0x37FD JUMPI PUSH2 0x37FC PUSH2 0x3957 JUMP JUMPDEST JUMPDEST DUP3 DUP3 ADD SWAP1 POP SWAP3 SWAP2 POP POP JUMP JUMPDEST PUSH1 0x0 PUSH2 0x3813 DUP3 PUSH2 0x38A2 JUMP JUMPDEST SWAP2 POP PUSH2 0x381E DUP4 PUSH2 0x38A2 JUMP JUMPDEST SWAP3 POP DUP2 PUSH32 0xFFFFFFFFFFFFFFFFFFFFFFFFFFFFFFFFFFFFFFFFFFFFFFFFFFFFFFFFFFFFFFFF DIV DUP4 GT DUP3 ISZERO ISZERO AND ISZERO PUSH2 0x3857 JUMPI PUSH2 0x3856 PUSH2 0x3957 JUMP JUMPDEST JUMPDEST DUP3 DUP3 MUL SWAP1 POP SWAP3 SWAP2 POP POP JUMP JUMPDEST PUSH1 0x0 PUSH2 0x386D DUP3 PUSH2 0x38A2 JUMP JUMPDEST SWAP2 POP PUSH2 0x3878 DUP4 PUSH2 0x38A2 JUMP JUMPDEST SWAP3 POP DUP3 DUP3 LT ISZERO PUSH2 0x388B JUMPI PUSH2 0x388A PUSH2 0x3957 JUMP JUMPDEST JUMPDEST DUP3 DUP3 SUB SWAP1 POP SWAP3 SWAP2 POP POP JUMP JUMPDEST PUSH1 0x0 DUP2 ISZERO ISZERO SWAP1 POP SWAP2 SWAP1 POP JUMP JUMPDEST PUSH1 0x0 DUP2 SWAP1 POP SWAP2 SWAP1 POP JUMP JUMPDEST PUSH2 0x38B5 DUP3 PUSH2 0x3A27 JUMP JUMPDEST DUP2 ADD DUP2 DUP2 LT PUSH8 0xFFFFFFFFFFFFFFFF DUP3 GT OR ISZERO PUSH2 0x38D4 JUMPI PUSH2 0x38D3 PUSH2 0x39E4 JUMP JUMPDEST JUMPDEST DUP1 PUSH1 0x40 MSTORE POP POP POP JUMP JUMPDEST PUSH1 0x0 PUSH2 0x38E8 DUP3 PUSH2 0x38A2 JUMP JUMPDEST SWAP2 POP PUSH32 0xFFFFFFFFFFFFFFFFFFFFFFFFFFFFFFFFFFFFFFFFFFFFFFFFFFFFFFFFFFFFFFFF DUP3 EQ ISZERO PUSH2 0x391B JUMPI PUSH2 0x391A PUSH2 0x3957 JUMP JUMPDEST JUMPDEST PUSH1 0x1 DUP3 ADD SWAP1 POP SWAP2 SWAP1 POP JUMP JUMPDEST PUSH1 0x0 PUSH2 0x3931 DUP3 PUSH2 0x38A2 JUMP JUMPDEST SWAP2 POP PUSH2 0x393C DUP4 PUSH2 0x38A2 JUMP JUMPDEST SWAP3 POP DUP3 PUSH2 0x394C JUMPI PUSH2 0x394B PUSH2 0x3986 JUMP JUMPDEST JUMPDEST DUP3 DUP3 MOD SWAP1 POP SWAP3 SWAP2 POP POP JUMP JUMPDEST PUSH32 0x4E487B7100000000000000000000000000000000000000000000000000000000 PUSH1 0x0 MSTORE PUSH1 0x11 PUSH1 0x4 MSTORE PUSH1 0x24 PUSH1 0x0 REVERT JUMPDEST PUSH32 0x4E487B7100000000000000000000000000000000000000000000000000000000 PUSH1 0x0 MSTORE PUSH1 0x12 PUSH1 0x4 MSTORE PUSH1 0x24 PUSH1 0x0 REVERT JUMPDEST PUSH32 0x4E487B7100000000000000000000000000000000000000000000000000000000 PUSH1 0x0 MSTORE PUSH1 0x32 PUSH1 0x4 MSTORE PUSH1 0x24 PUSH1 0x0 REVERT JUMPDEST PUSH32 0x4E487B7100000000000000000000000000000000000000000000000000000000 PUSH1 0x0 MSTORE PUSH1 0x41 PUSH1 0x4 MSTORE PUSH1 0x24 PUSH1 0x0 REVERT JUMPDEST PUSH1 0x0 DUP1 REVERT JUMPDEST PUSH1 0x0 DUP1 REVERT JUMPDEST PUSH1 0x0 DUP1 REVERT JUMPDEST PUSH1 0x0 DUP1 REVERT JUMPDEST PUSH1 0x0 PUSH1 0x1F NOT PUSH1 0x1F DUP4 ADD AND SWAP1 POP SWAP2 SWAP1 POP JUMP JUMPDEST PUSH2 0x3A41 DUP2 PUSH2 0x38A2 JUMP JUMPDEST DUP2 EQ PUSH2 0x3A4C JUMPI PUSH1 0x0 DUP1 REVERT JUMPDEST POP JUMP INVALID LOG2 PUSH5 0x6970667358 0x22 SLT KECCAK256 0xAE NOT 0x5C 0x1E 0x5C PUSH16 0x2AA71BDBF9F27BE1842DD0B439C63DA8 DUP6 SWAP9 PUSH18 0x4EB957A9F2AE6A64736F6C63430008060033 "},"methodIdentifiers":{"decryption_rounds()":"8479e0d3","number_of_entities()":"89e3b0e5","number_of_features()":"85871e49","public_key(uint256)":"3de222ec","return_mu_random(string)":"ef5349d3","return_partial_decrypted_mu(string)":"dbcb1c44","return_submit_count(string)":"3470f117","return_varience_partial_decrypted(string)":"1c0b0b58","return_varience_random(string)":"0b9180c5","start_decryption()":"a261b04a","submit_decryption(uint256[2],uint256[2][2],uint256[2],uint256[],uint256[],uint256[],uint256[],uint256[2],string)":"6b437d3c","submit_entity(address)":"05db8c5a","submit_pubkey(uint256)":"1f1895d0","submit_update(uint256[2],uint256[2][2],uint256[2],uint256,uint256[][],uint256[][],uint256[][],uint256[][],string)":"bdb900fd"}}}}}