{"contracts/verifier.sol":{"DVSC":{"abi":[{"inputs":[{"components":[{"components":[{"internalType":"uint256","name":"X","type":"uint256"},{"internalType":"uint256","name":"Y","type":"uint256"}],"internalType":"struct Pairing.G1Point","name":"a","type":"tuple"},{"components":[{"internalType":"uint256[2]","name":"X","type":"uint256[2]"},{"internalType":"uint256[2]","name":"Y","type":"uint256[2]"}],"internalType":"struct Pairing.G2Point","name":"b","type":"tuple"},{"components":[{"internalType":"uint256","name":"X","type":"uint256"},{"internalType":"uint256","name":"Y","type":"uint256"}],"internalType":"struct Pairing.G1Point","name":"c","type":"tuple"}],"internalType":"struct DVSC.Proof","name":"proof","type":"tuple"},{"internalType":"uint256[81]","name":"input","type":"uint256[81]"}],"name":"verifyTx","outputs":[{"internalType":"bool","name":"r","type":"bool"}],"stateMutability":"view","type":"function"}],"evm":{"bytecode":{"linkReferences":{},"object":"608060405234801561001057600080fd5b50613a85806100206000396000f3fe608060405234801561001057600080fd5b506004361061002b5760003560e01c8063eefa323d14610030575b600080fd5b61004a600480360381019061004591906136d5565b610060565b6040516100579190613726565b60405180910390f35b600080605167ffffffffffffffff81111561007e5761007d6139e4565b5b6040519080825280602002602001820160405280156100ac5781602001602082028036833780820191505090505b50905060005b6051811015610105578381605181106100ce576100cd6139b5565b5b60200201518282815181106100e6576100e56139b5565b5b60200260200101818152505080806100fd906138dd565b9150506100b2565b506000610112828661012e565b1415610122576001915050610128565b60009150505b92915050565b6000807f30644e72e131a029b85045b68181585d2833e84879b9709143e1f593f00000019050600061015e6102c5565b90508060800151516001865161017491906137b2565b1461017e57600080fd5b60006040518060400160405280600081526020016000815250905060005b865181101561023757838782815181106101b9576101b86139b5565b5b6020026020010151106101cb57600080fd5b6102228261021d85608001516001856101e491906137b2565b815181106101f5576101f46139b5565b5b60200260200101518a85815181106102105761020f6139b5565b5b6020026020010151612c47565b612cee565b9150808061022f906138dd565b91505061019c565b50610261818360800151600081518110610254576102536139b5565b5b6020026020010151612cee565b90506102a78560000151866020015161027984612dbb565b856040015161028b8a60400151612dbb565b876060015161029d8960000151612dbb565b8960200151612e60565b6102b757600193505050506102bf565b600093505050505b92915050565b6102cd613388565b60405180604001604052807f2b8f808f0c59ee9e10bed4a05f4e860587a72a60892744ea279b82941709f18181526020017f07bc556c891897c7cb95129d12366e11b64bc0bc1a7952912ac93cdcf5afc7638152508160000181905250604051806040016040528060405180604001604052807f305d831804b456605e37e9844d7a613cc8bcfffe9e8a23dc684ac3f82bc4ee5d81526020017f1b34a55531d4edda714d12fe0f3c35184c9d59b6e48839066517f986e2995dfa815250815260200160405180604001604052807f0da7f0515480703066d431bb4a6bd8f8241864eae0ec4a5183486db75a312b8f81526020017e460c53ea9f5a8bb9bf37e6716eed7f74199a54b3ebfd043d3954bb1a8413c08152508152508160200181905250604051806040016040528060405180604001604052807f1950004673ec441581f945c4604e8f6347449f56f399f5424219cc63599af4fe81526020017f268a2b6a75aa656f8e4c8cc4744e467999ed3b2e3f5af2858a7a9c09b3ac0ac3815250815260200160405180604001604052807f1facf4de23189655098e0907bdadff12f0a6f752bb088688a68593fed9317e2a81526020017f2abf066cf0513f57f8e51823389d61405a7c3eade00bd62b29eca6892ea292b38152508152508160400181905250604051806040016040528060405180604001604052807f28f6e07e88c6e6bdfe9e5f7f18b8936591913e2d937511b22731e3e100b0441481526020017f0c9f32d68de80ae7b1d78be828dd72a1ea0171273b924c4fd797d0af5dae8afa815250815260200160405180604001604052807f0e5521dbe05d26ce36a27c3a35fc748fd8ecd3f805e1f0f3c63a931cf48bedae81526020017f02c0622565578621ddc7f7969f42e0861a50a5ccc4a512224b6795336ba3261d8152508152508160600181905250605267ffffffffffffffff811115610593576105926139e4565b5b6040519080825280602002602001820160405280156105cc57816020015b6105b96133cf565b8152602001906001900390816105b15790505b50816080018190525060405180604001604052807f1d76732270c37e5cc7a7dfb6acc64751c737dc9b6cbe865b9af4f19f1fb8767281526020017f201e3d4f7959cec5600499b924dac2d507809954c55ac9067124e866108acb658152508160800151600081518110610642576106416139b5565b5b602002602001018190525060405180604001604052807f28308b88c19b06bfc35d0bdea051a618f56d12e52ad99e1565812aad5be6a05981526020017f0c017100b5ffce58353e7bb0caf8a5e7c15bd17a60b043908e96b7cab2fabe3b81525081608001516001815181106106ba576106b96139b5565b5b602002602001018190525060405180604001604052807f0651d224ca61db513cfae371e465454d4adac72cd7f61d2d8a9845137b5e170b81526020017f186797c2b751b47e435fe529029e25dc60efee15c207da37eb9382f986930c8b8152508160800151600281518110610732576107316139b5565b5b602002602001018190525060405180604001604052807f1bbed9ac9c10feecb4fa8e44f5617a7edc3d6db5087f88983fdfe4ae2af61e4281526020017f263951a2a6b7d10340df990b1eb58a46439bac9480df35a9a6ec44ee180c94b381525081608001516003815181106107aa576107a96139b5565b5b602002602001018190525060405180604001604052807f06638ae27bca2ac943a580a97e48ef939909f975aed6ed7adbd3dddece22e80b81526020017f024f50b514916c08d177fda5a876af3d2839ec4617ddae958a91c76a8b04aece8152508160800151600481518110610822576108216139b5565b5b602002602001018190525060405180604001604052807f01ca5738dc18cc0af7b08fc71aa1868c35aef50f07574b31b8d42f9198019f9b81526020017f2d7ee3443ab1b2ce564eb8dc92d949c37040de18606c14dd93ea1fe83ebd1d0a815250816080015160058151811061089a576108996139b5565b5b602002602001018190525060405180604001604052807f04ddf1582c4f7a3f0d60ee6fdb67172f4f725e2e2f242fd79e0e787c1d9853f581526020017f05180499139f73d43683ec41066a8cdce10c8c5ffdf931a6a42f1445718078538152508160800151600681518110610912576109116139b5565b5b602002602001018190525060405180604001604052807e370ded6b5afc6c766c6b1c31b586a988e5d2d98b44c98b511763890aa6679981526020017f1190063e48db1aa62959846c77ae6698171155f6e8874b5443615e9ab3915f248152508160800151600781518110610989576109886139b5565b5b602002602001018190525060405180604001604052807f1e486adbe00c33a19759921894b6a6597be16128f02261c417cf09cd7d2eecc981526020017f161932edeb7a2344e317bf3606534769bdcfa34e0145ce1ae587845d4af9762a8152508160800151600881518110610a0157610a006139b5565b5b602002602001018190525060405180604001604052807f14fe2b6947e472592748997f854e325098f2aa5ade99d05a704afcddbf0fc8aa81526020017f0fdff3a959a4820c006a68ac1bde9e67e021dc4dd7b4ebf359c8fd827275b4288152508160800151600981518110610a7957610a786139b5565b5b602002602001018190525060405180604001604052807f0b2820941c86160bc9ec41a837f1ec878ee576021127e7079de44992c726147581526020017f0439a36edece22d1782aaea533850d3c8125931fb1c58a74dfd610ae93e828ae8152508160800151600a81518110610af157610af06139b5565b5b602002602001018190525060405180604001604052807f21beac1ee6b407fe70285b9c80cee5a7445c0dedb17ed50827949f17faa5029c81526020017f27c75fb95f41acb1386df7a3d6558b63a0a254fc6219533a65efa360b0fa478f8152508160800151600b81518110610b6957610b686139b5565b5b602002602001018190525060405180604001604052807f12ed5939f8b4ab4fe9cf1945c56feda13ff44b30ee91d9d974a69799efaf41ad81526020017f1d1d40df32eac3c51382cf6bac0832f59cff77e378c7477ca59650eb57ff636a8152508160800151600c81518110610be157610be06139b5565b5b602002602001018190525060405180604001604052807f1bc46d057485c106d03f3b340b4ffcc7f590efa46368b40cdb8d073401f77ef981526020017f08d2237cb340f626ef41dfb195c65fb763ccc4fd5f8ddec89caf506bd5ece9c38152508160800151600d81518110610c5957610c586139b5565b5b602002602001018190525060405180604001604052807f2e02cf420c63657dee4169c9ab72e648015262dd73f44e6ba5afa8416a1d333b81526020017f1497c9e77fb9958b16871b12b91b468d2bb0ac43bd8c4b7639a70f0892d510cd8152508160800151600e81518110610cd157610cd06139b5565b5b602002602001018190525060405180604001604052807f180b9304376f99433d19e1cb1ca92d0a677d33db1be944f543255aa19b5641f781526020017f1e25b8219732a24fe018b05179cfbadfd7d21019ba25dba201c29563531231458152508160800151600f81518110610d4957610d486139b5565b5b602002602001018190525060405180604001604052807f1fe9f70820764e50188c346b034642ddc01ad82f3c09a1f98888c29982e9b7a581526020017f0dc8cb9ad2f2bc2d00e81d9283c15cd9d25a005b0b43a9694d24b4f27ccf5a598152508160800151601081518110610dc157610dc06139b5565b5b602002602001018190525060405180604001604052807f1cf298b87b0581894bd4e16555765873ca7a0e1e6886f32bf51542ec466596e081526020017f14fe1b25c66b9f4ebde4ecea93e666d18a1bdb347212d4509c3e2f9cf469a0888152508160800151601181518110610e3957610e386139b5565b5b602002602001018190525060405180604001604052807f24cd0d668e93100f41a4082cde60b23485a10a30fe996f826dad5461e5e7afac81526020017f0ffc522000e19dc8ce7123e342bf50ea2cb9dc1220177cf0435354b1f499a2bd8152508160800151601281518110610eb157610eb06139b5565b5b602002602001018190525060405180604001604052807f2f3131dad86e468fa56dcace00127883e33c1d37fa0194f17ccaaf2f5d7ca36681526020017f224c8a9a450b06896205c49658b3a4a3ac18374cd3fe24910832274dc3d111698152508160800151601381518110610f2957610f286139b5565b5b602002602001018190525060405180604001604052807f065998167e81f9f5c83fa57347d83098a0daca467d4768ae2eae85b3ec78b3a281526020017f29f580fb0c9dac3693ade9afcde73035b558d3b1c8345f64766b166d3c400b638152508160800151601481518110610fa157610fa06139b5565b5b602002602001018190525060405180604001604052807f2012020be15e814b944a26d3109479ee28b0e85f3d14704ac5d141c8a76a547f81526020017f1e13044b759307c725028910f7f8d749b6e2e2bfe6640354e946ea9b58af63f08152508160800151601581518110611019576110186139b5565b5b602002602001018190525060405180604001604052807f1da24732e012dcf09d855cd8c1fae841a94c0920c6ddb7f9a7b8dcf27cab217281526020017f046cc1a06162148f2c0ebe318a9187ba53b73e47ec773f77b09ce2558e892d5e8152508160800151601681518110611091576110906139b5565b5b602002602001018190525060405180604001604052807f2f2d93f8d2ad9323ad2c4c0cda9659bbc71c8050318a90ec9ab7e81ae8be6d0181526020017f2cc13cd666348c7a66fae9483381331f0edaaa3eec8b8552c10dc0ecf22b46b98152508160800151601781518110611109576111086139b5565b5b602002602001018190525060405180604001604052807f2b442d530049352e5d8e38b0b7ee03ea8c7dbbfe0bbdc1913fb2bf87027f3bf981526020017f2bf600f16a4c3dbd643ac6f240b91a63c5b62f8b68ce723ae86610d0b1a5c2028152508160800151601881518110611181576111806139b5565b5b602002602001018190525060405180604001604052807f27e4ab12fff93a24685bf555bef392b6787a01e18080bc75ba676c525b9afb4b81526020017f179660777bd4eeb680a0e87b5dd4d0bde5fb80c87edcd034aac752b14aa8c38381525081608001516019815181106111f9576111f86139b5565b5b602002602001018190525060405180604001604052807f18bfe30a1c8eb9baf2c52852dc84d3b18f39c9bb3e853a27948c3d4d45987ac081526020017f2055be10368ab0579175012d4a5296410c53d09fd6c1ab31f8c30141a1d6b78b8152508160800151601a81518110611271576112706139b5565b5b602002602001018190525060405180604001604052807f23745abf9cf3730877a814e0b85e5eb2b5607a4c9e2fe369b0c543a7f6b50c1581526020017f1d81336ca41d38b9d4dc2c22d04e4faaec6e7553cadec4cd287c5df2ba4838f98152508160800151601b815181106112e9576112e86139b5565b5b602002602001018190525060405180604001604052807f22afd2466fc028d58013c8c8aaa2bc79bc24515637974e4b22f289df05216a8481526020017f0e3f24c9c6e05669cd409b6ec17f130ecbdc1c4cd30517ade86d5979712a18c58152508160800151601c81518110611361576113606139b5565b5b602002602001018190525060405180604001604052807f0c593cdadd3a81b4dbd39ccb2426fdee09651e20eba5df8f1ac07f95ebf4bbea81526020017f206da793a2e36d0cd2844643ee3f1c842584aafabe759cee968dfe90da5cf24a8152508160800151601d815181106113d9576113d86139b5565b5b602002602001018190525060405180604001604052807f0b85adf426d0969f617275f353267a8467702eb9e59ed21c41c54573eb35417181526020017f058835246dce9b8b22b63225c3448623516921708518481715680deb56e94f6f8152508160800151601e81518110611451576114506139b5565b5b602002602001018190525060405180604001604052807f065a96a1fdbf31d7c9454329b46579e68d776abf53d0d9bceafc0c2c07ac7f2981526020017f1244b1ebd4a566accaafb0266c755e2050a317f7c41022a15872d23b2766d68a8152508160800151601f815181106114c9576114c86139b5565b5b602002602001018190525060405180604001604052807f10fa161f039ee5edadcb5d0f4239b6081b84497a61b9c35a52731ba5eb0326b581526020017f22ad07eba118e35cfd6b85cb3091e2b3dccf77d448b045bea9de2ec1cdc87ea58152508160800151602081518110611541576115406139b5565b5b602002602001018190525060405180604001604052807f0e45145caf15f6095797e471642fd025ccb206896ebd053df144251f9647a23081526020017f03cf5db66d08705e033d3c83933ea4b7ee1b82aa40307f4a1dec9b49ee05270e81525081608001516021815181106115b9576115b86139b5565b5b602002602001018190525060405180604001604052807f2d4eaedefd1fb7bdba4e0025449775656393fd261a7e8802a1cc85a0db248da881526020017f261c6fa7f0cd622e19d7704cbaa5dfb2fc9f9192a1529b80ec244bb7b530fab98152508160800151602281518110611631576116306139b5565b5b602002602001018190525060405180604001604052807f0c9fc9581e737ce7dcd32d31369d0eb3918ae4ada30af25a4b42e87d1bda30d981526020017f14203ac8e540474dac9498737c17a4e632a6cca94003bcf37216d670a5b6a28b81525081608001516023815181106116a9576116a86139b5565b5b602002602001018190525060405180604001604052807f06597eeeff3138452891433d24881fdf5316954618c2f996b21b4600246a94fd81526020017f1164ed7d4504190464ad846a0dc582aa0f91c3b56274501fbcac1447f437d34b8152508160800151602481518110611721576117206139b5565b5b602002602001018190525060405180604001604052807f25055d5c8721c57795f1998879874a403d5ccb6a57293eb96f4b31743cffbe7781526020017f2a83d717c34ee91d386b8faa4dc633cd9ed3433a63005c55f3f6319fce7e49cc8152508160800151602581518110611799576117986139b5565b5b602002602001018190525060405180604001604052807f0deb2242ee918a981b71bfa9af23d81c4471f5320517945f5d54d5dbc3ebc3e681526020017f04773c22094671de0c77cd056b228926aeeba8ad9127df5fe1d5e8ed93c1fb5e8152508160800151602681518110611811576118106139b5565b5b602002602001018190525060405180604001604052807f289f3d488acce2727438516c22a23a9de5540ce926456fd0a4aaaae8445b849981526020017f1b95df75164291fe0980670144ac88c44ae53901c3864e7c78b17f1cc43381fa8152508160800151602781518110611889576118886139b5565b5b602002602001018190525060405180604001604052807f0fa7bdef79b07f8af2a962974cbc8bebc49f3e1705aefca70096065e0469db2e81526020017f247477255d906614c551c359dce06a5663e4c36f90f35e3800d5e57443d1cdea8152508160800151602881518110611901576119006139b5565b5b602002602001018190525060405180604001604052807f036d9eb20c2c02d680c29f44624e5c01040a163409559c28f41d5634decd92a781526020017f244f2e76644ecd74ce8c6cf9458a7a0152734697abe6fc6eb023315f86aaf5f28152508160800151602981518110611979576119786139b5565b5b602002602001018190525060405180604001604052807f28dd925a1012487e3330b129284b8985df802c9950895dc53d3b0f550cfb301581526020017f1cfa08b7d09291f571ec72b5ddf4726c32bc9b05b7f20e8241144a3f5da51a048152508160800151602a815181106119f1576119f06139b5565b5b602002602001018190525060405180604001604052807f16912dd99715463b89c023d947eaee1f178b711e4874d80627dd233c561c4e4481526020017f201fa0727f0b9b906bb1c676745fe4c8b3ba755e45fd8fa25c86274a4f14b8438152508160800151602b81518110611a6957611a686139b5565b5b602002602001018190525060405180604001604052807f0700ec1beb95c56909fe2a11ab64b3f7c2347ea02ca115fe0304087e6a7f582a81526020017f13db93c7dcf9d175530fd059cb4072f82ac56779b5ab38fb94aca8af24e5153b8152508160800151602c81518110611ae157611ae06139b5565b5b602002602001018190525060405180604001604052807f05bbd089ab2592f29e6a207a4af1fd4d980a1433bba652cb61906166c78a821c81526020017f2e5b1c0916b355dd09282cddcd67f9776daa7d2acdb8919c4e8ae153812386cf8152508160800151602d81518110611b5957611b586139b5565b5b602002602001018190525060405180604001604052807f24a8362c215e16882da2c5d18d4e425a893a5464b8f27d08bd7896dfc4bfc28181526020017f1286a2b8e4d3eeb5587b462f620ffb4f1f556d37837397fe2eea4f50a1c0bbf98152508160800151602e81518110611bd157611bd06139b5565b5b602002602001018190525060405180604001604052807f2360ebaf387626d2087319d619aa8a3bc5f54b8f56e78e779c334be241a46b3381526020017f168e4c0315a6312be73f23a71867824a60c94605b49fcbd9eafc09713a06d8768152508160800151602f81518110611c4957611c486139b5565b5b602002602001018190525060405180604001604052807f2898ce2b1dbe77190102eaceb4719f8f0f2c9540ecb3772adcec447e36d7d63081526020017f079d9560cc79b9194651f267a5af8c0d43bf85d60992ea29db32dbe8b9ddd4dc8152508160800151603081518110611cc157611cc06139b5565b5b602002602001018190525060405180604001604052807f0b136e26436d50a70730dac1896a50e731887117c360e8f8c751d00d59d5fe2781526020017f24af85c3e9d573ed8c07ef56d9d68e95bb2241c433ff99f4fdc8ccec4b5c191e8152508160800151603181518110611d3957611d386139b5565b5b602002602001018190525060405180604001604052807f2efb37334e7207970586f439c6a412592a15e8f82bf0b722f7c5fe848c8dbf0281526020017f20fabe9ae584298ade6cbe1d0e39c96f2eff39932ebc5e60de25c900a6a1b0c68152508160800151603281518110611db157611db06139b5565b5b602002602001018190525060405180604001604052807f2e73b137f14af0d7611c9d19e6681e952e64c919f74c346a6660128ce9ef41b581526020017f0fbf8f47877e341b3464dfae7a62c989761d0ec67b07233d72de3577a04130808152508160800151603381518110611e2957611e286139b5565b5b602002602001018190525060405180604001604052807f03add1009b0598190ef334e909e03473691f7485163865f8042dba3d6a879ac681526020017f2f67d851c2107217ddc1a155c940d6573a8f8e40e9bb2ba39694675bd0589ad78152508160800151603481518110611ea157611ea06139b5565b5b602002602001018190525060405180604001604052807f0908cd99348a0b6e6846b4b796b28dbc3d165871feb52c9a61d7826f724ff7e281526020017f1ff0dee38287aef7cff30eed3e437dd81f085d0df92bb05dc36125d5f7295ee28152508160800151603581518110611f1957611f186139b5565b5b602002602001018190525060405180604001604052807f1f2360267115bae607b07c4950e0b35bbb69f4a651da77345bcb08b64d7a6c1a81526020017f2b4375c467623e21ff1afc1f56f7076cb6bd9461985fc054ed8c7146482a79c18152508160800151603681518110611f9157611f906139b5565b5b602002602001018190525060405180604001604052807f11d94d98c73431f58d402298165f83db2c85ff9446ec69b75cc08b498ffdb43b81526020017f229e493e7722e4d510e2f7fd05109e2f4ffb1678ee3ee95bccad5f964a5b614c8152508160800151603781518110612009576120086139b5565b5b602002602001018190525060405180604001604052807f171c671646eb833b6140f74b5e546de3a2f4b11a9b713c8ca22b6f27b22b351c81526020017f0c0c2f87135b90a2d9340d3ffe17e0ebdf7a1bb994d342b4ed367752c1f015f18152508160800151603881518110612081576120806139b5565b5b602002602001018190525060405180604001604052807f159b3c1b44e21977905e6f6976f447b6cca3da2b9af8d5f6d772fc9dd800d8ad81526020017f3062db182d46ba4ce01d3f0bf5fa1b36f1915e1bc9d84860d33c2bb73d81453681525081608001516039815181106120f9576120f86139b5565b5b602002602001018190525060405180604001604052807f11dd99eb9a154704ea5e77c01c7688d99b1168aac81071d51aa7dc6a3910ba0281526020017f05ab954bd8f0387fb1c80731bd2fcb24b35d880aa0e80e1e0cf6476700f016f28152508160800151603a81518110612171576121706139b5565b5b602002602001018190525060405180604001604052807f22c7e326359b26f7dac14787b5816b29fd0268454863d0ccd64c3fea794d322381526020017f1cf70fe29210d197744fba44ea28622f5812c048dbb6727820189575ac6c79d28152508160800151603b815181106121e9576121e86139b5565b5b602002602001018190525060405180604001604052807f18128d4a2b0d46cde262f7aeb3706b364090544308558881d94c7438f0b093e381526020017f093a67088c267ccb6d481fa3a7a8bd2f2a55fb2c2d679db56ac585bbe36e92578152508160800151603c81518110612261576122606139b5565b5b602002602001018190525060405180604001604052807f17b6fa6da550e000e7f2327a176e18abf79932a06af0bdc2a484620b77185ad281526020017f11d93af1ca4b36487a5fc9398fcaa2e8a46f891340c7a00442c0246c0118060c8152508160800151603d815181106122d9576122d86139b5565b5b602002602001018190525060405180604001604052807f25c8c7a895adbb8f8347bb47d6e43a390329a5d40cb7c1fb3215556bb9c43a9481526020017f261412caf090dc08f348dabac35e3c55886882cd85cf815c517c46f1ac890ca98152508160800151603e81518110612351576123506139b5565b5b602002602001018190525060405180604001604052807f0bd4c889e2db14fe42f92c3983c4ce98382f567999e90ebd72af1e78380622f481526020017f1153df892b935130b92b18a50f47cd97aea4d449690b08537b7f2e8632747cdf8152508160800151603f815181106123c9576123c86139b5565b5b602002602001018190525060405180604001604052807f10233de21868a0c36696d040d2903cddf3ac5e0a02a82621381f50cd8b368f6681526020017f23e3828e7c978898cfcecb3a76af0a885ddf7c6f9e7cb73c550e6cee06a0e7d08152508160800151604081518110612441576124406139b5565b5b602002602001018190525060405180604001604052807f08ba2225cff2ad5c8b628e2db673e9b554983622fb3cb5167585b91c20f533d881526020017f1b85fb84703a86cdf9d53b0ec28d2899ce6dabded3105418ffddc3c9f8cd011c81525081608001516041815181106124b9576124b86139b5565b5b602002602001018190525060405180604001604052807f2db77ecd864cb7d103d3ba4ee1b1c6d264e79b6b9a7867b37555efdcc0a1d60581526020017f069f490fa6416349bc9d6d47e713b411567dc65c7f295a34da0e4ebbc3d77ba18152508160800151604281518110612531576125306139b5565b5b602002602001018190525060405180604001604052807f03a225dc590d5e3eafae5e7f568cd82f8cb9bbb1969beafadb56561e1dd2391381526020017f274be07467bc8c47b71d3782b67f47f6685bcbe4757c4fbd235c89956857fb9781525081608001516043815181106125a9576125a86139b5565b5b602002602001018190525060405180604001604052807f16303866c8f2068c4e7746ff513d322f410caee28b9a1a5bd2512698c875447481526020017f041c1a58c079dd3d65f481a1a5a8ea01d340d94567babc20ff0f83909f0b76378152508160800151604481518110612621576126206139b5565b5b602002602001018190525060405180604001604052807f2c23adee4fe479b2a48155285b8726af1e51e84a10d66d26af3abb8e0ba304ef81526020017f29505e352a6af4da55866570f6310d26d77ba863647c73108c1d125923789b4a8152508160800151604581518110612699576126986139b5565b5b602002602001018190525060405180604001604052807f0e36f03817dd036e7135f7a872b067084b338a5e7b4948a41ec68e710dcd304c81526020017f23b41cd480dab0cc53117a804006a82959a210442ee186de156e18b5a78adc4c8152508160800151604681518110612711576127106139b5565b5b602002602001018190525060405180604001604052807f1900e5ea8a1c7ffe465bd817ec2a17b1bc2812693cbe4e1ba17c36af7f28e0ff81526020017f07a27e20c229119bc5f772f888fd5166fe45809b8b0c6f47d0c83b25b78926748152508160800151604781518110612789576127886139b5565b5b602002602001018190525060405180604001604052807f11bb10c71cd700a579fbacefebefbec5c7097c31103dc57b59f71db2448c1c5981526020017f04aa85d38e5b788809f41ae3b7fbc55692329aa46bb7c994e4bbc3d43212fe778152508160800151604881518110612801576128006139b5565b5b602002602001018190525060405180604001604052807f11cae0887e98c8c0d7489057fab1aa996b7b48466abcee7d2194bad20abbcd0781526020017f03d4bd2c18b60624728b7df6d6b3df03ae194bf613cbee5a7757aed2ba8c86278152508160800151604981518110612879576128786139b5565b5b602002602001018190525060405180604001604052807f2b80ba4ca6993ba1dca8ef569c6795681365475a834d815614228dc3823efd5181526020017f152a8d832a02d0ae6a0fd3b70c2b4944515c42794dd480a269d5c6befb4267eb8152508160800151604a815181106128f1576128f06139b5565b5b602002602001018190525060405180604001604052807f1ee46acec9ef941deeb3d8fe335f93a2ee331c553301afb8475aa1601034709481526020017f28541391a196b5a902b2515685c607086bed508ea7f499a45ef94c4ee8799c718152508160800151604b81518110612969576129686139b5565b5b602002602001018190525060405180604001604052807f0ba1ade875471718100b34411ac48cfa073a5061576990a714e300dc5293d6b581526020017f1ffcc0c40f91cd25d7ff95f2b1e1c9250a4a3b30f8e693e830896d3c11d804b78152508160800151604c815181106129e1576129e06139b5565b5b602002602001018190525060405180604001604052807f0db89d812bcd8faa16752413e7598077093c0edf5d237d54941830bf60162b0481526020017f02f71084266339307c9225de8209d07fe29df456fbb528dbccfc7f49682b31a58152508160800151604d81518110612a5957612a586139b5565b5b602002602001018190525060405180604001604052807f0cff924b4da3a033392ee7c56ae9e96eda31baf22772bab86fa2b5af546308e581526020017f29f2f0b2b71a378fe64d7e88b84585cd8406a3bb1a878da876f868a62834347f8152508160800151604e81518110612ad157612ad06139b5565b5b602002602001018190525060405180604001604052807f1a7bc097f4863e13c58b1acd05f878806779f39dc6157c31ac5aca4b42dc0a6681526020017f03e3e3f1b34606c31b6490ee340ae8021fb6d7bb8e77bea99ef795caadd543e98152508160800151604f81518110612b4957612b486139b5565b5b602002602001018190525060405180604001604052807f21eff94e793e9fe7035d8953e2d88b74190d76d270ae14acf098ca6d35e0b9d481526020017f1832d36da7ed48fe56af662d24f6b1e2e14b4bece892bce6f597663e785c66878152508160800151605081518110612bc157612bc06139b5565b5b602002602001018190525060405180604001604052807f0bb90ad22ca7971293a0788a31054168cd44c6fee5ec53eaca88a72661a61b4f81526020017f0be9e6a787182470ea349c52ccaa5bf4ea17156f35a7c134fa15851451720e1a8152508160800151605181518110612c3957612c386139b5565b5b602002602001018190525090565b612c4f6133cf565b612c576133e9565b836000015181600060038110612c7057612c6f6139b5565b5b602002018181525050836020015181600160038110612c9257612c916139b5565b5b6020020181815250508281600260038110612cb057612caf6139b5565b5b602002018181525050600060608360808460076107d05a03fa90508060008114612cd957612cdb565bfe5b5080612ce657600080fd5b505092915050565b612cf66133cf565b612cfe61340b565b836000015181600060048110612d1757612d166139b5565b5b602002018181525050836020015181600160048110612d3957612d386139b5565b5b602002018181525050826000015181600260048110612d5b57612d5a6139b5565b5b602002018181525050826020015181600360048110612d7d57612d7c6139b5565b5b602002018181525050600060608360c08460066107d05a03fa90508060008114612da657612da8565bfe5b5080612db357600080fd5b505092915050565b612dc36133cf565b60007f30644e72e131a029b85045b68181585d97816a916871ca8d3c208c16d87cfd47905060008360000151148015612e00575060008360200151145b15612e24576040518060400160405280600081526020016000815250915050612e5b565b604051806040016040528084600001518152602001828560200151612e499190613926565b83612e549190613862565b8152509150505b919050565b600080600467ffffffffffffffff811115612e7e57612e7d6139e4565b5b604051908082528060200260200182016040528015612eb757816020015b612ea46133cf565b815260200190600190039081612e9c5790505b5090506000600467ffffffffffffffff811115612ed757612ed66139e4565b5b604051908082528060200260200182016040528015612f1057816020015b612efd61342d565b815260200190600190039081612ef55790505b5090508a82600081518110612f2857612f276139b5565b5b60200260200101819052508882600181518110612f4857612f476139b5565b5b60200260200101819052508682600281518110612f6857612f676139b5565b5b60200260200101819052508482600381518110612f8857612f876139b5565b5b60200260200101819052508981600081518110612fa857612fa76139b5565b5b60200260200101819052508781600181518110612fc857612fc76139b5565b5b60200260200101819052508581600281518110612fe857612fe76139b5565b5b60200260200101819052508381600381518110613008576130076139b5565b5b602002602001018190525061301d828261302d565b9250505098975050505050505050565b6000815183511461303d57600080fd5b60008351905060006006826130529190613808565b905060008167ffffffffffffffff8111156130705761306f6139e4565b5b60405190808252806020026020018201604052801561309e5781602001602082028036833780820191505090505b50905060005b83811015613323578681815181106130bf576130be6139b5565b5b6020026020010151600001518260006006846130db9190613808565b6130e591906137b2565b815181106130f6576130f56139b5565b5b602002602001018181525050868181518110613115576131146139b5565b5b6020026020010151602001518260016006846131319190613808565b61313b91906137b2565b8151811061314c5761314b6139b5565b5b60200260200101818152505085818151811061316b5761316a6139b5565b5b60200260200101516000015160016002811061318a576131896139b5565b5b602002015182600260068461319f9190613808565b6131a991906137b2565b815181106131ba576131b96139b5565b5b6020026020010181815250508581815181106131d9576131d86139b5565b5b6020026020010151600001516000600281106131f8576131f76139b5565b5b602002015182600360068461320d9190613808565b61321791906137b2565b81518110613228576132276139b5565b5b602002602001018181525050858181518110613247576132466139b5565b5b602002602001015160200151600160028110613266576132656139b5565b5b602002015182600460068461327b9190613808565b61328591906137b2565b81518110613296576132956139b5565b5b6020026020010181815250508581815181106132b5576132b46139b5565b5b6020026020010151602001516000600281106132d4576132d36139b5565b5b60200201518260056006846132e99190613808565b6132f391906137b2565b81518110613304576133036139b5565b5b602002602001018181525050808061331b906138dd565b9150506130a4565b5061332c613453565b6000602082602086026020860160086107d05a03fa9050806000811461335157613353565bfe5b508061335e57600080fd5b600082600060018110613374576133736139b5565b5b602002015114159550505050505092915050565b6040518060a0016040528061339b6133cf565b81526020016133a861342d565b81526020016133b561342d565b81526020016133c261342d565b8152602001606081525090565b604051806040016040528060008152602001600081525090565b6040518060600160405280600390602082028036833780820191505090505090565b6040518060800160405280600490602082028036833780820191505090505090565b6040518060400160405280613440613475565b815260200161344d613475565b81525090565b6040518060200160405280600190602082028036833780820191505090505090565b6040518060400160405280600290602082028036833780820191505090505090565b60006134aa6134a584613766565b613741565b905080828560208602820111156134c4576134c3613a1d565b5b60005b858110156134f457816134da88826136c0565b8452602084019350602083019250506001810190506134c7565b5050509392505050565b600061351161350c8461378c565b613741565b9050808285602086028201111561352b5761352a613a1d565b5b60005b8581101561355b578161354188826136c0565b84526020840193506020830192505060018101905061352e565b5050509392505050565b600082601f83011261357a57613579613a13565b5b6002613587848285613497565b91505092915050565b600082601f8301126135a5576135a4613a13565b5b60516135b28482856134fe565b91505092915050565b6000604082840312156135d1576135d0613a18565b5b6135db6040613741565b905060006135eb848285016136c0565b60008301525060206135ff848285016136c0565b60208301525092915050565b60006080828403121561362157613620613a18565b5b61362b6040613741565b9050600061363b84828501613565565b600083015250604061364f84828501613565565b60208301525092915050565b6000610100828403121561367257613671613a18565b5b61367c6060613741565b9050600061368c848285016135bb565b60008301525060406136a08482850161360b565b60208301525060c06136b4848285016135bb565b60408301525092915050565b6000813590506136cf81613a38565b92915050565b600080610b2083850312156136ed576136ec613a22565b5b60006136fb8582860161365b565b92505061010061370d85828601613590565b9150509250929050565b61372081613896565b82525050565b600060208201905061373b6000830184613717565b92915050565b600061374b61375c565b905061375782826138ac565b919050565b6000604051905090565b600067ffffffffffffffff821115613781576137806139e4565b5b602082029050919050565b600067ffffffffffffffff8211156137a7576137a66139e4565b5b602082029050919050565b60006137bd826138a2565b91506137c8836138a2565b9250827fffffffffffffffffffffffffffffffffffffffffffffffffffffffffffffffff038211156137fd576137fc613957565b5b828201905092915050565b6000613813826138a2565b915061381e836138a2565b9250817fffffffffffffffffffffffffffffffffffffffffffffffffffffffffffffffff048311821515161561385757613856613957565b5b828202905092915050565b600061386d826138a2565b9150613878836138a2565b92508282101561388b5761388a613957565b5b828203905092915050565b60008115159050919050565b6000819050919050565b6138b582613a27565b810181811067ffffffffffffffff821117156138d4576138d36139e4565b5b80604052505050565b60006138e8826138a2565b91507fffffffffffffffffffffffffffffffffffffffffffffffffffffffffffffffff82141561391b5761391a613957565b5b600182019050919050565b6000613931826138a2565b915061393c836138a2565b92508261394c5761394b613986565b5b828206905092915050565b7f4e487b7100000000000000000000000000000000000000000000000000000000600052601160045260246000fd5b7f4e487b7100000000000000000000000000000000000000000000000000000000600052601260045260246000fd5b7f4e487b7100000000000000000000000000000000000000000000000000000000600052603260045260246000fd5b7f4e487b7100000000000000000000000000000000000000000000000000000000600052604160045260246000fd5b600080fd5b600080fd5b600080fd5b600080fd5b6000601f19601f8301169050919050565b613a41816138a2565b8114613a4c57600080fd5b5056fea2646970667358221220ae195c1e5c6f2aa71bdbf9f27be1842dd0b439c63da88598714eb957a9f2ae6a64736f6c63430008060033","opcodes":"PUSH1 0x80 PUSH1 0x40 MSTORE CALLVALUE DUP1 ISZERO PUSH2 0x10 JUMPI PUSH1 0x0 DUP1 REVERT JUMPDEST POP PUSH2 0x3A85 DUP1 PUSH2 0x20 PUSH1 0x0 CODECOPY PUSH1 0x0 RETURN INVALID PUSH1 0x80 PUSH1 0x40 MSTORE CALLVALUE DUP1 ISZERO PUSH2 0x10 JUMPI PUSH1 0x0 DUP1 REVERT JUMPDEST POP PUSH1 0x4 CALLDATASIZE LT PUSH2 0x2B JUMPI PUSH1 0x0 CALLDATALOAD PUSH1 0xE0 SHR DUP1 PUSH4 0xEEFA323D EQ PUSH2 0x30 JUMPI JUMPDEST PUSH1 0x0 DUP1 REVERT JUMPDEST PUSH2 0x4A PUSH1 0x4 DUP1 CALLDATASIZE SUB DUP2 ADD SWAP1 PUSH2 0x45 SWAP2 SWAP1 PUSH2 0x36D5 JUMP JUMPDEST PUSH2 0x60 JUMP JUMPDEST PUSH1 0x40 MLOAD PUSH2 0x57 SWAP2 SWAP1 PUSH2 0x3726 JUMP JUMPDEST PUSH1 0x40 MLOAD DUP1 SWAP2 SUB SWAP1 RETURN JUMPDEST PUSH1 0x0 DUP1 PUSH1 0x51 PUSH8 0xFFFFFFFFFFFFFFFF DUP2 GT ISZERO PUSH2 0x7E JUMPI PUSH2 0x7D PUSH2 0x39E4 JUMP JUMPDEST JUMPDEST PUSH1 0x40 MLOAD SWAP1 DUP1 DUP3 MSTORE DUP1 PUSH1 0x20 MUL PUSH1 0x20 ADD DUP3 ADD PUSH1 0x40 MSTORE DUP1 ISZERO PUSH2 0xAC JUMPI DUP2 PUSH1 0x20 ADD PUSH1 0x20 DUP3 MUL DUP1 CALLDATASIZE DUP4 CALLDATACOPY DUP1 DUP3 ADD SWAP2 POP POP SWAP1 POP JUMPDEST POP SWAP1 POP PUSH1 0x0 JUMPDEST PUSH1 0x51 DUP2 LT ISZERO PUSH2 0x105 JUMPI DUP4 DUP2 PUSH1 0x51 DUP2 LT PUSH2 0xCE JUMPI PUSH2 0xCD PUSH2 0x39B5 JUMP JUMPDEST JUMPDEST PUSH1 0x20 MUL ADD MLOAD DUP3 DUP3 DUP2 MLOAD DUP2 LT PUSH2 0xE6 JUMPI PUSH2 0xE5 PUSH2 0x39B5 JUMP JUMPDEST JUMPDEST PUSH1 0x20 MUL PUSH1 0x20 ADD ADD DUP2 DUP2 MSTORE POP POP DUP1 DUP1 PUSH2 0xFD SWAP1 PUSH2 0x38DD JUMP JUMPDEST SWAP2 POP POP PUSH2 0xB2 JUMP JUMPDEST POP PUSH1 0x0 PUSH2 0x112 DUP3 DUP7 PUSH2 0x12E JUMP JUMPDEST EQ ISZERO PUSH2 0x122 JUMPI PUSH1 0x1 SWAP2 POP POP PUSH2 0x128 JUMP JUMPDEST PUSH1 0x0 SWAP2 POP POP JUMPDEST SWAP3 SWAP2 POP POP JUMP JUMPDEST PUSH1 0x0 DUP1 PUSH32 0x30644E72E131A029B85045B68181585D2833E84879B9709143E1F593F0000001 SWAP1 POP PUSH1 0x0 PUSH2 0x15E PUSH2 0x2C5 JUMP JUMPDEST SWAP1 POP DUP1 PUSH1 0x80 ADD MLOAD MLOAD PUSH1 0x1 DUP7 MLOAD PUSH2 0x174 SWAP2 SWAP1 PUSH2 0x37B2 JUMP JUMPDEST EQ PUSH2 0x17E JUMPI PUSH1 0x0 DUP1 REVERT JUMPDEST PUSH1 0x0 PUSH1 0x40 MLOAD DUP1 PUSH1 0x40 ADD PUSH1 0x40 MSTORE DUP1 PUSH1 0x0 DUP2 MSTORE PUSH1 0x20 ADD PUSH1 0x0 DUP2 MSTORE POP SWAP1 POP PUSH1 0x0 JUMPDEST DUP7 MLOAD DUP2 LT ISZERO PUSH2 0x237 JUMPI DUP4 DUP8 DUP3 DUP2 MLOAD DUP2 LT PUSH2 0x1B9 JUMPI PUSH2 0x1B8 PUSH2 0x39B5 JUMP JUMPDEST JUMPDEST PUSH1 0x20 MUL PUSH1 0x20 ADD ADD MLOAD LT PUSH2 0x1CB JUMPI PUSH1 0x0 DUP1 REVERT JUMPDEST PUSH2 0x222 DUP3 PUSH2 0x21D DUP6 PUSH1 0x80 ADD MLOAD PUSH1 0x1 DUP6 PUSH2 0x1E4 SWAP2 SWAP1 PUSH2 0x37B2 JUMP JUMPDEST DUP2 MLOAD DUP2 LT PUSH2 0x1F5 JUMPI PUSH2 0x1F4 PUSH2 0x39B5 JUMP JUMPDEST JUMPDEST PUSH1 0x20 MUL PUSH1 0x20 ADD ADD MLOAD DUP11 DUP6 DUP2 MLOAD DUP2 LT PUSH2 0x210 JUMPI PUSH2 0x20F PUSH2 0x39B5 JUMP JUMPDEST JUMPDEST PUSH1 0x20 MUL PUSH1 0x20 ADD ADD MLOAD PUSH2 0x2C47 JUMP JUMPDEST PUSH2 0x2CEE JUMP JUMPDEST SWAP2 POP DUP1 DUP1 PUSH2 0x22F SWAP1 PUSH2 0x38DD JUMP JUMPDEST SWAP2 POP POP PUSH2 0x19C JUMP JUMPDEST POP PUSH2 0x261 DUP2 DUP4 PUSH1 0x80 ADD MLOAD PUSH1 0x0 DUP2 MLOAD DUP2 LT PUSH2 0x254 JUMPI PUSH2 0x253 PUSH2 0x39B5 JUMP JUMPDEST JUMPDEST PUSH1 0x20 MUL PUSH1 0x20 ADD ADD MLOAD PUSH2 0x2CEE JUMP JUMPDEST SWAP1 POP PUSH2 0x2A7 DUP6 PUSH1 0x0 ADD MLOAD DUP7 PUSH1 0x20 ADD MLOAD PUSH2 0x279 DUP5 PUSH2 0x2DBB JUMP JUMPDEST DUP6 PUSH1 0x40 ADD MLOAD PUSH2 0x28B DUP11 PUSH1 0x40 ADD MLOAD PUSH2 0x2DBB JUMP JUMPDEST DUP8 PUSH1 0x60 ADD MLOAD PUSH2 0x29D DUP10 PUSH1 0x0 ADD MLOAD PUSH2 0x2DBB JUMP JUMPDEST DUP10 PUSH1 0x20 ADD MLOAD PUSH2 0x2E60 JUMP JUMPDEST PUSH2 0x2B7 JUMPI PUSH1 0x1 SWAP4 POP POP POP POP PUSH2 0x2BF JUMP JUMPDEST PUSH1 0x0 SWAP4 POP POP POP POP JUMPDEST SWAP3 SWAP2 POP POP JUMP JUMPDEST PUSH2 0x2CD PUSH2 0x3388 JUMP JUMPDEST PUSH1 0x40 MLOAD DUP1 PUSH1 0x40 ADD PUSH1 0x40 MSTORE DUP1 PUSH32 0x2B8F808F0C59EE9E10BED4A05F4E860587A72A60892744EA279B82941709F181 DUP2 MSTORE PUSH1 0x20 ADD PUSH32 0x7BC556C891897C7CB95129D12366E11B64BC0BC1A7952912AC93CDCF5AFC763 DUP2 MSTORE POP DUP2 PUSH1 0x0 ADD DUP2 SWAP1 MSTORE POP PUSH1 0x40 MLOAD DUP1 PUSH1 0x40 ADD PUSH1 0x40 MSTORE DUP1 PUSH1 0x40 MLOAD DUP1 PUSH1 0x40 ADD PUSH1 0x40 MSTORE DUP1 PUSH32 0x305D831804B456605E37E9844D7A613CC8BCFFFE9E8A23DC684AC3F82BC4EE5D DUP2 MSTORE PUSH1 0x20 ADD PUSH32 0x1B34A55531D4EDDA714D12FE0F3C35184C9D59B6E48839066517F986E2995DFA DUP2 MSTORE POP DUP2 MSTORE PUSH1 0x20 ADD PUSH1 0x40 MLOAD DUP1 PUSH1 0x40 ADD PUSH1 0x40 MSTORE DUP1 PUSH32 0xDA7F0515480703066D431BB4A6BD8F8241864EAE0EC4A5183486DB75A312B8F DUP2 MSTORE PUSH1 0x20 ADD PUSH31 0x460C53EA9F5A8BB9BF37E6716EED7F74199A54B3EBFD043D3954BB1A8413C0 DUP2 MSTORE POP DUP2 MSTORE POP DUP2 PUSH1 0x20 ADD DUP2 SWAP1 MSTORE POP PUSH1 0x40 MLOAD DUP1 PUSH1 0x40 ADD PUSH1 0x40 MSTORE DUP1 PUSH1 0x40 MLOAD DUP1 PUSH1 0x40 ADD PUSH1 0x40 MSTORE DUP1 PUSH32 0x1950004673EC441581F945C4604E8F6347449F56F399F5424219CC63599AF4FE DUP2 MSTORE PUSH1 0x20 ADD PUSH32 0x268A2B6A75AA656F8E4C8CC4744E467999ED3B2E3F5AF2858A7A9C09B3AC0AC3 DUP2 MSTORE POP DUP2 MSTORE PUSH1 0x20 ADD PUSH1 0x40 MLOAD DUP1 PUSH1 0x40 ADD PUSH1 0x40 MSTORE DUP1 PUSH32 0x1FACF4DE23189655098E0907BDADFF12F0A6F752BB088688A68593FED9317E2A DUP2 MSTORE PUSH1 0x20 ADD PUSH32 0x2ABF066CF0513F57F8E51823389D61405A7C3EADE00BD62B29ECA6892EA292B3 DUP2 MSTORE POP DUP2 MSTORE POP DUP2 PUSH1 0x40 ADD DUP2 SWAP1 MSTORE POP PUSH1 0x40 MLOAD DUP1 PUSH1 0x40 ADD PUSH1 0x40 MSTORE DUP1 PUSH1 0x40 MLOAD DUP1 PUSH1 0x40 ADD PUSH1 0x40 MSTORE DUP1 PUSH32 0x28F6E07E88C6E6BDFE9E5F7F18B8936591913E2D937511B22731E3E100B04414 DUP2 MSTORE PUSH1 0x20 ADD PUSH32 0xC9F32D68DE80AE7B1D78BE828DD72A1EA0171273B924C4FD797D0AF5DAE8AFA DUP2 MSTORE POP DUP2 MSTORE PUSH1 0x20 ADD PUSH1 0x40 MLOAD DUP1 PUSH1 0x40 ADD PUSH1 0x40 MSTORE DUP1 PUSH32 0xE5521DBE05D26CE36A27C3A35FC748FD8ECD3F805E1F0F3C63A931CF48BEDAE DUP2 MSTORE PUSH1 0x20 ADD PUSH32 0x2C0622565578621DDC7F7969F42E0861A50A5CCC4A512224B6795336BA3261D DUP2 MSTORE POP DUP2 MSTORE POP DUP2 PUSH1 0x60 ADD DUP2 SWAP1 MSTORE POP PUSH1 0x52 PUSH8 0xFFFFFFFFFFFFFFFF DUP2 GT ISZERO PUSH2 0x593 JUMPI PUSH2 0x592 PUSH2 0x39E4 JUMP JUMPDEST JUMPDEST PUSH1 0x40 MLOAD SWAP1 DUP1 DUP3 MSTORE DUP1 PUSH1 0x20 MUL PUSH1 0x20 ADD DUP3 ADD PUSH1 0x40 MSTORE DUP1 ISZERO PUSH2 0x5CC JUMPI DUP2 PUSH1 0x20 ADD JUMPDEST PUSH2 0x5B9 PUSH2 0x33CF JUMP JUMPDEST DUP2 MSTORE PUSH1 0x20 ADD SWAP1 PUSH1 0x1 SWAP1 SUB SWAP1 DUP2 PUSH2 0x5B1 JUMPI SWAP1 POP JUMPDEST POP DUP2 PUSH1 0x80 ADD DUP2 SWAP1 MSTORE POP PUSH1 0x40 MLOAD DUP1 PUSH1 0x40 ADD PUSH1 0x40 MSTORE DUP1 PUSH32 0x1D76732270C37E5CC7A7DFB6ACC64751C737DC9B6CBE865B9AF4F19F1FB87672 DUP2 MSTORE PUSH1 0x20 ADD PUSH32 0x201E3D4F7959CEC5600499B924DAC2D507809954C55AC9067124E866108ACB65 DUP2 MSTORE POP DUP2 PUSH1 0x80 ADD MLOAD PUSH1 0x0 DUP2 MLOAD DUP2 LT PUSH2 0x642 JUMPI PUSH2 0x641 PUSH2 0x39B5 JUMP JUMPDEST JUMPDEST PUSH1 0x20 MUL PUSH1 0x20 ADD ADD DUP2 SWAP1 MSTORE POP PUSH1 0x40 MLOAD DUP1 PUSH1 0x40 ADD PUSH1 0x40 MSTORE DUP1 PUSH32 0x28308B88C19B06BFC35D0BDEA051A618F56D12E52AD99E1565812AAD5BE6A059 DUP2 MSTORE PUSH1 0x20 ADD PUSH32 0xC017100B5FFCE58353E7BB0CAF8A5E7C15BD17A60B043908E96B7CAB2FABE3B DUP2 MSTORE POP DUP2 PUSH1 0x80 ADD MLOAD PUSH1 0x1 DUP2 MLOAD DUP2 LT PUSH2 0x6BA JUMPI PUSH2 0x6B9 PUSH2 0x39B5 JUMP JUMPDEST JUMPDEST PUSH1 0x20 MUL PUSH1 0x20 ADD ADD DUP2 SWAP1 MSTORE POP PUSH1 0x40 MLOAD DUP1 PUSH1 0x40 ADD PUSH1 0x40 MSTORE DUP1 PUSH32 0x651D224CA61DB513CFAE371E465454D4ADAC72CD7F61D2D8A9845137B5E170B DUP2 MSTORE PUSH1 0x20 ADD PUSH32 0x186797C2B751B47E435FE529029E25DC60EFEE15C207DA37EB9382F986930C8B DUP2 MSTORE POP DUP2 PUSH1 0x80 ADD MLOAD PUSH1 0x2 DUP2 MLOAD DUP2 LT PUSH2 0x732 JUMPI PUSH2 0x731 PUSH2 0x39B5 JUMP JUMPDEST JUMPDEST PUSH1 0x20 MUL PUSH1 0x20 ADD ADD DUP2 SWAP1 MSTORE POP PUSH1 0x40 MLOAD DUP1 PUSH1 0x40 ADD PUSH1 0x40 MSTORE DUP1 PUSH32 0x1BBED9AC9C10FEECB4FA8E44F5617A7EDC3D6DB5087F88983FDFE4AE2AF61E42 DUP2 MSTORE PUSH1 0x20 ADD PUSH32 0x263951A2A6B7D10340DF990B1EB58A46439BAC9480DF35A9A6EC44EE180C94B3 DUP2 MSTORE POP DUP2 PUSH1 0x80 ADD MLOAD PUSH1 0x3 DUP2 MLOAD DUP2 LT PUSH2 0x7AA JUMPI PUSH2 0x7A9 PUSH2 0x39B5 JUMP JUMPDEST JUMPDEST PUSH1 0x20 MUL PUSH1 0x20 ADD ADD DUP2 SWAP1 MSTORE POP PUSH1 0x40 MLOAD DUP1 PUSH1 0x40 ADD PUSH1 0x40 MSTORE DUP1 PUSH32 0x6638AE27BCA2AC943A580A97E48EF939909F975AED6ED7ADBD3DDDECE22E80B DUP2 MSTORE PUSH1 0x20 ADD PUSH32 0x24F50B514916C08D177FDA5A876AF3D2839EC4617DDAE958A91C76A8B04AECE DUP2 MSTORE POP DUP2 PUSH1 0x80 ADD MLOAD PUSH1 0x4 DUP2 MLOAD DUP2 LT PUSH2 0x822 JUMPI PUSH2 0x821 PUSH2 0x39B5 JUMP JUMPDEST JUMPDEST PUSH1 0x20 MUL PUSH1 0x20 ADD ADD DUP2 SWAP1 MSTORE POP PUSH1 0x40 MLOAD DUP1 PUSH1 0x40 ADD PUSH1 0x40 MSTORE DUP1 PUSH32 0x1CA5738DC18CC0AF7B08FC71AA1868C35AEF50F07574B31B8D42F9198019F9B DUP2 MSTORE PUSH1 0x20 ADD PUSH32 0x2D7EE3443AB1B2CE564EB8DC92D949C37040DE18606C14DD93EA1FE83EBD1D0A DUP2 MSTORE POP DUP2 PUSH1 0x80 ADD MLOAD PUSH1 0x5 DUP2 MLOAD DUP2 LT PUSH2 0x89A JUMPI PUSH2 0x899 PUSH2 0x39B5 JUMP JUMPDEST JUMPDEST PUSH1 0x20 MUL PUSH1 0x20 ADD ADD DUP2 SWAP1 MSTORE POP PUSH1 0x40 MLOAD DUP1 PUSH1 0x40 ADD PUSH1 0x40 MSTORE DUP1 PUSH32 0x4DDF1582C4F7A3F0D60EE6FDB67172F4F725E2E2F242FD79E0E787C1D9853F5 DUP2 MSTORE PUSH1 0x20 ADD PUSH32 0x5180499139F73D43683EC41066A8CDCE10C8C5FFDF931A6A42F144571807853 DUP2 MSTORE POP DUP2 PUSH1 0x80 ADD MLOAD PUSH1 0x6 DUP2 MLOAD DUP2 LT PUSH2 0x912 JUMPI PUSH2 0x911 PUSH2 0x39B5 JUMP JUMPDEST JUMPDEST PUSH1 0x20 MUL PUSH1 0x20 ADD ADD DUP2 SWAP1 MSTORE POP PUSH1 0x40 MLOAD DUP1 PUSH1 0x40 ADD PUSH1 0x40 MSTORE DUP1 PUSH31 0x370DED6B5AFC6C766C6B1C31B586A988E5D2D98B44C98B511763890AA66799 DUP2 MSTORE PUSH1 0x20 ADD PUSH32 0x1190063E48DB1AA62959846C77AE6698171155F6E8874B5443615E9AB3915F24 DUP2 MSTORE POP DUP2 PUSH1 0x80 ADD MLOAD PUSH1 0x7 DUP2 MLOAD DUP2 LT PUSH2 0x989 JUMPI PUSH2 0x988 PUSH2 0x39B5 JUMP JUMPDEST JUMPDEST PUSH1 0x20 MUL PUSH1 0x20 ADD ADD DUP2 SWAP1 MSTORE POP PUSH1 0x40 MLOAD DUP1 PUSH1 0x40 ADD PUSH1 0x40 MSTORE DUP1 PUSH32 0x1E486ADBE00C33A19759921894B6A6597BE16128F02261C417CF09CD7D2EECC9 DUP2 MSTORE PUSH1 0x20 ADD PUSH32 0x161932EDEB7A2344E317BF3606534769BDCFA34E0145CE1AE587845D4AF9762A DUP2 MSTORE POP DUP2 PUSH1 0x80 ADD MLOAD PUSH1 0x8 DUP2 MLOAD DUP2 LT PUSH2 0xA01 JUMPI PUSH2 0xA00 PUSH2 0x39B5 JUMP JUMPDEST JUMPDEST PUSH1 0x20 MUL PUSH1 0x20 ADD ADD DUP2 SWAP1 MSTORE POP PUSH1 0x40 MLOAD DUP1 PUSH1 0x40 ADD PUSH1 0x40 MSTORE DUP1 PUSH32 0x14FE2B6947E472592748997F854E325098F2AA5ADE99D05A704AFCDDBF0FC8AA DUP2 MSTORE PUSH1 0x20 ADD PUSH32 0xFDFF3A959A4820C006A68AC1BDE9E67E021DC4DD7B4EBF359C8FD827275B428 DUP2 MSTORE POP DUP2 PUSH1 0x80 ADD MLOAD PUSH1 0x9 DUP2 MLOAD DUP2 LT PUSH2 0xA79 JUMPI PUSH2 0xA78 PUSH2 0x39B5 JUMP JUMPDEST JUMPDEST PUSH1 0x20 MUL PUSH1 0x20 ADD ADD DUP2 SWAP1 MSTORE POP PUSH1 0x40 MLOAD DUP1 PUSH1 0x40 ADD PUSH1 0x40 MSTORE DUP1 PUSH32 0xB2820941C86160BC9EC41A837F1EC878EE576021127E7079DE44992C7261475 DUP2 MSTORE PUSH1 0x20 ADD PUSH32 0x439A36EDECE22D1782AAEA533850D3C8125931FB1C58A74DFD610AE93E828AE DUP2 MSTORE POP DUP2 PUSH1 0x80 ADD MLOAD PUSH1 0xA DUP2 MLOAD DUP2 LT PUSH2 0xAF1 JUMPI PUSH2 0xAF0 PUSH2 0x39B5 JUMP JUMPDEST JUMPDEST PUSH1 0x20 MUL PUSH1 0x20 ADD ADD DUP2 SWAP1 MSTORE POP PUSH1 0x40 MLOAD DUP1 PUSH1 0x40 ADD PUSH1 0x40 MSTORE DUP1 PUSH32 0x21BEAC1EE6B407FE70285B9C80CEE5A7445C0DEDB17ED50827949F17FAA5029C DUP2 MSTORE PUSH1 0x20 ADD PUSH32 0x27C75FB95F41ACB1386DF7A3D6558B63A0A254FC6219533A65EFA360B0FA478F DUP2 MSTORE POP DUP2 PUSH1 0x80 ADD MLOAD PUSH1 0xB DUP2 MLOAD DUP2 LT PUSH2 0xB69 JUMPI PUSH2 0xB68 PUSH2 0x39B5 JUMP JUMPDEST JUMPDEST PUSH1 0x20 MUL PUSH1 0x20 ADD ADD DUP2 SWAP1 MSTORE POP PUSH1 0x40 MLOAD DUP1 PUSH1 0x40 ADD PUSH1 0x40 MSTORE DUP1 PUSH32 0x12ED5939F8B4AB4FE9CF1945C56FEDA13FF44B30EE91D9D974A69799EFAF41AD DUP2 MSTORE PUSH1 0x20 ADD PUSH32 0x1D1D40DF32EAC3C51382CF6BAC0832F59CFF77E378C7477CA59650EB57FF636A DUP2 MSTORE POP DUP2 PUSH1 0x80 ADD MLOAD PUSH1 0xC DUP2 MLOAD DUP2 LT PUSH2 0xBE1 JUMPI PUSH2 0xBE0 PUSH2 0x39B5 JUMP JUMPDEST JUMPDEST PUSH1 0x20 MUL PUSH1 0x20 ADD ADD DUP2 SWAP1 MSTORE POP PUSH1 0x40 MLOAD DUP1 PUSH1 0x40 ADD PUSH1 0x40 MSTORE DUP1 PUSH32 0x1BC46D057485C106D03F3B340B4FFCC7F590EFA46368B40CDB8D073401F77EF9 DUP2 MSTORE PUSH1 0x20 ADD PUSH32 0x8D2237CB340F626EF41DFB195C65FB763CCC4FD5F8DDEC89CAF506BD5ECE9C3 DUP2 MSTORE POP DUP2 PUSH1 0x80 ADD MLOAD PUSH1 0xD DUP2 MLOAD DUP2 LT PUSH2 0xC59 JUMPI PUSH2 0xC58 PUSH2 0x39B5 JUMP JUMPDEST JUMPDEST PUSH1 0x20 MUL PUSH1 0x20 ADD ADD DUP2 SWAP1 MSTORE POP PUSH1 0x40 MLOAD DUP1 PUSH1 0x40 ADD PUSH1 0x40 MSTORE DUP1 PUSH32 0x2E02CF420C63657DEE4169C9AB72E648015262DD73F44E6BA5AFA8416A1D333B DUP2 MSTORE PUSH1 0x20 ADD PUSH32 0x1497C9E77FB9958B16871B12B91B468D2BB0AC43BD8C4B7639A70F0892D510CD DUP2 MSTORE POP DUP2 PUSH1 0x80 ADD MLOAD PUSH1 0xE DUP2 MLOAD DUP2 LT PUSH2 0xCD1 JUMPI PUSH2 0xCD0 PUSH2 0x39B5 JUMP JUMPDEST JUMPDEST PUSH1 0x20 MUL PUSH1 0x20 ADD ADD DUP2 SWAP1 MSTORE POP PUSH1 0x40 MLOAD DUP1 PUSH1 0x40 ADD PUSH1 0x40 MSTORE DUP1 PUSH32 0x180B9304376F99433D19E1CB1CA92D0A677D33DB1BE944F543255AA19B5641F7 DUP2 MSTORE PUSH1 0x20 ADD PUSH32 0x1E25B8219732A24FE018B05179CFBADFD7D21019BA25DBA201C2956353123145 DUP2 MSTORE POP DUP2 PUSH1 0x80 ADD MLOAD PUSH1 0xF DUP2 MLOAD DUP2 LT PUSH2 0xD49 JUMPI PUSH2 0xD48 PUSH2 0x39B5 JUMP JUMPDEST JUMPDEST PUSH1 0x20 MUL PUSH1 0x20 ADD ADD DUP2 SWAP1 MSTORE POP PUSH1 0x40 MLOAD DUP1 PUSH1 0x40 ADD PUSH1 0x40 MSTORE DUP1 PUSH32 0x1FE9F70820764E50188C346B034642DDC01AD82F3C09A1F98888C29982E9B7A5 DUP2 MSTORE PUSH1 0x20 ADD PUSH32 0xDC8CB9AD2F2BC2D00E81D9283C15CD9D25A005B0B43A9694D24B4F27CCF5A59 DUP2 MSTORE POP DUP2 PUSH1 0x80 ADD MLOAD PUSH1 0x10 DUP2 MLOAD DUP2 LT PUSH2 0xDC1 JUMPI PUSH2 0xDC0 PUSH2 0x39B5 JUMP JUMPDEST JUMPDEST PUSH1 0x20 MUL PUSH1 0x20 ADD ADD DUP2 SWAP1 MSTORE POP PUSH1 0x40 MLOAD DUP1 PUSH1 0x40 ADD PUSH1 0x40 MSTORE DUP1 PUSH32 0x1CF298B87B0581894BD4E16555765873CA7A0E1E6886F32BF51542EC466596E0 DUP2 MSTORE PUSH1 0x20 ADD PUSH32 0x14FE1B25C66B9F4EBDE4ECEA93E666D18A1BDB347212D4509C3E2F9CF469A088 DUP2 MSTORE POP DUP2 PUSH1 0x80 ADD MLOAD PUSH1 0x11 DUP2 MLOAD DUP2 LT PUSH2 0xE39 JUMPI PUSH2 0xE38 PUSH2 0x39B5 JUMP JUMPDEST JUMPDEST PUSH1 0x20 MUL PUSH1 0x20 ADD ADD DUP2 SWAP1 MSTORE POP PUSH1 0x40 MLOAD DUP1 PUSH1 0x40 ADD PUSH1 0x40 MSTORE DUP1 PUSH32 0x24CD0D668E93100F41A4082CDE60B23485A10A30FE996F826DAD5461E5E7AFAC DUP2 MSTORE PUSH1 0x20 ADD PUSH32 0xFFC522000E19DC8CE7123E342BF50EA2CB9DC1220177CF0435354B1F499A2BD DUP2 MSTORE POP DUP2 PUSH1 0x80 ADD MLOAD PUSH1 0x12 DUP2 MLOAD DUP2 LT PUSH2 0xEB1 JUMPI PUSH2 0xEB0 PUSH2 0x39B5 JUMP JUMPDEST JUMPDEST PUSH1 0x20 MUL PUSH1 0x20 ADD ADD DUP2 SWAP1 MSTORE POP PUSH1 0x40 MLOAD DUP1 PUSH1 0x40 ADD PUSH1 0x40 MSTORE DUP1 PUSH32 0x2F3131DAD86E468FA56DCACE00127883E33C1D37FA0194F17CCAAF2F5D7CA366 DUP2 MSTORE PUSH1 0x20 ADD PUSH32 0x224C8A9A450B06896205C49658B3A4A3AC18374CD3FE24910832274DC3D11169 DUP2 MSTORE POP DUP2 PUSH1 0x80 ADD MLOAD PUSH1 0x13 DUP2 MLOAD DUP2 LT PUSH2 0xF29 JUMPI PUSH2 0xF28 PUSH2 0x39B5 JUMP JUMPDEST JUMPDEST PUSH1 0x20 MUL PUSH1 0x20 ADD ADD DUP2 SWAP1 MSTORE POP PUSH1 0x40 MLOAD DUP1 PUSH1 0x40 ADD PUSH1 0x40 MSTORE DUP1 PUSH32 0x65998167E81F9F5C83FA57347D83098A0DACA467D4768AE2EAE85B3EC78B3A2 DUP2 MSTORE PUSH1 0x20 ADD PUSH32 0x29F580FB0C9DAC3693ADE9AFCDE73035B558D3B1C8345F64766B166D3C400B63 DUP2 MSTORE POP DUP2 PUSH1 0x80 ADD MLOAD PUSH1 0x14 DUP2 MLOAD DUP2 LT PUSH2 0xFA1 JUMPI PUSH2 0xFA0 PUSH2 0x39B5 JUMP JUMPDEST JUMPDEST PUSH1 0x20 MUL PUSH1 0x20 ADD ADD DUP2 SWAP1 MSTORE POP PUSH1 0x40 MLOAD DUP1 PUSH1 0x40 ADD PUSH1 0x40 MSTORE DUP1 PUSH32 0x2012020BE15E814B944A26D3109479EE28B0E85F3D14704AC5D141C8A76A547F DUP2 MSTORE PUSH1 0x20 ADD PUSH32 0x1E13044B759307C725028910F7F8D749B6E2E2BFE6640354E946EA9B58AF63F0 DUP2 MSTORE POP DUP2 PUSH1 0x80 ADD MLOAD PUSH1 0x15 DUP2 MLOAD DUP2 LT PUSH2 0x1019 JUMPI PUSH2 0x1018 PUSH2 0x39B5 JUMP JUMPDEST JUMPDEST PUSH1 0x20 MUL PUSH1 0x20 ADD ADD DUP2 SWAP1 MSTORE POP PUSH1 0x40 MLOAD DUP1 PUSH1 0x40 ADD PUSH1 0x40 MSTORE DUP1 PUSH32 0x1DA24732E012DCF09D855CD8C1FAE841A94C0920C6DDB7F9A7B8DCF27CAB2172 DUP2 MSTORE PUSH1 0x20 ADD PUSH32 0x46CC1A06162148F2C0EBE318A9187BA53B73E47EC773F77B09CE2558E892D5E DUP2 MSTORE POP DUP2 PUSH1 0x80 ADD MLOAD PUSH1 0x16 DUP2 MLOAD DUP2 LT PUSH2 0x1091 JUMPI PUSH2 0x1090 PUSH2 0x39B5 JUMP JUMPDEST JUMPDEST PUSH1 0x20 MUL PUSH1 0x20 ADD ADD DUP2 SWAP1 MSTORE POP PUSH1 0x40 MLOAD DUP1 PUSH1 0x40 ADD PUSH1 0x40 MSTORE DUP1 PUSH32 0x2F2D93F8D2AD9323AD2C4C0CDA9659BBC71C8050318A90EC9AB7E81AE8BE6D01 DUP2 MSTORE PUSH1 0x20 ADD PUSH32 0x2CC13CD666348C7A66FAE9483381331F0EDAAA3EEC8B8552C10DC0ECF22B46B9 DUP2 MSTORE POP DUP2 PUSH1 0x80 ADD MLOAD PUSH1 0x17 DUP2 MLOAD DUP2 LT PUSH2 0x1109 JUMPI PUSH2 0x1108 PUSH2 0x39B5 JUMP JUMPDEST JUMPDEST PUSH1 0x20 MUL PUSH1 0x20 ADD ADD DUP2 SWAP1 MSTORE POP PUSH1 0x40 MLOAD DUP1 PUSH1 0x40 ADD PUSH1 0x40 MSTORE DUP1 PUSH32 0x2B442D530049352E5D8E38B0B7EE03EA8C7DBBFE0BBDC1913FB2BF87027F3BF9 DUP2 MSTORE PUSH1 0x20 ADD PUSH32 0x2BF600F16A4C3DBD643AC6F240B91A63C5B62F8B68CE723AE86610D0B1A5C202 DUP2 MSTORE POP DUP2 PUSH1 0x80 ADD MLOAD PUSH1 0x18 DUP2 MLOAD DUP2 LT PUSH2 0x1181 JUMPI PUSH2 0x1180 PUSH2 0x39B5 JUMP JUMPDEST JUMPDEST PUSH1 0x20 MUL PUSH1 0x20 ADD ADD DUP2 SWAP1 MSTORE POP PUSH1 0x40 MLOAD DUP1 PUSH1 0x40 ADD PUSH1 0x40 MSTORE DUP1 PUSH32 0x27E4AB12FFF93A24685BF555BEF392B6787A01E18080BC75BA676C525B9AFB4B DUP2 MSTORE PUSH1 0x20 ADD PUSH32 0x179660777BD4EEB680A0E87B5DD4D0BDE5FB80C87EDCD034AAC752B14AA8C383 DUP2 MSTORE POP DUP2 PUSH1 0x80 ADD MLOAD PUSH1 0x19 DUP2 MLOAD DUP2 LT PUSH2 0x11F9 JUMPI PUSH2 0x11F8 PUSH2 0x39B5 JUMP JUMPDEST JUMPDEST PUSH1 0x20 MUL PUSH1 0x20 ADD ADD DUP2 SWAP1 MSTORE POP PUSH1 0x40 MLOAD DUP1 PUSH1 0x40 ADD PUSH1 0x40 MSTORE DUP1 PUSH32 0x18BFE30A1C8EB9BAF2C52852DC84D3B18F39C9BB3E853A27948C3D4D45987AC0 DUP2 MSTORE PUSH1 0x20 ADD PUSH32 0x2055BE10368AB0579175012D4A5296410C53D09FD6C1AB31F8C30141A1D6B78B DUP2 MSTORE POP DUP2 PUSH1 0x80 ADD MLOAD PUSH1 0x1A DUP2 MLOAD DUP2 LT PUSH2 0x1271 JUMPI PUSH2 0x1270 PUSH2 0x39B5 JUMP JUMPDEST JUMPDEST PUSH1 0x20 MUL PUSH1 0x20 ADD ADD DUP2 SWAP1 MSTORE POP PUSH1 0x40 MLOAD DUP1 PUSH1 0x40 ADD PUSH1 0x40 MSTORE DUP1 PUSH32 0x23745ABF9CF3730877A814E0B85E5EB2B5607A4C9E2FE369B0C543A7F6B50C15 DUP2 MSTORE PUSH1 0x20 ADD PUSH32 0x1D81336CA41D38B9D4DC2C22D04E4FAAEC6E7553CADEC4CD287C5DF2BA4838F9 DUP2 MSTORE POP DUP2 PUSH1 0x80 ADD MLOAD PUSH1 0x1B DUP2 MLOAD DUP2 LT PUSH2 0x12E9 JUMPI PUSH2 0x12E8 PUSH2 0x39B5 JUMP JUMPDEST JUMPDEST PUSH1 0x20 MUL PUSH1 0x20 ADD ADD DUP2 SWAP1 MSTORE POP PUSH1 0x40 MLOAD DUP1 PUSH1 0x40 ADD PUSH1 0x40 MSTORE DUP1 PUSH32 0x22AFD2466FC028D58013C8C8AAA2BC79BC24515637974E4B22F289DF05216A84 DUP2 MSTORE PUSH1 0x20 ADD PUSH32 0xE3F24C9C6E05669CD409B6EC17F130ECBDC1C4CD30517ADE86D5979712A18C5 DUP2 MSTORE POP DUP2 PUSH1 0x80 ADD MLOAD PUSH1 0x1C DUP2 MLOAD DUP2 LT PUSH2 0x1361 JUMPI PUSH2 0x1360 PUSH2 0x39B5 JUMP JUMPDEST JUMPDEST PUSH1 0x20 MUL PUSH1 0x20 ADD ADD DUP2 SWAP1 MSTORE POP PUSH1 0x40 MLOAD DUP1 PUSH1 0x40 ADD PUSH1 0x40 MSTORE DUP1 PUSH32 0xC593CDADD3A81B4DBD39CCB2426FDEE09651E20EBA5DF8F1AC07F95EBF4BBEA DUP2 MSTORE PUSH1 0x20 ADD PUSH32 0x206DA793A2E36D0CD2844643EE3F1C842584AAFABE759CEE968DFE90DA5CF24A DUP2 MSTORE POP DUP2 PUSH1 0x80 ADD MLOAD PUSH1 0x1D DUP2 MLOAD DUP2 LT PUSH2 0x13D9 JUMPI PUSH2 0x13D8 PUSH2 0x39B5 JUMP JUMPDEST JUMPDEST PUSH1 0x20 MUL PUSH1 0x20 ADD ADD DUP2 SWAP1 MSTORE POP PUSH1 0x40 MLOAD DUP1 PUSH1 0x40 ADD PUSH1 0x40 MSTORE DUP1 PUSH32 0xB85ADF426D0969F617275F353267A8467702EB9E59ED21C41C54573EB354171 DUP2 MSTORE PUSH1 0x20 ADD PUSH32 0x58835246DCE9B8B22B63225C3448623516921708518481715680DEB56E94F6F DUP2 MSTORE POP DUP2 PUSH1 0x80 ADD MLOAD PUSH1 0x1E DUP2 MLOAD DUP2 LT PUSH2 0x1451 JUMPI PUSH2 0x1450 PUSH2 0x39B5 JUMP JUMPDEST JUMPDEST PUSH1 0x20 MUL PUSH1 0x20 ADD ADD DUP2 SWAP1 MSTORE POP PUSH1 0x40 MLOAD DUP1 PUSH1 0x40 ADD PUSH1 0x40 MSTORE DUP1 PUSH32 0x65A96A1FDBF31D7C9454329B46579E68D776ABF53D0D9BCEAFC0C2C07AC7F29 DUP2 MSTORE PUSH1 0x20 ADD PUSH32 0x1244B1EBD4A566ACCAAFB0266C755E2050A317F7C41022A15872D23B2766D68A DUP2 MSTORE POP DUP2 PUSH1 0x80 ADD MLOAD PUSH1 0x1F DUP2 MLOAD DUP2 LT PUSH2 0x14C9 JUMPI PUSH2 0x14C8 PUSH2 0x39B5 JUMP JUMPDEST JUMPDEST PUSH1 0x20 MUL PUSH1 0x20 ADD ADD DUP2 SWAP1 MSTORE POP PUSH1 0x40 MLOAD DUP1 PUSH1 0x40 ADD PUSH1 0x40 MSTORE DUP1 PUSH32 0x10FA161F039EE5EDADCB5D0F4239B6081B84497A61B9C35A52731BA5EB0326B5 DUP2 MSTORE PUSH1 0x20 ADD PUSH32 0x22AD07EBA118E35CFD6B85CB3091E2B3DCCF77D448B045BEA9DE2EC1CDC87EA5 DUP2 MSTORE POP DUP2 PUSH1 0x80 ADD MLOAD PUSH1 0x20 DUP2 MLOAD DUP2 LT PUSH2 0x1541 JUMPI PUSH2 0x1540 PUSH2 0x39B5 JUMP JUMPDEST JUMPDEST PUSH1 0x20 MUL PUSH1 0x20 ADD ADD DUP2 SWAP1 MSTORE POP PUSH1 0x40 MLOAD DUP1 PUSH1 0x40 ADD PUSH1 0x40 MSTORE DUP1 PUSH32 0xE45145CAF15F6095797E471642FD025CCB206896EBD053DF144251F9647A230 DUP2 MSTORE PUSH1 0x20 ADD PUSH32 0x3CF5DB66D08705E033D3C83933EA4B7EE1B82AA40307F4A1DEC9B49EE05270E DUP2 MSTORE POP DUP2 PUSH1 0x80 ADD MLOAD PUSH1 0x21 DUP2 MLOAD DUP2 LT PUSH2 0x15B9 JUMPI PUSH2 0x15B8 PUSH2 0x39B5 JUMP JUMPDEST JUMPDEST PUSH1 0x20 MUL PUSH1 0x20 ADD ADD DUP2 SWAP1 MSTORE POP PUSH1 0x40 MLOAD DUP1 PUSH1 0x40 ADD PUSH1 0x40 MSTORE DUP1 PUSH32 0x2D4EAEDEFD1FB7BDBA4E0025449775656393FD261A7E8802A1CC85A0DB248DA8 DUP2 MSTORE PUSH1 0x20 ADD PUSH32 0x261C6FA7F0CD622E19D7704CBAA5DFB2FC9F9192A1529B80EC244BB7B530FAB9 DUP2 MSTORE POP DUP2 PUSH1 0x80 ADD MLOAD PUSH1 0x22 DUP2 MLOAD DUP2 LT PUSH2 0x1631 JUMPI PUSH2 0x1630 PUSH2 0x39B5 JUMP JUMPDEST JUMPDEST PUSH1 0x20 MUL PUSH1 0x20 ADD ADD DUP2 SWAP1 MSTORE POP PUSH1 0x40 MLOAD DUP1 PUSH1 0x40 ADD PUSH1 0x40 MSTORE DUP1 PUSH32 0xC9FC9581E737CE7DCD32D31369D0EB3918AE4ADA30AF25A4B42E87D1BDA30D9 DUP2 MSTORE PUSH1 0x20 ADD PUSH32 0x14203AC8E540474DAC9498737C17A4E632A6CCA94003BCF37216D670A5B6A28B DUP2 MSTORE POP DUP2 PUSH1 0x80 ADD MLOAD PUSH1 0x23 DUP2 MLOAD DUP2 LT PUSH2 0x16A9 JUMPI PUSH2 0x16A8 PUSH2 0x39B5 JUMP JUMPDEST JUMPDEST PUSH1 0x20 MUL PUSH1 0x20 ADD ADD DUP2 SWAP1 MSTORE POP PUSH1 0x40 MLOAD DUP1 PUSH1 0x40 ADD PUSH1 0x40 MSTORE DUP1 PUSH32 0x6597EEEFF3138452891433D24881FDF5316954618C2F996B21B4600246A94FD DUP2 MSTORE PUSH1 0x20 ADD PUSH32 0x1164ED7D4504190464AD846A0DC582AA0F91C3B56274501FBCAC1447F437D34B DUP2 MSTORE POP DUP2 PUSH1 0x80 ADD MLOAD PUSH1 0x24 DUP2 MLOAD DUP2 LT PUSH2 0x1721 JUMPI PUSH2 0x1720 PUSH2 0x39B5 JUMP JUMPDEST JUMPDEST PUSH1 0x20 MUL PUSH1 0x20 ADD ADD DUP2 SWAP1 MSTORE POP PUSH1 0x40 MLOAD DUP1 PUSH1 0x40 ADD PUSH1 0x40 MSTORE DUP1 PUSH32 0x25055D5C8721C57795F1998879874A403D5CCB6A57293EB96F4B31743CFFBE77 DUP2 MSTORE PUSH1 0x20 ADD PUSH32 0x2A83D717C34EE91D386B8FAA4DC633CD9ED3433A63005C55F3F6319FCE7E49CC DUP2 MSTORE POP DUP2 PUSH1 0x80 ADD MLOAD PUSH1 0x25 DUP2 MLOAD DUP2 LT PUSH2 0x1799 JUMPI PUSH2 0x1798 PUSH2 0x39B5 JUMP JUMPDEST JUMPDEST PUSH1 0x20 MUL PUSH1 0x20 ADD ADD DUP2 SWAP1 MSTORE POP PUSH1 0x40 MLOAD DUP1 PUSH1 0x40 ADD PUSH1 0x40 MSTORE DUP1 PUSH32 0xDEB2242EE918A981B71BFA9AF23D81C4471F5320517945F5D54D5DBC3EBC3E6 DUP2 MSTORE PUSH1 0x20 ADD PUSH32 0x4773C22094671DE0C77CD056B228926AEEBA8AD9127DF5FE1D5E8ED93C1FB5E DUP2 MSTORE POP DUP2 PUSH1 0x80 ADD MLOAD PUSH1 0x26 DUP2 MLOAD DUP2 LT PUSH2 0x1811 JUMPI PUSH2 0x1810 PUSH2 0x39B5 JUMP JUMPDEST JUMPDEST PUSH1 0x20 MUL PUSH1 0x20 ADD ADD DUP2 SWAP1 MSTORE POP PUSH1 0x40 MLOAD DUP1 PUSH1 0x40 ADD PUSH1 0x40 MSTORE DUP1 PUSH32 0x289F3D488ACCE2727438516C22A23A9DE5540CE926456FD0A4AAAAE8445B8499 DUP2 MSTORE PUSH1 0x20 ADD PUSH32 0x1B95DF75164291FE0980670144AC88C44AE53901C3864E7C78B17F1CC43381FA DUP2 MSTORE POP DUP2 PUSH1 0x80 ADD MLOAD PUSH1 0x27 DUP2 MLOAD DUP2 LT PUSH2 0x1889 JUMPI PUSH2 0x1888 PUSH2 0x39B5 JUMP JUMPDEST JUMPDEST PUSH1 0x20 MUL PUSH1 0x20 ADD ADD DUP2 SWAP1 MSTORE POP PUSH1 0x40 MLOAD DUP1 PUSH1 0x40 ADD PUSH1 0x40 MSTORE DUP1 PUSH32 0xFA7BDEF79B07F8AF2A962974CBC8BEBC49F3E1705AEFCA70096065E0469DB2E DUP2 MSTORE PUSH1 0x20 ADD PUSH32 0x247477255D906614C551C359DCE06A5663E4C36F90F35E3800D5E57443D1CDEA DUP2 MSTORE POP DUP2 PUSH1 0x80 ADD MLOAD PUSH1 0x28 DUP2 MLOAD DUP2 LT PUSH2 0x1901 JUMPI PUSH2 0x1900 PUSH2 0x39B5 JUMP JUMPDEST JUMPDEST PUSH1 0x20 MUL PUSH1 0x20 ADD ADD DUP2 SWAP1 MSTORE POP PUSH1 0x40 MLOAD DUP1 PUSH1 0x40 ADD PUSH1 0x40 MSTORE DUP1 PUSH32 0x36D9EB20C2C02D680C29F44624E5C01040A163409559C28F41D5634DECD92A7 DUP2 MSTORE PUSH1 0x20 ADD PUSH32 0x244F2E76644ECD74CE8C6CF9458A7A0152734697ABE6FC6EB023315F86AAF5F2 DUP2 MSTORE POP DUP2 PUSH1 0x80 ADD MLOAD PUSH1 0x29 DUP2 MLOAD DUP2 LT PUSH2 0x1979 JUMPI PUSH2 0x1978 PUSH2 0x39B5 JUMP JUMPDEST JUMPDEST PUSH1 0x20 MUL PUSH1 0x20 ADD ADD DUP2 SWAP1 MSTORE POP PUSH1 0x40 MLOAD DUP1 PUSH1 0x40 ADD PUSH1 0x40 MSTORE DUP1 PUSH32 0x28DD925A1012487E3330B129284B8985DF802C9950895DC53D3B0F550CFB3015 DUP2 MSTORE PUSH1 0x20 ADD PUSH32 0x1CFA08B7D09291F571EC72B5DDF4726C32BC9B05B7F20E8241144A3F5DA51A04 DUP2 MSTORE POP DUP2 PUSH1 0x80 ADD MLOAD PUSH1 0x2A DUP2 MLOAD DUP2 LT PUSH2 0x19F1 JUMPI PUSH2 0x19F0 PUSH2 0x39B5 JUMP JUMPDEST JUMPDEST PUSH1 0x20 MUL PUSH1 0x20 ADD ADD DUP2 SWAP1 MSTORE POP PUSH1 0x40 MLOAD DUP1 PUSH1 0x40 ADD PUSH1 0x40 MSTORE DUP1 PUSH32 0x16912DD99715463B89C023D947EAEE1F178B711E4874D80627DD233C561C4E44 DUP2 MSTORE PUSH1 0x20 ADD PUSH32 0x201FA0727F0B9B906BB1C676745FE4C8B3BA755E45FD8FA25C86274A4F14B843 DUP2 MSTORE POP DUP2 PUSH1 0x80 ADD MLOAD PUSH1 0x2B DUP2 MLOAD DUP2 LT PUSH2 0x1A69 JUMPI PUSH2 0x1A68 PUSH2 0x39B5 JUMP JUMPDEST JUMPDEST PUSH1 0x20 MUL PUSH1 0x20 ADD ADD DUP2 SWAP1 MSTORE POP PUSH1 0x40 MLOAD DUP1 PUSH1 0x40 ADD PUSH1 0x40 MSTORE DUP1 PUSH32 0x700EC1BEB95C56909FE2A11AB64B3F7C2347EA02CA115FE0304087E6A7F582A DUP2 MSTORE PUSH1 0x20 ADD PUSH32 0x13DB93C7DCF9D175530FD059CB4072F82AC56779B5AB38FB94ACA8AF24E5153B DUP2 MSTORE POP DUP2 PUSH1 0x80 ADD MLOAD PUSH1 0x2C DUP2 MLOAD DUP2 LT PUSH2 0x1AE1 JUMPI PUSH2 0x1AE0 PUSH2 0x39B5 JUMP JUMPDEST JUMPDEST PUSH1 0x20 MUL PUSH1 0x20 ADD ADD DUP2 SWAP1 MSTORE POP PUSH1 0x40 MLOAD DUP1 PUSH1 0x40 ADD PUSH1 0x40 MSTORE DUP1 PUSH32 0x5BBD089AB2592F29E6A207A4AF1FD4D980A1433BBA652CB61906166C78A821C DUP2 MSTORE PUSH1 0x20 ADD PUSH32 0x2E5B1C0916B355DD09282CDDCD67F9776DAA7D2ACDB8919C4E8AE153812386CF DUP2 MSTORE POP DUP2 PUSH1 0x80 ADD MLOAD PUSH1 0x2D DUP2 MLOAD DUP2 LT PUSH2 0x1B59 JUMPI PUSH2 0x1B58 PUSH2 0x39B5 JUMP JUMPDEST JUMPDEST PUSH1 0x20 MUL PUSH1 0x20 ADD ADD DUP2 SWAP1 MSTORE POP PUSH1 0x40 MLOAD DUP1 PUSH1 0x40 ADD PUSH1 0x40 MSTORE DUP1 PUSH32 0x24A8362C215E16882DA2C5D18D4E425A893A5464B8F27D08BD7896DFC4BFC281 DUP2 MSTORE PUSH1 0x20 ADD PUSH32 0x1286A2B8E4D3EEB5587B462F620FFB4F1F556D37837397FE2EEA4F50A1C0BBF9 DUP2 MSTORE POP DUP2 PUSH1 0x80 ADD MLOAD PUSH1 0x2E DUP2 MLOAD DUP2 LT PUSH2 0x1BD1 JUMPI PUSH2 0x1BD0 PUSH2 0x39B5 JUMP JUMPDEST JUMPDEST PUSH1 0x20 MUL PUSH1 0x20 ADD ADD DUP2 SWAP1 MSTORE POP PUSH1 0x40 MLOAD DUP1 PUSH1 0x40 ADD PUSH1 0x40 MSTORE DUP1 PUSH32 0x2360EBAF387626D2087319D619AA8A3BC5F54B8F56E78E779C334BE241A46B33 DUP2 MSTORE PUSH1 0x20 ADD PUSH32 0x168E4C0315A6312BE73F23A71867824A60C94605B49FCBD9EAFC09713A06D876 DUP2 MSTORE POP DUP2 PUSH1 0x80 ADD MLOAD PUSH1 0x2F DUP2 MLOAD DUP2 LT PUSH2 0x1C49 JUMPI PUSH2 0x1C48 PUSH2 0x39B5 JUMP JUMPDEST JUMPDEST PUSH1 0x20 MUL PUSH1 0x20 ADD ADD DUP2 SWAP1 MSTORE POP PUSH1 0x40 MLOAD DUP1 PUSH1 0x40 ADD PUSH1 0x40 MSTORE DUP1 PUSH32 0x2898CE2B1DBE77190102EACEB4719F8F0F2C9540ECB3772ADCEC447E36D7D630 DUP2 MSTORE PUSH1 0x20 ADD PUSH32 0x79D9560CC79B9194651F267A5AF8C0D43BF85D60992EA29DB32DBE8B9DDD4DC DUP2 MSTORE POP DUP2 PUSH1 0x80 ADD MLOAD PUSH1 0x30 DUP2 MLOAD DUP2 LT PUSH2 0x1CC1 JUMPI PUSH2 0x1CC0 PUSH2 0x39B5 JUMP JUMPDEST JUMPDEST PUSH1 0x20 MUL PUSH1 0x20 ADD ADD DUP2 SWAP1 MSTORE POP PUSH1 0x40 MLOAD DUP1 PUSH1 0x40 ADD PUSH1 0x40 MSTORE DUP1 PUSH32 0xB136E26436D50A70730DAC1896A50E731887117C360E8F8C751D00D59D5FE27 DUP2 MSTORE PUSH1 0x20 ADD PUSH32 0x24AF85C3E9D573ED8C07EF56D9D68E95BB2241C433FF99F4FDC8CCEC4B5C191E DUP2 MSTORE POP DUP2 PUSH1 0x80 ADD MLOAD PUSH1 0x31 DUP2 MLOAD DUP2 LT PUSH2 0x1D39 JUMPI PUSH2 0x1D38 PUSH2 0x39B5 JUMP JUMPDEST JUMPDEST PUSH1 0x20 MUL PUSH1 0x20 ADD ADD DUP2 SWAP1 MSTORE POP PUSH1 0x40 MLOAD DUP1 PUSH1 0x40 ADD PUSH1 0x40 MSTORE DUP1 PUSH32 0x2EFB37334E7207970586F439C6A412592A15E8F82BF0B722F7C5FE848C8DBF02 DUP2 MSTORE PUSH1 0x20 ADD PUSH32 0x20FABE9AE584298ADE6CBE1D0E39C96F2EFF39932EBC5E60DE25C900A6A1B0C6 DUP2 MSTORE POP DUP2 PUSH1 0x80 ADD MLOAD PUSH1 0x32 DUP2 MLOAD DUP2 LT PUSH2 0x1DB1 JUMPI PUSH2 0x1DB0 PUSH2 0x39B5 JUMP JUMPDEST JUMPDEST PUSH1 0x20 MUL PUSH1 0x20 ADD ADD DUP2 SWAP1 MSTORE POP PUSH1 0x40 MLOAD DUP1 PUSH1 0x40 ADD PUSH1 0x40 MSTORE DUP1 PUSH32 0x2E73B137F14AF0D7611C9D19E6681E952E64C919F74C346A6660128CE9EF41B5 DUP2 MSTORE PUSH1 0x20 ADD PUSH32 0xFBF8F47877E341B3464DFAE7A62C989761D0EC67B07233D72DE3577A0413080 DUP2 MSTORE POP DUP2 PUSH1 0x80 ADD MLOAD PUSH1 0x33 DUP2 MLOAD DUP2 LT PUSH2 0x1E29 JUMPI PUSH2 0x1E28 PUSH2 0x39B5 JUMP JUMPDEST JUMPDEST PUSH1 0x20 MUL PUSH1 0x20 ADD ADD DUP2 SWAP1 MSTORE POP PUSH1 0x40 MLOAD DUP1 PUSH1 0x40 ADD PUSH1 0x40 MSTORE DUP1 PUSH32 0x3ADD1009B0598190EF334E909E03473691F7485163865F8042DBA3D6A879AC6 DUP2 MSTORE PUSH1 0x20 ADD PUSH32 0x2F67D851C2107217DDC1A155C940D6573A8F8E40E9BB2BA39694675BD0589AD7 DUP2 MSTORE POP DUP2 PUSH1 0x80 ADD MLOAD PUSH1 0x34 DUP2 MLOAD DUP2 LT PUSH2 0x1EA1 JUMPI PUSH2 0x1EA0 PUSH2 0x39B5 JUMP JUMPDEST JUMPDEST PUSH1 0x20 MUL PUSH1 0x20 ADD ADD DUP2 SWAP1 MSTORE POP PUSH1 0x40 MLOAD DUP1 PUSH1 0x40 ADD PUSH1 0x40 MSTORE DUP1 PUSH32 0x908CD99348A0B6E6846B4B796B28DBC3D165871FEB52C9A61D7826F724FF7E2 DUP2 MSTORE PUSH1 0x20 ADD PUSH32 0x1FF0DEE38287AEF7CFF30EED3E437DD81F085D0DF92BB05DC36125D5F7295EE2 DUP2 MSTORE POP DUP2 PUSH1 0x80 ADD MLOAD PUSH1 0x35 DUP2 MLOAD DUP2 LT PUSH2 0x1F19 JUMPI PUSH2 0x1F18 PUSH2 0x39B5 JUMP JUMPDEST JUMPDEST PUSH1 0x20 MUL PUSH1 0x20 ADD ADD DUP2 SWAP1 MSTORE POP PUSH1 0x40 MLOAD DUP1 PUSH1 0x40 ADD PUSH1 0x40 MSTORE DUP1 PUSH32 0x1F2360267115BAE607B07C4950E0B35BBB69F4A651DA77345BCB08B64D7A6C1A DUP2 MSTORE PUSH1 0x20 ADD PUSH32 0x2B4375C467623E21FF1AFC1F56F7076CB6BD9461985FC054ED8C7146482A79C1 DUP2 MSTORE POP DUP2 PUSH1 0x80 ADD MLOAD PUSH1 0x36 DUP2 MLOAD DUP2 LT PUSH2 0x1F91 JUMPI PUSH2 0x1F90 PUSH2 0x39B5 JUMP JUMPDEST JUMPDEST PUSH1 0x20 MUL PUSH1 0x20 ADD ADD DUP2 SWAP1 MSTORE POP PUSH1 0x40 MLOAD DUP1 PUSH1 0x40 ADD PUSH1 0x40 MSTORE DUP1 PUSH32 0x11D94D98C73431F58D402298165F83DB2C85FF9446EC69B75CC08B498FFDB43B DUP2 MSTORE PUSH1 0x20 ADD PUSH32 0x229E493E7722E4D510E2F7FD05109E2F4FFB1678EE3EE95BCCAD5F964A5B614C DUP2 MSTORE POP DUP2 PUSH1 0x80 ADD MLOAD PUSH1 0x37 DUP2 MLOAD DUP2 LT PUSH2 0x2009 JUMPI PUSH2 0x2008 PUSH2 0x39B5 JUMP JUMPDEST JUMPDEST PUSH1 0x20 MUL PUSH1 0x20 ADD ADD DUP2 SWAP1 MSTORE POP PUSH1 0x40 MLOAD DUP1 PUSH1 0x40 ADD PUSH1 0x40 MSTORE DUP1 PUSH32 0x171C671646EB833B6140F74B5E546DE3A2F4B11A9B713C8CA22B6F27B22B351C DUP2 MSTORE PUSH1 0x20 ADD PUSH32 0xC0C2F87135B90A2D9340D3FFE17E0EBDF7A1BB994D342B4ED367752C1F015F1 DUP2 MSTORE POP DUP2 PUSH1 0x80 ADD MLOAD PUSH1 0x38 DUP2 MLOAD DUP2 LT PUSH2 0x2081 JUMPI PUSH2 0x2080 PUSH2 0x39B5 JUMP JUMPDEST JUMPDEST PUSH1 0x20 MUL PUSH1 0x20 ADD ADD DUP2 SWAP1 MSTORE POP PUSH1 0x40 MLOAD DUP1 PUSH1 0x40 ADD PUSH1 0x40 MSTORE DUP1 PUSH32 0x159B3C1B44E21977905E6F6976F447B6CCA3DA2B9AF8D5F6D772FC9DD800D8AD DUP2 MSTORE PUSH1 0x20 ADD PUSH32 0x3062DB182D46BA4CE01D3F0BF5FA1B36F1915E1BC9D84860D33C2BB73D814536 DUP2 MSTORE POP DUP2 PUSH1 0x80 ADD MLOAD PUSH1 0x39 DUP2 MLOAD DUP2 LT PUSH2 0x20F9 JUMPI PUSH2 0x20F8 PUSH2 0x39B5 JUMP JUMPDEST JUMPDEST PUSH1 0x20 MUL PUSH1 0x20 ADD ADD DUP2 SWAP1 MSTORE POP PUSH1 0x40 MLOAD DUP1 PUSH1 0x40 ADD PUSH1 0x40 MSTORE DUP1 PUSH32 0x11DD99EB9A154704EA5E77C01C7688D99B1168AAC81071D51AA7DC6A3910BA02 DUP2 MSTORE PUSH1 0x20 ADD PUSH32 0x5AB954BD8F0387FB1C80731BD2FCB24B35D880AA0E80E1E0CF6476700F016F2 DUP2 MSTORE POP DUP2 PUSH1 0x80 ADD MLOAD PUSH1 0x3A DUP2 MLOAD DUP2 LT PUSH2 0x2171 JUMPI PUSH2 0x2170 PUSH2 0x39B5 JUMP JUMPDEST JUMPDEST PUSH1 0x20 MUL PUSH1 0x20 ADD ADD DUP2 SWAP1 MSTORE POP PUSH1 0x40 MLOAD DUP1 PUSH1 0x40 ADD PUSH1 0x40 MSTORE DUP1 PUSH32 0x22C7E326359B26F7DAC14787B5816B29FD0268454863D0CCD64C3FEA794D3223 DUP2 MSTORE PUSH1 0x20 ADD PUSH32 0x1CF70FE29210D197744FBA44EA28622F5812C048DBB6727820189575AC6C79D2 DUP2 MSTORE POP DUP2 PUSH1 0x80 ADD MLOAD PUSH1 0x3B DUP2 MLOAD DUP2 LT PUSH2 0x21E9 JUMPI PUSH2 0x21E8 PUSH2 0x39B5 JUMP JUMPDEST JUMPDEST PUSH1 0x20 MUL PUSH1 0x20 ADD ADD DUP2 SWAP1 MSTORE POP PUSH1 0x40 MLOAD DUP1 PUSH1 0x40 ADD PUSH1 0x40 MSTORE DUP1 PUSH32 0x18128D4A2B0D46CDE262F7AEB3706B364090544308558881D94C7438F0B093E3 DUP2 MSTORE PUSH1 0x20 ADD PUSH32 0x93A67088C267CCB6D481FA3A7A8BD2F2A55FB2C2D679DB56AC585BBE36E9257 DUP2 MSTORE POP DUP2 PUSH1 0x80 ADD MLOAD PUSH1 0x3C DUP2 MLOAD DUP2 LT PUSH2 0x2261 JUMPI PUSH2 0x2260 PUSH2 0x39B5 JUMP JUMPDEST JUMPDEST PUSH1 0x20 MUL PUSH1 0x20 ADD ADD DUP2 SWAP1 MSTORE POP PUSH1 0x40 MLOAD DUP1 PUSH1 0x40 ADD PUSH1 0x40 MSTORE DUP1 PUSH32 0x17B6FA6DA550E000E7F2327A176E18ABF79932A06AF0BDC2A484620B77185AD2 DUP2 MSTORE PUSH1 0x20 ADD PUSH32 0x11D93AF1CA4B36487A5FC9398FCAA2E8A46F891340C7A00442C0246C0118060C DUP2 MSTORE POP DUP2 PUSH1 0x80 ADD MLOAD PUSH1 0x3D DUP2 MLOAD DUP2 LT PUSH2 0x22D9 JUMPI PUSH2 0x22D8 PUSH2 0x39B5 JUMP JUMPDEST JUMPDEST PUSH1 0x20 MUL PUSH1 0x20 ADD ADD DUP2 SWAP1 MSTORE POP PUSH1 0x40 MLOAD DUP1 PUSH1 0x40 ADD PUSH1 0x40 MSTORE DUP1 PUSH32 0x25C8C7A895ADBB8F8347BB47D6E43A390329A5D40CB7C1FB3215556BB9C43A94 DUP2 MSTORE PUSH1 0x20 ADD PUSH32 0x261412CAF090DC08F348DABAC35E3C55886882CD85CF815C517C46F1AC890CA9 DUP2 MSTORE POP DUP2 PUSH1 0x80 ADD MLOAD PUSH1 0x3E DUP2 MLOAD DUP2 LT PUSH2 0x2351 JUMPI PUSH2 0x2350 PUSH2 0x39B5 JUMP JUMPDEST JUMPDEST PUSH1 0x20 MUL PUSH1 0x20 ADD ADD DUP2 SWAP1 MSTORE POP PUSH1 0x40 MLOAD DUP1 PUSH1 0x40 ADD PUSH1 0x40 MSTORE DUP1 PUSH32 0xBD4C889E2DB14FE42F92C3983C4CE98382F567999E90EBD72AF1E78380622F4 DUP2 MSTORE PUSH1 0x20 ADD PUSH32 0x1153DF892B935130B92B18A50F47CD97AEA4D449690B08537B7F2E8632747CDF DUP2 MSTORE POP DUP2 PUSH1 0x80 ADD MLOAD PUSH1 0x3F DUP2 MLOAD DUP2 LT PUSH2 0x23C9 JUMPI PUSH2 0x23C8 PUSH2 0x39B5 JUMP JUMPDEST JUMPDEST PUSH1 0x20 MUL PUSH1 0x20 ADD ADD DUP2 SWAP1 MSTORE POP PUSH1 0x40 MLOAD DUP1 PUSH1 0x40 ADD PUSH1 0x40 MSTORE DUP1 PUSH32 0x10233DE21868A0C36696D040D2903CDDF3AC5E0A02A82621381F50CD8B368F66 DUP2 MSTORE PUSH1 0x20 ADD PUSH32 0x23E3828E7C978898CFCECB3A76AF0A885DDF7C6F9E7CB73C550E6CEE06A0E7D0 DUP2 MSTORE POP DUP2 PUSH1 0x80 ADD MLOAD PUSH1 0x40 DUP2 MLOAD DUP2 LT PUSH2 0x2441 JUMPI PUSH2 0x2440 PUSH2 0x39B5 JUMP JUMPDEST JUMPDEST PUSH1 0x20 MUL PUSH1 0x20 ADD ADD DUP2 SWAP1 MSTORE POP PUSH1 0x40 MLOAD DUP1 PUSH1 0x40 ADD PUSH1 0x40 MSTORE DUP1 PUSH32 0x8BA2225CFF2AD5C8B628E2DB673E9B554983622FB3CB5167585B91C20F533D8 DUP2 MSTORE PUSH1 0x20 ADD PUSH32 0x1B85FB84703A86CDF9D53B0EC28D2899CE6DABDED3105418FFDDC3C9F8CD011C DUP2 MSTORE POP DUP2 PUSH1 0x80 ADD MLOAD PUSH1 0x41 DUP2 MLOAD DUP2 LT PUSH2 0x24B9 JUMPI PUSH2 0x24B8 PUSH2 0x39B5 JUMP JUMPDEST JUMPDEST PUSH1 0x20 MUL PUSH1 0x20 ADD ADD DUP2 SWAP1 MSTORE POP PUSH1 0x40 MLOAD DUP1 PUSH1 0x40 ADD PUSH1 0x40 MSTORE DUP1 PUSH32 0x2DB77ECD864CB7D103D3BA4EE1B1C6D264E79B6B9A7867B37555EFDCC0A1D605 DUP2 MSTORE PUSH1 0x20 ADD PUSH32 0x69F490FA6416349BC9D6D47E713B411567DC65C7F295A34DA0E4EBBC3D77BA1 DUP2 MSTORE POP DUP2 PUSH1 0x80 ADD MLOAD PUSH1 0x42 DUP2 MLOAD DUP2 LT PUSH2 0x2531 JUMPI PUSH2 0x2530 PUSH2 0x39B5 JUMP JUMPDEST JUMPDEST PUSH1 0x20 MUL PUSH1 0x20 ADD ADD DUP2 SWAP1 MSTORE POP PUSH1 0x40 MLOAD DUP1 PUSH1 0x40 ADD PUSH1 0x40 MSTORE DUP1 PUSH32 0x3A225DC590D5E3EAFAE5E7F568CD82F8CB9BBB1969BEAFADB56561E1DD23913 DUP2 MSTORE PUSH1 0x20 ADD PUSH32 0x274BE07467BC8C47B71D3782B67F47F6685BCBE4757C4FBD235C89956857FB97 DUP2 MSTORE POP DUP2 PUSH1 0x80 ADD MLOAD PUSH1 0x43 DUP2 MLOAD DUP2 LT PUSH2 0x25A9 JUMPI PUSH2 0x25A8 PUSH2 0x39B5 JUMP JUMPDEST JUMPDEST PUSH1 0x20 MUL PUSH1 0x20 ADD ADD DUP2 SWAP1 MSTORE POP PUSH1 0x40 MLOAD DUP1 PUSH1 0x40 ADD PUSH1 0x40 MSTORE DUP1 PUSH32 0x16303866C8F2068C4E7746FF513D322F410CAEE28B9A1A5BD2512698C8754474 DUP2 MSTORE PUSH1 0x20 ADD PUSH32 0x41C1A58C079DD3D65F481A1A5A8EA01D340D94567BABC20FF0F83909F0B7637 DUP2 MSTORE POP DUP2 PUSH1 0x80 ADD MLOAD PUSH1 0x44 DUP2 MLOAD DUP2 LT PUSH2 0x2621 JUMPI PUSH2 0x2620 PUSH2 0x39B5 JUMP JUMPDEST JUMPDEST PUSH1 0x20 MUL PUSH1 0x20 ADD ADD DUP2 SWAP1 MSTORE POP PUSH1 0x40 MLOAD DUP1 PUSH1 0x40 ADD PUSH1 0x40 MSTORE DUP1 PUSH32 0x2C23ADEE4FE479B2A48155285B8726AF1E51E84A10D66D26AF3ABB8E0BA304EF DUP2 MSTORE PUSH1 0x20 ADD PUSH32 0x29505E352A6AF4DA55866570F6310D26D77BA863647C73108C1D125923789B4A DUP2 MSTORE POP DUP2 PUSH1 0x80 ADD MLOAD PUSH1 0x45 DUP2 MLOAD DUP2 LT PUSH2 0x2699 JUMPI PUSH2 0x2698 PUSH2 0x39B5 JUMP JUMPDEST JUMPDEST PUSH1 0x20 MUL PUSH1 0x20 ADD ADD DUP2 SWAP1 MSTORE POP PUSH1 0x40 MLOAD DUP1 PUSH1 0x40 ADD PUSH1 0x40 MSTORE DUP1 PUSH32 0xE36F03817DD036E7135F7A872B067084B338A5E7B4948A41EC68E710DCD304C DUP2 MSTORE PUSH1 0x20 ADD PUSH32 0x23B41CD480DAB0CC53117A804006A82959A210442EE186DE156E18B5A78ADC4C DUP2 MSTORE POP DUP2 PUSH1 0x80 ADD MLOAD PUSH1 0x46 DUP2 MLOAD DUP2 LT PUSH2 0x2711 JUMPI PUSH2 0x2710 PUSH2 0x39B5 JUMP JUMPDEST JUMPDEST PUSH1 0x20 MUL PUSH1 0x20 ADD ADD DUP2 SWAP1 MSTORE POP PUSH1 0x40 MLOAD DUP1 PUSH1 0x40 ADD PUSH1 0x40 MSTORE DUP1 PUSH32 0x1900E5EA8A1C7FFE465BD817EC2A17B1BC2812693CBE4E1BA17C36AF7F28E0FF DUP2 MSTORE PUSH1 0x20 ADD PUSH32 0x7A27E20C229119BC5F772F888FD5166FE45809B8B0C6F47D0C83B25B7892674 DUP2 MSTORE POP DUP2 PUSH1 0x80 ADD MLOAD PUSH1 0x47 DUP2 MLOAD DUP2 LT PUSH2 0x2789 JUMPI PUSH2 0x2788 PUSH2 0x39B5 JUMP JUMPDEST JUMPDEST PUSH1 0x20 MUL PUSH1 0x20 ADD ADD DUP2 SWAP1 MSTORE POP PUSH1 0x40 MLOAD DUP1 PUSH1 0x40 ADD PUSH1 0x40 MSTORE DUP1 PUSH32 0x11BB10C71CD700A579FBACEFEBEFBEC5C7097C31103DC57B59F71DB2448C1C59 DUP2 MSTORE PUSH1 0x20 ADD PUSH32 0x4AA85D38E5B788809F41AE3B7FBC55692329AA46BB7C994E4BBC3D43212FE77 DUP2 MSTORE POP DUP2 PUSH1 0x80 ADD MLOAD PUSH1 0x48 DUP2 MLOAD DUP2 LT PUSH2 0x2801 JUMPI PUSH2 0x2800 PUSH2 0x39B5 JUMP JUMPDEST JUMPDEST PUSH1 0x20 MUL PUSH1 0x20 ADD ADD DUP2 SWAP1 MSTORE POP PUSH1 0x40 MLOAD DUP1 PUSH1 0x40 ADD PUSH1 0x40 MSTORE DUP1 PUSH32 0x11CAE0887E98C8C0D7489057FAB1AA996B7B48466ABCEE7D2194BAD20ABBCD07 DUP2 MSTORE PUSH1 0x20 ADD PUSH32 0x3D4BD2C18B60624728B7DF6D6B3DF03AE194BF613CBEE5A7757AED2BA8C8627 DUP2 MSTORE POP DUP2 PUSH1 0x80 ADD MLOAD PUSH1 0x49 DUP2 MLOAD DUP2 LT PUSH2 0x2879 JUMPI PUSH2 0x2878 PUSH2 0x39B5 JUMP JUMPDEST JUMPDEST PUSH1 0x20 MUL PUSH1 0x20 ADD ADD DUP2 SWAP1 MSTORE POP PUSH1 0x40 MLOAD DUP1 PUSH1 0x40 ADD PUSH1 0x40 MSTORE DUP1 PUSH32 0x2B80BA4CA6993BA1DCA8EF569C6795681365475A834D815614228DC3823EFD51 DUP2 MSTORE PUSH1 0x20 ADD PUSH32 0x152A8D832A02D0AE6A0FD3B70C2B4944515C42794DD480A269D5C6BEFB4267EB DUP2 MSTORE POP DUP2 PUSH1 0x80 ADD MLOAD PUSH1 0x4A DUP2 MLOAD DUP2 LT PUSH2 0x28F1 JUMPI PUSH2 0x28F0 PUSH2 0x39B5 JUMP JUMPDEST JUMPDEST PUSH1 0x20 MUL PUSH1 0x20 ADD ADD DUP2 SWAP1 MSTORE POP PUSH1 0x40 MLOAD DUP1 PUSH1 0x40 ADD PUSH1 0x40 MSTORE DUP1 PUSH32 0x1EE46ACEC9EF941DEEB3D8FE335F93A2EE331C553301AFB8475AA16010347094 DUP2 MSTORE PUSH1 0x20 ADD PUSH32 0x28541391A196B5A902B2515685C607086BED508EA7F499A45EF94C4EE8799C71 DUP2 MSTORE POP DUP2 PUSH1 0x80 ADD MLOAD PUSH1 0x4B DUP2 MLOAD DUP2 LT PUSH2 0x2969 JUMPI PUSH2 0x2968 PUSH2 0x39B5 JUMP JUMPDEST JUMPDEST PUSH1 0x20 MUL PUSH1 0x20 ADD ADD DUP2 SWAP1 MSTORE POP PUSH1 0x40 MLOAD DUP1 PUSH1 0x40 ADD PUSH1 0x40 MSTORE DUP1 PUSH32 0xBA1ADE875471718100B34411AC48CFA073A5061576990A714E300DC5293D6B5 DUP2 MSTORE PUSH1 0x20 ADD PUSH32 0x1FFCC0C40F91CD25D7FF95F2B1E1C9250A4A3B30F8E693E830896D3C11D804B7 DUP2 MSTORE POP DUP2 PUSH1 0x80 ADD MLOAD PUSH1 0x4C DUP2 MLOAD DUP2 LT PUSH2 0x29E1 JUMPI PUSH2 0x29E0 PUSH2 0x39B5 JUMP JUMPDEST JUMPDEST PUSH1 0x20 MUL PUSH1 0x20 ADD ADD DUP2 SWAP1 MSTORE POP PUSH1 0x40 MLOAD DUP1 PUSH1 0x40 ADD PUSH1 0x40 MSTORE DUP1 PUSH32 0xDB89D812BCD8FAA16752413E7598077093C0EDF5D237D54941830BF60162B04 DUP2 MSTORE PUSH1 0x20 ADD PUSH32 0x2F71084266339307C9225DE8209D07FE29DF456FBB528DBCCFC7F49682B31A5 DUP2 MSTORE POP DUP2 PUSH1 0x80 ADD MLOAD PUSH1 0x4D DUP2 MLOAD DUP2 LT PUSH2 0x2A59 JUMPI PUSH2 0x2A58 PUSH2 0x39B5 JUMP JUMPDEST JUMPDEST PUSH1 0x20 MUL PUSH1 0x20 ADD ADD DUP2 SWAP1 MSTORE POP PUSH1 0x40 MLOAD DUP1 PUSH1 0x40 ADD PUSH1 0x40 MSTORE DUP1 PUSH32 0xCFF924B4DA3A033392EE7C56AE9E96EDA31BAF22772BAB86FA2B5AF546308E5 DUP2 MSTORE PUSH1 0x20 ADD PUSH32 0x29F2F0B2B71A378FE64D7E88B84585CD8406A3BB1A878DA876F868A62834347F DUP2 MSTORE POP DUP2 PUSH1 0x80 ADD MLOAD PUSH1 0x4E DUP2 MLOAD DUP2 LT PUSH2 0x2AD1 JUMPI PUSH2 0x2AD0 PUSH2 0x39B5 JUMP JUMPDEST JUMPDEST PUSH1 0x20 MUL PUSH1 0x20 ADD ADD DUP2 SWAP1 MSTORE POP PUSH1 0x40 MLOAD DUP1 PUSH1 0x40 ADD PUSH1 0x40 MSTORE DUP1 PUSH32 0x1A7BC097F4863E13C58B1ACD05F878806779F39DC6157C31AC5ACA4B42DC0A66 DUP2 MSTORE PUSH1 0x20 ADD PUSH32 0x3E3E3F1B34606C31B6490EE340AE8021FB6D7BB8E77BEA99EF795CAADD543E9 DUP2 MSTORE POP DUP2 PUSH1 0x80 ADD MLOAD PUSH1 0x4F DUP2 MLOAD DUP2 LT PUSH2 0x2B49 JUMPI PUSH2 0x2B48 PUSH2 0x39B5 JUMP JUMPDEST JUMPDEST PUSH1 0x20 MUL PUSH1 0x20 ADD ADD DUP2 SWAP1 MSTORE POP PUSH1 0x40 MLOAD DUP1 PUSH1 0x40 ADD PUSH1 0x40 MSTORE DUP1 PUSH32 0x21EFF94E793E9FE7035D8953E2D88B74190D76D270AE14ACF098CA6D35E0B9D4 DUP2 MSTORE PUSH1 0x20 ADD PUSH32 0x1832D36DA7ED48FE56AF662D24F6B1E2E14B4BECE892BCE6F597663E785C6687 DUP2 MSTORE POP DUP2 PUSH1 0x80 ADD MLOAD PUSH1 0x50 DUP2 MLOAD DUP2 LT PUSH2 0x2BC1 JUMPI PUSH2 0x2BC0 PUSH2 0x39B5 JUMP JUMPDEST JUMPDEST PUSH1 0x20 MUL PUSH1 0x20 ADD ADD DUP2 SWAP1 MSTORE POP PUSH1 0x40 MLOAD DUP1 PUSH1 0x40 ADD PUSH1 0x40 MSTORE DUP1 PUSH32 0xBB90AD22CA7971293A0788A31054168CD44C6FEE5EC53EACA88A72661A61B4F DUP2 MSTORE PUSH1 0x20 ADD PUSH32 0xBE9E6A787182470EA349C52CCAA5BF4EA17156F35A7C134FA15851451720E1A DUP2 MSTORE POP DUP2 PUSH1 0x80 ADD MLOAD PUSH1 0x51 DUP2 MLOAD DUP2 LT PUSH2 0x2C39 JUMPI PUSH2 0x2C38 PUSH2 0x39B5 JUMP JUMPDEST JUMPDEST PUSH1 0x20 MUL PUSH1 0x20 ADD ADD DUP2 SWAP1 MSTORE POP SWAP1 JUMP JUMPDEST PUSH2 0x2C4F PUSH2 0x33CF JUMP JUMPDEST PUSH2 0x2C57 PUSH2 0x33E9 JUMP JUMPDEST DUP4 PUSH1 0x0 ADD MLOAD DUP2 PUSH1 0x0 PUSH1 0x3 DUP2 LT PUSH2 0x2C70 JUMPI PUSH2 0x2C6F PUSH2 0x39B5 JUMP JUMPDEST JUMPDEST PUSH1 0x20 MUL ADD DUP2 DUP2 MSTORE POP POP DUP4 PUSH1 0x20 ADD MLOAD DUP2 PUSH1 0x1 PUSH1 0x3 DUP2 LT PUSH2 0x2C92 JUMPI PUSH2 0x2C91 PUSH2 0x39B5 JUMP JUMPDEST JUMPDEST PUSH1 0x20 MUL ADD DUP2 DUP2 MSTORE POP POP DUP3 DUP2 PUSH1 0x2 PUSH1 0x3 DUP2 LT PUSH2 0x2CB0 JUMPI PUSH2 0x2CAF PUSH2 0x39B5 JUMP JUMPDEST JUMPDEST PUSH1 0x20 MUL ADD DUP2 DUP2 MSTORE POP POP PUSH1 0x0 PUSH1 0x60 DUP4 PUSH1 0x80 DUP5 PUSH1 0x7 PUSH2 0x7D0 GAS SUB STATICCALL SWAP1 POP DUP1 PUSH1 0x0 DUP2 EQ PUSH2 0x2CD9 JUMPI PUSH2 0x2CDB JUMP JUMPDEST INVALID JUMPDEST POP DUP1 PUSH2 0x2CE6 JUMPI PUSH1 0x0 DUP1 REVERT JUMPDEST POP POP SWAP3 SWAP2 POP POP JUMP JUMPDEST PUSH2 0x2CF6 PUSH2 0x33CF JUMP JUMPDEST PUSH2 0x2CFE PUSH2 0x340B JUMP JUMPDEST DUP4 PUSH1 0x0 ADD MLOAD DUP2 PUSH1 0x0 PUSH1 0x4 DUP2 LT PUSH2 0x2D17 JUMPI PUSH2 0x2D16 PUSH2 0x39B5 JUMP JUMPDEST JUMPDEST PUSH1 0x20 MUL ADD DUP2 DUP2 MSTORE POP POP DUP4 PUSH1 0x20 ADD MLOAD DUP2 PUSH1 0x1 PUSH1 0x4 DUP2 LT PUSH2 0x2D39 JUMPI PUSH2 0x2D38 PUSH2 0x39B5 JUMP JUMPDEST JUMPDEST PUSH1 0x20 MUL ADD DUP2 DUP2 MSTORE POP POP DUP3 PUSH1 0x0 ADD MLOAD DUP2 PUSH1 0x2 PUSH1 0x4 DUP2 LT PUSH2 0x2D5B JUMPI PUSH2 0x2D5A PUSH2 0x39B5 JUMP JUMPDEST JUMPDEST PUSH1 0x20 MUL ADD DUP2 DUP2 MSTORE POP POP DUP3 PUSH1 0x20 ADD MLOAD DUP2 PUSH1 0x3 PUSH1 0x4 DUP2 LT PUSH2 0x2D7D JUMPI PUSH2 0x2D7C PUSH2 0x39B5 JUMP JUMPDEST JUMPDEST PUSH1 0x20 MUL ADD DUP2 DUP2 MSTORE POP POP PUSH1 0x0 PUSH1 0x60 DUP4 PUSH1 0xC0 DUP5 PUSH1 0x6 PUSH2 0x7D0 GAS SUB STATICCALL SWAP1 POP DUP1 PUSH1 0x0 DUP2 EQ PUSH2 0x2DA6 JUMPI PUSH2 0x2DA8 JUMP JUMPDEST INVALID JUMPDEST POP DUP1 PUSH2 0x2DB3 JUMPI PUSH1 0x0 DUP1 REVERT JUMPDEST POP POP SWAP3 SWAP2 POP POP JUMP JUMPDEST PUSH2 0x2DC3 PUSH2 0x33CF JUMP JUMPDEST PUSH1 0x0 PUSH32 0x30644E72E131A029B85045B68181585D97816A916871CA8D3C208C16D87CFD47 SWAP1 POP PUSH1 0x0 DUP4 PUSH1 0x0 ADD MLOAD EQ DUP1 ISZERO PUSH2 0x2E00 JUMPI POP PUSH1 0x0 DUP4 PUSH1 0x20 ADD MLOAD EQ JUMPDEST ISZERO PUSH2 0x2E24 JUMPI PUSH1 0x40 MLOAD DUP1 PUSH1 0x40 ADD PUSH1 0x40 MSTORE DUP1 PUSH1 0x0 DUP2 MSTORE PUSH1 0x20 ADD PUSH1 0x0 DUP2 MSTORE POP SWAP2 POP POP PUSH2 0x2E5B JUMP JUMPDEST PUSH1 0x40 MLOAD DUP1 PUSH1 0x40 ADD PUSH1 0x40 MSTORE DUP1 DUP5 PUSH1 0x0 ADD MLOAD DUP2 MSTORE PUSH1 0x20 ADD DUP3 DUP6 PUSH1 0x20 ADD MLOAD PUSH2 0x2E49 SWAP2 SWAP1 PUSH2 0x3926 JUMP JUMPDEST DUP4 PUSH2 0x2E54 SWAP2 SWAP1 PUSH2 0x3862 JUMP JUMPDEST DUP2 MSTORE POP SWAP2 POP POP JUMPDEST SWAP2 SWAP1 POP JUMP JUMPDEST PUSH1 0x0 DUP1 PUSH1 0x4 PUSH8 0xFFFFFFFFFFFFFFFF DUP2 GT ISZERO PUSH2 0x2E7E JUMPI PUSH2 0x2E7D PUSH2 0x39E4 JUMP JUMPDEST JUMPDEST PUSH1 0x40 MLOAD SWAP1 DUP1 DUP3 MSTORE DUP1 PUSH1 0x20 MUL PUSH1 0x20 ADD DUP3 ADD PUSH1 0x40 MSTORE DUP1 ISZERO PUSH2 0x2EB7 JUMPI DUP2 PUSH1 0x20 ADD JUMPDEST PUSH2 0x2EA4 PUSH2 0x33CF JUMP JUMPDEST DUP2 MSTORE PUSH1 0x20 ADD SWAP1 PUSH1 0x1 SWAP1 SUB SWAP1 DUP2 PUSH2 0x2E9C JUMPI SWAP1 POP JUMPDEST POP SWAP1 POP PUSH1 0x0 PUSH1 0x4 PUSH8 0xFFFFFFFFFFFFFFFF DUP2 GT ISZERO PUSH2 0x2ED7 JUMPI PUSH2 0x2ED6 PUSH2 0x39E4 JUMP JUMPDEST JUMPDEST PUSH1 0x40 MLOAD SWAP1 DUP1 DUP3 MSTORE DUP1 PUSH1 0x20 MUL PUSH1 0x20 ADD DUP3 ADD PUSH1 0x40 MSTORE DUP1 ISZERO PUSH2 0x2F10 JUMPI DUP2 PUSH1 0x20 ADD JUMPDEST PUSH2 0x2EFD PUSH2 0x342D JUMP JUMPDEST DUP2 MSTORE PUSH1 0x20 ADD SWAP1 PUSH1 0x1 SWAP1 SUB SWAP1 DUP2 PUSH2 0x2EF5 JUMPI SWAP1 POP JUMPDEST POP SWAP1 POP DUP11 DUP3 PUSH1 0x0 DUP2 MLOAD DUP2 LT PUSH2 0x2F28 JUMPI PUSH2 0x2F27 PUSH2 0x39B5 JUMP JUMPDEST JUMPDEST PUSH1 0x20 MUL PUSH1 0x20 ADD ADD DUP2 SWAP1 MSTORE POP DUP9 DUP3 PUSH1 0x1 DUP2 MLOAD DUP2 LT PUSH2 0x2F48 JUMPI PUSH2 0x2F47 PUSH2 0x39B5 JUMP JUMPDEST JUMPDEST PUSH1 0x20 MUL PUSH1 0x20 ADD ADD DUP2 SWAP1 MSTORE POP DUP7 DUP3 PUSH1 0x2 DUP2 MLOAD DUP2 LT PUSH2 0x2F68 JUMPI PUSH2 0x2F67 PUSH2 0x39B5 JUMP JUMPDEST JUMPDEST PUSH1 0x20 MUL PUSH1 0x20 ADD ADD DUP2 SWAP1 MSTORE POP DUP5 DUP3 PUSH1 0x3 DUP2 MLOAD DUP2 LT PUSH2 0x2F88 JUMPI PUSH2 0x2F87 PUSH2 0x39B5 JUMP JUMPDEST JUMPDEST PUSH1 0x20 MUL PUSH1 0x20 ADD ADD DUP2 SWAP1 MSTORE POP DUP10 DUP2 PUSH1 0x0 DUP2 MLOAD DUP2 LT PUSH2 0x2FA8 JUMPI PUSH2 0x2FA7 PUSH2 0x39B5 JUMP JUMPDEST JUMPDEST PUSH1 0x20 MUL PUSH1 0x20 ADD ADD DUP2 SWAP1 MSTORE POP DUP8 DUP2 PUSH1 0x1 DUP2 MLOAD DUP2 LT PUSH2 0x2FC8 JUMPI PUSH2 0x2FC7 PUSH2 0x39B5 JUMP JUMPDEST JUMPDEST PUSH1 0x20 MUL PUSH1 0x20 ADD ADD DUP2 SWAP1 MSTORE POP DUP6 DUP2 PUSH1 0x2 DUP2 MLOAD DUP2 LT PUSH2 0x2FE8 JUMPI PUSH2 0x2FE7 PUSH2 0x39B5 JUMP JUMPDEST JUMPDEST PUSH1 0x20 MUL PUSH1 0x20 ADD ADD DUP2 SWAP1 MSTORE POP DUP4 DUP2 PUSH1 0x3 DUP2 MLOAD DUP2 LT PUSH2 0x3008 JUMPI PUSH2 0x3007 PUSH2 0x39B5 JUMP JUMPDEST JUMPDEST PUSH1 0x20 MUL PUSH1 0x20 ADD ADD DUP2 SWAP1 MSTORE POP PUSH2 0x301D DUP3 DUP3 PUSH2 0x302D JUMP JUMPDEST SWAP3 POP POP POP SWAP9 SWAP8 POP POP POP POP POP POP POP POP JUMP JUMPDEST PUSH1 0x0 DUP2 MLOAD DUP4 MLOAD EQ PUSH2 0x303D JUMPI PUSH1 0x0 DUP1 REVERT JUMPDEST PUSH1 0x0 DUP4 MLOAD SWAP1 POP PUSH1 0x0 PUSH1 0x6 DUP3 PUSH2 0x3052 SWAP2 SWAP1 PUSH2 0x3808 JUMP JUMPDEST SWAP1 POP PUSH1 0x0 DUP2 PUSH8 0xFFFFFFFFFFFFFFFF DUP2 GT ISZERO PUSH2 0x3070 JUMPI PUSH2 0x306F PUSH2 0x39E4 JUMP JUMPDEST JUMPDEST PUSH1 0x40 MLOAD SWAP1 DUP1 DUP3 MSTORE DUP1 PUSH1 0x20 MUL PUSH1 0x20 ADD DUP3 ADD PUSH1 0x40 MSTORE DUP1 ISZERO PUSH2 0x309E JUMPI DUP2 PUSH1 0x20 ADD PUSH1 0x20 DUP3 MUL DUP1 CALLDATASIZE DUP4 CALLDATACOPY DUP1 DUP3 ADD SWAP2 POP POP SWAP1 POP JUMPDEST POP SWAP1 POP PUSH1 0x0 JUMPDEST DUP4 DUP2 LT ISZERO PUSH2 0x3323 JUMPI DUP7 DUP2 DUP2 MLOAD DUP2 LT PUSH2 0x30BF JUMPI PUSH2 0x30BE PUSH2 0x39B5 JUMP JUMPDEST JUMPDEST PUSH1 0x20 MUL PUSH1 0x20 ADD ADD MLOAD PUSH1 0x0 ADD MLOAD DUP3 PUSH1 0x0 PUSH1 0x6 DUP5 PUSH2 0x30DB SWAP2 SWAP1 PUSH2 0x3808 JUMP JUMPDEST PUSH2 0x30E5 SWAP2 SWAP1 PUSH2 0x37B2 JUMP JUMPDEST DUP2 MLOAD DUP2 LT PUSH2 0x30F6 JUMPI PUSH2 0x30F5 PUSH2 0x39B5 JUMP JUMPDEST JUMPDEST PUSH1 0x20 MUL PUSH1 0x20 ADD ADD DUP2 DUP2 MSTORE POP POP DUP7 DUP2 DUP2 MLOAD DUP2 LT PUSH2 0x3115 JUMPI PUSH2 0x3114 PUSH2 0x39B5 JUMP JUMPDEST JUMPDEST PUSH1 0x20 MUL PUSH1 0x20 ADD ADD MLOAD PUSH1 0x20 ADD MLOAD DUP3 PUSH1 0x1 PUSH1 0x6 DUP5 PUSH2 0x3131 SWAP2 SWAP1 PUSH2 0x3808 JUMP JUMPDEST PUSH2 0x313B SWAP2 SWAP1 PUSH2 0x37B2 JUMP JUMPDEST DUP2 MLOAD DUP2 LT PUSH2 0x314C JUMPI PUSH2 0x314B PUSH2 0x39B5 JUMP JUMPDEST JUMPDEST PUSH1 0x20 MUL PUSH1 0x20 ADD ADD DUP2 DUP2 MSTORE POP POP DUP6 DUP2 DUP2 MLOAD DUP2 LT PUSH2 0x316B JUMPI PUSH2 0x316A PUSH2 0x39B5 JUMP JUMPDEST JUMPDEST PUSH1 0x20 MUL PUSH1 0x20 ADD ADD MLOAD PUSH1 0x0 ADD MLOAD PUSH1 0x1 PUSH1 0x2 DUP2 LT PUSH2 0x318A JUMPI PUSH2 0x3189 PUSH2 0x39B5 JUMP JUMPDEST JUMPDEST PUSH1 0x20 MUL ADD MLOAD DUP3 PUSH1 0x2 PUSH1 0x6 DUP5 PUSH2 0x319F SWAP2 SWAP1 PUSH2 0x3808 JUMP JUMPDEST PUSH2 0x31A9 SWAP2 SWAP1 PUSH2 0x37B2 JUMP JUMPDEST DUP2 MLOAD DUP2 LT PUSH2 0x31BA JUMPI PUSH2 0x31B9 PUSH2 0x39B5 JUMP JUMPDEST JUMPDEST PUSH1 0x20 MUL PUSH1 0x20 ADD ADD DUP2 DUP2 MSTORE POP POP DUP6 DUP2 DUP2 MLOAD DUP2 LT PUSH2 0x31D9 JUMPI PUSH2 0x31D8 PUSH2 0x39B5 JUMP JUMPDEST JUMPDEST PUSH1 0x20 MUL PUSH1 0x20 ADD ADD MLOAD PUSH1 0x0 ADD MLOAD PUSH1 0x0 PUSH1 0x2 DUP2 LT PUSH2 0x31F8 JUMPI PUSH2 0x31F7 PUSH2 0x39B5 JUMP JUMPDEST JUMPDEST PUSH1 0x20 MUL ADD MLOAD DUP3 PUSH1 0x3 PUSH1 0x6 DUP5 PUSH2 0x320D SWAP2 SWAP1 PUSH2 0x3808 JUMP JUMPDEST PUSH2 0x3217 SWAP2 SWAP1 PUSH2 0x37B2 JUMP JUMPDEST DUP2 MLOAD DUP2 LT PUSH2 0x3228 JUMPI PUSH2 0x3227 PUSH2 0x39B5 JUMP JUMPDEST JUMPDEST PUSH1 0x20 MUL PUSH1 0x20 ADD ADD DUP2 DUP2 MSTORE POP POP DUP6 DUP2 DUP2 MLOAD DUP2 LT PUSH2 0x3247 JUMPI PUSH2 0x3246 PUSH2 0x39B5 JUMP JUMPDEST JUMPDEST PUSH1 0x20 MUL PUSH1 0x20 ADD ADD MLOAD PUSH1 0x20 ADD MLOAD PUSH1 0x1 PUSH1 0x2 DUP2 LT PUSH2 0x3266 JUMPI PUSH2 0x3265 PUSH2 0x39B5 JUMP JUMPDEST JUMPDEST PUSH1 0x20 MUL ADD MLOAD DUP3 PUSH1 0x4 PUSH1 0x6 DUP5 PUSH2 0x327B SWAP2 SWAP1 PUSH2 0x3808 JUMP JUMPDEST PUSH2 0x3285 SWAP2 SWAP1 PUSH2 0x37B2 JUMP JUMPDEST DUP2 MLOAD DUP2 LT PUSH2 0x3296 JUMPI PUSH2 0x3295 PUSH2 0x39B5 JUMP JUMPDEST JUMPDEST PUSH1 0x20 MUL PUSH1 0x20 ADD ADD DUP2 DUP2 MSTORE POP POP DUP6 DUP2 DUP2 MLOAD DUP2 LT PUSH2 0x32B5 JUMPI PUSH2 0x32B4 PUSH2 0x39B5 JUMP JUMPDEST JUMPDEST PUSH1 0x20 MUL PUSH1 0x20 ADD ADD MLOAD PUSH1 0x20 ADD MLOAD PUSH1 0x0 PUSH1 0x2 DUP2 LT PUSH2 0x32D4 JUMPI PUSH2 0x32D3 PUSH2 0x39B5 JUMP JUMPDEST JUMPDEST PUSH1 0x20 MUL ADD MLOAD DUP3 PUSH1 0x5 PUSH1 0x6 DUP5 PUSH2 0x32E9 SWAP2 SWAP1 PUSH2 0x3808 JUMP JUMPDEST PUSH2 0x32F3 SWAP2 SWAP1 PUSH2 0x37B2 JUMP JUMPDEST DUP2 MLOAD DUP2 LT PUSH2 0x3304 JUMPI PUSH2 0x3303 PUSH2 0x39B5 JUMP JUMPDEST JUMPDEST PUSH1 0x20 MUL PUSH1 0x20 ADD ADD DUP2 DUP2 MSTORE POP POP DUP1 DUP1 PUSH2 0x331B SWAP1 PUSH2 0x38DD JUMP JUMPDEST SWAP2 POP POP PUSH2 0x30A4 JUMP JUMPDEST POP PUSH2 0x332C PUSH2 0x3453 JUMP JUMPDEST PUSH1 0x0 PUSH1 0x20 DUP3 PUSH1 0x20 DUP7 MUL PUSH1 0x20 DUP7 ADD PUSH1 0x8 PUSH2 0x7D0 GAS SUB STATICCALL SWAP1 POP DUP1 PUSH1 0x0 DUP2 EQ PUSH2 0x3351 JUMPI PUSH2 0x3353 JUMP JUMPDEST INVALID JUMPDEST POP DUP1 PUSH2 0x335E JUMPI PUSH1 0x0 DUP1 REVERT JUMPDEST PUSH1 0x0 DUP3 PUSH1 0x0 PUSH1 0x1 DUP2 LT PUSH2 0x3374 JUMPI PUSH2 0x3373 PUSH2 0x39B5 JUMP JUMPDEST JUMPDEST PUSH1 0x20 MUL ADD MLOAD EQ ISZERO SWAP6 POP POP POP POP POP POP SWAP3 SWAP2 POP POP JUMP JUMPDEST PUSH1 0x40 MLOAD DUP1 PUSH1 0xA0 ADD PUSH1 0x40 MSTORE DUP1 PUSH2 0x339B PUSH2 0x33CF JUMP JUMPDEST DUP2 MSTORE PUSH1 0x20 ADD PUSH2 0x33A8 PUSH2 0x342D JUMP JUMPDEST DUP2 MSTORE PUSH1 0x20 ADD PUSH2 0x33B5 PUSH2 0x342D JUMP JUMPDEST DUP2 MSTORE PUSH1 0x20 ADD PUSH2 0x33C2 PUSH2 0x342D JUMP JUMPDEST DUP2 MSTORE PUSH1 0x20 ADD PUSH1 0x60 DUP2 MSTORE POP SWAP1 JUMP JUMPDEST PUSH1 0x40 MLOAD DUP1 PUSH1 0x40 ADD PUSH1 0x40 MSTORE DUP1 PUSH1 0x0 DUP2 MSTORE PUSH1 0x20 ADD PUSH1 0x0 DUP2 MSTORE POP SWAP1 JUMP JUMPDEST PUSH1 0x40 MLOAD DUP1 PUSH1 0x60 ADD PUSH1 0x40 MSTORE DUP1 PUSH1 0x3 SWAP1 PUSH1 0x20 DUP3 MUL DUP1 CALLDATASIZE DUP4 CALLDATACOPY DUP1 DUP3 ADD SWAP2 POP POP SWAP1 POP POP SWAP1 JUMP JUMPDEST PUSH1 0x40 MLOAD DUP1 PUSH1 0x80 ADD PUSH1 0x40 MSTORE DUP1 PUSH1 0x4 SWAP1 PUSH1 0x20 DUP3 MUL DUP1 CALLDATASIZE DUP4 CALLDATACOPY DUP1 DUP3 ADD SWAP2 POP POP SWAP1 POP POP SWAP1 JUMP JUMPDEST PUSH1 0x40 MLOAD DUP1 PUSH1 0x40 ADD PUSH1 0x40 MSTORE DUP1 PUSH2 0x3440 PUSH2 0x3475 JUMP JUMPDEST DUP2 MSTORE PUSH1 0x20 ADD PUSH2 0x344D PUSH2 0x3475 JUMP JUMPDEST DUP2 MSTORE POP SWAP1 JUMP JUMPDEST PUSH1 0x40 MLOAD DUP1 PUSH1 0x20 ADD PUSH1 0x40 MSTORE DUP1 PUSH1 0x1 SWAP1 PUSH1 0x20 DUP3 MUL DUP1 CALLDATASIZE DUP4 CALLDATACOPY DUP1 DUP3 ADD SWAP2 POP POP SWAP1 POP POP SWAP1 JUMP JUMPDEST PUSH1 0x40 MLOAD DUP1 PUSH1 0x40 ADD PUSH1 0x40 MSTORE DUP1 PUSH1 0x2 SWAP1 PUSH1 0x20 DUP3 MUL DUP1 CALLDATASIZE DUP4 CALLDATACOPY DUP1 DUP3 ADD SWAP2 POP POP SWAP1 POP POP SWAP1 JUMP JUMPDEST PUSH1 0x0 PUSH2 0x34AA PUSH2 0x34A5 DUP5 PUSH2 0x3766 JUMP JUMPDEST PUSH2 0x3741 JUMP JUMPDEST SWAP1 POP DUP1 DUP3 DUP6 PUSH1 0x20 DUP7 MUL DUP3 ADD GT ISZERO PUSH2 0x34C4 JUMPI PUSH2 0x34C3 PUSH2 0x3A1D JUMP JUMPDEST JUMPDEST PUSH1 0x0 JUMPDEST DUP6 DUP2 LT ISZERO PUSH2 0x34F4 JUMPI DUP2 PUSH2 0x34DA DUP9 DUP3 PUSH2 0x36C0 JUMP JUMPDEST DUP5 MSTORE PUSH1 0x20 DUP5 ADD SWAP4 POP PUSH1 0x20 DUP4 ADD SWAP3 POP POP PUSH1 0x1 DUP2 ADD SWAP1 POP PUSH2 0x34C7 JUMP JUMPDEST POP POP POP SWAP4 SWAP3 POP POP POP JUMP JUMPDEST PUSH1 0x0 PUSH2 0x3511 PUSH2 0x350C DUP5 PUSH2 0x378C JUMP JUMPDEST PUSH2 0x3741 JUMP JUMPDEST SWAP1 POP DUP1 DUP3 DUP6 PUSH1 0x20 DUP7 MUL DUP3 ADD GT ISZERO PUSH2 0x352B JUMPI PUSH2 0x352A PUSH2 0x3A1D JUMP JUMPDEST JUMPDEST PUSH1 0x0 JUMPDEST DUP6 DUP2 LT ISZERO PUSH2 0x355B JUMPI DUP2 PUSH2 0x3541 DUP9 DUP3 PUSH2 0x36C0 JUMP JUMPDEST DUP5 MSTORE PUSH1 0x20 DUP5 ADD SWAP4 POP PUSH1 0x20 DUP4 ADD SWAP3 POP POP PUSH1 0x1 DUP2 ADD SWAP1 POP PUSH2 0x352E JUMP JUMPDEST POP POP POP SWAP4 SWAP3 POP POP POP JUMP JUMPDEST PUSH1 0x0 DUP3 PUSH1 0x1F DUP4 ADD SLT PUSH2 0x357A JUMPI PUSH2 0x3579 PUSH2 0x3A13 JUMP JUMPDEST JUMPDEST PUSH1 0x2 PUSH2 0x3587 DUP5 DUP3 DUP6 PUSH2 0x3497 JUMP JUMPDEST SWAP2 POP POP SWAP3 SWAP2 POP POP JUMP JUMPDEST PUSH1 0x0 DUP3 PUSH1 0x1F DUP4 ADD SLT PUSH2 0x35A5 JUMPI PUSH2 0x35A4 PUSH2 0x3A13 JUMP JUMPDEST JUMPDEST PUSH1 0x51 PUSH2 0x35B2 DUP5 DUP3 DUP6 PUSH2 0x34FE JUMP JUMPDEST SWAP2 POP POP SWAP3 SWAP2 POP POP JUMP JUMPDEST PUSH1 0x0 PUSH1 0x40 DUP3 DUP5 SUB SLT ISZERO PUSH2 0x35D1 JUMPI PUSH2 0x35D0 PUSH2 0x3A18 JUMP JUMPDEST JUMPDEST PUSH2 0x35DB PUSH1 0x40 PUSH2 0x3741 JUMP JUMPDEST SWAP1 POP PUSH1 0x0 PUSH2 0x35EB DUP5 DUP3 DUP6 ADD PUSH2 0x36C0 JUMP JUMPDEST PUSH1 0x0 DUP4 ADD MSTORE POP PUSH1 0x20 PUSH2 0x35FF DUP5 DUP3 DUP6 ADD PUSH2 0x36C0 JUMP JUMPDEST PUSH1 0x20 DUP4 ADD MSTORE POP SWAP3 SWAP2 POP POP JUMP JUMPDEST PUSH1 0x0 PUSH1 0x80 DUP3 DUP5 SUB SLT ISZERO PUSH2 0x3621 JUMPI PUSH2 0x3620 PUSH2 0x3A18 JUMP JUMPDEST JUMPDEST PUSH2 0x362B PUSH1 0x40 PUSH2 0x3741 JUMP JUMPDEST SWAP1 POP PUSH1 0x0 PUSH2 0x363B DUP5 DUP3 DUP6 ADD PUSH2 0x3565 JUMP JUMPDEST PUSH1 0x0 DUP4 ADD MSTORE POP PUSH1 0x40 PUSH2 0x364F DUP5 DUP3 DUP6 ADD PUSH2 0x3565 JUMP JUMPDEST PUSH1 0x20 DUP4 ADD MSTORE POP SWAP3 SWAP2 POP POP JUMP JUMPDEST PUSH1 0x0 PUSH2 0x100 DUP3 DUP5 SUB SLT ISZERO PUSH2 0x3672 JUMPI PUSH2 0x3671 PUSH2 0x3A18 JUMP JUMPDEST JUMPDEST PUSH2 0x367C PUSH1 0x60 PUSH2 0x3741 JUMP JUMPDEST SWAP1 POP PUSH1 0x0 PUSH2 0x368C DUP5 DUP3 DUP6 ADD PUSH2 0x35BB JUMP JUMPDEST PUSH1 0x0 DUP4 ADD MSTORE POP PUSH1 0x40 PUSH2 0x36A0 DUP5 DUP3 DUP6 ADD PUSH2 0x360B JUMP JUMPDEST PUSH1 0x20 DUP4 ADD MSTORE POP PUSH1 0xC0 PUSH2 0x36B4 DUP5 DUP3 DUP6 ADD PUSH2 0x35BB JUMP JUMPDEST PUSH1 0x40 DUP4 ADD MSTORE POP SWAP3 SWAP2 POP POP JUMP JUMPDEST PUSH1 0x0 DUP2 CALLDATALOAD SWAP1 POP PUSH2 0x36CF DUP2 PUSH2 0x3A38 JUMP JUMPDEST SWAP3 SWAP2 POP POP JUMP JUMPDEST PUSH1 0x0 DUP1 PUSH2 0xB20 DUP4 DUP6 SUB SLT ISZERO PUSH2 0x36ED JUMPI PUSH2 0x36EC PUSH2 0x3A22 JUMP JUMPDEST JUMPDEST PUSH1 0x0 PUSH2 0x36FB DUP6 DUP3 DUP7 ADD PUSH2 0x365B JUMP JUMPDEST SWAP3 POP POP PUSH2 0x100 PUSH2 0x370D DUP6 DUP3 DUP7 ADD PUSH2 0x3590 JUMP JUMPDEST SWAP2 POP POP SWAP3 POP SWAP3 SWAP1 POP JUMP JUMPDEST PUSH2 0x3720 DUP2 PUSH2 0x3896 JUMP JUMPDEST DUP3 MSTORE POP POP JUMP JUMPDEST PUSH1 0x0 PUSH1 0x20 DUP3 ADD SWAP1 POP PUSH2 0x373B PUSH1 0x0 DUP4 ADD DUP5 PUSH2 0x3717 JUMP JUMPDEST SWAP3 SWAP2 POP POP JUMP JUMPDEST PUSH1 0x0 PUSH2 0x374B PUSH2 0x375C JUMP JUMPDEST SWAP1 POP PUSH2 0x3757 DUP3 DUP3 PUSH2 0x38AC JUMP JUMPDEST SWAP2 SWAP1 POP JUMP JUMPDEST PUSH1 0x0 PUSH1 0x40 MLOAD SWAP1 POP SWAP1 JUMP JUMPDEST PUSH1 0x0 PUSH8 0xFFFFFFFFFFFFFFFF DUP3 GT ISZERO PUSH2 0x3781 JUMPI PUSH2 0x3780 PUSH2 0x39E4 JUMP JUMPDEST JUMPDEST PUSH1 0x20 DUP3 MUL SWAP1 POP SWAP2 SWAP1 POP JUMP JUMPDEST PUSH1 0x0 PUSH8 0xFFFFFFFFFFFFFFFF DUP3 GT ISZERO PUSH2 0x37A7 JUMPI PUSH2 0x37A6 PUSH2 0x39E4 JUMP JUMPDEST JUMPDEST PUSH1 0x20 DUP3 MUL SWAP1 POP SWAP2 SWAP1 POP JUMP JUMPDEST PUSH1 0x0 PUSH2 0x37BD DUP3 PUSH2 0x38A2 JUMP JUMPDEST SWAP2 POP PUSH2 0x37C8 DUP4 PUSH2 0x38A2 JUMP JUMPDEST SWAP3 POP DUP3 PUSH32 0xFFFFFFFFFFFFFFFFFFFFFFFFFFFFFFFFFFFFFFFFFFFFFFFFFFFFFFFFFFFFFFFF SUB DUP3 GT ISZERO PUSH2 0x37FD JUMPI PUSH2 0x37FC PUSH2 0x3957 JUMP JUMPDEST JUMPDEST DUP3 DUP3 ADD SWAP1 POP SWAP3 SWAP2 POP POP JUMP JUMPDEST PUSH1 0x0 PUSH2 0x3813 DUP3 PUSH2 0x38A2 JUMP JUMPDEST SWAP2 POP PUSH2 0x381E DUP4 PUSH2 0x38A2 JUMP JUMPDEST SWAP3 POP DUP2 PUSH32 0xFFFFFFFFFFFFFFFFFFFFFFFFFFFFFFFFFFFFFFFFFFFFFFFFFFFFFFFFFFFFFFFF DIV DUP4 GT DUP3 ISZERO ISZERO AND ISZERO PUSH2 0x3857 JUMPI PUSH2 0x3856 PUSH2 0x3957 JUMP JUMPDEST JUMPDEST DUP3 DUP3 MUL SWAP1 POP SWAP3 SWAP2 POP POP JUMP JUMPDEST PUSH1 0x0 PUSH2 0x386D DUP3 PUSH2 0x38A2 JUMP JUMPDEST SWAP2 POP PUSH2 0x3878 DUP4 PUSH2 0x38A2 JUMP JUMPDEST SWAP3 POP DUP3 DUP3 LT ISZERO PUSH2 0x388B JUMPI PUSH2 0x388A PUSH2 0x3957 JUMP JUMPDEST JUMPDEST DUP3 DUP3 SUB SWAP1 POP SWAP3 SWAP2 POP POP JUMP JUMPDEST PUSH1 0x0 DUP2 ISZERO ISZERO SWAP1 POP SWAP2 SWAP1 POP JUMP JUMPDEST PUSH1 0x0 DUP2 SWAP1 POP SWAP2 SWAP1 POP JUMP JUMPDEST PUSH2 0x38B5 DUP3 PUSH2 0x3A27 JUMP JUMPDEST DUP2 ADD DUP2 DUP2 LT PUSH8 0xFFFFFFFFFFFFFFFF DUP3 GT OR ISZERO PUSH2 0x38D4 JUMPI PUSH2 0x38D3 PUSH2 0x39E4 JUMP JUMPDEST JUMPDEST DUP1 PUSH1 0x40 MSTORE POP POP POP JUMP JUMPDEST PUSH1 0x0 PUSH2 0x38E8 DUP3 PUSH2 0x38A2 JUMP JUMPDEST SWAP2 POP PUSH32 0xFFFFFFFFFFFFFFFFFFFFFFFFFFFFFFFFFFFFFFFFFFFFFFFFFFFFFFFFFFFFFFFF DUP3 EQ ISZERO PUSH2 0x391B JUMPI PUSH2 0x391A PUSH2 0x3957 JUMP JUMPDEST JUMPDEST PUSH1 0x1 DUP3 ADD SWAP1 POP SWAP2 SWAP1 POP JUMP JUMPDEST PUSH1 0x0 PUSH2 0x3931 DUP3 PUSH2 0x38A2 JUMP JUMPDEST SWAP2 POP PUSH2 0x393C DUP4 PUSH2 0x38A2 JUMP JUMPDEST SWAP3 POP DUP3 PUSH2 0x394C JUMPI PUSH2 0x394B PUSH2 0x3986 JUMP JUMPDEST JUMPDEST DUP3 DUP3 MOD SWAP1 POP SWAP3 SWAP2 POP POP JUMP JUMPDEST PUSH32 0x4E487B7100000000000000000000000000000000000000000000000000000000 PUSH1 0x0 MSTORE PUSH1 0x11 PUSH1 0x4 MSTORE PUSH1 0x24 PUSH1 0x0 REVERT JUMPDEST PUSH32 0x4E487B7100000000000000000000000000000000000000000000000000000000 PUSH1 0x0 MSTORE PUSH1 0x12 PUSH1 0x4 MSTORE PUSH1 0x24 PUSH1 0x0 REVERT JUMPDEST PUSH32 0x4E487B7100000000000000000000000000000000000000000000000000000000 PUSH1 0x0 MSTORE PUSH1 0x32 PUSH1 0x4 MSTORE PUSH1 0x24 PUSH1 0x0 REVERT JUMPDEST PUSH32 0x4E487B7100000000000000000000000000000000000000000000000000000000 PUSH1 0x0 MSTORE PUSH1 0x41 PUSH1 0x4 MSTORE PUSH1 0x24 PUSH1 0x0 REVERT JUMPDEST PUSH1 0x0 DUP1 REVERT JUMPDEST PUSH1 0x0 DUP1 REVERT JUMPDEST PUSH1 0x0 DUP1 REVERT JUMPDEST PUSH1 0x0 DUP1 REVERT JUMPDEST PUSH1 0x0 PUSH1 0x1F NOT PUSH1 0x1F DUP4 ADD AND SWAP1 POP SWAP2 SWAP1 POP JUMP JUMPDEST PUSH2 0x3A41 DUP2 PUSH2 0x38A2 JUMP JUMPDEST DUP2 EQ PUSH2 0x3A4C JUMPI PUSH1 0x0 DUP1 REVERT JUMPDEST POP JUMP INVALID LOG2 PUSH5 0x6970667358 0x22 SLT KECCAK256 0xAE NOT 0x5C 0x1E 0x5C PUSH16 0x2AA71BDBF9F27BE1842DD0B439C63DA8 DUP6 SWAP9 PUSH18 0x4EB957A9F2AE6A64736F6C63430008060033 "},"methodIdentifiers":{"verifyTx(((uint256,uint256),(uint256[2],uint256[2]),(uint256,uint256)),uint256[81])":"eefa323d"}}}}}