{"contracts/MVSC.sol":{"Verifier":{"abi":[{"inputs":[{"components":[{"components":[{"internalType":"uint256","name":"X","type":"uint256"},{"internalType":"uint256","name":"Y","type":"uint256"}],"internalType":"struct Pairing.G1Point","name":"a","type":"tuple"},{"components":[{"internalType":"uint256[2]","name":"X","type":"uint256[2]"},{"internalType":"uint256[2]","name":"Y","type":"uint256[2]"}],"internalType":"struct Pairing.G2Point","name":"b","type":"tuple"},{"components":[{"internalType":"uint256","name":"X","type":"uint256"},{"internalType":"uint256","name":"Y","type":"uint256"}],"internalType":"struct Pairing.G1Point","name":"c","type":"tuple"}],"internalType":"struct Verifier.Proof","name":"proof","type":"tuple"},{"internalType":"uint256[24]","name":"input","type":"uint256[24]"}],"name":"verifyTx","outputs":[{"internalType":"bool","name":"r","type":"bool"}],"stateMutability":"view","type":"function"}],"evm":{"bytecode":{"linkReferences":{},"object":"608060405234801561001057600080fd5b50611fcb806100206000396000f3fe608060405234801561001057600080fd5b506004361061002b5760003560e01c806388e3f31714610030575b600080fd5b61004a60048036038101906100459190611c1b565b610060565b6040516100579190611c6c565b60405180910390f35b600080601867ffffffffffffffff81111561007e5761007d611f2a565b5b6040519080825280602002602001820160405280156100ac5781602001602082028036833780820191505090505b50905060005b6018811015610105578381601881106100ce576100cd611efb565b5b60200201518282815181106100e6576100e5611efb565b5b60200260200101818152505080806100fd90611e23565b9150506100b2565b506000610112828661012e565b1415610122576001915050610128565b60009150505b92915050565b6000807f30644e72e131a029b85045b68181585d2833e84879b9709143e1f593f00000019050600061015e6102c5565b9050806080015151600186516101749190611cf8565b1461017e57600080fd5b60006040518060400160405280600081526020016000815250905060005b865181101561023757838782815181106101b9576101b8611efb565b5b6020026020010151106101cb57600080fd5b6102228261021d85608001516001856101e49190611cf8565b815181106101f5576101f4611efb565b5b60200260200101518a85815181106102105761020f611efb565b5b602002602001015161118d565b611234565b9150808061022f90611e23565b91505061019c565b5061026181836080015160008151811061025457610253611efb565b5b6020026020010151611234565b90506102a78560000151866020015161027984611301565b856040015161028b8a60400151611301565b876060015161029d8960000151611301565b89602001516113a6565b6102b757600193505050506102bf565b600093505050505b92915050565b6102cd6118ce565b60405180604001604052807f1635d15567816b533b8489291dfa7369eea8bfd26b1a5661d43b8fba8534ef9381526020017f2f8d32ec4a8df92a5c58ae9a986b971ecc205fe221c30c1f270290a70a9102c88152508160000181905250604051806040016040528060405180604001604052807f1805caa951180dec37d759597459c1bffb3a7ecdd50510f34d8da841fce78b0e81526020017f03d678fb93c8c15c209dc39869ded6fa699436fb5dc53a18d4ed5cc82ea056db815250815260200160405180604001604052807f18bea2f33b985e0a57141e38f3a822f2aa8014ae1108304ea2832bf8036ac0fa81526020017f05b60fa4fa9ac543642a610b35de6731cdca3dfa3bf02890116e83553bcbd6538152508152508160200181905250604051806040016040528060405180604001604052807f1dd5f5a44a5bad3bc6a081a9b003e0a5d4d4da40f5385c442f12fba3be9c223581526020017f2feb231fd70bab785cdcf0d021f9d9e5aa536d9e34a552fe1eaba06955acb7d2815250815260200160405180604001604052807f199bf111819b97e857003a450206835758256ef87bcad43740926cdacd01d88f81526020017f0ef180b448760065b8171fe9e98fdecf28baaec92ef4a9f4c842d11481387be88152508152508160400181905250604051806040016040528060405180604001604052807f1865833bb8d626ec55310f1f2afa37bdd778efe48c28f2045efda757672f11ba81526020017e0939d7a1d5d9126cd182e681747529bdb15c0a9fc864e13a4e9862fb2fb784815250815260200160405180604001604052807f178a3cb3c4b7177652321283be8c4f2abf6d1bde78a09af571768514bccb795d81526020017f13a75eb6f0dca762a71bf75b915aee9c3edc9f0842e2c4de8a6c7337ab389d6f8152508152508160600181905250601967ffffffffffffffff81111561059357610592611f2a565b5b6040519080825280602002602001820160405280156105cc57816020015b6105b9611915565b8152602001906001900390816105b15790505b50816080018190525060405180604001604052807f095aa9708537e0acdb3acb11e553515ad1f65f0001bf4bab66dac26f2453ea8381526020017f1ab0e84d6b24f34f7efc79de9ddd6d80f9380dd8c0aa28c32e2f9f3854ed97fe815250816080015160008151811061064257610641611efb565b5b602002602001018190525060405180604001604052807f1dd56957f3368111456308041cc4c36d2328e47592bac23bff4b928d8f4840f781526020017f2727117161ea311ad1dfb6cbbddbdb59bfc668da582c3024c53564463f231f1981525081608001516001815181106106ba576106b9611efb565b5b602002602001018190525060405180604001604052807f0bd92c03010973077324fe3f7b336e7e35e904f71001cb137d725f9032fcff7e81526020017f27e3d009cd396bad72572be54e443025e67968e4c4b6534bec71131d44dbf855815250816080015160028151811061073257610731611efb565b5b602002602001018190525060405180604001604052807f21be2f81d87e60ebfc7c3d4e5045be3150c19fac919bc96935dcf5fa71ec317d81526020017f0e2f428f967948026ee72a7c84f5ff2e192fd04f427b8249e4dd9f407ebebfda81525081608001516003815181106107aa576107a9611efb565b5b602002602001018190525060405180604001604052807f295ef3639515d0164396ff3cd09c05562a4f014ba4305fbcfce9994bfe9e035381526020017f266a66fa705525272000825224ea26255b11488bf168a429b8c17a220bc30557815250816080015160048151811061082257610821611efb565b5b602002602001018190525060405180604001604052807e06293ba7a0b33ea3d746c05654be553ba0b4f2cfb66bbcd19b193b9751369d81526020017f14a074dd3543f4ccdd6537ca5c8eebfb217060ca4e5afeb0a7a09d9ecfc912ee815250816080015160058151811061089957610898611efb565b5b602002602001018190525060405180604001604052807f144ad0200273fa50774c9b9887163281953aa2ab259be53288879f063db3eb1881526020017f206308bead896eb31342813e8e9312c5f13dd471c0a5605de66f6f68bc0a4126815250816080015160068151811061091157610910611efb565b5b602002602001018190525060405180604001604052807f0866bcc288edb38d7dcf46657225cecbbbb116d7c348584d74b4bdd46a511cb681526020017f23d60738ef43938ecee267ce09786cf3d18be5c361918704585de32e15ca9e2d815250816080015160078151811061098957610988611efb565b5b602002602001018190525060405180604001604052807f0b2f3bd45b06b0f39cddb0365a8e2962ad9e266e7d718e62be89b4f71cef101281526020017f2271ba3aa61eb2c10d848935abe4de30dfd4290d8266d615921bc860a2a0adce8152508160800151600881518110610a0157610a00611efb565b5b602002602001018190525060405180604001604052807f23fb3311c76f76d0f26729dbca3df5e83ae561d2178e6d65497c816fc502e66b81526020017f01f9762a3514bae45ea18ae195d96d06726e5b13ca98911675d65baa81f133788152508160800151600981518110610a7957610a78611efb565b5b602002602001018190525060405180604001604052807f277c7ac0ceb263bc9a3d014d38a6000aaa1c42315530db9e61fd39af8cbfd92b81526020017f03c17ecbb1f7f2526ab2b29928b9b88e46934df6f584efc5f6abba40250f97448152508160800151600a81518110610af157610af0611efb565b5b602002602001018190525060405180604001604052807f2c98470cb570e485c786af848696da00486aa0cf3420215c1b7d4abd5059286081526020017f1fdec81895854c21729f47cc08a2a6dd6a791a99002da4139aefb53cca209d8f8152508160800151600b81518110610b6957610b68611efb565b5b602002602001018190525060405180604001604052807f25a81739a99c738161a6210eedab854a741cc0495f7ec2c677367ce3d3e868a881526020017f0d930f83e7260ab863230504290cc7d5fc0d8a1f07b7df347112d72bbe9437a88152508160800151600c81518110610be157610be0611efb565b5b602002602001018190525060405180604001604052807f07386e63ab5c69a165a8b0eb0b24988e88a1dad8191b324a458e053ad90452b381526020017f25460f55db0d23ac0c824f23c61dfb42cbd4d9f4a3cbf0f912cc9434afc001238152508160800151600d81518110610c5957610c58611efb565b5b602002602001018190525060405180604001604052807f274482c081cdcfea7f907eeb48a54589ef7a3c2f1f5d6b14b2079fc42019851d81526020017f2d3269eb78a6c30707d86790bc9118c6d73e8665c6426aae55118d4bdf1d51418152508160800151600e81518110610cd157610cd0611efb565b5b602002602001018190525060405180604001604052807f2a902536485f315f958e1f58428595d9547e508a44fe4eae4d88490f7b6f493581526020017f2467c22389a6f730256f13ef9c36fefaffd5f62e59883253ba7e454f203bb1ba8152508160800151600f81518110610d4957610d48611efb565b5b602002602001018190525060405180604001604052807f14629ff0a8b89bd71c2f6a563bf7c970ddae1b321a9c7a166244c04530d6b3aa81526020017f12c6f2e374e57df351930c8af85080f88aaf982fae8462f566ff130fef03fb4b8152508160800151601081518110610dc157610dc0611efb565b5b602002602001018190525060405180604001604052807f26fb68fabedee09dd650447c8ed9a1facd2ca6c64d7ce4739f9ad24e3681a95081526020017f1451295dc567532a2faaef99fea2d36cd0783ee3bab10ef347b04144c56aa1d68152508160800151601181518110610e3957610e38611efb565b5b602002602001018190525060405180604001604052807f170ef8b963ad4003ae5fab8f63a3498019996cb7e95abfc8bd02e146535acc0081526020017ec1aed28ba067b3d985de0738be5d6062ac05e671c096dd545b49509521ec168152508160800151601281518110610eb057610eaf611efb565b5b602002602001018190525060405180604001604052807f195f188845ace50740d4e5d790923101f03de4c87b72f2ef9c13ec43caea1c4281526020017f1be80b0a4b27caa95e1f4e05f1eed590581df670510951c7d53c740a78aea7118152508160800151601381518110610f2857610f27611efb565b5b602002602001018190525060405180604001604052807f1dfaef7d1d60d28f24b48fdcf3e2002e60bd6a912a814cca9a0f50716fd763a481526020017f2710d6b35bc5a842e5e0a66328fb88d23dd81f1d857223b86e57a1d4028ac2248152508160800151601481518110610fa057610f9f611efb565b5b602002602001018190525060405180604001604052807f29cb27efcca93c2ac44427cc8a10b06dc8edf7c9d5d093a81111d303a3077d5a81526020017f20b0649741427f3c0888a7790b93f647fe16cb356d05e7e1b32c7a8191ea7166815250816080015160158151811061101857611017611efb565b5b602002602001018190525060405180604001604052807f031c3edb5bebce3517bd14a98d56a194bbe4e61efd4b25316a2bb768488fecb681526020017e9cf640cc8ec2e09513ee64fe8602a365e040d2adc40be06d3130f63d00dc67815250816080015160168151811061108f5761108e611efb565b5b602002602001018190525060405180604001604052807f0fc00f16735e56e0e1eeee6aa1ac226a8e88f89f7f7139f5291693e13da95cac81526020017f2499b80bd4f366c83f2b4da3e013700a00d1ca70649256b5d65f39ad4c4c5db4815250816080015160178151811061110757611106611efb565b5b602002602001018190525060405180604001604052807f1edf8272bddacdea24c9ed9829c4ece615c87bde3e8a387faaa3f559f036fb8e81526020017f21601e76e5f68d65ead089c6a6ecc2605416263352d2ea5fb9ef15ba239b02be815250816080015160188151811061117f5761117e611efb565b5b602002602001018190525090565b611195611915565b61119d61192f565b8360000151816000600381106111b6576111b5611efb565b5b6020020181815250508360200151816001600381106111d8576111d7611efb565b5b60200201818152505082816002600381106111f6576111f5611efb565b5b602002018181525050600060608360808460076107d05a03fa9050806000811461121f57611221565bfe5b508061122c57600080fd5b505092915050565b61123c611915565b611244611951565b83600001518160006004811061125d5761125c611efb565b5b60200201818152505083602001518160016004811061127f5761127e611efb565b5b6020020181815250508260000151816002600481106112a1576112a0611efb565b5b6020020181815250508260200151816003600481106112c3576112c2611efb565b5b602002018181525050600060608360c08460066107d05a03fa905080600081146112ec576112ee565bfe5b50806112f957600080fd5b505092915050565b611309611915565b60007f30644e72e131a029b85045b68181585d97816a916871ca8d3c208c16d87cfd47905060008360000151148015611346575060008360200151145b1561136a5760405180604001604052806000815260200160008152509150506113a1565b60405180604001604052808460000151815260200182856020015161138f9190611e6c565b8361139a9190611da8565b8152509150505b919050565b600080600467ffffffffffffffff8111156113c4576113c3611f2a565b5b6040519080825280602002602001820160405280156113fd57816020015b6113ea611915565b8152602001906001900390816113e25790505b5090506000600467ffffffffffffffff81111561141d5761141c611f2a565b5b60405190808252806020026020018201604052801561145657816020015b611443611973565b81526020019060019003908161143b5790505b5090508a8260008151811061146e5761146d611efb565b5b6020026020010181905250888260018151811061148e5761148d611efb565b5b602002602001018190525086826002815181106114ae576114ad611efb565b5b602002602001018190525084826003815181106114ce576114cd611efb565b5b602002602001018190525089816000815181106114ee576114ed611efb565b5b6020026020010181905250878160018151811061150e5761150d611efb565b5b6020026020010181905250858160028151811061152e5761152d611efb565b5b6020026020010181905250838160038151811061154e5761154d611efb565b5b60200260200101819052506115638282611573565b9250505098975050505050505050565b6000815183511461158357600080fd5b60008351905060006006826115989190611d4e565b905060008167ffffffffffffffff8111156115b6576115b5611f2a565b5b6040519080825280602002602001820160405280156115e45781602001602082028036833780820191505090505b50905060005b838110156118695786818151811061160557611604611efb565b5b6020026020010151600001518260006006846116219190611d4e565b61162b9190611cf8565b8151811061163c5761163b611efb565b5b60200260200101818152505086818151811061165b5761165a611efb565b5b6020026020010151602001518260016006846116779190611d4e565b6116819190611cf8565b8151811061169257611691611efb565b5b6020026020010181815250508581815181106116b1576116b0611efb565b5b6020026020010151600001516001600281106116d0576116cf611efb565b5b60200201518260026006846116e59190611d4e565b6116ef9190611cf8565b81518110611700576116ff611efb565b5b60200260200101818152505085818151811061171f5761171e611efb565b5b60200260200101516000015160006002811061173e5761173d611efb565b5b60200201518260036006846117539190611d4e565b61175d9190611cf8565b8151811061176e5761176d611efb565b5b60200260200101818152505085818151811061178d5761178c611efb565b5b6020026020010151602001516001600281106117ac576117ab611efb565b5b60200201518260046006846117c19190611d4e565b6117cb9190611cf8565b815181106117dc576117db611efb565b5b6020026020010181815250508581815181106117fb576117fa611efb565b5b60200260200101516020015160006002811061181a57611819611efb565b5b602002015182600560068461182f9190611d4e565b6118399190611cf8565b8151811061184a57611849611efb565b5b602002602001018181525050808061186190611e23565b9150506115ea565b50611872611999565b6000602082602086026020860160086107d05a03fa9050806000811461189757611899565bfe5b50806118a457600080fd5b6000826000600181106118ba576118b9611efb565b5b602002015114159550505050505092915050565b6040518060a001604052806118e1611915565b81526020016118ee611973565b81526020016118fb611973565b8152602001611908611973565b8152602001606081525090565b604051806040016040528060008152602001600081525090565b6040518060600160405280600390602082028036833780820191505090505090565b6040518060800160405280600490602082028036833780820191505090505090565b60405180604001604052806119866119bb565b81526020016119936119bb565b81525090565b6040518060200160405280600190602082028036833780820191505090505090565b6040518060400160405280600290602082028036833780820191505090505090565b60006119f06119eb84611cac565b611c87565b90508082856020860282011115611a0a57611a09611f63565b5b60005b85811015611a3a5781611a208882611c06565b845260208401935060208301925050600181019050611a0d565b5050509392505050565b6000611a57611a5284611cd2565b611c87565b90508082856020860282011115611a7157611a70611f63565b5b60005b85811015611aa15781611a878882611c06565b845260208401935060208301925050600181019050611a74565b5050509392505050565b600082601f830112611ac057611abf611f59565b5b6018611acd8482856119dd565b91505092915050565b600082601f830112611aeb57611aea611f59565b5b6002611af8848285611a44565b91505092915050565b600060408284031215611b1757611b16611f5e565b5b611b216040611c87565b90506000611b3184828501611c06565b6000830152506020611b4584828501611c06565b60208301525092915050565b600060808284031215611b6757611b66611f5e565b5b611b716040611c87565b90506000611b8184828501611ad6565b6000830152506040611b9584828501611ad6565b60208301525092915050565b60006101008284031215611bb857611bb7611f5e565b5b611bc26060611c87565b90506000611bd284828501611b01565b6000830152506040611be684828501611b51565b60208301525060c0611bfa84828501611b01565b60408301525092915050565b600081359050611c1581611f7e565b92915050565b6000806104008385031215611c3357611c32611f68565b5b6000611c4185828601611ba1565b925050610100611c5385828601611aab565b9150509250929050565b611c6681611ddc565b82525050565b6000602082019050611c816000830184611c5d565b92915050565b6000611c91611ca2565b9050611c9d8282611df2565b919050565b6000604051905090565b600067ffffffffffffffff821115611cc757611cc6611f2a565b5b602082029050919050565b600067ffffffffffffffff821115611ced57611cec611f2a565b5b602082029050919050565b6000611d0382611de8565b9150611d0e83611de8565b9250827fffffffffffffffffffffffffffffffffffffffffffffffffffffffffffffffff03821115611d4357611d42611e9d565b5b828201905092915050565b6000611d5982611de8565b9150611d6483611de8565b9250817fffffffffffffffffffffffffffffffffffffffffffffffffffffffffffffffff0483118215151615611d9d57611d9c611e9d565b5b828202905092915050565b6000611db382611de8565b9150611dbe83611de8565b925082821015611dd157611dd0611e9d565b5b828203905092915050565b60008115159050919050565b6000819050919050565b611dfb82611f6d565b810181811067ffffffffffffffff82111715611e1a57611e19611f2a565b5b80604052505050565b6000611e2e82611de8565b91507fffffffffffffffffffffffffffffffffffffffffffffffffffffffffffffffff821415611e6157611e60611e9d565b5b600182019050919050565b6000611e7782611de8565b9150611e8283611de8565b925082611e9257611e91611ecc565b5b828206905092915050565b7f4e487b7100000000000000000000000000000000000000000000000000000000600052601160045260246000fd5b7f4e487b7100000000000000000000000000000000000000000000000000000000600052601260045260246000fd5b7f4e487b7100000000000000000000000000000000000000000000000000000000600052603260045260246000fd5b7f4e487b7100000000000000000000000000000000000000000000000000000000600052604160045260246000fd5b600080fd5b600080fd5b600080fd5b600080fd5b6000601f19601f8301169050919050565b611f8781611de8565b8114611f9257600080fd5b5056fea2646970667358221220159bc983d8c4892a6bba535d66681f5e9b1bc981397b44e51bef91a519e215e664736f6c63430008060033","opcodes":"PUSH1 0x80 PUSH1 0x40 MSTORE CALLVALUE DUP1 ISZERO PUSH2 0x10 JUMPI PUSH1 0x0 DUP1 REVERT JUMPDEST POP PUSH2 0x1FCB DUP1 PUSH2 0x20 PUSH1 0x0 CODECOPY PUSH1 0x0 RETURN INVALID PUSH1 0x80 PUSH1 0x40 MSTORE CALLVALUE DUP1 ISZERO PUSH2 0x10 JUMPI PUSH1 0x0 DUP1 REVERT JUMPDEST POP PUSH1 0x4 CALLDATASIZE LT PUSH2 0x2B JUMPI PUSH1 0x0 CALLDATALOAD PUSH1 0xE0 SHR DUP1 PUSH4 0x88E3F317 EQ PUSH2 0x30 JUMPI JUMPDEST PUSH1 0x0 DUP1 REVERT JUMPDEST PUSH2 0x4A PUSH1 0x4 DUP1 CALLDATASIZE SUB DUP2 ADD SWAP1 PUSH2 0x45 SWAP2 SWAP1 PUSH2 0x1C1B JUMP JUMPDEST PUSH2 0x60 JUMP JUMPDEST PUSH1 0x40 MLOAD PUSH2 0x57 SWAP2 SWAP1 PUSH2 0x1C6C JUMP JUMPDEST PUSH1 0x40 MLOAD DUP1 SWAP2 SUB SWAP1 RETURN JUMPDEST PUSH1 0x0 DUP1 PUSH1 0x18 PUSH8 0xFFFFFFFFFFFFFFFF DUP2 GT ISZERO PUSH2 0x7E JUMPI PUSH2 0x7D PUSH2 0x1F2A JUMP JUMPDEST JUMPDEST PUSH1 0x40 MLOAD SWAP1 DUP1 DUP3 MSTORE DUP1 PUSH1 0x20 MUL PUSH1 0x20 ADD DUP3 ADD PUSH1 0x40 MSTORE DUP1 ISZERO PUSH2 0xAC JUMPI DUP2 PUSH1 0x20 ADD PUSH1 0x20 DUP3 MUL DUP1 CALLDATASIZE DUP4 CALLDATACOPY DUP1 DUP3 ADD SWAP2 POP POP SWAP1 POP JUMPDEST POP SWAP1 POP PUSH1 0x0 JUMPDEST PUSH1 0x18 DUP2 LT ISZERO PUSH2 0x105 JUMPI DUP4 DUP2 PUSH1 0x18 DUP2 LT PUSH2 0xCE JUMPI PUSH2 0xCD PUSH2 0x1EFB JUMP JUMPDEST JUMPDEST PUSH1 0x20 MUL ADD MLOAD DUP3 DUP3 DUP2 MLOAD DUP2 LT PUSH2 0xE6 JUMPI PUSH2 0xE5 PUSH2 0x1EFB JUMP JUMPDEST JUMPDEST PUSH1 0x20 MUL PUSH1 0x20 ADD ADD DUP2 DUP2 MSTORE POP POP DUP1 DUP1 PUSH2 0xFD SWAP1 PUSH2 0x1E23 JUMP JUMPDEST SWAP2 POP POP PUSH2 0xB2 JUMP JUMPDEST POP PUSH1 0x0 PUSH2 0x112 DUP3 DUP7 PUSH2 0x12E JUMP JUMPDEST EQ ISZERO PUSH2 0x122 JUMPI PUSH1 0x1 SWAP2 POP POP PUSH2 0x128 JUMP JUMPDEST PUSH1 0x0 SWAP2 POP POP JUMPDEST SWAP3 SWAP2 POP POP JUMP JUMPDEST PUSH1 0x0 DUP1 PUSH32 0x30644E72E131A029B85045B68181585D2833E84879B9709143E1F593F0000001 SWAP1 POP PUSH1 0x0 PUSH2 0x15E PUSH2 0x2C5 JUMP JUMPDEST SWAP1 POP DUP1 PUSH1 0x80 ADD MLOAD MLOAD PUSH1 0x1 DUP7 MLOAD PUSH2 0x174 SWAP2 SWAP1 PUSH2 0x1CF8 JUMP JUMPDEST EQ PUSH2 0x17E JUMPI PUSH1 0x0 DUP1 REVERT JUMPDEST PUSH1 0x0 PUSH1 0x40 MLOAD DUP1 PUSH1 0x40 ADD PUSH1 0x40 MSTORE DUP1 PUSH1 0x0 DUP2 MSTORE PUSH1 0x20 ADD PUSH1 0x0 DUP2 MSTORE POP SWAP1 POP PUSH1 0x0 JUMPDEST DUP7 MLOAD DUP2 LT ISZERO PUSH2 0x237 JUMPI DUP4 DUP8 DUP3 DUP2 MLOAD DUP2 LT PUSH2 0x1B9 JUMPI PUSH2 0x1B8 PUSH2 0x1EFB JUMP JUMPDEST JUMPDEST PUSH1 0x20 MUL PUSH1 0x20 ADD ADD MLOAD LT PUSH2 0x1CB JUMPI PUSH1 0x0 DUP1 REVERT JUMPDEST PUSH2 0x222 DUP3 PUSH2 0x21D DUP6 PUSH1 0x80 ADD MLOAD PUSH1 0x1 DUP6 PUSH2 0x1E4 SWAP2 SWAP1 PUSH2 0x1CF8 JUMP JUMPDEST DUP2 MLOAD DUP2 LT PUSH2 0x1F5 JUMPI PUSH2 0x1F4 PUSH2 0x1EFB JUMP JUMPDEST JUMPDEST PUSH1 0x20 MUL PUSH1 0x20 ADD ADD MLOAD DUP11 DUP6 DUP2 MLOAD DUP2 LT PUSH2 0x210 JUMPI PUSH2 0x20F PUSH2 0x1EFB JUMP JUMPDEST JUMPDEST PUSH1 0x20 MUL PUSH1 0x20 ADD ADD MLOAD PUSH2 0x118D JUMP JUMPDEST PUSH2 0x1234 JUMP JUMPDEST SWAP2 POP DUP1 DUP1 PUSH2 0x22F SWAP1 PUSH2 0x1E23 JUMP JUMPDEST SWAP2 POP POP PUSH2 0x19C JUMP JUMPDEST POP PUSH2 0x261 DUP2 DUP4 PUSH1 0x80 ADD MLOAD PUSH1 0x0 DUP2 MLOAD DUP2 LT PUSH2 0x254 JUMPI PUSH2 0x253 PUSH2 0x1EFB JUMP JUMPDEST JUMPDEST PUSH1 0x20 MUL PUSH1 0x20 ADD ADD MLOAD PUSH2 0x1234 JUMP JUMPDEST SWAP1 POP PUSH2 0x2A7 DUP6 PUSH1 0x0 ADD MLOAD DUP7 PUSH1 0x20 ADD MLOAD PUSH2 0x279 DUP5 PUSH2 0x1301 JUMP JUMPDEST DUP6 PUSH1 0x40 ADD MLOAD PUSH2 0x28B DUP11 PUSH1 0x40 ADD MLOAD PUSH2 0x1301 JUMP JUMPDEST DUP8 PUSH1 0x60 ADD MLOAD PUSH2 0x29D DUP10 PUSH1 0x0 ADD MLOAD PUSH2 0x1301 JUMP JUMPDEST DUP10 PUSH1 0x20 ADD MLOAD PUSH2 0x13A6 JUMP JUMPDEST PUSH2 0x2B7 JUMPI PUSH1 0x1 SWAP4 POP POP POP POP PUSH2 0x2BF JUMP JUMPDEST PUSH1 0x0 SWAP4 POP POP POP POP JUMPDEST SWAP3 SWAP2 POP POP JUMP JUMPDEST PUSH2 0x2CD PUSH2 0x18CE JUMP JUMPDEST PUSH1 0x40 MLOAD DUP1 PUSH1 0x40 ADD PUSH1 0x40 MSTORE DUP1 PUSH32 0x1635D15567816B533B8489291DFA7369EEA8BFD26B1A5661D43B8FBA8534EF93 DUP2 MSTORE PUSH1 0x20 ADD PUSH32 0x2F8D32EC4A8DF92A5C58AE9A986B971ECC205FE221C30C1F270290A70A9102C8 DUP2 MSTORE POP DUP2 PUSH1 0x0 ADD DUP2 SWAP1 MSTORE POP PUSH1 0x40 MLOAD DUP1 PUSH1 0x40 ADD PUSH1 0x40 MSTORE DUP1 PUSH1 0x40 MLOAD DUP1 PUSH1 0x40 ADD PUSH1 0x40 MSTORE DUP1 PUSH32 0x1805CAA951180DEC37D759597459C1BFFB3A7ECDD50510F34D8DA841FCE78B0E DUP2 MSTORE PUSH1 0x20 ADD PUSH32 0x3D678FB93C8C15C209DC39869DED6FA699436FB5DC53A18D4ED5CC82EA056DB DUP2 MSTORE POP DUP2 MSTORE PUSH1 0x20 ADD PUSH1 0x40 MLOAD DUP1 PUSH1 0x40 ADD PUSH1 0x40 MSTORE DUP1 PUSH32 0x18BEA2F33B985E0A57141E38F3A822F2AA8014AE1108304EA2832BF8036AC0FA DUP2 MSTORE PUSH1 0x20 ADD PUSH32 0x5B60FA4FA9AC543642A610B35DE6731CDCA3DFA3BF02890116E83553BCBD653 DUP2 MSTORE POP DUP2 MSTORE POP DUP2 PUSH1 0x20 ADD DUP2 SWAP1 MSTORE POP PUSH1 0x40 MLOAD DUP1 PUSH1 0x40 ADD PUSH1 0x40 MSTORE DUP1 PUSH1 0x40 MLOAD DUP1 PUSH1 0x40 ADD PUSH1 0x40 MSTORE DUP1 PUSH32 0x1DD5F5A44A5BAD3BC6A081A9B003E0A5D4D4DA40F5385C442F12FBA3BE9C2235 DUP2 MSTORE PUSH1 0x20 ADD PUSH32 0x2FEB231FD70BAB785CDCF0D021F9D9E5AA536D9E34A552FE1EABA06955ACB7D2 DUP2 MSTORE POP DUP2 MSTORE PUSH1 0x20 ADD PUSH1 0x40 MLOAD DUP1 PUSH1 0x40 ADD PUSH1 0x40 MSTORE DUP1 PUSH32 0x199BF111819B97E857003A450206835758256EF87BCAD43740926CDACD01D88F DUP2 MSTORE PUSH1 0x20 ADD PUSH32 0xEF180B448760065B8171FE9E98FDECF28BAAEC92EF4A9F4C842D11481387BE8 DUP2 MSTORE POP DUP2 MSTORE POP DUP2 PUSH1 0x40 ADD DUP2 SWAP1 MSTORE POP PUSH1 0x40 MLOAD DUP1 PUSH1 0x40 ADD PUSH1 0x40 MSTORE DUP1 PUSH1 0x40 MLOAD DUP1 PUSH1 0x40 ADD PUSH1 0x40 MSTORE DUP1 PUSH32 0x1865833BB8D626EC55310F1F2AFA37BDD778EFE48C28F2045EFDA757672F11BA DUP2 MSTORE PUSH1 0x20 ADD PUSH31 0x939D7A1D5D9126CD182E681747529BDB15C0A9FC864E13A4E9862FB2FB784 DUP2 MSTORE POP DUP2 MSTORE PUSH1 0x20 ADD PUSH1 0x40 MLOAD DUP1 PUSH1 0x40 ADD PUSH1 0x40 MSTORE DUP1 PUSH32 0x178A3CB3C4B7177652321283BE8C4F2ABF6D1BDE78A09AF571768514BCCB795D DUP2 MSTORE PUSH1 0x20 ADD PUSH32 0x13A75EB6F0DCA762A71BF75B915AEE9C3EDC9F0842E2C4DE8A6C7337AB389D6F DUP2 MSTORE POP DUP2 MSTORE POP DUP2 PUSH1 0x60 ADD DUP2 SWAP1 MSTORE POP PUSH1 0x19 PUSH8 0xFFFFFFFFFFFFFFFF DUP2 GT ISZERO PUSH2 0x593 JUMPI PUSH2 0x592 PUSH2 0x1F2A JUMP JUMPDEST JUMPDEST PUSH1 0x40 MLOAD SWAP1 DUP1 DUP3 MSTORE DUP1 PUSH1 0x20 MUL PUSH1 0x20 ADD DUP3 ADD PUSH1 0x40 MSTORE DUP1 ISZERO PUSH2 0x5CC JUMPI DUP2 PUSH1 0x20 ADD JUMPDEST PUSH2 0x5B9 PUSH2 0x1915 JUMP JUMPDEST DUP2 MSTORE PUSH1 0x20 ADD SWAP1 PUSH1 0x1 SWAP1 SUB SWAP1 DUP2 PUSH2 0x5B1 JUMPI SWAP1 POP JUMPDEST POP DUP2 PUSH1 0x80 ADD DUP2 SWAP1 MSTORE POP PUSH1 0x40 MLOAD DUP1 PUSH1 0x40 ADD PUSH1 0x40 MSTORE DUP1 PUSH32 0x95AA9708537E0ACDB3ACB11E553515AD1F65F0001BF4BAB66DAC26F2453EA83 DUP2 MSTORE PUSH1 0x20 ADD PUSH32 0x1AB0E84D6B24F34F7EFC79DE9DDD6D80F9380DD8C0AA28C32E2F9F3854ED97FE DUP2 MSTORE POP DUP2 PUSH1 0x80 ADD MLOAD PUSH1 0x0 DUP2 MLOAD DUP2 LT PUSH2 0x642 JUMPI PUSH2 0x641 PUSH2 0x1EFB JUMP JUMPDEST JUMPDEST PUSH1 0x20 MUL PUSH1 0x20 ADD ADD DUP2 SWAP1 MSTORE POP PUSH1 0x40 MLOAD DUP1 PUSH1 0x40 ADD PUSH1 0x40 MSTORE DUP1 PUSH32 0x1DD56957F3368111456308041CC4C36D2328E47592BAC23BFF4B928D8F4840F7 DUP2 MSTORE PUSH1 0x20 ADD PUSH32 0x2727117161EA311AD1DFB6CBBDDBDB59BFC668DA582C3024C53564463F231F19 DUP2 MSTORE POP DUP2 PUSH1 0x80 ADD MLOAD PUSH1 0x1 DUP2 MLOAD DUP2 LT PUSH2 0x6BA JUMPI PUSH2 0x6B9 PUSH2 0x1EFB JUMP JUMPDEST JUMPDEST PUSH1 0x20 MUL PUSH1 0x20 ADD ADD DUP2 SWAP1 MSTORE POP PUSH1 0x40 MLOAD DUP1 PUSH1 0x40 ADD PUSH1 0x40 MSTORE DUP1 PUSH32 0xBD92C03010973077324FE3F7B336E7E35E904F71001CB137D725F9032FCFF7E DUP2 MSTORE PUSH1 0x20 ADD PUSH32 0x27E3D009CD396BAD72572BE54E443025E67968E4C4B6534BEC71131D44DBF855 DUP2 MSTORE POP DUP2 PUSH1 0x80 ADD MLOAD PUSH1 0x2 DUP2 MLOAD DUP2 LT PUSH2 0x732 JUMPI PUSH2 0x731 PUSH2 0x1EFB JUMP JUMPDEST JUMPDEST PUSH1 0x20 MUL PUSH1 0x20 ADD ADD DUP2 SWAP1 MSTORE POP PUSH1 0x40 MLOAD DUP1 PUSH1 0x40 ADD PUSH1 0x40 MSTORE DUP1 PUSH32 0x21BE2F81D87E60EBFC7C3D4E5045BE3150C19FAC919BC96935DCF5FA71EC317D DUP2 MSTORE PUSH1 0x20 ADD PUSH32 0xE2F428F967948026EE72A7C84F5FF2E192FD04F427B8249E4DD9F407EBEBFDA DUP2 MSTORE POP DUP2 PUSH1 0x80 ADD MLOAD PUSH1 0x3 DUP2 MLOAD DUP2 LT PUSH2 0x7AA JUMPI PUSH2 0x7A9 PUSH2 0x1EFB JUMP JUMPDEST JUMPDEST PUSH1 0x20 MUL PUSH1 0x20 ADD ADD DUP2 SWAP1 MSTORE POP PUSH1 0x40 MLOAD DUP1 PUSH1 0x40 ADD PUSH1 0x40 MSTORE DUP1 PUSH32 0x295EF3639515D0164396FF3CD09C05562A4F014BA4305FBCFCE9994BFE9E0353 DUP2 MSTORE PUSH1 0x20 ADD PUSH32 0x266A66FA705525272000825224EA26255B11488BF168A429B8C17A220BC30557 DUP2 MSTORE POP DUP2 PUSH1 0x80 ADD MLOAD PUSH1 0x4 DUP2 MLOAD DUP2 LT PUSH2 0x822 JUMPI PUSH2 0x821 PUSH2 0x1EFB JUMP JUMPDEST JUMPDEST PUSH1 0x20 MUL PUSH1 0x20 ADD ADD DUP2 SWAP1 MSTORE POP PUSH1 0x40 MLOAD DUP1 PUSH1 0x40 ADD PUSH1 0x40 MSTORE DUP1 PUSH31 0x6293BA7A0B33EA3D746C05654BE553BA0B4F2CFB66BBCD19B193B9751369D DUP2 MSTORE PUSH1 0x20 ADD PUSH32 0x14A074DD3543F4CCDD6537CA5C8EEBFB217060CA4E5AFEB0A7A09D9ECFC912EE DUP2 MSTORE POP DUP2 PUSH1 0x80 ADD MLOAD PUSH1 0x5 DUP2 MLOAD DUP2 LT PUSH2 0x899 JUMPI PUSH2 0x898 PUSH2 0x1EFB JUMP JUMPDEST JUMPDEST PUSH1 0x20 MUL PUSH1 0x20 ADD ADD DUP2 SWAP1 MSTORE POP PUSH1 0x40 MLOAD DUP1 PUSH1 0x40 ADD PUSH1 0x40 MSTORE DUP1 PUSH32 0x144AD0200273FA50774C9B9887163281953AA2AB259BE53288879F063DB3EB18 DUP2 MSTORE PUSH1 0x20 ADD PUSH32 0x206308BEAD896EB31342813E8E9312C5F13DD471C0A5605DE66F6F68BC0A4126 DUP2 MSTORE POP DUP2 PUSH1 0x80 ADD MLOAD PUSH1 0x6 DUP2 MLOAD DUP2 LT PUSH2 0x911 JUMPI PUSH2 0x910 PUSH2 0x1EFB JUMP JUMPDEST JUMPDEST PUSH1 0x20 MUL PUSH1 0x20 ADD ADD DUP2 SWAP1 MSTORE POP PUSH1 0x40 MLOAD DUP1 PUSH1 0x40 ADD PUSH1 0x40 MSTORE DUP1 PUSH32 0x866BCC288EDB38D7DCF46657225CECBBBB116D7C348584D74B4BDD46A511CB6 DUP2 MSTORE PUSH1 0x20 ADD PUSH32 0x23D60738EF43938ECEE267CE09786CF3D18BE5C361918704585DE32E15CA9E2D DUP2 MSTORE POP DUP2 PUSH1 0x80 ADD MLOAD PUSH1 0x7 DUP2 MLOAD DUP2 LT PUSH2 0x989 JUMPI PUSH2 0x988 PUSH2 0x1EFB JUMP JUMPDEST JUMPDEST PUSH1 0x20 MUL PUSH1 0x20 ADD ADD DUP2 SWAP1 MSTORE POP PUSH1 0x40 MLOAD DUP1 PUSH1 0x40 ADD PUSH1 0x40 MSTORE DUP1 PUSH32 0xB2F3BD45B06B0F39CDDB0365A8E2962AD9E266E7D718E62BE89B4F71CEF1012 DUP2 MSTORE PUSH1 0x20 ADD PUSH32 0x2271BA3AA61EB2C10D848935ABE4DE30DFD4290D8266D615921BC860A2A0ADCE DUP2 MSTORE POP DUP2 PUSH1 0x80 ADD MLOAD PUSH1 0x8 DUP2 MLOAD DUP2 LT PUSH2 0xA01 JUMPI PUSH2 0xA00 PUSH2 0x1EFB JUMP JUMPDEST JUMPDEST PUSH1 0x20 MUL PUSH1 0x20 ADD ADD DUP2 SWAP1 MSTORE POP PUSH1 0x40 MLOAD DUP1 PUSH1 0x40 ADD PUSH1 0x40 MSTORE DUP1 PUSH32 0x23FB3311C76F76D0F26729DBCA3DF5E83AE561D2178E6D65497C816FC502E66B DUP2 MSTORE PUSH1 0x20 ADD PUSH32 0x1F9762A3514BAE45EA18AE195D96D06726E5B13CA98911675D65BAA81F13378 DUP2 MSTORE POP DUP2 PUSH1 0x80 ADD MLOAD PUSH1 0x9 DUP2 MLOAD DUP2 LT PUSH2 0xA79 JUMPI PUSH2 0xA78 PUSH2 0x1EFB JUMP JUMPDEST JUMPDEST PUSH1 0x20 MUL PUSH1 0x20 ADD ADD DUP2 SWAP1 MSTORE POP PUSH1 0x40 MLOAD DUP1 PUSH1 0x40 ADD PUSH1 0x40 MSTORE DUP1 PUSH32 0x277C7AC0CEB263BC9A3D014D38A6000AAA1C42315530DB9E61FD39AF8CBFD92B DUP2 MSTORE PUSH1 0x20 ADD PUSH32 0x3C17ECBB1F7F2526AB2B29928B9B88E46934DF6F584EFC5F6ABBA40250F9744 DUP2 MSTORE POP DUP2 PUSH1 0x80 ADD MLOAD PUSH1 0xA DUP2 MLOAD DUP2 LT PUSH2 0xAF1 JUMPI PUSH2 0xAF0 PUSH2 0x1EFB JUMP JUMPDEST JUMPDEST PUSH1 0x20 MUL PUSH1 0x20 ADD ADD DUP2 SWAP1 MSTORE POP PUSH1 0x40 MLOAD DUP1 PUSH1 0x40 ADD PUSH1 0x40 MSTORE DUP1 PUSH32 0x2C98470CB570E485C786AF848696DA00486AA0CF3420215C1B7D4ABD50592860 DUP2 MSTORE PUSH1 0x20 ADD PUSH32 0x1FDEC81895854C21729F47CC08A2A6DD6A791A99002DA4139AEFB53CCA209D8F DUP2 MSTORE POP DUP2 PUSH1 0x80 ADD MLOAD PUSH1 0xB DUP2 MLOAD DUP2 LT PUSH2 0xB69 JUMPI PUSH2 0xB68 PUSH2 0x1EFB JUMP JUMPDEST JUMPDEST PUSH1 0x20 MUL PUSH1 0x20 ADD ADD DUP2 SWAP1 MSTORE POP PUSH1 0x40 MLOAD DUP1 PUSH1 0x40 ADD PUSH1 0x40 MSTORE DUP1 PUSH32 0x25A81739A99C738161A6210EEDAB854A741CC0495F7EC2C677367CE3D3E868A8 DUP2 MSTORE PUSH1 0x20 ADD PUSH32 0xD930F83E7260AB863230504290CC7D5FC0D8A1F07B7DF347112D72BBE9437A8 DUP2 MSTORE POP DUP2 PUSH1 0x80 ADD MLOAD PUSH1 0xC DUP2 MLOAD DUP2 LT PUSH2 0xBE1 JUMPI PUSH2 0xBE0 PUSH2 0x1EFB JUMP JUMPDEST JUMPDEST PUSH1 0x20 MUL PUSH1 0x20 ADD ADD DUP2 SWAP1 MSTORE POP PUSH1 0x40 MLOAD DUP1 PUSH1 0x40 ADD PUSH1 0x40 MSTORE DUP1 PUSH32 0x7386E63AB5C69A165A8B0EB0B24988E88A1DAD8191B324A458E053AD90452B3 DUP2 MSTORE PUSH1 0x20 ADD PUSH32 0x25460F55DB0D23AC0C824F23C61DFB42CBD4D9F4A3CBF0F912CC9434AFC00123 DUP2 MSTORE POP DUP2 PUSH1 0x80 ADD MLOAD PUSH1 0xD DUP2 MLOAD DUP2 LT PUSH2 0xC59 JUMPI PUSH2 0xC58 PUSH2 0x1EFB JUMP JUMPDEST JUMPDEST PUSH1 0x20 MUL PUSH1 0x20 ADD ADD DUP2 SWAP1 MSTORE POP PUSH1 0x40 MLOAD DUP1 PUSH1 0x40 ADD PUSH1 0x40 MSTORE DUP1 PUSH32 0x274482C081CDCFEA7F907EEB48A54589EF7A3C2F1F5D6B14B2079FC42019851D DUP2 MSTORE PUSH1 0x20 ADD PUSH32 0x2D3269EB78A6C30707D86790BC9118C6D73E8665C6426AAE55118D4BDF1D5141 DUP2 MSTORE POP DUP2 PUSH1 0x80 ADD MLOAD PUSH1 0xE DUP2 MLOAD DUP2 LT PUSH2 0xCD1 JUMPI PUSH2 0xCD0 PUSH2 0x1EFB JUMP JUMPDEST JUMPDEST PUSH1 0x20 MUL PUSH1 0x20 ADD ADD DUP2 SWAP1 MSTORE POP PUSH1 0x40 MLOAD DUP1 PUSH1 0x40 ADD PUSH1 0x40 MSTORE DUP1 PUSH32 0x2A902536485F315F958E1F58428595D9547E508A44FE4EAE4D88490F7B6F4935 DUP2 MSTORE PUSH1 0x20 ADD PUSH32 0x2467C22389A6F730256F13EF9C36FEFAFFD5F62E59883253BA7E454F203BB1BA DUP2 MSTORE POP DUP2 PUSH1 0x80 ADD MLOAD PUSH1 0xF DUP2 MLOAD DUP2 LT PUSH2 0xD49 JUMPI PUSH2 0xD48 PUSH2 0x1EFB JUMP JUMPDEST JUMPDEST PUSH1 0x20 MUL PUSH1 0x20 ADD ADD DUP2 SWAP1 MSTORE POP PUSH1 0x40 MLOAD DUP1 PUSH1 0x40 ADD PUSH1 0x40 MSTORE DUP1 PUSH32 0x14629FF0A8B89BD71C2F6A563BF7C970DDAE1B321A9C7A166244C04530D6B3AA DUP2 MSTORE PUSH1 0x20 ADD PUSH32 0x12C6F2E374E57DF351930C8AF85080F88AAF982FAE8462F566FF130FEF03FB4B DUP2 MSTORE POP DUP2 PUSH1 0x80 ADD MLOAD PUSH1 0x10 DUP2 MLOAD DUP2 LT PUSH2 0xDC1 JUMPI PUSH2 0xDC0 PUSH2 0x1EFB JUMP JUMPDEST JUMPDEST PUSH1 0x20 MUL PUSH1 0x20 ADD ADD DUP2 SWAP1 MSTORE POP PUSH1 0x40 MLOAD DUP1 PUSH1 0x40 ADD PUSH1 0x40 MSTORE DUP1 PUSH32 0x26FB68FABEDEE09DD650447C8ED9A1FACD2CA6C64D7CE4739F9AD24E3681A950 DUP2 MSTORE PUSH1 0x20 ADD PUSH32 0x1451295DC567532A2FAAEF99FEA2D36CD0783EE3BAB10EF347B04144C56AA1D6 DUP2 MSTORE POP DUP2 PUSH1 0x80 ADD MLOAD PUSH1 0x11 DUP2 MLOAD DUP2 LT PUSH2 0xE39 JUMPI PUSH2 0xE38 PUSH2 0x1EFB JUMP JUMPDEST JUMPDEST PUSH1 0x20 MUL PUSH1 0x20 ADD ADD DUP2 SWAP1 MSTORE POP PUSH1 0x40 MLOAD DUP1 PUSH1 0x40 ADD PUSH1 0x40 MSTORE DUP1 PUSH32 0x170EF8B963AD4003AE5FAB8F63A3498019996CB7E95ABFC8BD02E146535ACC00 DUP2 MSTORE PUSH1 0x20 ADD PUSH31 0xC1AED28BA067B3D985DE0738BE5D6062AC05E671C096DD545B49509521EC16 DUP2 MSTORE POP DUP2 PUSH1 0x80 ADD MLOAD PUSH1 0x12 DUP2 MLOAD DUP2 LT PUSH2 0xEB0 JUMPI PUSH2 0xEAF PUSH2 0x1EFB JUMP JUMPDEST JUMPDEST PUSH1 0x20 MUL PUSH1 0x20 ADD ADD DUP2 SWAP1 MSTORE POP PUSH1 0x40 MLOAD DUP1 PUSH1 0x40 ADD PUSH1 0x40 MSTORE DUP1 PUSH32 0x195F188845ACE50740D4E5D790923101F03DE4C87B72F2EF9C13EC43CAEA1C42 DUP2 MSTORE PUSH1 0x20 ADD PUSH32 0x1BE80B0A4B27CAA95E1F4E05F1EED590581DF670510951C7D53C740A78AEA711 DUP2 MSTORE POP DUP2 PUSH1 0x80 ADD MLOAD PUSH1 0x13 DUP2 MLOAD DUP2 LT PUSH2 0xF28 JUMPI PUSH2 0xF27 PUSH2 0x1EFB JUMP JUMPDEST JUMPDEST PUSH1 0x20 MUL PUSH1 0x20 ADD ADD DUP2 SWAP1 MSTORE POP PUSH1 0x40 MLOAD DUP1 PUSH1 0x40 ADD PUSH1 0x40 MSTORE DUP1 PUSH32 0x1DFAEF7D1D60D28F24B48FDCF3E2002E60BD6A912A814CCA9A0F50716FD763A4 DUP2 MSTORE PUSH1 0x20 ADD PUSH32 0x2710D6B35BC5A842E5E0A66328FB88D23DD81F1D857223B86E57A1D4028AC224 DUP2 MSTORE POP DUP2 PUSH1 0x80 ADD MLOAD PUSH1 0x14 DUP2 MLOAD DUP2 LT PUSH2 0xFA0 JUMPI PUSH2 0xF9F PUSH2 0x1EFB JUMP JUMPDEST JUMPDEST PUSH1 0x20 MUL PUSH1 0x20 ADD ADD DUP2 SWAP1 MSTORE POP PUSH1 0x40 MLOAD DUP1 PUSH1 0x40 ADD PUSH1 0x40 MSTORE DUP1 PUSH32 0x29CB27EFCCA93C2AC44427CC8A10B06DC8EDF7C9D5D093A81111D303A3077D5A DUP2 MSTORE PUSH1 0x20 ADD PUSH32 0x20B0649741427F3C0888A7790B93F647FE16CB356D05E7E1B32C7A8191EA7166 DUP2 MSTORE POP DUP2 PUSH1 0x80 ADD MLOAD PUSH1 0x15 DUP2 MLOAD DUP2 LT PUSH2 0x1018 JUMPI PUSH2 0x1017 PUSH2 0x1EFB JUMP JUMPDEST JUMPDEST PUSH1 0x20 MUL PUSH1 0x20 ADD ADD DUP2 SWAP1 MSTORE POP PUSH1 0x40 MLOAD DUP1 PUSH1 0x40 ADD PUSH1 0x40 MSTORE DUP1 PUSH32 0x31C3EDB5BEBCE3517BD14A98D56A194BBE4E61EFD4B25316A2BB768488FECB6 DUP2 MSTORE PUSH1 0x20 ADD PUSH31 0x9CF640CC8EC2E09513EE64FE8602A365E040D2ADC40BE06D3130F63D00DC67 DUP2 MSTORE POP DUP2 PUSH1 0x80 ADD MLOAD PUSH1 0x16 DUP2 MLOAD DUP2 LT PUSH2 0x108F JUMPI PUSH2 0x108E PUSH2 0x1EFB JUMP JUMPDEST JUMPDEST PUSH1 0x20 MUL PUSH1 0x20 ADD ADD DUP2 SWAP1 MSTORE POP PUSH1 0x40 MLOAD DUP1 PUSH1 0x40 ADD PUSH1 0x40 MSTORE DUP1 PUSH32 0xFC00F16735E56E0E1EEEE6AA1AC226A8E88F89F7F7139F5291693E13DA95CAC DUP2 MSTORE PUSH1 0x20 ADD PUSH32 0x2499B80BD4F366C83F2B4DA3E013700A00D1CA70649256B5D65F39AD4C4C5DB4 DUP2 MSTORE POP DUP2 PUSH1 0x80 ADD MLOAD PUSH1 0x17 DUP2 MLOAD DUP2 LT PUSH2 0x1107 JUMPI PUSH2 0x1106 PUSH2 0x1EFB JUMP JUMPDEST JUMPDEST PUSH1 0x20 MUL PUSH1 0x20 ADD ADD DUP2 SWAP1 MSTORE POP PUSH1 0x40 MLOAD DUP1 PUSH1 0x40 ADD PUSH1 0x40 MSTORE DUP1 PUSH32 0x1EDF8272BDDACDEA24C9ED9829C4ECE615C87BDE3E8A387FAAA3F559F036FB8E DUP2 MSTORE PUSH1 0x20 ADD PUSH32 0x21601E76E5F68D65EAD089C6A6ECC2605416263352D2EA5FB9EF15BA239B02BE DUP2 MSTORE POP DUP2 PUSH1 0x80 ADD MLOAD PUSH1 0x18 DUP2 MLOAD DUP2 LT PUSH2 0x117F JUMPI PUSH2 0x117E PUSH2 0x1EFB JUMP JUMPDEST JUMPDEST PUSH1 0x20 MUL PUSH1 0x20 ADD ADD DUP2 SWAP1 MSTORE POP SWAP1 JUMP JUMPDEST PUSH2 0x1195 PUSH2 0x1915 JUMP JUMPDEST PUSH2 0x119D PUSH2 0x192F JUMP JUMPDEST DUP4 PUSH1 0x0 ADD MLOAD DUP2 PUSH1 0x0 PUSH1 0x3 DUP2 LT PUSH2 0x11B6 JUMPI PUSH2 0x11B5 PUSH2 0x1EFB JUMP JUMPDEST JUMPDEST PUSH1 0x20 MUL ADD DUP2 DUP2 MSTORE POP POP DUP4 PUSH1 0x20 ADD MLOAD DUP2 PUSH1 0x1 PUSH1 0x3 DUP2 LT PUSH2 0x11D8 JUMPI PUSH2 0x11D7 PUSH2 0x1EFB JUMP JUMPDEST JUMPDEST PUSH1 0x20 MUL ADD DUP2 DUP2 MSTORE POP POP DUP3 DUP2 PUSH1 0x2 PUSH1 0x3 DUP2 LT PUSH2 0x11F6 JUMPI PUSH2 0x11F5 PUSH2 0x1EFB JUMP JUMPDEST JUMPDEST PUSH1 0x20 MUL ADD DUP2 DUP2 MSTORE POP POP PUSH1 0x0 PUSH1 0x60 DUP4 PUSH1 0x80 DUP5 PUSH1 0x7 PUSH2 0x7D0 GAS SUB STATICCALL SWAP1 POP DUP1 PUSH1 0x0 DUP2 EQ PUSH2 0x121F JUMPI PUSH2 0x1221 JUMP JUMPDEST INVALID JUMPDEST POP DUP1 PUSH2 0x122C JUMPI PUSH1 0x0 DUP1 REVERT JUMPDEST POP POP SWAP3 SWAP2 POP POP JUMP JUMPDEST PUSH2 0x123C PUSH2 0x1915 JUMP JUMPDEST PUSH2 0x1244 PUSH2 0x1951 JUMP JUMPDEST DUP4 PUSH1 0x0 ADD MLOAD DUP2 PUSH1 0x0 PUSH1 0x4 DUP2 LT PUSH2 0x125D JUMPI PUSH2 0x125C PUSH2 0x1EFB JUMP JUMPDEST JUMPDEST PUSH1 0x20 MUL ADD DUP2 DUP2 MSTORE POP POP DUP4 PUSH1 0x20 ADD MLOAD DUP2 PUSH1 0x1 PUSH1 0x4 DUP2 LT PUSH2 0x127F JUMPI PUSH2 0x127E PUSH2 0x1EFB JUMP JUMPDEST JUMPDEST PUSH1 0x20 MUL ADD DUP2 DUP2 MSTORE POP POP DUP3 PUSH1 0x0 ADD MLOAD DUP2 PUSH1 0x2 PUSH1 0x4 DUP2 LT PUSH2 0x12A1 JUMPI PUSH2 0x12A0 PUSH2 0x1EFB JUMP JUMPDEST JUMPDEST PUSH1 0x20 MUL ADD DUP2 DUP2 MSTORE POP POP DUP3 PUSH1 0x20 ADD MLOAD DUP2 PUSH1 0x3 PUSH1 0x4 DUP2 LT PUSH2 0x12C3 JUMPI PUSH2 0x12C2 PUSH2 0x1EFB JUMP JUMPDEST JUMPDEST PUSH1 0x20 MUL ADD DUP2 DUP2 MSTORE POP POP PUSH1 0x0 PUSH1 0x60 DUP4 PUSH1 0xC0 DUP5 PUSH1 0x6 PUSH2 0x7D0 GAS SUB STATICCALL SWAP1 POP DUP1 PUSH1 0x0 DUP2 EQ PUSH2 0x12EC JUMPI PUSH2 0x12EE JUMP JUMPDEST INVALID JUMPDEST POP DUP1 PUSH2 0x12F9 JUMPI PUSH1 0x0 DUP1 REVERT JUMPDEST POP POP SWAP3 SWAP2 POP POP JUMP JUMPDEST PUSH2 0x1309 PUSH2 0x1915 JUMP JUMPDEST PUSH1 0x0 PUSH32 0x30644E72E131A029B85045B68181585D97816A916871CA8D3C208C16D87CFD47 SWAP1 POP PUSH1 0x0 DUP4 PUSH1 0x0 ADD MLOAD EQ DUP1 ISZERO PUSH2 0x1346 JUMPI POP PUSH1 0x0 DUP4 PUSH1 0x20 ADD MLOAD EQ JUMPDEST ISZERO PUSH2 0x136A JUMPI PUSH1 0x40 MLOAD DUP1 PUSH1 0x40 ADD PUSH1 0x40 MSTORE DUP1 PUSH1 0x0 DUP2 MSTORE PUSH1 0x20 ADD PUSH1 0x0 DUP2 MSTORE POP SWAP2 POP POP PUSH2 0x13A1 JUMP JUMPDEST PUSH1 0x40 MLOAD DUP1 PUSH1 0x40 ADD PUSH1 0x40 MSTORE DUP1 DUP5 PUSH1 0x0 ADD MLOAD DUP2 MSTORE PUSH1 0x20 ADD DUP3 DUP6 PUSH1 0x20 ADD MLOAD PUSH2 0x138F SWAP2 SWAP1 PUSH2 0x1E6C JUMP JUMPDEST DUP4 PUSH2 0x139A SWAP2 SWAP1 PUSH2 0x1DA8 JUMP JUMPDEST DUP2 MSTORE POP SWAP2 POP POP JUMPDEST SWAP2 SWAP1 POP JUMP JUMPDEST PUSH1 0x0 DUP1 PUSH1 0x4 PUSH8 0xFFFFFFFFFFFFFFFF DUP2 GT ISZERO PUSH2 0x13C4 JUMPI PUSH2 0x13C3 PUSH2 0x1F2A JUMP JUMPDEST JUMPDEST PUSH1 0x40 MLOAD SWAP1 DUP1 DUP3 MSTORE DUP1 PUSH1 0x20 MUL PUSH1 0x20 ADD DUP3 ADD PUSH1 0x40 MSTORE DUP1 ISZERO PUSH2 0x13FD JUMPI DUP2 PUSH1 0x20 ADD JUMPDEST PUSH2 0x13EA PUSH2 0x1915 JUMP JUMPDEST DUP2 MSTORE PUSH1 0x20 ADD SWAP1 PUSH1 0x1 SWAP1 SUB SWAP1 DUP2 PUSH2 0x13E2 JUMPI SWAP1 POP JUMPDEST POP SWAP1 POP PUSH1 0x0 PUSH1 0x4 PUSH8 0xFFFFFFFFFFFFFFFF DUP2 GT ISZERO PUSH2 0x141D JUMPI PUSH2 0x141C PUSH2 0x1F2A JUMP JUMPDEST JUMPDEST PUSH1 0x40 MLOAD SWAP1 DUP1 DUP3 MSTORE DUP1 PUSH1 0x20 MUL PUSH1 0x20 ADD DUP3 ADD PUSH1 0x40 MSTORE DUP1 ISZERO PUSH2 0x1456 JUMPI DUP2 PUSH1 0x20 ADD JUMPDEST PUSH2 0x1443 PUSH2 0x1973 JUMP JUMPDEST DUP2 MSTORE PUSH1 0x20 ADD SWAP1 PUSH1 0x1 SWAP1 SUB SWAP1 DUP2 PUSH2 0x143B JUMPI SWAP1 POP JUMPDEST POP SWAP1 POP DUP11 DUP3 PUSH1 0x0 DUP2 MLOAD DUP2 LT PUSH2 0x146E JUMPI PUSH2 0x146D PUSH2 0x1EFB JUMP JUMPDEST JUMPDEST PUSH1 0x20 MUL PUSH1 0x20 ADD ADD DUP2 SWAP1 MSTORE POP DUP9 DUP3 PUSH1 0x1 DUP2 MLOAD DUP2 LT PUSH2 0x148E JUMPI PUSH2 0x148D PUSH2 0x1EFB JUMP JUMPDEST JUMPDEST PUSH1 0x20 MUL PUSH1 0x20 ADD ADD DUP2 SWAP1 MSTORE POP DUP7 DUP3 PUSH1 0x2 DUP2 MLOAD DUP2 LT PUSH2 0x14AE JUMPI PUSH2 0x14AD PUSH2 0x1EFB JUMP JUMPDEST JUMPDEST PUSH1 0x20 MUL PUSH1 0x20 ADD ADD DUP2 SWAP1 MSTORE POP DUP5 DUP3 PUSH1 0x3 DUP2 MLOAD DUP2 LT PUSH2 0x14CE JUMPI PUSH2 0x14CD PUSH2 0x1EFB JUMP JUMPDEST JUMPDEST PUSH1 0x20 MUL PUSH1 0x20 ADD ADD DUP2 SWAP1 MSTORE POP DUP10 DUP2 PUSH1 0x0 DUP2 MLOAD DUP2 LT PUSH2 0x14EE JUMPI PUSH2 0x14ED PUSH2 0x1EFB JUMP JUMPDEST JUMPDEST PUSH1 0x20 MUL PUSH1 0x20 ADD ADD DUP2 SWAP1 MSTORE POP DUP8 DUP2 PUSH1 0x1 DUP2 MLOAD DUP2 LT PUSH2 0x150E JUMPI PUSH2 0x150D PUSH2 0x1EFB JUMP JUMPDEST JUMPDEST PUSH1 0x20 MUL PUSH1 0x20 ADD ADD DUP2 SWAP1 MSTORE POP DUP6 DUP2 PUSH1 0x2 DUP2 MLOAD DUP2 LT PUSH2 0x152E JUMPI PUSH2 0x152D PUSH2 0x1EFB JUMP JUMPDEST JUMPDEST PUSH1 0x20 MUL PUSH1 0x20 ADD ADD DUP2 SWAP1 MSTORE POP DUP4 DUP2 PUSH1 0x3 DUP2 MLOAD DUP2 LT PUSH2 0x154E JUMPI PUSH2 0x154D PUSH2 0x1EFB JUMP JUMPDEST JUMPDEST PUSH1 0x20 MUL PUSH1 0x20 ADD ADD DUP2 SWAP1 MSTORE POP PUSH2 0x1563 DUP3 DUP3 PUSH2 0x1573 JUMP JUMPDEST SWAP3 POP POP POP SWAP9 SWAP8 POP POP POP POP POP POP POP POP JUMP JUMPDEST PUSH1 0x0 DUP2 MLOAD DUP4 MLOAD EQ PUSH2 0x1583 JUMPI PUSH1 0x0 DUP1 REVERT JUMPDEST PUSH1 0x0 DUP4 MLOAD SWAP1 POP PUSH1 0x0 PUSH1 0x6 DUP3 PUSH2 0x1598 SWAP2 SWAP1 PUSH2 0x1D4E JUMP JUMPDEST SWAP1 POP PUSH1 0x0 DUP2 PUSH8 0xFFFFFFFFFFFFFFFF DUP2 GT ISZERO PUSH2 0x15B6 JUMPI PUSH2 0x15B5 PUSH2 0x1F2A JUMP JUMPDEST JUMPDEST PUSH1 0x40 MLOAD SWAP1 DUP1 DUP3 MSTORE DUP1 PUSH1 0x20 MUL PUSH1 0x20 ADD DUP3 ADD PUSH1 0x40 MSTORE DUP1 ISZERO PUSH2 0x15E4 JUMPI DUP2 PUSH1 0x20 ADD PUSH1 0x20 DUP3 MUL DUP1 CALLDATASIZE DUP4 CALLDATACOPY DUP1 DUP3 ADD SWAP2 POP POP SWAP1 POP JUMPDEST POP SWAP1 POP PUSH1 0x0 JUMPDEST DUP4 DUP2 LT ISZERO PUSH2 0x1869 JUMPI DUP7 DUP2 DUP2 MLOAD DUP2 LT PUSH2 0x1605 JUMPI PUSH2 0x1604 PUSH2 0x1EFB JUMP JUMPDEST JUMPDEST PUSH1 0x20 MUL PUSH1 0x20 ADD ADD MLOAD PUSH1 0x0 ADD MLOAD DUP3 PUSH1 0x0 PUSH1 0x6 DUP5 PUSH2 0x1621 SWAP2 SWAP1 PUSH2 0x1D4E JUMP JUMPDEST PUSH2 0x162B SWAP2 SWAP1 PUSH2 0x1CF8 JUMP JUMPDEST DUP2 MLOAD DUP2 LT PUSH2 0x163C JUMPI PUSH2 0x163B PUSH2 0x1EFB JUMP JUMPDEST JUMPDEST PUSH1 0x20 MUL PUSH1 0x20 ADD ADD DUP2 DUP2 MSTORE POP POP DUP7 DUP2 DUP2 MLOAD DUP2 LT PUSH2 0x165B JUMPI PUSH2 0x165A PUSH2 0x1EFB JUMP JUMPDEST JUMPDEST PUSH1 0x20 MUL PUSH1 0x20 ADD ADD MLOAD PUSH1 0x20 ADD MLOAD DUP3 PUSH1 0x1 PUSH1 0x6 DUP5 PUSH2 0x1677 SWAP2 SWAP1 PUSH2 0x1D4E JUMP JUMPDEST PUSH2 0x1681 SWAP2 SWAP1 PUSH2 0x1CF8 JUMP JUMPDEST DUP2 MLOAD DUP2 LT PUSH2 0x1692 JUMPI PUSH2 0x1691 PUSH2 0x1EFB JUMP JUMPDEST JUMPDEST PUSH1 0x20 MUL PUSH1 0x20 ADD ADD DUP2 DUP2 MSTORE POP POP DUP6 DUP2 DUP2 MLOAD DUP2 LT PUSH2 0x16B1 JUMPI PUSH2 0x16B0 PUSH2 0x1EFB JUMP JUMPDEST JUMPDEST PUSH1 0x20 MUL PUSH1 0x20 ADD ADD MLOAD PUSH1 0x0 ADD MLOAD PUSH1 0x1 PUSH1 0x2 DUP2 LT PUSH2 0x16D0 JUMPI PUSH2 0x16CF PUSH2 0x1EFB JUMP JUMPDEST JUMPDEST PUSH1 0x20 MUL ADD MLOAD DUP3 PUSH1 0x2 PUSH1 0x6 DUP5 PUSH2 0x16E5 SWAP2 SWAP1 PUSH2 0x1D4E JUMP JUMPDEST PUSH2 0x16EF SWAP2 SWAP1 PUSH2 0x1CF8 JUMP JUMPDEST DUP2 MLOAD DUP2 LT PUSH2 0x1700 JUMPI PUSH2 0x16FF PUSH2 0x1EFB JUMP JUMPDEST JUMPDEST PUSH1 0x20 MUL PUSH1 0x20 ADD ADD DUP2 DUP2 MSTORE POP POP DUP6 DUP2 DUP2 MLOAD DUP2 LT PUSH2 0x171F JUMPI PUSH2 0x171E PUSH2 0x1EFB JUMP JUMPDEST JUMPDEST PUSH1 0x20 MUL PUSH1 0x20 ADD ADD MLOAD PUSH1 0x0 ADD MLOAD PUSH1 0x0 PUSH1 0x2 DUP2 LT PUSH2 0x173E JUMPI PUSH2 0x173D PUSH2 0x1EFB JUMP JUMPDEST JUMPDEST PUSH1 0x20 MUL ADD MLOAD DUP3 PUSH1 0x3 PUSH1 0x6 DUP5 PUSH2 0x1753 SWAP2 SWAP1 PUSH2 0x1D4E JUMP JUMPDEST PUSH2 0x175D SWAP2 SWAP1 PUSH2 0x1CF8 JUMP JUMPDEST DUP2 MLOAD DUP2 LT PUSH2 0x176E JUMPI PUSH2 0x176D PUSH2 0x1EFB JUMP JUMPDEST JUMPDEST PUSH1 0x20 MUL PUSH1 0x20 ADD ADD DUP2 DUP2 MSTORE POP POP DUP6 DUP2 DUP2 MLOAD DUP2 LT PUSH2 0x178D JUMPI PUSH2 0x178C PUSH2 0x1EFB JUMP JUMPDEST JUMPDEST PUSH1 0x20 MUL PUSH1 0x20 ADD ADD MLOAD PUSH1 0x20 ADD MLOAD PUSH1 0x1 PUSH1 0x2 DUP2 LT PUSH2 0x17AC JUMPI PUSH2 0x17AB PUSH2 0x1EFB JUMP JUMPDEST JUMPDEST PUSH1 0x20 MUL ADD MLOAD DUP3 PUSH1 0x4 PUSH1 0x6 DUP5 PUSH2 0x17C1 SWAP2 SWAP1 PUSH2 0x1D4E JUMP JUMPDEST PUSH2 0x17CB SWAP2 SWAP1 PUSH2 0x1CF8 JUMP JUMPDEST DUP2 MLOAD DUP2 LT PUSH2 0x17DC JUMPI PUSH2 0x17DB PUSH2 0x1EFB JUMP JUMPDEST JUMPDEST PUSH1 0x20 MUL PUSH1 0x20 ADD ADD DUP2 DUP2 MSTORE POP POP DUP6 DUP2 DUP2 MLOAD DUP2 LT PUSH2 0x17FB JUMPI PUSH2 0x17FA PUSH2 0x1EFB JUMP JUMPDEST JUMPDEST PUSH1 0x20 MUL PUSH1 0x20 ADD ADD MLOAD PUSH1 0x20 ADD MLOAD PUSH1 0x0 PUSH1 0x2 DUP2 LT PUSH2 0x181A JUMPI PUSH2 0x1819 PUSH2 0x1EFB JUMP JUMPDEST JUMPDEST PUSH1 0x20 MUL ADD MLOAD DUP3 PUSH1 0x5 PUSH1 0x6 DUP5 PUSH2 0x182F SWAP2 SWAP1 PUSH2 0x1D4E JUMP JUMPDEST PUSH2 0x1839 SWAP2 SWAP1 PUSH2 0x1CF8 JUMP JUMPDEST DUP2 MLOAD DUP2 LT PUSH2 0x184A JUMPI PUSH2 0x1849 PUSH2 0x1EFB JUMP JUMPDEST JUMPDEST PUSH1 0x20 MUL PUSH1 0x20 ADD ADD DUP2 DUP2 MSTORE POP POP DUP1 DUP1 PUSH2 0x1861 SWAP1 PUSH2 0x1E23 JUMP JUMPDEST SWAP2 POP POP PUSH2 0x15EA JUMP JUMPDEST POP PUSH2 0x1872 PUSH2 0x1999 JUMP JUMPDEST PUSH1 0x0 PUSH1 0x20 DUP3 PUSH1 0x20 DUP7 MUL PUSH1 0x20 DUP7 ADD PUSH1 0x8 PUSH2 0x7D0 GAS SUB STATICCALL SWAP1 POP DUP1 PUSH1 0x0 DUP2 EQ PUSH2 0x1897 JUMPI PUSH2 0x1899 JUMP JUMPDEST INVALID JUMPDEST POP DUP1 PUSH2 0x18A4 JUMPI PUSH1 0x0 DUP1 REVERT JUMPDEST PUSH1 0x0 DUP3 PUSH1 0x0 PUSH1 0x1 DUP2 LT PUSH2 0x18BA JUMPI PUSH2 0x18B9 PUSH2 0x1EFB JUMP JUMPDEST JUMPDEST PUSH1 0x20 MUL ADD MLOAD EQ ISZERO SWAP6 POP POP POP POP POP POP SWAP3 SWAP2 POP POP JUMP JUMPDEST PUSH1 0x40 MLOAD DUP1 PUSH1 0xA0 ADD PUSH1 0x40 MSTORE DUP1 PUSH2 0x18E1 PUSH2 0x1915 JUMP JUMPDEST DUP2 MSTORE PUSH1 0x20 ADD PUSH2 0x18EE PUSH2 0x1973 JUMP JUMPDEST DUP2 MSTORE PUSH1 0x20 ADD PUSH2 0x18FB PUSH2 0x1973 JUMP JUMPDEST DUP2 MSTORE PUSH1 0x20 ADD PUSH2 0x1908 PUSH2 0x1973 JUMP JUMPDEST DUP2 MSTORE PUSH1 0x20 ADD PUSH1 0x60 DUP2 MSTORE POP SWAP1 JUMP JUMPDEST PUSH1 0x40 MLOAD DUP1 PUSH1 0x40 ADD PUSH1 0x40 MSTORE DUP1 PUSH1 0x0 DUP2 MSTORE PUSH1 0x20 ADD PUSH1 0x0 DUP2 MSTORE POP SWAP1 JUMP JUMPDEST PUSH1 0x40 MLOAD DUP1 PUSH1 0x60 ADD PUSH1 0x40 MSTORE DUP1 PUSH1 0x3 SWAP1 PUSH1 0x20 DUP3 MUL DUP1 CALLDATASIZE DUP4 CALLDATACOPY DUP1 DUP3 ADD SWAP2 POP POP SWAP1 POP POP SWAP1 JUMP JUMPDEST PUSH1 0x40 MLOAD DUP1 PUSH1 0x80 ADD PUSH1 0x40 MSTORE DUP1 PUSH1 0x4 SWAP1 PUSH1 0x20 DUP3 MUL DUP1 CALLDATASIZE DUP4 CALLDATACOPY DUP1 DUP3 ADD SWAP2 POP POP SWAP1 POP POP SWAP1 JUMP JUMPDEST PUSH1 0x40 MLOAD DUP1 PUSH1 0x40 ADD PUSH1 0x40 MSTORE DUP1 PUSH2 0x1986 PUSH2 0x19BB JUMP JUMPDEST DUP2 MSTORE PUSH1 0x20 ADD PUSH2 0x1993 PUSH2 0x19BB JUMP JUMPDEST DUP2 MSTORE POP SWAP1 JUMP JUMPDEST PUSH1 0x40 MLOAD DUP1 PUSH1 0x20 ADD PUSH1 0x40 MSTORE DUP1 PUSH1 0x1 SWAP1 PUSH1 0x20 DUP3 MUL DUP1 CALLDATASIZE DUP4 CALLDATACOPY DUP1 DUP3 ADD SWAP2 POP POP SWAP1 POP POP SWAP1 JUMP JUMPDEST PUSH1 0x40 MLOAD DUP1 PUSH1 0x40 ADD PUSH1 0x40 MSTORE DUP1 PUSH1 0x2 SWAP1 PUSH1 0x20 DUP3 MUL DUP1 CALLDATASIZE DUP4 CALLDATACOPY DUP1 DUP3 ADD SWAP2 POP POP SWAP1 POP POP SWAP1 JUMP JUMPDEST PUSH1 0x0 PUSH2 0x19F0 PUSH2 0x19EB DUP5 PUSH2 0x1CAC JUMP JUMPDEST PUSH2 0x1C87 JUMP JUMPDEST SWAP1 POP DUP1 DUP3 DUP6 PUSH1 0x20 DUP7 MUL DUP3 ADD GT ISZERO PUSH2 0x1A0A JUMPI PUSH2 0x1A09 PUSH2 0x1F63 JUMP JUMPDEST JUMPDEST PUSH1 0x0 JUMPDEST DUP6 DUP2 LT ISZERO PUSH2 0x1A3A JUMPI DUP2 PUSH2 0x1A20 DUP9 DUP3 PUSH2 0x1C06 JUMP JUMPDEST DUP5 MSTORE PUSH1 0x20 DUP5 ADD SWAP4 POP PUSH1 0x20 DUP4 ADD SWAP3 POP POP PUSH1 0x1 DUP2 ADD SWAP1 POP PUSH2 0x1A0D JUMP JUMPDEST POP POP POP SWAP4 SWAP3 POP POP POP JUMP JUMPDEST PUSH1 0x0 PUSH2 0x1A57 PUSH2 0x1A52 DUP5 PUSH2 0x1CD2 JUMP JUMPDEST PUSH2 0x1C87 JUMP JUMPDEST SWAP1 POP DUP1 DUP3 DUP6 PUSH1 0x20 DUP7 MUL DUP3 ADD GT ISZERO PUSH2 0x1A71 JUMPI PUSH2 0x1A70 PUSH2 0x1F63 JUMP JUMPDEST JUMPDEST PUSH1 0x0 JUMPDEST DUP6 DUP2 LT ISZERO PUSH2 0x1AA1 JUMPI DUP2 PUSH2 0x1A87 DUP9 DUP3 PUSH2 0x1C06 JUMP JUMPDEST DUP5 MSTORE PUSH1 0x20 DUP5 ADD SWAP4 POP PUSH1 0x20 DUP4 ADD SWAP3 POP POP PUSH1 0x1 DUP2 ADD SWAP1 POP PUSH2 0x1A74 JUMP JUMPDEST POP POP POP SWAP4 SWAP3 POP POP POP JUMP JUMPDEST PUSH1 0x0 DUP3 PUSH1 0x1F DUP4 ADD SLT PUSH2 0x1AC0 JUMPI PUSH2 0x1ABF PUSH2 0x1F59 JUMP JUMPDEST JUMPDEST PUSH1 0x18 PUSH2 0x1ACD DUP5 DUP3 DUP6 PUSH2 0x19DD JUMP JUMPDEST SWAP2 POP POP SWAP3 SWAP2 POP POP JUMP JUMPDEST PUSH1 0x0 DUP3 PUSH1 0x1F DUP4 ADD SLT PUSH2 0x1AEB JUMPI PUSH2 0x1AEA PUSH2 0x1F59 JUMP JUMPDEST JUMPDEST PUSH1 0x2 PUSH2 0x1AF8 DUP5 DUP3 DUP6 PUSH2 0x1A44 JUMP JUMPDEST SWAP2 POP POP SWAP3 SWAP2 POP POP JUMP JUMPDEST PUSH1 0x0 PUSH1 0x40 DUP3 DUP5 SUB SLT ISZERO PUSH2 0x1B17 JUMPI PUSH2 0x1B16 PUSH2 0x1F5E JUMP JUMPDEST JUMPDEST PUSH2 0x1B21 PUSH1 0x40 PUSH2 0x1C87 JUMP JUMPDEST SWAP1 POP PUSH1 0x0 PUSH2 0x1B31 DUP5 DUP3 DUP6 ADD PUSH2 0x1C06 JUMP JUMPDEST PUSH1 0x0 DUP4 ADD MSTORE POP PUSH1 0x20 PUSH2 0x1B45 DUP5 DUP3 DUP6 ADD PUSH2 0x1C06 JUMP JUMPDEST PUSH1 0x20 DUP4 ADD MSTORE POP SWAP3 SWAP2 POP POP JUMP JUMPDEST PUSH1 0x0 PUSH1 0x80 DUP3 DUP5 SUB SLT ISZERO PUSH2 0x1B67 JUMPI PUSH2 0x1B66 PUSH2 0x1F5E JUMP JUMPDEST JUMPDEST PUSH2 0x1B71 PUSH1 0x40 PUSH2 0x1C87 JUMP JUMPDEST SWAP1 POP PUSH1 0x0 PUSH2 0x1B81 DUP5 DUP3 DUP6 ADD PUSH2 0x1AD6 JUMP JUMPDEST PUSH1 0x0 DUP4 ADD MSTORE POP PUSH1 0x40 PUSH2 0x1B95 DUP5 DUP3 DUP6 ADD PUSH2 0x1AD6 JUMP JUMPDEST PUSH1 0x20 DUP4 ADD MSTORE POP SWAP3 SWAP2 POP POP JUMP JUMPDEST PUSH1 0x0 PUSH2 0x100 DUP3 DUP5 SUB SLT ISZERO PUSH2 0x1BB8 JUMPI PUSH2 0x1BB7 PUSH2 0x1F5E JUMP JUMPDEST JUMPDEST PUSH2 0x1BC2 PUSH1 0x60 PUSH2 0x1C87 JUMP JUMPDEST SWAP1 POP PUSH1 0x0 PUSH2 0x1BD2 DUP5 DUP3 DUP6 ADD PUSH2 0x1B01 JUMP JUMPDEST PUSH1 0x0 DUP4 ADD MSTORE POP PUSH1 0x40 PUSH2 0x1BE6 DUP5 DUP3 DUP6 ADD PUSH2 0x1B51 JUMP JUMPDEST PUSH1 0x20 DUP4 ADD MSTORE POP PUSH1 0xC0 PUSH2 0x1BFA DUP5 DUP3 DUP6 ADD PUSH2 0x1B01 JUMP JUMPDEST PUSH1 0x40 DUP4 ADD MSTORE POP SWAP3 SWAP2 POP POP JUMP JUMPDEST PUSH1 0x0 DUP2 CALLDATALOAD SWAP1 POP PUSH2 0x1C15 DUP2 PUSH2 0x1F7E JUMP JUMPDEST SWAP3 SWAP2 POP POP JUMP JUMPDEST PUSH1 0x0 DUP1 PUSH2 0x400 DUP4 DUP6 SUB SLT ISZERO PUSH2 0x1C33 JUMPI PUSH2 0x1C32 PUSH2 0x1F68 JUMP JUMPDEST JUMPDEST PUSH1 0x0 PUSH2 0x1C41 DUP6 DUP3 DUP7 ADD PUSH2 0x1BA1 JUMP JUMPDEST SWAP3 POP POP PUSH2 0x100 PUSH2 0x1C53 DUP6 DUP3 DUP7 ADD PUSH2 0x1AAB JUMP JUMPDEST SWAP2 POP POP SWAP3 POP SWAP3 SWAP1 POP JUMP JUMPDEST PUSH2 0x1C66 DUP2 PUSH2 0x1DDC JUMP JUMPDEST DUP3 MSTORE POP POP JUMP JUMPDEST PUSH1 0x0 PUSH1 0x20 DUP3 ADD SWAP1 POP PUSH2 0x1C81 PUSH1 0x0 DUP4 ADD DUP5 PUSH2 0x1C5D JUMP JUMPDEST SWAP3 SWAP2 POP POP JUMP JUMPDEST PUSH1 0x0 PUSH2 0x1C91 PUSH2 0x1CA2 JUMP JUMPDEST SWAP1 POP PUSH2 0x1C9D DUP3 DUP3 PUSH2 0x1DF2 JUMP JUMPDEST SWAP2 SWAP1 POP JUMP JUMPDEST PUSH1 0x0 PUSH1 0x40 MLOAD SWAP1 POP SWAP1 JUMP JUMPDEST PUSH1 0x0 PUSH8 0xFFFFFFFFFFFFFFFF DUP3 GT ISZERO PUSH2 0x1CC7 JUMPI PUSH2 0x1CC6 PUSH2 0x1F2A JUMP JUMPDEST JUMPDEST PUSH1 0x20 DUP3 MUL SWAP1 POP SWAP2 SWAP1 POP JUMP JUMPDEST PUSH1 0x0 PUSH8 0xFFFFFFFFFFFFFFFF DUP3 GT ISZERO PUSH2 0x1CED JUMPI PUSH2 0x1CEC PUSH2 0x1F2A JUMP JUMPDEST JUMPDEST PUSH1 0x20 DUP3 MUL SWAP1 POP SWAP2 SWAP1 POP JUMP JUMPDEST PUSH1 0x0 PUSH2 0x1D03 DUP3 PUSH2 0x1DE8 JUMP JUMPDEST SWAP2 POP PUSH2 0x1D0E DUP4 PUSH2 0x1DE8 JUMP JUMPDEST SWAP3 POP DUP3 PUSH32 0xFFFFFFFFFFFFFFFFFFFFFFFFFFFFFFFFFFFFFFFFFFFFFFFFFFFFFFFFFFFFFFFF SUB DUP3 GT ISZERO PUSH2 0x1D43 JUMPI PUSH2 0x1D42 PUSH2 0x1E9D JUMP JUMPDEST JUMPDEST DUP3 DUP3 ADD SWAP1 POP SWAP3 SWAP2 POP POP JUMP JUMPDEST PUSH1 0x0 PUSH2 0x1D59 DUP3 PUSH2 0x1DE8 JUMP JUMPDEST SWAP2 POP PUSH2 0x1D64 DUP4 PUSH2 0x1DE8 JUMP JUMPDEST SWAP3 POP DUP2 PUSH32 0xFFFFFFFFFFFFFFFFFFFFFFFFFFFFFFFFFFFFFFFFFFFFFFFFFFFFFFFFFFFFFFFF DIV DUP4 GT DUP3 ISZERO ISZERO AND ISZERO PUSH2 0x1D9D JUMPI PUSH2 0x1D9C PUSH2 0x1E9D JUMP JUMPDEST JUMPDEST DUP3 DUP3 MUL SWAP1 POP SWAP3 SWAP2 POP POP JUMP JUMPDEST PUSH1 0x0 PUSH2 0x1DB3 DUP3 PUSH2 0x1DE8 JUMP JUMPDEST SWAP2 POP PUSH2 0x1DBE DUP4 PUSH2 0x1DE8 JUMP JUMPDEST SWAP3 POP DUP3 DUP3 LT ISZERO PUSH2 0x1DD1 JUMPI PUSH2 0x1DD0 PUSH2 0x1E9D JUMP JUMPDEST JUMPDEST DUP3 DUP3 SUB SWAP1 POP SWAP3 SWAP2 POP POP JUMP JUMPDEST PUSH1 0x0 DUP2 ISZERO ISZERO SWAP1 POP SWAP2 SWAP1 POP JUMP JUMPDEST PUSH1 0x0 DUP2 SWAP1 POP SWAP2 SWAP1 POP JUMP JUMPDEST PUSH2 0x1DFB DUP3 PUSH2 0x1F6D JUMP JUMPDEST DUP2 ADD DUP2 DUP2 LT PUSH8 0xFFFFFFFFFFFFFFFF DUP3 GT OR ISZERO PUSH2 0x1E1A JUMPI PUSH2 0x1E19 PUSH2 0x1F2A JUMP JUMPDEST JUMPDEST DUP1 PUSH1 0x40 MSTORE POP POP POP JUMP JUMPDEST PUSH1 0x0 PUSH2 0x1E2E DUP3 PUSH2 0x1DE8 JUMP JUMPDEST SWAP2 POP PUSH32 0xFFFFFFFFFFFFFFFFFFFFFFFFFFFFFFFFFFFFFFFFFFFFFFFFFFFFFFFFFFFFFFFF DUP3 EQ ISZERO PUSH2 0x1E61 JUMPI PUSH2 0x1E60 PUSH2 0x1E9D JUMP JUMPDEST JUMPDEST PUSH1 0x1 DUP3 ADD SWAP1 POP SWAP2 SWAP1 POP JUMP JUMPDEST PUSH1 0x0 PUSH2 0x1E77 DUP3 PUSH2 0x1DE8 JUMP JUMPDEST SWAP2 POP PUSH2 0x1E82 DUP4 PUSH2 0x1DE8 JUMP JUMPDEST SWAP3 POP DUP3 PUSH2 0x1E92 JUMPI PUSH2 0x1E91 PUSH2 0x1ECC JUMP JUMPDEST JUMPDEST DUP3 DUP3 MOD SWAP1 POP SWAP3 SWAP2 POP POP JUMP JUMPDEST PUSH32 0x4E487B7100000000000000000000000000000000000000000000000000000000 PUSH1 0x0 MSTORE PUSH1 0x11 PUSH1 0x4 MSTORE PUSH1 0x24 PUSH1 0x0 REVERT JUMPDEST PUSH32 0x4E487B7100000000000000000000000000000000000000000000000000000000 PUSH1 0x0 MSTORE PUSH1 0x12 PUSH1 0x4 MSTORE PUSH1 0x24 PUSH1 0x0 REVERT JUMPDEST PUSH32 0x4E487B7100000000000000000000000000000000000000000000000000000000 PUSH1 0x0 MSTORE PUSH1 0x32 PUSH1 0x4 MSTORE PUSH1 0x24 PUSH1 0x0 REVERT JUMPDEST PUSH32 0x4E487B7100000000000000000000000000000000000000000000000000000000 PUSH1 0x0 MSTORE PUSH1 0x41 PUSH1 0x4 MSTORE PUSH1 0x24 PUSH1 0x0 REVERT JUMPDEST PUSH1 0x0 DUP1 REVERT JUMPDEST PUSH1 0x0 DUP1 REVERT JUMPDEST PUSH1 0x0 DUP1 REVERT JUMPDEST PUSH1 0x0 DUP1 REVERT JUMPDEST PUSH1 0x0 PUSH1 0x1F NOT PUSH1 0x1F DUP4 ADD AND SWAP1 POP SWAP2 SWAP1 POP JUMP JUMPDEST PUSH2 0x1F87 DUP2 PUSH2 0x1DE8 JUMP JUMPDEST DUP2 EQ PUSH2 0x1F92 JUMPI PUSH1 0x0 DUP1 REVERT JUMPDEST POP JUMP INVALID LOG2 PUSH5 0x6970667358 0x22 SLT KECCAK256 ISZERO SWAP12 0xC9 DUP4 0xD8 0xC4 DUP10 0x2A PUSH12 0xBA535D66681F5E9B1BC98139 PUSH28 0x44E51BEF91A519E215E664736F6C6343000806003300000000000000 "},"methodIdentifiers":{"verifyTx(((uint256,uint256),(uint256[2],uint256[2]),(uint256,uint256)),uint256[24])":"88e3f317"}}}}}