{"contracts/FLSC.sol":{"FLSC":{"abi":[{"inputs":[{"internalType":"uint32","name":"_number_of_entities","type":"uint32"},{"internalType":"uint32","name":"_number_of_features","type":"uint32"},{"internalType":"uint256","name":"_funding","type":"uint256"},{"internalType":"uint256","name":"_deposit","type":"uint256"}],"stateMutability":"nonpayable","type":"constructor"},{"inputs":[],"name":"decryption_rounds","outputs":[{"internalType":"uint32","name":"","type":"uint32"}],"stateMutability":"view","type":"function"},{"inputs":[],"name":"number_of_entities","outputs":[{"internalType":"uint32","name":"","type":"uint32"}],"stateMutability":"view","type":"function"},{"inputs":[],"name":"number_of_features","outputs":[{"internalType":"uint32","name":"","type":"uint32"}],"stateMutability":"view","type":"function"},{"inputs":[{"internalType":"uint256","name":"","type":"uint256"}],"name":"public_key","outputs":[{"internalType":"uint256","name":"","type":"uint256"}],"stateMutability":"view","type":"function"},{"inputs":[{"internalType":"string","name":"class","type":"string"}],"name":"return_mu_random","outputs":[{"internalType":"uint256[][]","name":"","type":"uint256[][]"}],"stateMutability":"view","type":"function"},{"inputs":[{"internalType":"string","name":"class","type":"string"}],"name":"return_partial_decrypted_mu","outputs":[{"internalType":"uint256[][]","name":"","type":"uint256[][]"}],"stateMutability":"view","type":"function"},{"inputs":[{"internalType":"string","name":"class","type":"string"}],"name":"return_submit_count","outputs":[{"internalType":"uint32","name":"","type":"uint32"}],"stateMutability":"view","type":"function"},{"inputs":[{"internalType":"string","name":"class","type":"string"}],"name":"return_varience_partial_decrypted","outputs":[{"internalType":"uint256[][]","name":"","type":"uint256[][]"}],"stateMutability":"view","type":"function"},{"inputs":[{"internalType":"string","name":"class","type":"string"}],"name":"return_varience_random","outputs":[{"internalType":"uint256[][]","name":"","type":"uint256[][]"}],"stateMutability":"view","type":"function"},{"inputs":[],"name":"start_decryption","outputs":[],"stateMutability":"nonpayable","type":"function"},{"inputs":[{"internalType":"uint256[2]","name":"a","type":"uint256[2]"},{"internalType":"uint256[2][2]","name":"b","type":"uint256[2][2]"},{"internalType":"uint256[2]","name":"c","type":"uint256[2]"},{"internalType":"uint256[]","name":"_C_mean_prime_x","type":"uint256[]"},{"internalType":"uint256[]","name":"_C_mean_prime_y","type":"uint256[]"},{"internalType":"uint256[]","name":"_C_var_prime_x","type":"uint256[]"},{"internalType":"uint256[]","name":"_C_var_prime_y","type":"uint256[]"},{"internalType":"uint256[2]","name":"_Pk","type":"uint256[2]"},{"internalType":"string","name":"class","type":"string"}],"name":"submit_decryption","outputs":[],"stateMutability":"nonpayable","type":"function"},{"inputs":[{"internalType":"address","name":"entity","type":"address"}],"name":"submit_entity","outputs":[],"stateMutability":"nonpayable","type":"function"},{"inputs":[{"internalType":"uint256","name":"pubkey","type":"uint256"}],"name":"submit_pubkey","outputs":[],"stateMutability":"payable","type":"function"},{"inputs":[{"internalType":"uint256[2]","name":"a","type":"uint256[2]"},{"internalType":"uint256[2][2]","name":"b","type":"uint256[2][2]"},{"internalType":"uint256[2]","name":"c","type":"uint256[2]"},{"internalType":"uint256","name":"acccuracy","type":"uint256"},{"internalType":"uint256[][]","name":"_mu_R","type":"uint256[][]"},{"internalType":"uint256[][]","name":"_mu_C","type":"uint256[][]"},{"internalType":"uint256[][]","name":"vars_R","type":"uint256[][]"},{"internalType":"uint256[][]","name":"vars_C","type":"uint256[][]"},{"internalType":"string","name":"class","type":"string"}],"name":"submit_update","outputs":[],"stateMutability":"nonpayable","type":"function"}],"evm":{"bytecode":{"linkReferences":{},"object":"608060405260008060086101000a81548163ffffffff021916908363ffffffff160217905550600060025560006003556040516200003d9062000283565b604051809103906000f0801580156200005a573d6000803e3d6000fd5b50600560006101000a81548173ffffffffffffffffffffffffffffffffffffffff021916908373ffffffffffffffffffffffffffffffffffffffff160217905550604051620000a99062000291565b604051809103906000f080158015620000c6573d6000803e3d6000fd5b50600660006101000a81548173ffffffffffffffffffffffffffffffffffffffff021916908373ffffffffffffffffffffffffffffffffffffffff1602179055503480156200011457600080fd5b5060405162008e5c38038062008e5c83398181016040528101906200013a919062000331565b33600760006101000a81548173ffffffffffffffffffffffffffffffffffffffff021916908373ffffffffffffffffffffffffffffffffffffffff1602179055506004600760009054906101000a900473ffffffffffffffffffffffffffffffffffffffff169080600181540180825580915050600190039060005260206000200160009091909190916101000a81548173ffffffffffffffffffffffffffffffffffffffff021916908373ffffffffffffffffffffffffffffffffffffffff160217905550826000806101000a81548163ffffffff021916908363ffffffff16021790555083600060046101000a81548163ffffffff021916908363ffffffff160217905550604051806040016040528060008152602001600181525060089060026200026a9291906200029f565b50816002819055508060038190555050505050620003f6565b611feb8062004a4b83390190565b6124268062006a3683390190565b8260028101928215620002d1579160200282015b82811115620002d0578251825591602001919060010190620002b3565b5b509050620002e09190620002e4565b5090565b5b80821115620002ff576000816000905550600101620002e5565b5090565b6000815190506200031481620003c2565b92915050565b6000815190506200032b81620003dc565b92915050565b600080600080608085870312156200034e576200034d620003bd565b5b60006200035e878288016200031a565b945050602062000371878288016200031a565b9350506040620003848782880162000303565b9250506060620003978782880162000303565b91505092959194509250565b6000819050919050565b600063ffffffff82169050919050565b600080fd5b620003cd81620003a3565b8114620003d957600080fd5b50565b620003e781620003ad565b8114620003f357600080fd5b50565b61464580620004066000396000f3fe6080604052600436106100dd5760003560e01c80638479e0d31161007f578063a261b04a11610059578063a261b04a146102c5578063bdb900fd146102dc578063dbcb1c4414610305578063ef5349d314610342576100dd565b80638479e0d31461024457806385871e491461026f57806389e3b0e51461029a576100dd565b80631f1895d0116100bb5780631f1895d0146101855780633470f117146101a15780633de222ec146101de5780636b437d3c1461021b576100dd565b806305db8c5a146100e25780630b9180c51461010b5780631c0b0b5814610148575b600080fd5b3480156100ee57600080fd5b506101096004803603810190610104919061365c565b61037f565b005b34801561011757600080fd5b50610132600480360381019061012d919061396c565b6104ed565b60405161013f9190613e3e565b60405180910390f35b34801561015457600080fd5b5061016f600480360381019061016a919061396c565b6105aa565b60405161017c9190613e3e565b60405180910390f35b61019f600480360381019061019a91906139b5565b610667565b005b3480156101ad57600080fd5b506101c860048036038101906101c3919061396c565b610743565b6040516101d59190613f31565b60405180910390f35b3480156101ea57600080fd5b50610205600480360381019061020091906139b5565b61077b565b6040516102129190613f16565b60405180910390f35b34801561022757600080fd5b50610242600480360381019061023d9190613689565b610796565b005b34801561025057600080fd5b50610259610ed7565b6040516102669190613f31565b60405180910390f35b34801561027b57600080fd5b50610284610eed565b6040516102919190613f31565b60405180910390f35b3480156102a657600080fd5b506102af610f01565b6040516102bc9190613f31565b60405180910390f35b3480156102d157600080fd5b506102da610f17565b005b3480156102e857600080fd5b5061030360048036038101906102fe91906137e4565b61113c565b005b34801561031157600080fd5b5061032c6004803603810190610327919061396c565b61221e565b6040516103399190613e3e565b60405180910390f35b34801561034e57600080fd5b506103696004803603810190610364919061396c565b6122db565b6040516103769190613e3e565b60405180910390f35b6004819080600181540180825580915050600190039060005260206000200160009091909190916101000a81548173ffffffffffffffffffffffffffffffffffffffff021916908373ffffffffffffffffffffffffffffffffffffffff1602179055506000600a60008373ffffffffffffffffffffffffffffffffffffffff1673ffffffffffffffffffffffffffffffffffffffff16815260200190815260200160002060006101000a81548160ff0219169083151502179055506001601360008373ffffffffffffffffffffffffffffffffffffffff1673ffffffffffffffffffffffffffffffffffffffff16815260200190815260200160002060006101000a81548160ff0219169083151502179055506000601460008373ffffffffffffffffffffffffffffffffffffffff1673ffffffffffffffffffffffffffffffffffffffff16815260200190815260200160002060006101000a81548160ff02191690831515021790555050565b6060600e826040516104ff9190613e10565b9081526020016040518091039020805480602002602001604051908101604052809291908181526020016000905b8282101561059f5783829060005260206000200180548060200260200160405190810160405280929190818152602001828054801561058b57602002820191906000526020600020905b815481526020019060010190808311610577575b50505050508152602001906001019061052d565b505050509050919050565b60606010826040516105bc9190613e10565b9081526020016040518091039020805480602002602001604051908101604052809291908181526020016000905b8282101561065c5783829060005260206000200180548060200260200160405190810160405280929190818152602001828054801561064857602002820191906000526020600020905b815481526020019060010190808311610634575b5050505050815260200190600101906105ea565b505050509050919050565b600354600254610677919061417b565b341461068257600080fd5b600061068d82612398565b90506106d660086002806020026040519081016040528092919082600280156106cb576020028201915b8154815260200190600101908083116106b7575b505050505082612556565b60089060026106e6929190612f19565b506001601460003373ffffffffffffffffffffffffffffffffffffffff1673ffffffffffffffffffffffffffffffffffffffff16815260200190815260200160002060006101000a81548160ff0219169083151502179055505050565b60006012826040516107559190613e10565b908152602001604051809103902060009054906101000a900463ffffffff169050919050565b6008816002811061078b57600080fd5b016000915090505481565b61079e612f59565b604051806060016040528060405180604001604052808d6000600281106107c8576107c76144a1565b5b602002015181526020018d6001600281106107e6576107e56144a1565b5b6020020151815250815260200160405180604001604052808c600060028110610812576108116144a1565b5b602002015181526020018c6001600281106108305761082f6144a1565b5b6020020151815250815260200160405180604001604052808b60006002811061085c5761085b6144a1565b5b602002015181526020018b60016002811061087a576108796144a1565b5b6020020151815250815250905061088f612f8c565b600080600090505b60068163ffffffff161015610c1c5760005b60008054906101000a900463ffffffff1663ffffffff168163ffffffff161015610c0857808260008054906101000a900463ffffffff166108ea919061420b565b6108f491906141d1565b925060008263ffffffff16141561098a57600d866040516109159190613e10565b9081526020016040518091039020600081548110610936576109356144a1565b5b906000526020600020018163ffffffff1681548110610958576109576144a1565b5b9060005260206000200154848463ffffffff166021811061097c5761097b6144a1565b5b602002018181525050610bf5565b60018263ffffffff161415610a1e57600f866040516109a99190613e10565b90815260200160405180910390206000815481106109ca576109c96144a1565b5b906000526020600020018163ffffffff16815481106109ec576109eb6144a1565b5b9060005260206000200154848463ffffffff1660218110610a1057610a0f6144a1565b5b602002018181525050610bf4565b60028263ffffffff161415610a75578a8163ffffffff1681518110610a4657610a456144a1565b5b6020026020010151848463ffffffff1660218110610a6757610a666144a1565b5b602002018181525050610bf3565b60038263ffffffff161415610b0957600e86604051610a949190613e10565b9081526020016040518091039020600081548110610ab557610ab46144a1565b5b906000526020600020018163ffffffff1681548110610ad757610ad66144a1565b5b9060005260206000200154848463ffffffff1660218110610afb57610afa6144a1565b5b602002018181525050610bf2565b60048263ffffffff161415610b9d57601086604051610b289190613e10565b9081526020016040518091039020600081548110610b4957610b486144a1565b5b906000526020600020018163ffffffff1681548110610b6b57610b6a6144a1565b5b9060005260206000200154848463ffffffff1660218110610b8f57610b8e6144a1565b5b602002018181525050610bf1565b60058263ffffffff161415610bf057888163ffffffff1681518110610bc557610bc46144a1565b5b6020026020010151848463ffffffff1660218110610be657610be56144a1565b5b6020020181815250505b5b5b5b5b5b8080610c00906143e7565b9150506108a9565b508080610c14906143e7565b915050610897565b5084600060028110610c3157610c306144a1565b5b602002015182600183610c4491906141d1565b63ffffffff1660218110610c5b57610c5a6144a1565b5b60200201818152505084600160028110610c7857610c776144a1565b5b602002015182600283610c8b91906141d1565b63ffffffff1660218110610ca257610ca16144a1565b5b602002018181525050600182600383610cbb91906141d1565b63ffffffff1660218110610cd257610cd16144a1565b5b602002018181525050600660009054906101000a900473ffffffffffffffffffffffffffffffffffffffff1673ffffffffffffffffffffffffffffffffffffffff1663785b3bbb84846040518363ffffffff1660e01b8152600401610d38929190613eeb565b60206040518083038186803b158015610d5057600080fd5b505afa158015610d64573d6000803e3d6000fd5b505050506040513d601f19601f82011682018060405250810190610d88919061393f565b610dc7576040517f08c379a0000000000000000000000000000000000000000000000000000000008152600401610dbe90613ea0565b60405180910390fd5b601560003373ffffffffffffffffffffffffffffffffffffffff1673ffffffffffffffffffffffffffffffffffffffff168152602001908152602001600020600081819054906101000a900463ffffffff1680929190610e26906143e7565b91906101000a81548163ffffffff021916908363ffffffff1602179055505060405180604001604052808a815260200189815250600f85604051610e6a9190613e10565b9081526020016040518091039020906002610e86929190612faf565b50604051806040016040528088815260200187815250601085604051610eac9190613e10565b9081526020016040518091039020906002610ec8929190612faf565b50505050505050505050505050565b600060089054906101000a900463ffffffff1681565b60008054906101000a900463ffffffff1681565b600060049054906101000a900463ffffffff1681565b600760009054906101000a900473ffffffffffffffffffffffffffffffffffffffff1673ffffffffffffffffffffffffffffffffffffffff163373ffffffffffffffffffffffffffffffffffffffff1614610fa7576040517f08c379a0000000000000000000000000000000000000000000000000000000008152600401610f9e90613e60565b60405180910390fd5b6000600180549050905060005b818163ffffffff1610156110f757600b60018263ffffffff1681548110610fde57610fdd6144a1565b5b90600052602060002001604051610ff59190613e27565b9081526020016040518091039020600f60018363ffffffff168154811061101f5761101e6144a1565b5b906000526020600020016040516110369190613e27565b908152602001604051809103902090805461105292919061300f565b50600c60018263ffffffff168154811061106f5761106e6144a1565b5b906000526020600020016040516110869190613e27565b9081526020016040518091039020601060018363ffffffff16815481106110b0576110af6144a1565b5b906000526020600020016040516110c79190613e27565b90815260200160405180910390209080546110e392919061300f565b5080806110ef906143e7565b915050610fb4565b506000600881819054906101000a900463ffffffff168092919061111a906143e7565b91906101000a81548163ffffffff021916908363ffffffff1602179055505050565b61114461306e565b61114c613091565b6111546130c4565b8883600060188110611169576111686144a1565b5b602002018181525050604051806060016040528060405180604001604052808f60006002811061119c5761119b6144a1565b5b602002015181526020018f6001600281106111ba576111b96144a1565b5b6020020151815250815260200160405180604001604052808e6000600281106111e6576111e56144a1565b5b602002015181526020018e600160028110611204576112036144a1565b5b6020020151815250815260200160405180604001604052808d6000600281106112305761122f6144a1565b5b602002015181526020018d60016002811061124e5761124d6144a1565b5b60200201518152508152509150600080600090505b60048163ffffffff1610156114bc5760005b60008054906101000a900463ffffffff1663ffffffff168163ffffffff1610156114a8576001818360008054906101000a900463ffffffff166112b8919061420b565b6112c291906141d1565b6112cc91906141d1565b925060008263ffffffff161415611340578a6000815181106112f1576112f06144a1565b5b60200260200101518163ffffffff1681518110611311576113106144a1565b5b6020026020010151868463ffffffff1660188110611332576113316144a1565b5b602002018181525050611495565b60018263ffffffff1614156113b25789600081518110611363576113626144a1565b5b60200260200101518163ffffffff1681518110611383576113826144a1565b5b6020026020010151868463ffffffff16601881106113a4576113a36144a1565b5b602002018181525050611494565b60028263ffffffff16141561142457886000815181106113d5576113d46144a1565b5b60200260200101518163ffffffff16815181106113f5576113f46144a1565b5b6020026020010151868463ffffffff1660188110611416576114156144a1565b5b602002018181525050611493565b60038263ffffffff1614156114925787600081518110611447576114466144a1565b5b60200260200101518163ffffffff1681518110611467576114666144a1565b5b6020026020010151868463ffffffff1660188110611488576114876144a1565b5b6020020181815250505b5b5b5b80806114a0906143e7565b915050611275565b5080806114b4906143e7565b915050611263565b5060086000600281106114d2576114d16144a1565b5b0154846001836114e291906141d1565b63ffffffff16601881106114f9576114f86144a1565b5b6020020181815250506008600160028110611517576115166144a1565b5b01548460028361152791906141d1565b63ffffffff166018811061153e5761153d6144a1565b5b60200201818152505060018460038361155791906141d1565b63ffffffff166018811061156e5761156d6144a1565b5b602002018181525050600560009054906101000a900473ffffffffffffffffffffffffffffffffffffffff1673ffffffffffffffffffffffffffffffffffffffff166388e3f31784866040518363ffffffff1660e01b81526004016115d4929190613ec0565b60206040518083038186803b1580156115ec57600080fd5b505afa158015611600573d6000803e3d6000fd5b505050506040513d601f19601f82011682018060405250810190611624919061393f565b611663576040517f08c379a000000000000000000000000000000000000000000000000000000000815260040161165a90613e80565b60405180910390fd5b60016012866040516116759190613e10565b908152602001604051809103902060008282829054906101000a900463ffffffff166116a191906141d1565b92506101000a81548163ffffffff021916908363ffffffff1602179055506011856040516116cf9190613e10565b908152602001604051809103902060009054906101000a900460ff166118335760018590806001815401808255809150506001900390600052602060002001600090919091909150908051906020019061172a9291906130e6565b5087600b8660405161173c9190613e10565b9081526020016040518091039020908051906020019061175d92919061316c565b5085600c8660405161176f9190613e10565b9081526020016040518091039020908051906020019061179092919061316c565b5060016011866040516117a39190613e10565b908152602001604051809103902060006101000a81548160ff02191690831515021790555088600d866040516117d99190613e10565b908152602001604051809103902090805190602001906117fa92919061316c565b5086600e8660405161180c9190613e10565b9081526020016040518091039020908051906020019061182d92919061316c565b5061220f565b60005b60008054906101000a900463ffffffff1663ffffffff168163ffffffff16101561220d576119cc6118f060405180604001604052808c60008151811061187f5761187e6144a1565b5b60200260200101518563ffffffff168151811061189f5761189e6144a1565b5b602002602001015181526020018c6001815181106118c0576118bf6144a1565b5b60200260200101518563ffffffff16815181106118e0576118df6144a1565b5b602002602001015181525061289e565b6119c76040518060400160405280600b8b60405161190e9190613e10565b908152602001604051809103902060008154811061192f5761192e6144a1565b5b906000526020600020018663ffffffff1681548110611951576119506144a1565b5b90600052602060002001548152602001600b8b6040516119719190613e10565b9081526020016040518091039020600181548110611992576119916144a1565b5b906000526020600020018663ffffffff16815481106119b4576119b36144a1565b5b906000526020600020015481525061289e565b6129b5565b9250826000600281106119e2576119e16144a1565b5b6020020151600b876040516119f79190613e10565b9081526020016040518091039020600081548110611a1857611a176144a1565b5b906000526020600020018263ffffffff1681548110611a3a57611a396144a1565b5b906000526020600020018190555082600160028110611a5c57611a5b6144a1565b5b6020020151600b87604051611a719190613e10565b9081526020016040518091039020600181548110611a9257611a916144a1565b5b906000526020600020018263ffffffff1681548110611ab457611ab36144a1565b5b9060005260206000200181905550611c34611b5860405180604001604052808a600081518110611ae757611ae66144a1565b5b60200260200101518563ffffffff1681518110611b0757611b066144a1565b5b602002602001015181526020018a600181518110611b2857611b276144a1565b5b60200260200101518563ffffffff1681518110611b4857611b476144a1565b5b602002602001015181525061289e565b611c2f6040518060400160405280600c8b604051611b769190613e10565b9081526020016040518091039020600081548110611b9757611b966144a1565b5b906000526020600020018663ffffffff1681548110611bb957611bb86144a1565b5b90600052602060002001548152602001600c8b604051611bd99190613e10565b9081526020016040518091039020600181548110611bfa57611bf96144a1565b5b906000526020600020018663ffffffff1681548110611c1c57611c1b6144a1565b5b906000526020600020015481525061289e565b6129b5565b925082600060028110611c4a57611c496144a1565b5b6020020151600c87604051611c5f9190613e10565b9081526020016040518091039020600081548110611c8057611c7f6144a1565b5b906000526020600020018263ffffffff1681548110611ca257611ca16144a1565b5b906000526020600020018190555082600160028110611cc457611cc36144a1565b5b6020020151600c87604051611cd99190613e10565b9081526020016040518091039020600181548110611cfa57611cf96144a1565b5b906000526020600020018263ffffffff1681548110611d1c57611d1b6144a1565b5b9060005260206000200181905550611e9c611dc060405180604001604052808d600081518110611d4f57611d4e6144a1565b5b60200260200101518563ffffffff1681518110611d6f57611d6e6144a1565b5b602002602001015181526020018d600181518110611d9057611d8f6144a1565b5b60200260200101518563ffffffff1681518110611db057611daf6144a1565b5b602002602001015181525061289e565b611e976040518060400160405280600d8b604051611dde9190613e10565b9081526020016040518091039020600081548110611dff57611dfe6144a1565b5b906000526020600020018663ffffffff1681548110611e2157611e206144a1565b5b90600052602060002001548152602001600d8b604051611e419190613e10565b9081526020016040518091039020600181548110611e6257611e616144a1565b5b906000526020600020018663ffffffff1681548110611e8457611e836144a1565b5b906000526020600020015481525061289e565b6129b5565b925082600060028110611eb257611eb16144a1565b5b6020020151600d87604051611ec79190613e10565b9081526020016040518091039020600081548110611ee857611ee76144a1565b5b906000526020600020018263ffffffff1681548110611f0a57611f096144a1565b5b906000526020600020018190555082600160028110611f2c57611f2b6144a1565b5b6020020151600d87604051611f419190613e10565b9081526020016040518091039020600181548110611f6257611f616144a1565b5b906000526020600020018263ffffffff1681548110611f8457611f836144a1565b5b906000526020600020018190555061210461202860405180604001604052808b600081518110611fb757611fb66144a1565b5b60200260200101518563ffffffff1681518110611fd757611fd66144a1565b5b602002602001015181526020018b600181518110611ff857611ff76144a1565b5b60200260200101518563ffffffff1681518110612018576120176144a1565b5b602002602001015181525061289e565b6120ff6040518060400160405280600e8b6040516120469190613e10565b9081526020016040518091039020600081548110612067576120666144a1565b5b906000526020600020018663ffffffff1681548110612089576120886144a1565b5b90600052602060002001548152602001600e8b6040516120a99190613e10565b90815260200160405180910390206001815481106120ca576120c96144a1565b5b906000526020600020018663ffffffff16815481106120ec576120eb6144a1565b5b906000526020600020015481525061289e565b6129b5565b92508260006002811061211a576121196144a1565b5b6020020151600e8760405161212f9190613e10565b90815260200160405180910390206000815481106121505761214f6144a1565b5b906000526020600020018263ffffffff1681548110612172576121716144a1565b5b906000526020600020018190555082600160028110612194576121936144a1565b5b6020020151600e876040516121a99190613e10565b90815260200160405180910390206001815481106121ca576121c96144a1565b5b906000526020600020018263ffffffff16815481106121ec576121eb6144a1565b5b90600052602060002001819055508080612205906143e7565b915050611836565b505b50505050505050505050505050565b6060600f826040516122309190613e10565b9081526020016040518091039020805480602002602001604051908101604052809291908181526020016000905b828210156122d0578382906000526020600020018054806020026020016040519081016040528092919081815260200182805480156122bc57602002820191906000526020600020905b8154815260200190600101908083116122a8575b50505050508152602001906001019061225e565b505050509050919050565b6060600d826040516122ed9190613e10565b9081526020016040518091039020805480602002602001604051908101604052809291908181526020016000905b8282101561238d5783829060005260206000200180548060200260200160405190810160405280929190818152602001828054801561237957602002820191906000526020600020905b815481526020019060010190808311612365575b50505050508152602001906001019061231b565b505050509050919050565b6123a06130c4565b6000807f800000000000000000000000000000000000000000000000000000000000000084161415905060007f7fffffffffffffffffffffffffffffffffffffffffffffffffffffffffffffff8416905060007f30644e72e131a029b85045b68181585d2833e84879b9709143e1f593f00000018061242257612421614443565b5b828309905060007f30644e72e131a029b85045b68181585d2833e84879b9709143e1f593f00000018061245857612457614443565b5b6124a161249c620292fc7f30644e72e131a029b85045b68181585d2833e84879b9709143e1f593f00000018061249157612490614443565b5b86620292f8096129dd565b612a44565b6124ac6001856129dd565b09905060006124ba82612a77565b905060007f183227397098d014dc2822db40c0ac2e9419f4243cdcb848a1f0fac9f8000000821190508580156124ee575080155b806125005750851580156124ff5750805b5b1561253457817f30644e72e131a029b85045b68181585d2833e84879b9709143e1f593f0000001612531919061427d565b91505b6040518060400160405280838152602001868152509650505050505050919050565b61255e6130c4565b60007f30644e72e131a029b85045b68181585d2833e84879b9709143e1f593f00000018061258f5761258e614443565b5b836000600281106125a3576125a26144a1565b5b6020020151856000600281106125bc576125bb6144a1565b5b602002015109905060007f30644e72e131a029b85045b68181585d2833e84879b9709143e1f593f0000001806125f5576125f4614443565b5b84600160028110612609576126086144a1565b5b602002015186600160028110612622576126216144a1565b5b602002015109905060007f30644e72e131a029b85045b68181585d2833e84879b9709143e1f593f00000018061265b5761265a614443565b5b7f30644e72e131a029b85045b68181585d2833e84879b9709143e1f593f00000018061268a57612689614443565b5b838509620292f809905060007f30644e72e131a029b85045b68181585d2833e84879b9709143e1f593f0000001806126c5576126c4614443565b5b7f30644e72e131a029b85045b68181585d2833e84879b9709143e1f593f0000001806126f4576126f3614443565b5b87600060028110612708576127076144a1565b5b602002015189600160028110612721576127206144a1565b5b6020020151097f30644e72e131a029b85045b68181585d2833e84879b9709143e1f593f00000018061275657612755614443565b5b8860016002811061276a576127696144a1565b5b60200201518a600060028110612783576127826144a1565b5b60200201510908905060006127cc847f30644e72e131a029b85045b68181585d2833e84879b9709143e1f593f0000001806127c1576127c0614443565b5b87620292fc096129dd565b905060405180604001604052807f30644e72e131a029b85045b68181585d2833e84879b9709143e1f593f00000018061280857612807614443565b5b6128437f30644e72e131a029b85045b68181585d2833e84879b9709143e1f593f00000018061283a57612839614443565b5b87600108612a44565b850981526020017f30644e72e131a029b85045b68181585d2833e84879b9709143e1f593f00000018061287957612878614443565b5b61288c6128876001886129dd565b612a44565b84098152509550505050505092915050565b6128a66131cc565b816000600281106128ba576128b96144a1565b5b6020020151816000600481106128d3576128d26144a1565b5b602002018181525050816001600281106128f0576128ef6144a1565b5b602002015181600160048110612909576129086144a1565b5b6020020181815250507f30644e72e131a029b85045b68181585d2833e84879b9709143e1f593f00000018061294157612940614443565b5b82600160028110612955576129546144a1565b5b60200201518360006002811061296e5761296d6144a1565b5b60200201510981600260048110612988576129876144a1565b5b6020020181815250506001816003600481106129a7576129a66144a1565b5b602002018181525050919050565b6129bd6130c4565b60006129c98484612c95565b90506129d481612da4565b91505092915050565b60007f30644e72e131a029b85045b68181585d2833e84879b9709143e1f593f000000180612a0e57612a0d614443565b5b827f30644e72e131a029b85045b68181585d2833e84879b9709143e1f593f0000001612a3a919061427d565b8408905092915050565b6000612a70827f30644e72e131a029b85045b68181585d2833e84879b9709143e1f593efffffff612ea5565b9050919050565b6000612aa0827c0183227397098d014dc2822db40c0ac2e9419f4243cdcb848a1f0faca0612ea5565b90506000612acb837c030644e72e131a029b85045b68181585d2833e84879b9709143e1f593f612ea5565b905060007f2a3c09f0a58a7e8500e0a7eb8ef62abc402d111e41112ed49bd61b6e725b19f09050600080601c905060005b600115612c8a57600090508492505b60018314612b5a577f30644e72e131a029b85045b68181585d2833e84879b9709143e1f593f000000180612b4257612b41614443565b5b83840992508080612b52906143bc565b915050612b0b565b60008161ffff161415612b71575050505050612c90565b83925060005b60018284612b859190614249565b612b8f9190614249565b61ffff168161ffff161015612be5577f30644e72e131a029b85045b68181585d2833e84879b9709143e1f593f000000180612bcd57612bcc614443565b5b84850993508080612bdd906143bc565b915050612b77565b507f30644e72e131a029b85045b68181585d2833e84879b9709143e1f593f000000180612c1557612c14614443565b5b83840993507f30644e72e131a029b85045b68181585d2833e84879b9709143e1f593f000000180612c4957612c48614443565b5b86840995507f30644e72e131a029b85045b68181585d2833e84879b9709143e1f593f000000180612c7d57612c7c614443565b5b8486099450809150612afc565b50505050505b919050565b612c9d6131cc565b7f30644e72e131a029b85045b68181585d2833e84879b9709143e1f593f0000001620292fc620292f88285518751098360208701516020890151098460408801518660408b015186090985606089015160608b015109868760208b01518b51088860208d01518d51080960018501811015612d185787810190505b8785820306905060018401811015612d305787810190505b878482030690508160018401811015612d495788810190505b888482030690508884840889878a098660018201811015612d6a578b810190505b8b8282030690508b8486098d528b81840960208e01528b81860960408e01528b83850960608e015250505050505050505050505092915050565b612dac6130c4565b6000612dcf83600360048110612dc557612dc46144a1565b5b6020020151612a44565b90507f30644e72e131a029b85045b68181585d2833e84879b9709143e1f593f000000180612e0057612dff614443565b5b8184600060048110612e1557612e146144a1565b5b60200201510982600060028110612e2f57612e2e6144a1565b5b6020020181815250507f30644e72e131a029b85045b68181585d2833e84879b9709143e1f593f000000180612e6757612e66614443565b5b8184600160048110612e7c57612e7b6144a1565b5b60200201510982600160028110612e9657612e956144a1565b5b60200201818152505050919050565b60007f30644e72e131a029b85045b68181585d2833e84879b9709143e1f593f000000160405160208152602080820152602060408201528460608201528360808201528160a082015260208160c08360055afa8060008114612f0a5782519450612f0f565b600080fd5b5050505092915050565b8260028101928215612f48579160200282015b82811115612f47578251825591602001919060010190612f2c565b5b509050612f5591906131ee565b5090565b6040518060600160405280612f6c61320b565b8152602001612f79613225565b8152602001612f8661320b565b81525090565b604051806104200160405280602190602082028036833780820191505090505090565b828054828255906000526020600020908101928215612ffe579160200282015b82811115612ffd578251829080519060200190612fed92919061324b565b5091602001919060010190612fcf565b5b50905061300b9190613298565b5090565b82805482825590600052602060002090810192821561305d5760005260206000209182015b8281111561305c57828290805461304c9291906132bc565b5091600101919060010190613034565b5b50905061306a9190613298565b5090565b604051806103000160405280601890602082028036833780820191505090505090565b60405180606001604052806130a461320b565b81526020016130b1613225565b81526020016130be61320b565b81525090565b6040518060400160405280600290602082028036833780820191505090505090565b8280546130f290614359565b90600052602060002090601f016020900481019282613114576000855561315b565b82601f1061312d57805160ff191683800117855561315b565b8280016001018555821561315b579182015b8281111561315a57825182559160200191906001019061313f565b5b50905061316891906131ee565b5090565b8280548282559060005260206000209081019282156131bb579160200282015b828111156131ba5782518290805190602001906131aa92919061324b565b509160200191906001019061318c565b5b5090506131c89190613298565b5090565b6040518060800160405280600490602082028036833780820191505090505090565b5b808211156132075760008160009055506001016131ef565b5090565b604051806040016040528060008152602001600081525090565b60405180604001604052806132386130c4565b81526020016132456130c4565b81525090565b828054828255906000526020600020908101928215613287579160200282015b8281111561328657825182559160200191906001019061326b565b5b50905061329491906131ee565b5090565b5b808211156132b857600081816132af919061330e565b50600101613299565b5090565b8280548282559060005260206000209081019282156132fd5760005260206000209182015b828111156132fc5782548255916001019190600101906132e1565b5b50905061330a91906131ee565b5090565b508054600082559060005260206000209081019061332c91906131ee565b50565b600061334261333d84613f71565b613f4c565b9050808285604086028201111561335c5761335b614504565b5b60005b8581101561338c578161337288826135ab565b84526020840193506040830192505060018101905061335f565b5050509392505050565b60006133a96133a484613f97565b613f4c565b905080838252602082019050828560208602820111156133cc576133cb614504565b5b60005b8581101561341a57813567ffffffffffffffff8111156133f2576133f16144ff565b5b8086016133ff89826135d6565b855260208501945060208401935050506001810190506133cf565b5050509392505050565b600061343761343284613fc3565b613f4c565b9050808285602086028201111561345157613450614504565b5b60005b8581101561348157816134678882613647565b845260208401935060208301925050600181019050613454565b5050509392505050565b600061349e61349984613fe9565b613f4c565b905080838252602082019050828560208602820111156134c1576134c0614504565b5b60005b858110156134f157816134d78882613647565b8452602084019350602083019250506001810190506134c4565b5050509392505050565b600061350e61350984614015565b613f4c565b90508281526020810184848401111561352a57613529614509565b5b613535848285614317565b509392505050565b60008135905061354c816145ca565b92915050565b600082601f830112613567576135666144ff565b5b600261357484828561332f565b91505092915050565b600082601f830112613592576135916144ff565b5b81356135a2848260208601613396565b91505092915050565b600082601f8301126135c0576135bf6144ff565b5b60026135cd848285613424565b91505092915050565b600082601f8301126135eb576135ea6144ff565b5b81356135fb84826020860161348b565b91505092915050565b600081519050613613816145e1565b92915050565b600082601f83011261362e5761362d6144ff565b5b813561363e8482602086016134fb565b91505092915050565b600081359050613656816145f8565b92915050565b60006020828403121561367257613671614513565b5b60006136808482850161353d565b91505092915050565b60008060008060008060008060006101e08a8c0312156136ac576136ab614513565b5b60006136ba8c828d016135ab565b99505060406136cb8c828d01613552565b98505060c06136dc8c828d016135ab565b9750506101008a013567ffffffffffffffff8111156136fe576136fd61450e565b5b61370a8c828d016135d6565b9650506101208a013567ffffffffffffffff81111561372c5761372b61450e565b5b6137388c828d016135d6565b9550506101408a013567ffffffffffffffff81111561375a5761375961450e565b5b6137668c828d016135d6565b9450506101608a013567ffffffffffffffff8111156137885761378761450e565b5b6137948c828d016135d6565b9350506101806137a68c828d016135ab565b9250506101c08a013567ffffffffffffffff8111156137c8576137c761450e565b5b6137d48c828d01613619565b9150509295985092959850929598565b60008060008060008060008060006101c08a8c03121561380757613806614513565b5b60006138158c828d016135ab565b99505060406138268c828d01613552565b98505060c06138378c828d016135ab565b9750506101006138498c828d01613647565b9650506101208a013567ffffffffffffffff81111561386b5761386a61450e565b5b6138778c828d0161357d565b9550506101408a013567ffffffffffffffff8111156138995761389861450e565b5b6138a58c828d0161357d565b9450506101608a013567ffffffffffffffff8111156138c7576138c661450e565b5b6138d38c828d0161357d565b9350506101808a013567ffffffffffffffff8111156138f5576138f461450e565b5b6139018c828d0161357d565b9250506101a08a013567ffffffffffffffff8111156139235761392261450e565b5b61392f8c828d01613619565b9150509295985092959850929598565b60006020828403121561395557613954614513565b5b600061396384828501613604565b91505092915050565b60006020828403121561398257613981614513565b5b600082013567ffffffffffffffff8111156139a05761399f61450e565b5b6139ac84828501613619565b91505092915050565b6000602082840312156139cb576139ca614513565b5b60006139d984828501613647565b91505092915050565b60006139ee8383613b88565b905092915050565b6000613a028383613de3565b60208301905092915050565b6000613a1982614099565b613a23818561411c565b935083602082028501613a3585614046565b8060005b85811015613a715784840389528151613a5285826139e2565b9450613a5d836140db565b925060208a01995050600181019050613a39565b50829750879550505050505092915050565b613a8c816140a4565b613a96818461412d565b9250613aa182614056565b8060005b83811015613ad2578151613ab987826139f6565b9650613ac4836140e8565b925050600181019050613aa5565b505050505050565b613ae3816140af565b613aed8184614138565b9250613af882614060565b8060005b83811015613b29578151613b1087826139f6565b9650613b1b836140f5565b925050600181019050613afc565b505050505050565b613b3a816140ba565b613b448184614143565b9250613b4f8261406a565b8060005b83811015613b80578151613b6787826139f6565b9650613b7283614102565b925050600181019050613b53565b505050505050565b6000613b93826140c5565b613b9d818561414e565b9350613ba883614074565b8060005b83811015613bd9578151613bc088826139f6565b9750613bcb8361410f565b925050600181019050613bac565b5085935050505092915050565b6000613bf1826140d0565b613bfb8185614170565b9350613c0b818560208601614326565b80840191505092915050565b60008154613c2481614359565b613c2e8186614170565b94506001821660008114613c495760018114613c5a57613c8d565b60ff19831686528186019350613c8d565b613c6385614084565b60005b83811015613c8557815481890152600182019150602081019050613c66565b838801955050505b50505092915050565b6000613ca3602a8361415f565b9150613cae82614529565b604082019050919050565b6000613cc6601e8361415f565b9150613cd182614578565b602082019050919050565b6000613ce960168361415f565b9150613cf4826145a1565b602082019050919050565b604082016000820151613d156000850182613de3565b506020820151613d286020850182613de3565b50505050565b608082016000820151613d446000850182613ada565b506020820151613d576040850182613ada565b50505050565b61010082016000820151613d746000850182613cff565b506020820151613d876040850182613d2e565b506040820151613d9a60c0850182613cff565b50505050565b61010082016000820151613db76000850182613cff565b506020820151613dca6040850182613d2e565b506040820151613ddd60c0850182613cff565b50505050565b613dec816142fd565b82525050565b613dfb816142fd565b82525050565b613e0a81614307565b82525050565b6000613e1c8284613be6565b915081905092915050565b6000613e338284613c17565b915081905092915050565b60006020820190508181036000830152613e588184613a0e565b905092915050565b60006020820190508181036000830152613e7981613c96565b9050919050565b60006020820190508181036000830152613e9981613cb9565b9050919050565b60006020820190508181036000830152613eb981613cdc565b9050919050565b600061040082019050613ed66000830185613d5d565b613ee4610100830184613a83565b9392505050565b600061052082019050613f016000830185613da0565b613f0f610100830184613b31565b9392505050565b6000602082019050613f2b6000830184613df2565b92915050565b6000602082019050613f466000830184613e01565b92915050565b6000613f56613f67565b9050613f62828261438b565b919050565b6000604051905090565b600067ffffffffffffffff821115613f8c57613f8b6144d0565b5b602082029050919050565b600067ffffffffffffffff821115613fb257613fb16144d0565b5b602082029050602081019050919050565b600067ffffffffffffffff821115613fde57613fdd6144d0565b5b602082029050919050565b600067ffffffffffffffff821115614004576140036144d0565b5b602082029050602081019050919050565b600067ffffffffffffffff8211156140305761402f6144d0565b5b61403982614518565b9050602081019050919050565b6000819050602082019050919050565b6000819050919050565b6000819050919050565b6000819050919050565b6000819050602082019050919050565b60008190508160005260206000209050919050565b600081519050919050565b600060189050919050565b600060029050919050565b600060219050919050565b600081519050919050565b600081519050919050565b6000602082019050919050565b6000602082019050919050565b6000602082019050919050565b6000602082019050919050565b6000602082019050919050565b600082825260208201905092915050565b600081905092915050565b600081905092915050565b600081905092915050565b600082825260208201905092915050565b600082825260208201905092915050565b600081905092915050565b6000614186826142fd565b9150614191836142fd565b9250827fffffffffffffffffffffffffffffffffffffffffffffffffffffffffffffffff038211156141c6576141c5614414565b5b828201905092915050565b60006141dc82614307565b91506141e783614307565b92508263ffffffff03821115614200576141ff614414565b5b828201905092915050565b600061421682614307565b915061422183614307565b92508163ffffffff048311821515161561423e5761423d614414565b5b828202905092915050565b6000614254826142cf565b915061425f836142cf565b92508282101561427257614271614414565b5b828203905092915050565b6000614288826142fd565b9150614293836142fd565b9250828210156142a6576142a5614414565b5b828203905092915050565b60006142bc826142dd565b9050919050565b60008115159050919050565b600061ffff82169050919050565b600073ffffffffffffffffffffffffffffffffffffffff82169050919050565b6000819050919050565b600063ffffffff82169050919050565b82818337600083830152505050565b60005b83811015614344578082015181840152602081019050614329565b83811115614353576000848401525b50505050565b6000600282049050600182168061437157607f821691505b6020821081141561438557614384614472565b5b50919050565b61439482614518565b810181811067ffffffffffffffff821117156143b3576143b26144d0565b5b80604052505050565b60006143c7826142cf565b915061ffff8214156143dc576143db614414565b5b600182019050919050565b60006143f282614307565b915063ffffffff82141561440957614408614414565b5b600182019050919050565b7f4e487b7100000000000000000000000000000000000000000000000000000000600052601160045260246000fd5b7f4e487b7100000000000000000000000000000000000000000000000000000000600052601260045260246000fd5b7f4e487b7100000000000000000000000000000000000000000000000000000000600052602260045260246000fd5b7f4e487b7100000000000000000000000000000000000000000000000000000000600052603260045260246000fd5b7f4e487b7100000000000000000000000000000000000000000000000000000000600052604160045260246000fd5b600080fd5b600080fd5b600080fd5b600080fd5b600080fd5b6000601f19601f8301169050919050565b7f4f6e6c7920746865206d6f64657261746f722063616e2063616c6c207468697360008201527f2066756e6374696f6e2100000000000000000000000000000000000000000000602082015250565b7f4d6f64656c20757064617465206d757374206265207665726966696564210000600082015250565b7f50726f6f66206d75737420626520766572696669656400000000000000000000600082015250565b6145d3816142b1565b81146145de57600080fd5b50565b6145ea816142c3565b81146145f557600080fd5b50565b614601816142fd565b811461460c57600080fd5b5056fea264697066735822122024391190960f277ea3303f0c9904c9e4a4a7cf2e0b567b7339f3e28a3b375a1964736f6c63430008060033608060405234801561001057600080fd5b50611fcb806100206000396000f3fe608060405234801561001057600080fd5b506004361061002b5760003560e01c806388e3f31714610030575b600080fd5b61004a60048036038101906100459190611c1b565b610060565b6040516100579190611c6c565b60405180910390f35b600080601867ffffffffffffffff81111561007e5761007d611f2a565b5b6040519080825280602002602001820160405280156100ac5781602001602082028036833780820191505090505b50905060005b6018811015610105578381601881106100ce576100cd611efb565b5b60200201518282815181106100e6576100e5611efb565b5b60200260200101818152505080806100fd90611e23565b9150506100b2565b506000610112828661012e565b1415610122576001915050610128565b60009150505b92915050565b6000807f30644e72e131a029b85045b68181585d2833e84879b9709143e1f593f00000019050600061015e6102c5565b9050806080015151600186516101749190611cf8565b1461017e57600080fd5b60006040518060400160405280600081526020016000815250905060005b865181101561023757838782815181106101b9576101b8611efb565b5b6020026020010151106101cb57600080fd5b6102228261021d85608001516001856101e49190611cf8565b815181106101f5576101f4611efb565b5b60200260200101518a85815181106102105761020f611efb565b5b602002602001015161118d565b611234565b9150808061022f90611e23565b91505061019c565b5061026181836080015160008151811061025457610253611efb565b5b6020026020010151611234565b90506102a78560000151866020015161027984611301565b856040015161028b8a60400151611301565b876060015161029d8960000151611301565b89602001516113a6565b6102b757600193505050506102bf565b600093505050505b92915050565b6102cd6118ce565b60405180604001604052807f1635d15567816b533b8489291dfa7369eea8bfd26b1a5661d43b8fba8534ef9381526020017f2f8d32ec4a8df92a5c58ae9a986b971ecc205fe221c30c1f270290a70a9102c88152508160000181905250604051806040016040528060405180604001604052807f1805caa951180dec37d759597459c1bffb3a7ecdd50510f34d8da841fce78b0e81526020017f03d678fb93c8c15c209dc39869ded6fa699436fb5dc53a18d4ed5cc82ea056db815250815260200160405180604001604052807f18bea2f33b985e0a57141e38f3a822f2aa8014ae1108304ea2832bf8036ac0fa81526020017f05b60fa4fa9ac543642a610b35de6731cdca3dfa3bf02890116e83553bcbd6538152508152508160200181905250604051806040016040528060405180604001604052807f1dd5f5a44a5bad3bc6a081a9b003e0a5d4d4da40f5385c442f12fba3be9c223581526020017f2feb231fd70bab785cdcf0d021f9d9e5aa536d9e34a552fe1eaba06955acb7d2815250815260200160405180604001604052807f199bf111819b97e857003a450206835758256ef87bcad43740926cdacd01d88f81526020017f0ef180b448760065b8171fe9e98fdecf28baaec92ef4a9f4c842d11481387be88152508152508160400181905250604051806040016040528060405180604001604052807f1865833bb8d626ec55310f1f2afa37bdd778efe48c28f2045efda757672f11ba81526020017e0939d7a1d5d9126cd182e681747529bdb15c0a9fc864e13a4e9862fb2fb784815250815260200160405180604001604052807f178a3cb3c4b7177652321283be8c4f2abf6d1bde78a09af571768514bccb795d81526020017f13a75eb6f0dca762a71bf75b915aee9c3edc9f0842e2c4de8a6c7337ab389d6f8152508152508160600181905250601967ffffffffffffffff81111561059357610592611f2a565b5b6040519080825280602002602001820160405280156105cc57816020015b6105b9611915565b8152602001906001900390816105b15790505b50816080018190525060405180604001604052807f095aa9708537e0acdb3acb11e553515ad1f65f0001bf4bab66dac26f2453ea8381526020017f1ab0e84d6b24f34f7efc79de9ddd6d80f9380dd8c0aa28c32e2f9f3854ed97fe815250816080015160008151811061064257610641611efb565b5b602002602001018190525060405180604001604052807f1dd56957f3368111456308041cc4c36d2328e47592bac23bff4b928d8f4840f781526020017f2727117161ea311ad1dfb6cbbddbdb59bfc668da582c3024c53564463f231f1981525081608001516001815181106106ba576106b9611efb565b5b602002602001018190525060405180604001604052807f0bd92c03010973077324fe3f7b336e7e35e904f71001cb137d725f9032fcff7e81526020017f27e3d009cd396bad72572be54e443025e67968e4c4b6534bec71131d44dbf855815250816080015160028151811061073257610731611efb565b5b602002602001018190525060405180604001604052807f21be2f81d87e60ebfc7c3d4e5045be3150c19fac919bc96935dcf5fa71ec317d81526020017f0e2f428f967948026ee72a7c84f5ff2e192fd04f427b8249e4dd9f407ebebfda81525081608001516003815181106107aa576107a9611efb565b5b602002602001018190525060405180604001604052807f295ef3639515d0164396ff3cd09c05562a4f014ba4305fbcfce9994bfe9e035381526020017f266a66fa705525272000825224ea26255b11488bf168a429b8c17a220bc30557815250816080015160048151811061082257610821611efb565b5b602002602001018190525060405180604001604052807e06293ba7a0b33ea3d746c05654be553ba0b4f2cfb66bbcd19b193b9751369d81526020017f14a074dd3543f4ccdd6537ca5c8eebfb217060ca4e5afeb0a7a09d9ecfc912ee815250816080015160058151811061089957610898611efb565b5b602002602001018190525060405180604001604052807f144ad0200273fa50774c9b9887163281953aa2ab259be53288879f063db3eb1881526020017f206308bead896eb31342813e8e9312c5f13dd471c0a5605de66f6f68bc0a4126815250816080015160068151811061091157610910611efb565b5b602002602001018190525060405180604001604052807f0866bcc288edb38d7dcf46657225cecbbbb116d7c348584d74b4bdd46a511cb681526020017f23d60738ef43938ecee267ce09786cf3d18be5c361918704585de32e15ca9e2d815250816080015160078151811061098957610988611efb565b5b602002602001018190525060405180604001604052807f0b2f3bd45b06b0f39cddb0365a8e2962ad9e266e7d718e62be89b4f71cef101281526020017f2271ba3aa61eb2c10d848935abe4de30dfd4290d8266d615921bc860a2a0adce8152508160800151600881518110610a0157610a00611efb565b5b602002602001018190525060405180604001604052807f23fb3311c76f76d0f26729dbca3df5e83ae561d2178e6d65497c816fc502e66b81526020017f01f9762a3514bae45ea18ae195d96d06726e5b13ca98911675d65baa81f133788152508160800151600981518110610a7957610a78611efb565b5b602002602001018190525060405180604001604052807f277c7ac0ceb263bc9a3d014d38a6000aaa1c42315530db9e61fd39af8cbfd92b81526020017f03c17ecbb1f7f2526ab2b29928b9b88e46934df6f584efc5f6abba40250f97448152508160800151600a81518110610af157610af0611efb565b5b602002602001018190525060405180604001604052807f2c98470cb570e485c786af848696da00486aa0cf3420215c1b7d4abd5059286081526020017f1fdec81895854c21729f47cc08a2a6dd6a791a99002da4139aefb53cca209d8f8152508160800151600b81518110610b6957610b68611efb565b5b602002602001018190525060405180604001604052807f25a81739a99c738161a6210eedab854a741cc0495f7ec2c677367ce3d3e868a881526020017f0d930f83e7260ab863230504290cc7d5fc0d8a1f07b7df347112d72bbe9437a88152508160800151600c81518110610be157610be0611efb565b5b602002602001018190525060405180604001604052807f07386e63ab5c69a165a8b0eb0b24988e88a1dad8191b324a458e053ad90452b381526020017f25460f55db0d23ac0c824f23c61dfb42cbd4d9f4a3cbf0f912cc9434afc001238152508160800151600d81518110610c5957610c58611efb565b5b602002602001018190525060405180604001604052807f274482c081cdcfea7f907eeb48a54589ef7a3c2f1f5d6b14b2079fc42019851d81526020017f2d3269eb78a6c30707d86790bc9118c6d73e8665c6426aae55118d4bdf1d51418152508160800151600e81518110610cd157610cd0611efb565b5b602002602001018190525060405180604001604052807f2a902536485f315f958e1f58428595d9547e508a44fe4eae4d88490f7b6f493581526020017f2467c22389a6f730256f13ef9c36fefaffd5f62e59883253ba7e454f203bb1ba8152508160800151600f81518110610d4957610d48611efb565b5b602002602001018190525060405180604001604052807f14629ff0a8b89bd71c2f6a563bf7c970ddae1b321a9c7a166244c04530d6b3aa81526020017f12c6f2e374e57df351930c8af85080f88aaf982fae8462f566ff130fef03fb4b8152508160800151601081518110610dc157610dc0611efb565b5b602002602001018190525060405180604001604052807f26fb68fabedee09dd650447c8ed9a1facd2ca6c64d7ce4739f9ad24e3681a95081526020017f1451295dc567532a2faaef99fea2d36cd0783ee3bab10ef347b04144c56aa1d68152508160800151601181518110610e3957610e38611efb565b5b602002602001018190525060405180604001604052807f170ef8b963ad4003ae5fab8f63a3498019996cb7e95abfc8bd02e146535acc0081526020017ec1aed28ba067b3d985de0738be5d6062ac05e671c096dd545b49509521ec168152508160800151601281518110610eb057610eaf611efb565b5b602002602001018190525060405180604001604052807f195f188845ace50740d4e5d790923101f03de4c87b72f2ef9c13ec43caea1c4281526020017f1be80b0a4b27caa95e1f4e05f1eed590581df670510951c7d53c740a78aea7118152508160800151601381518110610f2857610f27611efb565b5b602002602001018190525060405180604001604052807f1dfaef7d1d60d28f24b48fdcf3e2002e60bd6a912a814cca9a0f50716fd763a481526020017f2710d6b35bc5a842e5e0a66328fb88d23dd81f1d857223b86e57a1d4028ac2248152508160800151601481518110610fa057610f9f611efb565b5b602002602001018190525060405180604001604052807f29cb27efcca93c2ac44427cc8a10b06dc8edf7c9d5d093a81111d303a3077d5a81526020017f20b0649741427f3c0888a7790b93f647fe16cb356d05e7e1b32c7a8191ea7166815250816080015160158151811061101857611017611efb565b5b602002602001018190525060405180604001604052807f031c3edb5bebce3517bd14a98d56a194bbe4e61efd4b25316a2bb768488fecb681526020017e9cf640cc8ec2e09513ee64fe8602a365e040d2adc40be06d3130f63d00dc67815250816080015160168151811061108f5761108e611efb565b5b602002602001018190525060405180604001604052807f0fc00f16735e56e0e1eeee6aa1ac226a8e88f89f7f7139f5291693e13da95cac81526020017f2499b80bd4f366c83f2b4da3e013700a00d1ca70649256b5d65f39ad4c4c5db4815250816080015160178151811061110757611106611efb565b5b602002602001018190525060405180604001604052807f1edf8272bddacdea24c9ed9829c4ece615c87bde3e8a387faaa3f559f036fb8e81526020017f21601e76e5f68d65ead089c6a6ecc2605416263352d2ea5fb9ef15ba239b02be815250816080015160188151811061117f5761117e611efb565b5b602002602001018190525090565b611195611915565b61119d61192f565b8360000151816000600381106111b6576111b5611efb565b5b6020020181815250508360200151816001600381106111d8576111d7611efb565b5b60200201818152505082816002600381106111f6576111f5611efb565b5b602002018181525050600060608360808460076107d05a03fa9050806000811461121f57611221565bfe5b508061122c57600080fd5b505092915050565b61123c611915565b611244611951565b83600001518160006004811061125d5761125c611efb565b5b60200201818152505083602001518160016004811061127f5761127e611efb565b5b6020020181815250508260000151816002600481106112a1576112a0611efb565b5b6020020181815250508260200151816003600481106112c3576112c2611efb565b5b602002018181525050600060608360c08460066107d05a03fa905080600081146112ec576112ee565bfe5b50806112f957600080fd5b505092915050565b611309611915565b60007f30644e72e131a029b85045b68181585d97816a916871ca8d3c208c16d87cfd47905060008360000151148015611346575060008360200151145b1561136a5760405180604001604052806000815260200160008152509150506113a1565b60405180604001604052808460000151815260200182856020015161138f9190611e6c565b8361139a9190611da8565b8152509150505b919050565b600080600467ffffffffffffffff8111156113c4576113c3611f2a565b5b6040519080825280602002602001820160405280156113fd57816020015b6113ea611915565b8152602001906001900390816113e25790505b5090506000600467ffffffffffffffff81111561141d5761141c611f2a565b5b60405190808252806020026020018201604052801561145657816020015b611443611973565b81526020019060019003908161143b5790505b5090508a8260008151811061146e5761146d611efb565b5b6020026020010181905250888260018151811061148e5761148d611efb565b5b602002602001018190525086826002815181106114ae576114ad611efb565b5b602002602001018190525084826003815181106114ce576114cd611efb565b5b602002602001018190525089816000815181106114ee576114ed611efb565b5b6020026020010181905250878160018151811061150e5761150d611efb565b5b6020026020010181905250858160028151811061152e5761152d611efb565b5b6020026020010181905250838160038151811061154e5761154d611efb565b5b60200260200101819052506115638282611573565b9250505098975050505050505050565b6000815183511461158357600080fd5b60008351905060006006826115989190611d4e565b905060008167ffffffffffffffff8111156115b6576115b5611f2a565b5b6040519080825280602002602001820160405280156115e45781602001602082028036833780820191505090505b50905060005b838110156118695786818151811061160557611604611efb565b5b6020026020010151600001518260006006846116219190611d4e565b61162b9190611cf8565b8151811061163c5761163b611efb565b5b60200260200101818152505086818151811061165b5761165a611efb565b5b6020026020010151602001518260016006846116779190611d4e565b6116819190611cf8565b8151811061169257611691611efb565b5b6020026020010181815250508581815181106116b1576116b0611efb565b5b6020026020010151600001516001600281106116d0576116cf611efb565b5b60200201518260026006846116e59190611d4e565b6116ef9190611cf8565b81518110611700576116ff611efb565b5b60200260200101818152505085818151811061171f5761171e611efb565b5b60200260200101516000015160006002811061173e5761173d611efb565b5b60200201518260036006846117539190611d4e565b61175d9190611cf8565b8151811061176e5761176d611efb565b5b60200260200101818152505085818151811061178d5761178c611efb565b5b6020026020010151602001516001600281106117ac576117ab611efb565b5b60200201518260046006846117c19190611d4e565b6117cb9190611cf8565b815181106117dc576117db611efb565b5b6020026020010181815250508581815181106117fb576117fa611efb565b5b60200260200101516020015160006002811061181a57611819611efb565b5b602002015182600560068461182f9190611d4e565b6118399190611cf8565b8151811061184a57611849611efb565b5b602002602001018181525050808061186190611e23565b9150506115ea565b50611872611999565b6000602082602086026020860160086107d05a03fa9050806000811461189757611899565bfe5b50806118a457600080fd5b6000826000600181106118ba576118b9611efb565b5b602002015114159550505050505092915050565b6040518060a001604052806118e1611915565b81526020016118ee611973565b81526020016118fb611973565b8152602001611908611973565b8152602001606081525090565b604051806040016040528060008152602001600081525090565b6040518060600160405280600390602082028036833780820191505090505090565b6040518060800160405280600490602082028036833780820191505090505090565b60405180604001604052806119866119bb565b81526020016119936119bb565b81525090565b6040518060200160405280600190602082028036833780820191505090505090565b6040518060400160405280600290602082028036833780820191505090505090565b60006119f06119eb84611cac565b611c87565b90508082856020860282011115611a0a57611a09611f63565b5b60005b85811015611a3a5781611a208882611c06565b845260208401935060208301925050600181019050611a0d565b5050509392505050565b6000611a57611a5284611cd2565b611c87565b90508082856020860282011115611a7157611a70611f63565b5b60005b85811015611aa15781611a878882611c06565b845260208401935060208301925050600181019050611a74565b5050509392505050565b600082601f830112611ac057611abf611f59565b5b6018611acd8482856119dd565b91505092915050565b600082601f830112611aeb57611aea611f59565b5b6002611af8848285611a44565b91505092915050565b600060408284031215611b1757611b16611f5e565b5b611b216040611c87565b90506000611b3184828501611c06565b6000830152506020611b4584828501611c06565b60208301525092915050565b600060808284031215611b6757611b66611f5e565b5b611b716040611c87565b90506000611b8184828501611ad6565b6000830152506040611b9584828501611ad6565b60208301525092915050565b60006101008284031215611bb857611bb7611f5e565b5b611bc26060611c87565b90506000611bd284828501611b01565b6000830152506040611be684828501611b51565b60208301525060c0611bfa84828501611b01565b60408301525092915050565b600081359050611c1581611f7e565b92915050565b6000806104008385031215611c3357611c32611f68565b5b6000611c4185828601611ba1565b925050610100611c5385828601611aab565b9150509250929050565b611c6681611ddc565b82525050565b6000602082019050611c816000830184611c5d565b92915050565b6000611c91611ca2565b9050611c9d8282611df2565b919050565b6000604051905090565b600067ffffffffffffffff821115611cc757611cc6611f2a565b5b602082029050919050565b600067ffffffffffffffff821115611ced57611cec611f2a565b5b602082029050919050565b6000611d0382611de8565b9150611d0e83611de8565b9250827fffffffffffffffffffffffffffffffffffffffffffffffffffffffffffffffff03821115611d4357611d42611e9d565b5b828201905092915050565b6000611d5982611de8565b9150611d6483611de8565b9250817fffffffffffffffffffffffffffffffffffffffffffffffffffffffffffffffff0483118215151615611d9d57611d9c611e9d565b5b828202905092915050565b6000611db382611de8565b9150611dbe83611de8565b925082821015611dd157611dd0611e9d565b5b828203905092915050565b60008115159050919050565b6000819050919050565b611dfb82611f6d565b810181811067ffffffffffffffff82111715611e1a57611e19611f2a565b5b80604052505050565b6000611e2e82611de8565b91507fffffffffffffffffffffffffffffffffffffffffffffffffffffffffffffffff821415611e6157611e60611e9d565b5b600182019050919050565b6000611e7782611de8565b9150611e8283611de8565b925082611e9257611e91611ecc565b5b828206905092915050565b7f4e487b7100000000000000000000000000000000000000000000000000000000600052601160045260246000fd5b7f4e487b7100000000000000000000000000000000000000000000000000000000600052601260045260246000fd5b7f4e487b7100000000000000000000000000000000000000000000000000000000600052603260045260246000fd5b7f4e487b7100000000000000000000000000000000000000000000000000000000600052604160045260246000fd5b600080fd5b600080fd5b600080fd5b600080fd5b6000601f19601f8301169050919050565b611f8781611de8565b8114611f9257600080fd5b5056fea2646970667358221220dc79421eb697e0ee85b85f4b443d0db209d308724f05e4921b5ee872bbb2b43364736f6c63430008060033608060405234801561001057600080fd5b50612406806100206000396000f3fe608060405234801561001057600080fd5b506004361061002b5760003560e01c8063785b3bbb14610030575b600080fd5b61004a60048036038101906100459190612056565b610060565b60405161005791906120a7565b60405180910390f35b600080602167ffffffffffffffff81111561007e5761007d612365565b5b6040519080825280602002602001820160405280156100ac5781602001602082028036833780820191505090505b50905060005b6021811015610105578381602181106100ce576100cd612336565b5b60200201518282815181106100e6576100e5612336565b5b60200260200101818152505080806100fd9061225e565b9150506100b2565b506000610112828661012e565b1415610122576001915050610128565b60009150505b92915050565b6000807f30644e72e131a029b85045b68181585d2833e84879b9709143e1f593f00000019050600061015e6102c5565b9050806080015151600186516101749190612133565b1461017e57600080fd5b60006040518060400160405280600081526020016000815250905060005b865181101561023757838782815181106101b9576101b8612336565b5b6020026020010151106101cb57600080fd5b6102228261021d85608001516001856101e49190612133565b815181106101f5576101f4612336565b5b60200260200101518a85815181106102105761020f612336565b5b60200260200101516115c8565b61166f565b9150808061022f9061225e565b91505061019c565b5061026181836080015160008151811061025457610253612336565b5b602002602001015161166f565b90506102a7856000015186602001516102798461173c565b856040015161028b8a6040015161173c565b876060015161029d896000015161173c565b89602001516117e1565b6102b757600193505050506102bf565b600093505050505b92915050565b6102cd611d09565b60405180604001604052807f2a63d23b73c06cb185f8d617ed33ad8daf0db004855df5cc82b3692252ad2c6781526020017e73781c2b2844f8085a11f5f39adebdc629ec9abd6f211e3c8951231ae492608152508160000181905250604051806040016040528060405180604001604052807f1dd2eca2478eb684b7f42b5b8cc53eb24b98f40b42a20fa10f0e41045028230e81526020017f1915be54b6575eb81115c81e7b3cf5daa922865167ad1a6ba7d2637bd3e40783815250815260200160405180604001604052807f2135b30dd846e6408fd4ece3ee713fa287eba621dc3bcf421b85c996edc106d681526020017f0ba4e5b6b1a87cd644aee2c9e9d3d2e1c4fb8dd0d45d5ab60732a4bebd4e36908152508152508160200181905250604051806040016040528060405180604001604052807f27b28f604ff94891ea99a5deecdbd53eff7d2601ae7dfa4c95bf5a3565e0bb9981526020017f2b11b8ba434b191238c07cda3e96eb732aa5ccb9258bfd08497f75ac41489041815250815260200160405180604001604052807f02afe96e9def68cc5e167f2aaff8943aed7a1bb4b393ac094792a9215df50b2d81526020017f0a64e5e37ed6f982833722ec4ea8f2da6bfcc0a2ba9d51c566d8b0ad5221727f8152508152508160400181905250604051806040016040528060405180604001604052807f1d67cc90eb20d8ebe3e6c0b9edc307a1176b1f89dc846b84e067cac2e6ae375d81526020017f29b194f7451933b938157f0c3a495e57ba10a0042e6452ca8b09441441543689815250815260200160405180604001604052807f0dad938f2366792f6a4a17310b992076c0bf350c1a5c961721eb58e683ff580781526020017f1b00f1ffbff7a21a69ff52007686fc23f5fed44f6ef857f5fab2146f6d1b56b78152508152508160600181905250602267ffffffffffffffff81111561059357610592612365565b5b6040519080825280602002602001820160405280156105cc57816020015b6105b9611d50565b8152602001906001900390816105b15790505b50816080018190525060405180604001604052807f1050789e17da5095992ce0fa14c3d9606e3250302f435c870f27e80fc4016fe881526020017f2900a5c597acd2efcd676a8092beb851f28d9042eec9d34b467db0c43a83fa1b815250816080015160008151811061064257610641612336565b5b602002602001018190525060405180604001604052807f23b85222953afca2e33feff9d8b608c82c47259761229254f8666a46c9e36ccd81526020017f2915da4eabc247ce5dd5f2746e0d9f120343ca573c90a2a9b4f47cbe29db80d181525081608001516001815181106106ba576106b9612336565b5b602002602001018190525060405180604001604052807f087325d135f7165b54c79ec0200d14becb1f8641a473c9f8e3ecdf079399024181526020017f16eb1ff598f6c3a0576c99479046ec3d1efb9b248c7b78878e5543ca1433609b815250816080015160028151811061073257610731612336565b5b602002602001018190525060405180604001604052807f05cffb5652773375c6c5b324e2a18afce7079813bd53d75108a39962d6f67ecc81526020017f09d545d82f962db8f2752ee96832974a1b533a6f8f494c41f61782d80becefdc81525081608001516003815181106107aa576107a9612336565b5b602002602001018190525060405180604001604052807f2922a00cc8962a4e57b58cfe4e8bd1f1fefa8eb2b554d86e11847da205dd2f3381526020017f18bce3ed9ef21c85c49bae7ed20e5522a1312275c262b68dd854b84cf8a3f508815250816080015160048151811061082257610821612336565b5b602002602001018190525060405180604001604052807f264c152c47a0a94c583cc57bfe59f164ede5673d51b3eb8cf226bdd336ee354e81526020017f0e3511ba0b9aa6565c7faded32e2f2dbee74844c886c8a3bea8e8e87c2626835815250816080015160058151811061089a57610899612336565b5b602002602001018190525060405180604001604052807f153ecefd7044de6637e8485c6580109d54690e26303dbce2cf47eea1e9b531a081526020017f088a78674503f8d575fb5e83a85ea3eed0fa278b210d001116feea2caac274f1815250816080015160068151811061091257610911612336565b5b602002602001018190525060405180604001604052807f0f5d3f192f4af7a753ea3f799b560a5828ed21d10ea3b446186f11ec984c6d4c81526020017f2f053344241a55e0155098f93f518d3456cd6e8920cd04fd1002b3bb80dced9c815250816080015160078151811061098a57610989612336565b5b602002602001018190525060405180604001604052807f248b8ed7ab6976340153a956808103cd5b97cf5cf3b445a38c9e13de773f013381526020017f05f73a367ac56770a0ca8ed9268e8b11acaa2e39c3db6333c597bb21e9ac7d4c8152508160800151600881518110610a0257610a01612336565b5b602002602001018190525060405180604001604052807f100edea5a4595eb09b8cd5f4206354acc297bb203900ed4fe0a32046a73a508c81526020017f024c29ae50bd0c941dfba7fe9bcf2d97e593ec84195852f3beb689fd9873fd628152508160800151600981518110610a7a57610a79612336565b5b602002602001018190525060405180604001604052807f0c142a6ee4666975adf5ea2c787927fc281084ff88698ab17e2a74d34f73d5df81526020017f2283c79c85cac4359e7689a3094fb367f7a9b2ce1ffa1d9047af1159b220a5fb8152508160800151600a81518110610af257610af1612336565b5b602002602001018190525060405180604001604052807f05b8c3057af41a9331497bbc05a03925bf9d653127c53e50e9662fda45a73aa481526020017f0490dfcc2e3c792c2cedfed3245b203a349dc3311780547e87b476250b589a8e8152508160800151600b81518110610b6a57610b69612336565b5b602002602001018190525060405180604001604052807f2ede49217193cf92b82ed61b8abfb6ad1485481c2a21019aece206603d47427881526020017f28336d9709e72acd818153fc1225ec204d2b7a756b1a73760532727f36e25c508152508160800151600c81518110610be257610be1612336565b5b602002602001018190525060405180604001604052807f02dee14024f2c8d9a6cd34d82d74418d582434a75069430745fdaf238139cb4981526020017f0eb3512f56ae89d88fb72e4c7c3492c43f75dbfa56c1f037b8abc546e735c3bc8152508160800151600d81518110610c5a57610c59612336565b5b602002602001018190525060405180604001604052807f06165aa373ab626f5926f07e09587f4a2632ea7b5cf1edafd8a07e91d40fe2b381526020017f2a9baac92791e6e4a676dda2ab0990f6a7234e67c0fa11a0cd0c4e76be724a158152508160800151600e81518110610cd257610cd1612336565b5b602002602001018190525060405180604001604052807f097c1c400d1e82ad8bb62deaba0893f205c7bf815862bc12bdb00223ef5ab3eb81526020017f1f03bd81e810b991c095fcd822d54cd07ae45d01c32fc02b515331f685c3cceb8152508160800151600f81518110610d4a57610d49612336565b5b602002602001018190525060405180604001604052807f290d04fff212f268cc6544d8d60d452233ef7118519ac7e81879d8278a8039c581526020017f133d49b4ff993040bf66e0d7958b2cb4b6dae64065083f7fe606fe338d8814788152508160800151601081518110610dc257610dc1612336565b5b602002602001018190525060405180604001604052807f19d983664c236935647037c94fbdee36f5aeb9adcc5a4ce4fb40fbf212fb857581526020017f180d54c8a3d5ec0fa6e30a6108f14089be48828079fe10f6872b72c8c4c7faf88152508160800151601181518110610e3a57610e39612336565b5b602002602001018190525060405180604001604052807f1d8b2085f333c7dbc6e5d2bbd2bce114e6e5108aaac4059cc536e7ec5bf7ef7481526020017f1356c793e2e6794fa5e9a780893177bf39a38ac53eacc5adf526ed11944a77f38152508160800151601281518110610eb257610eb1612336565b5b602002602001018190525060405180604001604052807f2d403f8bf3d04339662098f3bd249b4d527aadffa48b91017cc2e612a5f9cbde81526020017f21ff7d19716f78004e0dee01def1b4280df7f1687b7ff689e27a1474e53b6e268152508160800151601381518110610f2a57610f29612336565b5b602002602001018190525060405180604001604052807f1a21a1c67fac300309783a5e6e901a23bca77967892099a11ab97c2af82cd15281526020017f06871456744cbc9d0ccee1e0eaf32910b827e7d5ea752fab4035696248fb9f7c8152508160800151601481518110610fa257610fa1612336565b5b602002602001018190525060405180604001604052807f18d6f0a06e2e51a63b1a1f6e3c1322cf6733ee7b71a97b1710902fe11009fa6281526020017f067223512f6a145c9b1b3e9477a86c3b919af782e82062304a25eba2198e5425815250816080015160158151811061101a57611019612336565b5b602002602001018190525060405180604001604052807f281e5a721a7b2089ded6f571bbfd626b43a7a89c13e43c31016a77c255fd9ceb81526020017f12ac41adc09f8b58e070d11427443579b1130dbabe7b917bf4233ca04be1e2cb815250816080015160168151811061109257611091612336565b5b602002602001018190525060405180604001604052807f09927a93362a656a1edf6eb9ab3e2d0aaad1739d963bc6006d29faddf2319c3081526020017f05f711159f8ec77cae2a7024b3a0c87c60a729b6e500e7a9062a4d7f1900ffda815250816080015160178151811061110a57611109612336565b5b602002602001018190525060405180604001604052807f0d3a3aa4939c54d4a2969b82d7fe887292abbbf97c8cacf11ef627af26f5524981526020017f015d52ea4de2aab02c1b368b39ce4a29e22be80ee5303d255336abc943075daf815250816080015160188151811061118257611181612336565b5b602002602001018190525060405180604001604052807f23720766db07869b28a9e56828fe077a44823cfcf38c7f2067c9cbe0bbf8a2e381526020017f1fa3617ceda16f3430c5eac9dc0a0804b76de5ddd13b18eb363f8b79970f248881525081608001516019815181106111fa576111f9612336565b5b602002602001018190525060405180604001604052807f0339fd49153de4b518c81f41c9d3b6e26f7fb5c04376809aa73cf136d0b31d6381526020017f057eda5fe20151b9c2968d88caadb95ae55fa08e4e08cea60af3daf50b2eaba08152508160800151601a8151811061127257611271612336565b5b602002602001018190525060405180604001604052807f2f21fa3bf197c3c5705992014d735584b103d2f1afc16e59909dd219e0dd265881526020017f10ef793ea0cf315ce09413fceb535e456c53226bbd1517ff56f6d156423054868152508160800151601b815181106112ea576112e9612336565b5b602002602001018190525060405180604001604052807f284e354e590341d41ab0dce79c54d0893264de6dfbf0bc55f5a8aa93334b3b7a81526020017f054881b94faf9c2922a2b2e03172ac3aa6be6330611c841cc7d7951a745c3cab8152508160800151601c8151811061136257611361612336565b5b602002602001018190525060405180604001604052807f227333b130805633fcf82b73ce18c252a331a1a276af73821e609a93d2cd6eea81526020017f066e1e65b26b67cd60dc737d00613d91e4d3467d463186c9eac4f92dcaeba9b38152508160800151601d815181106113da576113d9612336565b5b602002602001018190525060405180604001604052807f0f6de914601575b0ce472c583a73af6df2af9e6691f07f511030e97966d1174e81526020017f279a582c4af9ad3e426c5337b2c3d53641199c757528f41102d20235ecbca2f48152508160800151601e8151811061145257611451612336565b5b602002602001018190525060405180604001604052807f03df20cace11d046cc9ce0155659e0c2d7fbfd52f208def0858d26ab257438d981526020017f1b80cea26b93b76a613a181755c9290fd9bd421c3c30ab61500c8cc34b5cf5b98152508160800151601f815181106114ca576114c9612336565b5b602002602001018190525060405180604001604052807f1052f5eaf9664b45b32f7d026b2451d9eec6235d057a128ab61a156a0ec726ed81526020017f2edd3531e416acbf922e8a7f8c5f766aacdc8cd437caff568bf11c65c9360875815250816080015160208151811061154257611541612336565b5b602002602001018190525060405180604001604052807f1d7b1bbe68b78bb941bc429f4e26b99255ba58b20ddb9b5bc3412897d89a074081526020017f0a9cf1ac405aef37867b3d0e4efe733fae8afde0b9bc4be1fca31e5283a2deba81525081608001516021815181106115ba576115b9612336565b5b602002602001018190525090565b6115d0611d50565b6115d8611d6a565b8360000151816000600381106115f1576115f0612336565b5b60200201818152505083602001518160016003811061161357611612612336565b5b602002018181525050828160026003811061163157611630612336565b5b602002018181525050600060608360808460076107d05a03fa9050806000811461165a5761165c565bfe5b508061166757600080fd5b505092915050565b611677611d50565b61167f611d8c565b83600001518160006004811061169857611697612336565b5b6020020181815250508360200151816001600481106116ba576116b9612336565b5b6020020181815250508260000151816002600481106116dc576116db612336565b5b6020020181815250508260200151816003600481106116fe576116fd612336565b5b602002018181525050600060608360c08460066107d05a03fa9050806000811461172757611729565bfe5b508061173457600080fd5b505092915050565b611744611d50565b60007f30644e72e131a029b85045b68181585d97816a916871ca8d3c208c16d87cfd47905060008360000151148015611781575060008360200151145b156117a55760405180604001604052806000815260200160008152509150506117dc565b6040518060400160405280846000015181526020018285602001516117ca91906122a7565b836117d591906121e3565b8152509150505b919050565b600080600467ffffffffffffffff8111156117ff576117fe612365565b5b60405190808252806020026020018201604052801561183857816020015b611825611d50565b81526020019060019003908161181d5790505b5090506000600467ffffffffffffffff81111561185857611857612365565b5b60405190808252806020026020018201604052801561189157816020015b61187e611dae565b8152602001906001900390816118765790505b5090508a826000815181106118a9576118a8612336565b5b602002602001018190525088826001815181106118c9576118c8612336565b5b602002602001018190525086826002815181106118e9576118e8612336565b5b6020026020010181905250848260038151811061190957611908612336565b5b6020026020010181905250898160008151811061192957611928612336565b5b6020026020010181905250878160018151811061194957611948612336565b5b6020026020010181905250858160028151811061196957611968612336565b5b6020026020010181905250838160038151811061198957611988612336565b5b602002602001018190525061199e82826119ae565b9250505098975050505050505050565b600081518351146119be57600080fd5b60008351905060006006826119d39190612189565b905060008167ffffffffffffffff8111156119f1576119f0612365565b5b604051908082528060200260200182016040528015611a1f5781602001602082028036833780820191505090505b50905060005b83811015611ca457868181518110611a4057611a3f612336565b5b602002602001015160000151826000600684611a5c9190612189565b611a669190612133565b81518110611a7757611a76612336565b5b602002602001018181525050868181518110611a9657611a95612336565b5b602002602001015160200151826001600684611ab29190612189565b611abc9190612133565b81518110611acd57611acc612336565b5b602002602001018181525050858181518110611aec57611aeb612336565b5b602002602001015160000151600160028110611b0b57611b0a612336565b5b6020020151826002600684611b209190612189565b611b2a9190612133565b81518110611b3b57611b3a612336565b5b602002602001018181525050858181518110611b5a57611b59612336565b5b602002602001015160000151600060028110611b7957611b78612336565b5b6020020151826003600684611b8e9190612189565b611b989190612133565b81518110611ba957611ba8612336565b5b602002602001018181525050858181518110611bc857611bc7612336565b5b602002602001015160200151600160028110611be757611be6612336565b5b6020020151826004600684611bfc9190612189565b611c069190612133565b81518110611c1757611c16612336565b5b602002602001018181525050858181518110611c3657611c35612336565b5b602002602001015160200151600060028110611c5557611c54612336565b5b6020020151826005600684611c6a9190612189565b611c749190612133565b81518110611c8557611c84612336565b5b6020026020010181815250508080611c9c9061225e565b915050611a25565b50611cad611dd4565b6000602082602086026020860160086107d05a03fa90508060008114611cd257611cd4565bfe5b5080611cdf57600080fd5b600082600060018110611cf557611cf4612336565b5b602002015114159550505050505092915050565b6040518060a00160405280611d1c611d50565b8152602001611d29611dae565b8152602001611d36611dae565b8152602001611d43611dae565b8152602001606081525090565b604051806040016040528060008152602001600081525090565b6040518060600160405280600390602082028036833780820191505090505090565b6040518060800160405280600490602082028036833780820191505090505090565b6040518060400160405280611dc1611df6565b8152602001611dce611df6565b81525090565b6040518060200160405280600190602082028036833780820191505090505090565b6040518060400160405280600290602082028036833780820191505090505090565b6000611e2b611e26846120e7565b6120c2565b90508082856020860282011115611e4557611e4461239e565b5b60005b85811015611e755781611e5b8882612041565b845260208401935060208301925050600181019050611e48565b5050509392505050565b6000611e92611e8d8461210d565b6120c2565b90508082856020860282011115611eac57611eab61239e565b5b60005b85811015611edc5781611ec28882612041565b845260208401935060208301925050600181019050611eaf565b5050509392505050565b600082601f830112611efb57611efa612394565b5b6002611f08848285611e18565b91505092915050565b600082601f830112611f2657611f25612394565b5b6021611f33848285611e7f565b91505092915050565b600060408284031215611f5257611f51612399565b5b611f5c60406120c2565b90506000611f6c84828501612041565b6000830152506020611f8084828501612041565b60208301525092915050565b600060808284031215611fa257611fa1612399565b5b611fac60406120c2565b90506000611fbc84828501611ee6565b6000830152506040611fd084828501611ee6565b60208301525092915050565b60006101008284031215611ff357611ff2612399565b5b611ffd60606120c2565b9050600061200d84828501611f3c565b600083015250604061202184828501611f8c565b60208301525060c061203584828501611f3c565b60408301525092915050565b600081359050612050816123b9565b92915050565b600080610520838503121561206e5761206d6123a3565b5b600061207c85828601611fdc565b92505061010061208e85828601611f11565b9150509250929050565b6120a181612217565b82525050565b60006020820190506120bc6000830184612098565b92915050565b60006120cc6120dd565b90506120d8828261222d565b919050565b6000604051905090565b600067ffffffffffffffff82111561210257612101612365565b5b602082029050919050565b600067ffffffffffffffff82111561212857612127612365565b5b602082029050919050565b600061213e82612223565b915061214983612223565b9250827fffffffffffffffffffffffffffffffffffffffffffffffffffffffffffffffff0382111561217e5761217d6122d8565b5b828201905092915050565b600061219482612223565b915061219f83612223565b9250817fffffffffffffffffffffffffffffffffffffffffffffffffffffffffffffffff04831182151516156121d8576121d76122d8565b5b828202905092915050565b60006121ee82612223565b91506121f983612223565b92508282101561220c5761220b6122d8565b5b828203905092915050565b60008115159050919050565b6000819050919050565b612236826123a8565b810181811067ffffffffffffffff8211171561225557612254612365565b5b80604052505050565b600061226982612223565b91507fffffffffffffffffffffffffffffffffffffffffffffffffffffffffffffffff82141561229c5761229b6122d8565b5b600182019050919050565b60006122b282612223565b91506122bd83612223565b9250826122cd576122cc612307565b5b828206905092915050565b7f4e487b7100000000000000000000000000000000000000000000000000000000600052601160045260246000fd5b7f4e487b7100000000000000000000000000000000000000000000000000000000600052601260045260246000fd5b7f4e487b7100000000000000000000000000000000000000000000000000000000600052603260045260246000fd5b7f4e487b7100000000000000000000000000000000000000000000000000000000600052604160045260246000fd5b600080fd5b600080fd5b600080fd5b600080fd5b6000601f19601f8301169050919050565b6123c281612223565b81146123cd57600080fd5b5056fea2646970667358221220fb67c42228bc73623cf98ab49acdaaffa1ca5be89e0c27ad6fb294d2e0dbbe8d64736f6c63430008060033","opcodes":"PUSH1 0x80 PUSH1 0x40 MSTORE PUSH1 0x0 DUP1 PUSH1 0x8 PUSH2 0x100 EXP DUP2 SLOAD DUP2 PUSH4 0xFFFFFFFF MUL NOT AND SWAP1 DUP4 PUSH4 0xFFFFFFFF AND MUL OR SWAP1 SSTORE POP PUSH1 0x0 PUSH1 0x2 SSTORE PUSH1 0x0 PUSH1 0x3 SSTORE PUSH1 0x40 MLOAD PUSH3 0x3D SWAP1 PUSH3 0x283 JUMP JUMPDEST PUSH1 0x40 MLOAD DUP1 SWAP2 SUB SWAP1 PUSH1 0x0 CREATE DUP1 ISZERO DUP1 ISZERO PUSH3 0x5A JUMPI RETURNDATASIZE PUSH1 0x0 DUP1 RETURNDATACOPY RETURNDATASIZE PUSH1 0x0 REVERT JUMPDEST POP PUSH1 0x5 PUSH1 0x0 PUSH2 0x100 EXP DUP2 SLOAD DUP2 PUSH20 0xFFFFFFFFFFFFFFFFFFFFFFFFFFFFFFFFFFFFFFFF MUL NOT AND SWAP1 DUP4 PUSH20 0xFFFFFFFFFFFFFFFFFFFFFFFFFFFFFFFFFFFFFFFF AND MUL OR SWAP1 SSTORE POP PUSH1 0x40 MLOAD PUSH3 0xA9 SWAP1 PUSH3 0x291 JUMP JUMPDEST PUSH1 0x40 MLOAD DUP1 SWAP2 SUB SWAP1 PUSH1 0x0 CREATE DUP1 ISZERO DUP1 ISZERO PUSH3 0xC6 JUMPI RETURNDATASIZE PUSH1 0x0 DUP1 RETURNDATACOPY RETURNDATASIZE PUSH1 0x0 REVERT JUMPDEST POP PUSH1 0x6 PUSH1 0x0 PUSH2 0x100 EXP DUP2 SLOAD DUP2 PUSH20 0xFFFFFFFFFFFFFFFFFFFFFFFFFFFFFFFFFFFFFFFF MUL NOT AND SWAP1 DUP4 PUSH20 0xFFFFFFFFFFFFFFFFFFFFFFFFFFFFFFFFFFFFFFFF AND MUL OR SWAP1 SSTORE POP CALLVALUE DUP1 ISZERO PUSH3 0x114 JUMPI PUSH1 0x0 DUP1 REVERT JUMPDEST POP PUSH1 0x40 MLOAD PUSH3 0x8E5C CODESIZE SUB DUP1 PUSH3 0x8E5C DUP4 CODECOPY DUP2 DUP2 ADD PUSH1 0x40 MSTORE DUP2 ADD SWAP1 PUSH3 0x13A SWAP2 SWAP1 PUSH3 0x331 JUMP JUMPDEST CALLER PUSH1 0x7 PUSH1 0x0 PUSH2 0x100 EXP DUP2 SLOAD DUP2 PUSH20 0xFFFFFFFFFFFFFFFFFFFFFFFFFFFFFFFFFFFFFFFF MUL NOT AND SWAP1 DUP4 PUSH20 0xFFFFFFFFFFFFFFFFFFFFFFFFFFFFFFFFFFFFFFFF AND MUL OR SWAP1 SSTORE POP PUSH1 0x4 PUSH1 0x7 PUSH1 0x0 SWAP1 SLOAD SWAP1 PUSH2 0x100 EXP SWAP1 DIV PUSH20 0xFFFFFFFFFFFFFFFFFFFFFFFFFFFFFFFFFFFFFFFF AND SWAP1 DUP1 PUSH1 0x1 DUP2 SLOAD ADD DUP1 DUP3 SSTORE DUP1 SWAP2 POP POP PUSH1 0x1 SWAP1 SUB SWAP1 PUSH1 0x0 MSTORE PUSH1 0x20 PUSH1 0x0 KECCAK256 ADD PUSH1 0x0 SWAP1 SWAP2 SWAP1 SWAP2 SWAP1 SWAP2 PUSH2 0x100 EXP DUP2 SLOAD DUP2 PUSH20 0xFFFFFFFFFFFFFFFFFFFFFFFFFFFFFFFFFFFFFFFF MUL NOT AND SWAP1 DUP4 PUSH20 0xFFFFFFFFFFFFFFFFFFFFFFFFFFFFFFFFFFFFFFFF AND MUL OR SWAP1 SSTORE POP DUP3 PUSH1 0x0 DUP1 PUSH2 0x100 EXP DUP2 SLOAD DUP2 PUSH4 0xFFFFFFFF MUL NOT AND SWAP1 DUP4 PUSH4 0xFFFFFFFF AND MUL OR SWAP1 SSTORE POP DUP4 PUSH1 0x0 PUSH1 0x4 PUSH2 0x100 EXP DUP2 SLOAD DUP2 PUSH4 0xFFFFFFFF MUL NOT AND SWAP1 DUP4 PUSH4 0xFFFFFFFF AND MUL OR SWAP1 SSTORE POP PUSH1 0x40 MLOAD DUP1 PUSH1 0x40 ADD PUSH1 0x40 MSTORE DUP1 PUSH1 0x0 DUP2 MSTORE PUSH1 0x20 ADD PUSH1 0x1 DUP2 MSTORE POP PUSH1 0x8 SWAP1 PUSH1 0x2 PUSH3 0x26A SWAP3 SWAP2 SWAP1 PUSH3 0x29F JUMP JUMPDEST POP DUP2 PUSH1 0x2 DUP2 SWAP1 SSTORE POP DUP1 PUSH1 0x3 DUP2 SWAP1 SSTORE POP POP POP POP POP PUSH3 0x3F6 JUMP JUMPDEST PUSH2 0x1FEB DUP1 PUSH3 0x4A4B DUP4 CODECOPY ADD SWAP1 JUMP JUMPDEST PUSH2 0x2426 DUP1 PUSH3 0x6A36 DUP4 CODECOPY ADD SWAP1 JUMP JUMPDEST DUP3 PUSH1 0x2 DUP2 ADD SWAP3 DUP3 ISZERO PUSH3 0x2D1 JUMPI SWAP2 PUSH1 0x20 MUL DUP3 ADD JUMPDEST DUP3 DUP2 GT ISZERO PUSH3 0x2D0 JUMPI DUP3 MLOAD DUP3 SSTORE SWAP2 PUSH1 0x20 ADD SWAP2 SWAP1 PUSH1 0x1 ADD SWAP1 PUSH3 0x2B3 JUMP JUMPDEST JUMPDEST POP SWAP1 POP PUSH3 0x2E0 SWAP2 SWAP1 PUSH3 0x2E4 JUMP JUMPDEST POP SWAP1 JUMP JUMPDEST JUMPDEST DUP1 DUP3 GT ISZERO PUSH3 0x2FF JUMPI PUSH1 0x0 DUP2 PUSH1 0x0 SWAP1 SSTORE POP PUSH1 0x1 ADD PUSH3 0x2E5 JUMP JUMPDEST POP SWAP1 JUMP JUMPDEST PUSH1 0x0 DUP2 MLOAD SWAP1 POP PUSH3 0x314 DUP2 PUSH3 0x3C2 JUMP JUMPDEST SWAP3 SWAP2 POP POP JUMP JUMPDEST PUSH1 0x0 DUP2 MLOAD SWAP1 POP PUSH3 0x32B DUP2 PUSH3 0x3DC JUMP JUMPDEST SWAP3 SWAP2 POP POP JUMP JUMPDEST PUSH1 0x0 DUP1 PUSH1 0x0 DUP1 PUSH1 0x80 DUP6 DUP8 SUB SLT ISZERO PUSH3 0x34E JUMPI PUSH3 0x34D PUSH3 0x3BD JUMP JUMPDEST JUMPDEST PUSH1 0x0 PUSH3 0x35E DUP8 DUP3 DUP9 ADD PUSH3 0x31A JUMP JUMPDEST SWAP5 POP POP PUSH1 0x20 PUSH3 0x371 DUP8 DUP3 DUP9 ADD PUSH3 0x31A JUMP JUMPDEST SWAP4 POP POP PUSH1 0x40 PUSH3 0x384 DUP8 DUP3 DUP9 ADD PUSH3 0x303 JUMP JUMPDEST SWAP3 POP POP PUSH1 0x60 PUSH3 0x397 DUP8 DUP3 DUP9 ADD PUSH3 0x303 JUMP JUMPDEST SWAP2 POP POP SWAP3 SWAP6 SWAP2 SWAP5 POP SWAP3 POP JUMP JUMPDEST PUSH1 0x0 DUP2 SWAP1 POP SWAP2 SWAP1 POP JUMP JUMPDEST PUSH1 0x0 PUSH4 0xFFFFFFFF DUP3 AND SWAP1 POP SWAP2 SWAP1 POP JUMP JUMPDEST PUSH1 0x0 DUP1 REVERT JUMPDEST PUSH3 0x3CD DUP2 PUSH3 0x3A3 JUMP JUMPDEST DUP2 EQ PUSH3 0x3D9 JUMPI PUSH1 0x0 DUP1 REVERT JUMPDEST POP JUMP JUMPDEST PUSH3 0x3E7 DUP2 PUSH3 0x3AD JUMP JUMPDEST DUP2 EQ PUSH3 0x3F3 JUMPI PUSH1 0x0 DUP1 REVERT JUMPDEST POP JUMP JUMPDEST PUSH2 0x4645 DUP1 PUSH3 0x406 PUSH1 0x0 CODECOPY PUSH1 0x0 RETURN INVALID PUSH1 0x80 PUSH1 0x40 MSTORE PUSH1 0x4 CALLDATASIZE LT PUSH2 0xDD JUMPI PUSH1 0x0 CALLDATALOAD PUSH1 0xE0 SHR DUP1 PUSH4 0x8479E0D3 GT PUSH2 0x7F JUMPI DUP1 PUSH4 0xA261B04A GT PUSH2 0x59 JUMPI DUP1 PUSH4 0xA261B04A EQ PUSH2 0x2C5 JUMPI DUP1 PUSH4 0xBDB900FD EQ PUSH2 0x2DC JUMPI DUP1 PUSH4 0xDBCB1C44 EQ PUSH2 0x305 JUMPI DUP1 PUSH4 0xEF5349D3 EQ PUSH2 0x342 JUMPI PUSH2 0xDD JUMP JUMPDEST DUP1 PUSH4 0x8479E0D3 EQ PUSH2 0x244 JUMPI DUP1 PUSH4 0x85871E49 EQ PUSH2 0x26F JUMPI DUP1 PUSH4 0x89E3B0E5 EQ PUSH2 0x29A JUMPI PUSH2 0xDD JUMP JUMPDEST DUP1 PUSH4 0x1F1895D0 GT PUSH2 0xBB JUMPI DUP1 PUSH4 0x1F1895D0 EQ PUSH2 0x185 JUMPI DUP1 PUSH4 0x3470F117 EQ PUSH2 0x1A1 JUMPI DUP1 PUSH4 0x3DE222EC EQ PUSH2 0x1DE JUMPI DUP1 PUSH4 0x6B437D3C EQ PUSH2 0x21B JUMPI PUSH2 0xDD JUMP JUMPDEST DUP1 PUSH4 0x5DB8C5A EQ PUSH2 0xE2 JUMPI DUP1 PUSH4 0xB9180C5 EQ PUSH2 0x10B JUMPI DUP1 PUSH4 0x1C0B0B58 EQ PUSH2 0x148 JUMPI JUMPDEST PUSH1 0x0 DUP1 REVERT JUMPDEST CALLVALUE DUP1 ISZERO PUSH2 0xEE JUMPI PUSH1 0x0 DUP1 REVERT JUMPDEST POP PUSH2 0x109 PUSH1 0x4 DUP1 CALLDATASIZE SUB DUP2 ADD SWAP1 PUSH2 0x104 SWAP2 SWAP1 PUSH2 0x365C JUMP JUMPDEST PUSH2 0x37F JUMP JUMPDEST STOP JUMPDEST CALLVALUE DUP1 ISZERO PUSH2 0x117 JUMPI PUSH1 0x0 DUP1 REVERT JUMPDEST POP PUSH2 0x132 PUSH1 0x4 DUP1 CALLDATASIZE SUB DUP2 ADD SWAP1 PUSH2 0x12D SWAP2 SWAP1 PUSH2 0x396C JUMP JUMPDEST PUSH2 0x4ED JUMP JUMPDEST PUSH1 0x40 MLOAD PUSH2 0x13F SWAP2 SWAP1 PUSH2 0x3E3E JUMP JUMPDEST PUSH1 0x40 MLOAD DUP1 SWAP2 SUB SWAP1 RETURN JUMPDEST CALLVALUE DUP1 ISZERO PUSH2 0x154 JUMPI PUSH1 0x0 DUP1 REVERT JUMPDEST POP PUSH2 0x16F PUSH1 0x4 DUP1 CALLDATASIZE SUB DUP2 ADD SWAP1 PUSH2 0x16A SWAP2 SWAP1 PUSH2 0x396C JUMP JUMPDEST PUSH2 0x5AA JUMP JUMPDEST PUSH1 0x40 MLOAD PUSH2 0x17C SWAP2 SWAP1 PUSH2 0x3E3E JUMP JUMPDEST PUSH1 0x40 MLOAD DUP1 SWAP2 SUB SWAP1 RETURN JUMPDEST PUSH2 0x19F PUSH1 0x4 DUP1 CALLDATASIZE SUB DUP2 ADD SWAP1 PUSH2 0x19A SWAP2 SWAP1 PUSH2 0x39B5 JUMP JUMPDEST PUSH2 0x667 JUMP JUMPDEST STOP JUMPDEST CALLVALUE DUP1 ISZERO PUSH2 0x1AD JUMPI PUSH1 0x0 DUP1 REVERT JUMPDEST POP PUSH2 0x1C8 PUSH1 0x4 DUP1 CALLDATASIZE SUB DUP2 ADD SWAP1 PUSH2 0x1C3 SWAP2 SWAP1 PUSH2 0x396C JUMP JUMPDEST PUSH2 0x743 JUMP JUMPDEST PUSH1 0x40 MLOAD PUSH2 0x1D5 SWAP2 SWAP1 PUSH2 0x3F31 JUMP JUMPDEST PUSH1 0x40 MLOAD DUP1 SWAP2 SUB SWAP1 RETURN JUMPDEST CALLVALUE DUP1 ISZERO PUSH2 0x1EA JUMPI PUSH1 0x0 DUP1 REVERT JUMPDEST POP PUSH2 0x205 PUSH1 0x4 DUP1 CALLDATASIZE SUB DUP2 ADD SWAP1 PUSH2 0x200 SWAP2 SWAP1 PUSH2 0x39B5 JUMP JUMPDEST PUSH2 0x77B JUMP JUMPDEST PUSH1 0x40 MLOAD PUSH2 0x212 SWAP2 SWAP1 PUSH2 0x3F16 JUMP JUMPDEST PUSH1 0x40 MLOAD DUP1 SWAP2 SUB SWAP1 RETURN JUMPDEST CALLVALUE DUP1 ISZERO PUSH2 0x227 JUMPI PUSH1 0x0 DUP1 REVERT JUMPDEST POP PUSH2 0x242 PUSH1 0x4 DUP1 CALLDATASIZE SUB DUP2 ADD SWAP1 PUSH2 0x23D SWAP2 SWAP1 PUSH2 0x3689 JUMP JUMPDEST PUSH2 0x796 JUMP JUMPDEST STOP JUMPDEST CALLVALUE DUP1 ISZERO PUSH2 0x250 JUMPI PUSH1 0x0 DUP1 REVERT JUMPDEST POP PUSH2 0x259 PUSH2 0xED7 JUMP JUMPDEST PUSH1 0x40 MLOAD PUSH2 0x266 SWAP2 SWAP1 PUSH2 0x3F31 JUMP JUMPDEST PUSH1 0x40 MLOAD DUP1 SWAP2 SUB SWAP1 RETURN JUMPDEST CALLVALUE DUP1 ISZERO PUSH2 0x27B JUMPI PUSH1 0x0 DUP1 REVERT JUMPDEST POP PUSH2 0x284 PUSH2 0xEED JUMP JUMPDEST PUSH1 0x40 MLOAD PUSH2 0x291 SWAP2 SWAP1 PUSH2 0x3F31 JUMP JUMPDEST PUSH1 0x40 MLOAD DUP1 SWAP2 SUB SWAP1 RETURN JUMPDEST CALLVALUE DUP1 ISZERO PUSH2 0x2A6 JUMPI PUSH1 0x0 DUP1 REVERT JUMPDEST POP PUSH2 0x2AF PUSH2 0xF01 JUMP JUMPDEST PUSH1 0x40 MLOAD PUSH2 0x2BC SWAP2 SWAP1 PUSH2 0x3F31 JUMP JUMPDEST PUSH1 0x40 MLOAD DUP1 SWAP2 SUB SWAP1 RETURN JUMPDEST CALLVALUE DUP1 ISZERO PUSH2 0x2D1 JUMPI PUSH1 0x0 DUP1 REVERT JUMPDEST POP PUSH2 0x2DA PUSH2 0xF17 JUMP JUMPDEST STOP JUMPDEST CALLVALUE DUP1 ISZERO PUSH2 0x2E8 JUMPI PUSH1 0x0 DUP1 REVERT JUMPDEST POP PUSH2 0x303 PUSH1 0x4 DUP1 CALLDATASIZE SUB DUP2 ADD SWAP1 PUSH2 0x2FE SWAP2 SWAP1 PUSH2 0x37E4 JUMP JUMPDEST PUSH2 0x113C JUMP JUMPDEST STOP JUMPDEST CALLVALUE DUP1 ISZERO PUSH2 0x311 JUMPI PUSH1 0x0 DUP1 REVERT JUMPDEST POP PUSH2 0x32C PUSH1 0x4 DUP1 CALLDATASIZE SUB DUP2 ADD SWAP1 PUSH2 0x327 SWAP2 SWAP1 PUSH2 0x396C JUMP JUMPDEST PUSH2 0x221E JUMP JUMPDEST PUSH1 0x40 MLOAD PUSH2 0x339 SWAP2 SWAP1 PUSH2 0x3E3E JUMP JUMPDEST PUSH1 0x40 MLOAD DUP1 SWAP2 SUB SWAP1 RETURN JUMPDEST CALLVALUE DUP1 ISZERO PUSH2 0x34E JUMPI PUSH1 0x0 DUP1 REVERT JUMPDEST POP PUSH2 0x369 PUSH1 0x4 DUP1 CALLDATASIZE SUB DUP2 ADD SWAP1 PUSH2 0x364 SWAP2 SWAP1 PUSH2 0x396C JUMP JUMPDEST PUSH2 0x22DB JUMP JUMPDEST PUSH1 0x40 MLOAD PUSH2 0x376 SWAP2 SWAP1 PUSH2 0x3E3E JUMP JUMPDEST PUSH1 0x40 MLOAD DUP1 SWAP2 SUB SWAP1 RETURN JUMPDEST PUSH1 0x4 DUP2 SWAP1 DUP1 PUSH1 0x1 DUP2 SLOAD ADD DUP1 DUP3 SSTORE DUP1 SWAP2 POP POP PUSH1 0x1 SWAP1 SUB SWAP1 PUSH1 0x0 MSTORE PUSH1 0x20 PUSH1 0x0 KECCAK256 ADD PUSH1 0x0 SWAP1 SWAP2 SWAP1 SWAP2 SWAP1 SWAP2 PUSH2 0x100 EXP DUP2 SLOAD DUP2 PUSH20 0xFFFFFFFFFFFFFFFFFFFFFFFFFFFFFFFFFFFFFFFF MUL NOT AND SWAP1 DUP4 PUSH20 0xFFFFFFFFFFFFFFFFFFFFFFFFFFFFFFFFFFFFFFFF AND MUL OR SWAP1 SSTORE POP PUSH1 0x0 PUSH1 0xA PUSH1 0x0 DUP4 PUSH20 0xFFFFFFFFFFFFFFFFFFFFFFFFFFFFFFFFFFFFFFFF AND PUSH20 0xFFFFFFFFFFFFFFFFFFFFFFFFFFFFFFFFFFFFFFFF AND DUP2 MSTORE PUSH1 0x20 ADD SWAP1 DUP2 MSTORE PUSH1 0x20 ADD PUSH1 0x0 KECCAK256 PUSH1 0x0 PUSH2 0x100 EXP DUP2 SLOAD DUP2 PUSH1 0xFF MUL NOT AND SWAP1 DUP4 ISZERO ISZERO MUL OR SWAP1 SSTORE POP PUSH1 0x1 PUSH1 0x13 PUSH1 0x0 DUP4 PUSH20 0xFFFFFFFFFFFFFFFFFFFFFFFFFFFFFFFFFFFFFFFF AND PUSH20 0xFFFFFFFFFFFFFFFFFFFFFFFFFFFFFFFFFFFFFFFF AND DUP2 MSTORE PUSH1 0x20 ADD SWAP1 DUP2 MSTORE PUSH1 0x20 ADD PUSH1 0x0 KECCAK256 PUSH1 0x0 PUSH2 0x100 EXP DUP2 SLOAD DUP2 PUSH1 0xFF MUL NOT AND SWAP1 DUP4 ISZERO ISZERO MUL OR SWAP1 SSTORE POP PUSH1 0x0 PUSH1 0x14 PUSH1 0x0 DUP4 PUSH20 0xFFFFFFFFFFFFFFFFFFFFFFFFFFFFFFFFFFFFFFFF AND PUSH20 0xFFFFFFFFFFFFFFFFFFFFFFFFFFFFFFFFFFFFFFFF AND DUP2 MSTORE PUSH1 0x20 ADD SWAP1 DUP2 MSTORE PUSH1 0x20 ADD PUSH1 0x0 KECCAK256 PUSH1 0x0 PUSH2 0x100 EXP DUP2 SLOAD DUP2 PUSH1 0xFF MUL NOT AND SWAP1 DUP4 ISZERO ISZERO MUL OR SWAP1 SSTORE POP POP JUMP JUMPDEST PUSH1 0x60 PUSH1 0xE DUP3 PUSH1 0x40 MLOAD PUSH2 0x4FF SWAP2 SWAP1 PUSH2 0x3E10 JUMP JUMPDEST SWAP1 DUP2 MSTORE PUSH1 0x20 ADD PUSH1 0x40 MLOAD DUP1 SWAP2 SUB SWAP1 KECCAK256 DUP1 SLOAD DUP1 PUSH1 0x20 MUL PUSH1 0x20 ADD PUSH1 0x40 MLOAD SWAP1 DUP2 ADD PUSH1 0x40 MSTORE DUP1 SWAP3 SWAP2 SWAP1 DUP2 DUP2 MSTORE PUSH1 0x20 ADD PUSH1 0x0 SWAP1 JUMPDEST DUP3 DUP3 LT ISZERO PUSH2 0x59F JUMPI DUP4 DUP3 SWAP1 PUSH1 0x0 MSTORE PUSH1 0x20 PUSH1 0x0 KECCAK256 ADD DUP1 SLOAD DUP1 PUSH1 0x20 MUL PUSH1 0x20 ADD PUSH1 0x40 MLOAD SWAP1 DUP2 ADD PUSH1 0x40 MSTORE DUP1 SWAP3 SWAP2 SWAP1 DUP2 DUP2 MSTORE PUSH1 0x20 ADD DUP3 DUP1 SLOAD DUP1 ISZERO PUSH2 0x58B JUMPI PUSH1 0x20 MUL DUP3 ADD SWAP2 SWAP1 PUSH1 0x0 MSTORE PUSH1 0x20 PUSH1 0x0 KECCAK256 SWAP1 JUMPDEST DUP2 SLOAD DUP2 MSTORE PUSH1 0x20 ADD SWAP1 PUSH1 0x1 ADD SWAP1 DUP1 DUP4 GT PUSH2 0x577 JUMPI JUMPDEST POP POP POP POP POP DUP2 MSTORE PUSH1 0x20 ADD SWAP1 PUSH1 0x1 ADD SWAP1 PUSH2 0x52D JUMP JUMPDEST POP POP POP POP SWAP1 POP SWAP2 SWAP1 POP JUMP JUMPDEST PUSH1 0x60 PUSH1 0x10 DUP3 PUSH1 0x40 MLOAD PUSH2 0x5BC SWAP2 SWAP1 PUSH2 0x3E10 JUMP JUMPDEST SWAP1 DUP2 MSTORE PUSH1 0x20 ADD PUSH1 0x40 MLOAD DUP1 SWAP2 SUB SWAP1 KECCAK256 DUP1 SLOAD DUP1 PUSH1 0x20 MUL PUSH1 0x20 ADD PUSH1 0x40 MLOAD SWAP1 DUP2 ADD PUSH1 0x40 MSTORE DUP1 SWAP3 SWAP2 SWAP1 DUP2 DUP2 MSTORE PUSH1 0x20 ADD PUSH1 0x0 SWAP1 JUMPDEST DUP3 DUP3 LT ISZERO PUSH2 0x65C JUMPI DUP4 DUP3 SWAP1 PUSH1 0x0 MSTORE PUSH1 0x20 PUSH1 0x0 KECCAK256 ADD DUP1 SLOAD DUP1 PUSH1 0x20 MUL PUSH1 0x20 ADD PUSH1 0x40 MLOAD SWAP1 DUP2 ADD PUSH1 0x40 MSTORE DUP1 SWAP3 SWAP2 SWAP1 DUP2 DUP2 MSTORE PUSH1 0x20 ADD DUP3 DUP1 SLOAD DUP1 ISZERO PUSH2 0x648 JUMPI PUSH1 0x20 MUL DUP3 ADD SWAP2 SWAP1 PUSH1 0x0 MSTORE PUSH1 0x20 PUSH1 0x0 KECCAK256 SWAP1 JUMPDEST DUP2 SLOAD DUP2 MSTORE PUSH1 0x20 ADD SWAP1 PUSH1 0x1 ADD SWAP1 DUP1 DUP4 GT PUSH2 0x634 JUMPI JUMPDEST POP POP POP POP POP DUP2 MSTORE PUSH1 0x20 ADD SWAP1 PUSH1 0x1 ADD SWAP1 PUSH2 0x5EA JUMP JUMPDEST POP POP POP POP SWAP1 POP SWAP2 SWAP1 POP JUMP JUMPDEST PUSH1 0x3 SLOAD PUSH1 0x2 SLOAD PUSH2 0x677 SWAP2 SWAP1 PUSH2 0x417B JUMP JUMPDEST CALLVALUE EQ PUSH2 0x682 JUMPI PUSH1 0x0 DUP1 REVERT JUMPDEST PUSH1 0x0 PUSH2 0x68D DUP3 PUSH2 0x2398 JUMP JUMPDEST SWAP1 POP PUSH2 0x6D6 PUSH1 0x8 PUSH1 0x2 DUP1 PUSH1 0x20 MUL PUSH1 0x40 MLOAD SWAP1 DUP2 ADD PUSH1 0x40 MSTORE DUP1 SWAP3 SWAP2 SWAP1 DUP3 PUSH1 0x2 DUP1 ISZERO PUSH2 0x6CB JUMPI PUSH1 0x20 MUL DUP3 ADD SWAP2 JUMPDEST DUP2 SLOAD DUP2 MSTORE PUSH1 0x20 ADD SWAP1 PUSH1 0x1 ADD SWAP1 DUP1 DUP4 GT PUSH2 0x6B7 JUMPI JUMPDEST POP POP POP POP POP DUP3 PUSH2 0x2556 JUMP JUMPDEST PUSH1 0x8 SWAP1 PUSH1 0x2 PUSH2 0x6E6 SWAP3 SWAP2 SWAP1 PUSH2 0x2F19 JUMP JUMPDEST POP PUSH1 0x1 PUSH1 0x14 PUSH1 0x0 CALLER PUSH20 0xFFFFFFFFFFFFFFFFFFFFFFFFFFFFFFFFFFFFFFFF AND PUSH20 0xFFFFFFFFFFFFFFFFFFFFFFFFFFFFFFFFFFFFFFFF AND DUP2 MSTORE PUSH1 0x20 ADD SWAP1 DUP2 MSTORE PUSH1 0x20 ADD PUSH1 0x0 KECCAK256 PUSH1 0x0 PUSH2 0x100 EXP DUP2 SLOAD DUP2 PUSH1 0xFF MUL NOT AND SWAP1 DUP4 ISZERO ISZERO MUL OR SWAP1 SSTORE POP POP POP JUMP JUMPDEST PUSH1 0x0 PUSH1 0x12 DUP3 PUSH1 0x40 MLOAD PUSH2 0x755 SWAP2 SWAP1 PUSH2 0x3E10 JUMP JUMPDEST SWAP1 DUP2 MSTORE PUSH1 0x20 ADD PUSH1 0x40 MLOAD DUP1 SWAP2 SUB SWAP1 KECCAK256 PUSH1 0x0 SWAP1 SLOAD SWAP1 PUSH2 0x100 EXP SWAP1 DIV PUSH4 0xFFFFFFFF AND SWAP1 POP SWAP2 SWAP1 POP JUMP JUMPDEST PUSH1 0x8 DUP2 PUSH1 0x2 DUP2 LT PUSH2 0x78B JUMPI PUSH1 0x0 DUP1 REVERT JUMPDEST ADD PUSH1 0x0 SWAP2 POP SWAP1 POP SLOAD DUP2 JUMP JUMPDEST PUSH2 0x79E PUSH2 0x2F59 JUMP JUMPDEST PUSH1 0x40 MLOAD DUP1 PUSH1 0x60 ADD PUSH1 0x40 MSTORE DUP1 PUSH1 0x40 MLOAD DUP1 PUSH1 0x40 ADD PUSH1 0x40 MSTORE DUP1 DUP14 PUSH1 0x0 PUSH1 0x2 DUP2 LT PUSH2 0x7C8 JUMPI PUSH2 0x7C7 PUSH2 0x44A1 JUMP JUMPDEST JUMPDEST PUSH1 0x20 MUL ADD MLOAD DUP2 MSTORE PUSH1 0x20 ADD DUP14 PUSH1 0x1 PUSH1 0x2 DUP2 LT PUSH2 0x7E6 JUMPI PUSH2 0x7E5 PUSH2 0x44A1 JUMP JUMPDEST JUMPDEST PUSH1 0x20 MUL ADD MLOAD DUP2 MSTORE POP DUP2 MSTORE PUSH1 0x20 ADD PUSH1 0x40 MLOAD DUP1 PUSH1 0x40 ADD PUSH1 0x40 MSTORE DUP1 DUP13 PUSH1 0x0 PUSH1 0x2 DUP2 LT PUSH2 0x812 JUMPI PUSH2 0x811 PUSH2 0x44A1 JUMP JUMPDEST JUMPDEST PUSH1 0x20 MUL ADD MLOAD DUP2 MSTORE PUSH1 0x20 ADD DUP13 PUSH1 0x1 PUSH1 0x2 DUP2 LT PUSH2 0x830 JUMPI PUSH2 0x82F PUSH2 0x44A1 JUMP JUMPDEST JUMPDEST PUSH1 0x20 MUL ADD MLOAD DUP2 MSTORE POP DUP2 MSTORE PUSH1 0x20 ADD PUSH1 0x40 MLOAD DUP1 PUSH1 0x40 ADD PUSH1 0x40 MSTORE DUP1 DUP12 PUSH1 0x0 PUSH1 0x2 DUP2 LT PUSH2 0x85C JUMPI PUSH2 0x85B PUSH2 0x44A1 JUMP JUMPDEST JUMPDEST PUSH1 0x20 MUL ADD MLOAD DUP2 MSTORE PUSH1 0x20 ADD DUP12 PUSH1 0x1 PUSH1 0x2 DUP2 LT PUSH2 0x87A JUMPI PUSH2 0x879 PUSH2 0x44A1 JUMP JUMPDEST JUMPDEST PUSH1 0x20 MUL ADD MLOAD DUP2 MSTORE POP DUP2 MSTORE POP SWAP1 POP PUSH2 0x88F PUSH2 0x2F8C JUMP JUMPDEST PUSH1 0x0 DUP1 PUSH1 0x0 SWAP1 POP JUMPDEST PUSH1 0x6 DUP2 PUSH4 0xFFFFFFFF AND LT ISZERO PUSH2 0xC1C JUMPI PUSH1 0x0 JUMPDEST PUSH1 0x0 DUP1 SLOAD SWAP1 PUSH2 0x100 EXP SWAP1 DIV PUSH4 0xFFFFFFFF AND PUSH4 0xFFFFFFFF AND DUP2 PUSH4 0xFFFFFFFF AND LT ISZERO PUSH2 0xC08 JUMPI DUP1 DUP3 PUSH1 0x0 DUP1 SLOAD SWAP1 PUSH2 0x100 EXP SWAP1 DIV PUSH4 0xFFFFFFFF AND PUSH2 0x8EA SWAP2 SWAP1 PUSH2 0x420B JUMP JUMPDEST PUSH2 0x8F4 SWAP2 SWAP1 PUSH2 0x41D1 JUMP JUMPDEST SWAP3 POP PUSH1 0x0 DUP3 PUSH4 0xFFFFFFFF AND EQ ISZERO PUSH2 0x98A JUMPI PUSH1 0xD DUP7 PUSH1 0x40 MLOAD PUSH2 0x915 SWAP2 SWAP1 PUSH2 0x3E10 JUMP JUMPDEST SWAP1 DUP2 MSTORE PUSH1 0x20 ADD PUSH1 0x40 MLOAD DUP1 SWAP2 SUB SWAP1 KECCAK256 PUSH1 0x0 DUP2 SLOAD DUP2 LT PUSH2 0x936 JUMPI PUSH2 0x935 PUSH2 0x44A1 JUMP JUMPDEST JUMPDEST SWAP1 PUSH1 0x0 MSTORE PUSH1 0x20 PUSH1 0x0 KECCAK256 ADD DUP2 PUSH4 0xFFFFFFFF AND DUP2 SLOAD DUP2 LT PUSH2 0x958 JUMPI PUSH2 0x957 PUSH2 0x44A1 JUMP JUMPDEST JUMPDEST SWAP1 PUSH1 0x0 MSTORE PUSH1 0x20 PUSH1 0x0 KECCAK256 ADD SLOAD DUP5 DUP5 PUSH4 0xFFFFFFFF AND PUSH1 0x21 DUP2 LT PUSH2 0x97C JUMPI PUSH2 0x97B PUSH2 0x44A1 JUMP JUMPDEST JUMPDEST PUSH1 0x20 MUL ADD DUP2 DUP2 MSTORE POP POP PUSH2 0xBF5 JUMP JUMPDEST PUSH1 0x1 DUP3 PUSH4 0xFFFFFFFF AND EQ ISZERO PUSH2 0xA1E JUMPI PUSH1 0xF DUP7 PUSH1 0x40 MLOAD PUSH2 0x9A9 SWAP2 SWAP1 PUSH2 0x3E10 JUMP JUMPDEST SWAP1 DUP2 MSTORE PUSH1 0x20 ADD PUSH1 0x40 MLOAD DUP1 SWAP2 SUB SWAP1 KECCAK256 PUSH1 0x0 DUP2 SLOAD DUP2 LT PUSH2 0x9CA JUMPI PUSH2 0x9C9 PUSH2 0x44A1 JUMP JUMPDEST JUMPDEST SWAP1 PUSH1 0x0 MSTORE PUSH1 0x20 PUSH1 0x0 KECCAK256 ADD DUP2 PUSH4 0xFFFFFFFF AND DUP2 SLOAD DUP2 LT PUSH2 0x9EC JUMPI PUSH2 0x9EB PUSH2 0x44A1 JUMP JUMPDEST JUMPDEST SWAP1 PUSH1 0x0 MSTORE PUSH1 0x20 PUSH1 0x0 KECCAK256 ADD SLOAD DUP5 DUP5 PUSH4 0xFFFFFFFF AND PUSH1 0x21 DUP2 LT PUSH2 0xA10 JUMPI PUSH2 0xA0F PUSH2 0x44A1 JUMP JUMPDEST JUMPDEST PUSH1 0x20 MUL ADD DUP2 DUP2 MSTORE POP POP PUSH2 0xBF4 JUMP JUMPDEST PUSH1 0x2 DUP3 PUSH4 0xFFFFFFFF AND EQ ISZERO PUSH2 0xA75 JUMPI DUP11 DUP2 PUSH4 0xFFFFFFFF AND DUP2 MLOAD DUP2 LT PUSH2 0xA46 JUMPI PUSH2 0xA45 PUSH2 0x44A1 JUMP JUMPDEST JUMPDEST PUSH1 0x20 MUL PUSH1 0x20 ADD ADD MLOAD DUP5 DUP5 PUSH4 0xFFFFFFFF AND PUSH1 0x21 DUP2 LT PUSH2 0xA67 JUMPI PUSH2 0xA66 PUSH2 0x44A1 JUMP JUMPDEST JUMPDEST PUSH1 0x20 MUL ADD DUP2 DUP2 MSTORE POP POP PUSH2 0xBF3 JUMP JUMPDEST PUSH1 0x3 DUP3 PUSH4 0xFFFFFFFF AND EQ ISZERO PUSH2 0xB09 JUMPI PUSH1 0xE DUP7 PUSH1 0x40 MLOAD PUSH2 0xA94 SWAP2 SWAP1 PUSH2 0x3E10 JUMP JUMPDEST SWAP1 DUP2 MSTORE PUSH1 0x20 ADD PUSH1 0x40 MLOAD DUP1 SWAP2 SUB SWAP1 KECCAK256 PUSH1 0x0 DUP2 SLOAD DUP2 LT PUSH2 0xAB5 JUMPI PUSH2 0xAB4 PUSH2 0x44A1 JUMP JUMPDEST JUMPDEST SWAP1 PUSH1 0x0 MSTORE PUSH1 0x20 PUSH1 0x0 KECCAK256 ADD DUP2 PUSH4 0xFFFFFFFF AND DUP2 SLOAD DUP2 LT PUSH2 0xAD7 JUMPI PUSH2 0xAD6 PUSH2 0x44A1 JUMP JUMPDEST JUMPDEST SWAP1 PUSH1 0x0 MSTORE PUSH1 0x20 PUSH1 0x0 KECCAK256 ADD SLOAD DUP5 DUP5 PUSH4 0xFFFFFFFF AND PUSH1 0x21 DUP2 LT PUSH2 0xAFB JUMPI PUSH2 0xAFA PUSH2 0x44A1 JUMP JUMPDEST JUMPDEST PUSH1 0x20 MUL ADD DUP2 DUP2 MSTORE POP POP PUSH2 0xBF2 JUMP JUMPDEST PUSH1 0x4 DUP3 PUSH4 0xFFFFFFFF AND EQ ISZERO PUSH2 0xB9D JUMPI PUSH1 0x10 DUP7 PUSH1 0x40 MLOAD PUSH2 0xB28 SWAP2 SWAP1 PUSH2 0x3E10 JUMP JUMPDEST SWAP1 DUP2 MSTORE PUSH1 0x20 ADD PUSH1 0x40 MLOAD DUP1 SWAP2 SUB SWAP1 KECCAK256 PUSH1 0x0 DUP2 SLOAD DUP2 LT PUSH2 0xB49 JUMPI PUSH2 0xB48 PUSH2 0x44A1 JUMP JUMPDEST JUMPDEST SWAP1 PUSH1 0x0 MSTORE PUSH1 0x20 PUSH1 0x0 KECCAK256 ADD DUP2 PUSH4 0xFFFFFFFF AND DUP2 SLOAD DUP2 LT PUSH2 0xB6B JUMPI PUSH2 0xB6A PUSH2 0x44A1 JUMP JUMPDEST JUMPDEST SWAP1 PUSH1 0x0 MSTORE PUSH1 0x20 PUSH1 0x0 KECCAK256 ADD SLOAD DUP5 DUP5 PUSH4 0xFFFFFFFF AND PUSH1 0x21 DUP2 LT PUSH2 0xB8F JUMPI PUSH2 0xB8E PUSH2 0x44A1 JUMP JUMPDEST JUMPDEST PUSH1 0x20 MUL ADD DUP2 DUP2 MSTORE POP POP PUSH2 0xBF1 JUMP JUMPDEST PUSH1 0x5 DUP3 PUSH4 0xFFFFFFFF AND EQ ISZERO PUSH2 0xBF0 JUMPI DUP9 DUP2 PUSH4 0xFFFFFFFF AND DUP2 MLOAD DUP2 LT PUSH2 0xBC5 JUMPI PUSH2 0xBC4 PUSH2 0x44A1 JUMP JUMPDEST JUMPDEST PUSH1 0x20 MUL PUSH1 0x20 ADD ADD MLOAD DUP5 DUP5 PUSH4 0xFFFFFFFF AND PUSH1 0x21 DUP2 LT PUSH2 0xBE6 JUMPI PUSH2 0xBE5 PUSH2 0x44A1 JUMP JUMPDEST JUMPDEST PUSH1 0x20 MUL ADD DUP2 DUP2 MSTORE POP POP JUMPDEST JUMPDEST JUMPDEST JUMPDEST JUMPDEST JUMPDEST DUP1 DUP1 PUSH2 0xC00 SWAP1 PUSH2 0x43E7 JUMP JUMPDEST SWAP2 POP POP PUSH2 0x8A9 JUMP JUMPDEST POP DUP1 DUP1 PUSH2 0xC14 SWAP1 PUSH2 0x43E7 JUMP JUMPDEST SWAP2 POP POP PUSH2 0x897 JUMP JUMPDEST POP DUP5 PUSH1 0x0 PUSH1 0x2 DUP2 LT PUSH2 0xC31 JUMPI PUSH2 0xC30 PUSH2 0x44A1 JUMP JUMPDEST JUMPDEST PUSH1 0x20 MUL ADD MLOAD DUP3 PUSH1 0x1 DUP4 PUSH2 0xC44 SWAP2 SWAP1 PUSH2 0x41D1 JUMP JUMPDEST PUSH4 0xFFFFFFFF AND PUSH1 0x21 DUP2 LT PUSH2 0xC5B JUMPI PUSH2 0xC5A PUSH2 0x44A1 JUMP JUMPDEST JUMPDEST PUSH1 0x20 MUL ADD DUP2 DUP2 MSTORE POP POP DUP5 PUSH1 0x1 PUSH1 0x2 DUP2 LT PUSH2 0xC78 JUMPI PUSH2 0xC77 PUSH2 0x44A1 JUMP JUMPDEST JUMPDEST PUSH1 0x20 MUL ADD MLOAD DUP3 PUSH1 0x2 DUP4 PUSH2 0xC8B SWAP2 SWAP1 PUSH2 0x41D1 JUMP JUMPDEST PUSH4 0xFFFFFFFF AND PUSH1 0x21 DUP2 LT PUSH2 0xCA2 JUMPI PUSH2 0xCA1 PUSH2 0x44A1 JUMP JUMPDEST JUMPDEST PUSH1 0x20 MUL ADD DUP2 DUP2 MSTORE POP POP PUSH1 0x1 DUP3 PUSH1 0x3 DUP4 PUSH2 0xCBB SWAP2 SWAP1 PUSH2 0x41D1 JUMP JUMPDEST PUSH4 0xFFFFFFFF AND PUSH1 0x21 DUP2 LT PUSH2 0xCD2 JUMPI PUSH2 0xCD1 PUSH2 0x44A1 JUMP JUMPDEST JUMPDEST PUSH1 0x20 MUL ADD DUP2 DUP2 MSTORE POP POP PUSH1 0x6 PUSH1 0x0 SWAP1 SLOAD SWAP1 PUSH2 0x100 EXP SWAP1 DIV PUSH20 0xFFFFFFFFFFFFFFFFFFFFFFFFFFFFFFFFFFFFFFFF AND PUSH20 0xFFFFFFFFFFFFFFFFFFFFFFFFFFFFFFFFFFFFFFFF AND PUSH4 0x785B3BBB DUP5 DUP5 PUSH1 0x40 MLOAD DUP4 PUSH4 0xFFFFFFFF AND PUSH1 0xE0 SHL DUP2 MSTORE PUSH1 0x4 ADD PUSH2 0xD38 SWAP3 SWAP2 SWAP1 PUSH2 0x3EEB JUMP JUMPDEST PUSH1 0x20 PUSH1 0x40 MLOAD DUP1 DUP4 SUB DUP2 DUP7 DUP1 EXTCODESIZE ISZERO DUP1 ISZERO PUSH2 0xD50 JUMPI PUSH1 0x0 DUP1 REVERT JUMPDEST POP GAS STATICCALL ISZERO DUP1 ISZERO PUSH2 0xD64 JUMPI RETURNDATASIZE PUSH1 0x0 DUP1 RETURNDATACOPY RETURNDATASIZE PUSH1 0x0 REVERT JUMPDEST POP POP POP POP PUSH1 0x40 MLOAD RETURNDATASIZE PUSH1 0x1F NOT PUSH1 0x1F DUP3 ADD AND DUP3 ADD DUP1 PUSH1 0x40 MSTORE POP DUP2 ADD SWAP1 PUSH2 0xD88 SWAP2 SWAP1 PUSH2 0x393F JUMP JUMPDEST PUSH2 0xDC7 JUMPI PUSH1 0x40 MLOAD PUSH32 0x8C379A000000000000000000000000000000000000000000000000000000000 DUP2 MSTORE PUSH1 0x4 ADD PUSH2 0xDBE SWAP1 PUSH2 0x3EA0 JUMP JUMPDEST PUSH1 0x40 MLOAD DUP1 SWAP2 SUB SWAP1 REVERT JUMPDEST PUSH1 0x15 PUSH1 0x0 CALLER PUSH20 0xFFFFFFFFFFFFFFFFFFFFFFFFFFFFFFFFFFFFFFFF AND PUSH20 0xFFFFFFFFFFFFFFFFFFFFFFFFFFFFFFFFFFFFFFFF AND DUP2 MSTORE PUSH1 0x20 ADD SWAP1 DUP2 MSTORE PUSH1 0x20 ADD PUSH1 0x0 KECCAK256 PUSH1 0x0 DUP2 DUP2 SWAP1 SLOAD SWAP1 PUSH2 0x100 EXP SWAP1 DIV PUSH4 0xFFFFFFFF AND DUP1 SWAP3 SWAP2 SWAP1 PUSH2 0xE26 SWAP1 PUSH2 0x43E7 JUMP JUMPDEST SWAP2 SWAP1 PUSH2 0x100 EXP DUP2 SLOAD DUP2 PUSH4 0xFFFFFFFF MUL NOT AND SWAP1 DUP4 PUSH4 0xFFFFFFFF AND MUL OR SWAP1 SSTORE POP POP PUSH1 0x40 MLOAD DUP1 PUSH1 0x40 ADD PUSH1 0x40 MSTORE DUP1 DUP11 DUP2 MSTORE PUSH1 0x20 ADD DUP10 DUP2 MSTORE POP PUSH1 0xF DUP6 PUSH1 0x40 MLOAD PUSH2 0xE6A SWAP2 SWAP1 PUSH2 0x3E10 JUMP JUMPDEST SWAP1 DUP2 MSTORE PUSH1 0x20 ADD PUSH1 0x40 MLOAD DUP1 SWAP2 SUB SWAP1 KECCAK256 SWAP1 PUSH1 0x2 PUSH2 0xE86 SWAP3 SWAP2 SWAP1 PUSH2 0x2FAF JUMP JUMPDEST POP PUSH1 0x40 MLOAD DUP1 PUSH1 0x40 ADD PUSH1 0x40 MSTORE DUP1 DUP9 DUP2 MSTORE PUSH1 0x20 ADD DUP8 DUP2 MSTORE POP PUSH1 0x10 DUP6 PUSH1 0x40 MLOAD PUSH2 0xEAC SWAP2 SWAP1 PUSH2 0x3E10 JUMP JUMPDEST SWAP1 DUP2 MSTORE PUSH1 0x20 ADD PUSH1 0x40 MLOAD DUP1 SWAP2 SUB SWAP1 KECCAK256 SWAP1 PUSH1 0x2 PUSH2 0xEC8 SWAP3 SWAP2 SWAP1 PUSH2 0x2FAF JUMP JUMPDEST POP POP POP POP POP POP POP POP POP POP POP POP POP JUMP JUMPDEST PUSH1 0x0 PUSH1 0x8 SWAP1 SLOAD SWAP1 PUSH2 0x100 EXP SWAP1 DIV PUSH4 0xFFFFFFFF AND DUP2 JUMP JUMPDEST PUSH1 0x0 DUP1 SLOAD SWAP1 PUSH2 0x100 EXP SWAP1 DIV PUSH4 0xFFFFFFFF AND DUP2 JUMP JUMPDEST PUSH1 0x0 PUSH1 0x4 SWAP1 SLOAD SWAP1 PUSH2 0x100 EXP SWAP1 DIV PUSH4 0xFFFFFFFF AND DUP2 JUMP JUMPDEST PUSH1 0x7 PUSH1 0x0 SWAP1 SLOAD SWAP1 PUSH2 0x100 EXP SWAP1 DIV PUSH20 0xFFFFFFFFFFFFFFFFFFFFFFFFFFFFFFFFFFFFFFFF AND PUSH20 0xFFFFFFFFFFFFFFFFFFFFFFFFFFFFFFFFFFFFFFFF AND CALLER PUSH20 0xFFFFFFFFFFFFFFFFFFFFFFFFFFFFFFFFFFFFFFFF AND EQ PUSH2 0xFA7 JUMPI PUSH1 0x40 MLOAD PUSH32 0x8C379A000000000000000000000000000000000000000000000000000000000 DUP2 MSTORE PUSH1 0x4 ADD PUSH2 0xF9E SWAP1 PUSH2 0x3E60 JUMP JUMPDEST PUSH1 0x40 MLOAD DUP1 SWAP2 SUB SWAP1 REVERT JUMPDEST PUSH1 0x0 PUSH1 0x1 DUP1 SLOAD SWAP1 POP SWAP1 POP PUSH1 0x0 JUMPDEST DUP2 DUP2 PUSH4 0xFFFFFFFF AND LT ISZERO PUSH2 0x10F7 JUMPI PUSH1 0xB PUSH1 0x1 DUP3 PUSH4 0xFFFFFFFF AND DUP2 SLOAD DUP2 LT PUSH2 0xFDE JUMPI PUSH2 0xFDD PUSH2 0x44A1 JUMP JUMPDEST JUMPDEST SWAP1 PUSH1 0x0 MSTORE PUSH1 0x20 PUSH1 0x0 KECCAK256 ADD PUSH1 0x40 MLOAD PUSH2 0xFF5 SWAP2 SWAP1 PUSH2 0x3E27 JUMP JUMPDEST SWAP1 DUP2 MSTORE PUSH1 0x20 ADD PUSH1 0x40 MLOAD DUP1 SWAP2 SUB SWAP1 KECCAK256 PUSH1 0xF PUSH1 0x1 DUP4 PUSH4 0xFFFFFFFF AND DUP2 SLOAD DUP2 LT PUSH2 0x101F JUMPI PUSH2 0x101E PUSH2 0x44A1 JUMP JUMPDEST JUMPDEST SWAP1 PUSH1 0x0 MSTORE PUSH1 0x20 PUSH1 0x0 KECCAK256 ADD PUSH1 0x40 MLOAD PUSH2 0x1036 SWAP2 SWAP1 PUSH2 0x3E27 JUMP JUMPDEST SWAP1 DUP2 MSTORE PUSH1 0x20 ADD PUSH1 0x40 MLOAD DUP1 SWAP2 SUB SWAP1 KECCAK256 SWAP1 DUP1 SLOAD PUSH2 0x1052 SWAP3 SWAP2 SWAP1 PUSH2 0x300F JUMP JUMPDEST POP PUSH1 0xC PUSH1 0x1 DUP3 PUSH4 0xFFFFFFFF AND DUP2 SLOAD DUP2 LT PUSH2 0x106F JUMPI PUSH2 0x106E PUSH2 0x44A1 JUMP JUMPDEST JUMPDEST SWAP1 PUSH1 0x0 MSTORE PUSH1 0x20 PUSH1 0x0 KECCAK256 ADD PUSH1 0x40 MLOAD PUSH2 0x1086 SWAP2 SWAP1 PUSH2 0x3E27 JUMP JUMPDEST SWAP1 DUP2 MSTORE PUSH1 0x20 ADD PUSH1 0x40 MLOAD DUP1 SWAP2 SUB SWAP1 KECCAK256 PUSH1 0x10 PUSH1 0x1 DUP4 PUSH4 0xFFFFFFFF AND DUP2 SLOAD DUP2 LT PUSH2 0x10B0 JUMPI PUSH2 0x10AF PUSH2 0x44A1 JUMP JUMPDEST JUMPDEST SWAP1 PUSH1 0x0 MSTORE PUSH1 0x20 PUSH1 0x0 KECCAK256 ADD PUSH1 0x40 MLOAD PUSH2 0x10C7 SWAP2 SWAP1 PUSH2 0x3E27 JUMP JUMPDEST SWAP1 DUP2 MSTORE PUSH1 0x20 ADD PUSH1 0x40 MLOAD DUP1 SWAP2 SUB SWAP1 KECCAK256 SWAP1 DUP1 SLOAD PUSH2 0x10E3 SWAP3 SWAP2 SWAP1 PUSH2 0x300F JUMP JUMPDEST POP DUP1 DUP1 PUSH2 0x10EF SWAP1 PUSH2 0x43E7 JUMP JUMPDEST SWAP2 POP POP PUSH2 0xFB4 JUMP JUMPDEST POP PUSH1 0x0 PUSH1 0x8 DUP2 DUP2 SWAP1 SLOAD SWAP1 PUSH2 0x100 EXP SWAP1 DIV PUSH4 0xFFFFFFFF AND DUP1 SWAP3 SWAP2 SWAP1 PUSH2 0x111A SWAP1 PUSH2 0x43E7 JUMP JUMPDEST SWAP2 SWAP1 PUSH2 0x100 EXP DUP2 SLOAD DUP2 PUSH4 0xFFFFFFFF MUL NOT AND SWAP1 DUP4 PUSH4 0xFFFFFFFF AND MUL OR SWAP1 SSTORE POP POP POP JUMP JUMPDEST PUSH2 0x1144 PUSH2 0x306E JUMP JUMPDEST PUSH2 0x114C PUSH2 0x3091 JUMP JUMPDEST PUSH2 0x1154 PUSH2 0x30C4 JUMP JUMPDEST DUP9 DUP4 PUSH1 0x0 PUSH1 0x18 DUP2 LT PUSH2 0x1169 JUMPI PUSH2 0x1168 PUSH2 0x44A1 JUMP JUMPDEST JUMPDEST PUSH1 0x20 MUL ADD DUP2 DUP2 MSTORE POP POP PUSH1 0x40 MLOAD DUP1 PUSH1 0x60 ADD PUSH1 0x40 MSTORE DUP1 PUSH1 0x40 MLOAD DUP1 PUSH1 0x40 ADD PUSH1 0x40 MSTORE DUP1 DUP16 PUSH1 0x0 PUSH1 0x2 DUP2 LT PUSH2 0x119C JUMPI PUSH2 0x119B PUSH2 0x44A1 JUMP JUMPDEST JUMPDEST PUSH1 0x20 MUL ADD MLOAD DUP2 MSTORE PUSH1 0x20 ADD DUP16 PUSH1 0x1 PUSH1 0x2 DUP2 LT PUSH2 0x11BA JUMPI PUSH2 0x11B9 PUSH2 0x44A1 JUMP JUMPDEST JUMPDEST PUSH1 0x20 MUL ADD MLOAD DUP2 MSTORE POP DUP2 MSTORE PUSH1 0x20 ADD PUSH1 0x40 MLOAD DUP1 PUSH1 0x40 ADD PUSH1 0x40 MSTORE DUP1 DUP15 PUSH1 0x0 PUSH1 0x2 DUP2 LT PUSH2 0x11E6 JUMPI PUSH2 0x11E5 PUSH2 0x44A1 JUMP JUMPDEST JUMPDEST PUSH1 0x20 MUL ADD MLOAD DUP2 MSTORE PUSH1 0x20 ADD DUP15 PUSH1 0x1 PUSH1 0x2 DUP2 LT PUSH2 0x1204 JUMPI PUSH2 0x1203 PUSH2 0x44A1 JUMP JUMPDEST JUMPDEST PUSH1 0x20 MUL ADD MLOAD DUP2 MSTORE POP DUP2 MSTORE PUSH1 0x20 ADD PUSH1 0x40 MLOAD DUP1 PUSH1 0x40 ADD PUSH1 0x40 MSTORE DUP1 DUP14 PUSH1 0x0 PUSH1 0x2 DUP2 LT PUSH2 0x1230 JUMPI PUSH2 0x122F PUSH2 0x44A1 JUMP JUMPDEST JUMPDEST PUSH1 0x20 MUL ADD MLOAD DUP2 MSTORE PUSH1 0x20 ADD DUP14 PUSH1 0x1 PUSH1 0x2 DUP2 LT PUSH2 0x124E JUMPI PUSH2 0x124D PUSH2 0x44A1 JUMP JUMPDEST JUMPDEST PUSH1 0x20 MUL ADD MLOAD DUP2 MSTORE POP DUP2 MSTORE POP SWAP2 POP PUSH1 0x0 DUP1 PUSH1 0x0 SWAP1 POP JUMPDEST PUSH1 0x4 DUP2 PUSH4 0xFFFFFFFF AND LT ISZERO PUSH2 0x14BC JUMPI PUSH1 0x0 JUMPDEST PUSH1 0x0 DUP1 SLOAD SWAP1 PUSH2 0x100 EXP SWAP1 DIV PUSH4 0xFFFFFFFF AND PUSH4 0xFFFFFFFF AND DUP2 PUSH4 0xFFFFFFFF AND LT ISZERO PUSH2 0x14A8 JUMPI PUSH1 0x1 DUP2 DUP4 PUSH1 0x0 DUP1 SLOAD SWAP1 PUSH2 0x100 EXP SWAP1 DIV PUSH4 0xFFFFFFFF AND PUSH2 0x12B8 SWAP2 SWAP1 PUSH2 0x420B JUMP JUMPDEST PUSH2 0x12C2 SWAP2 SWAP1 PUSH2 0x41D1 JUMP JUMPDEST PUSH2 0x12CC SWAP2 SWAP1 PUSH2 0x41D1 JUMP JUMPDEST SWAP3 POP PUSH1 0x0 DUP3 PUSH4 0xFFFFFFFF AND EQ ISZERO PUSH2 0x1340 JUMPI DUP11 PUSH1 0x0 DUP2 MLOAD DUP2 LT PUSH2 0x12F1 JUMPI PUSH2 0x12F0 PUSH2 0x44A1 JUMP JUMPDEST JUMPDEST PUSH1 0x20 MUL PUSH1 0x20 ADD ADD MLOAD DUP2 PUSH4 0xFFFFFFFF AND DUP2 MLOAD DUP2 LT PUSH2 0x1311 JUMPI PUSH2 0x1310 PUSH2 0x44A1 JUMP JUMPDEST JUMPDEST PUSH1 0x20 MUL PUSH1 0x20 ADD ADD MLOAD DUP7 DUP5 PUSH4 0xFFFFFFFF AND PUSH1 0x18 DUP2 LT PUSH2 0x1332 JUMPI PUSH2 0x1331 PUSH2 0x44A1 JUMP JUMPDEST JUMPDEST PUSH1 0x20 MUL ADD DUP2 DUP2 MSTORE POP POP PUSH2 0x1495 JUMP JUMPDEST PUSH1 0x1 DUP3 PUSH4 0xFFFFFFFF AND EQ ISZERO PUSH2 0x13B2 JUMPI DUP10 PUSH1 0x0 DUP2 MLOAD DUP2 LT PUSH2 0x1363 JUMPI PUSH2 0x1362 PUSH2 0x44A1 JUMP JUMPDEST JUMPDEST PUSH1 0x20 MUL PUSH1 0x20 ADD ADD MLOAD DUP2 PUSH4 0xFFFFFFFF AND DUP2 MLOAD DUP2 LT PUSH2 0x1383 JUMPI PUSH2 0x1382 PUSH2 0x44A1 JUMP JUMPDEST JUMPDEST PUSH1 0x20 MUL PUSH1 0x20 ADD ADD MLOAD DUP7 DUP5 PUSH4 0xFFFFFFFF AND PUSH1 0x18 DUP2 LT PUSH2 0x13A4 JUMPI PUSH2 0x13A3 PUSH2 0x44A1 JUMP JUMPDEST JUMPDEST PUSH1 0x20 MUL ADD DUP2 DUP2 MSTORE POP POP PUSH2 0x1494 JUMP JUMPDEST PUSH1 0x2 DUP3 PUSH4 0xFFFFFFFF AND EQ ISZERO PUSH2 0x1424 JUMPI DUP9 PUSH1 0x0 DUP2 MLOAD DUP2 LT PUSH2 0x13D5 JUMPI PUSH2 0x13D4 PUSH2 0x44A1 JUMP JUMPDEST JUMPDEST PUSH1 0x20 MUL PUSH1 0x20 ADD ADD MLOAD DUP2 PUSH4 0xFFFFFFFF AND DUP2 MLOAD DUP2 LT PUSH2 0x13F5 JUMPI PUSH2 0x13F4 PUSH2 0x44A1 JUMP JUMPDEST JUMPDEST PUSH1 0x20 MUL PUSH1 0x20 ADD ADD MLOAD DUP7 DUP5 PUSH4 0xFFFFFFFF AND PUSH1 0x18 DUP2 LT PUSH2 0x1416 JUMPI PUSH2 0x1415 PUSH2 0x44A1 JUMP JUMPDEST JUMPDEST PUSH1 0x20 MUL ADD DUP2 DUP2 MSTORE POP POP PUSH2 0x1493 JUMP JUMPDEST PUSH1 0x3 DUP3 PUSH4 0xFFFFFFFF AND EQ ISZERO PUSH2 0x1492 JUMPI DUP8 PUSH1 0x0 DUP2 MLOAD DUP2 LT PUSH2 0x1447 JUMPI PUSH2 0x1446 PUSH2 0x44A1 JUMP JUMPDEST JUMPDEST PUSH1 0x20 MUL PUSH1 0x20 ADD ADD MLOAD DUP2 PUSH4 0xFFFFFFFF AND DUP2 MLOAD DUP2 LT PUSH2 0x1467 JUMPI PUSH2 0x1466 PUSH2 0x44A1 JUMP JUMPDEST JUMPDEST PUSH1 0x20 MUL PUSH1 0x20 ADD ADD MLOAD DUP7 DUP5 PUSH4 0xFFFFFFFF AND PUSH1 0x18 DUP2 LT PUSH2 0x1488 JUMPI PUSH2 0x1487 PUSH2 0x44A1 JUMP JUMPDEST JUMPDEST PUSH1 0x20 MUL ADD DUP2 DUP2 MSTORE POP POP JUMPDEST JUMPDEST JUMPDEST JUMPDEST DUP1 DUP1 PUSH2 0x14A0 SWAP1 PUSH2 0x43E7 JUMP JUMPDEST SWAP2 POP POP PUSH2 0x1275 JUMP JUMPDEST POP DUP1 DUP1 PUSH2 0x14B4 SWAP1 PUSH2 0x43E7 JUMP JUMPDEST SWAP2 POP POP PUSH2 0x1263 JUMP JUMPDEST POP PUSH1 0x8 PUSH1 0x0 PUSH1 0x2 DUP2 LT PUSH2 0x14D2 JUMPI PUSH2 0x14D1 PUSH2 0x44A1 JUMP JUMPDEST JUMPDEST ADD SLOAD DUP5 PUSH1 0x1 DUP4 PUSH2 0x14E2 SWAP2 SWAP1 PUSH2 0x41D1 JUMP JUMPDEST PUSH4 0xFFFFFFFF AND PUSH1 0x18 DUP2 LT PUSH2 0x14F9 JUMPI PUSH2 0x14F8 PUSH2 0x44A1 JUMP JUMPDEST JUMPDEST PUSH1 0x20 MUL ADD DUP2 DUP2 MSTORE POP POP PUSH1 0x8 PUSH1 0x1 PUSH1 0x2 DUP2 LT PUSH2 0x1517 JUMPI PUSH2 0x1516 PUSH2 0x44A1 JUMP JUMPDEST JUMPDEST ADD SLOAD DUP5 PUSH1 0x2 DUP4 PUSH2 0x1527 SWAP2 SWAP1 PUSH2 0x41D1 JUMP JUMPDEST PUSH4 0xFFFFFFFF AND PUSH1 0x18 DUP2 LT PUSH2 0x153E JUMPI PUSH2 0x153D PUSH2 0x44A1 JUMP JUMPDEST JUMPDEST PUSH1 0x20 MUL ADD DUP2 DUP2 MSTORE POP POP PUSH1 0x1 DUP5 PUSH1 0x3 DUP4 PUSH2 0x1557 SWAP2 SWAP1 PUSH2 0x41D1 JUMP JUMPDEST PUSH4 0xFFFFFFFF AND PUSH1 0x18 DUP2 LT PUSH2 0x156E JUMPI PUSH2 0x156D PUSH2 0x44A1 JUMP JUMPDEST JUMPDEST PUSH1 0x20 MUL ADD DUP2 DUP2 MSTORE POP POP PUSH1 0x5 PUSH1 0x0 SWAP1 SLOAD SWAP1 PUSH2 0x100 EXP SWAP1 DIV PUSH20 0xFFFFFFFFFFFFFFFFFFFFFFFFFFFFFFFFFFFFFFFF AND PUSH20 0xFFFFFFFFFFFFFFFFFFFFFFFFFFFFFFFFFFFFFFFF AND PUSH4 0x88E3F317 DUP5 DUP7 PUSH1 0x40 MLOAD DUP4 PUSH4 0xFFFFFFFF AND PUSH1 0xE0 SHL DUP2 MSTORE PUSH1 0x4 ADD PUSH2 0x15D4 SWAP3 SWAP2 SWAP1 PUSH2 0x3EC0 JUMP JUMPDEST PUSH1 0x20 PUSH1 0x40 MLOAD DUP1 DUP4 SUB DUP2 DUP7 DUP1 EXTCODESIZE ISZERO DUP1 ISZERO PUSH2 0x15EC JUMPI PUSH1 0x0 DUP1 REVERT JUMPDEST POP GAS STATICCALL ISZERO DUP1 ISZERO PUSH2 0x1600 JUMPI RETURNDATASIZE PUSH1 0x0 DUP1 RETURNDATACOPY RETURNDATASIZE PUSH1 0x0 REVERT JUMPDEST POP POP POP POP PUSH1 0x40 MLOAD RETURNDATASIZE PUSH1 0x1F NOT PUSH1 0x1F DUP3 ADD AND DUP3 ADD DUP1 PUSH1 0x40 MSTORE POP DUP2 ADD SWAP1 PUSH2 0x1624 SWAP2 SWAP1 PUSH2 0x393F JUMP JUMPDEST PUSH2 0x1663 JUMPI PUSH1 0x40 MLOAD PUSH32 0x8C379A000000000000000000000000000000000000000000000000000000000 DUP2 MSTORE PUSH1 0x4 ADD PUSH2 0x165A SWAP1 PUSH2 0x3E80 JUMP JUMPDEST PUSH1 0x40 MLOAD DUP1 SWAP2 SUB SWAP1 REVERT JUMPDEST PUSH1 0x1 PUSH1 0x12 DUP7 PUSH1 0x40 MLOAD PUSH2 0x1675 SWAP2 SWAP1 PUSH2 0x3E10 JUMP JUMPDEST SWAP1 DUP2 MSTORE PUSH1 0x20 ADD PUSH1 0x40 MLOAD DUP1 SWAP2 SUB SWAP1 KECCAK256 PUSH1 0x0 DUP3 DUP3 DUP3 SWAP1 SLOAD SWAP1 PUSH2 0x100 EXP SWAP1 DIV PUSH4 0xFFFFFFFF AND PUSH2 0x16A1 SWAP2 SWAP1 PUSH2 0x41D1 JUMP JUMPDEST SWAP3 POP PUSH2 0x100 EXP DUP2 SLOAD DUP2 PUSH4 0xFFFFFFFF MUL NOT AND SWAP1 DUP4 PUSH4 0xFFFFFFFF AND MUL OR SWAP1 SSTORE POP PUSH1 0x11 DUP6 PUSH1 0x40 MLOAD PUSH2 0x16CF SWAP2 SWAP1 PUSH2 0x3E10 JUMP JUMPDEST SWAP1 DUP2 MSTORE PUSH1 0x20 ADD PUSH1 0x40 MLOAD DUP1 SWAP2 SUB SWAP1 KECCAK256 PUSH1 0x0 SWAP1 SLOAD SWAP1 PUSH2 0x100 EXP SWAP1 DIV PUSH1 0xFF AND PUSH2 0x1833 JUMPI PUSH1 0x1 DUP6 SWAP1 DUP1 PUSH1 0x1 DUP2 SLOAD ADD DUP1 DUP3 SSTORE DUP1 SWAP2 POP POP PUSH1 0x1 SWAP1 SUB SWAP1 PUSH1 0x0 MSTORE PUSH1 0x20 PUSH1 0x0 KECCAK256 ADD PUSH1 0x0 SWAP1 SWAP2 SWAP1 SWAP2 SWAP1 SWAP2 POP SWAP1 DUP1 MLOAD SWAP1 PUSH1 0x20 ADD SWAP1 PUSH2 0x172A SWAP3 SWAP2 SWAP1 PUSH2 0x30E6 JUMP JUMPDEST POP DUP8 PUSH1 0xB DUP7 PUSH1 0x40 MLOAD PUSH2 0x173C SWAP2 SWAP1 PUSH2 0x3E10 JUMP JUMPDEST SWAP1 DUP2 MSTORE PUSH1 0x20 ADD PUSH1 0x40 MLOAD DUP1 SWAP2 SUB SWAP1 KECCAK256 SWAP1 DUP1 MLOAD SWAP1 PUSH1 0x20 ADD SWAP1 PUSH2 0x175D SWAP3 SWAP2 SWAP1 PUSH2 0x316C JUMP JUMPDEST POP DUP6 PUSH1 0xC DUP7 PUSH1 0x40 MLOAD PUSH2 0x176F SWAP2 SWAP1 PUSH2 0x3E10 JUMP JUMPDEST SWAP1 DUP2 MSTORE PUSH1 0x20 ADD PUSH1 0x40 MLOAD DUP1 SWAP2 SUB SWAP1 KECCAK256 SWAP1 DUP1 MLOAD SWAP1 PUSH1 0x20 ADD SWAP1 PUSH2 0x1790 SWAP3 SWAP2 SWAP1 PUSH2 0x316C JUMP JUMPDEST POP PUSH1 0x1 PUSH1 0x11 DUP7 PUSH1 0x40 MLOAD PUSH2 0x17A3 SWAP2 SWAP1 PUSH2 0x3E10 JUMP JUMPDEST SWAP1 DUP2 MSTORE PUSH1 0x20 ADD PUSH1 0x40 MLOAD DUP1 SWAP2 SUB SWAP1 KECCAK256 PUSH1 0x0 PUSH2 0x100 EXP DUP2 SLOAD DUP2 PUSH1 0xFF MUL NOT AND SWAP1 DUP4 ISZERO ISZERO MUL OR SWAP1 SSTORE POP DUP9 PUSH1 0xD DUP7 PUSH1 0x40 MLOAD PUSH2 0x17D9 SWAP2 SWAP1 PUSH2 0x3E10 JUMP JUMPDEST SWAP1 DUP2 MSTORE PUSH1 0x20 ADD PUSH1 0x40 MLOAD DUP1 SWAP2 SUB SWAP1 KECCAK256 SWAP1 DUP1 MLOAD SWAP1 PUSH1 0x20 ADD SWAP1 PUSH2 0x17FA SWAP3 SWAP2 SWAP1 PUSH2 0x316C JUMP JUMPDEST POP DUP7 PUSH1 0xE DUP7 PUSH1 0x40 MLOAD PUSH2 0x180C SWAP2 SWAP1 PUSH2 0x3E10 JUMP JUMPDEST SWAP1 DUP2 MSTORE PUSH1 0x20 ADD PUSH1 0x40 MLOAD DUP1 SWAP2 SUB SWAP1 KECCAK256 SWAP1 DUP1 MLOAD SWAP1 PUSH1 0x20 ADD SWAP1 PUSH2 0x182D SWAP3 SWAP2 SWAP1 PUSH2 0x316C JUMP JUMPDEST POP PUSH2 0x220F JUMP JUMPDEST PUSH1 0x0 JUMPDEST PUSH1 0x0 DUP1 SLOAD SWAP1 PUSH2 0x100 EXP SWAP1 DIV PUSH4 0xFFFFFFFF AND PUSH4 0xFFFFFFFF AND DUP2 PUSH4 0xFFFFFFFF AND LT ISZERO PUSH2 0x220D JUMPI PUSH2 0x19CC PUSH2 0x18F0 PUSH1 0x40 MLOAD DUP1 PUSH1 0x40 ADD PUSH1 0x40 MSTORE DUP1 DUP13 PUSH1 0x0 DUP2 MLOAD DUP2 LT PUSH2 0x187F JUMPI PUSH2 0x187E PUSH2 0x44A1 JUMP JUMPDEST JUMPDEST PUSH1 0x20 MUL PUSH1 0x20 ADD ADD MLOAD DUP6 PUSH4 0xFFFFFFFF AND DUP2 MLOAD DUP2 LT PUSH2 0x189F JUMPI PUSH2 0x189E PUSH2 0x44A1 JUMP JUMPDEST JUMPDEST PUSH1 0x20 MUL PUSH1 0x20 ADD ADD MLOAD DUP2 MSTORE PUSH1 0x20 ADD DUP13 PUSH1 0x1 DUP2 MLOAD DUP2 LT PUSH2 0x18C0 JUMPI PUSH2 0x18BF PUSH2 0x44A1 JUMP JUMPDEST JUMPDEST PUSH1 0x20 MUL PUSH1 0x20 ADD ADD MLOAD DUP6 PUSH4 0xFFFFFFFF AND DUP2 MLOAD DUP2 LT PUSH2 0x18E0 JUMPI PUSH2 0x18DF PUSH2 0x44A1 JUMP JUMPDEST JUMPDEST PUSH1 0x20 MUL PUSH1 0x20 ADD ADD MLOAD DUP2 MSTORE POP PUSH2 0x289E JUMP JUMPDEST PUSH2 0x19C7 PUSH1 0x40 MLOAD DUP1 PUSH1 0x40 ADD PUSH1 0x40 MSTORE DUP1 PUSH1 0xB DUP12 PUSH1 0x40 MLOAD PUSH2 0x190E SWAP2 SWAP1 PUSH2 0x3E10 JUMP JUMPDEST SWAP1 DUP2 MSTORE PUSH1 0x20 ADD PUSH1 0x40 MLOAD DUP1 SWAP2 SUB SWAP1 KECCAK256 PUSH1 0x0 DUP2 SLOAD DUP2 LT PUSH2 0x192F JUMPI PUSH2 0x192E PUSH2 0x44A1 JUMP JUMPDEST JUMPDEST SWAP1 PUSH1 0x0 MSTORE PUSH1 0x20 PUSH1 0x0 KECCAK256 ADD DUP7 PUSH4 0xFFFFFFFF AND DUP2 SLOAD DUP2 LT PUSH2 0x1951 JUMPI PUSH2 0x1950 PUSH2 0x44A1 JUMP JUMPDEST JUMPDEST SWAP1 PUSH1 0x0 MSTORE PUSH1 0x20 PUSH1 0x0 KECCAK256 ADD SLOAD DUP2 MSTORE PUSH1 0x20 ADD PUSH1 0xB DUP12 PUSH1 0x40 MLOAD PUSH2 0x1971 SWAP2 SWAP1 PUSH2 0x3E10 JUMP JUMPDEST SWAP1 DUP2 MSTORE PUSH1 0x20 ADD PUSH1 0x40 MLOAD DUP1 SWAP2 SUB SWAP1 KECCAK256 PUSH1 0x1 DUP2 SLOAD DUP2 LT PUSH2 0x1992 JUMPI PUSH2 0x1991 PUSH2 0x44A1 JUMP JUMPDEST JUMPDEST SWAP1 PUSH1 0x0 MSTORE PUSH1 0x20 PUSH1 0x0 KECCAK256 ADD DUP7 PUSH4 0xFFFFFFFF AND DUP2 SLOAD DUP2 LT PUSH2 0x19B4 JUMPI PUSH2 0x19B3 PUSH2 0x44A1 JUMP JUMPDEST JUMPDEST SWAP1 PUSH1 0x0 MSTORE PUSH1 0x20 PUSH1 0x0 KECCAK256 ADD SLOAD DUP2 MSTORE POP PUSH2 0x289E JUMP JUMPDEST PUSH2 0x29B5 JUMP JUMPDEST SWAP3 POP DUP3 PUSH1 0x0 PUSH1 0x2 DUP2 LT PUSH2 0x19E2 JUMPI PUSH2 0x19E1 PUSH2 0x44A1 JUMP JUMPDEST JUMPDEST PUSH1 0x20 MUL ADD MLOAD PUSH1 0xB DUP8 PUSH1 0x40 MLOAD PUSH2 0x19F7 SWAP2 SWAP1 PUSH2 0x3E10 JUMP JUMPDEST SWAP1 DUP2 MSTORE PUSH1 0x20 ADD PUSH1 0x40 MLOAD DUP1 SWAP2 SUB SWAP1 KECCAK256 PUSH1 0x0 DUP2 SLOAD DUP2 LT PUSH2 0x1A18 JUMPI PUSH2 0x1A17 PUSH2 0x44A1 JUMP JUMPDEST JUMPDEST SWAP1 PUSH1 0x0 MSTORE PUSH1 0x20 PUSH1 0x0 KECCAK256 ADD DUP3 PUSH4 0xFFFFFFFF AND DUP2 SLOAD DUP2 LT PUSH2 0x1A3A JUMPI PUSH2 0x1A39 PUSH2 0x44A1 JUMP JUMPDEST JUMPDEST SWAP1 PUSH1 0x0 MSTORE PUSH1 0x20 PUSH1 0x0 KECCAK256 ADD DUP2 SWAP1 SSTORE POP DUP3 PUSH1 0x1 PUSH1 0x2 DUP2 LT PUSH2 0x1A5C JUMPI PUSH2 0x1A5B PUSH2 0x44A1 JUMP JUMPDEST JUMPDEST PUSH1 0x20 MUL ADD MLOAD PUSH1 0xB DUP8 PUSH1 0x40 MLOAD PUSH2 0x1A71 SWAP2 SWAP1 PUSH2 0x3E10 JUMP JUMPDEST SWAP1 DUP2 MSTORE PUSH1 0x20 ADD PUSH1 0x40 MLOAD DUP1 SWAP2 SUB SWAP1 KECCAK256 PUSH1 0x1 DUP2 SLOAD DUP2 LT PUSH2 0x1A92 JUMPI PUSH2 0x1A91 PUSH2 0x44A1 JUMP JUMPDEST JUMPDEST SWAP1 PUSH1 0x0 MSTORE PUSH1 0x20 PUSH1 0x0 KECCAK256 ADD DUP3 PUSH4 0xFFFFFFFF AND DUP2 SLOAD DUP2 LT PUSH2 0x1AB4 JUMPI PUSH2 0x1AB3 PUSH2 0x44A1 JUMP JUMPDEST JUMPDEST SWAP1 PUSH1 0x0 MSTORE PUSH1 0x20 PUSH1 0x0 KECCAK256 ADD DUP2 SWAP1 SSTORE POP PUSH2 0x1C34 PUSH2 0x1B58 PUSH1 0x40 MLOAD DUP1 PUSH1 0x40 ADD PUSH1 0x40 MSTORE DUP1 DUP11 PUSH1 0x0 DUP2 MLOAD DUP2 LT PUSH2 0x1AE7 JUMPI PUSH2 0x1AE6 PUSH2 0x44A1 JUMP JUMPDEST JUMPDEST PUSH1 0x20 MUL PUSH1 0x20 ADD ADD MLOAD DUP6 PUSH4 0xFFFFFFFF AND DUP2 MLOAD DUP2 LT PUSH2 0x1B07 JUMPI PUSH2 0x1B06 PUSH2 0x44A1 JUMP JUMPDEST JUMPDEST PUSH1 0x20 MUL PUSH1 0x20 ADD ADD MLOAD DUP2 MSTORE PUSH1 0x20 ADD DUP11 PUSH1 0x1 DUP2 MLOAD DUP2 LT PUSH2 0x1B28 JUMPI PUSH2 0x1B27 PUSH2 0x44A1 JUMP JUMPDEST JUMPDEST PUSH1 0x20 MUL PUSH1 0x20 ADD ADD MLOAD DUP6 PUSH4 0xFFFFFFFF AND DUP2 MLOAD DUP2 LT PUSH2 0x1B48 JUMPI PUSH2 0x1B47 PUSH2 0x44A1 JUMP JUMPDEST JUMPDEST PUSH1 0x20 MUL PUSH1 0x20 ADD ADD MLOAD DUP2 MSTORE POP PUSH2 0x289E JUMP JUMPDEST PUSH2 0x1C2F PUSH1 0x40 MLOAD DUP1 PUSH1 0x40 ADD PUSH1 0x40 MSTORE DUP1 PUSH1 0xC DUP12 PUSH1 0x40 MLOAD PUSH2 0x1B76 SWAP2 SWAP1 PUSH2 0x3E10 JUMP JUMPDEST SWAP1 DUP2 MSTORE PUSH1 0x20 ADD PUSH1 0x40 MLOAD DUP1 SWAP2 SUB SWAP1 KECCAK256 PUSH1 0x0 DUP2 SLOAD DUP2 LT PUSH2 0x1B97 JUMPI PUSH2 0x1B96 PUSH2 0x44A1 JUMP JUMPDEST JUMPDEST SWAP1 PUSH1 0x0 MSTORE PUSH1 0x20 PUSH1 0x0 KECCAK256 ADD DUP7 PUSH4 0xFFFFFFFF AND DUP2 SLOAD DUP2 LT PUSH2 0x1BB9 JUMPI PUSH2 0x1BB8 PUSH2 0x44A1 JUMP JUMPDEST JUMPDEST SWAP1 PUSH1 0x0 MSTORE PUSH1 0x20 PUSH1 0x0 KECCAK256 ADD SLOAD DUP2 MSTORE PUSH1 0x20 ADD PUSH1 0xC DUP12 PUSH1 0x40 MLOAD PUSH2 0x1BD9 SWAP2 SWAP1 PUSH2 0x3E10 JUMP JUMPDEST SWAP1 DUP2 MSTORE PUSH1 0x20 ADD PUSH1 0x40 MLOAD DUP1 SWAP2 SUB SWAP1 KECCAK256 PUSH1 0x1 DUP2 SLOAD DUP2 LT PUSH2 0x1BFA JUMPI PUSH2 0x1BF9 PUSH2 0x44A1 JUMP JUMPDEST JUMPDEST SWAP1 PUSH1 0x0 MSTORE PUSH1 0x20 PUSH1 0x0 KECCAK256 ADD DUP7 PUSH4 0xFFFFFFFF AND DUP2 SLOAD DUP2 LT PUSH2 0x1C1C JUMPI PUSH2 0x1C1B PUSH2 0x44A1 JUMP JUMPDEST JUMPDEST SWAP1 PUSH1 0x0 MSTORE PUSH1 0x20 PUSH1 0x0 KECCAK256 ADD SLOAD DUP2 MSTORE POP PUSH2 0x289E JUMP JUMPDEST PUSH2 0x29B5 JUMP JUMPDEST SWAP3 POP DUP3 PUSH1 0x0 PUSH1 0x2 DUP2 LT PUSH2 0x1C4A JUMPI PUSH2 0x1C49 PUSH2 0x44A1 JUMP JUMPDEST JUMPDEST PUSH1 0x20 MUL ADD MLOAD PUSH1 0xC DUP8 PUSH1 0x40 MLOAD PUSH2 0x1C5F SWAP2 SWAP1 PUSH2 0x3E10 JUMP JUMPDEST SWAP1 DUP2 MSTORE PUSH1 0x20 ADD PUSH1 0x40 MLOAD DUP1 SWAP2 SUB SWAP1 KECCAK256 PUSH1 0x0 DUP2 SLOAD DUP2 LT PUSH2 0x1C80 JUMPI PUSH2 0x1C7F PUSH2 0x44A1 JUMP JUMPDEST JUMPDEST SWAP1 PUSH1 0x0 MSTORE PUSH1 0x20 PUSH1 0x0 KECCAK256 ADD DUP3 PUSH4 0xFFFFFFFF AND DUP2 SLOAD DUP2 LT PUSH2 0x1CA2 JUMPI PUSH2 0x1CA1 PUSH2 0x44A1 JUMP JUMPDEST JUMPDEST SWAP1 PUSH1 0x0 MSTORE PUSH1 0x20 PUSH1 0x0 KECCAK256 ADD DUP2 SWAP1 SSTORE POP DUP3 PUSH1 0x1 PUSH1 0x2 DUP2 LT PUSH2 0x1CC4 JUMPI PUSH2 0x1CC3 PUSH2 0x44A1 JUMP JUMPDEST JUMPDEST PUSH1 0x20 MUL ADD MLOAD PUSH1 0xC DUP8 PUSH1 0x40 MLOAD PUSH2 0x1CD9 SWAP2 SWAP1 PUSH2 0x3E10 JUMP JUMPDEST SWAP1 DUP2 MSTORE PUSH1 0x20 ADD PUSH1 0x40 MLOAD DUP1 SWAP2 SUB SWAP1 KECCAK256 PUSH1 0x1 DUP2 SLOAD DUP2 LT PUSH2 0x1CFA JUMPI PUSH2 0x1CF9 PUSH2 0x44A1 JUMP JUMPDEST JUMPDEST SWAP1 PUSH1 0x0 MSTORE PUSH1 0x20 PUSH1 0x0 KECCAK256 ADD DUP3 PUSH4 0xFFFFFFFF AND DUP2 SLOAD DUP2 LT PUSH2 0x1D1C JUMPI PUSH2 0x1D1B PUSH2 0x44A1 JUMP JUMPDEST JUMPDEST SWAP1 PUSH1 0x0 MSTORE PUSH1 0x20 PUSH1 0x0 KECCAK256 ADD DUP2 SWAP1 SSTORE POP PUSH2 0x1E9C PUSH2 0x1DC0 PUSH1 0x40 MLOAD DUP1 PUSH1 0x40 ADD PUSH1 0x40 MSTORE DUP1 DUP14 PUSH1 0x0 DUP2 MLOAD DUP2 LT PUSH2 0x1D4F JUMPI PUSH2 0x1D4E PUSH2 0x44A1 JUMP JUMPDEST JUMPDEST PUSH1 0x20 MUL PUSH1 0x20 ADD ADD MLOAD DUP6 PUSH4 0xFFFFFFFF AND DUP2 MLOAD DUP2 LT PUSH2 0x1D6F JUMPI PUSH2 0x1D6E PUSH2 0x44A1 JUMP JUMPDEST JUMPDEST PUSH1 0x20 MUL PUSH1 0x20 ADD ADD MLOAD DUP2 MSTORE PUSH1 0x20 ADD DUP14 PUSH1 0x1 DUP2 MLOAD DUP2 LT PUSH2 0x1D90 JUMPI PUSH2 0x1D8F PUSH2 0x44A1 JUMP JUMPDEST JUMPDEST PUSH1 0x20 MUL PUSH1 0x20 ADD ADD MLOAD DUP6 PUSH4 0xFFFFFFFF AND DUP2 MLOAD DUP2 LT PUSH2 0x1DB0 JUMPI PUSH2 0x1DAF PUSH2 0x44A1 JUMP JUMPDEST JUMPDEST PUSH1 0x20 MUL PUSH1 0x20 ADD ADD MLOAD DUP2 MSTORE POP PUSH2 0x289E JUMP JUMPDEST PUSH2 0x1E97 PUSH1 0x40 MLOAD DUP1 PUSH1 0x40 ADD PUSH1 0x40 MSTORE DUP1 PUSH1 0xD DUP12 PUSH1 0x40 MLOAD PUSH2 0x1DDE SWAP2 SWAP1 PUSH2 0x3E10 JUMP JUMPDEST SWAP1 DUP2 MSTORE PUSH1 0x20 ADD PUSH1 0x40 MLOAD DUP1 SWAP2 SUB SWAP1 KECCAK256 PUSH1 0x0 DUP2 SLOAD DUP2 LT PUSH2 0x1DFF JUMPI PUSH2 0x1DFE PUSH2 0x44A1 JUMP JUMPDEST JUMPDEST SWAP1 PUSH1 0x0 MSTORE PUSH1 0x20 PUSH1 0x0 KECCAK256 ADD DUP7 PUSH4 0xFFFFFFFF AND DUP2 SLOAD DUP2 LT PUSH2 0x1E21 JUMPI PUSH2 0x1E20 PUSH2 0x44A1 JUMP JUMPDEST JUMPDEST SWAP1 PUSH1 0x0 MSTORE PUSH1 0x20 PUSH1 0x0 KECCAK256 ADD SLOAD DUP2 MSTORE PUSH1 0x20 ADD PUSH1 0xD DUP12 PUSH1 0x40 MLOAD PUSH2 0x1E41 SWAP2 SWAP1 PUSH2 0x3E10 JUMP JUMPDEST SWAP1 DUP2 MSTORE PUSH1 0x20 ADD PUSH1 0x40 MLOAD DUP1 SWAP2 SUB SWAP1 KECCAK256 PUSH1 0x1 DUP2 SLOAD DUP2 LT PUSH2 0x1E62 JUMPI PUSH2 0x1E61 PUSH2 0x44A1 JUMP JUMPDEST JUMPDEST SWAP1 PUSH1 0x0 MSTORE PUSH1 0x20 PUSH1 0x0 KECCAK256 ADD DUP7 PUSH4 0xFFFFFFFF AND DUP2 SLOAD DUP2 LT PUSH2 0x1E84 JUMPI PUSH2 0x1E83 PUSH2 0x44A1 JUMP JUMPDEST JUMPDEST SWAP1 PUSH1 0x0 MSTORE PUSH1 0x20 PUSH1 0x0 KECCAK256 ADD SLOAD DUP2 MSTORE POP PUSH2 0x289E JUMP JUMPDEST PUSH2 0x29B5 JUMP JUMPDEST SWAP3 POP DUP3 PUSH1 0x0 PUSH1 0x2 DUP2 LT PUSH2 0x1EB2 JUMPI PUSH2 0x1EB1 PUSH2 0x44A1 JUMP JUMPDEST JUMPDEST PUSH1 0x20 MUL ADD MLOAD PUSH1 0xD DUP8 PUSH1 0x40 MLOAD PUSH2 0x1EC7 SWAP2 SWAP1 PUSH2 0x3E10 JUMP JUMPDEST SWAP1 DUP2 MSTORE PUSH1 0x20 ADD PUSH1 0x40 MLOAD DUP1 SWAP2 SUB SWAP1 KECCAK256 PUSH1 0x0 DUP2 SLOAD DUP2 LT PUSH2 0x1EE8 JUMPI PUSH2 0x1EE7 PUSH2 0x44A1 JUMP JUMPDEST JUMPDEST SWAP1 PUSH1 0x0 MSTORE PUSH1 0x20 PUSH1 0x0 KECCAK256 ADD DUP3 PUSH4 0xFFFFFFFF AND DUP2 SLOAD DUP2 LT PUSH2 0x1F0A JUMPI PUSH2 0x1F09 PUSH2 0x44A1 JUMP JUMPDEST JUMPDEST SWAP1 PUSH1 0x0 MSTORE PUSH1 0x20 PUSH1 0x0 KECCAK256 ADD DUP2 SWAP1 SSTORE POP DUP3 PUSH1 0x1 PUSH1 0x2 DUP2 LT PUSH2 0x1F2C JUMPI PUSH2 0x1F2B PUSH2 0x44A1 JUMP JUMPDEST JUMPDEST PUSH1 0x20 MUL ADD MLOAD PUSH1 0xD DUP8 PUSH1 0x40 MLOAD PUSH2 0x1F41 SWAP2 SWAP1 PUSH2 0x3E10 JUMP JUMPDEST SWAP1 DUP2 MSTORE PUSH1 0x20 ADD PUSH1 0x40 MLOAD DUP1 SWAP2 SUB SWAP1 KECCAK256 PUSH1 0x1 DUP2 SLOAD DUP2 LT PUSH2 0x1F62 JUMPI PUSH2 0x1F61 PUSH2 0x44A1 JUMP JUMPDEST JUMPDEST SWAP1 PUSH1 0x0 MSTORE PUSH1 0x20 PUSH1 0x0 KECCAK256 ADD DUP3 PUSH4 0xFFFFFFFF AND DUP2 SLOAD DUP2 LT PUSH2 0x1F84 JUMPI PUSH2 0x1F83 PUSH2 0x44A1 JUMP JUMPDEST JUMPDEST SWAP1 PUSH1 0x0 MSTORE PUSH1 0x20 PUSH1 0x0 KECCAK256 ADD DUP2 SWAP1 SSTORE POP PUSH2 0x2104 PUSH2 0x2028 PUSH1 0x40 MLOAD DUP1 PUSH1 0x40 ADD PUSH1 0x40 MSTORE DUP1 DUP12 PUSH1 0x0 DUP2 MLOAD DUP2 LT PUSH2 0x1FB7 JUMPI PUSH2 0x1FB6 PUSH2 0x44A1 JUMP JUMPDEST JUMPDEST PUSH1 0x20 MUL PUSH1 0x20 ADD ADD MLOAD DUP6 PUSH4 0xFFFFFFFF AND DUP2 MLOAD DUP2 LT PUSH2 0x1FD7 JUMPI PUSH2 0x1FD6 PUSH2 0x44A1 JUMP JUMPDEST JUMPDEST PUSH1 0x20 MUL PUSH1 0x20 ADD ADD MLOAD DUP2 MSTORE PUSH1 0x20 ADD DUP12 PUSH1 0x1 DUP2 MLOAD DUP2 LT PUSH2 0x1FF8 JUMPI PUSH2 0x1FF7 PUSH2 0x44A1 JUMP JUMPDEST JUMPDEST PUSH1 0x20 MUL PUSH1 0x20 ADD ADD MLOAD DUP6 PUSH4 0xFFFFFFFF AND DUP2 MLOAD DUP2 LT PUSH2 0x2018 JUMPI PUSH2 0x2017 PUSH2 0x44A1 JUMP JUMPDEST JUMPDEST PUSH1 0x20 MUL PUSH1 0x20 ADD ADD MLOAD DUP2 MSTORE POP PUSH2 0x289E JUMP JUMPDEST PUSH2 0x20FF PUSH1 0x40 MLOAD DUP1 PUSH1 0x40 ADD PUSH1 0x40 MSTORE DUP1 PUSH1 0xE DUP12 PUSH1 0x40 MLOAD PUSH2 0x2046 SWAP2 SWAP1 PUSH2 0x3E10 JUMP JUMPDEST SWAP1 DUP2 MSTORE PUSH1 0x20 ADD PUSH1 0x40 MLOAD DUP1 SWAP2 SUB SWAP1 KECCAK256 PUSH1 0x0 DUP2 SLOAD DUP2 LT PUSH2 0x2067 JUMPI PUSH2 0x2066 PUSH2 0x44A1 JUMP JUMPDEST JUMPDEST SWAP1 PUSH1 0x0 MSTORE PUSH1 0x20 PUSH1 0x0 KECCAK256 ADD DUP7 PUSH4 0xFFFFFFFF AND DUP2 SLOAD DUP2 LT PUSH2 0x2089 JUMPI PUSH2 0x2088 PUSH2 0x44A1 JUMP JUMPDEST JUMPDEST SWAP1 PUSH1 0x0 MSTORE PUSH1 0x20 PUSH1 0x0 KECCAK256 ADD SLOAD DUP2 MSTORE PUSH1 0x20 ADD PUSH1 0xE DUP12 PUSH1 0x40 MLOAD PUSH2 0x20A9 SWAP2 SWAP1 PUSH2 0x3E10 JUMP JUMPDEST SWAP1 DUP2 MSTORE PUSH1 0x20 ADD PUSH1 0x40 MLOAD DUP1 SWAP2 SUB SWAP1 KECCAK256 PUSH1 0x1 DUP2 SLOAD DUP2 LT PUSH2 0x20CA JUMPI PUSH2 0x20C9 PUSH2 0x44A1 JUMP JUMPDEST JUMPDEST SWAP1 PUSH1 0x0 MSTORE PUSH1 0x20 PUSH1 0x0 KECCAK256 ADD DUP7 PUSH4 0xFFFFFFFF AND DUP2 SLOAD DUP2 LT PUSH2 0x20EC JUMPI PUSH2 0x20EB PUSH2 0x44A1 JUMP JUMPDEST JUMPDEST SWAP1 PUSH1 0x0 MSTORE PUSH1 0x20 PUSH1 0x0 KECCAK256 ADD SLOAD DUP2 MSTORE POP PUSH2 0x289E JUMP JUMPDEST PUSH2 0x29B5 JUMP JUMPDEST SWAP3 POP DUP3 PUSH1 0x0 PUSH1 0x2 DUP2 LT PUSH2 0x211A JUMPI PUSH2 0x2119 PUSH2 0x44A1 JUMP JUMPDEST JUMPDEST PUSH1 0x20 MUL ADD MLOAD PUSH1 0xE DUP8 PUSH1 0x40 MLOAD PUSH2 0x212F SWAP2 SWAP1 PUSH2 0x3E10 JUMP JUMPDEST SWAP1 DUP2 MSTORE PUSH1 0x20 ADD PUSH1 0x40 MLOAD DUP1 SWAP2 SUB SWAP1 KECCAK256 PUSH1 0x0 DUP2 SLOAD DUP2 LT PUSH2 0x2150 JUMPI PUSH2 0x214F PUSH2 0x44A1 JUMP JUMPDEST JUMPDEST SWAP1 PUSH1 0x0 MSTORE PUSH1 0x20 PUSH1 0x0 KECCAK256 ADD DUP3 PUSH4 0xFFFFFFFF AND DUP2 SLOAD DUP2 LT PUSH2 0x2172 JUMPI PUSH2 0x2171 PUSH2 0x44A1 JUMP JUMPDEST JUMPDEST SWAP1 PUSH1 0x0 MSTORE PUSH1 0x20 PUSH1 0x0 KECCAK256 ADD DUP2 SWAP1 SSTORE POP DUP3 PUSH1 0x1 PUSH1 0x2 DUP2 LT PUSH2 0x2194 JUMPI PUSH2 0x2193 PUSH2 0x44A1 JUMP JUMPDEST JUMPDEST PUSH1 0x20 MUL ADD MLOAD PUSH1 0xE DUP8 PUSH1 0x40 MLOAD PUSH2 0x21A9 SWAP2 SWAP1 PUSH2 0x3E10 JUMP JUMPDEST SWAP1 DUP2 MSTORE PUSH1 0x20 ADD PUSH1 0x40 MLOAD DUP1 SWAP2 SUB SWAP1 KECCAK256 PUSH1 0x1 DUP2 SLOAD DUP2 LT PUSH2 0x21CA JUMPI PUSH2 0x21C9 PUSH2 0x44A1 JUMP JUMPDEST JUMPDEST SWAP1 PUSH1 0x0 MSTORE PUSH1 0x20 PUSH1 0x0 KECCAK256 ADD DUP3 PUSH4 0xFFFFFFFF AND DUP2 SLOAD DUP2 LT PUSH2 0x21EC JUMPI PUSH2 0x21EB PUSH2 0x44A1 JUMP JUMPDEST JUMPDEST SWAP1 PUSH1 0x0 MSTORE PUSH1 0x20 PUSH1 0x0 KECCAK256 ADD DUP2 SWAP1 SSTORE POP DUP1 DUP1 PUSH2 0x2205 SWAP1 PUSH2 0x43E7 JUMP JUMPDEST SWAP2 POP POP PUSH2 0x1836 JUMP JUMPDEST POP JUMPDEST POP POP POP POP POP POP POP POP POP POP POP POP POP JUMP JUMPDEST PUSH1 0x60 PUSH1 0xF DUP3 PUSH1 0x40 MLOAD PUSH2 0x2230 SWAP2 SWAP1 PUSH2 0x3E10 JUMP JUMPDEST SWAP1 DUP2 MSTORE PUSH1 0x20 ADD PUSH1 0x40 MLOAD DUP1 SWAP2 SUB SWAP1 KECCAK256 DUP1 SLOAD DUP1 PUSH1 0x20 MUL PUSH1 0x20 ADD PUSH1 0x40 MLOAD SWAP1 DUP2 ADD PUSH1 0x40 MSTORE DUP1 SWAP3 SWAP2 SWAP1 DUP2 DUP2 MSTORE PUSH1 0x20 ADD PUSH1 0x0 SWAP1 JUMPDEST DUP3 DUP3 LT ISZERO PUSH2 0x22D0 JUMPI DUP4 DUP3 SWAP1 PUSH1 0x0 MSTORE PUSH1 0x20 PUSH1 0x0 KECCAK256 ADD DUP1 SLOAD DUP1 PUSH1 0x20 MUL PUSH1 0x20 ADD PUSH1 0x40 MLOAD SWAP1 DUP2 ADD PUSH1 0x40 MSTORE DUP1 SWAP3 SWAP2 SWAP1 DUP2 DUP2 MSTORE PUSH1 0x20 ADD DUP3 DUP1 SLOAD DUP1 ISZERO PUSH2 0x22BC JUMPI PUSH1 0x20 MUL DUP3 ADD SWAP2 SWAP1 PUSH1 0x0 MSTORE PUSH1 0x20 PUSH1 0x0 KECCAK256 SWAP1 JUMPDEST DUP2 SLOAD DUP2 MSTORE PUSH1 0x20 ADD SWAP1 PUSH1 0x1 ADD SWAP1 DUP1 DUP4 GT PUSH2 0x22A8 JUMPI JUMPDEST POP POP POP POP POP DUP2 MSTORE PUSH1 0x20 ADD SWAP1 PUSH1 0x1 ADD SWAP1 PUSH2 0x225E JUMP JUMPDEST POP POP POP POP SWAP1 POP SWAP2 SWAP1 POP JUMP JUMPDEST PUSH1 0x60 PUSH1 0xD DUP3 PUSH1 0x40 MLOAD PUSH2 0x22ED SWAP2 SWAP1 PUSH2 0x3E10 JUMP JUMPDEST SWAP1 DUP2 MSTORE PUSH1 0x20 ADD PUSH1 0x40 MLOAD DUP1 SWAP2 SUB SWAP1 KECCAK256 DUP1 SLOAD DUP1 PUSH1 0x20 MUL PUSH1 0x20 ADD PUSH1 0x40 MLOAD SWAP1 DUP2 ADD PUSH1 0x40 MSTORE DUP1 SWAP3 SWAP2 SWAP1 DUP2 DUP2 MSTORE PUSH1 0x20 ADD PUSH1 0x0 SWAP1 JUMPDEST DUP3 DUP3 LT ISZERO PUSH2 0x238D JUMPI DUP4 DUP3 SWAP1 PUSH1 0x0 MSTORE PUSH1 0x20 PUSH1 0x0 KECCAK256 ADD DUP1 SLOAD DUP1 PUSH1 0x20 MUL PUSH1 0x20 ADD PUSH1 0x40 MLOAD SWAP1 DUP2 ADD PUSH1 0x40 MSTORE DUP1 SWAP3 SWAP2 SWAP1 DUP2 DUP2 MSTORE PUSH1 0x20 ADD DUP3 DUP1 SLOAD DUP1 ISZERO PUSH2 0x2379 JUMPI PUSH1 0x20 MUL DUP3 ADD SWAP2 SWAP1 PUSH1 0x0 MSTORE PUSH1 0x20 PUSH1 0x0 KECCAK256 SWAP1 JUMPDEST DUP2 SLOAD DUP2 MSTORE PUSH1 0x20 ADD SWAP1 PUSH1 0x1 ADD SWAP1 DUP1 DUP4 GT PUSH2 0x2365 JUMPI JUMPDEST POP POP POP POP POP DUP2 MSTORE PUSH1 0x20 ADD SWAP1 PUSH1 0x1 ADD SWAP1 PUSH2 0x231B JUMP JUMPDEST POP POP POP POP SWAP1 POP SWAP2 SWAP1 POP JUMP JUMPDEST PUSH2 0x23A0 PUSH2 0x30C4 JUMP JUMPDEST PUSH1 0x0 DUP1 PUSH32 0x8000000000000000000000000000000000000000000000000000000000000000 DUP5 AND EQ ISZERO SWAP1 POP PUSH1 0x0 PUSH32 0x7FFFFFFFFFFFFFFFFFFFFFFFFFFFFFFFFFFFFFFFFFFFFFFFFFFFFFFFFFFFFFFF DUP5 AND SWAP1 POP PUSH1 0x0 PUSH32 0x30644E72E131A029B85045B68181585D2833E84879B9709143E1F593F0000001 DUP1 PUSH2 0x2422 JUMPI PUSH2 0x2421 PUSH2 0x4443 JUMP JUMPDEST JUMPDEST DUP3 DUP4 MULMOD SWAP1 POP PUSH1 0x0 PUSH32 0x30644E72E131A029B85045B68181585D2833E84879B9709143E1F593F0000001 DUP1 PUSH2 0x2458 JUMPI PUSH2 0x2457 PUSH2 0x4443 JUMP JUMPDEST JUMPDEST PUSH2 0x24A1 PUSH2 0x249C PUSH3 0x292FC PUSH32 0x30644E72E131A029B85045B68181585D2833E84879B9709143E1F593F0000001 DUP1 PUSH2 0x2491 JUMPI PUSH2 0x2490 PUSH2 0x4443 JUMP JUMPDEST JUMPDEST DUP7 PUSH3 0x292F8 MULMOD PUSH2 0x29DD JUMP JUMPDEST PUSH2 0x2A44 JUMP JUMPDEST PUSH2 0x24AC PUSH1 0x1 DUP6 PUSH2 0x29DD JUMP JUMPDEST MULMOD SWAP1 POP PUSH1 0x0 PUSH2 0x24BA DUP3 PUSH2 0x2A77 JUMP JUMPDEST SWAP1 POP PUSH1 0x0 PUSH32 0x183227397098D014DC2822DB40C0AC2E9419F4243CDCB848A1F0FAC9F8000000 DUP3 GT SWAP1 POP DUP6 DUP1 ISZERO PUSH2 0x24EE JUMPI POP DUP1 ISZERO JUMPDEST DUP1 PUSH2 0x2500 JUMPI POP DUP6 ISZERO DUP1 ISZERO PUSH2 0x24FF JUMPI POP DUP1 JUMPDEST JUMPDEST ISZERO PUSH2 0x2534 JUMPI DUP2 PUSH32 0x30644E72E131A029B85045B68181585D2833E84879B9709143E1F593F0000001 PUSH2 0x2531 SWAP2 SWAP1 PUSH2 0x427D JUMP JUMPDEST SWAP2 POP JUMPDEST PUSH1 0x40 MLOAD DUP1 PUSH1 0x40 ADD PUSH1 0x40 MSTORE DUP1 DUP4 DUP2 MSTORE PUSH1 0x20 ADD DUP7 DUP2 MSTORE POP SWAP7 POP POP POP POP POP POP POP SWAP2 SWAP1 POP JUMP JUMPDEST PUSH2 0x255E PUSH2 0x30C4 JUMP JUMPDEST PUSH1 0x0 PUSH32 0x30644E72E131A029B85045B68181585D2833E84879B9709143E1F593F0000001 DUP1 PUSH2 0x258F JUMPI PUSH2 0x258E PUSH2 0x4443 JUMP JUMPDEST JUMPDEST DUP4 PUSH1 0x0 PUSH1 0x2 DUP2 LT PUSH2 0x25A3 JUMPI PUSH2 0x25A2 PUSH2 0x44A1 JUMP JUMPDEST JUMPDEST PUSH1 0x20 MUL ADD MLOAD DUP6 PUSH1 0x0 PUSH1 0x2 DUP2 LT PUSH2 0x25BC JUMPI PUSH2 0x25BB PUSH2 0x44A1 JUMP JUMPDEST JUMPDEST PUSH1 0x20 MUL ADD MLOAD MULMOD SWAP1 POP PUSH1 0x0 PUSH32 0x30644E72E131A029B85045B68181585D2833E84879B9709143E1F593F0000001 DUP1 PUSH2 0x25F5 JUMPI PUSH2 0x25F4 PUSH2 0x4443 JUMP JUMPDEST JUMPDEST DUP5 PUSH1 0x1 PUSH1 0x2 DUP2 LT PUSH2 0x2609 JUMPI PUSH2 0x2608 PUSH2 0x44A1 JUMP JUMPDEST JUMPDEST PUSH1 0x20 MUL ADD MLOAD DUP7 PUSH1 0x1 PUSH1 0x2 DUP2 LT PUSH2 0x2622 JUMPI PUSH2 0x2621 PUSH2 0x44A1 JUMP JUMPDEST JUMPDEST PUSH1 0x20 MUL ADD MLOAD MULMOD SWAP1 POP PUSH1 0x0 PUSH32 0x30644E72E131A029B85045B68181585D2833E84879B9709143E1F593F0000001 DUP1 PUSH2 0x265B JUMPI PUSH2 0x265A PUSH2 0x4443 JUMP JUMPDEST JUMPDEST PUSH32 0x30644E72E131A029B85045B68181585D2833E84879B9709143E1F593F0000001 DUP1 PUSH2 0x268A JUMPI PUSH2 0x2689 PUSH2 0x4443 JUMP JUMPDEST JUMPDEST DUP4 DUP6 MULMOD PUSH3 0x292F8 MULMOD SWAP1 POP PUSH1 0x0 PUSH32 0x30644E72E131A029B85045B68181585D2833E84879B9709143E1F593F0000001 DUP1 PUSH2 0x26C5 JUMPI PUSH2 0x26C4 PUSH2 0x4443 JUMP JUMPDEST JUMPDEST PUSH32 0x30644E72E131A029B85045B68181585D2833E84879B9709143E1F593F0000001 DUP1 PUSH2 0x26F4 JUMPI PUSH2 0x26F3 PUSH2 0x4443 JUMP JUMPDEST JUMPDEST DUP8 PUSH1 0x0 PUSH1 0x2 DUP2 LT PUSH2 0x2708 JUMPI PUSH2 0x2707 PUSH2 0x44A1 JUMP JUMPDEST JUMPDEST PUSH1 0x20 MUL ADD MLOAD DUP10 PUSH1 0x1 PUSH1 0x2 DUP2 LT PUSH2 0x2721 JUMPI PUSH2 0x2720 PUSH2 0x44A1 JUMP JUMPDEST JUMPDEST PUSH1 0x20 MUL ADD MLOAD MULMOD PUSH32 0x30644E72E131A029B85045B68181585D2833E84879B9709143E1F593F0000001 DUP1 PUSH2 0x2756 JUMPI PUSH2 0x2755 PUSH2 0x4443 JUMP JUMPDEST JUMPDEST DUP9 PUSH1 0x1 PUSH1 0x2 DUP2 LT PUSH2 0x276A JUMPI PUSH2 0x2769 PUSH2 0x44A1 JUMP JUMPDEST JUMPDEST PUSH1 0x20 MUL ADD MLOAD DUP11 PUSH1 0x0 PUSH1 0x2 DUP2 LT PUSH2 0x2783 JUMPI PUSH2 0x2782 PUSH2 0x44A1 JUMP JUMPDEST JUMPDEST PUSH1 0x20 MUL ADD MLOAD MULMOD ADDMOD SWAP1 POP PUSH1 0x0 PUSH2 0x27CC DUP5 PUSH32 0x30644E72E131A029B85045B68181585D2833E84879B9709143E1F593F0000001 DUP1 PUSH2 0x27C1 JUMPI PUSH2 0x27C0 PUSH2 0x4443 JUMP JUMPDEST JUMPDEST DUP8 PUSH3 0x292FC MULMOD PUSH2 0x29DD JUMP JUMPDEST SWAP1 POP PUSH1 0x40 MLOAD DUP1 PUSH1 0x40 ADD PUSH1 0x40 MSTORE DUP1 PUSH32 0x30644E72E131A029B85045B68181585D2833E84879B9709143E1F593F0000001 DUP1 PUSH2 0x2808 JUMPI PUSH2 0x2807 PUSH2 0x4443 JUMP JUMPDEST JUMPDEST PUSH2 0x2843 PUSH32 0x30644E72E131A029B85045B68181585D2833E84879B9709143E1F593F0000001 DUP1 PUSH2 0x283A JUMPI PUSH2 0x2839 PUSH2 0x4443 JUMP JUMPDEST JUMPDEST DUP8 PUSH1 0x1 ADDMOD PUSH2 0x2A44 JUMP JUMPDEST DUP6 MULMOD DUP2 MSTORE PUSH1 0x20 ADD PUSH32 0x30644E72E131A029B85045B68181585D2833E84879B9709143E1F593F0000001 DUP1 PUSH2 0x2879 JUMPI PUSH2 0x2878 PUSH2 0x4443 JUMP JUMPDEST JUMPDEST PUSH2 0x288C PUSH2 0x2887 PUSH1 0x1 DUP9 PUSH2 0x29DD JUMP JUMPDEST PUSH2 0x2A44 JUMP JUMPDEST DUP5 MULMOD DUP2 MSTORE POP SWAP6 POP POP POP POP POP POP SWAP3 SWAP2 POP POP JUMP JUMPDEST PUSH2 0x28A6 PUSH2 0x31CC JUMP JUMPDEST DUP2 PUSH1 0x0 PUSH1 0x2 DUP2 LT PUSH2 0x28BA JUMPI PUSH2 0x28B9 PUSH2 0x44A1 JUMP JUMPDEST JUMPDEST PUSH1 0x20 MUL ADD MLOAD DUP2 PUSH1 0x0 PUSH1 0x4 DUP2 LT PUSH2 0x28D3 JUMPI PUSH2 0x28D2 PUSH2 0x44A1 JUMP JUMPDEST JUMPDEST PUSH1 0x20 MUL ADD DUP2 DUP2 MSTORE POP POP DUP2 PUSH1 0x1 PUSH1 0x2 DUP2 LT PUSH2 0x28F0 JUMPI PUSH2 0x28EF PUSH2 0x44A1 JUMP JUMPDEST JUMPDEST PUSH1 0x20 MUL ADD MLOAD DUP2 PUSH1 0x1 PUSH1 0x4 DUP2 LT PUSH2 0x2909 JUMPI PUSH2 0x2908 PUSH2 0x44A1 JUMP JUMPDEST JUMPDEST PUSH1 0x20 MUL ADD DUP2 DUP2 MSTORE POP POP PUSH32 0x30644E72E131A029B85045B68181585D2833E84879B9709143E1F593F0000001 DUP1 PUSH2 0x2941 JUMPI PUSH2 0x2940 PUSH2 0x4443 JUMP JUMPDEST JUMPDEST DUP3 PUSH1 0x1 PUSH1 0x2 DUP2 LT PUSH2 0x2955 JUMPI PUSH2 0x2954 PUSH2 0x44A1 JUMP JUMPDEST JUMPDEST PUSH1 0x20 MUL ADD MLOAD DUP4 PUSH1 0x0 PUSH1 0x2 DUP2 LT PUSH2 0x296E JUMPI PUSH2 0x296D PUSH2 0x44A1 JUMP JUMPDEST JUMPDEST PUSH1 0x20 MUL ADD MLOAD MULMOD DUP2 PUSH1 0x2 PUSH1 0x4 DUP2 LT PUSH2 0x2988 JUMPI PUSH2 0x2987 PUSH2 0x44A1 JUMP JUMPDEST JUMPDEST PUSH1 0x20 MUL ADD DUP2 DUP2 MSTORE POP POP PUSH1 0x1 DUP2 PUSH1 0x3 PUSH1 0x4 DUP2 LT PUSH2 0x29A7 JUMPI PUSH2 0x29A6 PUSH2 0x44A1 JUMP JUMPDEST JUMPDEST PUSH1 0x20 MUL ADD DUP2 DUP2 MSTORE POP POP SWAP2 SWAP1 POP JUMP JUMPDEST PUSH2 0x29BD PUSH2 0x30C4 JUMP JUMPDEST PUSH1 0x0 PUSH2 0x29C9 DUP5 DUP5 PUSH2 0x2C95 JUMP JUMPDEST SWAP1 POP PUSH2 0x29D4 DUP2 PUSH2 0x2DA4 JUMP JUMPDEST SWAP2 POP POP SWAP3 SWAP2 POP POP JUMP JUMPDEST PUSH1 0x0 PUSH32 0x30644E72E131A029B85045B68181585D2833E84879B9709143E1F593F0000001 DUP1 PUSH2 0x2A0E JUMPI PUSH2 0x2A0D PUSH2 0x4443 JUMP JUMPDEST JUMPDEST DUP3 PUSH32 0x30644E72E131A029B85045B68181585D2833E84879B9709143E1F593F0000001 PUSH2 0x2A3A SWAP2 SWAP1 PUSH2 0x427D JUMP JUMPDEST DUP5 ADDMOD SWAP1 POP SWAP3 SWAP2 POP POP JUMP JUMPDEST PUSH1 0x0 PUSH2 0x2A70 DUP3 PUSH32 0x30644E72E131A029B85045B68181585D2833E84879B9709143E1F593EFFFFFFF PUSH2 0x2EA5 JUMP JUMPDEST SWAP1 POP SWAP2 SWAP1 POP JUMP JUMPDEST PUSH1 0x0 PUSH2 0x2AA0 DUP3 PUSH29 0x183227397098D014DC2822DB40C0AC2E9419F4243CDCB848A1F0FACA0 PUSH2 0x2EA5 JUMP JUMPDEST SWAP1 POP PUSH1 0x0 PUSH2 0x2ACB DUP4 PUSH29 0x30644E72E131A029B85045B68181585D2833E84879B9709143E1F593F PUSH2 0x2EA5 JUMP JUMPDEST SWAP1 POP PUSH1 0x0 PUSH32 0x2A3C09F0A58A7E8500E0A7EB8EF62ABC402D111E41112ED49BD61B6E725B19F0 SWAP1 POP PUSH1 0x0 DUP1 PUSH1 0x1C SWAP1 POP PUSH1 0x0 JUMPDEST PUSH1 0x1 ISZERO PUSH2 0x2C8A JUMPI PUSH1 0x0 SWAP1 POP DUP5 SWAP3 POP JUMPDEST PUSH1 0x1 DUP4 EQ PUSH2 0x2B5A JUMPI PUSH32 0x30644E72E131A029B85045B68181585D2833E84879B9709143E1F593F0000001 DUP1 PUSH2 0x2B42 JUMPI PUSH2 0x2B41 PUSH2 0x4443 JUMP JUMPDEST JUMPDEST DUP4 DUP5 MULMOD SWAP3 POP DUP1 DUP1 PUSH2 0x2B52 SWAP1 PUSH2 0x43BC JUMP JUMPDEST SWAP2 POP POP PUSH2 0x2B0B JUMP JUMPDEST PUSH1 0x0 DUP2 PUSH2 0xFFFF AND EQ ISZERO PUSH2 0x2B71 JUMPI POP POP POP POP POP PUSH2 0x2C90 JUMP JUMPDEST DUP4 SWAP3 POP PUSH1 0x0 JUMPDEST PUSH1 0x1 DUP3 DUP5 PUSH2 0x2B85 SWAP2 SWAP1 PUSH2 0x4249 JUMP JUMPDEST PUSH2 0x2B8F SWAP2 SWAP1 PUSH2 0x4249 JUMP JUMPDEST PUSH2 0xFFFF AND DUP2 PUSH2 0xFFFF AND LT ISZERO PUSH2 0x2BE5 JUMPI PUSH32 0x30644E72E131A029B85045B68181585D2833E84879B9709143E1F593F0000001 DUP1 PUSH2 0x2BCD JUMPI PUSH2 0x2BCC PUSH2 0x4443 JUMP JUMPDEST JUMPDEST DUP5 DUP6 MULMOD SWAP4 POP DUP1 DUP1 PUSH2 0x2BDD SWAP1 PUSH2 0x43BC JUMP JUMPDEST SWAP2 POP POP PUSH2 0x2B77 JUMP JUMPDEST POP PUSH32 0x30644E72E131A029B85045B68181585D2833E84879B9709143E1F593F0000001 DUP1 PUSH2 0x2C15 JUMPI PUSH2 0x2C14 PUSH2 0x4443 JUMP JUMPDEST JUMPDEST DUP4 DUP5 MULMOD SWAP4 POP PUSH32 0x30644E72E131A029B85045B68181585D2833E84879B9709143E1F593F0000001 DUP1 PUSH2 0x2C49 JUMPI PUSH2 0x2C48 PUSH2 0x4443 JUMP JUMPDEST JUMPDEST DUP7 DUP5 MULMOD SWAP6 POP PUSH32 0x30644E72E131A029B85045B68181585D2833E84879B9709143E1F593F0000001 DUP1 PUSH2 0x2C7D JUMPI PUSH2 0x2C7C PUSH2 0x4443 JUMP JUMPDEST JUMPDEST DUP5 DUP7 MULMOD SWAP5 POP DUP1 SWAP2 POP PUSH2 0x2AFC JUMP JUMPDEST POP POP POP POP POP JUMPDEST SWAP2 SWAP1 POP JUMP JUMPDEST PUSH2 0x2C9D PUSH2 0x31CC JUMP JUMPDEST PUSH32 0x30644E72E131A029B85045B68181585D2833E84879B9709143E1F593F0000001 PUSH3 0x292FC PUSH3 0x292F8 DUP3 DUP6 MLOAD DUP8 MLOAD MULMOD DUP4 PUSH1 0x20 DUP8 ADD MLOAD PUSH1 0x20 DUP10 ADD MLOAD MULMOD DUP5 PUSH1 0x40 DUP9 ADD MLOAD DUP7 PUSH1 0x40 DUP12 ADD MLOAD DUP7 MULMOD MULMOD DUP6 PUSH1 0x60 DUP10 ADD MLOAD PUSH1 0x60 DUP12 ADD MLOAD MULMOD DUP7 DUP8 PUSH1 0x20 DUP12 ADD MLOAD DUP12 MLOAD ADDMOD DUP9 PUSH1 0x20 DUP14 ADD MLOAD DUP14 MLOAD ADDMOD MULMOD PUSH1 0x1 DUP6 ADD DUP2 LT ISZERO PUSH2 0x2D18 JUMPI DUP8 DUP2 ADD SWAP1 POP JUMPDEST DUP8 DUP6 DUP3 SUB MOD SWAP1 POP PUSH1 0x1 DUP5 ADD DUP2 LT ISZERO PUSH2 0x2D30 JUMPI DUP8 DUP2 ADD SWAP1 POP JUMPDEST DUP8 DUP5 DUP3 SUB MOD SWAP1 POP DUP2 PUSH1 0x1 DUP5 ADD DUP2 LT ISZERO PUSH2 0x2D49 JUMPI DUP9 DUP2 ADD SWAP1 POP JUMPDEST DUP9 DUP5 DUP3 SUB MOD SWAP1 POP DUP9 DUP5 DUP5 ADDMOD DUP10 DUP8 DUP11 MULMOD DUP7 PUSH1 0x1 DUP3 ADD DUP2 LT ISZERO PUSH2 0x2D6A JUMPI DUP12 DUP2 ADD SWAP1 POP JUMPDEST DUP12 DUP3 DUP3 SUB MOD SWAP1 POP DUP12 DUP5 DUP7 MULMOD DUP14 MSTORE DUP12 DUP2 DUP5 MULMOD PUSH1 0x20 DUP15 ADD MSTORE DUP12 DUP2 DUP7 MULMOD PUSH1 0x40 DUP15 ADD MSTORE DUP12 DUP4 DUP6 MULMOD PUSH1 0x60 DUP15 ADD MSTORE POP POP POP POP POP POP POP POP POP POP POP POP SWAP3 SWAP2 POP POP JUMP JUMPDEST PUSH2 0x2DAC PUSH2 0x30C4 JUMP JUMPDEST PUSH1 0x0 PUSH2 0x2DCF DUP4 PUSH1 0x3 PUSH1 0x4 DUP2 LT PUSH2 0x2DC5 JUMPI PUSH2 0x2DC4 PUSH2 0x44A1 JUMP JUMPDEST JUMPDEST PUSH1 0x20 MUL ADD MLOAD PUSH2 0x2A44 JUMP JUMPDEST SWAP1 POP PUSH32 0x30644E72E131A029B85045B68181585D2833E84879B9709143E1F593F0000001 DUP1 PUSH2 0x2E00 JUMPI PUSH2 0x2DFF PUSH2 0x4443 JUMP JUMPDEST JUMPDEST DUP2 DUP5 PUSH1 0x0 PUSH1 0x4 DUP2 LT PUSH2 0x2E15 JUMPI PUSH2 0x2E14 PUSH2 0x44A1 JUMP JUMPDEST JUMPDEST PUSH1 0x20 MUL ADD MLOAD MULMOD DUP3 PUSH1 0x0 PUSH1 0x2 DUP2 LT PUSH2 0x2E2F JUMPI PUSH2 0x2E2E PUSH2 0x44A1 JUMP JUMPDEST JUMPDEST PUSH1 0x20 MUL ADD DUP2 DUP2 MSTORE POP POP PUSH32 0x30644E72E131A029B85045B68181585D2833E84879B9709143E1F593F0000001 DUP1 PUSH2 0x2E67 JUMPI PUSH2 0x2E66 PUSH2 0x4443 JUMP JUMPDEST JUMPDEST DUP2 DUP5 PUSH1 0x1 PUSH1 0x4 DUP2 LT PUSH2 0x2E7C JUMPI PUSH2 0x2E7B PUSH2 0x44A1 JUMP JUMPDEST JUMPDEST PUSH1 0x20 MUL ADD MLOAD MULMOD DUP3 PUSH1 0x1 PUSH1 0x2 DUP2 LT PUSH2 0x2E96 JUMPI PUSH2 0x2E95 PUSH2 0x44A1 JUMP JUMPDEST JUMPDEST PUSH1 0x20 MUL ADD DUP2 DUP2 MSTORE POP POP POP SWAP2 SWAP1 POP JUMP JUMPDEST PUSH1 0x0 PUSH32 0x30644E72E131A029B85045B68181585D2833E84879B9709143E1F593F0000001 PUSH1 0x40 MLOAD PUSH1 0x20 DUP2 MSTORE PUSH1 0x20 DUP1 DUP3 ADD MSTORE PUSH1 0x20 PUSH1 0x40 DUP3 ADD MSTORE DUP5 PUSH1 0x60 DUP3 ADD MSTORE DUP4 PUSH1 0x80 DUP3 ADD MSTORE DUP2 PUSH1 0xA0 DUP3 ADD MSTORE PUSH1 0x20 DUP2 PUSH1 0xC0 DUP4 PUSH1 0x5 GAS STATICCALL DUP1 PUSH1 0x0 DUP2 EQ PUSH2 0x2F0A JUMPI DUP3 MLOAD SWAP5 POP PUSH2 0x2F0F JUMP JUMPDEST PUSH1 0x0 DUP1 REVERT JUMPDEST POP POP POP POP SWAP3 SWAP2 POP POP JUMP JUMPDEST DUP3 PUSH1 0x2 DUP2 ADD SWAP3 DUP3 ISZERO PUSH2 0x2F48 JUMPI SWAP2 PUSH1 0x20 MUL DUP3 ADD JUMPDEST DUP3 DUP2 GT ISZERO PUSH2 0x2F47 JUMPI DUP3 MLOAD DUP3 SSTORE SWAP2 PUSH1 0x20 ADD SWAP2 SWAP1 PUSH1 0x1 ADD SWAP1 PUSH2 0x2F2C JUMP JUMPDEST JUMPDEST POP SWAP1 POP PUSH2 0x2F55 SWAP2 SWAP1 PUSH2 0x31EE JUMP JUMPDEST POP SWAP1 JUMP JUMPDEST PUSH1 0x40 MLOAD DUP1 PUSH1 0x60 ADD PUSH1 0x40 MSTORE DUP1 PUSH2 0x2F6C PUSH2 0x320B JUMP JUMPDEST DUP2 MSTORE PUSH1 0x20 ADD PUSH2 0x2F79 PUSH2 0x3225 JUMP JUMPDEST DUP2 MSTORE PUSH1 0x20 ADD PUSH2 0x2F86 PUSH2 0x320B JUMP JUMPDEST DUP2 MSTORE POP SWAP1 JUMP JUMPDEST PUSH1 0x40 MLOAD DUP1 PUSH2 0x420 ADD PUSH1 0x40 MSTORE DUP1 PUSH1 0x21 SWAP1 PUSH1 0x20 DUP3 MUL DUP1 CALLDATASIZE DUP4 CALLDATACOPY DUP1 DUP3 ADD SWAP2 POP POP SWAP1 POP POP SWAP1 JUMP JUMPDEST DUP3 DUP1 SLOAD DUP3 DUP3 SSTORE SWAP1 PUSH1 0x0 MSTORE PUSH1 0x20 PUSH1 0x0 KECCAK256 SWAP1 DUP2 ADD SWAP3 DUP3 ISZERO PUSH2 0x2FFE JUMPI SWAP2 PUSH1 0x20 MUL DUP3 ADD JUMPDEST DUP3 DUP2 GT ISZERO PUSH2 0x2FFD JUMPI DUP3 MLOAD DUP3 SWAP1 DUP1 MLOAD SWAP1 PUSH1 0x20 ADD SWAP1 PUSH2 0x2FED SWAP3 SWAP2 SWAP1 PUSH2 0x324B JUMP JUMPDEST POP SWAP2 PUSH1 0x20 ADD SWAP2 SWAP1 PUSH1 0x1 ADD SWAP1 PUSH2 0x2FCF JUMP JUMPDEST JUMPDEST POP SWAP1 POP PUSH2 0x300B SWAP2 SWAP1 PUSH2 0x3298 JUMP JUMPDEST POP SWAP1 JUMP JUMPDEST DUP3 DUP1 SLOAD DUP3 DUP3 SSTORE SWAP1 PUSH1 0x0 MSTORE PUSH1 0x20 PUSH1 0x0 KECCAK256 SWAP1 DUP2 ADD SWAP3 DUP3 ISZERO PUSH2 0x305D JUMPI PUSH1 0x0 MSTORE PUSH1 0x20 PUSH1 0x0 KECCAK256 SWAP2 DUP3 ADD JUMPDEST DUP3 DUP2 GT ISZERO PUSH2 0x305C JUMPI DUP3 DUP3 SWAP1 DUP1 SLOAD PUSH2 0x304C SWAP3 SWAP2 SWAP1 PUSH2 0x32BC JUMP JUMPDEST POP SWAP2 PUSH1 0x1 ADD SWAP2 SWAP1 PUSH1 0x1 ADD SWAP1 PUSH2 0x3034 JUMP JUMPDEST JUMPDEST POP SWAP1 POP PUSH2 0x306A SWAP2 SWAP1 PUSH2 0x3298 JUMP JUMPDEST POP SWAP1 JUMP JUMPDEST PUSH1 0x40 MLOAD DUP1 PUSH2 0x300 ADD PUSH1 0x40 MSTORE DUP1 PUSH1 0x18 SWAP1 PUSH1 0x20 DUP3 MUL DUP1 CALLDATASIZE DUP4 CALLDATACOPY DUP1 DUP3 ADD SWAP2 POP POP SWAP1 POP POP SWAP1 JUMP JUMPDEST PUSH1 0x40 MLOAD DUP1 PUSH1 0x60 ADD PUSH1 0x40 MSTORE DUP1 PUSH2 0x30A4 PUSH2 0x320B JUMP JUMPDEST DUP2 MSTORE PUSH1 0x20 ADD PUSH2 0x30B1 PUSH2 0x3225 JUMP JUMPDEST DUP2 MSTORE PUSH1 0x20 ADD PUSH2 0x30BE PUSH2 0x320B JUMP JUMPDEST DUP2 MSTORE POP SWAP1 JUMP JUMPDEST PUSH1 0x40 MLOAD DUP1 PUSH1 0x40 ADD PUSH1 0x40 MSTORE DUP1 PUSH1 0x2 SWAP1 PUSH1 0x20 DUP3 MUL DUP1 CALLDATASIZE DUP4 CALLDATACOPY DUP1 DUP3 ADD SWAP2 POP POP SWAP1 POP POP SWAP1 JUMP JUMPDEST DUP3 DUP1 SLOAD PUSH2 0x30F2 SWAP1 PUSH2 0x4359 JUMP JUMPDEST SWAP1 PUSH1 0x0 MSTORE PUSH1 0x20 PUSH1 0x0 KECCAK256 SWAP1 PUSH1 0x1F ADD PUSH1 0x20 SWAP1 DIV DUP2 ADD SWAP3 DUP3 PUSH2 0x3114 JUMPI PUSH1 0x0 DUP6 SSTORE PUSH2 0x315B JUMP JUMPDEST DUP3 PUSH1 0x1F LT PUSH2 0x312D JUMPI DUP1 MLOAD PUSH1 0xFF NOT AND DUP4 DUP1 ADD OR DUP6 SSTORE PUSH2 0x315B JUMP JUMPDEST DUP3 DUP1 ADD PUSH1 0x1 ADD DUP6 SSTORE DUP3 ISZERO PUSH2 0x315B JUMPI SWAP2 DUP3 ADD JUMPDEST DUP3 DUP2 GT ISZERO PUSH2 0x315A JUMPI DUP3 MLOAD DUP3 SSTORE SWAP2 PUSH1 0x20 ADD SWAP2 SWAP1 PUSH1 0x1 ADD SWAP1 PUSH2 0x313F JUMP JUMPDEST JUMPDEST POP SWAP1 POP PUSH2 0x3168 SWAP2 SWAP1 PUSH2 0x31EE JUMP JUMPDEST POP SWAP1 JUMP JUMPDEST DUP3 DUP1 SLOAD DUP3 DUP3 SSTORE SWAP1 PUSH1 0x0 MSTORE PUSH1 0x20 PUSH1 0x0 KECCAK256 SWAP1 DUP2 ADD SWAP3 DUP3 ISZERO PUSH2 0x31BB JUMPI SWAP2 PUSH1 0x20 MUL DUP3 ADD JUMPDEST DUP3 DUP2 GT ISZERO PUSH2 0x31BA JUMPI DUP3 MLOAD DUP3 SWAP1 DUP1 MLOAD SWAP1 PUSH1 0x20 ADD SWAP1 PUSH2 0x31AA SWAP3 SWAP2 SWAP1 PUSH2 0x324B JUMP JUMPDEST POP SWAP2 PUSH1 0x20 ADD SWAP2 SWAP1 PUSH1 0x1 ADD SWAP1 PUSH2 0x318C JUMP JUMPDEST JUMPDEST POP SWAP1 POP PUSH2 0x31C8 SWAP2 SWAP1 PUSH2 0x3298 JUMP JUMPDEST POP SWAP1 JUMP JUMPDEST PUSH1 0x40 MLOAD DUP1 PUSH1 0x80 ADD PUSH1 0x40 MSTORE DUP1 PUSH1 0x4 SWAP1 PUSH1 0x20 DUP3 MUL DUP1 CALLDATASIZE DUP4 CALLDATACOPY DUP1 DUP3 ADD SWAP2 POP POP SWAP1 POP POP SWAP1 JUMP JUMPDEST JUMPDEST DUP1 DUP3 GT ISZERO PUSH2 0x3207 JUMPI PUSH1 0x0 DUP2 PUSH1 0x0 SWAP1 SSTORE POP PUSH1 0x1 ADD PUSH2 0x31EF JUMP JUMPDEST POP SWAP1 JUMP JUMPDEST PUSH1 0x40 MLOAD DUP1 PUSH1 0x40 ADD PUSH1 0x40 MSTORE DUP1 PUSH1 0x0 DUP2 MSTORE PUSH1 0x20 ADD PUSH1 0x0 DUP2 MSTORE POP SWAP1 JUMP JUMPDEST PUSH1 0x40 MLOAD DUP1 PUSH1 0x40 ADD PUSH1 0x40 MSTORE DUP1 PUSH2 0x3238 PUSH2 0x30C4 JUMP JUMPDEST DUP2 MSTORE PUSH1 0x20 ADD PUSH2 0x3245 PUSH2 0x30C4 JUMP JUMPDEST DUP2 MSTORE POP SWAP1 JUMP JUMPDEST DUP3 DUP1 SLOAD DUP3 DUP3 SSTORE SWAP1 PUSH1 0x0 MSTORE PUSH1 0x20 PUSH1 0x0 KECCAK256 SWAP1 DUP2 ADD SWAP3 DUP3 ISZERO PUSH2 0x3287 JUMPI SWAP2 PUSH1 0x20 MUL DUP3 ADD JUMPDEST DUP3 DUP2 GT ISZERO PUSH2 0x3286 JUMPI DUP3 MLOAD DUP3 SSTORE SWAP2 PUSH1 0x20 ADD SWAP2 SWAP1 PUSH1 0x1 ADD SWAP1 PUSH2 0x326B JUMP JUMPDEST JUMPDEST POP SWAP1 POP PUSH2 0x3294 SWAP2 SWAP1 PUSH2 0x31EE JUMP JUMPDEST POP SWAP1 JUMP JUMPDEST JUMPDEST DUP1 DUP3 GT ISZERO PUSH2 0x32B8 JUMPI PUSH1 0x0 DUP2 DUP2 PUSH2 0x32AF SWAP2 SWAP1 PUSH2 0x330E JUMP JUMPDEST POP PUSH1 0x1 ADD PUSH2 0x3299 JUMP JUMPDEST POP SWAP1 JUMP JUMPDEST DUP3 DUP1 SLOAD DUP3 DUP3 SSTORE SWAP1 PUSH1 0x0 MSTORE PUSH1 0x20 PUSH1 0x0 KECCAK256 SWAP1 DUP2 ADD SWAP3 DUP3 ISZERO PUSH2 0x32FD JUMPI PUSH1 0x0 MSTORE PUSH1 0x20 PUSH1 0x0 KECCAK256 SWAP2 DUP3 ADD JUMPDEST DUP3 DUP2 GT ISZERO PUSH2 0x32FC JUMPI DUP3 SLOAD DUP3 SSTORE SWAP2 PUSH1 0x1 ADD SWAP2 SWAP1 PUSH1 0x1 ADD SWAP1 PUSH2 0x32E1 JUMP JUMPDEST JUMPDEST POP SWAP1 POP PUSH2 0x330A SWAP2 SWAP1 PUSH2 0x31EE JUMP JUMPDEST POP SWAP1 JUMP JUMPDEST POP DUP1 SLOAD PUSH1 0x0 DUP3 SSTORE SWAP1 PUSH1 0x0 MSTORE PUSH1 0x20 PUSH1 0x0 KECCAK256 SWAP1 DUP2 ADD SWAP1 PUSH2 0x332C SWAP2 SWAP1 PUSH2 0x31EE JUMP JUMPDEST POP JUMP JUMPDEST PUSH1 0x0 PUSH2 0x3342 PUSH2 0x333D DUP5 PUSH2 0x3F71 JUMP JUMPDEST PUSH2 0x3F4C JUMP JUMPDEST SWAP1 POP DUP1 DUP3 DUP6 PUSH1 0x40 DUP7 MUL DUP3 ADD GT ISZERO PUSH2 0x335C JUMPI PUSH2 0x335B PUSH2 0x4504 JUMP JUMPDEST JUMPDEST PUSH1 0x0 JUMPDEST DUP6 DUP2 LT ISZERO PUSH2 0x338C JUMPI DUP2 PUSH2 0x3372 DUP9 DUP3 PUSH2 0x35AB JUMP JUMPDEST DUP5 MSTORE PUSH1 0x20 DUP5 ADD SWAP4 POP PUSH1 0x40 DUP4 ADD SWAP3 POP POP PUSH1 0x1 DUP2 ADD SWAP1 POP PUSH2 0x335F JUMP JUMPDEST POP POP POP SWAP4 SWAP3 POP POP POP JUMP JUMPDEST PUSH1 0x0 PUSH2 0x33A9 PUSH2 0x33A4 DUP5 PUSH2 0x3F97 JUMP JUMPDEST PUSH2 0x3F4C JUMP JUMPDEST SWAP1 POP DUP1 DUP4 DUP3 MSTORE PUSH1 0x20 DUP3 ADD SWAP1 POP DUP3 DUP6 PUSH1 0x20 DUP7 MUL DUP3 ADD GT ISZERO PUSH2 0x33CC JUMPI PUSH2 0x33CB PUSH2 0x4504 JUMP JUMPDEST JUMPDEST PUSH1 0x0 JUMPDEST DUP6 DUP2 LT ISZERO PUSH2 0x341A JUMPI DUP2 CALLDATALOAD PUSH8 0xFFFFFFFFFFFFFFFF DUP2 GT ISZERO PUSH2 0x33F2 JUMPI PUSH2 0x33F1 PUSH2 0x44FF JUMP JUMPDEST JUMPDEST DUP1 DUP7 ADD PUSH2 0x33FF DUP10 DUP3 PUSH2 0x35D6 JUMP JUMPDEST DUP6 MSTORE PUSH1 0x20 DUP6 ADD SWAP5 POP PUSH1 0x20 DUP5 ADD SWAP4 POP POP POP PUSH1 0x1 DUP2 ADD SWAP1 POP PUSH2 0x33CF JUMP JUMPDEST POP POP POP SWAP4 SWAP3 POP POP POP JUMP JUMPDEST PUSH1 0x0 PUSH2 0x3437 PUSH2 0x3432 DUP5 PUSH2 0x3FC3 JUMP JUMPDEST PUSH2 0x3F4C JUMP JUMPDEST SWAP1 POP DUP1 DUP3 DUP6 PUSH1 0x20 DUP7 MUL DUP3 ADD GT ISZERO PUSH2 0x3451 JUMPI PUSH2 0x3450 PUSH2 0x4504 JUMP JUMPDEST JUMPDEST PUSH1 0x0 JUMPDEST DUP6 DUP2 LT ISZERO PUSH2 0x3481 JUMPI DUP2 PUSH2 0x3467 DUP9 DUP3 PUSH2 0x3647 JUMP JUMPDEST DUP5 MSTORE PUSH1 0x20 DUP5 ADD SWAP4 POP PUSH1 0x20 DUP4 ADD SWAP3 POP POP PUSH1 0x1 DUP2 ADD SWAP1 POP PUSH2 0x3454 JUMP JUMPDEST POP POP POP SWAP4 SWAP3 POP POP POP JUMP JUMPDEST PUSH1 0x0 PUSH2 0x349E PUSH2 0x3499 DUP5 PUSH2 0x3FE9 JUMP JUMPDEST PUSH2 0x3F4C JUMP JUMPDEST SWAP1 POP DUP1 DUP4 DUP3 MSTORE PUSH1 0x20 DUP3 ADD SWAP1 POP DUP3 DUP6 PUSH1 0x20 DUP7 MUL DUP3 ADD GT ISZERO PUSH2 0x34C1 JUMPI PUSH2 0x34C0 PUSH2 0x4504 JUMP JUMPDEST JUMPDEST PUSH1 0x0 JUMPDEST DUP6 DUP2 LT ISZERO PUSH2 0x34F1 JUMPI DUP2 PUSH2 0x34D7 DUP9 DUP3 PUSH2 0x3647 JUMP JUMPDEST DUP5 MSTORE PUSH1 0x20 DUP5 ADD SWAP4 POP PUSH1 0x20 DUP4 ADD SWAP3 POP POP PUSH1 0x1 DUP2 ADD SWAP1 POP PUSH2 0x34C4 JUMP JUMPDEST POP POP POP SWAP4 SWAP3 POP POP POP JUMP JUMPDEST PUSH1 0x0 PUSH2 0x350E PUSH2 0x3509 DUP5 PUSH2 0x4015 JUMP JUMPDEST PUSH2 0x3F4C JUMP JUMPDEST SWAP1 POP DUP3 DUP2 MSTORE PUSH1 0x20 DUP2 ADD DUP5 DUP5 DUP5 ADD GT ISZERO PUSH2 0x352A JUMPI PUSH2 0x3529 PUSH2 0x4509 JUMP JUMPDEST JUMPDEST PUSH2 0x3535 DUP5 DUP3 DUP6 PUSH2 0x4317 JUMP JUMPDEST POP SWAP4 SWAP3 POP POP POP JUMP JUMPDEST PUSH1 0x0 DUP2 CALLDATALOAD SWAP1 POP PUSH2 0x354C DUP2 PUSH2 0x45CA JUMP JUMPDEST SWAP3 SWAP2 POP POP JUMP JUMPDEST PUSH1 0x0 DUP3 PUSH1 0x1F DUP4 ADD SLT PUSH2 0x3567 JUMPI PUSH2 0x3566 PUSH2 0x44FF JUMP JUMPDEST JUMPDEST PUSH1 0x2 PUSH2 0x3574 DUP5 DUP3 DUP6 PUSH2 0x332F JUMP JUMPDEST SWAP2 POP POP SWAP3 SWAP2 POP POP JUMP JUMPDEST PUSH1 0x0 DUP3 PUSH1 0x1F DUP4 ADD SLT PUSH2 0x3592 JUMPI PUSH2 0x3591 PUSH2 0x44FF JUMP JUMPDEST JUMPDEST DUP2 CALLDATALOAD PUSH2 0x35A2 DUP5 DUP3 PUSH1 0x20 DUP7 ADD PUSH2 0x3396 JUMP JUMPDEST SWAP2 POP POP SWAP3 SWAP2 POP POP JUMP JUMPDEST PUSH1 0x0 DUP3 PUSH1 0x1F DUP4 ADD SLT PUSH2 0x35C0 JUMPI PUSH2 0x35BF PUSH2 0x44FF JUMP JUMPDEST JUMPDEST PUSH1 0x2 PUSH2 0x35CD DUP5 DUP3 DUP6 PUSH2 0x3424 JUMP JUMPDEST SWAP2 POP POP SWAP3 SWAP2 POP POP JUMP JUMPDEST PUSH1 0x0 DUP3 PUSH1 0x1F DUP4 ADD SLT PUSH2 0x35EB JUMPI PUSH2 0x35EA PUSH2 0x44FF JUMP JUMPDEST JUMPDEST DUP2 CALLDATALOAD PUSH2 0x35FB DUP5 DUP3 PUSH1 0x20 DUP7 ADD PUSH2 0x348B JUMP JUMPDEST SWAP2 POP POP SWAP3 SWAP2 POP POP JUMP JUMPDEST PUSH1 0x0 DUP2 MLOAD SWAP1 POP PUSH2 0x3613 DUP2 PUSH2 0x45E1 JUMP JUMPDEST SWAP3 SWAP2 POP POP JUMP JUMPDEST PUSH1 0x0 DUP3 PUSH1 0x1F DUP4 ADD SLT PUSH2 0x362E JUMPI PUSH2 0x362D PUSH2 0x44FF JUMP JUMPDEST JUMPDEST DUP2 CALLDATALOAD PUSH2 0x363E DUP5 DUP3 PUSH1 0x20 DUP7 ADD PUSH2 0x34FB JUMP JUMPDEST SWAP2 POP POP SWAP3 SWAP2 POP POP JUMP JUMPDEST PUSH1 0x0 DUP2 CALLDATALOAD SWAP1 POP PUSH2 0x3656 DUP2 PUSH2 0x45F8 JUMP JUMPDEST SWAP3 SWAP2 POP POP JUMP JUMPDEST PUSH1 0x0 PUSH1 0x20 DUP3 DUP5 SUB SLT ISZERO PUSH2 0x3672 JUMPI PUSH2 0x3671 PUSH2 0x4513 JUMP JUMPDEST JUMPDEST PUSH1 0x0 PUSH2 0x3680 DUP5 DUP3 DUP6 ADD PUSH2 0x353D JUMP JUMPDEST SWAP2 POP POP SWAP3 SWAP2 POP POP JUMP JUMPDEST PUSH1 0x0 DUP1 PUSH1 0x0 DUP1 PUSH1 0x0 DUP1 PUSH1 0x0 DUP1 PUSH1 0x0 PUSH2 0x1E0 DUP11 DUP13 SUB SLT ISZERO PUSH2 0x36AC JUMPI PUSH2 0x36AB PUSH2 0x4513 JUMP JUMPDEST JUMPDEST PUSH1 0x0 PUSH2 0x36BA DUP13 DUP3 DUP14 ADD PUSH2 0x35AB JUMP JUMPDEST SWAP10 POP POP PUSH1 0x40 PUSH2 0x36CB DUP13 DUP3 DUP14 ADD PUSH2 0x3552 JUMP JUMPDEST SWAP9 POP POP PUSH1 0xC0 PUSH2 0x36DC DUP13 DUP3 DUP14 ADD PUSH2 0x35AB JUMP JUMPDEST SWAP8 POP POP PUSH2 0x100 DUP11 ADD CALLDATALOAD PUSH8 0xFFFFFFFFFFFFFFFF DUP2 GT ISZERO PUSH2 0x36FE JUMPI PUSH2 0x36FD PUSH2 0x450E JUMP JUMPDEST JUMPDEST PUSH2 0x370A DUP13 DUP3 DUP14 ADD PUSH2 0x35D6 JUMP JUMPDEST SWAP7 POP POP PUSH2 0x120 DUP11 ADD CALLDATALOAD PUSH8 0xFFFFFFFFFFFFFFFF DUP2 GT ISZERO PUSH2 0x372C JUMPI PUSH2 0x372B PUSH2 0x450E JUMP JUMPDEST JUMPDEST PUSH2 0x3738 DUP13 DUP3 DUP14 ADD PUSH2 0x35D6 JUMP JUMPDEST SWAP6 POP POP PUSH2 0x140 DUP11 ADD CALLDATALOAD PUSH8 0xFFFFFFFFFFFFFFFF DUP2 GT ISZERO PUSH2 0x375A JUMPI PUSH2 0x3759 PUSH2 0x450E JUMP JUMPDEST JUMPDEST PUSH2 0x3766 DUP13 DUP3 DUP14 ADD PUSH2 0x35D6 JUMP JUMPDEST SWAP5 POP POP PUSH2 0x160 DUP11 ADD CALLDATALOAD PUSH8 0xFFFFFFFFFFFFFFFF DUP2 GT ISZERO PUSH2 0x3788 JUMPI PUSH2 0x3787 PUSH2 0x450E JUMP JUMPDEST JUMPDEST PUSH2 0x3794 DUP13 DUP3 DUP14 ADD PUSH2 0x35D6 JUMP JUMPDEST SWAP4 POP POP PUSH2 0x180 PUSH2 0x37A6 DUP13 DUP3 DUP14 ADD PUSH2 0x35AB JUMP JUMPDEST SWAP3 POP POP PUSH2 0x1C0 DUP11 ADD CALLDATALOAD PUSH8 0xFFFFFFFFFFFFFFFF DUP2 GT ISZERO PUSH2 0x37C8 JUMPI PUSH2 0x37C7 PUSH2 0x450E JUMP JUMPDEST JUMPDEST PUSH2 0x37D4 DUP13 DUP3 DUP14 ADD PUSH2 0x3619 JUMP JUMPDEST SWAP2 POP POP SWAP3 SWAP6 SWAP9 POP SWAP3 SWAP6 SWAP9 POP SWAP3 SWAP6 SWAP9 JUMP JUMPDEST PUSH1 0x0 DUP1 PUSH1 0x0 DUP1 PUSH1 0x0 DUP1 PUSH1 0x0 DUP1 PUSH1 0x0 PUSH2 0x1C0 DUP11 DUP13 SUB SLT ISZERO PUSH2 0x3807 JUMPI PUSH2 0x3806 PUSH2 0x4513 JUMP JUMPDEST JUMPDEST PUSH1 0x0 PUSH2 0x3815 DUP13 DUP3 DUP14 ADD PUSH2 0x35AB JUMP JUMPDEST SWAP10 POP POP PUSH1 0x40 PUSH2 0x3826 DUP13 DUP3 DUP14 ADD PUSH2 0x3552 JUMP JUMPDEST SWAP9 POP POP PUSH1 0xC0 PUSH2 0x3837 DUP13 DUP3 DUP14 ADD PUSH2 0x35AB JUMP JUMPDEST SWAP8 POP POP PUSH2 0x100 PUSH2 0x3849 DUP13 DUP3 DUP14 ADD PUSH2 0x3647 JUMP JUMPDEST SWAP7 POP POP PUSH2 0x120 DUP11 ADD CALLDATALOAD PUSH8 0xFFFFFFFFFFFFFFFF DUP2 GT ISZERO PUSH2 0x386B JUMPI PUSH2 0x386A PUSH2 0x450E JUMP JUMPDEST JUMPDEST PUSH2 0x3877 DUP13 DUP3 DUP14 ADD PUSH2 0x357D JUMP JUMPDEST SWAP6 POP POP PUSH2 0x140 DUP11 ADD CALLDATALOAD PUSH8 0xFFFFFFFFFFFFFFFF DUP2 GT ISZERO PUSH2 0x3899 JUMPI PUSH2 0x3898 PUSH2 0x450E JUMP JUMPDEST JUMPDEST PUSH2 0x38A5 DUP13 DUP3 DUP14 ADD PUSH2 0x357D JUMP JUMPDEST SWAP5 POP POP PUSH2 0x160 DUP11 ADD CALLDATALOAD PUSH8 0xFFFFFFFFFFFFFFFF DUP2 GT ISZERO PUSH2 0x38C7 JUMPI PUSH2 0x38C6 PUSH2 0x450E JUMP JUMPDEST JUMPDEST PUSH2 0x38D3 DUP13 DUP3 DUP14 ADD PUSH2 0x357D JUMP JUMPDEST SWAP4 POP POP PUSH2 0x180 DUP11 ADD CALLDATALOAD PUSH8 0xFFFFFFFFFFFFFFFF DUP2 GT ISZERO PUSH2 0x38F5 JUMPI PUSH2 0x38F4 PUSH2 0x450E JUMP JUMPDEST JUMPDEST PUSH2 0x3901 DUP13 DUP3 DUP14 ADD PUSH2 0x357D JUMP JUMPDEST SWAP3 POP POP PUSH2 0x1A0 DUP11 ADD CALLDATALOAD PUSH8 0xFFFFFFFFFFFFFFFF DUP2 GT ISZERO PUSH2 0x3923 JUMPI PUSH2 0x3922 PUSH2 0x450E JUMP JUMPDEST JUMPDEST PUSH2 0x392F DUP13 DUP3 DUP14 ADD PUSH2 0x3619 JUMP JUMPDEST SWAP2 POP POP SWAP3 SWAP6 SWAP9 POP SWAP3 SWAP6 SWAP9 POP SWAP3 SWAP6 SWAP9 JUMP JUMPDEST PUSH1 0x0 PUSH1 0x20 DUP3 DUP5 SUB SLT ISZERO PUSH2 0x3955 JUMPI PUSH2 0x3954 PUSH2 0x4513 JUMP JUMPDEST JUMPDEST PUSH1 0x0 PUSH2 0x3963 DUP5 DUP3 DUP6 ADD PUSH2 0x3604 JUMP JUMPDEST SWAP2 POP POP SWAP3 SWAP2 POP POP JUMP JUMPDEST PUSH1 0x0 PUSH1 0x20 DUP3 DUP5 SUB SLT ISZERO PUSH2 0x3982 JUMPI PUSH2 0x3981 PUSH2 0x4513 JUMP JUMPDEST JUMPDEST PUSH1 0x0 DUP3 ADD CALLDATALOAD PUSH8 0xFFFFFFFFFFFFFFFF DUP2 GT ISZERO PUSH2 0x39A0 JUMPI PUSH2 0x399F PUSH2 0x450E JUMP JUMPDEST JUMPDEST PUSH2 0x39AC DUP5 DUP3 DUP6 ADD PUSH2 0x3619 JUMP JUMPDEST SWAP2 POP POP SWAP3 SWAP2 POP POP JUMP JUMPDEST PUSH1 0x0 PUSH1 0x20 DUP3 DUP5 SUB SLT ISZERO PUSH2 0x39CB JUMPI PUSH2 0x39CA PUSH2 0x4513 JUMP JUMPDEST JUMPDEST PUSH1 0x0 PUSH2 0x39D9 DUP5 DUP3 DUP6 ADD PUSH2 0x3647 JUMP JUMPDEST SWAP2 POP POP SWAP3 SWAP2 POP POP JUMP JUMPDEST PUSH1 0x0 PUSH2 0x39EE DUP4 DUP4 PUSH2 0x3B88 JUMP JUMPDEST SWAP1 POP SWAP3 SWAP2 POP POP JUMP JUMPDEST PUSH1 0x0 PUSH2 0x3A02 DUP4 DUP4 PUSH2 0x3DE3 JUMP JUMPDEST PUSH1 0x20 DUP4 ADD SWAP1 POP SWAP3 SWAP2 POP POP JUMP JUMPDEST PUSH1 0x0 PUSH2 0x3A19 DUP3 PUSH2 0x4099 JUMP JUMPDEST PUSH2 0x3A23 DUP2 DUP6 PUSH2 0x411C JUMP JUMPDEST SWAP4 POP DUP4 PUSH1 0x20 DUP3 MUL DUP6 ADD PUSH2 0x3A35 DUP6 PUSH2 0x4046 JUMP JUMPDEST DUP1 PUSH1 0x0 JUMPDEST DUP6 DUP2 LT ISZERO PUSH2 0x3A71 JUMPI DUP5 DUP5 SUB DUP10 MSTORE DUP2 MLOAD PUSH2 0x3A52 DUP6 DUP3 PUSH2 0x39E2 JUMP JUMPDEST SWAP5 POP PUSH2 0x3A5D DUP4 PUSH2 0x40DB JUMP JUMPDEST SWAP3 POP PUSH1 0x20 DUP11 ADD SWAP10 POP POP PUSH1 0x1 DUP2 ADD SWAP1 POP PUSH2 0x3A39 JUMP JUMPDEST POP DUP3 SWAP8 POP DUP8 SWAP6 POP POP POP POP POP POP SWAP3 SWAP2 POP POP JUMP JUMPDEST PUSH2 0x3A8C DUP2 PUSH2 0x40A4 JUMP JUMPDEST PUSH2 0x3A96 DUP2 DUP5 PUSH2 0x412D JUMP JUMPDEST SWAP3 POP PUSH2 0x3AA1 DUP3 PUSH2 0x4056 JUMP JUMPDEST DUP1 PUSH1 0x0 JUMPDEST DUP4 DUP2 LT ISZERO PUSH2 0x3AD2 JUMPI DUP2 MLOAD PUSH2 0x3AB9 DUP8 DUP3 PUSH2 0x39F6 JUMP JUMPDEST SWAP7 POP PUSH2 0x3AC4 DUP4 PUSH2 0x40E8 JUMP JUMPDEST SWAP3 POP POP PUSH1 0x1 DUP2 ADD SWAP1 POP PUSH2 0x3AA5 JUMP JUMPDEST POP POP POP POP POP POP JUMP JUMPDEST PUSH2 0x3AE3 DUP2 PUSH2 0x40AF JUMP JUMPDEST PUSH2 0x3AED DUP2 DUP5 PUSH2 0x4138 JUMP JUMPDEST SWAP3 POP PUSH2 0x3AF8 DUP3 PUSH2 0x4060 JUMP JUMPDEST DUP1 PUSH1 0x0 JUMPDEST DUP4 DUP2 LT ISZERO PUSH2 0x3B29 JUMPI DUP2 MLOAD PUSH2 0x3B10 DUP8 DUP3 PUSH2 0x39F6 JUMP JUMPDEST SWAP7 POP PUSH2 0x3B1B DUP4 PUSH2 0x40F5 JUMP JUMPDEST SWAP3 POP POP PUSH1 0x1 DUP2 ADD SWAP1 POP PUSH2 0x3AFC JUMP JUMPDEST POP POP POP POP POP POP JUMP JUMPDEST PUSH2 0x3B3A DUP2 PUSH2 0x40BA JUMP JUMPDEST PUSH2 0x3B44 DUP2 DUP5 PUSH2 0x4143 JUMP JUMPDEST SWAP3 POP PUSH2 0x3B4F DUP3 PUSH2 0x406A JUMP JUMPDEST DUP1 PUSH1 0x0 JUMPDEST DUP4 DUP2 LT ISZERO PUSH2 0x3B80 JUMPI DUP2 MLOAD PUSH2 0x3B67 DUP8 DUP3 PUSH2 0x39F6 JUMP JUMPDEST SWAP7 POP PUSH2 0x3B72 DUP4 PUSH2 0x4102 JUMP JUMPDEST SWAP3 POP POP PUSH1 0x1 DUP2 ADD SWAP1 POP PUSH2 0x3B53 JUMP JUMPDEST POP POP POP POP POP POP JUMP JUMPDEST PUSH1 0x0 PUSH2 0x3B93 DUP3 PUSH2 0x40C5 JUMP JUMPDEST PUSH2 0x3B9D DUP2 DUP6 PUSH2 0x414E JUMP JUMPDEST SWAP4 POP PUSH2 0x3BA8 DUP4 PUSH2 0x4074 JUMP JUMPDEST DUP1 PUSH1 0x0 JUMPDEST DUP4 DUP2 LT ISZERO PUSH2 0x3BD9 JUMPI DUP2 MLOAD PUSH2 0x3BC0 DUP9 DUP3 PUSH2 0x39F6 JUMP JUMPDEST SWAP8 POP PUSH2 0x3BCB DUP4 PUSH2 0x410F JUMP JUMPDEST SWAP3 POP POP PUSH1 0x1 DUP2 ADD SWAP1 POP PUSH2 0x3BAC JUMP JUMPDEST POP DUP6 SWAP4 POP POP POP POP SWAP3 SWAP2 POP POP JUMP JUMPDEST PUSH1 0x0 PUSH2 0x3BF1 DUP3 PUSH2 0x40D0 JUMP JUMPDEST PUSH2 0x3BFB DUP2 DUP6 PUSH2 0x4170 JUMP JUMPDEST SWAP4 POP PUSH2 0x3C0B DUP2 DUP6 PUSH1 0x20 DUP7 ADD PUSH2 0x4326 JUMP JUMPDEST DUP1 DUP5 ADD SWAP2 POP POP SWAP3 SWAP2 POP POP JUMP JUMPDEST PUSH1 0x0 DUP2 SLOAD PUSH2 0x3C24 DUP2 PUSH2 0x4359 JUMP JUMPDEST PUSH2 0x3C2E DUP2 DUP7 PUSH2 0x4170 JUMP JUMPDEST SWAP5 POP PUSH1 0x1 DUP3 AND PUSH1 0x0 DUP2 EQ PUSH2 0x3C49 JUMPI PUSH1 0x1 DUP2 EQ PUSH2 0x3C5A JUMPI PUSH2 0x3C8D JUMP JUMPDEST PUSH1 0xFF NOT DUP4 AND DUP7 MSTORE DUP2 DUP7 ADD SWAP4 POP PUSH2 0x3C8D JUMP JUMPDEST PUSH2 0x3C63 DUP6 PUSH2 0x4084 JUMP JUMPDEST PUSH1 0x0 JUMPDEST DUP4 DUP2 LT ISZERO PUSH2 0x3C85 JUMPI DUP2 SLOAD DUP2 DUP10 ADD MSTORE PUSH1 0x1 DUP3 ADD SWAP2 POP PUSH1 0x20 DUP2 ADD SWAP1 POP PUSH2 0x3C66 JUMP JUMPDEST DUP4 DUP9 ADD SWAP6 POP POP POP JUMPDEST POP POP POP SWAP3 SWAP2 POP POP JUMP JUMPDEST PUSH1 0x0 PUSH2 0x3CA3 PUSH1 0x2A DUP4 PUSH2 0x415F JUMP JUMPDEST SWAP2 POP PUSH2 0x3CAE DUP3 PUSH2 0x4529 JUMP JUMPDEST PUSH1 0x40 DUP3 ADD SWAP1 POP SWAP2 SWAP1 POP JUMP JUMPDEST PUSH1 0x0 PUSH2 0x3CC6 PUSH1 0x1E DUP4 PUSH2 0x415F JUMP JUMPDEST SWAP2 POP PUSH2 0x3CD1 DUP3 PUSH2 0x4578 JUMP JUMPDEST PUSH1 0x20 DUP3 ADD SWAP1 POP SWAP2 SWAP1 POP JUMP JUMPDEST PUSH1 0x0 PUSH2 0x3CE9 PUSH1 0x16 DUP4 PUSH2 0x415F JUMP JUMPDEST SWAP2 POP PUSH2 0x3CF4 DUP3 PUSH2 0x45A1 JUMP JUMPDEST PUSH1 0x20 DUP3 ADD SWAP1 POP SWAP2 SWAP1 POP JUMP JUMPDEST PUSH1 0x40 DUP3 ADD PUSH1 0x0 DUP3 ADD MLOAD PUSH2 0x3D15 PUSH1 0x0 DUP6 ADD DUP3 PUSH2 0x3DE3 JUMP JUMPDEST POP PUSH1 0x20 DUP3 ADD MLOAD PUSH2 0x3D28 PUSH1 0x20 DUP6 ADD DUP3 PUSH2 0x3DE3 JUMP JUMPDEST POP POP POP POP JUMP JUMPDEST PUSH1 0x80 DUP3 ADD PUSH1 0x0 DUP3 ADD MLOAD PUSH2 0x3D44 PUSH1 0x0 DUP6 ADD DUP3 PUSH2 0x3ADA JUMP JUMPDEST POP PUSH1 0x20 DUP3 ADD MLOAD PUSH2 0x3D57 PUSH1 0x40 DUP6 ADD DUP3 PUSH2 0x3ADA JUMP JUMPDEST POP POP POP POP JUMP JUMPDEST PUSH2 0x100 DUP3 ADD PUSH1 0x0 DUP3 ADD MLOAD PUSH2 0x3D74 PUSH1 0x0 DUP6 ADD DUP3 PUSH2 0x3CFF JUMP JUMPDEST POP PUSH1 0x20 DUP3 ADD MLOAD PUSH2 0x3D87 PUSH1 0x40 DUP6 ADD DUP3 PUSH2 0x3D2E JUMP JUMPDEST POP PUSH1 0x40 DUP3 ADD MLOAD PUSH2 0x3D9A PUSH1 0xC0 DUP6 ADD DUP3 PUSH2 0x3CFF JUMP JUMPDEST POP POP POP POP JUMP JUMPDEST PUSH2 0x100 DUP3 ADD PUSH1 0x0 DUP3 ADD MLOAD PUSH2 0x3DB7 PUSH1 0x0 DUP6 ADD DUP3 PUSH2 0x3CFF JUMP JUMPDEST POP PUSH1 0x20 DUP3 ADD MLOAD PUSH2 0x3DCA PUSH1 0x40 DUP6 ADD DUP3 PUSH2 0x3D2E JUMP JUMPDEST POP PUSH1 0x40 DUP3 ADD MLOAD PUSH2 0x3DDD PUSH1 0xC0 DUP6 ADD DUP3 PUSH2 0x3CFF JUMP JUMPDEST POP POP POP POP JUMP JUMPDEST PUSH2 0x3DEC DUP2 PUSH2 0x42FD JUMP JUMPDEST DUP3 MSTORE POP POP JUMP JUMPDEST PUSH2 0x3DFB DUP2 PUSH2 0x42FD JUMP JUMPDEST DUP3 MSTORE POP POP JUMP JUMPDEST PUSH2 0x3E0A DUP2 PUSH2 0x4307 JUMP JUMPDEST DUP3 MSTORE POP POP JUMP JUMPDEST PUSH1 0x0 PUSH2 0x3E1C DUP3 DUP5 PUSH2 0x3BE6 JUMP JUMPDEST SWAP2 POP DUP2 SWAP1 POP SWAP3 SWAP2 POP POP JUMP JUMPDEST PUSH1 0x0 PUSH2 0x3E33 DUP3 DUP5 PUSH2 0x3C17 JUMP JUMPDEST SWAP2 POP DUP2 SWAP1 POP SWAP3 SWAP2 POP POP JUMP JUMPDEST PUSH1 0x0 PUSH1 0x20 DUP3 ADD SWAP1 POP DUP2 DUP2 SUB PUSH1 0x0 DUP4 ADD MSTORE PUSH2 0x3E58 DUP2 DUP5 PUSH2 0x3A0E JUMP JUMPDEST SWAP1 POP SWAP3 SWAP2 POP POP JUMP JUMPDEST PUSH1 0x0 PUSH1 0x20 DUP3 ADD SWAP1 POP DUP2 DUP2 SUB PUSH1 0x0 DUP4 ADD MSTORE PUSH2 0x3E79 DUP2 PUSH2 0x3C96 JUMP JUMPDEST SWAP1 POP SWAP2 SWAP1 POP JUMP JUMPDEST PUSH1 0x0 PUSH1 0x20 DUP3 ADD SWAP1 POP DUP2 DUP2 SUB PUSH1 0x0 DUP4 ADD MSTORE PUSH2 0x3E99 DUP2 PUSH2 0x3CB9 JUMP JUMPDEST SWAP1 POP SWAP2 SWAP1 POP JUMP JUMPDEST PUSH1 0x0 PUSH1 0x20 DUP3 ADD SWAP1 POP DUP2 DUP2 SUB PUSH1 0x0 DUP4 ADD MSTORE PUSH2 0x3EB9 DUP2 PUSH2 0x3CDC JUMP JUMPDEST SWAP1 POP SWAP2 SWAP1 POP JUMP JUMPDEST PUSH1 0x0 PUSH2 0x400 DUP3 ADD SWAP1 POP PUSH2 0x3ED6 PUSH1 0x0 DUP4 ADD DUP6 PUSH2 0x3D5D JUMP JUMPDEST PUSH2 0x3EE4 PUSH2 0x100 DUP4 ADD DUP5 PUSH2 0x3A83 JUMP JUMPDEST SWAP4 SWAP3 POP POP POP JUMP JUMPDEST PUSH1 0x0 PUSH2 0x520 DUP3 ADD SWAP1 POP PUSH2 0x3F01 PUSH1 0x0 DUP4 ADD DUP6 PUSH2 0x3DA0 JUMP JUMPDEST PUSH2 0x3F0F PUSH2 0x100 DUP4 ADD DUP5 PUSH2 0x3B31 JUMP JUMPDEST SWAP4 SWAP3 POP POP POP JUMP JUMPDEST PUSH1 0x0 PUSH1 0x20 DUP3 ADD SWAP1 POP PUSH2 0x3F2B PUSH1 0x0 DUP4 ADD DUP5 PUSH2 0x3DF2 JUMP JUMPDEST SWAP3 SWAP2 POP POP JUMP JUMPDEST PUSH1 0x0 PUSH1 0x20 DUP3 ADD SWAP1 POP PUSH2 0x3F46 PUSH1 0x0 DUP4 ADD DUP5 PUSH2 0x3E01 JUMP JUMPDEST SWAP3 SWAP2 POP POP JUMP JUMPDEST PUSH1 0x0 PUSH2 0x3F56 PUSH2 0x3F67 JUMP JUMPDEST SWAP1 POP PUSH2 0x3F62 DUP3 DUP3 PUSH2 0x438B JUMP JUMPDEST SWAP2 SWAP1 POP JUMP JUMPDEST PUSH1 0x0 PUSH1 0x40 MLOAD SWAP1 POP SWAP1 JUMP JUMPDEST PUSH1 0x0 PUSH8 0xFFFFFFFFFFFFFFFF DUP3 GT ISZERO PUSH2 0x3F8C JUMPI PUSH2 0x3F8B PUSH2 0x44D0 JUMP JUMPDEST JUMPDEST PUSH1 0x20 DUP3 MUL SWAP1 POP SWAP2 SWAP1 POP JUMP JUMPDEST PUSH1 0x0 PUSH8 0xFFFFFFFFFFFFFFFF DUP3 GT ISZERO PUSH2 0x3FB2 JUMPI PUSH2 0x3FB1 PUSH2 0x44D0 JUMP JUMPDEST JUMPDEST PUSH1 0x20 DUP3 MUL SWAP1 POP PUSH1 0x20 DUP2 ADD SWAP1 POP SWAP2 SWAP1 POP JUMP JUMPDEST PUSH1 0x0 PUSH8 0xFFFFFFFFFFFFFFFF DUP3 GT ISZERO PUSH2 0x3FDE JUMPI PUSH2 0x3FDD PUSH2 0x44D0 JUMP JUMPDEST JUMPDEST PUSH1 0x20 DUP3 MUL SWAP1 POP SWAP2 SWAP1 POP JUMP JUMPDEST PUSH1 0x0 PUSH8 0xFFFFFFFFFFFFFFFF DUP3 GT ISZERO PUSH2 0x4004 JUMPI PUSH2 0x4003 PUSH2 0x44D0 JUMP JUMPDEST JUMPDEST PUSH1 0x20 DUP3 MUL SWAP1 POP PUSH1 0x20 DUP2 ADD SWAP1 POP SWAP2 SWAP1 POP JUMP JUMPDEST PUSH1 0x0 PUSH8 0xFFFFFFFFFFFFFFFF DUP3 GT ISZERO PUSH2 0x4030 JUMPI PUSH2 0x402F PUSH2 0x44D0 JUMP JUMPDEST JUMPDEST PUSH2 0x4039 DUP3 PUSH2 0x4518 JUMP JUMPDEST SWAP1 POP PUSH1 0x20 DUP2 ADD SWAP1 POP SWAP2 SWAP1 POP JUMP JUMPDEST PUSH1 0x0 DUP2 SWAP1 POP PUSH1 0x20 DUP3 ADD SWAP1 POP SWAP2 SWAP1 POP JUMP JUMPDEST PUSH1 0x0 DUP2 SWAP1 POP SWAP2 SWAP1 POP JUMP JUMPDEST PUSH1 0x0 DUP2 SWAP1 POP SWAP2 SWAP1 POP JUMP JUMPDEST PUSH1 0x0 DUP2 SWAP1 POP SWAP2 SWAP1 POP JUMP JUMPDEST PUSH1 0x0 DUP2 SWAP1 POP PUSH1 0x20 DUP3 ADD SWAP1 POP SWAP2 SWAP1 POP JUMP JUMPDEST PUSH1 0x0 DUP2 SWAP1 POP DUP2 PUSH1 0x0 MSTORE PUSH1 0x20 PUSH1 0x0 KECCAK256 SWAP1 POP SWAP2 SWAP1 POP JUMP JUMPDEST PUSH1 0x0 DUP2 MLOAD SWAP1 POP SWAP2 SWAP1 POP JUMP JUMPDEST PUSH1 0x0 PUSH1 0x18 SWAP1 POP SWAP2 SWAP1 POP JUMP JUMPDEST PUSH1 0x0 PUSH1 0x2 SWAP1 POP SWAP2 SWAP1 POP JUMP JUMPDEST PUSH1 0x0 PUSH1 0x21 SWAP1 POP SWAP2 SWAP1 POP JUMP JUMPDEST PUSH1 0x0 DUP2 MLOAD SWAP1 POP SWAP2 SWAP1 POP JUMP JUMPDEST PUSH1 0x0 DUP2 MLOAD SWAP1 POP SWAP2 SWAP1 POP JUMP JUMPDEST PUSH1 0x0 PUSH1 0x20 DUP3 ADD SWAP1 POP SWAP2 SWAP1 POP JUMP JUMPDEST PUSH1 0x0 PUSH1 0x20 DUP3 ADD SWAP1 POP SWAP2 SWAP1 POP JUMP JUMPDEST PUSH1 0x0 PUSH1 0x20 DUP3 ADD SWAP1 POP SWAP2 SWAP1 POP JUMP JUMPDEST PUSH1 0x0 PUSH1 0x20 DUP3 ADD SWAP1 POP SWAP2 SWAP1 POP JUMP JUMPDEST PUSH1 0x0 PUSH1 0x20 DUP3 ADD SWAP1 POP SWAP2 SWAP1 POP JUMP JUMPDEST PUSH1 0x0 DUP3 DUP3 MSTORE PUSH1 0x20 DUP3 ADD SWAP1 POP SWAP3 SWAP2 POP POP JUMP JUMPDEST PUSH1 0x0 DUP2 SWAP1 POP SWAP3 SWAP2 POP POP JUMP JUMPDEST PUSH1 0x0 DUP2 SWAP1 POP SWAP3 SWAP2 POP POP JUMP JUMPDEST PUSH1 0x0 DUP2 SWAP1 POP SWAP3 SWAP2 POP POP JUMP JUMPDEST PUSH1 0x0 DUP3 DUP3 MSTORE PUSH1 0x20 DUP3 ADD SWAP1 POP SWAP3 SWAP2 POP POP JUMP JUMPDEST PUSH1 0x0 DUP3 DUP3 MSTORE PUSH1 0x20 DUP3 ADD SWAP1 POP SWAP3 SWAP2 POP POP JUMP JUMPDEST PUSH1 0x0 DUP2 SWAP1 POP SWAP3 SWAP2 POP POP JUMP JUMPDEST PUSH1 0x0 PUSH2 0x4186 DUP3 PUSH2 0x42FD JUMP JUMPDEST SWAP2 POP PUSH2 0x4191 DUP4 PUSH2 0x42FD JUMP JUMPDEST SWAP3 POP DUP3 PUSH32 0xFFFFFFFFFFFFFFFFFFFFFFFFFFFFFFFFFFFFFFFFFFFFFFFFFFFFFFFFFFFFFFFF SUB DUP3 GT ISZERO PUSH2 0x41C6 JUMPI PUSH2 0x41C5 PUSH2 0x4414 JUMP JUMPDEST JUMPDEST DUP3 DUP3 ADD SWAP1 POP SWAP3 SWAP2 POP POP JUMP JUMPDEST PUSH1 0x0 PUSH2 0x41DC DUP3 PUSH2 0x4307 JUMP JUMPDEST SWAP2 POP PUSH2 0x41E7 DUP4 PUSH2 0x4307 JUMP JUMPDEST SWAP3 POP DUP3 PUSH4 0xFFFFFFFF SUB DUP3 GT ISZERO PUSH2 0x4200 JUMPI PUSH2 0x41FF PUSH2 0x4414 JUMP JUMPDEST JUMPDEST DUP3 DUP3 ADD SWAP1 POP SWAP3 SWAP2 POP POP JUMP JUMPDEST PUSH1 0x0 PUSH2 0x4216 DUP3 PUSH2 0x4307 JUMP JUMPDEST SWAP2 POP PUSH2 0x4221 DUP4 PUSH2 0x4307 JUMP JUMPDEST SWAP3 POP DUP2 PUSH4 0xFFFFFFFF DIV DUP4 GT DUP3 ISZERO ISZERO AND ISZERO PUSH2 0x423E JUMPI PUSH2 0x423D PUSH2 0x4414 JUMP JUMPDEST JUMPDEST DUP3 DUP3 MUL SWAP1 POP SWAP3 SWAP2 POP POP JUMP JUMPDEST PUSH1 0x0 PUSH2 0x4254 DUP3 PUSH2 0x42CF JUMP JUMPDEST SWAP2 POP PUSH2 0x425F DUP4 PUSH2 0x42CF JUMP JUMPDEST SWAP3 POP DUP3 DUP3 LT ISZERO PUSH2 0x4272 JUMPI PUSH2 0x4271 PUSH2 0x4414 JUMP JUMPDEST JUMPDEST DUP3 DUP3 SUB SWAP1 POP SWAP3 SWAP2 POP POP JUMP JUMPDEST PUSH1 0x0 PUSH2 0x4288 DUP3 PUSH2 0x42FD JUMP JUMPDEST SWAP2 POP PUSH2 0x4293 DUP4 PUSH2 0x42FD JUMP JUMPDEST SWAP3 POP DUP3 DUP3 LT ISZERO PUSH2 0x42A6 JUMPI PUSH2 0x42A5 PUSH2 0x4414 JUMP JUMPDEST JUMPDEST DUP3 DUP3 SUB SWAP1 POP SWAP3 SWAP2 POP POP JUMP JUMPDEST PUSH1 0x0 PUSH2 0x42BC DUP3 PUSH2 0x42DD JUMP JUMPDEST SWAP1 POP SWAP2 SWAP1 POP JUMP JUMPDEST PUSH1 0x0 DUP2 ISZERO ISZERO SWAP1 POP SWAP2 SWAP1 POP JUMP JUMPDEST PUSH1 0x0 PUSH2 0xFFFF DUP3 AND SWAP1 POP SWAP2 SWAP1 POP JUMP JUMPDEST PUSH1 0x0 PUSH20 0xFFFFFFFFFFFFFFFFFFFFFFFFFFFFFFFFFFFFFFFF DUP3 AND SWAP1 POP SWAP2 SWAP1 POP JUMP JUMPDEST PUSH1 0x0 DUP2 SWAP1 POP SWAP2 SWAP1 POP JUMP JUMPDEST PUSH1 0x0 PUSH4 0xFFFFFFFF DUP3 AND SWAP1 POP SWAP2 SWAP1 POP JUMP JUMPDEST DUP3 DUP2 DUP4 CALLDATACOPY PUSH1 0x0 DUP4 DUP4 ADD MSTORE POP POP POP JUMP JUMPDEST PUSH1 0x0 JUMPDEST DUP4 DUP2 LT ISZERO PUSH2 0x4344 JUMPI DUP1 DUP3 ADD MLOAD DUP2 DUP5 ADD MSTORE PUSH1 0x20 DUP2 ADD SWAP1 POP PUSH2 0x4329 JUMP JUMPDEST DUP4 DUP2 GT ISZERO PUSH2 0x4353 JUMPI PUSH1 0x0 DUP5 DUP5 ADD MSTORE JUMPDEST POP POP POP POP JUMP JUMPDEST PUSH1 0x0 PUSH1 0x2 DUP3 DIV SWAP1 POP PUSH1 0x1 DUP3 AND DUP1 PUSH2 0x4371 JUMPI PUSH1 0x7F DUP3 AND SWAP2 POP JUMPDEST PUSH1 0x20 DUP3 LT DUP2 EQ ISZERO PUSH2 0x4385 JUMPI PUSH2 0x4384 PUSH2 0x4472 JUMP JUMPDEST JUMPDEST POP SWAP2 SWAP1 POP JUMP JUMPDEST PUSH2 0x4394 DUP3 PUSH2 0x4518 JUMP JUMPDEST DUP2 ADD DUP2 DUP2 LT PUSH8 0xFFFFFFFFFFFFFFFF DUP3 GT OR ISZERO PUSH2 0x43B3 JUMPI PUSH2 0x43B2 PUSH2 0x44D0 JUMP JUMPDEST JUMPDEST DUP1 PUSH1 0x40 MSTORE POP POP POP JUMP JUMPDEST PUSH1 0x0 PUSH2 0x43C7 DUP3 PUSH2 0x42CF JUMP JUMPDEST SWAP2 POP PUSH2 0xFFFF DUP3 EQ ISZERO PUSH2 0x43DC JUMPI PUSH2 0x43DB PUSH2 0x4414 JUMP JUMPDEST JUMPDEST PUSH1 0x1 DUP3 ADD SWAP1 POP SWAP2 SWAP1 POP JUMP JUMPDEST PUSH1 0x0 PUSH2 0x43F2 DUP3 PUSH2 0x4307 JUMP JUMPDEST SWAP2 POP PUSH4 0xFFFFFFFF DUP3 EQ ISZERO PUSH2 0x4409 JUMPI PUSH2 0x4408 PUSH2 0x4414 JUMP JUMPDEST JUMPDEST PUSH1 0x1 DUP3 ADD SWAP1 POP SWAP2 SWAP1 POP JUMP JUMPDEST PUSH32 0x4E487B7100000000000000000000000000000000000000000000000000000000 PUSH1 0x0 MSTORE PUSH1 0x11 PUSH1 0x4 MSTORE PUSH1 0x24 PUSH1 0x0 REVERT JUMPDEST PUSH32 0x4E487B7100000000000000000000000000000000000000000000000000000000 PUSH1 0x0 MSTORE PUSH1 0x12 PUSH1 0x4 MSTORE PUSH1 0x24 PUSH1 0x0 REVERT JUMPDEST PUSH32 0x4E487B7100000000000000000000000000000000000000000000000000000000 PUSH1 0x0 MSTORE PUSH1 0x22 PUSH1 0x4 MSTORE PUSH1 0x24 PUSH1 0x0 REVERT JUMPDEST PUSH32 0x4E487B7100000000000000000000000000000000000000000000000000000000 PUSH1 0x0 MSTORE PUSH1 0x32 PUSH1 0x4 MSTORE PUSH1 0x24 PUSH1 0x0 REVERT JUMPDEST PUSH32 0x4E487B7100000000000000000000000000000000000000000000000000000000 PUSH1 0x0 MSTORE PUSH1 0x41 PUSH1 0x4 MSTORE PUSH1 0x24 PUSH1 0x0 REVERT JUMPDEST PUSH1 0x0 DUP1 REVERT JUMPDEST PUSH1 0x0 DUP1 REVERT JUMPDEST PUSH1 0x0 DUP1 REVERT JUMPDEST PUSH1 0x0 DUP1 REVERT JUMPDEST PUSH1 0x0 DUP1 REVERT JUMPDEST PUSH1 0x0 PUSH1 0x1F NOT PUSH1 0x1F DUP4 ADD AND SWAP1 POP SWAP2 SWAP1 POP JUMP JUMPDEST PUSH32 0x4F6E6C7920746865206D6F64657261746F722063616E2063616C6C2074686973 PUSH1 0x0 DUP3 ADD MSTORE PUSH32 0x2066756E6374696F6E2100000000000000000000000000000000000000000000 PUSH1 0x20 DUP3 ADD MSTORE POP JUMP JUMPDEST PUSH32 0x4D6F64656C20757064617465206D757374206265207665726966696564210000 PUSH1 0x0 DUP3 ADD MSTORE POP JUMP JUMPDEST PUSH32 0x50726F6F66206D75737420626520766572696669656400000000000000000000 PUSH1 0x0 DUP3 ADD MSTORE POP JUMP JUMPDEST PUSH2 0x45D3 DUP2 PUSH2 0x42B1 JUMP JUMPDEST DUP2 EQ PUSH2 0x45DE JUMPI PUSH1 0x0 DUP1 REVERT JUMPDEST POP JUMP JUMPDEST PUSH2 0x45EA DUP2 PUSH2 0x42C3 JUMP JUMPDEST DUP2 EQ PUSH2 0x45F5 JUMPI PUSH1 0x0 DUP1 REVERT JUMPDEST POP JUMP JUMPDEST PUSH2 0x4601 DUP2 PUSH2 0x42FD JUMP JUMPDEST DUP2 EQ PUSH2 0x460C JUMPI PUSH1 0x0 DUP1 REVERT JUMPDEST POP JUMP INVALID LOG2 PUSH5 0x6970667358 0x22 SLT KECCAK256 0x24 CODECOPY GT SWAP1 SWAP7 0xF 0x27 PUSH31 0xA3303F0C9904C9E4A4A7CF2E0B567B7339F3E28A3B375A1964736F6C634300 ADDMOD MOD STOP CALLER PUSH1 0x80 PUSH1 0x40 MSTORE CALLVALUE DUP1 ISZERO PUSH2 0x10 JUMPI PUSH1 0x0 DUP1 REVERT JUMPDEST POP PUSH2 0x1FCB DUP1 PUSH2 0x20 PUSH1 0x0 CODECOPY PUSH1 0x0 RETURN INVALID PUSH1 0x80 PUSH1 0x40 MSTORE CALLVALUE DUP1 ISZERO PUSH2 0x10 JUMPI PUSH1 0x0 DUP1 REVERT JUMPDEST POP PUSH1 0x4 CALLDATASIZE LT PUSH2 0x2B JUMPI PUSH1 0x0 CALLDATALOAD PUSH1 0xE0 SHR DUP1 PUSH4 0x88E3F317 EQ PUSH2 0x30 JUMPI JUMPDEST PUSH1 0x0 DUP1 REVERT JUMPDEST PUSH2 0x4A PUSH1 0x4 DUP1 CALLDATASIZE SUB DUP2 ADD SWAP1 PUSH2 0x45 SWAP2 SWAP1 PUSH2 0x1C1B JUMP JUMPDEST PUSH2 0x60 JUMP JUMPDEST PUSH1 0x40 MLOAD PUSH2 0x57 SWAP2 SWAP1 PUSH2 0x1C6C JUMP JUMPDEST PUSH1 0x40 MLOAD DUP1 SWAP2 SUB SWAP1 RETURN JUMPDEST PUSH1 0x0 DUP1 PUSH1 0x18 PUSH8 0xFFFFFFFFFFFFFFFF DUP2 GT ISZERO PUSH2 0x7E JUMPI PUSH2 0x7D PUSH2 0x1F2A JUMP JUMPDEST JUMPDEST PUSH1 0x40 MLOAD SWAP1 DUP1 DUP3 MSTORE DUP1 PUSH1 0x20 MUL PUSH1 0x20 ADD DUP3 ADD PUSH1 0x40 MSTORE DUP1 ISZERO PUSH2 0xAC JUMPI DUP2 PUSH1 0x20 ADD PUSH1 0x20 DUP3 MUL DUP1 CALLDATASIZE DUP4 CALLDATACOPY DUP1 DUP3 ADD SWAP2 POP POP SWAP1 POP JUMPDEST POP SWAP1 POP PUSH1 0x0 JUMPDEST PUSH1 0x18 DUP2 LT ISZERO PUSH2 0x105 JUMPI DUP4 DUP2 PUSH1 0x18 DUP2 LT PUSH2 0xCE JUMPI PUSH2 0xCD PUSH2 0x1EFB JUMP JUMPDEST JUMPDEST PUSH1 0x20 MUL ADD MLOAD DUP3 DUP3 DUP2 MLOAD DUP2 LT PUSH2 0xE6 JUMPI PUSH2 0xE5 PUSH2 0x1EFB JUMP JUMPDEST JUMPDEST PUSH1 0x20 MUL PUSH1 0x20 ADD ADD DUP2 DUP2 MSTORE POP POP DUP1 DUP1 PUSH2 0xFD SWAP1 PUSH2 0x1E23 JUMP JUMPDEST SWAP2 POP POP PUSH2 0xB2 JUMP JUMPDEST POP PUSH1 0x0 PUSH2 0x112 DUP3 DUP7 PUSH2 0x12E JUMP JUMPDEST EQ ISZERO PUSH2 0x122 JUMPI PUSH1 0x1 SWAP2 POP POP PUSH2 0x128 JUMP JUMPDEST PUSH1 0x0 SWAP2 POP POP JUMPDEST SWAP3 SWAP2 POP POP JUMP JUMPDEST PUSH1 0x0 DUP1 PUSH32 0x30644E72E131A029B85045B68181585D2833E84879B9709143E1F593F0000001 SWAP1 POP PUSH1 0x0 PUSH2 0x15E PUSH2 0x2C5 JUMP JUMPDEST SWAP1 POP DUP1 PUSH1 0x80 ADD MLOAD MLOAD PUSH1 0x1 DUP7 MLOAD PUSH2 0x174 SWAP2 SWAP1 PUSH2 0x1CF8 JUMP JUMPDEST EQ PUSH2 0x17E JUMPI PUSH1 0x0 DUP1 REVERT JUMPDEST PUSH1 0x0 PUSH1 0x40 MLOAD DUP1 PUSH1 0x40 ADD PUSH1 0x40 MSTORE DUP1 PUSH1 0x0 DUP2 MSTORE PUSH1 0x20 ADD PUSH1 0x0 DUP2 MSTORE POP SWAP1 POP PUSH1 0x0 JUMPDEST DUP7 MLOAD DUP2 LT ISZERO PUSH2 0x237 JUMPI DUP4 DUP8 DUP3 DUP2 MLOAD DUP2 LT PUSH2 0x1B9 JUMPI PUSH2 0x1B8 PUSH2 0x1EFB JUMP JUMPDEST JUMPDEST PUSH1 0x20 MUL PUSH1 0x20 ADD ADD MLOAD LT PUSH2 0x1CB JUMPI PUSH1 0x0 DUP1 REVERT JUMPDEST PUSH2 0x222 DUP3 PUSH2 0x21D DUP6 PUSH1 0x80 ADD MLOAD PUSH1 0x1 DUP6 PUSH2 0x1E4 SWAP2 SWAP1 PUSH2 0x1CF8 JUMP JUMPDEST DUP2 MLOAD DUP2 LT PUSH2 0x1F5 JUMPI PUSH2 0x1F4 PUSH2 0x1EFB JUMP JUMPDEST JUMPDEST PUSH1 0x20 MUL PUSH1 0x20 ADD ADD MLOAD DUP11 DUP6 DUP2 MLOAD DUP2 LT PUSH2 0x210 JUMPI PUSH2 0x20F PUSH2 0x1EFB JUMP JUMPDEST JUMPDEST PUSH1 0x20 MUL PUSH1 0x20 ADD ADD MLOAD PUSH2 0x118D JUMP JUMPDEST PUSH2 0x1234 JUMP JUMPDEST SWAP2 POP DUP1 DUP1 PUSH2 0x22F SWAP1 PUSH2 0x1E23 JUMP JUMPDEST SWAP2 POP POP PUSH2 0x19C JUMP JUMPDEST POP PUSH2 0x261 DUP2 DUP4 PUSH1 0x80 ADD MLOAD PUSH1 0x0 DUP2 MLOAD DUP2 LT PUSH2 0x254 JUMPI PUSH2 0x253 PUSH2 0x1EFB JUMP JUMPDEST JUMPDEST PUSH1 0x20 MUL PUSH1 0x20 ADD ADD MLOAD PUSH2 0x1234 JUMP JUMPDEST SWAP1 POP PUSH2 0x2A7 DUP6 PUSH1 0x0 ADD MLOAD DUP7 PUSH1 0x20 ADD MLOAD PUSH2 0x279 DUP5 PUSH2 0x1301 JUMP JUMPDEST DUP6 PUSH1 0x40 ADD MLOAD PUSH2 0x28B DUP11 PUSH1 0x40 ADD MLOAD PUSH2 0x1301 JUMP JUMPDEST DUP8 PUSH1 0x60 ADD MLOAD PUSH2 0x29D DUP10 PUSH1 0x0 ADD MLOAD PUSH2 0x1301 JUMP JUMPDEST DUP10 PUSH1 0x20 ADD MLOAD PUSH2 0x13A6 JUMP JUMPDEST PUSH2 0x2B7 JUMPI PUSH1 0x1 SWAP4 POP POP POP POP PUSH2 0x2BF JUMP JUMPDEST PUSH1 0x0 SWAP4 POP POP POP POP JUMPDEST SWAP3 SWAP2 POP POP JUMP JUMPDEST PUSH2 0x2CD PUSH2 0x18CE JUMP JUMPDEST PUSH1 0x40 MLOAD DUP1 PUSH1 0x40 ADD PUSH1 0x40 MSTORE DUP1 PUSH32 0x1635D15567816B533B8489291DFA7369EEA8BFD26B1A5661D43B8FBA8534EF93 DUP2 MSTORE PUSH1 0x20 ADD PUSH32 0x2F8D32EC4A8DF92A5C58AE9A986B971ECC205FE221C30C1F270290A70A9102C8 DUP2 MSTORE POP DUP2 PUSH1 0x0 ADD DUP2 SWAP1 MSTORE POP PUSH1 0x40 MLOAD DUP1 PUSH1 0x40 ADD PUSH1 0x40 MSTORE DUP1 PUSH1 0x40 MLOAD DUP1 PUSH1 0x40 ADD PUSH1 0x40 MSTORE DUP1 PUSH32 0x1805CAA951180DEC37D759597459C1BFFB3A7ECDD50510F34D8DA841FCE78B0E DUP2 MSTORE PUSH1 0x20 ADD PUSH32 0x3D678FB93C8C15C209DC39869DED6FA699436FB5DC53A18D4ED5CC82EA056DB DUP2 MSTORE POP DUP2 MSTORE PUSH1 0x20 ADD PUSH1 0x40 MLOAD DUP1 PUSH1 0x40 ADD PUSH1 0x40 MSTORE DUP1 PUSH32 0x18BEA2F33B985E0A57141E38F3A822F2AA8014AE1108304EA2832BF8036AC0FA DUP2 MSTORE PUSH1 0x20 ADD PUSH32 0x5B60FA4FA9AC543642A610B35DE6731CDCA3DFA3BF02890116E83553BCBD653 DUP2 MSTORE POP DUP2 MSTORE POP DUP2 PUSH1 0x20 ADD DUP2 SWAP1 MSTORE POP PUSH1 0x40 MLOAD DUP1 PUSH1 0x40 ADD PUSH1 0x40 MSTORE DUP1 PUSH1 0x40 MLOAD DUP1 PUSH1 0x40 ADD PUSH1 0x40 MSTORE DUP1 PUSH32 0x1DD5F5A44A5BAD3BC6A081A9B003E0A5D4D4DA40F5385C442F12FBA3BE9C2235 DUP2 MSTORE PUSH1 0x20 ADD PUSH32 0x2FEB231FD70BAB785CDCF0D021F9D9E5AA536D9E34A552FE1EABA06955ACB7D2 DUP2 MSTORE POP DUP2 MSTORE PUSH1 0x20 ADD PUSH1 0x40 MLOAD DUP1 PUSH1 0x40 ADD PUSH1 0x40 MSTORE DUP1 PUSH32 0x199BF111819B97E857003A450206835758256EF87BCAD43740926CDACD01D88F DUP2 MSTORE PUSH1 0x20 ADD PUSH32 0xEF180B448760065B8171FE9E98FDECF28BAAEC92EF4A9F4C842D11481387BE8 DUP2 MSTORE POP DUP2 MSTORE POP DUP2 PUSH1 0x40 ADD DUP2 SWAP1 MSTORE POP PUSH1 0x40 MLOAD DUP1 PUSH1 0x40 ADD PUSH1 0x40 MSTORE DUP1 PUSH1 0x40 MLOAD DUP1 PUSH1 0x40 ADD PUSH1 0x40 MSTORE DUP1 PUSH32 0x1865833BB8D626EC55310F1F2AFA37BDD778EFE48C28F2045EFDA757672F11BA DUP2 MSTORE PUSH1 0x20 ADD PUSH31 0x939D7A1D5D9126CD182E681747529BDB15C0A9FC864E13A4E9862FB2FB784 DUP2 MSTORE POP DUP2 MSTORE PUSH1 0x20 ADD PUSH1 0x40 MLOAD DUP1 PUSH1 0x40 ADD PUSH1 0x40 MSTORE DUP1 PUSH32 0x178A3CB3C4B7177652321283BE8C4F2ABF6D1BDE78A09AF571768514BCCB795D DUP2 MSTORE PUSH1 0x20 ADD PUSH32 0x13A75EB6F0DCA762A71BF75B915AEE9C3EDC9F0842E2C4DE8A6C7337AB389D6F DUP2 MSTORE POP DUP2 MSTORE POP DUP2 PUSH1 0x60 ADD DUP2 SWAP1 MSTORE POP PUSH1 0x19 PUSH8 0xFFFFFFFFFFFFFFFF DUP2 GT ISZERO PUSH2 0x593 JUMPI PUSH2 0x592 PUSH2 0x1F2A JUMP JUMPDEST JUMPDEST PUSH1 0x40 MLOAD SWAP1 DUP1 DUP3 MSTORE DUP1 PUSH1 0x20 MUL PUSH1 0x20 ADD DUP3 ADD PUSH1 0x40 MSTORE DUP1 ISZERO PUSH2 0x5CC JUMPI DUP2 PUSH1 0x20 ADD JUMPDEST PUSH2 0x5B9 PUSH2 0x1915 JUMP JUMPDEST DUP2 MSTORE PUSH1 0x20 ADD SWAP1 PUSH1 0x1 SWAP1 SUB SWAP1 DUP2 PUSH2 0x5B1 JUMPI SWAP1 POP JUMPDEST POP DUP2 PUSH1 0x80 ADD DUP2 SWAP1 MSTORE POP PUSH1 0x40 MLOAD DUP1 PUSH1 0x40 ADD PUSH1 0x40 MSTORE DUP1 PUSH32 0x95AA9708537E0ACDB3ACB11E553515AD1F65F0001BF4BAB66DAC26F2453EA83 DUP2 MSTORE PUSH1 0x20 ADD PUSH32 0x1AB0E84D6B24F34F7EFC79DE9DDD6D80F9380DD8C0AA28C32E2F9F3854ED97FE DUP2 MSTORE POP DUP2 PUSH1 0x80 ADD MLOAD PUSH1 0x0 DUP2 MLOAD DUP2 LT PUSH2 0x642 JUMPI PUSH2 0x641 PUSH2 0x1EFB JUMP JUMPDEST JUMPDEST PUSH1 0x20 MUL PUSH1 0x20 ADD ADD DUP2 SWAP1 MSTORE POP PUSH1 0x40 MLOAD DUP1 PUSH1 0x40 ADD PUSH1 0x40 MSTORE DUP1 PUSH32 0x1DD56957F3368111456308041CC4C36D2328E47592BAC23BFF4B928D8F4840F7 DUP2 MSTORE PUSH1 0x20 ADD PUSH32 0x2727117161EA311AD1DFB6CBBDDBDB59BFC668DA582C3024C53564463F231F19 DUP2 MSTORE POP DUP2 PUSH1 0x80 ADD MLOAD PUSH1 0x1 DUP2 MLOAD DUP2 LT PUSH2 0x6BA JUMPI PUSH2 0x6B9 PUSH2 0x1EFB JUMP JUMPDEST JUMPDEST PUSH1 0x20 MUL PUSH1 0x20 ADD ADD DUP2 SWAP1 MSTORE POP PUSH1 0x40 MLOAD DUP1 PUSH1 0x40 ADD PUSH1 0x40 MSTORE DUP1 PUSH32 0xBD92C03010973077324FE3F7B336E7E35E904F71001CB137D725F9032FCFF7E DUP2 MSTORE PUSH1 0x20 ADD PUSH32 0x27E3D009CD396BAD72572BE54E443025E67968E4C4B6534BEC71131D44DBF855 DUP2 MSTORE POP DUP2 PUSH1 0x80 ADD MLOAD PUSH1 0x2 DUP2 MLOAD DUP2 LT PUSH2 0x732 JUMPI PUSH2 0x731 PUSH2 0x1EFB JUMP JUMPDEST JUMPDEST PUSH1 0x20 MUL PUSH1 0x20 ADD ADD DUP2 SWAP1 MSTORE POP PUSH1 0x40 MLOAD DUP1 PUSH1 0x40 ADD PUSH1 0x40 MSTORE DUP1 PUSH32 0x21BE2F81D87E60EBFC7C3D4E5045BE3150C19FAC919BC96935DCF5FA71EC317D DUP2 MSTORE PUSH1 0x20 ADD PUSH32 0xE2F428F967948026EE72A7C84F5FF2E192FD04F427B8249E4DD9F407EBEBFDA DUP2 MSTORE POP DUP2 PUSH1 0x80 ADD MLOAD PUSH1 0x3 DUP2 MLOAD DUP2 LT PUSH2 0x7AA JUMPI PUSH2 0x7A9 PUSH2 0x1EFB JUMP JUMPDEST JUMPDEST PUSH1 0x20 MUL PUSH1 0x20 ADD ADD DUP2 SWAP1 MSTORE POP PUSH1 0x40 MLOAD DUP1 PUSH1 0x40 ADD PUSH1 0x40 MSTORE DUP1 PUSH32 0x295EF3639515D0164396FF3CD09C05562A4F014BA4305FBCFCE9994BFE9E0353 DUP2 MSTORE PUSH1 0x20 ADD PUSH32 0x266A66FA705525272000825224EA26255B11488BF168A429B8C17A220BC30557 DUP2 MSTORE POP DUP2 PUSH1 0x80 ADD MLOAD PUSH1 0x4 DUP2 MLOAD DUP2 LT PUSH2 0x822 JUMPI PUSH2 0x821 PUSH2 0x1EFB JUMP JUMPDEST JUMPDEST PUSH1 0x20 MUL PUSH1 0x20 ADD ADD DUP2 SWAP1 MSTORE POP PUSH1 0x40 MLOAD DUP1 PUSH1 0x40 ADD PUSH1 0x40 MSTORE DUP1 PUSH31 0x6293BA7A0B33EA3D746C05654BE553BA0B4F2CFB66BBCD19B193B9751369D DUP2 MSTORE PUSH1 0x20 ADD PUSH32 0x14A074DD3543F4CCDD6537CA5C8EEBFB217060CA4E5AFEB0A7A09D9ECFC912EE DUP2 MSTORE POP DUP2 PUSH1 0x80 ADD MLOAD PUSH1 0x5 DUP2 MLOAD DUP2 LT PUSH2 0x899 JUMPI PUSH2 0x898 PUSH2 0x1EFB JUMP JUMPDEST JUMPDEST PUSH1 0x20 MUL PUSH1 0x20 ADD ADD DUP2 SWAP1 MSTORE POP PUSH1 0x40 MLOAD DUP1 PUSH1 0x40 ADD PUSH1 0x40 MSTORE DUP1 PUSH32 0x144AD0200273FA50774C9B9887163281953AA2AB259BE53288879F063DB3EB18 DUP2 MSTORE PUSH1 0x20 ADD PUSH32 0x206308BEAD896EB31342813E8E9312C5F13DD471C0A5605DE66F6F68BC0A4126 DUP2 MSTORE POP DUP2 PUSH1 0x80 ADD MLOAD PUSH1 0x6 DUP2 MLOAD DUP2 LT PUSH2 0x911 JUMPI PUSH2 0x910 PUSH2 0x1EFB JUMP JUMPDEST JUMPDEST PUSH1 0x20 MUL PUSH1 0x20 ADD ADD DUP2 SWAP1 MSTORE POP PUSH1 0x40 MLOAD DUP1 PUSH1 0x40 ADD PUSH1 0x40 MSTORE DUP1 PUSH32 0x866BCC288EDB38D7DCF46657225CECBBBB116D7C348584D74B4BDD46A511CB6 DUP2 MSTORE PUSH1 0x20 ADD PUSH32 0x23D60738EF43938ECEE267CE09786CF3D18BE5C361918704585DE32E15CA9E2D DUP2 MSTORE POP DUP2 PUSH1 0x80 ADD MLOAD PUSH1 0x7 DUP2 MLOAD DUP2 LT PUSH2 0x989 JUMPI PUSH2 0x988 PUSH2 0x1EFB JUMP JUMPDEST JUMPDEST PUSH1 0x20 MUL PUSH1 0x20 ADD ADD DUP2 SWAP1 MSTORE POP PUSH1 0x40 MLOAD DUP1 PUSH1 0x40 ADD PUSH1 0x40 MSTORE DUP1 PUSH32 0xB2F3BD45B06B0F39CDDB0365A8E2962AD9E266E7D718E62BE89B4F71CEF1012 DUP2 MSTORE PUSH1 0x20 ADD PUSH32 0x2271BA3AA61EB2C10D848935ABE4DE30DFD4290D8266D615921BC860A2A0ADCE DUP2 MSTORE POP DUP2 PUSH1 0x80 ADD MLOAD PUSH1 0x8 DUP2 MLOAD DUP2 LT PUSH2 0xA01 JUMPI PUSH2 0xA00 PUSH2 0x1EFB JUMP JUMPDEST JUMPDEST PUSH1 0x20 MUL PUSH1 0x20 ADD ADD DUP2 SWAP1 MSTORE POP PUSH1 0x40 MLOAD DUP1 PUSH1 0x40 ADD PUSH1 0x40 MSTORE DUP1 PUSH32 0x23FB3311C76F76D0F26729DBCA3DF5E83AE561D2178E6D65497C816FC502E66B DUP2 MSTORE PUSH1 0x20 ADD PUSH32 0x1F9762A3514BAE45EA18AE195D96D06726E5B13CA98911675D65BAA81F13378 DUP2 MSTORE POP DUP2 PUSH1 0x80 ADD MLOAD PUSH1 0x9 DUP2 MLOAD DUP2 LT PUSH2 0xA79 JUMPI PUSH2 0xA78 PUSH2 0x1EFB JUMP JUMPDEST JUMPDEST PUSH1 0x20 MUL PUSH1 0x20 ADD ADD DUP2 SWAP1 MSTORE POP PUSH1 0x40 MLOAD DUP1 PUSH1 0x40 ADD PUSH1 0x40 MSTORE DUP1 PUSH32 0x277C7AC0CEB263BC9A3D014D38A6000AAA1C42315530DB9E61FD39AF8CBFD92B DUP2 MSTORE PUSH1 0x20 ADD PUSH32 0x3C17ECBB1F7F2526AB2B29928B9B88E46934DF6F584EFC5F6ABBA40250F9744 DUP2 MSTORE POP DUP2 PUSH1 0x80 ADD MLOAD PUSH1 0xA DUP2 MLOAD DUP2 LT PUSH2 0xAF1 JUMPI PUSH2 0xAF0 PUSH2 0x1EFB JUMP JUMPDEST JUMPDEST PUSH1 0x20 MUL PUSH1 0x20 ADD ADD DUP2 SWAP1 MSTORE POP PUSH1 0x40 MLOAD DUP1 PUSH1 0x40 ADD PUSH1 0x40 MSTORE DUP1 PUSH32 0x2C98470CB570E485C786AF848696DA00486AA0CF3420215C1B7D4ABD50592860 DUP2 MSTORE PUSH1 0x20 ADD PUSH32 0x1FDEC81895854C21729F47CC08A2A6DD6A791A99002DA4139AEFB53CCA209D8F DUP2 MSTORE POP DUP2 PUSH1 0x80 ADD MLOAD PUSH1 0xB DUP2 MLOAD DUP2 LT PUSH2 0xB69 JUMPI PUSH2 0xB68 PUSH2 0x1EFB JUMP JUMPDEST JUMPDEST PUSH1 0x20 MUL PUSH1 0x20 ADD ADD DUP2 SWAP1 MSTORE POP PUSH1 0x40 MLOAD DUP1 PUSH1 0x40 ADD PUSH1 0x40 MSTORE DUP1 PUSH32 0x25A81739A99C738161A6210EEDAB854A741CC0495F7EC2C677367CE3D3E868A8 DUP2 MSTORE PUSH1 0x20 ADD PUSH32 0xD930F83E7260AB863230504290CC7D5FC0D8A1F07B7DF347112D72BBE9437A8 DUP2 MSTORE POP DUP2 PUSH1 0x80 ADD MLOAD PUSH1 0xC DUP2 MLOAD DUP2 LT PUSH2 0xBE1 JUMPI PUSH2 0xBE0 PUSH2 0x1EFB JUMP JUMPDEST JUMPDEST PUSH1 0x20 MUL PUSH1 0x20 ADD ADD DUP2 SWAP1 MSTORE POP PUSH1 0x40 MLOAD DUP1 PUSH1 0x40 ADD PUSH1 0x40 MSTORE DUP1 PUSH32 0x7386E63AB5C69A165A8B0EB0B24988E88A1DAD8191B324A458E053AD90452B3 DUP2 MSTORE PUSH1 0x20 ADD PUSH32 0x25460F55DB0D23AC0C824F23C61DFB42CBD4D9F4A3CBF0F912CC9434AFC00123 DUP2 MSTORE POP DUP2 PUSH1 0x80 ADD MLOAD PUSH1 0xD DUP2 MLOAD DUP2 LT PUSH2 0xC59 JUMPI PUSH2 0xC58 PUSH2 0x1EFB JUMP JUMPDEST JUMPDEST PUSH1 0x20 MUL PUSH1 0x20 ADD ADD DUP2 SWAP1 MSTORE POP PUSH1 0x40 MLOAD DUP1 PUSH1 0x40 ADD PUSH1 0x40 MSTORE DUP1 PUSH32 0x274482C081CDCFEA7F907EEB48A54589EF7A3C2F1F5D6B14B2079FC42019851D DUP2 MSTORE PUSH1 0x20 ADD PUSH32 0x2D3269EB78A6C30707D86790BC9118C6D73E8665C6426AAE55118D4BDF1D5141 DUP2 MSTORE POP DUP2 PUSH1 0x80 ADD MLOAD PUSH1 0xE DUP2 MLOAD DUP2 LT PUSH2 0xCD1 JUMPI PUSH2 0xCD0 PUSH2 0x1EFB JUMP JUMPDEST JUMPDEST PUSH1 0x20 MUL PUSH1 0x20 ADD ADD DUP2 SWAP1 MSTORE POP PUSH1 0x40 MLOAD DUP1 PUSH1 0x40 ADD PUSH1 0x40 MSTORE DUP1 PUSH32 0x2A902536485F315F958E1F58428595D9547E508A44FE4EAE4D88490F7B6F4935 DUP2 MSTORE PUSH1 0x20 ADD PUSH32 0x2467C22389A6F730256F13EF9C36FEFAFFD5F62E59883253BA7E454F203BB1BA DUP2 MSTORE POP DUP2 PUSH1 0x80 ADD MLOAD PUSH1 0xF DUP2 MLOAD DUP2 LT PUSH2 0xD49 JUMPI PUSH2 0xD48 PUSH2 0x1EFB JUMP JUMPDEST JUMPDEST PUSH1 0x20 MUL PUSH1 0x20 ADD ADD DUP2 SWAP1 MSTORE POP PUSH1 0x40 MLOAD DUP1 PUSH1 0x40 ADD PUSH1 0x40 MSTORE DUP1 PUSH32 0x14629FF0A8B89BD71C2F6A563BF7C970DDAE1B321A9C7A166244C04530D6B3AA DUP2 MSTORE PUSH1 0x20 ADD PUSH32 0x12C6F2E374E57DF351930C8AF85080F88AAF982FAE8462F566FF130FEF03FB4B DUP2 MSTORE POP DUP2 PUSH1 0x80 ADD MLOAD PUSH1 0x10 DUP2 MLOAD DUP2 LT PUSH2 0xDC1 JUMPI PUSH2 0xDC0 PUSH2 0x1EFB JUMP JUMPDEST JUMPDEST PUSH1 0x20 MUL PUSH1 0x20 ADD ADD DUP2 SWAP1 MSTORE POP PUSH1 0x40 MLOAD DUP1 PUSH1 0x40 ADD PUSH1 0x40 MSTORE DUP1 PUSH32 0x26FB68FABEDEE09DD650447C8ED9A1FACD2CA6C64D7CE4739F9AD24E3681A950 DUP2 MSTORE PUSH1 0x20 ADD PUSH32 0x1451295DC567532A2FAAEF99FEA2D36CD0783EE3BAB10EF347B04144C56AA1D6 DUP2 MSTORE POP DUP2 PUSH1 0x80 ADD MLOAD PUSH1 0x11 DUP2 MLOAD DUP2 LT PUSH2 0xE39 JUMPI PUSH2 0xE38 PUSH2 0x1EFB JUMP JUMPDEST JUMPDEST PUSH1 0x20 MUL PUSH1 0x20 ADD ADD DUP2 SWAP1 MSTORE POP PUSH1 0x40 MLOAD DUP1 PUSH1 0x40 ADD PUSH1 0x40 MSTORE DUP1 PUSH32 0x170EF8B963AD4003AE5FAB8F63A3498019996CB7E95ABFC8BD02E146535ACC00 DUP2 MSTORE PUSH1 0x20 ADD PUSH31 0xC1AED28BA067B3D985DE0738BE5D6062AC05E671C096DD545B49509521EC16 DUP2 MSTORE POP DUP2 PUSH1 0x80 ADD MLOAD PUSH1 0x12 DUP2 MLOAD DUP2 LT PUSH2 0xEB0 JUMPI PUSH2 0xEAF PUSH2 0x1EFB JUMP JUMPDEST JUMPDEST PUSH1 0x20 MUL PUSH1 0x20 ADD ADD DUP2 SWAP1 MSTORE POP PUSH1 0x40 MLOAD DUP1 PUSH1 0x40 ADD PUSH1 0x40 MSTORE DUP1 PUSH32 0x195F188845ACE50740D4E5D790923101F03DE4C87B72F2EF9C13EC43CAEA1C42 DUP2 MSTORE PUSH1 0x20 ADD PUSH32 0x1BE80B0A4B27CAA95E1F4E05F1EED590581DF670510951C7D53C740A78AEA711 DUP2 MSTORE POP DUP2 PUSH1 0x80 ADD MLOAD PUSH1 0x13 DUP2 MLOAD DUP2 LT PUSH2 0xF28 JUMPI PUSH2 0xF27 PUSH2 0x1EFB JUMP JUMPDEST JUMPDEST PUSH1 0x20 MUL PUSH1 0x20 ADD ADD DUP2 SWAP1 MSTORE POP PUSH1 0x40 MLOAD DUP1 PUSH1 0x40 ADD PUSH1 0x40 MSTORE DUP1 PUSH32 0x1DFAEF7D1D60D28F24B48FDCF3E2002E60BD6A912A814CCA9A0F50716FD763A4 DUP2 MSTORE PUSH1 0x20 ADD PUSH32 0x2710D6B35BC5A842E5E0A66328FB88D23DD81F1D857223B86E57A1D4028AC224 DUP2 MSTORE POP DUP2 PUSH1 0x80 ADD MLOAD PUSH1 0x14 DUP2 MLOAD DUP2 LT PUSH2 0xFA0 JUMPI PUSH2 0xF9F PUSH2 0x1EFB JUMP JUMPDEST JUMPDEST PUSH1 0x20 MUL PUSH1 0x20 ADD ADD DUP2 SWAP1 MSTORE POP PUSH1 0x40 MLOAD DUP1 PUSH1 0x40 ADD PUSH1 0x40 MSTORE DUP1 PUSH32 0x29CB27EFCCA93C2AC44427CC8A10B06DC8EDF7C9D5D093A81111D303A3077D5A DUP2 MSTORE PUSH1 0x20 ADD PUSH32 0x20B0649741427F3C0888A7790B93F647FE16CB356D05E7E1B32C7A8191EA7166 DUP2 MSTORE POP DUP2 PUSH1 0x80 ADD MLOAD PUSH1 0x15 DUP2 MLOAD DUP2 LT PUSH2 0x1018 JUMPI PUSH2 0x1017 PUSH2 0x1EFB JUMP JUMPDEST JUMPDEST PUSH1 0x20 MUL PUSH1 0x20 ADD ADD DUP2 SWAP1 MSTORE POP PUSH1 0x40 MLOAD DUP1 PUSH1 0x40 ADD PUSH1 0x40 MSTORE DUP1 PUSH32 0x31C3EDB5BEBCE3517BD14A98D56A194BBE4E61EFD4B25316A2BB768488FECB6 DUP2 MSTORE PUSH1 0x20 ADD PUSH31 0x9CF640CC8EC2E09513EE64FE8602A365E040D2ADC40BE06D3130F63D00DC67 DUP2 MSTORE POP DUP2 PUSH1 0x80 ADD MLOAD PUSH1 0x16 DUP2 MLOAD DUP2 LT PUSH2 0x108F JUMPI PUSH2 0x108E PUSH2 0x1EFB JUMP JUMPDEST JUMPDEST PUSH1 0x20 MUL PUSH1 0x20 ADD ADD DUP2 SWAP1 MSTORE POP PUSH1 0x40 MLOAD DUP1 PUSH1 0x40 ADD PUSH1 0x40 MSTORE DUP1 PUSH32 0xFC00F16735E56E0E1EEEE6AA1AC226A8E88F89F7F7139F5291693E13DA95CAC DUP2 MSTORE PUSH1 0x20 ADD PUSH32 0x2499B80BD4F366C83F2B4DA3E013700A00D1CA70649256B5D65F39AD4C4C5DB4 DUP2 MSTORE POP DUP2 PUSH1 0x80 ADD MLOAD PUSH1 0x17 DUP2 MLOAD DUP2 LT PUSH2 0x1107 JUMPI PUSH2 0x1106 PUSH2 0x1EFB JUMP JUMPDEST JUMPDEST PUSH1 0x20 MUL PUSH1 0x20 ADD ADD DUP2 SWAP1 MSTORE POP PUSH1 0x40 MLOAD DUP1 PUSH1 0x40 ADD PUSH1 0x40 MSTORE DUP1 PUSH32 0x1EDF8272BDDACDEA24C9ED9829C4ECE615C87BDE3E8A387FAAA3F559F036FB8E DUP2 MSTORE PUSH1 0x20 ADD PUSH32 0x21601E76E5F68D65EAD089C6A6ECC2605416263352D2EA5FB9EF15BA239B02BE DUP2 MSTORE POP DUP2 PUSH1 0x80 ADD MLOAD PUSH1 0x18 DUP2 MLOAD DUP2 LT PUSH2 0x117F JUMPI PUSH2 0x117E PUSH2 0x1EFB JUMP JUMPDEST JUMPDEST PUSH1 0x20 MUL PUSH1 0x20 ADD ADD DUP2 SWAP1 MSTORE POP SWAP1 JUMP JUMPDEST PUSH2 0x1195 PUSH2 0x1915 JUMP JUMPDEST PUSH2 0x119D PUSH2 0x192F JUMP JUMPDEST DUP4 PUSH1 0x0 ADD MLOAD DUP2 PUSH1 0x0 PUSH1 0x3 DUP2 LT PUSH2 0x11B6 JUMPI PUSH2 0x11B5 PUSH2 0x1EFB JUMP JUMPDEST JUMPDEST PUSH1 0x20 MUL ADD DUP2 DUP2 MSTORE POP POP DUP4 PUSH1 0x20 ADD MLOAD DUP2 PUSH1 0x1 PUSH1 0x3 DUP2 LT PUSH2 0x11D8 JUMPI PUSH2 0x11D7 PUSH2 0x1EFB JUMP JUMPDEST JUMPDEST PUSH1 0x20 MUL ADD DUP2 DUP2 MSTORE POP POP DUP3 DUP2 PUSH1 0x2 PUSH1 0x3 DUP2 LT PUSH2 0x11F6 JUMPI PUSH2 0x11F5 PUSH2 0x1EFB JUMP JUMPDEST JUMPDEST PUSH1 0x20 MUL ADD DUP2 DUP2 MSTORE POP POP PUSH1 0x0 PUSH1 0x60 DUP4 PUSH1 0x80 DUP5 PUSH1 0x7 PUSH2 0x7D0 GAS SUB STATICCALL SWAP1 POP DUP1 PUSH1 0x0 DUP2 EQ PUSH2 0x121F JUMPI PUSH2 0x1221 JUMP JUMPDEST INVALID JUMPDEST POP DUP1 PUSH2 0x122C JUMPI PUSH1 0x0 DUP1 REVERT JUMPDEST POP POP SWAP3 SWAP2 POP POP JUMP JUMPDEST PUSH2 0x123C PUSH2 0x1915 JUMP JUMPDEST PUSH2 0x1244 PUSH2 0x1951 JUMP JUMPDEST DUP4 PUSH1 0x0 ADD MLOAD DUP2 PUSH1 0x0 PUSH1 0x4 DUP2 LT PUSH2 0x125D JUMPI PUSH2 0x125C PUSH2 0x1EFB JUMP JUMPDEST JUMPDEST PUSH1 0x20 MUL ADD DUP2 DUP2 MSTORE POP POP DUP4 PUSH1 0x20 ADD MLOAD DUP2 PUSH1 0x1 PUSH1 0x4 DUP2 LT PUSH2 0x127F JUMPI PUSH2 0x127E PUSH2 0x1EFB JUMP JUMPDEST JUMPDEST PUSH1 0x20 MUL ADD DUP2 DUP2 MSTORE POP POP DUP3 PUSH1 0x0 ADD MLOAD DUP2 PUSH1 0x2 PUSH1 0x4 DUP2 LT PUSH2 0x12A1 JUMPI PUSH2 0x12A0 PUSH2 0x1EFB JUMP JUMPDEST JUMPDEST PUSH1 0x20 MUL ADD DUP2 DUP2 MSTORE POP POP DUP3 PUSH1 0x20 ADD MLOAD DUP2 PUSH1 0x3 PUSH1 0x4 DUP2 LT PUSH2 0x12C3 JUMPI PUSH2 0x12C2 PUSH2 0x1EFB JUMP JUMPDEST JUMPDEST PUSH1 0x20 MUL ADD DUP2 DUP2 MSTORE POP POP PUSH1 0x0 PUSH1 0x60 DUP4 PUSH1 0xC0 DUP5 PUSH1 0x6 PUSH2 0x7D0 GAS SUB STATICCALL SWAP1 POP DUP1 PUSH1 0x0 DUP2 EQ PUSH2 0x12EC JUMPI PUSH2 0x12EE JUMP JUMPDEST INVALID JUMPDEST POP DUP1 PUSH2 0x12F9 JUMPI PUSH1 0x0 DUP1 REVERT JUMPDEST POP POP SWAP3 SWAP2 POP POP JUMP JUMPDEST PUSH2 0x1309 PUSH2 0x1915 JUMP JUMPDEST PUSH1 0x0 PUSH32 0x30644E72E131A029B85045B68181585D97816A916871CA8D3C208C16D87CFD47 SWAP1 POP PUSH1 0x0 DUP4 PUSH1 0x0 ADD MLOAD EQ DUP1 ISZERO PUSH2 0x1346 JUMPI POP PUSH1 0x0 DUP4 PUSH1 0x20 ADD MLOAD EQ JUMPDEST ISZERO PUSH2 0x136A JUMPI PUSH1 0x40 MLOAD DUP1 PUSH1 0x40 ADD PUSH1 0x40 MSTORE DUP1 PUSH1 0x0 DUP2 MSTORE PUSH1 0x20 ADD PUSH1 0x0 DUP2 MSTORE POP SWAP2 POP POP PUSH2 0x13A1 JUMP JUMPDEST PUSH1 0x40 MLOAD DUP1 PUSH1 0x40 ADD PUSH1 0x40 MSTORE DUP1 DUP5 PUSH1 0x0 ADD MLOAD DUP2 MSTORE PUSH1 0x20 ADD DUP3 DUP6 PUSH1 0x20 ADD MLOAD PUSH2 0x138F SWAP2 SWAP1 PUSH2 0x1E6C JUMP JUMPDEST DUP4 PUSH2 0x139A SWAP2 SWAP1 PUSH2 0x1DA8 JUMP JUMPDEST DUP2 MSTORE POP SWAP2 POP POP JUMPDEST SWAP2 SWAP1 POP JUMP JUMPDEST PUSH1 0x0 DUP1 PUSH1 0x4 PUSH8 0xFFFFFFFFFFFFFFFF DUP2 GT ISZERO PUSH2 0x13C4 JUMPI PUSH2 0x13C3 PUSH2 0x1F2A JUMP JUMPDEST JUMPDEST PUSH1 0x40 MLOAD SWAP1 DUP1 DUP3 MSTORE DUP1 PUSH1 0x20 MUL PUSH1 0x20 ADD DUP3 ADD PUSH1 0x40 MSTORE DUP1 ISZERO PUSH2 0x13FD JUMPI DUP2 PUSH1 0x20 ADD JUMPDEST PUSH2 0x13EA PUSH2 0x1915 JUMP JUMPDEST DUP2 MSTORE PUSH1 0x20 ADD SWAP1 PUSH1 0x1 SWAP1 SUB SWAP1 DUP2 PUSH2 0x13E2 JUMPI SWAP1 POP JUMPDEST POP SWAP1 POP PUSH1 0x0 PUSH1 0x4 PUSH8 0xFFFFFFFFFFFFFFFF DUP2 GT ISZERO PUSH2 0x141D JUMPI PUSH2 0x141C PUSH2 0x1F2A JUMP JUMPDEST JUMPDEST PUSH1 0x40 MLOAD SWAP1 DUP1 DUP3 MSTORE DUP1 PUSH1 0x20 MUL PUSH1 0x20 ADD DUP3 ADD PUSH1 0x40 MSTORE DUP1 ISZERO PUSH2 0x1456 JUMPI DUP2 PUSH1 0x20 ADD JUMPDEST PUSH2 0x1443 PUSH2 0x1973 JUMP JUMPDEST DUP2 MSTORE PUSH1 0x20 ADD SWAP1 PUSH1 0x1 SWAP1 SUB SWAP1 DUP2 PUSH2 0x143B JUMPI SWAP1 POP JUMPDEST POP SWAP1 POP DUP11 DUP3 PUSH1 0x0 DUP2 MLOAD DUP2 LT PUSH2 0x146E JUMPI PUSH2 0x146D PUSH2 0x1EFB JUMP JUMPDEST JUMPDEST PUSH1 0x20 MUL PUSH1 0x20 ADD ADD DUP2 SWAP1 MSTORE POP DUP9 DUP3 PUSH1 0x1 DUP2 MLOAD DUP2 LT PUSH2 0x148E JUMPI PUSH2 0x148D PUSH2 0x1EFB JUMP JUMPDEST JUMPDEST PUSH1 0x20 MUL PUSH1 0x20 ADD ADD DUP2 SWAP1 MSTORE POP DUP7 DUP3 PUSH1 0x2 DUP2 MLOAD DUP2 LT PUSH2 0x14AE JUMPI PUSH2 0x14AD PUSH2 0x1EFB JUMP JUMPDEST JUMPDEST PUSH1 0x20 MUL PUSH1 0x20 ADD ADD DUP2 SWAP1 MSTORE POP DUP5 DUP3 PUSH1 0x3 DUP2 MLOAD DUP2 LT PUSH2 0x14CE JUMPI PUSH2 0x14CD PUSH2 0x1EFB JUMP JUMPDEST JUMPDEST PUSH1 0x20 MUL PUSH1 0x20 ADD ADD DUP2 SWAP1 MSTORE POP DUP10 DUP2 PUSH1 0x0 DUP2 MLOAD DUP2 LT PUSH2 0x14EE JUMPI PUSH2 0x14ED PUSH2 0x1EFB JUMP JUMPDEST JUMPDEST PUSH1 0x20 MUL PUSH1 0x20 ADD ADD DUP2 SWAP1 MSTORE POP DUP8 DUP2 PUSH1 0x1 DUP2 MLOAD DUP2 LT PUSH2 0x150E JUMPI PUSH2 0x150D PUSH2 0x1EFB JUMP JUMPDEST JUMPDEST PUSH1 0x20 MUL PUSH1 0x20 ADD ADD DUP2 SWAP1 MSTORE POP DUP6 DUP2 PUSH1 0x2 DUP2 MLOAD DUP2 LT PUSH2 0x152E JUMPI PUSH2 0x152D PUSH2 0x1EFB JUMP JUMPDEST JUMPDEST PUSH1 0x20 MUL PUSH1 0x20 ADD ADD DUP2 SWAP1 MSTORE POP DUP4 DUP2 PUSH1 0x3 DUP2 MLOAD DUP2 LT PUSH2 0x154E JUMPI PUSH2 0x154D PUSH2 0x1EFB JUMP JUMPDEST JUMPDEST PUSH1 0x20 MUL PUSH1 0x20 ADD ADD DUP2 SWAP1 MSTORE POP PUSH2 0x1563 DUP3 DUP3 PUSH2 0x1573 JUMP JUMPDEST SWAP3 POP POP POP SWAP9 SWAP8 POP POP POP POP POP POP POP POP JUMP JUMPDEST PUSH1 0x0 DUP2 MLOAD DUP4 MLOAD EQ PUSH2 0x1583 JUMPI PUSH1 0x0 DUP1 REVERT JUMPDEST PUSH1 0x0 DUP4 MLOAD SWAP1 POP PUSH1 0x0 PUSH1 0x6 DUP3 PUSH2 0x1598 SWAP2 SWAP1 PUSH2 0x1D4E JUMP JUMPDEST SWAP1 POP PUSH1 0x0 DUP2 PUSH8 0xFFFFFFFFFFFFFFFF DUP2 GT ISZERO PUSH2 0x15B6 JUMPI PUSH2 0x15B5 PUSH2 0x1F2A JUMP JUMPDEST JUMPDEST PUSH1 0x40 MLOAD SWAP1 DUP1 DUP3 MSTORE DUP1 PUSH1 0x20 MUL PUSH1 0x20 ADD DUP3 ADD PUSH1 0x40 MSTORE DUP1 ISZERO PUSH2 0x15E4 JUMPI DUP2 PUSH1 0x20 ADD PUSH1 0x20 DUP3 MUL DUP1 CALLDATASIZE DUP4 CALLDATACOPY DUP1 DUP3 ADD SWAP2 POP POP SWAP1 POP JUMPDEST POP SWAP1 POP PUSH1 0x0 JUMPDEST DUP4 DUP2 LT ISZERO PUSH2 0x1869 JUMPI DUP7 DUP2 DUP2 MLOAD DUP2 LT PUSH2 0x1605 JUMPI PUSH2 0x1604 PUSH2 0x1EFB JUMP JUMPDEST JUMPDEST PUSH1 0x20 MUL PUSH1 0x20 ADD ADD MLOAD PUSH1 0x0 ADD MLOAD DUP3 PUSH1 0x0 PUSH1 0x6 DUP5 PUSH2 0x1621 SWAP2 SWAP1 PUSH2 0x1D4E JUMP JUMPDEST PUSH2 0x162B SWAP2 SWAP1 PUSH2 0x1CF8 JUMP JUMPDEST DUP2 MLOAD DUP2 LT PUSH2 0x163C JUMPI PUSH2 0x163B PUSH2 0x1EFB JUMP JUMPDEST JUMPDEST PUSH1 0x20 MUL PUSH1 0x20 ADD ADD DUP2 DUP2 MSTORE POP POP DUP7 DUP2 DUP2 MLOAD DUP2 LT PUSH2 0x165B JUMPI PUSH2 0x165A PUSH2 0x1EFB JUMP JUMPDEST JUMPDEST PUSH1 0x20 MUL PUSH1 0x20 ADD ADD MLOAD PUSH1 0x20 ADD MLOAD DUP3 PUSH1 0x1 PUSH1 0x6 DUP5 PUSH2 0x1677 SWAP2 SWAP1 PUSH2 0x1D4E JUMP JUMPDEST PUSH2 0x1681 SWAP2 SWAP1 PUSH2 0x1CF8 JUMP JUMPDEST DUP2 MLOAD DUP2 LT PUSH2 0x1692 JUMPI PUSH2 0x1691 PUSH2 0x1EFB JUMP JUMPDEST JUMPDEST PUSH1 0x20 MUL PUSH1 0x20 ADD ADD DUP2 DUP2 MSTORE POP POP DUP6 DUP2 DUP2 MLOAD DUP2 LT PUSH2 0x16B1 JUMPI PUSH2 0x16B0 PUSH2 0x1EFB JUMP JUMPDEST JUMPDEST PUSH1 0x20 MUL PUSH1 0x20 ADD ADD MLOAD PUSH1 0x0 ADD MLOAD PUSH1 0x1 PUSH1 0x2 DUP2 LT PUSH2 0x16D0 JUMPI PUSH2 0x16CF PUSH2 0x1EFB JUMP JUMPDEST JUMPDEST PUSH1 0x20 MUL ADD MLOAD DUP3 PUSH1 0x2 PUSH1 0x6 DUP5 PUSH2 0x16E5 SWAP2 SWAP1 PUSH2 0x1D4E JUMP JUMPDEST PUSH2 0x16EF SWAP2 SWAP1 PUSH2 0x1CF8 JUMP JUMPDEST DUP2 MLOAD DUP2 LT PUSH2 0x1700 JUMPI PUSH2 0x16FF PUSH2 0x1EFB JUMP JUMPDEST JUMPDEST PUSH1 0x20 MUL PUSH1 0x20 ADD ADD DUP2 DUP2 MSTORE POP POP DUP6 DUP2 DUP2 MLOAD DUP2 LT PUSH2 0x171F JUMPI PUSH2 0x171E PUSH2 0x1EFB JUMP JUMPDEST JUMPDEST PUSH1 0x20 MUL PUSH1 0x20 ADD ADD MLOAD PUSH1 0x0 ADD MLOAD PUSH1 0x0 PUSH1 0x2 DUP2 LT PUSH2 0x173E JUMPI PUSH2 0x173D PUSH2 0x1EFB JUMP JUMPDEST JUMPDEST PUSH1 0x20 MUL ADD MLOAD DUP3 PUSH1 0x3 PUSH1 0x6 DUP5 PUSH2 0x1753 SWAP2 SWAP1 PUSH2 0x1D4E JUMP JUMPDEST PUSH2 0x175D SWAP2 SWAP1 PUSH2 0x1CF8 JUMP JUMPDEST DUP2 MLOAD DUP2 LT PUSH2 0x176E JUMPI PUSH2 0x176D PUSH2 0x1EFB JUMP JUMPDEST JUMPDEST PUSH1 0x20 MUL PUSH1 0x20 ADD ADD DUP2 DUP2 MSTORE POP POP DUP6 DUP2 DUP2 MLOAD DUP2 LT PUSH2 0x178D JUMPI PUSH2 0x178C PUSH2 0x1EFB JUMP JUMPDEST JUMPDEST PUSH1 0x20 MUL PUSH1 0x20 ADD ADD MLOAD PUSH1 0x20 ADD MLOAD PUSH1 0x1 PUSH1 0x2 DUP2 LT PUSH2 0x17AC JUMPI PUSH2 0x17AB PUSH2 0x1EFB JUMP JUMPDEST JUMPDEST PUSH1 0x20 MUL ADD MLOAD DUP3 PUSH1 0x4 PUSH1 0x6 DUP5 PUSH2 0x17C1 SWAP2 SWAP1 PUSH2 0x1D4E JUMP JUMPDEST PUSH2 0x17CB SWAP2 SWAP1 PUSH2 0x1CF8 JUMP JUMPDEST DUP2 MLOAD DUP2 LT PUSH2 0x17DC JUMPI PUSH2 0x17DB PUSH2 0x1EFB JUMP JUMPDEST JUMPDEST PUSH1 0x20 MUL PUSH1 0x20 ADD ADD DUP2 DUP2 MSTORE POP POP DUP6 DUP2 DUP2 MLOAD DUP2 LT PUSH2 0x17FB JUMPI PUSH2 0x17FA PUSH2 0x1EFB JUMP JUMPDEST JUMPDEST PUSH1 0x20 MUL PUSH1 0x20 ADD ADD MLOAD PUSH1 0x20 ADD MLOAD PUSH1 0x0 PUSH1 0x2 DUP2 LT PUSH2 0x181A JUMPI PUSH2 0x1819 PUSH2 0x1EFB JUMP JUMPDEST JUMPDEST PUSH1 0x20 MUL ADD MLOAD DUP3 PUSH1 0x5 PUSH1 0x6 DUP5 PUSH2 0x182F SWAP2 SWAP1 PUSH2 0x1D4E JUMP JUMPDEST PUSH2 0x1839 SWAP2 SWAP1 PUSH2 0x1CF8 JUMP JUMPDEST DUP2 MLOAD DUP2 LT PUSH2 0x184A JUMPI PUSH2 0x1849 PUSH2 0x1EFB JUMP JUMPDEST JUMPDEST PUSH1 0x20 MUL PUSH1 0x20 ADD ADD DUP2 DUP2 MSTORE POP POP DUP1 DUP1 PUSH2 0x1861 SWAP1 PUSH2 0x1E23 JUMP JUMPDEST SWAP2 POP POP PUSH2 0x15EA JUMP JUMPDEST POP PUSH2 0x1872 PUSH2 0x1999 JUMP JUMPDEST PUSH1 0x0 PUSH1 0x20 DUP3 PUSH1 0x20 DUP7 MUL PUSH1 0x20 DUP7 ADD PUSH1 0x8 PUSH2 0x7D0 GAS SUB STATICCALL SWAP1 POP DUP1 PUSH1 0x0 DUP2 EQ PUSH2 0x1897 JUMPI PUSH2 0x1899 JUMP JUMPDEST INVALID JUMPDEST POP DUP1 PUSH2 0x18A4 JUMPI PUSH1 0x0 DUP1 REVERT JUMPDEST PUSH1 0x0 DUP3 PUSH1 0x0 PUSH1 0x1 DUP2 LT PUSH2 0x18BA JUMPI PUSH2 0x18B9 PUSH2 0x1EFB JUMP JUMPDEST JUMPDEST PUSH1 0x20 MUL ADD MLOAD EQ ISZERO SWAP6 POP POP POP POP POP POP SWAP3 SWAP2 POP POP JUMP JUMPDEST PUSH1 0x40 MLOAD DUP1 PUSH1 0xA0 ADD PUSH1 0x40 MSTORE DUP1 PUSH2 0x18E1 PUSH2 0x1915 JUMP JUMPDEST DUP2 MSTORE PUSH1 0x20 ADD PUSH2 0x18EE PUSH2 0x1973 JUMP JUMPDEST DUP2 MSTORE PUSH1 0x20 ADD PUSH2 0x18FB PUSH2 0x1973 JUMP JUMPDEST DUP2 MSTORE PUSH1 0x20 ADD PUSH2 0x1908 PUSH2 0x1973 JUMP JUMPDEST DUP2 MSTORE PUSH1 0x20 ADD PUSH1 0x60 DUP2 MSTORE POP SWAP1 JUMP JUMPDEST PUSH1 0x40 MLOAD DUP1 PUSH1 0x40 ADD PUSH1 0x40 MSTORE DUP1 PUSH1 0x0 DUP2 MSTORE PUSH1 0x20 ADD PUSH1 0x0 DUP2 MSTORE POP SWAP1 JUMP JUMPDEST PUSH1 0x40 MLOAD DUP1 PUSH1 0x60 ADD PUSH1 0x40 MSTORE DUP1 PUSH1 0x3 SWAP1 PUSH1 0x20 DUP3 MUL DUP1 CALLDATASIZE DUP4 CALLDATACOPY DUP1 DUP3 ADD SWAP2 POP POP SWAP1 POP POP SWAP1 JUMP JUMPDEST PUSH1 0x40 MLOAD DUP1 PUSH1 0x80 ADD PUSH1 0x40 MSTORE DUP1 PUSH1 0x4 SWAP1 PUSH1 0x20 DUP3 MUL DUP1 CALLDATASIZE DUP4 CALLDATACOPY DUP1 DUP3 ADD SWAP2 POP POP SWAP1 POP POP SWAP1 JUMP JUMPDEST PUSH1 0x40 MLOAD DUP1 PUSH1 0x40 ADD PUSH1 0x40 MSTORE DUP1 PUSH2 0x1986 PUSH2 0x19BB JUMP JUMPDEST DUP2 MSTORE PUSH1 0x20 ADD PUSH2 0x1993 PUSH2 0x19BB JUMP JUMPDEST DUP2 MSTORE POP SWAP1 JUMP JUMPDEST PUSH1 0x40 MLOAD DUP1 PUSH1 0x20 ADD PUSH1 0x40 MSTORE DUP1 PUSH1 0x1 SWAP1 PUSH1 0x20 DUP3 MUL DUP1 CALLDATASIZE DUP4 CALLDATACOPY DUP1 DUP3 ADD SWAP2 POP POP SWAP1 POP POP SWAP1 JUMP JUMPDEST PUSH1 0x40 MLOAD DUP1 PUSH1 0x40 ADD PUSH1 0x40 MSTORE DUP1 PUSH1 0x2 SWAP1 PUSH1 0x20 DUP3 MUL DUP1 CALLDATASIZE DUP4 CALLDATACOPY DUP1 DUP3 ADD SWAP2 POP POP SWAP1 POP POP SWAP1 JUMP JUMPDEST PUSH1 0x0 PUSH2 0x19F0 PUSH2 0x19EB DUP5 PUSH2 0x1CAC JUMP JUMPDEST PUSH2 0x1C87 JUMP JUMPDEST SWAP1 POP DUP1 DUP3 DUP6 PUSH1 0x20 DUP7 MUL DUP3 ADD GT ISZERO PUSH2 0x1A0A JUMPI PUSH2 0x1A09 PUSH2 0x1F63 JUMP JUMPDEST JUMPDEST PUSH1 0x0 JUMPDEST DUP6 DUP2 LT ISZERO PUSH2 0x1A3A JUMPI DUP2 PUSH2 0x1A20 DUP9 DUP3 PUSH2 0x1C06 JUMP JUMPDEST DUP5 MSTORE PUSH1 0x20 DUP5 ADD SWAP4 POP PUSH1 0x20 DUP4 ADD SWAP3 POP POP PUSH1 0x1 DUP2 ADD SWAP1 POP PUSH2 0x1A0D JUMP JUMPDEST POP POP POP SWAP4 SWAP3 POP POP POP JUMP JUMPDEST PUSH1 0x0 PUSH2 0x1A57 PUSH2 0x1A52 DUP5 PUSH2 0x1CD2 JUMP JUMPDEST PUSH2 0x1C87 JUMP JUMPDEST SWAP1 POP DUP1 DUP3 DUP6 PUSH1 0x20 DUP7 MUL DUP3 ADD GT ISZERO PUSH2 0x1A71 JUMPI PUSH2 0x1A70 PUSH2 0x1F63 JUMP JUMPDEST JUMPDEST PUSH1 0x0 JUMPDEST DUP6 DUP2 LT ISZERO PUSH2 0x1AA1 JUMPI DUP2 PUSH2 0x1A87 DUP9 DUP3 PUSH2 0x1C06 JUMP JUMPDEST DUP5 MSTORE PUSH1 0x20 DUP5 ADD SWAP4 POP PUSH1 0x20 DUP4 ADD SWAP3 POP POP PUSH1 0x1 DUP2 ADD SWAP1 POP PUSH2 0x1A74 JUMP JUMPDEST POP POP POP SWAP4 SWAP3 POP POP POP JUMP JUMPDEST PUSH1 0x0 DUP3 PUSH1 0x1F DUP4 ADD SLT PUSH2 0x1AC0 JUMPI PUSH2 0x1ABF PUSH2 0x1F59 JUMP JUMPDEST JUMPDEST PUSH1 0x18 PUSH2 0x1ACD DUP5 DUP3 DUP6 PUSH2 0x19DD JUMP JUMPDEST SWAP2 POP POP SWAP3 SWAP2 POP POP JUMP JUMPDEST PUSH1 0x0 DUP3 PUSH1 0x1F DUP4 ADD SLT PUSH2 0x1AEB JUMPI PUSH2 0x1AEA PUSH2 0x1F59 JUMP JUMPDEST JUMPDEST PUSH1 0x2 PUSH2 0x1AF8 DUP5 DUP3 DUP6 PUSH2 0x1A44 JUMP JUMPDEST SWAP2 POP POP SWAP3 SWAP2 POP POP JUMP JUMPDEST PUSH1 0x0 PUSH1 0x40 DUP3 DUP5 SUB SLT ISZERO PUSH2 0x1B17 JUMPI PUSH2 0x1B16 PUSH2 0x1F5E JUMP JUMPDEST JUMPDEST PUSH2 0x1B21 PUSH1 0x40 PUSH2 0x1C87 JUMP JUMPDEST SWAP1 POP PUSH1 0x0 PUSH2 0x1B31 DUP5 DUP3 DUP6 ADD PUSH2 0x1C06 JUMP JUMPDEST PUSH1 0x0 DUP4 ADD MSTORE POP PUSH1 0x20 PUSH2 0x1B45 DUP5 DUP3 DUP6 ADD PUSH2 0x1C06 JUMP JUMPDEST PUSH1 0x20 DUP4 ADD MSTORE POP SWAP3 SWAP2 POP POP JUMP JUMPDEST PUSH1 0x0 PUSH1 0x80 DUP3 DUP5 SUB SLT ISZERO PUSH2 0x1B67 JUMPI PUSH2 0x1B66 PUSH2 0x1F5E JUMP JUMPDEST JUMPDEST PUSH2 0x1B71 PUSH1 0x40 PUSH2 0x1C87 JUMP JUMPDEST SWAP1 POP PUSH1 0x0 PUSH2 0x1B81 DUP5 DUP3 DUP6 ADD PUSH2 0x1AD6 JUMP JUMPDEST PUSH1 0x0 DUP4 ADD MSTORE POP PUSH1 0x40 PUSH2 0x1B95 DUP5 DUP3 DUP6 ADD PUSH2 0x1AD6 JUMP JUMPDEST PUSH1 0x20 DUP4 ADD MSTORE POP SWAP3 SWAP2 POP POP JUMP JUMPDEST PUSH1 0x0 PUSH2 0x100 DUP3 DUP5 SUB SLT ISZERO PUSH2 0x1BB8 JUMPI PUSH2 0x1BB7 PUSH2 0x1F5E JUMP JUMPDEST JUMPDEST PUSH2 0x1BC2 PUSH1 0x60 PUSH2 0x1C87 JUMP JUMPDEST SWAP1 POP PUSH1 0x0 PUSH2 0x1BD2 DUP5 DUP3 DUP6 ADD PUSH2 0x1B01 JUMP JUMPDEST PUSH1 0x0 DUP4 ADD MSTORE POP PUSH1 0x40 PUSH2 0x1BE6 DUP5 DUP3 DUP6 ADD PUSH2 0x1B51 JUMP JUMPDEST PUSH1 0x20 DUP4 ADD MSTORE POP PUSH1 0xC0 PUSH2 0x1BFA DUP5 DUP3 DUP6 ADD PUSH2 0x1B01 JUMP JUMPDEST PUSH1 0x40 DUP4 ADD MSTORE POP SWAP3 SWAP2 POP POP JUMP JUMPDEST PUSH1 0x0 DUP2 CALLDATALOAD SWAP1 POP PUSH2 0x1C15 DUP2 PUSH2 0x1F7E JUMP JUMPDEST SWAP3 SWAP2 POP POP JUMP JUMPDEST PUSH1 0x0 DUP1 PUSH2 0x400 DUP4 DUP6 SUB SLT ISZERO PUSH2 0x1C33 JUMPI PUSH2 0x1C32 PUSH2 0x1F68 JUMP JUMPDEST JUMPDEST PUSH1 0x0 PUSH2 0x1C41 DUP6 DUP3 DUP7 ADD PUSH2 0x1BA1 JUMP JUMPDEST SWAP3 POP POP PUSH2 0x100 PUSH2 0x1C53 DUP6 DUP3 DUP7 ADD PUSH2 0x1AAB JUMP JUMPDEST SWAP2 POP POP SWAP3 POP SWAP3 SWAP1 POP JUMP JUMPDEST PUSH2 0x1C66 DUP2 PUSH2 0x1DDC JUMP JUMPDEST DUP3 MSTORE POP POP JUMP JUMPDEST PUSH1 0x0 PUSH1 0x20 DUP3 ADD SWAP1 POP PUSH2 0x1C81 PUSH1 0x0 DUP4 ADD DUP5 PUSH2 0x1C5D JUMP JUMPDEST SWAP3 SWAP2 POP POP JUMP JUMPDEST PUSH1 0x0 PUSH2 0x1C91 PUSH2 0x1CA2 JUMP JUMPDEST SWAP1 POP PUSH2 0x1C9D DUP3 DUP3 PUSH2 0x1DF2 JUMP JUMPDEST SWAP2 SWAP1 POP JUMP JUMPDEST PUSH1 0x0 PUSH1 0x40 MLOAD SWAP1 POP SWAP1 JUMP JUMPDEST PUSH1 0x0 PUSH8 0xFFFFFFFFFFFFFFFF DUP3 GT ISZERO PUSH2 0x1CC7 JUMPI PUSH2 0x1CC6 PUSH2 0x1F2A JUMP JUMPDEST JUMPDEST PUSH1 0x20 DUP3 MUL SWAP1 POP SWAP2 SWAP1 POP JUMP JUMPDEST PUSH1 0x0 PUSH8 0xFFFFFFFFFFFFFFFF DUP3 GT ISZERO PUSH2 0x1CED JUMPI PUSH2 0x1CEC PUSH2 0x1F2A JUMP JUMPDEST JUMPDEST PUSH1 0x20 DUP3 MUL SWAP1 POP SWAP2 SWAP1 POP JUMP JUMPDEST PUSH1 0x0 PUSH2 0x1D03 DUP3 PUSH2 0x1DE8 JUMP JUMPDEST SWAP2 POP PUSH2 0x1D0E DUP4 PUSH2 0x1DE8 JUMP JUMPDEST SWAP3 POP DUP3 PUSH32 0xFFFFFFFFFFFFFFFFFFFFFFFFFFFFFFFFFFFFFFFFFFFFFFFFFFFFFFFFFFFFFFFF SUB DUP3 GT ISZERO PUSH2 0x1D43 JUMPI PUSH2 0x1D42 PUSH2 0x1E9D JUMP JUMPDEST JUMPDEST DUP3 DUP3 ADD SWAP1 POP SWAP3 SWAP2 POP POP JUMP JUMPDEST PUSH1 0x0 PUSH2 0x1D59 DUP3 PUSH2 0x1DE8 JUMP JUMPDEST SWAP2 POP PUSH2 0x1D64 DUP4 PUSH2 0x1DE8 JUMP JUMPDEST SWAP3 POP DUP2 PUSH32 0xFFFFFFFFFFFFFFFFFFFFFFFFFFFFFFFFFFFFFFFFFFFFFFFFFFFFFFFFFFFFFFFF DIV DUP4 GT DUP3 ISZERO ISZERO AND ISZERO PUSH2 0x1D9D JUMPI PUSH2 0x1D9C PUSH2 0x1E9D JUMP JUMPDEST JUMPDEST DUP3 DUP3 MUL SWAP1 POP SWAP3 SWAP2 POP POP JUMP JUMPDEST PUSH1 0x0 PUSH2 0x1DB3 DUP3 PUSH2 0x1DE8 JUMP JUMPDEST SWAP2 POP PUSH2 0x1DBE DUP4 PUSH2 0x1DE8 JUMP JUMPDEST SWAP3 POP DUP3 DUP3 LT ISZERO PUSH2 0x1DD1 JUMPI PUSH2 0x1DD0 PUSH2 0x1E9D JUMP JUMPDEST JUMPDEST DUP3 DUP3 SUB SWAP1 POP SWAP3 SWAP2 POP POP JUMP JUMPDEST PUSH1 0x0 DUP2 ISZERO ISZERO SWAP1 POP SWAP2 SWAP1 POP JUMP JUMPDEST PUSH1 0x0 DUP2 SWAP1 POP SWAP2 SWAP1 POP JUMP JUMPDEST PUSH2 0x1DFB DUP3 PUSH2 0x1F6D JUMP JUMPDEST DUP2 ADD DUP2 DUP2 LT PUSH8 0xFFFFFFFFFFFFFFFF DUP3 GT OR ISZERO PUSH2 0x1E1A JUMPI PUSH2 0x1E19 PUSH2 0x1F2A JUMP JUMPDEST JUMPDEST DUP1 PUSH1 0x40 MSTORE POP POP POP JUMP JUMPDEST PUSH1 0x0 PUSH2 0x1E2E DUP3 PUSH2 0x1DE8 JUMP JUMPDEST SWAP2 POP PUSH32 0xFFFFFFFFFFFFFFFFFFFFFFFFFFFFFFFFFFFFFFFFFFFFFFFFFFFFFFFFFFFFFFFF DUP3 EQ ISZERO PUSH2 0x1E61 JUMPI PUSH2 0x1E60 PUSH2 0x1E9D JUMP JUMPDEST JUMPDEST PUSH1 0x1 DUP3 ADD SWAP1 POP SWAP2 SWAP1 POP JUMP JUMPDEST PUSH1 0x0 PUSH2 0x1E77 DUP3 PUSH2 0x1DE8 JUMP JUMPDEST SWAP2 POP PUSH2 0x1E82 DUP4 PUSH2 0x1DE8 JUMP JUMPDEST SWAP3 POP DUP3 PUSH2 0x1E92 JUMPI PUSH2 0x1E91 PUSH2 0x1ECC JUMP JUMPDEST JUMPDEST DUP3 DUP3 MOD SWAP1 POP SWAP3 SWAP2 POP POP JUMP JUMPDEST PUSH32 0x4E487B7100000000000000000000000000000000000000000000000000000000 PUSH1 0x0 MSTORE PUSH1 0x11 PUSH1 0x4 MSTORE PUSH1 0x24 PUSH1 0x0 REVERT JUMPDEST PUSH32 0x4E487B7100000000000000000000000000000000000000000000000000000000 PUSH1 0x0 MSTORE PUSH1 0x12 PUSH1 0x4 MSTORE PUSH1 0x24 PUSH1 0x0 REVERT JUMPDEST PUSH32 0x4E487B7100000000000000000000000000000000000000000000000000000000 PUSH1 0x0 MSTORE PUSH1 0x32 PUSH1 0x4 MSTORE PUSH1 0x24 PUSH1 0x0 REVERT JUMPDEST PUSH32 0x4E487B7100000000000000000000000000000000000000000000000000000000 PUSH1 0x0 MSTORE PUSH1 0x41 PUSH1 0x4 MSTORE PUSH1 0x24 PUSH1 0x0 REVERT JUMPDEST PUSH1 0x0 DUP1 REVERT JUMPDEST PUSH1 0x0 DUP1 REVERT JUMPDEST PUSH1 0x0 DUP1 REVERT JUMPDEST PUSH1 0x0 DUP1 REVERT JUMPDEST PUSH1 0x0 PUSH1 0x1F NOT PUSH1 0x1F DUP4 ADD AND SWAP1 POP SWAP2 SWAP1 POP JUMP JUMPDEST PUSH2 0x1F87 DUP2 PUSH2 0x1DE8 JUMP JUMPDEST DUP2 EQ PUSH2 0x1F92 JUMPI PUSH1 0x0 DUP1 REVERT JUMPDEST POP JUMP INVALID LOG2 PUSH5 0x6970667358 0x22 SLT KECCAK256 0xDC PUSH26 0x421EB697E0EE85B85F4B443D0DB209D308724F05E4921B5EE872 0xBB 0xB2 0xB4 CALLER PUSH5 0x736F6C6343 STOP ADDMOD MOD STOP CALLER PUSH1 0x80 PUSH1 0x40 MSTORE CALLVALUE DUP1 ISZERO PUSH2 0x10 JUMPI PUSH1 0x0 DUP1 REVERT JUMPDEST POP PUSH2 0x2406 DUP1 PUSH2 0x20 PUSH1 0x0 CODECOPY PUSH1 0x0 RETURN INVALID PUSH1 0x80 PUSH1 0x40 MSTORE CALLVALUE DUP1 ISZERO PUSH2 0x10 JUMPI PUSH1 0x0 DUP1 REVERT JUMPDEST POP PUSH1 0x4 CALLDATASIZE LT PUSH2 0x2B JUMPI PUSH1 0x0 CALLDATALOAD PUSH1 0xE0 SHR DUP1 PUSH4 0x785B3BBB EQ PUSH2 0x30 JUMPI JUMPDEST PUSH1 0x0 DUP1 REVERT JUMPDEST PUSH2 0x4A PUSH1 0x4 DUP1 CALLDATASIZE SUB DUP2 ADD SWAP1 PUSH2 0x45 SWAP2 SWAP1 PUSH2 0x2056 JUMP JUMPDEST PUSH2 0x60 JUMP JUMPDEST PUSH1 0x40 MLOAD PUSH2 0x57 SWAP2 SWAP1 PUSH2 0x20A7 JUMP JUMPDEST PUSH1 0x40 MLOAD DUP1 SWAP2 SUB SWAP1 RETURN JUMPDEST PUSH1 0x0 DUP1 PUSH1 0x21 PUSH8 0xFFFFFFFFFFFFFFFF DUP2 GT ISZERO PUSH2 0x7E JUMPI PUSH2 0x7D PUSH2 0x2365 JUMP JUMPDEST JUMPDEST PUSH1 0x40 MLOAD SWAP1 DUP1 DUP3 MSTORE DUP1 PUSH1 0x20 MUL PUSH1 0x20 ADD DUP3 ADD PUSH1 0x40 MSTORE DUP1 ISZERO PUSH2 0xAC JUMPI DUP2 PUSH1 0x20 ADD PUSH1 0x20 DUP3 MUL DUP1 CALLDATASIZE DUP4 CALLDATACOPY DUP1 DUP3 ADD SWAP2 POP POP SWAP1 POP JUMPDEST POP SWAP1 POP PUSH1 0x0 JUMPDEST PUSH1 0x21 DUP2 LT ISZERO PUSH2 0x105 JUMPI DUP4 DUP2 PUSH1 0x21 DUP2 LT PUSH2 0xCE JUMPI PUSH2 0xCD PUSH2 0x2336 JUMP JUMPDEST JUMPDEST PUSH1 0x20 MUL ADD MLOAD DUP3 DUP3 DUP2 MLOAD DUP2 LT PUSH2 0xE6 JUMPI PUSH2 0xE5 PUSH2 0x2336 JUMP JUMPDEST JUMPDEST PUSH1 0x20 MUL PUSH1 0x20 ADD ADD DUP2 DUP2 MSTORE POP POP DUP1 DUP1 PUSH2 0xFD SWAP1 PUSH2 0x225E JUMP JUMPDEST SWAP2 POP POP PUSH2 0xB2 JUMP JUMPDEST POP PUSH1 0x0 PUSH2 0x112 DUP3 DUP7 PUSH2 0x12E JUMP JUMPDEST EQ ISZERO PUSH2 0x122 JUMPI PUSH1 0x1 SWAP2 POP POP PUSH2 0x128 JUMP JUMPDEST PUSH1 0x0 SWAP2 POP POP JUMPDEST SWAP3 SWAP2 POP POP JUMP JUMPDEST PUSH1 0x0 DUP1 PUSH32 0x30644E72E131A029B85045B68181585D2833E84879B9709143E1F593F0000001 SWAP1 POP PUSH1 0x0 PUSH2 0x15E PUSH2 0x2C5 JUMP JUMPDEST SWAP1 POP DUP1 PUSH1 0x80 ADD MLOAD MLOAD PUSH1 0x1 DUP7 MLOAD PUSH2 0x174 SWAP2 SWAP1 PUSH2 0x2133 JUMP JUMPDEST EQ PUSH2 0x17E JUMPI PUSH1 0x0 DUP1 REVERT JUMPDEST PUSH1 0x0 PUSH1 0x40 MLOAD DUP1 PUSH1 0x40 ADD PUSH1 0x40 MSTORE DUP1 PUSH1 0x0 DUP2 MSTORE PUSH1 0x20 ADD PUSH1 0x0 DUP2 MSTORE POP SWAP1 POP PUSH1 0x0 JUMPDEST DUP7 MLOAD DUP2 LT ISZERO PUSH2 0x237 JUMPI DUP4 DUP8 DUP3 DUP2 MLOAD DUP2 LT PUSH2 0x1B9 JUMPI PUSH2 0x1B8 PUSH2 0x2336 JUMP JUMPDEST JUMPDEST PUSH1 0x20 MUL PUSH1 0x20 ADD ADD MLOAD LT PUSH2 0x1CB JUMPI PUSH1 0x0 DUP1 REVERT JUMPDEST PUSH2 0x222 DUP3 PUSH2 0x21D DUP6 PUSH1 0x80 ADD MLOAD PUSH1 0x1 DUP6 PUSH2 0x1E4 SWAP2 SWAP1 PUSH2 0x2133 JUMP JUMPDEST DUP2 MLOAD DUP2 LT PUSH2 0x1F5 JUMPI PUSH2 0x1F4 PUSH2 0x2336 JUMP JUMPDEST JUMPDEST PUSH1 0x20 MUL PUSH1 0x20 ADD ADD MLOAD DUP11 DUP6 DUP2 MLOAD DUP2 LT PUSH2 0x210 JUMPI PUSH2 0x20F PUSH2 0x2336 JUMP JUMPDEST JUMPDEST PUSH1 0x20 MUL PUSH1 0x20 ADD ADD MLOAD PUSH2 0x15C8 JUMP JUMPDEST PUSH2 0x166F JUMP JUMPDEST SWAP2 POP DUP1 DUP1 PUSH2 0x22F SWAP1 PUSH2 0x225E JUMP JUMPDEST SWAP2 POP POP PUSH2 0x19C JUMP JUMPDEST POP PUSH2 0x261 DUP2 DUP4 PUSH1 0x80 ADD MLOAD PUSH1 0x0 DUP2 MLOAD DUP2 LT PUSH2 0x254 JUMPI PUSH2 0x253 PUSH2 0x2336 JUMP JUMPDEST JUMPDEST PUSH1 0x20 MUL PUSH1 0x20 ADD ADD MLOAD PUSH2 0x166F JUMP JUMPDEST SWAP1 POP PUSH2 0x2A7 DUP6 PUSH1 0x0 ADD MLOAD DUP7 PUSH1 0x20 ADD MLOAD PUSH2 0x279 DUP5 PUSH2 0x173C JUMP JUMPDEST DUP6 PUSH1 0x40 ADD MLOAD PUSH2 0x28B DUP11 PUSH1 0x40 ADD MLOAD PUSH2 0x173C JUMP JUMPDEST DUP8 PUSH1 0x60 ADD MLOAD PUSH2 0x29D DUP10 PUSH1 0x0 ADD MLOAD PUSH2 0x173C JUMP JUMPDEST DUP10 PUSH1 0x20 ADD MLOAD PUSH2 0x17E1 JUMP JUMPDEST PUSH2 0x2B7 JUMPI PUSH1 0x1 SWAP4 POP POP POP POP PUSH2 0x2BF JUMP JUMPDEST PUSH1 0x0 SWAP4 POP POP POP POP JUMPDEST SWAP3 SWAP2 POP POP JUMP JUMPDEST PUSH2 0x2CD PUSH2 0x1D09 JUMP JUMPDEST PUSH1 0x40 MLOAD DUP1 PUSH1 0x40 ADD PUSH1 0x40 MSTORE DUP1 PUSH32 0x2A63D23B73C06CB185F8D617ED33AD8DAF0DB004855DF5CC82B3692252AD2C67 DUP2 MSTORE PUSH1 0x20 ADD PUSH31 0x73781C2B2844F8085A11F5F39ADEBDC629EC9ABD6F211E3C8951231AE49260 DUP2 MSTORE POP DUP2 PUSH1 0x0 ADD DUP2 SWAP1 MSTORE POP PUSH1 0x40 MLOAD DUP1 PUSH1 0x40 ADD PUSH1 0x40 MSTORE DUP1 PUSH1 0x40 MLOAD DUP1 PUSH1 0x40 ADD PUSH1 0x40 MSTORE DUP1 PUSH32 0x1DD2ECA2478EB684B7F42B5B8CC53EB24B98F40B42A20FA10F0E41045028230E DUP2 MSTORE PUSH1 0x20 ADD PUSH32 0x1915BE54B6575EB81115C81E7B3CF5DAA922865167AD1A6BA7D2637BD3E40783 DUP2 MSTORE POP DUP2 MSTORE PUSH1 0x20 ADD PUSH1 0x40 MLOAD DUP1 PUSH1 0x40 ADD PUSH1 0x40 MSTORE DUP1 PUSH32 0x2135B30DD846E6408FD4ECE3EE713FA287EBA621DC3BCF421B85C996EDC106D6 DUP2 MSTORE PUSH1 0x20 ADD PUSH32 0xBA4E5B6B1A87CD644AEE2C9E9D3D2E1C4FB8DD0D45D5AB60732A4BEBD4E3690 DUP2 MSTORE POP DUP2 MSTORE POP DUP2 PUSH1 0x20 ADD DUP2 SWAP1 MSTORE POP PUSH1 0x40 MLOAD DUP1 PUSH1 0x40 ADD PUSH1 0x40 MSTORE DUP1 PUSH1 0x40 MLOAD DUP1 PUSH1 0x40 ADD PUSH1 0x40 MSTORE DUP1 PUSH32 0x27B28F604FF94891EA99A5DEECDBD53EFF7D2601AE7DFA4C95BF5A3565E0BB99 DUP2 MSTORE PUSH1 0x20 ADD PUSH32 0x2B11B8BA434B191238C07CDA3E96EB732AA5CCB9258BFD08497F75AC41489041 DUP2 MSTORE POP DUP2 MSTORE PUSH1 0x20 ADD PUSH1 0x40 MLOAD DUP1 PUSH1 0x40 ADD PUSH1 0x40 MSTORE DUP1 PUSH32 0x2AFE96E9DEF68CC5E167F2AAFF8943AED7A1BB4B393AC094792A9215DF50B2D DUP2 MSTORE PUSH1 0x20 ADD PUSH32 0xA64E5E37ED6F982833722EC4EA8F2DA6BFCC0A2BA9D51C566D8B0AD5221727F DUP2 MSTORE POP DUP2 MSTORE POP DUP2 PUSH1 0x40 ADD DUP2 SWAP1 MSTORE POP PUSH1 0x40 MLOAD DUP1 PUSH1 0x40 ADD PUSH1 0x40 MSTORE DUP1 PUSH1 0x40 MLOAD DUP1 PUSH1 0x40 ADD PUSH1 0x40 MSTORE DUP1 PUSH32 0x1D67CC90EB20D8EBE3E6C0B9EDC307A1176B1F89DC846B84E067CAC2E6AE375D DUP2 MSTORE PUSH1 0x20 ADD PUSH32 0x29B194F7451933B938157F0C3A495E57BA10A0042E6452CA8B09441441543689 DUP2 MSTORE POP DUP2 MSTORE PUSH1 0x20 ADD PUSH1 0x40 MLOAD DUP1 PUSH1 0x40 ADD PUSH1 0x40 MSTORE DUP1 PUSH32 0xDAD938F2366792F6A4A17310B992076C0BF350C1A5C961721EB58E683FF5807 DUP2 MSTORE PUSH1 0x20 ADD PUSH32 0x1B00F1FFBFF7A21A69FF52007686FC23F5FED44F6EF857F5FAB2146F6D1B56B7 DUP2 MSTORE POP DUP2 MSTORE POP DUP2 PUSH1 0x60 ADD DUP2 SWAP1 MSTORE POP PUSH1 0x22 PUSH8 0xFFFFFFFFFFFFFFFF DUP2 GT ISZERO PUSH2 0x593 JUMPI PUSH2 0x592 PUSH2 0x2365 JUMP JUMPDEST JUMPDEST PUSH1 0x40 MLOAD SWAP1 DUP1 DUP3 MSTORE DUP1 PUSH1 0x20 MUL PUSH1 0x20 ADD DUP3 ADD PUSH1 0x40 MSTORE DUP1 ISZERO PUSH2 0x5CC JUMPI DUP2 PUSH1 0x20 ADD JUMPDEST PUSH2 0x5B9 PUSH2 0x1D50 JUMP JUMPDEST DUP2 MSTORE PUSH1 0x20 ADD SWAP1 PUSH1 0x1 SWAP1 SUB SWAP1 DUP2 PUSH2 0x5B1 JUMPI SWAP1 POP JUMPDEST POP DUP2 PUSH1 0x80 ADD DUP2 SWAP1 MSTORE POP PUSH1 0x40 MLOAD DUP1 PUSH1 0x40 ADD PUSH1 0x40 MSTORE DUP1 PUSH32 0x1050789E17DA5095992CE0FA14C3D9606E3250302F435C870F27E80FC4016FE8 DUP2 MSTORE PUSH1 0x20 ADD PUSH32 0x2900A5C597ACD2EFCD676A8092BEB851F28D9042EEC9D34B467DB0C43A83FA1B DUP2 MSTORE POP DUP2 PUSH1 0x80 ADD MLOAD PUSH1 0x0 DUP2 MLOAD DUP2 LT PUSH2 0x642 JUMPI PUSH2 0x641 PUSH2 0x2336 JUMP JUMPDEST JUMPDEST PUSH1 0x20 MUL PUSH1 0x20 ADD ADD DUP2 SWAP1 MSTORE POP PUSH1 0x40 MLOAD DUP1 PUSH1 0x40 ADD PUSH1 0x40 MSTORE DUP1 PUSH32 0x23B85222953AFCA2E33FEFF9D8B608C82C47259761229254F8666A46C9E36CCD DUP2 MSTORE PUSH1 0x20 ADD PUSH32 0x2915DA4EABC247CE5DD5F2746E0D9F120343CA573C90A2A9B4F47CBE29DB80D1 DUP2 MSTORE POP DUP2 PUSH1 0x80 ADD MLOAD PUSH1 0x1 DUP2 MLOAD DUP2 LT PUSH2 0x6BA JUMPI PUSH2 0x6B9 PUSH2 0x2336 JUMP JUMPDEST JUMPDEST PUSH1 0x20 MUL PUSH1 0x20 ADD ADD DUP2 SWAP1 MSTORE POP PUSH1 0x40 MLOAD DUP1 PUSH1 0x40 ADD PUSH1 0x40 MSTORE DUP1 PUSH32 0x87325D135F7165B54C79EC0200D14BECB1F8641A473C9F8E3ECDF0793990241 DUP2 MSTORE PUSH1 0x20 ADD PUSH32 0x16EB1FF598F6C3A0576C99479046EC3D1EFB9B248C7B78878E5543CA1433609B DUP2 MSTORE POP DUP2 PUSH1 0x80 ADD MLOAD PUSH1 0x2 DUP2 MLOAD DUP2 LT PUSH2 0x732 JUMPI PUSH2 0x731 PUSH2 0x2336 JUMP JUMPDEST JUMPDEST PUSH1 0x20 MUL PUSH1 0x20 ADD ADD DUP2 SWAP1 MSTORE POP PUSH1 0x40 MLOAD DUP1 PUSH1 0x40 ADD PUSH1 0x40 MSTORE DUP1 PUSH32 0x5CFFB5652773375C6C5B324E2A18AFCE7079813BD53D75108A39962D6F67ECC DUP2 MSTORE PUSH1 0x20 ADD PUSH32 0x9D545D82F962DB8F2752EE96832974A1B533A6F8F494C41F61782D80BECEFDC DUP2 MSTORE POP DUP2 PUSH1 0x80 ADD MLOAD PUSH1 0x3 DUP2 MLOAD DUP2 LT PUSH2 0x7AA JUMPI PUSH2 0x7A9 PUSH2 0x2336 JUMP JUMPDEST JUMPDEST PUSH1 0x20 MUL PUSH1 0x20 ADD ADD DUP2 SWAP1 MSTORE POP PUSH1 0x40 MLOAD DUP1 PUSH1 0x40 ADD PUSH1 0x40 MSTORE DUP1 PUSH32 0x2922A00CC8962A4E57B58CFE4E8BD1F1FEFA8EB2B554D86E11847DA205DD2F33 DUP2 MSTORE PUSH1 0x20 ADD PUSH32 0x18BCE3ED9EF21C85C49BAE7ED20E5522A1312275C262B68DD854B84CF8A3F508 DUP2 MSTORE POP DUP2 PUSH1 0x80 ADD MLOAD PUSH1 0x4 DUP2 MLOAD DUP2 LT PUSH2 0x822 JUMPI PUSH2 0x821 PUSH2 0x2336 JUMP JUMPDEST JUMPDEST PUSH1 0x20 MUL PUSH1 0x20 ADD ADD DUP2 SWAP1 MSTORE POP PUSH1 0x40 MLOAD DUP1 PUSH1 0x40 ADD PUSH1 0x40 MSTORE DUP1 PUSH32 0x264C152C47A0A94C583CC57BFE59F164EDE5673D51B3EB8CF226BDD336EE354E DUP2 MSTORE PUSH1 0x20 ADD PUSH32 0xE3511BA0B9AA6565C7FADED32E2F2DBEE74844C886C8A3BEA8E8E87C2626835 DUP2 MSTORE POP DUP2 PUSH1 0x80 ADD MLOAD PUSH1 0x5 DUP2 MLOAD DUP2 LT PUSH2 0x89A JUMPI PUSH2 0x899 PUSH2 0x2336 JUMP JUMPDEST JUMPDEST PUSH1 0x20 MUL PUSH1 0x20 ADD ADD DUP2 SWAP1 MSTORE POP PUSH1 0x40 MLOAD DUP1 PUSH1 0x40 ADD PUSH1 0x40 MSTORE DUP1 PUSH32 0x153ECEFD7044DE6637E8485C6580109D54690E26303DBCE2CF47EEA1E9B531A0 DUP2 MSTORE PUSH1 0x20 ADD PUSH32 0x88A78674503F8D575FB5E83A85EA3EED0FA278B210D001116FEEA2CAAC274F1 DUP2 MSTORE POP DUP2 PUSH1 0x80 ADD MLOAD PUSH1 0x6 DUP2 MLOAD DUP2 LT PUSH2 0x912 JUMPI PUSH2 0x911 PUSH2 0x2336 JUMP JUMPDEST JUMPDEST PUSH1 0x20 MUL PUSH1 0x20 ADD ADD DUP2 SWAP1 MSTORE POP PUSH1 0x40 MLOAD DUP1 PUSH1 0x40 ADD PUSH1 0x40 MSTORE DUP1 PUSH32 0xF5D3F192F4AF7A753EA3F799B560A5828ED21D10EA3B446186F11EC984C6D4C DUP2 MSTORE PUSH1 0x20 ADD PUSH32 0x2F053344241A55E0155098F93F518D3456CD6E8920CD04FD1002B3BB80DCED9C DUP2 MSTORE POP DUP2 PUSH1 0x80 ADD MLOAD PUSH1 0x7 DUP2 MLOAD DUP2 LT PUSH2 0x98A JUMPI PUSH2 0x989 PUSH2 0x2336 JUMP JUMPDEST JUMPDEST PUSH1 0x20 MUL PUSH1 0x20 ADD ADD DUP2 SWAP1 MSTORE POP PUSH1 0x40 MLOAD DUP1 PUSH1 0x40 ADD PUSH1 0x40 MSTORE DUP1 PUSH32 0x248B8ED7AB6976340153A956808103CD5B97CF5CF3B445A38C9E13DE773F0133 DUP2 MSTORE PUSH1 0x20 ADD PUSH32 0x5F73A367AC56770A0CA8ED9268E8B11ACAA2E39C3DB6333C597BB21E9AC7D4C DUP2 MSTORE POP DUP2 PUSH1 0x80 ADD MLOAD PUSH1 0x8 DUP2 MLOAD DUP2 LT PUSH2 0xA02 JUMPI PUSH2 0xA01 PUSH2 0x2336 JUMP JUMPDEST JUMPDEST PUSH1 0x20 MUL PUSH1 0x20 ADD ADD DUP2 SWAP1 MSTORE POP PUSH1 0x40 MLOAD DUP1 PUSH1 0x40 ADD PUSH1 0x40 MSTORE DUP1 PUSH32 0x100EDEA5A4595EB09B8CD5F4206354ACC297BB203900ED4FE0A32046A73A508C DUP2 MSTORE PUSH1 0x20 ADD PUSH32 0x24C29AE50BD0C941DFBA7FE9BCF2D97E593EC84195852F3BEB689FD9873FD62 DUP2 MSTORE POP DUP2 PUSH1 0x80 ADD MLOAD PUSH1 0x9 DUP2 MLOAD DUP2 LT PUSH2 0xA7A JUMPI PUSH2 0xA79 PUSH2 0x2336 JUMP JUMPDEST JUMPDEST PUSH1 0x20 MUL PUSH1 0x20 ADD ADD DUP2 SWAP1 MSTORE POP PUSH1 0x40 MLOAD DUP1 PUSH1 0x40 ADD PUSH1 0x40 MSTORE DUP1 PUSH32 0xC142A6EE4666975ADF5EA2C787927FC281084FF88698AB17E2A74D34F73D5DF DUP2 MSTORE PUSH1 0x20 ADD PUSH32 0x2283C79C85CAC4359E7689A3094FB367F7A9B2CE1FFA1D9047AF1159B220A5FB DUP2 MSTORE POP DUP2 PUSH1 0x80 ADD MLOAD PUSH1 0xA DUP2 MLOAD DUP2 LT PUSH2 0xAF2 JUMPI PUSH2 0xAF1 PUSH2 0x2336 JUMP JUMPDEST JUMPDEST PUSH1 0x20 MUL PUSH1 0x20 ADD ADD DUP2 SWAP1 MSTORE POP PUSH1 0x40 MLOAD DUP1 PUSH1 0x40 ADD PUSH1 0x40 MSTORE DUP1 PUSH32 0x5B8C3057AF41A9331497BBC05A03925BF9D653127C53E50E9662FDA45A73AA4 DUP2 MSTORE PUSH1 0x20 ADD PUSH32 0x490DFCC2E3C792C2CEDFED3245B203A349DC3311780547E87B476250B589A8E DUP2 MSTORE POP DUP2 PUSH1 0x80 ADD MLOAD PUSH1 0xB DUP2 MLOAD DUP2 LT PUSH2 0xB6A JUMPI PUSH2 0xB69 PUSH2 0x2336 JUMP JUMPDEST JUMPDEST PUSH1 0x20 MUL PUSH1 0x20 ADD ADD DUP2 SWAP1 MSTORE POP PUSH1 0x40 MLOAD DUP1 PUSH1 0x40 ADD PUSH1 0x40 MSTORE DUP1 PUSH32 0x2EDE49217193CF92B82ED61B8ABFB6AD1485481C2A21019AECE206603D474278 DUP2 MSTORE PUSH1 0x20 ADD PUSH32 0x28336D9709E72ACD818153FC1225EC204D2B7A756B1A73760532727F36E25C50 DUP2 MSTORE POP DUP2 PUSH1 0x80 ADD MLOAD PUSH1 0xC DUP2 MLOAD DUP2 LT PUSH2 0xBE2 JUMPI PUSH2 0xBE1 PUSH2 0x2336 JUMP JUMPDEST JUMPDEST PUSH1 0x20 MUL PUSH1 0x20 ADD ADD DUP2 SWAP1 MSTORE POP PUSH1 0x40 MLOAD DUP1 PUSH1 0x40 ADD PUSH1 0x40 MSTORE DUP1 PUSH32 0x2DEE14024F2C8D9A6CD34D82D74418D582434A75069430745FDAF238139CB49 DUP2 MSTORE PUSH1 0x20 ADD PUSH32 0xEB3512F56AE89D88FB72E4C7C3492C43F75DBFA56C1F037B8ABC546E735C3BC DUP2 MSTORE POP DUP2 PUSH1 0x80 ADD MLOAD PUSH1 0xD DUP2 MLOAD DUP2 LT PUSH2 0xC5A JUMPI PUSH2 0xC59 PUSH2 0x2336 JUMP JUMPDEST JUMPDEST PUSH1 0x20 MUL PUSH1 0x20 ADD ADD DUP2 SWAP1 MSTORE POP PUSH1 0x40 MLOAD DUP1 PUSH1 0x40 ADD PUSH1 0x40 MSTORE DUP1 PUSH32 0x6165AA373AB626F5926F07E09587F4A2632EA7B5CF1EDAFD8A07E91D40FE2B3 DUP2 MSTORE PUSH1 0x20 ADD PUSH32 0x2A9BAAC92791E6E4A676DDA2AB0990F6A7234E67C0FA11A0CD0C4E76BE724A15 DUP2 MSTORE POP DUP2 PUSH1 0x80 ADD MLOAD PUSH1 0xE DUP2 MLOAD DUP2 LT PUSH2 0xCD2 JUMPI PUSH2 0xCD1 PUSH2 0x2336 JUMP JUMPDEST JUMPDEST PUSH1 0x20 MUL PUSH1 0x20 ADD ADD DUP2 SWAP1 MSTORE POP PUSH1 0x40 MLOAD DUP1 PUSH1 0x40 ADD PUSH1 0x40 MSTORE DUP1 PUSH32 0x97C1C400D1E82AD8BB62DEABA0893F205C7BF815862BC12BDB00223EF5AB3EB DUP2 MSTORE PUSH1 0x20 ADD PUSH32 0x1F03BD81E810B991C095FCD822D54CD07AE45D01C32FC02B515331F685C3CCEB DUP2 MSTORE POP DUP2 PUSH1 0x80 ADD MLOAD PUSH1 0xF DUP2 MLOAD DUP2 LT PUSH2 0xD4A JUMPI PUSH2 0xD49 PUSH2 0x2336 JUMP JUMPDEST JUMPDEST PUSH1 0x20 MUL PUSH1 0x20 ADD ADD DUP2 SWAP1 MSTORE POP PUSH1 0x40 MLOAD DUP1 PUSH1 0x40 ADD PUSH1 0x40 MSTORE DUP1 PUSH32 0x290D04FFF212F268CC6544D8D60D452233EF7118519AC7E81879D8278A8039C5 DUP2 MSTORE PUSH1 0x20 ADD PUSH32 0x133D49B4FF993040BF66E0D7958B2CB4B6DAE64065083F7FE606FE338D881478 DUP2 MSTORE POP DUP2 PUSH1 0x80 ADD MLOAD PUSH1 0x10 DUP2 MLOAD DUP2 LT PUSH2 0xDC2 JUMPI PUSH2 0xDC1 PUSH2 0x2336 JUMP JUMPDEST JUMPDEST PUSH1 0x20 MUL PUSH1 0x20 ADD ADD DUP2 SWAP1 MSTORE POP PUSH1 0x40 MLOAD DUP1 PUSH1 0x40 ADD PUSH1 0x40 MSTORE DUP1 PUSH32 0x19D983664C236935647037C94FBDEE36F5AEB9ADCC5A4CE4FB40FBF212FB8575 DUP2 MSTORE PUSH1 0x20 ADD PUSH32 0x180D54C8A3D5EC0FA6E30A6108F14089BE48828079FE10F6872B72C8C4C7FAF8 DUP2 MSTORE POP DUP2 PUSH1 0x80 ADD MLOAD PUSH1 0x11 DUP2 MLOAD DUP2 LT PUSH2 0xE3A JUMPI PUSH2 0xE39 PUSH2 0x2336 JUMP JUMPDEST JUMPDEST PUSH1 0x20 MUL PUSH1 0x20 ADD ADD DUP2 SWAP1 MSTORE POP PUSH1 0x40 MLOAD DUP1 PUSH1 0x40 ADD PUSH1 0x40 MSTORE DUP1 PUSH32 0x1D8B2085F333C7DBC6E5D2BBD2BCE114E6E5108AAAC4059CC536E7EC5BF7EF74 DUP2 MSTORE PUSH1 0x20 ADD PUSH32 0x1356C793E2E6794FA5E9A780893177BF39A38AC53EACC5ADF526ED11944A77F3 DUP2 MSTORE POP DUP2 PUSH1 0x80 ADD MLOAD PUSH1 0x12 DUP2 MLOAD DUP2 LT PUSH2 0xEB2 JUMPI PUSH2 0xEB1 PUSH2 0x2336 JUMP JUMPDEST JUMPDEST PUSH1 0x20 MUL PUSH1 0x20 ADD ADD DUP2 SWAP1 MSTORE POP PUSH1 0x40 MLOAD DUP1 PUSH1 0x40 ADD PUSH1 0x40 MSTORE DUP1 PUSH32 0x2D403F8BF3D04339662098F3BD249B4D527AADFFA48B91017CC2E612A5F9CBDE DUP2 MSTORE PUSH1 0x20 ADD PUSH32 0x21FF7D19716F78004E0DEE01DEF1B4280DF7F1687B7FF689E27A1474E53B6E26 DUP2 MSTORE POP DUP2 PUSH1 0x80 ADD MLOAD PUSH1 0x13 DUP2 MLOAD DUP2 LT PUSH2 0xF2A JUMPI PUSH2 0xF29 PUSH2 0x2336 JUMP JUMPDEST JUMPDEST PUSH1 0x20 MUL PUSH1 0x20 ADD ADD DUP2 SWAP1 MSTORE POP PUSH1 0x40 MLOAD DUP1 PUSH1 0x40 ADD PUSH1 0x40 MSTORE DUP1 PUSH32 0x1A21A1C67FAC300309783A5E6E901A23BCA77967892099A11AB97C2AF82CD152 DUP2 MSTORE PUSH1 0x20 ADD PUSH32 0x6871456744CBC9D0CCEE1E0EAF32910B827E7D5EA752FAB4035696248FB9F7C DUP2 MSTORE POP DUP2 PUSH1 0x80 ADD MLOAD PUSH1 0x14 DUP2 MLOAD DUP2 LT PUSH2 0xFA2 JUMPI PUSH2 0xFA1 PUSH2 0x2336 JUMP JUMPDEST JUMPDEST PUSH1 0x20 MUL PUSH1 0x20 ADD ADD DUP2 SWAP1 MSTORE POP PUSH1 0x40 MLOAD DUP1 PUSH1 0x40 ADD PUSH1 0x40 MSTORE DUP1 PUSH32 0x18D6F0A06E2E51A63B1A1F6E3C1322CF6733EE7B71A97B1710902FE11009FA62 DUP2 MSTORE PUSH1 0x20 ADD PUSH32 0x67223512F6A145C9B1B3E9477A86C3B919AF782E82062304A25EBA2198E5425 DUP2 MSTORE POP DUP2 PUSH1 0x80 ADD MLOAD PUSH1 0x15 DUP2 MLOAD DUP2 LT PUSH2 0x101A JUMPI PUSH2 0x1019 PUSH2 0x2336 JUMP JUMPDEST JUMPDEST PUSH1 0x20 MUL PUSH1 0x20 ADD ADD DUP2 SWAP1 MSTORE POP PUSH1 0x40 MLOAD DUP1 PUSH1 0x40 ADD PUSH1 0x40 MSTORE DUP1 PUSH32 0x281E5A721A7B2089DED6F571BBFD626B43A7A89C13E43C31016A77C255FD9CEB DUP2 MSTORE PUSH1 0x20 ADD PUSH32 0x12AC41ADC09F8B58E070D11427443579B1130DBABE7B917BF4233CA04BE1E2CB DUP2 MSTORE POP DUP2 PUSH1 0x80 ADD MLOAD PUSH1 0x16 DUP2 MLOAD DUP2 LT PUSH2 0x1092 JUMPI PUSH2 0x1091 PUSH2 0x2336 JUMP JUMPDEST JUMPDEST PUSH1 0x20 MUL PUSH1 0x20 ADD ADD DUP2 SWAP1 MSTORE POP PUSH1 0x40 MLOAD DUP1 PUSH1 0x40 ADD PUSH1 0x40 MSTORE DUP1 PUSH32 0x9927A93362A656A1EDF6EB9AB3E2D0AAAD1739D963BC6006D29FADDF2319C30 DUP2 MSTORE PUSH1 0x20 ADD PUSH32 0x5F711159F8EC77CAE2A7024B3A0C87C60A729B6E500E7A9062A4D7F1900FFDA DUP2 MSTORE POP DUP2 PUSH1 0x80 ADD MLOAD PUSH1 0x17 DUP2 MLOAD DUP2 LT PUSH2 0x110A JUMPI PUSH2 0x1109 PUSH2 0x2336 JUMP JUMPDEST JUMPDEST PUSH1 0x20 MUL PUSH1 0x20 ADD ADD DUP2 SWAP1 MSTORE POP PUSH1 0x40 MLOAD DUP1 PUSH1 0x40 ADD PUSH1 0x40 MSTORE DUP1 PUSH32 0xD3A3AA4939C54D4A2969B82D7FE887292ABBBF97C8CACF11EF627AF26F55249 DUP2 MSTORE PUSH1 0x20 ADD PUSH32 0x15D52EA4DE2AAB02C1B368B39CE4A29E22BE80EE5303D255336ABC943075DAF DUP2 MSTORE POP DUP2 PUSH1 0x80 ADD MLOAD PUSH1 0x18 DUP2 MLOAD DUP2 LT PUSH2 0x1182 JUMPI PUSH2 0x1181 PUSH2 0x2336 JUMP JUMPDEST JUMPDEST PUSH1 0x20 MUL PUSH1 0x20 ADD ADD DUP2 SWAP1 MSTORE POP PUSH1 0x40 MLOAD DUP1 PUSH1 0x40 ADD PUSH1 0x40 MSTORE DUP1 PUSH32 0x23720766DB07869B28A9E56828FE077A44823CFCF38C7F2067C9CBE0BBF8A2E3 DUP2 MSTORE PUSH1 0x20 ADD PUSH32 0x1FA3617CEDA16F3430C5EAC9DC0A0804B76DE5DDD13B18EB363F8B79970F2488 DUP2 MSTORE POP DUP2 PUSH1 0x80 ADD MLOAD PUSH1 0x19 DUP2 MLOAD DUP2 LT PUSH2 0x11FA JUMPI PUSH2 0x11F9 PUSH2 0x2336 JUMP JUMPDEST JUMPDEST PUSH1 0x20 MUL PUSH1 0x20 ADD ADD DUP2 SWAP1 MSTORE POP PUSH1 0x40 MLOAD DUP1 PUSH1 0x40 ADD PUSH1 0x40 MSTORE DUP1 PUSH32 0x339FD49153DE4B518C81F41C9D3B6E26F7FB5C04376809AA73CF136D0B31D63 DUP2 MSTORE PUSH1 0x20 ADD PUSH32 0x57EDA5FE20151B9C2968D88CAADB95AE55FA08E4E08CEA60AF3DAF50B2EABA0 DUP2 MSTORE POP DUP2 PUSH1 0x80 ADD MLOAD PUSH1 0x1A DUP2 MLOAD DUP2 LT PUSH2 0x1272 JUMPI PUSH2 0x1271 PUSH2 0x2336 JUMP JUMPDEST JUMPDEST PUSH1 0x20 MUL PUSH1 0x20 ADD ADD DUP2 SWAP1 MSTORE POP PUSH1 0x40 MLOAD DUP1 PUSH1 0x40 ADD PUSH1 0x40 MSTORE DUP1 PUSH32 0x2F21FA3BF197C3C5705992014D735584B103D2F1AFC16E59909DD219E0DD2658 DUP2 MSTORE PUSH1 0x20 ADD PUSH32 0x10EF793EA0CF315CE09413FCEB535E456C53226BBD1517FF56F6D15642305486 DUP2 MSTORE POP DUP2 PUSH1 0x80 ADD MLOAD PUSH1 0x1B DUP2 MLOAD DUP2 LT PUSH2 0x12EA JUMPI PUSH2 0x12E9 PUSH2 0x2336 JUMP JUMPDEST JUMPDEST PUSH1 0x20 MUL PUSH1 0x20 ADD ADD DUP2 SWAP1 MSTORE POP PUSH1 0x40 MLOAD DUP1 PUSH1 0x40 ADD PUSH1 0x40 MSTORE DUP1 PUSH32 0x284E354E590341D41AB0DCE79C54D0893264DE6DFBF0BC55F5A8AA93334B3B7A DUP2 MSTORE PUSH1 0x20 ADD PUSH32 0x54881B94FAF9C2922A2B2E03172AC3AA6BE6330611C841CC7D7951A745C3CAB DUP2 MSTORE POP DUP2 PUSH1 0x80 ADD MLOAD PUSH1 0x1C DUP2 MLOAD DUP2 LT PUSH2 0x1362 JUMPI PUSH2 0x1361 PUSH2 0x2336 JUMP JUMPDEST JUMPDEST PUSH1 0x20 MUL PUSH1 0x20 ADD ADD DUP2 SWAP1 MSTORE POP PUSH1 0x40 MLOAD DUP1 PUSH1 0x40 ADD PUSH1 0x40 MSTORE DUP1 PUSH32 0x227333B130805633FCF82B73CE18C252A331A1A276AF73821E609A93D2CD6EEA DUP2 MSTORE PUSH1 0x20 ADD PUSH32 0x66E1E65B26B67CD60DC737D00613D91E4D3467D463186C9EAC4F92DCAEBA9B3 DUP2 MSTORE POP DUP2 PUSH1 0x80 ADD MLOAD PUSH1 0x1D DUP2 MLOAD DUP2 LT PUSH2 0x13DA JUMPI PUSH2 0x13D9 PUSH2 0x2336 JUMP JUMPDEST JUMPDEST PUSH1 0x20 MUL PUSH1 0x20 ADD ADD DUP2 SWAP1 MSTORE POP PUSH1 0x40 MLOAD DUP1 PUSH1 0x40 ADD PUSH1 0x40 MSTORE DUP1 PUSH32 0xF6DE914601575B0CE472C583A73AF6DF2AF9E6691F07F511030E97966D1174E DUP2 MSTORE PUSH1 0x20 ADD PUSH32 0x279A582C4AF9AD3E426C5337B2C3D53641199C757528F41102D20235ECBCA2F4 DUP2 MSTORE POP DUP2 PUSH1 0x80 ADD MLOAD PUSH1 0x1E DUP2 MLOAD DUP2 LT PUSH2 0x1452 JUMPI PUSH2 0x1451 PUSH2 0x2336 JUMP JUMPDEST JUMPDEST PUSH1 0x20 MUL PUSH1 0x20 ADD ADD DUP2 SWAP1 MSTORE POP PUSH1 0x40 MLOAD DUP1 PUSH1 0x40 ADD PUSH1 0x40 MSTORE DUP1 PUSH32 0x3DF20CACE11D046CC9CE0155659E0C2D7FBFD52F208DEF0858D26AB257438D9 DUP2 MSTORE PUSH1 0x20 ADD PUSH32 0x1B80CEA26B93B76A613A181755C9290FD9BD421C3C30AB61500C8CC34B5CF5B9 DUP2 MSTORE POP DUP2 PUSH1 0x80 ADD MLOAD PUSH1 0x1F DUP2 MLOAD DUP2 LT PUSH2 0x14CA JUMPI PUSH2 0x14C9 PUSH2 0x2336 JUMP JUMPDEST JUMPDEST PUSH1 0x20 MUL PUSH1 0x20 ADD ADD DUP2 SWAP1 MSTORE POP PUSH1 0x40 MLOAD DUP1 PUSH1 0x40 ADD PUSH1 0x40 MSTORE DUP1 PUSH32 0x1052F5EAF9664B45B32F7D026B2451D9EEC6235D057A128AB61A156A0EC726ED DUP2 MSTORE PUSH1 0x20 ADD PUSH32 0x2EDD3531E416ACBF922E8A7F8C5F766AACDC8CD437CAFF568BF11C65C9360875 DUP2 MSTORE POP DUP2 PUSH1 0x80 ADD MLOAD PUSH1 0x20 DUP2 MLOAD DUP2 LT PUSH2 0x1542 JUMPI PUSH2 0x1541 PUSH2 0x2336 JUMP JUMPDEST JUMPDEST PUSH1 0x20 MUL PUSH1 0x20 ADD ADD DUP2 SWAP1 MSTORE POP PUSH1 0x40 MLOAD DUP1 PUSH1 0x40 ADD PUSH1 0x40 MSTORE DUP1 PUSH32 0x1D7B1BBE68B78BB941BC429F4E26B99255BA58B20DDB9B5BC3412897D89A0740 DUP2 MSTORE PUSH1 0x20 ADD PUSH32 0xA9CF1AC405AEF37867B3D0E4EFE733FAE8AFDE0B9BC4BE1FCA31E5283A2DEBA DUP2 MSTORE POP DUP2 PUSH1 0x80 ADD MLOAD PUSH1 0x21 DUP2 MLOAD DUP2 LT PUSH2 0x15BA JUMPI PUSH2 0x15B9 PUSH2 0x2336 JUMP JUMPDEST JUMPDEST PUSH1 0x20 MUL PUSH1 0x20 ADD ADD DUP2 SWAP1 MSTORE POP SWAP1 JUMP JUMPDEST PUSH2 0x15D0 PUSH2 0x1D50 JUMP JUMPDEST PUSH2 0x15D8 PUSH2 0x1D6A JUMP JUMPDEST DUP4 PUSH1 0x0 ADD MLOAD DUP2 PUSH1 0x0 PUSH1 0x3 DUP2 LT PUSH2 0x15F1 JUMPI PUSH2 0x15F0 PUSH2 0x2336 JUMP JUMPDEST JUMPDEST PUSH1 0x20 MUL ADD DUP2 DUP2 MSTORE POP POP DUP4 PUSH1 0x20 ADD MLOAD DUP2 PUSH1 0x1 PUSH1 0x3 DUP2 LT PUSH2 0x1613 JUMPI PUSH2 0x1612 PUSH2 0x2336 JUMP JUMPDEST JUMPDEST PUSH1 0x20 MUL ADD DUP2 DUP2 MSTORE POP POP DUP3 DUP2 PUSH1 0x2 PUSH1 0x3 DUP2 LT PUSH2 0x1631 JUMPI PUSH2 0x1630 PUSH2 0x2336 JUMP JUMPDEST JUMPDEST PUSH1 0x20 MUL ADD DUP2 DUP2 MSTORE POP POP PUSH1 0x0 PUSH1 0x60 DUP4 PUSH1 0x80 DUP5 PUSH1 0x7 PUSH2 0x7D0 GAS SUB STATICCALL SWAP1 POP DUP1 PUSH1 0x0 DUP2 EQ PUSH2 0x165A JUMPI PUSH2 0x165C JUMP JUMPDEST INVALID JUMPDEST POP DUP1 PUSH2 0x1667 JUMPI PUSH1 0x0 DUP1 REVERT JUMPDEST POP POP SWAP3 SWAP2 POP POP JUMP JUMPDEST PUSH2 0x1677 PUSH2 0x1D50 JUMP JUMPDEST PUSH2 0x167F PUSH2 0x1D8C JUMP JUMPDEST DUP4 PUSH1 0x0 ADD MLOAD DUP2 PUSH1 0x0 PUSH1 0x4 DUP2 LT PUSH2 0x1698 JUMPI PUSH2 0x1697 PUSH2 0x2336 JUMP JUMPDEST JUMPDEST PUSH1 0x20 MUL ADD DUP2 DUP2 MSTORE POP POP DUP4 PUSH1 0x20 ADD MLOAD DUP2 PUSH1 0x1 PUSH1 0x4 DUP2 LT PUSH2 0x16BA JUMPI PUSH2 0x16B9 PUSH2 0x2336 JUMP JUMPDEST JUMPDEST PUSH1 0x20 MUL ADD DUP2 DUP2 MSTORE POP POP DUP3 PUSH1 0x0 ADD MLOAD DUP2 PUSH1 0x2 PUSH1 0x4 DUP2 LT PUSH2 0x16DC JUMPI PUSH2 0x16DB PUSH2 0x2336 JUMP JUMPDEST JUMPDEST PUSH1 0x20 MUL ADD DUP2 DUP2 MSTORE POP POP DUP3 PUSH1 0x20 ADD MLOAD DUP2 PUSH1 0x3 PUSH1 0x4 DUP2 LT PUSH2 0x16FE JUMPI PUSH2 0x16FD PUSH2 0x2336 JUMP JUMPDEST JUMPDEST PUSH1 0x20 MUL ADD DUP2 DUP2 MSTORE POP POP PUSH1 0x0 PUSH1 0x60 DUP4 PUSH1 0xC0 DUP5 PUSH1 0x6 PUSH2 0x7D0 GAS SUB STATICCALL SWAP1 POP DUP1 PUSH1 0x0 DUP2 EQ PUSH2 0x1727 JUMPI PUSH2 0x1729 JUMP JUMPDEST INVALID JUMPDEST POP DUP1 PUSH2 0x1734 JUMPI PUSH1 0x0 DUP1 REVERT JUMPDEST POP POP SWAP3 SWAP2 POP POP JUMP JUMPDEST PUSH2 0x1744 PUSH2 0x1D50 JUMP JUMPDEST PUSH1 0x0 PUSH32 0x30644E72E131A029B85045B68181585D97816A916871CA8D3C208C16D87CFD47 SWAP1 POP PUSH1 0x0 DUP4 PUSH1 0x0 ADD MLOAD EQ DUP1 ISZERO PUSH2 0x1781 JUMPI POP PUSH1 0x0 DUP4 PUSH1 0x20 ADD MLOAD EQ JUMPDEST ISZERO PUSH2 0x17A5 JUMPI PUSH1 0x40 MLOAD DUP1 PUSH1 0x40 ADD PUSH1 0x40 MSTORE DUP1 PUSH1 0x0 DUP2 MSTORE PUSH1 0x20 ADD PUSH1 0x0 DUP2 MSTORE POP SWAP2 POP POP PUSH2 0x17DC JUMP JUMPDEST PUSH1 0x40 MLOAD DUP1 PUSH1 0x40 ADD PUSH1 0x40 MSTORE DUP1 DUP5 PUSH1 0x0 ADD MLOAD DUP2 MSTORE PUSH1 0x20 ADD DUP3 DUP6 PUSH1 0x20 ADD MLOAD PUSH2 0x17CA SWAP2 SWAP1 PUSH2 0x22A7 JUMP JUMPDEST DUP4 PUSH2 0x17D5 SWAP2 SWAP1 PUSH2 0x21E3 JUMP JUMPDEST DUP2 MSTORE POP SWAP2 POP POP JUMPDEST SWAP2 SWAP1 POP JUMP JUMPDEST PUSH1 0x0 DUP1 PUSH1 0x4 PUSH8 0xFFFFFFFFFFFFFFFF DUP2 GT ISZERO PUSH2 0x17FF JUMPI PUSH2 0x17FE PUSH2 0x2365 JUMP JUMPDEST JUMPDEST PUSH1 0x40 MLOAD SWAP1 DUP1 DUP3 MSTORE DUP1 PUSH1 0x20 MUL PUSH1 0x20 ADD DUP3 ADD PUSH1 0x40 MSTORE DUP1 ISZERO PUSH2 0x1838 JUMPI DUP2 PUSH1 0x20 ADD JUMPDEST PUSH2 0x1825 PUSH2 0x1D50 JUMP JUMPDEST DUP2 MSTORE PUSH1 0x20 ADD SWAP1 PUSH1 0x1 SWAP1 SUB SWAP1 DUP2 PUSH2 0x181D JUMPI SWAP1 POP JUMPDEST POP SWAP1 POP PUSH1 0x0 PUSH1 0x4 PUSH8 0xFFFFFFFFFFFFFFFF DUP2 GT ISZERO PUSH2 0x1858 JUMPI PUSH2 0x1857 PUSH2 0x2365 JUMP JUMPDEST JUMPDEST PUSH1 0x40 MLOAD SWAP1 DUP1 DUP3 MSTORE DUP1 PUSH1 0x20 MUL PUSH1 0x20 ADD DUP3 ADD PUSH1 0x40 MSTORE DUP1 ISZERO PUSH2 0x1891 JUMPI DUP2 PUSH1 0x20 ADD JUMPDEST PUSH2 0x187E PUSH2 0x1DAE JUMP JUMPDEST DUP2 MSTORE PUSH1 0x20 ADD SWAP1 PUSH1 0x1 SWAP1 SUB SWAP1 DUP2 PUSH2 0x1876 JUMPI SWAP1 POP JUMPDEST POP SWAP1 POP DUP11 DUP3 PUSH1 0x0 DUP2 MLOAD DUP2 LT PUSH2 0x18A9 JUMPI PUSH2 0x18A8 PUSH2 0x2336 JUMP JUMPDEST JUMPDEST PUSH1 0x20 MUL PUSH1 0x20 ADD ADD DUP2 SWAP1 MSTORE POP DUP9 DUP3 PUSH1 0x1 DUP2 MLOAD DUP2 LT PUSH2 0x18C9 JUMPI PUSH2 0x18C8 PUSH2 0x2336 JUMP JUMPDEST JUMPDEST PUSH1 0x20 MUL PUSH1 0x20 ADD ADD DUP2 SWAP1 MSTORE POP DUP7 DUP3 PUSH1 0x2 DUP2 MLOAD DUP2 LT PUSH2 0x18E9 JUMPI PUSH2 0x18E8 PUSH2 0x2336 JUMP JUMPDEST JUMPDEST PUSH1 0x20 MUL PUSH1 0x20 ADD ADD DUP2 SWAP1 MSTORE POP DUP5 DUP3 PUSH1 0x3 DUP2 MLOAD DUP2 LT PUSH2 0x1909 JUMPI PUSH2 0x1908 PUSH2 0x2336 JUMP JUMPDEST JUMPDEST PUSH1 0x20 MUL PUSH1 0x20 ADD ADD DUP2 SWAP1 MSTORE POP DUP10 DUP2 PUSH1 0x0 DUP2 MLOAD DUP2 LT PUSH2 0x1929 JUMPI PUSH2 0x1928 PUSH2 0x2336 JUMP JUMPDEST JUMPDEST PUSH1 0x20 MUL PUSH1 0x20 ADD ADD DUP2 SWAP1 MSTORE POP DUP8 DUP2 PUSH1 0x1 DUP2 MLOAD DUP2 LT PUSH2 0x1949 JUMPI PUSH2 0x1948 PUSH2 0x2336 JUMP JUMPDEST JUMPDEST PUSH1 0x20 MUL PUSH1 0x20 ADD ADD DUP2 SWAP1 MSTORE POP DUP6 DUP2 PUSH1 0x2 DUP2 MLOAD DUP2 LT PUSH2 0x1969 JUMPI PUSH2 0x1968 PUSH2 0x2336 JUMP JUMPDEST JUMPDEST PUSH1 0x20 MUL PUSH1 0x20 ADD ADD DUP2 SWAP1 MSTORE POP DUP4 DUP2 PUSH1 0x3 DUP2 MLOAD DUP2 LT PUSH2 0x1989 JUMPI PUSH2 0x1988 PUSH2 0x2336 JUMP JUMPDEST JUMPDEST PUSH1 0x20 MUL PUSH1 0x20 ADD ADD DUP2 SWAP1 MSTORE POP PUSH2 0x199E DUP3 DUP3 PUSH2 0x19AE JUMP JUMPDEST SWAP3 POP POP POP SWAP9 SWAP8 POP POP POP POP POP POP POP POP JUMP JUMPDEST PUSH1 0x0 DUP2 MLOAD DUP4 MLOAD EQ PUSH2 0x19BE JUMPI PUSH1 0x0 DUP1 REVERT JUMPDEST PUSH1 0x0 DUP4 MLOAD SWAP1 POP PUSH1 0x0 PUSH1 0x6 DUP3 PUSH2 0x19D3 SWAP2 SWAP1 PUSH2 0x2189 JUMP JUMPDEST SWAP1 POP PUSH1 0x0 DUP2 PUSH8 0xFFFFFFFFFFFFFFFF DUP2 GT ISZERO PUSH2 0x19F1 JUMPI PUSH2 0x19F0 PUSH2 0x2365 JUMP JUMPDEST JUMPDEST PUSH1 0x40 MLOAD SWAP1 DUP1 DUP3 MSTORE DUP1 PUSH1 0x20 MUL PUSH1 0x20 ADD DUP3 ADD PUSH1 0x40 MSTORE DUP1 ISZERO PUSH2 0x1A1F JUMPI DUP2 PUSH1 0x20 ADD PUSH1 0x20 DUP3 MUL DUP1 CALLDATASIZE DUP4 CALLDATACOPY DUP1 DUP3 ADD SWAP2 POP POP SWAP1 POP JUMPDEST POP SWAP1 POP PUSH1 0x0 JUMPDEST DUP4 DUP2 LT ISZERO PUSH2 0x1CA4 JUMPI DUP7 DUP2 DUP2 MLOAD DUP2 LT PUSH2 0x1A40 JUMPI PUSH2 0x1A3F PUSH2 0x2336 JUMP JUMPDEST JUMPDEST PUSH1 0x20 MUL PUSH1 0x20 ADD ADD MLOAD PUSH1 0x0 ADD MLOAD DUP3 PUSH1 0x0 PUSH1 0x6 DUP5 PUSH2 0x1A5C SWAP2 SWAP1 PUSH2 0x2189 JUMP JUMPDEST PUSH2 0x1A66 SWAP2 SWAP1 PUSH2 0x2133 JUMP JUMPDEST DUP2 MLOAD DUP2 LT PUSH2 0x1A77 JUMPI PUSH2 0x1A76 PUSH2 0x2336 JUMP JUMPDEST JUMPDEST PUSH1 0x20 MUL PUSH1 0x20 ADD ADD DUP2 DUP2 MSTORE POP POP DUP7 DUP2 DUP2 MLOAD DUP2 LT PUSH2 0x1A96 JUMPI PUSH2 0x1A95 PUSH2 0x2336 JUMP JUMPDEST JUMPDEST PUSH1 0x20 MUL PUSH1 0x20 ADD ADD MLOAD PUSH1 0x20 ADD MLOAD DUP3 PUSH1 0x1 PUSH1 0x6 DUP5 PUSH2 0x1AB2 SWAP2 SWAP1 PUSH2 0x2189 JUMP JUMPDEST PUSH2 0x1ABC SWAP2 SWAP1 PUSH2 0x2133 JUMP JUMPDEST DUP2 MLOAD DUP2 LT PUSH2 0x1ACD JUMPI PUSH2 0x1ACC PUSH2 0x2336 JUMP JUMPDEST JUMPDEST PUSH1 0x20 MUL PUSH1 0x20 ADD ADD DUP2 DUP2 MSTORE POP POP DUP6 DUP2 DUP2 MLOAD DUP2 LT PUSH2 0x1AEC JUMPI PUSH2 0x1AEB PUSH2 0x2336 JUMP JUMPDEST JUMPDEST PUSH1 0x20 MUL PUSH1 0x20 ADD ADD MLOAD PUSH1 0x0 ADD MLOAD PUSH1 0x1 PUSH1 0x2 DUP2 LT PUSH2 0x1B0B JUMPI PUSH2 0x1B0A PUSH2 0x2336 JUMP JUMPDEST JUMPDEST PUSH1 0x20 MUL ADD MLOAD DUP3 PUSH1 0x2 PUSH1 0x6 DUP5 PUSH2 0x1B20 SWAP2 SWAP1 PUSH2 0x2189 JUMP JUMPDEST PUSH2 0x1B2A SWAP2 SWAP1 PUSH2 0x2133 JUMP JUMPDEST DUP2 MLOAD DUP2 LT PUSH2 0x1B3B JUMPI PUSH2 0x1B3A PUSH2 0x2336 JUMP JUMPDEST JUMPDEST PUSH1 0x20 MUL PUSH1 0x20 ADD ADD DUP2 DUP2 MSTORE POP POP DUP6 DUP2 DUP2 MLOAD DUP2 LT PUSH2 0x1B5A JUMPI PUSH2 0x1B59 PUSH2 0x2336 JUMP JUMPDEST JUMPDEST PUSH1 0x20 MUL PUSH1 0x20 ADD ADD MLOAD PUSH1 0x0 ADD MLOAD PUSH1 0x0 PUSH1 0x2 DUP2 LT PUSH2 0x1B79 JUMPI PUSH2 0x1B78 PUSH2 0x2336 JUMP JUMPDEST JUMPDEST PUSH1 0x20 MUL ADD MLOAD DUP3 PUSH1 0x3 PUSH1 0x6 DUP5 PUSH2 0x1B8E SWAP2 SWAP1 PUSH2 0x2189 JUMP JUMPDEST PUSH2 0x1B98 SWAP2 SWAP1 PUSH2 0x2133 JUMP JUMPDEST DUP2 MLOAD DUP2 LT PUSH2 0x1BA9 JUMPI PUSH2 0x1BA8 PUSH2 0x2336 JUMP JUMPDEST JUMPDEST PUSH1 0x20 MUL PUSH1 0x20 ADD ADD DUP2 DUP2 MSTORE POP POP DUP6 DUP2 DUP2 MLOAD DUP2 LT PUSH2 0x1BC8 JUMPI PUSH2 0x1BC7 PUSH2 0x2336 JUMP JUMPDEST JUMPDEST PUSH1 0x20 MUL PUSH1 0x20 ADD ADD MLOAD PUSH1 0x20 ADD MLOAD PUSH1 0x1 PUSH1 0x2 DUP2 LT PUSH2 0x1BE7 JUMPI PUSH2 0x1BE6 PUSH2 0x2336 JUMP JUMPDEST JUMPDEST PUSH1 0x20 MUL ADD MLOAD DUP3 PUSH1 0x4 PUSH1 0x6 DUP5 PUSH2 0x1BFC SWAP2 SWAP1 PUSH2 0x2189 JUMP JUMPDEST PUSH2 0x1C06 SWAP2 SWAP1 PUSH2 0x2133 JUMP JUMPDEST DUP2 MLOAD DUP2 LT PUSH2 0x1C17 JUMPI PUSH2 0x1C16 PUSH2 0x2336 JUMP JUMPDEST JUMPDEST PUSH1 0x20 MUL PUSH1 0x20 ADD ADD DUP2 DUP2 MSTORE POP POP DUP6 DUP2 DUP2 MLOAD DUP2 LT PUSH2 0x1C36 JUMPI PUSH2 0x1C35 PUSH2 0x2336 JUMP JUMPDEST JUMPDEST PUSH1 0x20 MUL PUSH1 0x20 ADD ADD MLOAD PUSH1 0x20 ADD MLOAD PUSH1 0x0 PUSH1 0x2 DUP2 LT PUSH2 0x1C55 JUMPI PUSH2 0x1C54 PUSH2 0x2336 JUMP JUMPDEST JUMPDEST PUSH1 0x20 MUL ADD MLOAD DUP3 PUSH1 0x5 PUSH1 0x6 DUP5 PUSH2 0x1C6A SWAP2 SWAP1 PUSH2 0x2189 JUMP JUMPDEST PUSH2 0x1C74 SWAP2 SWAP1 PUSH2 0x2133 JUMP JUMPDEST DUP2 MLOAD DUP2 LT PUSH2 0x1C85 JUMPI PUSH2 0x1C84 PUSH2 0x2336 JUMP JUMPDEST JUMPDEST PUSH1 0x20 MUL PUSH1 0x20 ADD ADD DUP2 DUP2 MSTORE POP POP DUP1 DUP1 PUSH2 0x1C9C SWAP1 PUSH2 0x225E JUMP JUMPDEST SWAP2 POP POP PUSH2 0x1A25 JUMP JUMPDEST POP PUSH2 0x1CAD PUSH2 0x1DD4 JUMP JUMPDEST PUSH1 0x0 PUSH1 0x20 DUP3 PUSH1 0x20 DUP7 MUL PUSH1 0x20 DUP7 ADD PUSH1 0x8 PUSH2 0x7D0 GAS SUB STATICCALL SWAP1 POP DUP1 PUSH1 0x0 DUP2 EQ PUSH2 0x1CD2 JUMPI PUSH2 0x1CD4 JUMP JUMPDEST INVALID JUMPDEST POP DUP1 PUSH2 0x1CDF JUMPI PUSH1 0x0 DUP1 REVERT JUMPDEST PUSH1 0x0 DUP3 PUSH1 0x0 PUSH1 0x1 DUP2 LT PUSH2 0x1CF5 JUMPI PUSH2 0x1CF4 PUSH2 0x2336 JUMP JUMPDEST JUMPDEST PUSH1 0x20 MUL ADD MLOAD EQ ISZERO SWAP6 POP POP POP POP POP POP SWAP3 SWAP2 POP POP JUMP JUMPDEST PUSH1 0x40 MLOAD DUP1 PUSH1 0xA0 ADD PUSH1 0x40 MSTORE DUP1 PUSH2 0x1D1C PUSH2 0x1D50 JUMP JUMPDEST DUP2 MSTORE PUSH1 0x20 ADD PUSH2 0x1D29 PUSH2 0x1DAE JUMP JUMPDEST DUP2 MSTORE PUSH1 0x20 ADD PUSH2 0x1D36 PUSH2 0x1DAE JUMP JUMPDEST DUP2 MSTORE PUSH1 0x20 ADD PUSH2 0x1D43 PUSH2 0x1DAE JUMP JUMPDEST DUP2 MSTORE PUSH1 0x20 ADD PUSH1 0x60 DUP2 MSTORE POP SWAP1 JUMP JUMPDEST PUSH1 0x40 MLOAD DUP1 PUSH1 0x40 ADD PUSH1 0x40 MSTORE DUP1 PUSH1 0x0 DUP2 MSTORE PUSH1 0x20 ADD PUSH1 0x0 DUP2 MSTORE POP SWAP1 JUMP JUMPDEST PUSH1 0x40 MLOAD DUP1 PUSH1 0x60 ADD PUSH1 0x40 MSTORE DUP1 PUSH1 0x3 SWAP1 PUSH1 0x20 DUP3 MUL DUP1 CALLDATASIZE DUP4 CALLDATACOPY DUP1 DUP3 ADD SWAP2 POP POP SWAP1 POP POP SWAP1 JUMP JUMPDEST PUSH1 0x40 MLOAD DUP1 PUSH1 0x80 ADD PUSH1 0x40 MSTORE DUP1 PUSH1 0x4 SWAP1 PUSH1 0x20 DUP3 MUL DUP1 CALLDATASIZE DUP4 CALLDATACOPY DUP1 DUP3 ADD SWAP2 POP POP SWAP1 POP POP SWAP1 JUMP JUMPDEST PUSH1 0x40 MLOAD DUP1 PUSH1 0x40 ADD PUSH1 0x40 MSTORE DUP1 PUSH2 0x1DC1 PUSH2 0x1DF6 JUMP JUMPDEST DUP2 MSTORE PUSH1 0x20 ADD PUSH2 0x1DCE PUSH2 0x1DF6 JUMP JUMPDEST DUP2 MSTORE POP SWAP1 JUMP JUMPDEST PUSH1 0x40 MLOAD DUP1 PUSH1 0x20 ADD PUSH1 0x40 MSTORE DUP1 PUSH1 0x1 SWAP1 PUSH1 0x20 DUP3 MUL DUP1 CALLDATASIZE DUP4 CALLDATACOPY DUP1 DUP3 ADD SWAP2 POP POP SWAP1 POP POP SWAP1 JUMP JUMPDEST PUSH1 0x40 MLOAD DUP1 PUSH1 0x40 ADD PUSH1 0x40 MSTORE DUP1 PUSH1 0x2 SWAP1 PUSH1 0x20 DUP3 MUL DUP1 CALLDATASIZE DUP4 CALLDATACOPY DUP1 DUP3 ADD SWAP2 POP POP SWAP1 POP POP SWAP1 JUMP JUMPDEST PUSH1 0x0 PUSH2 0x1E2B PUSH2 0x1E26 DUP5 PUSH2 0x20E7 JUMP JUMPDEST PUSH2 0x20C2 JUMP JUMPDEST SWAP1 POP DUP1 DUP3 DUP6 PUSH1 0x20 DUP7 MUL DUP3 ADD GT ISZERO PUSH2 0x1E45 JUMPI PUSH2 0x1E44 PUSH2 0x239E JUMP JUMPDEST JUMPDEST PUSH1 0x0 JUMPDEST DUP6 DUP2 LT ISZERO PUSH2 0x1E75 JUMPI DUP2 PUSH2 0x1E5B DUP9 DUP3 PUSH2 0x2041 JUMP JUMPDEST DUP5 MSTORE PUSH1 0x20 DUP5 ADD SWAP4 POP PUSH1 0x20 DUP4 ADD SWAP3 POP POP PUSH1 0x1 DUP2 ADD SWAP1 POP PUSH2 0x1E48 JUMP JUMPDEST POP POP POP SWAP4 SWAP3 POP POP POP JUMP JUMPDEST PUSH1 0x0 PUSH2 0x1E92 PUSH2 0x1E8D DUP5 PUSH2 0x210D JUMP JUMPDEST PUSH2 0x20C2 JUMP JUMPDEST SWAP1 POP DUP1 DUP3 DUP6 PUSH1 0x20 DUP7 MUL DUP3 ADD GT ISZERO PUSH2 0x1EAC JUMPI PUSH2 0x1EAB PUSH2 0x239E JUMP JUMPDEST JUMPDEST PUSH1 0x0 JUMPDEST DUP6 DUP2 LT ISZERO PUSH2 0x1EDC JUMPI DUP2 PUSH2 0x1EC2 DUP9 DUP3 PUSH2 0x2041 JUMP JUMPDEST DUP5 MSTORE PUSH1 0x20 DUP5 ADD SWAP4 POP PUSH1 0x20 DUP4 ADD SWAP3 POP POP PUSH1 0x1 DUP2 ADD SWAP1 POP PUSH2 0x1EAF JUMP JUMPDEST POP POP POP SWAP4 SWAP3 POP POP POP JUMP JUMPDEST PUSH1 0x0 DUP3 PUSH1 0x1F DUP4 ADD SLT PUSH2 0x1EFB JUMPI PUSH2 0x1EFA PUSH2 0x2394 JUMP JUMPDEST JUMPDEST PUSH1 0x2 PUSH2 0x1F08 DUP5 DUP3 DUP6 PUSH2 0x1E18 JUMP JUMPDEST SWAP2 POP POP SWAP3 SWAP2 POP POP JUMP JUMPDEST PUSH1 0x0 DUP3 PUSH1 0x1F DUP4 ADD SLT PUSH2 0x1F26 JUMPI PUSH2 0x1F25 PUSH2 0x2394 JUMP JUMPDEST JUMPDEST PUSH1 0x21 PUSH2 0x1F33 DUP5 DUP3 DUP6 PUSH2 0x1E7F JUMP JUMPDEST SWAP2 POP POP SWAP3 SWAP2 POP POP JUMP JUMPDEST PUSH1 0x0 PUSH1 0x40 DUP3 DUP5 SUB SLT ISZERO PUSH2 0x1F52 JUMPI PUSH2 0x1F51 PUSH2 0x2399 JUMP JUMPDEST JUMPDEST PUSH2 0x1F5C PUSH1 0x40 PUSH2 0x20C2 JUMP JUMPDEST SWAP1 POP PUSH1 0x0 PUSH2 0x1F6C DUP5 DUP3 DUP6 ADD PUSH2 0x2041 JUMP JUMPDEST PUSH1 0x0 DUP4 ADD MSTORE POP PUSH1 0x20 PUSH2 0x1F80 DUP5 DUP3 DUP6 ADD PUSH2 0x2041 JUMP JUMPDEST PUSH1 0x20 DUP4 ADD MSTORE POP SWAP3 SWAP2 POP POP JUMP JUMPDEST PUSH1 0x0 PUSH1 0x80 DUP3 DUP5 SUB SLT ISZERO PUSH2 0x1FA2 JUMPI PUSH2 0x1FA1 PUSH2 0x2399 JUMP JUMPDEST JUMPDEST PUSH2 0x1FAC PUSH1 0x40 PUSH2 0x20C2 JUMP JUMPDEST SWAP1 POP PUSH1 0x0 PUSH2 0x1FBC DUP5 DUP3 DUP6 ADD PUSH2 0x1EE6 JUMP JUMPDEST PUSH1 0x0 DUP4 ADD MSTORE POP PUSH1 0x40 PUSH2 0x1FD0 DUP5 DUP3 DUP6 ADD PUSH2 0x1EE6 JUMP JUMPDEST PUSH1 0x20 DUP4 ADD MSTORE POP SWAP3 SWAP2 POP POP JUMP JUMPDEST PUSH1 0x0 PUSH2 0x100 DUP3 DUP5 SUB SLT ISZERO PUSH2 0x1FF3 JUMPI PUSH2 0x1FF2 PUSH2 0x2399 JUMP JUMPDEST JUMPDEST PUSH2 0x1FFD PUSH1 0x60 PUSH2 0x20C2 JUMP JUMPDEST SWAP1 POP PUSH1 0x0 PUSH2 0x200D DUP5 DUP3 DUP6 ADD PUSH2 0x1F3C JUMP JUMPDEST PUSH1 0x0 DUP4 ADD MSTORE POP PUSH1 0x40 PUSH2 0x2021 DUP5 DUP3 DUP6 ADD PUSH2 0x1F8C JUMP JUMPDEST PUSH1 0x20 DUP4 ADD MSTORE POP PUSH1 0xC0 PUSH2 0x2035 DUP5 DUP3 DUP6 ADD PUSH2 0x1F3C JUMP JUMPDEST PUSH1 0x40 DUP4 ADD MSTORE POP SWAP3 SWAP2 POP POP JUMP JUMPDEST PUSH1 0x0 DUP2 CALLDATALOAD SWAP1 POP PUSH2 0x2050 DUP2 PUSH2 0x23B9 JUMP JUMPDEST SWAP3 SWAP2 POP POP JUMP JUMPDEST PUSH1 0x0 DUP1 PUSH2 0x520 DUP4 DUP6 SUB SLT ISZERO PUSH2 0x206E JUMPI PUSH2 0x206D PUSH2 0x23A3 JUMP JUMPDEST JUMPDEST PUSH1 0x0 PUSH2 0x207C DUP6 DUP3 DUP7 ADD PUSH2 0x1FDC JUMP JUMPDEST SWAP3 POP POP PUSH2 0x100 PUSH2 0x208E DUP6 DUP3 DUP7 ADD PUSH2 0x1F11 JUMP JUMPDEST SWAP2 POP POP SWAP3 POP SWAP3 SWAP1 POP JUMP JUMPDEST PUSH2 0x20A1 DUP2 PUSH2 0x2217 JUMP JUMPDEST DUP3 MSTORE POP POP JUMP JUMPDEST PUSH1 0x0 PUSH1 0x20 DUP3 ADD SWAP1 POP PUSH2 0x20BC PUSH1 0x0 DUP4 ADD DUP5 PUSH2 0x2098 JUMP JUMPDEST SWAP3 SWAP2 POP POP JUMP JUMPDEST PUSH1 0x0 PUSH2 0x20CC PUSH2 0x20DD JUMP JUMPDEST SWAP1 POP PUSH2 0x20D8 DUP3 DUP3 PUSH2 0x222D JUMP JUMPDEST SWAP2 SWAP1 POP JUMP JUMPDEST PUSH1 0x0 PUSH1 0x40 MLOAD SWAP1 POP SWAP1 JUMP JUMPDEST PUSH1 0x0 PUSH8 0xFFFFFFFFFFFFFFFF DUP3 GT ISZERO PUSH2 0x2102 JUMPI PUSH2 0x2101 PUSH2 0x2365 JUMP JUMPDEST JUMPDEST PUSH1 0x20 DUP3 MUL SWAP1 POP SWAP2 SWAP1 POP JUMP JUMPDEST PUSH1 0x0 PUSH8 0xFFFFFFFFFFFFFFFF DUP3 GT ISZERO PUSH2 0x2128 JUMPI PUSH2 0x2127 PUSH2 0x2365 JUMP JUMPDEST JUMPDEST PUSH1 0x20 DUP3 MUL SWAP1 POP SWAP2 SWAP1 POP JUMP JUMPDEST PUSH1 0x0 PUSH2 0x213E DUP3 PUSH2 0x2223 JUMP JUMPDEST SWAP2 POP PUSH2 0x2149 DUP4 PUSH2 0x2223 JUMP JUMPDEST SWAP3 POP DUP3 PUSH32 0xFFFFFFFFFFFFFFFFFFFFFFFFFFFFFFFFFFFFFFFFFFFFFFFFFFFFFFFFFFFFFFFF SUB DUP3 GT ISZERO PUSH2 0x217E JUMPI PUSH2 0x217D PUSH2 0x22D8 JUMP JUMPDEST JUMPDEST DUP3 DUP3 ADD SWAP1 POP SWAP3 SWAP2 POP POP JUMP JUMPDEST PUSH1 0x0 PUSH2 0x2194 DUP3 PUSH2 0x2223 JUMP JUMPDEST SWAP2 POP PUSH2 0x219F DUP4 PUSH2 0x2223 JUMP JUMPDEST SWAP3 POP DUP2 PUSH32 0xFFFFFFFFFFFFFFFFFFFFFFFFFFFFFFFFFFFFFFFFFFFFFFFFFFFFFFFFFFFFFFFF DIV DUP4 GT DUP3 ISZERO ISZERO AND ISZERO PUSH2 0x21D8 JUMPI PUSH2 0x21D7 PUSH2 0x22D8 JUMP JUMPDEST JUMPDEST DUP3 DUP3 MUL SWAP1 POP SWAP3 SWAP2 POP POP JUMP JUMPDEST PUSH1 0x0 PUSH2 0x21EE DUP3 PUSH2 0x2223 JUMP JUMPDEST SWAP2 POP PUSH2 0x21F9 DUP4 PUSH2 0x2223 JUMP JUMPDEST SWAP3 POP DUP3 DUP3 LT ISZERO PUSH2 0x220C JUMPI PUSH2 0x220B PUSH2 0x22D8 JUMP JUMPDEST JUMPDEST DUP3 DUP3 SUB SWAP1 POP SWAP3 SWAP2 POP POP JUMP JUMPDEST PUSH1 0x0 DUP2 ISZERO ISZERO SWAP1 POP SWAP2 SWAP1 POP JUMP JUMPDEST PUSH1 0x0 DUP2 SWAP1 POP SWAP2 SWAP1 POP JUMP JUMPDEST PUSH2 0x2236 DUP3 PUSH2 0x23A8 JUMP JUMPDEST DUP2 ADD DUP2 DUP2 LT PUSH8 0xFFFFFFFFFFFFFFFF DUP3 GT OR ISZERO PUSH2 0x2255 JUMPI PUSH2 0x2254 PUSH2 0x2365 JUMP JUMPDEST JUMPDEST DUP1 PUSH1 0x40 MSTORE POP POP POP JUMP JUMPDEST PUSH1 0x0 PUSH2 0x2269 DUP3 PUSH2 0x2223 JUMP JUMPDEST SWAP2 POP PUSH32 0xFFFFFFFFFFFFFFFFFFFFFFFFFFFFFFFFFFFFFFFFFFFFFFFFFFFFFFFFFFFFFFFF DUP3 EQ ISZERO PUSH2 0x229C JUMPI PUSH2 0x229B PUSH2 0x22D8 JUMP JUMPDEST JUMPDEST PUSH1 0x1 DUP3 ADD SWAP1 POP SWAP2 SWAP1 POP JUMP JUMPDEST PUSH1 0x0 PUSH2 0x22B2 DUP3 PUSH2 0x2223 JUMP JUMPDEST SWAP2 POP PUSH2 0x22BD DUP4 PUSH2 0x2223 JUMP JUMPDEST SWAP3 POP DUP3 PUSH2 0x22CD JUMPI PUSH2 0x22CC PUSH2 0x2307 JUMP JUMPDEST JUMPDEST DUP3 DUP3 MOD SWAP1 POP SWAP3 SWAP2 POP POP JUMP JUMPDEST PUSH32 0x4E487B7100000000000000000000000000000000000000000000000000000000 PUSH1 0x0 MSTORE PUSH1 0x11 PUSH1 0x4 MSTORE PUSH1 0x24 PUSH1 0x0 REVERT JUMPDEST PUSH32 0x4E487B7100000000000000000000000000000000000000000000000000000000 PUSH1 0x0 MSTORE PUSH1 0x12 PUSH1 0x4 MSTORE PUSH1 0x24 PUSH1 0x0 REVERT JUMPDEST PUSH32 0x4E487B7100000000000000000000000000000000000000000000000000000000 PUSH1 0x0 MSTORE PUSH1 0x32 PUSH1 0x4 MSTORE PUSH1 0x24 PUSH1 0x0 REVERT JUMPDEST PUSH32 0x4E487B7100000000000000000000000000000000000000000000000000000000 PUSH1 0x0 MSTORE PUSH1 0x41 PUSH1 0x4 MSTORE PUSH1 0x24 PUSH1 0x0 REVERT JUMPDEST PUSH1 0x0 DUP1 REVERT JUMPDEST PUSH1 0x0 DUP1 REVERT JUMPDEST PUSH1 0x0 DUP1 REVERT JUMPDEST PUSH1 0x0 DUP1 REVERT JUMPDEST PUSH1 0x0 PUSH1 0x1F NOT PUSH1 0x1F DUP4 ADD AND SWAP1 POP SWAP2 SWAP1 POP JUMP JUMPDEST PUSH2 0x23C2 DUP2 PUSH2 0x2223 JUMP JUMPDEST DUP2 EQ PUSH2 0x23CD JUMPI PUSH1 0x0 DUP1 REVERT JUMPDEST POP JUMP INVALID LOG2 PUSH5 0x6970667358 0x22 SLT KECCAK256 0xFB PUSH8 0xC42228BC73623CF9 DUP11 0xB4 SWAP11 0xCD 0xAA SELFDESTRUCT LOG1 0xCA JUMPDEST 0xE8 SWAP15 0xC 0x27 0xAD PUSH16 0xB294D2E0DBBE8D64736F6C6343000806 STOP CALLER "},"methodIdentifiers":{"decryption_rounds()":"8479e0d3","number_of_entities()":"89e3b0e5","number_of_features()":"85871e49","public_key(uint256)":"3de222ec","return_mu_random(string)":"ef5349d3","return_partial_decrypted_mu(string)":"dbcb1c44","return_submit_count(string)":"3470f117","return_varience_partial_decrypted(string)":"1c0b0b58","return_varience_random(string)":"0b9180c5","start_decryption()":"a261b04a","submit_decryption(uint256[2],uint256[2][2],uint256[2],uint256[],uint256[],uint256[],uint256[],uint256[2],string)":"6b437d3c","submit_entity(address)":"05db8c5a","submit_pubkey(uint256)":"1f1895d0","submit_update(uint256[2],uint256[2][2],uint256[2],uint256,uint256[][],uint256[][],uint256[][],uint256[][],string)":"bdb900fd"}}}}}