{"contracts/DVSC.sol":{"Verifier":{"abi":[{"inputs":[{"components":[{"components":[{"internalType":"uint256","name":"X","type":"uint256"},{"internalType":"uint256","name":"Y","type":"uint256"}],"internalType":"struct Pairing.G1Point","name":"a","type":"tuple"},{"components":[{"internalType":"uint256[2]","name":"X","type":"uint256[2]"},{"internalType":"uint256[2]","name":"Y","type":"uint256[2]"}],"internalType":"struct Pairing.G2Point","name":"b","type":"tuple"},{"components":[{"internalType":"uint256","name":"X","type":"uint256"},{"internalType":"uint256","name":"Y","type":"uint256"}],"internalType":"struct Pairing.G1Point","name":"c","type":"tuple"}],"internalType":"struct Verifier.Proof","name":"proof","type":"tuple"},{"internalType":"uint256[33]","name":"input","type":"uint256[33]"}],"name":"verifyTx","outputs":[{"internalType":"bool","name":"r","type":"bool"}],"stateMutability":"view","type":"function"}],"evm":{"bytecode":{"linkReferences":{},"object":"608060405234801561001057600080fd5b50612406806100206000396000f3fe608060405234801561001057600080fd5b506004361061002b5760003560e01c8063785b3bbb14610030575b600080fd5b61004a60048036038101906100459190612056565b610060565b60405161005791906120a7565b60405180910390f35b600080602167ffffffffffffffff81111561007e5761007d612365565b5b6040519080825280602002602001820160405280156100ac5781602001602082028036833780820191505090505b50905060005b6021811015610105578381602181106100ce576100cd612336565b5b60200201518282815181106100e6576100e5612336565b5b60200260200101818152505080806100fd9061225e565b9150506100b2565b506000610112828661012e565b1415610122576001915050610128565b60009150505b92915050565b6000807f30644e72e131a029b85045b68181585d2833e84879b9709143e1f593f00000019050600061015e6102c5565b9050806080015151600186516101749190612133565b1461017e57600080fd5b60006040518060400160405280600081526020016000815250905060005b865181101561023757838782815181106101b9576101b8612336565b5b6020026020010151106101cb57600080fd5b6102228261021d85608001516001856101e49190612133565b815181106101f5576101f4612336565b5b60200260200101518a85815181106102105761020f612336565b5b60200260200101516115c8565b61166f565b9150808061022f9061225e565b91505061019c565b5061026181836080015160008151811061025457610253612336565b5b602002602001015161166f565b90506102a7856000015186602001516102798461173c565b856040015161028b8a6040015161173c565b876060015161029d896000015161173c565b89602001516117e1565b6102b757600193505050506102bf565b600093505050505b92915050565b6102cd611d09565b60405180604001604052807f2a63d23b73c06cb185f8d617ed33ad8daf0db004855df5cc82b3692252ad2c6781526020017e73781c2b2844f8085a11f5f39adebdc629ec9abd6f211e3c8951231ae492608152508160000181905250604051806040016040528060405180604001604052807f1dd2eca2478eb684b7f42b5b8cc53eb24b98f40b42a20fa10f0e41045028230e81526020017f1915be54b6575eb81115c81e7b3cf5daa922865167ad1a6ba7d2637bd3e40783815250815260200160405180604001604052807f2135b30dd846e6408fd4ece3ee713fa287eba621dc3bcf421b85c996edc106d681526020017f0ba4e5b6b1a87cd644aee2c9e9d3d2e1c4fb8dd0d45d5ab60732a4bebd4e36908152508152508160200181905250604051806040016040528060405180604001604052807f27b28f604ff94891ea99a5deecdbd53eff7d2601ae7dfa4c95bf5a3565e0bb9981526020017f2b11b8ba434b191238c07cda3e96eb732aa5ccb9258bfd08497f75ac41489041815250815260200160405180604001604052807f02afe96e9def68cc5e167f2aaff8943aed7a1bb4b393ac094792a9215df50b2d81526020017f0a64e5e37ed6f982833722ec4ea8f2da6bfcc0a2ba9d51c566d8b0ad5221727f8152508152508160400181905250604051806040016040528060405180604001604052807f1d67cc90eb20d8ebe3e6c0b9edc307a1176b1f89dc846b84e067cac2e6ae375d81526020017f29b194f7451933b938157f0c3a495e57ba10a0042e6452ca8b09441441543689815250815260200160405180604001604052807f0dad938f2366792f6a4a17310b992076c0bf350c1a5c961721eb58e683ff580781526020017f1b00f1ffbff7a21a69ff52007686fc23f5fed44f6ef857f5fab2146f6d1b56b78152508152508160600181905250602267ffffffffffffffff81111561059357610592612365565b5b6040519080825280602002602001820160405280156105cc57816020015b6105b9611d50565b8152602001906001900390816105b15790505b50816080018190525060405180604001604052807f1050789e17da5095992ce0fa14c3d9606e3250302f435c870f27e80fc4016fe881526020017f2900a5c597acd2efcd676a8092beb851f28d9042eec9d34b467db0c43a83fa1b815250816080015160008151811061064257610641612336565b5b602002602001018190525060405180604001604052807f23b85222953afca2e33feff9d8b608c82c47259761229254f8666a46c9e36ccd81526020017f2915da4eabc247ce5dd5f2746e0d9f120343ca573c90a2a9b4f47cbe29db80d181525081608001516001815181106106ba576106b9612336565b5b602002602001018190525060405180604001604052807f087325d135f7165b54c79ec0200d14becb1f8641a473c9f8e3ecdf079399024181526020017f16eb1ff598f6c3a0576c99479046ec3d1efb9b248c7b78878e5543ca1433609b815250816080015160028151811061073257610731612336565b5b602002602001018190525060405180604001604052807f05cffb5652773375c6c5b324e2a18afce7079813bd53d75108a39962d6f67ecc81526020017f09d545d82f962db8f2752ee96832974a1b533a6f8f494c41f61782d80becefdc81525081608001516003815181106107aa576107a9612336565b5b602002602001018190525060405180604001604052807f2922a00cc8962a4e57b58cfe4e8bd1f1fefa8eb2b554d86e11847da205dd2f3381526020017f18bce3ed9ef21c85c49bae7ed20e5522a1312275c262b68dd854b84cf8a3f508815250816080015160048151811061082257610821612336565b5b602002602001018190525060405180604001604052807f264c152c47a0a94c583cc57bfe59f164ede5673d51b3eb8cf226bdd336ee354e81526020017f0e3511ba0b9aa6565c7faded32e2f2dbee74844c886c8a3bea8e8e87c2626835815250816080015160058151811061089a57610899612336565b5b602002602001018190525060405180604001604052807f153ecefd7044de6637e8485c6580109d54690e26303dbce2cf47eea1e9b531a081526020017f088a78674503f8d575fb5e83a85ea3eed0fa278b210d001116feea2caac274f1815250816080015160068151811061091257610911612336565b5b602002602001018190525060405180604001604052807f0f5d3f192f4af7a753ea3f799b560a5828ed21d10ea3b446186f11ec984c6d4c81526020017f2f053344241a55e0155098f93f518d3456cd6e8920cd04fd1002b3bb80dced9c815250816080015160078151811061098a57610989612336565b5b602002602001018190525060405180604001604052807f248b8ed7ab6976340153a956808103cd5b97cf5cf3b445a38c9e13de773f013381526020017f05f73a367ac56770a0ca8ed9268e8b11acaa2e39c3db6333c597bb21e9ac7d4c8152508160800151600881518110610a0257610a01612336565b5b602002602001018190525060405180604001604052807f100edea5a4595eb09b8cd5f4206354acc297bb203900ed4fe0a32046a73a508c81526020017f024c29ae50bd0c941dfba7fe9bcf2d97e593ec84195852f3beb689fd9873fd628152508160800151600981518110610a7a57610a79612336565b5b602002602001018190525060405180604001604052807f0c142a6ee4666975adf5ea2c787927fc281084ff88698ab17e2a74d34f73d5df81526020017f2283c79c85cac4359e7689a3094fb367f7a9b2ce1ffa1d9047af1159b220a5fb8152508160800151600a81518110610af257610af1612336565b5b602002602001018190525060405180604001604052807f05b8c3057af41a9331497bbc05a03925bf9d653127c53e50e9662fda45a73aa481526020017f0490dfcc2e3c792c2cedfed3245b203a349dc3311780547e87b476250b589a8e8152508160800151600b81518110610b6a57610b69612336565b5b602002602001018190525060405180604001604052807f2ede49217193cf92b82ed61b8abfb6ad1485481c2a21019aece206603d47427881526020017f28336d9709e72acd818153fc1225ec204d2b7a756b1a73760532727f36e25c508152508160800151600c81518110610be257610be1612336565b5b602002602001018190525060405180604001604052807f02dee14024f2c8d9a6cd34d82d74418d582434a75069430745fdaf238139cb4981526020017f0eb3512f56ae89d88fb72e4c7c3492c43f75dbfa56c1f037b8abc546e735c3bc8152508160800151600d81518110610c5a57610c59612336565b5b602002602001018190525060405180604001604052807f06165aa373ab626f5926f07e09587f4a2632ea7b5cf1edafd8a07e91d40fe2b381526020017f2a9baac92791e6e4a676dda2ab0990f6a7234e67c0fa11a0cd0c4e76be724a158152508160800151600e81518110610cd257610cd1612336565b5b602002602001018190525060405180604001604052807f097c1c400d1e82ad8bb62deaba0893f205c7bf815862bc12bdb00223ef5ab3eb81526020017f1f03bd81e810b991c095fcd822d54cd07ae45d01c32fc02b515331f685c3cceb8152508160800151600f81518110610d4a57610d49612336565b5b602002602001018190525060405180604001604052807f290d04fff212f268cc6544d8d60d452233ef7118519ac7e81879d8278a8039c581526020017f133d49b4ff993040bf66e0d7958b2cb4b6dae64065083f7fe606fe338d8814788152508160800151601081518110610dc257610dc1612336565b5b602002602001018190525060405180604001604052807f19d983664c236935647037c94fbdee36f5aeb9adcc5a4ce4fb40fbf212fb857581526020017f180d54c8a3d5ec0fa6e30a6108f14089be48828079fe10f6872b72c8c4c7faf88152508160800151601181518110610e3a57610e39612336565b5b602002602001018190525060405180604001604052807f1d8b2085f333c7dbc6e5d2bbd2bce114e6e5108aaac4059cc536e7ec5bf7ef7481526020017f1356c793e2e6794fa5e9a780893177bf39a38ac53eacc5adf526ed11944a77f38152508160800151601281518110610eb257610eb1612336565b5b602002602001018190525060405180604001604052807f2d403f8bf3d04339662098f3bd249b4d527aadffa48b91017cc2e612a5f9cbde81526020017f21ff7d19716f78004e0dee01def1b4280df7f1687b7ff689e27a1474e53b6e268152508160800151601381518110610f2a57610f29612336565b5b602002602001018190525060405180604001604052807f1a21a1c67fac300309783a5e6e901a23bca77967892099a11ab97c2af82cd15281526020017f06871456744cbc9d0ccee1e0eaf32910b827e7d5ea752fab4035696248fb9f7c8152508160800151601481518110610fa257610fa1612336565b5b602002602001018190525060405180604001604052807f18d6f0a06e2e51a63b1a1f6e3c1322cf6733ee7b71a97b1710902fe11009fa6281526020017f067223512f6a145c9b1b3e9477a86c3b919af782e82062304a25eba2198e5425815250816080015160158151811061101a57611019612336565b5b602002602001018190525060405180604001604052807f281e5a721a7b2089ded6f571bbfd626b43a7a89c13e43c31016a77c255fd9ceb81526020017f12ac41adc09f8b58e070d11427443579b1130dbabe7b917bf4233ca04be1e2cb815250816080015160168151811061109257611091612336565b5b602002602001018190525060405180604001604052807f09927a93362a656a1edf6eb9ab3e2d0aaad1739d963bc6006d29faddf2319c3081526020017f05f711159f8ec77cae2a7024b3a0c87c60a729b6e500e7a9062a4d7f1900ffda815250816080015160178151811061110a57611109612336565b5b602002602001018190525060405180604001604052807f0d3a3aa4939c54d4a2969b82d7fe887292abbbf97c8cacf11ef627af26f5524981526020017f015d52ea4de2aab02c1b368b39ce4a29e22be80ee5303d255336abc943075daf815250816080015160188151811061118257611181612336565b5b602002602001018190525060405180604001604052807f23720766db07869b28a9e56828fe077a44823cfcf38c7f2067c9cbe0bbf8a2e381526020017f1fa3617ceda16f3430c5eac9dc0a0804b76de5ddd13b18eb363f8b79970f248881525081608001516019815181106111fa576111f9612336565b5b602002602001018190525060405180604001604052807f0339fd49153de4b518c81f41c9d3b6e26f7fb5c04376809aa73cf136d0b31d6381526020017f057eda5fe20151b9c2968d88caadb95ae55fa08e4e08cea60af3daf50b2eaba08152508160800151601a8151811061127257611271612336565b5b602002602001018190525060405180604001604052807f2f21fa3bf197c3c5705992014d735584b103d2f1afc16e59909dd219e0dd265881526020017f10ef793ea0cf315ce09413fceb535e456c53226bbd1517ff56f6d156423054868152508160800151601b815181106112ea576112e9612336565b5b602002602001018190525060405180604001604052807f284e354e590341d41ab0dce79c54d0893264de6dfbf0bc55f5a8aa93334b3b7a81526020017f054881b94faf9c2922a2b2e03172ac3aa6be6330611c841cc7d7951a745c3cab8152508160800151601c8151811061136257611361612336565b5b602002602001018190525060405180604001604052807f227333b130805633fcf82b73ce18c252a331a1a276af73821e609a93d2cd6eea81526020017f066e1e65b26b67cd60dc737d00613d91e4d3467d463186c9eac4f92dcaeba9b38152508160800151601d815181106113da576113d9612336565b5b602002602001018190525060405180604001604052807f0f6de914601575b0ce472c583a73af6df2af9e6691f07f511030e97966d1174e81526020017f279a582c4af9ad3e426c5337b2c3d53641199c757528f41102d20235ecbca2f48152508160800151601e8151811061145257611451612336565b5b602002602001018190525060405180604001604052807f03df20cace11d046cc9ce0155659e0c2d7fbfd52f208def0858d26ab257438d981526020017f1b80cea26b93b76a613a181755c9290fd9bd421c3c30ab61500c8cc34b5cf5b98152508160800151601f815181106114ca576114c9612336565b5b602002602001018190525060405180604001604052807f1052f5eaf9664b45b32f7d026b2451d9eec6235d057a128ab61a156a0ec726ed81526020017f2edd3531e416acbf922e8a7f8c5f766aacdc8cd437caff568bf11c65c9360875815250816080015160208151811061154257611541612336565b5b602002602001018190525060405180604001604052807f1d7b1bbe68b78bb941bc429f4e26b99255ba58b20ddb9b5bc3412897d89a074081526020017f0a9cf1ac405aef37867b3d0e4efe733fae8afde0b9bc4be1fca31e5283a2deba81525081608001516021815181106115ba576115b9612336565b5b602002602001018190525090565b6115d0611d50565b6115d8611d6a565b8360000151816000600381106115f1576115f0612336565b5b60200201818152505083602001518160016003811061161357611612612336565b5b602002018181525050828160026003811061163157611630612336565b5b602002018181525050600060608360808460076107d05a03fa9050806000811461165a5761165c565bfe5b508061166757600080fd5b505092915050565b611677611d50565b61167f611d8c565b83600001518160006004811061169857611697612336565b5b6020020181815250508360200151816001600481106116ba576116b9612336565b5b6020020181815250508260000151816002600481106116dc576116db612336565b5b6020020181815250508260200151816003600481106116fe576116fd612336565b5b602002018181525050600060608360c08460066107d05a03fa9050806000811461172757611729565bfe5b508061173457600080fd5b505092915050565b611744611d50565b60007f30644e72e131a029b85045b68181585d97816a916871ca8d3c208c16d87cfd47905060008360000151148015611781575060008360200151145b156117a55760405180604001604052806000815260200160008152509150506117dc565b6040518060400160405280846000015181526020018285602001516117ca91906122a7565b836117d591906121e3565b8152509150505b919050565b600080600467ffffffffffffffff8111156117ff576117fe612365565b5b60405190808252806020026020018201604052801561183857816020015b611825611d50565b81526020019060019003908161181d5790505b5090506000600467ffffffffffffffff81111561185857611857612365565b5b60405190808252806020026020018201604052801561189157816020015b61187e611dae565b8152602001906001900390816118765790505b5090508a826000815181106118a9576118a8612336565b5b602002602001018190525088826001815181106118c9576118c8612336565b5b602002602001018190525086826002815181106118e9576118e8612336565b5b6020026020010181905250848260038151811061190957611908612336565b5b6020026020010181905250898160008151811061192957611928612336565b5b6020026020010181905250878160018151811061194957611948612336565b5b6020026020010181905250858160028151811061196957611968612336565b5b6020026020010181905250838160038151811061198957611988612336565b5b602002602001018190525061199e82826119ae565b9250505098975050505050505050565b600081518351146119be57600080fd5b60008351905060006006826119d39190612189565b905060008167ffffffffffffffff8111156119f1576119f0612365565b5b604051908082528060200260200182016040528015611a1f5781602001602082028036833780820191505090505b50905060005b83811015611ca457868181518110611a4057611a3f612336565b5b602002602001015160000151826000600684611a5c9190612189565b611a669190612133565b81518110611a7757611a76612336565b5b602002602001018181525050868181518110611a9657611a95612336565b5b602002602001015160200151826001600684611ab29190612189565b611abc9190612133565b81518110611acd57611acc612336565b5b602002602001018181525050858181518110611aec57611aeb612336565b5b602002602001015160000151600160028110611b0b57611b0a612336565b5b6020020151826002600684611b209190612189565b611b2a9190612133565b81518110611b3b57611b3a612336565b5b602002602001018181525050858181518110611b5a57611b59612336565b5b602002602001015160000151600060028110611b7957611b78612336565b5b6020020151826003600684611b8e9190612189565b611b989190612133565b81518110611ba957611ba8612336565b5b602002602001018181525050858181518110611bc857611bc7612336565b5b602002602001015160200151600160028110611be757611be6612336565b5b6020020151826004600684611bfc9190612189565b611c069190612133565b81518110611c1757611c16612336565b5b602002602001018181525050858181518110611c3657611c35612336565b5b602002602001015160200151600060028110611c5557611c54612336565b5b6020020151826005600684611c6a9190612189565b611c749190612133565b81518110611c8557611c84612336565b5b6020026020010181815250508080611c9c9061225e565b915050611a25565b50611cad611dd4565b6000602082602086026020860160086107d05a03fa90508060008114611cd257611cd4565bfe5b5080611cdf57600080fd5b600082600060018110611cf557611cf4612336565b5b602002015114159550505050505092915050565b6040518060a00160405280611d1c611d50565b8152602001611d29611dae565b8152602001611d36611dae565b8152602001611d43611dae565b8152602001606081525090565b604051806040016040528060008152602001600081525090565b6040518060600160405280600390602082028036833780820191505090505090565b6040518060800160405280600490602082028036833780820191505090505090565b6040518060400160405280611dc1611df6565b8152602001611dce611df6565b81525090565b6040518060200160405280600190602082028036833780820191505090505090565b6040518060400160405280600290602082028036833780820191505090505090565b6000611e2b611e26846120e7565b6120c2565b90508082856020860282011115611e4557611e4461239e565b5b60005b85811015611e755781611e5b8882612041565b845260208401935060208301925050600181019050611e48565b5050509392505050565b6000611e92611e8d8461210d565b6120c2565b90508082856020860282011115611eac57611eab61239e565b5b60005b85811015611edc5781611ec28882612041565b845260208401935060208301925050600181019050611eaf565b5050509392505050565b600082601f830112611efb57611efa612394565b5b6002611f08848285611e18565b91505092915050565b600082601f830112611f2657611f25612394565b5b6021611f33848285611e7f565b91505092915050565b600060408284031215611f5257611f51612399565b5b611f5c60406120c2565b90506000611f6c84828501612041565b6000830152506020611f8084828501612041565b60208301525092915050565b600060808284031215611fa257611fa1612399565b5b611fac60406120c2565b90506000611fbc84828501611ee6565b6000830152506040611fd084828501611ee6565b60208301525092915050565b60006101008284031215611ff357611ff2612399565b5b611ffd60606120c2565b9050600061200d84828501611f3c565b600083015250604061202184828501611f8c565b60208301525060c061203584828501611f3c565b60408301525092915050565b600081359050612050816123b9565b92915050565b600080610520838503121561206e5761206d6123a3565b5b600061207c85828601611fdc565b92505061010061208e85828601611f11565b9150509250929050565b6120a181612217565b82525050565b60006020820190506120bc6000830184612098565b92915050565b60006120cc6120dd565b90506120d8828261222d565b919050565b6000604051905090565b600067ffffffffffffffff82111561210257612101612365565b5b602082029050919050565b600067ffffffffffffffff82111561212857612127612365565b5b602082029050919050565b600061213e82612223565b915061214983612223565b9250827fffffffffffffffffffffffffffffffffffffffffffffffffffffffffffffffff0382111561217e5761217d6122d8565b5b828201905092915050565b600061219482612223565b915061219f83612223565b9250817fffffffffffffffffffffffffffffffffffffffffffffffffffffffffffffffff04831182151516156121d8576121d76122d8565b5b828202905092915050565b60006121ee82612223565b91506121f983612223565b92508282101561220c5761220b6122d8565b5b828203905092915050565b60008115159050919050565b6000819050919050565b612236826123a8565b810181811067ffffffffffffffff8211171561225557612254612365565b5b80604052505050565b600061226982612223565b91507fffffffffffffffffffffffffffffffffffffffffffffffffffffffffffffffff82141561229c5761229b6122d8565b5b600182019050919050565b60006122b282612223565b91506122bd83612223565b9250826122cd576122cc612307565b5b828206905092915050565b7f4e487b7100000000000000000000000000000000000000000000000000000000600052601160045260246000fd5b7f4e487b7100000000000000000000000000000000000000000000000000000000600052601260045260246000fd5b7f4e487b7100000000000000000000000000000000000000000000000000000000600052603260045260246000fd5b7f4e487b7100000000000000000000000000000000000000000000000000000000600052604160045260246000fd5b600080fd5b600080fd5b600080fd5b600080fd5b6000601f19601f8301169050919050565b6123c281612223565b81146123cd57600080fd5b5056fea26469706673582212205d8d54b620aabe9400392ef1bb54e12aec7ce2483f0a6e9c563d182984aa292864736f6c63430008060033","opcodes":"PUSH1 0x80 PUSH1 0x40 MSTORE CALLVALUE DUP1 ISZERO PUSH2 0x10 JUMPI PUSH1 0x0 DUP1 REVERT JUMPDEST POP PUSH2 0x2406 DUP1 PUSH2 0x20 PUSH1 0x0 CODECOPY PUSH1 0x0 RETURN INVALID PUSH1 0x80 PUSH1 0x40 MSTORE CALLVALUE DUP1 ISZERO PUSH2 0x10 JUMPI PUSH1 0x0 DUP1 REVERT JUMPDEST POP PUSH1 0x4 CALLDATASIZE LT PUSH2 0x2B JUMPI PUSH1 0x0 CALLDATALOAD PUSH1 0xE0 SHR DUP1 PUSH4 0x785B3BBB EQ PUSH2 0x30 JUMPI JUMPDEST PUSH1 0x0 DUP1 REVERT JUMPDEST PUSH2 0x4A PUSH1 0x4 DUP1 CALLDATASIZE SUB DUP2 ADD SWAP1 PUSH2 0x45 SWAP2 SWAP1 PUSH2 0x2056 JUMP JUMPDEST PUSH2 0x60 JUMP JUMPDEST PUSH1 0x40 MLOAD PUSH2 0x57 SWAP2 SWAP1 PUSH2 0x20A7 JUMP JUMPDEST PUSH1 0x40 MLOAD DUP1 SWAP2 SUB SWAP1 RETURN JUMPDEST PUSH1 0x0 DUP1 PUSH1 0x21 PUSH8 0xFFFFFFFFFFFFFFFF DUP2 GT ISZERO PUSH2 0x7E JUMPI PUSH2 0x7D PUSH2 0x2365 JUMP JUMPDEST JUMPDEST PUSH1 0x40 MLOAD SWAP1 DUP1 DUP3 MSTORE DUP1 PUSH1 0x20 MUL PUSH1 0x20 ADD DUP3 ADD PUSH1 0x40 MSTORE DUP1 ISZERO PUSH2 0xAC JUMPI DUP2 PUSH1 0x20 ADD PUSH1 0x20 DUP3 MUL DUP1 CALLDATASIZE DUP4 CALLDATACOPY DUP1 DUP3 ADD SWAP2 POP POP SWAP1 POP JUMPDEST POP SWAP1 POP PUSH1 0x0 JUMPDEST PUSH1 0x21 DUP2 LT ISZERO PUSH2 0x105 JUMPI DUP4 DUP2 PUSH1 0x21 DUP2 LT PUSH2 0xCE JUMPI PUSH2 0xCD PUSH2 0x2336 JUMP JUMPDEST JUMPDEST PUSH1 0x20 MUL ADD MLOAD DUP3 DUP3 DUP2 MLOAD DUP2 LT PUSH2 0xE6 JUMPI PUSH2 0xE5 PUSH2 0x2336 JUMP JUMPDEST JUMPDEST PUSH1 0x20 MUL PUSH1 0x20 ADD ADD DUP2 DUP2 MSTORE POP POP DUP1 DUP1 PUSH2 0xFD SWAP1 PUSH2 0x225E JUMP JUMPDEST SWAP2 POP POP PUSH2 0xB2 JUMP JUMPDEST POP PUSH1 0x0 PUSH2 0x112 DUP3 DUP7 PUSH2 0x12E JUMP JUMPDEST EQ ISZERO PUSH2 0x122 JUMPI PUSH1 0x1 SWAP2 POP POP PUSH2 0x128 JUMP JUMPDEST PUSH1 0x0 SWAP2 POP POP JUMPDEST SWAP3 SWAP2 POP POP JUMP JUMPDEST PUSH1 0x0 DUP1 PUSH32 0x30644E72E131A029B85045B68181585D2833E84879B9709143E1F593F0000001 SWAP1 POP PUSH1 0x0 PUSH2 0x15E PUSH2 0x2C5 JUMP JUMPDEST SWAP1 POP DUP1 PUSH1 0x80 ADD MLOAD MLOAD PUSH1 0x1 DUP7 MLOAD PUSH2 0x174 SWAP2 SWAP1 PUSH2 0x2133 JUMP JUMPDEST EQ PUSH2 0x17E JUMPI PUSH1 0x0 DUP1 REVERT JUMPDEST PUSH1 0x0 PUSH1 0x40 MLOAD DUP1 PUSH1 0x40 ADD PUSH1 0x40 MSTORE DUP1 PUSH1 0x0 DUP2 MSTORE PUSH1 0x20 ADD PUSH1 0x0 DUP2 MSTORE POP SWAP1 POP PUSH1 0x0 JUMPDEST DUP7 MLOAD DUP2 LT ISZERO PUSH2 0x237 JUMPI DUP4 DUP8 DUP3 DUP2 MLOAD DUP2 LT PUSH2 0x1B9 JUMPI PUSH2 0x1B8 PUSH2 0x2336 JUMP JUMPDEST JUMPDEST PUSH1 0x20 MUL PUSH1 0x20 ADD ADD MLOAD LT PUSH2 0x1CB JUMPI PUSH1 0x0 DUP1 REVERT JUMPDEST PUSH2 0x222 DUP3 PUSH2 0x21D DUP6 PUSH1 0x80 ADD MLOAD PUSH1 0x1 DUP6 PUSH2 0x1E4 SWAP2 SWAP1 PUSH2 0x2133 JUMP JUMPDEST DUP2 MLOAD DUP2 LT PUSH2 0x1F5 JUMPI PUSH2 0x1F4 PUSH2 0x2336 JUMP JUMPDEST JUMPDEST PUSH1 0x20 MUL PUSH1 0x20 ADD ADD MLOAD DUP11 DUP6 DUP2 MLOAD DUP2 LT PUSH2 0x210 JUMPI PUSH2 0x20F PUSH2 0x2336 JUMP JUMPDEST JUMPDEST PUSH1 0x20 MUL PUSH1 0x20 ADD ADD MLOAD PUSH2 0x15C8 JUMP JUMPDEST PUSH2 0x166F JUMP JUMPDEST SWAP2 POP DUP1 DUP1 PUSH2 0x22F SWAP1 PUSH2 0x225E JUMP JUMPDEST SWAP2 POP POP PUSH2 0x19C JUMP JUMPDEST POP PUSH2 0x261 DUP2 DUP4 PUSH1 0x80 ADD MLOAD PUSH1 0x0 DUP2 MLOAD DUP2 LT PUSH2 0x254 JUMPI PUSH2 0x253 PUSH2 0x2336 JUMP JUMPDEST JUMPDEST PUSH1 0x20 MUL PUSH1 0x20 ADD ADD MLOAD PUSH2 0x166F JUMP JUMPDEST SWAP1 POP PUSH2 0x2A7 DUP6 PUSH1 0x0 ADD MLOAD DUP7 PUSH1 0x20 ADD MLOAD PUSH2 0x279 DUP5 PUSH2 0x173C JUMP JUMPDEST DUP6 PUSH1 0x40 ADD MLOAD PUSH2 0x28B DUP11 PUSH1 0x40 ADD MLOAD PUSH2 0x173C JUMP JUMPDEST DUP8 PUSH1 0x60 ADD MLOAD PUSH2 0x29D DUP10 PUSH1 0x0 ADD MLOAD PUSH2 0x173C JUMP JUMPDEST DUP10 PUSH1 0x20 ADD MLOAD PUSH2 0x17E1 JUMP JUMPDEST PUSH2 0x2B7 JUMPI PUSH1 0x1 SWAP4 POP POP POP POP PUSH2 0x2BF JUMP JUMPDEST PUSH1 0x0 SWAP4 POP POP POP POP JUMPDEST SWAP3 SWAP2 POP POP JUMP JUMPDEST PUSH2 0x2CD PUSH2 0x1D09 JUMP JUMPDEST PUSH1 0x40 MLOAD DUP1 PUSH1 0x40 ADD PUSH1 0x40 MSTORE DUP1 PUSH32 0x2A63D23B73C06CB185F8D617ED33AD8DAF0DB004855DF5CC82B3692252AD2C67 DUP2 MSTORE PUSH1 0x20 ADD PUSH31 0x73781C2B2844F8085A11F5F39ADEBDC629EC9ABD6F211E3C8951231AE49260 DUP2 MSTORE POP DUP2 PUSH1 0x0 ADD DUP2 SWAP1 MSTORE POP PUSH1 0x40 MLOAD DUP1 PUSH1 0x40 ADD PUSH1 0x40 MSTORE DUP1 PUSH1 0x40 MLOAD DUP1 PUSH1 0x40 ADD PUSH1 0x40 MSTORE DUP1 PUSH32 0x1DD2ECA2478EB684B7F42B5B8CC53EB24B98F40B42A20FA10F0E41045028230E DUP2 MSTORE PUSH1 0x20 ADD PUSH32 0x1915BE54B6575EB81115C81E7B3CF5DAA922865167AD1A6BA7D2637BD3E40783 DUP2 MSTORE POP DUP2 MSTORE PUSH1 0x20 ADD PUSH1 0x40 MLOAD DUP1 PUSH1 0x40 ADD PUSH1 0x40 MSTORE DUP1 PUSH32 0x2135B30DD846E6408FD4ECE3EE713FA287EBA621DC3BCF421B85C996EDC106D6 DUP2 MSTORE PUSH1 0x20 ADD PUSH32 0xBA4E5B6B1A87CD644AEE2C9E9D3D2E1C4FB8DD0D45D5AB60732A4BEBD4E3690 DUP2 MSTORE POP DUP2 MSTORE POP DUP2 PUSH1 0x20 ADD DUP2 SWAP1 MSTORE POP PUSH1 0x40 MLOAD DUP1 PUSH1 0x40 ADD PUSH1 0x40 MSTORE DUP1 PUSH1 0x40 MLOAD DUP1 PUSH1 0x40 ADD PUSH1 0x40 MSTORE DUP1 PUSH32 0x27B28F604FF94891EA99A5DEECDBD53EFF7D2601AE7DFA4C95BF5A3565E0BB99 DUP2 MSTORE PUSH1 0x20 ADD PUSH32 0x2B11B8BA434B191238C07CDA3E96EB732AA5CCB9258BFD08497F75AC41489041 DUP2 MSTORE POP DUP2 MSTORE PUSH1 0x20 ADD PUSH1 0x40 MLOAD DUP1 PUSH1 0x40 ADD PUSH1 0x40 MSTORE DUP1 PUSH32 0x2AFE96E9DEF68CC5E167F2AAFF8943AED7A1BB4B393AC094792A9215DF50B2D DUP2 MSTORE PUSH1 0x20 ADD PUSH32 0xA64E5E37ED6F982833722EC4EA8F2DA6BFCC0A2BA9D51C566D8B0AD5221727F DUP2 MSTORE POP DUP2 MSTORE POP DUP2 PUSH1 0x40 ADD DUP2 SWAP1 MSTORE POP PUSH1 0x40 MLOAD DUP1 PUSH1 0x40 ADD PUSH1 0x40 MSTORE DUP1 PUSH1 0x40 MLOAD DUP1 PUSH1 0x40 ADD PUSH1 0x40 MSTORE DUP1 PUSH32 0x1D67CC90EB20D8EBE3E6C0B9EDC307A1176B1F89DC846B84E067CAC2E6AE375D DUP2 MSTORE PUSH1 0x20 ADD PUSH32 0x29B194F7451933B938157F0C3A495E57BA10A0042E6452CA8B09441441543689 DUP2 MSTORE POP DUP2 MSTORE PUSH1 0x20 ADD PUSH1 0x40 MLOAD DUP1 PUSH1 0x40 ADD PUSH1 0x40 MSTORE DUP1 PUSH32 0xDAD938F2366792F6A4A17310B992076C0BF350C1A5C961721EB58E683FF5807 DUP2 MSTORE PUSH1 0x20 ADD PUSH32 0x1B00F1FFBFF7A21A69FF52007686FC23F5FED44F6EF857F5FAB2146F6D1B56B7 DUP2 MSTORE POP DUP2 MSTORE POP DUP2 PUSH1 0x60 ADD DUP2 SWAP1 MSTORE POP PUSH1 0x22 PUSH8 0xFFFFFFFFFFFFFFFF DUP2 GT ISZERO PUSH2 0x593 JUMPI PUSH2 0x592 PUSH2 0x2365 JUMP JUMPDEST JUMPDEST PUSH1 0x40 MLOAD SWAP1 DUP1 DUP3 MSTORE DUP1 PUSH1 0x20 MUL PUSH1 0x20 ADD DUP3 ADD PUSH1 0x40 MSTORE DUP1 ISZERO PUSH2 0x5CC JUMPI DUP2 PUSH1 0x20 ADD JUMPDEST PUSH2 0x5B9 PUSH2 0x1D50 JUMP JUMPDEST DUP2 MSTORE PUSH1 0x20 ADD SWAP1 PUSH1 0x1 SWAP1 SUB SWAP1 DUP2 PUSH2 0x5B1 JUMPI SWAP1 POP JUMPDEST POP DUP2 PUSH1 0x80 ADD DUP2 SWAP1 MSTORE POP PUSH1 0x40 MLOAD DUP1 PUSH1 0x40 ADD PUSH1 0x40 MSTORE DUP1 PUSH32 0x1050789E17DA5095992CE0FA14C3D9606E3250302F435C870F27E80FC4016FE8 DUP2 MSTORE PUSH1 0x20 ADD PUSH32 0x2900A5C597ACD2EFCD676A8092BEB851F28D9042EEC9D34B467DB0C43A83FA1B DUP2 MSTORE POP DUP2 PUSH1 0x80 ADD MLOAD PUSH1 0x0 DUP2 MLOAD DUP2 LT PUSH2 0x642 JUMPI PUSH2 0x641 PUSH2 0x2336 JUMP JUMPDEST JUMPDEST PUSH1 0x20 MUL PUSH1 0x20 ADD ADD DUP2 SWAP1 MSTORE POP PUSH1 0x40 MLOAD DUP1 PUSH1 0x40 ADD PUSH1 0x40 MSTORE DUP1 PUSH32 0x23B85222953AFCA2E33FEFF9D8B608C82C47259761229254F8666A46C9E36CCD DUP2 MSTORE PUSH1 0x20 ADD PUSH32 0x2915DA4EABC247CE5DD5F2746E0D9F120343CA573C90A2A9B4F47CBE29DB80D1 DUP2 MSTORE POP DUP2 PUSH1 0x80 ADD MLOAD PUSH1 0x1 DUP2 MLOAD DUP2 LT PUSH2 0x6BA JUMPI PUSH2 0x6B9 PUSH2 0x2336 JUMP JUMPDEST JUMPDEST PUSH1 0x20 MUL PUSH1 0x20 ADD ADD DUP2 SWAP1 MSTORE POP PUSH1 0x40 MLOAD DUP1 PUSH1 0x40 ADD PUSH1 0x40 MSTORE DUP1 PUSH32 0x87325D135F7165B54C79EC0200D14BECB1F8641A473C9F8E3ECDF0793990241 DUP2 MSTORE PUSH1 0x20 ADD PUSH32 0x16EB1FF598F6C3A0576C99479046EC3D1EFB9B248C7B78878E5543CA1433609B DUP2 MSTORE POP DUP2 PUSH1 0x80 ADD MLOAD PUSH1 0x2 DUP2 MLOAD DUP2 LT PUSH2 0x732 JUMPI PUSH2 0x731 PUSH2 0x2336 JUMP JUMPDEST JUMPDEST PUSH1 0x20 MUL PUSH1 0x20 ADD ADD DUP2 SWAP1 MSTORE POP PUSH1 0x40 MLOAD DUP1 PUSH1 0x40 ADD PUSH1 0x40 MSTORE DUP1 PUSH32 0x5CFFB5652773375C6C5B324E2A18AFCE7079813BD53D75108A39962D6F67ECC DUP2 MSTORE PUSH1 0x20 ADD PUSH32 0x9D545D82F962DB8F2752EE96832974A1B533A6F8F494C41F61782D80BECEFDC DUP2 MSTORE POP DUP2 PUSH1 0x80 ADD MLOAD PUSH1 0x3 DUP2 MLOAD DUP2 LT PUSH2 0x7AA JUMPI PUSH2 0x7A9 PUSH2 0x2336 JUMP JUMPDEST JUMPDEST PUSH1 0x20 MUL PUSH1 0x20 ADD ADD DUP2 SWAP1 MSTORE POP PUSH1 0x40 MLOAD DUP1 PUSH1 0x40 ADD PUSH1 0x40 MSTORE DUP1 PUSH32 0x2922A00CC8962A4E57B58CFE4E8BD1F1FEFA8EB2B554D86E11847DA205DD2F33 DUP2 MSTORE PUSH1 0x20 ADD PUSH32 0x18BCE3ED9EF21C85C49BAE7ED20E5522A1312275C262B68DD854B84CF8A3F508 DUP2 MSTORE POP DUP2 PUSH1 0x80 ADD MLOAD PUSH1 0x4 DUP2 MLOAD DUP2 LT PUSH2 0x822 JUMPI PUSH2 0x821 PUSH2 0x2336 JUMP JUMPDEST JUMPDEST PUSH1 0x20 MUL PUSH1 0x20 ADD ADD DUP2 SWAP1 MSTORE POP PUSH1 0x40 MLOAD DUP1 PUSH1 0x40 ADD PUSH1 0x40 MSTORE DUP1 PUSH32 0x264C152C47A0A94C583CC57BFE59F164EDE5673D51B3EB8CF226BDD336EE354E DUP2 MSTORE PUSH1 0x20 ADD PUSH32 0xE3511BA0B9AA6565C7FADED32E2F2DBEE74844C886C8A3BEA8E8E87C2626835 DUP2 MSTORE POP DUP2 PUSH1 0x80 ADD MLOAD PUSH1 0x5 DUP2 MLOAD DUP2 LT PUSH2 0x89A JUMPI PUSH2 0x899 PUSH2 0x2336 JUMP JUMPDEST JUMPDEST PUSH1 0x20 MUL PUSH1 0x20 ADD ADD DUP2 SWAP1 MSTORE POP PUSH1 0x40 MLOAD DUP1 PUSH1 0x40 ADD PUSH1 0x40 MSTORE DUP1 PUSH32 0x153ECEFD7044DE6637E8485C6580109D54690E26303DBCE2CF47EEA1E9B531A0 DUP2 MSTORE PUSH1 0x20 ADD PUSH32 0x88A78674503F8D575FB5E83A85EA3EED0FA278B210D001116FEEA2CAAC274F1 DUP2 MSTORE POP DUP2 PUSH1 0x80 ADD MLOAD PUSH1 0x6 DUP2 MLOAD DUP2 LT PUSH2 0x912 JUMPI PUSH2 0x911 PUSH2 0x2336 JUMP JUMPDEST JUMPDEST PUSH1 0x20 MUL PUSH1 0x20 ADD ADD DUP2 SWAP1 MSTORE POP PUSH1 0x40 MLOAD DUP1 PUSH1 0x40 ADD PUSH1 0x40 MSTORE DUP1 PUSH32 0xF5D3F192F4AF7A753EA3F799B560A5828ED21D10EA3B446186F11EC984C6D4C DUP2 MSTORE PUSH1 0x20 ADD PUSH32 0x2F053344241A55E0155098F93F518D3456CD6E8920CD04FD1002B3BB80DCED9C DUP2 MSTORE POP DUP2 PUSH1 0x80 ADD MLOAD PUSH1 0x7 DUP2 MLOAD DUP2 LT PUSH2 0x98A JUMPI PUSH2 0x989 PUSH2 0x2336 JUMP JUMPDEST JUMPDEST PUSH1 0x20 MUL PUSH1 0x20 ADD ADD DUP2 SWAP1 MSTORE POP PUSH1 0x40 MLOAD DUP1 PUSH1 0x40 ADD PUSH1 0x40 MSTORE DUP1 PUSH32 0x248B8ED7AB6976340153A956808103CD5B97CF5CF3B445A38C9E13DE773F0133 DUP2 MSTORE PUSH1 0x20 ADD PUSH32 0x5F73A367AC56770A0CA8ED9268E8B11ACAA2E39C3DB6333C597BB21E9AC7D4C DUP2 MSTORE POP DUP2 PUSH1 0x80 ADD MLOAD PUSH1 0x8 DUP2 MLOAD DUP2 LT PUSH2 0xA02 JUMPI PUSH2 0xA01 PUSH2 0x2336 JUMP JUMPDEST JUMPDEST PUSH1 0x20 MUL PUSH1 0x20 ADD ADD DUP2 SWAP1 MSTORE POP PUSH1 0x40 MLOAD DUP1 PUSH1 0x40 ADD PUSH1 0x40 MSTORE DUP1 PUSH32 0x100EDEA5A4595EB09B8CD5F4206354ACC297BB203900ED4FE0A32046A73A508C DUP2 MSTORE PUSH1 0x20 ADD PUSH32 0x24C29AE50BD0C941DFBA7FE9BCF2D97E593EC84195852F3BEB689FD9873FD62 DUP2 MSTORE POP DUP2 PUSH1 0x80 ADD MLOAD PUSH1 0x9 DUP2 MLOAD DUP2 LT PUSH2 0xA7A JUMPI PUSH2 0xA79 PUSH2 0x2336 JUMP JUMPDEST JUMPDEST PUSH1 0x20 MUL PUSH1 0x20 ADD ADD DUP2 SWAP1 MSTORE POP PUSH1 0x40 MLOAD DUP1 PUSH1 0x40 ADD PUSH1 0x40 MSTORE DUP1 PUSH32 0xC142A6EE4666975ADF5EA2C787927FC281084FF88698AB17E2A74D34F73D5DF DUP2 MSTORE PUSH1 0x20 ADD PUSH32 0x2283C79C85CAC4359E7689A3094FB367F7A9B2CE1FFA1D9047AF1159B220A5FB DUP2 MSTORE POP DUP2 PUSH1 0x80 ADD MLOAD PUSH1 0xA DUP2 MLOAD DUP2 LT PUSH2 0xAF2 JUMPI PUSH2 0xAF1 PUSH2 0x2336 JUMP JUMPDEST JUMPDEST PUSH1 0x20 MUL PUSH1 0x20 ADD ADD DUP2 SWAP1 MSTORE POP PUSH1 0x40 MLOAD DUP1 PUSH1 0x40 ADD PUSH1 0x40 MSTORE DUP1 PUSH32 0x5B8C3057AF41A9331497BBC05A03925BF9D653127C53E50E9662FDA45A73AA4 DUP2 MSTORE PUSH1 0x20 ADD PUSH32 0x490DFCC2E3C792C2CEDFED3245B203A349DC3311780547E87B476250B589A8E DUP2 MSTORE POP DUP2 PUSH1 0x80 ADD MLOAD PUSH1 0xB DUP2 MLOAD DUP2 LT PUSH2 0xB6A JUMPI PUSH2 0xB69 PUSH2 0x2336 JUMP JUMPDEST JUMPDEST PUSH1 0x20 MUL PUSH1 0x20 ADD ADD DUP2 SWAP1 MSTORE POP PUSH1 0x40 MLOAD DUP1 PUSH1 0x40 ADD PUSH1 0x40 MSTORE DUP1 PUSH32 0x2EDE49217193CF92B82ED61B8ABFB6AD1485481C2A21019AECE206603D474278 DUP2 MSTORE PUSH1 0x20 ADD PUSH32 0x28336D9709E72ACD818153FC1225EC204D2B7A756B1A73760532727F36E25C50 DUP2 MSTORE POP DUP2 PUSH1 0x80 ADD MLOAD PUSH1 0xC DUP2 MLOAD DUP2 LT PUSH2 0xBE2 JUMPI PUSH2 0xBE1 PUSH2 0x2336 JUMP JUMPDEST JUMPDEST PUSH1 0x20 MUL PUSH1 0x20 ADD ADD DUP2 SWAP1 MSTORE POP PUSH1 0x40 MLOAD DUP1 PUSH1 0x40 ADD PUSH1 0x40 MSTORE DUP1 PUSH32 0x2DEE14024F2C8D9A6CD34D82D74418D582434A75069430745FDAF238139CB49 DUP2 MSTORE PUSH1 0x20 ADD PUSH32 0xEB3512F56AE89D88FB72E4C7C3492C43F75DBFA56C1F037B8ABC546E735C3BC DUP2 MSTORE POP DUP2 PUSH1 0x80 ADD MLOAD PUSH1 0xD DUP2 MLOAD DUP2 LT PUSH2 0xC5A JUMPI PUSH2 0xC59 PUSH2 0x2336 JUMP JUMPDEST JUMPDEST PUSH1 0x20 MUL PUSH1 0x20 ADD ADD DUP2 SWAP1 MSTORE POP PUSH1 0x40 MLOAD DUP1 PUSH1 0x40 ADD PUSH1 0x40 MSTORE DUP1 PUSH32 0x6165AA373AB626F5926F07E09587F4A2632EA7B5CF1EDAFD8A07E91D40FE2B3 DUP2 MSTORE PUSH1 0x20 ADD PUSH32 0x2A9BAAC92791E6E4A676DDA2AB0990F6A7234E67C0FA11A0CD0C4E76BE724A15 DUP2 MSTORE POP DUP2 PUSH1 0x80 ADD MLOAD PUSH1 0xE DUP2 MLOAD DUP2 LT PUSH2 0xCD2 JUMPI PUSH2 0xCD1 PUSH2 0x2336 JUMP JUMPDEST JUMPDEST PUSH1 0x20 MUL PUSH1 0x20 ADD ADD DUP2 SWAP1 MSTORE POP PUSH1 0x40 MLOAD DUP1 PUSH1 0x40 ADD PUSH1 0x40 MSTORE DUP1 PUSH32 0x97C1C400D1E82AD8BB62DEABA0893F205C7BF815862BC12BDB00223EF5AB3EB DUP2 MSTORE PUSH1 0x20 ADD PUSH32 0x1F03BD81E810B991C095FCD822D54CD07AE45D01C32FC02B515331F685C3CCEB DUP2 MSTORE POP DUP2 PUSH1 0x80 ADD MLOAD PUSH1 0xF DUP2 MLOAD DUP2 LT PUSH2 0xD4A JUMPI PUSH2 0xD49 PUSH2 0x2336 JUMP JUMPDEST JUMPDEST PUSH1 0x20 MUL PUSH1 0x20 ADD ADD DUP2 SWAP1 MSTORE POP PUSH1 0x40 MLOAD DUP1 PUSH1 0x40 ADD PUSH1 0x40 MSTORE DUP1 PUSH32 0x290D04FFF212F268CC6544D8D60D452233EF7118519AC7E81879D8278A8039C5 DUP2 MSTORE PUSH1 0x20 ADD PUSH32 0x133D49B4FF993040BF66E0D7958B2CB4B6DAE64065083F7FE606FE338D881478 DUP2 MSTORE POP DUP2 PUSH1 0x80 ADD MLOAD PUSH1 0x10 DUP2 MLOAD DUP2 LT PUSH2 0xDC2 JUMPI PUSH2 0xDC1 PUSH2 0x2336 JUMP JUMPDEST JUMPDEST PUSH1 0x20 MUL PUSH1 0x20 ADD ADD DUP2 SWAP1 MSTORE POP PUSH1 0x40 MLOAD DUP1 PUSH1 0x40 ADD PUSH1 0x40 MSTORE DUP1 PUSH32 0x19D983664C236935647037C94FBDEE36F5AEB9ADCC5A4CE4FB40FBF212FB8575 DUP2 MSTORE PUSH1 0x20 ADD PUSH32 0x180D54C8A3D5EC0FA6E30A6108F14089BE48828079FE10F6872B72C8C4C7FAF8 DUP2 MSTORE POP DUP2 PUSH1 0x80 ADD MLOAD PUSH1 0x11 DUP2 MLOAD DUP2 LT PUSH2 0xE3A JUMPI PUSH2 0xE39 PUSH2 0x2336 JUMP JUMPDEST JUMPDEST PUSH1 0x20 MUL PUSH1 0x20 ADD ADD DUP2 SWAP1 MSTORE POP PUSH1 0x40 MLOAD DUP1 PUSH1 0x40 ADD PUSH1 0x40 MSTORE DUP1 PUSH32 0x1D8B2085F333C7DBC6E5D2BBD2BCE114E6E5108AAAC4059CC536E7EC5BF7EF74 DUP2 MSTORE PUSH1 0x20 ADD PUSH32 0x1356C793E2E6794FA5E9A780893177BF39A38AC53EACC5ADF526ED11944A77F3 DUP2 MSTORE POP DUP2 PUSH1 0x80 ADD MLOAD PUSH1 0x12 DUP2 MLOAD DUP2 LT PUSH2 0xEB2 JUMPI PUSH2 0xEB1 PUSH2 0x2336 JUMP JUMPDEST JUMPDEST PUSH1 0x20 MUL PUSH1 0x20 ADD ADD DUP2 SWAP1 MSTORE POP PUSH1 0x40 MLOAD DUP1 PUSH1 0x40 ADD PUSH1 0x40 MSTORE DUP1 PUSH32 0x2D403F8BF3D04339662098F3BD249B4D527AADFFA48B91017CC2E612A5F9CBDE DUP2 MSTORE PUSH1 0x20 ADD PUSH32 0x21FF7D19716F78004E0DEE01DEF1B4280DF7F1687B7FF689E27A1474E53B6E26 DUP2 MSTORE POP DUP2 PUSH1 0x80 ADD MLOAD PUSH1 0x13 DUP2 MLOAD DUP2 LT PUSH2 0xF2A JUMPI PUSH2 0xF29 PUSH2 0x2336 JUMP JUMPDEST JUMPDEST PUSH1 0x20 MUL PUSH1 0x20 ADD ADD DUP2 SWAP1 MSTORE POP PUSH1 0x40 MLOAD DUP1 PUSH1 0x40 ADD PUSH1 0x40 MSTORE DUP1 PUSH32 0x1A21A1C67FAC300309783A5E6E901A23BCA77967892099A11AB97C2AF82CD152 DUP2 MSTORE PUSH1 0x20 ADD PUSH32 0x6871456744CBC9D0CCEE1E0EAF32910B827E7D5EA752FAB4035696248FB9F7C DUP2 MSTORE POP DUP2 PUSH1 0x80 ADD MLOAD PUSH1 0x14 DUP2 MLOAD DUP2 LT PUSH2 0xFA2 JUMPI PUSH2 0xFA1 PUSH2 0x2336 JUMP JUMPDEST JUMPDEST PUSH1 0x20 MUL PUSH1 0x20 ADD ADD DUP2 SWAP1 MSTORE POP PUSH1 0x40 MLOAD DUP1 PUSH1 0x40 ADD PUSH1 0x40 MSTORE DUP1 PUSH32 0x18D6F0A06E2E51A63B1A1F6E3C1322CF6733EE7B71A97B1710902FE11009FA62 DUP2 MSTORE PUSH1 0x20 ADD PUSH32 0x67223512F6A145C9B1B3E9477A86C3B919AF782E82062304A25EBA2198E5425 DUP2 MSTORE POP DUP2 PUSH1 0x80 ADD MLOAD PUSH1 0x15 DUP2 MLOAD DUP2 LT PUSH2 0x101A JUMPI PUSH2 0x1019 PUSH2 0x2336 JUMP JUMPDEST JUMPDEST PUSH1 0x20 MUL PUSH1 0x20 ADD ADD DUP2 SWAP1 MSTORE POP PUSH1 0x40 MLOAD DUP1 PUSH1 0x40 ADD PUSH1 0x40 MSTORE DUP1 PUSH32 0x281E5A721A7B2089DED6F571BBFD626B43A7A89C13E43C31016A77C255FD9CEB DUP2 MSTORE PUSH1 0x20 ADD PUSH32 0x12AC41ADC09F8B58E070D11427443579B1130DBABE7B917BF4233CA04BE1E2CB DUP2 MSTORE POP DUP2 PUSH1 0x80 ADD MLOAD PUSH1 0x16 DUP2 MLOAD DUP2 LT PUSH2 0x1092 JUMPI PUSH2 0x1091 PUSH2 0x2336 JUMP JUMPDEST JUMPDEST PUSH1 0x20 MUL PUSH1 0x20 ADD ADD DUP2 SWAP1 MSTORE POP PUSH1 0x40 MLOAD DUP1 PUSH1 0x40 ADD PUSH1 0x40 MSTORE DUP1 PUSH32 0x9927A93362A656A1EDF6EB9AB3E2D0AAAD1739D963BC6006D29FADDF2319C30 DUP2 MSTORE PUSH1 0x20 ADD PUSH32 0x5F711159F8EC77CAE2A7024B3A0C87C60A729B6E500E7A9062A4D7F1900FFDA DUP2 MSTORE POP DUP2 PUSH1 0x80 ADD MLOAD PUSH1 0x17 DUP2 MLOAD DUP2 LT PUSH2 0x110A JUMPI PUSH2 0x1109 PUSH2 0x2336 JUMP JUMPDEST JUMPDEST PUSH1 0x20 MUL PUSH1 0x20 ADD ADD DUP2 SWAP1 MSTORE POP PUSH1 0x40 MLOAD DUP1 PUSH1 0x40 ADD PUSH1 0x40 MSTORE DUP1 PUSH32 0xD3A3AA4939C54D4A2969B82D7FE887292ABBBF97C8CACF11EF627AF26F55249 DUP2 MSTORE PUSH1 0x20 ADD PUSH32 0x15D52EA4DE2AAB02C1B368B39CE4A29E22BE80EE5303D255336ABC943075DAF DUP2 MSTORE POP DUP2 PUSH1 0x80 ADD MLOAD PUSH1 0x18 DUP2 MLOAD DUP2 LT PUSH2 0x1182 JUMPI PUSH2 0x1181 PUSH2 0x2336 JUMP JUMPDEST JUMPDEST PUSH1 0x20 MUL PUSH1 0x20 ADD ADD DUP2 SWAP1 MSTORE POP PUSH1 0x40 MLOAD DUP1 PUSH1 0x40 ADD PUSH1 0x40 MSTORE DUP1 PUSH32 0x23720766DB07869B28A9E56828FE077A44823CFCF38C7F2067C9CBE0BBF8A2E3 DUP2 MSTORE PUSH1 0x20 ADD PUSH32 0x1FA3617CEDA16F3430C5EAC9DC0A0804B76DE5DDD13B18EB363F8B79970F2488 DUP2 MSTORE POP DUP2 PUSH1 0x80 ADD MLOAD PUSH1 0x19 DUP2 MLOAD DUP2 LT PUSH2 0x11FA JUMPI PUSH2 0x11F9 PUSH2 0x2336 JUMP JUMPDEST JUMPDEST PUSH1 0x20 MUL PUSH1 0x20 ADD ADD DUP2 SWAP1 MSTORE POP PUSH1 0x40 MLOAD DUP1 PUSH1 0x40 ADD PUSH1 0x40 MSTORE DUP1 PUSH32 0x339FD49153DE4B518C81F41C9D3B6E26F7FB5C04376809AA73CF136D0B31D63 DUP2 MSTORE PUSH1 0x20 ADD PUSH32 0x57EDA5FE20151B9C2968D88CAADB95AE55FA08E4E08CEA60AF3DAF50B2EABA0 DUP2 MSTORE POP DUP2 PUSH1 0x80 ADD MLOAD PUSH1 0x1A DUP2 MLOAD DUP2 LT PUSH2 0x1272 JUMPI PUSH2 0x1271 PUSH2 0x2336 JUMP JUMPDEST JUMPDEST PUSH1 0x20 MUL PUSH1 0x20 ADD ADD DUP2 SWAP1 MSTORE POP PUSH1 0x40 MLOAD DUP1 PUSH1 0x40 ADD PUSH1 0x40 MSTORE DUP1 PUSH32 0x2F21FA3BF197C3C5705992014D735584B103D2F1AFC16E59909DD219E0DD2658 DUP2 MSTORE PUSH1 0x20 ADD PUSH32 0x10EF793EA0CF315CE09413FCEB535E456C53226BBD1517FF56F6D15642305486 DUP2 MSTORE POP DUP2 PUSH1 0x80 ADD MLOAD PUSH1 0x1B DUP2 MLOAD DUP2 LT PUSH2 0x12EA JUMPI PUSH2 0x12E9 PUSH2 0x2336 JUMP JUMPDEST JUMPDEST PUSH1 0x20 MUL PUSH1 0x20 ADD ADD DUP2 SWAP1 MSTORE POP PUSH1 0x40 MLOAD DUP1 PUSH1 0x40 ADD PUSH1 0x40 MSTORE DUP1 PUSH32 0x284E354E590341D41AB0DCE79C54D0893264DE6DFBF0BC55F5A8AA93334B3B7A DUP2 MSTORE PUSH1 0x20 ADD PUSH32 0x54881B94FAF9C2922A2B2E03172AC3AA6BE6330611C841CC7D7951A745C3CAB DUP2 MSTORE POP DUP2 PUSH1 0x80 ADD MLOAD PUSH1 0x1C DUP2 MLOAD DUP2 LT PUSH2 0x1362 JUMPI PUSH2 0x1361 PUSH2 0x2336 JUMP JUMPDEST JUMPDEST PUSH1 0x20 MUL PUSH1 0x20 ADD ADD DUP2 SWAP1 MSTORE POP PUSH1 0x40 MLOAD DUP1 PUSH1 0x40 ADD PUSH1 0x40 MSTORE DUP1 PUSH32 0x227333B130805633FCF82B73CE18C252A331A1A276AF73821E609A93D2CD6EEA DUP2 MSTORE PUSH1 0x20 ADD PUSH32 0x66E1E65B26B67CD60DC737D00613D91E4D3467D463186C9EAC4F92DCAEBA9B3 DUP2 MSTORE POP DUP2 PUSH1 0x80 ADD MLOAD PUSH1 0x1D DUP2 MLOAD DUP2 LT PUSH2 0x13DA JUMPI PUSH2 0x13D9 PUSH2 0x2336 JUMP JUMPDEST JUMPDEST PUSH1 0x20 MUL PUSH1 0x20 ADD ADD DUP2 SWAP1 MSTORE POP PUSH1 0x40 MLOAD DUP1 PUSH1 0x40 ADD PUSH1 0x40 MSTORE DUP1 PUSH32 0xF6DE914601575B0CE472C583A73AF6DF2AF9E6691F07F511030E97966D1174E DUP2 MSTORE PUSH1 0x20 ADD PUSH32 0x279A582C4AF9AD3E426C5337B2C3D53641199C757528F41102D20235ECBCA2F4 DUP2 MSTORE POP DUP2 PUSH1 0x80 ADD MLOAD PUSH1 0x1E DUP2 MLOAD DUP2 LT PUSH2 0x1452 JUMPI PUSH2 0x1451 PUSH2 0x2336 JUMP JUMPDEST JUMPDEST PUSH1 0x20 MUL PUSH1 0x20 ADD ADD DUP2 SWAP1 MSTORE POP PUSH1 0x40 MLOAD DUP1 PUSH1 0x40 ADD PUSH1 0x40 MSTORE DUP1 PUSH32 0x3DF20CACE11D046CC9CE0155659E0C2D7FBFD52F208DEF0858D26AB257438D9 DUP2 MSTORE PUSH1 0x20 ADD PUSH32 0x1B80CEA26B93B76A613A181755C9290FD9BD421C3C30AB61500C8CC34B5CF5B9 DUP2 MSTORE POP DUP2 PUSH1 0x80 ADD MLOAD PUSH1 0x1F DUP2 MLOAD DUP2 LT PUSH2 0x14CA JUMPI PUSH2 0x14C9 PUSH2 0x2336 JUMP JUMPDEST JUMPDEST PUSH1 0x20 MUL PUSH1 0x20 ADD ADD DUP2 SWAP1 MSTORE POP PUSH1 0x40 MLOAD DUP1 PUSH1 0x40 ADD PUSH1 0x40 MSTORE DUP1 PUSH32 0x1052F5EAF9664B45B32F7D026B2451D9EEC6235D057A128AB61A156A0EC726ED DUP2 MSTORE PUSH1 0x20 ADD PUSH32 0x2EDD3531E416ACBF922E8A7F8C5F766AACDC8CD437CAFF568BF11C65C9360875 DUP2 MSTORE POP DUP2 PUSH1 0x80 ADD MLOAD PUSH1 0x20 DUP2 MLOAD DUP2 LT PUSH2 0x1542 JUMPI PUSH2 0x1541 PUSH2 0x2336 JUMP JUMPDEST JUMPDEST PUSH1 0x20 MUL PUSH1 0x20 ADD ADD DUP2 SWAP1 MSTORE POP PUSH1 0x40 MLOAD DUP1 PUSH1 0x40 ADD PUSH1 0x40 MSTORE DUP1 PUSH32 0x1D7B1BBE68B78BB941BC429F4E26B99255BA58B20DDB9B5BC3412897D89A0740 DUP2 MSTORE PUSH1 0x20 ADD PUSH32 0xA9CF1AC405AEF37867B3D0E4EFE733FAE8AFDE0B9BC4BE1FCA31E5283A2DEBA DUP2 MSTORE POP DUP2 PUSH1 0x80 ADD MLOAD PUSH1 0x21 DUP2 MLOAD DUP2 LT PUSH2 0x15BA JUMPI PUSH2 0x15B9 PUSH2 0x2336 JUMP JUMPDEST JUMPDEST PUSH1 0x20 MUL PUSH1 0x20 ADD ADD DUP2 SWAP1 MSTORE POP SWAP1 JUMP JUMPDEST PUSH2 0x15D0 PUSH2 0x1D50 JUMP JUMPDEST PUSH2 0x15D8 PUSH2 0x1D6A JUMP JUMPDEST DUP4 PUSH1 0x0 ADD MLOAD DUP2 PUSH1 0x0 PUSH1 0x3 DUP2 LT PUSH2 0x15F1 JUMPI PUSH2 0x15F0 PUSH2 0x2336 JUMP JUMPDEST JUMPDEST PUSH1 0x20 MUL ADD DUP2 DUP2 MSTORE POP POP DUP4 PUSH1 0x20 ADD MLOAD DUP2 PUSH1 0x1 PUSH1 0x3 DUP2 LT PUSH2 0x1613 JUMPI PUSH2 0x1612 PUSH2 0x2336 JUMP JUMPDEST JUMPDEST PUSH1 0x20 MUL ADD DUP2 DUP2 MSTORE POP POP DUP3 DUP2 PUSH1 0x2 PUSH1 0x3 DUP2 LT PUSH2 0x1631 JUMPI PUSH2 0x1630 PUSH2 0x2336 JUMP JUMPDEST JUMPDEST PUSH1 0x20 MUL ADD DUP2 DUP2 MSTORE POP POP PUSH1 0x0 PUSH1 0x60 DUP4 PUSH1 0x80 DUP5 PUSH1 0x7 PUSH2 0x7D0 GAS SUB STATICCALL SWAP1 POP DUP1 PUSH1 0x0 DUP2 EQ PUSH2 0x165A JUMPI PUSH2 0x165C JUMP JUMPDEST INVALID JUMPDEST POP DUP1 PUSH2 0x1667 JUMPI PUSH1 0x0 DUP1 REVERT JUMPDEST POP POP SWAP3 SWAP2 POP POP JUMP JUMPDEST PUSH2 0x1677 PUSH2 0x1D50 JUMP JUMPDEST PUSH2 0x167F PUSH2 0x1D8C JUMP JUMPDEST DUP4 PUSH1 0x0 ADD MLOAD DUP2 PUSH1 0x0 PUSH1 0x4 DUP2 LT PUSH2 0x1698 JUMPI PUSH2 0x1697 PUSH2 0x2336 JUMP JUMPDEST JUMPDEST PUSH1 0x20 MUL ADD DUP2 DUP2 MSTORE POP POP DUP4 PUSH1 0x20 ADD MLOAD DUP2 PUSH1 0x1 PUSH1 0x4 DUP2 LT PUSH2 0x16BA JUMPI PUSH2 0x16B9 PUSH2 0x2336 JUMP JUMPDEST JUMPDEST PUSH1 0x20 MUL ADD DUP2 DUP2 MSTORE POP POP DUP3 PUSH1 0x0 ADD MLOAD DUP2 PUSH1 0x2 PUSH1 0x4 DUP2 LT PUSH2 0x16DC JUMPI PUSH2 0x16DB PUSH2 0x2336 JUMP JUMPDEST JUMPDEST PUSH1 0x20 MUL ADD DUP2 DUP2 MSTORE POP POP DUP3 PUSH1 0x20 ADD MLOAD DUP2 PUSH1 0x3 PUSH1 0x4 DUP2 LT PUSH2 0x16FE JUMPI PUSH2 0x16FD PUSH2 0x2336 JUMP JUMPDEST JUMPDEST PUSH1 0x20 MUL ADD DUP2 DUP2 MSTORE POP POP PUSH1 0x0 PUSH1 0x60 DUP4 PUSH1 0xC0 DUP5 PUSH1 0x6 PUSH2 0x7D0 GAS SUB STATICCALL SWAP1 POP DUP1 PUSH1 0x0 DUP2 EQ PUSH2 0x1727 JUMPI PUSH2 0x1729 JUMP JUMPDEST INVALID JUMPDEST POP DUP1 PUSH2 0x1734 JUMPI PUSH1 0x0 DUP1 REVERT JUMPDEST POP POP SWAP3 SWAP2 POP POP JUMP JUMPDEST PUSH2 0x1744 PUSH2 0x1D50 JUMP JUMPDEST PUSH1 0x0 PUSH32 0x30644E72E131A029B85045B68181585D97816A916871CA8D3C208C16D87CFD47 SWAP1 POP PUSH1 0x0 DUP4 PUSH1 0x0 ADD MLOAD EQ DUP1 ISZERO PUSH2 0x1781 JUMPI POP PUSH1 0x0 DUP4 PUSH1 0x20 ADD MLOAD EQ JUMPDEST ISZERO PUSH2 0x17A5 JUMPI PUSH1 0x40 MLOAD DUP1 PUSH1 0x40 ADD PUSH1 0x40 MSTORE DUP1 PUSH1 0x0 DUP2 MSTORE PUSH1 0x20 ADD PUSH1 0x0 DUP2 MSTORE POP SWAP2 POP POP PUSH2 0x17DC JUMP JUMPDEST PUSH1 0x40 MLOAD DUP1 PUSH1 0x40 ADD PUSH1 0x40 MSTORE DUP1 DUP5 PUSH1 0x0 ADD MLOAD DUP2 MSTORE PUSH1 0x20 ADD DUP3 DUP6 PUSH1 0x20 ADD MLOAD PUSH2 0x17CA SWAP2 SWAP1 PUSH2 0x22A7 JUMP JUMPDEST DUP4 PUSH2 0x17D5 SWAP2 SWAP1 PUSH2 0x21E3 JUMP JUMPDEST DUP2 MSTORE POP SWAP2 POP POP JUMPDEST SWAP2 SWAP1 POP JUMP JUMPDEST PUSH1 0x0 DUP1 PUSH1 0x4 PUSH8 0xFFFFFFFFFFFFFFFF DUP2 GT ISZERO PUSH2 0x17FF JUMPI PUSH2 0x17FE PUSH2 0x2365 JUMP JUMPDEST JUMPDEST PUSH1 0x40 MLOAD SWAP1 DUP1 DUP3 MSTORE DUP1 PUSH1 0x20 MUL PUSH1 0x20 ADD DUP3 ADD PUSH1 0x40 MSTORE DUP1 ISZERO PUSH2 0x1838 JUMPI DUP2 PUSH1 0x20 ADD JUMPDEST PUSH2 0x1825 PUSH2 0x1D50 JUMP JUMPDEST DUP2 MSTORE PUSH1 0x20 ADD SWAP1 PUSH1 0x1 SWAP1 SUB SWAP1 DUP2 PUSH2 0x181D JUMPI SWAP1 POP JUMPDEST POP SWAP1 POP PUSH1 0x0 PUSH1 0x4 PUSH8 0xFFFFFFFFFFFFFFFF DUP2 GT ISZERO PUSH2 0x1858 JUMPI PUSH2 0x1857 PUSH2 0x2365 JUMP JUMPDEST JUMPDEST PUSH1 0x40 MLOAD SWAP1 DUP1 DUP3 MSTORE DUP1 PUSH1 0x20 MUL PUSH1 0x20 ADD DUP3 ADD PUSH1 0x40 MSTORE DUP1 ISZERO PUSH2 0x1891 JUMPI DUP2 PUSH1 0x20 ADD JUMPDEST PUSH2 0x187E PUSH2 0x1DAE JUMP JUMPDEST DUP2 MSTORE PUSH1 0x20 ADD SWAP1 PUSH1 0x1 SWAP1 SUB SWAP1 DUP2 PUSH2 0x1876 JUMPI SWAP1 POP JUMPDEST POP SWAP1 POP DUP11 DUP3 PUSH1 0x0 DUP2 MLOAD DUP2 LT PUSH2 0x18A9 JUMPI PUSH2 0x18A8 PUSH2 0x2336 JUMP JUMPDEST JUMPDEST PUSH1 0x20 MUL PUSH1 0x20 ADD ADD DUP2 SWAP1 MSTORE POP DUP9 DUP3 PUSH1 0x1 DUP2 MLOAD DUP2 LT PUSH2 0x18C9 JUMPI PUSH2 0x18C8 PUSH2 0x2336 JUMP JUMPDEST JUMPDEST PUSH1 0x20 MUL PUSH1 0x20 ADD ADD DUP2 SWAP1 MSTORE POP DUP7 DUP3 PUSH1 0x2 DUP2 MLOAD DUP2 LT PUSH2 0x18E9 JUMPI PUSH2 0x18E8 PUSH2 0x2336 JUMP JUMPDEST JUMPDEST PUSH1 0x20 MUL PUSH1 0x20 ADD ADD DUP2 SWAP1 MSTORE POP DUP5 DUP3 PUSH1 0x3 DUP2 MLOAD DUP2 LT PUSH2 0x1909 JUMPI PUSH2 0x1908 PUSH2 0x2336 JUMP JUMPDEST JUMPDEST PUSH1 0x20 MUL PUSH1 0x20 ADD ADD DUP2 SWAP1 MSTORE POP DUP10 DUP2 PUSH1 0x0 DUP2 MLOAD DUP2 LT PUSH2 0x1929 JUMPI PUSH2 0x1928 PUSH2 0x2336 JUMP JUMPDEST JUMPDEST PUSH1 0x20 MUL PUSH1 0x20 ADD ADD DUP2 SWAP1 MSTORE POP DUP8 DUP2 PUSH1 0x1 DUP2 MLOAD DUP2 LT PUSH2 0x1949 JUMPI PUSH2 0x1948 PUSH2 0x2336 JUMP JUMPDEST JUMPDEST PUSH1 0x20 MUL PUSH1 0x20 ADD ADD DUP2 SWAP1 MSTORE POP DUP6 DUP2 PUSH1 0x2 DUP2 MLOAD DUP2 LT PUSH2 0x1969 JUMPI PUSH2 0x1968 PUSH2 0x2336 JUMP JUMPDEST JUMPDEST PUSH1 0x20 MUL PUSH1 0x20 ADD ADD DUP2 SWAP1 MSTORE POP DUP4 DUP2 PUSH1 0x3 DUP2 MLOAD DUP2 LT PUSH2 0x1989 JUMPI PUSH2 0x1988 PUSH2 0x2336 JUMP JUMPDEST JUMPDEST PUSH1 0x20 MUL PUSH1 0x20 ADD ADD DUP2 SWAP1 MSTORE POP PUSH2 0x199E DUP3 DUP3 PUSH2 0x19AE JUMP JUMPDEST SWAP3 POP POP POP SWAP9 SWAP8 POP POP POP POP POP POP POP POP JUMP JUMPDEST PUSH1 0x0 DUP2 MLOAD DUP4 MLOAD EQ PUSH2 0x19BE JUMPI PUSH1 0x0 DUP1 REVERT JUMPDEST PUSH1 0x0 DUP4 MLOAD SWAP1 POP PUSH1 0x0 PUSH1 0x6 DUP3 PUSH2 0x19D3 SWAP2 SWAP1 PUSH2 0x2189 JUMP JUMPDEST SWAP1 POP PUSH1 0x0 DUP2 PUSH8 0xFFFFFFFFFFFFFFFF DUP2 GT ISZERO PUSH2 0x19F1 JUMPI PUSH2 0x19F0 PUSH2 0x2365 JUMP JUMPDEST JUMPDEST PUSH1 0x40 MLOAD SWAP1 DUP1 DUP3 MSTORE DUP1 PUSH1 0x20 MUL PUSH1 0x20 ADD DUP3 ADD PUSH1 0x40 MSTORE DUP1 ISZERO PUSH2 0x1A1F JUMPI DUP2 PUSH1 0x20 ADD PUSH1 0x20 DUP3 MUL DUP1 CALLDATASIZE DUP4 CALLDATACOPY DUP1 DUP3 ADD SWAP2 POP POP SWAP1 POP JUMPDEST POP SWAP1 POP PUSH1 0x0 JUMPDEST DUP4 DUP2 LT ISZERO PUSH2 0x1CA4 JUMPI DUP7 DUP2 DUP2 MLOAD DUP2 LT PUSH2 0x1A40 JUMPI PUSH2 0x1A3F PUSH2 0x2336 JUMP JUMPDEST JUMPDEST PUSH1 0x20 MUL PUSH1 0x20 ADD ADD MLOAD PUSH1 0x0 ADD MLOAD DUP3 PUSH1 0x0 PUSH1 0x6 DUP5 PUSH2 0x1A5C SWAP2 SWAP1 PUSH2 0x2189 JUMP JUMPDEST PUSH2 0x1A66 SWAP2 SWAP1 PUSH2 0x2133 JUMP JUMPDEST DUP2 MLOAD DUP2 LT PUSH2 0x1A77 JUMPI PUSH2 0x1A76 PUSH2 0x2336 JUMP JUMPDEST JUMPDEST PUSH1 0x20 MUL PUSH1 0x20 ADD ADD DUP2 DUP2 MSTORE POP POP DUP7 DUP2 DUP2 MLOAD DUP2 LT PUSH2 0x1A96 JUMPI PUSH2 0x1A95 PUSH2 0x2336 JUMP JUMPDEST JUMPDEST PUSH1 0x20 MUL PUSH1 0x20 ADD ADD MLOAD PUSH1 0x20 ADD MLOAD DUP3 PUSH1 0x1 PUSH1 0x6 DUP5 PUSH2 0x1AB2 SWAP2 SWAP1 PUSH2 0x2189 JUMP JUMPDEST PUSH2 0x1ABC SWAP2 SWAP1 PUSH2 0x2133 JUMP JUMPDEST DUP2 MLOAD DUP2 LT PUSH2 0x1ACD JUMPI PUSH2 0x1ACC PUSH2 0x2336 JUMP JUMPDEST JUMPDEST PUSH1 0x20 MUL PUSH1 0x20 ADD ADD DUP2 DUP2 MSTORE POP POP DUP6 DUP2 DUP2 MLOAD DUP2 LT PUSH2 0x1AEC JUMPI PUSH2 0x1AEB PUSH2 0x2336 JUMP JUMPDEST JUMPDEST PUSH1 0x20 MUL PUSH1 0x20 ADD ADD MLOAD PUSH1 0x0 ADD MLOAD PUSH1 0x1 PUSH1 0x2 DUP2 LT PUSH2 0x1B0B JUMPI PUSH2 0x1B0A PUSH2 0x2336 JUMP JUMPDEST JUMPDEST PUSH1 0x20 MUL ADD MLOAD DUP3 PUSH1 0x2 PUSH1 0x6 DUP5 PUSH2 0x1B20 SWAP2 SWAP1 PUSH2 0x2189 JUMP JUMPDEST PUSH2 0x1B2A SWAP2 SWAP1 PUSH2 0x2133 JUMP JUMPDEST DUP2 MLOAD DUP2 LT PUSH2 0x1B3B JUMPI PUSH2 0x1B3A PUSH2 0x2336 JUMP JUMPDEST JUMPDEST PUSH1 0x20 MUL PUSH1 0x20 ADD ADD DUP2 DUP2 MSTORE POP POP DUP6 DUP2 DUP2 MLOAD DUP2 LT PUSH2 0x1B5A JUMPI PUSH2 0x1B59 PUSH2 0x2336 JUMP JUMPDEST JUMPDEST PUSH1 0x20 MUL PUSH1 0x20 ADD ADD MLOAD PUSH1 0x0 ADD MLOAD PUSH1 0x0 PUSH1 0x2 DUP2 LT PUSH2 0x1B79 JUMPI PUSH2 0x1B78 PUSH2 0x2336 JUMP JUMPDEST JUMPDEST PUSH1 0x20 MUL ADD MLOAD DUP3 PUSH1 0x3 PUSH1 0x6 DUP5 PUSH2 0x1B8E SWAP2 SWAP1 PUSH2 0x2189 JUMP JUMPDEST PUSH2 0x1B98 SWAP2 SWAP1 PUSH2 0x2133 JUMP JUMPDEST DUP2 MLOAD DUP2 LT PUSH2 0x1BA9 JUMPI PUSH2 0x1BA8 PUSH2 0x2336 JUMP JUMPDEST JUMPDEST PUSH1 0x20 MUL PUSH1 0x20 ADD ADD DUP2 DUP2 MSTORE POP POP DUP6 DUP2 DUP2 MLOAD DUP2 LT PUSH2 0x1BC8 JUMPI PUSH2 0x1BC7 PUSH2 0x2336 JUMP JUMPDEST JUMPDEST PUSH1 0x20 MUL PUSH1 0x20 ADD ADD MLOAD PUSH1 0x20 ADD MLOAD PUSH1 0x1 PUSH1 0x2 DUP2 LT PUSH2 0x1BE7 JUMPI PUSH2 0x1BE6 PUSH2 0x2336 JUMP JUMPDEST JUMPDEST PUSH1 0x20 MUL ADD MLOAD DUP3 PUSH1 0x4 PUSH1 0x6 DUP5 PUSH2 0x1BFC SWAP2 SWAP1 PUSH2 0x2189 JUMP JUMPDEST PUSH2 0x1C06 SWAP2 SWAP1 PUSH2 0x2133 JUMP JUMPDEST DUP2 MLOAD DUP2 LT PUSH2 0x1C17 JUMPI PUSH2 0x1C16 PUSH2 0x2336 JUMP JUMPDEST JUMPDEST PUSH1 0x20 MUL PUSH1 0x20 ADD ADD DUP2 DUP2 MSTORE POP POP DUP6 DUP2 DUP2 MLOAD DUP2 LT PUSH2 0x1C36 JUMPI PUSH2 0x1C35 PUSH2 0x2336 JUMP JUMPDEST JUMPDEST PUSH1 0x20 MUL PUSH1 0x20 ADD ADD MLOAD PUSH1 0x20 ADD MLOAD PUSH1 0x0 PUSH1 0x2 DUP2 LT PUSH2 0x1C55 JUMPI PUSH2 0x1C54 PUSH2 0x2336 JUMP JUMPDEST JUMPDEST PUSH1 0x20 MUL ADD MLOAD DUP3 PUSH1 0x5 PUSH1 0x6 DUP5 PUSH2 0x1C6A SWAP2 SWAP1 PUSH2 0x2189 JUMP JUMPDEST PUSH2 0x1C74 SWAP2 SWAP1 PUSH2 0x2133 JUMP JUMPDEST DUP2 MLOAD DUP2 LT PUSH2 0x1C85 JUMPI PUSH2 0x1C84 PUSH2 0x2336 JUMP JUMPDEST JUMPDEST PUSH1 0x20 MUL PUSH1 0x20 ADD ADD DUP2 DUP2 MSTORE POP POP DUP1 DUP1 PUSH2 0x1C9C SWAP1 PUSH2 0x225E JUMP JUMPDEST SWAP2 POP POP PUSH2 0x1A25 JUMP JUMPDEST POP PUSH2 0x1CAD PUSH2 0x1DD4 JUMP JUMPDEST PUSH1 0x0 PUSH1 0x20 DUP3 PUSH1 0x20 DUP7 MUL PUSH1 0x20 DUP7 ADD PUSH1 0x8 PUSH2 0x7D0 GAS SUB STATICCALL SWAP1 POP DUP1 PUSH1 0x0 DUP2 EQ PUSH2 0x1CD2 JUMPI PUSH2 0x1CD4 JUMP JUMPDEST INVALID JUMPDEST POP DUP1 PUSH2 0x1CDF JUMPI PUSH1 0x0 DUP1 REVERT JUMPDEST PUSH1 0x0 DUP3 PUSH1 0x0 PUSH1 0x1 DUP2 LT PUSH2 0x1CF5 JUMPI PUSH2 0x1CF4 PUSH2 0x2336 JUMP JUMPDEST JUMPDEST PUSH1 0x20 MUL ADD MLOAD EQ ISZERO SWAP6 POP POP POP POP POP POP SWAP3 SWAP2 POP POP JUMP JUMPDEST PUSH1 0x40 MLOAD DUP1 PUSH1 0xA0 ADD PUSH1 0x40 MSTORE DUP1 PUSH2 0x1D1C PUSH2 0x1D50 JUMP JUMPDEST DUP2 MSTORE PUSH1 0x20 ADD PUSH2 0x1D29 PUSH2 0x1DAE JUMP JUMPDEST DUP2 MSTORE PUSH1 0x20 ADD PUSH2 0x1D36 PUSH2 0x1DAE JUMP JUMPDEST DUP2 MSTORE PUSH1 0x20 ADD PUSH2 0x1D43 PUSH2 0x1DAE JUMP JUMPDEST DUP2 MSTORE PUSH1 0x20 ADD PUSH1 0x60 DUP2 MSTORE POP SWAP1 JUMP JUMPDEST PUSH1 0x40 MLOAD DUP1 PUSH1 0x40 ADD PUSH1 0x40 MSTORE DUP1 PUSH1 0x0 DUP2 MSTORE PUSH1 0x20 ADD PUSH1 0x0 DUP2 MSTORE POP SWAP1 JUMP JUMPDEST PUSH1 0x40 MLOAD DUP1 PUSH1 0x60 ADD PUSH1 0x40 MSTORE DUP1 PUSH1 0x3 SWAP1 PUSH1 0x20 DUP3 MUL DUP1 CALLDATASIZE DUP4 CALLDATACOPY DUP1 DUP3 ADD SWAP2 POP POP SWAP1 POP POP SWAP1 JUMP JUMPDEST PUSH1 0x40 MLOAD DUP1 PUSH1 0x80 ADD PUSH1 0x40 MSTORE DUP1 PUSH1 0x4 SWAP1 PUSH1 0x20 DUP3 MUL DUP1 CALLDATASIZE DUP4 CALLDATACOPY DUP1 DUP3 ADD SWAP2 POP POP SWAP1 POP POP SWAP1 JUMP JUMPDEST PUSH1 0x40 MLOAD DUP1 PUSH1 0x40 ADD PUSH1 0x40 MSTORE DUP1 PUSH2 0x1DC1 PUSH2 0x1DF6 JUMP JUMPDEST DUP2 MSTORE PUSH1 0x20 ADD PUSH2 0x1DCE PUSH2 0x1DF6 JUMP JUMPDEST DUP2 MSTORE POP SWAP1 JUMP JUMPDEST PUSH1 0x40 MLOAD DUP1 PUSH1 0x20 ADD PUSH1 0x40 MSTORE DUP1 PUSH1 0x1 SWAP1 PUSH1 0x20 DUP3 MUL DUP1 CALLDATASIZE DUP4 CALLDATACOPY DUP1 DUP3 ADD SWAP2 POP POP SWAP1 POP POP SWAP1 JUMP JUMPDEST PUSH1 0x40 MLOAD DUP1 PUSH1 0x40 ADD PUSH1 0x40 MSTORE DUP1 PUSH1 0x2 SWAP1 PUSH1 0x20 DUP3 MUL DUP1 CALLDATASIZE DUP4 CALLDATACOPY DUP1 DUP3 ADD SWAP2 POP POP SWAP1 POP POP SWAP1 JUMP JUMPDEST PUSH1 0x0 PUSH2 0x1E2B PUSH2 0x1E26 DUP5 PUSH2 0x20E7 JUMP JUMPDEST PUSH2 0x20C2 JUMP JUMPDEST SWAP1 POP DUP1 DUP3 DUP6 PUSH1 0x20 DUP7 MUL DUP3 ADD GT ISZERO PUSH2 0x1E45 JUMPI PUSH2 0x1E44 PUSH2 0x239E JUMP JUMPDEST JUMPDEST PUSH1 0x0 JUMPDEST DUP6 DUP2 LT ISZERO PUSH2 0x1E75 JUMPI DUP2 PUSH2 0x1E5B DUP9 DUP3 PUSH2 0x2041 JUMP JUMPDEST DUP5 MSTORE PUSH1 0x20 DUP5 ADD SWAP4 POP PUSH1 0x20 DUP4 ADD SWAP3 POP POP PUSH1 0x1 DUP2 ADD SWAP1 POP PUSH2 0x1E48 JUMP JUMPDEST POP POP POP SWAP4 SWAP3 POP POP POP JUMP JUMPDEST PUSH1 0x0 PUSH2 0x1E92 PUSH2 0x1E8D DUP5 PUSH2 0x210D JUMP JUMPDEST PUSH2 0x20C2 JUMP JUMPDEST SWAP1 POP DUP1 DUP3 DUP6 PUSH1 0x20 DUP7 MUL DUP3 ADD GT ISZERO PUSH2 0x1EAC JUMPI PUSH2 0x1EAB PUSH2 0x239E JUMP JUMPDEST JUMPDEST PUSH1 0x0 JUMPDEST DUP6 DUP2 LT ISZERO PUSH2 0x1EDC JUMPI DUP2 PUSH2 0x1EC2 DUP9 DUP3 PUSH2 0x2041 JUMP JUMPDEST DUP5 MSTORE PUSH1 0x20 DUP5 ADD SWAP4 POP PUSH1 0x20 DUP4 ADD SWAP3 POP POP PUSH1 0x1 DUP2 ADD SWAP1 POP PUSH2 0x1EAF JUMP JUMPDEST POP POP POP SWAP4 SWAP3 POP POP POP JUMP JUMPDEST PUSH1 0x0 DUP3 PUSH1 0x1F DUP4 ADD SLT PUSH2 0x1EFB JUMPI PUSH2 0x1EFA PUSH2 0x2394 JUMP JUMPDEST JUMPDEST PUSH1 0x2 PUSH2 0x1F08 DUP5 DUP3 DUP6 PUSH2 0x1E18 JUMP JUMPDEST SWAP2 POP POP SWAP3 SWAP2 POP POP JUMP JUMPDEST PUSH1 0x0 DUP3 PUSH1 0x1F DUP4 ADD SLT PUSH2 0x1F26 JUMPI PUSH2 0x1F25 PUSH2 0x2394 JUMP JUMPDEST JUMPDEST PUSH1 0x21 PUSH2 0x1F33 DUP5 DUP3 DUP6 PUSH2 0x1E7F JUMP JUMPDEST SWAP2 POP POP SWAP3 SWAP2 POP POP JUMP JUMPDEST PUSH1 0x0 PUSH1 0x40 DUP3 DUP5 SUB SLT ISZERO PUSH2 0x1F52 JUMPI PUSH2 0x1F51 PUSH2 0x2399 JUMP JUMPDEST JUMPDEST PUSH2 0x1F5C PUSH1 0x40 PUSH2 0x20C2 JUMP JUMPDEST SWAP1 POP PUSH1 0x0 PUSH2 0x1F6C DUP5 DUP3 DUP6 ADD PUSH2 0x2041 JUMP JUMPDEST PUSH1 0x0 DUP4 ADD MSTORE POP PUSH1 0x20 PUSH2 0x1F80 DUP5 DUP3 DUP6 ADD PUSH2 0x2041 JUMP JUMPDEST PUSH1 0x20 DUP4 ADD MSTORE POP SWAP3 SWAP2 POP POP JUMP JUMPDEST PUSH1 0x0 PUSH1 0x80 DUP3 DUP5 SUB SLT ISZERO PUSH2 0x1FA2 JUMPI PUSH2 0x1FA1 PUSH2 0x2399 JUMP JUMPDEST JUMPDEST PUSH2 0x1FAC PUSH1 0x40 PUSH2 0x20C2 JUMP JUMPDEST SWAP1 POP PUSH1 0x0 PUSH2 0x1FBC DUP5 DUP3 DUP6 ADD PUSH2 0x1EE6 JUMP JUMPDEST PUSH1 0x0 DUP4 ADD MSTORE POP PUSH1 0x40 PUSH2 0x1FD0 DUP5 DUP3 DUP6 ADD PUSH2 0x1EE6 JUMP JUMPDEST PUSH1 0x20 DUP4 ADD MSTORE POP SWAP3 SWAP2 POP POP JUMP JUMPDEST PUSH1 0x0 PUSH2 0x100 DUP3 DUP5 SUB SLT ISZERO PUSH2 0x1FF3 JUMPI PUSH2 0x1FF2 PUSH2 0x2399 JUMP JUMPDEST JUMPDEST PUSH2 0x1FFD PUSH1 0x60 PUSH2 0x20C2 JUMP JUMPDEST SWAP1 POP PUSH1 0x0 PUSH2 0x200D DUP5 DUP3 DUP6 ADD PUSH2 0x1F3C JUMP JUMPDEST PUSH1 0x0 DUP4 ADD MSTORE POP PUSH1 0x40 PUSH2 0x2021 DUP5 DUP3 DUP6 ADD PUSH2 0x1F8C JUMP JUMPDEST PUSH1 0x20 DUP4 ADD MSTORE POP PUSH1 0xC0 PUSH2 0x2035 DUP5 DUP3 DUP6 ADD PUSH2 0x1F3C JUMP JUMPDEST PUSH1 0x40 DUP4 ADD MSTORE POP SWAP3 SWAP2 POP POP JUMP JUMPDEST PUSH1 0x0 DUP2 CALLDATALOAD SWAP1 POP PUSH2 0x2050 DUP2 PUSH2 0x23B9 JUMP JUMPDEST SWAP3 SWAP2 POP POP JUMP JUMPDEST PUSH1 0x0 DUP1 PUSH2 0x520 DUP4 DUP6 SUB SLT ISZERO PUSH2 0x206E JUMPI PUSH2 0x206D PUSH2 0x23A3 JUMP JUMPDEST JUMPDEST PUSH1 0x0 PUSH2 0x207C DUP6 DUP3 DUP7 ADD PUSH2 0x1FDC JUMP JUMPDEST SWAP3 POP POP PUSH2 0x100 PUSH2 0x208E DUP6 DUP3 DUP7 ADD PUSH2 0x1F11 JUMP JUMPDEST SWAP2 POP POP SWAP3 POP SWAP3 SWAP1 POP JUMP JUMPDEST PUSH2 0x20A1 DUP2 PUSH2 0x2217 JUMP JUMPDEST DUP3 MSTORE POP POP JUMP JUMPDEST PUSH1 0x0 PUSH1 0x20 DUP3 ADD SWAP1 POP PUSH2 0x20BC PUSH1 0x0 DUP4 ADD DUP5 PUSH2 0x2098 JUMP JUMPDEST SWAP3 SWAP2 POP POP JUMP JUMPDEST PUSH1 0x0 PUSH2 0x20CC PUSH2 0x20DD JUMP JUMPDEST SWAP1 POP PUSH2 0x20D8 DUP3 DUP3 PUSH2 0x222D JUMP JUMPDEST SWAP2 SWAP1 POP JUMP JUMPDEST PUSH1 0x0 PUSH1 0x40 MLOAD SWAP1 POP SWAP1 JUMP JUMPDEST PUSH1 0x0 PUSH8 0xFFFFFFFFFFFFFFFF DUP3 GT ISZERO PUSH2 0x2102 JUMPI PUSH2 0x2101 PUSH2 0x2365 JUMP JUMPDEST JUMPDEST PUSH1 0x20 DUP3 MUL SWAP1 POP SWAP2 SWAP1 POP JUMP JUMPDEST PUSH1 0x0 PUSH8 0xFFFFFFFFFFFFFFFF DUP3 GT ISZERO PUSH2 0x2128 JUMPI PUSH2 0x2127 PUSH2 0x2365 JUMP JUMPDEST JUMPDEST PUSH1 0x20 DUP3 MUL SWAP1 POP SWAP2 SWAP1 POP JUMP JUMPDEST PUSH1 0x0 PUSH2 0x213E DUP3 PUSH2 0x2223 JUMP JUMPDEST SWAP2 POP PUSH2 0x2149 DUP4 PUSH2 0x2223 JUMP JUMPDEST SWAP3 POP DUP3 PUSH32 0xFFFFFFFFFFFFFFFFFFFFFFFFFFFFFFFFFFFFFFFFFFFFFFFFFFFFFFFFFFFFFFFF SUB DUP3 GT ISZERO PUSH2 0x217E JUMPI PUSH2 0x217D PUSH2 0x22D8 JUMP JUMPDEST JUMPDEST DUP3 DUP3 ADD SWAP1 POP SWAP3 SWAP2 POP POP JUMP JUMPDEST PUSH1 0x0 PUSH2 0x2194 DUP3 PUSH2 0x2223 JUMP JUMPDEST SWAP2 POP PUSH2 0x219F DUP4 PUSH2 0x2223 JUMP JUMPDEST SWAP3 POP DUP2 PUSH32 0xFFFFFFFFFFFFFFFFFFFFFFFFFFFFFFFFFFFFFFFFFFFFFFFFFFFFFFFFFFFFFFFF DIV DUP4 GT DUP3 ISZERO ISZERO AND ISZERO PUSH2 0x21D8 JUMPI PUSH2 0x21D7 PUSH2 0x22D8 JUMP JUMPDEST JUMPDEST DUP3 DUP3 MUL SWAP1 POP SWAP3 SWAP2 POP POP JUMP JUMPDEST PUSH1 0x0 PUSH2 0x21EE DUP3 PUSH2 0x2223 JUMP JUMPDEST SWAP2 POP PUSH2 0x21F9 DUP4 PUSH2 0x2223 JUMP JUMPDEST SWAP3 POP DUP3 DUP3 LT ISZERO PUSH2 0x220C JUMPI PUSH2 0x220B PUSH2 0x22D8 JUMP JUMPDEST JUMPDEST DUP3 DUP3 SUB SWAP1 POP SWAP3 SWAP2 POP POP JUMP JUMPDEST PUSH1 0x0 DUP2 ISZERO ISZERO SWAP1 POP SWAP2 SWAP1 POP JUMP JUMPDEST PUSH1 0x0 DUP2 SWAP1 POP SWAP2 SWAP1 POP JUMP JUMPDEST PUSH2 0x2236 DUP3 PUSH2 0x23A8 JUMP JUMPDEST DUP2 ADD DUP2 DUP2 LT PUSH8 0xFFFFFFFFFFFFFFFF DUP3 GT OR ISZERO PUSH2 0x2255 JUMPI PUSH2 0x2254 PUSH2 0x2365 JUMP JUMPDEST JUMPDEST DUP1 PUSH1 0x40 MSTORE POP POP POP JUMP JUMPDEST PUSH1 0x0 PUSH2 0x2269 DUP3 PUSH2 0x2223 JUMP JUMPDEST SWAP2 POP PUSH32 0xFFFFFFFFFFFFFFFFFFFFFFFFFFFFFFFFFFFFFFFFFFFFFFFFFFFFFFFFFFFFFFFF DUP3 EQ ISZERO PUSH2 0x229C JUMPI PUSH2 0x229B PUSH2 0x22D8 JUMP JUMPDEST JUMPDEST PUSH1 0x1 DUP3 ADD SWAP1 POP SWAP2 SWAP1 POP JUMP JUMPDEST PUSH1 0x0 PUSH2 0x22B2 DUP3 PUSH2 0x2223 JUMP JUMPDEST SWAP2 POP PUSH2 0x22BD DUP4 PUSH2 0x2223 JUMP JUMPDEST SWAP3 POP DUP3 PUSH2 0x22CD JUMPI PUSH2 0x22CC PUSH2 0x2307 JUMP JUMPDEST JUMPDEST DUP3 DUP3 MOD SWAP1 POP SWAP3 SWAP2 POP POP JUMP JUMPDEST PUSH32 0x4E487B7100000000000000000000000000000000000000000000000000000000 PUSH1 0x0 MSTORE PUSH1 0x11 PUSH1 0x4 MSTORE PUSH1 0x24 PUSH1 0x0 REVERT JUMPDEST PUSH32 0x4E487B7100000000000000000000000000000000000000000000000000000000 PUSH1 0x0 MSTORE PUSH1 0x12 PUSH1 0x4 MSTORE PUSH1 0x24 PUSH1 0x0 REVERT JUMPDEST PUSH32 0x4E487B7100000000000000000000000000000000000000000000000000000000 PUSH1 0x0 MSTORE PUSH1 0x32 PUSH1 0x4 MSTORE PUSH1 0x24 PUSH1 0x0 REVERT JUMPDEST PUSH32 0x4E487B7100000000000000000000000000000000000000000000000000000000 PUSH1 0x0 MSTORE PUSH1 0x41 PUSH1 0x4 MSTORE PUSH1 0x24 PUSH1 0x0 REVERT JUMPDEST PUSH1 0x0 DUP1 REVERT JUMPDEST PUSH1 0x0 DUP1 REVERT JUMPDEST PUSH1 0x0 DUP1 REVERT JUMPDEST PUSH1 0x0 DUP1 REVERT JUMPDEST PUSH1 0x0 PUSH1 0x1F NOT PUSH1 0x1F DUP4 ADD AND SWAP1 POP SWAP2 SWAP1 POP JUMP JUMPDEST PUSH2 0x23C2 DUP2 PUSH2 0x2223 JUMP JUMPDEST DUP2 EQ PUSH2 0x23CD JUMPI PUSH1 0x0 DUP1 REVERT JUMPDEST POP JUMP INVALID LOG2 PUSH5 0x6970667358 0x22 SLT KECCAK256 0x5D DUP14 SLOAD 0xB6 KECCAK256 0xAA 0xBE SWAP5 STOP CODECOPY 0x2E CALL 0xBB SLOAD 0xE1 0x2A 0xEC PUSH29 0xE2483F0A6E9C563D182984AA292864736F6C6343000806003300000000 "},"methodIdentifiers":{"verifyTx(((uint256,uint256),(uint256[2],uint256[2]),(uint256,uint256)),uint256[33])":"785b3bbb"}}}}}