{"contracts/BJJ.sol":{"BJJ":{"abi":[{"inputs":[],"name":"A","outputs":[{"internalType":"uint256","name":"","type":"uint256"}],"stateMutability":"view","type":"function"},{"inputs":[],"name":"D","outputs":[{"internalType":"uint256","name":"","type":"uint256"}],"stateMutability":"view","type":"function"},{"inputs":[],"name":"H","outputs":[{"internalType":"uint256","name":"","type":"uint256"}],"stateMutability":"view","type":"function"},{"inputs":[],"name":"Q","outputs":[{"internalType":"uint256","name":"","type":"uint256"}],"stateMutability":"view","type":"function"},{"inputs":[],"name":"S","outputs":[{"internalType":"uint256","name":"","type":"uint256"}],"stateMutability":"view","type":"function"}],"evm":{"bytecode":{"linkReferences":{},"object":"6101e0610053600b82828239805160001a607314610046577f4e487b7100000000000000000000000000000000000000000000000000000000600052600060045260246000fd5b30600052607381538281f3fe73000000000000000000000000000000000000000030146080604052600436106100615760003560e01c80630f529ba2146100665780634be1c7961461008457806370a5d861146100a2578063e493ef8c146100c0578063f446c1d0146100de575b600080fd5b61006e6100fc565b60405161007b9190610185565b60405180910390f35b61008c610103565b6040516100999190610185565b60405180910390f35b6100aa610127565b6040516100b79190610185565b60405180910390f35b6100c861014b565b6040516100d59190610185565b60405180910390f35b6100e661016f565b6040516100f39190610185565b60405180910390f35b620292f881565b7f060c89ce5c263405370a08b6d0302b0bab3eedb83920ee0a677297dc392126f181565b7f183227397098d014dc2822db40c0ac2e9419f4243cdcb848a1f0fac9f800000081565b7f30644e72e131a029b85045b68181585d2833e84879b9709143e1f593f000000181565b620292fc81565b61017f816101a0565b82525050565b600060208201905061019a6000830184610176565b92915050565b600081905091905056fea2646970667358221220d09185e5c3732aaf0354472b1eea8631ada3db60965028e7a69218d4b902920464736f6c63430008060033","opcodes":"PUSH2 0x1E0 PUSH2 0x53 PUSH1 0xB DUP3 DUP3 DUP3 CODECOPY DUP1 MLOAD PUSH1 0x0 BYTE PUSH1 0x73 EQ PUSH2 0x46 JUMPI PUSH32 0x4E487B7100000000000000000000000000000000000000000000000000000000 PUSH1 0x0 MSTORE PUSH1 0x0 PUSH1 0x4 MSTORE PUSH1 0x24 PUSH1 0x0 REVERT JUMPDEST ADDRESS PUSH1 0x0 MSTORE PUSH1 0x73 DUP2 MSTORE8 DUP3 DUP2 RETURN INVALID PUSH20 0x0 ADDRESS EQ PUSH1 0x80 PUSH1 0x40 MSTORE PUSH1 0x4 CALLDATASIZE LT PUSH2 0x61 JUMPI PUSH1 0x0 CALLDATALOAD PUSH1 0xE0 SHR DUP1 PUSH4 0xF529BA2 EQ PUSH2 0x66 JUMPI DUP1 PUSH4 0x4BE1C796 EQ PUSH2 0x84 JUMPI DUP1 PUSH4 0x70A5D861 EQ PUSH2 0xA2 JUMPI DUP1 PUSH4 0xE493EF8C EQ PUSH2 0xC0 JUMPI DUP1 PUSH4 0xF446C1D0 EQ PUSH2 0xDE JUMPI JUMPDEST PUSH1 0x0 DUP1 REVERT JUMPDEST PUSH2 0x6E PUSH2 0xFC JUMP JUMPDEST PUSH1 0x40 MLOAD PUSH2 0x7B SWAP2 SWAP1 PUSH2 0x185 JUMP JUMPDEST PUSH1 0x40 MLOAD DUP1 SWAP2 SUB SWAP1 RETURN JUMPDEST PUSH2 0x8C PUSH2 0x103 JUMP JUMPDEST PUSH1 0x40 MLOAD PUSH2 0x99 SWAP2 SWAP1 PUSH2 0x185 JUMP JUMPDEST PUSH1 0x40 MLOAD DUP1 SWAP2 SUB SWAP1 RETURN JUMPDEST PUSH2 0xAA PUSH2 0x127 JUMP JUMPDEST PUSH1 0x40 MLOAD PUSH2 0xB7 SWAP2 SWAP1 PUSH2 0x185 JUMP JUMPDEST PUSH1 0x40 MLOAD DUP1 SWAP2 SUB SWAP1 RETURN JUMPDEST PUSH2 0xC8 PUSH2 0x14B JUMP JUMPDEST PUSH1 0x40 MLOAD PUSH2 0xD5 SWAP2 SWAP1 PUSH2 0x185 JUMP JUMPDEST PUSH1 0x40 MLOAD DUP1 SWAP2 SUB SWAP1 RETURN JUMPDEST PUSH2 0xE6 PUSH2 0x16F JUMP JUMPDEST PUSH1 0x40 MLOAD PUSH2 0xF3 SWAP2 SWAP1 PUSH2 0x185 JUMP JUMPDEST PUSH1 0x40 MLOAD DUP1 SWAP2 SUB SWAP1 RETURN JUMPDEST PUSH3 0x292F8 DUP2 JUMP JUMPDEST PUSH32 0x60C89CE5C263405370A08B6D0302B0BAB3EEDB83920EE0A677297DC392126F1 DUP2 JUMP JUMPDEST PUSH32 0x183227397098D014DC2822DB40C0AC2E9419F4243CDCB848A1F0FAC9F8000000 DUP2 JUMP JUMPDEST PUSH32 0x30644E72E131A029B85045B68181585D2833E84879B9709143E1F593F0000001 DUP2 JUMP JUMPDEST PUSH3 0x292FC DUP2 JUMP JUMPDEST PUSH2 0x17F DUP2 PUSH2 0x1A0 JUMP JUMPDEST DUP3 MSTORE POP POP JUMP JUMPDEST PUSH1 0x0 PUSH1 0x20 DUP3 ADD SWAP1 POP PUSH2 0x19A PUSH1 0x0 DUP4 ADD DUP5 PUSH2 0x176 JUMP JUMPDEST SWAP3 SWAP2 POP POP JUMP JUMPDEST PUSH1 0x0 DUP2 SWAP1 POP SWAP2 SWAP1 POP JUMP INVALID LOG2 PUSH5 0x6970667358 0x22 SLT KECCAK256 0xD0 SWAP2 DUP6 0xE5 0xC3 PUSH20 0x2AAF0354472B1EEA8631ADA3DB60965028E7A692 XOR 0xD4 0xB9 MUL SWAP3 DIV PUSH5 0x736F6C6343 STOP ADDMOD MOD STOP CALLER "},"methodIdentifiers":{"A()":"f446c1d0","D()":"0f529ba2","H()":"70a5d861","Q()":"e493ef8c","S()":"4be1c796"}}}}}