{
  "_format": "hh-sol-artifact-1",
  "contractName": "BJJ",
  "sourceName": "contracts/BJJ.sol",
  "abi": [
    {
      "inputs": [],
      "name": "A",
      "outputs": [
        {
          "internalType": "uint256",
          "name": "",
          "type": "uint256"
        }
      ],
      "stateMutability": "view",
      "type": "function"
    },
    {
      "inputs": [],
      "name": "D",
      "outputs": [
        {
          "internalType": "uint256",
          "name": "",
          "type": "uint256"
        }
      ],
      "stateMutability": "view",
      "type": "function"
    },
    {
      "inputs": [],
      "name": "H",
      "outputs": [
        {
          "internalType": "uint256",
          "name": "",
          "type": "uint256"
        }
      ],
      "stateMutability": "view",
      "type": "function"
    },
    {
      "inputs": [],
      "name": "Q",
      "outputs": [
        {
          "internalType": "uint256",
          "name": "",
          "type": "uint256"
        }
      ],
      "stateMutability": "view",
      "type": "function"
    },
    {
      "inputs": [],
      "name": "S",
      "outputs": [
        {
          "internalType": "uint256",
          "name": "",
          "type": "uint256"
        }
      ],
      "stateMutability": "view",
      "type": "function"
    }
  ],
  "bytecode": "0x6101e0610053600b82828239805160001a607314610046577f4e487b7100000000000000000000000000000000000000000000000000000000600052600060045260246000fd5b30600052607381538281f3fe73000000000000000000000000000000000000000030146080604052600436106100615760003560e01c80630f529ba2146100665780634be1c7961461008457806370a5d861146100a2578063e493ef8c146100c0578063f446c1d0146100de575b600080fd5b61006e6100fc565b60405161007b9190610185565b60405180910390f35b61008c610103565b6040516100999190610185565b60405180910390f35b6100aa610127565b6040516100b79190610185565b60405180910390f35b6100c861014b565b6040516100d59190610185565b60405180910390f35b6100e661016f565b6040516100f39190610185565b60405180910390f35b620292f881565b7f060c89ce5c263405370a08b6d0302b0bab3eedb83920ee0a677297dc392126f181565b7f183227397098d014dc2822db40c0ac2e9419f4243cdcb848a1f0fac9f800000081565b7f30644e72e131a029b85045b68181585d2833e84879b9709143e1f593f000000181565b620292fc81565b61017f816101a0565b82525050565b600060208201905061019a6000830184610176565b92915050565b600081905091905056fea2646970667358221220d09185e5c3732aaf0354472b1eea8631ada3db60965028e7a69218d4b902920464736f6c63430008060033",
  "linkReferences": {},
  "deployedLinkReferences": {}
}