{
  "_format": "hh-sol-artifact-1",
  "contractName": "DVSC",
  "sourceName": "contracts/verifier.sol",
  "abi": [
    {
      "inputs": [
        {
          "components": [
            {
              "components": [
                {
                  "internalType": "uint256",
                  "name": "X",
                  "type": "uint256"
                },
                {
                  "internalType": "uint256",
                  "name": "Y",
                  "type": "uint256"
                }
              ],
              "internalType": "struct Pairing.G1Point",
              "name": "a",
              "type": "tuple"
            },
            {
              "components": [
                {
                  "internalType": "uint256[2]",
                  "name": "X",
                  "type": "uint256[2]"
                },
                {
                  "internalType": "uint256[2]",
                  "name": "Y",
                  "type": "uint256[2]"
                }
              ],
              "internalType": "struct Pairing.G2Point",
              "name": "b",
              "type": "tuple"
            },
            {
              "components": [
                {
                  "internalType": "uint256",
                  "name": "X",
                  "type": "uint256"
                },
                {
                  "internalType": "uint256",
                  "name": "Y",
                  "type": "uint256"
                }
              ],
              "internalType": "struct Pairing.G1Point",
              "name": "c",
              "type": "tuple"
            }
          ],
          "internalType": "struct DVSC.Proof",
          "name": "proof",
          "type": "tuple"
        },
        {
          "internalType": "uint256[81]",
          "name": "input",
          "type": "uint256[81]"
        }
      ],
      "name": "verifyTx",
      "outputs": [
        {
          "internalType": "bool",
          "name": "r",
          "type": "bool"
        }
      ],
      "stateMutability": "view",
      "type": "function"
    }
  ],
  "bytecode": "0x608060405234801561001057600080fd5b50613a85806100206000396000f3fe608060405234801561001057600080fd5b506004361061002b5760003560e01c8063eefa323d14610030575b600080fd5b61004a600480360381019061004591906136d5565b610060565b6040516100579190613726565b60405180910390f35b600080605167ffffffffffffffff81111561007e5761007d6139e4565b5b6040519080825280602002602001820160405280156100ac5781602001602082028036833780820191505090505b50905060005b6051811015610105578381605181106100ce576100cd6139b5565b5b60200201518282815181106100e6576100e56139b5565b5b60200260200101818152505080806100fd906138dd565b9150506100b2565b506000610112828661012e565b1415610122576001915050610128565b60009150505b92915050565b6000807f30644e72e131a029b85045b68181585d2833e84879b9709143e1f593f00000019050600061015e6102c5565b90508060800151516001865161017491906137b2565b1461017e57600080fd5b60006040518060400160405280600081526020016000815250905060005b865181101561023757838782815181106101b9576101b86139b5565b5b6020026020010151106101cb57600080fd5b6102228261021d85608001516001856101e491906137b2565b815181106101f5576101f46139b5565b5b60200260200101518a85815181106102105761020f6139b5565b5b6020026020010151612c47565b612cee565b9150808061022f906138dd565b91505061019c565b50610261818360800151600081518110610254576102536139b5565b5b6020026020010151612cee565b90506102a78560000151866020015161027984612dbb565b856040015161028b8a60400151612dbb565b876060015161029d8960000151612dbb565b8960200151612e60565b6102b757600193505050506102bf565b600093505050505b92915050565b6102cd613388565b60405180604001604052807f2b8f808f0c59ee9e10bed4a05f4e860587a72a60892744ea279b82941709f18181526020017f07bc556c891897c7cb95129d12366e11b64bc0bc1a7952912ac93cdcf5afc7638152508160000181905250604051806040016040528060405180604001604052807f305d831804b456605e37e9844d7a613cc8bcfffe9e8a23dc684ac3f82bc4ee5d81526020017f1b34a55531d4edda714d12fe0f3c35184c9d59b6e48839066517f986e2995dfa815250815260200160405180604001604052807f0da7f0515480703066d431bb4a6bd8f8241864eae0ec4a5183486db75a312b8f81526020017e460c53ea9f5a8bb9bf37e6716eed7f74199a54b3ebfd043d3954bb1a8413c08152508152508160200181905250604051806040016040528060405180604001604052807f1950004673ec441581f945c4604e8f6347449f56f399f5424219cc63599af4fe81526020017f268a2b6a75aa656f8e4c8cc4744e467999ed3b2e3f5af2858a7a9c09b3ac0ac3815250815260200160405180604001604052807f1facf4de23189655098e0907bdadff12f0a6f752bb088688a68593fed9317e2a81526020017f2abf066cf0513f57f8e51823389d61405a7c3eade00bd62b29eca6892ea292b38152508152508160400181905250604051806040016040528060405180604001604052807f28f6e07e88c6e6bdfe9e5f7f18b8936591913e2d937511b22731e3e100b0441481526020017f0c9f32d68de80ae7b1d78be828dd72a1ea0171273b924c4fd797d0af5dae8afa815250815260200160405180604001604052807f0e5521dbe05d26ce36a27c3a35fc748fd8ecd3f805e1f0f3c63a931cf48bedae81526020017f02c0622565578621ddc7f7969f42e0861a50a5ccc4a512224b6795336ba3261d8152508152508160600181905250605267ffffffffffffffff811115610593576105926139e4565b5b6040519080825280602002602001820160405280156105cc57816020015b6105b96133cf565b8152602001906001900390816105b15790505b50816080018190525060405180604001604052807f1d76732270c37e5cc7a7dfb6acc64751c737dc9b6cbe865b9af4f19f1fb8767281526020017f201e3d4f7959cec5600499b924dac2d507809954c55ac9067124e866108acb658152508160800151600081518110610642576106416139b5565b5b602002602001018190525060405180604001604052807f28308b88c19b06bfc35d0bdea051a618f56d12e52ad99e1565812aad5be6a05981526020017f0c017100b5ffce58353e7bb0caf8a5e7c15bd17a60b043908e96b7cab2fabe3b81525081608001516001815181106106ba576106b96139b5565b5b602002602001018190525060405180604001604052807f0651d224ca61db513cfae371e465454d4adac72cd7f61d2d8a9845137b5e170b81526020017f186797c2b751b47e435fe529029e25dc60efee15c207da37eb9382f986930c8b8152508160800151600281518110610732576107316139b5565b5b602002602001018190525060405180604001604052807f1bbed9ac9c10feecb4fa8e44f5617a7edc3d6db5087f88983fdfe4ae2af61e4281526020017f263951a2a6b7d10340df990b1eb58a46439bac9480df35a9a6ec44ee180c94b381525081608001516003815181106107aa576107a96139b5565b5b602002602001018190525060405180604001604052807f06638ae27bca2ac943a580a97e48ef939909f975aed6ed7adbd3dddece22e80b81526020017f024f50b514916c08d177fda5a876af3d2839ec4617ddae958a91c76a8b04aece8152508160800151600481518110610822576108216139b5565b5b602002602001018190525060405180604001604052807f01ca5738dc18cc0af7b08fc71aa1868c35aef50f07574b31b8d42f9198019f9b81526020017f2d7ee3443ab1b2ce564eb8dc92d949c37040de18606c14dd93ea1fe83ebd1d0a815250816080015160058151811061089a576108996139b5565b5b602002602001018190525060405180604001604052807f04ddf1582c4f7a3f0d60ee6fdb67172f4f725e2e2f242fd79e0e787c1d9853f581526020017f05180499139f73d43683ec41066a8cdce10c8c5ffdf931a6a42f1445718078538152508160800151600681518110610912576109116139b5565b5b602002602001018190525060405180604001604052807e370ded6b5afc6c766c6b1c31b586a988e5d2d98b44c98b511763890aa6679981526020017f1190063e48db1aa62959846c77ae6698171155f6e8874b5443615e9ab3915f248152508160800151600781518110610989576109886139b5565b5b602002602001018190525060405180604001604052807f1e486adbe00c33a19759921894b6a6597be16128f02261c417cf09cd7d2eecc981526020017f161932edeb7a2344e317bf3606534769bdcfa34e0145ce1ae587845d4af9762a8152508160800151600881518110610a0157610a006139b5565b5b602002602001018190525060405180604001604052807f14fe2b6947e472592748997f854e325098f2aa5ade99d05a704afcddbf0fc8aa81526020017f0fdff3a959a4820c006a68ac1bde9e67e021dc4dd7b4ebf359c8fd827275b4288152508160800151600981518110610a7957610a786139b5565b5b602002602001018190525060405180604001604052807f0b2820941c86160bc9ec41a837f1ec878ee576021127e7079de44992c726147581526020017f0439a36edece22d1782aaea533850d3c8125931fb1c58a74dfd610ae93e828ae8152508160800151600a81518110610af157610af06139b5565b5b602002602001018190525060405180604001604052807f21beac1ee6b407fe70285b9c80cee5a7445c0dedb17ed50827949f17faa5029c81526020017f27c75fb95f41acb1386df7a3d6558b63a0a254fc6219533a65efa360b0fa478f8152508160800151600b81518110610b6957610b686139b5565b5b602002602001018190525060405180604001604052807f12ed5939f8b4ab4fe9cf1945c56feda13ff44b30ee91d9d974a69799efaf41ad81526020017f1d1d40df32eac3c51382cf6bac0832f59cff77e378c7477ca59650eb57ff636a8152508160800151600c81518110610be157610be06139b5565b5b602002602001018190525060405180604001604052807f1bc46d057485c106d03f3b340b4ffcc7f590efa46368b40cdb8d073401f77ef981526020017f08d2237cb340f626ef41dfb195c65fb763ccc4fd5f8ddec89caf506bd5ece9c38152508160800151600d81518110610c5957610c586139b5565b5b602002602001018190525060405180604001604052807f2e02cf420c63657dee4169c9ab72e648015262dd73f44e6ba5afa8416a1d333b81526020017f1497c9e77fb9958b16871b12b91b468d2bb0ac43bd8c4b7639a70f0892d510cd8152508160800151600e81518110610cd157610cd06139b5565b5b602002602001018190525060405180604001604052807f180b9304376f99433d19e1cb1ca92d0a677d33db1be944f543255aa19b5641f781526020017f1e25b8219732a24fe018b05179cfbadfd7d21019ba25dba201c29563531231458152508160800151600f81518110610d4957610d486139b5565b5b602002602001018190525060405180604001604052807f1fe9f70820764e50188c346b034642ddc01ad82f3c09a1f98888c29982e9b7a581526020017f0dc8cb9ad2f2bc2d00e81d9283c15cd9d25a005b0b43a9694d24b4f27ccf5a598152508160800151601081518110610dc157610dc06139b5565b5b602002602001018190525060405180604001604052807f1cf298b87b0581894bd4e16555765873ca7a0e1e6886f32bf51542ec466596e081526020017f14fe1b25c66b9f4ebde4ecea93e666d18a1bdb347212d4509c3e2f9cf469a0888152508160800151601181518110610e3957610e386139b5565b5b602002602001018190525060405180604001604052807f24cd0d668e93100f41a4082cde60b23485a10a30fe996f826dad5461e5e7afac81526020017f0ffc522000e19dc8ce7123e342bf50ea2cb9dc1220177cf0435354b1f499a2bd8152508160800151601281518110610eb157610eb06139b5565b5b602002602001018190525060405180604001604052807f2f3131dad86e468fa56dcace00127883e33c1d37fa0194f17ccaaf2f5d7ca36681526020017f224c8a9a450b06896205c49658b3a4a3ac18374cd3fe24910832274dc3d111698152508160800151601381518110610f2957610f286139b5565b5b602002602001018190525060405180604001604052807f065998167e81f9f5c83fa57347d83098a0daca467d4768ae2eae85b3ec78b3a281526020017f29f580fb0c9dac3693ade9afcde73035b558d3b1c8345f64766b166d3c400b638152508160800151601481518110610fa157610fa06139b5565b5b602002602001018190525060405180604001604052807f2012020be15e814b944a26d3109479ee28b0e85f3d14704ac5d141c8a76a547f81526020017f1e13044b759307c725028910f7f8d749b6e2e2bfe6640354e946ea9b58af63f08152508160800151601581518110611019576110186139b5565b5b602002602001018190525060405180604001604052807f1da24732e012dcf09d855cd8c1fae841a94c0920c6ddb7f9a7b8dcf27cab217281526020017f046cc1a06162148f2c0ebe318a9187ba53b73e47ec773f77b09ce2558e892d5e8152508160800151601681518110611091576110906139b5565b5b602002602001018190525060405180604001604052807f2f2d93f8d2ad9323ad2c4c0cda9659bbc71c8050318a90ec9ab7e81ae8be6d0181526020017f2cc13cd666348c7a66fae9483381331f0edaaa3eec8b8552c10dc0ecf22b46b98152508160800151601781518110611109576111086139b5565b5b602002602001018190525060405180604001604052807f2b442d530049352e5d8e38b0b7ee03ea8c7dbbfe0bbdc1913fb2bf87027f3bf981526020017f2bf600f16a4c3dbd643ac6f240b91a63c5b62f8b68ce723ae86610d0b1a5c2028152508160800151601881518110611181576111806139b5565b5b602002602001018190525060405180604001604052807f27e4ab12fff93a24685bf555bef392b6787a01e18080bc75ba676c525b9afb4b81526020017f179660777bd4eeb680a0e87b5dd4d0bde5fb80c87edcd034aac752b14aa8c38381525081608001516019815181106111f9576111f86139b5565b5b602002602001018190525060405180604001604052807f18bfe30a1c8eb9baf2c52852dc84d3b18f39c9bb3e853a27948c3d4d45987ac081526020017f2055be10368ab0579175012d4a5296410c53d09fd6c1ab31f8c30141a1d6b78b8152508160800151601a81518110611271576112706139b5565b5b602002602001018190525060405180604001604052807f23745abf9cf3730877a814e0b85e5eb2b5607a4c9e2fe369b0c543a7f6b50c1581526020017f1d81336ca41d38b9d4dc2c22d04e4faaec6e7553cadec4cd287c5df2ba4838f98152508160800151601b815181106112e9576112e86139b5565b5b602002602001018190525060405180604001604052807f22afd2466fc028d58013c8c8aaa2bc79bc24515637974e4b22f289df05216a8481526020017f0e3f24c9c6e05669cd409b6ec17f130ecbdc1c4cd30517ade86d5979712a18c58152508160800151601c81518110611361576113606139b5565b5b602002602001018190525060405180604001604052807f0c593cdadd3a81b4dbd39ccb2426fdee09651e20eba5df8f1ac07f95ebf4bbea81526020017f206da793a2e36d0cd2844643ee3f1c842584aafabe759cee968dfe90da5cf24a8152508160800151601d815181106113d9576113d86139b5565b5b602002602001018190525060405180604001604052807f0b85adf426d0969f617275f353267a8467702eb9e59ed21c41c54573eb35417181526020017f058835246dce9b8b22b63225c3448623516921708518481715680deb56e94f6f8152508160800151601e81518110611451576114506139b5565b5b602002602001018190525060405180604001604052807f065a96a1fdbf31d7c9454329b46579e68d776abf53d0d9bceafc0c2c07ac7f2981526020017f1244b1ebd4a566accaafb0266c755e2050a317f7c41022a15872d23b2766d68a8152508160800151601f815181106114c9576114c86139b5565b5b602002602001018190525060405180604001604052807f10fa161f039ee5edadcb5d0f4239b6081b84497a61b9c35a52731ba5eb0326b581526020017f22ad07eba118e35cfd6b85cb3091e2b3dccf77d448b045bea9de2ec1cdc87ea58152508160800151602081518110611541576115406139b5565b5b602002602001018190525060405180604001604052807f0e45145caf15f6095797e471642fd025ccb206896ebd053df144251f9647a23081526020017f03cf5db66d08705e033d3c83933ea4b7ee1b82aa40307f4a1dec9b49ee05270e81525081608001516021815181106115b9576115b86139b5565b5b602002602001018190525060405180604001604052807f2d4eaedefd1fb7bdba4e0025449775656393fd261a7e8802a1cc85a0db248da881526020017f261c6fa7f0cd622e19d7704cbaa5dfb2fc9f9192a1529b80ec244bb7b530fab98152508160800151602281518110611631576116306139b5565b5b602002602001018190525060405180604001604052807f0c9fc9581e737ce7dcd32d31369d0eb3918ae4ada30af25a4b42e87d1bda30d981526020017f14203ac8e540474dac9498737c17a4e632a6cca94003bcf37216d670a5b6a28b81525081608001516023815181106116a9576116a86139b5565b5b602002602001018190525060405180604001604052807f06597eeeff3138452891433d24881fdf5316954618c2f996b21b4600246a94fd81526020017f1164ed7d4504190464ad846a0dc582aa0f91c3b56274501fbcac1447f437d34b8152508160800151602481518110611721576117206139b5565b5b602002602001018190525060405180604001604052807f25055d5c8721c57795f1998879874a403d5ccb6a57293eb96f4b31743cffbe7781526020017f2a83d717c34ee91d386b8faa4dc633cd9ed3433a63005c55f3f6319fce7e49cc8152508160800151602581518110611799576117986139b5565b5b602002602001018190525060405180604001604052807f0deb2242ee918a981b71bfa9af23d81c4471f5320517945f5d54d5dbc3ebc3e681526020017f04773c22094671de0c77cd056b228926aeeba8ad9127df5fe1d5e8ed93c1fb5e8152508160800151602681518110611811576118106139b5565b5b602002602001018190525060405180604001604052807f289f3d488acce2727438516c22a23a9de5540ce926456fd0a4aaaae8445b849981526020017f1b95df75164291fe0980670144ac88c44ae53901c3864e7c78b17f1cc43381fa8152508160800151602781518110611889576118886139b5565b5b602002602001018190525060405180604001604052807f0fa7bdef79b07f8af2a962974cbc8bebc49f3e1705aefca70096065e0469db2e81526020017f247477255d906614c551c359dce06a5663e4c36f90f35e3800d5e57443d1cdea8152508160800151602881518110611901576119006139b5565b5b602002602001018190525060405180604001604052807f036d9eb20c2c02d680c29f44624e5c01040a163409559c28f41d5634decd92a781526020017f244f2e76644ecd74ce8c6cf9458a7a0152734697abe6fc6eb023315f86aaf5f28152508160800151602981518110611979576119786139b5565b5b602002602001018190525060405180604001604052807f28dd925a1012487e3330b129284b8985df802c9950895dc53d3b0f550cfb301581526020017f1cfa08b7d09291f571ec72b5ddf4726c32bc9b05b7f20e8241144a3f5da51a048152508160800151602a815181106119f1576119f06139b5565b5b602002602001018190525060405180604001604052807f16912dd99715463b89c023d947eaee1f178b711e4874d80627dd233c561c4e4481526020017f201fa0727f0b9b906bb1c676745fe4c8b3ba755e45fd8fa25c86274a4f14b8438152508160800151602b81518110611a6957611a686139b5565b5b602002602001018190525060405180604001604052807f0700ec1beb95c56909fe2a11ab64b3f7c2347ea02ca115fe0304087e6a7f582a81526020017f13db93c7dcf9d175530fd059cb4072f82ac56779b5ab38fb94aca8af24e5153b8152508160800151602c81518110611ae157611ae06139b5565b5b602002602001018190525060405180604001604052807f05bbd089ab2592f29e6a207a4af1fd4d980a1433bba652cb61906166c78a821c81526020017f2e5b1c0916b355dd09282cddcd67f9776daa7d2acdb8919c4e8ae153812386cf8152508160800151602d81518110611b5957611b586139b5565b5b602002602001018190525060405180604001604052807f24a8362c215e16882da2c5d18d4e425a893a5464b8f27d08bd7896dfc4bfc28181526020017f1286a2b8e4d3eeb5587b462f620ffb4f1f556d37837397fe2eea4f50a1c0bbf98152508160800151602e81518110611bd157611bd06139b5565b5b602002602001018190525060405180604001604052807f2360ebaf387626d2087319d619aa8a3bc5f54b8f56e78e779c334be241a46b3381526020017f168e4c0315a6312be73f23a71867824a60c94605b49fcbd9eafc09713a06d8768152508160800151602f81518110611c4957611c486139b5565b5b602002602001018190525060405180604001604052807f2898ce2b1dbe77190102eaceb4719f8f0f2c9540ecb3772adcec447e36d7d63081526020017f079d9560cc79b9194651f267a5af8c0d43bf85d60992ea29db32dbe8b9ddd4dc8152508160800151603081518110611cc157611cc06139b5565b5b602002602001018190525060405180604001604052807f0b136e26436d50a70730dac1896a50e731887117c360e8f8c751d00d59d5fe2781526020017f24af85c3e9d573ed8c07ef56d9d68e95bb2241c433ff99f4fdc8ccec4b5c191e8152508160800151603181518110611d3957611d386139b5565b5b602002602001018190525060405180604001604052807f2efb37334e7207970586f439c6a412592a15e8f82bf0b722f7c5fe848c8dbf0281526020017f20fabe9ae584298ade6cbe1d0e39c96f2eff39932ebc5e60de25c900a6a1b0c68152508160800151603281518110611db157611db06139b5565b5b602002602001018190525060405180604001604052807f2e73b137f14af0d7611c9d19e6681e952e64c919f74c346a6660128ce9ef41b581526020017f0fbf8f47877e341b3464dfae7a62c989761d0ec67b07233d72de3577a04130808152508160800151603381518110611e2957611e286139b5565b5b602002602001018190525060405180604001604052807f03add1009b0598190ef334e909e03473691f7485163865f8042dba3d6a879ac681526020017f2f67d851c2107217ddc1a155c940d6573a8f8e40e9bb2ba39694675bd0589ad78152508160800151603481518110611ea157611ea06139b5565b5b602002602001018190525060405180604001604052807f0908cd99348a0b6e6846b4b796b28dbc3d165871feb52c9a61d7826f724ff7e281526020017f1ff0dee38287aef7cff30eed3e437dd81f085d0df92bb05dc36125d5f7295ee28152508160800151603581518110611f1957611f186139b5565b5b602002602001018190525060405180604001604052807f1f2360267115bae607b07c4950e0b35bbb69f4a651da77345bcb08b64d7a6c1a81526020017f2b4375c467623e21ff1afc1f56f7076cb6bd9461985fc054ed8c7146482a79c18152508160800151603681518110611f9157611f906139b5565b5b602002602001018190525060405180604001604052807f11d94d98c73431f58d402298165f83db2c85ff9446ec69b75cc08b498ffdb43b81526020017f229e493e7722e4d510e2f7fd05109e2f4ffb1678ee3ee95bccad5f964a5b614c8152508160800151603781518110612009576120086139b5565b5b602002602001018190525060405180604001604052807f171c671646eb833b6140f74b5e546de3a2f4b11a9b713c8ca22b6f27b22b351c81526020017f0c0c2f87135b90a2d9340d3ffe17e0ebdf7a1bb994d342b4ed367752c1f015f18152508160800151603881518110612081576120806139b5565b5b602002602001018190525060405180604001604052807f159b3c1b44e21977905e6f6976f447b6cca3da2b9af8d5f6d772fc9dd800d8ad81526020017f3062db182d46ba4ce01d3f0bf5fa1b36f1915e1bc9d84860d33c2bb73d81453681525081608001516039815181106120f9576120f86139b5565b5b602002602001018190525060405180604001604052807f11dd99eb9a154704ea5e77c01c7688d99b1168aac81071d51aa7dc6a3910ba0281526020017f05ab954bd8f0387fb1c80731bd2fcb24b35d880aa0e80e1e0cf6476700f016f28152508160800151603a81518110612171576121706139b5565b5b602002602001018190525060405180604001604052807f22c7e326359b26f7dac14787b5816b29fd0268454863d0ccd64c3fea794d322381526020017f1cf70fe29210d197744fba44ea28622f5812c048dbb6727820189575ac6c79d28152508160800151603b815181106121e9576121e86139b5565b5b602002602001018190525060405180604001604052807f18128d4a2b0d46cde262f7aeb3706b364090544308558881d94c7438f0b093e381526020017f093a67088c267ccb6d481fa3a7a8bd2f2a55fb2c2d679db56ac585bbe36e92578152508160800151603c81518110612261576122606139b5565b5b602002602001018190525060405180604001604052807f17b6fa6da550e000e7f2327a176e18abf79932a06af0bdc2a484620b77185ad281526020017f11d93af1ca4b36487a5fc9398fcaa2e8a46f891340c7a00442c0246c0118060c8152508160800151603d815181106122d9576122d86139b5565b5b602002602001018190525060405180604001604052807f25c8c7a895adbb8f8347bb47d6e43a390329a5d40cb7c1fb3215556bb9c43a9481526020017f261412caf090dc08f348dabac35e3c55886882cd85cf815c517c46f1ac890ca98152508160800151603e81518110612351576123506139b5565b5b602002602001018190525060405180604001604052807f0bd4c889e2db14fe42f92c3983c4ce98382f567999e90ebd72af1e78380622f481526020017f1153df892b935130b92b18a50f47cd97aea4d449690b08537b7f2e8632747cdf8152508160800151603f815181106123c9576123c86139b5565b5b602002602001018190525060405180604001604052807f10233de21868a0c36696d040d2903cddf3ac5e0a02a82621381f50cd8b368f6681526020017f23e3828e7c978898cfcecb3a76af0a885ddf7c6f9e7cb73c550e6cee06a0e7d08152508160800151604081518110612441576124406139b5565b5b602002602001018190525060405180604001604052807f08ba2225cff2ad5c8b628e2db673e9b554983622fb3cb5167585b91c20f533d881526020017f1b85fb84703a86cdf9d53b0ec28d2899ce6dabded3105418ffddc3c9f8cd011c81525081608001516041815181106124b9576124b86139b5565b5b602002602001018190525060405180604001604052807f2db77ecd864cb7d103d3ba4ee1b1c6d264e79b6b9a7867b37555efdcc0a1d60581526020017f069f490fa6416349bc9d6d47e713b411567dc65c7f295a34da0e4ebbc3d77ba18152508160800151604281518110612531576125306139b5565b5b602002602001018190525060405180604001604052807f03a225dc590d5e3eafae5e7f568cd82f8cb9bbb1969beafadb56561e1dd2391381526020017f274be07467bc8c47b71d3782b67f47f6685bcbe4757c4fbd235c89956857fb9781525081608001516043815181106125a9576125a86139b5565b5b602002602001018190525060405180604001604052807f16303866c8f2068c4e7746ff513d322f410caee28b9a1a5bd2512698c875447481526020017f041c1a58c079dd3d65f481a1a5a8ea01d340d94567babc20ff0f83909f0b76378152508160800151604481518110612621576126206139b5565b5b602002602001018190525060405180604001604052807f2c23adee4fe479b2a48155285b8726af1e51e84a10d66d26af3abb8e0ba304ef81526020017f29505e352a6af4da55866570f6310d26d77ba863647c73108c1d125923789b4a8152508160800151604581518110612699576126986139b5565b5b602002602001018190525060405180604001604052807f0e36f03817dd036e7135f7a872b067084b338a5e7b4948a41ec68e710dcd304c81526020017f23b41cd480dab0cc53117a804006a82959a210442ee186de156e18b5a78adc4c8152508160800151604681518110612711576127106139b5565b5b602002602001018190525060405180604001604052807f1900e5ea8a1c7ffe465bd817ec2a17b1bc2812693cbe4e1ba17c36af7f28e0ff81526020017f07a27e20c229119bc5f772f888fd5166fe45809b8b0c6f47d0c83b25b78926748152508160800151604781518110612789576127886139b5565b5b602002602001018190525060405180604001604052807f11bb10c71cd700a579fbacefebefbec5c7097c31103dc57b59f71db2448c1c5981526020017f04aa85d38e5b788809f41ae3b7fbc55692329aa46bb7c994e4bbc3d43212fe778152508160800151604881518110612801576128006139b5565b5b602002602001018190525060405180604001604052807f11cae0887e98c8c0d7489057fab1aa996b7b48466abcee7d2194bad20abbcd0781526020017f03d4bd2c18b60624728b7df6d6b3df03ae194bf613cbee5a7757aed2ba8c86278152508160800151604981518110612879576128786139b5565b5b602002602001018190525060405180604001604052807f2b80ba4ca6993ba1dca8ef569c6795681365475a834d815614228dc3823efd5181526020017f152a8d832a02d0ae6a0fd3b70c2b4944515c42794dd480a269d5c6befb4267eb8152508160800151604a815181106128f1576128f06139b5565b5b602002602001018190525060405180604001604052807f1ee46acec9ef941deeb3d8fe335f93a2ee331c553301afb8475aa1601034709481526020017f28541391a196b5a902b2515685c607086bed508ea7f499a45ef94c4ee8799c718152508160800151604b81518110612969576129686139b5565b5b602002602001018190525060405180604001604052807f0ba1ade875471718100b34411ac48cfa073a5061576990a714e300dc5293d6b581526020017f1ffcc0c40f91cd25d7ff95f2b1e1c9250a4a3b30f8e693e830896d3c11d804b78152508160800151604c815181106129e1576129e06139b5565b5b602002602001018190525060405180604001604052807f0db89d812bcd8faa16752413e7598077093c0edf5d237d54941830bf60162b0481526020017f02f71084266339307c9225de8209d07fe29df456fbb528dbccfc7f49682b31a58152508160800151604d81518110612a5957612a586139b5565b5b602002602001018190525060405180604001604052807f0cff924b4da3a033392ee7c56ae9e96eda31baf22772bab86fa2b5af546308e581526020017f29f2f0b2b71a378fe64d7e88b84585cd8406a3bb1a878da876f868a62834347f8152508160800151604e81518110612ad157612ad06139b5565b5b602002602001018190525060405180604001604052807f1a7bc097f4863e13c58b1acd05f878806779f39dc6157c31ac5aca4b42dc0a6681526020017f03e3e3f1b34606c31b6490ee340ae8021fb6d7bb8e77bea99ef795caadd543e98152508160800151604f81518110612b4957612b486139b5565b5b602002602001018190525060405180604001604052807f21eff94e793e9fe7035d8953e2d88b74190d76d270ae14acf098ca6d35e0b9d481526020017f1832d36da7ed48fe56af662d24f6b1e2e14b4bece892bce6f597663e785c66878152508160800151605081518110612bc157612bc06139b5565b5b602002602001018190525060405180604001604052807f0bb90ad22ca7971293a0788a31054168cd44c6fee5ec53eaca88a72661a61b4f81526020017f0be9e6a787182470ea349c52ccaa5bf4ea17156f35a7c134fa15851451720e1a8152508160800151605181518110612c3957612c386139b5565b5b602002602001018190525090565b612c4f6133cf565b612c576133e9565b836000015181600060038110612c7057612c6f6139b5565b5b602002018181525050836020015181600160038110612c9257612c916139b5565b5b6020020181815250508281600260038110612cb057612caf6139b5565b5b602002018181525050600060608360808460076107d05a03fa90508060008114612cd957612cdb565bfe5b5080612ce657600080fd5b505092915050565b612cf66133cf565b612cfe61340b565b836000015181600060048110612d1757612d166139b5565b5b602002018181525050836020015181600160048110612d3957612d386139b5565b5b602002018181525050826000015181600260048110612d5b57612d5a6139b5565b5b602002018181525050826020015181600360048110612d7d57612d7c6139b5565b5b602002018181525050600060608360c08460066107d05a03fa90508060008114612da657612da8565bfe5b5080612db357600080fd5b505092915050565b612dc36133cf565b60007f30644e72e131a029b85045b68181585d97816a916871ca8d3c208c16d87cfd47905060008360000151148015612e00575060008360200151145b15612e24576040518060400160405280600081526020016000815250915050612e5b565b604051806040016040528084600001518152602001828560200151612e499190613926565b83612e549190613862565b8152509150505b919050565b600080600467ffffffffffffffff811115612e7e57612e7d6139e4565b5b604051908082528060200260200182016040528015612eb757816020015b612ea46133cf565b815260200190600190039081612e9c5790505b5090506000600467ffffffffffffffff811115612ed757612ed66139e4565b5b604051908082528060200260200182016040528015612f1057816020015b612efd61342d565b815260200190600190039081612ef55790505b5090508a82600081518110612f2857612f276139b5565b5b60200260200101819052508882600181518110612f4857612f476139b5565b5b60200260200101819052508682600281518110612f6857612f676139b5565b5b60200260200101819052508482600381518110612f8857612f876139b5565b5b60200260200101819052508981600081518110612fa857612fa76139b5565b5b60200260200101819052508781600181518110612fc857612fc76139b5565b5b60200260200101819052508581600281518110612fe857612fe76139b5565b5b60200260200101819052508381600381518110613008576130076139b5565b5b602002602001018190525061301d828261302d565b9250505098975050505050505050565b6000815183511461303d57600080fd5b60008351905060006006826130529190613808565b905060008167ffffffffffffffff8111156130705761306f6139e4565b5b60405190808252806020026020018201604052801561309e5781602001602082028036833780820191505090505b50905060005b83811015613323578681815181106130bf576130be6139b5565b5b6020026020010151600001518260006006846130db9190613808565b6130e591906137b2565b815181106130f6576130f56139b5565b5b602002602001018181525050868181518110613115576131146139b5565b5b6020026020010151602001518260016006846131319190613808565b61313b91906137b2565b8151811061314c5761314b6139b5565b5b60200260200101818152505085818151811061316b5761316a6139b5565b5b60200260200101516000015160016002811061318a576131896139b5565b5b602002015182600260068461319f9190613808565b6131a991906137b2565b815181106131ba576131b96139b5565b5b6020026020010181815250508581815181106131d9576131d86139b5565b5b6020026020010151600001516000600281106131f8576131f76139b5565b5b602002015182600360068461320d9190613808565b61321791906137b2565b81518110613228576132276139b5565b5b602002602001018181525050858181518110613247576132466139b5565b5b602002602001015160200151600160028110613266576132656139b5565b5b602002015182600460068461327b9190613808565b61328591906137b2565b81518110613296576132956139b5565b5b6020026020010181815250508581815181106132b5576132b46139b5565b5b6020026020010151602001516000600281106132d4576132d36139b5565b5b60200201518260056006846132e99190613808565b6132f391906137b2565b81518110613304576133036139b5565b5b602002602001018181525050808061331b906138dd565b9150506130a4565b5061332c613453565b6000602082602086026020860160086107d05a03fa9050806000811461335157613353565bfe5b508061335e57600080fd5b600082600060018110613374576133736139b5565b5b602002015114159550505050505092915050565b6040518060a0016040528061339b6133cf565b81526020016133a861342d565b81526020016133b561342d565b81526020016133c261342d565b8152602001606081525090565b604051806040016040528060008152602001600081525090565b6040518060600160405280600390602082028036833780820191505090505090565b6040518060800160405280600490602082028036833780820191505090505090565b6040518060400160405280613440613475565b815260200161344d613475565b81525090565b6040518060200160405280600190602082028036833780820191505090505090565b6040518060400160405280600290602082028036833780820191505090505090565b60006134aa6134a584613766565b613741565b905080828560208602820111156134c4576134c3613a1d565b5b60005b858110156134f457816134da88826136c0565b8452602084019350602083019250506001810190506134c7565b5050509392505050565b600061351161350c8461378c565b613741565b9050808285602086028201111561352b5761352a613a1d565b5b60005b8581101561355b578161354188826136c0565b84526020840193506020830192505060018101905061352e565b5050509392505050565b600082601f83011261357a57613579613a13565b5b6002613587848285613497565b91505092915050565b600082601f8301126135a5576135a4613a13565b5b60516135b28482856134fe565b91505092915050565b6000604082840312156135d1576135d0613a18565b5b6135db6040613741565b905060006135eb848285016136c0565b60008301525060206135ff848285016136c0565b60208301525092915050565b60006080828403121561362157613620613a18565b5b61362b6040613741565b9050600061363b84828501613565565b600083015250604061364f84828501613565565b60208301525092915050565b6000610100828403121561367257613671613a18565b5b61367c6060613741565b9050600061368c848285016135bb565b60008301525060406136a08482850161360b565b60208301525060c06136b4848285016135bb565b60408301525092915050565b6000813590506136cf81613a38565b92915050565b600080610b2083850312156136ed576136ec613a22565b5b60006136fb8582860161365b565b92505061010061370d85828601613590565b9150509250929050565b61372081613896565b82525050565b600060208201905061373b6000830184613717565b92915050565b600061374b61375c565b905061375782826138ac565b919050565b6000604051905090565b600067ffffffffffffffff821115613781576137806139e4565b5b602082029050919050565b600067ffffffffffffffff8211156137a7576137a66139e4565b5b602082029050919050565b60006137bd826138a2565b91506137c8836138a2565b9250827fffffffffffffffffffffffffffffffffffffffffffffffffffffffffffffffff038211156137fd576137fc613957565b5b828201905092915050565b6000613813826138a2565b915061381e836138a2565b9250817fffffffffffffffffffffffffffffffffffffffffffffffffffffffffffffffff048311821515161561385757613856613957565b5b828202905092915050565b600061386d826138a2565b9150613878836138a2565b92508282101561388b5761388a613957565b5b828203905092915050565b60008115159050919050565b6000819050919050565b6138b582613a27565b810181811067ffffffffffffffff821117156138d4576138d36139e4565b5b80604052505050565b60006138e8826138a2565b91507fffffffffffffffffffffffffffffffffffffffffffffffffffffffffffffffff82141561391b5761391a613957565b5b600182019050919050565b6000613931826138a2565b915061393c836138a2565b92508261394c5761394b613986565b5b828206905092915050565b7f4e487b7100000000000000000000000000000000000000000000000000000000600052601160045260246000fd5b7f4e487b7100000000000000000000000000000000000000000000000000000000600052601260045260246000fd5b7f4e487b7100000000000000000000000000000000000000000000000000000000600052603260045260246000fd5b7f4e487b7100000000000000000000000000000000000000000000000000000000600052604160045260246000fd5b600080fd5b600080fd5b600080fd5b600080fd5b6000601f19601f8301169050919050565b613a41816138a2565b8114613a4c57600080fd5b5056fea2646970667358221220ae195c1e5c6f2aa71bdbf9f27be1842dd0b439c63da88598714eb957a9f2ae6a64736f6c63430008060033",
  "linkReferences": {},
  "deployedLinkReferences": {}
}