{
  "_format": "hh-sol-artifact-1",
  "contractName": "DVSC",
  "sourceName": "contracts/verifier.sol",
  "abi": [
    {
      "inputs": [
        {
          "components": [
            {
              "components": [
                {
                  "internalType": "uint256",
                  "name": "X",
                  "type": "uint256"
                },
                {
                  "internalType": "uint256",
                  "name": "Y",
                  "type": "uint256"
                }
              ],
              "internalType": "struct Pairing.G1Point",
              "name": "a",
              "type": "tuple"
            },
            {
              "components": [
                {
                  "internalType": "uint256[2]",
                  "name": "X",
                  "type": "uint256[2]"
                },
                {
                  "internalType": "uint256[2]",
                  "name": "Y",
                  "type": "uint256[2]"
                }
              ],
              "internalType": "struct Pairing.G2Point",
              "name": "b",
              "type": "tuple"
            },
            {
              "components": [
                {
                  "internalType": "uint256",
                  "name": "X",
                  "type": "uint256"
                },
                {
                  "internalType": "uint256",
                  "name": "Y",
                  "type": "uint256"
                }
              ],
              "internalType": "struct Pairing.G1Point",
              "name": "c",
              "type": "tuple"
            }
          ],
          "internalType": "struct DVSC.Proof",
          "name": "proof",
          "type": "tuple"
        },
        {
          "internalType": "uint256[33]",
          "name": "input",
          "type": "uint256[33]"
        }
      ],
      "name": "verifyTx",
      "outputs": [
        {
          "internalType": "bool",
          "name": "r",
          "type": "bool"
        }
      ],
      "stateMutability": "view",
      "type": "function"
    }
  ],
  "bytecode": "0x608060405234801561001057600080fd5b50612406806100206000396000f3fe608060405234801561001057600080fd5b506004361061002b5760003560e01c8063785b3bbb14610030575b600080fd5b61004a60048036038101906100459190612056565b610060565b60405161005791906120a7565b60405180910390f35b600080602167ffffffffffffffff81111561007e5761007d612365565b5b6040519080825280602002602001820160405280156100ac5781602001602082028036833780820191505090505b50905060005b6021811015610105578381602181106100ce576100cd612336565b5b60200201518282815181106100e6576100e5612336565b5b60200260200101818152505080806100fd9061225e565b9150506100b2565b506000610112828661012e565b1415610122576001915050610128565b60009150505b92915050565b6000807f30644e72e131a029b85045b68181585d2833e84879b9709143e1f593f00000019050600061015e6102c5565b9050806080015151600186516101749190612133565b1461017e57600080fd5b60006040518060400160405280600081526020016000815250905060005b865181101561023757838782815181106101b9576101b8612336565b5b6020026020010151106101cb57600080fd5b6102228261021d85608001516001856101e49190612133565b815181106101f5576101f4612336565b5b60200260200101518a85815181106102105761020f612336565b5b60200260200101516115c8565b61166f565b9150808061022f9061225e565b91505061019c565b5061026181836080015160008151811061025457610253612336565b5b602002602001015161166f565b90506102a7856000015186602001516102798461173c565b856040015161028b8a6040015161173c565b876060015161029d896000015161173c565b89602001516117e1565b6102b757600193505050506102bf565b600093505050505b92915050565b6102cd611d09565b60405180604001604052807f2a63d23b73c06cb185f8d617ed33ad8daf0db004855df5cc82b3692252ad2c6781526020017e73781c2b2844f8085a11f5f39adebdc629ec9abd6f211e3c8951231ae492608152508160000181905250604051806040016040528060405180604001604052807f1dd2eca2478eb684b7f42b5b8cc53eb24b98f40b42a20fa10f0e41045028230e81526020017f1915be54b6575eb81115c81e7b3cf5daa922865167ad1a6ba7d2637bd3e40783815250815260200160405180604001604052807f2135b30dd846e6408fd4ece3ee713fa287eba621dc3bcf421b85c996edc106d681526020017f0ba4e5b6b1a87cd644aee2c9e9d3d2e1c4fb8dd0d45d5ab60732a4bebd4e36908152508152508160200181905250604051806040016040528060405180604001604052807f27b28f604ff94891ea99a5deecdbd53eff7d2601ae7dfa4c95bf5a3565e0bb9981526020017f2b11b8ba434b191238c07cda3e96eb732aa5ccb9258bfd08497f75ac41489041815250815260200160405180604001604052807f02afe96e9def68cc5e167f2aaff8943aed7a1bb4b393ac094792a9215df50b2d81526020017f0a64e5e37ed6f982833722ec4ea8f2da6bfcc0a2ba9d51c566d8b0ad5221727f8152508152508160400181905250604051806040016040528060405180604001604052807f1d67cc90eb20d8ebe3e6c0b9edc307a1176b1f89dc846b84e067cac2e6ae375d81526020017f29b194f7451933b938157f0c3a495e57ba10a0042e6452ca8b09441441543689815250815260200160405180604001604052807f0dad938f2366792f6a4a17310b992076c0bf350c1a5c961721eb58e683ff580781526020017f1b00f1ffbff7a21a69ff52007686fc23f5fed44f6ef857f5fab2146f6d1b56b78152508152508160600181905250602267ffffffffffffffff81111561059357610592612365565b5b6040519080825280602002602001820160405280156105cc57816020015b6105b9611d50565b8152602001906001900390816105b15790505b50816080018190525060405180604001604052807f1050789e17da5095992ce0fa14c3d9606e3250302f435c870f27e80fc4016fe881526020017f2900a5c597acd2efcd676a8092beb851f28d9042eec9d34b467db0c43a83fa1b815250816080015160008151811061064257610641612336565b5b602002602001018190525060405180604001604052807f23b85222953afca2e33feff9d8b608c82c47259761229254f8666a46c9e36ccd81526020017f2915da4eabc247ce5dd5f2746e0d9f120343ca573c90a2a9b4f47cbe29db80d181525081608001516001815181106106ba576106b9612336565b5b602002602001018190525060405180604001604052807f087325d135f7165b54c79ec0200d14becb1f8641a473c9f8e3ecdf079399024181526020017f16eb1ff598f6c3a0576c99479046ec3d1efb9b248c7b78878e5543ca1433609b815250816080015160028151811061073257610731612336565b5b602002602001018190525060405180604001604052807f05cffb5652773375c6c5b324e2a18afce7079813bd53d75108a39962d6f67ecc81526020017f09d545d82f962db8f2752ee96832974a1b533a6f8f494c41f61782d80becefdc81525081608001516003815181106107aa576107a9612336565b5b602002602001018190525060405180604001604052807f2922a00cc8962a4e57b58cfe4e8bd1f1fefa8eb2b554d86e11847da205dd2f3381526020017f18bce3ed9ef21c85c49bae7ed20e5522a1312275c262b68dd854b84cf8a3f508815250816080015160048151811061082257610821612336565b5b602002602001018190525060405180604001604052807f264c152c47a0a94c583cc57bfe59f164ede5673d51b3eb8cf226bdd336ee354e81526020017f0e3511ba0b9aa6565c7faded32e2f2dbee74844c886c8a3bea8e8e87c2626835815250816080015160058151811061089a57610899612336565b5b602002602001018190525060405180604001604052807f153ecefd7044de6637e8485c6580109d54690e26303dbce2cf47eea1e9b531a081526020017f088a78674503f8d575fb5e83a85ea3eed0fa278b210d001116feea2caac274f1815250816080015160068151811061091257610911612336565b5b602002602001018190525060405180604001604052807f0f5d3f192f4af7a753ea3f799b560a5828ed21d10ea3b446186f11ec984c6d4c81526020017f2f053344241a55e0155098f93f518d3456cd6e8920cd04fd1002b3bb80dced9c815250816080015160078151811061098a57610989612336565b5b602002602001018190525060405180604001604052807f248b8ed7ab6976340153a956808103cd5b97cf5cf3b445a38c9e13de773f013381526020017f05f73a367ac56770a0ca8ed9268e8b11acaa2e39c3db6333c597bb21e9ac7d4c8152508160800151600881518110610a0257610a01612336565b5b602002602001018190525060405180604001604052807f100edea5a4595eb09b8cd5f4206354acc297bb203900ed4fe0a32046a73a508c81526020017f024c29ae50bd0c941dfba7fe9bcf2d97e593ec84195852f3beb689fd9873fd628152508160800151600981518110610a7a57610a79612336565b5b602002602001018190525060405180604001604052807f0c142a6ee4666975adf5ea2c787927fc281084ff88698ab17e2a74d34f73d5df81526020017f2283c79c85cac4359e7689a3094fb367f7a9b2ce1ffa1d9047af1159b220a5fb8152508160800151600a81518110610af257610af1612336565b5b602002602001018190525060405180604001604052807f05b8c3057af41a9331497bbc05a03925bf9d653127c53e50e9662fda45a73aa481526020017f0490dfcc2e3c792c2cedfed3245b203a349dc3311780547e87b476250b589a8e8152508160800151600b81518110610b6a57610b69612336565b5b602002602001018190525060405180604001604052807f2ede49217193cf92b82ed61b8abfb6ad1485481c2a21019aece206603d47427881526020017f28336d9709e72acd818153fc1225ec204d2b7a756b1a73760532727f36e25c508152508160800151600c81518110610be257610be1612336565b5b602002602001018190525060405180604001604052807f02dee14024f2c8d9a6cd34d82d74418d582434a75069430745fdaf238139cb4981526020017f0eb3512f56ae89d88fb72e4c7c3492c43f75dbfa56c1f037b8abc546e735c3bc8152508160800151600d81518110610c5a57610c59612336565b5b602002602001018190525060405180604001604052807f06165aa373ab626f5926f07e09587f4a2632ea7b5cf1edafd8a07e91d40fe2b381526020017f2a9baac92791e6e4a676dda2ab0990f6a7234e67c0fa11a0cd0c4e76be724a158152508160800151600e81518110610cd257610cd1612336565b5b602002602001018190525060405180604001604052807f097c1c400d1e82ad8bb62deaba0893f205c7bf815862bc12bdb00223ef5ab3eb81526020017f1f03bd81e810b991c095fcd822d54cd07ae45d01c32fc02b515331f685c3cceb8152508160800151600f81518110610d4a57610d49612336565b5b602002602001018190525060405180604001604052807f290d04fff212f268cc6544d8d60d452233ef7118519ac7e81879d8278a8039c581526020017f133d49b4ff993040bf66e0d7958b2cb4b6dae64065083f7fe606fe338d8814788152508160800151601081518110610dc257610dc1612336565b5b602002602001018190525060405180604001604052807f19d983664c236935647037c94fbdee36f5aeb9adcc5a4ce4fb40fbf212fb857581526020017f180d54c8a3d5ec0fa6e30a6108f14089be48828079fe10f6872b72c8c4c7faf88152508160800151601181518110610e3a57610e39612336565b5b602002602001018190525060405180604001604052807f1d8b2085f333c7dbc6e5d2bbd2bce114e6e5108aaac4059cc536e7ec5bf7ef7481526020017f1356c793e2e6794fa5e9a780893177bf39a38ac53eacc5adf526ed11944a77f38152508160800151601281518110610eb257610eb1612336565b5b602002602001018190525060405180604001604052807f2d403f8bf3d04339662098f3bd249b4d527aadffa48b91017cc2e612a5f9cbde81526020017f21ff7d19716f78004e0dee01def1b4280df7f1687b7ff689e27a1474e53b6e268152508160800151601381518110610f2a57610f29612336565b5b602002602001018190525060405180604001604052807f1a21a1c67fac300309783a5e6e901a23bca77967892099a11ab97c2af82cd15281526020017f06871456744cbc9d0ccee1e0eaf32910b827e7d5ea752fab4035696248fb9f7c8152508160800151601481518110610fa257610fa1612336565b5b602002602001018190525060405180604001604052807f18d6f0a06e2e51a63b1a1f6e3c1322cf6733ee7b71a97b1710902fe11009fa6281526020017f067223512f6a145c9b1b3e9477a86c3b919af782e82062304a25eba2198e5425815250816080015160158151811061101a57611019612336565b5b602002602001018190525060405180604001604052807f281e5a721a7b2089ded6f571bbfd626b43a7a89c13e43c31016a77c255fd9ceb81526020017f12ac41adc09f8b58e070d11427443579b1130dbabe7b917bf4233ca04be1e2cb815250816080015160168151811061109257611091612336565b5b602002602001018190525060405180604001604052807f09927a93362a656a1edf6eb9ab3e2d0aaad1739d963bc6006d29faddf2319c3081526020017f05f711159f8ec77cae2a7024b3a0c87c60a729b6e500e7a9062a4d7f1900ffda815250816080015160178151811061110a57611109612336565b5b602002602001018190525060405180604001604052807f0d3a3aa4939c54d4a2969b82d7fe887292abbbf97c8cacf11ef627af26f5524981526020017f015d52ea4de2aab02c1b368b39ce4a29e22be80ee5303d255336abc943075daf815250816080015160188151811061118257611181612336565b5b602002602001018190525060405180604001604052807f23720766db07869b28a9e56828fe077a44823cfcf38c7f2067c9cbe0bbf8a2e381526020017f1fa3617ceda16f3430c5eac9dc0a0804b76de5ddd13b18eb363f8b79970f248881525081608001516019815181106111fa576111f9612336565b5b602002602001018190525060405180604001604052807f0339fd49153de4b518c81f41c9d3b6e26f7fb5c04376809aa73cf136d0b31d6381526020017f057eda5fe20151b9c2968d88caadb95ae55fa08e4e08cea60af3daf50b2eaba08152508160800151601a8151811061127257611271612336565b5b602002602001018190525060405180604001604052807f2f21fa3bf197c3c5705992014d735584b103d2f1afc16e59909dd219e0dd265881526020017f10ef793ea0cf315ce09413fceb535e456c53226bbd1517ff56f6d156423054868152508160800151601b815181106112ea576112e9612336565b5b602002602001018190525060405180604001604052807f284e354e590341d41ab0dce79c54d0893264de6dfbf0bc55f5a8aa93334b3b7a81526020017f054881b94faf9c2922a2b2e03172ac3aa6be6330611c841cc7d7951a745c3cab8152508160800151601c8151811061136257611361612336565b5b602002602001018190525060405180604001604052807f227333b130805633fcf82b73ce18c252a331a1a276af73821e609a93d2cd6eea81526020017f066e1e65b26b67cd60dc737d00613d91e4d3467d463186c9eac4f92dcaeba9b38152508160800151601d815181106113da576113d9612336565b5b602002602001018190525060405180604001604052807f0f6de914601575b0ce472c583a73af6df2af9e6691f07f511030e97966d1174e81526020017f279a582c4af9ad3e426c5337b2c3d53641199c757528f41102d20235ecbca2f48152508160800151601e8151811061145257611451612336565b5b602002602001018190525060405180604001604052807f03df20cace11d046cc9ce0155659e0c2d7fbfd52f208def0858d26ab257438d981526020017f1b80cea26b93b76a613a181755c9290fd9bd421c3c30ab61500c8cc34b5cf5b98152508160800151601f815181106114ca576114c9612336565b5b602002602001018190525060405180604001604052807f1052f5eaf9664b45b32f7d026b2451d9eec6235d057a128ab61a156a0ec726ed81526020017f2edd3531e416acbf922e8a7f8c5f766aacdc8cd437caff568bf11c65c9360875815250816080015160208151811061154257611541612336565b5b602002602001018190525060405180604001604052807f1d7b1bbe68b78bb941bc429f4e26b99255ba58b20ddb9b5bc3412897d89a074081526020017f0a9cf1ac405aef37867b3d0e4efe733fae8afde0b9bc4be1fca31e5283a2deba81525081608001516021815181106115ba576115b9612336565b5b602002602001018190525090565b6115d0611d50565b6115d8611d6a565b8360000151816000600381106115f1576115f0612336565b5b60200201818152505083602001518160016003811061161357611612612336565b5b602002018181525050828160026003811061163157611630612336565b5b602002018181525050600060608360808460076107d05a03fa9050806000811461165a5761165c565bfe5b508061166757600080fd5b505092915050565b611677611d50565b61167f611d8c565b83600001518160006004811061169857611697612336565b5b6020020181815250508360200151816001600481106116ba576116b9612336565b5b6020020181815250508260000151816002600481106116dc576116db612336565b5b6020020181815250508260200151816003600481106116fe576116fd612336565b5b602002018181525050600060608360c08460066107d05a03fa9050806000811461172757611729565bfe5b508061173457600080fd5b505092915050565b611744611d50565b60007f30644e72e131a029b85045b68181585d97816a916871ca8d3c208c16d87cfd47905060008360000151148015611781575060008360200151145b156117a55760405180604001604052806000815260200160008152509150506117dc565b6040518060400160405280846000015181526020018285602001516117ca91906122a7565b836117d591906121e3565b8152509150505b919050565b600080600467ffffffffffffffff8111156117ff576117fe612365565b5b60405190808252806020026020018201604052801561183857816020015b611825611d50565b81526020019060019003908161181d5790505b5090506000600467ffffffffffffffff81111561185857611857612365565b5b60405190808252806020026020018201604052801561189157816020015b61187e611dae565b8152602001906001900390816118765790505b5090508a826000815181106118a9576118a8612336565b5b602002602001018190525088826001815181106118c9576118c8612336565b5b602002602001018190525086826002815181106118e9576118e8612336565b5b6020026020010181905250848260038151811061190957611908612336565b5b6020026020010181905250898160008151811061192957611928612336565b5b6020026020010181905250878160018151811061194957611948612336565b5b6020026020010181905250858160028151811061196957611968612336565b5b6020026020010181905250838160038151811061198957611988612336565b5b602002602001018190525061199e82826119ae565b9250505098975050505050505050565b600081518351146119be57600080fd5b60008351905060006006826119d39190612189565b905060008167ffffffffffffffff8111156119f1576119f0612365565b5b604051908082528060200260200182016040528015611a1f5781602001602082028036833780820191505090505b50905060005b83811015611ca457868181518110611a4057611a3f612336565b5b602002602001015160000151826000600684611a5c9190612189565b611a669190612133565b81518110611a7757611a76612336565b5b602002602001018181525050868181518110611a9657611a95612336565b5b602002602001015160200151826001600684611ab29190612189565b611abc9190612133565b81518110611acd57611acc612336565b5b602002602001018181525050858181518110611aec57611aeb612336565b5b602002602001015160000151600160028110611b0b57611b0a612336565b5b6020020151826002600684611b209190612189565b611b2a9190612133565b81518110611b3b57611b3a612336565b5b602002602001018181525050858181518110611b5a57611b59612336565b5b602002602001015160000151600060028110611b7957611b78612336565b5b6020020151826003600684611b8e9190612189565b611b989190612133565b81518110611ba957611ba8612336565b5b602002602001018181525050858181518110611bc857611bc7612336565b5b602002602001015160200151600160028110611be757611be6612336565b5b6020020151826004600684611bfc9190612189565b611c069190612133565b81518110611c1757611c16612336565b5b602002602001018181525050858181518110611c3657611c35612336565b5b602002602001015160200151600060028110611c5557611c54612336565b5b6020020151826005600684611c6a9190612189565b611c749190612133565b81518110611c8557611c84612336565b5b6020026020010181815250508080611c9c9061225e565b915050611a25565b50611cad611dd4565b6000602082602086026020860160086107d05a03fa90508060008114611cd257611cd4565bfe5b5080611cdf57600080fd5b600082600060018110611cf557611cf4612336565b5b602002015114159550505050505092915050565b6040518060a00160405280611d1c611d50565b8152602001611d29611dae565b8152602001611d36611dae565b8152602001611d43611dae565b8152602001606081525090565b604051806040016040528060008152602001600081525090565b6040518060600160405280600390602082028036833780820191505090505090565b6040518060800160405280600490602082028036833780820191505090505090565b6040518060400160405280611dc1611df6565b8152602001611dce611df6565b81525090565b6040518060200160405280600190602082028036833780820191505090505090565b6040518060400160405280600290602082028036833780820191505090505090565b6000611e2b611e26846120e7565b6120c2565b90508082856020860282011115611e4557611e4461239e565b5b60005b85811015611e755781611e5b8882612041565b845260208401935060208301925050600181019050611e48565b5050509392505050565b6000611e92611e8d8461210d565b6120c2565b90508082856020860282011115611eac57611eab61239e565b5b60005b85811015611edc5781611ec28882612041565b845260208401935060208301925050600181019050611eaf565b5050509392505050565b600082601f830112611efb57611efa612394565b5b6002611f08848285611e18565b91505092915050565b600082601f830112611f2657611f25612394565b5b6021611f33848285611e7f565b91505092915050565b600060408284031215611f5257611f51612399565b5b611f5c60406120c2565b90506000611f6c84828501612041565b6000830152506020611f8084828501612041565b60208301525092915050565b600060808284031215611fa257611fa1612399565b5b611fac60406120c2565b90506000611fbc84828501611ee6565b6000830152506040611fd084828501611ee6565b60208301525092915050565b60006101008284031215611ff357611ff2612399565b5b611ffd60606120c2565b9050600061200d84828501611f3c565b600083015250604061202184828501611f8c565b60208301525060c061203584828501611f3c565b60408301525092915050565b600081359050612050816123b9565b92915050565b600080610520838503121561206e5761206d6123a3565b5b600061207c85828601611fdc565b92505061010061208e85828601611f11565b9150509250929050565b6120a181612217565b82525050565b60006020820190506120bc6000830184612098565b92915050565b60006120cc6120dd565b90506120d8828261222d565b919050565b6000604051905090565b600067ffffffffffffffff82111561210257612101612365565b5b602082029050919050565b600067ffffffffffffffff82111561212857612127612365565b5b602082029050919050565b600061213e82612223565b915061214983612223565b9250827fffffffffffffffffffffffffffffffffffffffffffffffffffffffffffffffff0382111561217e5761217d6122d8565b5b828201905092915050565b600061219482612223565b915061219f83612223565b9250817fffffffffffffffffffffffffffffffffffffffffffffffffffffffffffffffff04831182151516156121d8576121d76122d8565b5b828202905092915050565b60006121ee82612223565b91506121f983612223565b92508282101561220c5761220b6122d8565b5b828203905092915050565b60008115159050919050565b6000819050919050565b612236826123a8565b810181811067ffffffffffffffff8211171561225557612254612365565b5b80604052505050565b600061226982612223565b91507fffffffffffffffffffffffffffffffffffffffffffffffffffffffffffffffff82141561229c5761229b6122d8565b5b600182019050919050565b60006122b282612223565b91506122bd83612223565b9250826122cd576122cc612307565b5b828206905092915050565b7f4e487b7100000000000000000000000000000000000000000000000000000000600052601160045260246000fd5b7f4e487b7100000000000000000000000000000000000000000000000000000000600052601260045260246000fd5b7f4e487b7100000000000000000000000000000000000000000000000000000000600052603260045260246000fd5b7f4e487b7100000000000000000000000000000000000000000000000000000000600052604160045260246000fd5b600080fd5b600080fd5b600080fd5b600080fd5b6000601f19601f8301169050919050565b6123c281612223565b81146123cd57600080fd5b5056fea2646970667358221220fb67c42228bc73623cf98ab49acdaaffa1ca5be89e0c27ad6fb294d2e0dbbe8d64736f6c63430008060033",
  "linkReferences": {},
  "deployedLinkReferences": {}
}