{
  "_format": "hh-sol-artifact-1",
  "contractName": "MVSC",
  "sourceName": "contracts/verifier.sol",
  "abi": [
    {
      "inputs": [
        {
          "components": [
            {
              "components": [
                {
                  "internalType": "uint256",
                  "name": "X",
                  "type": "uint256"
                },
                {
                  "internalType": "uint256",
                  "name": "Y",
                  "type": "uint256"
                }
              ],
              "internalType": "struct Pairing.G1Point",
              "name": "a",
              "type": "tuple"
            },
            {
              "components": [
                {
                  "internalType": "uint256[2]",
                  "name": "X",
                  "type": "uint256[2]"
                },
                {
                  "internalType": "uint256[2]",
                  "name": "Y",
                  "type": "uint256[2]"
                }
              ],
              "internalType": "struct Pairing.G2Point",
              "name": "b",
              "type": "tuple"
            },
            {
              "components": [
                {
                  "internalType": "uint256",
                  "name": "X",
                  "type": "uint256"
                },
                {
                  "internalType": "uint256",
                  "name": "Y",
                  "type": "uint256"
                }
              ],
              "internalType": "struct Pairing.G1Point",
              "name": "c",
              "type": "tuple"
            }
          ],
          "internalType": "struct MVSC.Proof",
          "name": "proof",
          "type": "tuple"
        },
        {
          "internalType": "uint256[24]",
          "name": "input",
          "type": "uint256[24]"
        }
      ],
      "name": "verifyTx",
      "outputs": [
        {
          "internalType": "bool",
          "name": "r",
          "type": "bool"
        }
      ],
      "stateMutability": "view",
      "type": "function"
    }
  ],
  "bytecode": "0x608060405234801561001057600080fd5b50611fcb806100206000396000f3fe608060405234801561001057600080fd5b506004361061002b5760003560e01c806388e3f31714610030575b600080fd5b61004a60048036038101906100459190611c1b565b610060565b6040516100579190611c6c565b60405180910390f35b600080601867ffffffffffffffff81111561007e5761007d611f2a565b5b6040519080825280602002602001820160405280156100ac5781602001602082028036833780820191505090505b50905060005b6018811015610105578381601881106100ce576100cd611efb565b5b60200201518282815181106100e6576100e5611efb565b5b60200260200101818152505080806100fd90611e23565b9150506100b2565b506000610112828661012e565b1415610122576001915050610128565b60009150505b92915050565b6000807f30644e72e131a029b85045b68181585d2833e84879b9709143e1f593f00000019050600061015e6102c5565b9050806080015151600186516101749190611cf8565b1461017e57600080fd5b60006040518060400160405280600081526020016000815250905060005b865181101561023757838782815181106101b9576101b8611efb565b5b6020026020010151106101cb57600080fd5b6102228261021d85608001516001856101e49190611cf8565b815181106101f5576101f4611efb565b5b60200260200101518a85815181106102105761020f611efb565b5b602002602001015161118d565b611234565b9150808061022f90611e23565b91505061019c565b5061026181836080015160008151811061025457610253611efb565b5b6020026020010151611234565b90506102a78560000151866020015161027984611301565b856040015161028b8a60400151611301565b876060015161029d8960000151611301565b89602001516113a6565b6102b757600193505050506102bf565b600093505050505b92915050565b6102cd6118ce565b60405180604001604052807f1635d15567816b533b8489291dfa7369eea8bfd26b1a5661d43b8fba8534ef9381526020017f2f8d32ec4a8df92a5c58ae9a986b971ecc205fe221c30c1f270290a70a9102c88152508160000181905250604051806040016040528060405180604001604052807f1805caa951180dec37d759597459c1bffb3a7ecdd50510f34d8da841fce78b0e81526020017f03d678fb93c8c15c209dc39869ded6fa699436fb5dc53a18d4ed5cc82ea056db815250815260200160405180604001604052807f18bea2f33b985e0a57141e38f3a822f2aa8014ae1108304ea2832bf8036ac0fa81526020017f05b60fa4fa9ac543642a610b35de6731cdca3dfa3bf02890116e83553bcbd6538152508152508160200181905250604051806040016040528060405180604001604052807f1dd5f5a44a5bad3bc6a081a9b003e0a5d4d4da40f5385c442f12fba3be9c223581526020017f2feb231fd70bab785cdcf0d021f9d9e5aa536d9e34a552fe1eaba06955acb7d2815250815260200160405180604001604052807f199bf111819b97e857003a450206835758256ef87bcad43740926cdacd01d88f81526020017f0ef180b448760065b8171fe9e98fdecf28baaec92ef4a9f4c842d11481387be88152508152508160400181905250604051806040016040528060405180604001604052807f1865833bb8d626ec55310f1f2afa37bdd778efe48c28f2045efda757672f11ba81526020017e0939d7a1d5d9126cd182e681747529bdb15c0a9fc864e13a4e9862fb2fb784815250815260200160405180604001604052807f178a3cb3c4b7177652321283be8c4f2abf6d1bde78a09af571768514bccb795d81526020017f13a75eb6f0dca762a71bf75b915aee9c3edc9f0842e2c4de8a6c7337ab389d6f8152508152508160600181905250601967ffffffffffffffff81111561059357610592611f2a565b5b6040519080825280602002602001820160405280156105cc57816020015b6105b9611915565b8152602001906001900390816105b15790505b50816080018190525060405180604001604052807f095aa9708537e0acdb3acb11e553515ad1f65f0001bf4bab66dac26f2453ea8381526020017f1ab0e84d6b24f34f7efc79de9ddd6d80f9380dd8c0aa28c32e2f9f3854ed97fe815250816080015160008151811061064257610641611efb565b5b602002602001018190525060405180604001604052807f1dd56957f3368111456308041cc4c36d2328e47592bac23bff4b928d8f4840f781526020017f2727117161ea311ad1dfb6cbbddbdb59bfc668da582c3024c53564463f231f1981525081608001516001815181106106ba576106b9611efb565b5b602002602001018190525060405180604001604052807f0bd92c03010973077324fe3f7b336e7e35e904f71001cb137d725f9032fcff7e81526020017f27e3d009cd396bad72572be54e443025e67968e4c4b6534bec71131d44dbf855815250816080015160028151811061073257610731611efb565b5b602002602001018190525060405180604001604052807f21be2f81d87e60ebfc7c3d4e5045be3150c19fac919bc96935dcf5fa71ec317d81526020017f0e2f428f967948026ee72a7c84f5ff2e192fd04f427b8249e4dd9f407ebebfda81525081608001516003815181106107aa576107a9611efb565b5b602002602001018190525060405180604001604052807f295ef3639515d0164396ff3cd09c05562a4f014ba4305fbcfce9994bfe9e035381526020017f266a66fa705525272000825224ea26255b11488bf168a429b8c17a220bc30557815250816080015160048151811061082257610821611efb565b5b602002602001018190525060405180604001604052807e06293ba7a0b33ea3d746c05654be553ba0b4f2cfb66bbcd19b193b9751369d81526020017f14a074dd3543f4ccdd6537ca5c8eebfb217060ca4e5afeb0a7a09d9ecfc912ee815250816080015160058151811061089957610898611efb565b5b602002602001018190525060405180604001604052807f144ad0200273fa50774c9b9887163281953aa2ab259be53288879f063db3eb1881526020017f206308bead896eb31342813e8e9312c5f13dd471c0a5605de66f6f68bc0a4126815250816080015160068151811061091157610910611efb565b5b602002602001018190525060405180604001604052807f0866bcc288edb38d7dcf46657225cecbbbb116d7c348584d74b4bdd46a511cb681526020017f23d60738ef43938ecee267ce09786cf3d18be5c361918704585de32e15ca9e2d815250816080015160078151811061098957610988611efb565b5b602002602001018190525060405180604001604052807f0b2f3bd45b06b0f39cddb0365a8e2962ad9e266e7d718e62be89b4f71cef101281526020017f2271ba3aa61eb2c10d848935abe4de30dfd4290d8266d615921bc860a2a0adce8152508160800151600881518110610a0157610a00611efb565b5b602002602001018190525060405180604001604052807f23fb3311c76f76d0f26729dbca3df5e83ae561d2178e6d65497c816fc502e66b81526020017f01f9762a3514bae45ea18ae195d96d06726e5b13ca98911675d65baa81f133788152508160800151600981518110610a7957610a78611efb565b5b602002602001018190525060405180604001604052807f277c7ac0ceb263bc9a3d014d38a6000aaa1c42315530db9e61fd39af8cbfd92b81526020017f03c17ecbb1f7f2526ab2b29928b9b88e46934df6f584efc5f6abba40250f97448152508160800151600a81518110610af157610af0611efb565b5b602002602001018190525060405180604001604052807f2c98470cb570e485c786af848696da00486aa0cf3420215c1b7d4abd5059286081526020017f1fdec81895854c21729f47cc08a2a6dd6a791a99002da4139aefb53cca209d8f8152508160800151600b81518110610b6957610b68611efb565b5b602002602001018190525060405180604001604052807f25a81739a99c738161a6210eedab854a741cc0495f7ec2c677367ce3d3e868a881526020017f0d930f83e7260ab863230504290cc7d5fc0d8a1f07b7df347112d72bbe9437a88152508160800151600c81518110610be157610be0611efb565b5b602002602001018190525060405180604001604052807f07386e63ab5c69a165a8b0eb0b24988e88a1dad8191b324a458e053ad90452b381526020017f25460f55db0d23ac0c824f23c61dfb42cbd4d9f4a3cbf0f912cc9434afc001238152508160800151600d81518110610c5957610c58611efb565b5b602002602001018190525060405180604001604052807f274482c081cdcfea7f907eeb48a54589ef7a3c2f1f5d6b14b2079fc42019851d81526020017f2d3269eb78a6c30707d86790bc9118c6d73e8665c6426aae55118d4bdf1d51418152508160800151600e81518110610cd157610cd0611efb565b5b602002602001018190525060405180604001604052807f2a902536485f315f958e1f58428595d9547e508a44fe4eae4d88490f7b6f493581526020017f2467c22389a6f730256f13ef9c36fefaffd5f62e59883253ba7e454f203bb1ba8152508160800151600f81518110610d4957610d48611efb565b5b602002602001018190525060405180604001604052807f14629ff0a8b89bd71c2f6a563bf7c970ddae1b321a9c7a166244c04530d6b3aa81526020017f12c6f2e374e57df351930c8af85080f88aaf982fae8462f566ff130fef03fb4b8152508160800151601081518110610dc157610dc0611efb565b5b602002602001018190525060405180604001604052807f26fb68fabedee09dd650447c8ed9a1facd2ca6c64d7ce4739f9ad24e3681a95081526020017f1451295dc567532a2faaef99fea2d36cd0783ee3bab10ef347b04144c56aa1d68152508160800151601181518110610e3957610e38611efb565b5b602002602001018190525060405180604001604052807f170ef8b963ad4003ae5fab8f63a3498019996cb7e95abfc8bd02e146535acc0081526020017ec1aed28ba067b3d985de0738be5d6062ac05e671c096dd545b49509521ec168152508160800151601281518110610eb057610eaf611efb565b5b602002602001018190525060405180604001604052807f195f188845ace50740d4e5d790923101f03de4c87b72f2ef9c13ec43caea1c4281526020017f1be80b0a4b27caa95e1f4e05f1eed590581df670510951c7d53c740a78aea7118152508160800151601381518110610f2857610f27611efb565b5b602002602001018190525060405180604001604052807f1dfaef7d1d60d28f24b48fdcf3e2002e60bd6a912a814cca9a0f50716fd763a481526020017f2710d6b35bc5a842e5e0a66328fb88d23dd81f1d857223b86e57a1d4028ac2248152508160800151601481518110610fa057610f9f611efb565b5b602002602001018190525060405180604001604052807f29cb27efcca93c2ac44427cc8a10b06dc8edf7c9d5d093a81111d303a3077d5a81526020017f20b0649741427f3c0888a7790b93f647fe16cb356d05e7e1b32c7a8191ea7166815250816080015160158151811061101857611017611efb565b5b602002602001018190525060405180604001604052807f031c3edb5bebce3517bd14a98d56a194bbe4e61efd4b25316a2bb768488fecb681526020017e9cf640cc8ec2e09513ee64fe8602a365e040d2adc40be06d3130f63d00dc67815250816080015160168151811061108f5761108e611efb565b5b602002602001018190525060405180604001604052807f0fc00f16735e56e0e1eeee6aa1ac226a8e88f89f7f7139f5291693e13da95cac81526020017f2499b80bd4f366c83f2b4da3e013700a00d1ca70649256b5d65f39ad4c4c5db4815250816080015160178151811061110757611106611efb565b5b602002602001018190525060405180604001604052807f1edf8272bddacdea24c9ed9829c4ece615c87bde3e8a387faaa3f559f036fb8e81526020017f21601e76e5f68d65ead089c6a6ecc2605416263352d2ea5fb9ef15ba239b02be815250816080015160188151811061117f5761117e611efb565b5b602002602001018190525090565b611195611915565b61119d61192f565b8360000151816000600381106111b6576111b5611efb565b5b6020020181815250508360200151816001600381106111d8576111d7611efb565b5b60200201818152505082816002600381106111f6576111f5611efb565b5b602002018181525050600060608360808460076107d05a03fa9050806000811461121f57611221565bfe5b508061122c57600080fd5b505092915050565b61123c611915565b611244611951565b83600001518160006004811061125d5761125c611efb565b5b60200201818152505083602001518160016004811061127f5761127e611efb565b5b6020020181815250508260000151816002600481106112a1576112a0611efb565b5b6020020181815250508260200151816003600481106112c3576112c2611efb565b5b602002018181525050600060608360c08460066107d05a03fa905080600081146112ec576112ee565bfe5b50806112f957600080fd5b505092915050565b611309611915565b60007f30644e72e131a029b85045b68181585d97816a916871ca8d3c208c16d87cfd47905060008360000151148015611346575060008360200151145b1561136a5760405180604001604052806000815260200160008152509150506113a1565b60405180604001604052808460000151815260200182856020015161138f9190611e6c565b8361139a9190611da8565b8152509150505b919050565b600080600467ffffffffffffffff8111156113c4576113c3611f2a565b5b6040519080825280602002602001820160405280156113fd57816020015b6113ea611915565b8152602001906001900390816113e25790505b5090506000600467ffffffffffffffff81111561141d5761141c611f2a565b5b60405190808252806020026020018201604052801561145657816020015b611443611973565b81526020019060019003908161143b5790505b5090508a8260008151811061146e5761146d611efb565b5b6020026020010181905250888260018151811061148e5761148d611efb565b5b602002602001018190525086826002815181106114ae576114ad611efb565b5b602002602001018190525084826003815181106114ce576114cd611efb565b5b602002602001018190525089816000815181106114ee576114ed611efb565b5b6020026020010181905250878160018151811061150e5761150d611efb565b5b6020026020010181905250858160028151811061152e5761152d611efb565b5b6020026020010181905250838160038151811061154e5761154d611efb565b5b60200260200101819052506115638282611573565b9250505098975050505050505050565b6000815183511461158357600080fd5b60008351905060006006826115989190611d4e565b905060008167ffffffffffffffff8111156115b6576115b5611f2a565b5b6040519080825280602002602001820160405280156115e45781602001602082028036833780820191505090505b50905060005b838110156118695786818151811061160557611604611efb565b5b6020026020010151600001518260006006846116219190611d4e565b61162b9190611cf8565b8151811061163c5761163b611efb565b5b60200260200101818152505086818151811061165b5761165a611efb565b5b6020026020010151602001518260016006846116779190611d4e565b6116819190611cf8565b8151811061169257611691611efb565b5b6020026020010181815250508581815181106116b1576116b0611efb565b5b6020026020010151600001516001600281106116d0576116cf611efb565b5b60200201518260026006846116e59190611d4e565b6116ef9190611cf8565b81518110611700576116ff611efb565b5b60200260200101818152505085818151811061171f5761171e611efb565b5b60200260200101516000015160006002811061173e5761173d611efb565b5b60200201518260036006846117539190611d4e565b61175d9190611cf8565b8151811061176e5761176d611efb565b5b60200260200101818152505085818151811061178d5761178c611efb565b5b6020026020010151602001516001600281106117ac576117ab611efb565b5b60200201518260046006846117c19190611d4e565b6117cb9190611cf8565b815181106117dc576117db611efb565b5b6020026020010181815250508581815181106117fb576117fa611efb565b5b60200260200101516020015160006002811061181a57611819611efb565b5b602002015182600560068461182f9190611d4e565b6118399190611cf8565b8151811061184a57611849611efb565b5b602002602001018181525050808061186190611e23565b9150506115ea565b50611872611999565b6000602082602086026020860160086107d05a03fa9050806000811461189757611899565bfe5b50806118a457600080fd5b6000826000600181106118ba576118b9611efb565b5b602002015114159550505050505092915050565b6040518060a001604052806118e1611915565b81526020016118ee611973565b81526020016118fb611973565b8152602001611908611973565b8152602001606081525090565b604051806040016040528060008152602001600081525090565b6040518060600160405280600390602082028036833780820191505090505090565b6040518060800160405280600490602082028036833780820191505090505090565b60405180604001604052806119866119bb565b81526020016119936119bb565b81525090565b6040518060200160405280600190602082028036833780820191505090505090565b6040518060400160405280600290602082028036833780820191505090505090565b60006119f06119eb84611cac565b611c87565b90508082856020860282011115611a0a57611a09611f63565b5b60005b85811015611a3a5781611a208882611c06565b845260208401935060208301925050600181019050611a0d565b5050509392505050565b6000611a57611a5284611cd2565b611c87565b90508082856020860282011115611a7157611a70611f63565b5b60005b85811015611aa15781611a878882611c06565b845260208401935060208301925050600181019050611a74565b5050509392505050565b600082601f830112611ac057611abf611f59565b5b6018611acd8482856119dd565b91505092915050565b600082601f830112611aeb57611aea611f59565b5b6002611af8848285611a44565b91505092915050565b600060408284031215611b1757611b16611f5e565b5b611b216040611c87565b90506000611b3184828501611c06565b6000830152506020611b4584828501611c06565b60208301525092915050565b600060808284031215611b6757611b66611f5e565b5b611b716040611c87565b90506000611b8184828501611ad6565b6000830152506040611b9584828501611ad6565b60208301525092915050565b60006101008284031215611bb857611bb7611f5e565b5b611bc26060611c87565b90506000611bd284828501611b01565b6000830152506040611be684828501611b51565b60208301525060c0611bfa84828501611b01565b60408301525092915050565b600081359050611c1581611f7e565b92915050565b6000806104008385031215611c3357611c32611f68565b5b6000611c4185828601611ba1565b925050610100611c5385828601611aab565b9150509250929050565b611c6681611ddc565b82525050565b6000602082019050611c816000830184611c5d565b92915050565b6000611c91611ca2565b9050611c9d8282611df2565b919050565b6000604051905090565b600067ffffffffffffffff821115611cc757611cc6611f2a565b5b602082029050919050565b600067ffffffffffffffff821115611ced57611cec611f2a565b5b602082029050919050565b6000611d0382611de8565b9150611d0e83611de8565b9250827fffffffffffffffffffffffffffffffffffffffffffffffffffffffffffffffff03821115611d4357611d42611e9d565b5b828201905092915050565b6000611d5982611de8565b9150611d6483611de8565b9250817fffffffffffffffffffffffffffffffffffffffffffffffffffffffffffffffff0483118215151615611d9d57611d9c611e9d565b5b828202905092915050565b6000611db382611de8565b9150611dbe83611de8565b925082821015611dd157611dd0611e9d565b5b828203905092915050565b60008115159050919050565b6000819050919050565b611dfb82611f6d565b810181811067ffffffffffffffff82111715611e1a57611e19611f2a565b5b80604052505050565b6000611e2e82611de8565b91507fffffffffffffffffffffffffffffffffffffffffffffffffffffffffffffffff821415611e6157611e60611e9d565b5b600182019050919050565b6000611e7782611de8565b9150611e8283611de8565b925082611e9257611e91611ecc565b5b828206905092915050565b7f4e487b7100000000000000000000000000000000000000000000000000000000600052601160045260246000fd5b7f4e487b7100000000000000000000000000000000000000000000000000000000600052601260045260246000fd5b7f4e487b7100000000000000000000000000000000000000000000000000000000600052603260045260246000fd5b7f4e487b7100000000000000000000000000000000000000000000000000000000600052604160045260246000fd5b600080fd5b600080fd5b600080fd5b600080fd5b6000601f19601f8301169050919050565b611f8781611de8565b8114611f9257600080fd5b5056fea2646970667358221220dc79421eb697e0ee85b85f4b443d0db209d308724f05e4921b5ee872bbb2b43364736f6c63430008060033",
  "linkReferences": {},
  "deployedLinkReferences": {}
}