{
  "_format": "hh-sol-artifact-1",
  "contractName": "MVSC",
  "sourceName": "contracts/verifier.sol",
  "abi": [
    {
      "inputs": [
        {
          "components": [
            {
              "components": [
                {
                  "internalType": "uint256",
                  "name": "X",
                  "type": "uint256"
                },
                {
                  "internalType": "uint256",
                  "name": "Y",
                  "type": "uint256"
                }
              ],
              "internalType": "struct Pairing.G1Point",
              "name": "a",
              "type": "tuple"
            },
            {
              "components": [
                {
                  "internalType": "uint256[2]",
                  "name": "X",
                  "type": "uint256[2]"
                },
                {
                  "internalType": "uint256[2]",
                  "name": "Y",
                  "type": "uint256[2]"
                }
              ],
              "internalType": "struct Pairing.G2Point",
              "name": "b",
              "type": "tuple"
            },
            {
              "components": [
                {
                  "internalType": "uint256",
                  "name": "X",
                  "type": "uint256"
                },
                {
                  "internalType": "uint256",
                  "name": "Y",
                  "type": "uint256"
                }
              ],
              "internalType": "struct Pairing.G1Point",
              "name": "c",
              "type": "tuple"
            }
          ],
          "internalType": "struct MVSC.Proof",
          "name": "proof",
          "type": "tuple"
        },
        {
          "internalType": "uint256[56]",
          "name": "input",
          "type": "uint256[56]"
        }
      ],
      "name": "verifyTx",
      "outputs": [
        {
          "internalType": "bool",
          "name": "r",
          "type": "bool"
        }
      ],
      "stateMutability": "view",
      "type": "function"
    }
  ],
  "bytecode": "0x608060405234801561001057600080fd5b50612eca806100206000396000f3fe608060405234801561001057600080fd5b506004361061002b5760003560e01c8063b581abe614610030575b600080fd5b61004a60048036038101906100459190612b1a565b610060565b6040516100579190612b6b565b60405180910390f35b600080603867ffffffffffffffff81111561007e5761007d612e29565b5b6040519080825280602002602001820160405280156100ac5781602001602082028036833780820191505090505b50905060005b6038811015610105578381603881106100ce576100cd612dfa565b5b60200201518282815181106100e6576100e5612dfa565b5b60200260200101818152505080806100fd90612d22565b9150506100b2565b506000610112828661012e565b1415610122576001915050610128565b60009150505b92915050565b6000807f30644e72e131a029b85045b68181585d2833e84879b9709143e1f593f00000019050600061015e6102c5565b9050806080015151600186516101749190612bf7565b1461017e57600080fd5b60006040518060400160405280600081526020016000815250905060005b865181101561023757838782815181106101b9576101b8612dfa565b5b6020026020010151106101cb57600080fd5b6102228261021d85608001516001856101e49190612bf7565b815181106101f5576101f4612dfa565b5b60200260200101518a85815181106102105761020f612dfa565b5b602002602001015161208c565b612133565b9150808061022f90612d22565b91505061019c565b5061026181836080015160008151811061025457610253612dfa565b5b6020026020010151612133565b90506102a78560000151866020015161027984612200565b856040015161028b8a60400151612200565b876060015161029d8960000151612200565b89602001516122a5565b6102b757600193505050506102bf565b600093505050505b92915050565b6102cd6127cd565b60405180604001604052807f113b419965fdcf38b879f8d1074a6c07750dd4717275163f7fc6fec138687bba81526020017f1753126c8ac38a9e150402a363d3fd615bdd4b443454e690ceedfa32ecdd58328152508160000181905250604051806040016040528060405180604001604052807f29b6f531b5368bf48fea514e149363f99629f5b28c311f52222d899b8098fa5681526020017f0f374799d4a7849e83b2ca34ba71e95f9653f62bd1513cfabb500e86b8dac1c1815250815260200160405180604001604052807e0726d5fe93aed68fcf667f4d44df823a2201dad94afad2ee976ff1392305df81526020017f20954669a5df07c294c5c758a39afa7b6779dff77a021b25ce7fc70a89d32ab58152508152508160200181905250604051806040016040528060405180604001604052807f1c42fb963f3b818457bdbf67d33a8272914e7a363500f7021ff5208f4f80345581526020017f213953c4e98416683043e300a794dc30b64b925c291a21ed49f76e14fa2c5e3d815250815260200160405180604001604052807e81877eeb5f3b4591040dcb733a1f7699d353ebe628fe6210ce1add4f0ee54681526020017f20a69e8e94b67d26cd3fa4362807e8fc10f5233f256c79f86f8c24644b1665718152508152508160400181905250604051806040016040528060405180604001604052807f207e8c7f65bfa2b1fb2477a5aa74ae578f034048b746f28bc56b1132a328b3f481526020017f0a61d08dd445b2e9b5421a93f6d8cf00d8e990b1b4c24b63f2e344873e0f6a63815250815260200160405180604001604052807f25943b319c18ed02d2e3d1d1f4e5b09147be2544a77c64f301dea2ac19a6c95b81526020017f2c96f1c46cb5e83297695af6f6259b4fac6784cbc893e872d6b27d5070c0cf9b8152508152508160600181905250603967ffffffffffffffff81111561059257610591612e29565b5b6040519080825280602002602001820160405280156105cb57816020015b6105b8612814565b8152602001906001900390816105b05790505b50816080018190525060405180604001604052807f20345b803c0e7b926bb3e248db729493185580721b09dd7b99647d3523be46e381526020017f162e396068c2352c4c3f6cd59eeaceedfe40dc0babe43acd5d7128c3ddc7bed0815250816080015160008151811061064157610640612dfa565b5b602002602001018190525060405180604001604052807f1b45b4c308c3f67246682a6774aac77d634de4410250a730ca4c8eb72062711d81526020017f03b78393c08ae016f5f8365a91bed74865c40579f64776eef5f1460adb70d9b281525081608001516001815181106106b9576106b8612dfa565b5b602002602001018190525060405180604001604052807f2773d19dad0c5ceda2f9bbf97b1549e1561219ac4fc9e5f55f03e729059b149881526020017f033771ce3635c66010feff95c70b29464951a2698ce412d83d4dc55cb146269e815250816080015160028151811061073157610730612dfa565b5b602002602001018190525060405180604001604052807f1f64d048c435ff39f718469235ec9b9828f126592d819b8388d83c9df5de97da81526020017f0b69bd1bf80709adbe51291a32f798f9b35a66e33947ac530f0e087991bc03d981525081608001516003815181106107a9576107a8612dfa565b5b602002602001018190525060405180604001604052807f1c93dfcff383a9c33f6781fe4e7e6f12d903687099b2bc8281ab3ebf0f96690481526020017f1dc719b4c904fae8581be33f5f453b3f16e62ac062f48225e3c30649789b647a815250816080015160048151811061082157610820612dfa565b5b602002602001018190525060405180604001604052807f279985cf7bff298442137e393c4f7fe4751e2f3ba161c3d8a31928977774bdbf81526020017f15b9e265af3bf854a581f3a44c2bf2e7f0dd3f397a716584511827ceec03ff5e815250816080015160058151811061089957610898612dfa565b5b602002602001018190525060405180604001604052807f220396a2d0bd6e4283d90c41e567b79354bea981b6b30c2c397767724b711fce81526020017f0b5bc8983d6a2207c5efcd08a5c9d919bc31fb0d356d7032203b55c92683c2d9815250816080015160068151811061091157610910612dfa565b5b602002602001018190525060405180604001604052807f053284a6ed7e0a07f9187d0cddcbc064664eba329e9d2d130ac5fcd32ca2776e81526020017f2effe83b3efe0f3e7ebbe98e4cb27ca89ace1f9b54c5ef940c65adf49624e787815250816080015160078151811061098957610988612dfa565b5b602002602001018190525060405180604001604052807f1013858c587ea7ba65f2368cd837404e87f93a10e5753901cfa4cbbaab874d8581526020017f2290da55cd351dd191e62f796a76e3c620000ba47a6433527df40c125e38af298152508160800151600881518110610a0157610a00612dfa565b5b602002602001018190525060405180604001604052807f097ee13e4b1381d9d89ccc33b792df67896dfc139e02ee702304c5693ed863a081526020017f2a436dd87f910fde83016e20e71a53c3027522ed3d5b31f67091aa055df35b288152508160800151600981518110610a7957610a78612dfa565b5b602002602001018190525060405180604001604052807f0acc0787d2d61b79b90d0161e10d7d48494e33a309247345104a105226a5999b81526020017f1d5c7f9eab196e92bfcbe3f585f75284bcd66a6b9f8d0c8fd3e3d3081d94eb2a8152508160800151600a81518110610af157610af0612dfa565b5b602002602001018190525060405180604001604052807f02369480520333426d1fff13d0fc9b2fe8e8e4ad0b9b38d95318ed9aa8e3b80e81526020017f0996e7a7be0a50f7e0aa5d61c4c70f97da399547548913117496a62f63dba42d8152508160800151600b81518110610b6957610b68612dfa565b5b602002602001018190525060405180604001604052807f028ae099810fbce21cdd300ad5656cacf6b742e05116d518ec0d868a9e40291f81526020017f0c91729909d976853e54231da96a4ef55b89363bfebbb2260354ac794ad76fcc8152508160800151600c81518110610be157610be0612dfa565b5b602002602001018190525060405180604001604052807f02433e743cf0dcb7d2aab6aa63519b627c21884d90313fbc54bdb5de6596e37581526020017f23615823097f32ff71470d224eb3848a1b040685cb00beb8c231db33a70cd35d8152508160800151600d81518110610c5957610c58612dfa565b5b602002602001018190525060405180604001604052807f2f47483ce99f866331af9cbc54b0de2991dc555eb6c3ce4e5dea12450c6c464c81526020017f0d4db8338af41262698b4e91cd577c31e27af31a7a59cb831d22c541544132728152508160800151600e81518110610cd157610cd0612dfa565b5b602002602001018190525060405180604001604052807f2b2e57f879aa67f6998f681ae12d1afb9c13c495a9eda6b3965402d61ba1c05881526020017e515588136092a67586391aaca99f0450565f022529f50c19f9dd69765e0c228152508160800151600f81518110610d4857610d47612dfa565b5b602002602001018190525060405180604001604052807f2b501dfd078d8ed021d673a46443b9b9aae06dfaad890bc257f3b8f5f812679581526020017f1c0e071070ce6c7776667a4274d8aeba84a72e9f0414ed027a7516b2c45779be8152508160800151601081518110610dc057610dbf612dfa565b5b602002602001018190525060405180604001604052807f1e5205cc0633ae654bffdb2ea891789a4926e07c90270138080916d43f89c64981526020017f214b26ec85e9af99e9d70b4384dfe740a37ade813dbc8605fb3ac77b56131cd08152508160800151601181518110610e3857610e37612dfa565b5b602002602001018190525060405180604001604052807f197e4bd4b8b3138b747fb00af2002619472fcd15c669ee0c2564211671ea536e81526020017f296cda15813b298c6e49ce383132b2dea145a7f9c0e98e8f41a3054eaba23d608152508160800151601281518110610eb057610eaf612dfa565b5b602002602001018190525060405180604001604052807f2fb2c4a5f2fde555ba6e04ca42399b1882907fa2d96fa2e650f0c7b9f333340781526020017f1765a4bec71b2b017f493407c809d8dfd74b77d8c7d41871ed55705ccaa463a08152508160800151601381518110610f2857610f27612dfa565b5b602002602001018190525060405180604001604052807f1d4ea688779bc2e9532542c67a48372d54b3ecbcd4883db6d0371a4989bae85681526020017f0cbfe939eb2df83bdd79e5cd2b3ce50452eda0f5fb33f9dd8a6d962ae677f4be8152508160800151601481518110610fa057610f9f612dfa565b5b602002602001018190525060405180604001604052807f10591fcbfe21545d3cf5557e2ac5ed998772ac4b47e825d39f3503a51235841c81526020017f2a416219a81d4c8a71bd3d24e5763a3d2feefca1e5068ffba858993525fedc1d815250816080015160158151811061101857611017612dfa565b5b602002602001018190525060405180604001604052807f26e2893c2d9c8baa4a93a4998d38b49082e905f6edf3c871ffdf7b80184926ce81526020017f1f4fb29a01092562cad8a3cff94a643ef9a5adb5f0f306e11d8da38a29dcdc2581525081608001516016815181106110905761108f612dfa565b5b602002602001018190525060405180604001604052807f26279c7a8f6396cebf153f9e929444c126a1a712c51ac0939d524c9ee8cf1f0181526020017e9c0447b25739f4a88a069d1333f9ce3b6def9215fad63f1ff89dc88a51fc03815250816080015160178151811061110757611106612dfa565b5b602002602001018190525060405180604001604052807f07157049cf3b27a1d0669d83ac3e87ec52c5f409d41f3136f82db7a12e184ecd81526020017f14f6b1730e5c55cfc8d068756c91cf6b6fa63fb2c7c89ae67f092602a9095374815250816080015160188151811061117f5761117e612dfa565b5b602002602001018190525060405180604001604052807f2fee092fb5e5b22b9cb4c11f98d23a128d9426cedfb5d832cbeeb06b52ef926a81526020017f0e66fc5f06d09395f35e37fd0754cd21a658c4ff3d7e8eea134a815ec2e1a32381525081608001516019815181106111f7576111f6612dfa565b5b602002602001018190525060405180604001604052807f2e9abe4735ebcaf5c6f1d0acafd38be2a9a543e160637bbdb23771e48064fd9281526020017f223b9c43bb416fd26bf5ee588a2f82e0ddcb75097bc7ad4b8885376a7e53265a8152508160800151601a8151811061126f5761126e612dfa565b5b602002602001018190525060405180604001604052807f1b7aea1fb1c1aba4a55a5223c77f01c86513bbecd4fe30351aecab0b358fb78c81526020017f1008f27c5a1402ac37b8afcf347609d1b724ea79f655f95cca5c49c426fa80948152508160800151601b815181106112e7576112e6612dfa565b5b602002602001018190525060405180604001604052807f207c0a11c8c1a3a1654a26ed1d38d0a8d3783267eb1ba74904ee212cfaa4aacf81526020017f21edf24b087bd764bce2c27995bcc8bc927e903ccbd8dacc10e86d9bd44343038152508160800151601c8151811061135f5761135e612dfa565b5b602002602001018190525060405180604001604052807f09832e2deb5eb4647354ffbc435a0dd538989ac96e2cbbeadff4d8f810a7c51a81526020017f18832981bf97b9a8f85bbb14d00cfd46119b52e53247241b9e35e62fb025efb28152508160800151601d815181106113d7576113d6612dfa565b5b602002602001018190525060405180604001604052807f2878b9dbf5fcc34d7cae84e2e9999266972e98d94e6de7abedd3211abf90e8fc81526020017f0e0f2be7a4cdd154db3d77aaae3494eb672edd8729a9c51826e268d9c69d53198152508160800151601e8151811061144f5761144e612dfa565b5b602002602001018190525060405180604001604052807f0c31b1e570d2d0ba98442df6a601c4e50794b6022667ef722c06b8103621954d81526020017f297015e4b439197d78a685acc66a1e9cb57c3e1f611545f5d9a8ea5a40599dc58152508160800151601f815181106114c7576114c6612dfa565b5b602002602001018190525060405180604001604052807f2164ca81e34bfab378fd55cb6e322850b91250c6ce04b17ed37721e5d5f9e99081526020017f14a261721a51e55a12435fe8e174df3c14a534bb6e548f03b12f3b8211d25760815250816080015160208151811061153f5761153e612dfa565b5b602002602001018190525060405180604001604052807f15795ade1a2a2f3bab773eae9a3603b8b85e48d93e6cd30fd355542241fa95ca81526020017f0284f3ed6febfbbb593d10b9e15ace96a2d68d9fb3ec5c7eff9c6c9a2068525b81525081608001516021815181106115b7576115b6612dfa565b5b602002602001018190525060405180604001604052807f2091e06c95251d5b712fc991744a888a1c0b6a12104779125fb670af19a58fc481526020017f027503f786b4c0ec41cedc5d86c0529bb8f3d4e18085a4436d15afcaa66653ea815250816080015160228151811061162f5761162e612dfa565b5b602002602001018190525060405180604001604052807f15a804a9b08c4c5faec7fe3b2fb6d58a33e5ec8945cce9b97dfe5f67484cef9381526020017f2f26086b1f2dafbb912edd2fae3f7814ec625d821ae37c21c7552ee104411c4f81525081608001516023815181106116a7576116a6612dfa565b5b602002602001018190525060405180604001604052807f0f15a9962051e91040db43d3a6bec763a6a6172b1f89f98bb7767426fdcef39d81526020017f28bf5d6db18192b6ff2169f9560a3f61326ff877919ef82c1b1c515108d0d882815250816080015160248151811061171f5761171e612dfa565b5b602002602001018190525060405180604001604052807f11c8412c8dda15bfa3207cdb2c71efb0f4cca0b02fdba798be27e649ef86d31581526020017f2d5f8a1c7d4e0d63b35f5e2ecf39afe4f27b21bc4940885de4f63233ff1b6b1d815250816080015160258151811061179757611796612dfa565b5b602002602001018190525060405180604001604052807f180cc1601065291d987c417c4895d9830c8fb3e9afeaa5eaf4362cd9c0647ccd81526020017f28e8047ee4e7d824d8583f5fc29e24007e99779c42f3d92ef3e753f51ad86da8815250816080015160268151811061180f5761180e612dfa565b5b602002602001018190525060405180604001604052807f1802ec16440f9de9da6c44f51e916e8ea647ddfa24d72c11db9dac48929c607c81526020017f235991b0c7e1135b05cbe763c4c238ed9d2dfac39320d58dfbc0377581139dd5815250816080015160278151811061188757611886612dfa565b5b602002602001018190525060405180604001604052807f25e205b54c6746553d645b9984fd4c439fce9b2e2ab26c2b498d6b4368e8079a81526020017f1e03f921fba09e542af7c4775a0d9463ad43ab7d11055712303763654635763c81525081608001516028815181106118ff576118fe612dfa565b5b602002602001018190525060405180604001604052807f2fc9a7a4971585b9e15910dad4fe29ee21a314bc4120f9f38a9e04e152c9b84d81526020017f20b6b471534ea04ee7e8c1156f77ca35de82a5b9d0625f44372fbe87062908b4815250816080015160298151811061197757611976612dfa565b5b602002602001018190525060405180604001604052807f0823f0043e80a0719cebdbd94071b59836757d1de56e2f81340c31667688895881526020017f2ef49e8aeb916c75ef4d9919a0a38ea1d6a8575f5354914c5b0920aa19e4912a8152508160800151602a815181106119ef576119ee612dfa565b5b602002602001018190525060405180604001604052807f13ae71d4522a2e324dc81c07997a58289273928768e932689994622b94e355c981526020017ef56f36fadf178fcc270e5a79b2489cb3a371eec360820eeba1ae1f4bb479768152508160800151602b81518110611a6657611a65612dfa565b5b602002602001018190525060405180604001604052807f1d05a5837da0a771ee3654301ef2b7beeb344be9af57d5c30deda67f5218404781526020017f2a93e0dd00fff56d0b2814a432e56a2918d37a238f901b707fd78fd7134c11828152508160800151602c81518110611ade57611add612dfa565b5b602002602001018190525060405180604001604052807f03b55018c306fd3c4409e502d0367e0546f809a4b8316a7563d26cb41b9cc09d81526020017f0487dc38b20c28721916d84c81b255cd8e7f7504ec8fb92dbfd79cb3cd6d7bf88152508160800151602d81518110611b5657611b55612dfa565b5b602002602001018190525060405180604001604052807f0d342995dbdd33b928a014735376a529aaea65d1dd0a53d4e24615b1deff6dcb81526020017f21bf7326bb71a7511042cbc75d82c73e1fffd4a8d66250bf9bee1cf8240d6d5a8152508160800151602e81518110611bce57611bcd612dfa565b5b602002602001018190525060405180604001604052807f0b3f3024676cede871a5032cfbe29653b66068e3e5ae6c4acd7fb7822e1875e481526020017f2b794e5602721de34742dca745df0a1b0fea6365c6995cc9f7616bf80ef779b38152508160800151602f81518110611c4657611c45612dfa565b5b602002602001018190525060405180604001604052807f0d905c01705e9813e75d97c41646a336fc7e53fad2cacff9c3b89c69aebc7d7f81526020017f0ee0cee2476a5aee8f8338f7c2950fd423e577aa4771e4070c74b9e56168af098152508160800151603081518110611cbe57611cbd612dfa565b5b602002602001018190525060405180604001604052807f0ba8c9556357805c7bd5fbc5cf24a2aa4e3d858c1ee86a08adc665f1b4036b0481526020017f0c9f1cdc6c252cb195eca9745dec371c6f225318dab0433c6b1a284b278c586e8152508160800151603181518110611d3657611d35612dfa565b5b602002602001018190525060405180604001604052807f2fb81ff046c6c2e9118e2fcec86ffbfe9391028d94af7da3a3c3fabace70fab381526020017f148ed40cc7bda961d9324e0a4200c503c7db745f8ff3446289c1f94219c6a1798152508160800151603281518110611dae57611dad612dfa565b5b602002602001018190525060405180604001604052807f2459482ed2a859bdefc5c14a322f4eae35a116b31e9e3af64aa81f334edf6b9c81526020017f03487098f1d68c824f7b0307f33a8bbd4d30636dc439d657468a55b5540c47ce8152508160800151603381518110611e2657611e25612dfa565b5b602002602001018190525060405180604001604052807f03aa6df06ec48a1b6f065a838c4c62e1133b86d94e7769a901b420ae9252e8fd81526020017f2b1cc9ee8fa443f217ae5cae1579ff3597a4ceae8c5e67852ad141dffc9a214f8152508160800151603481518110611e9e57611e9d612dfa565b5b602002602001018190525060405180604001604052807f1c34e36b00db3c49f0d7ede436f570d5c4c013b3d24d2fd618e43a215f7191f881526020017f1f00daac177d93a5c34ca4122ed87c0e8e44fe1eb7c4a0a631ab43ca62e779748152508160800151603581518110611f1657611f15612dfa565b5b602002602001018190525060405180604001604052807f070cbfc7f432707fffb6d111e4c4e7c4d36a7b37f023b189f4a655680447560981526020017f1dc1c24c74e2f21961cb33ce3d97cd28d802b41bd08e41334521ea6678e2982c8152508160800151603681518110611f8e57611f8d612dfa565b5b602002602001018190525060405180604001604052807f0aebdf705513f6cb989bb7b1270d9e2c76669bbe2d1705c0d175aafab3818aad81526020017f13aa62f56d11c537533f874bb88b26907010c9f3a9a69fd5896459a4fb7260be815250816080015160378151811061200657612005612dfa565b5b602002602001018190525060405180604001604052807f1ec2f70315abbc67d9f20f1045e2f15fd1cc1f57b72cb6fc7d153b03fc16fddf81526020017f1062709f3552c279818c96867ec91eb6e0e17783427398530a79efaf56d95bd9815250816080015160388151811061207e5761207d612dfa565b5b602002602001018190525090565b612094612814565b61209c61282e565b8360000151816000600381106120b5576120b4612dfa565b5b6020020181815250508360200151816001600381106120d7576120d6612dfa565b5b60200201818152505082816002600381106120f5576120f4612dfa565b5b602002018181525050600060608360808460076107d05a03fa9050806000811461211e57612120565bfe5b508061212b57600080fd5b505092915050565b61213b612814565b612143612850565b83600001518160006004811061215c5761215b612dfa565b5b60200201818152505083602001518160016004811061217e5761217d612dfa565b5b6020020181815250508260000151816002600481106121a05761219f612dfa565b5b6020020181815250508260200151816003600481106121c2576121c1612dfa565b5b602002018181525050600060608360c08460066107d05a03fa905080600081146121eb576121ed565bfe5b50806121f857600080fd5b505092915050565b612208612814565b60007f30644e72e131a029b85045b68181585d97816a916871ca8d3c208c16d87cfd47905060008360000151148015612245575060008360200151145b156122695760405180604001604052806000815260200160008152509150506122a0565b60405180604001604052808460000151815260200182856020015161228e9190612d6b565b836122999190612ca7565b8152509150505b919050565b600080600467ffffffffffffffff8111156122c3576122c2612e29565b5b6040519080825280602002602001820160405280156122fc57816020015b6122e9612814565b8152602001906001900390816122e15790505b5090506000600467ffffffffffffffff81111561231c5761231b612e29565b5b60405190808252806020026020018201604052801561235557816020015b612342612872565b81526020019060019003908161233a5790505b5090508a8260008151811061236d5761236c612dfa565b5b6020026020010181905250888260018151811061238d5761238c612dfa565b5b602002602001018190525086826002815181106123ad576123ac612dfa565b5b602002602001018190525084826003815181106123cd576123cc612dfa565b5b602002602001018190525089816000815181106123ed576123ec612dfa565b5b6020026020010181905250878160018151811061240d5761240c612dfa565b5b6020026020010181905250858160028151811061242d5761242c612dfa565b5b6020026020010181905250838160038151811061244d5761244c612dfa565b5b60200260200101819052506124628282612472565b9250505098975050505050505050565b6000815183511461248257600080fd5b60008351905060006006826124979190612c4d565b905060008167ffffffffffffffff8111156124b5576124b4612e29565b5b6040519080825280602002602001820160405280156124e35781602001602082028036833780820191505090505b50905060005b838110156127685786818151811061250457612503612dfa565b5b6020026020010151600001518260006006846125209190612c4d565b61252a9190612bf7565b8151811061253b5761253a612dfa565b5b60200260200101818152505086818151811061255a57612559612dfa565b5b6020026020010151602001518260016006846125769190612c4d565b6125809190612bf7565b8151811061259157612590612dfa565b5b6020026020010181815250508581815181106125b0576125af612dfa565b5b6020026020010151600001516001600281106125cf576125ce612dfa565b5b60200201518260026006846125e49190612c4d565b6125ee9190612bf7565b815181106125ff576125fe612dfa565b5b60200260200101818152505085818151811061261e5761261d612dfa565b5b60200260200101516000015160006002811061263d5761263c612dfa565b5b60200201518260036006846126529190612c4d565b61265c9190612bf7565b8151811061266d5761266c612dfa565b5b60200260200101818152505085818151811061268c5761268b612dfa565b5b6020026020010151602001516001600281106126ab576126aa612dfa565b5b60200201518260046006846126c09190612c4d565b6126ca9190612bf7565b815181106126db576126da612dfa565b5b6020026020010181815250508581815181106126fa576126f9612dfa565b5b60200260200101516020015160006002811061271957612718612dfa565b5b602002015182600560068461272e9190612c4d565b6127389190612bf7565b8151811061274957612748612dfa565b5b602002602001018181525050808061276090612d22565b9150506124e9565b50612771612898565b6000602082602086026020860160086107d05a03fa9050806000811461279657612798565bfe5b50806127a357600080fd5b6000826000600181106127b9576127b8612dfa565b5b602002015114159550505050505092915050565b6040518060a001604052806127e0612814565b81526020016127ed612872565b81526020016127fa612872565b8152602001612807612872565b8152602001606081525090565b604051806040016040528060008152602001600081525090565b6040518060600160405280600390602082028036833780820191505090505090565b6040518060800160405280600490602082028036833780820191505090505090565b60405180604001604052806128856128ba565b81526020016128926128ba565b81525090565b6040518060200160405280600190602082028036833780820191505090505090565b6040518060400160405280600290602082028036833780820191505090505090565b60006128ef6128ea84612bab565b612b86565b9050808285602086028201111561290957612908612e62565b5b60005b85811015612939578161291f8882612b05565b84526020840193506020830192505060018101905061290c565b5050509392505050565b600061295661295184612bd1565b612b86565b905080828560208602820111156129705761296f612e62565b5b60005b858110156129a057816129868882612b05565b845260208401935060208301925050600181019050612973565b5050509392505050565b600082601f8301126129bf576129be612e58565b5b60026129cc8482856128dc565b91505092915050565b600082601f8301126129ea576129e9612e58565b5b60386129f7848285612943565b91505092915050565b600060408284031215612a1657612a15612e5d565b5b612a206040612b86565b90506000612a3084828501612b05565b6000830152506020612a4484828501612b05565b60208301525092915050565b600060808284031215612a6657612a65612e5d565b5b612a706040612b86565b90506000612a80848285016129aa565b6000830152506040612a94848285016129aa565b60208301525092915050565b60006101008284031215612ab757612ab6612e5d565b5b612ac16060612b86565b90506000612ad184828501612a00565b6000830152506040612ae584828501612a50565b60208301525060c0612af984828501612a00565b60408301525092915050565b600081359050612b1481612e7d565b92915050565b6000806108008385031215612b3257612b31612e67565b5b6000612b4085828601612aa0565b925050610100612b52858286016129d5565b9150509250929050565b612b6581612cdb565b82525050565b6000602082019050612b806000830184612b5c565b92915050565b6000612b90612ba1565b9050612b9c8282612cf1565b919050565b6000604051905090565b600067ffffffffffffffff821115612bc657612bc5612e29565b5b602082029050919050565b600067ffffffffffffffff821115612bec57612beb612e29565b5b602082029050919050565b6000612c0282612ce7565b9150612c0d83612ce7565b9250827fffffffffffffffffffffffffffffffffffffffffffffffffffffffffffffffff03821115612c4257612c41612d9c565b5b828201905092915050565b6000612c5882612ce7565b9150612c6383612ce7565b9250817fffffffffffffffffffffffffffffffffffffffffffffffffffffffffffffffff0483118215151615612c9c57612c9b612d9c565b5b828202905092915050565b6000612cb282612ce7565b9150612cbd83612ce7565b925082821015612cd057612ccf612d9c565b5b828203905092915050565b60008115159050919050565b6000819050919050565b612cfa82612e6c565b810181811067ffffffffffffffff82111715612d1957612d18612e29565b5b80604052505050565b6000612d2d82612ce7565b91507fffffffffffffffffffffffffffffffffffffffffffffffffffffffffffffffff821415612d6057612d5f612d9c565b5b600182019050919050565b6000612d7682612ce7565b9150612d8183612ce7565b925082612d9157612d90612dcb565b5b828206905092915050565b7f4e487b7100000000000000000000000000000000000000000000000000000000600052601160045260246000fd5b7f4e487b7100000000000000000000000000000000000000000000000000000000600052601260045260246000fd5b7f4e487b7100000000000000000000000000000000000000000000000000000000600052603260045260246000fd5b7f4e487b7100000000000000000000000000000000000000000000000000000000600052604160045260246000fd5b600080fd5b600080fd5b600080fd5b600080fd5b6000601f19601f8301169050919050565b612e8681612ce7565b8114612e9157600080fd5b5056fea2646970667358221220b02c6ee4ce396ae0283bcc563d55f3169ca982481c0d9552e28318f76bf0a9f064736f6c63430008060033",
  "linkReferences": {},
  "deployedLinkReferences": {}
}