{
  "_format": "hh-sol-artifact-1",
  "contractName": "Verifier",
  "sourceName": "contracts/DVSC.sol",
  "abi": [
    {
      "inputs": [
        {
          "components": [
            {
              "components": [
                {
                  "internalType": "uint256",
                  "name": "X",
                  "type": "uint256"
                },
                {
                  "internalType": "uint256",
                  "name": "Y",
                  "type": "uint256"
                }
              ],
              "internalType": "struct Pairing.G1Point",
              "name": "a",
              "type": "tuple"
            },
            {
              "components": [
                {
                  "internalType": "uint256[2]",
                  "name": "X",
                  "type": "uint256[2]"
                },
                {
                  "internalType": "uint256[2]",
                  "name": "Y",
                  "type": "uint256[2]"
                }
              ],
              "internalType": "struct Pairing.G2Point",
              "name": "b",
              "type": "tuple"
            },
            {
              "components": [
                {
                  "internalType": "uint256",
                  "name": "X",
                  "type": "uint256"
                },
                {
                  "internalType": "uint256",
                  "name": "Y",
                  "type": "uint256"
                }
              ],
              "internalType": "struct Pairing.G1Point",
              "name": "c",
              "type": "tuple"
            }
          ],
          "internalType": "struct Verifier.Proof",
          "name": "proof",
          "type": "tuple"
        },
        {
          "internalType": "uint256[33]",
          "name": "input",
          "type": "uint256[33]"
        }
      ],
      "name": "verifyTx",
      "outputs": [
        {
          "internalType": "bool",
          "name": "r",
          "type": "bool"
        }
      ],
      "stateMutability": "view",
      "type": "function"
    }
  ],
  "bytecode": "0x608060405234801561001057600080fd5b50612406806100206000396000f3fe608060405234801561001057600080fd5b506004361061002b5760003560e01c8063785b3bbb14610030575b600080fd5b61004a60048036038101906100459190612056565b610060565b60405161005791906120a7565b60405180910390f35b600080602167ffffffffffffffff81111561007e5761007d612365565b5b6040519080825280602002602001820160405280156100ac5781602001602082028036833780820191505090505b50905060005b6021811015610105578381602181106100ce576100cd612336565b5b60200201518282815181106100e6576100e5612336565b5b60200260200101818152505080806100fd9061225e565b9150506100b2565b506000610112828661012e565b1415610122576001915050610128565b60009150505b92915050565b6000807f30644e72e131a029b85045b68181585d2833e84879b9709143e1f593f00000019050600061015e6102c5565b9050806080015151600186516101749190612133565b1461017e57600080fd5b60006040518060400160405280600081526020016000815250905060005b865181101561023757838782815181106101b9576101b8612336565b5b6020026020010151106101cb57600080fd5b6102228261021d85608001516001856101e49190612133565b815181106101f5576101f4612336565b5b60200260200101518a85815181106102105761020f612336565b5b60200260200101516115c8565b61166f565b9150808061022f9061225e565b91505061019c565b5061026181836080015160008151811061025457610253612336565b5b602002602001015161166f565b90506102a7856000015186602001516102798461173c565b856040015161028b8a6040015161173c565b876060015161029d896000015161173c565b89602001516117e1565b6102b757600193505050506102bf565b600093505050505b92915050565b6102cd611d09565b60405180604001604052807f2bb67f29167a914b03c69b8aad5970df78023cfd91a5577ad677271de06b4d0b81526020017f13c9c50fab2755366e2b8de201af295f64996cd30d1a1c7baeb745b1c62c68118152508160000181905250604051806040016040528060405180604001604052807f2542b7e7f6c84f432711b0e3397a1500989c3d8ee0ab7bd106e44078ce149f1c81526020017f12d3769c3a2d0eeb558ef2e88b94de6df9ecddec93fd449afe773948acc9ad37815250815260200160405180604001604052807f2298cb7778d78716c4dd07fd9368160b0f9af1fd0e072ff94875730e7b511b9a81526020017f2333c49f0048e17c4c1670f747eaef01db154ad51a525bcab69691a59ede5c9b8152508152508160200181905250604051806040016040528060405180604001604052807f07eec83164bad42a1547cc93699dfa19af2a9c38fd907167faaf7bf8bcb9846181526020017f0d7b38fbc41a101547de4bf7a3491b62dd3ce11638be11c766176bad67b11417815250815260200160405180604001604052807f0fdb76e698e6b9a8de83da93e7887148166edf819905d9a30658f4da380ae1f681526020017f02f03656fb857dcc2b70fe0a289debc09538fb94d07db35403affe6bf32048a98152508152508160400181905250604051806040016040528060405180604001604052807f209ce50bdbfe9497bfe1ecbd15fe30afc29606cba096d37be50cda09feb7447281526020017f20cd59fea61661090d3d2c6478da96a718187bf9369db268acbabf19e36a63af815250815260200160405180604001604052807f1d42fdbbab562bbc8362fe410b81d4e0de7515ccabe842dc7a8c4f035836f8ae81526020017f1c0bd86b30c369e5d505803c7af10e7e916c683bdd2f4beff49dcf895b9efc898152508152508160600181905250602267ffffffffffffffff81111561059457610593612365565b5b6040519080825280602002602001820160405280156105cd57816020015b6105ba611d50565b8152602001906001900390816105b25790505b50816080018190525060405180604001604052807f1517cb769a25823fdec0d666445e331c7b3fe73962f9da8160cf816ab5a3aefb81526020017f2d4c49a6b36365e6d6170b24a48d7313398c538e0d045b6aaa9ece4812d7c2c5815250816080015160008151811061064357610642612336565b5b602002602001018190525060405180604001604052807f049371186dfbab02f1e5a667d56dea886209b86cf7efae28d02faa01a8b26e1581526020017f1a8255f3bbd8f2002738efb2357ca8c715a536a16d0df7a73a77c413259047c581525081608001516001815181106106bb576106ba612336565b5b602002602001018190525060405180604001604052807f306026b09656fef0b6090149c56c6f7a7e575f0a3e22780d325c487d8c255e3a81526020017f1e3757bc89f9131e27fabb88971b04c7898d3de25231d8baae90aad2b430b2da815250816080015160028151811061073357610732612336565b5b602002602001018190525060405180604001604052807f2cfe79f5af6530940a3772db5365b445792e007d7d9ed5861f72244d9f36521781526020017f14c2a94cf6a8ad9be11edd9b2f71a4ea25a4c30619491e5b4d4bd92997ae289381525081608001516003815181106107ab576107aa612336565b5b602002602001018190525060405180604001604052807f227ed005a9975575d504b709ceb7b828ef9f7be3fdf27b1e4f98378cbd0be28281526020017f1cb6ef8899baa1180a30865a730a1c92506a32c0f550ee2375f407074242e918815250816080015160048151811061082357610822612336565b5b602002602001018190525060405180604001604052807f1f969ebc05bb91644dbbd85c22d704f0b7630727ca24ceeb452023f2621e503b81526020017f21777bb9b843210215edaf796e2b6e6fcd2e017a773c5fd75ebeee4d7f3423f5815250816080015160058151811061089b5761089a612336565b5b602002602001018190525060405180604001604052807f0f50308469cf9973cd1bfd7779c5f744840e5461098cd731ea3ee8a89ba2afab81526020017f06986a61d3d5efce945d6a1302e2205b2d00918ea5eb57999528d50af3dfb3f6815250816080015160068151811061091357610912612336565b5b602002602001018190525060405180604001604052807f0483c37ee85561ca20db8eab507df36e7e4f82cb3092116798e66aa6b42bdd7181526020017f27aac1c4dd3a87dd597e75b1c47c70587c6cc4ecd8034618992267c5d29d270f815250816080015160078151811061098b5761098a612336565b5b602002602001018190525060405180604001604052807f2eca6a2ef3b1078f673856c11c752a9d5ae8f000170648ac79cdf0ab2cab88fc81526020017f2ce4991870989bbe447a4eeb124dd4bdbba496bed42608e69299c404234f93108152508160800151600881518110610a0357610a02612336565b5b602002602001018190525060405180604001604052807f1f6ad4bd48d5e5ead6d5bb1588b88e649a0a26792b589cc19dc29fdb50ee54dd81526020017f1b9b61dd974769eb23563e2017fe61771ac0178b46e0c7c8c9fb05befdf0f7e88152508160800151600981518110610a7b57610a7a612336565b5b602002602001018190525060405180604001604052807f03bbb644d43b04cbd0ed3dc2788edca0faa9e4c10d5a0e61f9152c915c5b577781526020017f151188f1c06bec797b0354bc6ca1096d77a5b9159fb01efb0dd5413bea47c07d8152508160800151600a81518110610af357610af2612336565b5b602002602001018190525060405180604001604052807f051562be9164e211d60f4d0ee6686a7235d147c33945fcc998450d92e534ba8a81526020017f2d07f3228b18f9d6824e826eb2c7728f773de58231559a59a922a14a62596ba38152508160800151600b81518110610b6b57610b6a612336565b5b602002602001018190525060405180604001604052807ea8cf0675c863d293712e69447476920a986bd7032845646d81eb10cbf90e9281526020017f2a93896d37bb134e594e3777478f4e04eb3ab7e72e78cd5e0ea32dcc2cd929e48152508160800151600c81518110610be257610be1612336565b5b602002602001018190525060405180604001604052807f2a42456b8f9a8f1c682965e8002e613ffd7427aba5be5c448bbeddea67894e6381526020017f16aee652badfea6cd01c07acb6851986ae6bbf5b4f62314494aa161b694698778152508160800151600d81518110610c5a57610c59612336565b5b602002602001018190525060405180604001604052807f1d8b4596fe77e19d2dbb6c7e2e5ba5ba22bbedc2a056d05dd71374fe7e77a47181526020017f28b753a8e0a0bc1a2240308a407c2c7a9bc239c3ad93018da97d1b1fb883fc388152508160800151600e81518110610cd257610cd1612336565b5b602002602001018190525060405180604001604052807f12ca959a9673fb0c605b630925e6cc000baca56051c4d390dd59837d1be84c3081526020017f191054d3defa686058f960320c6e42821019a3c8ed00f825f71b89972e3a008b8152508160800151600f81518110610d4a57610d49612336565b5b602002602001018190525060405180604001604052807f112782c9cb74c9262c3044552a1ad0c3454475af0086df050f0bfeff4a2a3c8881526020017f0f689d7e9f3c7d400a3d99f8b2294295f128f9bfd1120f431d3eb37454f2fea28152508160800151601081518110610dc257610dc1612336565b5b602002602001018190525060405180604001604052807f0d88f8c2ee3a606e1531dde6c5dcf657e364bbc4be399f1ab0ee5bebd6956c8481526020017f173dd500761fb23ac92bece019c493f979e235f8c3655b0ac8b0633fe475243a8152508160800151601181518110610e3a57610e39612336565b5b602002602001018190525060405180604001604052807f2a37ff8c8e3e387bdb7bc3cd1b5699d8ea6adef8775e1a88382f29c80d32a91181526020017f0dde7083da3fa1867d565468845ab2fb4ef34ce8a7e2e5e5a3e3b3ed3d36b2928152508160800151601281518110610eb257610eb1612336565b5b602002602001018190525060405180604001604052807f0c2e0700e603d2d6e5181ea4e2712e2d7942af6e57aade458634acbf5a02226281526020017f0ed66cfa115522601b4986e575086e9a400b91e786a944d49a5a1c3d20dc47e38152508160800151601381518110610f2a57610f29612336565b5b602002602001018190525060405180604001604052807f061a3ef2933ebffb0d1c92bacc7a6f942d3496b5d2f9d420179d76e0b10d1cc281526020017f288075d750e3a16a08ade4dd0d40462d8472b511dae55d092f02cedaccd63a198152508160800151601481518110610fa257610fa1612336565b5b602002602001018190525060405180604001604052807f1524c55b15ffff304130597d442ef82d94d405794182c1f8789432308a19ef3a81526020017f0328990caafae119eecd82e9e5e3024b134bc2a98cb6288b06726f9e21cbae56815250816080015160158151811061101a57611019612336565b5b602002602001018190525060405180604001604052807f234703ead7399c7b9e4c54a8157000d84e4ca8eb84a418bdb86df061775b0e2c81526020017f018991d4dec51143dcf14df9bbaf467fedab28dd7579102c3b23dfdc703361a4815250816080015160168151811061109257611091612336565b5b602002602001018190525060405180604001604052807f03355d14aa7a28e6ad3ce21101b6e28dd959f69f7a5b706a74b1bbe06459e98e81526020017f20b38104acdd98539590a6cc3368ba57f0af640afd682dfd7e3a7233b8fd0019815250816080015160178151811061110a57611109612336565b5b602002602001018190525060405180604001604052807f1c6f7f3c67f61997d9f704c5841bd848b7febe35bb78ceda5fb281bccb53fdb681526020017f1596fd346975b7770be554a628028e337bce1191194f1cf6e0f935b8486693bf815250816080015160188151811061118257611181612336565b5b602002602001018190525060405180604001604052807f076777f19833706d75f5c5d454d7caca6c1d1ba835993187a944a919fa4beb7281526020017f0900b771b22d70055e26d2feccf852ab4e63e03b65410477f427f7dbd4f5918381525081608001516019815181106111fa576111f9612336565b5b602002602001018190525060405180604001604052807f2aa2cadc31147b9fcfb1c9c48cbeb0f298c5c83dfe9aa61bc882439585f7af0281526020017f27d43212075055218a9afe7ca704d18e15590007dadf609c7ba23a83ecfe578a8152508160800151601a8151811061127257611271612336565b5b602002602001018190525060405180604001604052807f0500c18e33846cc0fd51dc76660d664fa992e5da5634cb76d414a463ae0f961a81526020017f14c7a169ae4bae697823895a69b2d51de80e2dc2d7cfc4c1e203818fab66b7998152508160800151601b815181106112ea576112e9612336565b5b602002602001018190525060405180604001604052807f1705ebadc9433087e8dafde511e87e63c1a5e8f4e2ab0157a1c4a2c68ea49d1f81526020017f253e7583c7339bbcb83359904fcf814ad7b582cfdeea5a9663b0fb516c6b2b058152508160800151601c8151811061136257611361612336565b5b602002602001018190525060405180604001604052807f271883e4f9eaa9b1d7e75c60523fadb8254eb78ed2898243fa66cb53a3cd0c0e81526020017f063dac9b4fc0beaf120679c4c59e622e2b18efb179061740b3d03b1a8e5b15498152508160800151601d815181106113da576113d9612336565b5b602002602001018190525060405180604001604052807f1fefd64b5a4f136aa759cb4c15769c66aa6c7e9a8a16560439a4bea66741ec6981526020017f1a12a7551ba425d4151549c26f8b62c3026f6bc6c97034b18998fcfa40b998b48152508160800151601e8151811061145257611451612336565b5b602002602001018190525060405180604001604052807f299568b599f1eb133991a4308da461574f359ac06c7bfe68900899ab8f9b8be181526020017f2127d4c5efde5bfa4f64d402787ea6929e04a6b39ea8c91df4e2bac4d584843b8152508160800151601f815181106114ca576114c9612336565b5b602002602001018190525060405180604001604052807f04f4edd3b0bcfb93401f44ada2225278c80ce998997efda125be17e387b94e7981526020017f141d2a5fa9dd49d8b925dd5fd9c16cf08f52e0dd0b803b706fd0dae21e775635815250816080015160208151811061154257611541612336565b5b602002602001018190525060405180604001604052807f17ffa3baa6f2c1a5ff83f5bf187db94b2990d64eff9ecb1f35ddcce9e0a729ae81526020017f26bdb5af039aa3beb44a12bdd1ab993e1a7643ee269d9284a8e6f56f5fa28fdb81525081608001516021815181106115ba576115b9612336565b5b602002602001018190525090565b6115d0611d50565b6115d8611d6a565b8360000151816000600381106115f1576115f0612336565b5b60200201818152505083602001518160016003811061161357611612612336565b5b602002018181525050828160026003811061163157611630612336565b5b602002018181525050600060608360808460076107d05a03fa9050806000811461165a5761165c565bfe5b508061166757600080fd5b505092915050565b611677611d50565b61167f611d8c565b83600001518160006004811061169857611697612336565b5b6020020181815250508360200151816001600481106116ba576116b9612336565b5b6020020181815250508260000151816002600481106116dc576116db612336565b5b6020020181815250508260200151816003600481106116fe576116fd612336565b5b602002018181525050600060608360c08460066107d05a03fa9050806000811461172757611729565bfe5b508061173457600080fd5b505092915050565b611744611d50565b60007f30644e72e131a029b85045b68181585d97816a916871ca8d3c208c16d87cfd47905060008360000151148015611781575060008360200151145b156117a55760405180604001604052806000815260200160008152509150506117dc565b6040518060400160405280846000015181526020018285602001516117ca91906122a7565b836117d591906121e3565b8152509150505b919050565b600080600467ffffffffffffffff8111156117ff576117fe612365565b5b60405190808252806020026020018201604052801561183857816020015b611825611d50565b81526020019060019003908161181d5790505b5090506000600467ffffffffffffffff81111561185857611857612365565b5b60405190808252806020026020018201604052801561189157816020015b61187e611dae565b8152602001906001900390816118765790505b5090508a826000815181106118a9576118a8612336565b5b602002602001018190525088826001815181106118c9576118c8612336565b5b602002602001018190525086826002815181106118e9576118e8612336565b5b6020026020010181905250848260038151811061190957611908612336565b5b6020026020010181905250898160008151811061192957611928612336565b5b6020026020010181905250878160018151811061194957611948612336565b5b6020026020010181905250858160028151811061196957611968612336565b5b6020026020010181905250838160038151811061198957611988612336565b5b602002602001018190525061199e82826119ae565b9250505098975050505050505050565b600081518351146119be57600080fd5b60008351905060006006826119d39190612189565b905060008167ffffffffffffffff8111156119f1576119f0612365565b5b604051908082528060200260200182016040528015611a1f5781602001602082028036833780820191505090505b50905060005b83811015611ca457868181518110611a4057611a3f612336565b5b602002602001015160000151826000600684611a5c9190612189565b611a669190612133565b81518110611a7757611a76612336565b5b602002602001018181525050868181518110611a9657611a95612336565b5b602002602001015160200151826001600684611ab29190612189565b611abc9190612133565b81518110611acd57611acc612336565b5b602002602001018181525050858181518110611aec57611aeb612336565b5b602002602001015160000151600160028110611b0b57611b0a612336565b5b6020020151826002600684611b209190612189565b611b2a9190612133565b81518110611b3b57611b3a612336565b5b602002602001018181525050858181518110611b5a57611b59612336565b5b602002602001015160000151600060028110611b7957611b78612336565b5b6020020151826003600684611b8e9190612189565b611b989190612133565b81518110611ba957611ba8612336565b5b602002602001018181525050858181518110611bc857611bc7612336565b5b602002602001015160200151600160028110611be757611be6612336565b5b6020020151826004600684611bfc9190612189565b611c069190612133565b81518110611c1757611c16612336565b5b602002602001018181525050858181518110611c3657611c35612336565b5b602002602001015160200151600060028110611c5557611c54612336565b5b6020020151826005600684611c6a9190612189565b611c749190612133565b81518110611c8557611c84612336565b5b6020026020010181815250508080611c9c9061225e565b915050611a25565b50611cad611dd4565b6000602082602086026020860160086107d05a03fa90508060008114611cd257611cd4565bfe5b5080611cdf57600080fd5b600082600060018110611cf557611cf4612336565b5b602002015114159550505050505092915050565b6040518060a00160405280611d1c611d50565b8152602001611d29611dae565b8152602001611d36611dae565b8152602001611d43611dae565b8152602001606081525090565b604051806040016040528060008152602001600081525090565b6040518060600160405280600390602082028036833780820191505090505090565b6040518060800160405280600490602082028036833780820191505090505090565b6040518060400160405280611dc1611df6565b8152602001611dce611df6565b81525090565b6040518060200160405280600190602082028036833780820191505090505090565b6040518060400160405280600290602082028036833780820191505090505090565b6000611e2b611e26846120e7565b6120c2565b90508082856020860282011115611e4557611e4461239e565b5b60005b85811015611e755781611e5b8882612041565b845260208401935060208301925050600181019050611e48565b5050509392505050565b6000611e92611e8d8461210d565b6120c2565b90508082856020860282011115611eac57611eab61239e565b5b60005b85811015611edc5781611ec28882612041565b845260208401935060208301925050600181019050611eaf565b5050509392505050565b600082601f830112611efb57611efa612394565b5b6002611f08848285611e18565b91505092915050565b600082601f830112611f2657611f25612394565b5b6021611f33848285611e7f565b91505092915050565b600060408284031215611f5257611f51612399565b5b611f5c60406120c2565b90506000611f6c84828501612041565b6000830152506020611f8084828501612041565b60208301525092915050565b600060808284031215611fa257611fa1612399565b5b611fac60406120c2565b90506000611fbc84828501611ee6565b6000830152506040611fd084828501611ee6565b60208301525092915050565b60006101008284031215611ff357611ff2612399565b5b611ffd60606120c2565b9050600061200d84828501611f3c565b600083015250604061202184828501611f8c565b60208301525060c061203584828501611f3c565b60408301525092915050565b600081359050612050816123b9565b92915050565b600080610520838503121561206e5761206d6123a3565b5b600061207c85828601611fdc565b92505061010061208e85828601611f11565b9150509250929050565b6120a181612217565b82525050565b60006020820190506120bc6000830184612098565b92915050565b60006120cc6120dd565b90506120d8828261222d565b919050565b6000604051905090565b600067ffffffffffffffff82111561210257612101612365565b5b602082029050919050565b600067ffffffffffffffff82111561212857612127612365565b5b602082029050919050565b600061213e82612223565b915061214983612223565b9250827fffffffffffffffffffffffffffffffffffffffffffffffffffffffffffffffff0382111561217e5761217d6122d8565b5b828201905092915050565b600061219482612223565b915061219f83612223565b9250817fffffffffffffffffffffffffffffffffffffffffffffffffffffffffffffffff04831182151516156121d8576121d76122d8565b5b828202905092915050565b60006121ee82612223565b91506121f983612223565b92508282101561220c5761220b6122d8565b5b828203905092915050565b60008115159050919050565b6000819050919050565b612236826123a8565b810181811067ffffffffffffffff8211171561225557612254612365565b5b80604052505050565b600061226982612223565b91507fffffffffffffffffffffffffffffffffffffffffffffffffffffffffffffffff82141561229c5761229b6122d8565b5b600182019050919050565b60006122b282612223565b91506122bd83612223565b9250826122cd576122cc612307565b5b828206905092915050565b7f4e487b7100000000000000000000000000000000000000000000000000000000600052601160045260246000fd5b7f4e487b7100000000000000000000000000000000000000000000000000000000600052601260045260246000fd5b7f4e487b7100000000000000000000000000000000000000000000000000000000600052603260045260246000fd5b7f4e487b7100000000000000000000000000000000000000000000000000000000600052604160045260246000fd5b600080fd5b600080fd5b600080fd5b600080fd5b6000601f19601f8301169050919050565b6123c281612223565b81146123cd57600080fd5b5056fea2646970667358221220836986224607e71195c975f0ebcbbd6f5729b381a93aba4ff4d0f857fb424e0564736f6c63430008060033",
  "linkReferences": {},
  "deployedLinkReferences": {}
}